{
  "abi": [
    {
      "inputs": [],
      "stateMutability": "nonpayable",
      "type": "constructor"
    },
    {
      "anonymous": false,
      "inputs": [
        {
          "indexed": true,
          "internalType": "address",
          "name": "benefactor",
          "type": "address"
        },
        {
          "indexed": false,
          "internalType": "string",
          "name": "aliveStatus",
          "type": "string"
        }
      ],
      "name": "BenefactorIsAlive",
      "type": "event"
    },
    {
      "anonymous": false,
      "inputs": [
        {
          "indexed": true,
          "internalType": "address",
          "name": "benefactor",
          "type": "address"
        },
        {
          "indexed": false,
          "internalType": "string",
          "name": "deadStatus",
          "type": "string"
        }
      ],
      "name": "BenefactorIsDead",
      "type": "event"
    },
    {
      "anonymous": false,
      "inputs": [
        {
          "indexed": true,
          "internalType": "address",
          "name": "beneficiary",
          "type": "address"
        },
        {
          "indexed": false,
          "internalType": "string[]",
          "name": "ipfsCIDs",
          "type": "string[]"
        }
      ],
      "name": "BeneficiaryAdded",
      "type": "event"
    },
    {
      "anonymous": false,
      "inputs": [
        {
          "indexed": true,
          "internalType": "address",
          "name": "beneficiary",
          "type": "address"
        }
      ],
      "name": "BeneficiaryRemoved",
      "type": "event"
    },
    {
      "anonymous": false,
      "inputs": [
        {
          "indexed": true,
          "internalType": "address",
          "name": "benefactor",
          "type": "address"
        },
        {
          "indexed": false,
          "internalType": "uint256",
          "name": "responseTime",
          "type": "uint256"
        }
      ],
      "name": "DeadMansSwitchDisabled",
      "type": "event"
    },
    {
      "anonymous": false,
      "inputs": [
        {
          "indexed": true,
          "internalType": "address",
          "name": "beneficiary",
          "type": "address"
        },
        {
          "indexed": false,
          "internalType": "uint256",
          "name": "countdownDuration",
          "type": "uint256"
        }
      ],
      "name": "DeadMansSwitchEnabled",
      "type": "event"
    },
    {
      "anonymous": false,
      "inputs": [
        {
          "indexed": true,
          "internalType": "address",
          "name": "beneficiary",
          "type": "address"
        },
        {
          "indexed": false,
          "internalType": "string",
          "name": "ipfsCID",
          "type": "string"
        }
      ],
      "name": "IpfsCIDAdded",
      "type": "event"
    },
    {
      "anonymous": false,
      "inputs": [
        {
          "indexed": true,
          "internalType": "address",
          "name": "beneficiary",
          "type": "address"
        },
        {
          "indexed": false,
          "internalType": "string",
          "name": "ipfsCID",
          "type": "string"
        }
      ],
      "name": "IpfsCIDRemoved",
      "type": "event"
    },
    {
      "anonymous": false,
      "inputs": [
        {
          "indexed": true,
          "internalType": "address",
          "name": "caller",
          "type": "address"
        }
      ],
      "name": "SwitchAlreadyOff",
      "type": "event"
    },
    {
      "anonymous": false,
      "inputs": [
        {
          "indexed": true,
          "internalType": "address",
          "name": "caller",
          "type": "address"
        }
      ],
      "name": "SwitchAlreadyOn",
      "type": "event"
    },
    {
      "anonymous": false,
      "inputs": [
        {
          "indexed": false,
          "internalType": "uint256",
          "name": "countdownDuration",
          "type": "uint256"
        },
        {
          "indexed": false,
          "internalType": "uint256",
          "name": "responseTime",
          "type": "uint256"
        },
        {
          "indexed": false,
          "internalType": "uint256",
          "name": "currentTime",
          "type": "uint256"
        },
        {
          "indexed": false,
          "internalType": "uint256",
          "name": "lastBenefactorResponseTime",
          "type": "uint256"
        }
      ],
      "name": "remainingCountdownInfo",
      "type": "event"
    },
    {
      "inputs": [
        {
          "internalType": "address",
          "name": "_beneficiary",
          "type": "address"
        },
        {
          "internalType": "string[]",
          "name": "_ipfsCIDs",
          "type": "string[]"
        }
      ],
      "name": "addBeneficiary",
      "outputs": [],
      "stateMutability": "nonpayable",
      "type": "function"
    },
    {
      "inputs": [
        {
          "internalType": "address",
          "name": "_beneficiary",
          "type": "address"
        },
        {
          "internalType": "string",
          "name": "_ipfsCID",
          "type": "string"
        }
      ],
      "name": "addIpfsCID",
      "outputs": [],
      "stateMutability": "nonpayable",
      "type": "function"
    },
    {
      "inputs": [],
      "name": "benefactor",
      "outputs": [
        {
          "internalType": "address",
          "name": "",
          "type": "address"
        }
      ],
      "stateMutability": "view",
      "type": "function"
    },
    {
      "inputs": [],
      "name": "checkAliveStatus",
      "outputs": [
        {
          "internalType": "bool",
          "name": "",
          "type": "bool"
        }
      ],
      "stateMutability": "nonpayable",
      "type": "function"
    },
    {
      "inputs": [],
      "name": "countdownDuration",
      "outputs": [
        {
          "internalType": "uint256",
          "name": "",
          "type": "uint256"
        }
      ],
      "stateMutability": "view",
      "type": "function"
    },
    {
      "inputs": [],
      "name": "enableSwitch",
      "outputs": [],
      "stateMutability": "nonpayable",
      "type": "function"
    },
    {
      "inputs": [
        {
          "internalType": "address",
          "name": "_beneficiary",
          "type": "address"
        }
      ],
      "name": "getCIDs",
      "outputs": [
        {
          "internalType": "string[]",
          "name": "",
          "type": "string[]"
        }
      ],
      "stateMutability": "view",
      "type": "function"
    },
    {
      "inputs": [],
      "name": "getRemainingCountdownTime",
      "outputs": [
        {
          "internalType": "uint256",
          "name": "",
          "type": "uint256"
        }
      ],
      "stateMutability": "nonpayable",
      "type": "function"
    },
    {
      "inputs": [],
      "name": "isAlive",
      "outputs": [
        {
          "internalType": "bool",
          "name": "",
          "type": "bool"
        }
      ],
      "stateMutability": "view",
      "type": "function"
    },
    {
      "inputs": [
        {
          "internalType": "address",
          "name": "_address",
          "type": "address"
        }
      ],
      "name": "isBeneficiary",
      "outputs": [
        {
          "internalType": "bool",
          "name": "",
          "type": "bool"
        }
      ],
      "stateMutability": "view",
      "type": "function"
    },
    {
      "inputs": [],
      "name": "isSwitchedOff",
      "outputs": [
        {
          "internalType": "bool",
          "name": "",
          "type": "bool"
        }
      ],
      "stateMutability": "view",
      "type": "function"
    },
    {
      "inputs": [],
      "name": "lastBenefactorResponseTime",
      "outputs": [
        {
          "internalType": "uint256",
          "name": "",
          "type": "uint256"
        }
      ],
      "stateMutability": "view",
      "type": "function"
    },
    {
      "inputs": [
        {
          "internalType": "address",
          "name": "_beneficiary",
          "type": "address"
        }
      ],
      "name": "removeBeneficiary",
      "outputs": [],
      "stateMutability": "nonpayable",
      "type": "function"
    },
    {
      "inputs": [
        {
          "internalType": "address",
          "name": "_beneficiary",
          "type": "address"
        },
        {
          "internalType": "string",
          "name": "_ipfsCID",
          "type": "string"
        }
      ],
      "name": "removeIpfsCID",
      "outputs": [],
      "stateMutability": "nonpayable",
      "type": "function"
    },
    {
      "inputs": [],
      "name": "respondToSwitch",
      "outputs": [],
      "stateMutability": "nonpayable",
      "type": "function"
    }
  ],
  "devdoc": {
    "details": "Smart contract for managing a benefactor's dead man's switch with assigned beneficiaries.",
    "kind": "dev",
    "methods": {
      "addBeneficiary(address,string[])": {
        "details": "Adds a new beneficiary to the list. Only callable by the benefactor.",
        "params": {
          "_beneficiary": "The address of the new beneficiary.",
          "_ipfsCIDs": "An array of IPFS CIDs associated with the new beneficiary."
        }
      },
      "addIpfsCID(address,string)": {
        "details": "Adds an IPFS CID to the specified beneficiary. Only callable by the benefactor.",
        "params": {
          "_beneficiary": "The address of the beneficiary.",
          "_ipfsCID": "The IPFS CID to add."
        }
      },
      "checkAliveStatus()": {
        "details": "Checks the alive status of the benefactor.",
        "returns": {
          "_0": "A boolean indicating whether the benefactor is alive."
        }
      },
      "constructor": {
        "details": "Constructor to initialize the BenefactorsDeadManSwitch contract."
      },
      "enableSwitch()": {
        "details": "Enables the dead man's switch. Only callable by beneficiaries."
      },
      "getCIDs(address)": {
        "details": "Release CIDs to beneficiary."
      },
      "getRemainingCountdownTime()": {
        "details": "Returns the remaining countdown time.",
        "returns": {
          "_0": "The remaining countdown time in seconds."
        }
      },
      "isBeneficiary(address)": {
        "details": "Checks if the given address is a beneficiary. Only benefactor",
        "params": {
          "_address": "The address to check."
        },
        "returns": {
          "_0": "A boolean indicating whether the address is a beneficiary."
        }
      },
      "removeBeneficiary(address)": {
        "details": "Removes a beneficiary from the list. Only callable by the benefactor.",
        "params": {
          "_beneficiary": "The address of the beneficiary to be removed."
        }
      },
      "removeIpfsCID(address,string)": {
        "details": "Removes an IPFS CID from the specified beneficiary. Only callable by benefactor.",
        "params": {
          "_beneficiary": "The address of the beneficiary.",
          "_ipfsCID": "The IPFS CID to remove."
        }
      },
      "respondToSwitch()": {
        "details": "Performs actions based on benefactor's activity when responding to an enabled switch. Only callable by the benefactor."
      }
    },
    "title": "BenefactorsDeadManSwitch",
    "version": 1
  },
  "evm": {
    "assembly": "    /* \"BenefactorsDeadManSwitch.sol\":233:9778  contract BenefactorsDeadManSwitch {... */\n  mstore(0x40, 0x80)\n    /* \"BenefactorsDeadManSwitch.sol\":2932:3235  constructor() {... */\n  callvalue\n  dup1\n  iszero\n  tag_1\n  jumpi\n  0x00\n  dup1\n  revert\ntag_1:\n  pop\n    /* \"BenefactorsDeadManSwitch.sol\":2957:2967  benefactor */\n  0x00\n    /* \"BenefactorsDeadManSwitch.sol\":2957:2980  benefactor = msg.sender */\n  dup1\n  sload\n  not(sub(shl(0xa0, 0x01), 0x01))\n  and\n    /* \"BenefactorsDeadManSwitch.sol\":2970:2980  msg.sender */\n  caller\n    /* \"BenefactorsDeadManSwitch.sol\":2957:2980  benefactor = msg.sender */\n  or\n  dup2\n  sstore\n    /* \"BenefactorsDeadManSwitch.sol\":3011:3028  7*24*3600 seconds */\n  0x093a80\n    /* \"BenefactorsDeadManSwitch.sol\":2991:3008  countdownDuration */\n  0x02\n    /* \"BenefactorsDeadManSwitch.sol\":2991:3028  countdownDuration = 7*24*3600 seconds */\n  sstore\n    /* \"BenefactorsDeadManSwitch.sol\":3141:3154  isSwitchedOff */\n  0x04\n    /* \"BenefactorsDeadManSwitch.sol\":3141:3161  isSwitchedOff = true */\n  dup1\n  sload\n    /* \"BenefactorsDeadManSwitch.sol\":3172:3186  isAlive = true */\n  0x0101\n  not(0xffff)\n  swap1\n  swap2\n  and\n  or\n  swap1\n  sstore\n    /* \"BenefactorsDeadManSwitch.sol\":3197:3223  lastBenefactorResponseTime */\n  0x03\n    /* \"BenefactorsDeadManSwitch.sol\":3197:3227  lastBenefactorResponseTime = 0 */\n  sstore\n    /* \"BenefactorsDeadManSwitch.sol\":233:9778  contract BenefactorsDeadManSwitch {... */\n  dataSize(sub_0)\n  dup1\n  dataOffset(sub_0)\n  0x00\n  codecopy\n  0x00\n  return\nstop\n\nsub_0: assembly {\n        /* \"BenefactorsDeadManSwitch.sol\":233:9778  contract BenefactorsDeadManSwitch {... */\n      mstore(0x40, 0x80)\n      callvalue\n      dup1\n      iszero\n      tag_1\n      jumpi\n      0x00\n      dup1\n      revert\n    tag_1:\n      pop\n      jumpi(tag_2, lt(calldatasize, 0x04))\n      shr(0xe0, calldataload(0x00))\n      dup1\n      0x6cd6617e\n      gt\n      tag_18\n      jumpi\n      dup1\n      0x9d19b226\n      gt\n      tag_19\n      jumpi\n      dup1\n      0x9d19b226\n      eq\n      tag_14\n      jumpi\n      dup1\n      0x9f8f2f7d\n      eq\n      tag_15\n      jumpi\n      dup1\n      0xbd15780c\n      eq\n      tag_16\n      jumpi\n      dup1\n      0xcd9c9362\n      eq\n      tag_17\n      jumpi\n      0x00\n      dup1\n      revert\n    tag_19:\n      dup1\n      0x6cd6617e\n      eq\n      tag_10\n      jumpi\n      dup1\n      0x87c63714\n      eq\n      tag_11\n      jumpi\n      dup1\n      0x8a81694c\n      eq\n      tag_12\n      jumpi\n      dup1\n      0x98e68f59\n      eq\n      tag_13\n      jumpi\n      0x00\n      dup1\n      revert\n    tag_18:\n      dup1\n      0x5211287e\n      gt\n      tag_20\n      jumpi\n      dup1\n      0x5211287e\n      eq\n      tag_6\n      jumpi\n      dup1\n      0x59633a1c\n      eq\n      tag_7\n      jumpi\n      dup1\n      0x6367da9c\n      eq\n      tag_8\n      jumpi\n      dup1\n      0x6a96ac2e\n      eq\n      tag_9\n      jumpi\n      0x00\n      dup1\n      revert\n    tag_20:\n      dup1\n      0x17eba161\n      eq\n      tag_3\n      jumpi\n      dup1\n      0x4136aa35\n      eq\n      tag_4\n      jumpi\n      dup1\n      0x4f68343a\n      eq\n      tag_5\n      jumpi\n    tag_2:\n      0x00\n      dup1\n      revert\n        /* \"BenefactorsDeadManSwitch.sol\":808:840  uint256 public countdownDuration */\n    tag_3:\n      tag_21\n      sload(0x02)\n      dup2\n      jump\n    tag_21:\n      mload(0x40)\n        /* \"#utility.yul\":160:185   */\n      swap1\n      dup2\n      mstore\n        /* \"#utility.yul\":148:150   */\n      0x20\n        /* \"#utility.yul\":133:151   */\n      add\n        /* \"BenefactorsDeadManSwitch.sol\":808:840  uint256 public countdownDuration */\n    tag_23:\n      mload(0x40)\n      dup1\n      swap2\n      sub\n      swap1\n      return\n        /* \"BenefactorsDeadManSwitch.sol\":1093:1112  bool public isAlive */\n    tag_4:\n      sload(0x04)\n      tag_25\n      swap1\n      0x0100\n      swap1\n      div\n      0xff\n      and\n      dup2\n      jump\n    tag_25:\n      mload(0x40)\n        /* \"#utility.yul\":361:375   */\n      swap1\n      iszero\n        /* \"#utility.yul\":354:376   */\n      iszero\n        /* \"#utility.yul\":336:377   */\n      dup2\n      mstore\n        /* \"#utility.yul\":324:326   */\n      0x20\n        /* \"#utility.yul\":309:327   */\n      add\n        /* \"BenefactorsDeadManSwitch.sol\":1093:1112  bool public isAlive */\n      tag_23\n        /* \"#utility.yul\":196:383   */\n      jump\n        /* \"BenefactorsDeadManSwitch.sol\":7518:7873  function getRemainingCountdownTime() public returns (uint256) {... */\n    tag_5:\n      tag_21\n      tag_30\n      jump\t// in\n        /* \"BenefactorsDeadManSwitch.sol\":5059:5729  function addIpfsCID(address _beneficiary, string memory _ipfsCID) external onlyBenefactor {... */\n    tag_6:\n      tag_32\n      tag_33\n      calldatasize\n      0x04\n      tag_34\n      jump\t// in\n    tag_33:\n      tag_35\n      jump\t// in\n    tag_32:\n      stop\n        /* \"BenefactorsDeadManSwitch.sol\":4020:4266  function removeBeneficiary(address _beneficiary) external onlyBenefactor {... */\n    tag_7:\n      tag_32\n      tag_37\n      calldatasize\n      0x04\n      tag_38\n      jump\t// in\n    tag_37:\n      tag_39\n      jump\t// in\n        /* \"BenefactorsDeadManSwitch.sol\":9547:9775  function getCIDs(address _beneficiary) public view onlyPostHumoAccess returns (string[] memory){... */\n    tag_8:\n      tag_40\n      tag_41\n      calldatasize\n      0x04\n      tag_38\n      jump\t// in\n    tag_41:\n      tag_42\n      jump\t// in\n    tag_40:\n      mload(0x40)\n      tag_23\n      swap2\n      swap1\n      tag_44\n      jump\t// in\n        /* \"BenefactorsDeadManSwitch.sol\":880:921  uint256 public lastBenefactorResponseTime */\n    tag_9:\n      tag_21\n      sload(0x03)\n      dup2\n      jump\n        /* \"BenefactorsDeadManSwitch.sol\":1015:1040  bool public isSwitchedOff */\n    tag_10:\n      sload(0x04)\n      tag_25\n      swap1\n      0xff\n      and\n      dup2\n      jump\n        /* \"BenefactorsDeadManSwitch.sol\":5957:6794  function removeIpfsCID(address _beneficiary, string memory _ipfsCID) external onlyBenefactor {... */\n    tag_11:\n      tag_32\n      tag_52\n      calldatasize\n      0x04\n      tag_34\n      jump\t// in\n    tag_52:\n      tag_53\n      jump\t// in\n        /* \"BenefactorsDeadManSwitch.sol\":274:299  address public benefactor */\n    tag_12:\n      sload(0x00)\n      tag_54\n      swap1\n      sub(shl(0xa0, 0x01), 0x01)\n      and\n      dup2\n      jump\n    tag_54:\n      mload(0x40)\n      sub(shl(0xa0, 0x01), 0x01)\n        /* \"#utility.yul\":3632:3687   */\n      swap1\n      swap2\n      and\n        /* \"#utility.yul\":3614:3688   */\n      dup2\n      mstore\n        /* \"#utility.yul\":3602:3604   */\n      0x20\n        /* \"#utility.yul\":3587:3605   */\n      add\n        /* \"BenefactorsDeadManSwitch.sol\":274:299  address public benefactor */\n      tag_23\n        /* \"#utility.yul\":3468:3694   */\n      jump\n        /* \"BenefactorsDeadManSwitch.sol\":8025:8331  function checkAliveStatus() public returns (bool) {... */\n    tag_13:\n      tag_25\n      tag_59\n      jump\t// in\n        /* \"BenefactorsDeadManSwitch.sol\":3713:3837  function isBeneficiary(address _address) public view returns (bool) {... */\n    tag_14:\n      tag_25\n      tag_62\n      calldatasize\n      0x04\n      tag_38\n      jump\t// in\n    tag_62:\n      sub(shl(0xa0, 0x01), 0x01)\n        /* \"BenefactorsDeadManSwitch.sol\":3799:3822  beneficiaries[_address] */\n      and\n        /* \"BenefactorsDeadManSwitch.sol\":3775:3779  bool */\n      0x00\n        /* \"BenefactorsDeadManSwitch.sol\":3799:3822  beneficiaries[_address] */\n      swap1\n      dup2\n      mstore\n        /* \"BenefactorsDeadManSwitch.sol\":3799:3812  beneficiaries */\n      0x01\n        /* \"BenefactorsDeadManSwitch.sol\":3799:3822  beneficiaries[_address] */\n      0x20\n      mstore\n      0x40\n      swap1\n      keccak256\n        /* \"BenefactorsDeadManSwitch.sol\":3799:3829  beneficiaries[_address].exists */\n      sload\n      0xff\n      and\n      swap1\n        /* \"BenefactorsDeadManSwitch.sol\":3713:3837  function isBeneficiary(address _address) public view returns (bool) {... */\n      jump\n        /* \"BenefactorsDeadManSwitch.sol\":6896:7384  function enableSwitch() external onlyBeneficiary {... */\n    tag_15:\n      tag_32\n      tag_66\n      jump\t// in\n        /* \"BenefactorsDeadManSwitch.sol\":4522:4835  function addBeneficiary(address _beneficiary, string[] memory _ipfsCIDs) external onlyBenefactor {... */\n    tag_16:\n      tag_32\n      tag_68\n      calldatasize\n      0x04\n      tag_69\n      jump\t// in\n    tag_68:\n      tag_70\n      jump\t// in\n        /* \"BenefactorsDeadManSwitch.sol\":8489:9106  function respondToSwitch() external onlyBenefactor {... */\n    tag_17:\n      tag_32\n      tag_72\n      jump\t// in\n        /* \"BenefactorsDeadManSwitch.sol\":7518:7873  function getRemainingCountdownTime() public returns (uint256) {... */\n    tag_30:\n        /* \"BenefactorsDeadManSwitch.sol\":7571:7578  uint256 */\n      0x00\n        /* \"BenefactorsDeadManSwitch.sol\":7591:7611  uint256 responseTime */\n      dup1\n        /* \"BenefactorsDeadManSwitch.sol\":7632:7658  lastBenefactorResponseTime */\n      sload(0x03)\n        /* \"BenefactorsDeadManSwitch.sol\":7614:7629  block.timestamp */\n      timestamp\n        /* \"BenefactorsDeadManSwitch.sol\":7614:7658  block.timestamp - lastBenefactorResponseTime */\n      tag_74\n      swap2\n      swap1\n      tag_75\n      jump\t// in\n    tag_74:\n        /* \"BenefactorsDeadManSwitch.sol\":7697:7714  countdownDuration */\n      sload(0x02)\n        /* \"BenefactorsDeadManSwitch.sol\":7747:7773  lastBenefactorResponseTime */\n      sload(0x03)\n        /* \"BenefactorsDeadManSwitch.sol\":7674:7774  remainingCountdownInfo(countdownDuration, responseTime, block.timestamp, lastBenefactorResponseTime) */\n      0x40\n      dup1\n      mload\n        /* \"#utility.yul\":5441:5466   */\n      swap3\n      dup4\n      mstore\n        /* \"#utility.yul\":5497:5499   */\n      0x20\n        /* \"#utility.yul\":5482:5500   */\n      dup4\n      add\n        /* \"#utility.yul\":5475:5509   */\n      dup5\n      swap1\n      mstore\n        /* \"BenefactorsDeadManSwitch.sol\":7730:7745  block.timestamp */\n      timestamp\n        /* \"#utility.yul\":5525:5543   */\n      swap1\n      dup4\n      add\n        /* \"#utility.yul\":5518:5552   */\n      mstore\n        /* \"#utility.yul\":5583:5585   */\n      0x60\n        /* \"#utility.yul\":5568:5586   */\n      dup3\n      add\n        /* \"#utility.yul\":5561:5595   */\n      mstore\n        /* \"BenefactorsDeadManSwitch.sol\":7591:7658  uint256 responseTime = block.timestamp - lastBenefactorResponseTime */\n      swap1\n      swap2\n      pop\n        /* \"BenefactorsDeadManSwitch.sol\":7674:7774  remainingCountdownInfo(countdownDuration, responseTime, block.timestamp, lastBenefactorResponseTime) */\n      0x06a38dc89ea5bc5d656aa6177f609f90b9bac89f75d639808331134e0e60c6ba\n      swap1\n        /* \"#utility.yul\":5428:5431   */\n      0x80\n        /* \"#utility.yul\":5413:5432   */\n      add\n        /* \"BenefactorsDeadManSwitch.sol\":7674:7774  remainingCountdownInfo(countdownDuration, responseTime, block.timestamp, lastBenefactorResponseTime) */\n      mload(0x40)\n      dup1\n      swap2\n      sub\n      swap1\n      log1\n        /* \"BenefactorsDeadManSwitch.sol\":7808:7825  countdownDuration */\n      sload(0x02)\n        /* \"BenefactorsDeadManSwitch.sol\":7793:7805  responseTime */\n      dup2\n        /* \"BenefactorsDeadManSwitch.sol\":7793:7825  responseTime > countdownDuration */\n      gt\n        /* \"BenefactorsDeadManSwitch.sol\":7792:7865  (responseTime > countdownDuration) ? 0 : countdownDuration - responseTime */\n      tag_78\n      jumpi\n        /* \"BenefactorsDeadManSwitch.sol\":7853:7865  responseTime */\n      dup1\n        /* \"BenefactorsDeadManSwitch.sol\":7833:7850  countdownDuration */\n      sload(0x02)\n        /* \"BenefactorsDeadManSwitch.sol\":7833:7865  countdownDuration - responseTime */\n      tag_79\n      swap2\n      swap1\n      tag_75\n      jump\t// in\n    tag_79:\n        /* \"BenefactorsDeadManSwitch.sol\":7792:7865  (responseTime > countdownDuration) ? 0 : countdownDuration - responseTime */\n      jump(tag_80)\n    tag_78:\n        /* \"BenefactorsDeadManSwitch.sol\":7829:7830  0 */\n      0x00\n        /* \"BenefactorsDeadManSwitch.sol\":7792:7865  (responseTime > countdownDuration) ? 0 : countdownDuration - responseTime */\n    tag_80:\n        /* \"BenefactorsDeadManSwitch.sol\":7785:7865  return (responseTime > countdownDuration) ? 0 : countdownDuration - responseTime */\n      swap2\n      pop\n      pop\n        /* \"BenefactorsDeadManSwitch.sol\":7518:7873  function getRemainingCountdownTime() public returns (uint256) {... */\n      swap1\n      jump\t// out\n        /* \"BenefactorsDeadManSwitch.sol\":5059:5729  function addIpfsCID(address _beneficiary, string memory _ipfsCID) external onlyBenefactor {... */\n    tag_35:\n        /* \"BenefactorsDeadManSwitch.sol\":601:611  benefactor */\n      and(sub(shl(0xa0, 0x01), 0x01), sload(0x00))\n        /* \"BenefactorsDeadManSwitch.sol\":587:597  msg.sender */\n      caller\n        /* \"BenefactorsDeadManSwitch.sol\":587:611  msg.sender == benefactor */\n      eq\n        /* \"BenefactorsDeadManSwitch.sol\":587:630  msg.sender == benefactor && isAlive == true */\n      dup1\n      iszero\n      tag_82\n      jumpi\n      pop\n        /* \"BenefactorsDeadManSwitch.sol\":615:622  isAlive */\n      sload(0x04)\n      0xff\n      0x0100\n      swap1\n      swap2\n      div\n      and\n        /* \"BenefactorsDeadManSwitch.sol\":615:630  isAlive == true */\n      iszero\n      iszero\n        /* \"BenefactorsDeadManSwitch.sol\":615:622  isAlive */\n      0x01\n        /* \"BenefactorsDeadManSwitch.sol\":615:630  isAlive == true */\n      eq\n        /* \"BenefactorsDeadManSwitch.sol\":587:630  msg.sender == benefactor && isAlive == true */\n    tag_82:\n        /* \"BenefactorsDeadManSwitch.sol\":579:653  require(msg.sender == benefactor && isAlive == true, \"Not the benefactor\") */\n      tag_83\n      jumpi\n      mload(0x40)\n      shl(0xe5, 0x461bcd)\n      dup2\n      mstore\n        /* \"#utility.yul\":5808:5810   */\n      0x20\n        /* \"BenefactorsDeadManSwitch.sol\":579:653  require(msg.sender == benefactor && isAlive == true, \"Not the benefactor\") */\n      0x04\n      dup3\n      add\n        /* \"#utility.yul\":5790:5811   */\n      mstore\n        /* \"#utility.yul\":5847:5849   */\n      0x12\n        /* \"#utility.yul\":5827:5845   */\n      0x24\n      dup3\n      add\n        /* \"#utility.yul\":5820:5850   */\n      mstore\n      shl(0x71, 0x2737ba103a3432903132b732b330b1ba37b9)\n        /* \"#utility.yul\":5866:5884   */\n      0x44\n      dup3\n      add\n        /* \"#utility.yul\":5859:5907   */\n      mstore\n        /* \"#utility.yul\":5924:5942   */\n      0x64\n      add\n        /* \"BenefactorsDeadManSwitch.sol\":579:653  require(msg.sender == benefactor && isAlive == true, \"Not the benefactor\") */\n    tag_84:\n      mload(0x40)\n      dup1\n      swap2\n      sub\n      swap1\n      revert\n    tag_83:\n      sub(shl(0xa0, 0x01), 0x01)\n        /* \"BenefactorsDeadManSwitch.sol\":3799:3822  beneficiaries[_address] */\n      dup3\n      and\n        /* \"BenefactorsDeadManSwitch.sol\":3775:3779  bool */\n      0x00\n        /* \"BenefactorsDeadManSwitch.sol\":3799:3822  beneficiaries[_address] */\n      swap1\n      dup2\n      mstore\n        /* \"BenefactorsDeadManSwitch.sol\":3799:3812  beneficiaries */\n      0x01\n        /* \"BenefactorsDeadManSwitch.sol\":3799:3822  beneficiaries[_address] */\n      0x20\n      mstore\n      0x40\n      swap1\n      keccak256\n        /* \"BenefactorsDeadManSwitch.sol\":3799:3829  beneficiaries[_address].exists */\n      sload\n      0xff\n      and\n        /* \"BenefactorsDeadManSwitch.sol\":5160:5221  require(isBeneficiary(_beneficiary), \"Beneficiary not found\") */\n      tag_88\n      jumpi\n      mload(0x40)\n      shl(0xe5, 0x461bcd)\n      dup2\n      mstore\n        /* \"#utility.yul\":6155:6157   */\n      0x20\n        /* \"BenefactorsDeadManSwitch.sol\":5160:5221  require(isBeneficiary(_beneficiary), \"Beneficiary not found\") */\n      0x04\n      dup3\n      add\n        /* \"#utility.yul\":6137:6158   */\n      mstore\n        /* \"#utility.yul\":6194:6196   */\n      0x15\n        /* \"#utility.yul\":6174:6192   */\n      0x24\n      dup3\n      add\n        /* \"#utility.yul\":6167:6197   */\n      mstore\n      shl(0x5a, 0x10995b99599a58da585c9e481b9bdd08199bdd5b99)\n        /* \"#utility.yul\":6213:6231   */\n      0x44\n      dup3\n      add\n        /* \"#utility.yul\":6206:6257   */\n      mstore\n        /* \"#utility.yul\":6274:6292   */\n      0x64\n      add\n        /* \"BenefactorsDeadManSwitch.sol\":5160:5221  require(isBeneficiary(_beneficiary), \"Beneficiary not found\") */\n      tag_84\n        /* \"#utility.yul\":5953:6298   */\n      jump\n        /* \"BenefactorsDeadManSwitch.sol\":5160:5221  require(isBeneficiary(_beneficiary), \"Beneficiary not found\") */\n    tag_88:\n      sub(shl(0xa0, 0x01), 0x01)\n        /* \"BenefactorsDeadManSwitch.sol\":5260:5287  beneficiaries[_beneficiary] */\n      dup3\n      and\n        /* \"BenefactorsDeadManSwitch.sol\":5232:5257  string[] storage ipfsCIDs */\n      0x00\n        /* \"BenefactorsDeadManSwitch.sol\":5260:5287  beneficiaries[_beneficiary] */\n      swap1\n      dup2\n      mstore\n        /* \"BenefactorsDeadManSwitch.sol\":5260:5273  beneficiaries */\n      0x01\n        /* \"BenefactorsDeadManSwitch.sol\":5260:5287  beneficiaries[_beneficiary] */\n      0x20\n      dup2\n      swap1\n      mstore\n      0x40\n      dup3\n      keccak256\n        /* \"BenefactorsDeadManSwitch.sol\":5260:5296  beneficiaries[_beneficiary].ipfsCIDs */\n      add\n      swap1\n        /* \"BenefactorsDeadManSwitch.sol\":5346:5553  for (uint256 i = 0; i < ipfsCIDs.length; i++) {... */\n    tag_91:\n        /* \"BenefactorsDeadManSwitch.sol\":5370:5385  ipfsCIDs.length */\n      dup2\n      sload\n        /* \"BenefactorsDeadManSwitch.sol\":5366:5385  i < ipfsCIDs.length */\n      dup2\n      lt\n        /* \"BenefactorsDeadManSwitch.sol\":5346:5553  for (uint256 i = 0; i < ipfsCIDs.length; i++) {... */\n      iszero\n      tag_92\n      jumpi\n        /* \"BenefactorsDeadManSwitch.sol\":5486:5494  _ipfsCID */\n      dup3\n        /* \"BenefactorsDeadManSwitch.sol\":5469:5495  abi.encodePacked(_ipfsCID) */\n      add(0x20, mload(0x40))\n      tag_94\n      swap2\n      swap1\n      tag_95\n      jump\t// in\n    tag_94:\n      mload(0x40)\n      0x20\n      dup2\n      dup4\n      sub\n      sub\n      dup2\n      mstore\n      swap1\n      0x40\n      mstore\n        /* \"BenefactorsDeadManSwitch.sol\":5459:5496  keccak256(abi.encodePacked(_ipfsCID)) */\n      dup1\n      mload\n      swap1\n      0x20\n      add\n      keccak256\n        /* \"BenefactorsDeadManSwitch.sol\":5442:5450  ipfsCIDs */\n      dup3\n        /* \"BenefactorsDeadManSwitch.sol\":5451:5452  i */\n      dup3\n        /* \"BenefactorsDeadManSwitch.sol\":5442:5453  ipfsCIDs[i] */\n      dup2\n      sload\n      dup2\n      lt\n      tag_97\n      jumpi\n      tag_97\n      tag_98\n      jump\t// in\n    tag_97:\n      swap1\n      0x00\n      mstore\n      keccak256(0x00, 0x20)\n      add\n        /* \"BenefactorsDeadManSwitch.sol\":5425:5454  abi.encodePacked(ipfsCIDs[i]) */\n      add(0x20, mload(0x40))\n      tag_100\n      swap2\n      swap1\n      tag_101\n      jump\t// in\n    tag_100:\n      mload(0x40)\n      0x20\n      dup2\n      dup4\n      sub\n      sub\n      dup2\n      mstore\n      swap1\n      0x40\n      mstore\n        /* \"BenefactorsDeadManSwitch.sol\":5415:5455  keccak256(abi.encodePacked(ipfsCIDs[i])) */\n      dup1\n      mload\n      swap1\n      0x20\n      add\n      keccak256\n        /* \"BenefactorsDeadManSwitch.sol\":5415:5496  keccak256(abi.encodePacked(ipfsCIDs[i])) != keccak256(abi.encodePacked(_ipfsCID)) */\n      sub\n        /* \"BenefactorsDeadManSwitch.sol\":5407:5541  require(keccak256(abi.encodePacked(ipfsCIDs[i])) != keccak256(abi.encodePacked(_ipfsCID)), \"CID already assigned to this beneficiary\") */\n      tag_102\n      jumpi\n      mload(0x40)\n      shl(0xe5, 0x461bcd)\n      dup2\n      mstore\n        /* \"#utility.yul\":8289:8291   */\n      0x20\n        /* \"BenefactorsDeadManSwitch.sol\":5407:5541  require(keccak256(abi.encodePacked(ipfsCIDs[i])) != keccak256(abi.encodePacked(_ipfsCID)), \"CID already assigned to this beneficiary\") */\n      0x04\n      dup3\n      add\n        /* \"#utility.yul\":8271:8292   */\n      mstore\n        /* \"#utility.yul\":8328:8330   */\n      0x28\n        /* \"#utility.yul\":8308:8326   */\n      0x24\n      dup3\n      add\n        /* \"#utility.yul\":8301:8331   */\n      mstore\n        /* \"#utility.yul\":8367:8401   */\n      0x43494420616c72656164792061737369676e656420746f20746869732062656e\n        /* \"#utility.yul\":8347:8365   */\n      0x44\n      dup3\n      add\n        /* \"#utility.yul\":8340:8402   */\n      mstore\n        /* \"#utility.yul\":8438:8448   */\n      0x6566696369617279000000000000000000000000000000000000000000000000\n        /* \"#utility.yul\":8418:8436   */\n      0x64\n      dup3\n      add\n        /* \"#utility.yul\":8411:8449   */\n      mstore\n        /* \"#utility.yul\":8466:8485   */\n      0x84\n      add\n        /* \"BenefactorsDeadManSwitch.sol\":5407:5541  require(keccak256(abi.encodePacked(ipfsCIDs[i])) != keccak256(abi.encodePacked(_ipfsCID)), \"CID already assigned to this beneficiary\") */\n      tag_84\n        /* \"#utility.yul\":8087:8491   */\n      jump\n        /* \"BenefactorsDeadManSwitch.sol\":5407:5541  require(keccak256(abi.encodePacked(ipfsCIDs[i])) != keccak256(abi.encodePacked(_ipfsCID)), \"CID already assigned to this beneficiary\") */\n    tag_102:\n        /* \"BenefactorsDeadManSwitch.sol\":5387:5390  i++ */\n      dup1\n      tag_105\n      dup2\n      tag_106\n      jump\t// in\n    tag_105:\n      swap2\n      pop\n      pop\n        /* \"BenefactorsDeadManSwitch.sol\":5346:5553  for (uint256 i = 0; i < ipfsCIDs.length; i++) {... */\n      jump(tag_91)\n    tag_92:\n      pop\n      sub(shl(0xa0, 0x01), 0x01)\n        /* \"BenefactorsDeadManSwitch.sol\":5618:5645  beneficiaries[_beneficiary] */\n      dup4\n      and\n      0x00\n      swap1\n      dup2\n      mstore\n        /* \"BenefactorsDeadManSwitch.sol\":5618:5631  beneficiaries */\n      0x01\n        /* \"BenefactorsDeadManSwitch.sol\":5618:5645  beneficiaries[_beneficiary] */\n      0x20\n      dup2\n      dup2\n      mstore\n      0x40\n      dup4\n      keccak256\n        /* \"BenefactorsDeadManSwitch.sol\":5618:5654  beneficiaries[_beneficiary].ipfsCIDs */\n      dup3\n      add\n        /* \"BenefactorsDeadManSwitch.sol\":5618:5669  beneficiaries[_beneficiary].ipfsCIDs.push(_ipfsCID) */\n      dup1\n      sload\n      swap3\n      dup4\n      add\n      dup2\n      sstore\n      dup4\n      mstore\n      swap1\n      swap2\n      keccak256\n      add\n      tag_108\n        /* \"BenefactorsDeadManSwitch.sol\":5660:5668  _ipfsCID */\n      dup4\n        /* \"BenefactorsDeadManSwitch.sol\":5618:5669  beneficiaries[_beneficiary].ipfsCIDs.push(_ipfsCID) */\n      dup3\n      tag_109\n      jump\t// in\n    tag_108:\n      pop\n        /* \"BenefactorsDeadManSwitch.sol\":5698:5710  _beneficiary */\n      dup3\n      sub(shl(0xa0, 0x01), 0x01)\n        /* \"BenefactorsDeadManSwitch.sol\":5685:5721  IpfsCIDAdded(_beneficiary, _ipfsCID) */\n      and\n      0x7e07e89db4996a8029125774fd7a7a8953430def1234c7526ad6da179b68e361\n        /* \"BenefactorsDeadManSwitch.sol\":5712:5720  _ipfsCID */\n      dup4\n        /* \"BenefactorsDeadManSwitch.sol\":5685:5721  IpfsCIDAdded(_beneficiary, _ipfsCID) */\n      mload(0x40)\n      tag_110\n      swap2\n      swap1\n      tag_111\n      jump\t// in\n    tag_110:\n      mload(0x40)\n      dup1\n      swap2\n      sub\n      swap1\n      log2\n        /* \"BenefactorsDeadManSwitch.sol\":5149:5729  {... */\n      pop\n        /* \"BenefactorsDeadManSwitch.sol\":5059:5729  function addIpfsCID(address _beneficiary, string memory _ipfsCID) external onlyBenefactor {... */\n      pop\n      pop\n      jump\t// out\n        /* \"BenefactorsDeadManSwitch.sol\":4020:4266  function removeBeneficiary(address _beneficiary) external onlyBenefactor {... */\n    tag_39:\n        /* \"BenefactorsDeadManSwitch.sol\":601:611  benefactor */\n      and(sub(shl(0xa0, 0x01), 0x01), sload(0x00))\n        /* \"BenefactorsDeadManSwitch.sol\":587:597  msg.sender */\n      caller\n        /* \"BenefactorsDeadManSwitch.sol\":587:611  msg.sender == benefactor */\n      eq\n        /* \"BenefactorsDeadManSwitch.sol\":587:630  msg.sender == benefactor && isAlive == true */\n      dup1\n      iszero\n      tag_113\n      jumpi\n      pop\n        /* \"BenefactorsDeadManSwitch.sol\":615:622  isAlive */\n      sload(0x04)\n      0xff\n      0x0100\n      swap1\n      swap2\n      div\n      and\n        /* \"BenefactorsDeadManSwitch.sol\":615:630  isAlive == true */\n      iszero\n      iszero\n        /* \"BenefactorsDeadManSwitch.sol\":615:622  isAlive */\n      0x01\n        /* \"BenefactorsDeadManSwitch.sol\":615:630  isAlive == true */\n      eq\n        /* \"BenefactorsDeadManSwitch.sol\":587:630  msg.sender == benefactor && isAlive == true */\n    tag_113:\n        /* \"BenefactorsDeadManSwitch.sol\":579:653  require(msg.sender == benefactor && isAlive == true, \"Not the benefactor\") */\n      tag_114\n      jumpi\n      mload(0x40)\n      shl(0xe5, 0x461bcd)\n      dup2\n      mstore\n        /* \"#utility.yul\":5808:5810   */\n      0x20\n        /* \"BenefactorsDeadManSwitch.sol\":579:653  require(msg.sender == benefactor && isAlive == true, \"Not the benefactor\") */\n      0x04\n      dup3\n      add\n        /* \"#utility.yul\":5790:5811   */\n      mstore\n        /* \"#utility.yul\":5847:5849   */\n      0x12\n        /* \"#utility.yul\":5827:5845   */\n      0x24\n      dup3\n      add\n        /* \"#utility.yul\":5820:5850   */\n      mstore\n      shl(0x71, 0x2737ba103a3432903132b732b330b1ba37b9)\n        /* \"#utility.yul\":5866:5884   */\n      0x44\n      dup3\n      add\n        /* \"#utility.yul\":5859:5907   */\n      mstore\n        /* \"#utility.yul\":5924:5942   */\n      0x64\n      add\n        /* \"BenefactorsDeadManSwitch.sol\":579:653  require(msg.sender == benefactor && isAlive == true, \"Not the benefactor\") */\n      tag_84\n        /* \"#utility.yul\":5606:5948   */\n      jump\n        /* \"BenefactorsDeadManSwitch.sol\":579:653  require(msg.sender == benefactor && isAlive == true, \"Not the benefactor\") */\n    tag_114:\n      sub(shl(0xa0, 0x01), 0x01)\n        /* \"BenefactorsDeadManSwitch.sol\":3799:3822  beneficiaries[_address] */\n      dup2\n      and\n        /* \"BenefactorsDeadManSwitch.sol\":3775:3779  bool */\n      0x00\n        /* \"BenefactorsDeadManSwitch.sol\":3799:3822  beneficiaries[_address] */\n      swap1\n      dup2\n      mstore\n        /* \"BenefactorsDeadManSwitch.sol\":3799:3812  beneficiaries */\n      0x01\n        /* \"BenefactorsDeadManSwitch.sol\":3799:3822  beneficiaries[_address] */\n      0x20\n      mstore\n      0x40\n      swap1\n      keccak256\n        /* \"BenefactorsDeadManSwitch.sol\":3799:3829  beneficiaries[_address].exists */\n      sload\n      0xff\n      and\n        /* \"BenefactorsDeadManSwitch.sol\":4104:4165  require(isBeneficiary(_beneficiary), \"Beneficiary not found\") */\n      tag_118\n      jumpi\n      mload(0x40)\n      shl(0xe5, 0x461bcd)\n      dup2\n      mstore\n        /* \"#utility.yul\":6155:6157   */\n      0x20\n        /* \"BenefactorsDeadManSwitch.sol\":4104:4165  require(isBeneficiary(_beneficiary), \"Beneficiary not found\") */\n      0x04\n      dup3\n      add\n        /* \"#utility.yul\":6137:6158   */\n      mstore\n        /* \"#utility.yul\":6194:6196   */\n      0x15\n        /* \"#utility.yul\":6174:6192   */\n      0x24\n      dup3\n      add\n        /* \"#utility.yul\":6167:6197   */\n      mstore\n      shl(0x5a, 0x10995b99599a58da585c9e481b9bdd08199bdd5b99)\n        /* \"#utility.yul\":6213:6231   */\n      0x44\n      dup3\n      add\n        /* \"#utility.yul\":6206:6257   */\n      mstore\n        /* \"#utility.yul\":6274:6292   */\n      0x64\n      add\n        /* \"BenefactorsDeadManSwitch.sol\":4104:4165  require(isBeneficiary(_beneficiary), \"Beneficiary not found\") */\n      tag_84\n        /* \"#utility.yul\":5953:6298   */\n      jump\n        /* \"BenefactorsDeadManSwitch.sol\":4104:4165  require(isBeneficiary(_beneficiary), \"Beneficiary not found\") */\n    tag_118:\n      sub(shl(0xa0, 0x01), 0x01)\n        /* \"BenefactorsDeadManSwitch.sol\":4183:4210  beneficiaries[_beneficiary] */\n      dup2\n      and\n      0x00\n      swap1\n      dup2\n      mstore\n        /* \"BenefactorsDeadManSwitch.sol\":4183:4196  beneficiaries */\n      0x01\n        /* \"BenefactorsDeadManSwitch.sol\":4183:4210  beneficiaries[_beneficiary] */\n      0x20\n      dup2\n      swap1\n      mstore\n      0x40\n      dup3\n      keccak256\n        /* \"BenefactorsDeadManSwitch.sol\":4176:4210  delete beneficiaries[_beneficiary] */\n      dup1\n      sload\n      not(0xff)\n      and\n      dup2\n      sstore\n        /* \"BenefactorsDeadManSwitch.sol\":4183:4210  beneficiaries[_beneficiary] */\n      swap2\n      swap1\n        /* \"BenefactorsDeadManSwitch.sol\":4176:4210  delete beneficiaries[_beneficiary] */\n      tag_120\n      swap1\n      dup4\n      add\n        /* \"BenefactorsDeadManSwitch.sol\":4183:4210  beneficiaries[_beneficiary] */\n      dup3\n        /* \"BenefactorsDeadManSwitch.sol\":4176:4210  delete beneficiaries[_beneficiary] */\n      tag_121\n      jump\t// in\n    tag_120:\n      pop\n      pop\n        /* \"BenefactorsDeadManSwitch.sol\":4226:4258  BeneficiaryRemoved(_beneficiary) */\n      mload(0x40)\n      sub(shl(0xa0, 0x01), 0x01)\n      dup3\n      and\n      swap1\n      0x72977dad29432f655f11c2f0e72ef5124bb9ade7a512fb7a43a9f504df223428\n      swap1\n      0x00\n      swap1\n      log2\n        /* \"BenefactorsDeadManSwitch.sol\":4020:4266  function removeBeneficiary(address _beneficiary) external onlyBenefactor {... */\n      pop\n      jump\t// out\n        /* \"BenefactorsDeadManSwitch.sol\":9547:9775  function getCIDs(address _beneficiary) public view onlyPostHumoAccess returns (string[] memory){... */\n    tag_42:\n        /* \"BenefactorsDeadManSwitch.sol\":2749:2759  msg.sender */\n      caller\n        /* \"BenefactorsDeadManSwitch.sol\":2735:2760  beneficiaries[msg.sender] */\n      0x00\n      swap1\n      dup2\n      mstore\n        /* \"BenefactorsDeadManSwitch.sol\":2735:2748  beneficiaries */\n      0x01\n        /* \"BenefactorsDeadManSwitch.sol\":2735:2760  beneficiaries[msg.sender] */\n      0x20\n      mstore\n      0x40\n      swap1\n      keccak256\n        /* \"BenefactorsDeadManSwitch.sol\":2735:2767  beneficiaries[msg.sender].exists */\n      sload\n        /* \"BenefactorsDeadManSwitch.sol\":9626:9641  string[] memory */\n      0x60\n      swap1\n        /* \"BenefactorsDeadManSwitch.sol\":2735:2767  beneficiaries[msg.sender].exists */\n      0xff\n      and\n        /* \"BenefactorsDeadManSwitch.sol\":2735:2787  beneficiaries[msg.sender].exists && isAlive == false */\n      dup1\n      iszero\n      tag_123\n      jumpi\n      pop\n        /* \"BenefactorsDeadManSwitch.sol\":2771:2778  isAlive */\n      sload(0x04)\n      0x0100\n      swap1\n      div\n      0xff\n      and\n        /* \"BenefactorsDeadManSwitch.sol\":2771:2787  isAlive == false */\n      iszero\n        /* \"BenefactorsDeadManSwitch.sol\":2735:2787  beneficiaries[msg.sender].exists && isAlive == false */\n    tag_123:\n        /* \"BenefactorsDeadManSwitch.sol\":2727:2808  require(beneficiaries[msg.sender].exists && isAlive == false,\"No access to CIDs\") */\n      tag_124\n      jumpi\n      mload(0x40)\n      shl(0xe5, 0x461bcd)\n      dup2\n      mstore\n        /* \"#utility.yul\":11141:11143   */\n      0x20\n        /* \"BenefactorsDeadManSwitch.sol\":2727:2808  require(beneficiaries[msg.sender].exists && isAlive == false,\"No access to CIDs\") */\n      0x04\n      dup3\n      add\n        /* \"#utility.yul\":11123:11144   */\n      mstore\n        /* \"#utility.yul\":11180:11182   */\n      0x11\n        /* \"#utility.yul\":11160:11178   */\n      0x24\n      dup3\n      add\n        /* \"#utility.yul\":11153:11183   */\n      mstore\n        /* \"#utility.yul\":11219:11238   */\n      0x4e6f2061636365737320746f2043494473000000000000000000000000000000\n        /* \"#utility.yul\":11199:11217   */\n      0x44\n      dup3\n      add\n        /* \"#utility.yul\":11192:11239   */\n      mstore\n        /* \"#utility.yul\":11256:11274   */\n      0x64\n      add\n        /* \"BenefactorsDeadManSwitch.sol\":2727:2808  require(beneficiaries[msg.sender].exists && isAlive == false,\"No access to CIDs\") */\n      tag_84\n        /* \"#utility.yul\":10939:11280   */\n      jump\n        /* \"BenefactorsDeadManSwitch.sol\":2727:2808  require(beneficiaries[msg.sender].exists && isAlive == false,\"No access to CIDs\") */\n    tag_124:\n      sub(shl(0xa0, 0x01), 0x01)\n        /* \"BenefactorsDeadManSwitch.sol\":3799:3822  beneficiaries[_address] */\n      dup3\n      and\n        /* \"BenefactorsDeadManSwitch.sol\":3775:3779  bool */\n      0x00\n        /* \"BenefactorsDeadManSwitch.sol\":3799:3822  beneficiaries[_address] */\n      swap1\n      dup2\n      mstore\n        /* \"BenefactorsDeadManSwitch.sol\":3799:3812  beneficiaries */\n      0x01\n        /* \"BenefactorsDeadManSwitch.sol\":3799:3822  beneficiaries[_address] */\n      0x20\n      mstore\n      0x40\n      swap1\n      keccak256\n        /* \"BenefactorsDeadManSwitch.sol\":3799:3829  beneficiaries[_address].exists */\n      sload\n      0xff\n      and\n        /* \"BenefactorsDeadManSwitch.sol\":9653:9713  require(isBeneficiary(_beneficiary),\"Beneficiary not found\") */\n      tag_129\n      jumpi\n      mload(0x40)\n      shl(0xe5, 0x461bcd)\n      dup2\n      mstore\n        /* \"#utility.yul\":6155:6157   */\n      0x20\n        /* \"BenefactorsDeadManSwitch.sol\":9653:9713  require(isBeneficiary(_beneficiary),\"Beneficiary not found\") */\n      0x04\n      dup3\n      add\n        /* \"#utility.yul\":6137:6158   */\n      mstore\n        /* \"#utility.yul\":6194:6196   */\n      0x15\n        /* \"#utility.yul\":6174:6192   */\n      0x24\n      dup3\n      add\n        /* \"#utility.yul\":6167:6197   */\n      mstore\n      shl(0x5a, 0x10995b99599a58da585c9e481b9bdd08199bdd5b99)\n        /* \"#utility.yul\":6213:6231   */\n      0x44\n      dup3\n      add\n        /* \"#utility.yul\":6206:6257   */\n      mstore\n        /* \"#utility.yul\":6274:6292   */\n      0x64\n      add\n        /* \"BenefactorsDeadManSwitch.sol\":9653:9713  require(isBeneficiary(_beneficiary),\"Beneficiary not found\") */\n      tag_84\n        /* \"#utility.yul\":5953:6298   */\n      jump\n        /* \"BenefactorsDeadManSwitch.sol\":9653:9713  require(isBeneficiary(_beneficiary),\"Beneficiary not found\") */\n    tag_129:\n      sub(shl(0xa0, 0x01), 0x01)\n        /* \"BenefactorsDeadManSwitch.sol\":9731:9758  beneficiaries[_beneficiary] */\n      dup3\n      and\n      0x00\n      swap1\n      dup2\n      mstore\n        /* \"BenefactorsDeadManSwitch.sol\":9731:9744  beneficiaries */\n      0x01\n        /* \"BenefactorsDeadManSwitch.sol\":9731:9758  beneficiaries[_beneficiary] */\n      0x20\n      dup2\n      dup2\n      mstore\n      0x40\n      dup1\n      dup5\n      keccak256\n        /* \"BenefactorsDeadManSwitch.sol\":9731:9767  beneficiaries[_beneficiary].ipfsCIDs */\n      swap1\n      swap3\n      add\n        /* \"BenefactorsDeadManSwitch.sol\":9724:9767  return beneficiaries[_beneficiary].ipfsCIDs */\n      dup1\n      sload\n      dup4\n      mload\n      dup2\n      dup5\n      mul\n      dup2\n      add\n      dup5\n      add\n      swap1\n      swap5\n      mstore\n      dup1\n      dup5\n      mstore\n      swap3\n      swap4\n        /* \"BenefactorsDeadManSwitch.sol\":9731:9767  beneficiaries[_beneficiary].ipfsCIDs */\n      swap1\n      swap3\n        /* \"BenefactorsDeadManSwitch.sol\":9724:9767  return beneficiaries[_beneficiary].ipfsCIDs */\n      swap2\n      dup5\n      add\n    tag_131:\n      dup3\n      dup3\n      lt\n      iszero\n      tag_132\n      jumpi\n      dup4\n      dup3\n      swap1\n      0x00\n      mstore\n      keccak256(0x00, 0x20)\n      add\n      dup1\n      sload\n      tag_134\n      swap1\n      tag_135\n      jump\t// in\n    tag_134:\n      dup1\n      0x1f\n      add\n      0x20\n      dup1\n      swap2\n      div\n      mul\n      0x20\n      add\n      mload(0x40)\n      swap1\n      dup2\n      add\n      0x40\n      mstore\n      dup1\n      swap3\n      swap2\n      swap1\n      dup2\n      dup2\n      mstore\n      0x20\n      add\n      dup3\n      dup1\n      sload\n      tag_136\n      swap1\n      tag_135\n      jump\t// in\n    tag_136:\n      dup1\n      iszero\n      tag_137\n      jumpi\n      dup1\n      0x1f\n      lt\n      tag_138\n      jumpi\n      0x0100\n      dup1\n      dup4\n      sload\n      div\n      mul\n      dup4\n      mstore\n      swap2\n      0x20\n      add\n      swap2\n      jump(tag_137)\n    tag_138:\n      dup3\n      add\n      swap2\n      swap1\n      0x00\n      mstore\n      keccak256(0x00, 0x20)\n      swap1\n    tag_139:\n      dup2\n      sload\n      dup2\n      mstore\n      swap1\n      0x01\n      add\n      swap1\n      0x20\n      add\n      dup1\n      dup4\n      gt\n      tag_139\n      jumpi\n      dup3\n      swap1\n      sub\n      0x1f\n      and\n      dup3\n      add\n      swap2\n    tag_137:\n      pop\n      pop\n      pop\n      pop\n      pop\n      dup2\n      mstore\n      0x20\n      add\n      swap1\n      0x01\n      add\n      swap1\n      jump(tag_131)\n    tag_132:\n      pop\n      pop\n      pop\n      pop\n      swap1\n      pop\n        /* \"BenefactorsDeadManSwitch.sol\":2819:2820  _ */\n    tag_127:\n        /* \"BenefactorsDeadManSwitch.sol\":9547:9775  function getCIDs(address _beneficiary) public view onlyPostHumoAccess returns (string[] memory){... */\n      swap2\n      swap1\n      pop\n      jump\t// out\n        /* \"BenefactorsDeadManSwitch.sol\":5957:6794  function removeIpfsCID(address _beneficiary, string memory _ipfsCID) external onlyBenefactor {... */\n    tag_53:\n        /* \"BenefactorsDeadManSwitch.sol\":601:611  benefactor */\n      and(sub(shl(0xa0, 0x01), 0x01), sload(0x00))\n        /* \"BenefactorsDeadManSwitch.sol\":587:597  msg.sender */\n      caller\n        /* \"BenefactorsDeadManSwitch.sol\":587:611  msg.sender == benefactor */\n      eq\n        /* \"BenefactorsDeadManSwitch.sol\":587:630  msg.sender == benefactor && isAlive == true */\n      dup1\n      iszero\n      tag_141\n      jumpi\n      pop\n        /* \"BenefactorsDeadManSwitch.sol\":615:622  isAlive */\n      sload(0x04)\n      0xff\n      0x0100\n      swap1\n      swap2\n      div\n      and\n        /* \"BenefactorsDeadManSwitch.sol\":615:630  isAlive == true */\n      iszero\n      iszero\n        /* \"BenefactorsDeadManSwitch.sol\":615:622  isAlive */\n      0x01\n        /* \"BenefactorsDeadManSwitch.sol\":615:630  isAlive == true */\n      eq\n        /* \"BenefactorsDeadManSwitch.sol\":587:630  msg.sender == benefactor && isAlive == true */\n    tag_141:\n        /* \"BenefactorsDeadManSwitch.sol\":579:653  require(msg.sender == benefactor && isAlive == true, \"Not the benefactor\") */\n      tag_142\n      jumpi\n      mload(0x40)\n      shl(0xe5, 0x461bcd)\n      dup2\n      mstore\n        /* \"#utility.yul\":5808:5810   */\n      0x20\n        /* \"BenefactorsDeadManSwitch.sol\":579:653  require(msg.sender == benefactor && isAlive == true, \"Not the benefactor\") */\n      0x04\n      dup3\n      add\n        /* \"#utility.yul\":5790:5811   */\n      mstore\n        /* \"#utility.yul\":5847:5849   */\n      0x12\n        /* \"#utility.yul\":5827:5845   */\n      0x24\n      dup3\n      add\n        /* \"#utility.yul\":5820:5850   */\n      mstore\n      shl(0x71, 0x2737ba103a3432903132b732b330b1ba37b9)\n        /* \"#utility.yul\":5866:5884   */\n      0x44\n      dup3\n      add\n        /* \"#utility.yul\":5859:5907   */\n      mstore\n        /* \"#utility.yul\":5924:5942   */\n      0x64\n      add\n        /* \"BenefactorsDeadManSwitch.sol\":579:653  require(msg.sender == benefactor && isAlive == true, \"Not the benefactor\") */\n      tag_84\n        /* \"#utility.yul\":5606:5948   */\n      jump\n        /* \"BenefactorsDeadManSwitch.sol\":579:653  require(msg.sender == benefactor && isAlive == true, \"Not the benefactor\") */\n    tag_142:\n      sub(shl(0xa0, 0x01), 0x01)\n        /* \"BenefactorsDeadManSwitch.sol\":3799:3822  beneficiaries[_address] */\n      dup3\n      and\n        /* \"BenefactorsDeadManSwitch.sol\":3775:3779  bool */\n      0x00\n        /* \"BenefactorsDeadManSwitch.sol\":3799:3822  beneficiaries[_address] */\n      swap1\n      dup2\n      mstore\n        /* \"BenefactorsDeadManSwitch.sol\":3799:3812  beneficiaries */\n      0x01\n        /* \"BenefactorsDeadManSwitch.sol\":3799:3822  beneficiaries[_address] */\n      0x20\n      mstore\n      0x40\n      swap1\n      keccak256\n        /* \"BenefactorsDeadManSwitch.sol\":3799:3829  beneficiaries[_address].exists */\n      sload\n      0xff\n      and\n        /* \"BenefactorsDeadManSwitch.sol\":6061:6122  require(isBeneficiary(_beneficiary), \"Beneficiary not found\") */\n      tag_146\n      jumpi\n      mload(0x40)\n      shl(0xe5, 0x461bcd)\n      dup2\n      mstore\n        /* \"#utility.yul\":6155:6157   */\n      0x20\n        /* \"BenefactorsDeadManSwitch.sol\":6061:6122  require(isBeneficiary(_beneficiary), \"Beneficiary not found\") */\n      0x04\n      dup3\n      add\n        /* \"#utility.yul\":6137:6158   */\n      mstore\n        /* \"#utility.yul\":6194:6196   */\n      0x15\n        /* \"#utility.yul\":6174:6192   */\n      0x24\n      dup3\n      add\n        /* \"#utility.yul\":6167:6197   */\n      mstore\n      shl(0x5a, 0x10995b99599a58da585c9e481b9bdd08199bdd5b99)\n        /* \"#utility.yul\":6213:6231   */\n      0x44\n      dup3\n      add\n        /* \"#utility.yul\":6206:6257   */\n      mstore\n        /* \"#utility.yul\":6274:6292   */\n      0x64\n      add\n        /* \"BenefactorsDeadManSwitch.sol\":6061:6122  require(isBeneficiary(_beneficiary), \"Beneficiary not found\") */\n      tag_84\n        /* \"#utility.yul\":5953:6298   */\n      jump\n        /* \"BenefactorsDeadManSwitch.sol\":6061:6122  require(isBeneficiary(_beneficiary), \"Beneficiary not found\") */\n    tag_146:\n      sub(shl(0xa0, 0x01), 0x01)\n        /* \"BenefactorsDeadManSwitch.sol\":6163:6190  beneficiaries[_beneficiary] */\n      dup3\n      and\n        /* \"BenefactorsDeadManSwitch.sol\":6135:6160  string[] storage ipfsCIDs */\n      0x00\n        /* \"BenefactorsDeadManSwitch.sol\":6163:6190  beneficiaries[_beneficiary] */\n      swap1\n      dup2\n      mstore\n        /* \"BenefactorsDeadManSwitch.sol\":6163:6176  beneficiaries */\n      0x01\n        /* \"BenefactorsDeadManSwitch.sol\":6163:6190  beneficiaries[_beneficiary] */\n      0x20\n      dup2\n      swap1\n      mstore\n      0x40\n      dup3\n      keccak256\n        /* \"BenefactorsDeadManSwitch.sol\":6163:6199  beneficiaries[_beneficiary].ipfsCIDs */\n      add\n      swap1\n        /* \"BenefactorsDeadManSwitch.sol\":6256:6691  for (uint256 i = 0; i < ipfsCIDs.length; i++) {... */\n    tag_148:\n        /* \"BenefactorsDeadManSwitch.sol\":6280:6295  ipfsCIDs.length */\n      dup2\n      sload\n        /* \"BenefactorsDeadManSwitch.sol\":6276:6295  i < ipfsCIDs.length */\n      dup2\n      lt\n        /* \"BenefactorsDeadManSwitch.sol\":6256:6691  for (uint256 i = 0; i < ipfsCIDs.length; i++) {... */\n      iszero\n      tag_149\n      jumpi\n        /* \"BenefactorsDeadManSwitch.sol\":6392:6400  _ipfsCID */\n      dup3\n        /* \"BenefactorsDeadManSwitch.sol\":6375:6401  abi.encodePacked(_ipfsCID) */\n      add(0x20, mload(0x40))\n      tag_151\n      swap2\n      swap1\n      tag_95\n      jump\t// in\n    tag_151:\n      mload(0x40)\n      0x20\n      dup2\n      dup4\n      sub\n      sub\n      dup2\n      mstore\n      swap1\n      0x40\n      mstore\n        /* \"BenefactorsDeadManSwitch.sol\":6365:6402  keccak256(abi.encodePacked(_ipfsCID)) */\n      dup1\n      mload\n      swap1\n      0x20\n      add\n      keccak256\n        /* \"BenefactorsDeadManSwitch.sol\":6348:6356  ipfsCIDs */\n      dup3\n        /* \"BenefactorsDeadManSwitch.sol\":6357:6358  i */\n      dup3\n        /* \"BenefactorsDeadManSwitch.sol\":6348:6359  ipfsCIDs[i] */\n      dup2\n      sload\n      dup2\n      lt\n      tag_153\n      jumpi\n      tag_153\n      tag_98\n      jump\t// in\n    tag_153:\n      swap1\n      0x00\n      mstore\n      keccak256(0x00, 0x20)\n      add\n        /* \"BenefactorsDeadManSwitch.sol\":6331:6360  abi.encodePacked(ipfsCIDs[i]) */\n      add(0x20, mload(0x40))\n      tag_155\n      swap2\n      swap1\n      tag_101\n      jump\t// in\n    tag_155:\n      mload(0x40)\n      0x20\n      dup2\n      dup4\n      sub\n      sub\n      dup2\n      mstore\n      swap1\n      0x40\n      mstore\n        /* \"BenefactorsDeadManSwitch.sol\":6321:6361  keccak256(abi.encodePacked(ipfsCIDs[i])) */\n      dup1\n      mload\n      swap1\n      0x20\n      add\n      keccak256\n        /* \"BenefactorsDeadManSwitch.sol\":6321:6402  keccak256(abi.encodePacked(ipfsCIDs[i])) == keccak256(abi.encodePacked(_ipfsCID)) */\n      sub\n        /* \"BenefactorsDeadManSwitch.sol\":6317:6680  if (keccak256(abi.encodePacked(ipfsCIDs[i])) == keccak256(abi.encodePacked(_ipfsCID))) {... */\n      tag_156\n      jumpi\n        /* \"BenefactorsDeadManSwitch.sol\":6440:6441  i */\n      dup1\n        /* \"BenefactorsDeadManSwitch.sol\":6423:6545  for (uint256 j = i; j < ipfsCIDs.length - 1; j++) {... */\n    tag_157:\n        /* \"BenefactorsDeadManSwitch.sol\":6447:6462  ipfsCIDs.length */\n      dup3\n      sload\n        /* \"BenefactorsDeadManSwitch.sol\":6447:6466  ipfsCIDs.length - 1 */\n      tag_160\n      swap1\n        /* \"BenefactorsDeadManSwitch.sol\":6465:6466  1 */\n      0x01\n      swap1\n        /* \"BenefactorsDeadManSwitch.sol\":6447:6466  ipfsCIDs.length - 1 */\n      tag_75\n      jump\t// in\n    tag_160:\n        /* \"BenefactorsDeadManSwitch.sol\":6443:6444  j */\n      dup2\n        /* \"BenefactorsDeadManSwitch.sol\":6443:6466  j < ipfsCIDs.length - 1 */\n      lt\n        /* \"BenefactorsDeadManSwitch.sol\":6423:6545  for (uint256 j = i; j < ipfsCIDs.length - 1; j++) {... */\n      iszero\n      tag_158\n      jumpi\n        /* \"BenefactorsDeadManSwitch.sol\":6510:6518  ipfsCIDs */\n      dup3\n        /* \"BenefactorsDeadManSwitch.sol\":6519:6524  j + 1 */\n      tag_161\n        /* \"BenefactorsDeadManSwitch.sol\":6519:6520  j */\n      dup3\n        /* \"BenefactorsDeadManSwitch.sol\":6523:6524  1 */\n      0x01\n        /* \"BenefactorsDeadManSwitch.sol\":6519:6524  j + 1 */\n      tag_162\n      jump\t// in\n    tag_161:\n        /* \"BenefactorsDeadManSwitch.sol\":6510:6525  ipfsCIDs[j + 1] */\n      dup2\n      sload\n      dup2\n      lt\n      tag_164\n      jumpi\n      tag_164\n      tag_98\n      jump\t// in\n    tag_164:\n      swap1\n      0x00\n      mstore\n      keccak256(0x00, 0x20)\n      add\n        /* \"BenefactorsDeadManSwitch.sol\":6496:6504  ipfsCIDs */\n      dup4\n        /* \"BenefactorsDeadManSwitch.sol\":6505:6506  j */\n      dup3\n        /* \"BenefactorsDeadManSwitch.sol\":6496:6507  ipfsCIDs[j] */\n      dup2\n      sload\n      dup2\n      lt\n      tag_167\n      jumpi\n      tag_167\n      tag_98\n      jump\t// in\n    tag_167:\n      swap1\n      0x00\n      mstore\n      keccak256(0x00, 0x20)\n      add\n        /* \"BenefactorsDeadManSwitch.sol\":6496:6525  ipfsCIDs[j] = ipfsCIDs[j + 1] */\n      swap1\n      dup2\n      tag_169\n      swap2\n      swap1\n      tag_170\n      jump\t// in\n    tag_169:\n      pop\n        /* \"BenefactorsDeadManSwitch.sol\":6468:6471  j++ */\n      dup1\n      tag_171\n      dup2\n      tag_106\n      jump\t// in\n    tag_171:\n      swap2\n      pop\n      pop\n        /* \"BenefactorsDeadManSwitch.sol\":6423:6545  for (uint256 j = i; j < ipfsCIDs.length - 1; j++) {... */\n      jump(tag_157)\n    tag_158:\n      pop\n        /* \"BenefactorsDeadManSwitch.sol\":6563:6571  ipfsCIDs */\n      dup2\n        /* \"BenefactorsDeadManSwitch.sol\":6563:6577  ipfsCIDs.pop() */\n      dup1\n      sload\n      dup1\n      tag_173\n      jumpi\n      tag_173\n      tag_174\n      jump\t// in\n    tag_173:\n      0x01\n      swap1\n      sub\n      dup2\n      dup2\n      swap1\n      0x00\n      mstore\n      keccak256(0x00, 0x20)\n      add\n      0x00\n      tag_176\n      swap2\n      swap1\n      tag_177\n      jump\t// in\n    tag_176:\n      swap1\n      sstore\n        /* \"BenefactorsDeadManSwitch.sol\":6616:6628  _beneficiary */\n      dup4\n      sub(shl(0xa0, 0x01), 0x01)\n        /* \"BenefactorsDeadManSwitch.sol\":6601:6639  IpfsCIDRemoved(_beneficiary, _ipfsCID) */\n      and\n      0xe96b2171dfaf9e7ff6b073f3075511e0e31731041a9ab5b45ffc630f4fb61459\n        /* \"BenefactorsDeadManSwitch.sol\":6630:6638  _ipfsCID */\n      dup5\n        /* \"BenefactorsDeadManSwitch.sol\":6601:6639  IpfsCIDRemoved(_beneficiary, _ipfsCID) */\n      mload(0x40)\n      tag_178\n      swap2\n      swap1\n      tag_111\n      jump\t// in\n    tag_178:\n      mload(0x40)\n      dup1\n      swap2\n      sub\n      swap1\n      log2\n        /* \"BenefactorsDeadManSwitch.sol\":6658:6665  return; */\n      pop\n      pop\n        /* \"BenefactorsDeadManSwitch.sol\":5957:6794  function removeIpfsCID(address _beneficiary, string memory _ipfsCID) external onlyBenefactor {... */\n      pop\n      pop\n      jump\t// out\n        /* \"BenefactorsDeadManSwitch.sol\":6317:6680  if (keccak256(abi.encodePacked(ipfsCIDs[i])) == keccak256(abi.encodePacked(_ipfsCID))) {... */\n    tag_156:\n        /* \"BenefactorsDeadManSwitch.sol\":6297:6300  i++ */\n      dup1\n      tag_179\n      dup2\n      tag_106\n      jump\t// in\n    tag_179:\n      swap2\n      pop\n      pop\n        /* \"BenefactorsDeadManSwitch.sol\":6256:6691  for (uint256 i = 0; i < ipfsCIDs.length; i++) {... */\n      jump(tag_148)\n    tag_149:\n      pop\n        /* \"BenefactorsDeadManSwitch.sol\":6740:6786  revert(\"CID not assigned to this beneficiary\") */\n      mload(0x40)\n      shl(0xe5, 0x461bcd)\n      dup2\n      mstore\n        /* \"#utility.yul\":13189:13191   */\n      0x20\n        /* \"BenefactorsDeadManSwitch.sol\":6740:6786  revert(\"CID not assigned to this beneficiary\") */\n      0x04\n      dup3\n      add\n        /* \"#utility.yul\":13171:13192   */\n      mstore\n        /* \"#utility.yul\":13228:13230   */\n      0x24\n        /* \"#utility.yul\":13208:13226   */\n      dup1\n      dup3\n      add\n        /* \"#utility.yul\":13201:13231   */\n      mstore\n        /* \"#utility.yul\":13267:13301   */\n      0x434944206e6f742061737369676e656420746f20746869732062656e65666963\n        /* \"#utility.yul\":13247:13265   */\n      0x44\n      dup3\n      add\n        /* \"#utility.yul\":13240:13302   */\n      mstore\n      shl(0xe0, 0x69617279)\n        /* \"#utility.yul\":13318:13336   */\n      0x64\n      dup3\n      add\n        /* \"#utility.yul\":13311:13345   */\n      mstore\n        /* \"#utility.yul\":13362:13381   */\n      0x84\n      add\n        /* \"BenefactorsDeadManSwitch.sol\":6740:6786  revert(\"CID not assigned to this beneficiary\") */\n      tag_84\n        /* \"#utility.yul\":12987:13387   */\n      jump\n        /* \"BenefactorsDeadManSwitch.sol\":8025:8331  function checkAliveStatus() public returns (bool) {... */\n    tag_59:\n        /* \"BenefactorsDeadManSwitch.sol\":8069:8073  bool */\n      0x00\n        /* \"BenefactorsDeadManSwitch.sol\":8090:8116  lastBenefactorResponseTime */\n      sload(0x03)\n        /* \"BenefactorsDeadManSwitch.sol\":8120:8121  0 */\n      0x00\n        /* \"BenefactorsDeadManSwitch.sol\":8090:8121  lastBenefactorResponseTime != 0 */\n      eq\n        /* \"BenefactorsDeadManSwitch.sol\":8086:8299  if (lastBenefactorResponseTime != 0) {... */\n      tag_183\n      jumpi\n        /* \"BenefactorsDeadManSwitch.sol\":8138:8164  uint256 remainingCountdown */\n      0x00\n        /* \"BenefactorsDeadManSwitch.sol\":8167:8194  getRemainingCountdownTime() */\n      tag_184\n        /* \"BenefactorsDeadManSwitch.sol\":8167:8192  getRemainingCountdownTime */\n      tag_30\n        /* \"BenefactorsDeadManSwitch.sol\":8167:8194  getRemainingCountdownTime() */\n      jump\t// in\n    tag_184:\n        /* \"BenefactorsDeadManSwitch.sol\":8138:8194  uint256 remainingCountdown = getRemainingCountdownTime() */\n      swap1\n      pop\n        /* \"BenefactorsDeadManSwitch.sol\":8213:8231  remainingCountdown */\n      dup1\n        /* \"BenefactorsDeadManSwitch.sol\":8235:8236  0 */\n      0x00\n        /* \"BenefactorsDeadManSwitch.sol\":8213:8236  remainingCountdown == 0 */\n      sub\n        /* \"BenefactorsDeadManSwitch.sol\":8209:8288  if (remainingCountdown == 0) {... */\n      tag_185\n      jumpi\n        /* \"BenefactorsDeadManSwitch.sol\":8257:8264  isAlive */\n      0x04\n        /* \"BenefactorsDeadManSwitch.sol\":8257:8272  isAlive = false */\n      dup1\n      sload\n      not(0xff00)\n      and\n      swap1\n      sstore\n        /* \"BenefactorsDeadManSwitch.sol\":8209:8288  if (remainingCountdown == 0) {... */\n    tag_185:\n        /* \"BenefactorsDeadManSwitch.sol\":8123:8299  {... */\n      pop\n        /* \"BenefactorsDeadManSwitch.sol\":8086:8299  if (lastBenefactorResponseTime != 0) {... */\n    tag_183:\n      pop\n        /* \"BenefactorsDeadManSwitch.sol\":8316:8323  isAlive */\n      sload(0x04)\n      0x0100\n      swap1\n      div\n      0xff\n      and\n      swap1\n        /* \"BenefactorsDeadManSwitch.sol\":8025:8331  function checkAliveStatus() public returns (bool) {... */\n      jump\t// out\n        /* \"BenefactorsDeadManSwitch.sol\":6896:7384  function enableSwitch() external onlyBeneficiary {... */\n    tag_66:\n        /* \"BenefactorsDeadManSwitch.sol\":2497:2507  msg.sender */\n      caller\n        /* \"BenefactorsDeadManSwitch.sol\":2483:2508  beneficiaries[msg.sender] */\n      0x00\n      swap1\n      dup2\n      mstore\n        /* \"BenefactorsDeadManSwitch.sol\":2483:2496  beneficiaries */\n      0x01\n        /* \"BenefactorsDeadManSwitch.sol\":2483:2508  beneficiaries[msg.sender] */\n      0x20\n      mstore\n      0x40\n      swap1\n      keccak256\n        /* \"BenefactorsDeadManSwitch.sol\":2483:2515  beneficiaries[msg.sender].exists */\n      sload\n      0xff\n      and\n        /* \"BenefactorsDeadManSwitch.sol\":2475:2537  require(beneficiaries[msg.sender].exists, \"Not a beneficiary\") */\n      tag_188\n      jumpi\n      mload(0x40)\n      shl(0xe5, 0x461bcd)\n      dup2\n      mstore\n        /* \"#utility.yul\":13594:13596   */\n      0x20\n        /* \"BenefactorsDeadManSwitch.sol\":2475:2537  require(beneficiaries[msg.sender].exists, \"Not a beneficiary\") */\n      0x04\n      dup3\n      add\n        /* \"#utility.yul\":13576:13597   */\n      mstore\n        /* \"#utility.yul\":13633:13635   */\n      0x11\n        /* \"#utility.yul\":13613:13631   */\n      0x24\n      dup3\n      add\n        /* \"#utility.yul\":13606:13636   */\n      mstore\n        /* \"#utility.yul\":13672:13691   */\n      0x4e6f7420612062656e6566696369617279000000000000000000000000000000\n        /* \"#utility.yul\":13652:13670   */\n      0x44\n      dup3\n      add\n        /* \"#utility.yul\":13645:13692   */\n      mstore\n        /* \"#utility.yul\":13709:13727   */\n      0x64\n      add\n        /* \"BenefactorsDeadManSwitch.sol\":2475:2537  require(beneficiaries[msg.sender].exists, \"Not a beneficiary\") */\n      tag_84\n        /* \"#utility.yul\":13392:13733   */\n      jump\n        /* \"BenefactorsDeadManSwitch.sol\":2475:2537  require(beneficiaries[msg.sender].exists, \"Not a beneficiary\") */\n    tag_188:\n        /* \"BenefactorsDeadManSwitch.sol\":6961:6974  isSwitchedOff */\n      and(0xff, sload(0x04))\n        /* \"BenefactorsDeadManSwitch.sol\":6956:7056  if (!isSwitchedOff) {... */\n      tag_192\n      jumpi\n        /* \"BenefactorsDeadManSwitch.sol\":6996:7023  SwitchAlreadyOn(msg.sender) */\n      mload(0x40)\n        /* \"BenefactorsDeadManSwitch.sol\":7012:7022  msg.sender */\n      caller\n      swap1\n        /* \"BenefactorsDeadManSwitch.sol\":6996:7023  SwitchAlreadyOn(msg.sender) */\n      0xead4f7f220244e6b588c135f1b3288c4f816e0f5f626cbcc61890a729949a4ff\n      swap1\n      0x00\n      swap1\n      log2\n        /* \"BenefactorsDeadManSwitch.sol\":6896:7384  function enableSwitch() external onlyBeneficiary {... */\n      jump\t// out\n        /* \"BenefactorsDeadManSwitch.sol\":6956:7056  if (!isSwitchedOff) {... */\n    tag_192:\n        /* \"BenefactorsDeadManSwitch.sol\":7066:7079  isSwitchedOff */\n      0x04\n        /* \"BenefactorsDeadManSwitch.sol\":7066:7087  isSwitchedOff = false */\n      dup1\n      sload\n      not(0xff)\n      and\n      swap1\n      sstore\n        /* \"BenefactorsDeadManSwitch.sol\":7172:7187  block.timestamp */\n      timestamp\n        /* \"BenefactorsDeadManSwitch.sol\":7143:7169  lastBenefactorResponseTime */\n      0x03\n        /* \"BenefactorsDeadManSwitch.sol\":7143:7187  lastBenefactorResponseTime = block.timestamp */\n      sstore\n        /* \"BenefactorsDeadManSwitch.sol\":7358:7375  countdownDuration */\n      sload(0x02)\n        /* \"BenefactorsDeadManSwitch.sol\":7324:7376  DeadMansSwitchEnabled(msg.sender, countdownDuration) */\n      mload(0x40)\n        /* \"#utility.yul\":160:185   */\n      swap1\n      dup2\n      mstore\n        /* \"BenefactorsDeadManSwitch.sol\":7346:7356  msg.sender */\n      caller\n      swap1\n        /* \"BenefactorsDeadManSwitch.sol\":7324:7376  DeadMansSwitchEnabled(msg.sender, countdownDuration) */\n      0xcc272f3c4321d64a0bccc7cb23d6dc8d452b85dd320aa24eacc2464eebb68514\n      swap1\n        /* \"#utility.yul\":148:150   */\n      0x20\n        /* \"#utility.yul\":133:151   */\n      add\n        /* \"BenefactorsDeadManSwitch.sol\":7324:7376  DeadMansSwitchEnabled(msg.sender, countdownDuration) */\n    tag_193:\n      mload(0x40)\n      dup1\n      swap2\n      sub\n      swap1\n      log2\n        /* \"BenefactorsDeadManSwitch.sol\":6896:7384  function enableSwitch() external onlyBeneficiary {... */\n      jump\t// out\n        /* \"BenefactorsDeadManSwitch.sol\":4522:4835  function addBeneficiary(address _beneficiary, string[] memory _ipfsCIDs) external onlyBenefactor {... */\n    tag_70:\n        /* \"BenefactorsDeadManSwitch.sol\":601:611  benefactor */\n      and(sub(shl(0xa0, 0x01), 0x01), sload(0x00))\n        /* \"BenefactorsDeadManSwitch.sol\":587:597  msg.sender */\n      caller\n        /* \"BenefactorsDeadManSwitch.sol\":587:611  msg.sender == benefactor */\n      eq\n        /* \"BenefactorsDeadManSwitch.sol\":587:630  msg.sender == benefactor && isAlive == true */\n      dup1\n      iszero\n      tag_195\n      jumpi\n      pop\n        /* \"BenefactorsDeadManSwitch.sol\":615:622  isAlive */\n      sload(0x04)\n      0xff\n      0x0100\n      swap1\n      swap2\n      div\n      and\n        /* \"BenefactorsDeadManSwitch.sol\":615:630  isAlive == true */\n      iszero\n      iszero\n        /* \"BenefactorsDeadManSwitch.sol\":615:622  isAlive */\n      0x01\n        /* \"BenefactorsDeadManSwitch.sol\":615:630  isAlive == true */\n      eq\n        /* \"BenefactorsDeadManSwitch.sol\":587:630  msg.sender == benefactor && isAlive == true */\n    tag_195:\n        /* \"BenefactorsDeadManSwitch.sol\":579:653  require(msg.sender == benefactor && isAlive == true, \"Not the benefactor\") */\n      tag_196\n      jumpi\n      mload(0x40)\n      shl(0xe5, 0x461bcd)\n      dup2\n      mstore\n        /* \"#utility.yul\":5808:5810   */\n      0x20\n        /* \"BenefactorsDeadManSwitch.sol\":579:653  require(msg.sender == benefactor && isAlive == true, \"Not the benefactor\") */\n      0x04\n      dup3\n      add\n        /* \"#utility.yul\":5790:5811   */\n      mstore\n        /* \"#utility.yul\":5847:5849   */\n      0x12\n        /* \"#utility.yul\":5827:5845   */\n      0x24\n      dup3\n      add\n        /* \"#utility.yul\":5820:5850   */\n      mstore\n      shl(0x71, 0x2737ba103a3432903132b732b330b1ba37b9)\n        /* \"#utility.yul\":5866:5884   */\n      0x44\n      dup3\n      add\n        /* \"#utility.yul\":5859:5907   */\n      mstore\n        /* \"#utility.yul\":5924:5942   */\n      0x64\n      add\n        /* \"BenefactorsDeadManSwitch.sol\":579:653  require(msg.sender == benefactor && isAlive == true, \"Not the benefactor\") */\n      tag_84\n        /* \"#utility.yul\":5606:5948   */\n      jump\n        /* \"BenefactorsDeadManSwitch.sol\":579:653  require(msg.sender == benefactor && isAlive == true, \"Not the benefactor\") */\n    tag_196:\n      sub(shl(0xa0, 0x01), 0x01)\n        /* \"BenefactorsDeadManSwitch.sol\":3799:3822  beneficiaries[_address] */\n      dup3\n      and\n        /* \"BenefactorsDeadManSwitch.sol\":3775:3779  bool */\n      0x00\n        /* \"BenefactorsDeadManSwitch.sol\":3799:3822  beneficiaries[_address] */\n      swap1\n      dup2\n      mstore\n        /* \"BenefactorsDeadManSwitch.sol\":3799:3812  beneficiaries */\n      0x01\n        /* \"BenefactorsDeadManSwitch.sol\":3799:3822  beneficiaries[_address] */\n      0x20\n      mstore\n      0x40\n      swap1\n      keccak256\n        /* \"BenefactorsDeadManSwitch.sol\":3799:3829  beneficiaries[_address].exists */\n      sload\n      0xff\n      and\n        /* \"BenefactorsDeadManSwitch.sol\":4638:4666  !isBeneficiary(_beneficiary) */\n      iszero\n        /* \"BenefactorsDeadManSwitch.sol\":4630:4697  require(!isBeneficiary(_beneficiary), \"Beneficiary already exists\") */\n      tag_200\n      jumpi\n      mload(0x40)\n      shl(0xe5, 0x461bcd)\n      dup2\n      mstore\n        /* \"#utility.yul\":13940:13942   */\n      0x20\n        /* \"BenefactorsDeadManSwitch.sol\":4630:4697  require(!isBeneficiary(_beneficiary), \"Beneficiary already exists\") */\n      0x04\n      dup3\n      add\n        /* \"#utility.yul\":13922:13943   */\n      mstore\n        /* \"#utility.yul\":13979:13981   */\n      0x1a\n        /* \"#utility.yul\":13959:13977   */\n      0x24\n      dup3\n      add\n        /* \"#utility.yul\":13952:13982   */\n      mstore\n        /* \"#utility.yul\":14018:14046   */\n      0x42656e656669636961727920616c726561647920657869737473000000000000\n        /* \"#utility.yul\":13998:14016   */\n      0x44\n      dup3\n      add\n        /* \"#utility.yul\":13991:14047   */\n      mstore\n        /* \"#utility.yul\":14064:14082   */\n      0x64\n      add\n        /* \"BenefactorsDeadManSwitch.sol\":4630:4697  require(!isBeneficiary(_beneficiary), \"Beneficiary already exists\") */\n      tag_84\n        /* \"#utility.yul\":13738:14088   */\n      jump\n        /* \"BenefactorsDeadManSwitch.sol\":4630:4697  require(!isBeneficiary(_beneficiary), \"Beneficiary already exists\") */\n    tag_200:\n        /* \"BenefactorsDeadManSwitch.sol\":4738:4770  BeneficiaryInfo(true, _ipfsCIDs) */\n      0x40\n      dup1\n      mload\n      dup1\n      dup3\n      add\n      dup3\n      mstore\n        /* \"BenefactorsDeadManSwitch.sol\":4754:4758  true */\n      0x01\n        /* \"BenefactorsDeadManSwitch.sol\":4738:4770  BeneficiaryInfo(true, _ipfsCIDs) */\n      dup1\n      dup3\n      mstore\n      0x20\n      dup1\n      dup4\n      add\n      dup6\n      dup2\n      mstore\n      sub(shl(0xa0, 0x01), 0x01)\n        /* \"BenefactorsDeadManSwitch.sol\":4708:4735  beneficiaries[_beneficiary] */\n      dup8\n      and\n      0x00\n      swap1\n      dup2\n      mstore\n      dup4\n      dup4\n      mstore\n      swap5\n      swap1\n      swap5\n      keccak256\n        /* \"BenefactorsDeadManSwitch.sol\":4708:4770  beneficiaries[_beneficiary] = BeneficiaryInfo(true, _ipfsCIDs) */\n      dup4\n      mload\n      dup2\n      sload\n      not(0xff)\n      and\n      swap1\n      iszero\n      iszero\n      or\n      dup2\n      sstore\n      swap4\n      mload\n      dup1\n      mload\n        /* \"BenefactorsDeadManSwitch.sol\":4738:4770  BeneficiaryInfo(true, _ipfsCIDs) */\n      swap4\n      swap5\n        /* \"BenefactorsDeadManSwitch.sol\":4708:4735  beneficiaries[_beneficiary] */\n      swap4\n        /* \"BenefactorsDeadManSwitch.sol\":4708:4770  beneficiaries[_beneficiary] = BeneficiaryInfo(true, _ipfsCIDs) */\n      tag_203\n      swap4\n      dup6\n      add\n      swap3\n      swap2\n      swap1\n      swap2\n      add\n      swap1\n      tag_204\n      jump\t// in\n    tag_203:\n      pop\n      swap1\n      pop\n      pop\n        /* \"BenefactorsDeadManSwitch.sol\":4803:4815  _beneficiary */\n      dup2\n      sub(shl(0xa0, 0x01), 0x01)\n        /* \"BenefactorsDeadManSwitch.sol\":4786:4827  BeneficiaryAdded(_beneficiary, _ipfsCIDs) */\n      and\n      0x07d2ae8db973d0257348fb20de20bde4c46ee9138371086cadb0a2497ea366c2\n        /* \"BenefactorsDeadManSwitch.sol\":4817:4826  _ipfsCIDs */\n      dup3\n        /* \"BenefactorsDeadManSwitch.sol\":4786:4827  BeneficiaryAdded(_beneficiary, _ipfsCIDs) */\n      mload(0x40)\n      tag_205\n      swap2\n      swap1\n      tag_44\n      jump\t// in\n    tag_205:\n      mload(0x40)\n      dup1\n      swap2\n      sub\n      swap1\n      log2\n        /* \"BenefactorsDeadManSwitch.sol\":4522:4835  function addBeneficiary(address _beneficiary, string[] memory _ipfsCIDs) external onlyBenefactor {... */\n      pop\n      pop\n      jump\t// out\n        /* \"BenefactorsDeadManSwitch.sol\":8489:9106  function respondToSwitch() external onlyBenefactor {... */\n    tag_72:\n        /* \"BenefactorsDeadManSwitch.sol\":601:611  benefactor */\n      and(sub(shl(0xa0, 0x01), 0x01), sload(0x00))\n        /* \"BenefactorsDeadManSwitch.sol\":587:597  msg.sender */\n      caller\n        /* \"BenefactorsDeadManSwitch.sol\":587:611  msg.sender == benefactor */\n      eq\n        /* \"BenefactorsDeadManSwitch.sol\":587:630  msg.sender == benefactor && isAlive == true */\n      dup1\n      iszero\n      tag_207\n      jumpi\n      pop\n        /* \"BenefactorsDeadManSwitch.sol\":615:622  isAlive */\n      sload(0x04)\n      0xff\n      0x0100\n      swap1\n      swap2\n      div\n      and\n        /* \"BenefactorsDeadManSwitch.sol\":615:630  isAlive == true */\n      iszero\n      iszero\n        /* \"BenefactorsDeadManSwitch.sol\":615:622  isAlive */\n      0x01\n        /* \"BenefactorsDeadManSwitch.sol\":615:630  isAlive == true */\n      eq\n        /* \"BenefactorsDeadManSwitch.sol\":587:630  msg.sender == benefactor && isAlive == true */\n    tag_207:\n        /* \"BenefactorsDeadManSwitch.sol\":579:653  require(msg.sender == benefactor && isAlive == true, \"Not the benefactor\") */\n      tag_208\n      jumpi\n      mload(0x40)\n      shl(0xe5, 0x461bcd)\n      dup2\n      mstore\n        /* \"#utility.yul\":5808:5810   */\n      0x20\n        /* \"BenefactorsDeadManSwitch.sol\":579:653  require(msg.sender == benefactor && isAlive == true, \"Not the benefactor\") */\n      0x04\n      dup3\n      add\n        /* \"#utility.yul\":5790:5811   */\n      mstore\n        /* \"#utility.yul\":5847:5849   */\n      0x12\n        /* \"#utility.yul\":5827:5845   */\n      0x24\n      dup3\n      add\n        /* \"#utility.yul\":5820:5850   */\n      mstore\n      shl(0x71, 0x2737ba103a3432903132b732b330b1ba37b9)\n        /* \"#utility.yul\":5866:5884   */\n      0x44\n      dup3\n      add\n        /* \"#utility.yul\":5859:5907   */\n      mstore\n        /* \"#utility.yul\":5924:5942   */\n      0x64\n      add\n        /* \"BenefactorsDeadManSwitch.sol\":579:653  require(msg.sender == benefactor && isAlive == true, \"Not the benefactor\") */\n      tag_84\n        /* \"#utility.yul\":5606:5948   */\n      jump\n        /* \"BenefactorsDeadManSwitch.sol\":579:653  require(msg.sender == benefactor && isAlive == true, \"Not the benefactor\") */\n    tag_208:\n        /* \"BenefactorsDeadManSwitch.sol\":8555:8581  lastBenefactorResponseTime */\n      sload(0x03)\n        /* \"BenefactorsDeadManSwitch.sol\":8555:8586  lastBenefactorResponseTime != 0 */\n      iszero\n        /* \"BenefactorsDeadManSwitch.sol\":8551:9099  if (lastBenefactorResponseTime != 0) {... */\n      tag_211\n      jumpi\n        /* \"BenefactorsDeadManSwitch.sol\":8607:8625  checkAliveStatus() */\n      tag_212\n        /* \"BenefactorsDeadManSwitch.sol\":8607:8623  checkAliveStatus */\n      tag_59\n        /* \"BenefactorsDeadManSwitch.sol\":8607:8625  checkAliveStatus() */\n      jump\t// in\n    tag_212:\n        /* \"BenefactorsDeadManSwitch.sol\":8603:8910  if (checkAliveStatus()) {... */\n      iszero\n      tag_213\n      jumpi\n        /* \"BenefactorsDeadManSwitch.sol\":8669:8679  benefactor */\n      sload(0x00)\n        /* \"BenefactorsDeadManSwitch.sol\":8651:8702  BenefactorIsAlive(benefactor,\"Benefactor is alive\") */\n      mload(0x40)\n      sub(shl(0xa0, 0x01), 0x01)\n        /* \"BenefactorsDeadManSwitch.sol\":8669:8679  benefactor */\n      swap1\n      swap2\n      and\n      swap1\n        /* \"BenefactorsDeadManSwitch.sol\":8651:8702  BenefactorIsAlive(benefactor,\"Benefactor is alive\") */\n      0x793324a6f079e577f4a4646c7ec753efd3beddc2f4ce07bfae5f105c449ac356\n      swap1\n      tag_214\n      swap1\n        /* \"#utility.yul\":14295:14297   */\n      0x20\n        /* \"#utility.yul\":14277:14298   */\n      dup1\n      dup3\n      mstore\n        /* \"#utility.yul\":14334:14336   */\n      0x13\n        /* \"#utility.yul\":14314:14332   */\n      swap1\n      dup3\n      add\n        /* \"#utility.yul\":14307:14337   */\n      mstore\n        /* \"#utility.yul\":14373:14394   */\n      0x42656e65666163746f7220697320616c69766500000000000000000000000000\n        /* \"#utility.yul\":14368:14370   */\n      0x40\n        /* \"#utility.yul\":14353:14371   */\n      dup3\n      add\n        /* \"#utility.yul\":14346:14395   */\n      mstore\n        /* \"#utility.yul\":14427:14429   */\n      0x60\n        /* \"#utility.yul\":14412:14430   */\n      add\n      swap1\n        /* \"#utility.yul\":14093:14436   */\n      jump\n        /* \"BenefactorsDeadManSwitch.sol\":8651:8702  BenefactorIsAlive(benefactor,\"Benefactor is alive\") */\n    tag_214:\n      mload(0x40)\n      dup1\n      swap2\n      sub\n      swap1\n      log2\n        /* \"BenefactorsDeadManSwitch.sol\":8721:8736  disableSwitch() */\n      tag_216\n        /* \"BenefactorsDeadManSwitch.sol\":8721:8734  disableSwitch */\n      tag_217\n        /* \"BenefactorsDeadManSwitch.sol\":8721:8736  disableSwitch() */\n      jump\t// in\n    tag_216:\n        /* \"BenefactorsDeadManSwitch.sol\":8784:8799  block.timestamp */\n      timestamp\n        /* \"BenefactorsDeadManSwitch.sol\":8755:8781  lastBenefactorResponseTime */\n      0x03\n        /* \"BenefactorsDeadManSwitch.sol\":8755:8799  lastBenefactorResponseTime = block.timestamp */\n      sstore\n        /* \"BenefactorsDeadManSwitch.sol\":6896:7384  function enableSwitch() external onlyBeneficiary {... */\n      jump\t// out\n        /* \"BenefactorsDeadManSwitch.sol\":8603:8910  if (checkAliveStatus()) {... */\n    tag_213:\n        /* \"BenefactorsDeadManSwitch.sol\":8862:8872  benefactor */\n      sload(0x00)\n        /* \"BenefactorsDeadManSwitch.sol\":8845:8894  BenefactorIsDead(benefactor,\"Benefactor is dead\") */\n      mload(0x40)\n      sub(shl(0xa0, 0x01), 0x01)\n        /* \"BenefactorsDeadManSwitch.sol\":8862:8872  benefactor */\n      swap1\n      swap2\n      and\n      swap1\n        /* \"BenefactorsDeadManSwitch.sol\":8845:8894  BenefactorIsDead(benefactor,\"Benefactor is dead\") */\n      0x5a68fa7d6b655a3e592d5d99ac82863424750e9d262c902f30f9e56655e7a856\n      swap1\n      tag_193\n      swap1\n        /* \"#utility.yul\":14643:14645   */\n      0x20\n        /* \"#utility.yul\":14625:14646   */\n      dup1\n      dup3\n      mstore\n        /* \"#utility.yul\":14682:14684   */\n      0x12\n        /* \"#utility.yul\":14662:14680   */\n      swap1\n      dup3\n      add\n        /* \"#utility.yul\":14655:14685   */\n      mstore\n        /* \"#utility.yul\":14721:14741   */\n      0x42656e65666163746f7220697320646561640000000000000000000000000000\n        /* \"#utility.yul\":14716:14718   */\n      0x40\n        /* \"#utility.yul\":14701:14719   */\n      dup3\n      add\n        /* \"#utility.yul\":14694:14742   */\n      mstore\n        /* \"#utility.yul\":14774:14776   */\n      0x60\n        /* \"#utility.yul\":14759:14777   */\n      add\n      swap1\n        /* \"#utility.yul\":14441:14783   */\n      jump\n        /* \"BenefactorsDeadManSwitch.sol\":8551:9099  if (lastBenefactorResponseTime != 0) {... */\n    tag_211:\n        /* \"BenefactorsDeadManSwitch.sol\":8965:8975  benefactor */\n      sload(0x00)\n        /* \"BenefactorsDeadManSwitch.sol\":8947:8998  BenefactorIsAlive(benefactor,\"Benefactor is alive\") */\n      mload(0x40)\n      sub(shl(0xa0, 0x01), 0x01)\n        /* \"BenefactorsDeadManSwitch.sol\":8965:8975  benefactor */\n      swap1\n      swap2\n      and\n      swap1\n        /* \"BenefactorsDeadManSwitch.sol\":8947:8998  BenefactorIsAlive(benefactor,\"Benefactor is alive\") */\n      0x793324a6f079e577f4a4646c7ec753efd3beddc2f4ce07bfae5f105c449ac356\n      swap1\n      tag_214\n      swap1\n        /* \"#utility.yul\":14295:14297   */\n      0x20\n        /* \"#utility.yul\":14277:14298   */\n      dup1\n      dup3\n      mstore\n        /* \"#utility.yul\":14334:14336   */\n      0x13\n        /* \"#utility.yul\":14314:14332   */\n      swap1\n      dup3\n      add\n        /* \"#utility.yul\":14307:14337   */\n      mstore\n        /* \"#utility.yul\":14373:14394   */\n      0x42656e65666163746f7220697320616c69766500000000000000000000000000\n        /* \"#utility.yul\":14368:14370   */\n      0x40\n        /* \"#utility.yul\":14353:14371   */\n      dup3\n      add\n        /* \"#utility.yul\":14346:14395   */\n      mstore\n        /* \"#utility.yul\":14427:14429   */\n      0x60\n        /* \"#utility.yul\":14412:14430   */\n      add\n      swap1\n        /* \"#utility.yul\":14093:14436   */\n      jump\n        /* \"BenefactorsDeadManSwitch.sol\":9210:9475  function disableSwitch() internal onlyBenefactor {... */\n    tag_217:\n        /* \"BenefactorsDeadManSwitch.sol\":601:611  benefactor */\n      and(sub(shl(0xa0, 0x01), 0x01), sload(0x00))\n        /* \"BenefactorsDeadManSwitch.sol\":587:597  msg.sender */\n      caller\n        /* \"BenefactorsDeadManSwitch.sol\":587:611  msg.sender == benefactor */\n      eq\n        /* \"BenefactorsDeadManSwitch.sol\":587:630  msg.sender == benefactor && isAlive == true */\n      dup1\n      iszero\n      tag_225\n      jumpi\n      pop\n        /* \"BenefactorsDeadManSwitch.sol\":615:622  isAlive */\n      sload(0x04)\n      0xff\n      0x0100\n      swap1\n      swap2\n      div\n      and\n        /* \"BenefactorsDeadManSwitch.sol\":615:630  isAlive == true */\n      iszero\n      iszero\n        /* \"BenefactorsDeadManSwitch.sol\":615:622  isAlive */\n      0x01\n        /* \"BenefactorsDeadManSwitch.sol\":615:630  isAlive == true */\n      eq\n        /* \"BenefactorsDeadManSwitch.sol\":587:630  msg.sender == benefactor && isAlive == true */\n    tag_225:\n        /* \"BenefactorsDeadManSwitch.sol\":579:653  require(msg.sender == benefactor && isAlive == true, \"Not the benefactor\") */\n      tag_226\n      jumpi\n      mload(0x40)\n      shl(0xe5, 0x461bcd)\n      dup2\n      mstore\n        /* \"#utility.yul\":5808:5810   */\n      0x20\n        /* \"BenefactorsDeadManSwitch.sol\":579:653  require(msg.sender == benefactor && isAlive == true, \"Not the benefactor\") */\n      0x04\n      dup3\n      add\n        /* \"#utility.yul\":5790:5811   */\n      mstore\n        /* \"#utility.yul\":5847:5849   */\n      0x12\n        /* \"#utility.yul\":5827:5845   */\n      0x24\n      dup3\n      add\n        /* \"#utility.yul\":5820:5850   */\n      mstore\n      shl(0x71, 0x2737ba103a3432903132b732b330b1ba37b9)\n        /* \"#utility.yul\":5866:5884   */\n      0x44\n      dup3\n      add\n        /* \"#utility.yul\":5859:5907   */\n      mstore\n        /* \"#utility.yul\":5924:5942   */\n      0x64\n      add\n        /* \"BenefactorsDeadManSwitch.sol\":579:653  require(msg.sender == benefactor && isAlive == true, \"Not the benefactor\") */\n      tag_84\n        /* \"#utility.yul\":5606:5948   */\n      jump\n        /* \"BenefactorsDeadManSwitch.sol\":579:653  require(msg.sender == benefactor && isAlive == true, \"Not the benefactor\") */\n    tag_226:\n        /* \"BenefactorsDeadManSwitch.sol\":9274:9287  isSwitchedOff */\n      and(0xff, sload(0x04))\n        /* \"BenefactorsDeadManSwitch.sol\":9270:9370  if (isSwitchedOff) {... */\n      iszero\n      tag_229\n      jumpi\n        /* \"BenefactorsDeadManSwitch.sol\":9309:9337  SwitchAlreadyOff(msg.sender) */\n      mload(0x40)\n        /* \"BenefactorsDeadManSwitch.sol\":9326:9336  msg.sender */\n      caller\n      swap1\n        /* \"BenefactorsDeadManSwitch.sol\":9309:9337  SwitchAlreadyOff(msg.sender) */\n      0x2d44f8a9f38299bd7ddd20e336bdc35969c0188bc56e9fb39d6fd770ae4d6e94\n      swap1\n      0x00\n      swap1\n      log2\n        /* \"BenefactorsDeadManSwitch.sol\":6896:7384  function enableSwitch() external onlyBeneficiary {... */\n      jump\t// out\n        /* \"BenefactorsDeadManSwitch.sol\":9270:9370  if (isSwitchedOff) {... */\n    tag_229:\n        /* \"BenefactorsDeadManSwitch.sol\":9380:9393  isSwitchedOff */\n      0x04\n        /* \"BenefactorsDeadManSwitch.sol\":9380:9400  isSwitchedOff = true */\n      dup1\n      sload\n      not(0xff)\n      and\n        /* \"BenefactorsDeadManSwitch.sol\":9396:9400  true */\n      0x01\n        /* \"BenefactorsDeadManSwitch.sol\":9380:9400  isSwitchedOff = true */\n      or\n      swap1\n      sstore\n        /* \"BenefactorsDeadManSwitch.sol\":9416:9467  DeadMansSwitchDisabled(msg.sender, block.timestamp) */\n      mload(0x40)\n        /* \"BenefactorsDeadManSwitch.sol\":9439:9449  msg.sender */\n      caller\n      swap1\n        /* \"BenefactorsDeadManSwitch.sol\":9416:9467  DeadMansSwitchDisabled(msg.sender, block.timestamp) */\n      0x2f4ddd9d3083ada98da611a8706b4a485cbe108962a3d8d2e7b7583fdf6c9a69\n      swap1\n      tag_193\n      swap1\n        /* \"BenefactorsDeadManSwitch.sol\":9451:9466  block.timestamp */\n      timestamp\n        /* \"#utility.yul\":160:185   */\n      dup2\n      mstore\n        /* \"#utility.yul\":148:150   */\n      0x20\n        /* \"#utility.yul\":133:151   */\n      add\n      swap1\n        /* \"#utility.yul\":14:191   */\n      jump\n    tag_121:\n      pop\n      dup1\n      sload\n      0x00\n      dup3\n      sstore\n      swap1\n      0x00\n      mstore\n      keccak256(0x00, 0x20)\n      swap1\n      dup2\n      add\n      swap1\n      tag_232\n      swap2\n      swap1\n      tag_233\n      jump\t// in\n    tag_232:\n      pop\n      jump\t// out\n    tag_177:\n      pop\n      dup1\n      sload\n      tag_234\n      swap1\n      tag_135\n      jump\t// in\n    tag_234:\n      0x00\n      dup3\n      sstore\n      dup1\n      0x1f\n      lt\n      tag_236\n      jumpi\n      pop\n      pop\n      jump\t// out\n    tag_236:\n      0x1f\n      add\n      0x20\n      swap1\n      div\n      swap1\n      0x00\n      mstore\n      keccak256(0x00, 0x20)\n      swap1\n      dup2\n      add\n      swap1\n      tag_232\n      swap2\n      swap1\n      tag_238\n      jump\t// in\n    tag_204:\n      dup3\n      dup1\n      sload\n      dup3\n      dup3\n      sstore\n      swap1\n      0x00\n      mstore\n      keccak256(0x00, 0x20)\n      swap1\n      dup2\n      add\n      swap3\n      dup3\n      iszero\n      tag_241\n      jumpi\n      swap2\n      0x20\n      mul\n      dup3\n      add\n    tag_240:\n      dup3\n      dup2\n      gt\n      iszero\n      tag_241\n      jumpi\n      dup3\n      mload\n      dup3\n      swap1\n      tag_242\n      swap1\n      dup3\n      tag_109\n      jump\t// in\n    tag_242:\n      pop\n      swap2\n      0x20\n      add\n      swap2\n      swap1\n      0x01\n      add\n      swap1\n      jump(tag_240)\n    tag_241:\n      pop\n      tag_243\n      swap3\n      swap2\n      pop\n      tag_233\n      jump\t// in\n    tag_243:\n      pop\n      swap1\n      jump\t// out\n    tag_233:\n      dup1\n      dup3\n      gt\n      iszero\n      tag_243\n      jumpi\n      0x00\n      tag_246\n      dup3\n      dup3\n      tag_177\n      jump\t// in\n    tag_246:\n      pop\n      0x01\n      add\n      jump(tag_233)\n    tag_238:\n    tag_247:\n      dup1\n      dup3\n      gt\n      iszero\n      tag_243\n      jumpi\n      0x00\n      dup2\n      sstore\n      0x01\n      add\n      jump(tag_247)\n        /* \"#utility.yul\":388:584   */\n    tag_249:\n        /* \"#utility.yul\":456:476   */\n      dup1\n      calldataload\n      sub(shl(0xa0, 0x01), 0x01)\n        /* \"#utility.yul\":505:559   */\n      dup2\n      and\n        /* \"#utility.yul\":495:560   */\n      dup2\n      eq\n        /* \"#utility.yul\":485:578   */\n      tag_127\n      jumpi\n        /* \"#utility.yul\":574:575   */\n      0x00\n        /* \"#utility.yul\":571:572   */\n      dup1\n        /* \"#utility.yul\":564:576   */\n      revert\n        /* \"#utility.yul\":589:716   */\n    tag_250:\n        /* \"#utility.yul\":650:660   */\n      0x4e487b71\n        /* \"#utility.yul\":645:648   */\n      0xe0\n        /* \"#utility.yul\":641:661   */\n      shl\n        /* \"#utility.yul\":638:639   */\n      0x00\n        /* \"#utility.yul\":631:662   */\n      mstore\n        /* \"#utility.yul\":681:685   */\n      0x41\n        /* \"#utility.yul\":678:679   */\n      0x04\n        /* \"#utility.yul\":671:686   */\n      mstore\n        /* \"#utility.yul\":705:709   */\n      0x24\n        /* \"#utility.yul\":702:703   */\n      0x00\n        /* \"#utility.yul\":695:710   */\n      revert\n        /* \"#utility.yul\":721:996   */\n    tag_251:\n        /* \"#utility.yul\":792:794   */\n      0x40\n        /* \"#utility.yul\":786:795   */\n      mload\n        /* \"#utility.yul\":857:859   */\n      0x1f\n        /* \"#utility.yul\":838:851   */\n      dup3\n      add\n      not(0x1f)\n        /* \"#utility.yul\":834:861   */\n      and\n        /* \"#utility.yul\":822:862   */\n      dup2\n      add\n        /* \"#utility.yul\":892:910   */\n      0xffffffffffffffff\n        /* \"#utility.yul\":877:911   */\n      dup2\n      gt\n        /* \"#utility.yul\":913:935   */\n      dup3\n      dup3\n      lt\n        /* \"#utility.yul\":874:936   */\n      or\n        /* \"#utility.yul\":871:959   */\n      iszero\n      tag_267\n      jumpi\n        /* \"#utility.yul\":939:957   */\n      tag_267\n      tag_250\n      jump\t// in\n    tag_267:\n        /* \"#utility.yul\":975:977   */\n      0x40\n        /* \"#utility.yul\":968:990   */\n      mstore\n        /* \"#utility.yul\":721:996   */\n      swap2\n      swap1\n      pop\n      jump\t// out\n        /* \"#utility.yul\":1001:1532   */\n    tag_252:\n        /* \"#utility.yul\":1044:1049   */\n      0x00\n        /* \"#utility.yul\":1097:1100   */\n      dup3\n        /* \"#utility.yul\":1090:1094   */\n      0x1f\n        /* \"#utility.yul\":1082:1088   */\n      dup4\n        /* \"#utility.yul\":1078:1095   */\n      add\n        /* \"#utility.yul\":1074:1101   */\n      slt\n        /* \"#utility.yul\":1064:1119   */\n      tag_269\n      jumpi\n        /* \"#utility.yul\":1115:1116   */\n      0x00\n        /* \"#utility.yul\":1112:1113   */\n      dup1\n        /* \"#utility.yul\":1105:1117   */\n      revert\n        /* \"#utility.yul\":1064:1119   */\n    tag_269:\n        /* \"#utility.yul\":1151:1157   */\n      dup2\n        /* \"#utility.yul\":1138:1158   */\n      calldataload\n        /* \"#utility.yul\":1177:1195   */\n      0xffffffffffffffff\n        /* \"#utility.yul\":1173:1175   */\n      dup2\n        /* \"#utility.yul\":1170:1196   */\n      gt\n        /* \"#utility.yul\":1167:1219   */\n      iszero\n      tag_271\n      jumpi\n        /* \"#utility.yul\":1199:1217   */\n      tag_271\n      tag_250\n      jump\t// in\n    tag_271:\n        /* \"#utility.yul\":1243:1298   */\n      tag_272\n        /* \"#utility.yul\":1286:1288   */\n      0x1f\n        /* \"#utility.yul\":1267:1280   */\n      dup3\n      add\n      not(0x1f)\n        /* \"#utility.yul\":1263:1290   */\n      and\n        /* \"#utility.yul\":1292:1296   */\n      0x20\n        /* \"#utility.yul\":1259:1297   */\n      add\n        /* \"#utility.yul\":1243:1298   */\n      tag_251\n      jump\t// in\n    tag_272:\n        /* \"#utility.yul\":1323:1325   */\n      dup2\n        /* \"#utility.yul\":1314:1321   */\n      dup2\n        /* \"#utility.yul\":1307:1326   */\n      mstore\n        /* \"#utility.yul\":1369:1372   */\n      dup5\n        /* \"#utility.yul\":1362:1366   */\n      0x20\n        /* \"#utility.yul\":1357:1359   */\n      dup4\n        /* \"#utility.yul\":1349:1355   */\n      dup7\n        /* \"#utility.yul\":1345:1360   */\n      add\n        /* \"#utility.yul\":1341:1367   */\n      add\n        /* \"#utility.yul\":1338:1373   */\n      gt\n        /* \"#utility.yul\":1335:1390   */\n      iszero\n      tag_273\n      jumpi\n        /* \"#utility.yul\":1386:1387   */\n      0x00\n        /* \"#utility.yul\":1383:1384   */\n      dup1\n        /* \"#utility.yul\":1376:1388   */\n      revert\n        /* \"#utility.yul\":1335:1390   */\n    tag_273:\n        /* \"#utility.yul\":1451:1453   */\n      dup2\n        /* \"#utility.yul\":1444:1448   */\n      0x20\n        /* \"#utility.yul\":1436:1442   */\n      dup6\n        /* \"#utility.yul\":1432:1449   */\n      add\n        /* \"#utility.yul\":1425:1429   */\n      0x20\n        /* \"#utility.yul\":1416:1423   */\n      dup4\n        /* \"#utility.yul\":1412:1430   */\n      add\n        /* \"#utility.yul\":1399:1454   */\n      calldatacopy\n        /* \"#utility.yul\":1499:1500   */\n      0x00\n        /* \"#utility.yul\":1474:1490   */\n      swap2\n      dup2\n      add\n        /* \"#utility.yul\":1492:1496   */\n      0x20\n        /* \"#utility.yul\":1470:1497   */\n      add\n        /* \"#utility.yul\":1463:1501   */\n      swap2\n      swap1\n      swap2\n      mstore\n        /* \"#utility.yul\":1478:1485   */\n      swap4\n        /* \"#utility.yul\":1001:1532   */\n      swap3\n      pop\n      pop\n      pop\n      jump\t// out\n        /* \"#utility.yul\":1537:1933   */\n    tag_34:\n        /* \"#utility.yul\":1615:1621   */\n      0x00\n        /* \"#utility.yul\":1623:1629   */\n      dup1\n        /* \"#utility.yul\":1676:1678   */\n      0x40\n        /* \"#utility.yul\":1664:1673   */\n      dup4\n        /* \"#utility.yul\":1655:1662   */\n      dup6\n        /* \"#utility.yul\":1651:1674   */\n      sub\n        /* \"#utility.yul\":1647:1679   */\n      slt\n        /* \"#utility.yul\":1644:1696   */\n      iszero\n      tag_275\n      jumpi\n        /* \"#utility.yul\":1692:1693   */\n      0x00\n        /* \"#utility.yul\":1689:1690   */\n      dup1\n        /* \"#utility.yul\":1682:1694   */\n      revert\n        /* \"#utility.yul\":1644:1696   */\n    tag_275:\n        /* \"#utility.yul\":1715:1744   */\n      tag_276\n        /* \"#utility.yul\":1734:1743   */\n      dup4\n        /* \"#utility.yul\":1715:1744   */\n      tag_249\n      jump\t// in\n    tag_276:\n        /* \"#utility.yul\":1705:1744   */\n      swap2\n      pop\n        /* \"#utility.yul\":1795:1797   */\n      0x20\n        /* \"#utility.yul\":1784:1793   */\n      dup4\n        /* \"#utility.yul\":1780:1798   */\n      add\n        /* \"#utility.yul\":1767:1799   */\n      calldataload\n        /* \"#utility.yul\":1822:1840   */\n      0xffffffffffffffff\n        /* \"#utility.yul\":1814:1820   */\n      dup2\n        /* \"#utility.yul\":1811:1841   */\n      gt\n        /* \"#utility.yul\":1808:1858   */\n      iszero\n      tag_277\n      jumpi\n        /* \"#utility.yul\":1854:1855   */\n      0x00\n        /* \"#utility.yul\":1851:1852   */\n      dup1\n        /* \"#utility.yul\":1844:1856   */\n      revert\n        /* \"#utility.yul\":1808:1858   */\n    tag_277:\n        /* \"#utility.yul\":1877:1927   */\n      tag_278\n        /* \"#utility.yul\":1919:1926   */\n      dup6\n        /* \"#utility.yul\":1910:1916   */\n      dup3\n        /* \"#utility.yul\":1899:1908   */\n      dup7\n        /* \"#utility.yul\":1895:1917   */\n      add\n        /* \"#utility.yul\":1877:1927   */\n      tag_252\n      jump\t// in\n    tag_278:\n        /* \"#utility.yul\":1867:1927   */\n      swap2\n      pop\n      pop\n        /* \"#utility.yul\":1537:1933   */\n      swap3\n      pop\n      swap3\n      swap1\n      pop\n      jump\t// out\n        /* \"#utility.yul\":1938:2124   */\n    tag_38:\n        /* \"#utility.yul\":1997:2003   */\n      0x00\n        /* \"#utility.yul\":2050:2052   */\n      0x20\n        /* \"#utility.yul\":2038:2047   */\n      dup3\n        /* \"#utility.yul\":2029:2036   */\n      dup5\n        /* \"#utility.yul\":2025:2048   */\n      sub\n        /* \"#utility.yul\":2021:2053   */\n      slt\n        /* \"#utility.yul\":2018:2070   */\n      iszero\n      tag_280\n      jumpi\n        /* \"#utility.yul\":2066:2067   */\n      0x00\n        /* \"#utility.yul\":2063:2064   */\n      dup1\n        /* \"#utility.yul\":2056:2068   */\n      revert\n        /* \"#utility.yul\":2018:2070   */\n    tag_280:\n        /* \"#utility.yul\":2089:2118   */\n      tag_281\n        /* \"#utility.yul\":2108:2117   */\n      dup3\n        /* \"#utility.yul\":2089:2118   */\n      tag_249\n      jump\t// in\n    tag_281:\n        /* \"#utility.yul\":2079:2118   */\n      swap4\n        /* \"#utility.yul\":1938:2124   */\n      swap3\n      pop\n      pop\n      pop\n      jump\t// out\n        /* \"#utility.yul\":2129:2379   */\n    tag_253:\n        /* \"#utility.yul\":2214:2215   */\n      0x00\n        /* \"#utility.yul\":2224:2337   */\n    tag_283:\n        /* \"#utility.yul\":2238:2244   */\n      dup4\n        /* \"#utility.yul\":2235:2236   */\n      dup2\n        /* \"#utility.yul\":2232:2245   */\n      lt\n        /* \"#utility.yul\":2224:2337   */\n      iszero\n      tag_285\n      jumpi\n        /* \"#utility.yul\":2314:2325   */\n      dup2\n      dup2\n      add\n        /* \"#utility.yul\":2308:2326   */\n      mload\n        /* \"#utility.yul\":2295:2306   */\n      dup4\n      dup3\n      add\n        /* \"#utility.yul\":2288:2327   */\n      mstore\n        /* \"#utility.yul\":2260:2262   */\n      0x20\n        /* \"#utility.yul\":2253:2263   */\n      add\n        /* \"#utility.yul\":2224:2337   */\n      jump(tag_283)\n    tag_285:\n      pop\n      pop\n        /* \"#utility.yul\":2371:2372   */\n      0x00\n        /* \"#utility.yul\":2353:2369   */\n      swap2\n      add\n        /* \"#utility.yul\":2346:2373   */\n      mstore\n        /* \"#utility.yul\":2129:2379   */\n      jump\t// out\n        /* \"#utility.yul\":2384:2655   */\n    tag_254:\n        /* \"#utility.yul\":2426:2429   */\n      0x00\n        /* \"#utility.yul\":2464:2469   */\n      dup2\n        /* \"#utility.yul\":2458:2470   */\n      mload\n        /* \"#utility.yul\":2491:2497   */\n      dup1\n        /* \"#utility.yul\":2486:2489   */\n      dup5\n        /* \"#utility.yul\":2479:2498   */\n      mstore\n        /* \"#utility.yul\":2507:2583   */\n      tag_287\n        /* \"#utility.yul\":2576:2582   */\n      dup2\n        /* \"#utility.yul\":2569:2573   */\n      0x20\n        /* \"#utility.yul\":2564:2567   */\n      dup7\n        /* \"#utility.yul\":2560:2574   */\n      add\n        /* \"#utility.yul\":2553:2557   */\n      0x20\n        /* \"#utility.yul\":2546:2551   */\n      dup7\n        /* \"#utility.yul\":2542:2558   */\n      add\n        /* \"#utility.yul\":2507:2583   */\n      tag_253\n      jump\t// in\n    tag_287:\n        /* \"#utility.yul\":2637:2639   */\n      0x1f\n        /* \"#utility.yul\":2616:2631   */\n      add\n      not(0x1f)\n        /* \"#utility.yul\":2612:2641   */\n      and\n        /* \"#utility.yul\":2603:2642   */\n      swap3\n      swap1\n      swap3\n      add\n        /* \"#utility.yul\":2644:2648   */\n      0x20\n        /* \"#utility.yul\":2599:2649   */\n      add\n      swap3\n        /* \"#utility.yul\":2384:2655   */\n      swap2\n      pop\n      pop\n      jump\t// out\n        /* \"#utility.yul\":2660:3463   */\n    tag_44:\n        /* \"#utility.yul\":2822:2826   */\n      0x00\n        /* \"#utility.yul\":2851:2853   */\n      0x20\n        /* \"#utility.yul\":2891:2893   */\n      dup1\n        /* \"#utility.yul\":2880:2889   */\n      dup4\n        /* \"#utility.yul\":2876:2894   */\n      add\n        /* \"#utility.yul\":2921:2923   */\n      dup2\n        /* \"#utility.yul\":2910:2919   */\n      dup5\n        /* \"#utility.yul\":2903:2924   */\n      mstore\n        /* \"#utility.yul\":2944:2950   */\n      dup1\n        /* \"#utility.yul\":2979:2985   */\n      dup6\n        /* \"#utility.yul\":2973:2986   */\n      mload\n        /* \"#utility.yul\":3010:3016   */\n      dup1\n        /* \"#utility.yul\":3002:3008   */\n      dup4\n        /* \"#utility.yul\":2995:3017   */\n      mstore\n        /* \"#utility.yul\":3048:3050   */\n      0x40\n        /* \"#utility.yul\":3037:3046   */\n      dup7\n        /* \"#utility.yul\":3033:3051   */\n      add\n        /* \"#utility.yul\":3026:3051   */\n      swap2\n      pop\n        /* \"#utility.yul\":3110:3112   */\n      0x40\n        /* \"#utility.yul\":3100:3106   */\n      dup2\n        /* \"#utility.yul\":3097:3098   */\n      0x05\n        /* \"#utility.yul\":3093:3107   */\n      shl\n        /* \"#utility.yul\":3082:3091   */\n      dup8\n        /* \"#utility.yul\":3078:3108   */\n      add\n        /* \"#utility.yul\":3074:3113   */\n      add\n        /* \"#utility.yul\":3060:3113   */\n      swap3\n      pop\n        /* \"#utility.yul\":3148:3150   */\n      dup4\n        /* \"#utility.yul\":3140:3146   */\n      dup8\n        /* \"#utility.yul\":3136:3151   */\n      add\n        /* \"#utility.yul\":3169:3170   */\n      0x00\n        /* \"#utility.yul\":3179:3434   */\n    tag_289:\n        /* \"#utility.yul\":3193:3199   */\n      dup3\n        /* \"#utility.yul\":3190:3191   */\n      dup2\n        /* \"#utility.yul\":3187:3200   */\n      lt\n        /* \"#utility.yul\":3179:3434   */\n      iszero\n      tag_291\n      jumpi\n        /* \"#utility.yul\":3286:3288   */\n      0x3f\n        /* \"#utility.yul\":3282:3289   */\n      not\n        /* \"#utility.yul\":3270:3279   */\n      dup9\n        /* \"#utility.yul\":3262:3268   */\n      dup7\n        /* \"#utility.yul\":3258:3280   */\n      sub\n        /* \"#utility.yul\":3254:3290   */\n      add\n        /* \"#utility.yul\":3249:3252   */\n      dup5\n        /* \"#utility.yul\":3242:3291   */\n      mstore\n        /* \"#utility.yul\":3314:3354   */\n      tag_292\n        /* \"#utility.yul\":3347:3353   */\n      dup6\n        /* \"#utility.yul\":3338:3344   */\n      dup4\n        /* \"#utility.yul\":3332:3345   */\n      mload\n        /* \"#utility.yul\":3314:3354   */\n      tag_254\n      jump\t// in\n    tag_292:\n        /* \"#utility.yul\":3304:3354   */\n      swap5\n      pop\n        /* \"#utility.yul\":3412:3424   */\n      swap3\n      dup6\n      add\n      swap3\n        /* \"#utility.yul\":3377:3392   */\n      swap1\n      dup6\n      add\n      swap1\n        /* \"#utility.yul\":3215:3216   */\n      0x01\n        /* \"#utility.yul\":3208:3217   */\n      add\n        /* \"#utility.yul\":3179:3434   */\n      jump(tag_289)\n    tag_291:\n      pop\n        /* \"#utility.yul\":3451:3457   */\n      swap3\n      swap8\n        /* \"#utility.yul\":2660:3463   */\n      swap7\n      pop\n      pop\n      pop\n      pop\n      pop\n      pop\n      pop\n      jump\t// out\n        /* \"#utility.yul\":3699:4940   */\n    tag_69:\n        /* \"#utility.yul\":3802:3808   */\n      0x00\n        /* \"#utility.yul\":3810:3816   */\n      dup1\n        /* \"#utility.yul\":3863:3865   */\n      0x40\n        /* \"#utility.yul\":3851:3860   */\n      dup4\n        /* \"#utility.yul\":3842:3849   */\n      dup6\n        /* \"#utility.yul\":3838:3861   */\n      sub\n        /* \"#utility.yul\":3834:3866   */\n      slt\n        /* \"#utility.yul\":3831:3883   */\n      iszero\n      tag_295\n      jumpi\n        /* \"#utility.yul\":3879:3880   */\n      0x00\n        /* \"#utility.yul\":3876:3877   */\n      dup1\n        /* \"#utility.yul\":3869:3881   */\n      revert\n        /* \"#utility.yul\":3831:3883   */\n    tag_295:\n        /* \"#utility.yul\":3902:3931   */\n      tag_296\n        /* \"#utility.yul\":3921:3930   */\n      dup4\n        /* \"#utility.yul\":3902:3931   */\n      tag_249\n      jump\t// in\n    tag_296:\n        /* \"#utility.yul\":3892:3931   */\n      swap2\n      pop\n        /* \"#utility.yul\":3950:3952   */\n      0x20\n        /* \"#utility.yul\":4003:4005   */\n      dup1\n        /* \"#utility.yul\":3992:4001   */\n      dup5\n        /* \"#utility.yul\":3988:4006   */\n      add\n        /* \"#utility.yul\":3975:4007   */\n      calldataload\n        /* \"#utility.yul\":4026:4044   */\n      0xffffffffffffffff\n        /* \"#utility.yul\":4067:4069   */\n      dup1\n        /* \"#utility.yul\":4059:4065   */\n      dup3\n        /* \"#utility.yul\":4056:4070   */\n      gt\n        /* \"#utility.yul\":4053:4087   */\n      iszero\n      tag_297\n      jumpi\n        /* \"#utility.yul\":4083:4084   */\n      0x00\n        /* \"#utility.yul\":4080:4081   */\n      dup1\n        /* \"#utility.yul\":4073:4085   */\n      revert\n        /* \"#utility.yul\":4053:4087   */\n    tag_297:\n        /* \"#utility.yul\":4121:4127   */\n      dup2\n        /* \"#utility.yul\":4110:4119   */\n      dup7\n        /* \"#utility.yul\":4106:4128   */\n      add\n        /* \"#utility.yul\":4096:4128   */\n      swap2\n      pop\n        /* \"#utility.yul\":4166:4173   */\n      dup7\n        /* \"#utility.yul\":4159:4163   */\n      0x1f\n        /* \"#utility.yul\":4155:4157   */\n      dup4\n        /* \"#utility.yul\":4151:4164   */\n      add\n        /* \"#utility.yul\":4147:4174   */\n      slt\n        /* \"#utility.yul\":4137:4192   */\n      tag_298\n      jumpi\n        /* \"#utility.yul\":4188:4189   */\n      0x00\n        /* \"#utility.yul\":4185:4186   */\n      dup1\n        /* \"#utility.yul\":4178:4190   */\n      revert\n        /* \"#utility.yul\":4137:4192   */\n    tag_298:\n        /* \"#utility.yul\":4224:4226   */\n      dup2\n        /* \"#utility.yul\":4211:4227   */\n      calldataload\n        /* \"#utility.yul\":4246:4248   */\n      dup2\n        /* \"#utility.yul\":4242:4244   */\n      dup2\n        /* \"#utility.yul\":4239:4249   */\n      gt\n        /* \"#utility.yul\":4236:4272   */\n      iszero\n      tag_300\n      jumpi\n        /* \"#utility.yul\":4252:4270   */\n      tag_300\n      tag_250\n      jump\t// in\n    tag_300:\n        /* \"#utility.yul\":4298:4300   */\n      dup1\n        /* \"#utility.yul\":4295:4296   */\n      0x05\n        /* \"#utility.yul\":4291:4301   */\n      shl\n        /* \"#utility.yul\":4321:4349   */\n      tag_301\n        /* \"#utility.yul\":4345:4347   */\n      dup6\n        /* \"#utility.yul\":4341:4343   */\n      dup3\n        /* \"#utility.yul\":4337:4348   */\n      add\n        /* \"#utility.yul\":4321:4349   */\n      tag_251\n      jump\t// in\n    tag_301:\n        /* \"#utility.yul\":4383:4398   */\n      swap2\n      dup3\n      mstore\n        /* \"#utility.yul\":4453:4464   */\n      dup4\n      dup2\n      add\n        /* \"#utility.yul\":4449:4469   */\n      dup6\n      add\n      swap2\n        /* \"#utility.yul\":4414:4426   */\n      dup6\n      dup2\n      add\n      swap1\n        /* \"#utility.yul\":4481:4500   */\n      dup11\n      dup5\n      gt\n        /* \"#utility.yul\":4478:4517   */\n      iszero\n      tag_302\n      jumpi\n        /* \"#utility.yul\":4513:4514   */\n      0x00\n        /* \"#utility.yul\":4510:4511   */\n      dup1\n        /* \"#utility.yul\":4503:4515   */\n      revert\n        /* \"#utility.yul\":4478:4517   */\n    tag_302:\n        /* \"#utility.yul\":4545:4547   */\n      dup7\n        /* \"#utility.yul\":4541:4543   */\n      dup7\n        /* \"#utility.yul\":4537:4548   */\n      add\n        /* \"#utility.yul\":4526:4548   */\n      swap3\n      pop\n        /* \"#utility.yul\":4557:4910   */\n    tag_303:\n        /* \"#utility.yul\":4573:4579   */\n      dup4\n        /* \"#utility.yul\":4568:4571   */\n      dup4\n        /* \"#utility.yul\":4565:4580   */\n      lt\n        /* \"#utility.yul\":4557:4910   */\n      iszero\n      tag_305\n      jumpi\n        /* \"#utility.yul\":4659:4662   */\n      dup3\n        /* \"#utility.yul\":4646:4663   */\n      calldataload\n        /* \"#utility.yul\":4695:4697   */\n      dup6\n        /* \"#utility.yul\":4682:4693   */\n      dup2\n        /* \"#utility.yul\":4679:4698   */\n      gt\n        /* \"#utility.yul\":4676:4785   */\n      iszero\n      tag_306\n      jumpi\n        /* \"#utility.yul\":4739:4740   */\n      0x00\n        /* \"#utility.yul\":4768:4770   */\n      dup1\n        /* \"#utility.yul\":4764:4766   */\n      dup2\n        /* \"#utility.yul\":4757:4771   */\n      revert\n        /* \"#utility.yul\":4676:4785   */\n    tag_306:\n        /* \"#utility.yul\":4810:4867   */\n      tag_307\n        /* \"#utility.yul\":4859:4866   */\n      dup13\n        /* \"#utility.yul\":4854:4856   */\n      dup10\n        /* \"#utility.yul\":4840:4851   */\n      dup4\n        /* \"#utility.yul\":4836:4838   */\n      dup11\n        /* \"#utility.yul\":4832:4852   */\n      add\n        /* \"#utility.yul\":4828:4857   */\n      add\n        /* \"#utility.yul\":4810:4867   */\n      tag_252\n      jump\t// in\n    tag_307:\n        /* \"#utility.yul\":4798:4868   */\n      dup4\n      mstore\n      pop\n        /* \"#utility.yul\":4590:4602   */\n      swap2\n      dup7\n      add\n      swap2\n        /* \"#utility.yul\":4888:4900   */\n      swap1\n      dup7\n      add\n      swap1\n        /* \"#utility.yul\":4557:4910   */\n      jump(tag_303)\n    tag_305:\n        /* \"#utility.yul\":4929:4934   */\n      dup1\n        /* \"#utility.yul\":4919:4934   */\n      swap8\n      pop\n      pop\n      pop\n      pop\n      pop\n      pop\n      pop\n      pop\n        /* \"#utility.yul\":3699:4940   */\n      swap3\n      pop\n      swap3\n      swap1\n      pop\n      jump\t// out\n        /* \"#utility.yul\":4945:5072   */\n    tag_255:\n        /* \"#utility.yul\":5006:5016   */\n      0x4e487b71\n        /* \"#utility.yul\":5001:5004   */\n      0xe0\n        /* \"#utility.yul\":4997:5017   */\n      shl\n        /* \"#utility.yul\":4994:4995   */\n      0x00\n        /* \"#utility.yul\":4987:5018   */\n      mstore\n        /* \"#utility.yul\":5037:5041   */\n      0x11\n        /* \"#utility.yul\":5034:5035   */\n      0x04\n        /* \"#utility.yul\":5027:5042   */\n      mstore\n        /* \"#utility.yul\":5061:5065   */\n      0x24\n        /* \"#utility.yul\":5058:5059   */\n      0x00\n        /* \"#utility.yul\":5051:5066   */\n      revert\n        /* \"#utility.yul\":5077:5205   */\n    tag_75:\n        /* \"#utility.yul\":5144:5153   */\n      dup2\n      dup2\n      sub\n        /* \"#utility.yul\":5165:5176   */\n      dup2\n      dup2\n      gt\n        /* \"#utility.yul\":5162:5199   */\n      iszero\n      tag_311\n      jumpi\n        /* \"#utility.yul\":5179:5197   */\n      tag_311\n      tag_255\n      jump\t// in\n    tag_311:\n        /* \"#utility.yul\":5077:5205   */\n      swap3\n      swap2\n      pop\n      pop\n      jump\t// out\n        /* \"#utility.yul\":6303:6592   */\n    tag_95:\n        /* \"#utility.yul\":6434:6437   */\n      0x00\n        /* \"#utility.yul\":6472:6478   */\n      dup3\n        /* \"#utility.yul\":6466:6479   */\n      mload\n        /* \"#utility.yul\":6488:6554   */\n      tag_316\n        /* \"#utility.yul\":6547:6553   */\n      dup2\n        /* \"#utility.yul\":6542:6545   */\n      dup5\n        /* \"#utility.yul\":6535:6539   */\n      0x20\n        /* \"#utility.yul\":6527:6533   */\n      dup8\n        /* \"#utility.yul\":6523:6540   */\n      add\n        /* \"#utility.yul\":6488:6554   */\n      tag_253\n      jump\t// in\n    tag_316:\n        /* \"#utility.yul\":6570:6586   */\n      swap2\n      swap1\n      swap2\n      add\n      swap3\n        /* \"#utility.yul\":6303:6592   */\n      swap2\n      pop\n      pop\n      jump\t// out\n        /* \"#utility.yul\":6597:6724   */\n    tag_98:\n        /* \"#utility.yul\":6658:6668   */\n      0x4e487b71\n        /* \"#utility.yul\":6653:6656   */\n      0xe0\n        /* \"#utility.yul\":6649:6669   */\n      shl\n        /* \"#utility.yul\":6646:6647   */\n      0x00\n        /* \"#utility.yul\":6639:6670   */\n      mstore\n        /* \"#utility.yul\":6689:6693   */\n      0x32\n        /* \"#utility.yul\":6686:6687   */\n      0x04\n        /* \"#utility.yul\":6679:6694   */\n      mstore\n        /* \"#utility.yul\":6713:6717   */\n      0x24\n        /* \"#utility.yul\":6710:6711   */\n      0x00\n        /* \"#utility.yul\":6703:6718   */\n      revert\n        /* \"#utility.yul\":6729:7109   */\n    tag_135:\n        /* \"#utility.yul\":6808:6809   */\n      0x01\n        /* \"#utility.yul\":6804:6816   */\n      dup2\n      dup2\n      shr\n      swap1\n        /* \"#utility.yul\":6851:6863   */\n      dup3\n      and\n      dup1\n        /* \"#utility.yul\":6872:6933   */\n      tag_319\n      jumpi\n        /* \"#utility.yul\":6926:6930   */\n      0x7f\n        /* \"#utility.yul\":6918:6924   */\n      dup3\n        /* \"#utility.yul\":6914:6931   */\n      and\n        /* \"#utility.yul\":6904:6931   */\n      swap2\n      pop\n        /* \"#utility.yul\":6872:6933   */\n    tag_319:\n        /* \"#utility.yul\":6979:6981   */\n      0x20\n        /* \"#utility.yul\":6971:6977   */\n      dup3\n        /* \"#utility.yul\":6968:6982   */\n      lt\n        /* \"#utility.yul\":6948:6966   */\n      dup2\n        /* \"#utility.yul\":6945:6983   */\n      sub\n        /* \"#utility.yul\":6942:7103   */\n      tag_320\n      jumpi\n        /* \"#utility.yul\":7025:7035   */\n      0x4e487b71\n        /* \"#utility.yul\":7020:7023   */\n      0xe0\n        /* \"#utility.yul\":7016:7036   */\n      shl\n        /* \"#utility.yul\":7013:7014   */\n      0x00\n        /* \"#utility.yul\":7006:7037   */\n      mstore\n        /* \"#utility.yul\":7060:7064   */\n      0x22\n        /* \"#utility.yul\":7057:7058   */\n      0x04\n        /* \"#utility.yul\":7050:7065   */\n      mstore\n        /* \"#utility.yul\":7088:7092   */\n      0x24\n        /* \"#utility.yul\":7085:7086   */\n      0x00\n        /* \"#utility.yul\":7078:7093   */\n      revert\n        /* \"#utility.yul\":6942:7103   */\n    tag_320:\n      pop\n        /* \"#utility.yul\":6729:7109   */\n      swap2\n      swap1\n      pop\n      jump\t// out\n        /* \"#utility.yul\":7240:8082   */\n    tag_101:\n        /* \"#utility.yul\":7368:7371   */\n      0x00\n        /* \"#utility.yul\":7397:7398   */\n      dup1\n        /* \"#utility.yul\":7430:7436   */\n      dup4\n        /* \"#utility.yul\":7424:7437   */\n      sload\n        /* \"#utility.yul\":7460:7496   */\n      tag_323\n        /* \"#utility.yul\":7486:7495   */\n      dup2\n        /* \"#utility.yul\":7460:7496   */\n      tag_135\n      jump\t// in\n    tag_323:\n        /* \"#utility.yul\":7515:7516   */\n      0x01\n        /* \"#utility.yul\":7532:7550   */\n      dup3\n      dup2\n      and\n        /* \"#utility.yul\":7559:7692   */\n      dup1\n      iszero\n      tag_325\n      jumpi\n        /* \"#utility.yul\":7706:7707   */\n      0x01\n        /* \"#utility.yul\":7701:8057   */\n      dup2\n      eq\n      tag_326\n      jumpi\n        /* \"#utility.yul\":7525:8057   */\n      jump(tag_324)\n        /* \"#utility.yul\":7559:7692   */\n    tag_325:\n      not(0xff)\n        /* \"#utility.yul\":7592:7616   */\n      dup5\n      and\n        /* \"#utility.yul\":7580:7617   */\n      dup8\n      mstore\n        /* \"#utility.yul\":7665:7679   */\n      dup3\n      iszero\n        /* \"#utility.yul\":7658:7680   */\n      iszero\n        /* \"#utility.yul\":7646:7681   */\n      dup4\n      mul\n        /* \"#utility.yul\":7637:7682   */\n      dup8\n      add\n      swap5\n      pop\n        /* \"#utility.yul\":7559:7692   */\n      jump(tag_324)\n        /* \"#utility.yul\":7701:8057   */\n    tag_326:\n        /* \"#utility.yul\":7732:7738   */\n      dup8\n        /* \"#utility.yul\":7729:7730   */\n      0x00\n        /* \"#utility.yul\":7722:7739   */\n      mstore\n        /* \"#utility.yul\":7762:7766   */\n      0x20\n        /* \"#utility.yul\":7807:7809   */\n      dup1\n        /* \"#utility.yul\":7804:7805   */\n      0x00\n        /* \"#utility.yul\":7794:7810   */\n      keccak256\n        /* \"#utility.yul\":7832:7833   */\n      0x00\n        /* \"#utility.yul\":7846:8011   */\n    tag_327:\n        /* \"#utility.yul\":7860:7866   */\n      dup6\n        /* \"#utility.yul\":7857:7858   */\n      dup2\n        /* \"#utility.yul\":7854:7867   */\n      lt\n        /* \"#utility.yul\":7846:8011   */\n      iszero\n      tag_329\n      jumpi\n        /* \"#utility.yul\":7938:7952   */\n      dup2\n      sload\n        /* \"#utility.yul\":7925:7936   */\n      dup11\n      dup3\n      add\n        /* \"#utility.yul\":7918:7953   */\n      mstore\n        /* \"#utility.yul\":7981:7997   */\n      swap1\n      dup5\n      add\n      swap1\n        /* \"#utility.yul\":7875:7885   */\n      dup3\n      add\n        /* \"#utility.yul\":7846:8011   */\n      jump(tag_327)\n    tag_329:\n        /* \"#utility.yul\":7850:7853   */\n      pop\n      pop\n      pop\n        /* \"#utility.yul\":8040:8046   */\n      dup3\n        /* \"#utility.yul\":8035:8038   */\n      dup8\n        /* \"#utility.yul\":8031:8047   */\n      add\n        /* \"#utility.yul\":8024:8047   */\n      swap5\n      pop\n        /* \"#utility.yul\":7525:8057   */\n    tag_324:\n      pop\n        /* \"#utility.yul\":8073:8076   */\n      swap3\n      swap7\n        /* \"#utility.yul\":7240:8082   */\n      swap6\n      pop\n      pop\n      pop\n      pop\n      pop\n      pop\n      jump\t// out\n        /* \"#utility.yul\":8496:8631   */\n    tag_106:\n        /* \"#utility.yul\":8535:8538   */\n      0x00\n        /* \"#utility.yul\":8556:8573   */\n      0x01\n      dup3\n      add\n        /* \"#utility.yul\":8553:8596   */\n      tag_333\n      jumpi\n        /* \"#utility.yul\":8576:8594   */\n      tag_333\n      tag_255\n      jump\t// in\n    tag_333:\n      pop\n        /* \"#utility.yul\":8623:8624   */\n      0x01\n        /* \"#utility.yul\":8612:8625   */\n      add\n      swap1\n        /* \"#utility.yul\":8496:8631   */\n      jump\t// out\n        /* \"#utility.yul\":8636:9181   */\n    tag_257:\n        /* \"#utility.yul\":8738:8740   */\n      0x1f\n        /* \"#utility.yul\":8733:8736   */\n      dup3\n        /* \"#utility.yul\":8730:8741   */\n      gt\n        /* \"#utility.yul\":8727:9175   */\n      iszero\n      tag_335\n      jumpi\n        /* \"#utility.yul\":8774:8775   */\n      0x00\n        /* \"#utility.yul\":8799:8804   */\n      dup2\n        /* \"#utility.yul\":8795:8797   */\n      dup2\n        /* \"#utility.yul\":8788:8805   */\n      mstore\n        /* \"#utility.yul\":8844:8848   */\n      0x20\n        /* \"#utility.yul\":8840:8842   */\n      dup2\n        /* \"#utility.yul\":8830:8849   */\n      keccak256\n        /* \"#utility.yul\":8914:8916   */\n      0x1f\n        /* \"#utility.yul\":8902:8912   */\n      dup6\n        /* \"#utility.yul\":8898:8917   */\n      add\n        /* \"#utility.yul\":8895:8896   */\n      0x05\n        /* \"#utility.yul\":8891:8918   */\n      shr\n        /* \"#utility.yul\":8885:8889   */\n      dup2\n        /* \"#utility.yul\":8881:8919   */\n      add\n        /* \"#utility.yul\":8950:8954   */\n      0x20\n        /* \"#utility.yul\":8938:8948   */\n      dup7\n        /* \"#utility.yul\":8935:8955   */\n      lt\n        /* \"#utility.yul\":8932:8979   */\n      iszero\n      tag_336\n      jumpi\n      pop\n        /* \"#utility.yul\":8973:8977   */\n      dup1\n        /* \"#utility.yul\":8932:8979   */\n    tag_336:\n        /* \"#utility.yul\":9028:9030   */\n      0x1f\n        /* \"#utility.yul\":9023:9026   */\n      dup6\n        /* \"#utility.yul\":9019:9031   */\n      add\n        /* \"#utility.yul\":9016:9017   */\n      0x05\n        /* \"#utility.yul\":9012:9032   */\n      shr\n        /* \"#utility.yul\":9006:9010   */\n      dup3\n        /* \"#utility.yul\":9002:9033   */\n      add\n        /* \"#utility.yul\":8992:9033   */\n      swap2\n      pop\n        /* \"#utility.yul\":9083:9165   */\n    tag_337:\n        /* \"#utility.yul\":9101:9103   */\n      dup2\n        /* \"#utility.yul\":9094:9099   */\n      dup2\n        /* \"#utility.yul\":9091:9104   */\n      lt\n        /* \"#utility.yul\":9083:9165   */\n      iszero\n      tag_339\n      jumpi\n        /* \"#utility.yul\":9146:9163   */\n      dup3\n      dup2\n      sstore\n        /* \"#utility.yul\":9127:9128   */\n      0x01\n        /* \"#utility.yul\":9116:9129   */\n      add\n        /* \"#utility.yul\":9083:9165   */\n      jump(tag_337)\n    tag_339:\n        /* \"#utility.yul\":9087:9090   */\n      pop\n      pop\n      pop\n        /* \"#utility.yul\":8727:9175   */\n    tag_335:\n        /* \"#utility.yul\":8636:9181   */\n      pop\n      pop\n      pop\n      jump\t// out\n        /* \"#utility.yul\":9357:10709   */\n    tag_109:\n        /* \"#utility.yul\":9483:9486   */\n      dup2\n        /* \"#utility.yul\":9477:9487   */\n      mload\n        /* \"#utility.yul\":9510:9528   */\n      0xffffffffffffffff\n        /* \"#utility.yul\":9502:9508   */\n      dup2\n        /* \"#utility.yul\":9499:9529   */\n      gt\n        /* \"#utility.yul\":9496:9552   */\n      iszero\n      tag_343\n      jumpi\n        /* \"#utility.yul\":9532:9550   */\n      tag_343\n      tag_250\n      jump\t// in\n    tag_343:\n        /* \"#utility.yul\":9561:9658   */\n      tag_344\n        /* \"#utility.yul\":9651:9657   */\n      dup2\n        /* \"#utility.yul\":9611:9649   */\n      tag_345\n        /* \"#utility.yul\":9643:9647   */\n      dup5\n        /* \"#utility.yul\":9637:9648   */\n      sload\n        /* \"#utility.yul\":9611:9649   */\n      tag_135\n      jump\t// in\n    tag_345:\n        /* \"#utility.yul\":9605:9609   */\n      dup5\n        /* \"#utility.yul\":9561:9658   */\n      tag_257\n      jump\t// in\n    tag_344:\n        /* \"#utility.yul\":9713:9717   */\n      0x20\n      dup1\n        /* \"#utility.yul\":9777:9779   */\n      0x1f\n        /* \"#utility.yul\":9766:9780   */\n      dup4\n      gt\n        /* \"#utility.yul\":9794:9795   */\n      0x01\n        /* \"#utility.yul\":9789:10452   */\n      dup2\n      eq\n      tag_347\n      jumpi\n        /* \"#utility.yul\":10496:10497   */\n      0x00\n        /* \"#utility.yul\":10513:10519   */\n      dup5\n        /* \"#utility.yul\":10510:10599   */\n      iszero\n      tag_348\n      jumpi\n      pop\n        /* \"#utility.yul\":10565:10584   */\n      dup6\n      dup4\n      add\n        /* \"#utility.yul\":10559:10585   */\n      mload\n        /* \"#utility.yul\":10510:10599   */\n    tag_348:\n      not(0x00)\n        /* \"#utility.yul\":9314:9315   */\n      0x03\n        /* \"#utility.yul\":9310:9321   */\n      dup7\n      swap1\n      shl\n        /* \"#utility.yul\":9306:9330   */\n      shr\n        /* \"#utility.yul\":9302:9331   */\n      not\n        /* \"#utility.yul\":9292:9332   */\n      and\n        /* \"#utility.yul\":9338:9339   */\n      0x01\n        /* \"#utility.yul\":9334:9345   */\n      dup6\n      swap1\n      shl\n        /* \"#utility.yul\":9289:9346   */\n      or\n        /* \"#utility.yul\":10612:10693   */\n      dup6\n      sstore\n        /* \"#utility.yul\":9759:10703   */\n      jump(tag_339)\n        /* \"#utility.yul\":9789:10452   */\n    tag_347:\n        /* \"#utility.yul\":7187:7188   */\n      0x00\n        /* \"#utility.yul\":7180:7194   */\n      dup6\n      dup2\n      mstore\n        /* \"#utility.yul\":7224:7228   */\n      0x20\n        /* \"#utility.yul\":7211:7229   */\n      dup2\n      keccak256\n      not(0x1f)\n        /* \"#utility.yul\":9825:9845   */\n      dup7\n      and\n      swap2\n        /* \"#utility.yul\":9943:10179   */\n    tag_351:\n        /* \"#utility.yul\":9957:9964   */\n      dup3\n        /* \"#utility.yul\":9954:9955   */\n      dup2\n        /* \"#utility.yul\":9951:9965   */\n      lt\n        /* \"#utility.yul\":9943:10179   */\n      iszero\n      tag_353\n      jumpi\n        /* \"#utility.yul\":10046:10065   */\n      dup9\n      dup7\n      add\n        /* \"#utility.yul\":10040:10066   */\n      mload\n        /* \"#utility.yul\":10025:10067   */\n      dup3\n      sstore\n        /* \"#utility.yul\":10138:10165   */\n      swap5\n      dup5\n      add\n      swap5\n        /* \"#utility.yul\":10106:10107   */\n      0x01\n        /* \"#utility.yul\":10094:10108   */\n      swap1\n      swap2\n      add\n      swap1\n        /* \"#utility.yul\":9973:9992   */\n      dup5\n      add\n        /* \"#utility.yul\":9943:10179   */\n      jump(tag_351)\n    tag_353:\n        /* \"#utility.yul\":9947:9950   */\n      pop\n        /* \"#utility.yul\":10207:10213   */\n      dup6\n        /* \"#utility.yul\":10198:10205   */\n      dup3\n        /* \"#utility.yul\":10195:10214   */\n      lt\n        /* \"#utility.yul\":10192:10393   */\n      iszero\n      tag_354\n      jumpi\n        /* \"#utility.yul\":10268:10287   */\n      dup8\n      dup6\n      add\n        /* \"#utility.yul\":10262:10288   */\n      mload\n      not(0x00)\n        /* \"#utility.yul\":10351:10352   */\n      0x03\n        /* \"#utility.yul\":10347:10361   */\n      dup9\n      swap1\n      shl\n        /* \"#utility.yul\":10363:10366   */\n      0xf8\n        /* \"#utility.yul\":10343:10367   */\n      and\n        /* \"#utility.yul\":10339:10376   */\n      shr\n        /* \"#utility.yul\":10335:10377   */\n      not\n        /* \"#utility.yul\":10320:10378   */\n      and\n        /* \"#utility.yul\":10305:10379   */\n      dup2\n      sstore\n        /* \"#utility.yul\":10192:10393   */\n    tag_354:\n      pop\n      pop\n      pop\n      pop\n      pop\n        /* \"#utility.yul\":10439:10440   */\n      0x01\n        /* \"#utility.yul\":10423:10437   */\n      swap1\n      dup2\n      shl\n        /* \"#utility.yul\":10419:10441   */\n      add\n        /* \"#utility.yul\":10406:10442   */\n      swap1\n      sstore\n      pop\n        /* \"#utility.yul\":9357:10709   */\n      jump\t// out\n        /* \"#utility.yul\":10714:10934   */\n    tag_111:\n        /* \"#utility.yul\":10863:10865   */\n      0x20\n        /* \"#utility.yul\":10852:10861   */\n      dup2\n        /* \"#utility.yul\":10845:10866   */\n      mstore\n        /* \"#utility.yul\":10826:10830   */\n      0x00\n        /* \"#utility.yul\":10883:10928   */\n      tag_281\n        /* \"#utility.yul\":10924:10926   */\n      0x20\n        /* \"#utility.yul\":10913:10922   */\n      dup4\n        /* \"#utility.yul\":10909:10927   */\n      add\n        /* \"#utility.yul\":10901:10907   */\n      dup5\n        /* \"#utility.yul\":10883:10928   */\n      tag_254\n      jump\t// in\n        /* \"#utility.yul\":11285:11410   */\n    tag_162:\n        /* \"#utility.yul\":11350:11359   */\n      dup1\n      dup3\n      add\n        /* \"#utility.yul\":11371:11381   */\n      dup1\n      dup3\n      gt\n        /* \"#utility.yul\":11368:11404   */\n      iszero\n      tag_311\n      jumpi\n        /* \"#utility.yul\":11384:11402   */\n      tag_311\n      tag_255\n      jump\t// in\n        /* \"#utility.yul\":11415:12850   */\n    tag_170:\n        /* \"#utility.yul\":11534:11537   */\n      dup2\n        /* \"#utility.yul\":11528:11532   */\n      dup2\n        /* \"#utility.yul\":11525:11538   */\n      sub\n        /* \"#utility.yul\":11522:11548   */\n      tag_362\n      jumpi\n        /* \"#utility.yul\":11541:11546   */\n      pop\n      pop\n        /* \"#utility.yul\":11415:12850   */\n      jump\t// out\n        /* \"#utility.yul\":11522:11548   */\n    tag_362:\n        /* \"#utility.yul\":11571:11608   */\n      tag_363\n        /* \"#utility.yul\":11603:11606   */\n      dup3\n        /* \"#utility.yul\":11597:11607   */\n      sload\n        /* \"#utility.yul\":11571:11608   */\n      tag_135\n      jump\t// in\n    tag_363:\n        /* \"#utility.yul\":11631:11649   */\n      0xffffffffffffffff\n        /* \"#utility.yul\":11623:11629   */\n      dup2\n        /* \"#utility.yul\":11620:11650   */\n      gt\n        /* \"#utility.yul\":11617:11673   */\n      iszero\n      tag_365\n      jumpi\n        /* \"#utility.yul\":11653:11671   */\n      tag_365\n      tag_250\n      jump\t// in\n    tag_365:\n        /* \"#utility.yul\":11682:11779   */\n      tag_366\n        /* \"#utility.yul\":11772:11778   */\n      dup2\n        /* \"#utility.yul\":11732:11770   */\n      tag_345\n        /* \"#utility.yul\":11764:11768   */\n      dup5\n        /* \"#utility.yul\":11758:11769   */\n      sload\n        /* \"#utility.yul\":11732:11770   */\n      tag_135\n      jump\t// in\n        /* \"#utility.yul\":11682:11779   */\n    tag_366:\n        /* \"#utility.yul\":11805:11806   */\n      0x00\n        /* \"#utility.yul\":11833:11835   */\n      0x1f\n        /* \"#utility.yul\":11825:11831   */\n      dup3\n        /* \"#utility.yul\":11822:11836   */\n      gt\n        /* \"#utility.yul\":11850:11851   */\n      0x01\n        /* \"#utility.yul\":11845:12593   */\n      dup2\n      eq\n      tag_369\n      jumpi\n        /* \"#utility.yul\":12637:12638   */\n      0x00\n        /* \"#utility.yul\":12654:12660   */\n      dup4\n        /* \"#utility.yul\":12651:12740   */\n      iszero\n      tag_370\n      jumpi\n      pop\n        /* \"#utility.yul\":12706:12725   */\n      dup5\n      dup3\n      add\n        /* \"#utility.yul\":12700:12726   */\n      sload\n        /* \"#utility.yul\":12651:12740   */\n    tag_370:\n      not(0x00)\n        /* \"#utility.yul\":9314:9315   */\n      0x03\n        /* \"#utility.yul\":9310:9321   */\n      dup6\n      swap1\n      shl\n        /* \"#utility.yul\":9306:9330   */\n      shr\n        /* \"#utility.yul\":9302:9331   */\n      not\n        /* \"#utility.yul\":9292:9332   */\n      and\n        /* \"#utility.yul\":9338:9339   */\n      0x01\n        /* \"#utility.yul\":9334:9345   */\n      dup5\n      swap1\n      shl\n        /* \"#utility.yul\":9289:9346   */\n      or\n        /* \"#utility.yul\":12753:12834   */\n      dup5\n      sstore\n        /* \"#utility.yul\":11815:12844   */\n      jump(tag_368)\n        /* \"#utility.yul\":11845:12593   */\n    tag_369:\n        /* \"#utility.yul\":7187:7188   */\n      0x00\n        /* \"#utility.yul\":7180:7194   */\n      dup6\n      dup2\n      mstore\n        /* \"#utility.yul\":7224:7228   */\n      0x20\n        /* \"#utility.yul\":7211:7229   */\n      swap1\n      keccak256\n      not(0x1f)\n        /* \"#utility.yul\":11881:11901   */\n      dup5\n      and\n      swap1\n        /* \"#utility.yul\":7187:7188   */\n      0x00\n        /* \"#utility.yul\":7180:7194   */\n      dup7\n      dup2\n      mstore\n        /* \"#utility.yul\":7224:7228   */\n      0x20\n        /* \"#utility.yul\":7211:7229   */\n      swap1\n      keccak256\n        /* \"#utility.yul\":12045:12054   */\n      dup5\n        /* \"#utility.yul\":12067:12318   */\n    tag_374:\n        /* \"#utility.yul\":12081:12088   */\n      dup4\n        /* \"#utility.yul\":12078:12079   */\n      dup2\n        /* \"#utility.yul\":12075:12089   */\n      lt\n        /* \"#utility.yul\":12067:12318   */\n      iszero\n      tag_376\n      jumpi\n        /* \"#utility.yul\":12163:12184   */\n      dup3\n      dup7\n      add\n        /* \"#utility.yul\":12157:12185   */\n      sload\n        /* \"#utility.yul\":12142:12186   */\n      dup3\n      sstore\n        /* \"#utility.yul\":12213:12214   */\n      0x01\n        /* \"#utility.yul\":12286:12304   */\n      swap6\n      dup7\n      add\n      swap6\n        /* \"#utility.yul\":12241:12256   */\n      swap1\n      swap2\n      add\n      swap1\n        /* \"#utility.yul\":12104:12108   */\n      0x20\n        /* \"#utility.yul\":12097:12109   */\n      add\n        /* \"#utility.yul\":12067:12318   */\n      jump(tag_374)\n    tag_376:\n        /* \"#utility.yul\":12071:12074   */\n      pop\n        /* \"#utility.yul\":12346:12352   */\n      dup6\n        /* \"#utility.yul\":12337:12344   */\n      dup4\n        /* \"#utility.yul\":12334:12353   */\n      lt\n        /* \"#utility.yul\":12331:12534   */\n      iszero\n      tag_377\n      jumpi\n        /* \"#utility.yul\":12407:12428   */\n      dup2\n      dup6\n      add\n        /* \"#utility.yul\":12401:12429   */\n      sload\n      not(0x00)\n        /* \"#utility.yul\":12492:12493   */\n      0x03\n        /* \"#utility.yul\":12488:12502   */\n      dup9\n      swap1\n      shl\n        /* \"#utility.yul\":12504:12507   */\n      0xf8\n        /* \"#utility.yul\":12484:12508   */\n      and\n        /* \"#utility.yul\":12480:12517   */\n      shr\n        /* \"#utility.yul\":12476:12518   */\n      not\n        /* \"#utility.yul\":12461:12519   */\n      and\n        /* \"#utility.yul\":12446:12520   */\n      dup2\n      sstore\n        /* \"#utility.yul\":12331:12534   */\n    tag_377:\n      pop\n      pop\n      pop\n        /* \"#utility.yul\":12580:12581   */\n      0x01\n        /* \"#utility.yul\":12571:12577   */\n      dup4\n        /* \"#utility.yul\":12568:12569   */\n      0x01\n        /* \"#utility.yul\":12564:12578   */\n      shl\n        /* \"#utility.yul\":12560:12582   */\n      add\n        /* \"#utility.yul\":12554:12558   */\n      dup5\n        /* \"#utility.yul\":12547:12583   */\n      sstore\n        /* \"#utility.yul\":11815:12844   */\n    tag_368:\n      pop\n      pop\n      pop\n        /* \"#utility.yul\":11415:12850   */\n      pop\n      pop\n      jump\t// out\n        /* \"#utility.yul\":12855:12982   */\n    tag_174:\n        /* \"#utility.yul\":12916:12926   */\n      0x4e487b71\n        /* \"#utility.yul\":12911:12914   */\n      0xe0\n        /* \"#utility.yul\":12907:12927   */\n      shl\n        /* \"#utility.yul\":12904:12905   */\n      0x00\n        /* \"#utility.yul\":12897:12928   */\n      mstore\n        /* \"#utility.yul\":12947:12951   */\n      0x31\n        /* \"#utility.yul\":12944:12945   */\n      0x04\n        /* \"#utility.yul\":12937:12952   */\n      mstore\n        /* \"#utility.yul\":12971:12975   */\n      0x24\n        /* \"#utility.yul\":12968:12969   */\n      0x00\n        /* \"#utility.yul\":12961:12976   */\n      revert\n\n    auxdata: 0xa26469706673582212205295bf0e96811ca2118a8517f8cbda496b4e9ceeba63c95fe4b55f08e9147d9864736f6c63430008110033\n}\n",
    "bytecode": {
      "linkReferences": {},
      "object": "608060405234801561001057600080fd5b50600080546001600160a01b0319163317815562093a806002556004805461010161ffff199091161790556003556117328061004d6000396000f3fe608060405234801561001057600080fd5b50600436106100f55760003560e01c80636cd6617e116100975780639d19b226116100665780639d19b226146101e45780639f8f2f7d14610210578063bd15780c14610218578063cd9c93621461022b57600080fd5b80636cd6617e1461019157806387c637141461019e5780638a81694c146101b157806398e68f59146101dc57600080fd5b80635211287e116100d35780635211287e1461014057806359633a1c146101555780636367da9c146101685780636a96ac2e1461018857600080fd5b806317eba161146100fa5780634136aa35146101165780634f68343a14610138575b600080fd5b61010360025481565b6040519081526020015b60405180910390f35b60045461012890610100900460ff1681565b604051901515815260200161010d565b610103610233565b61015361014e3660046111b4565b6102b7565b005b610153610163366004611202565b610513565b61017b610176366004611202565b610644565b60405161010d9190611274565b61010360035481565b6004546101289060ff1681565b6101536101ac3660046111b4565b610809565b6000546101c4906001600160a01b031681565b6040516001600160a01b03909116815260200161010d565b610128610aba565b6101286101f2366004611202565b6001600160a01b031660009081526001602052604090205460ff1690565b610153610af7565b6101536102263660046112d6565b610bd6565b610153610d42565b6000806003544261024491906113c2565b6002546003546040805192835260208301849052429083015260608201529091507f06a38dc89ea5bc5d656aa6177f609f90b9bac89f75d639808331134e0e60c6ba9060800160405180910390a160025481116102ae57806002546102a991906113c2565b6102b1565b60005b91505090565b6000546001600160a01b0316331480156102de575060045460ff6101009091041615156001145b6103245760405162461bcd60e51b81526020600482015260126024820152712737ba103a3432903132b732b330b1ba37b960711b60448201526064015b60405180910390fd5b6001600160a01b03821660009081526001602052604090205460ff166103845760405162461bcd60e51b815260206004820152601560248201527410995b99599a58da585c9e481b9bdd08199bdd5b99605a1b604482015260640161031b565b6001600160a01b0382166000908152600160208190526040822001905b815481101561049857826040516020016103bb91906113db565b604051602081830303815290604052805190602001208282815481106103e3576103e36113f7565b906000526020600020016040516020016103fd9190611447565b60405160208183030381529060405280519060200120036104865760405162461bcd60e51b815260206004820152602860248201527f43494420616c72656164792061737369676e656420746f20746869732062656e60448201527f6566696369617279000000000000000000000000000000000000000000000000606482015260840161031b565b80610490816114bd565b9150506103a1565b506001600160a01b038316600090815260016020818152604083208201805492830181558352909120016104cc8382611525565b50826001600160a01b03167f7e07e89db4996a8029125774fd7a7a8953430def1234c7526ad6da179b68e3618360405161050691906115e5565b60405180910390a2505050565b6000546001600160a01b03163314801561053a575060045460ff6101009091041615156001145b61057b5760405162461bcd60e51b81526020600482015260126024820152712737ba103a3432903132b732b330b1ba37b960711b604482015260640161031b565b6001600160a01b03811660009081526001602052604090205460ff166105db5760405162461bcd60e51b815260206004820152601560248201527410995b99599a58da585c9e481b9bdd08199bdd5b99605a1b604482015260640161031b565b6001600160a01b03811660009081526001602081905260408220805460ff19168155919061060b90830182611003565b50506040516001600160a01b038216907f72977dad29432f655f11c2f0e72ef5124bb9ade7a512fb7a43a9f504df22342890600090a250565b3360009081526001602052604090205460609060ff16801561066e5750600454610100900460ff16155b6106ba5760405162461bcd60e51b815260206004820152601160248201527f4e6f2061636365737320746f2043494473000000000000000000000000000000604482015260640161031b565b6001600160a01b03821660009081526001602052604090205460ff1661071a5760405162461bcd60e51b815260206004820152601560248201527410995b99599a58da585c9e481b9bdd08199bdd5b99605a1b604482015260640161031b565b6001600160a01b03821660009081526001602081815260408084209092018054835181840281018401909452808452929390929184015b828210156107fd5783829060005260206000200180546107709061140d565b80601f016020809104026020016040519081016040528092919081815260200182805461079c9061140d565b80156107e95780601f106107be576101008083540402835291602001916107e9565b820191906000526020600020905b8154815290600101906020018083116107cc57829003601f168201915b505050505081526020019060010190610751565b5050505090505b919050565b6000546001600160a01b031633148015610830575060045460ff6101009091041615156001145b6108715760405162461bcd60e51b81526020600482015260126024820152712737ba103a3432903132b732b330b1ba37b960711b604482015260640161031b565b6001600160a01b03821660009081526001602052604090205460ff166108d15760405162461bcd60e51b815260206004820152601560248201527410995b99599a58da585c9e481b9bdd08199bdd5b99605a1b604482015260640161031b565b6001600160a01b0382166000908152600160208190526040822001905b8154811015610a65578260405160200161090891906113db565b60405160208183030381529060405280519060200120828281548110610930576109306113f7565b9060005260206000200160405160200161094a9190611447565b6040516020818303038152906040528051906020012003610a5357805b8254610975906001906113c2565b8110156109dd57826109888260016115f8565b81548110610998576109986113f7565b906000526020600020018382815481106109b4576109b46113f7565b9060005260206000200190816109ca919061160b565b50806109d5816114bd565b915050610967565b50818054806109ee576109ee6116e6565b600190038181906000526020600020016000610a0a9190611024565b9055836001600160a01b03167fe96b2171dfaf9e7ff6b073f3075511e0e31731041a9ab5b45ffc630f4fb6145984604051610a4591906115e5565b60405180910390a250505050565b80610a5d816114bd565b9150506108ee565b5060405162461bcd60e51b8152602060048201526024808201527f434944206e6f742061737369676e656420746f20746869732062656e656669636044820152636961727960e01b606482015260840161031b565b6000600354600014610ae8576000610ad0610233565b905080600003610ae6576004805461ff00191690555b505b50600454610100900460ff1690565b3360009081526001602052604090205460ff16610b565760405162461bcd60e51b815260206004820152601160248201527f4e6f7420612062656e6566696369617279000000000000000000000000000000604482015260640161031b565b60045460ff16610b8d5760405133907fead4f7f220244e6b588c135f1b3288c4f816e0f5f626cbcc61890a729949a4ff90600090a2565b6004805460ff191690554260035560025460405190815233907fcc272f3c4321d64a0bccc7cb23d6dc8d452b85dd320aa24eacc2464eebb68514906020015b60405180910390a2565b6000546001600160a01b031633148015610bfd575060045460ff6101009091041615156001145b610c3e5760405162461bcd60e51b81526020600482015260126024820152712737ba103a3432903132b732b330b1ba37b960711b604482015260640161031b565b6001600160a01b03821660009081526001602052604090205460ff1615610ca75760405162461bcd60e51b815260206004820152601a60248201527f42656e656669636961727920616c726561647920657869737473000000000000604482015260640161031b565b604080518082018252600180825260208083018581526001600160a01b0387166000908152838352949094208351815460ff191690151517815593518051939493610cf993850192919091019061105e565b50905050816001600160a01b03167f07d2ae8db973d0257348fb20de20bde4c46ee9138371086cadb0a2497ea366c282604051610d369190611274565b60405180910390a25050565b6000546001600160a01b031633148015610d69575060045460ff6101009091041615156001145b610daa5760405162461bcd60e51b81526020600482015260126024820152712737ba103a3432903132b732b330b1ba37b960711b604482015260640161031b565b60035415610eb357610dba610aba565b15610e44576000546040516001600160a01b03909116907f793324a6f079e577f4a4646c7ec753efd3beddc2f4ce07bfae5f105c449ac35690610e2e9060208082526013908201527f42656e65666163746f7220697320616c69766500000000000000000000000000604082015260600190565b60405180910390a2610e3e610f22565b42600355565b6000546040516001600160a01b03909116907f5a68fa7d6b655a3e592d5d99ac82863424750e9d262c902f30f9e56655e7a85690610bcc9060208082526012908201527f42656e65666163746f7220697320646561640000000000000000000000000000604082015260600190565b6000546040516001600160a01b03909116907f793324a6f079e577f4a4646c7ec753efd3beddc2f4ce07bfae5f105c449ac35690610e2e9060208082526013908201527f42656e65666163746f7220697320616c69766500000000000000000000000000604082015260600190565b6000546001600160a01b031633148015610f49575060045460ff6101009091041615156001145b610f8a5760405162461bcd60e51b81526020600482015260126024820152712737ba103a3432903132b732b330b1ba37b960711b604482015260640161031b565b60045460ff1615610fc25760405133907f2d44f8a9f38299bd7ddd20e336bdc35969c0188bc56e9fb39d6fd770ae4d6e9490600090a2565b6004805460ff1916600117905560405133907f2f4ddd9d3083ada98da611a8706b4a485cbe108962a3d8d2e7b7583fdf6c9a6990610bcc9042815260200190565b508054600082559060005260206000209081019061102191906110b4565b50565b5080546110309061140d565b6000825580601f10611040575050565b601f01602090049060005260206000209081019061102191906110d1565b8280548282559060005260206000209081019282156110a4579160200282015b828111156110a457825182906110949082611525565b509160200191906001019061107e565b506110b09291506110b4565b5090565b808211156110b05760006110c88282611024565b506001016110b4565b5b808211156110b057600081556001016110d2565b80356001600160a01b038116811461080457600080fd5b634e487b7160e01b600052604160045260246000fd5b604051601f8201601f1916810167ffffffffffffffff8111828210171561113c5761113c6110fd565b604052919050565b600082601f83011261115557600080fd5b813567ffffffffffffffff81111561116f5761116f6110fd565b611182601f8201601f1916602001611113565b81815284602083860101111561119757600080fd5b816020850160208301376000918101602001919091529392505050565b600080604083850312156111c757600080fd5b6111d0836110e6565b9150602083013567ffffffffffffffff8111156111ec57600080fd5b6111f885828601611144565b9150509250929050565b60006020828403121561121457600080fd5b61121d826110e6565b9392505050565b60005b8381101561123f578181015183820152602001611227565b50506000910152565b60008151808452611260816020860160208601611224565b601f01601f19169290920160200192915050565b6000602080830181845280855180835260408601915060408160051b870101925083870160005b828110156112c957603f198886030184526112b7858351611248565b9450928501929085019060010161129b565b5092979650505050505050565b600080604083850312156112e957600080fd5b6112f2836110e6565b915060208084013567ffffffffffffffff8082111561131057600080fd5b818601915086601f83011261132457600080fd5b813581811115611336576113366110fd565b8060051b611345858201611113565b918252838101850191858101908a84111561135f57600080fd5b86860192505b8383101561139b5782358581111561137d5760008081fd5b61138b8c89838a0101611144565b8352509186019190860190611365565b809750505050505050509250929050565b634e487b7160e01b600052601160045260246000fd5b818103818111156113d5576113d56113ac565b92915050565b600082516113ed818460208701611224565b9190910192915050565b634e487b7160e01b600052603260045260246000fd5b600181811c9082168061142157607f821691505b60208210810361144157634e487b7160e01b600052602260045260246000fd5b50919050565b60008083546114558161140d565b6001828116801561146d5760018114611482576114b1565b60ff19841687528215158302870194506114b1565b8760005260208060002060005b858110156114a85781548a82015290840190820161148f565b50505082870194505b50929695505050505050565b6000600182016114cf576114cf6113ac565b5060010190565b601f82111561152057600081815260208120601f850160051c810160208610156114fd5750805b601f850160051c820191505b8181101561151c57828155600101611509565b5050505b505050565b815167ffffffffffffffff81111561153f5761153f6110fd565b6115538161154d845461140d565b846114d6565b602080601f83116001811461158857600084156115705750858301515b600019600386901b1c1916600185901b17855561151c565b600085815260208120601f198616915b828110156115b757888601518255948401946001909101908401611598565b50858210156115d55787850151600019600388901b60f8161c191681555b5050505050600190811b01905550565b60208152600061121d6020830184611248565b808201808211156113d5576113d56113ac565b818103611616575050565b611620825461140d565b67ffffffffffffffff811115611638576116386110fd565b6116468161154d845461140d565b6000601f82116001811461167a57600083156116625750848201545b600019600385901b1c1916600184901b1784556116df565b600085815260209020601f19841690600086815260209020845b838110156116b45782860154825560019586019590910190602001611694565b50858310156116d25781850154600019600388901b60f8161c191681555b50505060018360011b0184555b5050505050565b634e487b7160e01b600052603160045260246000fdfea26469706673582212205295bf0e96811ca2118a8517f8cbda496b4e9ceeba63c95fe4b55f08e9147d9864736f6c63430008110033",
      "opcodes": "PUSH1 0x80 PUSH1 0x40 MSTORE CALLVALUE DUP1 ISZERO PUSH2 0x10 JUMPI PUSH1 0x0 DUP1 REVERT JUMPDEST POP PUSH1 0x0 DUP1 SLOAD PUSH1 0x1 PUSH1 0x1 PUSH1 0xA0 SHL SUB NOT AND CALLER OR DUP2 SSTORE PUSH3 0x93A80 PUSH1 0x2 SSTORE PUSH1 0x4 DUP1 SLOAD PUSH2 0x101 PUSH2 0xFFFF NOT SWAP1 SWAP2 AND OR SWAP1 SSTORE PUSH1 0x3 SSTORE PUSH2 0x1732 DUP1 PUSH2 0x4D PUSH1 0x0 CODECOPY PUSH1 0x0 RETURN INVALID PUSH1 0x80 PUSH1 0x40 MSTORE CALLVALUE DUP1 ISZERO PUSH2 0x10 JUMPI PUSH1 0x0 DUP1 REVERT JUMPDEST POP PUSH1 0x4 CALLDATASIZE LT PUSH2 0xF5 JUMPI PUSH1 0x0 CALLDATALOAD PUSH1 0xE0 SHR DUP1 PUSH4 0x6CD6617E GT PUSH2 0x97 JUMPI DUP1 PUSH4 0x9D19B226 GT PUSH2 0x66 JUMPI DUP1 PUSH4 0x9D19B226 EQ PUSH2 0x1E4 JUMPI DUP1 PUSH4 0x9F8F2F7D EQ PUSH2 0x210 JUMPI DUP1 PUSH4 0xBD15780C EQ PUSH2 0x218 JUMPI DUP1 PUSH4 0xCD9C9362 EQ PUSH2 0x22B JUMPI PUSH1 0x0 DUP1 REVERT JUMPDEST DUP1 PUSH4 0x6CD6617E EQ PUSH2 0x191 JUMPI DUP1 PUSH4 0x87C63714 EQ PUSH2 0x19E JUMPI DUP1 PUSH4 0x8A81694C EQ PUSH2 0x1B1 JUMPI DUP1 PUSH4 0x98E68F59 EQ PUSH2 0x1DC JUMPI PUSH1 0x0 DUP1 REVERT JUMPDEST DUP1 PUSH4 0x5211287E GT PUSH2 0xD3 JUMPI DUP1 PUSH4 0x5211287E EQ PUSH2 0x140 JUMPI DUP1 PUSH4 0x59633A1C EQ PUSH2 0x155 JUMPI DUP1 PUSH4 0x6367DA9C EQ PUSH2 0x168 JUMPI DUP1 PUSH4 0x6A96AC2E EQ PUSH2 0x188 JUMPI PUSH1 0x0 DUP1 REVERT JUMPDEST DUP1 PUSH4 0x17EBA161 EQ PUSH2 0xFA JUMPI DUP1 PUSH4 0x4136AA35 EQ PUSH2 0x116 JUMPI DUP1 PUSH4 0x4F68343A EQ PUSH2 0x138 JUMPI JUMPDEST PUSH1 0x0 DUP1 REVERT JUMPDEST PUSH2 0x103 PUSH1 0x2 SLOAD DUP2 JUMP JUMPDEST PUSH1 0x40 MLOAD SWAP1 DUP2 MSTORE PUSH1 0x20 ADD JUMPDEST PUSH1 0x40 MLOAD DUP1 SWAP2 SUB SWAP1 RETURN JUMPDEST PUSH1 0x4 SLOAD PUSH2 0x128 SWAP1 PUSH2 0x100 SWAP1 DIV PUSH1 0xFF AND DUP2 JUMP JUMPDEST PUSH1 0x40 MLOAD SWAP1 ISZERO ISZERO DUP2 MSTORE PUSH1 0x20 ADD PUSH2 0x10D JUMP JUMPDEST PUSH2 0x103 PUSH2 0x233 JUMP JUMPDEST PUSH2 0x153 PUSH2 0x14E CALLDATASIZE PUSH1 0x4 PUSH2 0x11B4 JUMP JUMPDEST PUSH2 0x2B7 JUMP JUMPDEST STOP JUMPDEST PUSH2 0x153 PUSH2 0x163 CALLDATASIZE PUSH1 0x4 PUSH2 0x1202 JUMP JUMPDEST PUSH2 0x513 JUMP JUMPDEST PUSH2 0x17B PUSH2 0x176 CALLDATASIZE PUSH1 0x4 PUSH2 0x1202 JUMP JUMPDEST PUSH2 0x644 JUMP JUMPDEST PUSH1 0x40 MLOAD PUSH2 0x10D SWAP2 SWAP1 PUSH2 0x1274 JUMP JUMPDEST PUSH2 0x103 PUSH1 0x3 SLOAD DUP2 JUMP JUMPDEST PUSH1 0x4 SLOAD PUSH2 0x128 SWAP1 PUSH1 0xFF AND DUP2 JUMP JUMPDEST PUSH2 0x153 PUSH2 0x1AC CALLDATASIZE PUSH1 0x4 PUSH2 0x11B4 JUMP JUMPDEST PUSH2 0x809 JUMP JUMPDEST PUSH1 0x0 SLOAD PUSH2 0x1C4 SWAP1 PUSH1 0x1 PUSH1 0x1 PUSH1 0xA0 SHL SUB AND DUP2 JUMP JUMPDEST PUSH1 0x40 MLOAD PUSH1 0x1 PUSH1 0x1 PUSH1 0xA0 SHL SUB SWAP1 SWAP2 AND DUP2 MSTORE PUSH1 0x20 ADD PUSH2 0x10D JUMP JUMPDEST PUSH2 0x128 PUSH2 0xABA JUMP JUMPDEST PUSH2 0x128 PUSH2 0x1F2 CALLDATASIZE PUSH1 0x4 PUSH2 0x1202 JUMP JUMPDEST PUSH1 0x1 PUSH1 0x1 PUSH1 0xA0 SHL SUB AND PUSH1 0x0 SWAP1 DUP2 MSTORE PUSH1 0x1 PUSH1 0x20 MSTORE PUSH1 0x40 SWAP1 KECCAK256 SLOAD PUSH1 0xFF AND SWAP1 JUMP JUMPDEST PUSH2 0x153 PUSH2 0xAF7 JUMP JUMPDEST PUSH2 0x153 PUSH2 0x226 CALLDATASIZE PUSH1 0x4 PUSH2 0x12D6 JUMP JUMPDEST PUSH2 0xBD6 JUMP JUMPDEST PUSH2 0x153 PUSH2 0xD42 JUMP JUMPDEST PUSH1 0x0 DUP1 PUSH1 0x3 SLOAD TIMESTAMP PUSH2 0x244 SWAP2 SWAP1 PUSH2 0x13C2 JUMP JUMPDEST PUSH1 0x2 SLOAD PUSH1 0x3 SLOAD PUSH1 0x40 DUP1 MLOAD SWAP3 DUP4 MSTORE PUSH1 0x20 DUP4 ADD DUP5 SWAP1 MSTORE TIMESTAMP SWAP1 DUP4 ADD MSTORE PUSH1 0x60 DUP3 ADD MSTORE SWAP1 SWAP2 POP PUSH32 0x6A38DC89EA5BC5D656AA6177F609F90B9BAC89F75D639808331134E0E60C6BA SWAP1 PUSH1 0x80 ADD PUSH1 0x40 MLOAD DUP1 SWAP2 SUB SWAP1 LOG1 PUSH1 0x2 SLOAD DUP2 GT PUSH2 0x2AE JUMPI DUP1 PUSH1 0x2 SLOAD PUSH2 0x2A9 SWAP2 SWAP1 PUSH2 0x13C2 JUMP JUMPDEST PUSH2 0x2B1 JUMP JUMPDEST PUSH1 0x0 JUMPDEST SWAP2 POP POP SWAP1 JUMP JUMPDEST PUSH1 0x0 SLOAD PUSH1 0x1 PUSH1 0x1 PUSH1 0xA0 SHL SUB AND CALLER EQ DUP1 ISZERO PUSH2 0x2DE JUMPI POP PUSH1 0x4 SLOAD PUSH1 0xFF PUSH2 0x100 SWAP1 SWAP2 DIV AND ISZERO ISZERO PUSH1 0x1 EQ JUMPDEST PUSH2 0x324 JUMPI PUSH1 0x40 MLOAD PUSH3 0x461BCD PUSH1 0xE5 SHL DUP2 MSTORE PUSH1 0x20 PUSH1 0x4 DUP3 ADD MSTORE PUSH1 0x12 PUSH1 0x24 DUP3 ADD MSTORE PUSH18 0x2737BA103A3432903132B732B330B1BA37B9 PUSH1 0x71 SHL PUSH1 0x44 DUP3 ADD MSTORE PUSH1 0x64 ADD JUMPDEST PUSH1 0x40 MLOAD DUP1 SWAP2 SUB SWAP1 REVERT JUMPDEST PUSH1 0x1 PUSH1 0x1 PUSH1 0xA0 SHL SUB DUP3 AND PUSH1 0x0 SWAP1 DUP2 MSTORE PUSH1 0x1 PUSH1 0x20 MSTORE PUSH1 0x40 SWAP1 KECCAK256 SLOAD PUSH1 0xFF AND PUSH2 0x384 JUMPI PUSH1 0x40 MLOAD PUSH3 0x461BCD PUSH1 0xE5 SHL DUP2 MSTORE PUSH1 0x20 PUSH1 0x4 DUP3 ADD MSTORE PUSH1 0x15 PUSH1 0x24 DUP3 ADD MSTORE PUSH21 0x10995B99599A58DA585C9E481B9BDD08199BDD5B99 PUSH1 0x5A SHL PUSH1 0x44 DUP3 ADD MSTORE PUSH1 0x64 ADD PUSH2 0x31B JUMP JUMPDEST PUSH1 0x1 PUSH1 0x1 PUSH1 0xA0 SHL SUB DUP3 AND PUSH1 0x0 SWAP1 DUP2 MSTORE PUSH1 0x1 PUSH1 0x20 DUP2 SWAP1 MSTORE PUSH1 0x40 DUP3 KECCAK256 ADD SWAP1 JUMPDEST DUP2 SLOAD DUP2 LT ISZERO PUSH2 0x498 JUMPI DUP3 PUSH1 0x40 MLOAD PUSH1 0x20 ADD PUSH2 0x3BB SWAP2 SWAP1 PUSH2 0x13DB JUMP JUMPDEST PUSH1 0x40 MLOAD PUSH1 0x20 DUP2 DUP4 SUB SUB DUP2 MSTORE SWAP1 PUSH1 0x40 MSTORE DUP1 MLOAD SWAP1 PUSH1 0x20 ADD KECCAK256 DUP3 DUP3 DUP2 SLOAD DUP2 LT PUSH2 0x3E3 JUMPI PUSH2 0x3E3 PUSH2 0x13F7 JUMP JUMPDEST SWAP1 PUSH1 0x0 MSTORE PUSH1 0x20 PUSH1 0x0 KECCAK256 ADD PUSH1 0x40 MLOAD PUSH1 0x20 ADD PUSH2 0x3FD SWAP2 SWAP1 PUSH2 0x1447 JUMP JUMPDEST PUSH1 0x40 MLOAD PUSH1 0x20 DUP2 DUP4 SUB SUB DUP2 MSTORE SWAP1 PUSH1 0x40 MSTORE DUP1 MLOAD SWAP1 PUSH1 0x20 ADD KECCAK256 SUB PUSH2 0x486 JUMPI PUSH1 0x40 MLOAD PUSH3 0x461BCD PUSH1 0xE5 SHL DUP2 MSTORE PUSH1 0x20 PUSH1 0x4 DUP3 ADD MSTORE PUSH1 0x28 PUSH1 0x24 DUP3 ADD MSTORE PUSH32 0x43494420616C72656164792061737369676E656420746F20746869732062656E PUSH1 0x44 DUP3 ADD MSTORE PUSH32 0x6566696369617279000000000000000000000000000000000000000000000000 PUSH1 0x64 DUP3 ADD MSTORE PUSH1 0x84 ADD PUSH2 0x31B JUMP JUMPDEST DUP1 PUSH2 0x490 DUP2 PUSH2 0x14BD JUMP JUMPDEST SWAP2 POP POP PUSH2 0x3A1 JUMP JUMPDEST POP PUSH1 0x1 PUSH1 0x1 PUSH1 0xA0 SHL SUB DUP4 AND PUSH1 0x0 SWAP1 DUP2 MSTORE PUSH1 0x1 PUSH1 0x20 DUP2 DUP2 MSTORE PUSH1 0x40 DUP4 KECCAK256 DUP3 ADD DUP1 SLOAD SWAP3 DUP4 ADD DUP2 SSTORE DUP4 MSTORE SWAP1 SWAP2 KECCAK256 ADD PUSH2 0x4CC DUP4 DUP3 PUSH2 0x1525 JUMP JUMPDEST POP DUP3 PUSH1 0x1 PUSH1 0x1 PUSH1 0xA0 SHL SUB AND PUSH32 0x7E07E89DB4996A8029125774FD7A7A8953430DEF1234C7526AD6DA179B68E361 DUP4 PUSH1 0x40 MLOAD PUSH2 0x506 SWAP2 SWAP1 PUSH2 0x15E5 JUMP JUMPDEST PUSH1 0x40 MLOAD DUP1 SWAP2 SUB SWAP1 LOG2 POP POP POP JUMP JUMPDEST PUSH1 0x0 SLOAD PUSH1 0x1 PUSH1 0x1 PUSH1 0xA0 SHL SUB AND CALLER EQ DUP1 ISZERO PUSH2 0x53A JUMPI POP PUSH1 0x4 SLOAD PUSH1 0xFF PUSH2 0x100 SWAP1 SWAP2 DIV AND ISZERO ISZERO PUSH1 0x1 EQ JUMPDEST PUSH2 0x57B JUMPI PUSH1 0x40 MLOAD PUSH3 0x461BCD PUSH1 0xE5 SHL DUP2 MSTORE PUSH1 0x20 PUSH1 0x4 DUP3 ADD MSTORE PUSH1 0x12 PUSH1 0x24 DUP3 ADD MSTORE PUSH18 0x2737BA103A3432903132B732B330B1BA37B9 PUSH1 0x71 SHL PUSH1 0x44 DUP3 ADD MSTORE PUSH1 0x64 ADD PUSH2 0x31B JUMP JUMPDEST PUSH1 0x1 PUSH1 0x1 PUSH1 0xA0 SHL SUB DUP2 AND PUSH1 0x0 SWAP1 DUP2 MSTORE PUSH1 0x1 PUSH1 0x20 MSTORE PUSH1 0x40 SWAP1 KECCAK256 SLOAD PUSH1 0xFF AND PUSH2 0x5DB JUMPI PUSH1 0x40 MLOAD PUSH3 0x461BCD PUSH1 0xE5 SHL DUP2 MSTORE PUSH1 0x20 PUSH1 0x4 DUP3 ADD MSTORE PUSH1 0x15 PUSH1 0x24 DUP3 ADD MSTORE PUSH21 0x10995B99599A58DA585C9E481B9BDD08199BDD5B99 PUSH1 0x5A SHL PUSH1 0x44 DUP3 ADD MSTORE PUSH1 0x64 ADD PUSH2 0x31B JUMP JUMPDEST PUSH1 0x1 PUSH1 0x1 PUSH1 0xA0 SHL SUB DUP2 AND PUSH1 0x0 SWAP1 DUP2 MSTORE PUSH1 0x1 PUSH1 0x20 DUP2 SWAP1 MSTORE PUSH1 0x40 DUP3 KECCAK256 DUP1 SLOAD PUSH1 0xFF NOT AND DUP2 SSTORE SWAP2 SWAP1 PUSH2 0x60B SWAP1 DUP4 ADD DUP3 PUSH2 0x1003 JUMP JUMPDEST POP POP PUSH1 0x40 MLOAD PUSH1 0x1 PUSH1 0x1 PUSH1 0xA0 SHL SUB DUP3 AND SWAP1 PUSH32 0x72977DAD29432F655F11C2F0E72EF5124BB9ADE7A512FB7A43A9F504DF223428 SWAP1 PUSH1 0x0 SWAP1 LOG2 POP JUMP JUMPDEST CALLER PUSH1 0x0 SWAP1 DUP2 MSTORE PUSH1 0x1 PUSH1 0x20 MSTORE PUSH1 0x40 SWAP1 KECCAK256 SLOAD PUSH1 0x60 SWAP1 PUSH1 0xFF AND DUP1 ISZERO PUSH2 0x66E JUMPI POP PUSH1 0x4 SLOAD PUSH2 0x100 SWAP1 DIV PUSH1 0xFF AND ISZERO JUMPDEST PUSH2 0x6BA JUMPI PUSH1 0x40 MLOAD PUSH3 0x461BCD PUSH1 0xE5 SHL DUP2 MSTORE PUSH1 0x20 PUSH1 0x4 DUP3 ADD MSTORE PUSH1 0x11 PUSH1 0x24 DUP3 ADD MSTORE PUSH32 0x4E6F2061636365737320746F2043494473000000000000000000000000000000 PUSH1 0x44 DUP3 ADD MSTORE PUSH1 0x64 ADD PUSH2 0x31B JUMP JUMPDEST PUSH1 0x1 PUSH1 0x1 PUSH1 0xA0 SHL SUB DUP3 AND PUSH1 0x0 SWAP1 DUP2 MSTORE PUSH1 0x1 PUSH1 0x20 MSTORE PUSH1 0x40 SWAP1 KECCAK256 SLOAD PUSH1 0xFF AND PUSH2 0x71A JUMPI PUSH1 0x40 MLOAD PUSH3 0x461BCD PUSH1 0xE5 SHL DUP2 MSTORE PUSH1 0x20 PUSH1 0x4 DUP3 ADD MSTORE PUSH1 0x15 PUSH1 0x24 DUP3 ADD MSTORE PUSH21 0x10995B99599A58DA585C9E481B9BDD08199BDD5B99 PUSH1 0x5A SHL PUSH1 0x44 DUP3 ADD MSTORE PUSH1 0x64 ADD PUSH2 0x31B JUMP JUMPDEST PUSH1 0x1 PUSH1 0x1 PUSH1 0xA0 SHL SUB DUP3 AND PUSH1 0x0 SWAP1 DUP2 MSTORE PUSH1 0x1 PUSH1 0x20 DUP2 DUP2 MSTORE PUSH1 0x40 DUP1 DUP5 KECCAK256 SWAP1 SWAP3 ADD DUP1 SLOAD DUP4 MLOAD DUP2 DUP5 MUL DUP2 ADD DUP5 ADD SWAP1 SWAP5 MSTORE DUP1 DUP5 MSTORE SWAP3 SWAP4 SWAP1 SWAP3 SWAP2 DUP5 ADD JUMPDEST DUP3 DUP3 LT ISZERO PUSH2 0x7FD JUMPI DUP4 DUP3 SWAP1 PUSH1 0x0 MSTORE PUSH1 0x20 PUSH1 0x0 KECCAK256 ADD DUP1 SLOAD PUSH2 0x770 SWAP1 PUSH2 0x140D JUMP JUMPDEST DUP1 PUSH1 0x1F ADD PUSH1 0x20 DUP1 SWAP2 DIV MUL PUSH1 0x20 ADD PUSH1 0x40 MLOAD SWAP1 DUP2 ADD PUSH1 0x40 MSTORE DUP1 SWAP3 SWAP2 SWAP1 DUP2 DUP2 MSTORE PUSH1 0x20 ADD DUP3 DUP1 SLOAD PUSH2 0x79C SWAP1 PUSH2 0x140D JUMP JUMPDEST DUP1 ISZERO PUSH2 0x7E9 JUMPI DUP1 PUSH1 0x1F LT PUSH2 0x7BE JUMPI PUSH2 0x100 DUP1 DUP4 SLOAD DIV MUL DUP4 MSTORE SWAP2 PUSH1 0x20 ADD SWAP2 PUSH2 0x7E9 JUMP JUMPDEST DUP3 ADD SWAP2 SWAP1 PUSH1 0x0 MSTORE PUSH1 0x20 PUSH1 0x0 KECCAK256 SWAP1 JUMPDEST DUP2 SLOAD DUP2 MSTORE SWAP1 PUSH1 0x1 ADD SWAP1 PUSH1 0x20 ADD DUP1 DUP4 GT PUSH2 0x7CC JUMPI DUP3 SWAP1 SUB PUSH1 0x1F AND DUP3 ADD SWAP2 JUMPDEST POP POP POP POP POP DUP2 MSTORE PUSH1 0x20 ADD SWAP1 PUSH1 0x1 ADD SWAP1 PUSH2 0x751 JUMP JUMPDEST POP POP POP POP SWAP1 POP JUMPDEST SWAP2 SWAP1 POP JUMP JUMPDEST PUSH1 0x0 SLOAD PUSH1 0x1 PUSH1 0x1 PUSH1 0xA0 SHL SUB AND CALLER EQ DUP1 ISZERO PUSH2 0x830 JUMPI POP PUSH1 0x4 SLOAD PUSH1 0xFF PUSH2 0x100 SWAP1 SWAP2 DIV AND ISZERO ISZERO PUSH1 0x1 EQ JUMPDEST PUSH2 0x871 JUMPI PUSH1 0x40 MLOAD PUSH3 0x461BCD PUSH1 0xE5 SHL DUP2 MSTORE PUSH1 0x20 PUSH1 0x4 DUP3 ADD MSTORE PUSH1 0x12 PUSH1 0x24 DUP3 ADD MSTORE PUSH18 0x2737BA103A3432903132B732B330B1BA37B9 PUSH1 0x71 SHL PUSH1 0x44 DUP3 ADD MSTORE PUSH1 0x64 ADD PUSH2 0x31B JUMP JUMPDEST PUSH1 0x1 PUSH1 0x1 PUSH1 0xA0 SHL SUB DUP3 AND PUSH1 0x0 SWAP1 DUP2 MSTORE PUSH1 0x1 PUSH1 0x20 MSTORE PUSH1 0x40 SWAP1 KECCAK256 SLOAD PUSH1 0xFF AND PUSH2 0x8D1 JUMPI PUSH1 0x40 MLOAD PUSH3 0x461BCD PUSH1 0xE5 SHL DUP2 MSTORE PUSH1 0x20 PUSH1 0x4 DUP3 ADD MSTORE PUSH1 0x15 PUSH1 0x24 DUP3 ADD MSTORE PUSH21 0x10995B99599A58DA585C9E481B9BDD08199BDD5B99 PUSH1 0x5A SHL PUSH1 0x44 DUP3 ADD MSTORE PUSH1 0x64 ADD PUSH2 0x31B JUMP JUMPDEST PUSH1 0x1 PUSH1 0x1 PUSH1 0xA0 SHL SUB DUP3 AND PUSH1 0x0 SWAP1 DUP2 MSTORE PUSH1 0x1 PUSH1 0x20 DUP2 SWAP1 MSTORE PUSH1 0x40 DUP3 KECCAK256 ADD SWAP1 JUMPDEST DUP2 SLOAD DUP2 LT ISZERO PUSH2 0xA65 JUMPI DUP3 PUSH1 0x40 MLOAD PUSH1 0x20 ADD PUSH2 0x908 SWAP2 SWAP1 PUSH2 0x13DB JUMP JUMPDEST PUSH1 0x40 MLOAD PUSH1 0x20 DUP2 DUP4 SUB SUB DUP2 MSTORE SWAP1 PUSH1 0x40 MSTORE DUP1 MLOAD SWAP1 PUSH1 0x20 ADD KECCAK256 DUP3 DUP3 DUP2 SLOAD DUP2 LT PUSH2 0x930 JUMPI PUSH2 0x930 PUSH2 0x13F7 JUMP JUMPDEST SWAP1 PUSH1 0x0 MSTORE PUSH1 0x20 PUSH1 0x0 KECCAK256 ADD PUSH1 0x40 MLOAD PUSH1 0x20 ADD PUSH2 0x94A SWAP2 SWAP1 PUSH2 0x1447 JUMP JUMPDEST PUSH1 0x40 MLOAD PUSH1 0x20 DUP2 DUP4 SUB SUB DUP2 MSTORE SWAP1 PUSH1 0x40 MSTORE DUP1 MLOAD SWAP1 PUSH1 0x20 ADD KECCAK256 SUB PUSH2 0xA53 JUMPI DUP1 JUMPDEST DUP3 SLOAD PUSH2 0x975 SWAP1 PUSH1 0x1 SWAP1 PUSH2 0x13C2 JUMP JUMPDEST DUP2 LT ISZERO PUSH2 0x9DD JUMPI DUP3 PUSH2 0x988 DUP3 PUSH1 0x1 PUSH2 0x15F8 JUMP JUMPDEST DUP2 SLOAD DUP2 LT PUSH2 0x998 JUMPI PUSH2 0x998 PUSH2 0x13F7 JUMP JUMPDEST SWAP1 PUSH1 0x0 MSTORE PUSH1 0x20 PUSH1 0x0 KECCAK256 ADD DUP4 DUP3 DUP2 SLOAD DUP2 LT PUSH2 0x9B4 JUMPI PUSH2 0x9B4 PUSH2 0x13F7 JUMP JUMPDEST SWAP1 PUSH1 0x0 MSTORE PUSH1 0x20 PUSH1 0x0 KECCAK256 ADD SWAP1 DUP2 PUSH2 0x9CA SWAP2 SWAP1 PUSH2 0x160B JUMP JUMPDEST POP DUP1 PUSH2 0x9D5 DUP2 PUSH2 0x14BD JUMP JUMPDEST SWAP2 POP POP PUSH2 0x967 JUMP JUMPDEST POP DUP2 DUP1 SLOAD DUP1 PUSH2 0x9EE JUMPI PUSH2 0x9EE PUSH2 0x16E6 JUMP JUMPDEST PUSH1 0x1 SWAP1 SUB DUP2 DUP2 SWAP1 PUSH1 0x0 MSTORE PUSH1 0x20 PUSH1 0x0 KECCAK256 ADD PUSH1 0x0 PUSH2 0xA0A SWAP2 SWAP1 PUSH2 0x1024 JUMP JUMPDEST SWAP1 SSTORE DUP4 PUSH1 0x1 PUSH1 0x1 PUSH1 0xA0 SHL SUB AND PUSH32 0xE96B2171DFAF9E7FF6B073F3075511E0E31731041A9AB5B45FFC630F4FB61459 DUP5 PUSH1 0x40 MLOAD PUSH2 0xA45 SWAP2 SWAP1 PUSH2 0x15E5 JUMP JUMPDEST PUSH1 0x40 MLOAD DUP1 SWAP2 SUB SWAP1 LOG2 POP POP POP POP JUMP JUMPDEST DUP1 PUSH2 0xA5D DUP2 PUSH2 0x14BD JUMP JUMPDEST SWAP2 POP POP PUSH2 0x8EE JUMP JUMPDEST POP PUSH1 0x40 MLOAD PUSH3 0x461BCD PUSH1 0xE5 SHL DUP2 MSTORE PUSH1 0x20 PUSH1 0x4 DUP3 ADD MSTORE PUSH1 0x24 DUP1 DUP3 ADD MSTORE PUSH32 0x434944206E6F742061737369676E656420746F20746869732062656E65666963 PUSH1 0x44 DUP3 ADD MSTORE PUSH4 0x69617279 PUSH1 0xE0 SHL PUSH1 0x64 DUP3 ADD MSTORE PUSH1 0x84 ADD PUSH2 0x31B JUMP JUMPDEST PUSH1 0x0 PUSH1 0x3 SLOAD PUSH1 0x0 EQ PUSH2 0xAE8 JUMPI PUSH1 0x0 PUSH2 0xAD0 PUSH2 0x233 JUMP JUMPDEST SWAP1 POP DUP1 PUSH1 0x0 SUB PUSH2 0xAE6 JUMPI PUSH1 0x4 DUP1 SLOAD PUSH2 0xFF00 NOT AND SWAP1 SSTORE JUMPDEST POP JUMPDEST POP PUSH1 0x4 SLOAD PUSH2 0x100 SWAP1 DIV PUSH1 0xFF AND SWAP1 JUMP JUMPDEST CALLER PUSH1 0x0 SWAP1 DUP2 MSTORE PUSH1 0x1 PUSH1 0x20 MSTORE PUSH1 0x40 SWAP1 KECCAK256 SLOAD PUSH1 0xFF AND PUSH2 0xB56 JUMPI PUSH1 0x40 MLOAD PUSH3 0x461BCD PUSH1 0xE5 SHL DUP2 MSTORE PUSH1 0x20 PUSH1 0x4 DUP3 ADD MSTORE PUSH1 0x11 PUSH1 0x24 DUP3 ADD MSTORE PUSH32 0x4E6F7420612062656E6566696369617279000000000000000000000000000000 PUSH1 0x44 DUP3 ADD MSTORE PUSH1 0x64 ADD PUSH2 0x31B JUMP JUMPDEST PUSH1 0x4 SLOAD PUSH1 0xFF AND PUSH2 0xB8D JUMPI PUSH1 0x40 MLOAD CALLER SWAP1 PUSH32 0xEAD4F7F220244E6B588C135F1B3288C4F816E0F5F626CBCC61890A729949A4FF SWAP1 PUSH1 0x0 SWAP1 LOG2 JUMP JUMPDEST PUSH1 0x4 DUP1 SLOAD PUSH1 0xFF NOT AND SWAP1 SSTORE TIMESTAMP PUSH1 0x3 SSTORE PUSH1 0x2 SLOAD PUSH1 0x40 MLOAD SWAP1 DUP2 MSTORE CALLER SWAP1 PUSH32 0xCC272F3C4321D64A0BCCC7CB23D6DC8D452B85DD320AA24EACC2464EEBB68514 SWAP1 PUSH1 0x20 ADD JUMPDEST PUSH1 0x40 MLOAD DUP1 SWAP2 SUB SWAP1 LOG2 JUMP JUMPDEST PUSH1 0x0 SLOAD PUSH1 0x1 PUSH1 0x1 PUSH1 0xA0 SHL SUB AND CALLER EQ DUP1 ISZERO PUSH2 0xBFD JUMPI POP PUSH1 0x4 SLOAD PUSH1 0xFF PUSH2 0x100 SWAP1 SWAP2 DIV AND ISZERO ISZERO PUSH1 0x1 EQ JUMPDEST PUSH2 0xC3E JUMPI PUSH1 0x40 MLOAD PUSH3 0x461BCD PUSH1 0xE5 SHL DUP2 MSTORE PUSH1 0x20 PUSH1 0x4 DUP3 ADD MSTORE PUSH1 0x12 PUSH1 0x24 DUP3 ADD MSTORE PUSH18 0x2737BA103A3432903132B732B330B1BA37B9 PUSH1 0x71 SHL PUSH1 0x44 DUP3 ADD MSTORE PUSH1 0x64 ADD PUSH2 0x31B JUMP JUMPDEST PUSH1 0x1 PUSH1 0x1 PUSH1 0xA0 SHL SUB DUP3 AND PUSH1 0x0 SWAP1 DUP2 MSTORE PUSH1 0x1 PUSH1 0x20 MSTORE PUSH1 0x40 SWAP1 KECCAK256 SLOAD PUSH1 0xFF AND ISZERO PUSH2 0xCA7 JUMPI PUSH1 0x40 MLOAD PUSH3 0x461BCD PUSH1 0xE5 SHL DUP2 MSTORE PUSH1 0x20 PUSH1 0x4 DUP3 ADD MSTORE PUSH1 0x1A PUSH1 0x24 DUP3 ADD MSTORE PUSH32 0x42656E656669636961727920616C726561647920657869737473000000000000 PUSH1 0x44 DUP3 ADD MSTORE PUSH1 0x64 ADD PUSH2 0x31B JUMP JUMPDEST PUSH1 0x40 DUP1 MLOAD DUP1 DUP3 ADD DUP3 MSTORE PUSH1 0x1 DUP1 DUP3 MSTORE PUSH1 0x20 DUP1 DUP4 ADD DUP6 DUP2 MSTORE PUSH1 0x1 PUSH1 0x1 PUSH1 0xA0 SHL SUB DUP8 AND PUSH1 0x0 SWAP1 DUP2 MSTORE DUP4 DUP4 MSTORE SWAP5 SWAP1 SWAP5 KECCAK256 DUP4 MLOAD DUP2 SLOAD PUSH1 0xFF NOT AND SWAP1 ISZERO ISZERO OR DUP2 SSTORE SWAP4 MLOAD DUP1 MLOAD SWAP4 SWAP5 SWAP4 PUSH2 0xCF9 SWAP4 DUP6 ADD SWAP3 SWAP2 SWAP1 SWAP2 ADD SWAP1 PUSH2 0x105E JUMP JUMPDEST POP SWAP1 POP POP DUP2 PUSH1 0x1 PUSH1 0x1 PUSH1 0xA0 SHL SUB AND PUSH32 0x7D2AE8DB973D0257348FB20DE20BDE4C46EE9138371086CADB0A2497EA366C2 DUP3 PUSH1 0x40 MLOAD PUSH2 0xD36 SWAP2 SWAP1 PUSH2 0x1274 JUMP JUMPDEST PUSH1 0x40 MLOAD DUP1 SWAP2 SUB SWAP1 LOG2 POP POP JUMP JUMPDEST PUSH1 0x0 SLOAD PUSH1 0x1 PUSH1 0x1 PUSH1 0xA0 SHL SUB AND CALLER EQ DUP1 ISZERO PUSH2 0xD69 JUMPI POP PUSH1 0x4 SLOAD PUSH1 0xFF PUSH2 0x100 SWAP1 SWAP2 DIV AND ISZERO ISZERO PUSH1 0x1 EQ JUMPDEST PUSH2 0xDAA JUMPI PUSH1 0x40 MLOAD PUSH3 0x461BCD PUSH1 0xE5 SHL DUP2 MSTORE PUSH1 0x20 PUSH1 0x4 DUP3 ADD MSTORE PUSH1 0x12 PUSH1 0x24 DUP3 ADD MSTORE PUSH18 0x2737BA103A3432903132B732B330B1BA37B9 PUSH1 0x71 SHL PUSH1 0x44 DUP3 ADD MSTORE PUSH1 0x64 ADD PUSH2 0x31B JUMP JUMPDEST PUSH1 0x3 SLOAD ISZERO PUSH2 0xEB3 JUMPI PUSH2 0xDBA PUSH2 0xABA JUMP JUMPDEST ISZERO PUSH2 0xE44 JUMPI PUSH1 0x0 SLOAD PUSH1 0x40 MLOAD PUSH1 0x1 PUSH1 0x1 PUSH1 0xA0 SHL SUB SWAP1 SWAP2 AND SWAP1 PUSH32 0x793324A6F079E577F4A4646C7EC753EFD3BEDDC2F4CE07BFAE5F105C449AC356 SWAP1 PUSH2 0xE2E SWAP1 PUSH1 0x20 DUP1 DUP3 MSTORE PUSH1 0x13 SWAP1 DUP3 ADD MSTORE PUSH32 0x42656E65666163746F7220697320616C69766500000000000000000000000000 PUSH1 0x40 DUP3 ADD MSTORE PUSH1 0x60 ADD SWAP1 JUMP JUMPDEST PUSH1 0x40 MLOAD DUP1 SWAP2 SUB SWAP1 LOG2 PUSH2 0xE3E PUSH2 0xF22 JUMP JUMPDEST TIMESTAMP PUSH1 0x3 SSTORE JUMP JUMPDEST PUSH1 0x0 SLOAD PUSH1 0x40 MLOAD PUSH1 0x1 PUSH1 0x1 PUSH1 0xA0 SHL SUB SWAP1 SWAP2 AND SWAP1 PUSH32 0x5A68FA7D6B655A3E592D5D99AC82863424750E9D262C902F30F9E56655E7A856 SWAP1 PUSH2 0xBCC SWAP1 PUSH1 0x20 DUP1 DUP3 MSTORE PUSH1 0x12 SWAP1 DUP3 ADD MSTORE PUSH32 0x42656E65666163746F7220697320646561640000000000000000000000000000 PUSH1 0x40 DUP3 ADD MSTORE PUSH1 0x60 ADD SWAP1 JUMP JUMPDEST PUSH1 0x0 SLOAD PUSH1 0x40 MLOAD PUSH1 0x1 PUSH1 0x1 PUSH1 0xA0 SHL SUB SWAP1 SWAP2 AND SWAP1 PUSH32 0x793324A6F079E577F4A4646C7EC753EFD3BEDDC2F4CE07BFAE5F105C449AC356 SWAP1 PUSH2 0xE2E SWAP1 PUSH1 0x20 DUP1 DUP3 MSTORE PUSH1 0x13 SWAP1 DUP3 ADD MSTORE PUSH32 0x42656E65666163746F7220697320616C69766500000000000000000000000000 PUSH1 0x40 DUP3 ADD MSTORE PUSH1 0x60 ADD SWAP1 JUMP JUMPDEST PUSH1 0x0 SLOAD PUSH1 0x1 PUSH1 0x1 PUSH1 0xA0 SHL SUB AND CALLER EQ DUP1 ISZERO PUSH2 0xF49 JUMPI POP PUSH1 0x4 SLOAD PUSH1 0xFF PUSH2 0x100 SWAP1 SWAP2 DIV AND ISZERO ISZERO PUSH1 0x1 EQ JUMPDEST PUSH2 0xF8A JUMPI PUSH1 0x40 MLOAD PUSH3 0x461BCD PUSH1 0xE5 SHL DUP2 MSTORE PUSH1 0x20 PUSH1 0x4 DUP3 ADD MSTORE PUSH1 0x12 PUSH1 0x24 DUP3 ADD MSTORE PUSH18 0x2737BA103A3432903132B732B330B1BA37B9 PUSH1 0x71 SHL PUSH1 0x44 DUP3 ADD MSTORE PUSH1 0x64 ADD PUSH2 0x31B JUMP JUMPDEST PUSH1 0x4 SLOAD PUSH1 0xFF AND ISZERO PUSH2 0xFC2 JUMPI PUSH1 0x40 MLOAD CALLER SWAP1 PUSH32 0x2D44F8A9F38299BD7DDD20E336BDC35969C0188BC56E9FB39D6FD770AE4D6E94 SWAP1 PUSH1 0x0 SWAP1 LOG2 JUMP JUMPDEST PUSH1 0x4 DUP1 SLOAD PUSH1 0xFF NOT AND PUSH1 0x1 OR SWAP1 SSTORE PUSH1 0x40 MLOAD CALLER SWAP1 PUSH32 0x2F4DDD9D3083ADA98DA611A8706B4A485CBE108962A3D8D2E7B7583FDF6C9A69 SWAP1 PUSH2 0xBCC SWAP1 TIMESTAMP DUP2 MSTORE PUSH1 0x20 ADD SWAP1 JUMP JUMPDEST POP DUP1 SLOAD PUSH1 0x0 DUP3 SSTORE SWAP1 PUSH1 0x0 MSTORE PUSH1 0x20 PUSH1 0x0 KECCAK256 SWAP1 DUP2 ADD SWAP1 PUSH2 0x1021 SWAP2 SWAP1 PUSH2 0x10B4 JUMP JUMPDEST POP JUMP JUMPDEST POP DUP1 SLOAD PUSH2 0x1030 SWAP1 PUSH2 0x140D JUMP JUMPDEST PUSH1 0x0 DUP3 SSTORE DUP1 PUSH1 0x1F LT PUSH2 0x1040 JUMPI POP POP JUMP JUMPDEST PUSH1 0x1F ADD PUSH1 0x20 SWAP1 DIV SWAP1 PUSH1 0x0 MSTORE PUSH1 0x20 PUSH1 0x0 KECCAK256 SWAP1 DUP2 ADD SWAP1 PUSH2 0x1021 SWAP2 SWAP1 PUSH2 0x10D1 JUMP JUMPDEST DUP3 DUP1 SLOAD DUP3 DUP3 SSTORE SWAP1 PUSH1 0x0 MSTORE PUSH1 0x20 PUSH1 0x0 KECCAK256 SWAP1 DUP2 ADD SWAP3 DUP3 ISZERO PUSH2 0x10A4 JUMPI SWAP2 PUSH1 0x20 MUL DUP3 ADD JUMPDEST DUP3 DUP2 GT ISZERO PUSH2 0x10A4 JUMPI DUP3 MLOAD DUP3 SWAP1 PUSH2 0x1094 SWAP1 DUP3 PUSH2 0x1525 JUMP JUMPDEST POP SWAP2 PUSH1 0x20 ADD SWAP2 SWAP1 PUSH1 0x1 ADD SWAP1 PUSH2 0x107E JUMP JUMPDEST POP PUSH2 0x10B0 SWAP3 SWAP2 POP PUSH2 0x10B4 JUMP JUMPDEST POP SWAP1 JUMP JUMPDEST DUP1 DUP3 GT ISZERO PUSH2 0x10B0 JUMPI PUSH1 0x0 PUSH2 0x10C8 DUP3 DUP3 PUSH2 0x1024 JUMP JUMPDEST POP PUSH1 0x1 ADD PUSH2 0x10B4 JUMP JUMPDEST JUMPDEST DUP1 DUP3 GT ISZERO PUSH2 0x10B0 JUMPI PUSH1 0x0 DUP2 SSTORE PUSH1 0x1 ADD PUSH2 0x10D2 JUMP JUMPDEST DUP1 CALLDATALOAD PUSH1 0x1 PUSH1 0x1 PUSH1 0xA0 SHL SUB DUP2 AND DUP2 EQ PUSH2 0x804 JUMPI PUSH1 0x0 DUP1 REVERT JUMPDEST PUSH4 0x4E487B71 PUSH1 0xE0 SHL PUSH1 0x0 MSTORE PUSH1 0x41 PUSH1 0x4 MSTORE PUSH1 0x24 PUSH1 0x0 REVERT JUMPDEST PUSH1 0x40 MLOAD PUSH1 0x1F DUP3 ADD PUSH1 0x1F NOT AND DUP2 ADD PUSH8 0xFFFFFFFFFFFFFFFF DUP2 GT DUP3 DUP3 LT OR ISZERO PUSH2 0x113C JUMPI PUSH2 0x113C PUSH2 0x10FD JUMP JUMPDEST PUSH1 0x40 MSTORE SWAP2 SWAP1 POP JUMP JUMPDEST PUSH1 0x0 DUP3 PUSH1 0x1F DUP4 ADD SLT PUSH2 0x1155 JUMPI PUSH1 0x0 DUP1 REVERT JUMPDEST DUP2 CALLDATALOAD PUSH8 0xFFFFFFFFFFFFFFFF DUP2 GT ISZERO PUSH2 0x116F JUMPI PUSH2 0x116F PUSH2 0x10FD JUMP JUMPDEST PUSH2 0x1182 PUSH1 0x1F DUP3 ADD PUSH1 0x1F NOT AND PUSH1 0x20 ADD PUSH2 0x1113 JUMP JUMPDEST DUP2 DUP2 MSTORE DUP5 PUSH1 0x20 DUP4 DUP7 ADD ADD GT ISZERO PUSH2 0x1197 JUMPI PUSH1 0x0 DUP1 REVERT JUMPDEST DUP2 PUSH1 0x20 DUP6 ADD PUSH1 0x20 DUP4 ADD CALLDATACOPY PUSH1 0x0 SWAP2 DUP2 ADD PUSH1 0x20 ADD SWAP2 SWAP1 SWAP2 MSTORE SWAP4 SWAP3 POP POP POP JUMP JUMPDEST PUSH1 0x0 DUP1 PUSH1 0x40 DUP4 DUP6 SUB SLT ISZERO PUSH2 0x11C7 JUMPI PUSH1 0x0 DUP1 REVERT JUMPDEST PUSH2 0x11D0 DUP4 PUSH2 0x10E6 JUMP JUMPDEST SWAP2 POP PUSH1 0x20 DUP4 ADD CALLDATALOAD PUSH8 0xFFFFFFFFFFFFFFFF DUP2 GT ISZERO PUSH2 0x11EC JUMPI PUSH1 0x0 DUP1 REVERT JUMPDEST PUSH2 0x11F8 DUP6 DUP3 DUP7 ADD PUSH2 0x1144 JUMP JUMPDEST SWAP2 POP POP SWAP3 POP SWAP3 SWAP1 POP JUMP JUMPDEST PUSH1 0x0 PUSH1 0x20 DUP3 DUP5 SUB SLT ISZERO PUSH2 0x1214 JUMPI PUSH1 0x0 DUP1 REVERT JUMPDEST PUSH2 0x121D DUP3 PUSH2 0x10E6 JUMP JUMPDEST SWAP4 SWAP3 POP POP POP JUMP JUMPDEST PUSH1 0x0 JUMPDEST DUP4 DUP2 LT ISZERO PUSH2 0x123F JUMPI DUP2 DUP2 ADD MLOAD DUP4 DUP3 ADD MSTORE PUSH1 0x20 ADD PUSH2 0x1227 JUMP JUMPDEST POP POP PUSH1 0x0 SWAP2 ADD MSTORE JUMP JUMPDEST PUSH1 0x0 DUP2 MLOAD DUP1 DUP5 MSTORE PUSH2 0x1260 DUP2 PUSH1 0x20 DUP7 ADD PUSH1 0x20 DUP7 ADD PUSH2 0x1224 JUMP JUMPDEST PUSH1 0x1F ADD PUSH1 0x1F NOT AND SWAP3 SWAP1 SWAP3 ADD PUSH1 0x20 ADD SWAP3 SWAP2 POP POP JUMP JUMPDEST PUSH1 0x0 PUSH1 0x20 DUP1 DUP4 ADD DUP2 DUP5 MSTORE DUP1 DUP6 MLOAD DUP1 DUP4 MSTORE PUSH1 0x40 DUP7 ADD SWAP2 POP PUSH1 0x40 DUP2 PUSH1 0x5 SHL DUP8 ADD ADD SWAP3 POP DUP4 DUP8 ADD PUSH1 0x0 JUMPDEST DUP3 DUP2 LT ISZERO PUSH2 0x12C9 JUMPI PUSH1 0x3F NOT DUP9 DUP7 SUB ADD DUP5 MSTORE PUSH2 0x12B7 DUP6 DUP4 MLOAD PUSH2 0x1248 JUMP JUMPDEST SWAP5 POP SWAP3 DUP6 ADD SWAP3 SWAP1 DUP6 ADD SWAP1 PUSH1 0x1 ADD PUSH2 0x129B JUMP JUMPDEST POP SWAP3 SWAP8 SWAP7 POP POP POP POP POP POP POP JUMP JUMPDEST PUSH1 0x0 DUP1 PUSH1 0x40 DUP4 DUP6 SUB SLT ISZERO PUSH2 0x12E9 JUMPI PUSH1 0x0 DUP1 REVERT JUMPDEST PUSH2 0x12F2 DUP4 PUSH2 0x10E6 JUMP JUMPDEST SWAP2 POP PUSH1 0x20 DUP1 DUP5 ADD CALLDATALOAD PUSH8 0xFFFFFFFFFFFFFFFF DUP1 DUP3 GT ISZERO PUSH2 0x1310 JUMPI PUSH1 0x0 DUP1 REVERT JUMPDEST DUP2 DUP7 ADD SWAP2 POP DUP7 PUSH1 0x1F DUP4 ADD SLT PUSH2 0x1324 JUMPI PUSH1 0x0 DUP1 REVERT JUMPDEST DUP2 CALLDATALOAD DUP2 DUP2 GT ISZERO PUSH2 0x1336 JUMPI PUSH2 0x1336 PUSH2 0x10FD JUMP JUMPDEST DUP1 PUSH1 0x5 SHL PUSH2 0x1345 DUP6 DUP3 ADD PUSH2 0x1113 JUMP JUMPDEST SWAP2 DUP3 MSTORE DUP4 DUP2 ADD DUP6 ADD SWAP2 DUP6 DUP2 ADD SWAP1 DUP11 DUP5 GT ISZERO PUSH2 0x135F JUMPI PUSH1 0x0 DUP1 REVERT JUMPDEST DUP7 DUP7 ADD SWAP3 POP JUMPDEST DUP4 DUP4 LT ISZERO PUSH2 0x139B JUMPI DUP3 CALLDATALOAD DUP6 DUP2 GT ISZERO PUSH2 0x137D JUMPI PUSH1 0x0 DUP1 DUP2 REVERT JUMPDEST PUSH2 0x138B DUP13 DUP10 DUP4 DUP11 ADD ADD PUSH2 0x1144 JUMP JUMPDEST DUP4 MSTORE POP SWAP2 DUP7 ADD SWAP2 SWAP1 DUP7 ADD SWAP1 PUSH2 0x1365 JUMP JUMPDEST DUP1 SWAP8 POP POP POP POP POP POP POP POP SWAP3 POP SWAP3 SWAP1 POP JUMP JUMPDEST PUSH4 0x4E487B71 PUSH1 0xE0 SHL PUSH1 0x0 MSTORE PUSH1 0x11 PUSH1 0x4 MSTORE PUSH1 0x24 PUSH1 0x0 REVERT JUMPDEST DUP2 DUP2 SUB DUP2 DUP2 GT ISZERO PUSH2 0x13D5 JUMPI PUSH2 0x13D5 PUSH2 0x13AC JUMP JUMPDEST SWAP3 SWAP2 POP POP JUMP JUMPDEST PUSH1 0x0 DUP3 MLOAD PUSH2 0x13ED DUP2 DUP5 PUSH1 0x20 DUP8 ADD PUSH2 0x1224 JUMP JUMPDEST SWAP2 SWAP1 SWAP2 ADD SWAP3 SWAP2 POP POP JUMP JUMPDEST PUSH4 0x4E487B71 PUSH1 0xE0 SHL PUSH1 0x0 MSTORE PUSH1 0x32 PUSH1 0x4 MSTORE PUSH1 0x24 PUSH1 0x0 REVERT JUMPDEST PUSH1 0x1 DUP2 DUP2 SHR SWAP1 DUP3 AND DUP1 PUSH2 0x1421 JUMPI PUSH1 0x7F DUP3 AND SWAP2 POP JUMPDEST PUSH1 0x20 DUP3 LT DUP2 SUB PUSH2 0x1441 JUMPI PUSH4 0x4E487B71 PUSH1 0xE0 SHL PUSH1 0x0 MSTORE PUSH1 0x22 PUSH1 0x4 MSTORE PUSH1 0x24 PUSH1 0x0 REVERT JUMPDEST POP SWAP2 SWAP1 POP JUMP JUMPDEST PUSH1 0x0 DUP1 DUP4 SLOAD PUSH2 0x1455 DUP2 PUSH2 0x140D JUMP JUMPDEST PUSH1 0x1 DUP3 DUP2 AND DUP1 ISZERO PUSH2 0x146D JUMPI PUSH1 0x1 DUP2 EQ PUSH2 0x1482 JUMPI PUSH2 0x14B1 JUMP JUMPDEST PUSH1 0xFF NOT DUP5 AND DUP8 MSTORE DUP3 ISZERO ISZERO DUP4 MUL DUP8 ADD SWAP5 POP PUSH2 0x14B1 JUMP JUMPDEST DUP8 PUSH1 0x0 MSTORE PUSH1 0x20 DUP1 PUSH1 0x0 KECCAK256 PUSH1 0x0 JUMPDEST DUP6 DUP2 LT ISZERO PUSH2 0x14A8 JUMPI DUP2 SLOAD DUP11 DUP3 ADD MSTORE SWAP1 DUP5 ADD SWAP1 DUP3 ADD PUSH2 0x148F JUMP JUMPDEST POP POP POP DUP3 DUP8 ADD SWAP5 POP JUMPDEST POP SWAP3 SWAP7 SWAP6 POP POP POP POP POP POP JUMP JUMPDEST PUSH1 0x0 PUSH1 0x1 DUP3 ADD PUSH2 0x14CF JUMPI PUSH2 0x14CF PUSH2 0x13AC JUMP JUMPDEST POP PUSH1 0x1 ADD SWAP1 JUMP JUMPDEST PUSH1 0x1F DUP3 GT ISZERO PUSH2 0x1520 JUMPI PUSH1 0x0 DUP2 DUP2 MSTORE PUSH1 0x20 DUP2 KECCAK256 PUSH1 0x1F DUP6 ADD PUSH1 0x5 SHR DUP2 ADD PUSH1 0x20 DUP7 LT ISZERO PUSH2 0x14FD JUMPI POP DUP1 JUMPDEST PUSH1 0x1F DUP6 ADD PUSH1 0x5 SHR DUP3 ADD SWAP2 POP JUMPDEST DUP2 DUP2 LT ISZERO PUSH2 0x151C JUMPI DUP3 DUP2 SSTORE PUSH1 0x1 ADD PUSH2 0x1509 JUMP JUMPDEST POP POP POP JUMPDEST POP POP POP JUMP JUMPDEST DUP2 MLOAD PUSH8 0xFFFFFFFFFFFFFFFF DUP2 GT ISZERO PUSH2 0x153F JUMPI PUSH2 0x153F PUSH2 0x10FD JUMP JUMPDEST PUSH2 0x1553 DUP2 PUSH2 0x154D DUP5 SLOAD PUSH2 0x140D JUMP JUMPDEST DUP5 PUSH2 0x14D6 JUMP JUMPDEST PUSH1 0x20 DUP1 PUSH1 0x1F DUP4 GT PUSH1 0x1 DUP2 EQ PUSH2 0x1588 JUMPI PUSH1 0x0 DUP5 ISZERO PUSH2 0x1570 JUMPI POP DUP6 DUP4 ADD MLOAD JUMPDEST PUSH1 0x0 NOT PUSH1 0x3 DUP7 SWAP1 SHL SHR NOT AND PUSH1 0x1 DUP6 SWAP1 SHL OR DUP6 SSTORE PUSH2 0x151C JUMP JUMPDEST PUSH1 0x0 DUP6 DUP2 MSTORE PUSH1 0x20 DUP2 KECCAK256 PUSH1 0x1F NOT DUP7 AND SWAP2 JUMPDEST DUP3 DUP2 LT ISZERO PUSH2 0x15B7 JUMPI DUP9 DUP7 ADD MLOAD DUP3 SSTORE SWAP5 DUP5 ADD SWAP5 PUSH1 0x1 SWAP1 SWAP2 ADD SWAP1 DUP5 ADD PUSH2 0x1598 JUMP JUMPDEST POP DUP6 DUP3 LT ISZERO PUSH2 0x15D5 JUMPI DUP8 DUP6 ADD MLOAD PUSH1 0x0 NOT PUSH1 0x3 DUP9 SWAP1 SHL PUSH1 0xF8 AND SHR NOT AND DUP2 SSTORE JUMPDEST POP POP POP POP POP PUSH1 0x1 SWAP1 DUP2 SHL ADD SWAP1 SSTORE POP JUMP JUMPDEST PUSH1 0x20 DUP2 MSTORE PUSH1 0x0 PUSH2 0x121D PUSH1 0x20 DUP4 ADD DUP5 PUSH2 0x1248 JUMP JUMPDEST DUP1 DUP3 ADD DUP1 DUP3 GT ISZERO PUSH2 0x13D5 JUMPI PUSH2 0x13D5 PUSH2 0x13AC JUMP JUMPDEST DUP2 DUP2 SUB PUSH2 0x1616 JUMPI POP POP JUMP JUMPDEST PUSH2 0x1620 DUP3 SLOAD PUSH2 0x140D JUMP JUMPDEST PUSH8 0xFFFFFFFFFFFFFFFF DUP2 GT ISZERO PUSH2 0x1638 JUMPI PUSH2 0x1638 PUSH2 0x10FD JUMP JUMPDEST PUSH2 0x1646 DUP2 PUSH2 0x154D DUP5 SLOAD PUSH2 0x140D JUMP JUMPDEST PUSH1 0x0 PUSH1 0x1F DUP3 GT PUSH1 0x1 DUP2 EQ PUSH2 0x167A JUMPI PUSH1 0x0 DUP4 ISZERO PUSH2 0x1662 JUMPI POP DUP5 DUP3 ADD SLOAD JUMPDEST PUSH1 0x0 NOT PUSH1 0x3 DUP6 SWAP1 SHL SHR NOT AND PUSH1 0x1 DUP5 SWAP1 SHL OR DUP5 SSTORE PUSH2 0x16DF JUMP JUMPDEST PUSH1 0x0 DUP6 DUP2 MSTORE PUSH1 0x20 SWAP1 KECCAK256 PUSH1 0x1F NOT DUP5 AND SWAP1 PUSH1 0x0 DUP7 DUP2 MSTORE PUSH1 0x20 SWAP1 KECCAK256 DUP5 JUMPDEST DUP4 DUP2 LT ISZERO PUSH2 0x16B4 JUMPI DUP3 DUP7 ADD SLOAD DUP3 SSTORE PUSH1 0x1 SWAP6 DUP7 ADD SWAP6 SWAP1 SWAP2 ADD SWAP1 PUSH1 0x20 ADD PUSH2 0x1694 JUMP JUMPDEST POP DUP6 DUP4 LT ISZERO PUSH2 0x16D2 JUMPI DUP2 DUP6 ADD SLOAD PUSH1 0x0 NOT PUSH1 0x3 DUP9 SWAP1 SHL PUSH1 0xF8 AND SHR NOT AND DUP2 SSTORE JUMPDEST POP POP POP PUSH1 0x1 DUP4 PUSH1 0x1 SHL ADD DUP5 SSTORE JUMPDEST POP POP POP POP POP JUMP JUMPDEST PUSH4 0x4E487B71 PUSH1 0xE0 SHL PUSH1 0x0 MSTORE PUSH1 0x31 PUSH1 0x4 MSTORE PUSH1 0x24 PUSH1 0x0 REVERT INVALID LOG2 PUSH5 0x6970667358 0x22 SLT KECCAK256 MSTORE SWAP6 0xBF 0xE SWAP7 DUP2 SHR LOG2 GT DUP11 DUP6 OR 0xF8 0xCB 0xDA 0x49 PUSH12 0x4E9CEEBA63C95FE4B55F08E9 EQ PUSH30 0x9864736F6C63430008110033000000000000000000000000000000000000 "
    },
    "gasEstimates": {
      "creation": {
        "codeDepositCost": "1187600",
        "executionCost": "76808",
        "totalCost": "1264408"
      },
      "external": {
        "addBeneficiary(address,string[])": "infinite",
        "addIpfsCID(address,string)": "infinite",
        "benefactor()": "2404",
        "checkAliveStatus()": "infinite",
        "countdownDuration()": "2308",
        "enableSwitch()": "54366",
        "getCIDs(address)": "infinite",
        "getRemainingCountdownTime()": "infinite",
        "isAlive()": "2367",
        "isBeneficiary(address)": "2571",
        "isSwitchedOff()": "2333",
        "lastBenefactorResponseTime()": "2373",
        "removeBeneficiary(address)": "infinite",
        "removeIpfsCID(address,string)": "infinite",
        "respondToSwitch()": "infinite"
      },
      "internal": {
        "disableSwitch()": "infinite"
      }
    },
    "methodIdentifiers": {
      "addBeneficiary(address,string[])": "bd15780c",
      "addIpfsCID(address,string)": "5211287e",
      "benefactor()": "8a81694c",
      "checkAliveStatus()": "98e68f59",
      "countdownDuration()": "17eba161",
      "enableSwitch()": "9f8f2f7d",
      "getCIDs(address)": "6367da9c",
      "getRemainingCountdownTime()": "4f68343a",
      "isAlive()": "4136aa35",
      "isBeneficiary(address)": "9d19b226",
      "isSwitchedOff()": "6cd6617e",
      "lastBenefactorResponseTime()": "6a96ac2e",
      "removeBeneficiary(address)": "59633a1c",
      "removeIpfsCID(address,string)": "87c63714",
      "respondToSwitch()": "cd9c9362"
    }
  },
  "storageLayout": {
    "storage": [
      {
        "astId": 210,
        "contract": "BenefactorsDeadManSwitch.sol:BenefactorsDeadManSwitch",
        "label": "benefactor",
        "offset": 0,
        "slot": "0",
        "type": "t_address"
      },
      {
        "astId": 238,
        "contract": "BenefactorsDeadManSwitch.sol:BenefactorsDeadManSwitch",
        "label": "beneficiaries",
        "offset": 0,
        "slot": "1",
        "type": "t_mapping(t_address,t_struct(BeneficiaryInfo)216_storage)"
      },
      {
        "astId": 240,
        "contract": "BenefactorsDeadManSwitch.sol:BenefactorsDeadManSwitch",
        "label": "countdownDuration",
        "offset": 0,
        "slot": "2",
        "type": "t_uint256"
      },
      {
        "astId": 242,
        "contract": "BenefactorsDeadManSwitch.sol:BenefactorsDeadManSwitch",
        "label": "lastBenefactorResponseTime",
        "offset": 0,
        "slot": "3",
        "type": "t_uint256"
      },
      {
        "astId": 244,
        "contract": "BenefactorsDeadManSwitch.sol:BenefactorsDeadManSwitch",
        "label": "isSwitchedOff",
        "offset": 0,
        "slot": "4",
        "type": "t_bool"
      },
      {
        "astId": 246,
        "contract": "BenefactorsDeadManSwitch.sol:BenefactorsDeadManSwitch",
        "label": "isAlive",
        "offset": 1,
        "slot": "4",
        "type": "t_bool"
      }
    ],
    "types": {
      "t_address": {
        "encoding": "inplace",
        "label": "address",
        "numberOfBytes": "20"
      },
      "t_array(t_string_storage)dyn_storage": {
        "base": "t_string_storage",
        "encoding": "dynamic_array",
        "label": "string[]",
        "numberOfBytes": "32"
      },
      "t_bool": {
        "encoding": "inplace",
        "label": "bool",
        "numberOfBytes": "1"
      },
      "t_mapping(t_address,t_struct(BeneficiaryInfo)216_storage)": {
        "encoding": "mapping",
        "key": "t_address",
        "label": "mapping(address => struct BenefactorsDeadManSwitch.BeneficiaryInfo)",
        "numberOfBytes": "32",
        "value": "t_struct(BeneficiaryInfo)216_storage"
      },
      "t_string_storage": {
        "encoding": "bytes",
        "label": "string",
        "numberOfBytes": "32"
      },
      "t_struct(BeneficiaryInfo)216_storage": {
        "encoding": "inplace",
        "label": "struct BenefactorsDeadManSwitch.BeneficiaryInfo",
        "members": [
          {
            "astId": 212,
            "contract": "BenefactorsDeadManSwitch.sol:BenefactorsDeadManSwitch",
            "label": "exists",
            "offset": 0,
            "slot": "0",
            "type": "t_bool"
          },
          {
            "astId": 215,
            "contract": "BenefactorsDeadManSwitch.sol:BenefactorsDeadManSwitch",
            "label": "ipfsCIDs",
            "offset": 0,
            "slot": "1",
            "type": "t_array(t_string_storage)dyn_storage"
          }
        ],
        "numberOfBytes": "64"
      },
      "t_uint256": {
        "encoding": "inplace",
        "label": "uint256",
        "numberOfBytes": "32"
      }
    }
  },
  "userdoc": {
    "kind": "user",
    "methods": {},
    "version": 1
  }
}