{
  "abi": [
    {
      "anonymous": false,
      "inputs": [
        {
          "indexed": true,
          "internalType": "address",
          "name": "benefactor",
          "type": "address"
        },
        {
          "indexed": true,
          "internalType": "address",
          "name": "beneficiary",
          "type": "address"
        }
      ],
      "name": "BeneficiaryAdded",
      "type": "event"
    },
    {
      "anonymous": false,
      "inputs": [
        {
          "indexed": true,
          "internalType": "address",
          "name": "benefactor",
          "type": "address"
        },
        {
          "indexed": true,
          "internalType": "address",
          "name": "beneficiary",
          "type": "address"
        }
      ],
      "name": "BeneficiaryRemoved",
      "type": "event"
    },
    {
      "inputs": [
        {
          "internalType": "address",
          "name": "_beneficiary",
          "type": "address"
        }
      ],
      "name": "addBeneficiary",
      "outputs": [],
      "stateMutability": "nonpayable",
      "type": "function"
    },
    {
      "inputs": [
        {
          "internalType": "address",
          "name": "",
          "type": "address"
        }
      ],
      "name": "benefactors",
      "outputs": [
        {
          "internalType": "bool",
          "name": "exists",
          "type": "bool"
        }
      ],
      "stateMutability": "view",
      "type": "function"
    },
    {
      "inputs": [
        {
          "internalType": "address",
          "name": "_benefactor",
          "type": "address"
        }
      ],
      "name": "getBeneficiaries",
      "outputs": [
        {
          "internalType": "address[]",
          "name": "",
          "type": "address[]"
        }
      ],
      "stateMutability": "view",
      "type": "function"
    },
    {
      "inputs": [],
      "name": "isBenefactor",
      "outputs": [
        {
          "internalType": "bool",
          "name": "",
          "type": "bool"
        }
      ],
      "stateMutability": "view",
      "type": "function"
    },
    {
      "inputs": [
        {
          "internalType": "address",
          "name": "_benefactor",
          "type": "address"
        }
      ],
      "name": "isBeneficiary",
      "outputs": [
        {
          "internalType": "bool",
          "name": "",
          "type": "bool"
        }
      ],
      "stateMutability": "view",
      "type": "function"
    },
    {
      "inputs": [],
      "name": "registerBenefactor",
      "outputs": [],
      "stateMutability": "nonpayable",
      "type": "function"
    },
    {
      "inputs": [],
      "name": "removeBenefactor",
      "outputs": [],
      "stateMutability": "nonpayable",
      "type": "function"
    },
    {
      "inputs": [
        {
          "internalType": "address",
          "name": "_beneficiary",
          "type": "address"
        }
      ],
      "name": "removeBeneficiary",
      "outputs": [],
      "stateMutability": "nonpayable",
      "type": "function"
    }
  ],
  "devdoc": {
    "details": "A smart contract for registering benefactors and managing their beneficiaries.",
    "events": {
      "BeneficiaryAdded(address,address)": {
        "details": "Emitted when a beneficiary is added to a benefactor's list.",
        "params": {
          "benefactor": "The address of the benefactor.",
          "beneficiary": "The address of the beneficiary being added."
        }
      },
      "BeneficiaryRemoved(address,address)": {
        "details": "Emitted when a beneficiary is removed from a benefactor's list.",
        "params": {
          "benefactor": "The address of the benefactor.",
          "beneficiary": "The address of the beneficiary being removed."
        }
      }
    },
    "kind": "dev",
    "methods": {
      "addBeneficiary(address)": {
        "details": "Adds a beneficiary to the caller's list of beneficiaries. Reverts if the caller is not a registered benefactor or if the beneficiary is already added.",
        "params": {
          "_beneficiary": "The address of the beneficiary to be added."
        }
      },
      "getBeneficiaries(address)": {
        "details": "Retrieves the list of beneficiaries for a specified benefactor. Reverts if the specified benefactor is not registered.",
        "params": {
          "_benefactor": "The address of the benefactor."
        },
        "returns": {
          "_0": "An array of beneficiary addresses."
        }
      },
      "isBenefactor()": {
        "details": "Checks if the caller is a registered benefactor.",
        "returns": {
          "_0": "true if the caller is a registered benefactor, false otherwise."
        }
      },
      "isBeneficiary(address)": {
        "details": "Checks if the caller is a beneficiary of a specified benefactor.",
        "params": {
          "_benefactor": "The address of the benefactor."
        },
        "returns": {
          "_0": "true if the caller is a beneficiary of the specified benefactor, false otherwise."
        }
      },
      "registerBenefactor()": {
        "details": "Registers the caller as a benefactor. Reverts if the caller is already a registered benefactor."
      },
      "removeBenefactor()": {
        "details": "Benefactor who calls the function will be unregistered Reverts if the caller is not a benefactor."
      },
      "removeBeneficiary(address)": {
        "details": "Removes a beneficiary from the caller's list of beneficiaries. Reverts if the caller is not a registered benefactor or if the beneficiary is not found.",
        "params": {
          "_beneficiary": "The address of the beneficiary to be removed."
        }
      }
    },
    "title": "Benefactor Registration",
    "version": 1
  },
  "evm": {
    "assembly": "    /* \"BenefactorRegistration.sol\":193:4707  contract BenefactorRegistration {... */\n  mstore(0x40, 0x80)\n  callvalue\n  dup1\n  iszero\n  tag_1\n  jumpi\n  0x00\n  dup1\n  revert\ntag_1:\n  pop\n  dataSize(sub_0)\n  dup1\n  dataOffset(sub_0)\n  0x00\n  codecopy\n  0x00\n  return\nstop\n\nsub_0: assembly {\n        /* \"BenefactorRegistration.sol\":193:4707  contract BenefactorRegistration {... */\n      mstore(0x40, 0x80)\n      callvalue\n      dup1\n      iszero\n      tag_1\n      jumpi\n      0x00\n      dup1\n      revert\n    tag_1:\n      pop\n      jumpi(tag_2, lt(calldatasize, 0x04))\n      shr(0xe0, calldataload(0x00))\n      dup1\n      0x5c3c9586\n      gt\n      tag_11\n      jumpi\n      dup1\n      0x5c3c9586\n      eq\n      tag_7\n      jumpi\n      dup1\n      0x7252c33a\n      eq\n      tag_8\n      jumpi\n      dup1\n      0x94341d37\n      eq\n      tag_9\n      jumpi\n      dup1\n      0x9d19b226\n      eq\n      tag_10\n      jumpi\n      0x00\n      dup1\n      revert\n    tag_11:\n      dup1\n      0x1cab59a4\n      eq\n      tag_3\n      jumpi\n      dup1\n      0x2a07f401\n      eq\n      tag_4\n      jumpi\n      dup1\n      0x5926651d\n      eq\n      tag_5\n      jumpi\n      dup1\n      0x59633a1c\n      eq\n      tag_6\n      jumpi\n    tag_2:\n      0x00\n      dup1\n      revert\n        /* \"BenefactorRegistration.sol\":3890:4122  function getBeneficiaries(address _benefactor) external view returns (address[] memory) {... */\n    tag_3:\n      tag_12\n      tag_13\n      calldatasize\n      0x04\n      tag_14\n      jump\t// in\n    tag_13:\n      tag_15\n      jump\t// in\n    tag_12:\n      mload(0x40)\n      tag_16\n      swap2\n      swap1\n      tag_17\n      jump\t// in\n    tag_16:\n      mload(0x40)\n      dup1\n      swap2\n      sub\n      swap1\n      return\n        /* \"BenefactorRegistration.sol\":1851:1960  function isBenefactor() view external returns (bool) {... */\n    tag_4:\n        /* \"BenefactorRegistration.sol\":1934:1944  msg.sender */\n      caller\n        /* \"BenefactorRegistration.sol\":1898:1902  bool */\n      0x00\n        /* \"BenefactorRegistration.sol\":1922:1945  benefactors[msg.sender] */\n      swap1\n      dup2\n      mstore\n      0x20\n      dup2\n      swap1\n      mstore\n      0x40\n      swap1\n      keccak256\n        /* \"BenefactorRegistration.sol\":1922:1952  benefactors[msg.sender].exists */\n      sload\n      0xff\n      and\n        /* \"BenefactorRegistration.sol\":1851:1960  function isBenefactor() view external returns (bool) {... */\n    tag_18:\n      mload(0x40)\n        /* \"#utility.yul\":1179:1193   */\n      swap1\n      iszero\n        /* \"#utility.yul\":1172:1194   */\n      iszero\n        /* \"#utility.yul\":1154:1195   */\n      dup2\n      mstore\n        /* \"#utility.yul\":1142:1144   */\n      0x20\n        /* \"#utility.yul\":1127:1145   */\n      add\n        /* \"BenefactorRegistration.sol\":1851:1960  function isBenefactor() view external returns (bool) {... */\n      tag_16\n        /* \"#utility.yul\":1014:1201   */\n      jump\n        /* \"BenefactorRegistration.sol\":2230:2671  function addBeneficiary(address _beneficiary) external {... */\n    tag_5:\n      tag_22\n      tag_23\n      calldatasize\n      0x04\n      tag_14\n      jump\t// in\n    tag_23:\n      tag_24\n      jump\t// in\n    tag_22:\n      stop\n        /* \"BenefactorRegistration.sol\":2944:3615  function removeBeneficiary(address _beneficiary) external {... */\n    tag_6:\n      tag_22\n      tag_26\n      calldatasize\n      0x04\n      tag_14\n      jump\t// in\n    tag_26:\n      tag_27\n      jump\t// in\n        /* \"BenefactorRegistration.sol\":1510:1683  function removeBenefactor() external {... */\n    tag_7:\n      tag_22\n      tag_29\n      jump\t// in\n        /* \"BenefactorRegistration.sol\":371:420  mapping(address => Benefactor) public benefactors */\n    tag_8:\n      tag_18\n      tag_31\n      calldatasize\n      0x04\n      tag_14\n      jump\t// in\n    tag_31:\n      0x00\n      0x20\n      dup2\n      swap1\n      mstore\n      swap1\n      dup2\n      mstore\n      0x40\n      swap1\n      keccak256\n      sload\n      0xff\n      and\n      dup2\n      jump\n        /* \"BenefactorRegistration.sol\":1186:1365  function registerBenefactor() external {... */\n    tag_9:\n      tag_22\n      tag_35\n      jump\t// in\n        /* \"BenefactorRegistration.sol\":4382:4704  function isBeneficiary(address _benefactor) external view returns (bool) {... */\n    tag_10:\n      tag_18\n      tag_37\n      calldatasize\n      0x04\n      tag_14\n      jump\t// in\n    tag_37:\n      tag_38\n      jump\t// in\n        /* \"BenefactorRegistration.sol\":3890:4122  function getBeneficiaries(address _benefactor) external view returns (address[] memory) {... */\n    tag_15:\n      sub(shl(0xa0, 0x01), 0x01)\n        /* \"BenefactorRegistration.sol\":3997:4021  benefactors[_benefactor] */\n      dup2\n      and\n        /* \"BenefactorRegistration.sol\":3997:4008  benefactors */\n      0x00\n        /* \"BenefactorRegistration.sol\":3997:4021  benefactors[_benefactor] */\n      swap1\n      dup2\n      mstore\n      0x20\n      dup2\n      swap1\n      mstore\n      0x40\n      swap1\n      keccak256\n        /* \"BenefactorRegistration.sol\":3997:4028  benefactors[_benefactor].exists */\n      sload\n        /* \"BenefactorRegistration.sol\":3960:3976  address[] memory */\n      0x60\n      swap1\n        /* \"BenefactorRegistration.sol\":3997:4028  benefactors[_benefactor].exists */\n      0xff\n      and\n        /* \"BenefactorRegistration.sol\":3989:4058  require(benefactors[_benefactor].exists, \"Benefactor not registered\") */\n      tag_41\n      jumpi\n      mload(0x40)\n      shl(0xe5, 0x461bcd)\n      dup2\n      mstore\n        /* \"#utility.yul\":1408:1410   */\n      0x20\n        /* \"BenefactorRegistration.sol\":3989:4058  require(benefactors[_benefactor].exists, \"Benefactor not registered\") */\n      0x04\n      dup3\n      add\n        /* \"#utility.yul\":1390:1411   */\n      mstore\n        /* \"#utility.yul\":1447:1449   */\n      0x19\n        /* \"#utility.yul\":1427:1445   */\n      0x24\n      dup3\n      add\n        /* \"#utility.yul\":1420:1450   */\n      mstore\n        /* \"#utility.yul\":1486:1513   */\n      0x42656e65666163746f72206e6f74207265676973746572656400000000000000\n        /* \"#utility.yul\":1466:1484   */\n      0x44\n      dup3\n      add\n        /* \"#utility.yul\":1459:1514   */\n      mstore\n        /* \"#utility.yul\":1531:1549   */\n      0x64\n      add\n        /* \"BenefactorRegistration.sol\":3989:4058  require(benefactors[_benefactor].exists, \"Benefactor not registered\") */\n    tag_42:\n      mload(0x40)\n      dup1\n      swap2\n      sub\n      swap1\n      revert\n    tag_41:\n      sub(shl(0xa0, 0x01), 0x01)\n        /* \"BenefactorRegistration.sol\":4076:4100  benefactors[_benefactor] */\n      dup3\n      and\n        /* \"BenefactorRegistration.sol\":4076:4087  benefactors */\n      0x00\n        /* \"BenefactorRegistration.sol\":4076:4100  benefactors[_benefactor] */\n      swap1\n      dup2\n      mstore\n      0x20\n      dup2\n      dup2\n      mstore\n      0x40\n      swap2\n      dup3\n      swap1\n      keccak256\n        /* \"BenefactorRegistration.sol\":4076:4114  benefactors[_benefactor].beneficiaries */\n      0x01\n      add\n        /* \"BenefactorRegistration.sol\":4069:4114  return benefactors[_benefactor].beneficiaries */\n      dup1\n      sload\n      dup4\n      mload\n      dup2\n      dup5\n      mul\n      dup2\n      add\n      dup5\n      add\n      swap1\n      swap5\n      mstore\n      dup1\n      dup5\n      mstore\n        /* \"BenefactorRegistration.sol\":4076:4114  benefactors[_benefactor].beneficiaries */\n      swap1\n      swap2\n        /* \"BenefactorRegistration.sol\":4069:4114  return benefactors[_benefactor].beneficiaries */\n      dup4\n      add\n        /* \"BenefactorRegistration.sol\":4076:4114  benefactors[_benefactor].beneficiaries */\n      dup3\n        /* \"BenefactorRegistration.sol\":4069:4114  return benefactors[_benefactor].beneficiaries */\n      dup3\n      dup1\n      iszero\n      tag_44\n      jumpi\n      0x20\n      mul\n      dup3\n      add\n      swap2\n      swap1\n      0x00\n      mstore\n      keccak256(0x00, 0x20)\n      swap1\n    tag_45:\n      dup2\n      sload\n      sub(shl(0xa0, 0x01), 0x01)\n      and\n      dup2\n      mstore\n      0x01\n      swap1\n      swap2\n      add\n      swap1\n      0x20\n      add\n      dup1\n      dup4\n      gt\n      tag_45\n      jumpi\n    tag_44:\n      pop\n      pop\n      pop\n      pop\n      pop\n      swap1\n      pop\n        /* \"BenefactorRegistration.sol\":3890:4122  function getBeneficiaries(address _benefactor) external view returns (address[] memory) {... */\n      swap2\n      swap1\n      pop\n      jump\t// out\n        /* \"BenefactorRegistration.sol\":2230:2671  function addBeneficiary(address _beneficiary) external {... */\n    tag_24:\n        /* \"BenefactorRegistration.sol\":2316:2326  msg.sender */\n      caller\n        /* \"BenefactorRegistration.sol\":2304:2315  benefactors */\n      0x00\n        /* \"BenefactorRegistration.sol\":2304:2327  benefactors[msg.sender] */\n      swap1\n      dup2\n      mstore\n      0x20\n      dup2\n      swap1\n      mstore\n      0x40\n      swap1\n      keccak256\n        /* \"BenefactorRegistration.sol\":2304:2334  benefactors[msg.sender].exists */\n      sload\n      0xff\n      and\n        /* \"BenefactorRegistration.sol\":2296:2364  require(benefactors[msg.sender].exists, \"Benefactor not registered\") */\n      tag_48\n      jumpi\n      mload(0x40)\n      shl(0xe5, 0x461bcd)\n      dup2\n      mstore\n        /* \"#utility.yul\":1408:1410   */\n      0x20\n        /* \"BenefactorRegistration.sol\":2296:2364  require(benefactors[msg.sender].exists, \"Benefactor not registered\") */\n      0x04\n      dup3\n      add\n        /* \"#utility.yul\":1390:1411   */\n      mstore\n        /* \"#utility.yul\":1447:1449   */\n      0x19\n        /* \"#utility.yul\":1427:1445   */\n      0x24\n      dup3\n      add\n        /* \"#utility.yul\":1420:1450   */\n      mstore\n        /* \"#utility.yul\":1486:1513   */\n      0x42656e65666163746f72206e6f74207265676973746572656400000000000000\n        /* \"#utility.yul\":1466:1484   */\n      0x44\n      dup3\n      add\n        /* \"#utility.yul\":1459:1514   */\n      mstore\n        /* \"#utility.yul\":1531:1549   */\n      0x64\n      add\n        /* \"BenefactorRegistration.sol\":2296:2364  require(benefactors[msg.sender].exists, \"Benefactor not registered\") */\n      tag_42\n        /* \"#utility.yul\":1206:1555   */\n      jump\n        /* \"BenefactorRegistration.sol\":2296:2364  require(benefactors[msg.sender].exists, \"Benefactor not registered\") */\n    tag_48:\n        /* \"BenefactorRegistration.sol\":2396:2406  msg.sender */\n      caller\n        /* \"BenefactorRegistration.sol\":2384:2395  benefactors */\n      0x00\n        /* \"BenefactorRegistration.sol\":2384:2407  benefactors[msg.sender] */\n      swap1\n      dup2\n      mstore\n      0x20\n      dup2\n      dup2\n      mstore\n      0x40\n      dup1\n      dup4\n      keccak256\n      sub(shl(0xa0, 0x01), 0x01)\n        /* \"BenefactorRegistration.sol\":2384:2435  benefactors[msg.sender].isBeneficiary[_beneficiary] */\n      dup6\n      and\n      dup5\n      mstore\n        /* \"BenefactorRegistration.sol\":2384:2421  benefactors[msg.sender].isBeneficiary */\n      0x02\n      add\n        /* \"BenefactorRegistration.sol\":2384:2435  benefactors[msg.sender].isBeneficiary[_beneficiary] */\n      swap1\n      swap2\n      mstore\n      swap1\n      keccak256\n      sload\n      0xff\n      and\n        /* \"BenefactorRegistration.sol\":2383:2435  !benefactors[msg.sender].isBeneficiary[_beneficiary] */\n      iszero\n        /* \"BenefactorRegistration.sol\":2375:2465  require(!benefactors[msg.sender].isBeneficiary[_beneficiary], \"Beneficiary already added\") */\n      tag_50\n      jumpi\n      mload(0x40)\n      shl(0xe5, 0x461bcd)\n      dup2\n      mstore\n        /* \"#utility.yul\":1762:1764   */\n      0x20\n        /* \"BenefactorRegistration.sol\":2375:2465  require(!benefactors[msg.sender].isBeneficiary[_beneficiary], \"Beneficiary already added\") */\n      0x04\n      dup3\n      add\n        /* \"#utility.yul\":1744:1765   */\n      mstore\n        /* \"#utility.yul\":1801:1803   */\n      0x19\n        /* \"#utility.yul\":1781:1799   */\n      0x24\n      dup3\n      add\n        /* \"#utility.yul\":1774:1804   */\n      mstore\n        /* \"#utility.yul\":1840:1867   */\n      0x42656e656669636961727920616c726561647920616464656400000000000000\n        /* \"#utility.yul\":1820:1838   */\n      0x44\n      dup3\n      add\n        /* \"#utility.yul\":1813:1868   */\n      mstore\n        /* \"#utility.yul\":1885:1903   */\n      0x64\n      add\n        /* \"BenefactorRegistration.sol\":2375:2465  require(!benefactors[msg.sender].isBeneficiary[_beneficiary], \"Beneficiary already added\") */\n      tag_42\n        /* \"#utility.yul\":1560:1909   */\n      jump\n        /* \"BenefactorRegistration.sol\":2375:2465  require(!benefactors[msg.sender].isBeneficiary[_beneficiary], \"Beneficiary already added\") */\n    tag_50:\n        /* \"BenefactorRegistration.sol\":2490:2500  msg.sender */\n      caller\n        /* \"BenefactorRegistration.sol\":2478:2489  benefactors */\n      0x00\n        /* \"BenefactorRegistration.sol\":2478:2501  benefactors[msg.sender] */\n      dup2\n      dup2\n      mstore\n      0x20\n      dup2\n      dup2\n      mstore\n      0x40\n      dup1\n      dup4\n      keccak256\n        /* \"BenefactorRegistration.sol\":2478:2515  benefactors[msg.sender].beneficiaries */\n      0x01\n      dup1\n      dup3\n      add\n        /* \"BenefactorRegistration.sol\":2478:2534  benefactors[msg.sender].beneficiaries.push(_beneficiary) */\n      dup1\n      sload\n      dup1\n      dup4\n      add\n      dup3\n      sstore\n      swap1\n      dup7\n      mstore\n      dup5\n      dup7\n      keccak256\n      add\n      dup1\n      sload\n      not(0xffffffffffffffffffffffffffffffffffffffff)\n      and\n      sub(shl(0xa0, 0x01), 0x01)\n      dup10\n      and\n      swap1\n      dup2\n      or\n      swap1\n      swap2\n      sstore\n        /* \"BenefactorRegistration.sol\":2545:2596  benefactors[msg.sender].isBeneficiary[_beneficiary] */\n      dup1\n      dup7\n      mstore\n        /* \"BenefactorRegistration.sol\":2545:2582  benefactors[msg.sender].isBeneficiary */\n      0x02\n      swap1\n      swap3\n      add\n        /* \"BenefactorRegistration.sol\":2545:2596  benefactors[msg.sender].isBeneficiary[_beneficiary] */\n      swap1\n      swap4\n      mstore\n      dup2\n      dup5\n      keccak256\n        /* \"BenefactorRegistration.sol\":2545:2603  benefactors[msg.sender].isBeneficiary[_beneficiary] = true */\n      dup1\n      sload\n      not(0xff)\n      and\n      swap1\n      swap4\n      or\n      swap1\n      swap3\n      sstore\n        /* \"BenefactorRegistration.sol\":2621:2663  BeneficiaryAdded(msg.sender, _beneficiary) */\n      mload\n        /* \"BenefactorRegistration.sol\":2478:2534  benefactors[msg.sender].beneficiaries.push(_beneficiary) */\n      swap1\n      swap3\n        /* \"BenefactorRegistration.sol\":2490:2500  msg.sender */\n      swap2\n        /* \"BenefactorRegistration.sol\":2621:2663  BeneficiaryAdded(msg.sender, _beneficiary) */\n      0xbb39c36a7502b7256e1a687254146a9a2ea7b146c77cb9e40eb0e2b8793781e1\n      swap2\n      log3\n        /* \"BenefactorRegistration.sol\":2230:2671  function addBeneficiary(address _beneficiary) external {... */\n      pop\n      jump\t// out\n        /* \"BenefactorRegistration.sol\":2944:3615  function removeBeneficiary(address _beneficiary) external {... */\n    tag_27:\n        /* \"BenefactorRegistration.sol\":3033:3043  msg.sender */\n      caller\n        /* \"BenefactorRegistration.sol\":3021:3032  benefactors */\n      0x00\n        /* \"BenefactorRegistration.sol\":3021:3044  benefactors[msg.sender] */\n      swap1\n      dup2\n      mstore\n      0x20\n      dup2\n      swap1\n      mstore\n      0x40\n      swap1\n      keccak256\n        /* \"BenefactorRegistration.sol\":3021:3051  benefactors[msg.sender].exists */\n      sload\n      0xff\n      and\n        /* \"BenefactorRegistration.sol\":3013:3081  require(benefactors[msg.sender].exists, \"Benefactor not registered\") */\n      tag_55\n      jumpi\n      mload(0x40)\n      shl(0xe5, 0x461bcd)\n      dup2\n      mstore\n        /* \"#utility.yul\":1408:1410   */\n      0x20\n        /* \"BenefactorRegistration.sol\":3013:3081  require(benefactors[msg.sender].exists, \"Benefactor not registered\") */\n      0x04\n      dup3\n      add\n        /* \"#utility.yul\":1390:1411   */\n      mstore\n        /* \"#utility.yul\":1447:1449   */\n      0x19\n        /* \"#utility.yul\":1427:1445   */\n      0x24\n      dup3\n      add\n        /* \"#utility.yul\":1420:1450   */\n      mstore\n        /* \"#utility.yul\":1486:1513   */\n      0x42656e65666163746f72206e6f74207265676973746572656400000000000000\n        /* \"#utility.yul\":1466:1484   */\n      0x44\n      dup3\n      add\n        /* \"#utility.yul\":1459:1514   */\n      mstore\n        /* \"#utility.yul\":1531:1549   */\n      0x64\n      add\n        /* \"BenefactorRegistration.sol\":3013:3081  require(benefactors[msg.sender].exists, \"Benefactor not registered\") */\n      tag_42\n        /* \"#utility.yul\":1206:1555   */\n      jump\n        /* \"BenefactorRegistration.sol\":3013:3081  require(benefactors[msg.sender].exists, \"Benefactor not registered\") */\n    tag_55:\n        /* \"BenefactorRegistration.sol\":3112:3122  msg.sender */\n      caller\n        /* \"BenefactorRegistration.sol\":3100:3111  benefactors */\n      0x00\n        /* \"BenefactorRegistration.sol\":3100:3123  benefactors[msg.sender] */\n      swap1\n      dup2\n      mstore\n      0x20\n      dup2\n      dup2\n      mstore\n      0x40\n      dup1\n      dup4\n      keccak256\n      sub(shl(0xa0, 0x01), 0x01)\n        /* \"BenefactorRegistration.sol\":3100:3151  benefactors[msg.sender].isBeneficiary[_beneficiary] */\n      dup6\n      and\n      dup5\n      mstore\n        /* \"BenefactorRegistration.sol\":3100:3137  benefactors[msg.sender].isBeneficiary */\n      0x02\n      add\n        /* \"BenefactorRegistration.sol\":3100:3151  benefactors[msg.sender].isBeneficiary[_beneficiary] */\n      swap1\n      swap2\n      mstore\n      swap1\n      keccak256\n      sload\n      0xff\n      and\n        /* \"BenefactorRegistration.sol\":3092:3177  require(benefactors[msg.sender].isBeneficiary[_beneficiary], \"Beneficiary not found\") */\n      tag_57\n      jumpi\n      mload(0x40)\n      shl(0xe5, 0x461bcd)\n      dup2\n      mstore\n        /* \"#utility.yul\":2116:2118   */\n      0x20\n        /* \"BenefactorRegistration.sol\":3092:3177  require(benefactors[msg.sender].isBeneficiary[_beneficiary], \"Beneficiary not found\") */\n      0x04\n      dup3\n      add\n        /* \"#utility.yul\":2098:2119   */\n      mstore\n        /* \"#utility.yul\":2155:2157   */\n      0x15\n        /* \"#utility.yul\":2135:2153   */\n      0x24\n      dup3\n      add\n        /* \"#utility.yul\":2128:2158   */\n      mstore\n        /* \"#utility.yul\":2194:2217   */\n      0x42656e6566696369617279206e6f7420666f756e640000000000000000000000\n        /* \"#utility.yul\":2174:2192   */\n      0x44\n      dup3\n      add\n        /* \"#utility.yul\":2167:2218   */\n      mstore\n        /* \"#utility.yul\":2235:2253   */\n      0x64\n      add\n        /* \"BenefactorRegistration.sol\":3092:3177  require(benefactors[msg.sender].isBeneficiary[_beneficiary], \"Beneficiary not found\") */\n      tag_42\n        /* \"#utility.yul\":1914:2259   */\n      jump\n        /* \"BenefactorRegistration.sol\":3092:3177  require(benefactors[msg.sender].isBeneficiary[_beneficiary], \"Beneficiary not found\") */\n    tag_57:\n        /* \"BenefactorRegistration.sol\":3195:3204  uint256 i */\n      0x00\n        /* \"BenefactorRegistration.sol\":3190:3608  for (uint256 i = 0; i < benefactors[msg.sender].beneficiaries.length; i++) {... */\n    tag_60:\n        /* \"BenefactorRegistration.sol\":3226:3236  msg.sender */\n      caller\n        /* \"BenefactorRegistration.sol\":3214:3225  benefactors */\n      0x00\n        /* \"BenefactorRegistration.sol\":3214:3237  benefactors[msg.sender] */\n      swap1\n      dup2\n      mstore\n      0x20\n      dup2\n      swap1\n      mstore\n      0x40\n      swap1\n      keccak256\n        /* \"BenefactorRegistration.sol\":3214:3251  benefactors[msg.sender].beneficiaries */\n      0x01\n      add\n        /* \"BenefactorRegistration.sol\":3214:3258  benefactors[msg.sender].beneficiaries.length */\n      sload\n        /* \"BenefactorRegistration.sol\":3210:3258  i < benefactors[msg.sender].beneficiaries.length */\n      dup2\n      lt\n        /* \"BenefactorRegistration.sol\":3190:3608  for (uint256 i = 0; i < benefactors[msg.sender].beneficiaries.length; i++) {... */\n      iszero\n      tag_61\n      jumpi\n        /* \"BenefactorRegistration.sol\":3296:3306  msg.sender */\n      caller\n        /* \"BenefactorRegistration.sol\":3284:3295  benefactors */\n      0x00\n        /* \"BenefactorRegistration.sol\":3284:3307  benefactors[msg.sender] */\n      swap1\n      dup2\n      mstore\n      0x20\n      dup2\n      swap1\n      mstore\n      0x40\n      swap1\n      keccak256\n        /* \"BenefactorRegistration.sol\":3284:3321  benefactors[msg.sender].beneficiaries */\n      0x01\n      add\n        /* \"BenefactorRegistration.sol\":3284:3324  benefactors[msg.sender].beneficiaries[i] */\n      dup1\n      sload\n      sub(shl(0xa0, 0x01), 0x01)\n        /* \"BenefactorRegistration.sol\":3284:3340  benefactors[msg.sender].beneficiaries[i] == _beneficiary */\n      dup5\n      and\n      swap2\n        /* \"BenefactorRegistration.sol\":3284:3321  benefactors[msg.sender].beneficiaries */\n      swap1\n        /* \"BenefactorRegistration.sol\":3322:3323  i */\n      dup4\n      swap1\n        /* \"BenefactorRegistration.sol\":3284:3324  benefactors[msg.sender].beneficiaries[i] */\n      dup2\n      lt\n      tag_64\n      jumpi\n      tag_64\n      tag_65\n      jump\t// in\n    tag_64:\n      0x00\n      swap2\n      dup3\n      mstore\n      0x20\n      swap1\n      swap2\n      keccak256\n      add\n      sload\n      sub(shl(0xa0, 0x01), 0x01)\n      and\n        /* \"BenefactorRegistration.sol\":3284:3340  benefactors[msg.sender].beneficiaries[i] == _beneficiary */\n      sub\n        /* \"BenefactorRegistration.sol\":3280:3597  if (benefactors[msg.sender].beneficiaries[i] == _beneficiary) {... */\n      tag_67\n      jumpi\n        /* \"BenefactorRegistration.sol\":3380:3390  msg.sender */\n      caller\n        /* \"BenefactorRegistration.sol\":3368:3379  benefactors */\n      0x00\n        /* \"BenefactorRegistration.sol\":3368:3391  benefactors[msg.sender] */\n      swap1\n      dup2\n      mstore\n      0x20\n      dup2\n      swap1\n      mstore\n      0x40\n      swap1\n      keccak256\n        /* \"BenefactorRegistration.sol\":3368:3405  benefactors[msg.sender].beneficiaries */\n      0x01\n      add\n        /* \"BenefactorRegistration.sol\":3368:3408  benefactors[msg.sender].beneficiaries[i] */\n      dup1\n      sload\n        /* \"BenefactorRegistration.sol\":3406:3407  i */\n      dup3\n      swap1\n        /* \"BenefactorRegistration.sol\":3368:3408  benefactors[msg.sender].beneficiaries[i] */\n      dup2\n      lt\n      tag_69\n      jumpi\n      tag_69\n      tag_65\n      jump\t// in\n    tag_69:\n      0x00\n      swap2\n      dup3\n      mstore\n      0x20\n      dup1\n      dup4\n      keccak256\n      swap1\n      swap2\n      add\n        /* \"BenefactorRegistration.sol\":3361:3408  delete benefactors[msg.sender].beneficiaries[i] */\n      dup1\n      sload\n      not(0xffffffffffffffffffffffffffffffffffffffff)\n      and\n      swap1\n      sstore\n        /* \"BenefactorRegistration.sol\":3439:3449  msg.sender */\n      caller\n        /* \"BenefactorRegistration.sol\":3427:3450  benefactors[msg.sender] */\n      dup1\n      dup4\n      mstore\n      dup3\n      dup3\n      mstore\n      0x40\n      dup1\n      dup5\n      keccak256\n      sub(shl(0xa0, 0x01), 0x01)\n        /* \"BenefactorRegistration.sol\":3427:3478  benefactors[msg.sender].isBeneficiary[_beneficiary] */\n      dup8\n      and\n      dup1\n      dup7\n      mstore\n        /* \"BenefactorRegistration.sol\":3427:3464  benefactors[msg.sender].isBeneficiary */\n      0x02\n      swap1\n      swap2\n      add\n        /* \"BenefactorRegistration.sol\":3427:3478  benefactors[msg.sender].isBeneficiary[_beneficiary] */\n      swap1\n      swap4\n      mstore\n      dup1\n      dup5\n      keccak256\n        /* \"BenefactorRegistration.sol\":3427:3486  benefactors[msg.sender].isBeneficiary[_beneficiary] = false */\n      dup1\n      sload\n      not(0xff)\n      and\n      swap1\n      sstore\n        /* \"BenefactorRegistration.sol\":3512:3556  BeneficiaryRemoved(msg.sender, _beneficiary) */\n      mload\n        /* \"BenefactorRegistration.sol\":3427:3478  benefactors[msg.sender].isBeneficiary[_beneficiary] */\n      swap2\n      swap3\n        /* \"BenefactorRegistration.sol\":3439:3449  msg.sender */\n      swap1\n      swap2\n        /* \"BenefactorRegistration.sol\":3512:3556  BeneficiaryRemoved(msg.sender, _beneficiary) */\n      0x1a6590bd0cabbfcc7c86bef99e1034054e179905cfcc294598fcd426c0922442\n      swap2\n        /* \"BenefactorRegistration.sol\":3368:3408  benefactors[msg.sender].beneficiaries[i] */\n      swap1\n        /* \"BenefactorRegistration.sol\":3512:3556  BeneficiaryRemoved(msg.sender, _beneficiary) */\n      log3\n        /* \"BenefactorRegistration.sol\":3575:3582  return; */\n      pop\n        /* \"BenefactorRegistration.sol\":2944:3615  function removeBeneficiary(address _beneficiary) external {... */\n      pop\n      jump\t// out\n        /* \"BenefactorRegistration.sol\":3280:3597  if (benefactors[msg.sender].beneficiaries[i] == _beneficiary) {... */\n    tag_67:\n        /* \"BenefactorRegistration.sol\":3260:3263  i++ */\n      dup1\n      tag_71\n      dup2\n      tag_72\n      jump\t// in\n    tag_71:\n      swap2\n      pop\n      pop\n        /* \"BenefactorRegistration.sol\":3190:3608  for (uint256 i = 0; i < benefactors[msg.sender].beneficiaries.length; i++) {... */\n      jump(tag_60)\n    tag_61:\n      pop\n        /* \"BenefactorRegistration.sol\":2944:3615  function removeBeneficiary(address _beneficiary) external {... */\n      pop\n      jump\t// out\n        /* \"BenefactorRegistration.sol\":1510:1683  function removeBenefactor() external {... */\n    tag_29:\n        /* \"BenefactorRegistration.sol\":1578:1588  msg.sender */\n      caller\n        /* \"BenefactorRegistration.sol\":1566:1577  benefactors */\n      0x00\n        /* \"BenefactorRegistration.sol\":1566:1589  benefactors[msg.sender] */\n      swap1\n      dup2\n      mstore\n      0x20\n      dup2\n      swap1\n      mstore\n      0x40\n      swap1\n      keccak256\n        /* \"BenefactorRegistration.sol\":1566:1596  benefactors[msg.sender].exists */\n      sload\n      0xff\n      and\n        /* \"BenefactorRegistration.sol\":1558:1626  require(benefactors[msg.sender].exists, \"Benefactor not registered\") */\n      tag_74\n      jumpi\n      mload(0x40)\n      shl(0xe5, 0x461bcd)\n      dup2\n      mstore\n        /* \"#utility.yul\":1408:1410   */\n      0x20\n        /* \"BenefactorRegistration.sol\":1558:1626  require(benefactors[msg.sender].exists, \"Benefactor not registered\") */\n      0x04\n      dup3\n      add\n        /* \"#utility.yul\":1390:1411   */\n      mstore\n        /* \"#utility.yul\":1447:1449   */\n      0x19\n        /* \"#utility.yul\":1427:1445   */\n      0x24\n      dup3\n      add\n        /* \"#utility.yul\":1420:1450   */\n      mstore\n        /* \"#utility.yul\":1486:1513   */\n      0x42656e65666163746f72206e6f74207265676973746572656400000000000000\n        /* \"#utility.yul\":1466:1484   */\n      0x44\n      dup3\n      add\n        /* \"#utility.yul\":1459:1514   */\n      mstore\n        /* \"#utility.yul\":1531:1549   */\n      0x64\n      add\n        /* \"BenefactorRegistration.sol\":1558:1626  require(benefactors[msg.sender].exists, \"Benefactor not registered\") */\n      tag_42\n        /* \"#utility.yul\":1206:1555   */\n      jump\n        /* \"BenefactorRegistration.sol\":1558:1626  require(benefactors[msg.sender].exists, \"Benefactor not registered\") */\n    tag_74:\n        /* \"BenefactorRegistration.sol\":1649:1659  msg.sender */\n      caller\n        /* \"BenefactorRegistration.sol\":1670:1675  false */\n      0x00\n        /* \"BenefactorRegistration.sol\":1637:1660  benefactors[msg.sender] */\n      swap1\n      dup2\n      mstore\n      0x20\n      dup2\n      swap1\n      mstore\n      0x40\n      swap1\n      keccak256\n        /* \"BenefactorRegistration.sol\":1637:1675  benefactors[msg.sender].exists = false */\n      dup1\n      sload\n      not(0xff)\n      and\n      swap1\n      sstore\n        /* \"BenefactorRegistration.sol\":1510:1683  function removeBenefactor() external {... */\n      jump\t// out\n        /* \"BenefactorRegistration.sol\":1186:1365  function registerBenefactor() external {... */\n    tag_35:\n        /* \"BenefactorRegistration.sol\":1257:1267  msg.sender */\n      caller\n        /* \"BenefactorRegistration.sol\":1245:1256  benefactors */\n      0x00\n        /* \"BenefactorRegistration.sol\":1245:1268  benefactors[msg.sender] */\n      swap1\n      dup2\n      mstore\n      0x20\n      dup2\n      swap1\n      mstore\n      0x40\n      swap1\n      keccak256\n        /* \"BenefactorRegistration.sol\":1245:1275  benefactors[msg.sender].exists */\n      sload\n      0xff\n      and\n        /* \"BenefactorRegistration.sol\":1244:1275  !benefactors[msg.sender].exists */\n      iszero\n        /* \"BenefactorRegistration.sol\":1236:1309  require(!benefactors[msg.sender].exists, \"Benefactor already registered\") */\n      tag_77\n      jumpi\n      mload(0x40)\n      shl(0xe5, 0x461bcd)\n      dup2\n      mstore\n        /* \"#utility.yul\":2835:2837   */\n      0x20\n        /* \"BenefactorRegistration.sol\":1236:1309  require(!benefactors[msg.sender].exists, \"Benefactor already registered\") */\n      0x04\n      dup3\n      add\n        /* \"#utility.yul\":2817:2838   */\n      mstore\n        /* \"#utility.yul\":2874:2876   */\n      0x1d\n        /* \"#utility.yul\":2854:2872   */\n      0x24\n      dup3\n      add\n        /* \"#utility.yul\":2847:2877   */\n      mstore\n        /* \"#utility.yul\":2913:2944   */\n      0x42656e65666163746f7220616c72656164792072656769737465726564000000\n        /* \"#utility.yul\":2893:2911   */\n      0x44\n      dup3\n      add\n        /* \"#utility.yul\":2886:2945   */\n      mstore\n        /* \"#utility.yul\":2962:2980   */\n      0x64\n      add\n        /* \"BenefactorRegistration.sol\":1236:1309  require(!benefactors[msg.sender].exists, \"Benefactor already registered\") */\n      tag_42\n        /* \"#utility.yul\":2633:2986   */\n      jump\n        /* \"BenefactorRegistration.sol\":1236:1309  require(!benefactors[msg.sender].exists, \"Benefactor already registered\") */\n    tag_77:\n        /* \"BenefactorRegistration.sol\":1332:1342  msg.sender */\n      caller\n        /* \"BenefactorRegistration.sol\":1320:1331  benefactors */\n      0x00\n        /* \"BenefactorRegistration.sol\":1320:1343  benefactors[msg.sender] */\n      swap1\n      dup2\n      mstore\n      0x20\n      dup2\n      swap1\n      mstore\n      0x40\n      swap1\n      keccak256\n        /* \"BenefactorRegistration.sol\":1320:1357  benefactors[msg.sender].exists = true */\n      dup1\n      sload\n      not(0xff)\n      and\n        /* \"BenefactorRegistration.sol\":1353:1357  true */\n      0x01\n        /* \"BenefactorRegistration.sol\":1320:1357  benefactors[msg.sender].exists = true */\n      or\n      swap1\n      sstore\n        /* \"BenefactorRegistration.sol\":1186:1365  function registerBenefactor() external {... */\n      jump\t// out\n        /* \"BenefactorRegistration.sol\":4382:4704  function isBeneficiary(address _benefactor) external view returns (bool) {... */\n    tag_38:\n        /* \"BenefactorRegistration.sol\":4449:4453  bool */\n      0x00\n      dup1\n        /* \"BenefactorRegistration.sol\":4466:4674  for (uint256 i = 0; i < benefactors[_benefactor].beneficiaries.length; i++) {... */\n    tag_81:\n      sub(shl(0xa0, 0x01), 0x01)\n        /* \"BenefactorRegistration.sol\":4490:4514  benefactors[_benefactor] */\n      dup4\n      and\n        /* \"BenefactorRegistration.sol\":4490:4501  benefactors */\n      0x00\n        /* \"BenefactorRegistration.sol\":4490:4514  benefactors[_benefactor] */\n      swap1\n      dup2\n      mstore\n      0x20\n      dup2\n      swap1\n      mstore\n      0x40\n      swap1\n      keccak256\n        /* \"BenefactorRegistration.sol\":4490:4528  benefactors[_benefactor].beneficiaries */\n      0x01\n      add\n        /* \"BenefactorRegistration.sol\":4490:4535  benefactors[_benefactor].beneficiaries.length */\n      sload\n        /* \"BenefactorRegistration.sol\":4486:4535  i < benefactors[_benefactor].beneficiaries.length */\n      dup2\n      lt\n        /* \"BenefactorRegistration.sol\":4466:4674  for (uint256 i = 0; i < benefactors[_benefactor].beneficiaries.length; i++) {... */\n      iszero\n      tag_82\n      jumpi\n      sub(shl(0xa0, 0x01), 0x01)\n        /* \"BenefactorRegistration.sol\":4561:4585  benefactors[_benefactor] */\n      dup4\n      and\n        /* \"BenefactorRegistration.sol\":4561:4572  benefactors */\n      0x00\n        /* \"BenefactorRegistration.sol\":4561:4585  benefactors[_benefactor] */\n      swap1\n      dup2\n      mstore\n      0x20\n      dup2\n      swap1\n      mstore\n      0x40\n      swap1\n      keccak256\n        /* \"BenefactorRegistration.sol\":4561:4599  benefactors[_benefactor].beneficiaries */\n      0x01\n      add\n        /* \"BenefactorRegistration.sol\":4561:4602  benefactors[_benefactor].beneficiaries[i] */\n      dup1\n      sload\n        /* \"BenefactorRegistration.sol\":4606:4616  msg.sender */\n      caller\n      swap2\n        /* \"BenefactorRegistration.sol\":4561:4599  benefactors[_benefactor].beneficiaries */\n      swap1\n        /* \"BenefactorRegistration.sol\":4600:4601  i */\n      dup4\n      swap1\n        /* \"BenefactorRegistration.sol\":4561:4602  benefactors[_benefactor].beneficiaries[i] */\n      dup2\n      lt\n      tag_85\n      jumpi\n      tag_85\n      tag_65\n      jump\t// in\n    tag_85:\n      0x00\n      swap2\n      dup3\n      mstore\n      0x20\n      swap1\n      swap2\n      keccak256\n      add\n      sload\n      sub(shl(0xa0, 0x01), 0x01)\n      and\n        /* \"BenefactorRegistration.sol\":4561:4616  benefactors[_benefactor].beneficiaries[i] == msg.sender */\n      sub\n        /* \"BenefactorRegistration.sol\":4557:4663  if (benefactors[_benefactor].beneficiaries[i] == msg.sender){... */\n      tag_87\n      jumpi\n      pop\n        /* \"BenefactorRegistration.sol\":4643:4647  true */\n      0x01\n      swap3\n        /* \"BenefactorRegistration.sol\":4382:4704  function isBeneficiary(address _benefactor) external view returns (bool) {... */\n      swap2\n      pop\n      pop\n      jump\t// out\n        /* \"BenefactorRegistration.sol\":4557:4663  if (benefactors[_benefactor].beneficiaries[i] == msg.sender){... */\n    tag_87:\n        /* \"BenefactorRegistration.sol\":4537:4540  i++ */\n      dup1\n      tag_88\n      dup2\n      tag_72\n      jump\t// in\n    tag_88:\n      swap2\n      pop\n      pop\n        /* \"BenefactorRegistration.sol\":4466:4674  for (uint256 i = 0; i < benefactors[_benefactor].beneficiaries.length; i++) {... */\n      jump(tag_81)\n    tag_82:\n      pop\n        /* \"BenefactorRegistration.sol\":4691:4696  false */\n      0x00\n      swap3\n        /* \"BenefactorRegistration.sol\":4382:4704  function isBeneficiary(address _benefactor) external view returns (bool) {... */\n      swap2\n      pop\n      pop\n      jump\t// out\n        /* \"#utility.yul\":14:323   */\n    tag_14:\n        /* \"#utility.yul\":73:79   */\n      0x00\n        /* \"#utility.yul\":126:128   */\n      0x20\n        /* \"#utility.yul\":114:123   */\n      dup3\n        /* \"#utility.yul\":105:112   */\n      dup5\n        /* \"#utility.yul\":101:124   */\n      sub\n        /* \"#utility.yul\":97:129   */\n      slt\n        /* \"#utility.yul\":94:146   */\n      iszero\n      tag_91\n      jumpi\n        /* \"#utility.yul\":142:143   */\n      0x00\n        /* \"#utility.yul\":139:140   */\n      dup1\n        /* \"#utility.yul\":132:144   */\n      revert\n        /* \"#utility.yul\":94:146   */\n    tag_91:\n        /* \"#utility.yul\":181:190   */\n      dup2\n        /* \"#utility.yul\":168:191   */\n      calldataload\n      sub(shl(0xa0, 0x01), 0x01)\n        /* \"#utility.yul\":224:229   */\n      dup2\n        /* \"#utility.yul\":220:274   */\n      and\n        /* \"#utility.yul\":213:218   */\n      dup2\n        /* \"#utility.yul\":210:275   */\n      eq\n        /* \"#utility.yul\":200:293   */\n      tag_92\n      jumpi\n        /* \"#utility.yul\":289:290   */\n      0x00\n        /* \"#utility.yul\":286:287   */\n      dup1\n        /* \"#utility.yul\":279:291   */\n      revert\n        /* \"#utility.yul\":200:293   */\n    tag_92:\n        /* \"#utility.yul\":312:317   */\n      swap4\n        /* \"#utility.yul\":14:323   */\n      swap3\n      pop\n      pop\n      pop\n      jump\t// out\n        /* \"#utility.yul\":328:1009   */\n    tag_17:\n        /* \"#utility.yul\":499:501   */\n      0x20\n        /* \"#utility.yul\":551:572   */\n      dup1\n      dup3\n      mstore\n        /* \"#utility.yul\":621:634   */\n      dup3\n      mload\n        /* \"#utility.yul\":524:542   */\n      dup3\n      dup3\n      add\n        /* \"#utility.yul\":643:665   */\n      dup2\n      swap1\n      mstore\n        /* \"#utility.yul\":470:474   */\n      0x00\n      swap2\n        /* \"#utility.yul\":499:501   */\n      swap1\n        /* \"#utility.yul\":722:737   */\n      dup5\n      dup3\n      add\n      swap1\n        /* \"#utility.yul\":696:698   */\n      0x40\n        /* \"#utility.yul\":681:699   */\n      dup6\n      add\n      swap1\n        /* \"#utility.yul\":470:474   */\n      dup5\n        /* \"#utility.yul\":765:983   */\n    tag_94:\n        /* \"#utility.yul\":779:785   */\n      dup2\n        /* \"#utility.yul\":776:777   */\n      dup2\n        /* \"#utility.yul\":773:786   */\n      lt\n        /* \"#utility.yul\":765:983   */\n      iszero\n      tag_96\n      jumpi\n        /* \"#utility.yul\":844:857   */\n      dup4\n      mload\n      sub(shl(0xa0, 0x01), 0x01)\n        /* \"#utility.yul\":840:902   */\n      and\n        /* \"#utility.yul\":828:903   */\n      dup4\n      mstore\n        /* \"#utility.yul\":958:973   */\n      swap3\n      dup5\n      add\n      swap3\n        /* \"#utility.yul\":923:935   */\n      swap2\n      dup5\n      add\n      swap2\n        /* \"#utility.yul\":801:802   */\n      0x01\n        /* \"#utility.yul\":794:803   */\n      add\n        /* \"#utility.yul\":765:983   */\n      jump(tag_94)\n    tag_96:\n      pop\n        /* \"#utility.yul\":1000:1003   */\n      swap1\n      swap7\n        /* \"#utility.yul\":328:1009   */\n      swap6\n      pop\n      pop\n      pop\n      pop\n      pop\n      pop\n      jump\t// out\n        /* \"#utility.yul\":2264:2391   */\n    tag_65:\n        /* \"#utility.yul\":2325:2335   */\n      0x4e487b71\n        /* \"#utility.yul\":2320:2323   */\n      0xe0\n        /* \"#utility.yul\":2316:2336   */\n      shl\n        /* \"#utility.yul\":2313:2314   */\n      0x00\n        /* \"#utility.yul\":2306:2337   */\n      mstore\n        /* \"#utility.yul\":2356:2360   */\n      0x32\n        /* \"#utility.yul\":2353:2354   */\n      0x04\n        /* \"#utility.yul\":2346:2361   */\n      mstore\n        /* \"#utility.yul\":2380:2384   */\n      0x24\n        /* \"#utility.yul\":2377:2378   */\n      0x00\n        /* \"#utility.yul\":2370:2385   */\n      revert\n        /* \"#utility.yul\":2396:2628   */\n    tag_72:\n        /* \"#utility.yul\":2435:2438   */\n      0x00\n        /* \"#utility.yul\":2456:2473   */\n      0x01\n      dup3\n      add\n        /* \"#utility.yul\":2453:2593   */\n      tag_103\n      jumpi\n        /* \"#utility.yul\":2515:2525   */\n      0x4e487b71\n        /* \"#utility.yul\":2510:2513   */\n      0xe0\n        /* \"#utility.yul\":2506:2526   */\n      shl\n        /* \"#utility.yul\":2503:2504   */\n      0x00\n        /* \"#utility.yul\":2496:2527   */\n      mstore\n        /* \"#utility.yul\":2550:2554   */\n      0x11\n        /* \"#utility.yul\":2547:2548   */\n      0x04\n        /* \"#utility.yul\":2540:2555   */\n      mstore\n        /* \"#utility.yul\":2578:2582   */\n      0x24\n        /* \"#utility.yul\":2575:2576   */\n      0x00\n        /* \"#utility.yul\":2568:2583   */\n      revert\n        /* \"#utility.yul\":2453:2593   */\n    tag_103:\n      pop\n        /* \"#utility.yul\":2620:2621   */\n      0x01\n        /* \"#utility.yul\":2609:2622   */\n      add\n      swap1\n        /* \"#utility.yul\":2396:2628   */\n      jump\t// out\n\n    auxdata: 0xa2646970667358221220e0f33d42463c16f727eb629a993436b79230a47f90b8b31e1e69d4e59d289e3064736f6c63430008110033\n}\n",
    "bytecode": {
      "linkReferences": {},
      "object": "608060405234801561001057600080fd5b506107ff806100206000396000f3fe608060405234801561001057600080fd5b50600436106100885760003560e01c80635c3c95861161005b5780635c3c9586146101025780637252c33a1461010a57806394341d371461012d5780639d19b2261461013557600080fd5b80631cab59a41461008d5780632a07f401146100b65780635926651d146100da57806359633a1c146100ef575b600080fd5b6100a061009b36600461070f565b610148565b6040516100ad919061073f565b60405180910390f35b3360009081526020819052604090205460ff165b60405190151581526020016100ad565b6100ed6100e836600461070f565b61022d565b005b6100ed6100fd36600461070f565b610391565b6100ed610586565b6100ca61011836600461070f565b60006020819052908152604090205460ff1681565b6100ed6105fe565b6100ca61014336600461070f565b61067a565b6001600160a01b03811660009081526020819052604090205460609060ff166101b85760405162461bcd60e51b815260206004820152601960248201527f42656e65666163746f72206e6f7420726567697374657265640000000000000060448201526064015b60405180910390fd5b6001600160a01b038216600090815260208181526040918290206001018054835181840281018401909452808452909183018282801561022157602002820191906000526020600020905b81546001600160a01b03168152600190910190602001808311610203575b50505050509050919050565b3360009081526020819052604090205460ff1661028c5760405162461bcd60e51b815260206004820152601960248201527f42656e65666163746f72206e6f7420726567697374657265640000000000000060448201526064016101af565b336000908152602081815260408083206001600160a01b038516845260020190915290205460ff16156103015760405162461bcd60e51b815260206004820152601960248201527f42656e656669636961727920616c72656164792061646465640000000000000060448201526064016101af565b3360008181526020818152604080832060018082018054808301825590865284862001805473ffffffffffffffffffffffffffffffffffffffff19166001600160a01b0389169081179091558086526002909201909352818420805460ff1916909317909255519092917fbb39c36a7502b7256e1a687254146a9a2ea7b146c77cb9e40eb0e2b8793781e191a350565b3360009081526020819052604090205460ff166103f05760405162461bcd60e51b815260206004820152601960248201527f42656e65666163746f72206e6f7420726567697374657265640000000000000060448201526064016101af565b336000908152602081815260408083206001600160a01b038516845260020190915290205460ff166104645760405162461bcd60e51b815260206004820152601560248201527f42656e6566696369617279206e6f7420666f756e64000000000000000000000060448201526064016101af565b60005b336000908152602081905260409020600101548110156105825733600090815260208190526040902060010180546001600160a01b0384169190839081106104b1576104b161078c565b6000918252602090912001546001600160a01b031603610570573360009081526020819052604090206001018054829081106104ef576104ef61078c565b60009182526020808320909101805473ffffffffffffffffffffffffffffffffffffffff191690553380835282825260408084206001600160a01b0387168086526002909101909352808420805460ff1916905551919290917f1a6590bd0cabbfcc7c86bef99e1034054e179905cfcc294598fcd426c09224429190a35050565b8061057a816107a2565b915050610467565b5050565b3360009081526020819052604090205460ff166105e55760405162461bcd60e51b815260206004820152601960248201527f42656e65666163746f72206e6f7420726567697374657265640000000000000060448201526064016101af565b336000908152602081905260409020805460ff19169055565b3360009081526020819052604090205460ff161561065e5760405162461bcd60e51b815260206004820152601d60248201527f42656e65666163746f7220616c7265616479207265676973746572656400000060448201526064016101af565b336000908152602081905260409020805460ff19166001179055565b6000805b6001600160a01b038316600090815260208190526040902060010154811015610706576001600160a01b03831660009081526020819052604090206001018054339190839081106106d1576106d161078c565b6000918252602090912001546001600160a01b0316036106f45750600192915050565b806106fe816107a2565b91505061067e565b50600092915050565b60006020828403121561072157600080fd5b81356001600160a01b038116811461073857600080fd5b9392505050565b6020808252825182820181905260009190848201906040850190845b818110156107805783516001600160a01b03168352928401929184019160010161075b565b50909695505050505050565b634e487b7160e01b600052603260045260246000fd5b6000600182016107c257634e487b7160e01b600052601160045260246000fd5b506001019056fea2646970667358221220e0f33d42463c16f727eb629a993436b79230a47f90b8b31e1e69d4e59d289e3064736f6c63430008110033",
      "opcodes": "PUSH1 0x80 PUSH1 0x40 MSTORE CALLVALUE DUP1 ISZERO PUSH2 0x10 JUMPI PUSH1 0x0 DUP1 REVERT JUMPDEST POP PUSH2 0x7FF DUP1 PUSH2 0x20 PUSH1 0x0 CODECOPY PUSH1 0x0 RETURN INVALID PUSH1 0x80 PUSH1 0x40 MSTORE CALLVALUE DUP1 ISZERO PUSH2 0x10 JUMPI PUSH1 0x0 DUP1 REVERT JUMPDEST POP PUSH1 0x4 CALLDATASIZE LT PUSH2 0x88 JUMPI PUSH1 0x0 CALLDATALOAD PUSH1 0xE0 SHR DUP1 PUSH4 0x5C3C9586 GT PUSH2 0x5B JUMPI DUP1 PUSH4 0x5C3C9586 EQ PUSH2 0x102 JUMPI DUP1 PUSH4 0x7252C33A EQ PUSH2 0x10A JUMPI DUP1 PUSH4 0x94341D37 EQ PUSH2 0x12D JUMPI DUP1 PUSH4 0x9D19B226 EQ PUSH2 0x135 JUMPI PUSH1 0x0 DUP1 REVERT JUMPDEST DUP1 PUSH4 0x1CAB59A4 EQ PUSH2 0x8D JUMPI DUP1 PUSH4 0x2A07F401 EQ PUSH2 0xB6 JUMPI DUP1 PUSH4 0x5926651D EQ PUSH2 0xDA JUMPI DUP1 PUSH4 0x59633A1C EQ PUSH2 0xEF JUMPI JUMPDEST PUSH1 0x0 DUP1 REVERT JUMPDEST PUSH2 0xA0 PUSH2 0x9B CALLDATASIZE PUSH1 0x4 PUSH2 0x70F JUMP JUMPDEST PUSH2 0x148 JUMP JUMPDEST PUSH1 0x40 MLOAD PUSH2 0xAD SWAP2 SWAP1 PUSH2 0x73F JUMP JUMPDEST PUSH1 0x40 MLOAD DUP1 SWAP2 SUB SWAP1 RETURN JUMPDEST CALLER PUSH1 0x0 SWAP1 DUP2 MSTORE PUSH1 0x20 DUP2 SWAP1 MSTORE PUSH1 0x40 SWAP1 KECCAK256 SLOAD PUSH1 0xFF AND JUMPDEST PUSH1 0x40 MLOAD SWAP1 ISZERO ISZERO DUP2 MSTORE PUSH1 0x20 ADD PUSH2 0xAD JUMP JUMPDEST PUSH2 0xED PUSH2 0xE8 CALLDATASIZE PUSH1 0x4 PUSH2 0x70F JUMP JUMPDEST PUSH2 0x22D JUMP JUMPDEST STOP JUMPDEST PUSH2 0xED PUSH2 0xFD CALLDATASIZE PUSH1 0x4 PUSH2 0x70F JUMP JUMPDEST PUSH2 0x391 JUMP JUMPDEST PUSH2 0xED PUSH2 0x586 JUMP JUMPDEST PUSH2 0xCA PUSH2 0x118 CALLDATASIZE PUSH1 0x4 PUSH2 0x70F JUMP JUMPDEST PUSH1 0x0 PUSH1 0x20 DUP2 SWAP1 MSTORE SWAP1 DUP2 MSTORE PUSH1 0x40 SWAP1 KECCAK256 SLOAD PUSH1 0xFF AND DUP2 JUMP JUMPDEST PUSH2 0xED PUSH2 0x5FE JUMP JUMPDEST PUSH2 0xCA PUSH2 0x143 CALLDATASIZE PUSH1 0x4 PUSH2 0x70F JUMP JUMPDEST PUSH2 0x67A JUMP JUMPDEST PUSH1 0x1 PUSH1 0x1 PUSH1 0xA0 SHL SUB DUP2 AND PUSH1 0x0 SWAP1 DUP2 MSTORE PUSH1 0x20 DUP2 SWAP1 MSTORE PUSH1 0x40 SWAP1 KECCAK256 SLOAD PUSH1 0x60 SWAP1 PUSH1 0xFF AND PUSH2 0x1B8 JUMPI PUSH1 0x40 MLOAD PUSH3 0x461BCD PUSH1 0xE5 SHL DUP2 MSTORE PUSH1 0x20 PUSH1 0x4 DUP3 ADD MSTORE PUSH1 0x19 PUSH1 0x24 DUP3 ADD MSTORE PUSH32 0x42656E65666163746F72206E6F74207265676973746572656400000000000000 PUSH1 0x44 DUP3 ADD MSTORE PUSH1 0x64 ADD JUMPDEST PUSH1 0x40 MLOAD DUP1 SWAP2 SUB SWAP1 REVERT JUMPDEST PUSH1 0x1 PUSH1 0x1 PUSH1 0xA0 SHL SUB DUP3 AND PUSH1 0x0 SWAP1 DUP2 MSTORE PUSH1 0x20 DUP2 DUP2 MSTORE PUSH1 0x40 SWAP2 DUP3 SWAP1 KECCAK256 PUSH1 0x1 ADD DUP1 SLOAD DUP4 MLOAD DUP2 DUP5 MUL DUP2 ADD DUP5 ADD SWAP1 SWAP5 MSTORE DUP1 DUP5 MSTORE SWAP1 SWAP2 DUP4 ADD DUP3 DUP3 DUP1 ISZERO PUSH2 0x221 JUMPI PUSH1 0x20 MUL DUP3 ADD SWAP2 SWAP1 PUSH1 0x0 MSTORE PUSH1 0x20 PUSH1 0x0 KECCAK256 SWAP1 JUMPDEST DUP2 SLOAD PUSH1 0x1 PUSH1 0x1 PUSH1 0xA0 SHL SUB AND DUP2 MSTORE PUSH1 0x1 SWAP1 SWAP2 ADD SWAP1 PUSH1 0x20 ADD DUP1 DUP4 GT PUSH2 0x203 JUMPI JUMPDEST POP POP POP POP POP SWAP1 POP SWAP2 SWAP1 POP JUMP JUMPDEST CALLER PUSH1 0x0 SWAP1 DUP2 MSTORE PUSH1 0x20 DUP2 SWAP1 MSTORE PUSH1 0x40 SWAP1 KECCAK256 SLOAD PUSH1 0xFF AND PUSH2 0x28C JUMPI PUSH1 0x40 MLOAD PUSH3 0x461BCD PUSH1 0xE5 SHL DUP2 MSTORE PUSH1 0x20 PUSH1 0x4 DUP3 ADD MSTORE PUSH1 0x19 PUSH1 0x24 DUP3 ADD MSTORE PUSH32 0x42656E65666163746F72206E6F74207265676973746572656400000000000000 PUSH1 0x44 DUP3 ADD MSTORE PUSH1 0x64 ADD PUSH2 0x1AF JUMP JUMPDEST CALLER PUSH1 0x0 SWAP1 DUP2 MSTORE PUSH1 0x20 DUP2 DUP2 MSTORE PUSH1 0x40 DUP1 DUP4 KECCAK256 PUSH1 0x1 PUSH1 0x1 PUSH1 0xA0 SHL SUB DUP6 AND DUP5 MSTORE PUSH1 0x2 ADD SWAP1 SWAP2 MSTORE SWAP1 KECCAK256 SLOAD PUSH1 0xFF AND ISZERO PUSH2 0x301 JUMPI PUSH1 0x40 MLOAD PUSH3 0x461BCD PUSH1 0xE5 SHL DUP2 MSTORE PUSH1 0x20 PUSH1 0x4 DUP3 ADD MSTORE PUSH1 0x19 PUSH1 0x24 DUP3 ADD MSTORE PUSH32 0x42656E656669636961727920616C726561647920616464656400000000000000 PUSH1 0x44 DUP3 ADD MSTORE PUSH1 0x64 ADD PUSH2 0x1AF JUMP JUMPDEST CALLER PUSH1 0x0 DUP2 DUP2 MSTORE PUSH1 0x20 DUP2 DUP2 MSTORE PUSH1 0x40 DUP1 DUP4 KECCAK256 PUSH1 0x1 DUP1 DUP3 ADD DUP1 SLOAD DUP1 DUP4 ADD DUP3 SSTORE SWAP1 DUP7 MSTORE DUP5 DUP7 KECCAK256 ADD DUP1 SLOAD PUSH20 0xFFFFFFFFFFFFFFFFFFFFFFFFFFFFFFFFFFFFFFFF NOT AND PUSH1 0x1 PUSH1 0x1 PUSH1 0xA0 SHL SUB DUP10 AND SWAP1 DUP2 OR SWAP1 SWAP2 SSTORE DUP1 DUP7 MSTORE PUSH1 0x2 SWAP1 SWAP3 ADD SWAP1 SWAP4 MSTORE DUP2 DUP5 KECCAK256 DUP1 SLOAD PUSH1 0xFF NOT AND SWAP1 SWAP4 OR SWAP1 SWAP3 SSTORE MLOAD SWAP1 SWAP3 SWAP2 PUSH32 0xBB39C36A7502B7256E1A687254146A9A2EA7B146C77CB9E40EB0E2B8793781E1 SWAP2 LOG3 POP JUMP JUMPDEST CALLER PUSH1 0x0 SWAP1 DUP2 MSTORE PUSH1 0x20 DUP2 SWAP1 MSTORE PUSH1 0x40 SWAP1 KECCAK256 SLOAD PUSH1 0xFF AND PUSH2 0x3F0 JUMPI PUSH1 0x40 MLOAD PUSH3 0x461BCD PUSH1 0xE5 SHL DUP2 MSTORE PUSH1 0x20 PUSH1 0x4 DUP3 ADD MSTORE PUSH1 0x19 PUSH1 0x24 DUP3 ADD MSTORE PUSH32 0x42656E65666163746F72206E6F74207265676973746572656400000000000000 PUSH1 0x44 DUP3 ADD MSTORE PUSH1 0x64 ADD PUSH2 0x1AF JUMP JUMPDEST CALLER PUSH1 0x0 SWAP1 DUP2 MSTORE PUSH1 0x20 DUP2 DUP2 MSTORE PUSH1 0x40 DUP1 DUP4 KECCAK256 PUSH1 0x1 PUSH1 0x1 PUSH1 0xA0 SHL SUB DUP6 AND DUP5 MSTORE PUSH1 0x2 ADD SWAP1 SWAP2 MSTORE SWAP1 KECCAK256 SLOAD PUSH1 0xFF AND PUSH2 0x464 JUMPI PUSH1 0x40 MLOAD PUSH3 0x461BCD PUSH1 0xE5 SHL DUP2 MSTORE PUSH1 0x20 PUSH1 0x4 DUP3 ADD MSTORE PUSH1 0x15 PUSH1 0x24 DUP3 ADD MSTORE PUSH32 0x42656E6566696369617279206E6F7420666F756E640000000000000000000000 PUSH1 0x44 DUP3 ADD MSTORE PUSH1 0x64 ADD PUSH2 0x1AF JUMP JUMPDEST PUSH1 0x0 JUMPDEST CALLER PUSH1 0x0 SWAP1 DUP2 MSTORE PUSH1 0x20 DUP2 SWAP1 MSTORE PUSH1 0x40 SWAP1 KECCAK256 PUSH1 0x1 ADD SLOAD DUP2 LT ISZERO PUSH2 0x582 JUMPI CALLER PUSH1 0x0 SWAP1 DUP2 MSTORE PUSH1 0x20 DUP2 SWAP1 MSTORE PUSH1 0x40 SWAP1 KECCAK256 PUSH1 0x1 ADD DUP1 SLOAD PUSH1 0x1 PUSH1 0x1 PUSH1 0xA0 SHL SUB DUP5 AND SWAP2 SWAP1 DUP4 SWAP1 DUP2 LT PUSH2 0x4B1 JUMPI PUSH2 0x4B1 PUSH2 0x78C JUMP JUMPDEST PUSH1 0x0 SWAP2 DUP3 MSTORE PUSH1 0x20 SWAP1 SWAP2 KECCAK256 ADD SLOAD PUSH1 0x1 PUSH1 0x1 PUSH1 0xA0 SHL SUB AND SUB PUSH2 0x570 JUMPI CALLER PUSH1 0x0 SWAP1 DUP2 MSTORE PUSH1 0x20 DUP2 SWAP1 MSTORE PUSH1 0x40 SWAP1 KECCAK256 PUSH1 0x1 ADD DUP1 SLOAD DUP3 SWAP1 DUP2 LT PUSH2 0x4EF JUMPI PUSH2 0x4EF PUSH2 0x78C JUMP JUMPDEST PUSH1 0x0 SWAP2 DUP3 MSTORE PUSH1 0x20 DUP1 DUP4 KECCAK256 SWAP1 SWAP2 ADD DUP1 SLOAD PUSH20 0xFFFFFFFFFFFFFFFFFFFFFFFFFFFFFFFFFFFFFFFF NOT AND SWAP1 SSTORE CALLER DUP1 DUP4 MSTORE DUP3 DUP3 MSTORE PUSH1 0x40 DUP1 DUP5 KECCAK256 PUSH1 0x1 PUSH1 0x1 PUSH1 0xA0 SHL SUB DUP8 AND DUP1 DUP7 MSTORE PUSH1 0x2 SWAP1 SWAP2 ADD SWAP1 SWAP4 MSTORE DUP1 DUP5 KECCAK256 DUP1 SLOAD PUSH1 0xFF NOT AND SWAP1 SSTORE MLOAD SWAP2 SWAP3 SWAP1 SWAP2 PUSH32 0x1A6590BD0CABBFCC7C86BEF99E1034054E179905CFCC294598FCD426C0922442 SWAP2 SWAP1 LOG3 POP POP JUMP JUMPDEST DUP1 PUSH2 0x57A DUP2 PUSH2 0x7A2 JUMP JUMPDEST SWAP2 POP POP PUSH2 0x467 JUMP JUMPDEST POP POP JUMP JUMPDEST CALLER PUSH1 0x0 SWAP1 DUP2 MSTORE PUSH1 0x20 DUP2 SWAP1 MSTORE PUSH1 0x40 SWAP1 KECCAK256 SLOAD PUSH1 0xFF AND PUSH2 0x5E5 JUMPI PUSH1 0x40 MLOAD PUSH3 0x461BCD PUSH1 0xE5 SHL DUP2 MSTORE PUSH1 0x20 PUSH1 0x4 DUP3 ADD MSTORE PUSH1 0x19 PUSH1 0x24 DUP3 ADD MSTORE PUSH32 0x42656E65666163746F72206E6F74207265676973746572656400000000000000 PUSH1 0x44 DUP3 ADD MSTORE PUSH1 0x64 ADD PUSH2 0x1AF JUMP JUMPDEST CALLER PUSH1 0x0 SWAP1 DUP2 MSTORE PUSH1 0x20 DUP2 SWAP1 MSTORE PUSH1 0x40 SWAP1 KECCAK256 DUP1 SLOAD PUSH1 0xFF NOT AND SWAP1 SSTORE JUMP JUMPDEST CALLER PUSH1 0x0 SWAP1 DUP2 MSTORE PUSH1 0x20 DUP2 SWAP1 MSTORE PUSH1 0x40 SWAP1 KECCAK256 SLOAD PUSH1 0xFF AND ISZERO PUSH2 0x65E JUMPI PUSH1 0x40 MLOAD PUSH3 0x461BCD PUSH1 0xE5 SHL DUP2 MSTORE PUSH1 0x20 PUSH1 0x4 DUP3 ADD MSTORE PUSH1 0x1D PUSH1 0x24 DUP3 ADD MSTORE PUSH32 0x42656E65666163746F7220616C72656164792072656769737465726564000000 PUSH1 0x44 DUP3 ADD MSTORE PUSH1 0x64 ADD PUSH2 0x1AF JUMP JUMPDEST CALLER PUSH1 0x0 SWAP1 DUP2 MSTORE PUSH1 0x20 DUP2 SWAP1 MSTORE PUSH1 0x40 SWAP1 KECCAK256 DUP1 SLOAD PUSH1 0xFF NOT AND PUSH1 0x1 OR SWAP1 SSTORE JUMP JUMPDEST PUSH1 0x0 DUP1 JUMPDEST PUSH1 0x1 PUSH1 0x1 PUSH1 0xA0 SHL SUB DUP4 AND PUSH1 0x0 SWAP1 DUP2 MSTORE PUSH1 0x20 DUP2 SWAP1 MSTORE PUSH1 0x40 SWAP1 KECCAK256 PUSH1 0x1 ADD SLOAD DUP2 LT ISZERO PUSH2 0x706 JUMPI PUSH1 0x1 PUSH1 0x1 PUSH1 0xA0 SHL SUB DUP4 AND PUSH1 0x0 SWAP1 DUP2 MSTORE PUSH1 0x20 DUP2 SWAP1 MSTORE PUSH1 0x40 SWAP1 KECCAK256 PUSH1 0x1 ADD DUP1 SLOAD CALLER SWAP2 SWAP1 DUP4 SWAP1 DUP2 LT PUSH2 0x6D1 JUMPI PUSH2 0x6D1 PUSH2 0x78C JUMP JUMPDEST PUSH1 0x0 SWAP2 DUP3 MSTORE PUSH1 0x20 SWAP1 SWAP2 KECCAK256 ADD SLOAD PUSH1 0x1 PUSH1 0x1 PUSH1 0xA0 SHL SUB AND SUB PUSH2 0x6F4 JUMPI POP PUSH1 0x1 SWAP3 SWAP2 POP POP JUMP JUMPDEST DUP1 PUSH2 0x6FE DUP2 PUSH2 0x7A2 JUMP JUMPDEST SWAP2 POP POP PUSH2 0x67E JUMP JUMPDEST POP PUSH1 0x0 SWAP3 SWAP2 POP POP JUMP JUMPDEST PUSH1 0x0 PUSH1 0x20 DUP3 DUP5 SUB SLT ISZERO PUSH2 0x721 JUMPI PUSH1 0x0 DUP1 REVERT JUMPDEST DUP2 CALLDATALOAD PUSH1 0x1 PUSH1 0x1 PUSH1 0xA0 SHL SUB DUP2 AND DUP2 EQ PUSH2 0x738 JUMPI PUSH1 0x0 DUP1 REVERT JUMPDEST SWAP4 SWAP3 POP POP POP JUMP JUMPDEST PUSH1 0x20 DUP1 DUP3 MSTORE DUP3 MLOAD DUP3 DUP3 ADD DUP2 SWAP1 MSTORE PUSH1 0x0 SWAP2 SWAP1 DUP5 DUP3 ADD SWAP1 PUSH1 0x40 DUP6 ADD SWAP1 DUP5 JUMPDEST DUP2 DUP2 LT ISZERO PUSH2 0x780 JUMPI DUP4 MLOAD PUSH1 0x1 PUSH1 0x1 PUSH1 0xA0 SHL SUB AND DUP4 MSTORE SWAP3 DUP5 ADD SWAP3 SWAP2 DUP5 ADD SWAP2 PUSH1 0x1 ADD PUSH2 0x75B JUMP JUMPDEST POP SWAP1 SWAP7 SWAP6 POP POP POP POP POP POP JUMP JUMPDEST PUSH4 0x4E487B71 PUSH1 0xE0 SHL PUSH1 0x0 MSTORE PUSH1 0x32 PUSH1 0x4 MSTORE PUSH1 0x24 PUSH1 0x0 REVERT JUMPDEST PUSH1 0x0 PUSH1 0x1 DUP3 ADD PUSH2 0x7C2 JUMPI PUSH4 0x4E487B71 PUSH1 0xE0 SHL PUSH1 0x0 MSTORE PUSH1 0x11 PUSH1 0x4 MSTORE PUSH1 0x24 PUSH1 0x0 REVERT JUMPDEST POP PUSH1 0x1 ADD SWAP1 JUMP INVALID LOG2 PUSH5 0x6970667358 0x22 SLT KECCAK256 0xE0 RETURN RETURNDATASIZE TIMESTAMP CHAINID EXTCODECOPY AND 0xF7 0x27 0xEB PUSH3 0x9A9934 CALLDATASIZE 0xB7 SWAP3 ADDRESS LOG4 PUSH32 0x90B8B31E1E69D4E59D289E3064736F6C63430008110033000000000000000000 "
    },
    "gasEstimates": {
      "creation": {
        "codeDepositCost": "409400",
        "executionCost": "443",
        "totalCost": "409843"
      },
      "external": {
        "addBeneficiary(address)": "79224",
        "benefactors(address)": "2521",
        "getBeneficiaries(address)": "infinite",
        "isBenefactor()": "2387",
        "isBeneficiary(address)": "infinite",
        "registerBenefactor()": "26680",
        "removeBenefactor()": "26627",
        "removeBeneficiary(address)": "infinite"
      }
    },
    "methodIdentifiers": {
      "addBeneficiary(address)": "5926651d",
      "benefactors(address)": "7252c33a",
      "getBeneficiaries(address)": "1cab59a4",
      "isBenefactor()": "2a07f401",
      "isBeneficiary(address)": "9d19b226",
      "registerBenefactor()": "94341d37",
      "removeBenefactor()": "5c3c9586",
      "removeBeneficiary(address)": "59633a1c"
    }
  },
  "storageLayout": {
    "storage": [
      {
        "astId": 17,
        "contract": "BenefactorRegistration.sol:BenefactorRegistration",
        "label": "benefactors",
        "offset": 0,
        "slot": "0",
        "type": "t_mapping(t_address,t_struct(Benefactor)12_storage)"
      }
    ],
    "types": {
      "t_address": {
        "encoding": "inplace",
        "label": "address",
        "numberOfBytes": "20"
      },
      "t_array(t_address)dyn_storage": {
        "base": "t_address",
        "encoding": "dynamic_array",
        "label": "address[]",
        "numberOfBytes": "32"
      },
      "t_bool": {
        "encoding": "inplace",
        "label": "bool",
        "numberOfBytes": "1"
      },
      "t_mapping(t_address,t_bool)": {
        "encoding": "mapping",
        "key": "t_address",
        "label": "mapping(address => bool)",
        "numberOfBytes": "32",
        "value": "t_bool"
      },
      "t_mapping(t_address,t_struct(Benefactor)12_storage)": {
        "encoding": "mapping",
        "key": "t_address",
        "label": "mapping(address => struct BenefactorRegistration.Benefactor)",
        "numberOfBytes": "32",
        "value": "t_struct(Benefactor)12_storage"
      },
      "t_struct(Benefactor)12_storage": {
        "encoding": "inplace",
        "label": "struct BenefactorRegistration.Benefactor",
        "members": [
          {
            "astId": 4,
            "contract": "BenefactorRegistration.sol:BenefactorRegistration",
            "label": "exists",
            "offset": 0,
            "slot": "0",
            "type": "t_bool"
          },
          {
            "astId": 7,
            "contract": "BenefactorRegistration.sol:BenefactorRegistration",
            "label": "beneficiaries",
            "offset": 0,
            "slot": "1",
            "type": "t_array(t_address)dyn_storage"
          },
          {
            "astId": 11,
            "contract": "BenefactorRegistration.sol:BenefactorRegistration",
            "label": "isBeneficiary",
            "offset": 0,
            "slot": "2",
            "type": "t_mapping(t_address,t_bool)"
          }
        ],
        "numberOfBytes": "96"
      }
    }
  },
  "userdoc": {
    "kind": "user",
    "methods": {},
    "version": 1
  }
}