{
  "abi": [
    {
      "anonymous": false,
      "inputs": [
        {
          "indexed": true,
          "internalType": "address",
          "name": "benefactor",
          "type": "address"
        },
        {
          "indexed": true,
          "internalType": "address",
          "name": "beneficiary",
          "type": "address"
        }
      ],
      "name": "BeneficiaryAdded",
      "type": "event"
    },
    {
      "anonymous": false,
      "inputs": [
        {
          "indexed": true,
          "internalType": "address",
          "name": "benefactor",
          "type": "address"
        },
        {
          "indexed": true,
          "internalType": "address",
          "name": "beneficiary",
          "type": "address"
        }
      ],
      "name": "BeneficiaryRemoved",
      "type": "event"
    },
    {
      "inputs": [
        {
          "internalType": "address",
          "name": "_beneficiary",
          "type": "address"
        }
      ],
      "name": "addBeneficiary",
      "outputs": [],
      "stateMutability": "nonpayable",
      "type": "function"
    },
    {
      "inputs": [
        {
          "internalType": "address",
          "name": "",
          "type": "address"
        }
      ],
      "name": "benefactors",
      "outputs": [
        {
          "internalType": "bool",
          "name": "exists",
          "type": "bool"
        }
      ],
      "stateMutability": "view",
      "type": "function"
    },
    {
      "inputs": [
        {
          "internalType": "address",
          "name": "_benefactor",
          "type": "address"
        }
      ],
      "name": "getBeneficiaries",
      "outputs": [
        {
          "internalType": "address[]",
          "name": "",
          "type": "address[]"
        }
      ],
      "stateMutability": "view",
      "type": "function"
    },
    {
      "inputs": [],
      "name": "registerBenefactor",
      "outputs": [],
      "stateMutability": "nonpayable",
      "type": "function"
    },
    {
      "inputs": [
        {
          "internalType": "address",
          "name": "_beneficiary",
          "type": "address"
        }
      ],
      "name": "removeBeneficiary",
      "outputs": [],
      "stateMutability": "nonpayable",
      "type": "function"
    }
  ],
  "devdoc": {
    "kind": "dev",
    "methods": {},
    "version": 1
  },
  "evm": {
    "assembly": "    /* \"BenefactorRegistration.sol\":60:2022  contract BenefactorRegistration {... */\n  mstore(0x40, 0x80)\n  callvalue\n  dup1\n  iszero\n  tag_1\n  jumpi\n  0x00\n  dup1\n  revert\ntag_1:\n  pop\n  dataSize(sub_0)\n  dup1\n  dataOffset(sub_0)\n  0x00\n  codecopy\n  0x00\n  return\nstop\n\nsub_0: assembly {\n        /* \"BenefactorRegistration.sol\":60:2022  contract BenefactorRegistration {... */\n      mstore(0x40, 0x80)\n      callvalue\n      dup1\n      iszero\n      tag_1\n      jumpi\n      0x00\n      dup1\n      revert\n    tag_1:\n      pop\n      jumpi(tag_2, lt(calldatasize, 0x04))\n      shr(0xe0, calldataload(0x00))\n      dup1\n      0x59633a1c\n      gt\n      tag_8\n      jumpi\n      dup1\n      0x59633a1c\n      eq\n      tag_5\n      jumpi\n      dup1\n      0x7252c33a\n      eq\n      tag_6\n      jumpi\n      dup1\n      0x94341d37\n      eq\n      tag_7\n      jumpi\n      0x00\n      dup1\n      revert\n    tag_8:\n      dup1\n      0x1cab59a4\n      eq\n      tag_3\n      jumpi\n      dup1\n      0x5926651d\n      eq\n      tag_4\n      jumpi\n    tag_2:\n      0x00\n      dup1\n      revert\n        /* \"BenefactorRegistration.sol\":1787:2019  function getBeneficiaries(address _benefactor) external view returns (address[] memory) {... */\n    tag_3:\n      tag_9\n      tag_10\n      calldatasize\n      0x04\n      tag_11\n      jump\t// in\n    tag_10:\n      tag_12\n      jump\t// in\n    tag_9:\n      mload(0x40)\n      tag_13\n      swap2\n      swap1\n      tag_14\n      jump\t// in\n    tag_13:\n      mload(0x40)\n      dup1\n      swap2\n      sub\n      swap1\n      return\n        /* \"BenefactorRegistration.sol\":659:1100  function addBeneficiary(address _beneficiary) external {... */\n    tag_4:\n      tag_15\n      tag_16\n      calldatasize\n      0x04\n      tag_11\n      jump\t// in\n    tag_16:\n      tag_17\n      jump\t// in\n    tag_15:\n      stop\n        /* \"BenefactorRegistration.sol\":1108:1779  function removeBeneficiary(address _beneficiary) external {... */\n    tag_5:\n      tag_15\n      tag_19\n      calldatasize\n      0x04\n      tag_11\n      jump\t// in\n    tag_19:\n      tag_20\n      jump\t// in\n        /* \"BenefactorRegistration.sol\":238:287  mapping(address => Benefactor) public benefactors */\n    tag_6:\n      tag_21\n      tag_22\n      calldatasize\n      0x04\n      tag_11\n      jump\t// in\n    tag_22:\n      0x00\n      0x20\n      dup2\n      swap1\n      mstore\n      swap1\n      dup2\n      mstore\n      0x40\n      swap1\n      keccak256\n      sload\n      0xff\n      and\n      dup2\n      jump\n    tag_21:\n      mload(0x40)\n        /* \"#utility.yul\":1179:1193   */\n      swap1\n      iszero\n        /* \"#utility.yul\":1172:1194   */\n      iszero\n        /* \"#utility.yul\":1154:1195   */\n      dup2\n      mstore\n        /* \"#utility.yul\":1142:1144   */\n      0x20\n        /* \"#utility.yul\":1127:1145   */\n      add\n        /* \"BenefactorRegistration.sol\":238:287  mapping(address => Benefactor) public benefactors */\n      tag_13\n        /* \"#utility.yul\":1014:1201   */\n      jump\n        /* \"BenefactorRegistration.sol\":472:651  function registerBenefactor() external {... */\n    tag_7:\n      tag_15\n      tag_27\n      jump\t// in\n        /* \"BenefactorRegistration.sol\":1787:2019  function getBeneficiaries(address _benefactor) external view returns (address[] memory) {... */\n    tag_12:\n      sub(shl(0xa0, 0x01), 0x01)\n        /* \"BenefactorRegistration.sol\":1894:1918  benefactors[_benefactor] */\n      dup2\n      and\n        /* \"BenefactorRegistration.sol\":1894:1905  benefactors */\n      0x00\n        /* \"BenefactorRegistration.sol\":1894:1918  benefactors[_benefactor] */\n      swap1\n      dup2\n      mstore\n      0x20\n      dup2\n      swap1\n      mstore\n      0x40\n      swap1\n      keccak256\n        /* \"BenefactorRegistration.sol\":1894:1925  benefactors[_benefactor].exists */\n      sload\n        /* \"BenefactorRegistration.sol\":1857:1873  address[] memory */\n      0x60\n      swap1\n        /* \"BenefactorRegistration.sol\":1894:1925  benefactors[_benefactor].exists */\n      0xff\n      and\n        /* \"BenefactorRegistration.sol\":1886:1955  require(benefactors[_benefactor].exists, \"Benefactor not registered\") */\n      tag_29\n      jumpi\n      mload(0x40)\n      shl(0xe5, 0x461bcd)\n      dup2\n      mstore\n        /* \"#utility.yul\":1408:1410   */\n      0x20\n        /* \"BenefactorRegistration.sol\":1886:1955  require(benefactors[_benefactor].exists, \"Benefactor not registered\") */\n      0x04\n      dup3\n      add\n        /* \"#utility.yul\":1390:1411   */\n      mstore\n        /* \"#utility.yul\":1447:1449   */\n      0x19\n        /* \"#utility.yul\":1427:1445   */\n      0x24\n      dup3\n      add\n        /* \"#utility.yul\":1420:1450   */\n      mstore\n        /* \"#utility.yul\":1486:1513   */\n      0x42656e65666163746f72206e6f74207265676973746572656400000000000000\n        /* \"#utility.yul\":1466:1484   */\n      0x44\n      dup3\n      add\n        /* \"#utility.yul\":1459:1514   */\n      mstore\n        /* \"#utility.yul\":1531:1549   */\n      0x64\n      add\n        /* \"BenefactorRegistration.sol\":1886:1955  require(benefactors[_benefactor].exists, \"Benefactor not registered\") */\n    tag_30:\n      mload(0x40)\n      dup1\n      swap2\n      sub\n      swap1\n      revert\n    tag_29:\n      sub(shl(0xa0, 0x01), 0x01)\n        /* \"BenefactorRegistration.sol\":1973:1997  benefactors[_benefactor] */\n      dup3\n      and\n        /* \"BenefactorRegistration.sol\":1973:1984  benefactors */\n      0x00\n        /* \"BenefactorRegistration.sol\":1973:1997  benefactors[_benefactor] */\n      swap1\n      dup2\n      mstore\n      0x20\n      dup2\n      dup2\n      mstore\n      0x40\n      swap2\n      dup3\n      swap1\n      keccak256\n        /* \"BenefactorRegistration.sol\":1973:2011  benefactors[_benefactor].beneficiaries */\n      0x01\n      add\n        /* \"BenefactorRegistration.sol\":1966:2011  return benefactors[_benefactor].beneficiaries */\n      dup1\n      sload\n      dup4\n      mload\n      dup2\n      dup5\n      mul\n      dup2\n      add\n      dup5\n      add\n      swap1\n      swap5\n      mstore\n      dup1\n      dup5\n      mstore\n        /* \"BenefactorRegistration.sol\":1973:2011  benefactors[_benefactor].beneficiaries */\n      swap1\n      swap2\n        /* \"BenefactorRegistration.sol\":1966:2011  return benefactors[_benefactor].beneficiaries */\n      dup4\n      add\n        /* \"BenefactorRegistration.sol\":1973:2011  benefactors[_benefactor].beneficiaries */\n      dup3\n        /* \"BenefactorRegistration.sol\":1966:2011  return benefactors[_benefactor].beneficiaries */\n      dup3\n      dup1\n      iszero\n      tag_32\n      jumpi\n      0x20\n      mul\n      dup3\n      add\n      swap2\n      swap1\n      0x00\n      mstore\n      keccak256(0x00, 0x20)\n      swap1\n    tag_33:\n      dup2\n      sload\n      sub(shl(0xa0, 0x01), 0x01)\n      and\n      dup2\n      mstore\n      0x01\n      swap1\n      swap2\n      add\n      swap1\n      0x20\n      add\n      dup1\n      dup4\n      gt\n      tag_33\n      jumpi\n    tag_32:\n      pop\n      pop\n      pop\n      pop\n      pop\n      swap1\n      pop\n        /* \"BenefactorRegistration.sol\":1787:2019  function getBeneficiaries(address _benefactor) external view returns (address[] memory) {... */\n      swap2\n      swap1\n      pop\n      jump\t// out\n        /* \"BenefactorRegistration.sol\":659:1100  function addBeneficiary(address _beneficiary) external {... */\n    tag_17:\n        /* \"BenefactorRegistration.sol\":745:755  msg.sender */\n      caller\n        /* \"BenefactorRegistration.sol\":733:744  benefactors */\n      0x00\n        /* \"BenefactorRegistration.sol\":733:756  benefactors[msg.sender] */\n      swap1\n      dup2\n      mstore\n      0x20\n      dup2\n      swap1\n      mstore\n      0x40\n      swap1\n      keccak256\n        /* \"BenefactorRegistration.sol\":733:763  benefactors[msg.sender].exists */\n      sload\n      0xff\n      and\n        /* \"BenefactorRegistration.sol\":725:793  require(benefactors[msg.sender].exists, \"Benefactor not registered\") */\n      tag_35\n      jumpi\n      mload(0x40)\n      shl(0xe5, 0x461bcd)\n      dup2\n      mstore\n        /* \"#utility.yul\":1408:1410   */\n      0x20\n        /* \"BenefactorRegistration.sol\":725:793  require(benefactors[msg.sender].exists, \"Benefactor not registered\") */\n      0x04\n      dup3\n      add\n        /* \"#utility.yul\":1390:1411   */\n      mstore\n        /* \"#utility.yul\":1447:1449   */\n      0x19\n        /* \"#utility.yul\":1427:1445   */\n      0x24\n      dup3\n      add\n        /* \"#utility.yul\":1420:1450   */\n      mstore\n        /* \"#utility.yul\":1486:1513   */\n      0x42656e65666163746f72206e6f74207265676973746572656400000000000000\n        /* \"#utility.yul\":1466:1484   */\n      0x44\n      dup3\n      add\n        /* \"#utility.yul\":1459:1514   */\n      mstore\n        /* \"#utility.yul\":1531:1549   */\n      0x64\n      add\n        /* \"BenefactorRegistration.sol\":725:793  require(benefactors[msg.sender].exists, \"Benefactor not registered\") */\n      tag_30\n        /* \"#utility.yul\":1206:1555   */\n      jump\n        /* \"BenefactorRegistration.sol\":725:793  require(benefactors[msg.sender].exists, \"Benefactor not registered\") */\n    tag_35:\n        /* \"BenefactorRegistration.sol\":825:835  msg.sender */\n      caller\n        /* \"BenefactorRegistration.sol\":813:824  benefactors */\n      0x00\n        /* \"BenefactorRegistration.sol\":813:836  benefactors[msg.sender] */\n      swap1\n      dup2\n      mstore\n      0x20\n      dup2\n      dup2\n      mstore\n      0x40\n      dup1\n      dup4\n      keccak256\n      sub(shl(0xa0, 0x01), 0x01)\n        /* \"BenefactorRegistration.sol\":813:864  benefactors[msg.sender].isBeneficiary[_beneficiary] */\n      dup6\n      and\n      dup5\n      mstore\n        /* \"BenefactorRegistration.sol\":813:850  benefactors[msg.sender].isBeneficiary */\n      0x02\n      add\n        /* \"BenefactorRegistration.sol\":813:864  benefactors[msg.sender].isBeneficiary[_beneficiary] */\n      swap1\n      swap2\n      mstore\n      swap1\n      keccak256\n      sload\n      0xff\n      and\n        /* \"BenefactorRegistration.sol\":812:864  !benefactors[msg.sender].isBeneficiary[_beneficiary] */\n      iszero\n        /* \"BenefactorRegistration.sol\":804:894  require(!benefactors[msg.sender].isBeneficiary[_beneficiary], \"Beneficiary already added\") */\n      tag_37\n      jumpi\n      mload(0x40)\n      shl(0xe5, 0x461bcd)\n      dup2\n      mstore\n        /* \"#utility.yul\":1762:1764   */\n      0x20\n        /* \"BenefactorRegistration.sol\":804:894  require(!benefactors[msg.sender].isBeneficiary[_beneficiary], \"Beneficiary already added\") */\n      0x04\n      dup3\n      add\n        /* \"#utility.yul\":1744:1765   */\n      mstore\n        /* \"#utility.yul\":1801:1803   */\n      0x19\n        /* \"#utility.yul\":1781:1799   */\n      0x24\n      dup3\n      add\n        /* \"#utility.yul\":1774:1804   */\n      mstore\n        /* \"#utility.yul\":1840:1867   */\n      0x42656e656669636961727920616c726561647920616464656400000000000000\n        /* \"#utility.yul\":1820:1838   */\n      0x44\n      dup3\n      add\n        /* \"#utility.yul\":1813:1868   */\n      mstore\n        /* \"#utility.yul\":1885:1903   */\n      0x64\n      add\n        /* \"BenefactorRegistration.sol\":804:894  require(!benefactors[msg.sender].isBeneficiary[_beneficiary], \"Beneficiary already added\") */\n      tag_30\n        /* \"#utility.yul\":1560:1909   */\n      jump\n        /* \"BenefactorRegistration.sol\":804:894  require(!benefactors[msg.sender].isBeneficiary[_beneficiary], \"Beneficiary already added\") */\n    tag_37:\n        /* \"BenefactorRegistration.sol\":919:929  msg.sender */\n      caller\n        /* \"BenefactorRegistration.sol\":907:918  benefactors */\n      0x00\n        /* \"BenefactorRegistration.sol\":907:930  benefactors[msg.sender] */\n      dup2\n      dup2\n      mstore\n      0x20\n      dup2\n      dup2\n      mstore\n      0x40\n      dup1\n      dup4\n      keccak256\n        /* \"BenefactorRegistration.sol\":907:944  benefactors[msg.sender].beneficiaries */\n      0x01\n      dup1\n      dup3\n      add\n        /* \"BenefactorRegistration.sol\":907:963  benefactors[msg.sender].beneficiaries.push(_beneficiary) */\n      dup1\n      sload\n      dup1\n      dup4\n      add\n      dup3\n      sstore\n      swap1\n      dup7\n      mstore\n      dup5\n      dup7\n      keccak256\n      add\n      dup1\n      sload\n      not(0xffffffffffffffffffffffffffffffffffffffff)\n      and\n      sub(shl(0xa0, 0x01), 0x01)\n      dup10\n      and\n      swap1\n      dup2\n      or\n      swap1\n      swap2\n      sstore\n        /* \"BenefactorRegistration.sol\":974:1025  benefactors[msg.sender].isBeneficiary[_beneficiary] */\n      dup1\n      dup7\n      mstore\n        /* \"BenefactorRegistration.sol\":974:1011  benefactors[msg.sender].isBeneficiary */\n      0x02\n      swap1\n      swap3\n      add\n        /* \"BenefactorRegistration.sol\":974:1025  benefactors[msg.sender].isBeneficiary[_beneficiary] */\n      swap1\n      swap4\n      mstore\n      dup2\n      dup5\n      keccak256\n        /* \"BenefactorRegistration.sol\":974:1032  benefactors[msg.sender].isBeneficiary[_beneficiary] = true */\n      dup1\n      sload\n      not(0xff)\n      and\n      swap1\n      swap4\n      or\n      swap1\n      swap3\n      sstore\n        /* \"BenefactorRegistration.sol\":1050:1092  BeneficiaryAdded(msg.sender, _beneficiary) */\n      mload\n        /* \"BenefactorRegistration.sol\":907:963  benefactors[msg.sender].beneficiaries.push(_beneficiary) */\n      swap1\n      swap3\n        /* \"BenefactorRegistration.sol\":919:929  msg.sender */\n      swap2\n        /* \"BenefactorRegistration.sol\":1050:1092  BeneficiaryAdded(msg.sender, _beneficiary) */\n      0xbb39c36a7502b7256e1a687254146a9a2ea7b146c77cb9e40eb0e2b8793781e1\n      swap2\n      log3\n        /* \"BenefactorRegistration.sol\":659:1100  function addBeneficiary(address _beneficiary) external {... */\n      pop\n      jump\t// out\n        /* \"BenefactorRegistration.sol\":1108:1779  function removeBeneficiary(address _beneficiary) external {... */\n    tag_20:\n        /* \"BenefactorRegistration.sol\":1197:1207  msg.sender */\n      caller\n        /* \"BenefactorRegistration.sol\":1185:1196  benefactors */\n      0x00\n        /* \"BenefactorRegistration.sol\":1185:1208  benefactors[msg.sender] */\n      swap1\n      dup2\n      mstore\n      0x20\n      dup2\n      swap1\n      mstore\n      0x40\n      swap1\n      keccak256\n        /* \"BenefactorRegistration.sol\":1185:1215  benefactors[msg.sender].exists */\n      sload\n      0xff\n      and\n        /* \"BenefactorRegistration.sol\":1177:1245  require(benefactors[msg.sender].exists, \"Benefactor not registered\") */\n      tag_42\n      jumpi\n      mload(0x40)\n      shl(0xe5, 0x461bcd)\n      dup2\n      mstore\n        /* \"#utility.yul\":1408:1410   */\n      0x20\n        /* \"BenefactorRegistration.sol\":1177:1245  require(benefactors[msg.sender].exists, \"Benefactor not registered\") */\n      0x04\n      dup3\n      add\n        /* \"#utility.yul\":1390:1411   */\n      mstore\n        /* \"#utility.yul\":1447:1449   */\n      0x19\n        /* \"#utility.yul\":1427:1445   */\n      0x24\n      dup3\n      add\n        /* \"#utility.yul\":1420:1450   */\n      mstore\n        /* \"#utility.yul\":1486:1513   */\n      0x42656e65666163746f72206e6f74207265676973746572656400000000000000\n        /* \"#utility.yul\":1466:1484   */\n      0x44\n      dup3\n      add\n        /* \"#utility.yul\":1459:1514   */\n      mstore\n        /* \"#utility.yul\":1531:1549   */\n      0x64\n      add\n        /* \"BenefactorRegistration.sol\":1177:1245  require(benefactors[msg.sender].exists, \"Benefactor not registered\") */\n      tag_30\n        /* \"#utility.yul\":1206:1555   */\n      jump\n        /* \"BenefactorRegistration.sol\":1177:1245  require(benefactors[msg.sender].exists, \"Benefactor not registered\") */\n    tag_42:\n        /* \"BenefactorRegistration.sol\":1276:1286  msg.sender */\n      caller\n        /* \"BenefactorRegistration.sol\":1264:1275  benefactors */\n      0x00\n        /* \"BenefactorRegistration.sol\":1264:1287  benefactors[msg.sender] */\n      swap1\n      dup2\n      mstore\n      0x20\n      dup2\n      dup2\n      mstore\n      0x40\n      dup1\n      dup4\n      keccak256\n      sub(shl(0xa0, 0x01), 0x01)\n        /* \"BenefactorRegistration.sol\":1264:1315  benefactors[msg.sender].isBeneficiary[_beneficiary] */\n      dup6\n      and\n      dup5\n      mstore\n        /* \"BenefactorRegistration.sol\":1264:1301  benefactors[msg.sender].isBeneficiary */\n      0x02\n      add\n        /* \"BenefactorRegistration.sol\":1264:1315  benefactors[msg.sender].isBeneficiary[_beneficiary] */\n      swap1\n      swap2\n      mstore\n      swap1\n      keccak256\n      sload\n      0xff\n      and\n        /* \"BenefactorRegistration.sol\":1256:1341  require(benefactors[msg.sender].isBeneficiary[_beneficiary], \"Beneficiary not found\") */\n      tag_44\n      jumpi\n      mload(0x40)\n      shl(0xe5, 0x461bcd)\n      dup2\n      mstore\n        /* \"#utility.yul\":2116:2118   */\n      0x20\n        /* \"BenefactorRegistration.sol\":1256:1341  require(benefactors[msg.sender].isBeneficiary[_beneficiary], \"Beneficiary not found\") */\n      0x04\n      dup3\n      add\n        /* \"#utility.yul\":2098:2119   */\n      mstore\n        /* \"#utility.yul\":2155:2157   */\n      0x15\n        /* \"#utility.yul\":2135:2153   */\n      0x24\n      dup3\n      add\n        /* \"#utility.yul\":2128:2158   */\n      mstore\n        /* \"#utility.yul\":2194:2217   */\n      0x42656e6566696369617279206e6f7420666f756e640000000000000000000000\n        /* \"#utility.yul\":2174:2192   */\n      0x44\n      dup3\n      add\n        /* \"#utility.yul\":2167:2218   */\n      mstore\n        /* \"#utility.yul\":2235:2253   */\n      0x64\n      add\n        /* \"BenefactorRegistration.sol\":1256:1341  require(benefactors[msg.sender].isBeneficiary[_beneficiary], \"Beneficiary not found\") */\n      tag_30\n        /* \"#utility.yul\":1914:2259   */\n      jump\n        /* \"BenefactorRegistration.sol\":1256:1341  require(benefactors[msg.sender].isBeneficiary[_beneficiary], \"Beneficiary not found\") */\n    tag_44:\n        /* \"BenefactorRegistration.sol\":1359:1368  uint256 i */\n      0x00\n        /* \"BenefactorRegistration.sol\":1354:1772  for (uint256 i = 0; i < benefactors[msg.sender].beneficiaries.length; i++) {... */\n    tag_47:\n        /* \"BenefactorRegistration.sol\":1390:1400  msg.sender */\n      caller\n        /* \"BenefactorRegistration.sol\":1378:1389  benefactors */\n      0x00\n        /* \"BenefactorRegistration.sol\":1378:1401  benefactors[msg.sender] */\n      swap1\n      dup2\n      mstore\n      0x20\n      dup2\n      swap1\n      mstore\n      0x40\n      swap1\n      keccak256\n        /* \"BenefactorRegistration.sol\":1378:1415  benefactors[msg.sender].beneficiaries */\n      0x01\n      add\n        /* \"BenefactorRegistration.sol\":1378:1422  benefactors[msg.sender].beneficiaries.length */\n      sload\n        /* \"BenefactorRegistration.sol\":1374:1422  i < benefactors[msg.sender].beneficiaries.length */\n      dup2\n      lt\n        /* \"BenefactorRegistration.sol\":1354:1772  for (uint256 i = 0; i < benefactors[msg.sender].beneficiaries.length; i++) {... */\n      iszero\n      tag_48\n      jumpi\n        /* \"BenefactorRegistration.sol\":1460:1470  msg.sender */\n      caller\n        /* \"BenefactorRegistration.sol\":1448:1459  benefactors */\n      0x00\n        /* \"BenefactorRegistration.sol\":1448:1471  benefactors[msg.sender] */\n      swap1\n      dup2\n      mstore\n      0x20\n      dup2\n      swap1\n      mstore\n      0x40\n      swap1\n      keccak256\n        /* \"BenefactorRegistration.sol\":1448:1485  benefactors[msg.sender].beneficiaries */\n      0x01\n      add\n        /* \"BenefactorRegistration.sol\":1448:1488  benefactors[msg.sender].beneficiaries[i] */\n      dup1\n      sload\n      sub(shl(0xa0, 0x01), 0x01)\n        /* \"BenefactorRegistration.sol\":1448:1504  benefactors[msg.sender].beneficiaries[i] == _beneficiary */\n      dup5\n      and\n      swap2\n        /* \"BenefactorRegistration.sol\":1448:1485  benefactors[msg.sender].beneficiaries */\n      swap1\n        /* \"BenefactorRegistration.sol\":1486:1487  i */\n      dup4\n      swap1\n        /* \"BenefactorRegistration.sol\":1448:1488  benefactors[msg.sender].beneficiaries[i] */\n      dup2\n      lt\n      tag_51\n      jumpi\n      tag_51\n      tag_52\n      jump\t// in\n    tag_51:\n      0x00\n      swap2\n      dup3\n      mstore\n      0x20\n      swap1\n      swap2\n      keccak256\n      add\n      sload\n      sub(shl(0xa0, 0x01), 0x01)\n      and\n        /* \"BenefactorRegistration.sol\":1448:1504  benefactors[msg.sender].beneficiaries[i] == _beneficiary */\n      sub\n        /* \"BenefactorRegistration.sol\":1444:1761  if (benefactors[msg.sender].beneficiaries[i] == _beneficiary) {... */\n      tag_54\n      jumpi\n        /* \"BenefactorRegistration.sol\":1544:1554  msg.sender */\n      caller\n        /* \"BenefactorRegistration.sol\":1532:1543  benefactors */\n      0x00\n        /* \"BenefactorRegistration.sol\":1532:1555  benefactors[msg.sender] */\n      swap1\n      dup2\n      mstore\n      0x20\n      dup2\n      swap1\n      mstore\n      0x40\n      swap1\n      keccak256\n        /* \"BenefactorRegistration.sol\":1532:1569  benefactors[msg.sender].beneficiaries */\n      0x01\n      add\n        /* \"BenefactorRegistration.sol\":1532:1572  benefactors[msg.sender].beneficiaries[i] */\n      dup1\n      sload\n        /* \"BenefactorRegistration.sol\":1570:1571  i */\n      dup3\n      swap1\n        /* \"BenefactorRegistration.sol\":1532:1572  benefactors[msg.sender].beneficiaries[i] */\n      dup2\n      lt\n      tag_56\n      jumpi\n      tag_56\n      tag_52\n      jump\t// in\n    tag_56:\n      0x00\n      swap2\n      dup3\n      mstore\n      0x20\n      dup1\n      dup4\n      keccak256\n      swap1\n      swap2\n      add\n        /* \"BenefactorRegistration.sol\":1525:1572  delete benefactors[msg.sender].beneficiaries[i] */\n      dup1\n      sload\n      not(0xffffffffffffffffffffffffffffffffffffffff)\n      and\n      swap1\n      sstore\n        /* \"BenefactorRegistration.sol\":1603:1613  msg.sender */\n      caller\n        /* \"BenefactorRegistration.sol\":1591:1614  benefactors[msg.sender] */\n      dup1\n      dup4\n      mstore\n      dup3\n      dup3\n      mstore\n      0x40\n      dup1\n      dup5\n      keccak256\n      sub(shl(0xa0, 0x01), 0x01)\n        /* \"BenefactorRegistration.sol\":1591:1642  benefactors[msg.sender].isBeneficiary[_beneficiary] */\n      dup8\n      and\n      dup1\n      dup7\n      mstore\n        /* \"BenefactorRegistration.sol\":1591:1628  benefactors[msg.sender].isBeneficiary */\n      0x02\n      swap1\n      swap2\n      add\n        /* \"BenefactorRegistration.sol\":1591:1642  benefactors[msg.sender].isBeneficiary[_beneficiary] */\n      swap1\n      swap4\n      mstore\n      dup1\n      dup5\n      keccak256\n        /* \"BenefactorRegistration.sol\":1591:1650  benefactors[msg.sender].isBeneficiary[_beneficiary] = false */\n      dup1\n      sload\n      not(0xff)\n      and\n      swap1\n      sstore\n        /* \"BenefactorRegistration.sol\":1676:1720  BeneficiaryRemoved(msg.sender, _beneficiary) */\n      mload\n        /* \"BenefactorRegistration.sol\":1591:1642  benefactors[msg.sender].isBeneficiary[_beneficiary] */\n      swap2\n      swap3\n        /* \"BenefactorRegistration.sol\":1603:1613  msg.sender */\n      swap1\n      swap2\n        /* \"BenefactorRegistration.sol\":1676:1720  BeneficiaryRemoved(msg.sender, _beneficiary) */\n      0x1a6590bd0cabbfcc7c86bef99e1034054e179905cfcc294598fcd426c0922442\n      swap2\n        /* \"BenefactorRegistration.sol\":1532:1572  benefactors[msg.sender].beneficiaries[i] */\n      swap1\n        /* \"BenefactorRegistration.sol\":1676:1720  BeneficiaryRemoved(msg.sender, _beneficiary) */\n      log3\n        /* \"BenefactorRegistration.sol\":1739:1746  return; */\n      pop\n        /* \"BenefactorRegistration.sol\":1108:1779  function removeBeneficiary(address _beneficiary) external {... */\n      pop\n      jump\t// out\n        /* \"BenefactorRegistration.sol\":1444:1761  if (benefactors[msg.sender].beneficiaries[i] == _beneficiary) {... */\n    tag_54:\n        /* \"BenefactorRegistration.sol\":1424:1427  i++ */\n      dup1\n      tag_58\n      dup2\n      tag_59\n      jump\t// in\n    tag_58:\n      swap2\n      pop\n      pop\n        /* \"BenefactorRegistration.sol\":1354:1772  for (uint256 i = 0; i < benefactors[msg.sender].beneficiaries.length; i++) {... */\n      jump(tag_47)\n    tag_48:\n      pop\n        /* \"BenefactorRegistration.sol\":1108:1779  function removeBeneficiary(address _beneficiary) external {... */\n      pop\n      jump\t// out\n        /* \"BenefactorRegistration.sol\":472:651  function registerBenefactor() external {... */\n    tag_27:\n        /* \"BenefactorRegistration.sol\":543:553  msg.sender */\n      caller\n        /* \"BenefactorRegistration.sol\":531:542  benefactors */\n      0x00\n        /* \"BenefactorRegistration.sol\":531:554  benefactors[msg.sender] */\n      swap1\n      dup2\n      mstore\n      0x20\n      dup2\n      swap1\n      mstore\n      0x40\n      swap1\n      keccak256\n        /* \"BenefactorRegistration.sol\":531:561  benefactors[msg.sender].exists */\n      sload\n      0xff\n      and\n        /* \"BenefactorRegistration.sol\":530:561  !benefactors[msg.sender].exists */\n      iszero\n        /* \"BenefactorRegistration.sol\":522:595  require(!benefactors[msg.sender].exists, \"Benefactor already registered\") */\n      tag_61\n      jumpi\n      mload(0x40)\n      shl(0xe5, 0x461bcd)\n      dup2\n      mstore\n        /* \"#utility.yul\":2835:2837   */\n      0x20\n        /* \"BenefactorRegistration.sol\":522:595  require(!benefactors[msg.sender].exists, \"Benefactor already registered\") */\n      0x04\n      dup3\n      add\n        /* \"#utility.yul\":2817:2838   */\n      mstore\n        /* \"#utility.yul\":2874:2876   */\n      0x1d\n        /* \"#utility.yul\":2854:2872   */\n      0x24\n      dup3\n      add\n        /* \"#utility.yul\":2847:2877   */\n      mstore\n        /* \"#utility.yul\":2913:2944   */\n      0x42656e65666163746f7220616c72656164792072656769737465726564000000\n        /* \"#utility.yul\":2893:2911   */\n      0x44\n      dup3\n      add\n        /* \"#utility.yul\":2886:2945   */\n      mstore\n        /* \"#utility.yul\":2962:2980   */\n      0x64\n      add\n        /* \"BenefactorRegistration.sol\":522:595  require(!benefactors[msg.sender].exists, \"Benefactor already registered\") */\n      tag_30\n        /* \"#utility.yul\":2633:2986   */\n      jump\n        /* \"BenefactorRegistration.sol\":522:595  require(!benefactors[msg.sender].exists, \"Benefactor already registered\") */\n    tag_61:\n        /* \"BenefactorRegistration.sol\":618:628  msg.sender */\n      caller\n        /* \"BenefactorRegistration.sol\":606:617  benefactors */\n      0x00\n        /* \"BenefactorRegistration.sol\":606:629  benefactors[msg.sender] */\n      swap1\n      dup2\n      mstore\n      0x20\n      dup2\n      swap1\n      mstore\n      0x40\n      swap1\n      keccak256\n        /* \"BenefactorRegistration.sol\":606:643  benefactors[msg.sender].exists = true */\n      dup1\n      sload\n      not(0xff)\n      and\n        /* \"BenefactorRegistration.sol\":639:643  true */\n      0x01\n        /* \"BenefactorRegistration.sol\":606:643  benefactors[msg.sender].exists = true */\n      or\n      swap1\n      sstore\n        /* \"BenefactorRegistration.sol\":472:651  function registerBenefactor() external {... */\n      jump\t// out\n        /* \"#utility.yul\":14:323   */\n    tag_11:\n        /* \"#utility.yul\":73:79   */\n      0x00\n        /* \"#utility.yul\":126:128   */\n      0x20\n        /* \"#utility.yul\":114:123   */\n      dup3\n        /* \"#utility.yul\":105:112   */\n      dup5\n        /* \"#utility.yul\":101:124   */\n      sub\n        /* \"#utility.yul\":97:129   */\n      slt\n        /* \"#utility.yul\":94:146   */\n      iszero\n      tag_66\n      jumpi\n        /* \"#utility.yul\":142:143   */\n      0x00\n        /* \"#utility.yul\":139:140   */\n      dup1\n        /* \"#utility.yul\":132:144   */\n      revert\n        /* \"#utility.yul\":94:146   */\n    tag_66:\n        /* \"#utility.yul\":181:190   */\n      dup2\n        /* \"#utility.yul\":168:191   */\n      calldataload\n      sub(shl(0xa0, 0x01), 0x01)\n        /* \"#utility.yul\":224:229   */\n      dup2\n        /* \"#utility.yul\":220:274   */\n      and\n        /* \"#utility.yul\":213:218   */\n      dup2\n        /* \"#utility.yul\":210:275   */\n      eq\n        /* \"#utility.yul\":200:293   */\n      tag_67\n      jumpi\n        /* \"#utility.yul\":289:290   */\n      0x00\n        /* \"#utility.yul\":286:287   */\n      dup1\n        /* \"#utility.yul\":279:291   */\n      revert\n        /* \"#utility.yul\":200:293   */\n    tag_67:\n        /* \"#utility.yul\":312:317   */\n      swap4\n        /* \"#utility.yul\":14:323   */\n      swap3\n      pop\n      pop\n      pop\n      jump\t// out\n        /* \"#utility.yul\":328:1009   */\n    tag_14:\n        /* \"#utility.yul\":499:501   */\n      0x20\n        /* \"#utility.yul\":551:572   */\n      dup1\n      dup3\n      mstore\n        /* \"#utility.yul\":621:634   */\n      dup3\n      mload\n        /* \"#utility.yul\":524:542   */\n      dup3\n      dup3\n      add\n        /* \"#utility.yul\":643:665   */\n      dup2\n      swap1\n      mstore\n        /* \"#utility.yul\":470:474   */\n      0x00\n      swap2\n        /* \"#utility.yul\":499:501   */\n      swap1\n        /* \"#utility.yul\":722:737   */\n      dup5\n      dup3\n      add\n      swap1\n        /* \"#utility.yul\":696:698   */\n      0x40\n        /* \"#utility.yul\":681:699   */\n      dup6\n      add\n      swap1\n        /* \"#utility.yul\":470:474   */\n      dup5\n        /* \"#utility.yul\":765:983   */\n    tag_69:\n        /* \"#utility.yul\":779:785   */\n      dup2\n        /* \"#utility.yul\":776:777   */\n      dup2\n        /* \"#utility.yul\":773:786   */\n      lt\n        /* \"#utility.yul\":765:983   */\n      iszero\n      tag_71\n      jumpi\n        /* \"#utility.yul\":844:857   */\n      dup4\n      mload\n      sub(shl(0xa0, 0x01), 0x01)\n        /* \"#utility.yul\":840:902   */\n      and\n        /* \"#utility.yul\":828:903   */\n      dup4\n      mstore\n        /* \"#utility.yul\":958:973   */\n      swap3\n      dup5\n      add\n      swap3\n        /* \"#utility.yul\":923:935   */\n      swap2\n      dup5\n      add\n      swap2\n        /* \"#utility.yul\":801:802   */\n      0x01\n        /* \"#utility.yul\":794:803   */\n      add\n        /* \"#utility.yul\":765:983   */\n      jump(tag_69)\n    tag_71:\n      pop\n        /* \"#utility.yul\":1000:1003   */\n      swap1\n      swap7\n        /* \"#utility.yul\":328:1009   */\n      swap6\n      pop\n      pop\n      pop\n      pop\n      pop\n      pop\n      jump\t// out\n        /* \"#utility.yul\":2264:2391   */\n    tag_52:\n        /* \"#utility.yul\":2325:2335   */\n      0x4e487b71\n        /* \"#utility.yul\":2320:2323   */\n      0xe0\n        /* \"#utility.yul\":2316:2336   */\n      shl\n        /* \"#utility.yul\":2313:2314   */\n      0x00\n        /* \"#utility.yul\":2306:2337   */\n      mstore\n        /* \"#utility.yul\":2356:2360   */\n      0x32\n        /* \"#utility.yul\":2353:2354   */\n      0x04\n        /* \"#utility.yul\":2346:2361   */\n      mstore\n        /* \"#utility.yul\":2380:2384   */\n      0x24\n        /* \"#utility.yul\":2377:2378   */\n      0x00\n        /* \"#utility.yul\":2370:2385   */\n      revert\n        /* \"#utility.yul\":2396:2628   */\n    tag_59:\n        /* \"#utility.yul\":2435:2438   */\n      0x00\n        /* \"#utility.yul\":2456:2473   */\n      0x01\n      dup3\n      add\n        /* \"#utility.yul\":2453:2593   */\n      tag_78\n      jumpi\n        /* \"#utility.yul\":2515:2525   */\n      0x4e487b71\n        /* \"#utility.yul\":2510:2513   */\n      0xe0\n        /* \"#utility.yul\":2506:2526   */\n      shl\n        /* \"#utility.yul\":2503:2504   */\n      0x00\n        /* \"#utility.yul\":2496:2527   */\n      mstore\n        /* \"#utility.yul\":2550:2554   */\n      0x11\n        /* \"#utility.yul\":2547:2548   */\n      0x04\n        /* \"#utility.yul\":2540:2555   */\n      mstore\n        /* \"#utility.yul\":2578:2582   */\n      0x24\n        /* \"#utility.yul\":2575:2576   */\n      0x00\n        /* \"#utility.yul\":2568:2583   */\n      revert\n        /* \"#utility.yul\":2453:2593   */\n    tag_78:\n      pop\n        /* \"#utility.yul\":2620:2621   */\n      0x01\n        /* \"#utility.yul\":2609:2622   */\n      add\n      swap1\n        /* \"#utility.yul\":2396:2628   */\n      jump\t// out\n\n    auxdata: 0xa26469706673582212205f4a039ed186c66b108eb15f9640f5195bd33f55971759aef25bcc8a791e653364736f6c63430008110033\n}\n",
    "bytecode": {
      "linkReferences": {},
      "object": "608060405234801561001057600080fd5b506106a2806100206000396000f3fe608060405234801561001057600080fd5b50600436106100675760003560e01c806359633a1c1161005057806359633a1c146100aa5780637252c33a146100bd57806394341d37146100f057600080fd5b80631cab59a41461006c5780635926651d14610095575b600080fd5b61007f61007a3660046105b2565b6100f8565b60405161008c91906105e2565b60405180910390f35b6100a86100a33660046105b2565b6101dd565b005b6100a86100b83660046105b2565b610341565b6100e06100cb3660046105b2565b60006020819052908152604090205460ff1681565b604051901515815260200161008c565b6100a8610536565b6001600160a01b03811660009081526020819052604090205460609060ff166101685760405162461bcd60e51b815260206004820152601960248201527f42656e65666163746f72206e6f7420726567697374657265640000000000000060448201526064015b60405180910390fd5b6001600160a01b03821660009081526020818152604091829020600101805483518184028101840190945280845290918301828280156101d157602002820191906000526020600020905b81546001600160a01b031681526001909101906020018083116101b3575b50505050509050919050565b3360009081526020819052604090205460ff1661023c5760405162461bcd60e51b815260206004820152601960248201527f42656e65666163746f72206e6f74207265676973746572656400000000000000604482015260640161015f565b336000908152602081815260408083206001600160a01b038516845260020190915290205460ff16156102b15760405162461bcd60e51b815260206004820152601960248201527f42656e656669636961727920616c726561647920616464656400000000000000604482015260640161015f565b3360008181526020818152604080832060018082018054808301825590865284862001805473ffffffffffffffffffffffffffffffffffffffff19166001600160a01b0389169081179091558086526002909201909352818420805460ff1916909317909255519092917fbb39c36a7502b7256e1a687254146a9a2ea7b146c77cb9e40eb0e2b8793781e191a350565b3360009081526020819052604090205460ff166103a05760405162461bcd60e51b815260206004820152601960248201527f42656e65666163746f72206e6f74207265676973746572656400000000000000604482015260640161015f565b336000908152602081815260408083206001600160a01b038516845260020190915290205460ff166104145760405162461bcd60e51b815260206004820152601560248201527f42656e6566696369617279206e6f7420666f756e640000000000000000000000604482015260640161015f565b60005b336000908152602081905260409020600101548110156105325733600090815260208190526040902060010180546001600160a01b0384169190839081106104615761046161062f565b6000918252602090912001546001600160a01b0316036105205733600090815260208190526040902060010180548290811061049f5761049f61062f565b60009182526020808320909101805473ffffffffffffffffffffffffffffffffffffffff191690553380835282825260408084206001600160a01b0387168086526002909101909352808420805460ff1916905551919290917f1a6590bd0cabbfcc7c86bef99e1034054e179905cfcc294598fcd426c09224429190a35050565b8061052a81610645565b915050610417565b5050565b3360009081526020819052604090205460ff16156105965760405162461bcd60e51b815260206004820152601d60248201527f42656e65666163746f7220616c72656164792072656769737465726564000000604482015260640161015f565b336000908152602081905260409020805460ff19166001179055565b6000602082840312156105c457600080fd5b81356001600160a01b03811681146105db57600080fd5b9392505050565b6020808252825182820181905260009190848201906040850190845b818110156106235783516001600160a01b0316835292840192918401916001016105fe565b50909695505050505050565b634e487b7160e01b600052603260045260246000fd5b60006001820161066557634e487b7160e01b600052601160045260246000fd5b506001019056fea26469706673582212205f4a039ed186c66b108eb15f9640f5195bd33f55971759aef25bcc8a791e653364736f6c63430008110033",
      "opcodes": "PUSH1 0x80 PUSH1 0x40 MSTORE CALLVALUE DUP1 ISZERO PUSH2 0x10 JUMPI PUSH1 0x0 DUP1 REVERT JUMPDEST POP PUSH2 0x6A2 DUP1 PUSH2 0x20 PUSH1 0x0 CODECOPY PUSH1 0x0 RETURN INVALID PUSH1 0x80 PUSH1 0x40 MSTORE CALLVALUE DUP1 ISZERO PUSH2 0x10 JUMPI PUSH1 0x0 DUP1 REVERT JUMPDEST POP PUSH1 0x4 CALLDATASIZE LT PUSH2 0x67 JUMPI PUSH1 0x0 CALLDATALOAD PUSH1 0xE0 SHR DUP1 PUSH4 0x59633A1C GT PUSH2 0x50 JUMPI DUP1 PUSH4 0x59633A1C EQ PUSH2 0xAA JUMPI DUP1 PUSH4 0x7252C33A EQ PUSH2 0xBD JUMPI DUP1 PUSH4 0x94341D37 EQ PUSH2 0xF0 JUMPI PUSH1 0x0 DUP1 REVERT JUMPDEST DUP1 PUSH4 0x1CAB59A4 EQ PUSH2 0x6C JUMPI DUP1 PUSH4 0x5926651D EQ PUSH2 0x95 JUMPI JUMPDEST PUSH1 0x0 DUP1 REVERT JUMPDEST PUSH2 0x7F PUSH2 0x7A CALLDATASIZE PUSH1 0x4 PUSH2 0x5B2 JUMP JUMPDEST PUSH2 0xF8 JUMP JUMPDEST PUSH1 0x40 MLOAD PUSH2 0x8C SWAP2 SWAP1 PUSH2 0x5E2 JUMP JUMPDEST PUSH1 0x40 MLOAD DUP1 SWAP2 SUB SWAP1 RETURN JUMPDEST PUSH2 0xA8 PUSH2 0xA3 CALLDATASIZE PUSH1 0x4 PUSH2 0x5B2 JUMP JUMPDEST PUSH2 0x1DD JUMP JUMPDEST STOP JUMPDEST PUSH2 0xA8 PUSH2 0xB8 CALLDATASIZE PUSH1 0x4 PUSH2 0x5B2 JUMP JUMPDEST PUSH2 0x341 JUMP JUMPDEST PUSH2 0xE0 PUSH2 0xCB CALLDATASIZE PUSH1 0x4 PUSH2 0x5B2 JUMP JUMPDEST PUSH1 0x0 PUSH1 0x20 DUP2 SWAP1 MSTORE SWAP1 DUP2 MSTORE PUSH1 0x40 SWAP1 KECCAK256 SLOAD PUSH1 0xFF AND DUP2 JUMP JUMPDEST PUSH1 0x40 MLOAD SWAP1 ISZERO ISZERO DUP2 MSTORE PUSH1 0x20 ADD PUSH2 0x8C JUMP JUMPDEST PUSH2 0xA8 PUSH2 0x536 JUMP JUMPDEST PUSH1 0x1 PUSH1 0x1 PUSH1 0xA0 SHL SUB DUP2 AND PUSH1 0x0 SWAP1 DUP2 MSTORE PUSH1 0x20 DUP2 SWAP1 MSTORE PUSH1 0x40 SWAP1 KECCAK256 SLOAD PUSH1 0x60 SWAP1 PUSH1 0xFF AND PUSH2 0x168 JUMPI PUSH1 0x40 MLOAD PUSH3 0x461BCD PUSH1 0xE5 SHL DUP2 MSTORE PUSH1 0x20 PUSH1 0x4 DUP3 ADD MSTORE PUSH1 0x19 PUSH1 0x24 DUP3 ADD MSTORE PUSH32 0x42656E65666163746F72206E6F74207265676973746572656400000000000000 PUSH1 0x44 DUP3 ADD MSTORE PUSH1 0x64 ADD JUMPDEST PUSH1 0x40 MLOAD DUP1 SWAP2 SUB SWAP1 REVERT JUMPDEST PUSH1 0x1 PUSH1 0x1 PUSH1 0xA0 SHL SUB DUP3 AND PUSH1 0x0 SWAP1 DUP2 MSTORE PUSH1 0x20 DUP2 DUP2 MSTORE PUSH1 0x40 SWAP2 DUP3 SWAP1 KECCAK256 PUSH1 0x1 ADD DUP1 SLOAD DUP4 MLOAD DUP2 DUP5 MUL DUP2 ADD DUP5 ADD SWAP1 SWAP5 MSTORE DUP1 DUP5 MSTORE SWAP1 SWAP2 DUP4 ADD DUP3 DUP3 DUP1 ISZERO PUSH2 0x1D1 JUMPI PUSH1 0x20 MUL DUP3 ADD SWAP2 SWAP1 PUSH1 0x0 MSTORE PUSH1 0x20 PUSH1 0x0 KECCAK256 SWAP1 JUMPDEST DUP2 SLOAD PUSH1 0x1 PUSH1 0x1 PUSH1 0xA0 SHL SUB AND DUP2 MSTORE PUSH1 0x1 SWAP1 SWAP2 ADD SWAP1 PUSH1 0x20 ADD DUP1 DUP4 GT PUSH2 0x1B3 JUMPI JUMPDEST POP POP POP POP POP SWAP1 POP SWAP2 SWAP1 POP JUMP JUMPDEST CALLER PUSH1 0x0 SWAP1 DUP2 MSTORE PUSH1 0x20 DUP2 SWAP1 MSTORE PUSH1 0x40 SWAP1 KECCAK256 SLOAD PUSH1 0xFF AND PUSH2 0x23C JUMPI PUSH1 0x40 MLOAD PUSH3 0x461BCD PUSH1 0xE5 SHL DUP2 MSTORE PUSH1 0x20 PUSH1 0x4 DUP3 ADD MSTORE PUSH1 0x19 PUSH1 0x24 DUP3 ADD MSTORE PUSH32 0x42656E65666163746F72206E6F74207265676973746572656400000000000000 PUSH1 0x44 DUP3 ADD MSTORE PUSH1 0x64 ADD PUSH2 0x15F JUMP JUMPDEST CALLER PUSH1 0x0 SWAP1 DUP2 MSTORE PUSH1 0x20 DUP2 DUP2 MSTORE PUSH1 0x40 DUP1 DUP4 KECCAK256 PUSH1 0x1 PUSH1 0x1 PUSH1 0xA0 SHL SUB DUP6 AND DUP5 MSTORE PUSH1 0x2 ADD SWAP1 SWAP2 MSTORE SWAP1 KECCAK256 SLOAD PUSH1 0xFF AND ISZERO PUSH2 0x2B1 JUMPI PUSH1 0x40 MLOAD PUSH3 0x461BCD PUSH1 0xE5 SHL DUP2 MSTORE PUSH1 0x20 PUSH1 0x4 DUP3 ADD MSTORE PUSH1 0x19 PUSH1 0x24 DUP3 ADD MSTORE PUSH32 0x42656E656669636961727920616C726561647920616464656400000000000000 PUSH1 0x44 DUP3 ADD MSTORE PUSH1 0x64 ADD PUSH2 0x15F JUMP JUMPDEST CALLER PUSH1 0x0 DUP2 DUP2 MSTORE PUSH1 0x20 DUP2 DUP2 MSTORE PUSH1 0x40 DUP1 DUP4 KECCAK256 PUSH1 0x1 DUP1 DUP3 ADD DUP1 SLOAD DUP1 DUP4 ADD DUP3 SSTORE SWAP1 DUP7 MSTORE DUP5 DUP7 KECCAK256 ADD DUP1 SLOAD PUSH20 0xFFFFFFFFFFFFFFFFFFFFFFFFFFFFFFFFFFFFFFFF NOT AND PUSH1 0x1 PUSH1 0x1 PUSH1 0xA0 SHL SUB DUP10 AND SWAP1 DUP2 OR SWAP1 SWAP2 SSTORE DUP1 DUP7 MSTORE PUSH1 0x2 SWAP1 SWAP3 ADD SWAP1 SWAP4 MSTORE DUP2 DUP5 KECCAK256 DUP1 SLOAD PUSH1 0xFF NOT AND SWAP1 SWAP4 OR SWAP1 SWAP3 SSTORE MLOAD SWAP1 SWAP3 SWAP2 PUSH32 0xBB39C36A7502B7256E1A687254146A9A2EA7B146C77CB9E40EB0E2B8793781E1 SWAP2 LOG3 POP JUMP JUMPDEST CALLER PUSH1 0x0 SWAP1 DUP2 MSTORE PUSH1 0x20 DUP2 SWAP1 MSTORE PUSH1 0x40 SWAP1 KECCAK256 SLOAD PUSH1 0xFF AND PUSH2 0x3A0 JUMPI PUSH1 0x40 MLOAD PUSH3 0x461BCD PUSH1 0xE5 SHL DUP2 MSTORE PUSH1 0x20 PUSH1 0x4 DUP3 ADD MSTORE PUSH1 0x19 PUSH1 0x24 DUP3 ADD MSTORE PUSH32 0x42656E65666163746F72206E6F74207265676973746572656400000000000000 PUSH1 0x44 DUP3 ADD MSTORE PUSH1 0x64 ADD PUSH2 0x15F JUMP JUMPDEST CALLER PUSH1 0x0 SWAP1 DUP2 MSTORE PUSH1 0x20 DUP2 DUP2 MSTORE PUSH1 0x40 DUP1 DUP4 KECCAK256 PUSH1 0x1 PUSH1 0x1 PUSH1 0xA0 SHL SUB DUP6 AND DUP5 MSTORE PUSH1 0x2 ADD SWAP1 SWAP2 MSTORE SWAP1 KECCAK256 SLOAD PUSH1 0xFF AND PUSH2 0x414 JUMPI PUSH1 0x40 MLOAD PUSH3 0x461BCD PUSH1 0xE5 SHL DUP2 MSTORE PUSH1 0x20 PUSH1 0x4 DUP3 ADD MSTORE PUSH1 0x15 PUSH1 0x24 DUP3 ADD MSTORE PUSH32 0x42656E6566696369617279206E6F7420666F756E640000000000000000000000 PUSH1 0x44 DUP3 ADD MSTORE PUSH1 0x64 ADD PUSH2 0x15F JUMP JUMPDEST PUSH1 0x0 JUMPDEST CALLER PUSH1 0x0 SWAP1 DUP2 MSTORE PUSH1 0x20 DUP2 SWAP1 MSTORE PUSH1 0x40 SWAP1 KECCAK256 PUSH1 0x1 ADD SLOAD DUP2 LT ISZERO PUSH2 0x532 JUMPI CALLER PUSH1 0x0 SWAP1 DUP2 MSTORE PUSH1 0x20 DUP2 SWAP1 MSTORE PUSH1 0x40 SWAP1 KECCAK256 PUSH1 0x1 ADD DUP1 SLOAD PUSH1 0x1 PUSH1 0x1 PUSH1 0xA0 SHL SUB DUP5 AND SWAP2 SWAP1 DUP4 SWAP1 DUP2 LT PUSH2 0x461 JUMPI PUSH2 0x461 PUSH2 0x62F JUMP JUMPDEST PUSH1 0x0 SWAP2 DUP3 MSTORE PUSH1 0x20 SWAP1 SWAP2 KECCAK256 ADD SLOAD PUSH1 0x1 PUSH1 0x1 PUSH1 0xA0 SHL SUB AND SUB PUSH2 0x520 JUMPI CALLER PUSH1 0x0 SWAP1 DUP2 MSTORE PUSH1 0x20 DUP2 SWAP1 MSTORE PUSH1 0x40 SWAP1 KECCAK256 PUSH1 0x1 ADD DUP1 SLOAD DUP3 SWAP1 DUP2 LT PUSH2 0x49F JUMPI PUSH2 0x49F PUSH2 0x62F JUMP JUMPDEST PUSH1 0x0 SWAP2 DUP3 MSTORE PUSH1 0x20 DUP1 DUP4 KECCAK256 SWAP1 SWAP2 ADD DUP1 SLOAD PUSH20 0xFFFFFFFFFFFFFFFFFFFFFFFFFFFFFFFFFFFFFFFF NOT AND SWAP1 SSTORE CALLER DUP1 DUP4 MSTORE DUP3 DUP3 MSTORE PUSH1 0x40 DUP1 DUP5 KECCAK256 PUSH1 0x1 PUSH1 0x1 PUSH1 0xA0 SHL SUB DUP8 AND DUP1 DUP7 MSTORE PUSH1 0x2 SWAP1 SWAP2 ADD SWAP1 SWAP4 MSTORE DUP1 DUP5 KECCAK256 DUP1 SLOAD PUSH1 0xFF NOT AND SWAP1 SSTORE MLOAD SWAP2 SWAP3 SWAP1 SWAP2 PUSH32 0x1A6590BD0CABBFCC7C86BEF99E1034054E179905CFCC294598FCD426C0922442 SWAP2 SWAP1 LOG3 POP POP JUMP JUMPDEST DUP1 PUSH2 0x52A DUP2 PUSH2 0x645 JUMP JUMPDEST SWAP2 POP POP PUSH2 0x417 JUMP JUMPDEST POP POP JUMP JUMPDEST CALLER PUSH1 0x0 SWAP1 DUP2 MSTORE PUSH1 0x20 DUP2 SWAP1 MSTORE PUSH1 0x40 SWAP1 KECCAK256 SLOAD PUSH1 0xFF AND ISZERO PUSH2 0x596 JUMPI PUSH1 0x40 MLOAD PUSH3 0x461BCD PUSH1 0xE5 SHL DUP2 MSTORE PUSH1 0x20 PUSH1 0x4 DUP3 ADD MSTORE PUSH1 0x1D PUSH1 0x24 DUP3 ADD MSTORE PUSH32 0x42656E65666163746F7220616C72656164792072656769737465726564000000 PUSH1 0x44 DUP3 ADD MSTORE PUSH1 0x64 ADD PUSH2 0x15F JUMP JUMPDEST CALLER PUSH1 0x0 SWAP1 DUP2 MSTORE PUSH1 0x20 DUP2 SWAP1 MSTORE PUSH1 0x40 SWAP1 KECCAK256 DUP1 SLOAD PUSH1 0xFF NOT AND PUSH1 0x1 OR SWAP1 SSTORE JUMP JUMPDEST PUSH1 0x0 PUSH1 0x20 DUP3 DUP5 SUB SLT ISZERO PUSH2 0x5C4 JUMPI PUSH1 0x0 DUP1 REVERT JUMPDEST DUP2 CALLDATALOAD PUSH1 0x1 PUSH1 0x1 PUSH1 0xA0 SHL SUB DUP2 AND DUP2 EQ PUSH2 0x5DB JUMPI PUSH1 0x0 DUP1 REVERT JUMPDEST SWAP4 SWAP3 POP POP POP JUMP JUMPDEST PUSH1 0x20 DUP1 DUP3 MSTORE DUP3 MLOAD DUP3 DUP3 ADD DUP2 SWAP1 MSTORE PUSH1 0x0 SWAP2 SWAP1 DUP5 DUP3 ADD SWAP1 PUSH1 0x40 DUP6 ADD SWAP1 DUP5 JUMPDEST DUP2 DUP2 LT ISZERO PUSH2 0x623 JUMPI DUP4 MLOAD PUSH1 0x1 PUSH1 0x1 PUSH1 0xA0 SHL SUB AND DUP4 MSTORE SWAP3 DUP5 ADD SWAP3 SWAP2 DUP5 ADD SWAP2 PUSH1 0x1 ADD PUSH2 0x5FE JUMP JUMPDEST POP SWAP1 SWAP7 SWAP6 POP POP POP POP POP POP JUMP JUMPDEST PUSH4 0x4E487B71 PUSH1 0xE0 SHL PUSH1 0x0 MSTORE PUSH1 0x32 PUSH1 0x4 MSTORE PUSH1 0x24 PUSH1 0x0 REVERT JUMPDEST PUSH1 0x0 PUSH1 0x1 DUP3 ADD PUSH2 0x665 JUMPI PUSH4 0x4E487B71 PUSH1 0xE0 SHL PUSH1 0x0 MSTORE PUSH1 0x11 PUSH1 0x4 MSTORE PUSH1 0x24 PUSH1 0x0 REVERT JUMPDEST POP PUSH1 0x1 ADD SWAP1 JUMP INVALID LOG2 PUSH5 0x6970667358 0x22 SLT KECCAK256 0x5F 0x4A SUB SWAP15 0xD1 DUP7 0xC6 PUSH12 0x108EB15F9640F5195BD33F55 SWAP8 OR MSIZE 0xAE CALLCODE JUMPDEST 0xCC DUP11 PUSH26 0x1E653364736F6C63430008110033000000000000000000000000 "
    },
    "gasEstimates": {
      "creation": {
        "codeDepositCost": "339600",
        "executionCost": "380",
        "totalCost": "339980"
      },
      "external": {
        "addBeneficiary(address)": "79202",
        "benefactors(address)": "2521",
        "getBeneficiaries(address)": "infinite",
        "registerBenefactor()": "26680",
        "removeBeneficiary(address)": "infinite"
      }
    },
    "methodIdentifiers": {
      "addBeneficiary(address)": "5926651d",
      "benefactors(address)": "7252c33a",
      "getBeneficiaries(address)": "1cab59a4",
      "registerBenefactor()": "94341d37",
      "removeBeneficiary(address)": "59633a1c"
    }
  },
  "storageLayout": {
    "storage": [
      {
        "astId": 16,
        "contract": "BenefactorRegistration.sol:BenefactorRegistration",
        "label": "benefactors",
        "offset": 0,
        "slot": "0",
        "type": "t_mapping(t_address,t_struct(Benefactor)11_storage)"
      }
    ],
    "types": {
      "t_address": {
        "encoding": "inplace",
        "label": "address",
        "numberOfBytes": "20"
      },
      "t_array(t_address)dyn_storage": {
        "base": "t_address",
        "encoding": "dynamic_array",
        "label": "address[]",
        "numberOfBytes": "32"
      },
      "t_bool": {
        "encoding": "inplace",
        "label": "bool",
        "numberOfBytes": "1"
      },
      "t_mapping(t_address,t_bool)": {
        "encoding": "mapping",
        "key": "t_address",
        "label": "mapping(address => bool)",
        "numberOfBytes": "32",
        "value": "t_bool"
      },
      "t_mapping(t_address,t_struct(Benefactor)11_storage)": {
        "encoding": "mapping",
        "key": "t_address",
        "label": "mapping(address => struct BenefactorRegistration.Benefactor)",
        "numberOfBytes": "32",
        "value": "t_struct(Benefactor)11_storage"
      },
      "t_struct(Benefactor)11_storage": {
        "encoding": "inplace",
        "label": "struct BenefactorRegistration.Benefactor",
        "members": [
          {
            "astId": 3,
            "contract": "BenefactorRegistration.sol:BenefactorRegistration",
            "label": "exists",
            "offset": 0,
            "slot": "0",
            "type": "t_bool"
          },
          {
            "astId": 6,
            "contract": "BenefactorRegistration.sol:BenefactorRegistration",
            "label": "beneficiaries",
            "offset": 0,
            "slot": "1",
            "type": "t_array(t_address)dyn_storage"
          },
          {
            "astId": 10,
            "contract": "BenefactorRegistration.sol:BenefactorRegistration",
            "label": "isBeneficiary",
            "offset": 0,
            "slot": "2",
            "type": "t_mapping(t_address,t_bool)"
          }
        ],
        "numberOfBytes": "96"
      }
    }
  },
  "userdoc": {
    "kind": "user",
    "methods": {},
    "version": 1
  }
}