{
  "abi": [
    {
      "inputs": [],
      "stateMutability": "nonpayable",
      "type": "constructor"
    },
    {
      "anonymous": false,
      "inputs": [
        {
          "indexed": true,
          "internalType": "address",
          "name": "benefactor",
          "type": "address"
        },
        {
          "indexed": false,
          "internalType": "string",
          "name": "aliveStatus",
          "type": "string"
        }
      ],
      "name": "BenefactorIsAlive",
      "type": "event"
    },
    {
      "anonymous": false,
      "inputs": [
        {
          "indexed": true,
          "internalType": "address",
          "name": "benefactor",
          "type": "address"
        },
        {
          "indexed": false,
          "internalType": "string",
          "name": "deadStatus",
          "type": "string"
        }
      ],
      "name": "BenefactorIsDead",
      "type": "event"
    },
    {
      "anonymous": false,
      "inputs": [
        {
          "indexed": true,
          "internalType": "address",
          "name": "benefactor",
          "type": "address"
        },
        {
          "indexed": true,
          "internalType": "address",
          "name": "beneficiary",
          "type": "address"
        },
        {
          "indexed": false,
          "internalType": "string",
          "name": "key",
          "type": "string"
        }
      ],
      "name": "BenefactorKeyAdded",
      "type": "event"
    },
    {
      "anonymous": false,
      "inputs": [
        {
          "indexed": false,
          "internalType": "bool",
          "name": "switchStatus",
          "type": "bool"
        },
        {
          "indexed": false,
          "internalType": "address[]",
          "name": "beneficiaries",
          "type": "address[]"
        },
        {
          "indexed": false,
          "internalType": "uint256",
          "name": "remainingTime",
          "type": "uint256"
        }
      ],
      "name": "BeneficiariesData",
      "type": "event"
    },
    {
      "anonymous": false,
      "inputs": [
        {
          "indexed": true,
          "internalType": "address",
          "name": "benefactor",
          "type": "address"
        },
        {
          "indexed": true,
          "internalType": "address",
          "name": "beneficiary",
          "type": "address"
        }
      ],
      "name": "BeneficiaryAdded",
      "type": "event"
    },
    {
      "anonymous": false,
      "inputs": [
        {
          "indexed": true,
          "internalType": "address",
          "name": "benefactor",
          "type": "address"
        },
        {
          "indexed": true,
          "internalType": "address",
          "name": "beneficiary",
          "type": "address"
        },
        {
          "indexed": false,
          "internalType": "string",
          "name": "key",
          "type": "string"
        }
      ],
      "name": "BeneficiaryKeyAdded",
      "type": "event"
    },
    {
      "anonymous": false,
      "inputs": [
        {
          "indexed": true,
          "internalType": "address",
          "name": "benefactor",
          "type": "address"
        },
        {
          "indexed": true,
          "internalType": "address",
          "name": "beneficiary",
          "type": "address"
        }
      ],
      "name": "BeneficiaryRemoved",
      "type": "event"
    },
    {
      "anonymous": false,
      "inputs": [
        {
          "indexed": true,
          "internalType": "address",
          "name": "benefactor",
          "type": "address"
        },
        {
          "indexed": true,
          "internalType": "address",
          "name": "caller",
          "type": "address"
        },
        {
          "indexed": false,
          "internalType": "uint256",
          "name": "responseTime",
          "type": "uint256"
        }
      ],
      "name": "DeadMansSwitchDisabled",
      "type": "event"
    },
    {
      "anonymous": false,
      "inputs": [
        {
          "indexed": true,
          "internalType": "address",
          "name": "benefactor",
          "type": "address"
        },
        {
          "indexed": true,
          "internalType": "address",
          "name": "beneficiary",
          "type": "address"
        },
        {
          "indexed": false,
          "internalType": "uint256",
          "name": "countdownDuration",
          "type": "uint256"
        }
      ],
      "name": "DeadMansSwitchEnabled",
      "type": "event"
    },
    {
      "anonymous": false,
      "inputs": [
        {
          "indexed": true,
          "internalType": "address",
          "name": "benefactor",
          "type": "address"
        },
        {
          "indexed": true,
          "internalType": "address",
          "name": "beneficiary",
          "type": "address"
        },
        {
          "indexed": false,
          "internalType": "string",
          "name": "ipfsCID",
          "type": "string"
        }
      ],
      "name": "IpfsCIDAdded",
      "type": "event"
    },
    {
      "anonymous": false,
      "inputs": [
        {
          "indexed": true,
          "internalType": "address",
          "name": "benefactor",
          "type": "address"
        },
        {
          "indexed": true,
          "internalType": "address",
          "name": "beneficiary",
          "type": "address"
        },
        {
          "indexed": false,
          "internalType": "string",
          "name": "ipfsCID",
          "type": "string"
        }
      ],
      "name": "IpfsCIDRemoved",
      "type": "event"
    },
    {
      "anonymous": false,
      "inputs": [
        {
          "indexed": true,
          "internalType": "address",
          "name": "benefactor",
          "type": "address"
        },
        {
          "indexed": false,
          "internalType": "uint256",
          "name": "countdownDuration",
          "type": "uint256"
        },
        {
          "indexed": false,
          "internalType": "uint256",
          "name": "responseTime",
          "type": "uint256"
        },
        {
          "indexed": false,
          "internalType": "uint256",
          "name": "currentTime",
          "type": "uint256"
        },
        {
          "indexed": false,
          "internalType": "uint256",
          "name": "lastBenefactorResponseTime",
          "type": "uint256"
        }
      ],
      "name": "RemainingCountdownInfo",
      "type": "event"
    },
    {
      "anonymous": false,
      "inputs": [
        {
          "indexed": true,
          "internalType": "address",
          "name": "benefactor",
          "type": "address"
        },
        {
          "indexed": true,
          "internalType": "address",
          "name": "caller",
          "type": "address"
        }
      ],
      "name": "SwitchAlreadyOff",
      "type": "event"
    },
    {
      "anonymous": false,
      "inputs": [
        {
          "indexed": true,
          "internalType": "address",
          "name": "benefactor",
          "type": "address"
        },
        {
          "indexed": true,
          "internalType": "address",
          "name": "caller",
          "type": "address"
        }
      ],
      "name": "SwitchAlreadyOn",
      "type": "event"
    },
    {
      "inputs": [
        {
          "internalType": "address",
          "name": "_benefactor",
          "type": "address"
        },
        {
          "internalType": "address",
          "name": "_beneficiary",
          "type": "address"
        },
        {
          "internalType": "string",
          "name": "_key",
          "type": "string"
        }
      ],
      "name": "addBenefactorPublicKey",
      "outputs": [],
      "stateMutability": "nonpayable",
      "type": "function"
    },
    {
      "inputs": [
        {
          "internalType": "address",
          "name": "_beneficiary",
          "type": "address"
        }
      ],
      "name": "addBeneficiary",
      "outputs": [],
      "stateMutability": "nonpayable",
      "type": "function"
    },
    {
      "inputs": [
        {
          "internalType": "address",
          "name": "_benefactor",
          "type": "address"
        },
        {
          "internalType": "address",
          "name": "_beneficiary",
          "type": "address"
        },
        {
          "internalType": "string",
          "name": "_key",
          "type": "string"
        }
      ],
      "name": "addBeneficiaryPublicKey",
      "outputs": [],
      "stateMutability": "nonpayable",
      "type": "function"
    },
    {
      "inputs": [
        {
          "internalType": "address",
          "name": "_beneficiary",
          "type": "address"
        },
        {
          "internalType": "string",
          "name": "_ipfsCID",
          "type": "string"
        }
      ],
      "name": "addIpfsCID",
      "outputs": [],
      "stateMutability": "nonpayable",
      "type": "function"
    },
    {
      "inputs": [
        {
          "internalType": "address",
          "name": "_benefactor",
          "type": "address"
        }
      ],
      "name": "checkAliveStatus",
      "outputs": [
        {
          "internalType": "bool",
          "name": "",
          "type": "bool"
        }
      ],
      "stateMutability": "nonpayable",
      "type": "function"
    },
    {
      "inputs": [
        {
          "internalType": "address",
          "name": "_benefactor",
          "type": "address"
        }
      ],
      "name": "enableSwitch",
      "outputs": [],
      "stateMutability": "nonpayable",
      "type": "function"
    },
    {
      "inputs": [
        {
          "internalType": "address",
          "name": "_benefactor",
          "type": "address"
        },
        {
          "internalType": "address",
          "name": "_beneficiary",
          "type": "address"
        }
      ],
      "name": "getBenefactorPublicKey",
      "outputs": [
        {
          "internalType": "string",
          "name": "",
          "type": "string"
        }
      ],
      "stateMutability": "view",
      "type": "function"
    },
    {
      "inputs": [
        {
          "internalType": "address",
          "name": "_benefactor",
          "type": "address"
        },
        {
          "internalType": "address",
          "name": "_beneficiary",
          "type": "address"
        }
      ],
      "name": "getBeneficiaryPublicKey",
      "outputs": [
        {
          "internalType": "string",
          "name": "",
          "type": "string"
        }
      ],
      "stateMutability": "view",
      "type": "function"
    },
    {
      "inputs": [
        {
          "internalType": "address",
          "name": "_benefactor",
          "type": "address"
        },
        {
          "internalType": "address",
          "name": "_beneficiary",
          "type": "address"
        }
      ],
      "name": "getCIDs",
      "outputs": [
        {
          "internalType": "string[]",
          "name": "",
          "type": "string[]"
        }
      ],
      "stateMutability": "view",
      "type": "function"
    },
    {
      "inputs": [
        {
          "internalType": "address",
          "name": "_benefactor",
          "type": "address"
        }
      ],
      "name": "getData",
      "outputs": [
        {
          "internalType": "bool",
          "name": "switchStatus",
          "type": "bool"
        },
        {
          "internalType": "address[]",
          "name": "beneficiaries",
          "type": "address[]"
        },
        {
          "internalType": "uint256",
          "name": "remainingTime",
          "type": "uint256"
        }
      ],
      "stateMutability": "nonpayable",
      "type": "function"
    },
    {
      "inputs": [],
      "name": "getPrimeAndGenerator",
      "outputs": [
        {
          "internalType": "uint256",
          "name": "",
          "type": "uint256"
        },
        {
          "internalType": "uint256",
          "name": "",
          "type": "uint256"
        }
      ],
      "stateMutability": "view",
      "type": "function"
    },
    {
      "inputs": [
        {
          "internalType": "address",
          "name": "_benefactor",
          "type": "address"
        }
      ],
      "name": "getRemainingCountdownTime",
      "outputs": [
        {
          "internalType": "uint256",
          "name": "",
          "type": "uint256"
        }
      ],
      "stateMutability": "nonpayable",
      "type": "function"
    },
    {
      "inputs": [
        {
          "internalType": "address",
          "name": "_benefactor",
          "type": "address"
        }
      ],
      "name": "getSwitchStatus",
      "outputs": [
        {
          "internalType": "bool",
          "name": "",
          "type": "bool"
        }
      ],
      "stateMutability": "view",
      "type": "function"
    },
    {
      "inputs": [
        {
          "internalType": "address",
          "name": "_benefactor",
          "type": "address"
        },
        {
          "internalType": "address",
          "name": "_address",
          "type": "address"
        }
      ],
      "name": "isBeneficiary",
      "outputs": [
        {
          "internalType": "bool",
          "name": "",
          "type": "bool"
        }
      ],
      "stateMutability": "view",
      "type": "function"
    },
    {
      "inputs": [
        {
          "internalType": "address",
          "name": "_benefactor",
          "type": "address"
        }
      ],
      "name": "removeBenefactor",
      "outputs": [],
      "stateMutability": "nonpayable",
      "type": "function"
    },
    {
      "inputs": [
        {
          "internalType": "address",
          "name": "_beneficiary",
          "type": "address"
        }
      ],
      "name": "removeBeneficiary",
      "outputs": [],
      "stateMutability": "nonpayable",
      "type": "function"
    },
    {
      "inputs": [
        {
          "internalType": "address",
          "name": "_beneficiary",
          "type": "address"
        },
        {
          "internalType": "string",
          "name": "_ipfsCID",
          "type": "string"
        }
      ],
      "name": "removeIpfsCID",
      "outputs": [],
      "stateMutability": "nonpayable",
      "type": "function"
    },
    {
      "inputs": [],
      "name": "respondToSwitch",
      "outputs": [],
      "stateMutability": "nonpayable",
      "type": "function"
    },
    {
      "inputs": [],
      "name": "setBenefactor",
      "outputs": [],
      "stateMutability": "nonpayable",
      "type": "function"
    },
    {
      "inputs": [
        {
          "internalType": "uint256",
          "name": "_prime",
          "type": "uint256"
        },
        {
          "internalType": "uint256",
          "name": "_generator",
          "type": "uint256"
        }
      ],
      "name": "setPrimeAndGenerator",
      "outputs": [],
      "stateMutability": "nonpayable",
      "type": "function"
    }
  ],
  "devdoc": {
    "details": "Smart contract for managing a benefactor's dead man's switch with assigned beneficiaries.",
    "kind": "dev",
    "methods": {
      "addBenefactorPublicKey(address,address,string)": {
        "details": "adds the benefactor public key to the specified benefactor-beneficiary pair"
      },
      "addBeneficiary(address)": {
        "details": "Adds a new beneficiary to the list. Only callable by the benefactor.",
        "params": {
          "_beneficiary": "The address of the new beneficiary."
        }
      },
      "addBeneficiaryPublicKey(address,address,string)": {
        "details": "adds the beneficiary public key to the specified benefactor-beneficiary pair"
      },
      "addIpfsCID(address,string)": {
        "details": "Adds an IPFS CID to the specified beneficiary. Only callable by the benefactor.",
        "params": {
          "_beneficiary": "The address of the beneficiary.",
          "_ipfsCID": "The IPFS CID to add."
        }
      },
      "checkAliveStatus(address)": {
        "details": "Checks the alive status of the benefactor.",
        "params": {
          "_benefactor": "The address of the benefactor."
        },
        "returns": {
          "_0": "A boolean indicating whether the benefactor is alive."
        }
      },
      "enableSwitch(address)": {
        "details": "Enables the dead man's switch. Only callable by beneficiaries.",
        "params": {
          "_benefactor": "The address of the benefactor."
        }
      },
      "getBenefactorPublicKey(address,address)": {
        "details": "returns the benefactor public key from the specified benefactor-beneficiary pair"
      },
      "getBeneficiaryPublicKey(address,address)": {
        "details": "returns the beneficiary public key from the specified benefactor-beneficiary pair"
      },
      "getCIDs(address,address)": {
        "details": "Release CIDs to beneficiary.",
        "params": {
          "_benefactor": "The address of the benefactor.",
          "_beneficiary": "The address of the beneficiary."
        }
      },
      "getData(address)": {
        "details": "Returns current status of benefactor."
      },
      "getPrimeAndGenerator()": {
        "details": "Getter function to get both prime and generator values"
      },
      "getRemainingCountdownTime(address)": {
        "details": "Returns the remaining countdown time.",
        "params": {
          "_benefactor": "The address of the benefactor."
        },
        "returns": {
          "_0": "The remaining countdown time in seconds."
        }
      },
      "isBeneficiary(address,address)": {
        "details": "Checks if the given address is a beneficiary. Only benefactor",
        "params": {
          "_address": "The address to check."
        },
        "returns": {
          "_0": "A boolean indicating whether the address is a beneficiary."
        }
      },
      "removeBenefactor(address)": {
        "details": "Removes a benefactor. Only callable by benefactor."
      },
      "removeBeneficiary(address)": {
        "details": "Removes a beneficiary from the list. Only callable by the benefactor.",
        "params": {
          "_beneficiary": "The address of the beneficiary to be removed."
        }
      },
      "removeIpfsCID(address,string)": {
        "details": "Removes an IPFS CID from the specified beneficiary. Only callable by benefactor.",
        "params": {
          "_beneficiary": "The address of the beneficiary.",
          "_ipfsCID": "The IPFS CID to remove."
        }
      },
      "respondToSwitch()": {
        "details": "Performs actions based on benefactor's activity when responding to an enabled switch. Only callable by the benefactor."
      },
      "setBenefactor()": {
        "details": "Sets up a benefactor. Only callable by benefactor."
      },
      "setPrimeAndGenerator(uint256,uint256)": {
        "details": "Setter function to set both prime and generator values",
        "params": {
          "_generator": "The generator used in the Diffie-Hellman algorithm.",
          "_prime": "The prime number used in the Diffie-Hellman algorithm."
        }
      }
    },
    "title": "BenefactorsDeadManSwitch",
    "version": 1
  },
  "evm": {
    "assembly": "    /* \"DeadMansSwitch.sol\":235:15327  contract BenefactorsDeadManSwitch {... */\n  mstore(0x40, 0x80)\n    /* \"DeadMansSwitch.sol\":737:738  0 */\n  0x00\n    /* \"DeadMansSwitch.sol\":713:738  uint256 private prime = 0 */\n  dup1\n  sstore\n    /* \"DeadMansSwitch.sol\":773:774  0 */\n  0x00\n    /* \"DeadMansSwitch.sol\":745:774  uint256 private generator = 0 */\n  0x01\n  sstore\n    /* \"DeadMansSwitch.sol\":2596:2612  constructor() {} */\n  callvalue\n  dup1\n  iszero\n  tag_1\n  jumpi\n  0x00\n  dup1\n  revert\ntag_1:\n  pop\n    /* \"DeadMansSwitch.sol\":235:15327  contract BenefactorsDeadManSwitch {... */\n  dataSize(sub_0)\n  dup1\n  dataOffset(sub_0)\n  0x00\n  codecopy\n  0x00\n  return\nstop\n\nsub_0: assembly {\n        /* \"DeadMansSwitch.sol\":235:15327  contract BenefactorsDeadManSwitch {... */\n      mstore(0x40, 0x80)\n      callvalue\n      dup1\n      iszero\n      tag_1\n      jumpi\n      0x00\n      dup1\n      revert\n    tag_1:\n      pop\n      jumpi(tag_2, lt(calldatasize, 0x04))\n      shr(0xe0, calldataload(0x00))\n      dup1\n      0x59633a1c\n      gt\n      tag_23\n      jumpi\n      dup1\n      0xccb53a09\n      gt\n      tag_24\n      jumpi\n      dup1\n      0xd51c3199\n      gt\n      tag_25\n      jumpi\n      dup1\n      0xd51c3199\n      eq\n      tag_20\n      jumpi\n      dup1\n      0xdf78bc54\n      eq\n      tag_21\n      jumpi\n      dup1\n      0xf892cb36\n      eq\n      tag_22\n      jumpi\n      0x00\n      dup1\n      revert\n    tag_25:\n      dup1\n      0xccb53a09\n      eq\n      tag_18\n      jumpi\n      dup1\n      0xcd9c9362\n      eq\n      tag_19\n      jumpi\n      0x00\n      dup1\n      revert\n    tag_24:\n      dup1\n      0x87ce1ca8\n      gt\n      tag_26\n      jumpi\n      dup1\n      0x87ce1ca8\n      eq\n      tag_15\n      jumpi\n      dup1\n      0x8d5492e4\n      eq\n      tag_16\n      jumpi\n      dup1\n      0xa98d22bc\n      eq\n      tag_17\n      jumpi\n      0x00\n      dup1\n      revert\n    tag_26:\n      dup1\n      0x59633a1c\n      eq\n      tag_13\n      jumpi\n      dup1\n      0x87c63714\n      eq\n      tag_14\n      jumpi\n      0x00\n      dup1\n      revert\n    tag_23:\n      dup1\n      0x38266b22\n      gt\n      tag_27\n      jumpi\n      dup1\n      0x46437d3a\n      gt\n      tag_28\n      jumpi\n      dup1\n      0x46437d3a\n      eq\n      tag_10\n      jumpi\n      dup1\n      0x5211287e\n      eq\n      tag_11\n      jumpi\n      dup1\n      0x5926651d\n      eq\n      tag_12\n      jumpi\n      0x00\n      dup1\n      revert\n    tag_28:\n      dup1\n      0x38266b22\n      eq\n      tag_8\n      jumpi\n      dup1\n      0x3dea2f84\n      eq\n      tag_9\n      jumpi\n      0x00\n      dup1\n      revert\n    tag_27:\n      dup1\n      0x07a8b767\n      gt\n      tag_29\n      jumpi\n      dup1\n      0x07a8b767\n      eq\n      tag_5\n      jumpi\n      dup1\n      0x096e27d9\n      eq\n      tag_6\n      jumpi\n      dup1\n      0x196ba7ef\n      eq\n      tag_7\n      jumpi\n      0x00\n      dup1\n      revert\n    tag_29:\n      dup1\n      0x01e2b33f\n      eq\n      tag_3\n      jumpi\n      dup1\n      0x072039a2\n      eq\n      tag_4\n      jumpi\n    tag_2:\n      0x00\n      dup1\n      revert\n        /* \"DeadMansSwitch.sol\":11528:12039  function getRemainingCountdownTime(address _benefactor) public returns (uint256) {... */\n    tag_3:\n      tag_30\n      tag_31\n      calldatasize\n      0x04\n      tag_32\n      jump\t// in\n    tag_31:\n      tag_33\n      jump\t// in\n    tag_30:\n      mload(0x40)\n        /* \"#utility.yul\":552:577   */\n      swap1\n      dup2\n      mstore\n        /* \"#utility.yul\":540:542   */\n      0x20\n        /* \"#utility.yul\":525:543   */\n      add\n        /* \"DeadMansSwitch.sol\":11528:12039  function getRemainingCountdownTime(address _benefactor) public returns (uint256) {... */\n    tag_34:\n      mload(0x40)\n      dup1\n      swap2\n      sub\n      swap1\n      return\n        /* \"DeadMansSwitch.sol\":12249:12833  function checkAliveStatus(address _benefactor) public returns (bool) {... */\n    tag_4:\n      tag_36\n      tag_37\n      calldatasize\n      0x04\n      tag_32\n      jump\t// in\n    tag_37:\n      tag_38\n      jump\t// in\n    tag_36:\n      mload(0x40)\n        /* \"#utility.yul\":753:767   */\n      swap1\n      iszero\n        /* \"#utility.yul\":746:768   */\n      iszero\n        /* \"#utility.yul\":728:769   */\n      dup2\n      mstore\n        /* \"#utility.yul\":716:718   */\n      0x20\n        /* \"#utility.yul\":701:719   */\n      add\n        /* \"DeadMansSwitch.sol\":12249:12833  function checkAliveStatus(address _benefactor) public returns (bool) {... */\n      tag_34\n        /* \"#utility.yul\":588:775   */\n      jump\n        /* \"DeadMansSwitch.sol\":6696:6913  function getSwitchStatus(address _benefactor) public view returns (bool) {... */\n    tag_5:\n      tag_36\n      tag_42\n      calldatasize\n      0x04\n      tag_32\n      jump\t// in\n    tag_42:\n      tag_43\n      jump\t// in\n        /* \"DeadMansSwitch.sol\":7135:7305  function isBeneficiary(address _benefactor, address _address) public view returns (bool) {... */\n    tag_6:\n      tag_36\n      tag_46\n      calldatasize\n      0x04\n      tag_47\n      jump\t// in\n    tag_46:\n      tag_48\n      jump\t// in\n        /* \"DeadMansSwitch.sol\":2702:3204  function setBenefactor() public{... */\n    tag_7:\n      tag_50\n      tag_51\n      jump\t// in\n    tag_50:\n      stop\n        /* \"DeadMansSwitch.sol\":3281:4279  function getData(address _benefactor) public returns (bool switchStatus, address[] memory beneficiaries, uint256 remainingTime) {... */\n    tag_8:\n      tag_52\n      tag_53\n      calldatasize\n      0x04\n      tag_32\n      jump\t// in\n    tag_53:\n      tag_54\n      jump\t// in\n    tag_52:\n      mload(0x40)\n      tag_34\n      swap4\n      swap3\n      swap2\n      swap1\n      tag_56\n      jump\t// in\n        /* \"DeadMansSwitch.sol\":5119:5483  function addBeneficiaryPublicKey(address _benefactor, address _beneficiary, string memory _key) public {... */\n    tag_9:\n      tag_50\n      tag_58\n      calldatasize\n      0x04\n      tag_59\n      jump\t// in\n    tag_58:\n      tag_60\n      jump\t// in\n        /* \"DeadMansSwitch.sol\":15209:15324  function getPrimeAndGenerator() public view returns (uint256, uint256) {... */\n    tag_10:\n        /* \"DeadMansSwitch.sol\":15262:15269  uint256 */\n      0x00\n        /* \"DeadMansSwitch.sol\":15299:15304  prime */\n      sload\n        /* \"DeadMansSwitch.sol\":15306:15315  generator */\n      sload(0x01)\n        /* \"DeadMansSwitch.sol\":15209:15324  function getPrimeAndGenerator() public view returns (uint256, uint256) {... */\n      0x40\n      dup1\n      mload\n        /* \"#utility.yul\":3389:3414   */\n      swap3\n      dup4\n      mstore\n        /* \"#utility.yul\":3445:3447   */\n      0x20\n        /* \"#utility.yul\":3430:3448   */\n      dup4\n      add\n        /* \"#utility.yul\":3423:3457   */\n      swap2\n      swap1\n      swap2\n      mstore\n        /* \"#utility.yul\":3362:3380   */\n      add\n        /* \"DeadMansSwitch.sol\":15209:15324  function getPrimeAndGenerator() public view returns (uint256, uint256) {... */\n      tag_34\n        /* \"#utility.yul\":3215:3463   */\n      jump\n        /* \"DeadMansSwitch.sol\":8505:9245  function addIpfsCID(address _beneficiary, string memory _ipfsCID) external onlyBenefactor {... */\n    tag_11:\n      tag_50\n      tag_66\n      calldatasize\n      0x04\n      tag_67\n      jump\t// in\n    tag_66:\n      tag_68\n      jump\t// in\n        /* \"DeadMansSwitch.sol\":7952:8281  function addBeneficiary(address _beneficiary) external onlyBenefactor {... */\n    tag_12:\n      tag_50\n      tag_70\n      calldatasize\n      0x04\n      tag_32\n      jump\t// in\n    tag_70:\n      tag_71\n      jump\t// in\n        /* \"DeadMansSwitch.sol\":7488:7780  function removeBeneficiary(address _beneficiary) external onlyBenefactor {... */\n    tag_13:\n      tag_50\n      tag_73\n      calldatasize\n      0x04\n      tag_32\n      jump\t// in\n    tag_73:\n      tag_74\n      jump\t// in\n        /* \"DeadMansSwitch.sol\":9473:10388  function removeIpfsCID(address _beneficiary, string memory _ipfsCID) external onlyBenefactor {... */\n    tag_14:\n      tag_50\n      tag_76\n      calldatasize\n      0x04\n      tag_67\n      jump\t// in\n    tag_76:\n      tag_77\n      jump\t// in\n        /* \"DeadMansSwitch.sol\":5601:5923  function getBenefactorPublicKey(address _benefactor, address _beneficiary) public view returns(string memory) {... */\n    tag_15:\n      tag_78\n      tag_79\n      calldatasize\n      0x04\n      tag_47\n      jump\t// in\n    tag_79:\n      tag_80\n      jump\t// in\n    tag_78:\n      mload(0x40)\n      tag_34\n      swap2\n      swap1\n      tag_82\n      jump\t// in\n        /* \"DeadMansSwitch.sol\":10550:11336  function enableSwitch(address _benefactor) external {... */\n    tag_16:\n      tag_50\n      tag_84\n      calldatasize\n      0x04\n      tag_32\n      jump\t// in\n    tag_84:\n      tag_85\n      jump\t// in\n        /* \"DeadMansSwitch.sol\":6456:6688  function removeBenefactor(address _benefactor) public {... */\n    tag_17:\n      tag_50\n      tag_87\n      calldatasize\n      0x04\n      tag_32\n      jump\t// in\n    tag_87:\n      tag_88\n      jump\t// in\n        /* \"DeadMansSwitch.sol\":14977:15116  function setPrimeAndGenerator(uint256 _prime, uint256 _generator) public {... */\n    tag_18:\n      tag_50\n      tag_90\n      calldatasize\n      0x04\n      tag_91\n      jump\t// in\n    tag_90:\n        /* \"DeadMansSwitch.sol\":15061:15066  prime */\n      0x00\n        /* \"DeadMansSwitch.sol\":15061:15075  prime = _prime */\n      swap2\n      swap1\n      swap2\n      sstore\n        /* \"DeadMansSwitch.sol\":15086:15095  generator */\n      0x01\n        /* \"DeadMansSwitch.sol\":15086:15108  generator = _generator */\n      sstore\n        /* \"DeadMansSwitch.sol\":14977:15116  function setPrimeAndGenerator(uint256 _prime, uint256 _generator) public {... */\n      jump\n        /* \"DeadMansSwitch.sol\":13430:14129  function respondToSwitch() external onlyBenefactor {... */\n    tag_19:\n      tag_50\n      tag_94\n      jump\t// in\n        /* \"DeadMansSwitch.sol\":4646:5007  function addBenefactorPublicKey(address _benefactor, address _beneficiary, string memory _key) public {... */\n    tag_20:\n      tag_50\n      tag_96\n      calldatasize\n      0x04\n      tag_59\n      jump\t// in\n    tag_96:\n      tag_97\n      jump\t// in\n        /* \"DeadMansSwitch.sol\":14319:14728  function getCIDs(address _benefactor, address _beneficiary) public view returns (string[] memory){... */\n    tag_21:\n      tag_98\n      tag_99\n      calldatasize\n      0x04\n      tag_47\n      jump\t// in\n    tag_99:\n      tag_100\n      jump\t// in\n    tag_98:\n      mload(0x40)\n      tag_34\n      swap2\n      swap1\n      tag_102\n      jump\t// in\n        /* \"DeadMansSwitch.sol\":6042:6366  function getBeneficiaryPublicKey(address _benefactor, address _beneficiary) public view returns(string memory) {... */\n    tag_22:\n      tag_78\n      tag_104\n      calldatasize\n      0x04\n      tag_47\n      jump\t// in\n    tag_104:\n      tag_105\n      jump\t// in\n        /* \"DeadMansSwitch.sol\":11528:12039  function getRemainingCountdownTime(address _benefactor) public returns (uint256) {... */\n    tag_33:\n      sub(shl(0xa0, 0x01), 0x01)\n        /* \"DeadMansSwitch.sol\":11661:11685  benefactors[_benefactor] */\n      dup2\n      and\n        /* \"DeadMansSwitch.sol\":11600:11607  uint256 */\n      0x00\n        /* \"DeadMansSwitch.sol\":11661:11685  benefactors[_benefactor] */\n      swap1\n      dup2\n      mstore\n        /* \"DeadMansSwitch.sol\":11661:11672  benefactors */\n      0x02\n        /* \"DeadMansSwitch.sol\":11661:11685  benefactors[_benefactor] */\n      0x20\n      mstore\n      0x40\n      dup2\n      keccak256\n        /* \"DeadMansSwitch.sol\":11661:11712  benefactors[_benefactor].lastBenefactorResponseTime */\n      0x03\n      add\n      sload\n        /* \"DeadMansSwitch.sol\":11600:11607  uint256 */\n      dup2\n      swap1\n        /* \"DeadMansSwitch.sol\":11643:11712  block.timestamp - benefactors[_benefactor].lastBenefactorResponseTime */\n      tag_108\n      swap1\n        /* \"DeadMansSwitch.sol\":11643:11658  block.timestamp */\n      timestamp\n        /* \"DeadMansSwitch.sol\":11643:11712  block.timestamp - benefactors[_benefactor].lastBenefactorResponseTime */\n      tag_109\n      jump\t// in\n    tag_108:\n      sub(shl(0xa0, 0x01), 0x01)\n        /* \"DeadMansSwitch.sol\":11728:11890  RemainingCountdownInfo(_benefactor,benefactors[_benefactor].countdownDuration, responseTime, block.timestamp, benefactors[_benefactor].lastBenefactorResponseTime) */\n      dup5\n      and\n        /* \"DeadMansSwitch.sol\":11763:11787  benefactors[_benefactor] */\n      0x00\n      dup2\n      dup2\n      mstore\n        /* \"DeadMansSwitch.sol\":11763:11774  benefactors */\n      0x02\n        /* \"DeadMansSwitch.sol\":11763:11787  benefactors[_benefactor] */\n      0x20\n      dup2\n      dup2\n      mstore\n      0x40\n      swap3\n      dup4\n      swap1\n      keccak256\n        /* \"DeadMansSwitch.sol\":11763:11805  benefactors[_benefactor].countdownDuration */\n      swap2\n      dup3\n      add\n      sload\n        /* \"DeadMansSwitch.sol\":11838:11889  benefactors[_benefactor].lastBenefactorResponseTime */\n      0x03\n      swap1\n      swap3\n      add\n      sload\n        /* \"DeadMansSwitch.sol\":11728:11890  RemainingCountdownInfo(_benefactor,benefactors[_benefactor].countdownDuration, responseTime, block.timestamp, benefactors[_benefactor].lastBenefactorResponseTime) */\n      dup4\n      mload\n        /* \"#utility.yul\":6182:6207   */\n      swap3\n      dup4\n      mstore\n        /* \"#utility.yul\":6223:6241   */\n      swap1\n      dup3\n      add\n        /* \"#utility.yul\":6216:6250   */\n      dup6\n      swap1\n      mstore\n        /* \"DeadMansSwitch.sol\":11821:11836  block.timestamp */\n      timestamp\n        /* \"#utility.yul\":6266:6284   */\n      dup3\n      dup5\n      add\n        /* \"#utility.yul\":6259:6293   */\n      mstore\n        /* \"#utility.yul\":6324:6326   */\n      0x60\n        /* \"#utility.yul\":6309:6327   */\n      dup3\n      add\n        /* \"#utility.yul\":6302:6336   */\n      mstore\n        /* \"DeadMansSwitch.sol\":11728:11890  RemainingCountdownInfo(_benefactor,benefactors[_benefactor].countdownDuration, responseTime, block.timestamp, benefactors[_benefactor].lastBenefactorResponseTime) */\n      swap1\n      mload\n        /* \"#utility.yul\":6216:6250   */\n      swap3\n      swap4\n      pop\n        /* \"DeadMansSwitch.sol\":11728:11890  RemainingCountdownInfo(_benefactor,benefactors[_benefactor].countdownDuration, responseTime, block.timestamp, benefactors[_benefactor].lastBenefactorResponseTime) */\n      swap1\n      swap2\n      0x74a7c0c2e8065fcdbfca5ae9f6cf0233e47e9e75b6fcf75674dd4b7e3f9b8183\n      swap2\n      dup2\n      swap1\n      sub\n        /* \"#utility.yul\":6169:6172   */\n      0x80\n        /* \"DeadMansSwitch.sol\":11728:11890  RemainingCountdownInfo(_benefactor,benefactors[_benefactor].countdownDuration, responseTime, block.timestamp, benefactors[_benefactor].lastBenefactorResponseTime) */\n      add\n      swap1\n      log2\n      sub(shl(0xa0, 0x01), 0x01)\n        /* \"DeadMansSwitch.sol\":11924:11948  benefactors[_benefactor] */\n      dup4\n      and\n      0x00\n      swap1\n      dup2\n      mstore\n        /* \"DeadMansSwitch.sol\":11924:11935  benefactors */\n      0x02\n        /* \"DeadMansSwitch.sol\":11924:11948  benefactors[_benefactor] */\n      0x20\n      dup2\n      swap1\n      mstore\n      0x40\n      swap1\n      swap2\n      keccak256\n        /* \"DeadMansSwitch.sol\":11924:11966  benefactors[_benefactor].countdownDuration */\n      add\n      sload\n        /* \"DeadMansSwitch.sol\":11909:11966  responseTime > benefactors[_benefactor].countdownDuration */\n      dup2\n      gt\n        /* \"DeadMansSwitch.sol\":11908:12031  (responseTime > benefactors[_benefactor].countdownDuration) ? 0 : benefactors[_benefactor].countdownDuration - responseTime */\n      tag_112\n      jumpi\n      sub(shl(0xa0, 0x01), 0x01)\n        /* \"DeadMansSwitch.sol\":11974:11998  benefactors[_benefactor] */\n      dup4\n      and\n      0x00\n      swap1\n      dup2\n      mstore\n        /* \"DeadMansSwitch.sol\":11974:11985  benefactors */\n      0x02\n        /* \"DeadMansSwitch.sol\":11974:11998  benefactors[_benefactor] */\n      0x20\n      dup2\n      swap1\n      mstore\n      0x40\n      swap1\n      swap2\n      keccak256\n        /* \"DeadMansSwitch.sol\":11974:12016  benefactors[_benefactor].countdownDuration */\n      add\n      sload\n        /* \"DeadMansSwitch.sol\":11974:12031  benefactors[_benefactor].countdownDuration - responseTime */\n      tag_113\n      swap1\n        /* \"DeadMansSwitch.sol\":12019:12031  responseTime */\n      dup3\n      swap1\n        /* \"DeadMansSwitch.sol\":11974:12031  benefactors[_benefactor].countdownDuration - responseTime */\n      tag_109\n      jump\t// in\n    tag_113:\n        /* \"DeadMansSwitch.sol\":11908:12031  (responseTime > benefactors[_benefactor].countdownDuration) ? 0 : benefactors[_benefactor].countdownDuration - responseTime */\n      jump(tag_114)\n    tag_112:\n        /* \"DeadMansSwitch.sol\":11970:11971  0 */\n      0x00\n        /* \"DeadMansSwitch.sol\":11908:12031  (responseTime > benefactors[_benefactor].countdownDuration) ? 0 : benefactors[_benefactor].countdownDuration - responseTime */\n    tag_114:\n        /* \"DeadMansSwitch.sol\":11901:12031  return (responseTime > benefactors[_benefactor].countdownDuration) ? 0 : benefactors[_benefactor].countdownDuration - responseTime */\n      swap4\n        /* \"DeadMansSwitch.sol\":11528:12039  function getRemainingCountdownTime(address _benefactor) public returns (uint256) {... */\n      swap3\n      pop\n      pop\n      pop\n      jump\t// out\n        /* \"DeadMansSwitch.sol\":12249:12833  function checkAliveStatus(address _benefactor) public returns (bool) {... */\n    tag_38:\n        /* \"DeadMansSwitch.sol\":12312:12316  bool */\n      0x00\n        /* \"DeadMansSwitch.sol\":12333:12361  getSwitchStatus(_benefactor) */\n      tag_116\n        /* \"DeadMansSwitch.sol\":12349:12360  _benefactor */\n      dup3\n        /* \"DeadMansSwitch.sol\":12333:12348  getSwitchStatus */\n      tag_43\n        /* \"DeadMansSwitch.sol\":12333:12361  getSwitchStatus(_benefactor) */\n      jump\t// in\n    tag_116:\n        /* \"DeadMansSwitch.sol\":12329:12686  if (getSwitchStatus(_benefactor)){... */\n      iszero\n      tag_118\n      jumpi\n      sub(shl(0xa0, 0x01), 0x01)\n        /* \"DeadMansSwitch.sol\":12381:12405  benefactors[_benefactor] */\n      dup3\n      and\n      0x00\n      swap1\n      dup2\n      mstore\n        /* \"DeadMansSwitch.sol\":12381:12392  benefactors */\n      0x02\n        /* \"DeadMansSwitch.sol\":12381:12405  benefactors[_benefactor] */\n      0x20\n      mstore\n      0x40\n      swap1\n      keccak256\n        /* \"DeadMansSwitch.sol\":12381:12432  benefactors[_benefactor].lastBenefactorResponseTime */\n      0x03\n      add\n      sload\n        /* \"DeadMansSwitch.sol\":12381:12437  benefactors[_benefactor].lastBenefactorResponseTime != 0 */\n      iszero\n        /* \"DeadMansSwitch.sol\":12377:12672  if (benefactors[_benefactor].lastBenefactorResponseTime != 0) {... */\n      tag_118\n      jumpi\n        /* \"DeadMansSwitch.sol\":12458:12484  uint256 remainingCountdown */\n      0x00\n        /* \"DeadMansSwitch.sol\":12487:12525  getRemainingCountdownTime(_benefactor) */\n      tag_119\n        /* \"DeadMansSwitch.sol\":12513:12524  _benefactor */\n      dup4\n        /* \"DeadMansSwitch.sol\":12487:12512  getRemainingCountdownTime */\n      tag_33\n        /* \"DeadMansSwitch.sol\":12487:12525  getRemainingCountdownTime(_benefactor) */\n      jump\t// in\n    tag_119:\n        /* \"DeadMansSwitch.sol\":12458:12525  uint256 remainingCountdown = getRemainingCountdownTime(_benefactor) */\n      swap1\n      pop\n        /* \"DeadMansSwitch.sol\":12570:12571  0 */\n      0x00\n        /* \"DeadMansSwitch.sol\":12548:12566  remainingCountdown */\n      dup2\n        /* \"DeadMansSwitch.sol\":12548:12571  remainingCountdown <= 0 */\n      gt\n        /* \"DeadMansSwitch.sol\":12544:12656  if (remainingCountdown <= 0) {... */\n      tag_120\n      jumpi\n      sub(shl(0xa0, 0x01), 0x01)\n        /* \"DeadMansSwitch.sol\":12596:12620  benefactors[_benefactor] */\n      dup4\n      and\n        /* \"DeadMansSwitch.sol\":12631:12636  false */\n      0x00\n        /* \"DeadMansSwitch.sol\":12596:12620  benefactors[_benefactor] */\n      swap1\n      dup2\n      mstore\n        /* \"DeadMansSwitch.sol\":12596:12607  benefactors */\n      0x02\n        /* \"DeadMansSwitch.sol\":12596:12620  benefactors[_benefactor] */\n      0x20\n      mstore\n      0x40\n      swap1\n      keccak256\n        /* \"DeadMansSwitch.sol\":12596:12628  benefactors[_benefactor].isAlive */\n      0x04\n      add\n        /* \"DeadMansSwitch.sol\":12596:12636  benefactors[_benefactor].isAlive = false */\n      dup1\n      sload\n      not(0xff00)\n      and\n      swap1\n      sstore\n        /* \"DeadMansSwitch.sol\":12544:12656  if (remainingCountdown <= 0) {... */\n    tag_120:\n        /* \"DeadMansSwitch.sol\":12439:12672  {... */\n      pop\n        /* \"DeadMansSwitch.sol\":12377:12672  if (benefactors[_benefactor].lastBenefactorResponseTime != 0) {... */\n    tag_118:\n      pop\n      sub(shl(0xa0, 0x01), 0x01)\n        /* \"DeadMansSwitch.sol\":12793:12817  benefactors[_benefactor] */\n      and\n      0x00\n      swap1\n      dup2\n      mstore\n        /* \"DeadMansSwitch.sol\":12793:12804  benefactors */\n      0x02\n        /* \"DeadMansSwitch.sol\":12793:12817  benefactors[_benefactor] */\n      0x20\n      mstore\n      0x40\n      swap1\n      keccak256\n        /* \"DeadMansSwitch.sol\":12793:12825  benefactors[_benefactor].isAlive */\n      0x04\n      add\n      sload\n      0x0100\n      swap1\n      div\n      0xff\n      and\n      swap1\n        /* \"DeadMansSwitch.sol\":12249:12833  function checkAliveStatus(address _benefactor) public returns (bool) {... */\n      jump\t// out\n        /* \"DeadMansSwitch.sol\":6696:6913  function getSwitchStatus(address _benefactor) public view returns (bool) {... */\n    tag_43:\n      sub(shl(0xa0, 0x01), 0x01)\n        /* \"DeadMansSwitch.sol\":6788:6812  benefactors[_benefactor] */\n      dup2\n      and\n        /* \"DeadMansSwitch.sol\":6763:6767  bool */\n      0x00\n        /* \"DeadMansSwitch.sol\":6788:6812  benefactors[_benefactor] */\n      swap1\n      dup2\n      mstore\n        /* \"DeadMansSwitch.sol\":6788:6799  benefactors */\n      0x02\n        /* \"DeadMansSwitch.sol\":6788:6812  benefactors[_benefactor] */\n      0x20\n      mstore\n      0x40\n      dup2\n      keccak256\n        /* \"DeadMansSwitch.sol\":6788:6819  benefactors[_benefactor].exists */\n      sload\n      0xff\n      and\n        /* \"DeadMansSwitch.sol\":6780:6848  require(benefactors[_benefactor].exists,\"Benefactor does not exist\") */\n      tag_122\n      jumpi\n      mload(0x40)\n      shl(0xe5, 0x461bcd)\n      dup2\n      mstore\n        /* \"#utility.yul\":6549:6551   */\n      0x20\n        /* \"DeadMansSwitch.sol\":6780:6848  require(benefactors[_benefactor].exists,\"Benefactor does not exist\") */\n      0x04\n      dup3\n      add\n        /* \"#utility.yul\":6531:6552   */\n      mstore\n        /* \"#utility.yul\":6588:6590   */\n      0x19\n        /* \"#utility.yul\":6568:6586   */\n      0x24\n      dup3\n      add\n        /* \"#utility.yul\":6561:6591   */\n      mstore\n        /* \"#utility.yul\":6627:6654   */\n      0x42656e65666163746f7220646f6573206e6f7420657869737400000000000000\n        /* \"#utility.yul\":6607:6625   */\n      0x44\n      dup3\n      add\n        /* \"#utility.yul\":6600:6655   */\n      mstore\n        /* \"#utility.yul\":6672:6690   */\n      0x64\n      add\n        /* \"DeadMansSwitch.sol\":6780:6848  require(benefactors[_benefactor].exists,\"Benefactor does not exist\") */\n    tag_123:\n      mload(0x40)\n      dup1\n      swap2\n      sub\n      swap1\n      revert\n    tag_122:\n      pop\n      sub(shl(0xa0, 0x01), 0x01)\n        /* \"DeadMansSwitch.sol\":6867:6891  benefactors[_benefactor] */\n      and\n      0x00\n      swap1\n      dup2\n      mstore\n        /* \"DeadMansSwitch.sol\":6867:6878  benefactors */\n      0x02\n        /* \"DeadMansSwitch.sol\":6867:6891  benefactors[_benefactor] */\n      0x20\n      mstore\n      0x40\n      swap1\n      keccak256\n        /* \"DeadMansSwitch.sol\":6867:6905  benefactors[_benefactor].isSwitchedOff */\n      0x04\n      add\n      sload\n      0xff\n      and\n        /* \"DeadMansSwitch.sol\":6866:6905  !benefactors[_benefactor].isSwitchedOff */\n      iszero\n      swap1\n        /* \"DeadMansSwitch.sol\":6696:6913  function getSwitchStatus(address _benefactor) public view returns (bool) {... */\n      jump\t// out\n        /* \"DeadMansSwitch.sol\":7135:7305  function isBeneficiary(address _benefactor, address _address) public view returns (bool) {... */\n    tag_48:\n      sub(shl(0xa0, 0x01), 0x01)\n        /* \"DeadMansSwitch.sol\":7242:7266  benefactors[_benefactor] */\n      dup1\n      dup4\n      and\n        /* \"DeadMansSwitch.sol\":7218:7222  bool */\n      0x00\n        /* \"DeadMansSwitch.sol\":7242:7266  benefactors[_benefactor] */\n      swap1\n      dup2\n      mstore\n        /* \"DeadMansSwitch.sol\":7242:7253  benefactors */\n      0x02\n        /* \"DeadMansSwitch.sol\":7242:7266  benefactors[_benefactor] */\n      0x20\n      swap1\n      dup2\n      mstore\n      0x40\n      dup1\n      dup4\n      keccak256\n        /* \"DeadMansSwitch.sol\":7242:7290  benefactors[_benefactor].beneficiaries[_address] */\n      swap4\n      dup6\n      and\n      dup4\n      mstore\n        /* \"DeadMansSwitch.sol\":7242:7280  benefactors[_benefactor].beneficiaries */\n      0x01\n      swap1\n      swap4\n      add\n        /* \"DeadMansSwitch.sol\":7242:7290  benefactors[_benefactor].beneficiaries[_address] */\n      swap1\n      mstore\n      keccak256\n        /* \"DeadMansSwitch.sol\":7242:7297  benefactors[_benefactor].beneficiaries[_address].exists */\n      sload\n      0xff\n      and\n        /* \"DeadMansSwitch.sol\":7135:7305  function isBeneficiary(address _benefactor, address _address) public view returns (bool) {... */\n    tag_125:\n      swap3\n      swap2\n      pop\n      pop\n      jump\t// out\n        /* \"DeadMansSwitch.sol\":2702:3204  function setBenefactor() public{... */\n    tag_51:\n        /* \"DeadMansSwitch.sol\":2765:2775  msg.sender */\n      caller\n        /* \"DeadMansSwitch.sol\":2753:2776  benefactors[msg.sender] */\n      0x00\n      swap1\n      dup2\n      mstore\n        /* \"DeadMansSwitch.sol\":2753:2764  benefactors */\n      0x02\n        /* \"DeadMansSwitch.sol\":2753:2776  benefactors[msg.sender] */\n      0x20\n      mstore\n      0x40\n      swap1\n      keccak256\n        /* \"DeadMansSwitch.sol\":2753:2783  benefactors[msg.sender].exists */\n      sload\n      0xff\n      and\n        /* \"DeadMansSwitch.sol\":2752:2783  !benefactors[msg.sender].exists */\n      iszero\n        /* \"DeadMansSwitch.sol\":2744:2812  require(!benefactors[msg.sender].exists,\"benefactor already exists\") */\n      tag_127\n      jumpi\n      mload(0x40)\n      shl(0xe5, 0x461bcd)\n      dup2\n      mstore\n        /* \"#utility.yul\":6903:6905   */\n      0x20\n        /* \"DeadMansSwitch.sol\":2744:2812  require(!benefactors[msg.sender].exists,\"benefactor already exists\") */\n      0x04\n      dup3\n      add\n        /* \"#utility.yul\":6885:6906   */\n      mstore\n        /* \"#utility.yul\":6942:6944   */\n      0x19\n        /* \"#utility.yul\":6922:6940   */\n      0x24\n      dup3\n      add\n        /* \"#utility.yul\":6915:6945   */\n      mstore\n        /* \"#utility.yul\":6981:7008   */\n      0x62656e65666163746f7220616c72656164792065786973747300000000000000\n        /* \"#utility.yul\":6961:6979   */\n      0x44\n      dup3\n      add\n        /* \"#utility.yul\":6954:7009   */\n      mstore\n        /* \"#utility.yul\":7026:7044   */\n      0x64\n      add\n        /* \"DeadMansSwitch.sol\":2744:2812  require(!benefactors[msg.sender].exists,\"benefactor already exists\") */\n      tag_123\n        /* \"#utility.yul\":6701:7050   */\n      jump\n        /* \"DeadMansSwitch.sol\":2744:2812  require(!benefactors[msg.sender].exists,\"benefactor already exists\") */\n    tag_127:\n        /* \"DeadMansSwitch.sol\":2835:2845  msg.sender */\n      caller\n        /* \"DeadMansSwitch.sol\":2823:2846  benefactors[msg.sender] */\n      0x00\n      swap1\n      dup2\n      mstore\n        /* \"DeadMansSwitch.sol\":2823:2834  benefactors */\n      0x02\n        /* \"DeadMansSwitch.sol\":2823:2846  benefactors[msg.sender] */\n      0x20\n      dup2\n      swap1\n      mstore\n      0x40\n      dup3\n      keccak256\n        /* \"DeadMansSwitch.sol\":2823:2858  benefactors[msg.sender].exists=true */\n      dup1\n      sload\n      not(0xff)\n      and\n        /* \"DeadMansSwitch.sol\":2854:2858  true */\n      0x01\n        /* \"DeadMansSwitch.sol\":2823:2858  benefactors[msg.sender].exists=true */\n      or\n      dup2\n      sstore\n        /* \"DeadMansSwitch.sol\":2913:2930  7*24*3600 seconds */\n      0x093a80\n        /* \"DeadMansSwitch.sol\":2869:2910  benefactors[msg.sender].countdownDuration */\n      swap2\n      dup2\n      add\n        /* \"DeadMansSwitch.sol\":2869:2930  benefactors[msg.sender].countdownDuration = 7*24*3600 seconds */\n      swap2\n      swap1\n      swap2\n      sstore\n        /* \"DeadMansSwitch.sol\":3038:3075  benefactors[msg.sender].isSwitchedOff */\n      0x04\n      dup2\n      add\n        /* \"DeadMansSwitch.sol\":3038:3082  benefactors[msg.sender].isSwitchedOff = true */\n      dup1\n      sload\n        /* \"DeadMansSwitch.sol\":3093:3131  benefactors[msg.sender].isAlive = true */\n      0x0101\n      not(0xffff)\n      swap1\n      swap2\n      and\n      or\n      swap1\n      sstore\n        /* \"DeadMansSwitch.sol\":3142:3192  benefactors[msg.sender].lastBenefactorResponseTime */\n      0x03\n      add\n        /* \"DeadMansSwitch.sol\":3142:3196  benefactors[msg.sender].lastBenefactorResponseTime = 0 */\n      sstore\n        /* \"DeadMansSwitch.sol\":2702:3204  function setBenefactor() public{... */\n      jump\t// out\n        /* \"DeadMansSwitch.sol\":3281:4279  function getData(address _benefactor) public returns (bool switchStatus, address[] memory beneficiaries, uint256 remainingTime) {... */\n    tag_54:\n      sub(shl(0xa0, 0x01), 0x01)\n        /* \"DeadMansSwitch.sol\":3428:3452  benefactors[_benefactor] */\n      dup2\n      and\n        /* \"DeadMansSwitch.sol\":3335:3352  bool switchStatus */\n      0x00\n        /* \"DeadMansSwitch.sol\":3428:3452  benefactors[_benefactor] */\n      swap1\n      dup2\n      mstore\n        /* \"DeadMansSwitch.sol\":3428:3439  benefactors */\n      0x02\n        /* \"DeadMansSwitch.sol\":3428:3452  benefactors[_benefactor] */\n      0x20\n      mstore\n      0x40\n      dup2\n      keccak256\n        /* \"DeadMansSwitch.sol\":3428:3459  benefactors[_benefactor].exists */\n      sload\n        /* \"DeadMansSwitch.sol\":3354:3384  address[] memory beneficiaries */\n      0x60\n      swap1\n        /* \"DeadMansSwitch.sol\":3335:3352  bool switchStatus */\n      dup3\n      swap1\n        /* \"DeadMansSwitch.sol\":3428:3459  benefactors[_benefactor].exists */\n      0xff\n      and\n        /* \"DeadMansSwitch.sol\":3420:3489  require(benefactors[_benefactor].exists, \"Benefactor does not exist\") */\n      tag_131\n      jumpi\n      mload(0x40)\n      shl(0xe5, 0x461bcd)\n      dup2\n      mstore\n        /* \"#utility.yul\":6549:6551   */\n      0x20\n        /* \"DeadMansSwitch.sol\":3420:3489  require(benefactors[_benefactor].exists, \"Benefactor does not exist\") */\n      0x04\n      dup3\n      add\n        /* \"#utility.yul\":6531:6552   */\n      mstore\n        /* \"#utility.yul\":6588:6590   */\n      0x19\n        /* \"#utility.yul\":6568:6586   */\n      0x24\n      dup3\n      add\n        /* \"#utility.yul\":6561:6591   */\n      mstore\n        /* \"#utility.yul\":6627:6654   */\n      0x42656e65666163746f7220646f6573206e6f7420657869737400000000000000\n        /* \"#utility.yul\":6607:6625   */\n      0x44\n      dup3\n      add\n        /* \"#utility.yul\":6600:6655   */\n      mstore\n        /* \"#utility.yul\":6672:6690   */\n      0x64\n      add\n        /* \"DeadMansSwitch.sol\":3420:3489  require(benefactors[_benefactor].exists, \"Benefactor does not exist\") */\n      tag_123\n        /* \"#utility.yul\":6347:6696   */\n      jump\n        /* \"DeadMansSwitch.sol\":3420:3489  require(benefactors[_benefactor].exists, \"Benefactor does not exist\") */\n    tag_131:\n      sub(shl(0xa0, 0x01), 0x01)\n        /* \"DeadMansSwitch.sol\":3516:3540  benefactors[_benefactor] */\n      dup5\n      and\n      0x00\n      swap1\n      dup2\n      mstore\n        /* \"DeadMansSwitch.sol\":3516:3527  benefactors */\n      0x02\n        /* \"DeadMansSwitch.sol\":3516:3540  benefactors[_benefactor] */\n      0x20\n      swap1\n      dup2\n      mstore\n      0x40\n      dup1\n      dup4\n      keccak256\n        /* \"DeadMansSwitch.sol\":3516:3554  benefactors[_benefactor].isSwitchedOff */\n      0x04\n      add\n      sload\n        /* \"DeadMansSwitch.sol\":4492:4507  beneficiaryKeys */\n      0x03\n        /* \"DeadMansSwitch.sol\":4492:4520  beneficiaryKeys[_benefactor] */\n      swap1\n      swap3\n      mstore\n      swap1\n      swap2\n      keccak256\n        /* \"DeadMansSwitch.sol\":4492:4527  beneficiaryKeys[_benefactor].length */\n      sload\n        /* \"DeadMansSwitch.sol\":3516:3554  benefactors[_benefactor].isSwitchedOff */\n      0xff\n      swap1\n      swap2\n      and\n        /* \"DeadMansSwitch.sol\":3515:3554  !benefactors[_benefactor].isSwitchedOff */\n      iszero\n      swap4\n      pop\n        /* \"DeadMansSwitch.sol\":3581:3630  new address[](getBeneficiariesCount(_benefactor)) */\n      0xffffffffffffffff\n      dup2\n      gt\n      iszero\n      tag_136\n      jumpi\n      tag_136\n      tag_137\n      jump\t// in\n    tag_136:\n      mload(0x40)\n      swap1\n      dup1\n      dup3\n      mstore\n      dup1\n      0x20\n      mul\n      0x20\n      add\n      dup3\n      add\n      0x40\n      mstore\n      dup1\n      iszero\n      tag_138\n      jumpi\n      dup2\n      0x20\n      add\n      0x20\n      dup3\n      mul\n      dup1\n      calldatasize\n      dup4\n      calldatacopy\n      add\n      swap1\n      pop\n    tag_138:\n      pop\n        /* \"DeadMansSwitch.sol\":3565:3630  beneficiaries = new address[](getBeneficiariesCount(_benefactor)) */\n      swap2\n      pop\n        /* \"DeadMansSwitch.sol\":3641:3654  uint256 index */\n      0x00\n        /* \"DeadMansSwitch.sol\":3674:3683  uint256 i */\n      dup1\n        /* \"DeadMansSwitch.sol\":3669:3945  for (uint256 i = 0; i < beneficiaries.length; i++) {... */\n    tag_139:\n        /* \"DeadMansSwitch.sol\":3693:3706  beneficiaries */\n      dup4\n        /* \"DeadMansSwitch.sol\":3693:3713  beneficiaries.length */\n      mload\n        /* \"DeadMansSwitch.sol\":3689:3690  i */\n      dup2\n        /* \"DeadMansSwitch.sol\":3689:3713  i < beneficiaries.length */\n      lt\n        /* \"DeadMansSwitch.sol\":3669:3945  for (uint256 i = 0; i < beneficiaries.length; i++) {... */\n      iszero\n      tag_140\n      jumpi\n      sub(shl(0xa0, 0x01), 0x01)\n        /* \"DeadMansSwitch.sol\":3739:3763  benefactors[_benefactor] */\n      dup7\n      and\n      0x00\n      swap1\n      dup2\n      mstore\n        /* \"DeadMansSwitch.sol\":3739:3750  benefactors */\n      0x02\n        /* \"DeadMansSwitch.sol\":3739:3763  benefactors[_benefactor] */\n      0x20\n      swap1\n      dup2\n      mstore\n      0x40\n      dup1\n      dup4\n      keccak256\n        /* \"DeadMansSwitch.sol\":3778:3793  beneficiaryKeys */\n      0x03\n        /* \"DeadMansSwitch.sol\":3778:3806  beneficiaryKeys[_benefactor] */\n      swap1\n      swap3\n      mstore\n      dup3\n      keccak256\n        /* \"DeadMansSwitch.sol\":3778:3809  beneficiaryKeys[_benefactor][i] */\n      dup1\n      sload\n        /* \"DeadMansSwitch.sol\":3739:3777  benefactors[_benefactor].beneficiaries */\n      0x01\n      swap1\n      swap3\n      add\n      swap3\n        /* \"DeadMansSwitch.sol\":3739:3763  benefactors[_benefactor] */\n      swap2\n        /* \"DeadMansSwitch.sol\":3807:3808  i */\n      dup5\n      swap1\n        /* \"DeadMansSwitch.sol\":3778:3809  beneficiaryKeys[_benefactor][i] */\n      dup2\n      lt\n      tag_143\n      jumpi\n      tag_143\n      tag_144\n      jump\t// in\n    tag_143:\n      0x00\n      swap2\n      dup3\n      mstore\n      0x20\n      dup1\n      dup4\n      keccak256\n      swap1\n      swap2\n      add\n      sload\n      sub(shl(0xa0, 0x01), 0x01)\n      and\n        /* \"DeadMansSwitch.sol\":3739:3810  benefactors[_benefactor].beneficiaries[beneficiaryKeys[_benefactor][i]] */\n      dup4\n      mstore\n      dup3\n      add\n      swap3\n      swap1\n      swap3\n      mstore\n      0x40\n      add\n      swap1\n      keccak256\n        /* \"DeadMansSwitch.sol\":3739:3817  benefactors[_benefactor].beneficiaries[beneficiaryKeys[_benefactor][i]].exists */\n      sload\n      0xff\n      and\n        /* \"DeadMansSwitch.sol\":3735:3934  if (benefactors[_benefactor].beneficiaries[beneficiaryKeys[_benefactor][i]].exists) {... */\n      iszero\n      tag_146\n      jumpi\n      sub(shl(0xa0, 0x01), 0x01)\n        /* \"DeadMansSwitch.sol\":3861:3889  beneficiaryKeys[_benefactor] */\n      dup7\n      and\n      0x00\n      swap1\n      dup2\n      mstore\n        /* \"DeadMansSwitch.sol\":3861:3876  beneficiaryKeys */\n      0x03\n        /* \"DeadMansSwitch.sol\":3861:3889  beneficiaryKeys[_benefactor] */\n      0x20\n      mstore\n      0x40\n      swap1\n      keccak256\n        /* \"DeadMansSwitch.sol\":3861:3892  beneficiaryKeys[_benefactor][i] */\n      dup1\n      sload\n        /* \"DeadMansSwitch.sol\":3890:3891  i */\n      dup3\n      swap1\n        /* \"DeadMansSwitch.sol\":3861:3892  beneficiaryKeys[_benefactor][i] */\n      dup2\n      lt\n      tag_148\n      jumpi\n      tag_148\n      tag_144\n      jump\t// in\n    tag_148:\n      swap1\n      0x00\n      mstore\n      keccak256(0x00, 0x20)\n      add\n      0x00\n      swap1\n      sload\n      swap1\n      0x0100\n      exp\n      swap1\n      div\n      sub(shl(0xa0, 0x01), 0x01)\n      and\n        /* \"DeadMansSwitch.sol\":3838:3851  beneficiaries */\n      dup5\n        /* \"DeadMansSwitch.sol\":3852:3857  index */\n      dup4\n        /* \"DeadMansSwitch.sol\":3838:3858  beneficiaries[index] */\n      dup2\n      mload\n      dup2\n      lt\n      tag_151\n      jumpi\n      tag_151\n      tag_144\n      jump\t// in\n    tag_151:\n      sub(shl(0xa0, 0x01), 0x01)\n        /* \"DeadMansSwitch.sol\":3838:3892  beneficiaries[index] = beneficiaryKeys[_benefactor][i] */\n      swap1\n      swap3\n      and\n        /* \"DeadMansSwitch.sol\":3838:3858  beneficiaries[index] */\n      0x20\n      swap3\n      dup4\n      mul\n      swap2\n      swap1\n      swap2\n      add\n      swap1\n      swap2\n      add\n        /* \"DeadMansSwitch.sol\":3838:3892  beneficiaries[index] = beneficiaryKeys[_benefactor][i] */\n      mstore\n        /* \"DeadMansSwitch.sol\":3911:3918  index++ */\n      dup2\n      tag_152\n      dup2\n      tag_153\n      jump\t// in\n    tag_152:\n      swap3\n      pop\n      pop\n        /* \"DeadMansSwitch.sol\":3735:3934  if (benefactors[_benefactor].beneficiaries[beneficiaryKeys[_benefactor][i]].exists) {... */\n    tag_146:\n        /* \"DeadMansSwitch.sol\":3715:3718  i++ */\n      dup1\n      tag_154\n      dup2\n      tag_153\n      jump\t// in\n    tag_154:\n      swap2\n      pop\n      pop\n        /* \"DeadMansSwitch.sol\":3669:3945  for (uint256 i = 0; i < beneficiaries.length; i++) {... */\n      jump(tag_139)\n    tag_140:\n      pop\n      sub(shl(0xa0, 0x01), 0x01)\n        /* \"DeadMansSwitch.sol\":3959:3983  benefactors[_benefactor] */\n      dup6\n      and\n      0x00\n      swap1\n      dup2\n      mstore\n        /* \"DeadMansSwitch.sol\":3959:3970  benefactors */\n      0x02\n        /* \"DeadMansSwitch.sol\":3959:3983  benefactors[_benefactor] */\n      0x20\n      mstore\n      0x40\n      swap1\n      keccak256\n        /* \"DeadMansSwitch.sol\":3959:3997  benefactors[_benefactor].isSwitchedOff */\n      0x04\n      add\n      sload\n      0xff\n      and\n        /* \"DeadMansSwitch.sol\":3955:4130  if (benefactors[_benefactor].isSwitchedOff) {... */\n      iszero\n      tag_155\n      jumpi\n        /* \"DeadMansSwitch.sol\":4030:4031  0 */\n      0x00\n        /* \"DeadMansSwitch.sol\":4014:4031  remainingTime = 0 */\n      swap2\n      pop\n        /* \"DeadMansSwitch.sol\":3955:4130  if (benefactors[_benefactor].isSwitchedOff) {... */\n      jump(tag_156)\n    tag_155:\n        /* \"DeadMansSwitch.sol\":4080:4118  getRemainingCountdownTime(_benefactor) */\n      tag_157\n        /* \"DeadMansSwitch.sol\":4106:4117  _benefactor */\n      dup6\n        /* \"DeadMansSwitch.sol\":4080:4105  getRemainingCountdownTime */\n      tag_33\n        /* \"DeadMansSwitch.sol\":4080:4118  getRemainingCountdownTime(_benefactor) */\n      jump\t// in\n    tag_157:\n        /* \"DeadMansSwitch.sol\":4064:4118  remainingTime = getRemainingCountdownTime(_benefactor) */\n      swap2\n      pop\n        /* \"DeadMansSwitch.sol\":3955:4130  if (benefactors[_benefactor].isSwitchedOff) {... */\n    tag_156:\n        /* \"DeadMansSwitch.sol\":4220:4271  return (switchStatus, beneficiaries, remainingTime) */\n      pop\n        /* \"DeadMansSwitch.sol\":3281:4279  function getData(address _benefactor) public returns (bool switchStatus, address[] memory beneficiaries, uint256 remainingTime) {... */\n      swap2\n      swap4\n      swap1\n      swap3\n      pop\n      jump\t// out\n        /* \"DeadMansSwitch.sol\":5119:5483  function addBeneficiaryPublicKey(address _benefactor, address _beneficiary, string memory _key) public {... */\n    tag_60:\n        /* \"DeadMansSwitch.sol\":5241:5280  isBeneficiary(_benefactor,_beneficiary) */\n      tag_159\n        /* \"DeadMansSwitch.sol\":5255:5266  _benefactor */\n      dup4\n        /* \"DeadMansSwitch.sol\":5267:5279  _beneficiary */\n      dup4\n        /* \"DeadMansSwitch.sol\":5241:5254  isBeneficiary */\n      tag_48\n        /* \"DeadMansSwitch.sol\":5241:5280  isBeneficiary(_benefactor,_beneficiary) */\n      jump\t// in\n    tag_159:\n        /* \"DeadMansSwitch.sol\":5233:5317  require(isBeneficiary(_benefactor,_beneficiary), \"Beneficiary/Benefactor not found\") */\n      tag_160\n      jumpi\n      mload(0x40)\n      shl(0xe5, 0x461bcd)\n      dup2\n      mstore\n        /* \"#utility.yul\":7529:7531   */\n      0x20\n        /* \"DeadMansSwitch.sol\":5233:5317  require(isBeneficiary(_benefactor,_beneficiary), \"Beneficiary/Benefactor not found\") */\n      0x04\n      dup3\n      add\n        /* \"#utility.yul\":7511:7532   */\n      dup2\n      swap1\n      mstore\n        /* \"#utility.yul\":7548:7566   */\n      0x24\n      dup3\n      add\n        /* \"#utility.yul\":7541:7571   */\n      mstore\n        /* \"#utility.yul\":7607:7641   */\n      0x42656e65666963696172792f42656e65666163746f72206e6f7420666f756e64\n        /* \"#utility.yul\":7587:7605   */\n      0x44\n      dup3\n      add\n        /* \"#utility.yul\":7580:7642   */\n      mstore\n        /* \"#utility.yul\":7659:7677   */\n      0x64\n      add\n        /* \"DeadMansSwitch.sol\":5233:5317  require(isBeneficiary(_benefactor,_beneficiary), \"Beneficiary/Benefactor not found\") */\n      tag_123\n        /* \"#utility.yul\":7327:7683   */\n      jump\n        /* \"DeadMansSwitch.sol\":5233:5317  require(isBeneficiary(_benefactor,_beneficiary), \"Beneficiary/Benefactor not found\") */\n    tag_160:\n      sub(shl(0xa0, 0x01), 0x01)\n        /* \"DeadMansSwitch.sol\":5328:5352  benefactors[_benefactor] */\n      dup1\n      dup5\n      and\n      0x00\n      swap1\n      dup2\n      mstore\n        /* \"DeadMansSwitch.sol\":5328:5339  benefactors */\n      0x02\n        /* \"DeadMansSwitch.sol\":5328:5352  benefactors[_benefactor] */\n      0x20\n      swap1\n      dup2\n      mstore\n      0x40\n      dup1\n      dup4\n      keccak256\n        /* \"DeadMansSwitch.sol\":5328:5380  benefactors[_benefactor].beneficiaries[_beneficiary] */\n      swap4\n      dup7\n      and\n      dup4\n      mstore\n        /* \"DeadMansSwitch.sol\":5328:5366  benefactors[_benefactor].beneficiaries */\n      0x01\n      swap1\n      swap4\n      add\n        /* \"DeadMansSwitch.sol\":5328:5380  benefactors[_benefactor].beneficiaries[_beneficiary] */\n      swap1\n      mstore\n      keccak256\n        /* \"DeadMansSwitch.sol\":5328:5401  benefactors[_benefactor].beneficiaries[_beneficiary].beneficiaryPublicKey */\n      0x03\n      add\n        /* \"DeadMansSwitch.sol\":5328:5408  benefactors[_benefactor].beneficiaries[_beneficiary].beneficiaryPublicKey = _key */\n      tag_163\n        /* \"DeadMansSwitch.sol\":5404:5408  _key */\n      dup3\n        /* \"DeadMansSwitch.sol\":5328:5401  benefactors[_benefactor].beneficiaries[_beneficiary].beneficiaryPublicKey */\n      dup3\n        /* \"DeadMansSwitch.sol\":5328:5408  benefactors[_benefactor].beneficiaries[_beneficiary].beneficiaryPublicKey = _key */\n      tag_164\n      jump\t// in\n    tag_163:\n      pop\n        /* \"DeadMansSwitch.sol\":5456:5468  _beneficiary */\n      dup2\n      sub(shl(0xa0, 0x01), 0x01)\n        /* \"DeadMansSwitch.sol\":5424:5475  BeneficiaryKeyAdded(_benefactor,_beneficiary, _key) */\n      and\n        /* \"DeadMansSwitch.sol\":5444:5455  _benefactor */\n      dup4\n      sub(shl(0xa0, 0x01), 0x01)\n        /* \"DeadMansSwitch.sol\":5424:5475  BeneficiaryKeyAdded(_benefactor,_beneficiary, _key) */\n      and\n      0x69ccea10852ac51b01745414774b5af302217e774786d2068296650b57ba03f2\n        /* \"DeadMansSwitch.sol\":5470:5474  _key */\n      dup4\n        /* \"DeadMansSwitch.sol\":5424:5475  BeneficiaryKeyAdded(_benefactor,_beneficiary, _key) */\n      mload(0x40)\n      tag_165\n      swap2\n      swap1\n      tag_82\n      jump\t// in\n    tag_165:\n      mload(0x40)\n      dup1\n      swap2\n      sub\n      swap1\n      log3\n        /* \"DeadMansSwitch.sol\":5119:5483  function addBeneficiaryPublicKey(address _benefactor, address _beneficiary, string memory _key) public {... */\n      pop\n      pop\n      pop\n      jump\t// out\n        /* \"DeadMansSwitch.sol\":8505:9245  function addIpfsCID(address _beneficiary, string memory _ipfsCID) external onlyBenefactor {... */\n    tag_68:\n        /* \"DeadMansSwitch.sol\":2488:2498  msg.sender */\n      caller\n        /* \"DeadMansSwitch.sol\":2476:2499  benefactors[msg.sender] */\n      0x00\n      swap1\n      dup2\n      mstore\n        /* \"DeadMansSwitch.sol\":2476:2487  benefactors */\n      0x02\n        /* \"DeadMansSwitch.sol\":2476:2499  benefactors[msg.sender] */\n      0x20\n      mstore\n      0x40\n      swap1\n      keccak256\n        /* \"DeadMansSwitch.sol\":2476:2506  benefactors[msg.sender].exists */\n      sload\n      0xff\n      and\n        /* \"DeadMansSwitch.sol\":2476:2541  benefactors[msg.sender].exists && benefactors[msg.sender].isAlive */\n      dup1\n      iszero\n      tag_168\n      jumpi\n      pop\n        /* \"DeadMansSwitch.sol\":2522:2532  msg.sender */\n      caller\n        /* \"DeadMansSwitch.sol\":2510:2533  benefactors[msg.sender] */\n      0x00\n      swap1\n      dup2\n      mstore\n        /* \"DeadMansSwitch.sol\":2510:2521  benefactors */\n      0x02\n        /* \"DeadMansSwitch.sol\":2510:2533  benefactors[msg.sender] */\n      0x20\n      mstore\n      0x40\n      swap1\n      keccak256\n        /* \"DeadMansSwitch.sol\":2510:2541  benefactors[msg.sender].isAlive */\n      0x04\n      add\n      sload\n      0x0100\n      swap1\n      div\n      0xff\n      and\n        /* \"DeadMansSwitch.sol\":2476:2541  benefactors[msg.sender].exists && benefactors[msg.sender].isAlive */\n    tag_168:\n        /* \"DeadMansSwitch.sol\":2468:2568  require(benefactors[msg.sender].exists && benefactors[msg.sender].isAlive, \"Not a valid benefactor\") */\n      tag_169\n      jumpi\n      mload(0x40)\n      shl(0xe5, 0x461bcd)\n      dup2\n      mstore\n        /* \"#utility.yul\":10479:10481   */\n      0x20\n        /* \"DeadMansSwitch.sol\":2468:2568  require(benefactors[msg.sender].exists && benefactors[msg.sender].isAlive, \"Not a valid benefactor\") */\n      0x04\n      dup3\n      add\n        /* \"#utility.yul\":10461:10482   */\n      mstore\n        /* \"#utility.yul\":10518:10520   */\n      0x16\n        /* \"#utility.yul\":10498:10516   */\n      0x24\n      dup3\n      add\n        /* \"#utility.yul\":10491:10521   */\n      mstore\n      shl(0x51, 0x2737ba1030903b30b634b2103132b732b330b1ba37b9)\n        /* \"#utility.yul\":10537:10555   */\n      0x44\n      dup3\n      add\n        /* \"#utility.yul\":10530:10582   */\n      mstore\n        /* \"#utility.yul\":10599:10617   */\n      0x64\n      add\n        /* \"DeadMansSwitch.sol\":2468:2568  require(benefactors[msg.sender].exists && benefactors[msg.sender].isAlive, \"Not a valid benefactor\") */\n      tag_123\n        /* \"#utility.yul\":10277:10623   */\n      jump\n        /* \"DeadMansSwitch.sol\":2468:2568  require(benefactors[msg.sender].exists && benefactors[msg.sender].isAlive, \"Not a valid benefactor\") */\n    tag_169:\n        /* \"DeadMansSwitch.sol\":8614:8652  isBeneficiary(msg.sender,_beneficiary) */\n      tag_173\n        /* \"DeadMansSwitch.sol\":8628:8638  msg.sender */\n      caller\n        /* \"DeadMansSwitch.sol\":8639:8651  _beneficiary */\n      dup4\n        /* \"DeadMansSwitch.sol\":8614:8627  isBeneficiary */\n      tag_48\n        /* \"DeadMansSwitch.sol\":8614:8652  isBeneficiary(msg.sender,_beneficiary) */\n      jump\t// in\n    tag_173:\n        /* \"DeadMansSwitch.sol\":8606:8678  require(isBeneficiary(msg.sender,_beneficiary), \"Beneficiary not found\") */\n      tag_174\n      jumpi\n      mload(0x40)\n      shl(0xe5, 0x461bcd)\n      dup2\n      mstore\n        /* \"#utility.yul\":10830:10832   */\n      0x20\n        /* \"DeadMansSwitch.sol\":8606:8678  require(isBeneficiary(msg.sender,_beneficiary), \"Beneficiary not found\") */\n      0x04\n      dup3\n      add\n        /* \"#utility.yul\":10812:10833   */\n      mstore\n        /* \"#utility.yul\":10869:10871   */\n      0x15\n        /* \"#utility.yul\":10849:10867   */\n      0x24\n      dup3\n      add\n        /* \"#utility.yul\":10842:10872   */\n      mstore\n      shl(0x5a, 0x10995b99599a58da585c9e481b9bdd08199bdd5b99)\n        /* \"#utility.yul\":10888:10906   */\n      0x44\n      dup3\n      add\n        /* \"#utility.yul\":10881:10932   */\n      mstore\n        /* \"#utility.yul\":10949:10967   */\n      0x64\n      add\n        /* \"DeadMansSwitch.sol\":8606:8678  require(isBeneficiary(msg.sender,_beneficiary), \"Beneficiary not found\") */\n      tag_123\n        /* \"#utility.yul\":10628:10973   */\n      jump\n        /* \"DeadMansSwitch.sol\":8606:8678  require(isBeneficiary(msg.sender,_beneficiary), \"Beneficiary not found\") */\n    tag_174:\n        /* \"DeadMansSwitch.sol\":8729:8739  msg.sender */\n      caller\n        /* \"DeadMansSwitch.sol\":8689:8714  string[] storage ipfsCIDs */\n      0x00\n        /* \"DeadMansSwitch.sol\":8717:8740  benefactors[msg.sender] */\n      swap1\n      dup2\n      mstore\n        /* \"DeadMansSwitch.sol\":8717:8728  benefactors */\n      0x02\n        /* \"DeadMansSwitch.sol\":8717:8740  benefactors[msg.sender] */\n      0x20\n      swap1\n      dup2\n      mstore\n      0x40\n      dup1\n      dup4\n      keccak256\n      sub(shl(0xa0, 0x01), 0x01)\n        /* \"DeadMansSwitch.sol\":8717:8768  benefactors[msg.sender].beneficiaries[_beneficiary] */\n      dup7\n      and\n      dup5\n      mstore\n        /* \"DeadMansSwitch.sol\":8717:8754  benefactors[msg.sender].beneficiaries */\n      0x01\n      swap1\n      dup2\n      add\n        /* \"DeadMansSwitch.sol\":8717:8768  benefactors[msg.sender].beneficiaries[_beneficiary] */\n      swap1\n      swap3\n      mstore\n      dup3\n      keccak256\n        /* \"DeadMansSwitch.sol\":8717:8777  benefactors[msg.sender].beneficiaries[_beneficiary].ipfsCIDs */\n      add\n      swap1\n        /* \"DeadMansSwitch.sol\":8827:9034  for (uint256 i = 0; i < ipfsCIDs.length; i++) {... */\n    tag_177:\n        /* \"DeadMansSwitch.sol\":8851:8866  ipfsCIDs.length */\n      dup2\n      sload\n        /* \"DeadMansSwitch.sol\":8847:8866  i < ipfsCIDs.length */\n      dup2\n      lt\n        /* \"DeadMansSwitch.sol\":8827:9034  for (uint256 i = 0; i < ipfsCIDs.length; i++) {... */\n      iszero\n      tag_178\n      jumpi\n        /* \"DeadMansSwitch.sol\":8967:8975  _ipfsCID */\n      dup3\n        /* \"DeadMansSwitch.sol\":8950:8976  abi.encodePacked(_ipfsCID) */\n      add(0x20, mload(0x40))\n      tag_180\n      swap2\n      swap1\n      tag_181\n      jump\t// in\n    tag_180:\n      mload(0x40)\n      0x20\n      dup2\n      dup4\n      sub\n      sub\n      dup2\n      mstore\n      swap1\n      0x40\n      mstore\n        /* \"DeadMansSwitch.sol\":8940:8977  keccak256(abi.encodePacked(_ipfsCID)) */\n      dup1\n      mload\n      swap1\n      0x20\n      add\n      keccak256\n        /* \"DeadMansSwitch.sol\":8923:8931  ipfsCIDs */\n      dup3\n        /* \"DeadMansSwitch.sol\":8932:8933  i */\n      dup3\n        /* \"DeadMansSwitch.sol\":8923:8934  ipfsCIDs[i] */\n      dup2\n      sload\n      dup2\n      lt\n      tag_183\n      jumpi\n      tag_183\n      tag_144\n      jump\t// in\n    tag_183:\n      swap1\n      0x00\n      mstore\n      keccak256(0x00, 0x20)\n      add\n        /* \"DeadMansSwitch.sol\":8906:8935  abi.encodePacked(ipfsCIDs[i]) */\n      add(0x20, mload(0x40))\n      tag_185\n      swap2\n      swap1\n      tag_186\n      jump\t// in\n    tag_185:\n      mload(0x40)\n      0x20\n      dup2\n      dup4\n      sub\n      sub\n      dup2\n      mstore\n      swap1\n      0x40\n      mstore\n        /* \"DeadMansSwitch.sol\":8896:8936  keccak256(abi.encodePacked(ipfsCIDs[i])) */\n      dup1\n      mload\n      swap1\n      0x20\n      add\n      keccak256\n        /* \"DeadMansSwitch.sol\":8896:8977  keccak256(abi.encodePacked(ipfsCIDs[i])) != keccak256(abi.encodePacked(_ipfsCID)) */\n      sub\n        /* \"DeadMansSwitch.sol\":8888:9022  require(keccak256(abi.encodePacked(ipfsCIDs[i])) != keccak256(abi.encodePacked(_ipfsCID)), \"CID already assigned to this beneficiary\") */\n      tag_187\n      jumpi\n      mload(0x40)\n      shl(0xe5, 0x461bcd)\n      dup2\n      mstore\n        /* \"#utility.yul\":12321:12323   */\n      0x20\n        /* \"DeadMansSwitch.sol\":8888:9022  require(keccak256(abi.encodePacked(ipfsCIDs[i])) != keccak256(abi.encodePacked(_ipfsCID)), \"CID already assigned to this beneficiary\") */\n      0x04\n      dup3\n      add\n        /* \"#utility.yul\":12303:12324   */\n      mstore\n        /* \"#utility.yul\":12360:12362   */\n      0x28\n        /* \"#utility.yul\":12340:12358   */\n      0x24\n      dup3\n      add\n        /* \"#utility.yul\":12333:12363   */\n      mstore\n        /* \"#utility.yul\":12399:12433   */\n      0x43494420616c72656164792061737369676e656420746f20746869732062656e\n        /* \"#utility.yul\":12379:12397   */\n      0x44\n      dup3\n      add\n        /* \"#utility.yul\":12372:12434   */\n      mstore\n        /* \"#utility.yul\":12470:12480   */\n      0x6566696369617279000000000000000000000000000000000000000000000000\n        /* \"#utility.yul\":12450:12468   */\n      0x64\n      dup3\n      add\n        /* \"#utility.yul\":12443:12481   */\n      mstore\n        /* \"#utility.yul\":12498:12517   */\n      0x84\n      add\n        /* \"DeadMansSwitch.sol\":8888:9022  require(keccak256(abi.encodePacked(ipfsCIDs[i])) != keccak256(abi.encodePacked(_ipfsCID)), \"CID already assigned to this beneficiary\") */\n      tag_123\n        /* \"#utility.yul\":12119:12523   */\n      jump\n        /* \"DeadMansSwitch.sol\":8888:9022  require(keccak256(abi.encodePacked(ipfsCIDs[i])) != keccak256(abi.encodePacked(_ipfsCID)), \"CID already assigned to this beneficiary\") */\n    tag_187:\n        /* \"DeadMansSwitch.sol\":8868:8871  i++ */\n      dup1\n      tag_190\n      dup2\n      tag_153\n      jump\t// in\n    tag_190:\n      swap2\n      pop\n      pop\n        /* \"DeadMansSwitch.sol\":8827:9034  for (uint256 i = 0; i < ipfsCIDs.length; i++) {... */\n      jump(tag_177)\n    tag_178:\n      pop\n        /* \"DeadMansSwitch.sol\":9111:9121  msg.sender */\n      caller\n        /* \"DeadMansSwitch.sol\":9099:9122  benefactors[msg.sender] */\n      0x00\n      swap1\n      dup2\n      mstore\n        /* \"DeadMansSwitch.sol\":9099:9110  benefactors */\n      0x02\n        /* \"DeadMansSwitch.sol\":9099:9122  benefactors[msg.sender] */\n      0x20\n      swap1\n      dup2\n      mstore\n      0x40\n      dup1\n      dup4\n      keccak256\n      sub(shl(0xa0, 0x01), 0x01)\n        /* \"DeadMansSwitch.sol\":9099:9150  benefactors[msg.sender].beneficiaries[_beneficiary] */\n      dup8\n      and\n      dup5\n      mstore\n        /* \"DeadMansSwitch.sol\":9099:9136  benefactors[msg.sender].beneficiaries */\n      0x01\n      swap1\n      dup2\n      add\n        /* \"DeadMansSwitch.sol\":9099:9150  benefactors[msg.sender].beneficiaries[_beneficiary] */\n      dup4\n      mstore\n      swap1\n      dup4\n      keccak256\n        /* \"DeadMansSwitch.sol\":9099:9159  benefactors[msg.sender].beneficiaries[_beneficiary].ipfsCIDs */\n      dup2\n      add\n        /* \"DeadMansSwitch.sol\":9099:9174  benefactors[msg.sender].beneficiaries[_beneficiary].ipfsCIDs.push(_ipfsCID) */\n      dup1\n      sload\n      swap2\n      dup3\n      add\n      dup2\n      sstore\n      dup4\n      mstore\n      swap2\n      keccak256\n      add\n      tag_192\n        /* \"DeadMansSwitch.sol\":9165:9173  _ipfsCID */\n      dup4\n        /* \"DeadMansSwitch.sol\":9099:9174  benefactors[msg.sender].beneficiaries[_beneficiary].ipfsCIDs.push(_ipfsCID) */\n      dup3\n      tag_164\n      jump\t// in\n    tag_192:\n      pop\n        /* \"DeadMansSwitch.sol\":9214:9226  _beneficiary */\n      dup3\n      sub(shl(0xa0, 0x01), 0x01)\n        /* \"DeadMansSwitch.sol\":9190:9237  IpfsCIDAdded(msg.sender,_beneficiary, _ipfsCID) */\n      and\n        /* \"DeadMansSwitch.sol\":9203:9213  msg.sender */\n      caller\n      sub(shl(0xa0, 0x01), 0x01)\n        /* \"DeadMansSwitch.sol\":9190:9237  IpfsCIDAdded(msg.sender,_beneficiary, _ipfsCID) */\n      and\n      0xa1bb52b874769d5c17cde30e708e8f7180bb949f70e77caf0da68d25f9a1a510\n        /* \"DeadMansSwitch.sol\":9228:9236  _ipfsCID */\n      dup5\n        /* \"DeadMansSwitch.sol\":9190:9237  IpfsCIDAdded(msg.sender,_beneficiary, _ipfsCID) */\n      mload(0x40)\n      tag_165\n      swap2\n      swap1\n      tag_82\n      jump\t// in\n        /* \"DeadMansSwitch.sol\":7952:8281  function addBeneficiary(address _beneficiary) external onlyBenefactor {... */\n    tag_71:\n        /* \"DeadMansSwitch.sol\":2488:2498  msg.sender */\n      caller\n        /* \"DeadMansSwitch.sol\":2476:2499  benefactors[msg.sender] */\n      0x00\n      swap1\n      dup2\n      mstore\n        /* \"DeadMansSwitch.sol\":2476:2487  benefactors */\n      0x02\n        /* \"DeadMansSwitch.sol\":2476:2499  benefactors[msg.sender] */\n      0x20\n      mstore\n      0x40\n      swap1\n      keccak256\n        /* \"DeadMansSwitch.sol\":2476:2506  benefactors[msg.sender].exists */\n      sload\n      0xff\n      and\n        /* \"DeadMansSwitch.sol\":2476:2541  benefactors[msg.sender].exists && benefactors[msg.sender].isAlive */\n      dup1\n      iszero\n      tag_195\n      jumpi\n      pop\n        /* \"DeadMansSwitch.sol\":2522:2532  msg.sender */\n      caller\n        /* \"DeadMansSwitch.sol\":2510:2533  benefactors[msg.sender] */\n      0x00\n      swap1\n      dup2\n      mstore\n        /* \"DeadMansSwitch.sol\":2510:2521  benefactors */\n      0x02\n        /* \"DeadMansSwitch.sol\":2510:2533  benefactors[msg.sender] */\n      0x20\n      mstore\n      0x40\n      swap1\n      keccak256\n        /* \"DeadMansSwitch.sol\":2510:2541  benefactors[msg.sender].isAlive */\n      0x04\n      add\n      sload\n      0x0100\n      swap1\n      div\n      0xff\n      and\n        /* \"DeadMansSwitch.sol\":2476:2541  benefactors[msg.sender].exists && benefactors[msg.sender].isAlive */\n    tag_195:\n        /* \"DeadMansSwitch.sol\":2468:2568  require(benefactors[msg.sender].exists && benefactors[msg.sender].isAlive, \"Not a valid benefactor\") */\n      tag_196\n      jumpi\n      mload(0x40)\n      shl(0xe5, 0x461bcd)\n      dup2\n      mstore\n        /* \"#utility.yul\":10479:10481   */\n      0x20\n        /* \"DeadMansSwitch.sol\":2468:2568  require(benefactors[msg.sender].exists && benefactors[msg.sender].isAlive, \"Not a valid benefactor\") */\n      0x04\n      dup3\n      add\n        /* \"#utility.yul\":10461:10482   */\n      mstore\n        /* \"#utility.yul\":10518:10520   */\n      0x16\n        /* \"#utility.yul\":10498:10516   */\n      0x24\n      dup3\n      add\n        /* \"#utility.yul\":10491:10521   */\n      mstore\n      shl(0x51, 0x2737ba1030903b30b634b2103132b732b330b1ba37b9)\n        /* \"#utility.yul\":10537:10555   */\n      0x44\n      dup3\n      add\n        /* \"#utility.yul\":10530:10582   */\n      mstore\n        /* \"#utility.yul\":10599:10617   */\n      0x64\n      add\n        /* \"DeadMansSwitch.sol\":2468:2568  require(benefactors[msg.sender].exists && benefactors[msg.sender].isAlive, \"Not a valid benefactor\") */\n      tag_123\n        /* \"#utility.yul\":10277:10623   */\n      jump\n        /* \"DeadMansSwitch.sol\":2468:2568  require(benefactors[msg.sender].exists && benefactors[msg.sender].isAlive, \"Not a valid benefactor\") */\n    tag_196:\n        /* \"DeadMansSwitch.sol\":8042:8080  isBeneficiary(msg.sender,_beneficiary) */\n      tag_199\n        /* \"DeadMansSwitch.sol\":8056:8066  msg.sender */\n      caller\n        /* \"DeadMansSwitch.sol\":8067:8079  _beneficiary */\n      dup3\n        /* \"DeadMansSwitch.sol\":8042:8055  isBeneficiary */\n      tag_48\n        /* \"DeadMansSwitch.sol\":8042:8080  isBeneficiary(msg.sender,_beneficiary) */\n      jump\t// in\n    tag_199:\n        /* \"DeadMansSwitch.sol\":8041:8080  !isBeneficiary(msg.sender,_beneficiary) */\n      iszero\n        /* \"DeadMansSwitch.sol\":8033:8111  require(!isBeneficiary(msg.sender,_beneficiary), \"Beneficiary already exists\") */\n      tag_200\n      jumpi\n      mload(0x40)\n      shl(0xe5, 0x461bcd)\n      dup2\n      mstore\n        /* \"#utility.yul\":12730:12732   */\n      0x20\n        /* \"DeadMansSwitch.sol\":8033:8111  require(!isBeneficiary(msg.sender,_beneficiary), \"Beneficiary already exists\") */\n      0x04\n      dup3\n      add\n        /* \"#utility.yul\":12712:12733   */\n      mstore\n        /* \"#utility.yul\":12769:12771   */\n      0x1a\n        /* \"#utility.yul\":12749:12767   */\n      0x24\n      dup3\n      add\n        /* \"#utility.yul\":12742:12772   */\n      mstore\n        /* \"#utility.yul\":12808:12836   */\n      0x42656e656669636961727920616c726561647920657869737473000000000000\n        /* \"#utility.yul\":12788:12806   */\n      0x44\n      dup3\n      add\n        /* \"#utility.yul\":12781:12837   */\n      mstore\n        /* \"#utility.yul\":12854:12872   */\n      0x64\n      add\n        /* \"DeadMansSwitch.sol\":8033:8111  require(!isBeneficiary(msg.sender,_beneficiary), \"Beneficiary already exists\") */\n      tag_123\n        /* \"#utility.yul\":12528:12878   */\n      jump\n        /* \"DeadMansSwitch.sol\":8033:8111  require(!isBeneficiary(msg.sender,_beneficiary), \"Beneficiary already exists\") */\n    tag_200:\n        /* \"DeadMansSwitch.sol\":8176:8216  Beneficiary(true, new string[](0),\"\",\"\") */\n      0x40\n      dup1\n      mload\n      0x80\n      dup2\n      add\n      dup3\n      mstore\n        /* \"DeadMansSwitch.sol\":8188:8192  true */\n      0x01\n        /* \"DeadMansSwitch.sol\":8176:8216  Beneficiary(true, new string[](0),\"\",\"\") */\n      dup2\n      mstore\n        /* \"DeadMansSwitch.sol\":8194:8209  new string[](0) */\n      dup2\n      mload\n      0x00\n      dup1\n      dup3\n      mstore\n        /* \"DeadMansSwitch.sol\":8176:8216  Beneficiary(true, new string[](0),\"\",\"\") */\n      0x20\n        /* \"DeadMansSwitch.sol\":8194:8209  new string[](0) */\n      dup3\n      dup2\n      add\n      swap1\n      swap5\n      mstore\n        /* \"DeadMansSwitch.sol\":8176:8216  Beneficiary(true, new string[](0),\"\",\"\") */\n      swap2\n      swap3\n      dup4\n      add\n      swap2\n        /* \"DeadMansSwitch.sol\":8194:8209  new string[](0) */\n      jump(tag_205)\n    tag_206:\n      0x60\n      dup2\n      mstore\n      0x20\n      add\n      swap1\n      0x01\n      swap1\n      sub\n      swap1\n      dup2\n      tag_206\n      jumpi\n      swap1\n      pop\n    tag_205:\n      pop\n        /* \"DeadMansSwitch.sol\":8176:8216  Beneficiary(true, new string[](0),\"\",\"\") */\n      dup2\n      mstore\n      0x40\n      dup1\n      mload\n      0x20\n      dup1\n      dup3\n      add\n      dup4\n      mstore\n      0x00\n      dup1\n      dup4\n      mstore\n      dup2\n      dup6\n      add\n      swap3\n      swap1\n      swap3\n      mstore\n      dup3\n      mload\n      dup1\n      dup3\n      add\n      dup5\n      mstore\n      dup3\n      dup2\n      mstore\n      swap4\n      dup4\n      add\n      swap4\n      swap1\n      swap4\n      mstore\n        /* \"DeadMansSwitch.sol\":8134:8144  msg.sender */\n      caller\n        /* \"DeadMansSwitch.sol\":8122:8145  benefactors[msg.sender] */\n      dup2\n      mstore\n        /* \"DeadMansSwitch.sol\":8122:8133  benefactors */\n      0x02\n        /* \"DeadMansSwitch.sol\":8122:8145  benefactors[msg.sender] */\n      dup4\n      mstore\n      dup2\n      dup2\n      keccak256\n      sub(shl(0xa0, 0x01), 0x01)\n        /* \"DeadMansSwitch.sol\":8122:8173  benefactors[msg.sender].beneficiaries[_beneficiary] */\n      dup7\n      and\n      dup3\n      mstore\n        /* \"DeadMansSwitch.sol\":8122:8159  benefactors[msg.sender].beneficiaries */\n      0x01\n      swap1\n      dup2\n      add\n        /* \"DeadMansSwitch.sol\":8122:8173  benefactors[msg.sender].beneficiaries[_beneficiary] */\n      dup5\n      mstore\n      swap2\n      swap1\n      keccak256\n        /* \"DeadMansSwitch.sol\":8122:8216  benefactors[msg.sender].beneficiaries[_beneficiary] = Beneficiary(true, new string[](0),\"\",\"\") */\n      dup4\n      mload\n      dup2\n      sload\n      not(0xff)\n      and\n      swap1\n      iszero\n      iszero\n      or\n      dup2\n      sstore\n      dup4\n      dup4\n      add\n      mload\n      dup1\n      mload\n        /* \"DeadMansSwitch.sol\":8122:8173  benefactors[msg.sender].beneficiaries[_beneficiary] */\n      swap2\n      swap4\n        /* \"DeadMansSwitch.sol\":8122:8216  benefactors[msg.sender].beneficiaries[_beneficiary] = Beneficiary(true, new string[](0),\"\",\"\") */\n      tag_207\n      swap4\n      dup6\n      add\n      swap3\n      swap2\n      add\n      swap1\n      tag_208\n      jump\t// in\n    tag_207:\n      pop\n      0x40\n      dup3\n      add\n      mload\n      0x02\n      dup3\n      add\n      swap1\n      tag_209\n      swap1\n      dup3\n      tag_164\n      jump\t// in\n    tag_209:\n      pop\n      0x60\n      dup3\n      add\n      mload\n      0x03\n      dup3\n      add\n      swap1\n      tag_210\n      swap1\n      dup3\n      tag_164\n      jump\t// in\n    tag_210:\n      pop\n      pop\n        /* \"DeadMansSwitch.sol\":8232:8273  BeneficiaryAdded(msg.sender,_beneficiary) */\n      mload(0x40)\n      sub(shl(0xa0, 0x01), 0x01)\n      dup4\n      and\n      swap2\n      pop\n        /* \"DeadMansSwitch.sol\":8249:8259  msg.sender */\n      caller\n      swap1\n        /* \"DeadMansSwitch.sol\":8232:8273  BeneficiaryAdded(msg.sender,_beneficiary) */\n      0xbb39c36a7502b7256e1a687254146a9a2ea7b146c77cb9e40eb0e2b8793781e1\n      swap1\n      0x00\n      swap1\n      log3\n        /* \"DeadMansSwitch.sol\":7952:8281  function addBeneficiary(address _beneficiary) external onlyBenefactor {... */\n      pop\n      jump\t// out\n        /* \"DeadMansSwitch.sol\":7488:7780  function removeBeneficiary(address _beneficiary) external onlyBenefactor {... */\n    tag_74:\n        /* \"DeadMansSwitch.sol\":2488:2498  msg.sender */\n      caller\n        /* \"DeadMansSwitch.sol\":2476:2499  benefactors[msg.sender] */\n      0x00\n      swap1\n      dup2\n      mstore\n        /* \"DeadMansSwitch.sol\":2476:2487  benefactors */\n      0x02\n        /* \"DeadMansSwitch.sol\":2476:2499  benefactors[msg.sender] */\n      0x20\n      mstore\n      0x40\n      swap1\n      keccak256\n        /* \"DeadMansSwitch.sol\":2476:2506  benefactors[msg.sender].exists */\n      sload\n      0xff\n      and\n        /* \"DeadMansSwitch.sol\":2476:2541  benefactors[msg.sender].exists && benefactors[msg.sender].isAlive */\n      dup1\n      iszero\n      tag_212\n      jumpi\n      pop\n        /* \"DeadMansSwitch.sol\":2522:2532  msg.sender */\n      caller\n        /* \"DeadMansSwitch.sol\":2510:2533  benefactors[msg.sender] */\n      0x00\n      swap1\n      dup2\n      mstore\n        /* \"DeadMansSwitch.sol\":2510:2521  benefactors */\n      0x02\n        /* \"DeadMansSwitch.sol\":2510:2533  benefactors[msg.sender] */\n      0x20\n      mstore\n      0x40\n      swap1\n      keccak256\n        /* \"DeadMansSwitch.sol\":2510:2541  benefactors[msg.sender].isAlive */\n      0x04\n      add\n      sload\n      0x0100\n      swap1\n      div\n      0xff\n      and\n        /* \"DeadMansSwitch.sol\":2476:2541  benefactors[msg.sender].exists && benefactors[msg.sender].isAlive */\n    tag_212:\n        /* \"DeadMansSwitch.sol\":2468:2568  require(benefactors[msg.sender].exists && benefactors[msg.sender].isAlive, \"Not a valid benefactor\") */\n      tag_213\n      jumpi\n      mload(0x40)\n      shl(0xe5, 0x461bcd)\n      dup2\n      mstore\n        /* \"#utility.yul\":10479:10481   */\n      0x20\n        /* \"DeadMansSwitch.sol\":2468:2568  require(benefactors[msg.sender].exists && benefactors[msg.sender].isAlive, \"Not a valid benefactor\") */\n      0x04\n      dup3\n      add\n        /* \"#utility.yul\":10461:10482   */\n      mstore\n        /* \"#utility.yul\":10518:10520   */\n      0x16\n        /* \"#utility.yul\":10498:10516   */\n      0x24\n      dup3\n      add\n        /* \"#utility.yul\":10491:10521   */\n      mstore\n      shl(0x51, 0x2737ba1030903b30b634b2103132b732b330b1ba37b9)\n        /* \"#utility.yul\":10537:10555   */\n      0x44\n      dup3\n      add\n        /* \"#utility.yul\":10530:10582   */\n      mstore\n        /* \"#utility.yul\":10599:10617   */\n      0x64\n      add\n        /* \"DeadMansSwitch.sol\":2468:2568  require(benefactors[msg.sender].exists && benefactors[msg.sender].isAlive, \"Not a valid benefactor\") */\n      tag_123\n        /* \"#utility.yul\":10277:10623   */\n      jump\n        /* \"DeadMansSwitch.sol\":2468:2568  require(benefactors[msg.sender].exists && benefactors[msg.sender].isAlive, \"Not a valid benefactor\") */\n    tag_213:\n        /* \"DeadMansSwitch.sol\":7580:7618  isBeneficiary(msg.sender,_beneficiary) */\n      tag_216\n        /* \"DeadMansSwitch.sol\":7594:7604  msg.sender */\n      caller\n        /* \"DeadMansSwitch.sol\":7605:7617  _beneficiary */\n      dup3\n        /* \"DeadMansSwitch.sol\":7580:7593  isBeneficiary */\n      tag_48\n        /* \"DeadMansSwitch.sol\":7580:7618  isBeneficiary(msg.sender,_beneficiary) */\n      jump\t// in\n    tag_216:\n        /* \"DeadMansSwitch.sol\":7572:7644  require(isBeneficiary(msg.sender,_beneficiary), \"Beneficiary not found\") */\n      tag_217\n      jumpi\n      mload(0x40)\n      shl(0xe5, 0x461bcd)\n      dup2\n      mstore\n        /* \"#utility.yul\":10830:10832   */\n      0x20\n        /* \"DeadMansSwitch.sol\":7572:7644  require(isBeneficiary(msg.sender,_beneficiary), \"Beneficiary not found\") */\n      0x04\n      dup3\n      add\n        /* \"#utility.yul\":10812:10833   */\n      mstore\n        /* \"#utility.yul\":10869:10871   */\n      0x15\n        /* \"#utility.yul\":10849:10867   */\n      0x24\n      dup3\n      add\n        /* \"#utility.yul\":10842:10872   */\n      mstore\n      shl(0x5a, 0x10995b99599a58da585c9e481b9bdd08199bdd5b99)\n        /* \"#utility.yul\":10888:10906   */\n      0x44\n      dup3\n      add\n        /* \"#utility.yul\":10881:10932   */\n      mstore\n        /* \"#utility.yul\":10949:10967   */\n      0x64\n      add\n        /* \"DeadMansSwitch.sol\":7572:7644  require(isBeneficiary(msg.sender,_beneficiary), \"Beneficiary not found\") */\n      tag_123\n        /* \"#utility.yul\":10628:10973   */\n      jump\n        /* \"DeadMansSwitch.sol\":7572:7644  require(isBeneficiary(msg.sender,_beneficiary), \"Beneficiary not found\") */\n    tag_217:\n        /* \"DeadMansSwitch.sol\":7674:7684  msg.sender */\n      caller\n        /* \"DeadMansSwitch.sol\":7662:7685  benefactors[msg.sender] */\n      0x00\n      swap1\n      dup2\n      mstore\n        /* \"DeadMansSwitch.sol\":7662:7673  benefactors */\n      0x02\n        /* \"DeadMansSwitch.sol\":7662:7685  benefactors[msg.sender] */\n      0x20\n      swap1\n      dup2\n      mstore\n      0x40\n      dup1\n      dup4\n      keccak256\n      sub(shl(0xa0, 0x01), 0x01)\n        /* \"DeadMansSwitch.sol\":7662:7713  benefactors[msg.sender].beneficiaries[_beneficiary] */\n      dup6\n      and\n      dup5\n      mstore\n        /* \"DeadMansSwitch.sol\":7662:7699  benefactors[msg.sender].beneficiaries */\n      0x01\n      swap1\n      dup2\n      add\n        /* \"DeadMansSwitch.sol\":7662:7713  benefactors[msg.sender].beneficiaries[_beneficiary] */\n      swap1\n      swap3\n      mstore\n      dup3\n      keccak256\n        /* \"DeadMansSwitch.sol\":7655:7713  delete benefactors[msg.sender].beneficiaries[_beneficiary] */\n      dup1\n      sload\n      not(0xff)\n      and\n      dup2\n      sstore\n        /* \"DeadMansSwitch.sol\":7662:7713  benefactors[msg.sender].beneficiaries[_beneficiary] */\n      swap2\n        /* \"DeadMansSwitch.sol\":7662:7685  benefactors[msg.sender] */\n      swap1\n        /* \"DeadMansSwitch.sol\":7655:7713  delete benefactors[msg.sender].beneficiaries[_beneficiary] */\n      tag_219\n      swap1\n      dup4\n      add\n        /* \"DeadMansSwitch.sol\":7662:7685  benefactors[msg.sender] */\n      dup3\n        /* \"DeadMansSwitch.sol\":7655:7713  delete benefactors[msg.sender].beneficiaries[_beneficiary] */\n      tag_220\n      jump\t// in\n    tag_219:\n      tag_221\n      0x02\n      dup4\n      add\n      0x00\n      tag_222\n      jump\t// in\n    tag_221:\n      tag_223\n      0x03\n      dup4\n      add\n      0x00\n      tag_222\n      jump\t// in\n    tag_223:\n      pop\n      pop\n        /* \"DeadMansSwitch.sol\":7729:7772  BeneficiaryRemoved(msg.sender,_beneficiary) */\n      mload(0x40)\n      sub(shl(0xa0, 0x01), 0x01)\n      dup3\n      and\n      swap1\n        /* \"DeadMansSwitch.sol\":7748:7758  msg.sender */\n      caller\n      swap1\n        /* \"DeadMansSwitch.sol\":7729:7772  BeneficiaryRemoved(msg.sender,_beneficiary) */\n      0x1a6590bd0cabbfcc7c86bef99e1034054e179905cfcc294598fcd426c0922442\n      swap1\n      0x00\n      swap1\n      log3\n        /* \"DeadMansSwitch.sol\":7488:7780  function removeBeneficiary(address _beneficiary) external onlyBenefactor {... */\n      pop\n      jump\t// out\n        /* \"DeadMansSwitch.sol\":9473:10388  function removeIpfsCID(address _beneficiary, string memory _ipfsCID) external onlyBenefactor {... */\n    tag_77:\n        /* \"DeadMansSwitch.sol\":2488:2498  msg.sender */\n      caller\n        /* \"DeadMansSwitch.sol\":2476:2499  benefactors[msg.sender] */\n      0x00\n      swap1\n      dup2\n      mstore\n        /* \"DeadMansSwitch.sol\":2476:2487  benefactors */\n      0x02\n        /* \"DeadMansSwitch.sol\":2476:2499  benefactors[msg.sender] */\n      0x20\n      mstore\n      0x40\n      swap1\n      keccak256\n        /* \"DeadMansSwitch.sol\":2476:2506  benefactors[msg.sender].exists */\n      sload\n      0xff\n      and\n        /* \"DeadMansSwitch.sol\":2476:2541  benefactors[msg.sender].exists && benefactors[msg.sender].isAlive */\n      dup1\n      iszero\n      tag_225\n      jumpi\n      pop\n        /* \"DeadMansSwitch.sol\":2522:2532  msg.sender */\n      caller\n        /* \"DeadMansSwitch.sol\":2510:2533  benefactors[msg.sender] */\n      0x00\n      swap1\n      dup2\n      mstore\n        /* \"DeadMansSwitch.sol\":2510:2521  benefactors */\n      0x02\n        /* \"DeadMansSwitch.sol\":2510:2533  benefactors[msg.sender] */\n      0x20\n      mstore\n      0x40\n      swap1\n      keccak256\n        /* \"DeadMansSwitch.sol\":2510:2541  benefactors[msg.sender].isAlive */\n      0x04\n      add\n      sload\n      0x0100\n      swap1\n      div\n      0xff\n      and\n        /* \"DeadMansSwitch.sol\":2476:2541  benefactors[msg.sender].exists && benefactors[msg.sender].isAlive */\n    tag_225:\n        /* \"DeadMansSwitch.sol\":2468:2568  require(benefactors[msg.sender].exists && benefactors[msg.sender].isAlive, \"Not a valid benefactor\") */\n      tag_226\n      jumpi\n      mload(0x40)\n      shl(0xe5, 0x461bcd)\n      dup2\n      mstore\n        /* \"#utility.yul\":10479:10481   */\n      0x20\n        /* \"DeadMansSwitch.sol\":2468:2568  require(benefactors[msg.sender].exists && benefactors[msg.sender].isAlive, \"Not a valid benefactor\") */\n      0x04\n      dup3\n      add\n        /* \"#utility.yul\":10461:10482   */\n      mstore\n        /* \"#utility.yul\":10518:10520   */\n      0x16\n        /* \"#utility.yul\":10498:10516   */\n      0x24\n      dup3\n      add\n        /* \"#utility.yul\":10491:10521   */\n      mstore\n      shl(0x51, 0x2737ba1030903b30b634b2103132b732b330b1ba37b9)\n        /* \"#utility.yul\":10537:10555   */\n      0x44\n      dup3\n      add\n        /* \"#utility.yul\":10530:10582   */\n      mstore\n        /* \"#utility.yul\":10599:10617   */\n      0x64\n      add\n        /* \"DeadMansSwitch.sol\":2468:2568  require(benefactors[msg.sender].exists && benefactors[msg.sender].isAlive, \"Not a valid benefactor\") */\n      tag_123\n        /* \"#utility.yul\":10277:10623   */\n      jump\n        /* \"DeadMansSwitch.sol\":2468:2568  require(benefactors[msg.sender].exists && benefactors[msg.sender].isAlive, \"Not a valid benefactor\") */\n    tag_226:\n        /* \"DeadMansSwitch.sol\":9585:9624  isBeneficiary(msg.sender, _beneficiary) */\n      tag_229\n        /* \"DeadMansSwitch.sol\":9599:9609  msg.sender */\n      caller\n        /* \"DeadMansSwitch.sol\":9611:9623  _beneficiary */\n      dup4\n        /* \"DeadMansSwitch.sol\":9585:9598  isBeneficiary */\n      tag_48\n        /* \"DeadMansSwitch.sol\":9585:9624  isBeneficiary(msg.sender, _beneficiary) */\n      jump\t// in\n    tag_229:\n        /* \"DeadMansSwitch.sol\":9577:9650  require(isBeneficiary(msg.sender, _beneficiary), \"Beneficiary not found\") */\n      tag_230\n      jumpi\n      mload(0x40)\n      shl(0xe5, 0x461bcd)\n      dup2\n      mstore\n        /* \"#utility.yul\":10830:10832   */\n      0x20\n        /* \"DeadMansSwitch.sol\":9577:9650  require(isBeneficiary(msg.sender, _beneficiary), \"Beneficiary not found\") */\n      0x04\n      dup3\n      add\n        /* \"#utility.yul\":10812:10833   */\n      mstore\n        /* \"#utility.yul\":10869:10871   */\n      0x15\n        /* \"#utility.yul\":10849:10867   */\n      0x24\n      dup3\n      add\n        /* \"#utility.yul\":10842:10872   */\n      mstore\n      shl(0x5a, 0x10995b99599a58da585c9e481b9bdd08199bdd5b99)\n        /* \"#utility.yul\":10888:10906   */\n      0x44\n      dup3\n      add\n        /* \"#utility.yul\":10881:10932   */\n      mstore\n        /* \"#utility.yul\":10949:10967   */\n      0x64\n      add\n        /* \"DeadMansSwitch.sol\":9577:9650  require(isBeneficiary(msg.sender, _beneficiary), \"Beneficiary not found\") */\n      tag_123\n        /* \"#utility.yul\":10628:10973   */\n      jump\n        /* \"DeadMansSwitch.sol\":9577:9650  require(isBeneficiary(msg.sender, _beneficiary), \"Beneficiary not found\") */\n    tag_230:\n        /* \"DeadMansSwitch.sol\":9703:9713  msg.sender */\n      caller\n        /* \"DeadMansSwitch.sol\":9663:9688  string[] storage ipfsCIDs */\n      0x00\n        /* \"DeadMansSwitch.sol\":9691:9714  benefactors[msg.sender] */\n      swap1\n      dup2\n      mstore\n        /* \"DeadMansSwitch.sol\":9691:9702  benefactors */\n      0x02\n        /* \"DeadMansSwitch.sol\":9691:9714  benefactors[msg.sender] */\n      0x20\n      swap1\n      dup2\n      mstore\n      0x40\n      dup1\n      dup4\n      keccak256\n      sub(shl(0xa0, 0x01), 0x01)\n        /* \"DeadMansSwitch.sol\":9691:9742  benefactors[msg.sender].beneficiaries[_beneficiary] */\n      dup7\n      and\n      dup5\n      mstore\n        /* \"DeadMansSwitch.sol\":9691:9728  benefactors[msg.sender].beneficiaries */\n      0x01\n      swap1\n      dup2\n      add\n        /* \"DeadMansSwitch.sol\":9691:9742  benefactors[msg.sender].beneficiaries[_beneficiary] */\n      swap1\n      swap3\n      mstore\n      dup3\n      keccak256\n        /* \"DeadMansSwitch.sol\":9691:9751  benefactors[msg.sender].beneficiaries[_beneficiary].ipfsCIDs */\n      add\n      swap1\n        /* \"DeadMansSwitch.sol\":9808:10298  for (uint256 i = 0; i < ipfsCIDs.length; i++) {... */\n    tag_232:\n        /* \"DeadMansSwitch.sol\":9832:9847  ipfsCIDs.length */\n      dup2\n      sload\n        /* \"DeadMansSwitch.sol\":9828:9847  i < ipfsCIDs.length */\n      dup2\n      lt\n        /* \"DeadMansSwitch.sol\":9808:10298  for (uint256 i = 0; i < ipfsCIDs.length; i++) {... */\n      iszero\n      tag_233\n      jumpi\n        /* \"DeadMansSwitch.sol\":9944:9952  _ipfsCID */\n      dup3\n        /* \"DeadMansSwitch.sol\":9927:9953  abi.encodePacked(_ipfsCID) */\n      add(0x20, mload(0x40))\n      tag_235\n      swap2\n      swap1\n      tag_181\n      jump\t// in\n    tag_235:\n      mload(0x40)\n      0x20\n      dup2\n      dup4\n      sub\n      sub\n      dup2\n      mstore\n      swap1\n      0x40\n      mstore\n        /* \"DeadMansSwitch.sol\":9917:9954  keccak256(abi.encodePacked(_ipfsCID)) */\n      dup1\n      mload\n      swap1\n      0x20\n      add\n      keccak256\n        /* \"DeadMansSwitch.sol\":9900:9908  ipfsCIDs */\n      dup3\n        /* \"DeadMansSwitch.sol\":9909:9910  i */\n      dup3\n        /* \"DeadMansSwitch.sol\":9900:9911  ipfsCIDs[i] */\n      dup2\n      sload\n      dup2\n      lt\n      tag_237\n      jumpi\n      tag_237\n      tag_144\n      jump\t// in\n    tag_237:\n      swap1\n      0x00\n      mstore\n      keccak256(0x00, 0x20)\n      add\n        /* \"DeadMansSwitch.sol\":9883:9912  abi.encodePacked(ipfsCIDs[i]) */\n      add(0x20, mload(0x40))\n      tag_239\n      swap2\n      swap1\n      tag_186\n      jump\t// in\n    tag_239:\n      mload(0x40)\n      0x20\n      dup2\n      dup4\n      sub\n      sub\n      dup2\n      mstore\n      swap1\n      0x40\n      mstore\n        /* \"DeadMansSwitch.sol\":9873:9913  keccak256(abi.encodePacked(ipfsCIDs[i])) */\n      dup1\n      mload\n      swap1\n      0x20\n      add\n      keccak256\n        /* \"DeadMansSwitch.sol\":9873:9954  keccak256(abi.encodePacked(ipfsCIDs[i])) == keccak256(abi.encodePacked(_ipfsCID)) */\n      sub\n        /* \"DeadMansSwitch.sol\":9869:10287  if (keccak256(abi.encodePacked(ipfsCIDs[i])) == keccak256(abi.encodePacked(_ipfsCID))) {... */\n      tag_240\n      jumpi\n        /* \"DeadMansSwitch.sol\":10066:10081  ipfsCIDs.length */\n      dup2\n      sload\n        /* \"DeadMansSwitch.sol\":10057:10065  ipfsCIDs */\n      dup3\n      swap1\n        /* \"DeadMansSwitch.sol\":10066:10085  ipfsCIDs.length - 1 */\n      tag_241\n      swap1\n        /* \"DeadMansSwitch.sol\":10084:10085  1 */\n      0x01\n      swap1\n        /* \"DeadMansSwitch.sol\":10066:10085  ipfsCIDs.length - 1 */\n      tag_109\n      jump\t// in\n    tag_241:\n        /* \"DeadMansSwitch.sol\":10057:10086  ipfsCIDs[ipfsCIDs.length - 1] */\n      dup2\n      sload\n      dup2\n      lt\n      tag_243\n      jumpi\n      tag_243\n      tag_144\n      jump\t// in\n    tag_243:\n      swap1\n      0x00\n      mstore\n      keccak256(0x00, 0x20)\n      add\n        /* \"DeadMansSwitch.sol\":10043:10051  ipfsCIDs */\n      dup3\n        /* \"DeadMansSwitch.sol\":10052:10053  i */\n      dup3\n        /* \"DeadMansSwitch.sol\":10043:10054  ipfsCIDs[i] */\n      dup2\n      sload\n      dup2\n      lt\n      tag_246\n      jumpi\n      tag_246\n      tag_144\n      jump\t// in\n    tag_246:\n      swap1\n      0x00\n      mstore\n      keccak256(0x00, 0x20)\n      add\n        /* \"DeadMansSwitch.sol\":10043:10086  ipfsCIDs[i] = ipfsCIDs[ipfsCIDs.length - 1] */\n      swap1\n      dup2\n      tag_248\n      swap2\n      swap1\n      tag_249\n      jump\t// in\n    tag_248:\n      pop\n        /* \"DeadMansSwitch.sol\":10158:10166  ipfsCIDs */\n      dup2\n        /* \"DeadMansSwitch.sol\":10158:10172  ipfsCIDs.pop() */\n      dup1\n      sload\n      dup1\n      tag_251\n      jumpi\n      tag_251\n      tag_252\n      jump\t// in\n    tag_251:\n      0x01\n      swap1\n      sub\n      dup2\n      dup2\n      swap1\n      0x00\n      mstore\n      keccak256(0x00, 0x20)\n      add\n      0x00\n      tag_254\n      swap2\n      swap1\n      tag_222\n      jump\t// in\n    tag_254:\n      swap1\n      sstore\n        /* \"DeadMansSwitch.sol\":10223:10235  _beneficiary */\n      dup4\n      sub(shl(0xa0, 0x01), 0x01)\n        /* \"DeadMansSwitch.sol\":10196:10246  IpfsCIDRemoved(msg.sender, _beneficiary, _ipfsCID) */\n      and\n        /* \"DeadMansSwitch.sol\":10211:10221  msg.sender */\n      caller\n      sub(shl(0xa0, 0x01), 0x01)\n        /* \"DeadMansSwitch.sol\":10196:10246  IpfsCIDRemoved(msg.sender, _beneficiary, _ipfsCID) */\n      and\n      0x4c13211ce3b2d0cb3e02a662cc071d6be555042ca58d4d812b7b90e80d3250ac\n        /* \"DeadMansSwitch.sol\":10237:10245  _ipfsCID */\n      dup6\n        /* \"DeadMansSwitch.sol\":10196:10246  IpfsCIDRemoved(msg.sender, _beneficiary, _ipfsCID) */\n      mload(0x40)\n      tag_255\n      swap2\n      swap1\n      tag_82\n      jump\t// in\n    tag_255:\n      mload(0x40)\n      dup1\n      swap2\n      sub\n      swap1\n      log3\n        /* \"DeadMansSwitch.sol\":10265:10272  return; */\n      pop\n      pop\n        /* \"DeadMansSwitch.sol\":9473:10388  function removeIpfsCID(address _beneficiary, string memory _ipfsCID) external onlyBenefactor {... */\n      pop\n      pop\n      jump\t// out\n        /* \"DeadMansSwitch.sol\":9869:10287  if (keccak256(abi.encodePacked(ipfsCIDs[i])) == keccak256(abi.encodePacked(_ipfsCID))) {... */\n    tag_240:\n        /* \"DeadMansSwitch.sol\":9849:9852  i++ */\n      dup1\n      tag_256\n      dup2\n      tag_153\n      jump\t// in\n    tag_256:\n      swap2\n      pop\n      pop\n        /* \"DeadMansSwitch.sol\":9808:10298  for (uint256 i = 0; i < ipfsCIDs.length; i++) {... */\n      jump(tag_232)\n    tag_233:\n      pop\n        /* \"DeadMansSwitch.sol\":10334:10380  revert(\"CID not assigned to this beneficiary\") */\n      mload(0x40)\n      shl(0xe5, 0x461bcd)\n      dup2\n      mstore\n        /* \"#utility.yul\":14657:14659   */\n      0x20\n        /* \"DeadMansSwitch.sol\":10334:10380  revert(\"CID not assigned to this beneficiary\") */\n      0x04\n      dup3\n      add\n        /* \"#utility.yul\":14639:14660   */\n      mstore\n        /* \"#utility.yul\":14696:14698   */\n      0x24\n        /* \"#utility.yul\":14676:14694   */\n      dup1\n      dup3\n      add\n        /* \"#utility.yul\":14669:14699   */\n      mstore\n        /* \"#utility.yul\":14735:14769   */\n      0x434944206e6f742061737369676e656420746f20746869732062656e65666963\n        /* \"#utility.yul\":14715:14733   */\n      0x44\n      dup3\n      add\n        /* \"#utility.yul\":14708:14770   */\n      mstore\n      shl(0xe0, 0x69617279)\n        /* \"#utility.yul\":14786:14804   */\n      0x64\n      dup3\n      add\n        /* \"#utility.yul\":14779:14813   */\n      mstore\n        /* \"#utility.yul\":14830:14849   */\n      0x84\n      add\n        /* \"DeadMansSwitch.sol\":10334:10380  revert(\"CID not assigned to this beneficiary\") */\n      tag_123\n        /* \"#utility.yul\":14455:14855   */\n      jump\n        /* \"DeadMansSwitch.sol\":5601:5923  function getBenefactorPublicKey(address _benefactor, address _beneficiary) public view returns(string memory) {... */\n    tag_80:\n        /* \"DeadMansSwitch.sol\":5696:5709  string memory */\n      0x60\n        /* \"DeadMansSwitch.sol\":5726:5766  isBeneficiary(_benefactor, _beneficiary) */\n      tag_260\n        /* \"DeadMansSwitch.sol\":5740:5751  _benefactor */\n      dup4\n        /* \"DeadMansSwitch.sol\":5753:5765  _beneficiary */\n      dup4\n        /* \"DeadMansSwitch.sol\":5726:5739  isBeneficiary */\n      tag_48\n        /* \"DeadMansSwitch.sol\":5726:5766  isBeneficiary(_benefactor, _beneficiary) */\n      jump\t// in\n    tag_260:\n        /* \"DeadMansSwitch.sol\":5722:5916  if (isBeneficiary(_benefactor, _beneficiary)) {... */\n      iszero\n      tag_261\n      jumpi\n      sub(shl(0xa0, 0x01), 0x01)\n        /* \"DeadMansSwitch.sol\":5790:5814  benefactors[_benefactor] */\n      dup1\n      dup5\n      and\n      0x00\n      swap1\n      dup2\n      mstore\n        /* \"DeadMansSwitch.sol\":5790:5801  benefactors */\n      0x02\n        /* \"DeadMansSwitch.sol\":5790:5814  benefactors[_benefactor] */\n      0x20\n      dup2\n      dup2\n      mstore\n      0x40\n      dup1\n      dup5\n      keccak256\n        /* \"DeadMansSwitch.sol\":5790:5842  benefactors[_benefactor].beneficiaries[_beneficiary] */\n      swap5\n      dup8\n      and\n      dup5\n      mstore\n        /* \"DeadMansSwitch.sol\":5790:5828  benefactors[_benefactor].beneficiaries */\n      0x01\n      swap1\n      swap5\n      add\n        /* \"DeadMansSwitch.sol\":5790:5842  benefactors[_benefactor].beneficiaries[_beneficiary] */\n      swap1\n      mstore\n      swap2\n      swap1\n      keccak256\n        /* \"DeadMansSwitch.sol\":5790:5862  benefactors[_benefactor].beneficiaries[_beneficiary].benefactorPublicKey */\n      add\n        /* \"DeadMansSwitch.sol\":5783:5862  return benefactors[_benefactor].beneficiaries[_beneficiary].benefactorPublicKey */\n      dup1\n      sload\n      tag_262\n      swap1\n      tag_263\n      jump\t// in\n    tag_262:\n      dup1\n      0x1f\n      add\n      0x20\n      dup1\n      swap2\n      div\n      mul\n      0x20\n      add\n      mload(0x40)\n      swap1\n      dup2\n      add\n      0x40\n      mstore\n      dup1\n      swap3\n      swap2\n      swap1\n      dup2\n      dup2\n      mstore\n      0x20\n      add\n      dup3\n      dup1\n      sload\n      tag_264\n      swap1\n      tag_263\n      jump\t// in\n    tag_264:\n      dup1\n      iszero\n      tag_265\n      jumpi\n      dup1\n      0x1f\n      lt\n      tag_266\n      jumpi\n      0x0100\n      dup1\n      dup4\n      sload\n      div\n      mul\n      dup4\n      mstore\n      swap2\n      0x20\n      add\n      swap2\n      jump(tag_265)\n    tag_266:\n      dup3\n      add\n      swap2\n      swap1\n      0x00\n      mstore\n      keccak256(0x00, 0x20)\n      swap1\n    tag_267:\n      dup2\n      sload\n      dup2\n      mstore\n      swap1\n      0x01\n      add\n      swap1\n      0x20\n      add\n      dup1\n      dup4\n      gt\n      tag_267\n      jumpi\n      dup3\n      swap1\n      sub\n      0x1f\n      and\n      dup3\n      add\n      swap2\n    tag_265:\n      pop\n      pop\n      pop\n      pop\n      pop\n      swap1\n      pop\n      jump(tag_125)\n        /* \"DeadMansSwitch.sol\":5722:5916  if (isBeneficiary(_benefactor, _beneficiary)) {... */\n    tag_261:\n      pop\n        /* \"DeadMansSwitch.sol\":5895:5904  return \"\" */\n      0x40\n      dup1\n      mload\n      0x20\n      dup2\n      add\n      swap1\n      swap2\n      mstore\n      0x00\n      dup2\n      mstore\n      jump(tag_125)\n        /* \"DeadMansSwitch.sol\":10550:11336  function enableSwitch(address _benefactor) external {... */\n    tag_85:\n      sub(shl(0xa0, 0x01), 0x01)\n        /* \"DeadMansSwitch.sol\":10688:10712  benefactors[_benefactor] */\n      dup2\n      and\n      0x00\n      swap1\n      dup2\n      mstore\n        /* \"DeadMansSwitch.sol\":10688:10699  benefactors */\n      0x02\n        /* \"DeadMansSwitch.sol\":10688:10712  benefactors[_benefactor] */\n      0x20\n      swap1\n      dup2\n      mstore\n      0x40\n      dup1\n      dup4\n      keccak256\n        /* \"DeadMansSwitch.sol\":10727:10737  msg.sender */\n      caller\n        /* \"DeadMansSwitch.sol\":10688:10738  benefactors[_benefactor].beneficiaries[msg.sender] */\n      dup5\n      mstore\n        /* \"DeadMansSwitch.sol\":10688:10726  benefactors[_benefactor].beneficiaries */\n      0x01\n      add\n        /* \"DeadMansSwitch.sol\":10688:10738  benefactors[_benefactor].beneficiaries[msg.sender] */\n      swap1\n      swap2\n      mstore\n      swap1\n      keccak256\n        /* \"DeadMansSwitch.sol\":10688:10745  benefactors[_benefactor].beneficiaries[msg.sender].exists */\n      sload\n      0xff\n      and\n        /* \"DeadMansSwitch.sol\":10680:10773  require(benefactors[_benefactor].beneficiaries[msg.sender].exists, \"Not a valid beneficiary\") */\n      tag_270\n      jumpi\n      mload(0x40)\n      shl(0xe5, 0x461bcd)\n      dup2\n      mstore\n        /* \"#utility.yul\":15062:15064   */\n      0x20\n        /* \"DeadMansSwitch.sol\":10680:10773  require(benefactors[_benefactor].beneficiaries[msg.sender].exists, \"Not a valid beneficiary\") */\n      0x04\n      dup3\n      add\n        /* \"#utility.yul\":15044:15065   */\n      mstore\n        /* \"#utility.yul\":15101:15103   */\n      0x17\n        /* \"#utility.yul\":15081:15099   */\n      0x24\n      dup3\n      add\n        /* \"#utility.yul\":15074:15104   */\n      mstore\n        /* \"#utility.yul\":15140:15165   */\n      0x4e6f7420612076616c69642062656e6566696369617279000000000000000000\n        /* \"#utility.yul\":15120:15138   */\n      0x44\n      dup3\n      add\n        /* \"#utility.yul\":15113:15166   */\n      mstore\n        /* \"#utility.yul\":15183:15201   */\n      0x64\n      add\n        /* \"DeadMansSwitch.sol\":10680:10773  require(benefactors[_benefactor].beneficiaries[msg.sender].exists, \"Not a valid beneficiary\") */\n      tag_123\n        /* \"#utility.yul\":14860:15207   */\n      jump\n        /* \"DeadMansSwitch.sol\":10680:10773  require(benefactors[_benefactor].beneficiaries[msg.sender].exists, \"Not a valid beneficiary\") */\n    tag_270:\n      sub(shl(0xa0, 0x01), 0x01)\n        /* \"DeadMansSwitch.sol\":10789:10813  benefactors[_benefactor] */\n      dup2\n      and\n      0x00\n      swap1\n      dup2\n      mstore\n        /* \"DeadMansSwitch.sol\":10789:10800  benefactors */\n      0x02\n        /* \"DeadMansSwitch.sol\":10789:10813  benefactors[_benefactor] */\n      0x20\n      mstore\n      0x40\n      swap1\n      keccak256\n        /* \"DeadMansSwitch.sol\":10789:10827  benefactors[_benefactor].isSwitchedOff */\n      0x04\n      add\n      sload\n      0xff\n      and\n        /* \"DeadMansSwitch.sol\":10784:10921  if (!benefactors[_benefactor].isSwitchedOff) {... */\n      tag_273\n      jumpi\n        /* \"DeadMansSwitch.sol\":10849:10888  SwitchAlreadyOn(_benefactor,msg.sender) */\n      mload(0x40)\n        /* \"DeadMansSwitch.sol\":10877:10887  msg.sender */\n      caller\n      swap1\n      sub(shl(0xa0, 0x01), 0x01)\n        /* \"DeadMansSwitch.sol\":10849:10888  SwitchAlreadyOn(_benefactor,msg.sender) */\n      dup4\n      and\n      swap1\n      0x67c4731bdc193862f421e091d18f46df876bfe1b8b9aa97504f1d50d425b239d\n      swap1\n      0x00\n      swap1\n      log3\n        /* \"DeadMansSwitch.sol\":10550:11336  function enableSwitch(address _benefactor) external {... */\n      pop\n      jump\t// out\n        /* \"DeadMansSwitch.sol\":10784:10921  if (!benefactors[_benefactor].isSwitchedOff) {... */\n    tag_273:\n      sub(shl(0xa0, 0x01), 0x01)\n        /* \"DeadMansSwitch.sol\":10931:10955  benefactors[_benefactor] */\n      dup2\n      and\n        /* \"DeadMansSwitch.sol\":10972:10977  false */\n      0x00\n        /* \"DeadMansSwitch.sol\":10931:10955  benefactors[_benefactor] */\n      dup2\n      dup2\n      mstore\n        /* \"DeadMansSwitch.sol\":10931:10942  benefactors */\n      0x02\n        /* \"DeadMansSwitch.sol\":10931:10955  benefactors[_benefactor] */\n      0x20\n      dup2\n      swap1\n      mstore\n      0x40\n      swap2\n      dup3\n      swap1\n      keccak256\n        /* \"DeadMansSwitch.sol\":10931:10969  benefactors[_benefactor].isSwitchedOff */\n      0x04\n      dup2\n      add\n        /* \"DeadMansSwitch.sol\":10931:10977  benefactors[_benefactor].isSwitchedOff = false */\n      dup1\n      sload\n      not(0xff)\n      and\n      swap1\n      sstore\n        /* \"DeadMansSwitch.sol\":11087:11102  block.timestamp */\n      timestamp\n        /* \"DeadMansSwitch.sol\":11033:11084  benefactors[_benefactor].lastBenefactorResponseTime */\n      0x03\n      dup3\n      add\n        /* \"DeadMansSwitch.sol\":11033:11102  benefactors[_benefactor].lastBenefactorResponseTime = block.timestamp */\n      sstore\n        /* \"DeadMansSwitch.sol\":11285:11327  benefactors[_benefactor].countdownDuration */\n      add\n      sload\n        /* \"DeadMansSwitch.sol\":11239:11328  DeadMansSwitchEnabled(_benefactor,msg.sender, benefactors[_benefactor].countdownDuration) */\n      swap1\n      mload\n        /* \"DeadMansSwitch.sol\":11273:11283  msg.sender */\n      caller\n      swap3\n        /* \"DeadMansSwitch.sol\":10931:10955  benefactors[_benefactor] */\n      swap2\n        /* \"DeadMansSwitch.sol\":11239:11328  DeadMansSwitchEnabled(_benefactor,msg.sender, benefactors[_benefactor].countdownDuration) */\n      0x82595752291d0261dfb9b4b0c2307021c29c34e22fe0697b4840b529dc351bc3\n      swap2\n      tag_274\n      swap2\n        /* \"#utility.yul\":552:577   */\n      dup2\n      mstore\n        /* \"#utility.yul\":540:542   */\n      0x20\n        /* \"#utility.yul\":525:543   */\n      add\n      swap1\n        /* \"#utility.yul\":406:583   */\n      jump\n        /* \"DeadMansSwitch.sol\":11239:11328  DeadMansSwitchEnabled(_benefactor,msg.sender, benefactors[_benefactor].countdownDuration) */\n    tag_274:\n      mload(0x40)\n      dup1\n      swap2\n      sub\n      swap1\n      log3\n        /* \"DeadMansSwitch.sol\":10550:11336  function enableSwitch(address _benefactor) external {... */\n      pop\n      jump\t// out\n        /* \"DeadMansSwitch.sol\":6456:6688  function removeBenefactor(address _benefactor) public {... */\n    tag_88:\n        /* \"DeadMansSwitch.sol\":6541:6551  msg.sender */\n      caller\n        /* \"DeadMansSwitch.sol\":6529:6552  benefactors[msg.sender] */\n      0x00\n      swap1\n      dup2\n      mstore\n        /* \"DeadMansSwitch.sol\":6529:6540  benefactors */\n      0x02\n        /* \"DeadMansSwitch.sol\":6529:6552  benefactors[msg.sender] */\n      0x20\n      mstore\n      0x40\n      swap1\n      keccak256\n        /* \"DeadMansSwitch.sol\":6529:6559  benefactors[msg.sender].exists */\n      sload\n      0xff\n      and\n        /* \"DeadMansSwitch.sol\":6521:6589  require(benefactors[msg.sender].exists, \"Benefactor not registered\") */\n      tag_276\n      jumpi\n      mload(0x40)\n      shl(0xe5, 0x461bcd)\n      dup2\n      mstore\n        /* \"#utility.yul\":15414:15416   */\n      0x20\n        /* \"DeadMansSwitch.sol\":6521:6589  require(benefactors[msg.sender].exists, \"Benefactor not registered\") */\n      0x04\n      dup3\n      add\n        /* \"#utility.yul\":15396:15417   */\n      mstore\n        /* \"#utility.yul\":15453:15455   */\n      0x19\n        /* \"#utility.yul\":15433:15451   */\n      0x24\n      dup3\n      add\n        /* \"#utility.yul\":15426:15456   */\n      mstore\n        /* \"#utility.yul\":15492:15519   */\n      0x42656e65666163746f72206e6f74207265676973746572656400000000000000\n        /* \"#utility.yul\":15472:15490   */\n      0x44\n      dup3\n      add\n        /* \"#utility.yul\":15465:15520   */\n      mstore\n        /* \"#utility.yul\":15537:15555   */\n      0x64\n      add\n        /* \"DeadMansSwitch.sol\":6521:6589  require(benefactors[msg.sender].exists, \"Benefactor not registered\") */\n      tag_123\n        /* \"#utility.yul\":15212:15561   */\n      jump\n        /* \"DeadMansSwitch.sol\":6521:6589  require(benefactors[msg.sender].exists, \"Benefactor not registered\") */\n    tag_276:\n        /* \"DeadMansSwitch.sol\":6612:6622  msg.sender */\n      caller\n        /* \"DeadMansSwitch.sol\":6633:6638  false */\n      0x00\n        /* \"DeadMansSwitch.sol\":6600:6623  benefactors[msg.sender] */\n      swap1\n      dup2\n      mstore\n        /* \"DeadMansSwitch.sol\":6600:6611  benefactors */\n      0x02\n        /* \"DeadMansSwitch.sol\":6600:6623  benefactors[msg.sender] */\n      0x20\n      dup2\n      swap1\n      mstore\n      0x40\n      dup1\n      dup4\n      keccak256\n        /* \"DeadMansSwitch.sol\":6600:6638  benefactors[msg.sender].exists = false */\n      dup1\n      sload\n      not(0xff)\n      swap1\n      dup2\n      and\n      swap1\n      swap2\n      sstore\n      sub(shl(0xa0, 0x01), 0x01)\n        /* \"DeadMansSwitch.sol\":6656:6680  benefactors[_benefactor] */\n      swap5\n      swap1\n      swap5\n      and\n      dup4\n      mstore\n      dup3\n      keccak256\n        /* \"DeadMansSwitch.sol\":6649:6680  delete benefactors[_benefactor] */\n      dup1\n      sload\n      swap1\n      swap4\n      and\n      dup4\n      sstore\n      dup3\n      add\n      dup2\n      swap1\n      sstore\n      0x03\n      dup3\n      add\n      sstore\n      0x04\n      add\n      dup1\n      sload\n      not(0xffff)\n      and\n      swap1\n      sstore\n        /* \"DeadMansSwitch.sol\":6456:6688  function removeBenefactor(address _benefactor) public {... */\n      jump\t// out\n        /* \"DeadMansSwitch.sol\":13430:14129  function respondToSwitch() external onlyBenefactor {... */\n    tag_94:\n        /* \"DeadMansSwitch.sol\":2488:2498  msg.sender */\n      caller\n        /* \"DeadMansSwitch.sol\":2476:2499  benefactors[msg.sender] */\n      0x00\n      swap1\n      dup2\n      mstore\n        /* \"DeadMansSwitch.sol\":2476:2487  benefactors */\n      0x02\n        /* \"DeadMansSwitch.sol\":2476:2499  benefactors[msg.sender] */\n      0x20\n      mstore\n      0x40\n      swap1\n      keccak256\n        /* \"DeadMansSwitch.sol\":2476:2506  benefactors[msg.sender].exists */\n      sload\n      0xff\n      and\n        /* \"DeadMansSwitch.sol\":2476:2541  benefactors[msg.sender].exists && benefactors[msg.sender].isAlive */\n      dup1\n      iszero\n      tag_281\n      jumpi\n      pop\n        /* \"DeadMansSwitch.sol\":2522:2532  msg.sender */\n      caller\n        /* \"DeadMansSwitch.sol\":2510:2533  benefactors[msg.sender] */\n      0x00\n      swap1\n      dup2\n      mstore\n        /* \"DeadMansSwitch.sol\":2510:2521  benefactors */\n      0x02\n        /* \"DeadMansSwitch.sol\":2510:2533  benefactors[msg.sender] */\n      0x20\n      mstore\n      0x40\n      swap1\n      keccak256\n        /* \"DeadMansSwitch.sol\":2510:2541  benefactors[msg.sender].isAlive */\n      0x04\n      add\n      sload\n      0x0100\n      swap1\n      div\n      0xff\n      and\n        /* \"DeadMansSwitch.sol\":2476:2541  benefactors[msg.sender].exists && benefactors[msg.sender].isAlive */\n    tag_281:\n        /* \"DeadMansSwitch.sol\":2468:2568  require(benefactors[msg.sender].exists && benefactors[msg.sender].isAlive, \"Not a valid benefactor\") */\n      tag_282\n      jumpi\n      mload(0x40)\n      shl(0xe5, 0x461bcd)\n      dup2\n      mstore\n        /* \"#utility.yul\":10479:10481   */\n      0x20\n        /* \"DeadMansSwitch.sol\":2468:2568  require(benefactors[msg.sender].exists && benefactors[msg.sender].isAlive, \"Not a valid benefactor\") */\n      0x04\n      dup3\n      add\n        /* \"#utility.yul\":10461:10482   */\n      mstore\n        /* \"#utility.yul\":10518:10520   */\n      0x16\n        /* \"#utility.yul\":10498:10516   */\n      0x24\n      dup3\n      add\n        /* \"#utility.yul\":10491:10521   */\n      mstore\n      shl(0x51, 0x2737ba1030903b30b634b2103132b732b330b1ba37b9)\n        /* \"#utility.yul\":10537:10555   */\n      0x44\n      dup3\n      add\n        /* \"#utility.yul\":10530:10582   */\n      mstore\n        /* \"#utility.yul\":10599:10617   */\n      0x64\n      add\n        /* \"DeadMansSwitch.sol\":2468:2568  require(benefactors[msg.sender].exists && benefactors[msg.sender].isAlive, \"Not a valid benefactor\") */\n      tag_123\n        /* \"#utility.yul\":10277:10623   */\n      jump\n        /* \"DeadMansSwitch.sol\":2468:2568  require(benefactors[msg.sender].exists && benefactors[msg.sender].isAlive, \"Not a valid benefactor\") */\n    tag_282:\n        /* \"DeadMansSwitch.sol\":13508:13518  msg.sender */\n      caller\n        /* \"DeadMansSwitch.sol\":13496:13519  benefactors[msg.sender] */\n      0x00\n      swap1\n      dup2\n      mstore\n        /* \"DeadMansSwitch.sol\":13496:13507  benefactors */\n      0x02\n        /* \"DeadMansSwitch.sol\":13496:13519  benefactors[msg.sender] */\n      0x20\n      mstore\n      0x40\n      swap1\n      keccak256\n        /* \"DeadMansSwitch.sol\":13496:13546  benefactors[msg.sender].lastBenefactorResponseTime */\n      0x03\n      add\n      sload\n        /* \"DeadMansSwitch.sol\":13496:13551  benefactors[msg.sender].lastBenefactorResponseTime != 0 */\n      iszero\n        /* \"DeadMansSwitch.sol\":13492:14122  if (benefactors[msg.sender].lastBenefactorResponseTime != 0) {... */\n      tag_285\n      jumpi\n        /* \"DeadMansSwitch.sol\":13572:13600  checkAliveStatus(msg.sender) */\n      tag_286\n        /* \"DeadMansSwitch.sol\":13589:13599  msg.sender */\n      caller\n        /* \"DeadMansSwitch.sol\":13572:13588  checkAliveStatus */\n      tag_38\n        /* \"DeadMansSwitch.sol\":13572:13600  checkAliveStatus(msg.sender) */\n      jump\t// in\n    tag_286:\n        /* \"DeadMansSwitch.sol\":13568:13909  if (checkAliveStatus(msg.sender)) {... */\n      iszero\n      tag_287\n      jumpi\n        /* \"DeadMansSwitch.sol\":13644:13654  msg.sender */\n      caller\n      sub(shl(0xa0, 0x01), 0x01)\n        /* \"DeadMansSwitch.sol\":13626:13677  BenefactorIsAlive(msg.sender,\"Benefactor is alive\") */\n      and\n      0x793324a6f079e577f4a4646c7ec753efd3beddc2f4ce07bfae5f105c449ac356\n      mload(0x40)\n      tag_288\n      swap1\n        /* \"#utility.yul\":15768:15770   */\n      0x20\n        /* \"#utility.yul\":15750:15771   */\n      dup1\n      dup3\n      mstore\n        /* \"#utility.yul\":15807:15809   */\n      0x13\n        /* \"#utility.yul\":15787:15805   */\n      swap1\n      dup3\n      add\n        /* \"#utility.yul\":15780:15810   */\n      mstore\n        /* \"#utility.yul\":15846:15867   */\n      0x42656e65666163746f7220697320616c69766500000000000000000000000000\n        /* \"#utility.yul\":15841:15843   */\n      0x40\n        /* \"#utility.yul\":15826:15844   */\n      dup3\n      add\n        /* \"#utility.yul\":15819:15868   */\n      mstore\n        /* \"#utility.yul\":15900:15902   */\n      0x60\n        /* \"#utility.yul\":15885:15903   */\n      add\n      swap1\n        /* \"#utility.yul\":15566:15909   */\n      jump\n        /* \"DeadMansSwitch.sol\":13626:13677  BenefactorIsAlive(msg.sender,\"Benefactor is alive\") */\n    tag_288:\n      mload(0x40)\n      dup1\n      swap2\n      sub\n      swap1\n      log2\n        /* \"DeadMansSwitch.sol\":13696:13711  disableSwitch() */\n      tag_290\n        /* \"DeadMansSwitch.sol\":13696:13709  disableSwitch */\n      tag_291\n        /* \"DeadMansSwitch.sol\":13696:13711  disableSwitch() */\n      jump\t// in\n    tag_290:\n        /* \"DeadMansSwitch.sol\":13742:13752  msg.sender */\n      caller\n        /* \"DeadMansSwitch.sol\":13730:13753  benefactors[msg.sender] */\n      0x00\n      swap1\n      dup2\n      mstore\n        /* \"DeadMansSwitch.sol\":13730:13741  benefactors */\n      0x02\n        /* \"DeadMansSwitch.sol\":13730:13753  benefactors[msg.sender] */\n      0x20\n      mstore\n      0x40\n      swap1\n      keccak256\n        /* \"DeadMansSwitch.sol\":13783:13798  block.timestamp */\n      timestamp\n        /* \"DeadMansSwitch.sol\":13730:13780  benefactors[msg.sender].lastBenefactorResponseTime */\n      0x03\n      swap1\n      swap2\n      add\n        /* \"DeadMansSwitch.sol\":13730:13798  benefactors[msg.sender].lastBenefactorResponseTime = block.timestamp */\n      sstore\n        /* \"DeadMansSwitch.sol\":13430:14129  function respondToSwitch() external onlyBenefactor {... */\n      jump\t// out\n        /* \"DeadMansSwitch.sol\":13568:13909  if (checkAliveStatus(msg.sender)) {... */\n    tag_287:\n        /* \"DeadMansSwitch.sol\":13861:13871  msg.sender */\n      caller\n      sub(shl(0xa0, 0x01), 0x01)\n        /* \"DeadMansSwitch.sol\":13844:13893  BenefactorIsDead(msg.sender,\"Benefactor is dead\") */\n      and\n      0x5a68fa7d6b655a3e592d5d99ac82863424750e9d262c902f30f9e56655e7a856\n      mload(0x40)\n      tag_293\n      swap1\n        /* \"#utility.yul\":16116:16118   */\n      0x20\n        /* \"#utility.yul\":16098:16119   */\n      dup1\n      dup3\n      mstore\n        /* \"#utility.yul\":16155:16157   */\n      0x12\n        /* \"#utility.yul\":16135:16153   */\n      swap1\n      dup3\n      add\n        /* \"#utility.yul\":16128:16158   */\n      mstore\n        /* \"#utility.yul\":16194:16214   */\n      0x42656e65666163746f7220697320646561640000000000000000000000000000\n        /* \"#utility.yul\":16189:16191   */\n      0x40\n        /* \"#utility.yul\":16174:16192   */\n      dup3\n      add\n        /* \"#utility.yul\":16167:16215   */\n      mstore\n        /* \"#utility.yul\":16247:16249   */\n      0x60\n        /* \"#utility.yul\":16232:16250   */\n      add\n      swap1\n        /* \"#utility.yul\":15914:16256   */\n      jump\n        /* \"DeadMansSwitch.sol\":13844:13893  BenefactorIsDead(msg.sender,\"Benefactor is dead\") */\n    tag_293:\n      mload(0x40)\n      dup1\n      swap2\n      sub\n      swap1\n      log2\n        /* \"DeadMansSwitch.sol\":13430:14129  function respondToSwitch() external onlyBenefactor {... */\n      jump\t// out\n        /* \"DeadMansSwitch.sol\":13492:14122  if (benefactors[msg.sender].lastBenefactorResponseTime != 0) {... */\n    tag_285:\n        /* \"DeadMansSwitch.sol\":13964:13974  msg.sender */\n      caller\n      sub(shl(0xa0, 0x01), 0x01)\n        /* \"DeadMansSwitch.sol\":13946:13997  BenefactorIsAlive(msg.sender,\"Benefactor is alive\") */\n      and\n      0x793324a6f079e577f4a4646c7ec753efd3beddc2f4ce07bfae5f105c449ac356\n      mload(0x40)\n      tag_288\n      swap1\n        /* \"#utility.yul\":15768:15770   */\n      0x20\n        /* \"#utility.yul\":15750:15771   */\n      dup1\n      dup3\n      mstore\n        /* \"#utility.yul\":15807:15809   */\n      0x13\n        /* \"#utility.yul\":15787:15805   */\n      swap1\n      dup3\n      add\n        /* \"#utility.yul\":15780:15810   */\n      mstore\n        /* \"#utility.yul\":15846:15867   */\n      0x42656e65666163746f7220697320616c69766500000000000000000000000000\n        /* \"#utility.yul\":15841:15843   */\n      0x40\n        /* \"#utility.yul\":15826:15844   */\n      dup3\n      add\n        /* \"#utility.yul\":15819:15868   */\n      mstore\n        /* \"#utility.yul\":15900:15902   */\n      0x60\n        /* \"#utility.yul\":15885:15903   */\n      add\n      swap1\n        /* \"#utility.yul\":15566:15909   */\n      jump\n        /* \"DeadMansSwitch.sol\":4646:5007  function addBenefactorPublicKey(address _benefactor, address _beneficiary, string memory _key) public {... */\n    tag_97:\n        /* \"DeadMansSwitch.sol\":4767:4806  isBeneficiary(_benefactor,_beneficiary) */\n      tag_299\n        /* \"DeadMansSwitch.sol\":4781:4792  _benefactor */\n      dup4\n        /* \"DeadMansSwitch.sol\":4793:4805  _beneficiary */\n      dup4\n        /* \"DeadMansSwitch.sol\":4767:4780  isBeneficiary */\n      tag_48\n        /* \"DeadMansSwitch.sol\":4767:4806  isBeneficiary(_benefactor,_beneficiary) */\n      jump\t// in\n    tag_299:\n        /* \"DeadMansSwitch.sol\":4759:4843  require(isBeneficiary(_benefactor,_beneficiary), \"Beneficiary/Benefactor not found\") */\n      tag_300\n      jumpi\n      mload(0x40)\n      shl(0xe5, 0x461bcd)\n      dup2\n      mstore\n        /* \"#utility.yul\":7529:7531   */\n      0x20\n        /* \"DeadMansSwitch.sol\":4759:4843  require(isBeneficiary(_benefactor,_beneficiary), \"Beneficiary/Benefactor not found\") */\n      0x04\n      dup3\n      add\n        /* \"#utility.yul\":7511:7532   */\n      dup2\n      swap1\n      mstore\n        /* \"#utility.yul\":7548:7566   */\n      0x24\n      dup3\n      add\n        /* \"#utility.yul\":7541:7571   */\n      mstore\n        /* \"#utility.yul\":7607:7641   */\n      0x42656e65666963696172792f42656e65666163746f72206e6f7420666f756e64\n        /* \"#utility.yul\":7587:7605   */\n      0x44\n      dup3\n      add\n        /* \"#utility.yul\":7580:7642   */\n      mstore\n        /* \"#utility.yul\":7659:7677   */\n      0x64\n      add\n        /* \"DeadMansSwitch.sol\":4759:4843  require(isBeneficiary(_benefactor,_beneficiary), \"Beneficiary/Benefactor not found\") */\n      tag_123\n        /* \"#utility.yul\":7327:7683   */\n      jump\n        /* \"DeadMansSwitch.sol\":4759:4843  require(isBeneficiary(_benefactor,_beneficiary), \"Beneficiary/Benefactor not found\") */\n    tag_300:\n      sub(shl(0xa0, 0x01), 0x01)\n        /* \"DeadMansSwitch.sol\":4854:4878  benefactors[_benefactor] */\n      dup1\n      dup5\n      and\n      0x00\n      swap1\n      dup2\n      mstore\n        /* \"DeadMansSwitch.sol\":4854:4865  benefactors */\n      0x02\n        /* \"DeadMansSwitch.sol\":4854:4878  benefactors[_benefactor] */\n      0x20\n      dup2\n      dup2\n      mstore\n      0x40\n      dup1\n      dup5\n      keccak256\n        /* \"DeadMansSwitch.sol\":4854:4906  benefactors[_benefactor].beneficiaries[_beneficiary] */\n      swap5\n      dup8\n      and\n      dup5\n      mstore\n        /* \"DeadMansSwitch.sol\":4854:4892  benefactors[_benefactor].beneficiaries */\n      0x01\n      swap1\n      swap5\n      add\n        /* \"DeadMansSwitch.sol\":4854:4906  benefactors[_benefactor].beneficiaries[_beneficiary] */\n      swap1\n      mstore\n      swap2\n      swap1\n      keccak256\n        /* \"DeadMansSwitch.sol\":4854:4926  benefactors[_benefactor].beneficiaries[_beneficiary].benefactorPublicKey */\n      add\n        /* \"DeadMansSwitch.sol\":4854:4933  benefactors[_benefactor].beneficiaries[_beneficiary].benefactorPublicKey = _key */\n      tag_302\n        /* \"DeadMansSwitch.sol\":4929:4933  _key */\n      dup3\n        /* \"DeadMansSwitch.sol\":4854:4926  benefactors[_benefactor].beneficiaries[_beneficiary].benefactorPublicKey */\n      dup3\n        /* \"DeadMansSwitch.sol\":4854:4933  benefactors[_benefactor].beneficiaries[_beneficiary].benefactorPublicKey = _key */\n      tag_164\n      jump\t// in\n    tag_302:\n      pop\n        /* \"DeadMansSwitch.sol\":4980:4992  _beneficiary */\n      dup2\n      sub(shl(0xa0, 0x01), 0x01)\n        /* \"DeadMansSwitch.sol\":4949:4999  BenefactorKeyAdded(_benefactor,_beneficiary, _key) */\n      and\n        /* \"DeadMansSwitch.sol\":4968:4979  _benefactor */\n      dup4\n      sub(shl(0xa0, 0x01), 0x01)\n        /* \"DeadMansSwitch.sol\":4949:4999  BenefactorKeyAdded(_benefactor,_beneficiary, _key) */\n      and\n      0x812e93bad7e76e8b51ecdb31c9c69773dba6b47c2ae9fc763877665448b150d9\n        /* \"DeadMansSwitch.sol\":4994:4998  _key */\n      dup4\n        /* \"DeadMansSwitch.sol\":4949:4999  BenefactorKeyAdded(_benefactor,_beneficiary, _key) */\n      mload(0x40)\n      tag_165\n      swap2\n      swap1\n      tag_82\n      jump\t// in\n        /* \"DeadMansSwitch.sol\":14319:14728  function getCIDs(address _benefactor, address _beneficiary) public view returns (string[] memory){... */\n    tag_100:\n        /* \"DeadMansSwitch.sol\":14400:14415  string[] memory */\n      0x60\n        /* \"DeadMansSwitch.sol\":14435:14474  isBeneficiary(_benefactor,_beneficiary) */\n      tag_305\n        /* \"DeadMansSwitch.sol\":14449:14460  _benefactor */\n      dup4\n        /* \"DeadMansSwitch.sol\":14461:14473  _beneficiary */\n      dup4\n        /* \"DeadMansSwitch.sol\":14435:14448  isBeneficiary */\n      tag_48\n        /* \"DeadMansSwitch.sol\":14435:14474  isBeneficiary(_benefactor,_beneficiary) */\n      jump\t// in\n    tag_305:\n        /* \"DeadMansSwitch.sol\":14427:14499  require(isBeneficiary(_benefactor,_beneficiary),\"Beneficiary not found\") */\n      tag_306\n      jumpi\n      mload(0x40)\n      shl(0xe5, 0x461bcd)\n      dup2\n      mstore\n        /* \"#utility.yul\":10830:10832   */\n      0x20\n        /* \"DeadMansSwitch.sol\":14427:14499  require(isBeneficiary(_benefactor,_beneficiary),\"Beneficiary not found\") */\n      0x04\n      dup3\n      add\n        /* \"#utility.yul\":10812:10833   */\n      mstore\n        /* \"#utility.yul\":10869:10871   */\n      0x15\n        /* \"#utility.yul\":10849:10867   */\n      0x24\n      dup3\n      add\n        /* \"#utility.yul\":10842:10872   */\n      mstore\n      shl(0x5a, 0x10995b99599a58da585c9e481b9bdd08199bdd5b99)\n        /* \"#utility.yul\":10888:10906   */\n      0x44\n      dup3\n      add\n        /* \"#utility.yul\":10881:10932   */\n      mstore\n        /* \"#utility.yul\":10949:10967   */\n      0x64\n      add\n        /* \"DeadMansSwitch.sol\":14427:14499  require(isBeneficiary(_benefactor,_beneficiary),\"Beneficiary not found\") */\n      tag_123\n        /* \"#utility.yul\":10628:10973   */\n      jump\n        /* \"DeadMansSwitch.sol\":14427:14499  require(isBeneficiary(_benefactor,_beneficiary),\"Beneficiary not found\") */\n    tag_306:\n      sub(shl(0xa0, 0x01), 0x01)\n        /* \"DeadMansSwitch.sol\":14518:14542  benefactors[_benefactor] */\n      dup4\n      and\n      0x00\n      swap1\n      dup2\n      mstore\n        /* \"DeadMansSwitch.sol\":14518:14529  benefactors */\n      0x02\n        /* \"DeadMansSwitch.sol\":14518:14542  benefactors[_benefactor] */\n      0x20\n      swap1\n      dup2\n      mstore\n      0x40\n      dup1\n      dup4\n      keccak256\n        /* \"DeadMansSwitch.sol\":14557:14567  msg.sender */\n      caller\n        /* \"DeadMansSwitch.sol\":14518:14568  benefactors[_benefactor].beneficiaries[msg.sender] */\n      dup5\n      mstore\n        /* \"DeadMansSwitch.sol\":14518:14556  benefactors[_benefactor].beneficiaries */\n      0x01\n      add\n        /* \"DeadMansSwitch.sol\":14518:14568  benefactors[_benefactor].beneficiaries[msg.sender] */\n      swap1\n      swap2\n      mstore\n      swap1\n      keccak256\n        /* \"DeadMansSwitch.sol\":14518:14575  benefactors[_benefactor].beneficiaries[msg.sender].exists */\n      sload\n      0xff\n      and\n        /* \"DeadMansSwitch.sol\":14518:14620  benefactors[_benefactor].beneficiaries[msg.sender].exists && benefactors[_benefactor].isAlive == false */\n      dup1\n      iszero\n      tag_308\n      jumpi\n      pop\n      sub(shl(0xa0, 0x01), 0x01)\n        /* \"DeadMansSwitch.sol\":14579:14603  benefactors[_benefactor] */\n      dup4\n      and\n      0x00\n      swap1\n      dup2\n      mstore\n        /* \"DeadMansSwitch.sol\":14579:14590  benefactors */\n      0x02\n        /* \"DeadMansSwitch.sol\":14579:14603  benefactors[_benefactor] */\n      0x20\n      mstore\n      0x40\n      swap1\n      keccak256\n        /* \"DeadMansSwitch.sol\":14579:14611  benefactors[_benefactor].isAlive */\n      0x04\n      add\n      sload\n      0x0100\n      swap1\n      div\n      0xff\n      and\n        /* \"DeadMansSwitch.sol\":14579:14620  benefactors[_benefactor].isAlive == false */\n      iszero\n        /* \"DeadMansSwitch.sol\":14518:14620  benefactors[_benefactor].beneficiaries[msg.sender].exists && benefactors[_benefactor].isAlive == false */\n    tag_308:\n        /* \"DeadMansSwitch.sol\":14510:14641  require(benefactors[_benefactor].beneficiaries[msg.sender].exists && benefactors[_benefactor].isAlive == false,\"No access to CIDs\") */\n      tag_309\n      jumpi\n      mload(0x40)\n      shl(0xe5, 0x461bcd)\n      dup2\n      mstore\n        /* \"#utility.yul\":16463:16465   */\n      0x20\n        /* \"DeadMansSwitch.sol\":14510:14641  require(benefactors[_benefactor].beneficiaries[msg.sender].exists && benefactors[_benefactor].isAlive == false,\"No access to CIDs\") */\n      0x04\n      dup3\n      add\n        /* \"#utility.yul\":16445:16466   */\n      mstore\n        /* \"#utility.yul\":16502:16504   */\n      0x11\n        /* \"#utility.yul\":16482:16500   */\n      0x24\n      dup3\n      add\n        /* \"#utility.yul\":16475:16505   */\n      mstore\n        /* \"#utility.yul\":16541:16560   */\n      0x4e6f2061636365737320746f2043494473000000000000000000000000000000\n        /* \"#utility.yul\":16521:16539   */\n      0x44\n      dup3\n      add\n        /* \"#utility.yul\":16514:16561   */\n      mstore\n        /* \"#utility.yul\":16578:16596   */\n      0x64\n      add\n        /* \"DeadMansSwitch.sol\":14510:14641  require(benefactors[_benefactor].beneficiaries[msg.sender].exists && benefactors[_benefactor].isAlive == false,\"No access to CIDs\") */\n      tag_123\n        /* \"#utility.yul\":16261:16602   */\n      jump\n        /* \"DeadMansSwitch.sol\":14510:14641  require(benefactors[_benefactor].beneficiaries[msg.sender].exists && benefactors[_benefactor].isAlive == false,\"No access to CIDs\") */\n    tag_309:\n      sub(shl(0xa0, 0x01), 0x01)\n        /* \"DeadMansSwitch.sol\":14659:14683  benefactors[_benefactor] */\n      dup1\n      dup5\n      and\n      0x00\n      swap1\n      dup2\n      mstore\n        /* \"DeadMansSwitch.sol\":14659:14670  benefactors */\n      0x02\n        /* \"DeadMansSwitch.sol\":14659:14683  benefactors[_benefactor] */\n      0x20\n      swap1\n      dup2\n      mstore\n      0x40\n      dup1\n      dup4\n      keccak256\n        /* \"DeadMansSwitch.sol\":14659:14711  benefactors[_benefactor].beneficiaries[_beneficiary] */\n      swap4\n      dup7\n      and\n      dup4\n      mstore\n        /* \"DeadMansSwitch.sol\":14659:14697  benefactors[_benefactor].beneficiaries */\n      0x01\n      swap4\n      dup5\n      add\n        /* \"DeadMansSwitch.sol\":14659:14711  benefactors[_benefactor].beneficiaries[_beneficiary] */\n      dup3\n      mstore\n      dup1\n      dup4\n      keccak256\n        /* \"DeadMansSwitch.sol\":14659:14720  benefactors[_benefactor].beneficiaries[_beneficiary].ipfsCIDs */\n      swap1\n      swap4\n      add\n        /* \"DeadMansSwitch.sol\":14652:14720  return benefactors[_benefactor].beneficiaries[_beneficiary].ipfsCIDs */\n      dup1\n      sload\n      dup5\n      mload\n      dup2\n      dup5\n      mul\n      dup2\n      add\n      dup5\n      add\n      swap1\n      swap6\n      mstore\n      dup1\n      dup6\n      mstore\n        /* \"DeadMansSwitch.sol\":14659:14720  benefactors[_benefactor].beneficiaries[_beneficiary].ipfsCIDs */\n      swap1\n      swap3\n        /* \"DeadMansSwitch.sol\":14652:14720  return benefactors[_benefactor].beneficiaries[_beneficiary].ipfsCIDs */\n      swap1\n      swap2\n      dup5\n      add\n    tag_312:\n      dup3\n      dup3\n      lt\n      iszero\n      tag_313\n      jumpi\n      dup4\n      dup3\n      swap1\n      0x00\n      mstore\n      keccak256(0x00, 0x20)\n      add\n      dup1\n      sload\n      tag_315\n      swap1\n      tag_263\n      jump\t// in\n    tag_315:\n      dup1\n      0x1f\n      add\n      0x20\n      dup1\n      swap2\n      div\n      mul\n      0x20\n      add\n      mload(0x40)\n      swap1\n      dup2\n      add\n      0x40\n      mstore\n      dup1\n      swap3\n      swap2\n      swap1\n      dup2\n      dup2\n      mstore\n      0x20\n      add\n      dup3\n      dup1\n      sload\n      tag_316\n      swap1\n      tag_263\n      jump\t// in\n    tag_316:\n      dup1\n      iszero\n      tag_317\n      jumpi\n      dup1\n      0x1f\n      lt\n      tag_318\n      jumpi\n      0x0100\n      dup1\n      dup4\n      sload\n      div\n      mul\n      dup4\n      mstore\n      swap2\n      0x20\n      add\n      swap2\n      jump(tag_317)\n    tag_318:\n      dup3\n      add\n      swap2\n      swap1\n      0x00\n      mstore\n      keccak256(0x00, 0x20)\n      swap1\n    tag_319:\n      dup2\n      sload\n      dup2\n      mstore\n      swap1\n      0x01\n      add\n      swap1\n      0x20\n      add\n      dup1\n      dup4\n      gt\n      tag_319\n      jumpi\n      dup3\n      swap1\n      sub\n      0x1f\n      and\n      dup3\n      add\n      swap2\n    tag_317:\n      pop\n      pop\n      pop\n      pop\n      pop\n      dup2\n      mstore\n      0x20\n      add\n      swap1\n      0x01\n      add\n      swap1\n      jump(tag_312)\n    tag_313:\n      pop\n      pop\n      pop\n      pop\n      swap1\n      pop\n        /* \"DeadMansSwitch.sol\":14319:14728  function getCIDs(address _benefactor, address _beneficiary) public view returns (string[] memory){... */\n      swap3\n      swap2\n      pop\n      pop\n      jump\t// out\n        /* \"DeadMansSwitch.sol\":6042:6366  function getBeneficiaryPublicKey(address _benefactor, address _beneficiary) public view returns(string memory) {... */\n    tag_105:\n        /* \"DeadMansSwitch.sol\":6138:6151  string memory */\n      0x60\n        /* \"DeadMansSwitch.sol\":6168:6208  isBeneficiary(_benefactor, _beneficiary) */\n      tag_321\n        /* \"DeadMansSwitch.sol\":6182:6193  _benefactor */\n      dup4\n        /* \"DeadMansSwitch.sol\":6195:6207  _beneficiary */\n      dup4\n        /* \"DeadMansSwitch.sol\":6168:6181  isBeneficiary */\n      tag_48\n        /* \"DeadMansSwitch.sol\":6168:6208  isBeneficiary(_benefactor, _beneficiary) */\n      jump\t// in\n    tag_321:\n        /* \"DeadMansSwitch.sol\":6164:6359  if (isBeneficiary(_benefactor, _beneficiary)) {... */\n      iszero\n      tag_261\n      jumpi\n      sub(shl(0xa0, 0x01), 0x01)\n        /* \"DeadMansSwitch.sol\":6232:6256  benefactors[_benefactor] */\n      dup1\n      dup5\n      and\n      0x00\n      swap1\n      dup2\n      mstore\n        /* \"DeadMansSwitch.sol\":6232:6243  benefactors */\n      0x02\n        /* \"DeadMansSwitch.sol\":6232:6256  benefactors[_benefactor] */\n      0x20\n      swap1\n      dup2\n      mstore\n      0x40\n      dup1\n      dup4\n      keccak256\n        /* \"DeadMansSwitch.sol\":6232:6284  benefactors[_benefactor].beneficiaries[_beneficiary] */\n      swap4\n      dup7\n      and\n      dup4\n      mstore\n        /* \"DeadMansSwitch.sol\":6232:6270  benefactors[_benefactor].beneficiaries */\n      0x01\n      swap1\n      swap4\n      add\n        /* \"DeadMansSwitch.sol\":6232:6284  benefactors[_benefactor].beneficiaries[_beneficiary] */\n      swap1\n      mstore\n      keccak256\n        /* \"DeadMansSwitch.sol\":6232:6305  benefactors[_benefactor].beneficiaries[_beneficiary].beneficiaryPublicKey */\n      0x03\n      add\n        /* \"DeadMansSwitch.sol\":6225:6305  return benefactors[_benefactor].beneficiaries[_beneficiary].beneficiaryPublicKey */\n      dup1\n      sload\n      tag_262\n      swap1\n      tag_263\n      jump\t// in\n        /* \"DeadMansSwitch.sol\":12937:13272  function disableSwitch() internal onlyBenefactor {... */\n    tag_291:\n        /* \"DeadMansSwitch.sol\":2488:2498  msg.sender */\n      caller\n        /* \"DeadMansSwitch.sol\":2476:2499  benefactors[msg.sender] */\n      0x00\n      swap1\n      dup2\n      mstore\n        /* \"DeadMansSwitch.sol\":2476:2487  benefactors */\n      0x02\n        /* \"DeadMansSwitch.sol\":2476:2499  benefactors[msg.sender] */\n      0x20\n      mstore\n      0x40\n      swap1\n      keccak256\n        /* \"DeadMansSwitch.sol\":2476:2506  benefactors[msg.sender].exists */\n      sload\n      0xff\n      and\n        /* \"DeadMansSwitch.sol\":2476:2541  benefactors[msg.sender].exists && benefactors[msg.sender].isAlive */\n      dup1\n      iszero\n      tag_331\n      jumpi\n      pop\n        /* \"DeadMansSwitch.sol\":2522:2532  msg.sender */\n      caller\n        /* \"DeadMansSwitch.sol\":2510:2533  benefactors[msg.sender] */\n      0x00\n      swap1\n      dup2\n      mstore\n        /* \"DeadMansSwitch.sol\":2510:2521  benefactors */\n      0x02\n        /* \"DeadMansSwitch.sol\":2510:2533  benefactors[msg.sender] */\n      0x20\n      mstore\n      0x40\n      swap1\n      keccak256\n        /* \"DeadMansSwitch.sol\":2510:2541  benefactors[msg.sender].isAlive */\n      0x04\n      add\n      sload\n      0x0100\n      swap1\n      div\n      0xff\n      and\n        /* \"DeadMansSwitch.sol\":2476:2541  benefactors[msg.sender].exists && benefactors[msg.sender].isAlive */\n    tag_331:\n        /* \"DeadMansSwitch.sol\":2468:2568  require(benefactors[msg.sender].exists && benefactors[msg.sender].isAlive, \"Not a valid benefactor\") */\n      tag_332\n      jumpi\n      mload(0x40)\n      shl(0xe5, 0x461bcd)\n      dup2\n      mstore\n        /* \"#utility.yul\":10479:10481   */\n      0x20\n        /* \"DeadMansSwitch.sol\":2468:2568  require(benefactors[msg.sender].exists && benefactors[msg.sender].isAlive, \"Not a valid benefactor\") */\n      0x04\n      dup3\n      add\n        /* \"#utility.yul\":10461:10482   */\n      mstore\n        /* \"#utility.yul\":10518:10520   */\n      0x16\n        /* \"#utility.yul\":10498:10516   */\n      0x24\n      dup3\n      add\n        /* \"#utility.yul\":10491:10521   */\n      mstore\n      shl(0x51, 0x2737ba1030903b30b634b2103132b732b330b1ba37b9)\n        /* \"#utility.yul\":10537:10555   */\n      0x44\n      dup3\n      add\n        /* \"#utility.yul\":10530:10582   */\n      mstore\n        /* \"#utility.yul\":10599:10617   */\n      0x64\n      add\n        /* \"DeadMansSwitch.sol\":2468:2568  require(benefactors[msg.sender].exists && benefactors[msg.sender].isAlive, \"Not a valid benefactor\") */\n      tag_123\n        /* \"#utility.yul\":10277:10623   */\n      jump\n        /* \"DeadMansSwitch.sol\":2468:2568  require(benefactors[msg.sender].exists && benefactors[msg.sender].isAlive, \"Not a valid benefactor\") */\n    tag_332:\n        /* \"DeadMansSwitch.sol\":13013:13023  msg.sender */\n      caller\n        /* \"DeadMansSwitch.sol\":13001:13024  benefactors[msg.sender] */\n      0x00\n      swap1\n      dup2\n      mstore\n        /* \"DeadMansSwitch.sol\":13001:13012  benefactors */\n      0x02\n        /* \"DeadMansSwitch.sol\":13001:13024  benefactors[msg.sender] */\n      0x20\n      mstore\n      0x40\n      swap1\n      keccak256\n        /* \"DeadMansSwitch.sol\":13001:13038  benefactors[msg.sender].isSwitchedOff */\n      0x04\n      add\n      sload\n      0xff\n      and\n        /* \"DeadMansSwitch.sol\":12997:13132  if (benefactors[msg.sender].isSwitchedOff) {... */\n      iszero\n      tag_335\n      jumpi\n        /* \"DeadMansSwitch.sol\":13060:13099  SwitchAlreadyOff(msg.sender,msg.sender) */\n      mload(0x40)\n        /* \"DeadMansSwitch.sol\":13088:13098  msg.sender */\n      caller\n      swap1\n      dup2\n      swap1\n        /* \"DeadMansSwitch.sol\":13060:13099  SwitchAlreadyOff(msg.sender,msg.sender) */\n      0x439c5aaf7691cb4808dbd2a240323ce9ec0d04d66ddf65ffd5f88ebd60fa745b\n      swap1\n      0x00\n      swap1\n      log3\n        /* \"DeadMansSwitch.sol\":13430:14129  function respondToSwitch() external onlyBenefactor {... */\n      jump\t// out\n        /* \"DeadMansSwitch.sol\":12997:13132  if (benefactors[msg.sender].isSwitchedOff) {... */\n    tag_335:\n        /* \"DeadMansSwitch.sol\":13154:13164  msg.sender */\n      caller\n        /* \"DeadMansSwitch.sol\":13142:13165  benefactors[msg.sender] */\n      0x00\n      dup2\n      dup2\n      mstore\n        /* \"DeadMansSwitch.sol\":13142:13153  benefactors */\n      0x02\n        /* \"DeadMansSwitch.sol\":13142:13165  benefactors[msg.sender] */\n      0x20\n      mstore\n      0x40\n      swap1\n      dup2\n      swap1\n      keccak256\n        /* \"DeadMansSwitch.sol\":13142:13179  benefactors[msg.sender].isSwitchedOff */\n      0x04\n      add\n        /* \"DeadMansSwitch.sol\":13142:13186  benefactors[msg.sender].isSwitchedOff = true */\n      dup1\n      sload\n      not(0xff)\n      and\n        /* \"DeadMansSwitch.sol\":13182:13186  true */\n      0x01\n        /* \"DeadMansSwitch.sol\":13142:13186  benefactors[msg.sender].isSwitchedOff = true */\n      or\n      swap1\n      sstore\n        /* \"DeadMansSwitch.sol\":13202:13264  DeadMansSwitchDisabled(msg.sender,msg.sender, block.timestamp) */\n      mload\n        /* \"DeadMansSwitch.sol\":13154:13164  msg.sender */\n      dup2\n      swap1\n        /* \"DeadMansSwitch.sol\":13202:13264  DeadMansSwitchDisabled(msg.sender,msg.sender, block.timestamp) */\n      0x9baa855d20de9b1a4db454f55b09d1db5f42f0871bbea3b0c699146ade171625\n      swap1\n      tag_336\n      swap1\n        /* \"DeadMansSwitch.sol\":13248:13263  block.timestamp */\n      timestamp\n        /* \"#utility.yul\":552:577   */\n      dup2\n      mstore\n        /* \"#utility.yul\":540:542   */\n      0x20\n        /* \"#utility.yul\":525:543   */\n      add\n      swap1\n        /* \"#utility.yul\":406:583   */\n      jump\n        /* \"DeadMansSwitch.sol\":13202:13264  DeadMansSwitchDisabled(msg.sender,msg.sender, block.timestamp) */\n    tag_336:\n      mload(0x40)\n      dup1\n      swap2\n      sub\n      swap1\n      log3\n        /* \"DeadMansSwitch.sol\":12937:13272  function disableSwitch() internal onlyBenefactor {... */\n      jump\t// out\n    tag_208:\n      dup3\n      dup1\n      sload\n      dup3\n      dup3\n      sstore\n      swap1\n      0x00\n      mstore\n      keccak256(0x00, 0x20)\n      swap1\n      dup2\n      add\n      swap3\n      dup3\n      iszero\n      tag_339\n      jumpi\n      swap2\n      0x20\n      mul\n      dup3\n      add\n    tag_338:\n      dup3\n      dup2\n      gt\n      iszero\n      tag_339\n      jumpi\n      dup3\n      mload\n      dup3\n      swap1\n      tag_340\n      swap1\n      dup3\n      tag_164\n      jump\t// in\n    tag_340:\n      pop\n      swap2\n      0x20\n      add\n      swap2\n      swap1\n      0x01\n      add\n      swap1\n      jump(tag_338)\n    tag_339:\n      pop\n      tag_341\n      swap3\n      swap2\n      pop\n      tag_342\n      jump\t// in\n    tag_341:\n      pop\n      swap1\n      jump\t// out\n    tag_220:\n      pop\n      dup1\n      sload\n      0x00\n      dup3\n      sstore\n      swap1\n      0x00\n      mstore\n      keccak256(0x00, 0x20)\n      swap1\n      dup2\n      add\n      swap1\n      tag_344\n      swap2\n      swap1\n      tag_342\n      jump\t// in\n    tag_344:\n      pop\n      jump\t// out\n    tag_222:\n      pop\n      dup1\n      sload\n      tag_345\n      swap1\n      tag_263\n      jump\t// in\n    tag_345:\n      0x00\n      dup3\n      sstore\n      dup1\n      0x1f\n      lt\n      tag_347\n      jumpi\n      pop\n      pop\n      jump\t// out\n    tag_347:\n      0x1f\n      add\n      0x20\n      swap1\n      div\n      swap1\n      0x00\n      mstore\n      keccak256(0x00, 0x20)\n      swap1\n      dup2\n      add\n      swap1\n      tag_344\n      swap2\n      swap1\n      tag_349\n      jump\t// in\n    tag_342:\n      dup1\n      dup3\n      gt\n      iszero\n      tag_341\n      jumpi\n      0x00\n      tag_352\n      dup3\n      dup3\n      tag_222\n      jump\t// in\n    tag_352:\n      pop\n      0x01\n      add\n      jump(tag_342)\n    tag_349:\n    tag_353:\n      dup1\n      dup3\n      gt\n      iszero\n      tag_341\n      jumpi\n      0x00\n      dup2\n      sstore\n      0x01\n      add\n      jump(tag_353)\n        /* \"#utility.yul\":14:210   */\n    tag_355:\n        /* \"#utility.yul\":82:102   */\n      dup1\n      calldataload\n      sub(shl(0xa0, 0x01), 0x01)\n        /* \"#utility.yul\":131:185   */\n      dup2\n      and\n        /* \"#utility.yul\":121:186   */\n      dup2\n      eq\n        /* \"#utility.yul\":111:204   */\n      tag_365\n      jumpi\n        /* \"#utility.yul\":200:201   */\n      0x00\n        /* \"#utility.yul\":197:198   */\n      dup1\n        /* \"#utility.yul\":190:202   */\n      revert\n        /* \"#utility.yul\":111:204   */\n    tag_365:\n        /* \"#utility.yul\":14:210   */\n      swap2\n      swap1\n      pop\n      jump\t// out\n        /* \"#utility.yul\":215:401   */\n    tag_32:\n        /* \"#utility.yul\":274:280   */\n      0x00\n        /* \"#utility.yul\":327:329   */\n      0x20\n        /* \"#utility.yul\":315:324   */\n      dup3\n        /* \"#utility.yul\":306:313   */\n      dup5\n        /* \"#utility.yul\":302:325   */\n      sub\n        /* \"#utility.yul\":298:330   */\n      slt\n        /* \"#utility.yul\":295:347   */\n      iszero\n      tag_367\n      jumpi\n        /* \"#utility.yul\":343:344   */\n      0x00\n        /* \"#utility.yul\":340:341   */\n      dup1\n        /* \"#utility.yul\":333:345   */\n      revert\n        /* \"#utility.yul\":295:347   */\n    tag_367:\n        /* \"#utility.yul\":366:395   */\n      tag_114\n        /* \"#utility.yul\":385:394   */\n      dup3\n        /* \"#utility.yul\":366:395   */\n      tag_355\n      jump\t// in\n        /* \"#utility.yul\":780:1040   */\n    tag_47:\n        /* \"#utility.yul\":848:854   */\n      0x00\n        /* \"#utility.yul\":856:862   */\n      dup1\n        /* \"#utility.yul\":909:911   */\n      0x40\n        /* \"#utility.yul\":897:906   */\n      dup4\n        /* \"#utility.yul\":888:895   */\n      dup6\n        /* \"#utility.yul\":884:907   */\n      sub\n        /* \"#utility.yul\":880:912   */\n      slt\n        /* \"#utility.yul\":877:929   */\n      iszero\n      tag_372\n      jumpi\n        /* \"#utility.yul\":925:926   */\n      0x00\n        /* \"#utility.yul\":922:923   */\n      dup1\n        /* \"#utility.yul\":915:927   */\n      revert\n        /* \"#utility.yul\":877:929   */\n    tag_372:\n        /* \"#utility.yul\":948:977   */\n      tag_373\n        /* \"#utility.yul\":967:976   */\n      dup4\n        /* \"#utility.yul\":948:977   */\n      tag_355\n      jump\t// in\n    tag_373:\n        /* \"#utility.yul\":938:977   */\n      swap2\n      pop\n        /* \"#utility.yul\":996:1034   */\n      tag_374\n        /* \"#utility.yul\":1030:1032   */\n      0x20\n        /* \"#utility.yul\":1019:1028   */\n      dup5\n        /* \"#utility.yul\":1015:1033   */\n      add\n        /* \"#utility.yul\":996:1034   */\n      tag_355\n      jump\t// in\n    tag_374:\n        /* \"#utility.yul\":986:1034   */\n      swap1\n      pop\n        /* \"#utility.yul\":780:1040   */\n      swap3\n      pop\n      swap3\n      swap1\n      pop\n      jump\t// out\n        /* \"#utility.yul\":1045:1879   */\n    tag_56:\n        /* \"#utility.yul\":1237:1241   */\n      0x00\n        /* \"#utility.yul\":1285:1287   */\n      0x60\n        /* \"#utility.yul\":1274:1283   */\n      dup3\n        /* \"#utility.yul\":1270:1288   */\n      add\n        /* \"#utility.yul\":1329:1335   */\n      dup6\n        /* \"#utility.yul\":1322:1336   */\n      iszero\n        /* \"#utility.yul\":1315:1337   */\n      iszero\n        /* \"#utility.yul\":1304:1313   */\n      dup4\n        /* \"#utility.yul\":1297:1338   */\n      mstore\n        /* \"#utility.yul\":1357:1359   */\n      0x20\n        /* \"#utility.yul\":1395:1397   */\n      0x60\n        /* \"#utility.yul\":1390:1392   */\n      dup2\n        /* \"#utility.yul\":1379:1388   */\n      dup6\n        /* \"#utility.yul\":1375:1393   */\n      add\n        /* \"#utility.yul\":1368:1398   */\n      mstore\n        /* \"#utility.yul\":1418:1424   */\n      dup2\n        /* \"#utility.yul\":1453:1459   */\n      dup7\n        /* \"#utility.yul\":1447:1460   */\n      mload\n        /* \"#utility.yul\":1484:1490   */\n      dup1\n        /* \"#utility.yul\":1476:1482   */\n      dup5\n        /* \"#utility.yul\":1469:1491   */\n      mstore\n        /* \"#utility.yul\":1522:1525   */\n      0x80\n        /* \"#utility.yul\":1511:1520   */\n      dup7\n        /* \"#utility.yul\":1507:1526   */\n      add\n        /* \"#utility.yul\":1500:1526   */\n      swap2\n      pop\n        /* \"#utility.yul\":1561:1563   */\n      dup3\n        /* \"#utility.yul\":1553:1559   */\n      dup9\n        /* \"#utility.yul\":1549:1564   */\n      add\n        /* \"#utility.yul\":1535:1564   */\n      swap4\n      pop\n        /* \"#utility.yul\":1582:1583   */\n      0x00\n        /* \"#utility.yul\":1592:1810   */\n    tag_376:\n        /* \"#utility.yul\":1606:1612   */\n      dup2\n        /* \"#utility.yul\":1603:1604   */\n      dup2\n        /* \"#utility.yul\":1600:1613   */\n      lt\n        /* \"#utility.yul\":1592:1810   */\n      iszero\n      tag_378\n      jumpi\n        /* \"#utility.yul\":1671:1684   */\n      dup5\n      mload\n      sub(shl(0xa0, 0x01), 0x01)\n        /* \"#utility.yul\":1667:1729   */\n      and\n        /* \"#utility.yul\":1655:1730   */\n      dup4\n      mstore\n        /* \"#utility.yul\":1785:1800   */\n      swap4\n      dup4\n      add\n      swap4\n        /* \"#utility.yul\":1750:1762   */\n      swap2\n      dup4\n      add\n      swap2\n        /* \"#utility.yul\":1628:1629   */\n      0x01\n        /* \"#utility.yul\":1621:1630   */\n      add\n        /* \"#utility.yul\":1592:1810   */\n      jump(tag_376)\n    tag_378:\n        /* \"#utility.yul\":1596:1599   */\n      pop\n      pop\n        /* \"#utility.yul\":1827:1830   */\n      dup1\n        /* \"#utility.yul\":1819:1830   */\n      swap4\n      pop\n      pop\n      pop\n      pop\n        /* \"#utility.yul\":1866:1872   */\n      dup3\n        /* \"#utility.yul\":1861:1863   */\n      0x40\n        /* \"#utility.yul\":1850:1859   */\n      dup4\n        /* \"#utility.yul\":1846:1864   */\n      add\n        /* \"#utility.yul\":1839:1873   */\n      mstore\n        /* \"#utility.yul\":1045:1879   */\n      swap5\n      swap4\n      pop\n      pop\n      pop\n      pop\n      jump\t// out\n        /* \"#utility.yul\":1884:2011   */\n    tag_137:\n        /* \"#utility.yul\":1945:1955   */\n      0x4e487b71\n        /* \"#utility.yul\":1940:1943   */\n      0xe0\n        /* \"#utility.yul\":1936:1956   */\n      shl\n        /* \"#utility.yul\":1933:1934   */\n      0x00\n        /* \"#utility.yul\":1926:1957   */\n      mstore\n        /* \"#utility.yul\":1976:1980   */\n      0x41\n        /* \"#utility.yul\":1973:1974   */\n      0x04\n        /* \"#utility.yul\":1966:1981   */\n      mstore\n        /* \"#utility.yul\":2000:2004   */\n      0x24\n        /* \"#utility.yul\":1997:1998   */\n      0x00\n        /* \"#utility.yul\":1990:2005   */\n      revert\n        /* \"#utility.yul\":2016:2735   */\n    tag_356:\n        /* \"#utility.yul\":2059:2064   */\n      0x00\n        /* \"#utility.yul\":2112:2115   */\n      dup3\n        /* \"#utility.yul\":2105:2109   */\n      0x1f\n        /* \"#utility.yul\":2097:2103   */\n      dup4\n        /* \"#utility.yul\":2093:2110   */\n      add\n        /* \"#utility.yul\":2089:2116   */\n      slt\n        /* \"#utility.yul\":2079:2134   */\n      tag_381\n      jumpi\n        /* \"#utility.yul\":2130:2131   */\n      0x00\n        /* \"#utility.yul\":2127:2128   */\n      dup1\n        /* \"#utility.yul\":2120:2132   */\n      revert\n        /* \"#utility.yul\":2079:2134   */\n    tag_381:\n        /* \"#utility.yul\":2166:2172   */\n      dup2\n        /* \"#utility.yul\":2153:2173   */\n      calldataload\n        /* \"#utility.yul\":2192:2210   */\n      0xffffffffffffffff\n        /* \"#utility.yul\":2229:2231   */\n      dup1\n        /* \"#utility.yul\":2225:2227   */\n      dup3\n        /* \"#utility.yul\":2222:2232   */\n      gt\n        /* \"#utility.yul\":2219:2255   */\n      iszero\n      tag_383\n      jumpi\n        /* \"#utility.yul\":2235:2253   */\n      tag_383\n      tag_137\n      jump\t// in\n    tag_383:\n        /* \"#utility.yul\":2310:2312   */\n      0x40\n        /* \"#utility.yul\":2304:2313   */\n      mload\n        /* \"#utility.yul\":2278:2280   */\n      0x1f\n        /* \"#utility.yul\":2364:2377   */\n      dup4\n      add\n      not(0x1f)\n        /* \"#utility.yul\":2360:2382   */\n      swap1\n      dup2\n      and\n        /* \"#utility.yul\":2384:2386   */\n      0x3f\n        /* \"#utility.yul\":2356:2387   */\n      add\n        /* \"#utility.yul\":2352:2392   */\n      and\n        /* \"#utility.yul\":2340:2393   */\n      dup2\n      add\n      swap1\n        /* \"#utility.yul\":2408:2426   */\n      dup3\n      dup3\n      gt\n        /* \"#utility.yul\":2428:2450   */\n      dup2\n      dup4\n      lt\n        /* \"#utility.yul\":2405:2451   */\n      or\n        /* \"#utility.yul\":2402:2474   */\n      iszero\n      tag_385\n      jumpi\n        /* \"#utility.yul\":2454:2472   */\n      tag_385\n      tag_137\n      jump\t// in\n    tag_385:\n        /* \"#utility.yul\":2494:2504   */\n      dup2\n        /* \"#utility.yul\":2490:2492   */\n      0x40\n        /* \"#utility.yul\":2483:2505   */\n      mstore\n        /* \"#utility.yul\":2529:2531   */\n      dup4\n        /* \"#utility.yul\":2521:2527   */\n      dup2\n        /* \"#utility.yul\":2514:2532   */\n      mstore\n        /* \"#utility.yul\":2575:2578   */\n      dup7\n        /* \"#utility.yul\":2568:2572   */\n      0x20\n        /* \"#utility.yul\":2563:2565   */\n      dup6\n        /* \"#utility.yul\":2555:2561   */\n      dup9\n        /* \"#utility.yul\":2551:2566   */\n      add\n        /* \"#utility.yul\":2547:2573   */\n      add\n        /* \"#utility.yul\":2544:2579   */\n      gt\n        /* \"#utility.yul\":2541:2596   */\n      iszero\n      tag_386\n      jumpi\n        /* \"#utility.yul\":2592:2593   */\n      0x00\n        /* \"#utility.yul\":2589:2590   */\n      dup1\n        /* \"#utility.yul\":2582:2594   */\n      revert\n        /* \"#utility.yul\":2541:2596   */\n    tag_386:\n        /* \"#utility.yul\":2656:2658   */\n      dup4\n        /* \"#utility.yul\":2649:2653   */\n      0x20\n        /* \"#utility.yul\":2641:2647   */\n      dup8\n        /* \"#utility.yul\":2637:2654   */\n      add\n        /* \"#utility.yul\":2630:2634   */\n      0x20\n        /* \"#utility.yul\":2622:2628   */\n      dup4\n        /* \"#utility.yul\":2618:2635   */\n      add\n        /* \"#utility.yul\":2605:2659   */\n      calldatacopy\n        /* \"#utility.yul\":2703:2704   */\n      0x00\n        /* \"#utility.yul\":2696:2700   */\n      0x20\n        /* \"#utility.yul\":2691:2693   */\n      dup6\n        /* \"#utility.yul\":2683:2689   */\n      dup4\n        /* \"#utility.yul\":2679:2694   */\n      add\n        /* \"#utility.yul\":2675:2701   */\n      add\n        /* \"#utility.yul\":2668:2705   */\n      mstore\n        /* \"#utility.yul\":2723:2729   */\n      dup1\n        /* \"#utility.yul\":2714:2729   */\n      swap5\n      pop\n      pop\n      pop\n      pop\n      pop\n        /* \"#utility.yul\":2016:2735   */\n      swap3\n      swap2\n      pop\n      pop\n      jump\t// out\n        /* \"#utility.yul\":2740:3210   */\n    tag_59:\n        /* \"#utility.yul\":2827:2833   */\n      0x00\n        /* \"#utility.yul\":2835:2841   */\n      dup1\n        /* \"#utility.yul\":2843:2849   */\n      0x00\n        /* \"#utility.yul\":2896:2898   */\n      0x60\n        /* \"#utility.yul\":2884:2893   */\n      dup5\n        /* \"#utility.yul\":2875:2882   */\n      dup7\n        /* \"#utility.yul\":2871:2894   */\n      sub\n        /* \"#utility.yul\":2867:2899   */\n      slt\n        /* \"#utility.yul\":2864:2916   */\n      iszero\n      tag_388\n      jumpi\n        /* \"#utility.yul\":2912:2913   */\n      0x00\n        /* \"#utility.yul\":2909:2910   */\n      dup1\n        /* \"#utility.yul\":2902:2914   */\n      revert\n        /* \"#utility.yul\":2864:2916   */\n    tag_388:\n        /* \"#utility.yul\":2935:2964   */\n      tag_389\n        /* \"#utility.yul\":2954:2963   */\n      dup5\n        /* \"#utility.yul\":2935:2964   */\n      tag_355\n      jump\t// in\n    tag_389:\n        /* \"#utility.yul\":2925:2964   */\n      swap3\n      pop\n        /* \"#utility.yul\":2983:3021   */\n      tag_390\n        /* \"#utility.yul\":3017:3019   */\n      0x20\n        /* \"#utility.yul\":3006:3015   */\n      dup6\n        /* \"#utility.yul\":3002:3020   */\n      add\n        /* \"#utility.yul\":2983:3021   */\n      tag_355\n      jump\t// in\n    tag_390:\n        /* \"#utility.yul\":2973:3021   */\n      swap2\n      pop\n        /* \"#utility.yul\":3072:3074   */\n      0x40\n        /* \"#utility.yul\":3061:3070   */\n      dup5\n        /* \"#utility.yul\":3057:3075   */\n      add\n        /* \"#utility.yul\":3044:3076   */\n      calldataload\n        /* \"#utility.yul\":3099:3117   */\n      0xffffffffffffffff\n        /* \"#utility.yul\":3091:3097   */\n      dup2\n        /* \"#utility.yul\":3088:3118   */\n      gt\n        /* \"#utility.yul\":3085:3135   */\n      iszero\n      tag_391\n      jumpi\n        /* \"#utility.yul\":3131:3132   */\n      0x00\n        /* \"#utility.yul\":3128:3129   */\n      dup1\n        /* \"#utility.yul\":3121:3133   */\n      revert\n        /* \"#utility.yul\":3085:3135   */\n    tag_391:\n        /* \"#utility.yul\":3154:3204   */\n      tag_392\n        /* \"#utility.yul\":3196:3203   */\n      dup7\n        /* \"#utility.yul\":3187:3193   */\n      dup3\n        /* \"#utility.yul\":3176:3185   */\n      dup8\n        /* \"#utility.yul\":3172:3194   */\n      add\n        /* \"#utility.yul\":3154:3204   */\n      tag_356\n      jump\t// in\n    tag_392:\n        /* \"#utility.yul\":3144:3204   */\n      swap2\n      pop\n      pop\n        /* \"#utility.yul\":2740:3210   */\n      swap3\n      pop\n      swap3\n      pop\n      swap3\n      jump\t// out\n        /* \"#utility.yul\":3468:3864   */\n    tag_67:\n        /* \"#utility.yul\":3546:3552   */\n      0x00\n        /* \"#utility.yul\":3554:3560   */\n      dup1\n        /* \"#utility.yul\":3607:3609   */\n      0x40\n        /* \"#utility.yul\":3595:3604   */\n      dup4\n        /* \"#utility.yul\":3586:3593   */\n      dup6\n        /* \"#utility.yul\":3582:3605   */\n      sub\n        /* \"#utility.yul\":3578:3610   */\n      slt\n        /* \"#utility.yul\":3575:3627   */\n      iszero\n      tag_395\n      jumpi\n        /* \"#utility.yul\":3623:3624   */\n      0x00\n        /* \"#utility.yul\":3620:3621   */\n      dup1\n        /* \"#utility.yul\":3613:3625   */\n      revert\n        /* \"#utility.yul\":3575:3627   */\n    tag_395:\n        /* \"#utility.yul\":3646:3675   */\n      tag_396\n        /* \"#utility.yul\":3665:3674   */\n      dup4\n        /* \"#utility.yul\":3646:3675   */\n      tag_355\n      jump\t// in\n    tag_396:\n        /* \"#utility.yul\":3636:3675   */\n      swap2\n      pop\n        /* \"#utility.yul\":3726:3728   */\n      0x20\n        /* \"#utility.yul\":3715:3724   */\n      dup4\n        /* \"#utility.yul\":3711:3729   */\n      add\n        /* \"#utility.yul\":3698:3730   */\n      calldataload\n        /* \"#utility.yul\":3753:3771   */\n      0xffffffffffffffff\n        /* \"#utility.yul\":3745:3751   */\n      dup2\n        /* \"#utility.yul\":3742:3772   */\n      gt\n        /* \"#utility.yul\":3739:3789   */\n      iszero\n      tag_397\n      jumpi\n        /* \"#utility.yul\":3785:3786   */\n      0x00\n        /* \"#utility.yul\":3782:3783   */\n      dup1\n        /* \"#utility.yul\":3775:3787   */\n      revert\n        /* \"#utility.yul\":3739:3789   */\n    tag_397:\n        /* \"#utility.yul\":3808:3858   */\n      tag_398\n        /* \"#utility.yul\":3850:3857   */\n      dup6\n        /* \"#utility.yul\":3841:3847   */\n      dup3\n        /* \"#utility.yul\":3830:3839   */\n      dup7\n        /* \"#utility.yul\":3826:3848   */\n      add\n        /* \"#utility.yul\":3808:3858   */\n      tag_356\n      jump\t// in\n    tag_398:\n        /* \"#utility.yul\":3798:3858   */\n      swap2\n      pop\n      pop\n        /* \"#utility.yul\":3468:3864   */\n      swap3\n      pop\n      swap3\n      swap1\n      pop\n      jump\t// out\n        /* \"#utility.yul\":3869:4119   */\n    tag_357:\n        /* \"#utility.yul\":3954:3955   */\n      0x00\n        /* \"#utility.yul\":3964:4077   */\n    tag_400:\n        /* \"#utility.yul\":3978:3984   */\n      dup4\n        /* \"#utility.yul\":3975:3976   */\n      dup2\n        /* \"#utility.yul\":3972:3985   */\n      lt\n        /* \"#utility.yul\":3964:4077   */\n      iszero\n      tag_402\n      jumpi\n        /* \"#utility.yul\":4054:4065   */\n      dup2\n      dup2\n      add\n        /* \"#utility.yul\":4048:4066   */\n      mload\n        /* \"#utility.yul\":4035:4046   */\n      dup4\n      dup3\n      add\n        /* \"#utility.yul\":4028:4067   */\n      mstore\n        /* \"#utility.yul\":4000:4002   */\n      0x20\n        /* \"#utility.yul\":3993:4003   */\n      add\n        /* \"#utility.yul\":3964:4077   */\n      jump(tag_400)\n    tag_402:\n      pop\n      pop\n        /* \"#utility.yul\":4111:4112   */\n      0x00\n        /* \"#utility.yul\":4093:4109   */\n      swap2\n      add\n        /* \"#utility.yul\":4086:4113   */\n      mstore\n        /* \"#utility.yul\":3869:4119   */\n      jump\t// out\n        /* \"#utility.yul\":4124:4395   */\n    tag_358:\n        /* \"#utility.yul\":4166:4169   */\n      0x00\n        /* \"#utility.yul\":4204:4209   */\n      dup2\n        /* \"#utility.yul\":4198:4210   */\n      mload\n        /* \"#utility.yul\":4231:4237   */\n      dup1\n        /* \"#utility.yul\":4226:4229   */\n      dup5\n        /* \"#utility.yul\":4219:4238   */\n      mstore\n        /* \"#utility.yul\":4247:4323   */\n      tag_404\n        /* \"#utility.yul\":4316:4322   */\n      dup2\n        /* \"#utility.yul\":4309:4313   */\n      0x20\n        /* \"#utility.yul\":4304:4307   */\n      dup7\n        /* \"#utility.yul\":4300:4314   */\n      add\n        /* \"#utility.yul\":4293:4297   */\n      0x20\n        /* \"#utility.yul\":4286:4291   */\n      dup7\n        /* \"#utility.yul\":4282:4298   */\n      add\n        /* \"#utility.yul\":4247:4323   */\n      tag_357\n      jump\t// in\n    tag_404:\n        /* \"#utility.yul\":4377:4379   */\n      0x1f\n        /* \"#utility.yul\":4356:4371   */\n      add\n      not(0x1f)\n        /* \"#utility.yul\":4352:4381   */\n      and\n        /* \"#utility.yul\":4343:4382   */\n      swap3\n      swap1\n      swap3\n      add\n        /* \"#utility.yul\":4384:4388   */\n      0x20\n        /* \"#utility.yul\":4339:4389   */\n      add\n      swap3\n        /* \"#utility.yul\":4124:4395   */\n      swap2\n      pop\n      pop\n      jump\t// out\n        /* \"#utility.yul\":4400:4620   */\n    tag_82:\n        /* \"#utility.yul\":4549:4551   */\n      0x20\n        /* \"#utility.yul\":4538:4547   */\n      dup2\n        /* \"#utility.yul\":4531:4552   */\n      mstore\n        /* \"#utility.yul\":4512:4516   */\n      0x00\n        /* \"#utility.yul\":4569:4614   */\n      tag_114\n        /* \"#utility.yul\":4610:4612   */\n      0x20\n        /* \"#utility.yul\":4599:4608   */\n      dup4\n        /* \"#utility.yul\":4595:4613   */\n      add\n        /* \"#utility.yul\":4587:4593   */\n      dup5\n        /* \"#utility.yul\":4569:4614   */\n      tag_358\n      jump\t// in\n        /* \"#utility.yul\":4625:4873   */\n    tag_91:\n        /* \"#utility.yul\":4693:4699   */\n      0x00\n        /* \"#utility.yul\":4701:4707   */\n      dup1\n        /* \"#utility.yul\":4754:4756   */\n      0x40\n        /* \"#utility.yul\":4742:4751   */\n      dup4\n        /* \"#utility.yul\":4733:4740   */\n      dup6\n        /* \"#utility.yul\":4729:4752   */\n      sub\n        /* \"#utility.yul\":4725:4757   */\n      slt\n        /* \"#utility.yul\":4722:4774   */\n      iszero\n      tag_408\n      jumpi\n        /* \"#utility.yul\":4770:4771   */\n      0x00\n        /* \"#utility.yul\":4767:4768   */\n      dup1\n        /* \"#utility.yul\":4760:4772   */\n      revert\n        /* \"#utility.yul\":4722:4774   */\n    tag_408:\n      pop\n      pop\n        /* \"#utility.yul\":4793:4816   */\n      dup1\n      calldataload\n      swap3\n        /* \"#utility.yul\":4863:4865   */\n      0x20\n        /* \"#utility.yul\":4848:4866   */\n      swap1\n      swap2\n      add\n        /* \"#utility.yul\":4835:4867   */\n      calldataload\n      swap2\n      pop\n        /* \"#utility.yul\":4625:4873   */\n      jump\t// out\n        /* \"#utility.yul\":4878:5681   */\n    tag_102:\n        /* \"#utility.yul\":5040:5044   */\n      0x00\n        /* \"#utility.yul\":5069:5071   */\n      0x20\n        /* \"#utility.yul\":5109:5111   */\n      dup1\n        /* \"#utility.yul\":5098:5107   */\n      dup4\n        /* \"#utility.yul\":5094:5112   */\n      add\n        /* \"#utility.yul\":5139:5141   */\n      dup2\n        /* \"#utility.yul\":5128:5137   */\n      dup5\n        /* \"#utility.yul\":5121:5142   */\n      mstore\n        /* \"#utility.yul\":5162:5168   */\n      dup1\n        /* \"#utility.yul\":5197:5203   */\n      dup6\n        /* \"#utility.yul\":5191:5204   */\n      mload\n        /* \"#utility.yul\":5228:5234   */\n      dup1\n        /* \"#utility.yul\":5220:5226   */\n      dup4\n        /* \"#utility.yul\":5213:5235   */\n      mstore\n        /* \"#utility.yul\":5266:5268   */\n      0x40\n        /* \"#utility.yul\":5255:5264   */\n      dup7\n        /* \"#utility.yul\":5251:5269   */\n      add\n        /* \"#utility.yul\":5244:5269   */\n      swap2\n      pop\n        /* \"#utility.yul\":5328:5330   */\n      0x40\n        /* \"#utility.yul\":5318:5324   */\n      dup2\n        /* \"#utility.yul\":5315:5316   */\n      0x05\n        /* \"#utility.yul\":5311:5325   */\n      shl\n        /* \"#utility.yul\":5300:5309   */\n      dup8\n        /* \"#utility.yul\":5296:5326   */\n      add\n        /* \"#utility.yul\":5292:5331   */\n      add\n        /* \"#utility.yul\":5278:5331   */\n      swap3\n      pop\n        /* \"#utility.yul\":5366:5368   */\n      dup4\n        /* \"#utility.yul\":5358:5364   */\n      dup8\n        /* \"#utility.yul\":5354:5369   */\n      add\n        /* \"#utility.yul\":5387:5388   */\n      0x00\n        /* \"#utility.yul\":5397:5652   */\n    tag_410:\n        /* \"#utility.yul\":5411:5417   */\n      dup3\n        /* \"#utility.yul\":5408:5409   */\n      dup2\n        /* \"#utility.yul\":5405:5418   */\n      lt\n        /* \"#utility.yul\":5397:5652   */\n      iszero\n      tag_412\n      jumpi\n        /* \"#utility.yul\":5504:5506   */\n      0x3f\n        /* \"#utility.yul\":5500:5507   */\n      not\n        /* \"#utility.yul\":5488:5497   */\n      dup9\n        /* \"#utility.yul\":5480:5486   */\n      dup7\n        /* \"#utility.yul\":5476:5498   */\n      sub\n        /* \"#utility.yul\":5472:5508   */\n      add\n        /* \"#utility.yul\":5467:5470   */\n      dup5\n        /* \"#utility.yul\":5460:5509   */\n      mstore\n        /* \"#utility.yul\":5532:5572   */\n      tag_413\n        /* \"#utility.yul\":5565:5571   */\n      dup6\n        /* \"#utility.yul\":5556:5562   */\n      dup4\n        /* \"#utility.yul\":5550:5563   */\n      mload\n        /* \"#utility.yul\":5532:5572   */\n      tag_358\n      jump\t// in\n    tag_413:\n        /* \"#utility.yul\":5522:5572   */\n      swap5\n      pop\n        /* \"#utility.yul\":5630:5642   */\n      swap3\n      dup6\n      add\n      swap3\n        /* \"#utility.yul\":5595:5610   */\n      swap1\n      dup6\n      add\n      swap1\n        /* \"#utility.yul\":5433:5434   */\n      0x01\n        /* \"#utility.yul\":5426:5435   */\n      add\n        /* \"#utility.yul\":5397:5652   */\n      jump(tag_410)\n    tag_412:\n      pop\n        /* \"#utility.yul\":5669:5675   */\n      swap3\n      swap8\n        /* \"#utility.yul\":4878:5681   */\n      swap7\n      pop\n      pop\n      pop\n      pop\n      pop\n      pop\n      pop\n      jump\t// out\n        /* \"#utility.yul\":5686:5813   */\n    tag_359:\n        /* \"#utility.yul\":5747:5757   */\n      0x4e487b71\n        /* \"#utility.yul\":5742:5745   */\n      0xe0\n        /* \"#utility.yul\":5738:5758   */\n      shl\n        /* \"#utility.yul\":5735:5736   */\n      0x00\n        /* \"#utility.yul\":5728:5759   */\n      mstore\n        /* \"#utility.yul\":5778:5782   */\n      0x11\n        /* \"#utility.yul\":5775:5776   */\n      0x04\n        /* \"#utility.yul\":5768:5783   */\n      mstore\n        /* \"#utility.yul\":5802:5806   */\n      0x24\n        /* \"#utility.yul\":5799:5800   */\n      0x00\n        /* \"#utility.yul\":5792:5807   */\n      revert\n        /* \"#utility.yul\":5818:5946   */\n    tag_109:\n        /* \"#utility.yul\":5885:5894   */\n      dup2\n      dup2\n      sub\n        /* \"#utility.yul\":5906:5917   */\n      dup2\n      dup2\n      gt\n        /* \"#utility.yul\":5903:5940   */\n      iszero\n      tag_125\n      jumpi\n        /* \"#utility.yul\":5920:5938   */\n      tag_125\n      tag_359\n      jump\t// in\n        /* \"#utility.yul\":7055:7182   */\n    tag_144:\n        /* \"#utility.yul\":7116:7126   */\n      0x4e487b71\n        /* \"#utility.yul\":7111:7114   */\n      0xe0\n        /* \"#utility.yul\":7107:7127   */\n      shl\n        /* \"#utility.yul\":7104:7105   */\n      0x00\n        /* \"#utility.yul\":7097:7128   */\n      mstore\n        /* \"#utility.yul\":7147:7151   */\n      0x32\n        /* \"#utility.yul\":7144:7145   */\n      0x04\n        /* \"#utility.yul\":7137:7152   */\n      mstore\n        /* \"#utility.yul\":7171:7175   */\n      0x24\n        /* \"#utility.yul\":7168:7169   */\n      0x00\n        /* \"#utility.yul\":7161:7176   */\n      revert\n        /* \"#utility.yul\":7187:7322   */\n    tag_153:\n        /* \"#utility.yul\":7226:7229   */\n      0x00\n        /* \"#utility.yul\":7247:7264   */\n      0x01\n      dup3\n      add\n        /* \"#utility.yul\":7244:7287   */\n      tag_424\n      jumpi\n        /* \"#utility.yul\":7267:7285   */\n      tag_424\n      tag_359\n      jump\t// in\n    tag_424:\n      pop\n        /* \"#utility.yul\":7314:7315   */\n      0x01\n        /* \"#utility.yul\":7303:7316   */\n      add\n      swap1\n        /* \"#utility.yul\":7187:7322   */\n      jump\t// out\n        /* \"#utility.yul\":7688:8068   */\n    tag_263:\n        /* \"#utility.yul\":7767:7768   */\n      0x01\n        /* \"#utility.yul\":7763:7775   */\n      dup2\n      dup2\n      shr\n      swap1\n        /* \"#utility.yul\":7810:7822   */\n      dup3\n      and\n      dup1\n        /* \"#utility.yul\":7831:7892   */\n      tag_427\n      jumpi\n        /* \"#utility.yul\":7885:7889   */\n      0x7f\n        /* \"#utility.yul\":7877:7883   */\n      dup3\n        /* \"#utility.yul\":7873:7890   */\n      and\n        /* \"#utility.yul\":7863:7890   */\n      swap2\n      pop\n        /* \"#utility.yul\":7831:7892   */\n    tag_427:\n        /* \"#utility.yul\":7938:7940   */\n      0x20\n        /* \"#utility.yul\":7930:7936   */\n      dup3\n        /* \"#utility.yul\":7927:7941   */\n      lt\n        /* \"#utility.yul\":7907:7925   */\n      dup2\n        /* \"#utility.yul\":7904:7942   */\n      sub\n        /* \"#utility.yul\":7901:8062   */\n      tag_428\n      jumpi\n        /* \"#utility.yul\":7984:7994   */\n      0x4e487b71\n        /* \"#utility.yul\":7979:7982   */\n      0xe0\n        /* \"#utility.yul\":7975:7995   */\n      shl\n        /* \"#utility.yul\":7972:7973   */\n      0x00\n        /* \"#utility.yul\":7965:7996   */\n      mstore\n        /* \"#utility.yul\":8019:8023   */\n      0x22\n        /* \"#utility.yul\":8016:8017   */\n      0x04\n        /* \"#utility.yul\":8009:8024   */\n      mstore\n        /* \"#utility.yul\":8047:8051   */\n      0x24\n        /* \"#utility.yul\":8044:8045   */\n      0x00\n        /* \"#utility.yul\":8037:8052   */\n      revert\n        /* \"#utility.yul\":7901:8062   */\n    tag_428:\n      pop\n        /* \"#utility.yul\":7688:8068   */\n      swap2\n      swap1\n      pop\n      jump\t// out\n        /* \"#utility.yul\":8199:8744   */\n    tag_361:\n        /* \"#utility.yul\":8301:8303   */\n      0x1f\n        /* \"#utility.yul\":8296:8299   */\n      dup3\n        /* \"#utility.yul\":8293:8304   */\n      gt\n        /* \"#utility.yul\":8290:8738   */\n      iszero\n      tag_431\n      jumpi\n        /* \"#utility.yul\":8337:8338   */\n      0x00\n        /* \"#utility.yul\":8362:8367   */\n      dup2\n        /* \"#utility.yul\":8358:8360   */\n      dup2\n        /* \"#utility.yul\":8351:8368   */\n      mstore\n        /* \"#utility.yul\":8407:8411   */\n      0x20\n        /* \"#utility.yul\":8403:8405   */\n      dup2\n        /* \"#utility.yul\":8393:8412   */\n      keccak256\n        /* \"#utility.yul\":8477:8479   */\n      0x1f\n        /* \"#utility.yul\":8465:8475   */\n      dup6\n        /* \"#utility.yul\":8461:8480   */\n      add\n        /* \"#utility.yul\":8458:8459   */\n      0x05\n        /* \"#utility.yul\":8454:8481   */\n      shr\n        /* \"#utility.yul\":8448:8452   */\n      dup2\n        /* \"#utility.yul\":8444:8482   */\n      add\n        /* \"#utility.yul\":8513:8517   */\n      0x20\n        /* \"#utility.yul\":8501:8511   */\n      dup7\n        /* \"#utility.yul\":8498:8518   */\n      lt\n        /* \"#utility.yul\":8495:8542   */\n      iszero\n      tag_432\n      jumpi\n      pop\n        /* \"#utility.yul\":8536:8540   */\n      dup1\n        /* \"#utility.yul\":8495:8542   */\n    tag_432:\n        /* \"#utility.yul\":8591:8593   */\n      0x1f\n        /* \"#utility.yul\":8586:8589   */\n      dup6\n        /* \"#utility.yul\":8582:8594   */\n      add\n        /* \"#utility.yul\":8579:8580   */\n      0x05\n        /* \"#utility.yul\":8575:8595   */\n      shr\n        /* \"#utility.yul\":8569:8573   */\n      dup3\n        /* \"#utility.yul\":8565:8596   */\n      add\n        /* \"#utility.yul\":8555:8596   */\n      swap2\n      pop\n        /* \"#utility.yul\":8646:8728   */\n    tag_433:\n        /* \"#utility.yul\":8664:8666   */\n      dup2\n        /* \"#utility.yul\":8657:8662   */\n      dup2\n        /* \"#utility.yul\":8654:8667   */\n      lt\n        /* \"#utility.yul\":8646:8728   */\n      iszero\n      tag_435\n      jumpi\n        /* \"#utility.yul\":8709:8726   */\n      dup3\n      dup2\n      sstore\n        /* \"#utility.yul\":8690:8691   */\n      0x01\n        /* \"#utility.yul\":8679:8692   */\n      add\n        /* \"#utility.yul\":8646:8728   */\n      jump(tag_433)\n    tag_435:\n        /* \"#utility.yul\":8650:8653   */\n      pop\n      pop\n      pop\n        /* \"#utility.yul\":8290:8738   */\n    tag_431:\n        /* \"#utility.yul\":8199:8744   */\n      pop\n      pop\n      pop\n      jump\t// out\n        /* \"#utility.yul\":8920:10272   */\n    tag_164:\n        /* \"#utility.yul\":9046:9049   */\n      dup2\n        /* \"#utility.yul\":9040:9050   */\n      mload\n        /* \"#utility.yul\":9073:9091   */\n      0xffffffffffffffff\n        /* \"#utility.yul\":9065:9071   */\n      dup2\n        /* \"#utility.yul\":9062:9092   */\n      gt\n        /* \"#utility.yul\":9059:9115   */\n      iszero\n      tag_439\n      jumpi\n        /* \"#utility.yul\":9095:9113   */\n      tag_439\n      tag_137\n      jump\t// in\n    tag_439:\n        /* \"#utility.yul\":9124:9221   */\n      tag_440\n        /* \"#utility.yul\":9214:9220   */\n      dup2\n        /* \"#utility.yul\":9174:9212   */\n      tag_441\n        /* \"#utility.yul\":9206:9210   */\n      dup5\n        /* \"#utility.yul\":9200:9211   */\n      sload\n        /* \"#utility.yul\":9174:9212   */\n      tag_263\n      jump\t// in\n    tag_441:\n        /* \"#utility.yul\":9168:9172   */\n      dup5\n        /* \"#utility.yul\":9124:9221   */\n      tag_361\n      jump\t// in\n    tag_440:\n        /* \"#utility.yul\":9276:9280   */\n      0x20\n      dup1\n        /* \"#utility.yul\":9340:9342   */\n      0x1f\n        /* \"#utility.yul\":9329:9343   */\n      dup4\n      gt\n        /* \"#utility.yul\":9357:9358   */\n      0x01\n        /* \"#utility.yul\":9352:10015   */\n      dup2\n      eq\n      tag_443\n      jumpi\n        /* \"#utility.yul\":10059:10060   */\n      0x00\n        /* \"#utility.yul\":10076:10082   */\n      dup5\n        /* \"#utility.yul\":10073:10162   */\n      iszero\n      tag_444\n      jumpi\n      pop\n        /* \"#utility.yul\":10128:10147   */\n      dup6\n      dup4\n      add\n        /* \"#utility.yul\":10122:10148   */\n      mload\n        /* \"#utility.yul\":10073:10162   */\n    tag_444:\n      not(0x00)\n        /* \"#utility.yul\":8877:8878   */\n      0x03\n        /* \"#utility.yul\":8873:8884   */\n      dup7\n      swap1\n      shl\n        /* \"#utility.yul\":8869:8893   */\n      shr\n        /* \"#utility.yul\":8865:8894   */\n      not\n        /* \"#utility.yul\":8855:8895   */\n      and\n        /* \"#utility.yul\":8901:8902   */\n      0x01\n        /* \"#utility.yul\":8897:8908   */\n      dup6\n      swap1\n      shl\n        /* \"#utility.yul\":8852:8909   */\n      or\n        /* \"#utility.yul\":10175:10256   */\n      dup6\n      sstore\n        /* \"#utility.yul\":9322:10266   */\n      jump(tag_435)\n        /* \"#utility.yul\":9352:10015   */\n    tag_443:\n        /* \"#utility.yul\":8146:8147   */\n      0x00\n        /* \"#utility.yul\":8139:8153   */\n      dup6\n      dup2\n      mstore\n        /* \"#utility.yul\":8183:8187   */\n      0x20\n        /* \"#utility.yul\":8170:8188   */\n      dup2\n      keccak256\n      not(0x1f)\n        /* \"#utility.yul\":9388:9408   */\n      dup7\n      and\n      swap2\n        /* \"#utility.yul\":9506:9742   */\n    tag_447:\n        /* \"#utility.yul\":9520:9527   */\n      dup3\n        /* \"#utility.yul\":9517:9518   */\n      dup2\n        /* \"#utility.yul\":9514:9528   */\n      lt\n        /* \"#utility.yul\":9506:9742   */\n      iszero\n      tag_449\n      jumpi\n        /* \"#utility.yul\":9609:9628   */\n      dup9\n      dup7\n      add\n        /* \"#utility.yul\":9603:9629   */\n      mload\n        /* \"#utility.yul\":9588:9630   */\n      dup3\n      sstore\n        /* \"#utility.yul\":9701:9728   */\n      swap5\n      dup5\n      add\n      swap5\n        /* \"#utility.yul\":9669:9670   */\n      0x01\n        /* \"#utility.yul\":9657:9671   */\n      swap1\n      swap2\n      add\n      swap1\n        /* \"#utility.yul\":9536:9555   */\n      dup5\n      add\n        /* \"#utility.yul\":9506:9742   */\n      jump(tag_447)\n    tag_449:\n        /* \"#utility.yul\":9510:9513   */\n      pop\n        /* \"#utility.yul\":9770:9776   */\n      dup6\n        /* \"#utility.yul\":9761:9768   */\n      dup3\n        /* \"#utility.yul\":9758:9777   */\n      lt\n        /* \"#utility.yul\":9755:9956   */\n      iszero\n      tag_450\n      jumpi\n        /* \"#utility.yul\":9831:9850   */\n      dup8\n      dup6\n      add\n        /* \"#utility.yul\":9825:9851   */\n      mload\n      not(0x00)\n        /* \"#utility.yul\":9914:9915   */\n      0x03\n        /* \"#utility.yul\":9910:9924   */\n      dup9\n      swap1\n      shl\n        /* \"#utility.yul\":9926:9929   */\n      0xf8\n        /* \"#utility.yul\":9906:9930   */\n      and\n        /* \"#utility.yul\":9902:9939   */\n      shr\n        /* \"#utility.yul\":9898:9940   */\n      not\n        /* \"#utility.yul\":9883:9941   */\n      and\n        /* \"#utility.yul\":9868:9942   */\n      dup2\n      sstore\n        /* \"#utility.yul\":9755:9956   */\n    tag_450:\n      pop\n      pop\n      pop\n      pop\n      pop\n        /* \"#utility.yul\":10002:10003   */\n      0x01\n        /* \"#utility.yul\":9986:10000   */\n      swap1\n      dup2\n      shl\n        /* \"#utility.yul\":9982:10004   */\n      add\n        /* \"#utility.yul\":9969:10005   */\n      swap1\n      sstore\n      pop\n        /* \"#utility.yul\":8920:10272   */\n      jump\t// out\n        /* \"#utility.yul\":10978:11267   */\n    tag_181:\n        /* \"#utility.yul\":11109:11112   */\n      0x00\n        /* \"#utility.yul\":11147:11153   */\n      dup3\n        /* \"#utility.yul\":11141:11154   */\n      mload\n        /* \"#utility.yul\":11163:11229   */\n      tag_454\n        /* \"#utility.yul\":11222:11228   */\n      dup2\n        /* \"#utility.yul\":11217:11220   */\n      dup5\n        /* \"#utility.yul\":11210:11214   */\n      0x20\n        /* \"#utility.yul\":11202:11208   */\n      dup8\n        /* \"#utility.yul\":11198:11215   */\n      add\n        /* \"#utility.yul\":11163:11229   */\n      tag_357\n      jump\t// in\n    tag_454:\n        /* \"#utility.yul\":11245:11261   */\n      swap2\n      swap1\n      swap2\n      add\n      swap3\n        /* \"#utility.yul\":10978:11267   */\n      swap2\n      pop\n      pop\n      jump\t// out\n        /* \"#utility.yul\":11272:12114   */\n    tag_186:\n        /* \"#utility.yul\":11400:11403   */\n      0x00\n        /* \"#utility.yul\":11429:11430   */\n      dup1\n        /* \"#utility.yul\":11462:11468   */\n      dup4\n        /* \"#utility.yul\":11456:11469   */\n      sload\n        /* \"#utility.yul\":11492:11528   */\n      tag_456\n        /* \"#utility.yul\":11518:11527   */\n      dup2\n        /* \"#utility.yul\":11492:11528   */\n      tag_263\n      jump\t// in\n    tag_456:\n        /* \"#utility.yul\":11547:11548   */\n      0x01\n        /* \"#utility.yul\":11564:11582   */\n      dup3\n      dup2\n      and\n        /* \"#utility.yul\":11591:11724   */\n      dup1\n      iszero\n      tag_458\n      jumpi\n        /* \"#utility.yul\":11738:11739   */\n      0x01\n        /* \"#utility.yul\":11733:12089   */\n      dup2\n      eq\n      tag_459\n      jumpi\n        /* \"#utility.yul\":11557:12089   */\n      jump(tag_457)\n        /* \"#utility.yul\":11591:11724   */\n    tag_458:\n      not(0xff)\n        /* \"#utility.yul\":11624:11648   */\n      dup5\n      and\n        /* \"#utility.yul\":11612:11649   */\n      dup8\n      mstore\n        /* \"#utility.yul\":11697:11711   */\n      dup3\n      iszero\n        /* \"#utility.yul\":11690:11712   */\n      iszero\n        /* \"#utility.yul\":11678:11713   */\n      dup4\n      mul\n        /* \"#utility.yul\":11669:11714   */\n      dup8\n      add\n      swap5\n      pop\n        /* \"#utility.yul\":11591:11724   */\n      jump(tag_457)\n        /* \"#utility.yul\":11733:12089   */\n    tag_459:\n        /* \"#utility.yul\":11764:11770   */\n      dup8\n        /* \"#utility.yul\":11761:11762   */\n      0x00\n        /* \"#utility.yul\":11754:11771   */\n      mstore\n        /* \"#utility.yul\":11794:11798   */\n      0x20\n        /* \"#utility.yul\":11839:11841   */\n      dup1\n        /* \"#utility.yul\":11836:11837   */\n      0x00\n        /* \"#utility.yul\":11826:11842   */\n      keccak256\n        /* \"#utility.yul\":11864:11865   */\n      0x00\n        /* \"#utility.yul\":11878:12043   */\n    tag_460:\n        /* \"#utility.yul\":11892:11898   */\n      dup6\n        /* \"#utility.yul\":11889:11890   */\n      dup2\n        /* \"#utility.yul\":11886:11899   */\n      lt\n        /* \"#utility.yul\":11878:12043   */\n      iszero\n      tag_462\n      jumpi\n        /* \"#utility.yul\":11970:11984   */\n      dup2\n      sload\n        /* \"#utility.yul\":11957:11968   */\n      dup11\n      dup3\n      add\n        /* \"#utility.yul\":11950:11985   */\n      mstore\n        /* \"#utility.yul\":12013:12029   */\n      swap1\n      dup5\n      add\n      swap1\n        /* \"#utility.yul\":11907:11917   */\n      dup3\n      add\n        /* \"#utility.yul\":11878:12043   */\n      jump(tag_460)\n    tag_462:\n        /* \"#utility.yul\":11882:11885   */\n      pop\n      pop\n      pop\n        /* \"#utility.yul\":12072:12078   */\n      dup3\n        /* \"#utility.yul\":12067:12070   */\n      dup8\n        /* \"#utility.yul\":12063:12079   */\n      add\n        /* \"#utility.yul\":12056:12079   */\n      swap5\n      pop\n        /* \"#utility.yul\":11557:12089   */\n    tag_457:\n      pop\n        /* \"#utility.yul\":12105:12108   */\n      swap3\n      swap7\n        /* \"#utility.yul\":11272:12114   */\n      swap6\n      pop\n      pop\n      pop\n      pop\n      pop\n      pop\n      jump\t// out\n        /* \"#utility.yul\":12883:14318   */\n    tag_249:\n        /* \"#utility.yul\":13002:13005   */\n      dup2\n        /* \"#utility.yul\":12996:13000   */\n      dup2\n        /* \"#utility.yul\":12993:13006   */\n      sub\n        /* \"#utility.yul\":12990:13016   */\n      tag_466\n      jumpi\n        /* \"#utility.yul\":13009:13014   */\n      pop\n      pop\n        /* \"#utility.yul\":12883:14318   */\n      jump\t// out\n        /* \"#utility.yul\":12990:13016   */\n    tag_466:\n        /* \"#utility.yul\":13039:13076   */\n      tag_467\n        /* \"#utility.yul\":13071:13074   */\n      dup3\n        /* \"#utility.yul\":13065:13075   */\n      sload\n        /* \"#utility.yul\":13039:13076   */\n      tag_263\n      jump\t// in\n    tag_467:\n        /* \"#utility.yul\":13099:13117   */\n      0xffffffffffffffff\n        /* \"#utility.yul\":13091:13097   */\n      dup2\n        /* \"#utility.yul\":13088:13118   */\n      gt\n        /* \"#utility.yul\":13085:13141   */\n      iszero\n      tag_469\n      jumpi\n        /* \"#utility.yul\":13121:13139   */\n      tag_469\n      tag_137\n      jump\t// in\n    tag_469:\n        /* \"#utility.yul\":13150:13247   */\n      tag_470\n        /* \"#utility.yul\":13240:13246   */\n      dup2\n        /* \"#utility.yul\":13200:13238   */\n      tag_441\n        /* \"#utility.yul\":13232:13236   */\n      dup5\n        /* \"#utility.yul\":13226:13237   */\n      sload\n        /* \"#utility.yul\":13200:13238   */\n      tag_263\n      jump\t// in\n        /* \"#utility.yul\":13150:13247   */\n    tag_470:\n        /* \"#utility.yul\":13273:13274   */\n      0x00\n        /* \"#utility.yul\":13301:13303   */\n      0x1f\n        /* \"#utility.yul\":13293:13299   */\n      dup3\n        /* \"#utility.yul\":13290:13304   */\n      gt\n        /* \"#utility.yul\":13318:13319   */\n      0x01\n        /* \"#utility.yul\":13313:14061   */\n      dup2\n      eq\n      tag_473\n      jumpi\n        /* \"#utility.yul\":14105:14106   */\n      0x00\n        /* \"#utility.yul\":14122:14128   */\n      dup4\n        /* \"#utility.yul\":14119:14208   */\n      iszero\n      tag_474\n      jumpi\n      pop\n        /* \"#utility.yul\":14174:14193   */\n      dup5\n      dup3\n      add\n        /* \"#utility.yul\":14168:14194   */\n      sload\n        /* \"#utility.yul\":14119:14208   */\n    tag_474:\n      not(0x00)\n        /* \"#utility.yul\":8877:8878   */\n      0x03\n        /* \"#utility.yul\":8873:8884   */\n      dup6\n      swap1\n      shl\n        /* \"#utility.yul\":8869:8893   */\n      shr\n        /* \"#utility.yul\":8865:8894   */\n      not\n        /* \"#utility.yul\":8855:8895   */\n      and\n        /* \"#utility.yul\":8901:8902   */\n      0x01\n        /* \"#utility.yul\":8897:8908   */\n      dup5\n      swap1\n      shl\n        /* \"#utility.yul\":8852:8909   */\n      or\n        /* \"#utility.yul\":14221:14302   */\n      dup5\n      sstore\n        /* \"#utility.yul\":13283:14312   */\n      jump(tag_472)\n        /* \"#utility.yul\":13313:14061   */\n    tag_473:\n        /* \"#utility.yul\":8146:8147   */\n      0x00\n        /* \"#utility.yul\":8139:8153   */\n      dup6\n      dup2\n      mstore\n        /* \"#utility.yul\":8183:8187   */\n      0x20\n        /* \"#utility.yul\":8170:8188   */\n      swap1\n      keccak256\n      not(0x1f)\n        /* \"#utility.yul\":13349:13369   */\n      dup5\n      and\n      swap1\n        /* \"#utility.yul\":8146:8147   */\n      0x00\n        /* \"#utility.yul\":8139:8153   */\n      dup7\n      dup2\n      mstore\n        /* \"#utility.yul\":8183:8187   */\n      0x20\n        /* \"#utility.yul\":8170:8188   */\n      swap1\n      keccak256\n        /* \"#utility.yul\":13513:13522   */\n      dup5\n        /* \"#utility.yul\":13535:13786   */\n    tag_478:\n        /* \"#utility.yul\":13549:13556   */\n      dup4\n        /* \"#utility.yul\":13546:13547   */\n      dup2\n        /* \"#utility.yul\":13543:13557   */\n      lt\n        /* \"#utility.yul\":13535:13786   */\n      iszero\n      tag_480\n      jumpi\n        /* \"#utility.yul\":13631:13652   */\n      dup3\n      dup7\n      add\n        /* \"#utility.yul\":13625:13653   */\n      sload\n        /* \"#utility.yul\":13610:13654   */\n      dup3\n      sstore\n        /* \"#utility.yul\":13681:13682   */\n      0x01\n        /* \"#utility.yul\":13754:13772   */\n      swap6\n      dup7\n      add\n      swap6\n        /* \"#utility.yul\":13709:13724   */\n      swap1\n      swap2\n      add\n      swap1\n        /* \"#utility.yul\":13572:13576   */\n      0x20\n        /* \"#utility.yul\":13565:13577   */\n      add\n        /* \"#utility.yul\":13535:13786   */\n      jump(tag_478)\n    tag_480:\n        /* \"#utility.yul\":13539:13542   */\n      pop\n        /* \"#utility.yul\":13814:13820   */\n      dup6\n        /* \"#utility.yul\":13805:13812   */\n      dup4\n        /* \"#utility.yul\":13802:13821   */\n      lt\n        /* \"#utility.yul\":13799:14002   */\n      iszero\n      tag_481\n      jumpi\n        /* \"#utility.yul\":13875:13896   */\n      dup2\n      dup6\n      add\n        /* \"#utility.yul\":13869:13897   */\n      sload\n      not(0x00)\n        /* \"#utility.yul\":13960:13961   */\n      0x03\n        /* \"#utility.yul\":13956:13970   */\n      dup9\n      swap1\n      shl\n        /* \"#utility.yul\":13972:13975   */\n      0xf8\n        /* \"#utility.yul\":13952:13976   */\n      and\n        /* \"#utility.yul\":13948:13985   */\n      shr\n        /* \"#utility.yul\":13944:13986   */\n      not\n        /* \"#utility.yul\":13929:13987   */\n      and\n        /* \"#utility.yul\":13914:13988   */\n      dup2\n      sstore\n        /* \"#utility.yul\":13799:14002   */\n    tag_481:\n      pop\n      pop\n      pop\n        /* \"#utility.yul\":14048:14049   */\n      0x01\n        /* \"#utility.yul\":14039:14045   */\n      dup4\n        /* \"#utility.yul\":14036:14037   */\n      0x01\n        /* \"#utility.yul\":14032:14046   */\n      shl\n        /* \"#utility.yul\":14028:14050   */\n      add\n        /* \"#utility.yul\":14022:14026   */\n      dup5\n        /* \"#utility.yul\":14015:14051   */\n      sstore\n        /* \"#utility.yul\":13283:14312   */\n    tag_472:\n      pop\n      pop\n      pop\n        /* \"#utility.yul\":12883:14318   */\n      pop\n      pop\n      jump\t// out\n        /* \"#utility.yul\":14323:14450   */\n    tag_252:\n        /* \"#utility.yul\":14384:14394   */\n      0x4e487b71\n        /* \"#utility.yul\":14379:14382   */\n      0xe0\n        /* \"#utility.yul\":14375:14395   */\n      shl\n        /* \"#utility.yul\":14372:14373   */\n      0x00\n        /* \"#utility.yul\":14365:14396   */\n      mstore\n        /* \"#utility.yul\":14415:14419   */\n      0x31\n        /* \"#utility.yul\":14412:14413   */\n      0x04\n        /* \"#utility.yul\":14405:14420   */\n      mstore\n        /* \"#utility.yul\":14439:14443   */\n      0x24\n        /* \"#utility.yul\":14436:14437   */\n      0x00\n        /* \"#utility.yul\":14429:14444   */\n      revert\n\n    auxdata: 0xa2646970667358221220fd3b59b03a55ff5fc631154bc8b520d832ae3e6284fc906861073f80e36544ee64736f6c63430008110033\n}\n",
    "bytecode": {
      "linkReferences": {},
      "object": "608060405260008055600060015534801561001957600080fd5b506121b9806100296000396000f3fe608060405234801561001057600080fd5b506004361061016c5760003560e01c806359633a1c116100cd578063ccb53a0911610081578063d51c319911610066578063d51c3199146102ed578063df78bc5414610300578063f892cb361461032057600080fd5b8063ccb53a09146102cc578063cd9c9362146102e557600080fd5b806387ce1ca8116100b257806387ce1ca8146102865780638d5492e4146102a6578063a98d22bc146102b957600080fd5b806359633a1c1461026057806387c637141461027357600080fd5b806338266b221161012457806346437d3a1161010957806346437d3a1461021f5780635211287e1461023a5780635926651d1461024d57600080fd5b806338266b22146101ea5780633dea2f841461020c57600080fd5b806307a8b7671161015557806307a8b767146101ba578063096e27d9146101cd578063196ba7ef146101e057600080fd5b806301e2b33f14610171578063072039a214610197575b600080fd5b61018461017f366004611b79565b610333565b6040519081526020015b60405180910390f35b6101aa6101a5366004611b79565b610421565b604051901515815260200161018e565b6101aa6101c8366004611b79565b6104b5565b6101aa6101db366004611b94565b610545565b6101e8610579565b005b6101fd6101f8366004611b79565b610619565b60405161018e93929190611bc7565b6101e861021a366004611ccc565b610843565b6000546001546040805192835260208301919091520161018e565b6101e8610248366004611d2a565b610920565b6101e861025b366004611b79565b610b90565b6101e861026e366004611b79565b610d74565b6101e8610281366004611d2a565b610ed2565b610299610294366004611b94565b611176565b60405161018e9190611dc8565b6101e86102b4366004611b79565b611258565b6101e86102c7366004611b79565b611398565b6101e86102da366004611ddb565b600091909155600155565b6101e8611443565b6101e86102fb366004611ccc565b611651565b61031361030e366004611b94565b611721565b60405161018e9190611dfd565b61029961032e366004611b94565b611912565b6001600160a01b038116600090815260026020526040812060030154819061035b9042611e75565b6001600160a01b03841660008181526002602081815260409283902091820154600390920154835192835290820185905242828401526060820152905192935090917f74a7c0c2e8065fcdbfca5ae9f6cf0233e47e9e75b6fcf75674dd4b7e3f9b81839181900360800190a26001600160a01b038316600090815260026020819052604090912001548111610417576001600160a01b03831660009081526002602081905260409091200154610412908290611e75565b61041a565b60005b9392505050565b600061042c826104b5565b1561048e576001600160a01b0382166000908152600260205260409020600301541561048e57600061045d83610333565b90506000811161048c576001600160a01b0383166000908152600260205260409020600401805461ff00191690555b505b506001600160a01b0316600090815260026020526040902060040154610100900460ff1690565b6001600160a01b03811660009081526002602052604081205460ff166105225760405162461bcd60e51b815260206004820152601960248201527f42656e65666163746f7220646f6573206e6f742065786973740000000000000060448201526064015b60405180910390fd5b506001600160a01b031660009081526002602052604090206004015460ff161590565b6001600160a01b038083166000908152600260209081526040808320938516835260019093019052205460ff165b92915050565b3360009081526002602052604090205460ff16156105d95760405162461bcd60e51b815260206004820152601960248201527f62656e65666163746f7220616c726561647920657869737473000000000000006044820152606401610519565b3360009081526002602081905260408220805460ff1916600117815562093a809181019190915560048101805461010161ffff1990911617905560030155565b6001600160a01b038116600090815260026020526040812054606090829060ff166106865760405162461bcd60e51b815260206004820152601960248201527f42656e65666163746f7220646f6573206e6f74206578697374000000000000006044820152606401610519565b6001600160a01b03841660009081526002602090815260408083206004015460039092529091205460ff90911615935067ffffffffffffffff8111156106ce576106ce611c29565b6040519080825280602002602001820160405280156106f7578160200160208202803683370190505b5091506000805b8351811015610801576001600160a01b0386166000908152600260209081526040808320600390925282208054600190920192918490811061074257610742611e88565b60009182526020808320909101546001600160a01b0316835282019290925260400190205460ff16156107ef576001600160a01b038616600090815260036020526040902080548290811061079957610799611e88565b9060005260206000200160009054906101000a90046001600160a01b03168483815181106107c9576107c9611e88565b6001600160a01b0390921660209283029190910190910152816107eb81611e9e565b9250505b806107f981611e9e565b9150506106fe565b506001600160a01b03851660009081526002602052604090206004015460ff161561082f576000915061083b565b61083885610333565b91505b509193909250565b61084d8383610545565b6108995760405162461bcd60e51b815260206004820181905260248201527f42656e65666963696172792f42656e65666163746f72206e6f7420666f756e646044820152606401610519565b6001600160a01b038084166000908152600260209081526040808320938616835260019093019052206003016108cf8282611f40565b50816001600160a01b0316836001600160a01b03167f69ccea10852ac51b01745414774b5af302217e774786d2068296650b57ba03f2836040516109139190611dc8565b60405180910390a3505050565b3360009081526002602052604090205460ff168015610956575033600090815260026020526040902060040154610100900460ff165b61099b5760405162461bcd60e51b81526020600482015260166024820152752737ba1030903b30b634b2103132b732b330b1ba37b960511b6044820152606401610519565b6109a53383610545565b6109e95760405162461bcd60e51b815260206004820152601560248201527410995b99599a58da585c9e481b9bdd08199bdd5b99605a1b6044820152606401610519565b3360009081526002602090815260408083206001600160a01b03861684526001908101909252822001905b8154811015610b0b5782604051602001610a2e9190612000565b60405160208183030381529060405280519060200120828281548110610a5657610a56611e88565b90600052602060002001604051602001610a70919061201c565b6040516020818303038152906040528051906020012003610af95760405162461bcd60e51b815260206004820152602860248201527f43494420616c72656164792061737369676e656420746f20746869732062656e60448201527f65666963696172790000000000000000000000000000000000000000000000006064820152608401610519565b80610b0381611e9e565b915050610a14565b503360009081526002602090815260408083206001600160a01b0387168452600190810183529083208101805491820181558352912001610b4c8382611f40565b50826001600160a01b0316336001600160a01b03167fa1bb52b874769d5c17cde30e708e8f7180bb949f70e77caf0da68d25f9a1a510846040516109139190611dc8565b3360009081526002602052604090205460ff168015610bc6575033600090815260026020526040902060040154610100900460ff165b610c0b5760405162461bcd60e51b81526020600482015260166024820152752737ba1030903b30b634b2103132b732b330b1ba37b960511b6044820152606401610519565b610c153382610545565b15610c625760405162461bcd60e51b815260206004820152601a60248201527f42656e656669636961727920616c7265616479206578697374730000000000006044820152606401610519565b60408051608081018252600181528151600080825260208281019094529192830191610c9e565b6060815260200190600190039081610c895790505b50815260408051602080820183526000808352818501929092528251808201845282815293830193909352338152600283528181206001600160a01b0386168252600190810184529190208351815460ff19169015151781558383015180519193610d0e93850192910190611a7a565b5060408201516002820190610d239082611f40565b5060608201516003820190610d389082611f40565b50506040516001600160a01b038316915033907fbb39c36a7502b7256e1a687254146a9a2ea7b146c77cb9e40eb0e2b8793781e190600090a350565b3360009081526002602052604090205460ff168015610daa575033600090815260026020526040902060040154610100900460ff165b610def5760405162461bcd60e51b81526020600482015260166024820152752737ba1030903b30b634b2103132b732b330b1ba37b960511b6044820152606401610519565b610df93382610545565b610e3d5760405162461bcd60e51b815260206004820152601560248201527410995b99599a58da585c9e481b9bdd08199bdd5b99605a1b6044820152606401610519565b3360009081526002602090815260408083206001600160a01b038516845260019081019092528220805460ff191681559190610e7b90830182611ad0565b610e89600283016000611af1565b610e97600383016000611af1565b50506040516001600160a01b0382169033907f1a6590bd0cabbfcc7c86bef99e1034054e179905cfcc294598fcd426c092244290600090a350565b3360009081526002602052604090205460ff168015610f08575033600090815260026020526040902060040154610100900460ff165b610f4d5760405162461bcd60e51b81526020600482015260166024820152752737ba1030903b30b634b2103132b732b330b1ba37b960511b6044820152606401610519565b610f573383610545565b610f9b5760405162461bcd60e51b815260206004820152601560248201527410995b99599a58da585c9e481b9bdd08199bdd5b99605a1b6044820152606401610519565b3360009081526002602090815260408083206001600160a01b03861684526001908101909252822001905b81548110156111215782604051602001610fe09190612000565b6040516020818303038152906040528051906020012082828154811061100857611008611e88565b90600052602060002001604051602001611022919061201c565b604051602081830303815290604052805190602001200361110f578154829061104d90600190611e75565b8154811061105d5761105d611e88565b9060005260206000200182828154811061107957611079611e88565b90600052602060002001908161108f9190612092565b50818054806110a0576110a061216d565b6001900381819060005260206000200160006110bc9190611af1565b9055836001600160a01b0316336001600160a01b03167f4c13211ce3b2d0cb3e02a662cc071d6be555042ca58d4d812b7b90e80d3250ac856040516111019190611dc8565b60405180910390a350505050565b8061111981611e9e565b915050610fc6565b5060405162461bcd60e51b8152602060048201526024808201527f434944206e6f742061737369676e656420746f20746869732062656e656669636044820152636961727960e01b6064820152608401610519565b60606111828383610545565b15611243576001600160a01b0380841660009081526002602081815260408084209487168452600190940190529190200180546111be90611eb7565b80601f01602080910402602001604051908101604052809291908181526020018280546111ea90611eb7565b80156112375780601f1061120c57610100808354040283529160200191611237565b820191906000526020600020905b81548152906001019060200180831161121a57829003601f168201915b50505050509050610573565b50604080516020810190915260008152610573565b6001600160a01b038116600090815260026020908152604080832033845260010190915290205460ff166112ce5760405162461bcd60e51b815260206004820152601760248201527f4e6f7420612076616c69642062656e65666963696172790000000000000000006044820152606401610519565b6001600160a01b03811660009081526002602052604090206004015460ff1661132a5760405133906001600160a01b038316907f67c4731bdc193862f421e091d18f46df876bfe1b8b9aa97504f1d50d425b239d90600090a350565b6001600160a01b03811660008181526002602081905260409182902060048101805460ff19169055426003820155015490513392917f82595752291d0261dfb9b4b0c2307021c29c34e22fe0697b4840b529dc351bc39161138d91815260200190565b60405180910390a350565b3360009081526002602052604090205460ff166113f75760405162461bcd60e51b815260206004820152601960248201527f42656e65666163746f72206e6f742072656769737465726564000000000000006044820152606401610519565b336000908152600260208190526040808320805460ff199081169091556001600160a01b0394909416835282208054909316835582018190556003820155600401805461ffff19169055565b3360009081526002602052604090205460ff168015611479575033600090815260026020526040902060040154610100900460ff165b6114be5760405162461bcd60e51b81526020600482015260166024820152752737ba1030903b30b634b2103132b732b330b1ba37b960511b6044820152606401610519565b33600090815260026020526040902060030154156115e8576114df33610421565b1561157557336001600160a01b03167f793324a6f079e577f4a4646c7ec753efd3beddc2f4ce07bfae5f105c449ac35660405161154d9060208082526013908201527f42656e65666163746f7220697320616c69766500000000000000000000000000604082015260600190565b60405180910390a261155d61195a565b33600090815260026020526040902042600390910155565b336001600160a01b03167f5a68fa7d6b655a3e592d5d99ac82863424750e9d262c902f30f9e56655e7a8566040516115de9060208082526012908201527f42656e65666163746f7220697320646561640000000000000000000000000000604082015260600190565b60405180910390a2565b336001600160a01b03167f793324a6f079e577f4a4646c7ec753efd3beddc2f4ce07bfae5f105c449ac35660405161154d9060208082526013908201527f42656e65666163746f7220697320616c69766500000000000000000000000000604082015260600190565b61165b8383610545565b6116a75760405162461bcd60e51b815260206004820181905260248201527f42656e65666963696172792f42656e65666163746f72206e6f7420666f756e646044820152606401610519565b6001600160a01b038084166000908152600260208181526040808420948716845260019094019052919020016116dd8282611f40565b50816001600160a01b0316836001600160a01b03167f812e93bad7e76e8b51ecdb31c9c69773dba6b47c2ae9fc763877665448b150d9836040516109139190611dc8565b606061172d8383610545565b6117715760405162461bcd60e51b815260206004820152601560248201527410995b99599a58da585c9e481b9bdd08199bdd5b99605a1b6044820152606401610519565b6001600160a01b038316600090815260026020908152604080832033845260010190915290205460ff1680156117c857506001600160a01b038316600090815260026020526040902060040154610100900460ff16155b6118145760405162461bcd60e51b815260206004820152601160248201527f4e6f2061636365737320746f20434944730000000000000000000000000000006044820152606401610519565b6001600160a01b03808416600090815260026020908152604080832093861683526001938401825280832090930180548451818402810184019095528085529092909184015b8282101561190657838290600052602060002001805461187990611eb7565b80601f01602080910402602001604051908101604052809291908181526020018280546118a590611eb7565b80156118f25780601f106118c7576101008083540402835291602001916118f2565b820191906000526020600020905b8154815290600101906020018083116118d557829003601f168201915b50505050508152602001906001019061185a565b50505050905092915050565b606061191e8383610545565b15611243576001600160a01b0380841660009081526002602090815260408083209386168352600190930190522060030180546111be90611eb7565b3360009081526002602052604090205460ff168015611990575033600090815260026020526040902060040154610100900460ff165b6119d55760405162461bcd60e51b81526020600482015260166024820152752737ba1030903b30b634b2103132b732b330b1ba37b960511b6044820152606401610519565b3360009081526002602052604090206004015460ff1615611a1f57604051339081907f439c5aaf7691cb4808dbd2a240323ce9ec0d04d66ddf65ffd5f88ebd60fa745b90600090a3565b3360008181526002602052604090819020600401805460ff191660011790555181907f9baa855d20de9b1a4db454f55b09d1db5f42f0871bbea3b0c699146ade17162590611a709042815260200190565b60405180910390a3565b828054828255906000526020600020908101928215611ac0579160200282015b82811115611ac05782518290611ab09082611f40565b5091602001919060010190611a9a565b50611acc929150611b2b565b5090565b5080546000825590600052602060002090810190611aee9190611b2b565b50565b508054611afd90611eb7565b6000825580601f10611b0d575050565b601f016020900490600052602060002090810190611aee9190611b48565b80821115611acc576000611b3f8282611af1565b50600101611b2b565b5b80821115611acc5760008155600101611b49565b80356001600160a01b0381168114611b7457600080fd5b919050565b600060208284031215611b8b57600080fd5b61041a82611b5d565b60008060408385031215611ba757600080fd5b611bb083611b5d565b9150611bbe60208401611b5d565b90509250929050565b60006060820185151583526020606081850152818651808452608086019150828801935060005b81811015611c135784516001600160a01b031683529383019391830191600101611bee565b5050809350505050826040830152949350505050565b634e487b7160e01b600052604160045260246000fd5b600082601f830112611c5057600080fd5b813567ffffffffffffffff80821115611c6b57611c6b611c29565b604051601f8301601f19908116603f01168101908282118183101715611c9357611c93611c29565b81604052838152866020858801011115611cac57600080fd5b836020870160208301376000602085830101528094505050505092915050565b600080600060608486031215611ce157600080fd5b611cea84611b5d565b9250611cf860208501611b5d565b9150604084013567ffffffffffffffff811115611d1457600080fd5b611d2086828701611c3f565b9150509250925092565b60008060408385031215611d3d57600080fd5b611d4683611b5d565b9150602083013567ffffffffffffffff811115611d6257600080fd5b611d6e85828601611c3f565b9150509250929050565b60005b83811015611d93578181015183820152602001611d7b565b50506000910152565b60008151808452611db4816020860160208601611d78565b601f01601f19169290920160200192915050565b60208152600061041a6020830184611d9c565b60008060408385031215611dee57600080fd5b50508035926020909101359150565b6000602080830181845280855180835260408601915060408160051b870101925083870160005b82811015611e5257603f19888603018452611e40858351611d9c565b94509285019290850190600101611e24565b5092979650505050505050565b634e487b7160e01b600052601160045260246000fd5b8181038181111561057357610573611e5f565b634e487b7160e01b600052603260045260246000fd5b600060018201611eb057611eb0611e5f565b5060010190565b600181811c90821680611ecb57607f821691505b602082108103611eeb57634e487b7160e01b600052602260045260246000fd5b50919050565b601f821115611f3b57600081815260208120601f850160051c81016020861015611f185750805b601f850160051c820191505b81811015611f3757828155600101611f24565b5050505b505050565b815167ffffffffffffffff811115611f5a57611f5a611c29565b611f6e81611f688454611eb7565b84611ef1565b602080601f831160018114611fa35760008415611f8b5750858301515b600019600386901b1c1916600185901b178555611f37565b600085815260208120601f198616915b82811015611fd257888601518255948401946001909101908401611fb3565b5085821015611ff05787850151600019600388901b60f8161c191681555b5050505050600190811b01905550565b60008251612012818460208701611d78565b9190910192915050565b600080835461202a81611eb7565b60018281168015612042576001811461205757612086565b60ff1984168752821515830287019450612086565b8760005260208060002060005b8581101561207d5781548a820152908401908201612064565b50505082870194505b50929695505050505050565b81810361209d575050565b6120a78254611eb7565b67ffffffffffffffff8111156120bf576120bf611c29565b6120cd81611f688454611eb7565b6000601f82116001811461210157600083156120e95750848201545b600019600385901b1c1916600184901b178455612166565b600085815260209020601f19841690600086815260209020845b8381101561213b578286015482556001958601959091019060200161211b565b50858310156121595781850154600019600388901b60f8161c191681555b50505060018360011b0184555b5050505050565b634e487b7160e01b600052603160045260246000fdfea2646970667358221220fd3b59b03a55ff5fc631154bc8b520d832ae3e6284fc906861073f80e36544ee64736f6c63430008110033",
      "opcodes": "PUSH1 0x80 PUSH1 0x40 MSTORE PUSH1 0x0 DUP1 SSTORE PUSH1 0x0 PUSH1 0x1 SSTORE CALLVALUE DUP1 ISZERO PUSH2 0x19 JUMPI PUSH1 0x0 DUP1 REVERT JUMPDEST POP PUSH2 0x21B9 DUP1 PUSH2 0x29 PUSH1 0x0 CODECOPY PUSH1 0x0 RETURN INVALID PUSH1 0x80 PUSH1 0x40 MSTORE CALLVALUE DUP1 ISZERO PUSH2 0x10 JUMPI PUSH1 0x0 DUP1 REVERT JUMPDEST POP PUSH1 0x4 CALLDATASIZE LT PUSH2 0x16C JUMPI PUSH1 0x0 CALLDATALOAD PUSH1 0xE0 SHR DUP1 PUSH4 0x59633A1C GT PUSH2 0xCD JUMPI DUP1 PUSH4 0xCCB53A09 GT PUSH2 0x81 JUMPI DUP1 PUSH4 0xD51C3199 GT PUSH2 0x66 JUMPI DUP1 PUSH4 0xD51C3199 EQ PUSH2 0x2ED JUMPI DUP1 PUSH4 0xDF78BC54 EQ PUSH2 0x300 JUMPI DUP1 PUSH4 0xF892CB36 EQ PUSH2 0x320 JUMPI PUSH1 0x0 DUP1 REVERT JUMPDEST DUP1 PUSH4 0xCCB53A09 EQ PUSH2 0x2CC JUMPI DUP1 PUSH4 0xCD9C9362 EQ PUSH2 0x2E5 JUMPI PUSH1 0x0 DUP1 REVERT JUMPDEST DUP1 PUSH4 0x87CE1CA8 GT PUSH2 0xB2 JUMPI DUP1 PUSH4 0x87CE1CA8 EQ PUSH2 0x286 JUMPI DUP1 PUSH4 0x8D5492E4 EQ PUSH2 0x2A6 JUMPI DUP1 PUSH4 0xA98D22BC EQ PUSH2 0x2B9 JUMPI PUSH1 0x0 DUP1 REVERT JUMPDEST DUP1 PUSH4 0x59633A1C EQ PUSH2 0x260 JUMPI DUP1 PUSH4 0x87C63714 EQ PUSH2 0x273 JUMPI PUSH1 0x0 DUP1 REVERT JUMPDEST DUP1 PUSH4 0x38266B22 GT PUSH2 0x124 JUMPI DUP1 PUSH4 0x46437D3A GT PUSH2 0x109 JUMPI DUP1 PUSH4 0x46437D3A EQ PUSH2 0x21F JUMPI DUP1 PUSH4 0x5211287E EQ PUSH2 0x23A JUMPI DUP1 PUSH4 0x5926651D EQ PUSH2 0x24D JUMPI PUSH1 0x0 DUP1 REVERT JUMPDEST DUP1 PUSH4 0x38266B22 EQ PUSH2 0x1EA JUMPI DUP1 PUSH4 0x3DEA2F84 EQ PUSH2 0x20C JUMPI PUSH1 0x0 DUP1 REVERT JUMPDEST DUP1 PUSH4 0x7A8B767 GT PUSH2 0x155 JUMPI DUP1 PUSH4 0x7A8B767 EQ PUSH2 0x1BA JUMPI DUP1 PUSH4 0x96E27D9 EQ PUSH2 0x1CD JUMPI DUP1 PUSH4 0x196BA7EF EQ PUSH2 0x1E0 JUMPI PUSH1 0x0 DUP1 REVERT JUMPDEST DUP1 PUSH4 0x1E2B33F EQ PUSH2 0x171 JUMPI DUP1 PUSH4 0x72039A2 EQ PUSH2 0x197 JUMPI JUMPDEST PUSH1 0x0 DUP1 REVERT JUMPDEST PUSH2 0x184 PUSH2 0x17F CALLDATASIZE PUSH1 0x4 PUSH2 0x1B79 JUMP JUMPDEST PUSH2 0x333 JUMP JUMPDEST PUSH1 0x40 MLOAD SWAP1 DUP2 MSTORE PUSH1 0x20 ADD JUMPDEST PUSH1 0x40 MLOAD DUP1 SWAP2 SUB SWAP1 RETURN JUMPDEST PUSH2 0x1AA PUSH2 0x1A5 CALLDATASIZE PUSH1 0x4 PUSH2 0x1B79 JUMP JUMPDEST PUSH2 0x421 JUMP JUMPDEST PUSH1 0x40 MLOAD SWAP1 ISZERO ISZERO DUP2 MSTORE PUSH1 0x20 ADD PUSH2 0x18E JUMP JUMPDEST PUSH2 0x1AA PUSH2 0x1C8 CALLDATASIZE PUSH1 0x4 PUSH2 0x1B79 JUMP JUMPDEST PUSH2 0x4B5 JUMP JUMPDEST PUSH2 0x1AA PUSH2 0x1DB CALLDATASIZE PUSH1 0x4 PUSH2 0x1B94 JUMP JUMPDEST PUSH2 0x545 JUMP JUMPDEST PUSH2 0x1E8 PUSH2 0x579 JUMP JUMPDEST STOP JUMPDEST PUSH2 0x1FD PUSH2 0x1F8 CALLDATASIZE PUSH1 0x4 PUSH2 0x1B79 JUMP JUMPDEST PUSH2 0x619 JUMP JUMPDEST PUSH1 0x40 MLOAD PUSH2 0x18E SWAP4 SWAP3 SWAP2 SWAP1 PUSH2 0x1BC7 JUMP JUMPDEST PUSH2 0x1E8 PUSH2 0x21A CALLDATASIZE PUSH1 0x4 PUSH2 0x1CCC JUMP JUMPDEST PUSH2 0x843 JUMP JUMPDEST PUSH1 0x0 SLOAD PUSH1 0x1 SLOAD PUSH1 0x40 DUP1 MLOAD SWAP3 DUP4 MSTORE PUSH1 0x20 DUP4 ADD SWAP2 SWAP1 SWAP2 MSTORE ADD PUSH2 0x18E JUMP JUMPDEST PUSH2 0x1E8 PUSH2 0x248 CALLDATASIZE PUSH1 0x4 PUSH2 0x1D2A JUMP JUMPDEST PUSH2 0x920 JUMP JUMPDEST PUSH2 0x1E8 PUSH2 0x25B CALLDATASIZE PUSH1 0x4 PUSH2 0x1B79 JUMP JUMPDEST PUSH2 0xB90 JUMP JUMPDEST PUSH2 0x1E8 PUSH2 0x26E CALLDATASIZE PUSH1 0x4 PUSH2 0x1B79 JUMP JUMPDEST PUSH2 0xD74 JUMP JUMPDEST PUSH2 0x1E8 PUSH2 0x281 CALLDATASIZE PUSH1 0x4 PUSH2 0x1D2A JUMP JUMPDEST PUSH2 0xED2 JUMP JUMPDEST PUSH2 0x299 PUSH2 0x294 CALLDATASIZE PUSH1 0x4 PUSH2 0x1B94 JUMP JUMPDEST PUSH2 0x1176 JUMP JUMPDEST PUSH1 0x40 MLOAD PUSH2 0x18E SWAP2 SWAP1 PUSH2 0x1DC8 JUMP JUMPDEST PUSH2 0x1E8 PUSH2 0x2B4 CALLDATASIZE PUSH1 0x4 PUSH2 0x1B79 JUMP JUMPDEST PUSH2 0x1258 JUMP JUMPDEST PUSH2 0x1E8 PUSH2 0x2C7 CALLDATASIZE PUSH1 0x4 PUSH2 0x1B79 JUMP JUMPDEST PUSH2 0x1398 JUMP JUMPDEST PUSH2 0x1E8 PUSH2 0x2DA CALLDATASIZE PUSH1 0x4 PUSH2 0x1DDB JUMP JUMPDEST PUSH1 0x0 SWAP2 SWAP1 SWAP2 SSTORE PUSH1 0x1 SSTORE JUMP JUMPDEST PUSH2 0x1E8 PUSH2 0x1443 JUMP JUMPDEST PUSH2 0x1E8 PUSH2 0x2FB CALLDATASIZE PUSH1 0x4 PUSH2 0x1CCC JUMP JUMPDEST PUSH2 0x1651 JUMP JUMPDEST PUSH2 0x313 PUSH2 0x30E CALLDATASIZE PUSH1 0x4 PUSH2 0x1B94 JUMP JUMPDEST PUSH2 0x1721 JUMP JUMPDEST PUSH1 0x40 MLOAD PUSH2 0x18E SWAP2 SWAP1 PUSH2 0x1DFD JUMP JUMPDEST PUSH2 0x299 PUSH2 0x32E CALLDATASIZE PUSH1 0x4 PUSH2 0x1B94 JUMP JUMPDEST PUSH2 0x1912 JUMP JUMPDEST PUSH1 0x1 PUSH1 0x1 PUSH1 0xA0 SHL SUB DUP2 AND PUSH1 0x0 SWAP1 DUP2 MSTORE PUSH1 0x2 PUSH1 0x20 MSTORE PUSH1 0x40 DUP2 KECCAK256 PUSH1 0x3 ADD SLOAD DUP2 SWAP1 PUSH2 0x35B SWAP1 TIMESTAMP PUSH2 0x1E75 JUMP JUMPDEST PUSH1 0x1 PUSH1 0x1 PUSH1 0xA0 SHL SUB DUP5 AND PUSH1 0x0 DUP2 DUP2 MSTORE PUSH1 0x2 PUSH1 0x20 DUP2 DUP2 MSTORE PUSH1 0x40 SWAP3 DUP4 SWAP1 KECCAK256 SWAP2 DUP3 ADD SLOAD PUSH1 0x3 SWAP1 SWAP3 ADD SLOAD DUP4 MLOAD SWAP3 DUP4 MSTORE SWAP1 DUP3 ADD DUP6 SWAP1 MSTORE TIMESTAMP DUP3 DUP5 ADD MSTORE PUSH1 0x60 DUP3 ADD MSTORE SWAP1 MLOAD SWAP3 SWAP4 POP SWAP1 SWAP2 PUSH32 0x74A7C0C2E8065FCDBFCA5AE9F6CF0233E47E9E75B6FCF75674DD4B7E3F9B8183 SWAP2 DUP2 SWAP1 SUB PUSH1 0x80 ADD SWAP1 LOG2 PUSH1 0x1 PUSH1 0x1 PUSH1 0xA0 SHL SUB DUP4 AND PUSH1 0x0 SWAP1 DUP2 MSTORE PUSH1 0x2 PUSH1 0x20 DUP2 SWAP1 MSTORE PUSH1 0x40 SWAP1 SWAP2 KECCAK256 ADD SLOAD DUP2 GT PUSH2 0x417 JUMPI PUSH1 0x1 PUSH1 0x1 PUSH1 0xA0 SHL SUB DUP4 AND PUSH1 0x0 SWAP1 DUP2 MSTORE PUSH1 0x2 PUSH1 0x20 DUP2 SWAP1 MSTORE PUSH1 0x40 SWAP1 SWAP2 KECCAK256 ADD SLOAD PUSH2 0x412 SWAP1 DUP3 SWAP1 PUSH2 0x1E75 JUMP JUMPDEST PUSH2 0x41A JUMP JUMPDEST PUSH1 0x0 JUMPDEST SWAP4 SWAP3 POP POP POP JUMP JUMPDEST PUSH1 0x0 PUSH2 0x42C DUP3 PUSH2 0x4B5 JUMP JUMPDEST ISZERO PUSH2 0x48E JUMPI PUSH1 0x1 PUSH1 0x1 PUSH1 0xA0 SHL SUB DUP3 AND PUSH1 0x0 SWAP1 DUP2 MSTORE PUSH1 0x2 PUSH1 0x20 MSTORE PUSH1 0x40 SWAP1 KECCAK256 PUSH1 0x3 ADD SLOAD ISZERO PUSH2 0x48E JUMPI PUSH1 0x0 PUSH2 0x45D DUP4 PUSH2 0x333 JUMP JUMPDEST SWAP1 POP PUSH1 0x0 DUP2 GT PUSH2 0x48C JUMPI PUSH1 0x1 PUSH1 0x1 PUSH1 0xA0 SHL SUB DUP4 AND PUSH1 0x0 SWAP1 DUP2 MSTORE PUSH1 0x2 PUSH1 0x20 MSTORE PUSH1 0x40 SWAP1 KECCAK256 PUSH1 0x4 ADD DUP1 SLOAD PUSH2 0xFF00 NOT AND SWAP1 SSTORE JUMPDEST POP JUMPDEST POP PUSH1 0x1 PUSH1 0x1 PUSH1 0xA0 SHL SUB AND PUSH1 0x0 SWAP1 DUP2 MSTORE PUSH1 0x2 PUSH1 0x20 MSTORE PUSH1 0x40 SWAP1 KECCAK256 PUSH1 0x4 ADD SLOAD PUSH2 0x100 SWAP1 DIV PUSH1 0xFF AND SWAP1 JUMP JUMPDEST PUSH1 0x1 PUSH1 0x1 PUSH1 0xA0 SHL SUB DUP2 AND PUSH1 0x0 SWAP1 DUP2 MSTORE PUSH1 0x2 PUSH1 0x20 MSTORE PUSH1 0x40 DUP2 KECCAK256 SLOAD PUSH1 0xFF AND PUSH2 0x522 JUMPI PUSH1 0x40 MLOAD PUSH3 0x461BCD PUSH1 0xE5 SHL DUP2 MSTORE PUSH1 0x20 PUSH1 0x4 DUP3 ADD MSTORE PUSH1 0x19 PUSH1 0x24 DUP3 ADD MSTORE PUSH32 0x42656E65666163746F7220646F6573206E6F7420657869737400000000000000 PUSH1 0x44 DUP3 ADD MSTORE PUSH1 0x64 ADD JUMPDEST PUSH1 0x40 MLOAD DUP1 SWAP2 SUB SWAP1 REVERT JUMPDEST POP PUSH1 0x1 PUSH1 0x1 PUSH1 0xA0 SHL SUB AND PUSH1 0x0 SWAP1 DUP2 MSTORE PUSH1 0x2 PUSH1 0x20 MSTORE PUSH1 0x40 SWAP1 KECCAK256 PUSH1 0x4 ADD SLOAD PUSH1 0xFF AND ISZERO SWAP1 JUMP JUMPDEST PUSH1 0x1 PUSH1 0x1 PUSH1 0xA0 SHL SUB DUP1 DUP4 AND PUSH1 0x0 SWAP1 DUP2 MSTORE PUSH1 0x2 PUSH1 0x20 SWAP1 DUP2 MSTORE PUSH1 0x40 DUP1 DUP4 KECCAK256 SWAP4 DUP6 AND DUP4 MSTORE PUSH1 0x1 SWAP1 SWAP4 ADD SWAP1 MSTORE KECCAK256 SLOAD PUSH1 0xFF AND JUMPDEST SWAP3 SWAP2 POP POP JUMP JUMPDEST CALLER PUSH1 0x0 SWAP1 DUP2 MSTORE PUSH1 0x2 PUSH1 0x20 MSTORE PUSH1 0x40 SWAP1 KECCAK256 SLOAD PUSH1 0xFF AND ISZERO PUSH2 0x5D9 JUMPI PUSH1 0x40 MLOAD PUSH3 0x461BCD PUSH1 0xE5 SHL DUP2 MSTORE PUSH1 0x20 PUSH1 0x4 DUP3 ADD MSTORE PUSH1 0x19 PUSH1 0x24 DUP3 ADD MSTORE PUSH32 0x62656E65666163746F7220616C72656164792065786973747300000000000000 PUSH1 0x44 DUP3 ADD MSTORE PUSH1 0x64 ADD PUSH2 0x519 JUMP JUMPDEST CALLER PUSH1 0x0 SWAP1 DUP2 MSTORE PUSH1 0x2 PUSH1 0x20 DUP2 SWAP1 MSTORE PUSH1 0x40 DUP3 KECCAK256 DUP1 SLOAD PUSH1 0xFF NOT AND PUSH1 0x1 OR DUP2 SSTORE PUSH3 0x93A80 SWAP2 DUP2 ADD SWAP2 SWAP1 SWAP2 SSTORE PUSH1 0x4 DUP2 ADD DUP1 SLOAD PUSH2 0x101 PUSH2 0xFFFF NOT SWAP1 SWAP2 AND OR SWAP1 SSTORE PUSH1 0x3 ADD SSTORE JUMP JUMPDEST PUSH1 0x1 PUSH1 0x1 PUSH1 0xA0 SHL SUB DUP2 AND PUSH1 0x0 SWAP1 DUP2 MSTORE PUSH1 0x2 PUSH1 0x20 MSTORE PUSH1 0x40 DUP2 KECCAK256 SLOAD PUSH1 0x60 SWAP1 DUP3 SWAP1 PUSH1 0xFF AND PUSH2 0x686 JUMPI PUSH1 0x40 MLOAD PUSH3 0x461BCD PUSH1 0xE5 SHL DUP2 MSTORE PUSH1 0x20 PUSH1 0x4 DUP3 ADD MSTORE PUSH1 0x19 PUSH1 0x24 DUP3 ADD MSTORE PUSH32 0x42656E65666163746F7220646F6573206E6F7420657869737400000000000000 PUSH1 0x44 DUP3 ADD MSTORE PUSH1 0x64 ADD PUSH2 0x519 JUMP JUMPDEST PUSH1 0x1 PUSH1 0x1 PUSH1 0xA0 SHL SUB DUP5 AND PUSH1 0x0 SWAP1 DUP2 MSTORE PUSH1 0x2 PUSH1 0x20 SWAP1 DUP2 MSTORE PUSH1 0x40 DUP1 DUP4 KECCAK256 PUSH1 0x4 ADD SLOAD PUSH1 0x3 SWAP1 SWAP3 MSTORE SWAP1 SWAP2 KECCAK256 SLOAD PUSH1 0xFF SWAP1 SWAP2 AND ISZERO SWAP4 POP PUSH8 0xFFFFFFFFFFFFFFFF DUP2 GT ISZERO PUSH2 0x6CE JUMPI PUSH2 0x6CE PUSH2 0x1C29 JUMP JUMPDEST PUSH1 0x40 MLOAD SWAP1 DUP1 DUP3 MSTORE DUP1 PUSH1 0x20 MUL PUSH1 0x20 ADD DUP3 ADD PUSH1 0x40 MSTORE DUP1 ISZERO PUSH2 0x6F7 JUMPI DUP2 PUSH1 0x20 ADD PUSH1 0x20 DUP3 MUL DUP1 CALLDATASIZE DUP4 CALLDATACOPY ADD SWAP1 POP JUMPDEST POP SWAP2 POP PUSH1 0x0 DUP1 JUMPDEST DUP4 MLOAD DUP2 LT ISZERO PUSH2 0x801 JUMPI PUSH1 0x1 PUSH1 0x1 PUSH1 0xA0 SHL SUB DUP7 AND PUSH1 0x0 SWAP1 DUP2 MSTORE PUSH1 0x2 PUSH1 0x20 SWAP1 DUP2 MSTORE PUSH1 0x40 DUP1 DUP4 KECCAK256 PUSH1 0x3 SWAP1 SWAP3 MSTORE DUP3 KECCAK256 DUP1 SLOAD PUSH1 0x1 SWAP1 SWAP3 ADD SWAP3 SWAP2 DUP5 SWAP1 DUP2 LT PUSH2 0x742 JUMPI PUSH2 0x742 PUSH2 0x1E88 JUMP JUMPDEST PUSH1 0x0 SWAP2 DUP3 MSTORE PUSH1 0x20 DUP1 DUP4 KECCAK256 SWAP1 SWAP2 ADD SLOAD PUSH1 0x1 PUSH1 0x1 PUSH1 0xA0 SHL SUB AND DUP4 MSTORE DUP3 ADD SWAP3 SWAP1 SWAP3 MSTORE PUSH1 0x40 ADD SWAP1 KECCAK256 SLOAD PUSH1 0xFF AND ISZERO PUSH2 0x7EF JUMPI PUSH1 0x1 PUSH1 0x1 PUSH1 0xA0 SHL SUB DUP7 AND PUSH1 0x0 SWAP1 DUP2 MSTORE PUSH1 0x3 PUSH1 0x20 MSTORE PUSH1 0x40 SWAP1 KECCAK256 DUP1 SLOAD DUP3 SWAP1 DUP2 LT PUSH2 0x799 JUMPI PUSH2 0x799 PUSH2 0x1E88 JUMP JUMPDEST SWAP1 PUSH1 0x0 MSTORE PUSH1 0x20 PUSH1 0x0 KECCAK256 ADD PUSH1 0x0 SWAP1 SLOAD SWAP1 PUSH2 0x100 EXP SWAP1 DIV PUSH1 0x1 PUSH1 0x1 PUSH1 0xA0 SHL SUB AND DUP5 DUP4 DUP2 MLOAD DUP2 LT PUSH2 0x7C9 JUMPI PUSH2 0x7C9 PUSH2 0x1E88 JUMP JUMPDEST PUSH1 0x1 PUSH1 0x1 PUSH1 0xA0 SHL SUB SWAP1 SWAP3 AND PUSH1 0x20 SWAP3 DUP4 MUL SWAP2 SWAP1 SWAP2 ADD SWAP1 SWAP2 ADD MSTORE DUP2 PUSH2 0x7EB DUP2 PUSH2 0x1E9E JUMP JUMPDEST SWAP3 POP POP JUMPDEST DUP1 PUSH2 0x7F9 DUP2 PUSH2 0x1E9E JUMP JUMPDEST SWAP2 POP POP PUSH2 0x6FE JUMP JUMPDEST POP PUSH1 0x1 PUSH1 0x1 PUSH1 0xA0 SHL SUB DUP6 AND PUSH1 0x0 SWAP1 DUP2 MSTORE PUSH1 0x2 PUSH1 0x20 MSTORE PUSH1 0x40 SWAP1 KECCAK256 PUSH1 0x4 ADD SLOAD PUSH1 0xFF AND ISZERO PUSH2 0x82F JUMPI PUSH1 0x0 SWAP2 POP PUSH2 0x83B JUMP JUMPDEST PUSH2 0x838 DUP6 PUSH2 0x333 JUMP JUMPDEST SWAP2 POP JUMPDEST POP SWAP2 SWAP4 SWAP1 SWAP3 POP JUMP JUMPDEST PUSH2 0x84D DUP4 DUP4 PUSH2 0x545 JUMP JUMPDEST PUSH2 0x899 JUMPI PUSH1 0x40 MLOAD PUSH3 0x461BCD PUSH1 0xE5 SHL DUP2 MSTORE PUSH1 0x20 PUSH1 0x4 DUP3 ADD DUP2 SWAP1 MSTORE PUSH1 0x24 DUP3 ADD MSTORE PUSH32 0x42656E65666963696172792F42656E65666163746F72206E6F7420666F756E64 PUSH1 0x44 DUP3 ADD MSTORE PUSH1 0x64 ADD PUSH2 0x519 JUMP JUMPDEST PUSH1 0x1 PUSH1 0x1 PUSH1 0xA0 SHL SUB DUP1 DUP5 AND PUSH1 0x0 SWAP1 DUP2 MSTORE PUSH1 0x2 PUSH1 0x20 SWAP1 DUP2 MSTORE PUSH1 0x40 DUP1 DUP4 KECCAK256 SWAP4 DUP7 AND DUP4 MSTORE PUSH1 0x1 SWAP1 SWAP4 ADD SWAP1 MSTORE KECCAK256 PUSH1 0x3 ADD PUSH2 0x8CF DUP3 DUP3 PUSH2 0x1F40 JUMP JUMPDEST POP DUP2 PUSH1 0x1 PUSH1 0x1 PUSH1 0xA0 SHL SUB AND DUP4 PUSH1 0x1 PUSH1 0x1 PUSH1 0xA0 SHL SUB AND PUSH32 0x69CCEA10852AC51B01745414774B5AF302217E774786D2068296650B57BA03F2 DUP4 PUSH1 0x40 MLOAD PUSH2 0x913 SWAP2 SWAP1 PUSH2 0x1DC8 JUMP JUMPDEST PUSH1 0x40 MLOAD DUP1 SWAP2 SUB SWAP1 LOG3 POP POP POP JUMP JUMPDEST CALLER PUSH1 0x0 SWAP1 DUP2 MSTORE PUSH1 0x2 PUSH1 0x20 MSTORE PUSH1 0x40 SWAP1 KECCAK256 SLOAD PUSH1 0xFF AND DUP1 ISZERO PUSH2 0x956 JUMPI POP CALLER PUSH1 0x0 SWAP1 DUP2 MSTORE PUSH1 0x2 PUSH1 0x20 MSTORE PUSH1 0x40 SWAP1 KECCAK256 PUSH1 0x4 ADD SLOAD PUSH2 0x100 SWAP1 DIV PUSH1 0xFF AND JUMPDEST PUSH2 0x99B JUMPI PUSH1 0x40 MLOAD PUSH3 0x461BCD PUSH1 0xE5 SHL DUP2 MSTORE PUSH1 0x20 PUSH1 0x4 DUP3 ADD MSTORE PUSH1 0x16 PUSH1 0x24 DUP3 ADD MSTORE PUSH22 0x2737BA1030903B30B634B2103132B732B330B1BA37B9 PUSH1 0x51 SHL PUSH1 0x44 DUP3 ADD MSTORE PUSH1 0x64 ADD PUSH2 0x519 JUMP JUMPDEST PUSH2 0x9A5 CALLER DUP4 PUSH2 0x545 JUMP JUMPDEST PUSH2 0x9E9 JUMPI PUSH1 0x40 MLOAD PUSH3 0x461BCD PUSH1 0xE5 SHL DUP2 MSTORE PUSH1 0x20 PUSH1 0x4 DUP3 ADD MSTORE PUSH1 0x15 PUSH1 0x24 DUP3 ADD MSTORE PUSH21 0x10995B99599A58DA585C9E481B9BDD08199BDD5B99 PUSH1 0x5A SHL PUSH1 0x44 DUP3 ADD MSTORE PUSH1 0x64 ADD PUSH2 0x519 JUMP JUMPDEST CALLER PUSH1 0x0 SWAP1 DUP2 MSTORE PUSH1 0x2 PUSH1 0x20 SWAP1 DUP2 MSTORE PUSH1 0x40 DUP1 DUP4 KECCAK256 PUSH1 0x1 PUSH1 0x1 PUSH1 0xA0 SHL SUB DUP7 AND DUP5 MSTORE PUSH1 0x1 SWAP1 DUP2 ADD SWAP1 SWAP3 MSTORE DUP3 KECCAK256 ADD SWAP1 JUMPDEST DUP2 SLOAD DUP2 LT ISZERO PUSH2 0xB0B JUMPI DUP3 PUSH1 0x40 MLOAD PUSH1 0x20 ADD PUSH2 0xA2E SWAP2 SWAP1 PUSH2 0x2000 JUMP JUMPDEST PUSH1 0x40 MLOAD PUSH1 0x20 DUP2 DUP4 SUB SUB DUP2 MSTORE SWAP1 PUSH1 0x40 MSTORE DUP1 MLOAD SWAP1 PUSH1 0x20 ADD KECCAK256 DUP3 DUP3 DUP2 SLOAD DUP2 LT PUSH2 0xA56 JUMPI PUSH2 0xA56 PUSH2 0x1E88 JUMP JUMPDEST SWAP1 PUSH1 0x0 MSTORE PUSH1 0x20 PUSH1 0x0 KECCAK256 ADD PUSH1 0x40 MLOAD PUSH1 0x20 ADD PUSH2 0xA70 SWAP2 SWAP1 PUSH2 0x201C JUMP JUMPDEST PUSH1 0x40 MLOAD PUSH1 0x20 DUP2 DUP4 SUB SUB DUP2 MSTORE SWAP1 PUSH1 0x40 MSTORE DUP1 MLOAD SWAP1 PUSH1 0x20 ADD KECCAK256 SUB PUSH2 0xAF9 JUMPI PUSH1 0x40 MLOAD PUSH3 0x461BCD PUSH1 0xE5 SHL DUP2 MSTORE PUSH1 0x20 PUSH1 0x4 DUP3 ADD MSTORE PUSH1 0x28 PUSH1 0x24 DUP3 ADD MSTORE PUSH32 0x43494420616C72656164792061737369676E656420746F20746869732062656E PUSH1 0x44 DUP3 ADD MSTORE PUSH32 0x6566696369617279000000000000000000000000000000000000000000000000 PUSH1 0x64 DUP3 ADD MSTORE PUSH1 0x84 ADD PUSH2 0x519 JUMP JUMPDEST DUP1 PUSH2 0xB03 DUP2 PUSH2 0x1E9E JUMP JUMPDEST SWAP2 POP POP PUSH2 0xA14 JUMP JUMPDEST POP CALLER PUSH1 0x0 SWAP1 DUP2 MSTORE PUSH1 0x2 PUSH1 0x20 SWAP1 DUP2 MSTORE PUSH1 0x40 DUP1 DUP4 KECCAK256 PUSH1 0x1 PUSH1 0x1 PUSH1 0xA0 SHL SUB DUP8 AND DUP5 MSTORE PUSH1 0x1 SWAP1 DUP2 ADD DUP4 MSTORE SWAP1 DUP4 KECCAK256 DUP2 ADD DUP1 SLOAD SWAP2 DUP3 ADD DUP2 SSTORE DUP4 MSTORE SWAP2 KECCAK256 ADD PUSH2 0xB4C DUP4 DUP3 PUSH2 0x1F40 JUMP JUMPDEST POP DUP3 PUSH1 0x1 PUSH1 0x1 PUSH1 0xA0 SHL SUB AND CALLER PUSH1 0x1 PUSH1 0x1 PUSH1 0xA0 SHL SUB AND PUSH32 0xA1BB52B874769D5C17CDE30E708E8F7180BB949F70E77CAF0DA68D25F9A1A510 DUP5 PUSH1 0x40 MLOAD PUSH2 0x913 SWAP2 SWAP1 PUSH2 0x1DC8 JUMP JUMPDEST CALLER PUSH1 0x0 SWAP1 DUP2 MSTORE PUSH1 0x2 PUSH1 0x20 MSTORE PUSH1 0x40 SWAP1 KECCAK256 SLOAD PUSH1 0xFF AND DUP1 ISZERO PUSH2 0xBC6 JUMPI POP CALLER PUSH1 0x0 SWAP1 DUP2 MSTORE PUSH1 0x2 PUSH1 0x20 MSTORE PUSH1 0x40 SWAP1 KECCAK256 PUSH1 0x4 ADD SLOAD PUSH2 0x100 SWAP1 DIV PUSH1 0xFF AND JUMPDEST PUSH2 0xC0B JUMPI PUSH1 0x40 MLOAD PUSH3 0x461BCD PUSH1 0xE5 SHL DUP2 MSTORE PUSH1 0x20 PUSH1 0x4 DUP3 ADD MSTORE PUSH1 0x16 PUSH1 0x24 DUP3 ADD MSTORE PUSH22 0x2737BA1030903B30B634B2103132B732B330B1BA37B9 PUSH1 0x51 SHL PUSH1 0x44 DUP3 ADD MSTORE PUSH1 0x64 ADD PUSH2 0x519 JUMP JUMPDEST PUSH2 0xC15 CALLER DUP3 PUSH2 0x545 JUMP JUMPDEST ISZERO PUSH2 0xC62 JUMPI PUSH1 0x40 MLOAD PUSH3 0x461BCD PUSH1 0xE5 SHL DUP2 MSTORE PUSH1 0x20 PUSH1 0x4 DUP3 ADD MSTORE PUSH1 0x1A PUSH1 0x24 DUP3 ADD MSTORE PUSH32 0x42656E656669636961727920616C726561647920657869737473000000000000 PUSH1 0x44 DUP3 ADD MSTORE PUSH1 0x64 ADD PUSH2 0x519 JUMP JUMPDEST PUSH1 0x40 DUP1 MLOAD PUSH1 0x80 DUP2 ADD DUP3 MSTORE PUSH1 0x1 DUP2 MSTORE DUP2 MLOAD PUSH1 0x0 DUP1 DUP3 MSTORE PUSH1 0x20 DUP3 DUP2 ADD SWAP1 SWAP5 MSTORE SWAP2 SWAP3 DUP4 ADD SWAP2 PUSH2 0xC9E JUMP JUMPDEST PUSH1 0x60 DUP2 MSTORE PUSH1 0x20 ADD SWAP1 PUSH1 0x1 SWAP1 SUB SWAP1 DUP2 PUSH2 0xC89 JUMPI SWAP1 POP JUMPDEST POP DUP2 MSTORE PUSH1 0x40 DUP1 MLOAD PUSH1 0x20 DUP1 DUP3 ADD DUP4 MSTORE PUSH1 0x0 DUP1 DUP4 MSTORE DUP2 DUP6 ADD SWAP3 SWAP1 SWAP3 MSTORE DUP3 MLOAD DUP1 DUP3 ADD DUP5 MSTORE DUP3 DUP2 MSTORE SWAP4 DUP4 ADD SWAP4 SWAP1 SWAP4 MSTORE CALLER DUP2 MSTORE PUSH1 0x2 DUP4 MSTORE DUP2 DUP2 KECCAK256 PUSH1 0x1 PUSH1 0x1 PUSH1 0xA0 SHL SUB DUP7 AND DUP3 MSTORE PUSH1 0x1 SWAP1 DUP2 ADD DUP5 MSTORE SWAP2 SWAP1 KECCAK256 DUP4 MLOAD DUP2 SLOAD PUSH1 0xFF NOT AND SWAP1 ISZERO ISZERO OR DUP2 SSTORE DUP4 DUP4 ADD MLOAD DUP1 MLOAD SWAP2 SWAP4 PUSH2 0xD0E SWAP4 DUP6 ADD SWAP3 SWAP2 ADD SWAP1 PUSH2 0x1A7A JUMP JUMPDEST POP PUSH1 0x40 DUP3 ADD MLOAD PUSH1 0x2 DUP3 ADD SWAP1 PUSH2 0xD23 SWAP1 DUP3 PUSH2 0x1F40 JUMP JUMPDEST POP PUSH1 0x60 DUP3 ADD MLOAD PUSH1 0x3 DUP3 ADD SWAP1 PUSH2 0xD38 SWAP1 DUP3 PUSH2 0x1F40 JUMP JUMPDEST POP POP PUSH1 0x40 MLOAD PUSH1 0x1 PUSH1 0x1 PUSH1 0xA0 SHL SUB DUP4 AND SWAP2 POP CALLER SWAP1 PUSH32 0xBB39C36A7502B7256E1A687254146A9A2EA7B146C77CB9E40EB0E2B8793781E1 SWAP1 PUSH1 0x0 SWAP1 LOG3 POP JUMP JUMPDEST CALLER PUSH1 0x0 SWAP1 DUP2 MSTORE PUSH1 0x2 PUSH1 0x20 MSTORE PUSH1 0x40 SWAP1 KECCAK256 SLOAD PUSH1 0xFF AND DUP1 ISZERO PUSH2 0xDAA JUMPI POP CALLER PUSH1 0x0 SWAP1 DUP2 MSTORE PUSH1 0x2 PUSH1 0x20 MSTORE PUSH1 0x40 SWAP1 KECCAK256 PUSH1 0x4 ADD SLOAD PUSH2 0x100 SWAP1 DIV PUSH1 0xFF AND JUMPDEST PUSH2 0xDEF JUMPI PUSH1 0x40 MLOAD PUSH3 0x461BCD PUSH1 0xE5 SHL DUP2 MSTORE PUSH1 0x20 PUSH1 0x4 DUP3 ADD MSTORE PUSH1 0x16 PUSH1 0x24 DUP3 ADD MSTORE PUSH22 0x2737BA1030903B30B634B2103132B732B330B1BA37B9 PUSH1 0x51 SHL PUSH1 0x44 DUP3 ADD MSTORE PUSH1 0x64 ADD PUSH2 0x519 JUMP JUMPDEST PUSH2 0xDF9 CALLER DUP3 PUSH2 0x545 JUMP JUMPDEST PUSH2 0xE3D JUMPI PUSH1 0x40 MLOAD PUSH3 0x461BCD PUSH1 0xE5 SHL DUP2 MSTORE PUSH1 0x20 PUSH1 0x4 DUP3 ADD MSTORE PUSH1 0x15 PUSH1 0x24 DUP3 ADD MSTORE PUSH21 0x10995B99599A58DA585C9E481B9BDD08199BDD5B99 PUSH1 0x5A SHL PUSH1 0x44 DUP3 ADD MSTORE PUSH1 0x64 ADD PUSH2 0x519 JUMP JUMPDEST CALLER PUSH1 0x0 SWAP1 DUP2 MSTORE PUSH1 0x2 PUSH1 0x20 SWAP1 DUP2 MSTORE PUSH1 0x40 DUP1 DUP4 KECCAK256 PUSH1 0x1 PUSH1 0x1 PUSH1 0xA0 SHL SUB DUP6 AND DUP5 MSTORE PUSH1 0x1 SWAP1 DUP2 ADD SWAP1 SWAP3 MSTORE DUP3 KECCAK256 DUP1 SLOAD PUSH1 0xFF NOT AND DUP2 SSTORE SWAP2 SWAP1 PUSH2 0xE7B SWAP1 DUP4 ADD DUP3 PUSH2 0x1AD0 JUMP JUMPDEST PUSH2 0xE89 PUSH1 0x2 DUP4 ADD PUSH1 0x0 PUSH2 0x1AF1 JUMP JUMPDEST PUSH2 0xE97 PUSH1 0x3 DUP4 ADD PUSH1 0x0 PUSH2 0x1AF1 JUMP JUMPDEST POP POP PUSH1 0x40 MLOAD PUSH1 0x1 PUSH1 0x1 PUSH1 0xA0 SHL SUB DUP3 AND SWAP1 CALLER SWAP1 PUSH32 0x1A6590BD0CABBFCC7C86BEF99E1034054E179905CFCC294598FCD426C0922442 SWAP1 PUSH1 0x0 SWAP1 LOG3 POP JUMP JUMPDEST CALLER PUSH1 0x0 SWAP1 DUP2 MSTORE PUSH1 0x2 PUSH1 0x20 MSTORE PUSH1 0x40 SWAP1 KECCAK256 SLOAD PUSH1 0xFF AND DUP1 ISZERO PUSH2 0xF08 JUMPI POP CALLER PUSH1 0x0 SWAP1 DUP2 MSTORE PUSH1 0x2 PUSH1 0x20 MSTORE PUSH1 0x40 SWAP1 KECCAK256 PUSH1 0x4 ADD SLOAD PUSH2 0x100 SWAP1 DIV PUSH1 0xFF AND JUMPDEST PUSH2 0xF4D JUMPI PUSH1 0x40 MLOAD PUSH3 0x461BCD PUSH1 0xE5 SHL DUP2 MSTORE PUSH1 0x20 PUSH1 0x4 DUP3 ADD MSTORE PUSH1 0x16 PUSH1 0x24 DUP3 ADD MSTORE PUSH22 0x2737BA1030903B30B634B2103132B732B330B1BA37B9 PUSH1 0x51 SHL PUSH1 0x44 DUP3 ADD MSTORE PUSH1 0x64 ADD PUSH2 0x519 JUMP JUMPDEST PUSH2 0xF57 CALLER DUP4 PUSH2 0x545 JUMP JUMPDEST PUSH2 0xF9B JUMPI PUSH1 0x40 MLOAD PUSH3 0x461BCD PUSH1 0xE5 SHL DUP2 MSTORE PUSH1 0x20 PUSH1 0x4 DUP3 ADD MSTORE PUSH1 0x15 PUSH1 0x24 DUP3 ADD MSTORE PUSH21 0x10995B99599A58DA585C9E481B9BDD08199BDD5B99 PUSH1 0x5A SHL PUSH1 0x44 DUP3 ADD MSTORE PUSH1 0x64 ADD PUSH2 0x519 JUMP JUMPDEST CALLER PUSH1 0x0 SWAP1 DUP2 MSTORE PUSH1 0x2 PUSH1 0x20 SWAP1 DUP2 MSTORE PUSH1 0x40 DUP1 DUP4 KECCAK256 PUSH1 0x1 PUSH1 0x1 PUSH1 0xA0 SHL SUB DUP7 AND DUP5 MSTORE PUSH1 0x1 SWAP1 DUP2 ADD SWAP1 SWAP3 MSTORE DUP3 KECCAK256 ADD SWAP1 JUMPDEST DUP2 SLOAD DUP2 LT ISZERO PUSH2 0x1121 JUMPI DUP3 PUSH1 0x40 MLOAD PUSH1 0x20 ADD PUSH2 0xFE0 SWAP2 SWAP1 PUSH2 0x2000 JUMP JUMPDEST PUSH1 0x40 MLOAD PUSH1 0x20 DUP2 DUP4 SUB SUB DUP2 MSTORE SWAP1 PUSH1 0x40 MSTORE DUP1 MLOAD SWAP1 PUSH1 0x20 ADD KECCAK256 DUP3 DUP3 DUP2 SLOAD DUP2 LT PUSH2 0x1008 JUMPI PUSH2 0x1008 PUSH2 0x1E88 JUMP JUMPDEST SWAP1 PUSH1 0x0 MSTORE PUSH1 0x20 PUSH1 0x0 KECCAK256 ADD PUSH1 0x40 MLOAD PUSH1 0x20 ADD PUSH2 0x1022 SWAP2 SWAP1 PUSH2 0x201C JUMP JUMPDEST PUSH1 0x40 MLOAD PUSH1 0x20 DUP2 DUP4 SUB SUB DUP2 MSTORE SWAP1 PUSH1 0x40 MSTORE DUP1 MLOAD SWAP1 PUSH1 0x20 ADD KECCAK256 SUB PUSH2 0x110F JUMPI DUP2 SLOAD DUP3 SWAP1 PUSH2 0x104D SWAP1 PUSH1 0x1 SWAP1 PUSH2 0x1E75 JUMP JUMPDEST DUP2 SLOAD DUP2 LT PUSH2 0x105D JUMPI PUSH2 0x105D PUSH2 0x1E88 JUMP JUMPDEST SWAP1 PUSH1 0x0 MSTORE PUSH1 0x20 PUSH1 0x0 KECCAK256 ADD DUP3 DUP3 DUP2 SLOAD DUP2 LT PUSH2 0x1079 JUMPI PUSH2 0x1079 PUSH2 0x1E88 JUMP JUMPDEST SWAP1 PUSH1 0x0 MSTORE PUSH1 0x20 PUSH1 0x0 KECCAK256 ADD SWAP1 DUP2 PUSH2 0x108F SWAP2 SWAP1 PUSH2 0x2092 JUMP JUMPDEST POP DUP2 DUP1 SLOAD DUP1 PUSH2 0x10A0 JUMPI PUSH2 0x10A0 PUSH2 0x216D JUMP JUMPDEST PUSH1 0x1 SWAP1 SUB DUP2 DUP2 SWAP1 PUSH1 0x0 MSTORE PUSH1 0x20 PUSH1 0x0 KECCAK256 ADD PUSH1 0x0 PUSH2 0x10BC SWAP2 SWAP1 PUSH2 0x1AF1 JUMP JUMPDEST SWAP1 SSTORE DUP4 PUSH1 0x1 PUSH1 0x1 PUSH1 0xA0 SHL SUB AND CALLER PUSH1 0x1 PUSH1 0x1 PUSH1 0xA0 SHL SUB AND PUSH32 0x4C13211CE3B2D0CB3E02A662CC071D6BE555042CA58D4D812B7B90E80D3250AC DUP6 PUSH1 0x40 MLOAD PUSH2 0x1101 SWAP2 SWAP1 PUSH2 0x1DC8 JUMP JUMPDEST PUSH1 0x40 MLOAD DUP1 SWAP2 SUB SWAP1 LOG3 POP POP POP POP JUMP JUMPDEST DUP1 PUSH2 0x1119 DUP2 PUSH2 0x1E9E JUMP JUMPDEST SWAP2 POP POP PUSH2 0xFC6 JUMP JUMPDEST POP PUSH1 0x40 MLOAD PUSH3 0x461BCD PUSH1 0xE5 SHL DUP2 MSTORE PUSH1 0x20 PUSH1 0x4 DUP3 ADD MSTORE PUSH1 0x24 DUP1 DUP3 ADD MSTORE PUSH32 0x434944206E6F742061737369676E656420746F20746869732062656E65666963 PUSH1 0x44 DUP3 ADD MSTORE PUSH4 0x69617279 PUSH1 0xE0 SHL PUSH1 0x64 DUP3 ADD MSTORE PUSH1 0x84 ADD PUSH2 0x519 JUMP JUMPDEST PUSH1 0x60 PUSH2 0x1182 DUP4 DUP4 PUSH2 0x545 JUMP JUMPDEST ISZERO PUSH2 0x1243 JUMPI PUSH1 0x1 PUSH1 0x1 PUSH1 0xA0 SHL SUB DUP1 DUP5 AND PUSH1 0x0 SWAP1 DUP2 MSTORE PUSH1 0x2 PUSH1 0x20 DUP2 DUP2 MSTORE PUSH1 0x40 DUP1 DUP5 KECCAK256 SWAP5 DUP8 AND DUP5 MSTORE PUSH1 0x1 SWAP1 SWAP5 ADD SWAP1 MSTORE SWAP2 SWAP1 KECCAK256 ADD DUP1 SLOAD PUSH2 0x11BE SWAP1 PUSH2 0x1EB7 JUMP JUMPDEST DUP1 PUSH1 0x1F ADD PUSH1 0x20 DUP1 SWAP2 DIV MUL PUSH1 0x20 ADD PUSH1 0x40 MLOAD SWAP1 DUP2 ADD PUSH1 0x40 MSTORE DUP1 SWAP3 SWAP2 SWAP1 DUP2 DUP2 MSTORE PUSH1 0x20 ADD DUP3 DUP1 SLOAD PUSH2 0x11EA SWAP1 PUSH2 0x1EB7 JUMP JUMPDEST DUP1 ISZERO PUSH2 0x1237 JUMPI DUP1 PUSH1 0x1F LT PUSH2 0x120C JUMPI PUSH2 0x100 DUP1 DUP4 SLOAD DIV MUL DUP4 MSTORE SWAP2 PUSH1 0x20 ADD SWAP2 PUSH2 0x1237 JUMP JUMPDEST DUP3 ADD SWAP2 SWAP1 PUSH1 0x0 MSTORE PUSH1 0x20 PUSH1 0x0 KECCAK256 SWAP1 JUMPDEST DUP2 SLOAD DUP2 MSTORE SWAP1 PUSH1 0x1 ADD SWAP1 PUSH1 0x20 ADD DUP1 DUP4 GT PUSH2 0x121A JUMPI DUP3 SWAP1 SUB PUSH1 0x1F AND DUP3 ADD SWAP2 JUMPDEST POP POP POP POP POP SWAP1 POP PUSH2 0x573 JUMP JUMPDEST POP PUSH1 0x40 DUP1 MLOAD PUSH1 0x20 DUP2 ADD SWAP1 SWAP2 MSTORE PUSH1 0x0 DUP2 MSTORE PUSH2 0x573 JUMP JUMPDEST PUSH1 0x1 PUSH1 0x1 PUSH1 0xA0 SHL SUB DUP2 AND PUSH1 0x0 SWAP1 DUP2 MSTORE PUSH1 0x2 PUSH1 0x20 SWAP1 DUP2 MSTORE PUSH1 0x40 DUP1 DUP4 KECCAK256 CALLER DUP5 MSTORE PUSH1 0x1 ADD SWAP1 SWAP2 MSTORE SWAP1 KECCAK256 SLOAD PUSH1 0xFF AND PUSH2 0x12CE JUMPI PUSH1 0x40 MLOAD PUSH3 0x461BCD PUSH1 0xE5 SHL DUP2 MSTORE PUSH1 0x20 PUSH1 0x4 DUP3 ADD MSTORE PUSH1 0x17 PUSH1 0x24 DUP3 ADD MSTORE PUSH32 0x4E6F7420612076616C69642062656E6566696369617279000000000000000000 PUSH1 0x44 DUP3 ADD MSTORE PUSH1 0x64 ADD PUSH2 0x519 JUMP JUMPDEST PUSH1 0x1 PUSH1 0x1 PUSH1 0xA0 SHL SUB DUP2 AND PUSH1 0x0 SWAP1 DUP2 MSTORE PUSH1 0x2 PUSH1 0x20 MSTORE PUSH1 0x40 SWAP1 KECCAK256 PUSH1 0x4 ADD SLOAD PUSH1 0xFF AND PUSH2 0x132A JUMPI PUSH1 0x40 MLOAD CALLER SWAP1 PUSH1 0x1 PUSH1 0x1 PUSH1 0xA0 SHL SUB DUP4 AND SWAP1 PUSH32 0x67C4731BDC193862F421E091D18F46DF876BFE1B8B9AA97504F1D50D425B239D SWAP1 PUSH1 0x0 SWAP1 LOG3 POP JUMP JUMPDEST PUSH1 0x1 PUSH1 0x1 PUSH1 0xA0 SHL SUB DUP2 AND PUSH1 0x0 DUP2 DUP2 MSTORE PUSH1 0x2 PUSH1 0x20 DUP2 SWAP1 MSTORE PUSH1 0x40 SWAP2 DUP3 SWAP1 KECCAK256 PUSH1 0x4 DUP2 ADD DUP1 SLOAD PUSH1 0xFF NOT AND SWAP1 SSTORE TIMESTAMP PUSH1 0x3 DUP3 ADD SSTORE ADD SLOAD SWAP1 MLOAD CALLER SWAP3 SWAP2 PUSH32 0x82595752291D0261DFB9B4B0C2307021C29C34E22FE0697B4840B529DC351BC3 SWAP2 PUSH2 0x138D SWAP2 DUP2 MSTORE PUSH1 0x20 ADD SWAP1 JUMP JUMPDEST PUSH1 0x40 MLOAD DUP1 SWAP2 SUB SWAP1 LOG3 POP JUMP JUMPDEST CALLER PUSH1 0x0 SWAP1 DUP2 MSTORE PUSH1 0x2 PUSH1 0x20 MSTORE PUSH1 0x40 SWAP1 KECCAK256 SLOAD PUSH1 0xFF AND PUSH2 0x13F7 JUMPI PUSH1 0x40 MLOAD PUSH3 0x461BCD PUSH1 0xE5 SHL DUP2 MSTORE PUSH1 0x20 PUSH1 0x4 DUP3 ADD MSTORE PUSH1 0x19 PUSH1 0x24 DUP3 ADD MSTORE PUSH32 0x42656E65666163746F72206E6F74207265676973746572656400000000000000 PUSH1 0x44 DUP3 ADD MSTORE PUSH1 0x64 ADD PUSH2 0x519 JUMP JUMPDEST CALLER PUSH1 0x0 SWAP1 DUP2 MSTORE PUSH1 0x2 PUSH1 0x20 DUP2 SWAP1 MSTORE PUSH1 0x40 DUP1 DUP4 KECCAK256 DUP1 SLOAD PUSH1 0xFF NOT SWAP1 DUP2 AND SWAP1 SWAP2 SSTORE PUSH1 0x1 PUSH1 0x1 PUSH1 0xA0 SHL SUB SWAP5 SWAP1 SWAP5 AND DUP4 MSTORE DUP3 KECCAK256 DUP1 SLOAD SWAP1 SWAP4 AND DUP4 SSTORE DUP3 ADD DUP2 SWAP1 SSTORE PUSH1 0x3 DUP3 ADD SSTORE PUSH1 0x4 ADD DUP1 SLOAD PUSH2 0xFFFF NOT AND SWAP1 SSTORE JUMP JUMPDEST CALLER PUSH1 0x0 SWAP1 DUP2 MSTORE PUSH1 0x2 PUSH1 0x20 MSTORE PUSH1 0x40 SWAP1 KECCAK256 SLOAD PUSH1 0xFF AND DUP1 ISZERO PUSH2 0x1479 JUMPI POP CALLER PUSH1 0x0 SWAP1 DUP2 MSTORE PUSH1 0x2 PUSH1 0x20 MSTORE PUSH1 0x40 SWAP1 KECCAK256 PUSH1 0x4 ADD SLOAD PUSH2 0x100 SWAP1 DIV PUSH1 0xFF AND JUMPDEST PUSH2 0x14BE JUMPI PUSH1 0x40 MLOAD PUSH3 0x461BCD PUSH1 0xE5 SHL DUP2 MSTORE PUSH1 0x20 PUSH1 0x4 DUP3 ADD MSTORE PUSH1 0x16 PUSH1 0x24 DUP3 ADD MSTORE PUSH22 0x2737BA1030903B30B634B2103132B732B330B1BA37B9 PUSH1 0x51 SHL PUSH1 0x44 DUP3 ADD MSTORE PUSH1 0x64 ADD PUSH2 0x519 JUMP JUMPDEST CALLER PUSH1 0x0 SWAP1 DUP2 MSTORE PUSH1 0x2 PUSH1 0x20 MSTORE PUSH1 0x40 SWAP1 KECCAK256 PUSH1 0x3 ADD SLOAD ISZERO PUSH2 0x15E8 JUMPI PUSH2 0x14DF CALLER PUSH2 0x421 JUMP JUMPDEST ISZERO PUSH2 0x1575 JUMPI CALLER PUSH1 0x1 PUSH1 0x1 PUSH1 0xA0 SHL SUB AND PUSH32 0x793324A6F079E577F4A4646C7EC753EFD3BEDDC2F4CE07BFAE5F105C449AC356 PUSH1 0x40 MLOAD PUSH2 0x154D SWAP1 PUSH1 0x20 DUP1 DUP3 MSTORE PUSH1 0x13 SWAP1 DUP3 ADD MSTORE PUSH32 0x42656E65666163746F7220697320616C69766500000000000000000000000000 PUSH1 0x40 DUP3 ADD MSTORE PUSH1 0x60 ADD SWAP1 JUMP JUMPDEST PUSH1 0x40 MLOAD DUP1 SWAP2 SUB SWAP1 LOG2 PUSH2 0x155D PUSH2 0x195A JUMP JUMPDEST CALLER PUSH1 0x0 SWAP1 DUP2 MSTORE PUSH1 0x2 PUSH1 0x20 MSTORE PUSH1 0x40 SWAP1 KECCAK256 TIMESTAMP PUSH1 0x3 SWAP1 SWAP2 ADD SSTORE JUMP JUMPDEST CALLER PUSH1 0x1 PUSH1 0x1 PUSH1 0xA0 SHL SUB AND PUSH32 0x5A68FA7D6B655A3E592D5D99AC82863424750E9D262C902F30F9E56655E7A856 PUSH1 0x40 MLOAD PUSH2 0x15DE SWAP1 PUSH1 0x20 DUP1 DUP3 MSTORE PUSH1 0x12 SWAP1 DUP3 ADD MSTORE PUSH32 0x42656E65666163746F7220697320646561640000000000000000000000000000 PUSH1 0x40 DUP3 ADD MSTORE PUSH1 0x60 ADD SWAP1 JUMP JUMPDEST PUSH1 0x40 MLOAD DUP1 SWAP2 SUB SWAP1 LOG2 JUMP JUMPDEST CALLER PUSH1 0x1 PUSH1 0x1 PUSH1 0xA0 SHL SUB AND PUSH32 0x793324A6F079E577F4A4646C7EC753EFD3BEDDC2F4CE07BFAE5F105C449AC356 PUSH1 0x40 MLOAD PUSH2 0x154D SWAP1 PUSH1 0x20 DUP1 DUP3 MSTORE PUSH1 0x13 SWAP1 DUP3 ADD MSTORE PUSH32 0x42656E65666163746F7220697320616C69766500000000000000000000000000 PUSH1 0x40 DUP3 ADD MSTORE PUSH1 0x60 ADD SWAP1 JUMP JUMPDEST PUSH2 0x165B DUP4 DUP4 PUSH2 0x545 JUMP JUMPDEST PUSH2 0x16A7 JUMPI PUSH1 0x40 MLOAD PUSH3 0x461BCD PUSH1 0xE5 SHL DUP2 MSTORE PUSH1 0x20 PUSH1 0x4 DUP3 ADD DUP2 SWAP1 MSTORE PUSH1 0x24 DUP3 ADD MSTORE PUSH32 0x42656E65666963696172792F42656E65666163746F72206E6F7420666F756E64 PUSH1 0x44 DUP3 ADD MSTORE PUSH1 0x64 ADD PUSH2 0x519 JUMP JUMPDEST PUSH1 0x1 PUSH1 0x1 PUSH1 0xA0 SHL SUB DUP1 DUP5 AND PUSH1 0x0 SWAP1 DUP2 MSTORE PUSH1 0x2 PUSH1 0x20 DUP2 DUP2 MSTORE PUSH1 0x40 DUP1 DUP5 KECCAK256 SWAP5 DUP8 AND DUP5 MSTORE PUSH1 0x1 SWAP1 SWAP5 ADD SWAP1 MSTORE SWAP2 SWAP1 KECCAK256 ADD PUSH2 0x16DD DUP3 DUP3 PUSH2 0x1F40 JUMP JUMPDEST POP DUP2 PUSH1 0x1 PUSH1 0x1 PUSH1 0xA0 SHL SUB AND DUP4 PUSH1 0x1 PUSH1 0x1 PUSH1 0xA0 SHL SUB AND PUSH32 0x812E93BAD7E76E8B51ECDB31C9C69773DBA6B47C2AE9FC763877665448B150D9 DUP4 PUSH1 0x40 MLOAD PUSH2 0x913 SWAP2 SWAP1 PUSH2 0x1DC8 JUMP JUMPDEST PUSH1 0x60 PUSH2 0x172D DUP4 DUP4 PUSH2 0x545 JUMP JUMPDEST PUSH2 0x1771 JUMPI PUSH1 0x40 MLOAD PUSH3 0x461BCD PUSH1 0xE5 SHL DUP2 MSTORE PUSH1 0x20 PUSH1 0x4 DUP3 ADD MSTORE PUSH1 0x15 PUSH1 0x24 DUP3 ADD MSTORE PUSH21 0x10995B99599A58DA585C9E481B9BDD08199BDD5B99 PUSH1 0x5A SHL PUSH1 0x44 DUP3 ADD MSTORE PUSH1 0x64 ADD PUSH2 0x519 JUMP JUMPDEST PUSH1 0x1 PUSH1 0x1 PUSH1 0xA0 SHL SUB DUP4 AND PUSH1 0x0 SWAP1 DUP2 MSTORE PUSH1 0x2 PUSH1 0x20 SWAP1 DUP2 MSTORE PUSH1 0x40 DUP1 DUP4 KECCAK256 CALLER DUP5 MSTORE PUSH1 0x1 ADD SWAP1 SWAP2 MSTORE SWAP1 KECCAK256 SLOAD PUSH1 0xFF AND DUP1 ISZERO PUSH2 0x17C8 JUMPI POP PUSH1 0x1 PUSH1 0x1 PUSH1 0xA0 SHL SUB DUP4 AND PUSH1 0x0 SWAP1 DUP2 MSTORE PUSH1 0x2 PUSH1 0x20 MSTORE PUSH1 0x40 SWAP1 KECCAK256 PUSH1 0x4 ADD SLOAD PUSH2 0x100 SWAP1 DIV PUSH1 0xFF AND ISZERO JUMPDEST PUSH2 0x1814 JUMPI PUSH1 0x40 MLOAD PUSH3 0x461BCD PUSH1 0xE5 SHL DUP2 MSTORE PUSH1 0x20 PUSH1 0x4 DUP3 ADD MSTORE PUSH1 0x11 PUSH1 0x24 DUP3 ADD MSTORE PUSH32 0x4E6F2061636365737320746F2043494473000000000000000000000000000000 PUSH1 0x44 DUP3 ADD MSTORE PUSH1 0x64 ADD PUSH2 0x519 JUMP JUMPDEST PUSH1 0x1 PUSH1 0x1 PUSH1 0xA0 SHL SUB DUP1 DUP5 AND PUSH1 0x0 SWAP1 DUP2 MSTORE PUSH1 0x2 PUSH1 0x20 SWAP1 DUP2 MSTORE PUSH1 0x40 DUP1 DUP4 KECCAK256 SWAP4 DUP7 AND DUP4 MSTORE PUSH1 0x1 SWAP4 DUP5 ADD DUP3 MSTORE DUP1 DUP4 KECCAK256 SWAP1 SWAP4 ADD DUP1 SLOAD DUP5 MLOAD DUP2 DUP5 MUL DUP2 ADD DUP5 ADD SWAP1 SWAP6 MSTORE DUP1 DUP6 MSTORE SWAP1 SWAP3 SWAP1 SWAP2 DUP5 ADD JUMPDEST DUP3 DUP3 LT ISZERO PUSH2 0x1906 JUMPI DUP4 DUP3 SWAP1 PUSH1 0x0 MSTORE PUSH1 0x20 PUSH1 0x0 KECCAK256 ADD DUP1 SLOAD PUSH2 0x1879 SWAP1 PUSH2 0x1EB7 JUMP JUMPDEST DUP1 PUSH1 0x1F ADD PUSH1 0x20 DUP1 SWAP2 DIV MUL PUSH1 0x20 ADD PUSH1 0x40 MLOAD SWAP1 DUP2 ADD PUSH1 0x40 MSTORE DUP1 SWAP3 SWAP2 SWAP1 DUP2 DUP2 MSTORE PUSH1 0x20 ADD DUP3 DUP1 SLOAD PUSH2 0x18A5 SWAP1 PUSH2 0x1EB7 JUMP JUMPDEST DUP1 ISZERO PUSH2 0x18F2 JUMPI DUP1 PUSH1 0x1F LT PUSH2 0x18C7 JUMPI PUSH2 0x100 DUP1 DUP4 SLOAD DIV MUL DUP4 MSTORE SWAP2 PUSH1 0x20 ADD SWAP2 PUSH2 0x18F2 JUMP JUMPDEST DUP3 ADD SWAP2 SWAP1 PUSH1 0x0 MSTORE PUSH1 0x20 PUSH1 0x0 KECCAK256 SWAP1 JUMPDEST DUP2 SLOAD DUP2 MSTORE SWAP1 PUSH1 0x1 ADD SWAP1 PUSH1 0x20 ADD DUP1 DUP4 GT PUSH2 0x18D5 JUMPI DUP3 SWAP1 SUB PUSH1 0x1F AND DUP3 ADD SWAP2 JUMPDEST POP POP POP POP POP DUP2 MSTORE PUSH1 0x20 ADD SWAP1 PUSH1 0x1 ADD SWAP1 PUSH2 0x185A JUMP JUMPDEST POP POP POP POP SWAP1 POP SWAP3 SWAP2 POP POP JUMP JUMPDEST PUSH1 0x60 PUSH2 0x191E DUP4 DUP4 PUSH2 0x545 JUMP JUMPDEST ISZERO PUSH2 0x1243 JUMPI PUSH1 0x1 PUSH1 0x1 PUSH1 0xA0 SHL SUB DUP1 DUP5 AND PUSH1 0x0 SWAP1 DUP2 MSTORE PUSH1 0x2 PUSH1 0x20 SWAP1 DUP2 MSTORE PUSH1 0x40 DUP1 DUP4 KECCAK256 SWAP4 DUP7 AND DUP4 MSTORE PUSH1 0x1 SWAP1 SWAP4 ADD SWAP1 MSTORE KECCAK256 PUSH1 0x3 ADD DUP1 SLOAD PUSH2 0x11BE SWAP1 PUSH2 0x1EB7 JUMP JUMPDEST CALLER PUSH1 0x0 SWAP1 DUP2 MSTORE PUSH1 0x2 PUSH1 0x20 MSTORE PUSH1 0x40 SWAP1 KECCAK256 SLOAD PUSH1 0xFF AND DUP1 ISZERO PUSH2 0x1990 JUMPI POP CALLER PUSH1 0x0 SWAP1 DUP2 MSTORE PUSH1 0x2 PUSH1 0x20 MSTORE PUSH1 0x40 SWAP1 KECCAK256 PUSH1 0x4 ADD SLOAD PUSH2 0x100 SWAP1 DIV PUSH1 0xFF AND JUMPDEST PUSH2 0x19D5 JUMPI PUSH1 0x40 MLOAD PUSH3 0x461BCD PUSH1 0xE5 SHL DUP2 MSTORE PUSH1 0x20 PUSH1 0x4 DUP3 ADD MSTORE PUSH1 0x16 PUSH1 0x24 DUP3 ADD MSTORE PUSH22 0x2737BA1030903B30B634B2103132B732B330B1BA37B9 PUSH1 0x51 SHL PUSH1 0x44 DUP3 ADD MSTORE PUSH1 0x64 ADD PUSH2 0x519 JUMP JUMPDEST CALLER PUSH1 0x0 SWAP1 DUP2 MSTORE PUSH1 0x2 PUSH1 0x20 MSTORE PUSH1 0x40 SWAP1 KECCAK256 PUSH1 0x4 ADD SLOAD PUSH1 0xFF AND ISZERO PUSH2 0x1A1F JUMPI PUSH1 0x40 MLOAD CALLER SWAP1 DUP2 SWAP1 PUSH32 0x439C5AAF7691CB4808DBD2A240323CE9EC0D04D66DDF65FFD5F88EBD60FA745B SWAP1 PUSH1 0x0 SWAP1 LOG3 JUMP JUMPDEST CALLER PUSH1 0x0 DUP2 DUP2 MSTORE PUSH1 0x2 PUSH1 0x20 MSTORE PUSH1 0x40 SWAP1 DUP2 SWAP1 KECCAK256 PUSH1 0x4 ADD DUP1 SLOAD PUSH1 0xFF NOT AND PUSH1 0x1 OR SWAP1 SSTORE MLOAD DUP2 SWAP1 PUSH32 0x9BAA855D20DE9B1A4DB454F55B09D1DB5F42F0871BBEA3B0C699146ADE171625 SWAP1 PUSH2 0x1A70 SWAP1 TIMESTAMP DUP2 MSTORE PUSH1 0x20 ADD SWAP1 JUMP JUMPDEST PUSH1 0x40 MLOAD DUP1 SWAP2 SUB SWAP1 LOG3 JUMP JUMPDEST DUP3 DUP1 SLOAD DUP3 DUP3 SSTORE SWAP1 PUSH1 0x0 MSTORE PUSH1 0x20 PUSH1 0x0 KECCAK256 SWAP1 DUP2 ADD SWAP3 DUP3 ISZERO PUSH2 0x1AC0 JUMPI SWAP2 PUSH1 0x20 MUL DUP3 ADD JUMPDEST DUP3 DUP2 GT ISZERO PUSH2 0x1AC0 JUMPI DUP3 MLOAD DUP3 SWAP1 PUSH2 0x1AB0 SWAP1 DUP3 PUSH2 0x1F40 JUMP JUMPDEST POP SWAP2 PUSH1 0x20 ADD SWAP2 SWAP1 PUSH1 0x1 ADD SWAP1 PUSH2 0x1A9A JUMP JUMPDEST POP PUSH2 0x1ACC SWAP3 SWAP2 POP PUSH2 0x1B2B JUMP JUMPDEST POP SWAP1 JUMP JUMPDEST POP DUP1 SLOAD PUSH1 0x0 DUP3 SSTORE SWAP1 PUSH1 0x0 MSTORE PUSH1 0x20 PUSH1 0x0 KECCAK256 SWAP1 DUP2 ADD SWAP1 PUSH2 0x1AEE SWAP2 SWAP1 PUSH2 0x1B2B JUMP JUMPDEST POP JUMP JUMPDEST POP DUP1 SLOAD PUSH2 0x1AFD SWAP1 PUSH2 0x1EB7 JUMP JUMPDEST PUSH1 0x0 DUP3 SSTORE DUP1 PUSH1 0x1F LT PUSH2 0x1B0D JUMPI POP POP JUMP JUMPDEST PUSH1 0x1F ADD PUSH1 0x20 SWAP1 DIV SWAP1 PUSH1 0x0 MSTORE PUSH1 0x20 PUSH1 0x0 KECCAK256 SWAP1 DUP2 ADD SWAP1 PUSH2 0x1AEE SWAP2 SWAP1 PUSH2 0x1B48 JUMP JUMPDEST DUP1 DUP3 GT ISZERO PUSH2 0x1ACC JUMPI PUSH1 0x0 PUSH2 0x1B3F DUP3 DUP3 PUSH2 0x1AF1 JUMP JUMPDEST POP PUSH1 0x1 ADD PUSH2 0x1B2B JUMP JUMPDEST JUMPDEST DUP1 DUP3 GT ISZERO PUSH2 0x1ACC JUMPI PUSH1 0x0 DUP2 SSTORE PUSH1 0x1 ADD PUSH2 0x1B49 JUMP JUMPDEST DUP1 CALLDATALOAD PUSH1 0x1 PUSH1 0x1 PUSH1 0xA0 SHL SUB DUP2 AND DUP2 EQ PUSH2 0x1B74 JUMPI PUSH1 0x0 DUP1 REVERT JUMPDEST SWAP2 SWAP1 POP JUMP JUMPDEST PUSH1 0x0 PUSH1 0x20 DUP3 DUP5 SUB SLT ISZERO PUSH2 0x1B8B JUMPI PUSH1 0x0 DUP1 REVERT JUMPDEST PUSH2 0x41A DUP3 PUSH2 0x1B5D JUMP JUMPDEST PUSH1 0x0 DUP1 PUSH1 0x40 DUP4 DUP6 SUB SLT ISZERO PUSH2 0x1BA7 JUMPI PUSH1 0x0 DUP1 REVERT JUMPDEST PUSH2 0x1BB0 DUP4 PUSH2 0x1B5D JUMP JUMPDEST SWAP2 POP PUSH2 0x1BBE PUSH1 0x20 DUP5 ADD PUSH2 0x1B5D JUMP JUMPDEST SWAP1 POP SWAP3 POP SWAP3 SWAP1 POP JUMP JUMPDEST PUSH1 0x0 PUSH1 0x60 DUP3 ADD DUP6 ISZERO ISZERO DUP4 MSTORE PUSH1 0x20 PUSH1 0x60 DUP2 DUP6 ADD MSTORE DUP2 DUP7 MLOAD DUP1 DUP5 MSTORE PUSH1 0x80 DUP7 ADD SWAP2 POP DUP3 DUP9 ADD SWAP4 POP PUSH1 0x0 JUMPDEST DUP2 DUP2 LT ISZERO PUSH2 0x1C13 JUMPI DUP5 MLOAD PUSH1 0x1 PUSH1 0x1 PUSH1 0xA0 SHL SUB AND DUP4 MSTORE SWAP4 DUP4 ADD SWAP4 SWAP2 DUP4 ADD SWAP2 PUSH1 0x1 ADD PUSH2 0x1BEE JUMP JUMPDEST POP POP DUP1 SWAP4 POP POP POP POP DUP3 PUSH1 0x40 DUP4 ADD MSTORE SWAP5 SWAP4 POP POP POP POP JUMP JUMPDEST PUSH4 0x4E487B71 PUSH1 0xE0 SHL PUSH1 0x0 MSTORE PUSH1 0x41 PUSH1 0x4 MSTORE PUSH1 0x24 PUSH1 0x0 REVERT JUMPDEST PUSH1 0x0 DUP3 PUSH1 0x1F DUP4 ADD SLT PUSH2 0x1C50 JUMPI PUSH1 0x0 DUP1 REVERT JUMPDEST DUP2 CALLDATALOAD PUSH8 0xFFFFFFFFFFFFFFFF DUP1 DUP3 GT ISZERO PUSH2 0x1C6B JUMPI PUSH2 0x1C6B PUSH2 0x1C29 JUMP JUMPDEST PUSH1 0x40 MLOAD PUSH1 0x1F DUP4 ADD PUSH1 0x1F NOT SWAP1 DUP2 AND PUSH1 0x3F ADD AND DUP2 ADD SWAP1 DUP3 DUP3 GT DUP2 DUP4 LT OR ISZERO PUSH2 0x1C93 JUMPI PUSH2 0x1C93 PUSH2 0x1C29 JUMP JUMPDEST DUP2 PUSH1 0x40 MSTORE DUP4 DUP2 MSTORE DUP7 PUSH1 0x20 DUP6 DUP9 ADD ADD GT ISZERO PUSH2 0x1CAC JUMPI PUSH1 0x0 DUP1 REVERT JUMPDEST DUP4 PUSH1 0x20 DUP8 ADD PUSH1 0x20 DUP4 ADD CALLDATACOPY PUSH1 0x0 PUSH1 0x20 DUP6 DUP4 ADD ADD MSTORE DUP1 SWAP5 POP POP POP POP POP SWAP3 SWAP2 POP POP JUMP JUMPDEST PUSH1 0x0 DUP1 PUSH1 0x0 PUSH1 0x60 DUP5 DUP7 SUB SLT ISZERO PUSH2 0x1CE1 JUMPI PUSH1 0x0 DUP1 REVERT JUMPDEST PUSH2 0x1CEA DUP5 PUSH2 0x1B5D JUMP JUMPDEST SWAP3 POP PUSH2 0x1CF8 PUSH1 0x20 DUP6 ADD PUSH2 0x1B5D JUMP JUMPDEST SWAP2 POP PUSH1 0x40 DUP5 ADD CALLDATALOAD PUSH8 0xFFFFFFFFFFFFFFFF DUP2 GT ISZERO PUSH2 0x1D14 JUMPI PUSH1 0x0 DUP1 REVERT JUMPDEST PUSH2 0x1D20 DUP7 DUP3 DUP8 ADD PUSH2 0x1C3F JUMP JUMPDEST SWAP2 POP POP SWAP3 POP SWAP3 POP SWAP3 JUMP JUMPDEST PUSH1 0x0 DUP1 PUSH1 0x40 DUP4 DUP6 SUB SLT ISZERO PUSH2 0x1D3D JUMPI PUSH1 0x0 DUP1 REVERT JUMPDEST PUSH2 0x1D46 DUP4 PUSH2 0x1B5D JUMP JUMPDEST SWAP2 POP PUSH1 0x20 DUP4 ADD CALLDATALOAD PUSH8 0xFFFFFFFFFFFFFFFF DUP2 GT ISZERO PUSH2 0x1D62 JUMPI PUSH1 0x0 DUP1 REVERT JUMPDEST PUSH2 0x1D6E DUP6 DUP3 DUP7 ADD PUSH2 0x1C3F JUMP JUMPDEST SWAP2 POP POP SWAP3 POP SWAP3 SWAP1 POP JUMP JUMPDEST PUSH1 0x0 JUMPDEST DUP4 DUP2 LT ISZERO PUSH2 0x1D93 JUMPI DUP2 DUP2 ADD MLOAD DUP4 DUP3 ADD MSTORE PUSH1 0x20 ADD PUSH2 0x1D7B JUMP JUMPDEST POP POP PUSH1 0x0 SWAP2 ADD MSTORE JUMP JUMPDEST PUSH1 0x0 DUP2 MLOAD DUP1 DUP5 MSTORE PUSH2 0x1DB4 DUP2 PUSH1 0x20 DUP7 ADD PUSH1 0x20 DUP7 ADD PUSH2 0x1D78 JUMP JUMPDEST PUSH1 0x1F ADD PUSH1 0x1F NOT AND SWAP3 SWAP1 SWAP3 ADD PUSH1 0x20 ADD SWAP3 SWAP2 POP POP JUMP JUMPDEST PUSH1 0x20 DUP2 MSTORE PUSH1 0x0 PUSH2 0x41A PUSH1 0x20 DUP4 ADD DUP5 PUSH2 0x1D9C JUMP JUMPDEST PUSH1 0x0 DUP1 PUSH1 0x40 DUP4 DUP6 SUB SLT ISZERO PUSH2 0x1DEE JUMPI PUSH1 0x0 DUP1 REVERT JUMPDEST POP POP DUP1 CALLDATALOAD SWAP3 PUSH1 0x20 SWAP1 SWAP2 ADD CALLDATALOAD SWAP2 POP JUMP JUMPDEST PUSH1 0x0 PUSH1 0x20 DUP1 DUP4 ADD DUP2 DUP5 MSTORE DUP1 DUP6 MLOAD DUP1 DUP4 MSTORE PUSH1 0x40 DUP7 ADD SWAP2 POP PUSH1 0x40 DUP2 PUSH1 0x5 SHL DUP8 ADD ADD SWAP3 POP DUP4 DUP8 ADD PUSH1 0x0 JUMPDEST DUP3 DUP2 LT ISZERO PUSH2 0x1E52 JUMPI PUSH1 0x3F NOT DUP9 DUP7 SUB ADD DUP5 MSTORE PUSH2 0x1E40 DUP6 DUP4 MLOAD PUSH2 0x1D9C JUMP JUMPDEST SWAP5 POP SWAP3 DUP6 ADD SWAP3 SWAP1 DUP6 ADD SWAP1 PUSH1 0x1 ADD PUSH2 0x1E24 JUMP JUMPDEST POP SWAP3 SWAP8 SWAP7 POP POP POP POP POP POP POP JUMP JUMPDEST PUSH4 0x4E487B71 PUSH1 0xE0 SHL PUSH1 0x0 MSTORE PUSH1 0x11 PUSH1 0x4 MSTORE PUSH1 0x24 PUSH1 0x0 REVERT JUMPDEST DUP2 DUP2 SUB DUP2 DUP2 GT ISZERO PUSH2 0x573 JUMPI PUSH2 0x573 PUSH2 0x1E5F JUMP JUMPDEST PUSH4 0x4E487B71 PUSH1 0xE0 SHL PUSH1 0x0 MSTORE PUSH1 0x32 PUSH1 0x4 MSTORE PUSH1 0x24 PUSH1 0x0 REVERT JUMPDEST PUSH1 0x0 PUSH1 0x1 DUP3 ADD PUSH2 0x1EB0 JUMPI PUSH2 0x1EB0 PUSH2 0x1E5F JUMP JUMPDEST POP PUSH1 0x1 ADD SWAP1 JUMP JUMPDEST PUSH1 0x1 DUP2 DUP2 SHR SWAP1 DUP3 AND DUP1 PUSH2 0x1ECB JUMPI PUSH1 0x7F DUP3 AND SWAP2 POP JUMPDEST PUSH1 0x20 DUP3 LT DUP2 SUB PUSH2 0x1EEB JUMPI PUSH4 0x4E487B71 PUSH1 0xE0 SHL PUSH1 0x0 MSTORE PUSH1 0x22 PUSH1 0x4 MSTORE PUSH1 0x24 PUSH1 0x0 REVERT JUMPDEST POP SWAP2 SWAP1 POP JUMP JUMPDEST PUSH1 0x1F DUP3 GT ISZERO PUSH2 0x1F3B JUMPI PUSH1 0x0 DUP2 DUP2 MSTORE PUSH1 0x20 DUP2 KECCAK256 PUSH1 0x1F DUP6 ADD PUSH1 0x5 SHR DUP2 ADD PUSH1 0x20 DUP7 LT ISZERO PUSH2 0x1F18 JUMPI POP DUP1 JUMPDEST PUSH1 0x1F DUP6 ADD PUSH1 0x5 SHR DUP3 ADD SWAP2 POP JUMPDEST DUP2 DUP2 LT ISZERO PUSH2 0x1F37 JUMPI DUP3 DUP2 SSTORE PUSH1 0x1 ADD PUSH2 0x1F24 JUMP JUMPDEST POP POP POP JUMPDEST POP POP POP JUMP JUMPDEST DUP2 MLOAD PUSH8 0xFFFFFFFFFFFFFFFF DUP2 GT ISZERO PUSH2 0x1F5A JUMPI PUSH2 0x1F5A PUSH2 0x1C29 JUMP JUMPDEST PUSH2 0x1F6E DUP2 PUSH2 0x1F68 DUP5 SLOAD PUSH2 0x1EB7 JUMP JUMPDEST DUP5 PUSH2 0x1EF1 JUMP JUMPDEST PUSH1 0x20 DUP1 PUSH1 0x1F DUP4 GT PUSH1 0x1 DUP2 EQ PUSH2 0x1FA3 JUMPI PUSH1 0x0 DUP5 ISZERO PUSH2 0x1F8B JUMPI POP DUP6 DUP4 ADD MLOAD JUMPDEST PUSH1 0x0 NOT PUSH1 0x3 DUP7 SWAP1 SHL SHR NOT AND PUSH1 0x1 DUP6 SWAP1 SHL OR DUP6 SSTORE PUSH2 0x1F37 JUMP JUMPDEST PUSH1 0x0 DUP6 DUP2 MSTORE PUSH1 0x20 DUP2 KECCAK256 PUSH1 0x1F NOT DUP7 AND SWAP2 JUMPDEST DUP3 DUP2 LT ISZERO PUSH2 0x1FD2 JUMPI DUP9 DUP7 ADD MLOAD DUP3 SSTORE SWAP5 DUP5 ADD SWAP5 PUSH1 0x1 SWAP1 SWAP2 ADD SWAP1 DUP5 ADD PUSH2 0x1FB3 JUMP JUMPDEST POP DUP6 DUP3 LT ISZERO PUSH2 0x1FF0 JUMPI DUP8 DUP6 ADD MLOAD PUSH1 0x0 NOT PUSH1 0x3 DUP9 SWAP1 SHL PUSH1 0xF8 AND SHR NOT AND DUP2 SSTORE JUMPDEST POP POP POP POP POP PUSH1 0x1 SWAP1 DUP2 SHL ADD SWAP1 SSTORE POP JUMP JUMPDEST PUSH1 0x0 DUP3 MLOAD PUSH2 0x2012 DUP2 DUP5 PUSH1 0x20 DUP8 ADD PUSH2 0x1D78 JUMP JUMPDEST SWAP2 SWAP1 SWAP2 ADD SWAP3 SWAP2 POP POP JUMP JUMPDEST PUSH1 0x0 DUP1 DUP4 SLOAD PUSH2 0x202A DUP2 PUSH2 0x1EB7 JUMP JUMPDEST PUSH1 0x1 DUP3 DUP2 AND DUP1 ISZERO PUSH2 0x2042 JUMPI PUSH1 0x1 DUP2 EQ PUSH2 0x2057 JUMPI PUSH2 0x2086 JUMP JUMPDEST PUSH1 0xFF NOT DUP5 AND DUP8 MSTORE DUP3 ISZERO ISZERO DUP4 MUL DUP8 ADD SWAP5 POP PUSH2 0x2086 JUMP JUMPDEST DUP8 PUSH1 0x0 MSTORE PUSH1 0x20 DUP1 PUSH1 0x0 KECCAK256 PUSH1 0x0 JUMPDEST DUP6 DUP2 LT ISZERO PUSH2 0x207D JUMPI DUP2 SLOAD DUP11 DUP3 ADD MSTORE SWAP1 DUP5 ADD SWAP1 DUP3 ADD PUSH2 0x2064 JUMP JUMPDEST POP POP POP DUP3 DUP8 ADD SWAP5 POP JUMPDEST POP SWAP3 SWAP7 SWAP6 POP POP POP POP POP POP JUMP JUMPDEST DUP2 DUP2 SUB PUSH2 0x209D JUMPI POP POP JUMP JUMPDEST PUSH2 0x20A7 DUP3 SLOAD PUSH2 0x1EB7 JUMP JUMPDEST PUSH8 0xFFFFFFFFFFFFFFFF DUP2 GT ISZERO PUSH2 0x20BF JUMPI PUSH2 0x20BF PUSH2 0x1C29 JUMP JUMPDEST PUSH2 0x20CD DUP2 PUSH2 0x1F68 DUP5 SLOAD PUSH2 0x1EB7 JUMP JUMPDEST PUSH1 0x0 PUSH1 0x1F DUP3 GT PUSH1 0x1 DUP2 EQ PUSH2 0x2101 JUMPI PUSH1 0x0 DUP4 ISZERO PUSH2 0x20E9 JUMPI POP DUP5 DUP3 ADD SLOAD JUMPDEST PUSH1 0x0 NOT PUSH1 0x3 DUP6 SWAP1 SHL SHR NOT AND PUSH1 0x1 DUP5 SWAP1 SHL OR DUP5 SSTORE PUSH2 0x2166 JUMP JUMPDEST PUSH1 0x0 DUP6 DUP2 MSTORE PUSH1 0x20 SWAP1 KECCAK256 PUSH1 0x1F NOT DUP5 AND SWAP1 PUSH1 0x0 DUP7 DUP2 MSTORE PUSH1 0x20 SWAP1 KECCAK256 DUP5 JUMPDEST DUP4 DUP2 LT ISZERO PUSH2 0x213B JUMPI DUP3 DUP7 ADD SLOAD DUP3 SSTORE PUSH1 0x1 SWAP6 DUP7 ADD SWAP6 SWAP1 SWAP2 ADD SWAP1 PUSH1 0x20 ADD PUSH2 0x211B JUMP JUMPDEST POP DUP6 DUP4 LT ISZERO PUSH2 0x2159 JUMPI DUP2 DUP6 ADD SLOAD PUSH1 0x0 NOT PUSH1 0x3 DUP9 SWAP1 SHL PUSH1 0xF8 AND SHR NOT AND DUP2 SSTORE JUMPDEST POP POP POP PUSH1 0x1 DUP4 PUSH1 0x1 SHL ADD DUP5 SSTORE JUMPDEST POP POP POP POP POP JUMP JUMPDEST PUSH4 0x4E487B71 PUSH1 0xE0 SHL PUSH1 0x0 MSTORE PUSH1 0x31 PUSH1 0x4 MSTORE PUSH1 0x24 PUSH1 0x0 REVERT INVALID LOG2 PUSH5 0x6970667358 0x22 SLT KECCAK256 REVERT EXTCODESIZE MSIZE 0xB0 GASPRICE SSTORE SELFDESTRUCT 0x5F 0xC6 BALANCE ISZERO 0x4B 0xC8 0xB5 KECCAK256 0xD8 ORIGIN 0xAE RETURNDATACOPY PUSH3 0x84FC90 PUSH9 0x61073F80E36544EE64 PUSH20 0x6F6C634300081100330000000000000000000000 "
    },
    "gasEstimates": {
      "creation": {
        "codeDepositCost": "1726600",
        "executionCost": "11825",
        "totalCost": "1738425"
      },
      "external": {
        "addBenefactorPublicKey(address,address,string)": "infinite",
        "addBeneficiary(address)": "infinite",
        "addBeneficiaryPublicKey(address,address,string)": "infinite",
        "addIpfsCID(address,string)": "infinite",
        "checkAliveStatus(address)": "infinite",
        "enableSwitch(address)": "55244",
        "getBenefactorPublicKey(address,address)": "infinite",
        "getBeneficiaryPublicKey(address,address)": "infinite",
        "getCIDs(address,address)": "infinite",
        "getData(address)": "infinite",
        "getPrimeAndGenerator()": "4452",
        "getRemainingCountdownTime(address)": "infinite",
        "getSwitchStatus(address)": "4828",
        "isBeneficiary(address,address)": "infinite",
        "removeBenefactor(address)": "85421",
        "removeBeneficiary(address)": "infinite",
        "removeIpfsCID(address,string)": "infinite",
        "respondToSwitch()": "infinite",
        "setBenefactor()": "78089",
        "setPrimeAndGenerator(uint256,uint256)": "44492"
      },
      "internal": {
        "disableSwitch()": "infinite",
        "getBeneficiariesCount(address)": "infinite"
      }
    },
    "methodIdentifiers": {
      "addBenefactorPublicKey(address,address,string)": "d51c3199",
      "addBeneficiary(address)": "5926651d",
      "addBeneficiaryPublicKey(address,address,string)": "3dea2f84",
      "addIpfsCID(address,string)": "5211287e",
      "checkAliveStatus(address)": "072039a2",
      "enableSwitch(address)": "8d5492e4",
      "getBenefactorPublicKey(address,address)": "87ce1ca8",
      "getBeneficiaryPublicKey(address,address)": "f892cb36",
      "getCIDs(address,address)": "df78bc54",
      "getData(address)": "38266b22",
      "getPrimeAndGenerator()": "46437d3a",
      "getRemainingCountdownTime(address)": "01e2b33f",
      "getSwitchStatus(address)": "07a8b767",
      "isBeneficiary(address,address)": "096e27d9",
      "removeBenefactor(address)": "a98d22bc",
      "removeBeneficiary(address)": "59633a1c",
      "removeIpfsCID(address,string)": "87c63714",
      "respondToSwitch()": "cd9c9362",
      "setBenefactor()": "196ba7ef",
      "setPrimeAndGenerator(uint256,uint256)": "ccb53a09"
    }
  },
  "storageLayout": {
    "storage": [
      {
        "astId": 319,
        "contract": "DeadMansSwitch.sol:BenefactorsDeadManSwitch",
        "label": "prime",
        "offset": 0,
        "slot": "0",
        "type": "t_uint256"
      },
      {
        "astId": 322,
        "contract": "DeadMansSwitch.sol:BenefactorsDeadManSwitch",
        "label": "generator",
        "offset": 0,
        "slot": "1",
        "type": "t_uint256"
      },
      {
        "astId": 327,
        "contract": "DeadMansSwitch.sol:BenefactorsDeadManSwitch",
        "label": "benefactors",
        "offset": 0,
        "slot": "2",
        "type": "t_mapping(t_address,t_struct(BenefactorInfo)316_storage)"
      },
      {
        "astId": 332,
        "contract": "DeadMansSwitch.sol:BenefactorsDeadManSwitch",
        "label": "beneficiaryKeys",
        "offset": 0,
        "slot": "3",
        "type": "t_mapping(t_address,t_array(t_address)dyn_storage)"
      }
    ],
    "types": {
      "t_address": {
        "encoding": "inplace",
        "label": "address",
        "numberOfBytes": "20"
      },
      "t_array(t_address)dyn_storage": {
        "base": "t_address",
        "encoding": "dynamic_array",
        "label": "address[]",
        "numberOfBytes": "32"
      },
      "t_array(t_string_storage)dyn_storage": {
        "base": "t_string_storage",
        "encoding": "dynamic_array",
        "label": "string[]",
        "numberOfBytes": "32"
      },
      "t_bool": {
        "encoding": "inplace",
        "label": "bool",
        "numberOfBytes": "1"
      },
      "t_mapping(t_address,t_array(t_address)dyn_storage)": {
        "encoding": "mapping",
        "key": "t_address",
        "label": "mapping(address => address[])",
        "numberOfBytes": "32",
        "value": "t_array(t_address)dyn_storage"
      },
      "t_mapping(t_address,t_struct(BenefactorInfo)316_storage)": {
        "encoding": "mapping",
        "key": "t_address",
        "label": "mapping(address => struct BenefactorsDeadManSwitch.BenefactorInfo)",
        "numberOfBytes": "32",
        "value": "t_struct(BenefactorInfo)316_storage"
      },
      "t_mapping(t_address,t_struct(Beneficiary)300_storage)": {
        "encoding": "mapping",
        "key": "t_address",
        "label": "mapping(address => struct BenefactorsDeadManSwitch.Beneficiary)",
        "numberOfBytes": "32",
        "value": "t_struct(Beneficiary)300_storage"
      },
      "t_string_storage": {
        "encoding": "bytes",
        "label": "string",
        "numberOfBytes": "32"
      },
      "t_struct(BenefactorInfo)316_storage": {
        "encoding": "inplace",
        "label": "struct BenefactorsDeadManSwitch.BenefactorInfo",
        "members": [
          {
            "astId": 302,
            "contract": "DeadMansSwitch.sol:BenefactorsDeadManSwitch",
            "label": "exists",
            "offset": 0,
            "slot": "0",
            "type": "t_bool"
          },
          {
            "astId": 307,
            "contract": "DeadMansSwitch.sol:BenefactorsDeadManSwitch",
            "label": "beneficiaries",
            "offset": 0,
            "slot": "1",
            "type": "t_mapping(t_address,t_struct(Beneficiary)300_storage)"
          },
          {
            "astId": 309,
            "contract": "DeadMansSwitch.sol:BenefactorsDeadManSwitch",
            "label": "countdownDuration",
            "offset": 0,
            "slot": "2",
            "type": "t_uint256"
          },
          {
            "astId": 311,
            "contract": "DeadMansSwitch.sol:BenefactorsDeadManSwitch",
            "label": "lastBenefactorResponseTime",
            "offset": 0,
            "slot": "3",
            "type": "t_uint256"
          },
          {
            "astId": 313,
            "contract": "DeadMansSwitch.sol:BenefactorsDeadManSwitch",
            "label": "isSwitchedOff",
            "offset": 0,
            "slot": "4",
            "type": "t_bool"
          },
          {
            "astId": 315,
            "contract": "DeadMansSwitch.sol:BenefactorsDeadManSwitch",
            "label": "isAlive",
            "offset": 1,
            "slot": "4",
            "type": "t_bool"
          }
        ],
        "numberOfBytes": "160"
      },
      "t_struct(Beneficiary)300_storage": {
        "encoding": "inplace",
        "label": "struct BenefactorsDeadManSwitch.Beneficiary",
        "members": [
          {
            "astId": 292,
            "contract": "DeadMansSwitch.sol:BenefactorsDeadManSwitch",
            "label": "exists",
            "offset": 0,
            "slot": "0",
            "type": "t_bool"
          },
          {
            "astId": 295,
            "contract": "DeadMansSwitch.sol:BenefactorsDeadManSwitch",
            "label": "ipfsCIDs",
            "offset": 0,
            "slot": "1",
            "type": "t_array(t_string_storage)dyn_storage"
          },
          {
            "astId": 297,
            "contract": "DeadMansSwitch.sol:BenefactorsDeadManSwitch",
            "label": "benefactorPublicKey",
            "offset": 0,
            "slot": "2",
            "type": "t_string_storage"
          },
          {
            "astId": 299,
            "contract": "DeadMansSwitch.sol:BenefactorsDeadManSwitch",
            "label": "beneficiaryPublicKey",
            "offset": 0,
            "slot": "3",
            "type": "t_string_storage"
          }
        ],
        "numberOfBytes": "128"
      },
      "t_uint256": {
        "encoding": "inplace",
        "label": "uint256",
        "numberOfBytes": "32"
      }
    }
  },
  "userdoc": {
    "kind": "user",
    "methods": {},
    "version": 1
  }
}