{
  "abi": [
    {
      "inputs": [],
      "stateMutability": "nonpayable",
      "type": "constructor"
    },
    {
      "anonymous": false,
      "inputs": [
        {
          "indexed": true,
          "internalType": "address",
          "name": "benefactor",
          "type": "address"
        },
        {
          "indexed": false,
          "internalType": "string",
          "name": "aliveStatus",
          "type": "string"
        }
      ],
      "name": "BenefactorIsAlive",
      "type": "event"
    },
    {
      "anonymous": false,
      "inputs": [
        {
          "indexed": true,
          "internalType": "address",
          "name": "benefactor",
          "type": "address"
        },
        {
          "indexed": false,
          "internalType": "string",
          "name": "deadStatus",
          "type": "string"
        }
      ],
      "name": "BenefactorIsDead",
      "type": "event"
    },
    {
      "anonymous": false,
      "inputs": [
        {
          "indexed": true,
          "internalType": "address",
          "name": "benefactor",
          "type": "address"
        },
        {
          "indexed": true,
          "internalType": "address",
          "name": "beneficiary",
          "type": "address"
        },
        {
          "indexed": false,
          "internalType": "string",
          "name": "key",
          "type": "string"
        }
      ],
      "name": "BenefactorKeyAdded",
      "type": "event"
    },
    {
      "anonymous": false,
      "inputs": [
        {
          "indexed": false,
          "internalType": "bool",
          "name": "switchStatus",
          "type": "bool"
        },
        {
          "indexed": false,
          "internalType": "address[]",
          "name": "beneficiaries",
          "type": "address[]"
        },
        {
          "indexed": false,
          "internalType": "uint256",
          "name": "remainingTime",
          "type": "uint256"
        }
      ],
      "name": "BeneficiariesData",
      "type": "event"
    },
    {
      "anonymous": false,
      "inputs": [
        {
          "indexed": true,
          "internalType": "address",
          "name": "benefactor",
          "type": "address"
        },
        {
          "indexed": true,
          "internalType": "address",
          "name": "beneficiary",
          "type": "address"
        }
      ],
      "name": "BeneficiaryAdded",
      "type": "event"
    },
    {
      "anonymous": false,
      "inputs": [
        {
          "indexed": true,
          "internalType": "address",
          "name": "benefactor",
          "type": "address"
        },
        {
          "indexed": true,
          "internalType": "address",
          "name": "beneficiary",
          "type": "address"
        },
        {
          "indexed": false,
          "internalType": "string",
          "name": "key",
          "type": "string"
        }
      ],
      "name": "BeneficiaryKeyAdded",
      "type": "event"
    },
    {
      "anonymous": false,
      "inputs": [
        {
          "indexed": true,
          "internalType": "address",
          "name": "benefactor",
          "type": "address"
        },
        {
          "indexed": true,
          "internalType": "address",
          "name": "beneficiary",
          "type": "address"
        }
      ],
      "name": "BeneficiaryRemoved",
      "type": "event"
    },
    {
      "anonymous": false,
      "inputs": [
        {
          "indexed": true,
          "internalType": "address",
          "name": "benefactor",
          "type": "address"
        },
        {
          "indexed": true,
          "internalType": "address",
          "name": "caller",
          "type": "address"
        },
        {
          "indexed": false,
          "internalType": "uint256",
          "name": "responseTime",
          "type": "uint256"
        }
      ],
      "name": "DeadMansSwitchDisabled",
      "type": "event"
    },
    {
      "anonymous": false,
      "inputs": [
        {
          "indexed": true,
          "internalType": "address",
          "name": "benefactor",
          "type": "address"
        },
        {
          "indexed": true,
          "internalType": "address",
          "name": "beneficiary",
          "type": "address"
        },
        {
          "indexed": false,
          "internalType": "uint256",
          "name": "countdownDuration",
          "type": "uint256"
        }
      ],
      "name": "DeadMansSwitchEnabled",
      "type": "event"
    },
    {
      "anonymous": false,
      "inputs": [
        {
          "indexed": true,
          "internalType": "address",
          "name": "benefactor",
          "type": "address"
        },
        {
          "indexed": true,
          "internalType": "address",
          "name": "beneficiary",
          "type": "address"
        },
        {
          "indexed": false,
          "internalType": "string",
          "name": "ipfsCID",
          "type": "string"
        }
      ],
      "name": "IpfsCIDAdded",
      "type": "event"
    },
    {
      "anonymous": false,
      "inputs": [
        {
          "indexed": true,
          "internalType": "address",
          "name": "benefactor",
          "type": "address"
        },
        {
          "indexed": true,
          "internalType": "address",
          "name": "beneficiary",
          "type": "address"
        },
        {
          "indexed": false,
          "internalType": "string",
          "name": "ipfsCID",
          "type": "string"
        }
      ],
      "name": "IpfsCIDRemoved",
      "type": "event"
    },
    {
      "anonymous": false,
      "inputs": [
        {
          "indexed": true,
          "internalType": "address",
          "name": "benefactor",
          "type": "address"
        },
        {
          "indexed": false,
          "internalType": "uint256",
          "name": "countdownDuration",
          "type": "uint256"
        },
        {
          "indexed": false,
          "internalType": "uint256",
          "name": "responseTime",
          "type": "uint256"
        },
        {
          "indexed": false,
          "internalType": "uint256",
          "name": "currentTime",
          "type": "uint256"
        },
        {
          "indexed": false,
          "internalType": "uint256",
          "name": "lastBenefactorResponseTime",
          "type": "uint256"
        }
      ],
      "name": "RemainingCountdownInfo",
      "type": "event"
    },
    {
      "anonymous": false,
      "inputs": [
        {
          "indexed": true,
          "internalType": "address",
          "name": "benefactor",
          "type": "address"
        },
        {
          "indexed": true,
          "internalType": "address",
          "name": "caller",
          "type": "address"
        }
      ],
      "name": "SwitchAlreadyOff",
      "type": "event"
    },
    {
      "anonymous": false,
      "inputs": [
        {
          "indexed": true,
          "internalType": "address",
          "name": "benefactor",
          "type": "address"
        },
        {
          "indexed": true,
          "internalType": "address",
          "name": "caller",
          "type": "address"
        }
      ],
      "name": "SwitchAlreadyOn",
      "type": "event"
    },
    {
      "inputs": [
        {
          "internalType": "address",
          "name": "_benefactor",
          "type": "address"
        },
        {
          "internalType": "address",
          "name": "_beneficiary",
          "type": "address"
        },
        {
          "internalType": "string",
          "name": "_key",
          "type": "string"
        }
      ],
      "name": "addBenefactorPublicKey",
      "outputs": [],
      "stateMutability": "nonpayable",
      "type": "function"
    },
    {
      "inputs": [
        {
          "internalType": "address",
          "name": "_beneficiary",
          "type": "address"
        }
      ],
      "name": "addBeneficiary",
      "outputs": [],
      "stateMutability": "nonpayable",
      "type": "function"
    },
    {
      "inputs": [
        {
          "internalType": "address",
          "name": "_benefactor",
          "type": "address"
        },
        {
          "internalType": "address",
          "name": "_beneficiary",
          "type": "address"
        },
        {
          "internalType": "string",
          "name": "_key",
          "type": "string"
        }
      ],
      "name": "addBeneficiaryPublicKey",
      "outputs": [],
      "stateMutability": "nonpayable",
      "type": "function"
    },
    {
      "inputs": [
        {
          "internalType": "address",
          "name": "_beneficiary",
          "type": "address"
        },
        {
          "internalType": "string",
          "name": "_ipfsCID",
          "type": "string"
        }
      ],
      "name": "addIpfsCID",
      "outputs": [],
      "stateMutability": "nonpayable",
      "type": "function"
    },
    {
      "inputs": [
        {
          "internalType": "address",
          "name": "_benefactor",
          "type": "address"
        }
      ],
      "name": "checkAliveStatus",
      "outputs": [
        {
          "internalType": "bool",
          "name": "",
          "type": "bool"
        }
      ],
      "stateMutability": "nonpayable",
      "type": "function"
    },
    {
      "inputs": [
        {
          "internalType": "address",
          "name": "_benefactor",
          "type": "address"
        }
      ],
      "name": "enableSwitch",
      "outputs": [],
      "stateMutability": "nonpayable",
      "type": "function"
    },
    {
      "inputs": [
        {
          "internalType": "address",
          "name": "_benefactor",
          "type": "address"
        },
        {
          "internalType": "address",
          "name": "_beneficiary",
          "type": "address"
        }
      ],
      "name": "getBenefactorPublicKey",
      "outputs": [
        {
          "internalType": "string",
          "name": "",
          "type": "string"
        }
      ],
      "stateMutability": "view",
      "type": "function"
    },
    {
      "inputs": [
        {
          "internalType": "address",
          "name": "_benefactor",
          "type": "address"
        },
        {
          "internalType": "address",
          "name": "_beneficiary",
          "type": "address"
        }
      ],
      "name": "getBeneficiaryPublicKey",
      "outputs": [
        {
          "internalType": "string",
          "name": "",
          "type": "string"
        }
      ],
      "stateMutability": "view",
      "type": "function"
    },
    {
      "inputs": [
        {
          "internalType": "address",
          "name": "_benefactor",
          "type": "address"
        },
        {
          "internalType": "address",
          "name": "_beneficiary",
          "type": "address"
        }
      ],
      "name": "getCIDs",
      "outputs": [
        {
          "internalType": "string[]",
          "name": "",
          "type": "string[]"
        }
      ],
      "stateMutability": "view",
      "type": "function"
    },
    {
      "inputs": [
        {
          "internalType": "address",
          "name": "_benefactor",
          "type": "address"
        }
      ],
      "name": "getData",
      "outputs": [
        {
          "internalType": "bool",
          "name": "switchStatus",
          "type": "bool"
        },
        {
          "internalType": "address[]",
          "name": "beneficiaries",
          "type": "address[]"
        },
        {
          "internalType": "uint256",
          "name": "remainingTime",
          "type": "uint256"
        }
      ],
      "stateMutability": "nonpayable",
      "type": "function"
    },
    {
      "inputs": [
        {
          "internalType": "address",
          "name": "_benefactor",
          "type": "address"
        }
      ],
      "name": "getRemainingCountdownTime",
      "outputs": [
        {
          "internalType": "uint256",
          "name": "",
          "type": "uint256"
        }
      ],
      "stateMutability": "nonpayable",
      "type": "function"
    },
    {
      "inputs": [
        {
          "internalType": "address",
          "name": "_benefactor",
          "type": "address"
        }
      ],
      "name": "getSwitchStatus",
      "outputs": [
        {
          "internalType": "bool",
          "name": "",
          "type": "bool"
        }
      ],
      "stateMutability": "view",
      "type": "function"
    },
    {
      "inputs": [
        {
          "internalType": "address",
          "name": "_benefactor",
          "type": "address"
        },
        {
          "internalType": "address",
          "name": "_address",
          "type": "address"
        }
      ],
      "name": "isBeneficiary",
      "outputs": [
        {
          "internalType": "bool",
          "name": "",
          "type": "bool"
        }
      ],
      "stateMutability": "view",
      "type": "function"
    },
    {
      "inputs": [
        {
          "internalType": "address",
          "name": "_benefactor",
          "type": "address"
        }
      ],
      "name": "removeBenefactor",
      "outputs": [],
      "stateMutability": "nonpayable",
      "type": "function"
    },
    {
      "inputs": [
        {
          "internalType": "address",
          "name": "_beneficiary",
          "type": "address"
        }
      ],
      "name": "removeBeneficiary",
      "outputs": [],
      "stateMutability": "nonpayable",
      "type": "function"
    },
    {
      "inputs": [
        {
          "internalType": "address",
          "name": "_beneficiary",
          "type": "address"
        },
        {
          "internalType": "string",
          "name": "_ipfsCID",
          "type": "string"
        }
      ],
      "name": "removeIpfsCID",
      "outputs": [],
      "stateMutability": "nonpayable",
      "type": "function"
    },
    {
      "inputs": [],
      "name": "respondToSwitch",
      "outputs": [],
      "stateMutability": "nonpayable",
      "type": "function"
    },
    {
      "inputs": [],
      "name": "setBenefactor",
      "outputs": [],
      "stateMutability": "nonpayable",
      "type": "function"
    }
  ],
  "devdoc": {
    "details": "Smart contract for managing a benefactor's dead man's switch with assigned beneficiaries.",
    "kind": "dev",
    "methods": {
      "addBenefactorPublicKey(address,address,string)": {
        "details": "adds the benefactor public key to the specified benefactor-beneficiary pair"
      },
      "addBeneficiary(address)": {
        "details": "Adds a new beneficiary to the list. Only callable by the benefactor.",
        "params": {
          "_beneficiary": "The address of the new beneficiary."
        }
      },
      "addBeneficiaryPublicKey(address,address,string)": {
        "details": "adds the beneficiary public key to the specified benefactor-beneficiary pair"
      },
      "addIpfsCID(address,string)": {
        "details": "Adds an IPFS CID to the specified beneficiary. Only callable by the benefactor.",
        "params": {
          "_beneficiary": "The address of the beneficiary.",
          "_ipfsCID": "The IPFS CID to add."
        }
      },
      "checkAliveStatus(address)": {
        "details": "Checks the alive status of the benefactor.",
        "params": {
          "_benefactor": "The address of the benefactor."
        },
        "returns": {
          "_0": "A boolean indicating whether the benefactor is alive."
        }
      },
      "enableSwitch(address)": {
        "details": "Enables the dead man's switch. Only callable by beneficiaries.",
        "params": {
          "_benefactor": "The address of the benefactor."
        }
      },
      "getBenefactorPublicKey(address,address)": {
        "details": "returns the benefactor public key from the specified benefactor-beneficiary pair"
      },
      "getBeneficiaryPublicKey(address,address)": {
        "details": "returns the beneficiary public key from the specified benefactor-beneficiary pair"
      },
      "getCIDs(address,address)": {
        "details": "Release CIDs to beneficiary.",
        "params": {
          "_benefactor": "The address of the benefactor.",
          "_beneficiary": "The address of the beneficiary."
        }
      },
      "getData(address)": {
        "details": "Returns current status of benefactor."
      },
      "getRemainingCountdownTime(address)": {
        "details": "Returns the remaining countdown time.",
        "params": {
          "_benefactor": "The address of the benefactor."
        },
        "returns": {
          "_0": "The remaining countdown time in seconds."
        }
      },
      "isBeneficiary(address,address)": {
        "details": "Checks if the given address is a beneficiary. Only benefactor",
        "params": {
          "_address": "The address to check."
        },
        "returns": {
          "_0": "A boolean indicating whether the address is a beneficiary."
        }
      },
      "removeBenefactor(address)": {
        "details": "Removes a benefactor. Only callable by benefactor."
      },
      "removeBeneficiary(address)": {
        "details": "Removes a beneficiary from the list. Only callable by the benefactor.",
        "params": {
          "_beneficiary": "The address of the beneficiary to be removed."
        }
      },
      "removeIpfsCID(address,string)": {
        "details": "Removes an IPFS CID from the specified beneficiary. Only callable by benefactor.",
        "params": {
          "_beneficiary": "The address of the beneficiary.",
          "_ipfsCID": "The IPFS CID to remove."
        }
      },
      "respondToSwitch()": {
        "details": "Performs actions based on benefactor's activity when responding to an enabled switch. Only callable by the benefactor."
      },
      "setBenefactor()": {
        "details": "Sets up a benefactor. Only callable by benefactor."
      }
    },
    "title": "BenefactorsDeadManSwitch",
    "version": 1
  },
  "evm": {
    "assembly": "    /* \"DeadMansSwitch.sol\":235:14661  contract BenefactorsDeadManSwitch {... */\n  mstore(0x40, 0x80)\n    /* \"DeadMansSwitch.sol\":2526:2542  constructor() {} */\n  callvalue\n  dup1\n  iszero\n  tag_1\n  jumpi\n  0x00\n  dup1\n  revert\ntag_1:\n  pop\n    /* \"DeadMansSwitch.sol\":235:14661  contract BenefactorsDeadManSwitch {... */\n  dataSize(sub_0)\n  dup1\n  dataOffset(sub_0)\n  0x00\n  codecopy\n  0x00\n  return\nstop\n\nsub_0: assembly {\n        /* \"DeadMansSwitch.sol\":235:14661  contract BenefactorsDeadManSwitch {... */\n      mstore(0x40, 0x80)\n      callvalue\n      dup1\n      iszero\n      tag_1\n      jumpi\n      0x00\n      dup1\n      revert\n    tag_1:\n      pop\n      jumpi(tag_2, lt(calldatasize, 0x04))\n      shr(0xe0, calldataload(0x00))\n      dup1\n      0x59633a1c\n      gt\n      tag_21\n      jumpi\n      dup1\n      0xa98d22bc\n      gt\n      tag_22\n      jumpi\n      dup1\n      0xd51c3199\n      gt\n      tag_23\n      jumpi\n      dup1\n      0xd51c3199\n      eq\n      tag_18\n      jumpi\n      dup1\n      0xdf78bc54\n      eq\n      tag_19\n      jumpi\n      dup1\n      0xf892cb36\n      eq\n      tag_20\n      jumpi\n      0x00\n      dup1\n      revert\n    tag_23:\n      dup1\n      0xa98d22bc\n      eq\n      tag_16\n      jumpi\n      dup1\n      0xcd9c9362\n      eq\n      tag_17\n      jumpi\n      0x00\n      dup1\n      revert\n    tag_22:\n      dup1\n      0x59633a1c\n      eq\n      tag_12\n      jumpi\n      dup1\n      0x87c63714\n      eq\n      tag_13\n      jumpi\n      dup1\n      0x87ce1ca8\n      eq\n      tag_14\n      jumpi\n      dup1\n      0x8d5492e4\n      eq\n      tag_15\n      jumpi\n      0x00\n      dup1\n      revert\n    tag_21:\n      dup1\n      0x196ba7ef\n      gt\n      tag_24\n      jumpi\n      dup1\n      0x3dea2f84\n      gt\n      tag_25\n      jumpi\n      dup1\n      0x3dea2f84\n      eq\n      tag_9\n      jumpi\n      dup1\n      0x5211287e\n      eq\n      tag_10\n      jumpi\n      dup1\n      0x5926651d\n      eq\n      tag_11\n      jumpi\n      0x00\n      dup1\n      revert\n    tag_25:\n      dup1\n      0x196ba7ef\n      eq\n      tag_7\n      jumpi\n      dup1\n      0x38266b22\n      eq\n      tag_8\n      jumpi\n      0x00\n      dup1\n      revert\n    tag_24:\n      dup1\n      0x01e2b33f\n      eq\n      tag_3\n      jumpi\n      dup1\n      0x072039a2\n      eq\n      tag_4\n      jumpi\n      dup1\n      0x07a8b767\n      eq\n      tag_5\n      jumpi\n      dup1\n      0x096e27d9\n      eq\n      tag_6\n      jumpi\n    tag_2:\n      0x00\n      dup1\n      revert\n        /* \"DeadMansSwitch.sol\":11458:11969  function getRemainingCountdownTime(address _benefactor) public returns (uint256) {... */\n    tag_3:\n      tag_26\n      tag_27\n      calldatasize\n      0x04\n      tag_28\n      jump\t// in\n    tag_27:\n      tag_29\n      jump\t// in\n    tag_26:\n      mload(0x40)\n        /* \"#utility.yul\":552:577   */\n      swap1\n      dup2\n      mstore\n        /* \"#utility.yul\":540:542   */\n      0x20\n        /* \"#utility.yul\":525:543   */\n      add\n        /* \"DeadMansSwitch.sol\":11458:11969  function getRemainingCountdownTime(address _benefactor) public returns (uint256) {... */\n    tag_30:\n      mload(0x40)\n      dup1\n      swap2\n      sub\n      swap1\n      return\n        /* \"DeadMansSwitch.sol\":12179:12763  function checkAliveStatus(address _benefactor) public returns (bool) {... */\n    tag_4:\n      tag_32\n      tag_33\n      calldatasize\n      0x04\n      tag_28\n      jump\t// in\n    tag_33:\n      tag_34\n      jump\t// in\n    tag_32:\n      mload(0x40)\n        /* \"#utility.yul\":753:767   */\n      swap1\n      iszero\n        /* \"#utility.yul\":746:768   */\n      iszero\n        /* \"#utility.yul\":728:769   */\n      dup2\n      mstore\n        /* \"#utility.yul\":716:718   */\n      0x20\n        /* \"#utility.yul\":701:719   */\n      add\n        /* \"DeadMansSwitch.sol\":12179:12763  function checkAliveStatus(address _benefactor) public returns (bool) {... */\n      tag_30\n        /* \"#utility.yul\":588:775   */\n      jump\n        /* \"DeadMansSwitch.sol\":6626:6843  function getSwitchStatus(address _benefactor) public view returns (bool) {... */\n    tag_5:\n      tag_32\n      tag_38\n      calldatasize\n      0x04\n      tag_28\n      jump\t// in\n    tag_38:\n      tag_39\n      jump\t// in\n        /* \"DeadMansSwitch.sol\":7065:7235  function isBeneficiary(address _benefactor, address _address) public view returns (bool) {... */\n    tag_6:\n      tag_32\n      tag_42\n      calldatasize\n      0x04\n      tag_43\n      jump\t// in\n    tag_42:\n      tag_44\n      jump\t// in\n        /* \"DeadMansSwitch.sol\":2632:3134  function setBenefactor() public{... */\n    tag_7:\n      tag_46\n      tag_47\n      jump\t// in\n    tag_46:\n      stop\n        /* \"DeadMansSwitch.sol\":3211:4209  function getData(address _benefactor) public returns (bool switchStatus, address[] memory beneficiaries, uint256 remainingTime) {... */\n    tag_8:\n      tag_48\n      tag_49\n      calldatasize\n      0x04\n      tag_28\n      jump\t// in\n    tag_49:\n      tag_50\n      jump\t// in\n    tag_48:\n      mload(0x40)\n      tag_30\n      swap4\n      swap3\n      swap2\n      swap1\n      tag_52\n      jump\t// in\n        /* \"DeadMansSwitch.sol\":5049:5413  function addBeneficiaryPublicKey(address _benefactor, address _beneficiary, string memory _key) public {... */\n    tag_9:\n      tag_46\n      tag_54\n      calldatasize\n      0x04\n      tag_55\n      jump\t// in\n    tag_54:\n      tag_56\n      jump\t// in\n        /* \"DeadMansSwitch.sol\":8435:9175  function addIpfsCID(address _beneficiary, string memory _ipfsCID) external onlyBenefactor {... */\n    tag_10:\n      tag_46\n      tag_58\n      calldatasize\n      0x04\n      tag_59\n      jump\t// in\n    tag_58:\n      tag_60\n      jump\t// in\n        /* \"DeadMansSwitch.sol\":7882:8211  function addBeneficiary(address _beneficiary) external onlyBenefactor {... */\n    tag_11:\n      tag_46\n      tag_62\n      calldatasize\n      0x04\n      tag_28\n      jump\t// in\n    tag_62:\n      tag_63\n      jump\t// in\n        /* \"DeadMansSwitch.sol\":7418:7710  function removeBeneficiary(address _beneficiary) external onlyBenefactor {... */\n    tag_12:\n      tag_46\n      tag_65\n      calldatasize\n      0x04\n      tag_28\n      jump\t// in\n    tag_65:\n      tag_66\n      jump\t// in\n        /* \"DeadMansSwitch.sol\":9403:10318  function removeIpfsCID(address _beneficiary, string memory _ipfsCID) external onlyBenefactor {... */\n    tag_13:\n      tag_46\n      tag_68\n      calldatasize\n      0x04\n      tag_59\n      jump\t// in\n    tag_68:\n      tag_69\n      jump\t// in\n        /* \"DeadMansSwitch.sol\":5531:5853  function getBenefactorPublicKey(address _benefactor, address _beneficiary) public view returns(string memory) {... */\n    tag_14:\n      tag_70\n      tag_71\n      calldatasize\n      0x04\n      tag_43\n      jump\t// in\n    tag_71:\n      tag_72\n      jump\t// in\n    tag_70:\n      mload(0x40)\n      tag_30\n      swap2\n      swap1\n      tag_74\n      jump\t// in\n        /* \"DeadMansSwitch.sol\":10480:11266  function enableSwitch(address _benefactor) external {... */\n    tag_15:\n      tag_46\n      tag_76\n      calldatasize\n      0x04\n      tag_28\n      jump\t// in\n    tag_76:\n      tag_77\n      jump\t// in\n        /* \"DeadMansSwitch.sol\":6386:6618  function removeBenefactor(address _benefactor) public {... */\n    tag_16:\n      tag_46\n      tag_79\n      calldatasize\n      0x04\n      tag_28\n      jump\t// in\n    tag_79:\n      tag_80\n      jump\t// in\n        /* \"DeadMansSwitch.sol\":13360:14059  function respondToSwitch() external onlyBenefactor {... */\n    tag_17:\n      tag_46\n      tag_82\n      jump\t// in\n        /* \"DeadMansSwitch.sol\":4576:4937  function addBenefactorPublicKey(address _benefactor, address _beneficiary, string memory _key) public {... */\n    tag_18:\n      tag_46\n      tag_84\n      calldatasize\n      0x04\n      tag_55\n      jump\t// in\n    tag_84:\n      tag_85\n      jump\t// in\n        /* \"DeadMansSwitch.sol\":14249:14658  function getCIDs(address _benefactor, address _beneficiary) public view returns (string[] memory){... */\n    tag_19:\n      tag_86\n      tag_87\n      calldatasize\n      0x04\n      tag_43\n      jump\t// in\n    tag_87:\n      tag_88\n      jump\t// in\n    tag_86:\n      mload(0x40)\n      tag_30\n      swap2\n      swap1\n      tag_90\n      jump\t// in\n        /* \"DeadMansSwitch.sol\":5972:6296  function getBeneficiaryPublicKey(address _benefactor, address _beneficiary) public view returns(string memory) {... */\n    tag_20:\n      tag_70\n      tag_92\n      calldatasize\n      0x04\n      tag_43\n      jump\t// in\n    tag_92:\n      tag_93\n      jump\t// in\n        /* \"DeadMansSwitch.sol\":11458:11969  function getRemainingCountdownTime(address _benefactor) public returns (uint256) {... */\n    tag_29:\n      sub(shl(0xa0, 0x01), 0x01)\n        /* \"DeadMansSwitch.sol\":11591:11615  benefactors[_benefactor] */\n      dup2\n      and\n        /* \"DeadMansSwitch.sol\":11530:11537  uint256 */\n      0x00\n        /* \"DeadMansSwitch.sol\":11591:11615  benefactors[_benefactor] */\n      swap1\n      dup2\n      mstore\n      0x20\n      dup2\n      swap1\n      mstore\n      0x40\n      dup2\n      keccak256\n        /* \"DeadMansSwitch.sol\":11591:11642  benefactors[_benefactor].lastBenefactorResponseTime */\n      0x03\n      add\n      sload\n        /* \"DeadMansSwitch.sol\":11530:11537  uint256 */\n      dup2\n      swap1\n        /* \"DeadMansSwitch.sol\":11573:11642  block.timestamp - benefactors[_benefactor].lastBenefactorResponseTime */\n      tag_96\n      swap1\n        /* \"DeadMansSwitch.sol\":11573:11588  block.timestamp */\n      timestamp\n        /* \"DeadMansSwitch.sol\":11573:11642  block.timestamp - benefactors[_benefactor].lastBenefactorResponseTime */\n      tag_97\n      jump\t// in\n    tag_96:\n      sub(shl(0xa0, 0x01), 0x01)\n        /* \"DeadMansSwitch.sol\":11658:11820  RemainingCountdownInfo(_benefactor,benefactors[_benefactor].countdownDuration, responseTime, block.timestamp, benefactors[_benefactor].lastBenefactorResponseTime) */\n      dup5\n      and\n        /* \"DeadMansSwitch.sol\":11693:11704  benefactors */\n      0x00\n        /* \"DeadMansSwitch.sol\":11693:11717  benefactors[_benefactor] */\n      dup2\n      dup2\n      mstore\n      0x20\n      dup2\n      dup2\n      mstore\n      0x40\n      swap2\n      dup3\n      swap1\n      keccak256\n        /* \"DeadMansSwitch.sol\":11693:11735  benefactors[_benefactor].countdownDuration */\n      0x02\n      dup2\n      add\n      sload\n        /* \"DeadMansSwitch.sol\":11768:11819  benefactors[_benefactor].lastBenefactorResponseTime */\n      0x03\n      swap1\n      swap2\n      add\n      sload\n        /* \"DeadMansSwitch.sol\":11658:11820  RemainingCountdownInfo(_benefactor,benefactors[_benefactor].countdownDuration, responseTime, block.timestamp, benefactors[_benefactor].lastBenefactorResponseTime) */\n      dup4\n      mload\n        /* \"#utility.yul\":5676:5701   */\n      swap2\n      dup3\n      mstore\n        /* \"#utility.yul\":5717:5735   */\n      swap2\n      dup2\n      add\n        /* \"#utility.yul\":5710:5744   */\n      dup6\n      swap1\n      mstore\n        /* \"DeadMansSwitch.sol\":11751:11766  block.timestamp */\n      timestamp\n        /* \"#utility.yul\":5760:5778   */\n      swap3\n      dup2\n      add\n        /* \"#utility.yul\":5753:5787   */\n      swap3\n      swap1\n      swap3\n      mstore\n        /* \"#utility.yul\":5818:5820   */\n      0x60\n        /* \"#utility.yul\":5803:5821   */\n      dup3\n      add\n        /* \"#utility.yul\":5796:5830   */\n      mstore\n        /* \"DeadMansSwitch.sol\":11550:11642  uint256 responseTime = block.timestamp - benefactors[_benefactor].lastBenefactorResponseTime */\n      swap2\n      swap3\n      pop\n        /* \"DeadMansSwitch.sol\":11658:11820  RemainingCountdownInfo(_benefactor,benefactors[_benefactor].countdownDuration, responseTime, block.timestamp, benefactors[_benefactor].lastBenefactorResponseTime) */\n      swap1\n      0x74a7c0c2e8065fcdbfca5ae9f6cf0233e47e9e75b6fcf75674dd4b7e3f9b8183\n      swap1\n        /* \"#utility.yul\":5663:5666   */\n      0x80\n        /* \"#utility.yul\":5648:5667   */\n      add\n        /* \"DeadMansSwitch.sol\":11658:11820  RemainingCountdownInfo(_benefactor,benefactors[_benefactor].countdownDuration, responseTime, block.timestamp, benefactors[_benefactor].lastBenefactorResponseTime) */\n      mload(0x40)\n      dup1\n      swap2\n      sub\n      swap1\n      log2\n      sub(shl(0xa0, 0x01), 0x01)\n        /* \"DeadMansSwitch.sol\":11854:11878  benefactors[_benefactor] */\n      dup4\n      and\n        /* \"DeadMansSwitch.sol\":11854:11865  benefactors */\n      0x00\n        /* \"DeadMansSwitch.sol\":11854:11878  benefactors[_benefactor] */\n      swap1\n      dup2\n      mstore\n      0x20\n      dup2\n      swap1\n      mstore\n      0x40\n      swap1\n      keccak256\n        /* \"DeadMansSwitch.sol\":11854:11896  benefactors[_benefactor].countdownDuration */\n      0x02\n      add\n      sload\n        /* \"DeadMansSwitch.sol\":11839:11896  responseTime > benefactors[_benefactor].countdownDuration */\n      dup2\n      gt\n        /* \"DeadMansSwitch.sol\":11838:11961  (responseTime > benefactors[_benefactor].countdownDuration) ? 0 : benefactors[_benefactor].countdownDuration - responseTime */\n      tag_100\n      jumpi\n      sub(shl(0xa0, 0x01), 0x01)\n        /* \"DeadMansSwitch.sol\":11904:11928  benefactors[_benefactor] */\n      dup4\n      and\n        /* \"DeadMansSwitch.sol\":11904:11915  benefactors */\n      0x00\n        /* \"DeadMansSwitch.sol\":11904:11928  benefactors[_benefactor] */\n      swap1\n      dup2\n      mstore\n      0x20\n      dup2\n      swap1\n      mstore\n      0x40\n      swap1\n      keccak256\n        /* \"DeadMansSwitch.sol\":11904:11946  benefactors[_benefactor].countdownDuration */\n      0x02\n      add\n      sload\n        /* \"DeadMansSwitch.sol\":11904:11961  benefactors[_benefactor].countdownDuration - responseTime */\n      tag_101\n      swap1\n        /* \"DeadMansSwitch.sol\":11949:11961  responseTime */\n      dup3\n      swap1\n        /* \"DeadMansSwitch.sol\":11904:11961  benefactors[_benefactor].countdownDuration - responseTime */\n      tag_97\n      jump\t// in\n    tag_101:\n        /* \"DeadMansSwitch.sol\":11838:11961  (responseTime > benefactors[_benefactor].countdownDuration) ? 0 : benefactors[_benefactor].countdownDuration - responseTime */\n      jump(tag_102)\n    tag_100:\n        /* \"DeadMansSwitch.sol\":11900:11901  0 */\n      0x00\n        /* \"DeadMansSwitch.sol\":11838:11961  (responseTime > benefactors[_benefactor].countdownDuration) ? 0 : benefactors[_benefactor].countdownDuration - responseTime */\n    tag_102:\n        /* \"DeadMansSwitch.sol\":11831:11961  return (responseTime > benefactors[_benefactor].countdownDuration) ? 0 : benefactors[_benefactor].countdownDuration - responseTime */\n      swap4\n        /* \"DeadMansSwitch.sol\":11458:11969  function getRemainingCountdownTime(address _benefactor) public returns (uint256) {... */\n      swap3\n      pop\n      pop\n      pop\n      jump\t// out\n        /* \"DeadMansSwitch.sol\":12179:12763  function checkAliveStatus(address _benefactor) public returns (bool) {... */\n    tag_34:\n        /* \"DeadMansSwitch.sol\":12242:12246  bool */\n      0x00\n        /* \"DeadMansSwitch.sol\":12263:12291  getSwitchStatus(_benefactor) */\n      tag_104\n        /* \"DeadMansSwitch.sol\":12279:12290  _benefactor */\n      dup3\n        /* \"DeadMansSwitch.sol\":12263:12278  getSwitchStatus */\n      tag_39\n        /* \"DeadMansSwitch.sol\":12263:12291  getSwitchStatus(_benefactor) */\n      jump\t// in\n    tag_104:\n        /* \"DeadMansSwitch.sol\":12259:12616  if (getSwitchStatus(_benefactor)){... */\n      iszero\n      tag_106\n      jumpi\n      sub(shl(0xa0, 0x01), 0x01)\n        /* \"DeadMansSwitch.sol\":12311:12335  benefactors[_benefactor] */\n      dup3\n      and\n        /* \"DeadMansSwitch.sol\":12311:12322  benefactors */\n      0x00\n        /* \"DeadMansSwitch.sol\":12311:12335  benefactors[_benefactor] */\n      swap1\n      dup2\n      mstore\n      0x20\n      dup2\n      swap1\n      mstore\n      0x40\n      swap1\n      keccak256\n        /* \"DeadMansSwitch.sol\":12311:12362  benefactors[_benefactor].lastBenefactorResponseTime */\n      0x03\n      add\n      sload\n        /* \"DeadMansSwitch.sol\":12311:12367  benefactors[_benefactor].lastBenefactorResponseTime != 0 */\n      iszero\n        /* \"DeadMansSwitch.sol\":12307:12602  if (benefactors[_benefactor].lastBenefactorResponseTime != 0) {... */\n      tag_106\n      jumpi\n        /* \"DeadMansSwitch.sol\":12388:12414  uint256 remainingCountdown */\n      0x00\n        /* \"DeadMansSwitch.sol\":12417:12455  getRemainingCountdownTime(_benefactor) */\n      tag_107\n        /* \"DeadMansSwitch.sol\":12443:12454  _benefactor */\n      dup4\n        /* \"DeadMansSwitch.sol\":12417:12442  getRemainingCountdownTime */\n      tag_29\n        /* \"DeadMansSwitch.sol\":12417:12455  getRemainingCountdownTime(_benefactor) */\n      jump\t// in\n    tag_107:\n        /* \"DeadMansSwitch.sol\":12388:12455  uint256 remainingCountdown = getRemainingCountdownTime(_benefactor) */\n      swap1\n      pop\n        /* \"DeadMansSwitch.sol\":12500:12501  0 */\n      0x00\n        /* \"DeadMansSwitch.sol\":12478:12496  remainingCountdown */\n      dup2\n        /* \"DeadMansSwitch.sol\":12478:12501  remainingCountdown <= 0 */\n      gt\n        /* \"DeadMansSwitch.sol\":12474:12586  if (remainingCountdown <= 0) {... */\n      tag_108\n      jumpi\n      sub(shl(0xa0, 0x01), 0x01)\n        /* \"DeadMansSwitch.sol\":12526:12550  benefactors[_benefactor] */\n      dup4\n      and\n        /* \"DeadMansSwitch.sol\":12561:12566  false */\n      0x00\n        /* \"DeadMansSwitch.sol\":12526:12550  benefactors[_benefactor] */\n      swap1\n      dup2\n      mstore\n      0x20\n      dup2\n      swap1\n      mstore\n      0x40\n      swap1\n      keccak256\n        /* \"DeadMansSwitch.sol\":12526:12558  benefactors[_benefactor].isAlive */\n      0x04\n      add\n        /* \"DeadMansSwitch.sol\":12526:12566  benefactors[_benefactor].isAlive = false */\n      dup1\n      sload\n      not(0xff00)\n      and\n      swap1\n      sstore\n        /* \"DeadMansSwitch.sol\":12474:12586  if (remainingCountdown <= 0) {... */\n    tag_108:\n        /* \"DeadMansSwitch.sol\":12369:12602  {... */\n      pop\n        /* \"DeadMansSwitch.sol\":12307:12602  if (benefactors[_benefactor].lastBenefactorResponseTime != 0) {... */\n    tag_106:\n      pop\n      sub(shl(0xa0, 0x01), 0x01)\n        /* \"DeadMansSwitch.sol\":12723:12747  benefactors[_benefactor] */\n      and\n        /* \"DeadMansSwitch.sol\":12723:12734  benefactors */\n      0x00\n        /* \"DeadMansSwitch.sol\":12723:12747  benefactors[_benefactor] */\n      swap1\n      dup2\n      mstore\n      0x20\n      dup2\n      swap1\n      mstore\n      0x40\n      swap1\n      keccak256\n        /* \"DeadMansSwitch.sol\":12723:12755  benefactors[_benefactor].isAlive */\n      0x04\n      add\n      sload\n      0x0100\n      swap1\n      div\n      0xff\n      and\n      swap1\n        /* \"DeadMansSwitch.sol\":12179:12763  function checkAliveStatus(address _benefactor) public returns (bool) {... */\n      jump\t// out\n        /* \"DeadMansSwitch.sol\":6626:6843  function getSwitchStatus(address _benefactor) public view returns (bool) {... */\n    tag_39:\n      sub(shl(0xa0, 0x01), 0x01)\n        /* \"DeadMansSwitch.sol\":6718:6742  benefactors[_benefactor] */\n      dup2\n      and\n        /* \"DeadMansSwitch.sol\":6693:6697  bool */\n      0x00\n        /* \"DeadMansSwitch.sol\":6718:6742  benefactors[_benefactor] */\n      swap1\n      dup2\n      mstore\n      0x20\n      dup2\n      swap1\n      mstore\n      0x40\n      dup2\n      keccak256\n        /* \"DeadMansSwitch.sol\":6718:6749  benefactors[_benefactor].exists */\n      sload\n      0xff\n      and\n        /* \"DeadMansSwitch.sol\":6710:6778  require(benefactors[_benefactor].exists,\"Benefactor does not exist\") */\n      tag_110\n      jumpi\n      mload(0x40)\n      shl(0xe5, 0x461bcd)\n      dup2\n      mstore\n        /* \"#utility.yul\":6043:6045   */\n      0x20\n        /* \"DeadMansSwitch.sol\":6710:6778  require(benefactors[_benefactor].exists,\"Benefactor does not exist\") */\n      0x04\n      dup3\n      add\n        /* \"#utility.yul\":6025:6046   */\n      mstore\n        /* \"#utility.yul\":6082:6084   */\n      0x19\n        /* \"#utility.yul\":6062:6080   */\n      0x24\n      dup3\n      add\n        /* \"#utility.yul\":6055:6085   */\n      mstore\n        /* \"#utility.yul\":6121:6148   */\n      0x42656e65666163746f7220646f6573206e6f7420657869737400000000000000\n        /* \"#utility.yul\":6101:6119   */\n      0x44\n      dup3\n      add\n        /* \"#utility.yul\":6094:6149   */\n      mstore\n        /* \"#utility.yul\":6166:6184   */\n      0x64\n      add\n        /* \"DeadMansSwitch.sol\":6710:6778  require(benefactors[_benefactor].exists,\"Benefactor does not exist\") */\n    tag_111:\n      mload(0x40)\n      dup1\n      swap2\n      sub\n      swap1\n      revert\n    tag_110:\n      pop\n      sub(shl(0xa0, 0x01), 0x01)\n        /* \"DeadMansSwitch.sol\":6797:6821  benefactors[_benefactor] */\n      and\n        /* \"DeadMansSwitch.sol\":6797:6808  benefactors */\n      0x00\n        /* \"DeadMansSwitch.sol\":6797:6821  benefactors[_benefactor] */\n      swap1\n      dup2\n      mstore\n      0x20\n      dup2\n      swap1\n      mstore\n      0x40\n      swap1\n      keccak256\n        /* \"DeadMansSwitch.sol\":6797:6835  benefactors[_benefactor].isSwitchedOff */\n      0x04\n      add\n      sload\n      0xff\n      and\n        /* \"DeadMansSwitch.sol\":6796:6835  !benefactors[_benefactor].isSwitchedOff */\n      iszero\n      swap1\n        /* \"DeadMansSwitch.sol\":6626:6843  function getSwitchStatus(address _benefactor) public view returns (bool) {... */\n      jump\t// out\n        /* \"DeadMansSwitch.sol\":7065:7235  function isBeneficiary(address _benefactor, address _address) public view returns (bool) {... */\n    tag_44:\n      sub(shl(0xa0, 0x01), 0x01)\n        /* \"DeadMansSwitch.sol\":7172:7196  benefactors[_benefactor] */\n      dup1\n      dup4\n      and\n        /* \"DeadMansSwitch.sol\":7148:7152  bool */\n      0x00\n        /* \"DeadMansSwitch.sol\":7172:7196  benefactors[_benefactor] */\n      swap1\n      dup2\n      mstore\n      0x20\n      dup2\n      dup2\n      mstore\n      0x40\n      dup1\n      dup4\n      keccak256\n        /* \"DeadMansSwitch.sol\":7172:7220  benefactors[_benefactor].beneficiaries[_address] */\n      swap4\n      dup6\n      and\n      dup4\n      mstore\n        /* \"DeadMansSwitch.sol\":7172:7210  benefactors[_benefactor].beneficiaries */\n      0x01\n      swap1\n      swap4\n      add\n        /* \"DeadMansSwitch.sol\":7172:7220  benefactors[_benefactor].beneficiaries[_address] */\n      swap1\n      mstore\n      keccak256\n        /* \"DeadMansSwitch.sol\":7172:7227  benefactors[_benefactor].beneficiaries[_address].exists */\n      sload\n      0xff\n      and\n        /* \"DeadMansSwitch.sol\":7065:7235  function isBeneficiary(address _benefactor, address _address) public view returns (bool) {... */\n    tag_113:\n      swap3\n      swap2\n      pop\n      pop\n      jump\t// out\n        /* \"DeadMansSwitch.sol\":2632:3134  function setBenefactor() public{... */\n    tag_47:\n        /* \"DeadMansSwitch.sol\":2695:2705  msg.sender */\n      caller\n        /* \"DeadMansSwitch.sol\":2683:2694  benefactors */\n      0x00\n        /* \"DeadMansSwitch.sol\":2683:2706  benefactors[msg.sender] */\n      swap1\n      dup2\n      mstore\n      0x20\n      dup2\n      swap1\n      mstore\n      0x40\n      swap1\n      keccak256\n        /* \"DeadMansSwitch.sol\":2683:2713  benefactors[msg.sender].exists */\n      sload\n      0xff\n      and\n        /* \"DeadMansSwitch.sol\":2682:2713  !benefactors[msg.sender].exists */\n      iszero\n        /* \"DeadMansSwitch.sol\":2674:2742  require(!benefactors[msg.sender].exists,\"benefactor already exists\") */\n      tag_115\n      jumpi\n      mload(0x40)\n      shl(0xe5, 0x461bcd)\n      dup2\n      mstore\n        /* \"#utility.yul\":6397:6399   */\n      0x20\n        /* \"DeadMansSwitch.sol\":2674:2742  require(!benefactors[msg.sender].exists,\"benefactor already exists\") */\n      0x04\n      dup3\n      add\n        /* \"#utility.yul\":6379:6400   */\n      mstore\n        /* \"#utility.yul\":6436:6438   */\n      0x19\n        /* \"#utility.yul\":6416:6434   */\n      0x24\n      dup3\n      add\n        /* \"#utility.yul\":6409:6439   */\n      mstore\n        /* \"#utility.yul\":6475:6502   */\n      0x62656e65666163746f7220616c72656164792065786973747300000000000000\n        /* \"#utility.yul\":6455:6473   */\n      0x44\n      dup3\n      add\n        /* \"#utility.yul\":6448:6503   */\n      mstore\n        /* \"#utility.yul\":6520:6538   */\n      0x64\n      add\n        /* \"DeadMansSwitch.sol\":2674:2742  require(!benefactors[msg.sender].exists,\"benefactor already exists\") */\n      tag_111\n        /* \"#utility.yul\":6195:6544   */\n      jump\n        /* \"DeadMansSwitch.sol\":2674:2742  require(!benefactors[msg.sender].exists,\"benefactor already exists\") */\n    tag_115:\n        /* \"DeadMansSwitch.sol\":2765:2775  msg.sender */\n      caller\n        /* \"DeadMansSwitch.sol\":2753:2764  benefactors */\n      0x00\n        /* \"DeadMansSwitch.sol\":2753:2776  benefactors[msg.sender] */\n      swap1\n      dup2\n      mstore\n      0x20\n      dup2\n      swap1\n      mstore\n      0x40\n      dup2\n      keccak256\n        /* \"DeadMansSwitch.sol\":2753:2788  benefactors[msg.sender].exists=true */\n      dup1\n      sload\n      not(0xff)\n      and\n        /* \"DeadMansSwitch.sol\":2784:2788  true */\n      0x01\n        /* \"DeadMansSwitch.sol\":2753:2788  benefactors[msg.sender].exists=true */\n      or\n      dup2\n      sstore\n        /* \"DeadMansSwitch.sol\":2843:2860  7*24*3600 seconds */\n      0x093a80\n        /* \"DeadMansSwitch.sol\":2799:2840  benefactors[msg.sender].countdownDuration */\n      0x02\n      dup3\n      add\n        /* \"DeadMansSwitch.sol\":2799:2860  benefactors[msg.sender].countdownDuration = 7*24*3600 seconds */\n      sstore\n        /* \"DeadMansSwitch.sol\":2968:3005  benefactors[msg.sender].isSwitchedOff */\n      0x04\n      dup2\n      add\n        /* \"DeadMansSwitch.sol\":2968:3012  benefactors[msg.sender].isSwitchedOff = true */\n      dup1\n      sload\n        /* \"DeadMansSwitch.sol\":3023:3061  benefactors[msg.sender].isAlive = true */\n      0x0101\n      not(0xffff)\n      swap1\n      swap2\n      and\n      or\n      swap1\n      sstore\n        /* \"DeadMansSwitch.sol\":3072:3122  benefactors[msg.sender].lastBenefactorResponseTime */\n      0x03\n      add\n        /* \"DeadMansSwitch.sol\":3072:3126  benefactors[msg.sender].lastBenefactorResponseTime = 0 */\n      sstore\n        /* \"DeadMansSwitch.sol\":2632:3134  function setBenefactor() public{... */\n      jump\t// out\n        /* \"DeadMansSwitch.sol\":3211:4209  function getData(address _benefactor) public returns (bool switchStatus, address[] memory beneficiaries, uint256 remainingTime) {... */\n    tag_50:\n      sub(shl(0xa0, 0x01), 0x01)\n        /* \"DeadMansSwitch.sol\":3358:3382  benefactors[_benefactor] */\n      dup2\n      and\n        /* \"DeadMansSwitch.sol\":3265:3282  bool switchStatus */\n      0x00\n        /* \"DeadMansSwitch.sol\":3358:3382  benefactors[_benefactor] */\n      swap1\n      dup2\n      mstore\n      0x20\n      dup2\n      swap1\n      mstore\n      0x40\n      dup2\n      keccak256\n        /* \"DeadMansSwitch.sol\":3358:3389  benefactors[_benefactor].exists */\n      sload\n        /* \"DeadMansSwitch.sol\":3284:3314  address[] memory beneficiaries */\n      0x60\n      swap1\n        /* \"DeadMansSwitch.sol\":3265:3282  bool switchStatus */\n      dup3\n      swap1\n        /* \"DeadMansSwitch.sol\":3358:3389  benefactors[_benefactor].exists */\n      0xff\n      and\n        /* \"DeadMansSwitch.sol\":3350:3419  require(benefactors[_benefactor].exists, \"Benefactor does not exist\") */\n      tag_119\n      jumpi\n      mload(0x40)\n      shl(0xe5, 0x461bcd)\n      dup2\n      mstore\n        /* \"#utility.yul\":6043:6045   */\n      0x20\n        /* \"DeadMansSwitch.sol\":3350:3419  require(benefactors[_benefactor].exists, \"Benefactor does not exist\") */\n      0x04\n      dup3\n      add\n        /* \"#utility.yul\":6025:6046   */\n      mstore\n        /* \"#utility.yul\":6082:6084   */\n      0x19\n        /* \"#utility.yul\":6062:6080   */\n      0x24\n      dup3\n      add\n        /* \"#utility.yul\":6055:6085   */\n      mstore\n        /* \"#utility.yul\":6121:6148   */\n      0x42656e65666163746f7220646f6573206e6f7420657869737400000000000000\n        /* \"#utility.yul\":6101:6119   */\n      0x44\n      dup3\n      add\n        /* \"#utility.yul\":6094:6149   */\n      mstore\n        /* \"#utility.yul\":6166:6184   */\n      0x64\n      add\n        /* \"DeadMansSwitch.sol\":3350:3419  require(benefactors[_benefactor].exists, \"Benefactor does not exist\") */\n      tag_111\n        /* \"#utility.yul\":5841:6190   */\n      jump\n        /* \"DeadMansSwitch.sol\":3350:3419  require(benefactors[_benefactor].exists, \"Benefactor does not exist\") */\n    tag_119:\n      sub(shl(0xa0, 0x01), 0x01)\n        /* \"DeadMansSwitch.sol\":3446:3470  benefactors[_benefactor] */\n      dup5\n      and\n        /* \"DeadMansSwitch.sol\":3446:3457  benefactors */\n      0x00\n        /* \"DeadMansSwitch.sol\":3446:3470  benefactors[_benefactor] */\n      swap1\n      dup2\n      mstore\n      0x20\n      dup2\n      dup2\n      mstore\n      0x40\n      dup1\n      dup4\n      keccak256\n        /* \"DeadMansSwitch.sol\":3446:3484  benefactors[_benefactor].isSwitchedOff */\n      0x04\n      add\n      sload\n        /* \"DeadMansSwitch.sol\":4422:4437  beneficiaryKeys */\n      0x01\n        /* \"DeadMansSwitch.sol\":4422:4450  beneficiaryKeys[_benefactor] */\n      swap1\n      swap3\n      mstore\n      swap1\n      swap2\n      keccak256\n        /* \"DeadMansSwitch.sol\":4422:4457  beneficiaryKeys[_benefactor].length */\n      sload\n        /* \"DeadMansSwitch.sol\":3446:3484  benefactors[_benefactor].isSwitchedOff */\n      0xff\n      swap1\n      swap2\n      and\n        /* \"DeadMansSwitch.sol\":3445:3484  !benefactors[_benefactor].isSwitchedOff */\n      iszero\n      swap4\n      pop\n        /* \"DeadMansSwitch.sol\":3511:3560  new address[](getBeneficiariesCount(_benefactor)) */\n      0xffffffffffffffff\n      dup2\n      gt\n      iszero\n      tag_124\n      jumpi\n      tag_124\n      tag_125\n      jump\t// in\n    tag_124:\n      mload(0x40)\n      swap1\n      dup1\n      dup3\n      mstore\n      dup1\n      0x20\n      mul\n      0x20\n      add\n      dup3\n      add\n      0x40\n      mstore\n      dup1\n      iszero\n      tag_126\n      jumpi\n      dup2\n      0x20\n      add\n      0x20\n      dup3\n      mul\n      dup1\n      calldatasize\n      dup4\n      calldatacopy\n      add\n      swap1\n      pop\n    tag_126:\n      pop\n        /* \"DeadMansSwitch.sol\":3495:3560  beneficiaries = new address[](getBeneficiariesCount(_benefactor)) */\n      swap2\n      pop\n        /* \"DeadMansSwitch.sol\":3571:3584  uint256 index */\n      0x00\n        /* \"DeadMansSwitch.sol\":3604:3613  uint256 i */\n      dup1\n        /* \"DeadMansSwitch.sol\":3599:3875  for (uint256 i = 0; i < beneficiaries.length; i++) {... */\n    tag_127:\n        /* \"DeadMansSwitch.sol\":3623:3636  beneficiaries */\n      dup4\n        /* \"DeadMansSwitch.sol\":3623:3643  beneficiaries.length */\n      mload\n        /* \"DeadMansSwitch.sol\":3619:3620  i */\n      dup2\n        /* \"DeadMansSwitch.sol\":3619:3643  i < beneficiaries.length */\n      lt\n        /* \"DeadMansSwitch.sol\":3599:3875  for (uint256 i = 0; i < beneficiaries.length; i++) {... */\n      iszero\n      tag_128\n      jumpi\n      sub(shl(0xa0, 0x01), 0x01)\n        /* \"DeadMansSwitch.sol\":3669:3693  benefactors[_benefactor] */\n      dup7\n      and\n        /* \"DeadMansSwitch.sol\":3669:3680  benefactors */\n      0x00\n        /* \"DeadMansSwitch.sol\":3669:3693  benefactors[_benefactor] */\n      swap1\n      dup2\n      mstore\n      0x20\n      dup2\n      dup2\n      mstore\n      0x40\n      dup1\n      dup4\n      keccak256\n        /* \"DeadMansSwitch.sol\":3669:3707  benefactors[_benefactor].beneficiaries */\n      0x01\n        /* \"DeadMansSwitch.sol\":3708:3736  beneficiaryKeys[_benefactor] */\n      swap3\n      dup4\n      swap1\n      mstore\n      swap1\n      dup4\n      keccak256\n        /* \"DeadMansSwitch.sol\":3708:3739  beneficiaryKeys[_benefactor][i] */\n      dup1\n      sload\n        /* \"DeadMansSwitch.sol\":3669:3707  benefactors[_benefactor].beneficiaries */\n      swap3\n      swap1\n      swap2\n      add\n      swap3\n        /* \"DeadMansSwitch.sol\":3669:3680  benefactors */\n      swap2\n        /* \"DeadMansSwitch.sol\":3737:3738  i */\n      dup5\n      swap1\n        /* \"DeadMansSwitch.sol\":3708:3739  beneficiaryKeys[_benefactor][i] */\n      dup2\n      lt\n      tag_131\n      jumpi\n      tag_131\n      tag_132\n      jump\t// in\n    tag_131:\n      0x00\n      swap2\n      dup3\n      mstore\n      0x20\n      dup1\n      dup4\n      keccak256\n      swap1\n      swap2\n      add\n      sload\n      sub(shl(0xa0, 0x01), 0x01)\n      and\n        /* \"DeadMansSwitch.sol\":3669:3740  benefactors[_benefactor].beneficiaries[beneficiaryKeys[_benefactor][i]] */\n      dup4\n      mstore\n      dup3\n      add\n      swap3\n      swap1\n      swap3\n      mstore\n      0x40\n      add\n      swap1\n      keccak256\n        /* \"DeadMansSwitch.sol\":3669:3747  benefactors[_benefactor].beneficiaries[beneficiaryKeys[_benefactor][i]].exists */\n      sload\n      0xff\n      and\n        /* \"DeadMansSwitch.sol\":3665:3864  if (benefactors[_benefactor].beneficiaries[beneficiaryKeys[_benefactor][i]].exists) {... */\n      iszero\n      tag_134\n      jumpi\n      sub(shl(0xa0, 0x01), 0x01)\n        /* \"DeadMansSwitch.sol\":3791:3819  beneficiaryKeys[_benefactor] */\n      dup7\n      and\n      0x00\n      swap1\n      dup2\n      mstore\n        /* \"DeadMansSwitch.sol\":3791:3806  beneficiaryKeys */\n      0x01\n        /* \"DeadMansSwitch.sol\":3791:3819  beneficiaryKeys[_benefactor] */\n      0x20\n      mstore\n      0x40\n      swap1\n      keccak256\n        /* \"DeadMansSwitch.sol\":3791:3822  beneficiaryKeys[_benefactor][i] */\n      dup1\n      sload\n        /* \"DeadMansSwitch.sol\":3820:3821  i */\n      dup3\n      swap1\n        /* \"DeadMansSwitch.sol\":3791:3822  beneficiaryKeys[_benefactor][i] */\n      dup2\n      lt\n      tag_136\n      jumpi\n      tag_136\n      tag_132\n      jump\t// in\n    tag_136:\n      swap1\n      0x00\n      mstore\n      keccak256(0x00, 0x20)\n      add\n      0x00\n      swap1\n      sload\n      swap1\n      0x0100\n      exp\n      swap1\n      div\n      sub(shl(0xa0, 0x01), 0x01)\n      and\n        /* \"DeadMansSwitch.sol\":3768:3781  beneficiaries */\n      dup5\n        /* \"DeadMansSwitch.sol\":3782:3787  index */\n      dup4\n        /* \"DeadMansSwitch.sol\":3768:3788  beneficiaries[index] */\n      dup2\n      mload\n      dup2\n      lt\n      tag_139\n      jumpi\n      tag_139\n      tag_132\n      jump\t// in\n    tag_139:\n      sub(shl(0xa0, 0x01), 0x01)\n        /* \"DeadMansSwitch.sol\":3768:3822  beneficiaries[index] = beneficiaryKeys[_benefactor][i] */\n      swap1\n      swap3\n      and\n        /* \"DeadMansSwitch.sol\":3768:3788  beneficiaries[index] */\n      0x20\n      swap3\n      dup4\n      mul\n      swap2\n      swap1\n      swap2\n      add\n      swap1\n      swap2\n      add\n        /* \"DeadMansSwitch.sol\":3768:3822  beneficiaries[index] = beneficiaryKeys[_benefactor][i] */\n      mstore\n        /* \"DeadMansSwitch.sol\":3841:3848  index++ */\n      dup2\n      tag_140\n      dup2\n      tag_141\n      jump\t// in\n    tag_140:\n      swap3\n      pop\n      pop\n        /* \"DeadMansSwitch.sol\":3665:3864  if (benefactors[_benefactor].beneficiaries[beneficiaryKeys[_benefactor][i]].exists) {... */\n    tag_134:\n        /* \"DeadMansSwitch.sol\":3645:3648  i++ */\n      dup1\n      tag_142\n      dup2\n      tag_141\n      jump\t// in\n    tag_142:\n      swap2\n      pop\n      pop\n        /* \"DeadMansSwitch.sol\":3599:3875  for (uint256 i = 0; i < beneficiaries.length; i++) {... */\n      jump(tag_127)\n    tag_128:\n      pop\n      sub(shl(0xa0, 0x01), 0x01)\n        /* \"DeadMansSwitch.sol\":3889:3913  benefactors[_benefactor] */\n      dup6\n      and\n        /* \"DeadMansSwitch.sol\":3889:3900  benefactors */\n      0x00\n        /* \"DeadMansSwitch.sol\":3889:3913  benefactors[_benefactor] */\n      swap1\n      dup2\n      mstore\n      0x20\n      dup2\n      swap1\n      mstore\n      0x40\n      swap1\n      keccak256\n        /* \"DeadMansSwitch.sol\":3889:3927  benefactors[_benefactor].isSwitchedOff */\n      0x04\n      add\n      sload\n      0xff\n      and\n        /* \"DeadMansSwitch.sol\":3885:4060  if (benefactors[_benefactor].isSwitchedOff) {... */\n      iszero\n      tag_143\n      jumpi\n        /* \"DeadMansSwitch.sol\":3960:3961  0 */\n      0x00\n        /* \"DeadMansSwitch.sol\":3944:3961  remainingTime = 0 */\n      swap2\n      pop\n        /* \"DeadMansSwitch.sol\":3885:4060  if (benefactors[_benefactor].isSwitchedOff) {... */\n      jump(tag_144)\n    tag_143:\n        /* \"DeadMansSwitch.sol\":4010:4048  getRemainingCountdownTime(_benefactor) */\n      tag_145\n        /* \"DeadMansSwitch.sol\":4036:4047  _benefactor */\n      dup6\n        /* \"DeadMansSwitch.sol\":4010:4035  getRemainingCountdownTime */\n      tag_29\n        /* \"DeadMansSwitch.sol\":4010:4048  getRemainingCountdownTime(_benefactor) */\n      jump\t// in\n    tag_145:\n        /* \"DeadMansSwitch.sol\":3994:4048  remainingTime = getRemainingCountdownTime(_benefactor) */\n      swap2\n      pop\n        /* \"DeadMansSwitch.sol\":3885:4060  if (benefactors[_benefactor].isSwitchedOff) {... */\n    tag_144:\n        /* \"DeadMansSwitch.sol\":4150:4201  return (switchStatus, beneficiaries, remainingTime) */\n      pop\n        /* \"DeadMansSwitch.sol\":3211:4209  function getData(address _benefactor) public returns (bool switchStatus, address[] memory beneficiaries, uint256 remainingTime) {... */\n      swap2\n      swap4\n      swap1\n      swap3\n      pop\n      jump\t// out\n        /* \"DeadMansSwitch.sol\":5049:5413  function addBeneficiaryPublicKey(address _benefactor, address _beneficiary, string memory _key) public {... */\n    tag_56:\n        /* \"DeadMansSwitch.sol\":5171:5210  isBeneficiary(_benefactor,_beneficiary) */\n      tag_147\n        /* \"DeadMansSwitch.sol\":5185:5196  _benefactor */\n      dup4\n        /* \"DeadMansSwitch.sol\":5197:5209  _beneficiary */\n      dup4\n        /* \"DeadMansSwitch.sol\":5171:5184  isBeneficiary */\n      tag_44\n        /* \"DeadMansSwitch.sol\":5171:5210  isBeneficiary(_benefactor,_beneficiary) */\n      jump\t// in\n    tag_147:\n        /* \"DeadMansSwitch.sol\":5163:5247  require(isBeneficiary(_benefactor,_beneficiary), \"Beneficiary/Benefactor not found\") */\n      tag_148\n      jumpi\n      mload(0x40)\n      shl(0xe5, 0x461bcd)\n      dup2\n      mstore\n        /* \"#utility.yul\":7023:7025   */\n      0x20\n        /* \"DeadMansSwitch.sol\":5163:5247  require(isBeneficiary(_benefactor,_beneficiary), \"Beneficiary/Benefactor not found\") */\n      0x04\n      dup3\n      add\n        /* \"#utility.yul\":7005:7026   */\n      dup2\n      swap1\n      mstore\n        /* \"#utility.yul\":7042:7060   */\n      0x24\n      dup3\n      add\n        /* \"#utility.yul\":7035:7065   */\n      mstore\n        /* \"#utility.yul\":7101:7135   */\n      0x42656e65666963696172792f42656e65666163746f72206e6f7420666f756e64\n        /* \"#utility.yul\":7081:7099   */\n      0x44\n      dup3\n      add\n        /* \"#utility.yul\":7074:7136   */\n      mstore\n        /* \"#utility.yul\":7153:7171   */\n      0x64\n      add\n        /* \"DeadMansSwitch.sol\":5163:5247  require(isBeneficiary(_benefactor,_beneficiary), \"Beneficiary/Benefactor not found\") */\n      tag_111\n        /* \"#utility.yul\":6821:7177   */\n      jump\n        /* \"DeadMansSwitch.sol\":5163:5247  require(isBeneficiary(_benefactor,_beneficiary), \"Beneficiary/Benefactor not found\") */\n    tag_148:\n      sub(shl(0xa0, 0x01), 0x01)\n        /* \"DeadMansSwitch.sol\":5258:5282  benefactors[_benefactor] */\n      dup1\n      dup5\n      and\n        /* \"DeadMansSwitch.sol\":5258:5269  benefactors */\n      0x00\n        /* \"DeadMansSwitch.sol\":5258:5282  benefactors[_benefactor] */\n      swap1\n      dup2\n      mstore\n      0x20\n      dup2\n      dup2\n      mstore\n      0x40\n      dup1\n      dup4\n      keccak256\n        /* \"DeadMansSwitch.sol\":5258:5310  benefactors[_benefactor].beneficiaries[_beneficiary] */\n      swap4\n      dup7\n      and\n      dup4\n      mstore\n        /* \"DeadMansSwitch.sol\":5258:5296  benefactors[_benefactor].beneficiaries */\n      0x01\n      swap1\n      swap4\n      add\n        /* \"DeadMansSwitch.sol\":5258:5310  benefactors[_benefactor].beneficiaries[_beneficiary] */\n      swap1\n      mstore\n      keccak256\n        /* \"DeadMansSwitch.sol\":5258:5331  benefactors[_benefactor].beneficiaries[_beneficiary].beneficiaryPublicKey */\n      0x03\n      add\n        /* \"DeadMansSwitch.sol\":5258:5338  benefactors[_benefactor].beneficiaries[_beneficiary].beneficiaryPublicKey = _key */\n      tag_151\n        /* \"DeadMansSwitch.sol\":5334:5338  _key */\n      dup3\n        /* \"DeadMansSwitch.sol\":5258:5331  benefactors[_benefactor].beneficiaries[_beneficiary].beneficiaryPublicKey */\n      dup3\n        /* \"DeadMansSwitch.sol\":5258:5338  benefactors[_benefactor].beneficiaries[_beneficiary].beneficiaryPublicKey = _key */\n      tag_152\n      jump\t// in\n    tag_151:\n      pop\n        /* \"DeadMansSwitch.sol\":5386:5398  _beneficiary */\n      dup2\n      sub(shl(0xa0, 0x01), 0x01)\n        /* \"DeadMansSwitch.sol\":5354:5405  BeneficiaryKeyAdded(_benefactor,_beneficiary, _key) */\n      and\n        /* \"DeadMansSwitch.sol\":5374:5385  _benefactor */\n      dup4\n      sub(shl(0xa0, 0x01), 0x01)\n        /* \"DeadMansSwitch.sol\":5354:5405  BeneficiaryKeyAdded(_benefactor,_beneficiary, _key) */\n      and\n      0x69ccea10852ac51b01745414774b5af302217e774786d2068296650b57ba03f2\n        /* \"DeadMansSwitch.sol\":5400:5404  _key */\n      dup4\n        /* \"DeadMansSwitch.sol\":5354:5405  BeneficiaryKeyAdded(_benefactor,_beneficiary, _key) */\n      mload(0x40)\n      tag_153\n      swap2\n      swap1\n      tag_74\n      jump\t// in\n    tag_153:\n      mload(0x40)\n      dup1\n      swap2\n      sub\n      swap1\n      log3\n        /* \"DeadMansSwitch.sol\":5049:5413  function addBeneficiaryPublicKey(address _benefactor, address _beneficiary, string memory _key) public {... */\n      pop\n      pop\n      pop\n      jump\t// out\n        /* \"DeadMansSwitch.sol\":8435:9175  function addIpfsCID(address _beneficiary, string memory _ipfsCID) external onlyBenefactor {... */\n    tag_60:\n        /* \"DeadMansSwitch.sol\":2418:2428  msg.sender */\n      caller\n        /* \"DeadMansSwitch.sol\":2406:2417  benefactors */\n      0x00\n        /* \"DeadMansSwitch.sol\":2406:2429  benefactors[msg.sender] */\n      swap1\n      dup2\n      mstore\n      0x20\n      dup2\n      swap1\n      mstore\n      0x40\n      swap1\n      keccak256\n        /* \"DeadMansSwitch.sol\":2406:2436  benefactors[msg.sender].exists */\n      sload\n      0xff\n      and\n        /* \"DeadMansSwitch.sol\":2406:2471  benefactors[msg.sender].exists && benefactors[msg.sender].isAlive */\n      dup1\n      iszero\n      tag_155\n      jumpi\n      pop\n        /* \"DeadMansSwitch.sol\":2452:2462  msg.sender */\n      caller\n        /* \"DeadMansSwitch.sol\":2440:2451  benefactors */\n      0x00\n        /* \"DeadMansSwitch.sol\":2440:2463  benefactors[msg.sender] */\n      swap1\n      dup2\n      mstore\n      0x20\n      dup2\n      swap1\n      mstore\n      0x40\n      swap1\n      keccak256\n        /* \"DeadMansSwitch.sol\":2440:2471  benefactors[msg.sender].isAlive */\n      0x04\n      add\n      sload\n      0x0100\n      swap1\n      div\n      0xff\n      and\n        /* \"DeadMansSwitch.sol\":2406:2471  benefactors[msg.sender].exists && benefactors[msg.sender].isAlive */\n    tag_155:\n        /* \"DeadMansSwitch.sol\":2398:2498  require(benefactors[msg.sender].exists && benefactors[msg.sender].isAlive, \"Not a valid benefactor\") */\n      tag_156\n      jumpi\n      mload(0x40)\n      shl(0xe5, 0x461bcd)\n      dup2\n      mstore\n        /* \"#utility.yul\":9973:9975   */\n      0x20\n        /* \"DeadMansSwitch.sol\":2398:2498  require(benefactors[msg.sender].exists && benefactors[msg.sender].isAlive, \"Not a valid benefactor\") */\n      0x04\n      dup3\n      add\n        /* \"#utility.yul\":9955:9976   */\n      mstore\n        /* \"#utility.yul\":10012:10014   */\n      0x16\n        /* \"#utility.yul\":9992:10010   */\n      0x24\n      dup3\n      add\n        /* \"#utility.yul\":9985:10015   */\n      mstore\n      shl(0x51, 0x2737ba1030903b30b634b2103132b732b330b1ba37b9)\n        /* \"#utility.yul\":10031:10049   */\n      0x44\n      dup3\n      add\n        /* \"#utility.yul\":10024:10076   */\n      mstore\n        /* \"#utility.yul\":10093:10111   */\n      0x64\n      add\n        /* \"DeadMansSwitch.sol\":2398:2498  require(benefactors[msg.sender].exists && benefactors[msg.sender].isAlive, \"Not a valid benefactor\") */\n      tag_111\n        /* \"#utility.yul\":9771:10117   */\n      jump\n        /* \"DeadMansSwitch.sol\":2398:2498  require(benefactors[msg.sender].exists && benefactors[msg.sender].isAlive, \"Not a valid benefactor\") */\n    tag_156:\n        /* \"DeadMansSwitch.sol\":8544:8582  isBeneficiary(msg.sender,_beneficiary) */\n      tag_160\n        /* \"DeadMansSwitch.sol\":8558:8568  msg.sender */\n      caller\n        /* \"DeadMansSwitch.sol\":8569:8581  _beneficiary */\n      dup4\n        /* \"DeadMansSwitch.sol\":8544:8557  isBeneficiary */\n      tag_44\n        /* \"DeadMansSwitch.sol\":8544:8582  isBeneficiary(msg.sender,_beneficiary) */\n      jump\t// in\n    tag_160:\n        /* \"DeadMansSwitch.sol\":8536:8608  require(isBeneficiary(msg.sender,_beneficiary), \"Beneficiary not found\") */\n      tag_161\n      jumpi\n      mload(0x40)\n      shl(0xe5, 0x461bcd)\n      dup2\n      mstore\n        /* \"#utility.yul\":10324:10326   */\n      0x20\n        /* \"DeadMansSwitch.sol\":8536:8608  require(isBeneficiary(msg.sender,_beneficiary), \"Beneficiary not found\") */\n      0x04\n      dup3\n      add\n        /* \"#utility.yul\":10306:10327   */\n      mstore\n        /* \"#utility.yul\":10363:10365   */\n      0x15\n        /* \"#utility.yul\":10343:10361   */\n      0x24\n      dup3\n      add\n        /* \"#utility.yul\":10336:10366   */\n      mstore\n      shl(0x5a, 0x10995b99599a58da585c9e481b9bdd08199bdd5b99)\n        /* \"#utility.yul\":10382:10400   */\n      0x44\n      dup3\n      add\n        /* \"#utility.yul\":10375:10426   */\n      mstore\n        /* \"#utility.yul\":10443:10461   */\n      0x64\n      add\n        /* \"DeadMansSwitch.sol\":8536:8608  require(isBeneficiary(msg.sender,_beneficiary), \"Beneficiary not found\") */\n      tag_111\n        /* \"#utility.yul\":10122:10467   */\n      jump\n        /* \"DeadMansSwitch.sol\":8536:8608  require(isBeneficiary(msg.sender,_beneficiary), \"Beneficiary not found\") */\n    tag_161:\n        /* \"DeadMansSwitch.sol\":8659:8669  msg.sender */\n      caller\n        /* \"DeadMansSwitch.sol\":8619:8644  string[] storage ipfsCIDs */\n      0x00\n        /* \"DeadMansSwitch.sol\":8647:8670  benefactors[msg.sender] */\n      swap1\n      dup2\n      mstore\n      0x20\n      dup2\n      dup2\n      mstore\n      0x40\n      dup1\n      dup4\n      keccak256\n      sub(shl(0xa0, 0x01), 0x01)\n        /* \"DeadMansSwitch.sol\":8647:8698  benefactors[msg.sender].beneficiaries[_beneficiary] */\n      dup7\n      and\n      dup5\n      mstore\n        /* \"DeadMansSwitch.sol\":8647:8684  benefactors[msg.sender].beneficiaries */\n      0x01\n      swap1\n      dup2\n      add\n        /* \"DeadMansSwitch.sol\":8647:8698  benefactors[msg.sender].beneficiaries[_beneficiary] */\n      swap1\n      swap3\n      mstore\n      dup3\n      keccak256\n        /* \"DeadMansSwitch.sol\":8647:8707  benefactors[msg.sender].beneficiaries[_beneficiary].ipfsCIDs */\n      add\n      swap1\n        /* \"DeadMansSwitch.sol\":8757:8964  for (uint256 i = 0; i < ipfsCIDs.length; i++) {... */\n    tag_164:\n        /* \"DeadMansSwitch.sol\":8781:8796  ipfsCIDs.length */\n      dup2\n      sload\n        /* \"DeadMansSwitch.sol\":8777:8796  i < ipfsCIDs.length */\n      dup2\n      lt\n        /* \"DeadMansSwitch.sol\":8757:8964  for (uint256 i = 0; i < ipfsCIDs.length; i++) {... */\n      iszero\n      tag_165\n      jumpi\n        /* \"DeadMansSwitch.sol\":8897:8905  _ipfsCID */\n      dup3\n        /* \"DeadMansSwitch.sol\":8880:8906  abi.encodePacked(_ipfsCID) */\n      add(0x20, mload(0x40))\n      tag_167\n      swap2\n      swap1\n      tag_168\n      jump\t// in\n    tag_167:\n      mload(0x40)\n      0x20\n      dup2\n      dup4\n      sub\n      sub\n      dup2\n      mstore\n      swap1\n      0x40\n      mstore\n        /* \"DeadMansSwitch.sol\":8870:8907  keccak256(abi.encodePacked(_ipfsCID)) */\n      dup1\n      mload\n      swap1\n      0x20\n      add\n      keccak256\n        /* \"DeadMansSwitch.sol\":8853:8861  ipfsCIDs */\n      dup3\n        /* \"DeadMansSwitch.sol\":8862:8863  i */\n      dup3\n        /* \"DeadMansSwitch.sol\":8853:8864  ipfsCIDs[i] */\n      dup2\n      sload\n      dup2\n      lt\n      tag_170\n      jumpi\n      tag_170\n      tag_132\n      jump\t// in\n    tag_170:\n      swap1\n      0x00\n      mstore\n      keccak256(0x00, 0x20)\n      add\n        /* \"DeadMansSwitch.sol\":8836:8865  abi.encodePacked(ipfsCIDs[i]) */\n      add(0x20, mload(0x40))\n      tag_172\n      swap2\n      swap1\n      tag_173\n      jump\t// in\n    tag_172:\n      mload(0x40)\n      0x20\n      dup2\n      dup4\n      sub\n      sub\n      dup2\n      mstore\n      swap1\n      0x40\n      mstore\n        /* \"DeadMansSwitch.sol\":8826:8866  keccak256(abi.encodePacked(ipfsCIDs[i])) */\n      dup1\n      mload\n      swap1\n      0x20\n      add\n      keccak256\n        /* \"DeadMansSwitch.sol\":8826:8907  keccak256(abi.encodePacked(ipfsCIDs[i])) != keccak256(abi.encodePacked(_ipfsCID)) */\n      sub\n        /* \"DeadMansSwitch.sol\":8818:8952  require(keccak256(abi.encodePacked(ipfsCIDs[i])) != keccak256(abi.encodePacked(_ipfsCID)), \"CID already assigned to this beneficiary\") */\n      tag_174\n      jumpi\n      mload(0x40)\n      shl(0xe5, 0x461bcd)\n      dup2\n      mstore\n        /* \"#utility.yul\":11815:11817   */\n      0x20\n        /* \"DeadMansSwitch.sol\":8818:8952  require(keccak256(abi.encodePacked(ipfsCIDs[i])) != keccak256(abi.encodePacked(_ipfsCID)), \"CID already assigned to this beneficiary\") */\n      0x04\n      dup3\n      add\n        /* \"#utility.yul\":11797:11818   */\n      mstore\n        /* \"#utility.yul\":11854:11856   */\n      0x28\n        /* \"#utility.yul\":11834:11852   */\n      0x24\n      dup3\n      add\n        /* \"#utility.yul\":11827:11857   */\n      mstore\n        /* \"#utility.yul\":11893:11927   */\n      0x43494420616c72656164792061737369676e656420746f20746869732062656e\n        /* \"#utility.yul\":11873:11891   */\n      0x44\n      dup3\n      add\n        /* \"#utility.yul\":11866:11928   */\n      mstore\n        /* \"#utility.yul\":11964:11974   */\n      0x6566696369617279000000000000000000000000000000000000000000000000\n        /* \"#utility.yul\":11944:11962   */\n      0x64\n      dup3\n      add\n        /* \"#utility.yul\":11937:11975   */\n      mstore\n        /* \"#utility.yul\":11992:12011   */\n      0x84\n      add\n        /* \"DeadMansSwitch.sol\":8818:8952  require(keccak256(abi.encodePacked(ipfsCIDs[i])) != keccak256(abi.encodePacked(_ipfsCID)), \"CID already assigned to this beneficiary\") */\n      tag_111\n        /* \"#utility.yul\":11613:12017   */\n      jump\n        /* \"DeadMansSwitch.sol\":8818:8952  require(keccak256(abi.encodePacked(ipfsCIDs[i])) != keccak256(abi.encodePacked(_ipfsCID)), \"CID already assigned to this beneficiary\") */\n    tag_174:\n        /* \"DeadMansSwitch.sol\":8798:8801  i++ */\n      dup1\n      tag_177\n      dup2\n      tag_141\n      jump\t// in\n    tag_177:\n      swap2\n      pop\n      pop\n        /* \"DeadMansSwitch.sol\":8757:8964  for (uint256 i = 0; i < ipfsCIDs.length; i++) {... */\n      jump(tag_164)\n    tag_165:\n      pop\n        /* \"DeadMansSwitch.sol\":9041:9051  msg.sender */\n      caller\n        /* \"DeadMansSwitch.sol\":9029:9040  benefactors */\n      0x00\n        /* \"DeadMansSwitch.sol\":9029:9052  benefactors[msg.sender] */\n      swap1\n      dup2\n      mstore\n      0x20\n      dup2\n      dup2\n      mstore\n      0x40\n      dup1\n      dup4\n      keccak256\n      sub(shl(0xa0, 0x01), 0x01)\n        /* \"DeadMansSwitch.sol\":9029:9080  benefactors[msg.sender].beneficiaries[_beneficiary] */\n      dup8\n      and\n      dup5\n      mstore\n        /* \"DeadMansSwitch.sol\":9029:9066  benefactors[msg.sender].beneficiaries */\n      0x01\n      swap1\n      dup2\n      add\n        /* \"DeadMansSwitch.sol\":9029:9080  benefactors[msg.sender].beneficiaries[_beneficiary] */\n      dup4\n      mstore\n      swap1\n      dup4\n      keccak256\n        /* \"DeadMansSwitch.sol\":9029:9089  benefactors[msg.sender].beneficiaries[_beneficiary].ipfsCIDs */\n      dup2\n      add\n        /* \"DeadMansSwitch.sol\":9029:9104  benefactors[msg.sender].beneficiaries[_beneficiary].ipfsCIDs.push(_ipfsCID) */\n      dup1\n      sload\n      swap2\n      dup3\n      add\n      dup2\n      sstore\n      dup4\n      mstore\n      swap2\n      keccak256\n      add\n      tag_179\n        /* \"DeadMansSwitch.sol\":9095:9103  _ipfsCID */\n      dup4\n        /* \"DeadMansSwitch.sol\":9029:9104  benefactors[msg.sender].beneficiaries[_beneficiary].ipfsCIDs.push(_ipfsCID) */\n      dup3\n      tag_152\n      jump\t// in\n    tag_179:\n      pop\n        /* \"DeadMansSwitch.sol\":9144:9156  _beneficiary */\n      dup3\n      sub(shl(0xa0, 0x01), 0x01)\n        /* \"DeadMansSwitch.sol\":9120:9167  IpfsCIDAdded(msg.sender,_beneficiary, _ipfsCID) */\n      and\n        /* \"DeadMansSwitch.sol\":9133:9143  msg.sender */\n      caller\n      sub(shl(0xa0, 0x01), 0x01)\n        /* \"DeadMansSwitch.sol\":9120:9167  IpfsCIDAdded(msg.sender,_beneficiary, _ipfsCID) */\n      and\n      0xa1bb52b874769d5c17cde30e708e8f7180bb949f70e77caf0da68d25f9a1a510\n        /* \"DeadMansSwitch.sol\":9158:9166  _ipfsCID */\n      dup5\n        /* \"DeadMansSwitch.sol\":9120:9167  IpfsCIDAdded(msg.sender,_beneficiary, _ipfsCID) */\n      mload(0x40)\n      tag_153\n      swap2\n      swap1\n      tag_74\n      jump\t// in\n        /* \"DeadMansSwitch.sol\":7882:8211  function addBeneficiary(address _beneficiary) external onlyBenefactor {... */\n    tag_63:\n        /* \"DeadMansSwitch.sol\":2418:2428  msg.sender */\n      caller\n        /* \"DeadMansSwitch.sol\":2406:2417  benefactors */\n      0x00\n        /* \"DeadMansSwitch.sol\":2406:2429  benefactors[msg.sender] */\n      swap1\n      dup2\n      mstore\n      0x20\n      dup2\n      swap1\n      mstore\n      0x40\n      swap1\n      keccak256\n        /* \"DeadMansSwitch.sol\":2406:2436  benefactors[msg.sender].exists */\n      sload\n      0xff\n      and\n        /* \"DeadMansSwitch.sol\":2406:2471  benefactors[msg.sender].exists && benefactors[msg.sender].isAlive */\n      dup1\n      iszero\n      tag_182\n      jumpi\n      pop\n        /* \"DeadMansSwitch.sol\":2452:2462  msg.sender */\n      caller\n        /* \"DeadMansSwitch.sol\":2440:2451  benefactors */\n      0x00\n        /* \"DeadMansSwitch.sol\":2440:2463  benefactors[msg.sender] */\n      swap1\n      dup2\n      mstore\n      0x20\n      dup2\n      swap1\n      mstore\n      0x40\n      swap1\n      keccak256\n        /* \"DeadMansSwitch.sol\":2440:2471  benefactors[msg.sender].isAlive */\n      0x04\n      add\n      sload\n      0x0100\n      swap1\n      div\n      0xff\n      and\n        /* \"DeadMansSwitch.sol\":2406:2471  benefactors[msg.sender].exists && benefactors[msg.sender].isAlive */\n    tag_182:\n        /* \"DeadMansSwitch.sol\":2398:2498  require(benefactors[msg.sender].exists && benefactors[msg.sender].isAlive, \"Not a valid benefactor\") */\n      tag_183\n      jumpi\n      mload(0x40)\n      shl(0xe5, 0x461bcd)\n      dup2\n      mstore\n        /* \"#utility.yul\":9973:9975   */\n      0x20\n        /* \"DeadMansSwitch.sol\":2398:2498  require(benefactors[msg.sender].exists && benefactors[msg.sender].isAlive, \"Not a valid benefactor\") */\n      0x04\n      dup3\n      add\n        /* \"#utility.yul\":9955:9976   */\n      mstore\n        /* \"#utility.yul\":10012:10014   */\n      0x16\n        /* \"#utility.yul\":9992:10010   */\n      0x24\n      dup3\n      add\n        /* \"#utility.yul\":9985:10015   */\n      mstore\n      shl(0x51, 0x2737ba1030903b30b634b2103132b732b330b1ba37b9)\n        /* \"#utility.yul\":10031:10049   */\n      0x44\n      dup3\n      add\n        /* \"#utility.yul\":10024:10076   */\n      mstore\n        /* \"#utility.yul\":10093:10111   */\n      0x64\n      add\n        /* \"DeadMansSwitch.sol\":2398:2498  require(benefactors[msg.sender].exists && benefactors[msg.sender].isAlive, \"Not a valid benefactor\") */\n      tag_111\n        /* \"#utility.yul\":9771:10117   */\n      jump\n        /* \"DeadMansSwitch.sol\":2398:2498  require(benefactors[msg.sender].exists && benefactors[msg.sender].isAlive, \"Not a valid benefactor\") */\n    tag_183:\n        /* \"DeadMansSwitch.sol\":7972:8010  isBeneficiary(msg.sender,_beneficiary) */\n      tag_186\n        /* \"DeadMansSwitch.sol\":7986:7996  msg.sender */\n      caller\n        /* \"DeadMansSwitch.sol\":7997:8009  _beneficiary */\n      dup3\n        /* \"DeadMansSwitch.sol\":7972:7985  isBeneficiary */\n      tag_44\n        /* \"DeadMansSwitch.sol\":7972:8010  isBeneficiary(msg.sender,_beneficiary) */\n      jump\t// in\n    tag_186:\n        /* \"DeadMansSwitch.sol\":7971:8010  !isBeneficiary(msg.sender,_beneficiary) */\n      iszero\n        /* \"DeadMansSwitch.sol\":7963:8041  require(!isBeneficiary(msg.sender,_beneficiary), \"Beneficiary already exists\") */\n      tag_187\n      jumpi\n      mload(0x40)\n      shl(0xe5, 0x461bcd)\n      dup2\n      mstore\n        /* \"#utility.yul\":12224:12226   */\n      0x20\n        /* \"DeadMansSwitch.sol\":7963:8041  require(!isBeneficiary(msg.sender,_beneficiary), \"Beneficiary already exists\") */\n      0x04\n      dup3\n      add\n        /* \"#utility.yul\":12206:12227   */\n      mstore\n        /* \"#utility.yul\":12263:12265   */\n      0x1a\n        /* \"#utility.yul\":12243:12261   */\n      0x24\n      dup3\n      add\n        /* \"#utility.yul\":12236:12266   */\n      mstore\n        /* \"#utility.yul\":12302:12330   */\n      0x42656e656669636961727920616c726561647920657869737473000000000000\n        /* \"#utility.yul\":12282:12300   */\n      0x44\n      dup3\n      add\n        /* \"#utility.yul\":12275:12331   */\n      mstore\n        /* \"#utility.yul\":12348:12366   */\n      0x64\n      add\n        /* \"DeadMansSwitch.sol\":7963:8041  require(!isBeneficiary(msg.sender,_beneficiary), \"Beneficiary already exists\") */\n      tag_111\n        /* \"#utility.yul\":12022:12372   */\n      jump\n        /* \"DeadMansSwitch.sol\":7963:8041  require(!isBeneficiary(msg.sender,_beneficiary), \"Beneficiary already exists\") */\n    tag_187:\n        /* \"DeadMansSwitch.sol\":8106:8146  Beneficiary(true, new string[](0),\"\",\"\") */\n      0x40\n      dup1\n      mload\n      0x80\n      dup2\n      add\n      dup3\n      mstore\n        /* \"DeadMansSwitch.sol\":8118:8122  true */\n      0x01\n        /* \"DeadMansSwitch.sol\":8106:8146  Beneficiary(true, new string[](0),\"\",\"\") */\n      dup2\n      mstore\n        /* \"DeadMansSwitch.sol\":8124:8139  new string[](0) */\n      dup2\n      mload\n      0x00\n      dup1\n      dup3\n      mstore\n        /* \"DeadMansSwitch.sol\":8106:8146  Beneficiary(true, new string[](0),\"\",\"\") */\n      0x20\n        /* \"DeadMansSwitch.sol\":8124:8139  new string[](0) */\n      dup3\n      dup2\n      add\n      swap1\n      swap5\n      mstore\n        /* \"DeadMansSwitch.sol\":8106:8146  Beneficiary(true, new string[](0),\"\",\"\") */\n      swap2\n      swap3\n      dup4\n      add\n      swap2\n        /* \"DeadMansSwitch.sol\":8124:8139  new string[](0) */\n      jump(tag_192)\n    tag_193:\n      0x60\n      dup2\n      mstore\n      0x20\n      add\n      swap1\n      0x01\n      swap1\n      sub\n      swap1\n      dup2\n      tag_193\n      jumpi\n      swap1\n      pop\n    tag_192:\n      pop\n        /* \"DeadMansSwitch.sol\":8106:8146  Beneficiary(true, new string[](0),\"\",\"\") */\n      dup2\n      mstore\n      0x40\n      dup1\n      mload\n      0x20\n      dup1\n      dup3\n      add\n      dup4\n      mstore\n      0x00\n      dup1\n      dup4\n      mstore\n      dup2\n      dup6\n      add\n      swap3\n      swap1\n      swap3\n      mstore\n      dup3\n      mload\n      dup1\n      dup3\n      add\n      dup5\n      mstore\n      dup3\n      dup2\n      mstore\n      swap4\n      dup4\n      add\n      swap4\n      swap1\n      swap4\n      mstore\n        /* \"DeadMansSwitch.sol\":8064:8074  msg.sender */\n      caller\n        /* \"DeadMansSwitch.sol\":8052:8075  benefactors[msg.sender] */\n      dup2\n      mstore\n      dup1\n      dup4\n      mstore\n      dup2\n      dup2\n      keccak256\n      sub(shl(0xa0, 0x01), 0x01)\n        /* \"DeadMansSwitch.sol\":8052:8103  benefactors[msg.sender].beneficiaries[_beneficiary] */\n      dup7\n      and\n      dup3\n      mstore\n        /* \"DeadMansSwitch.sol\":8052:8089  benefactors[msg.sender].beneficiaries */\n      0x01\n      swap1\n      dup2\n      add\n        /* \"DeadMansSwitch.sol\":8052:8103  benefactors[msg.sender].beneficiaries[_beneficiary] */\n      dup5\n      mstore\n      swap2\n      swap1\n      keccak256\n        /* \"DeadMansSwitch.sol\":8052:8146  benefactors[msg.sender].beneficiaries[_beneficiary] = Beneficiary(true, new string[](0),\"\",\"\") */\n      dup4\n      mload\n      dup2\n      sload\n      not(0xff)\n      and\n      swap1\n      iszero\n      iszero\n      or\n      dup2\n      sstore\n      dup4\n      dup4\n      add\n      mload\n      dup1\n      mload\n        /* \"DeadMansSwitch.sol\":8052:8103  benefactors[msg.sender].beneficiaries[_beneficiary] */\n      swap2\n      swap4\n        /* \"DeadMansSwitch.sol\":8052:8146  benefactors[msg.sender].beneficiaries[_beneficiary] = Beneficiary(true, new string[](0),\"\",\"\") */\n      tag_194\n      swap4\n      dup6\n      add\n      swap3\n      swap2\n      add\n      swap1\n      tag_195\n      jump\t// in\n    tag_194:\n      pop\n      0x40\n      dup3\n      add\n      mload\n      0x02\n      dup3\n      add\n      swap1\n      tag_196\n      swap1\n      dup3\n      tag_152\n      jump\t// in\n    tag_196:\n      pop\n      0x60\n      dup3\n      add\n      mload\n      0x03\n      dup3\n      add\n      swap1\n      tag_197\n      swap1\n      dup3\n      tag_152\n      jump\t// in\n    tag_197:\n      pop\n      pop\n        /* \"DeadMansSwitch.sol\":8162:8203  BeneficiaryAdded(msg.sender,_beneficiary) */\n      mload(0x40)\n      sub(shl(0xa0, 0x01), 0x01)\n      dup4\n      and\n      swap2\n      pop\n        /* \"DeadMansSwitch.sol\":8179:8189  msg.sender */\n      caller\n      swap1\n        /* \"DeadMansSwitch.sol\":8162:8203  BeneficiaryAdded(msg.sender,_beneficiary) */\n      0xbb39c36a7502b7256e1a687254146a9a2ea7b146c77cb9e40eb0e2b8793781e1\n      swap1\n      0x00\n      swap1\n      log3\n        /* \"DeadMansSwitch.sol\":7882:8211  function addBeneficiary(address _beneficiary) external onlyBenefactor {... */\n      pop\n      jump\t// out\n        /* \"DeadMansSwitch.sol\":7418:7710  function removeBeneficiary(address _beneficiary) external onlyBenefactor {... */\n    tag_66:\n        /* \"DeadMansSwitch.sol\":2418:2428  msg.sender */\n      caller\n        /* \"DeadMansSwitch.sol\":2406:2417  benefactors */\n      0x00\n        /* \"DeadMansSwitch.sol\":2406:2429  benefactors[msg.sender] */\n      swap1\n      dup2\n      mstore\n      0x20\n      dup2\n      swap1\n      mstore\n      0x40\n      swap1\n      keccak256\n        /* \"DeadMansSwitch.sol\":2406:2436  benefactors[msg.sender].exists */\n      sload\n      0xff\n      and\n        /* \"DeadMansSwitch.sol\":2406:2471  benefactors[msg.sender].exists && benefactors[msg.sender].isAlive */\n      dup1\n      iszero\n      tag_199\n      jumpi\n      pop\n        /* \"DeadMansSwitch.sol\":2452:2462  msg.sender */\n      caller\n        /* \"DeadMansSwitch.sol\":2440:2451  benefactors */\n      0x00\n        /* \"DeadMansSwitch.sol\":2440:2463  benefactors[msg.sender] */\n      swap1\n      dup2\n      mstore\n      0x20\n      dup2\n      swap1\n      mstore\n      0x40\n      swap1\n      keccak256\n        /* \"DeadMansSwitch.sol\":2440:2471  benefactors[msg.sender].isAlive */\n      0x04\n      add\n      sload\n      0x0100\n      swap1\n      div\n      0xff\n      and\n        /* \"DeadMansSwitch.sol\":2406:2471  benefactors[msg.sender].exists && benefactors[msg.sender].isAlive */\n    tag_199:\n        /* \"DeadMansSwitch.sol\":2398:2498  require(benefactors[msg.sender].exists && benefactors[msg.sender].isAlive, \"Not a valid benefactor\") */\n      tag_200\n      jumpi\n      mload(0x40)\n      shl(0xe5, 0x461bcd)\n      dup2\n      mstore\n        /* \"#utility.yul\":9973:9975   */\n      0x20\n        /* \"DeadMansSwitch.sol\":2398:2498  require(benefactors[msg.sender].exists && benefactors[msg.sender].isAlive, \"Not a valid benefactor\") */\n      0x04\n      dup3\n      add\n        /* \"#utility.yul\":9955:9976   */\n      mstore\n        /* \"#utility.yul\":10012:10014   */\n      0x16\n        /* \"#utility.yul\":9992:10010   */\n      0x24\n      dup3\n      add\n        /* \"#utility.yul\":9985:10015   */\n      mstore\n      shl(0x51, 0x2737ba1030903b30b634b2103132b732b330b1ba37b9)\n        /* \"#utility.yul\":10031:10049   */\n      0x44\n      dup3\n      add\n        /* \"#utility.yul\":10024:10076   */\n      mstore\n        /* \"#utility.yul\":10093:10111   */\n      0x64\n      add\n        /* \"DeadMansSwitch.sol\":2398:2498  require(benefactors[msg.sender].exists && benefactors[msg.sender].isAlive, \"Not a valid benefactor\") */\n      tag_111\n        /* \"#utility.yul\":9771:10117   */\n      jump\n        /* \"DeadMansSwitch.sol\":2398:2498  require(benefactors[msg.sender].exists && benefactors[msg.sender].isAlive, \"Not a valid benefactor\") */\n    tag_200:\n        /* \"DeadMansSwitch.sol\":7510:7548  isBeneficiary(msg.sender,_beneficiary) */\n      tag_203\n        /* \"DeadMansSwitch.sol\":7524:7534  msg.sender */\n      caller\n        /* \"DeadMansSwitch.sol\":7535:7547  _beneficiary */\n      dup3\n        /* \"DeadMansSwitch.sol\":7510:7523  isBeneficiary */\n      tag_44\n        /* \"DeadMansSwitch.sol\":7510:7548  isBeneficiary(msg.sender,_beneficiary) */\n      jump\t// in\n    tag_203:\n        /* \"DeadMansSwitch.sol\":7502:7574  require(isBeneficiary(msg.sender,_beneficiary), \"Beneficiary not found\") */\n      tag_204\n      jumpi\n      mload(0x40)\n      shl(0xe5, 0x461bcd)\n      dup2\n      mstore\n        /* \"#utility.yul\":10324:10326   */\n      0x20\n        /* \"DeadMansSwitch.sol\":7502:7574  require(isBeneficiary(msg.sender,_beneficiary), \"Beneficiary not found\") */\n      0x04\n      dup3\n      add\n        /* \"#utility.yul\":10306:10327   */\n      mstore\n        /* \"#utility.yul\":10363:10365   */\n      0x15\n        /* \"#utility.yul\":10343:10361   */\n      0x24\n      dup3\n      add\n        /* \"#utility.yul\":10336:10366   */\n      mstore\n      shl(0x5a, 0x10995b99599a58da585c9e481b9bdd08199bdd5b99)\n        /* \"#utility.yul\":10382:10400   */\n      0x44\n      dup3\n      add\n        /* \"#utility.yul\":10375:10426   */\n      mstore\n        /* \"#utility.yul\":10443:10461   */\n      0x64\n      add\n        /* \"DeadMansSwitch.sol\":7502:7574  require(isBeneficiary(msg.sender,_beneficiary), \"Beneficiary not found\") */\n      tag_111\n        /* \"#utility.yul\":10122:10467   */\n      jump\n        /* \"DeadMansSwitch.sol\":7502:7574  require(isBeneficiary(msg.sender,_beneficiary), \"Beneficiary not found\") */\n    tag_204:\n        /* \"DeadMansSwitch.sol\":7604:7614  msg.sender */\n      caller\n        /* \"DeadMansSwitch.sol\":7592:7603  benefactors */\n      0x00\n        /* \"DeadMansSwitch.sol\":7592:7615  benefactors[msg.sender] */\n      swap1\n      dup2\n      mstore\n      0x20\n      dup2\n      dup2\n      mstore\n      0x40\n      dup1\n      dup4\n      keccak256\n      sub(shl(0xa0, 0x01), 0x01)\n        /* \"DeadMansSwitch.sol\":7592:7643  benefactors[msg.sender].beneficiaries[_beneficiary] */\n      dup6\n      and\n      dup5\n      mstore\n        /* \"DeadMansSwitch.sol\":7592:7629  benefactors[msg.sender].beneficiaries */\n      0x01\n      swap1\n      dup2\n      add\n        /* \"DeadMansSwitch.sol\":7592:7643  benefactors[msg.sender].beneficiaries[_beneficiary] */\n      swap1\n      swap3\n      mstore\n      dup3\n      keccak256\n        /* \"DeadMansSwitch.sol\":7585:7643  delete benefactors[msg.sender].beneficiaries[_beneficiary] */\n      dup1\n      sload\n      not(0xff)\n      and\n      dup2\n      sstore\n        /* \"DeadMansSwitch.sol\":7592:7643  benefactors[msg.sender].beneficiaries[_beneficiary] */\n      swap2\n        /* \"DeadMansSwitch.sol\":7592:7603  benefactors */\n      swap1\n        /* \"DeadMansSwitch.sol\":7585:7643  delete benefactors[msg.sender].beneficiaries[_beneficiary] */\n      tag_206\n      swap1\n      dup4\n      add\n        /* \"DeadMansSwitch.sol\":7592:7603  benefactors */\n      dup3\n        /* \"DeadMansSwitch.sol\":7585:7643  delete benefactors[msg.sender].beneficiaries[_beneficiary] */\n      tag_207\n      jump\t// in\n    tag_206:\n      tag_208\n      0x02\n      dup4\n      add\n      0x00\n      tag_209\n      jump\t// in\n    tag_208:\n      tag_210\n      0x03\n      dup4\n      add\n      0x00\n      tag_209\n      jump\t// in\n    tag_210:\n      pop\n      pop\n        /* \"DeadMansSwitch.sol\":7659:7702  BeneficiaryRemoved(msg.sender,_beneficiary) */\n      mload(0x40)\n      sub(shl(0xa0, 0x01), 0x01)\n      dup3\n      and\n      swap1\n        /* \"DeadMansSwitch.sol\":7678:7688  msg.sender */\n      caller\n      swap1\n        /* \"DeadMansSwitch.sol\":7659:7702  BeneficiaryRemoved(msg.sender,_beneficiary) */\n      0x1a6590bd0cabbfcc7c86bef99e1034054e179905cfcc294598fcd426c0922442\n      swap1\n      0x00\n      swap1\n      log3\n        /* \"DeadMansSwitch.sol\":7418:7710  function removeBeneficiary(address _beneficiary) external onlyBenefactor {... */\n      pop\n      jump\t// out\n        /* \"DeadMansSwitch.sol\":9403:10318  function removeIpfsCID(address _beneficiary, string memory _ipfsCID) external onlyBenefactor {... */\n    tag_69:\n        /* \"DeadMansSwitch.sol\":2418:2428  msg.sender */\n      caller\n        /* \"DeadMansSwitch.sol\":2406:2417  benefactors */\n      0x00\n        /* \"DeadMansSwitch.sol\":2406:2429  benefactors[msg.sender] */\n      swap1\n      dup2\n      mstore\n      0x20\n      dup2\n      swap1\n      mstore\n      0x40\n      swap1\n      keccak256\n        /* \"DeadMansSwitch.sol\":2406:2436  benefactors[msg.sender].exists */\n      sload\n      0xff\n      and\n        /* \"DeadMansSwitch.sol\":2406:2471  benefactors[msg.sender].exists && benefactors[msg.sender].isAlive */\n      dup1\n      iszero\n      tag_212\n      jumpi\n      pop\n        /* \"DeadMansSwitch.sol\":2452:2462  msg.sender */\n      caller\n        /* \"DeadMansSwitch.sol\":2440:2451  benefactors */\n      0x00\n        /* \"DeadMansSwitch.sol\":2440:2463  benefactors[msg.sender] */\n      swap1\n      dup2\n      mstore\n      0x20\n      dup2\n      swap1\n      mstore\n      0x40\n      swap1\n      keccak256\n        /* \"DeadMansSwitch.sol\":2440:2471  benefactors[msg.sender].isAlive */\n      0x04\n      add\n      sload\n      0x0100\n      swap1\n      div\n      0xff\n      and\n        /* \"DeadMansSwitch.sol\":2406:2471  benefactors[msg.sender].exists && benefactors[msg.sender].isAlive */\n    tag_212:\n        /* \"DeadMansSwitch.sol\":2398:2498  require(benefactors[msg.sender].exists && benefactors[msg.sender].isAlive, \"Not a valid benefactor\") */\n      tag_213\n      jumpi\n      mload(0x40)\n      shl(0xe5, 0x461bcd)\n      dup2\n      mstore\n        /* \"#utility.yul\":9973:9975   */\n      0x20\n        /* \"DeadMansSwitch.sol\":2398:2498  require(benefactors[msg.sender].exists && benefactors[msg.sender].isAlive, \"Not a valid benefactor\") */\n      0x04\n      dup3\n      add\n        /* \"#utility.yul\":9955:9976   */\n      mstore\n        /* \"#utility.yul\":10012:10014   */\n      0x16\n        /* \"#utility.yul\":9992:10010   */\n      0x24\n      dup3\n      add\n        /* \"#utility.yul\":9985:10015   */\n      mstore\n      shl(0x51, 0x2737ba1030903b30b634b2103132b732b330b1ba37b9)\n        /* \"#utility.yul\":10031:10049   */\n      0x44\n      dup3\n      add\n        /* \"#utility.yul\":10024:10076   */\n      mstore\n        /* \"#utility.yul\":10093:10111   */\n      0x64\n      add\n        /* \"DeadMansSwitch.sol\":2398:2498  require(benefactors[msg.sender].exists && benefactors[msg.sender].isAlive, \"Not a valid benefactor\") */\n      tag_111\n        /* \"#utility.yul\":9771:10117   */\n      jump\n        /* \"DeadMansSwitch.sol\":2398:2498  require(benefactors[msg.sender].exists && benefactors[msg.sender].isAlive, \"Not a valid benefactor\") */\n    tag_213:\n        /* \"DeadMansSwitch.sol\":9515:9554  isBeneficiary(msg.sender, _beneficiary) */\n      tag_216\n        /* \"DeadMansSwitch.sol\":9529:9539  msg.sender */\n      caller\n        /* \"DeadMansSwitch.sol\":9541:9553  _beneficiary */\n      dup4\n        /* \"DeadMansSwitch.sol\":9515:9528  isBeneficiary */\n      tag_44\n        /* \"DeadMansSwitch.sol\":9515:9554  isBeneficiary(msg.sender, _beneficiary) */\n      jump\t// in\n    tag_216:\n        /* \"DeadMansSwitch.sol\":9507:9580  require(isBeneficiary(msg.sender, _beneficiary), \"Beneficiary not found\") */\n      tag_217\n      jumpi\n      mload(0x40)\n      shl(0xe5, 0x461bcd)\n      dup2\n      mstore\n        /* \"#utility.yul\":10324:10326   */\n      0x20\n        /* \"DeadMansSwitch.sol\":9507:9580  require(isBeneficiary(msg.sender, _beneficiary), \"Beneficiary not found\") */\n      0x04\n      dup3\n      add\n        /* \"#utility.yul\":10306:10327   */\n      mstore\n        /* \"#utility.yul\":10363:10365   */\n      0x15\n        /* \"#utility.yul\":10343:10361   */\n      0x24\n      dup3\n      add\n        /* \"#utility.yul\":10336:10366   */\n      mstore\n      shl(0x5a, 0x10995b99599a58da585c9e481b9bdd08199bdd5b99)\n        /* \"#utility.yul\":10382:10400   */\n      0x44\n      dup3\n      add\n        /* \"#utility.yul\":10375:10426   */\n      mstore\n        /* \"#utility.yul\":10443:10461   */\n      0x64\n      add\n        /* \"DeadMansSwitch.sol\":9507:9580  require(isBeneficiary(msg.sender, _beneficiary), \"Beneficiary not found\") */\n      tag_111\n        /* \"#utility.yul\":10122:10467   */\n      jump\n        /* \"DeadMansSwitch.sol\":9507:9580  require(isBeneficiary(msg.sender, _beneficiary), \"Beneficiary not found\") */\n    tag_217:\n        /* \"DeadMansSwitch.sol\":9633:9643  msg.sender */\n      caller\n        /* \"DeadMansSwitch.sol\":9593:9618  string[] storage ipfsCIDs */\n      0x00\n        /* \"DeadMansSwitch.sol\":9621:9644  benefactors[msg.sender] */\n      swap1\n      dup2\n      mstore\n      0x20\n      dup2\n      dup2\n      mstore\n      0x40\n      dup1\n      dup4\n      keccak256\n      sub(shl(0xa0, 0x01), 0x01)\n        /* \"DeadMansSwitch.sol\":9621:9672  benefactors[msg.sender].beneficiaries[_beneficiary] */\n      dup7\n      and\n      dup5\n      mstore\n        /* \"DeadMansSwitch.sol\":9621:9658  benefactors[msg.sender].beneficiaries */\n      0x01\n      swap1\n      dup2\n      add\n        /* \"DeadMansSwitch.sol\":9621:9672  benefactors[msg.sender].beneficiaries[_beneficiary] */\n      swap1\n      swap3\n      mstore\n      dup3\n      keccak256\n        /* \"DeadMansSwitch.sol\":9621:9681  benefactors[msg.sender].beneficiaries[_beneficiary].ipfsCIDs */\n      add\n      swap1\n        /* \"DeadMansSwitch.sol\":9738:10228  for (uint256 i = 0; i < ipfsCIDs.length; i++) {... */\n    tag_219:\n        /* \"DeadMansSwitch.sol\":9762:9777  ipfsCIDs.length */\n      dup2\n      sload\n        /* \"DeadMansSwitch.sol\":9758:9777  i < ipfsCIDs.length */\n      dup2\n      lt\n        /* \"DeadMansSwitch.sol\":9738:10228  for (uint256 i = 0; i < ipfsCIDs.length; i++) {... */\n      iszero\n      tag_220\n      jumpi\n        /* \"DeadMansSwitch.sol\":9874:9882  _ipfsCID */\n      dup3\n        /* \"DeadMansSwitch.sol\":9857:9883  abi.encodePacked(_ipfsCID) */\n      add(0x20, mload(0x40))\n      tag_222\n      swap2\n      swap1\n      tag_168\n      jump\t// in\n    tag_222:\n      mload(0x40)\n      0x20\n      dup2\n      dup4\n      sub\n      sub\n      dup2\n      mstore\n      swap1\n      0x40\n      mstore\n        /* \"DeadMansSwitch.sol\":9847:9884  keccak256(abi.encodePacked(_ipfsCID)) */\n      dup1\n      mload\n      swap1\n      0x20\n      add\n      keccak256\n        /* \"DeadMansSwitch.sol\":9830:9838  ipfsCIDs */\n      dup3\n        /* \"DeadMansSwitch.sol\":9839:9840  i */\n      dup3\n        /* \"DeadMansSwitch.sol\":9830:9841  ipfsCIDs[i] */\n      dup2\n      sload\n      dup2\n      lt\n      tag_224\n      jumpi\n      tag_224\n      tag_132\n      jump\t// in\n    tag_224:\n      swap1\n      0x00\n      mstore\n      keccak256(0x00, 0x20)\n      add\n        /* \"DeadMansSwitch.sol\":9813:9842  abi.encodePacked(ipfsCIDs[i]) */\n      add(0x20, mload(0x40))\n      tag_226\n      swap2\n      swap1\n      tag_173\n      jump\t// in\n    tag_226:\n      mload(0x40)\n      0x20\n      dup2\n      dup4\n      sub\n      sub\n      dup2\n      mstore\n      swap1\n      0x40\n      mstore\n        /* \"DeadMansSwitch.sol\":9803:9843  keccak256(abi.encodePacked(ipfsCIDs[i])) */\n      dup1\n      mload\n      swap1\n      0x20\n      add\n      keccak256\n        /* \"DeadMansSwitch.sol\":9803:9884  keccak256(abi.encodePacked(ipfsCIDs[i])) == keccak256(abi.encodePacked(_ipfsCID)) */\n      sub\n        /* \"DeadMansSwitch.sol\":9799:10217  if (keccak256(abi.encodePacked(ipfsCIDs[i])) == keccak256(abi.encodePacked(_ipfsCID))) {... */\n      tag_227\n      jumpi\n        /* \"DeadMansSwitch.sol\":9996:10011  ipfsCIDs.length */\n      dup2\n      sload\n        /* \"DeadMansSwitch.sol\":9987:9995  ipfsCIDs */\n      dup3\n      swap1\n        /* \"DeadMansSwitch.sol\":9996:10015  ipfsCIDs.length - 1 */\n      tag_228\n      swap1\n        /* \"DeadMansSwitch.sol\":10014:10015  1 */\n      0x01\n      swap1\n        /* \"DeadMansSwitch.sol\":9996:10015  ipfsCIDs.length - 1 */\n      tag_97\n      jump\t// in\n    tag_228:\n        /* \"DeadMansSwitch.sol\":9987:10016  ipfsCIDs[ipfsCIDs.length - 1] */\n      dup2\n      sload\n      dup2\n      lt\n      tag_230\n      jumpi\n      tag_230\n      tag_132\n      jump\t// in\n    tag_230:\n      swap1\n      0x00\n      mstore\n      keccak256(0x00, 0x20)\n      add\n        /* \"DeadMansSwitch.sol\":9973:9981  ipfsCIDs */\n      dup3\n        /* \"DeadMansSwitch.sol\":9982:9983  i */\n      dup3\n        /* \"DeadMansSwitch.sol\":9973:9984  ipfsCIDs[i] */\n      dup2\n      sload\n      dup2\n      lt\n      tag_233\n      jumpi\n      tag_233\n      tag_132\n      jump\t// in\n    tag_233:\n      swap1\n      0x00\n      mstore\n      keccak256(0x00, 0x20)\n      add\n        /* \"DeadMansSwitch.sol\":9973:10016  ipfsCIDs[i] = ipfsCIDs[ipfsCIDs.length - 1] */\n      swap1\n      dup2\n      tag_235\n      swap2\n      swap1\n      tag_236\n      jump\t// in\n    tag_235:\n      pop\n        /* \"DeadMansSwitch.sol\":10088:10096  ipfsCIDs */\n      dup2\n        /* \"DeadMansSwitch.sol\":10088:10102  ipfsCIDs.pop() */\n      dup1\n      sload\n      dup1\n      tag_238\n      jumpi\n      tag_238\n      tag_239\n      jump\t// in\n    tag_238:\n      0x01\n      swap1\n      sub\n      dup2\n      dup2\n      swap1\n      0x00\n      mstore\n      keccak256(0x00, 0x20)\n      add\n      0x00\n      tag_241\n      swap2\n      swap1\n      tag_209\n      jump\t// in\n    tag_241:\n      swap1\n      sstore\n        /* \"DeadMansSwitch.sol\":10153:10165  _beneficiary */\n      dup4\n      sub(shl(0xa0, 0x01), 0x01)\n        /* \"DeadMansSwitch.sol\":10126:10176  IpfsCIDRemoved(msg.sender, _beneficiary, _ipfsCID) */\n      and\n        /* \"DeadMansSwitch.sol\":10141:10151  msg.sender */\n      caller\n      sub(shl(0xa0, 0x01), 0x01)\n        /* \"DeadMansSwitch.sol\":10126:10176  IpfsCIDRemoved(msg.sender, _beneficiary, _ipfsCID) */\n      and\n      0x4c13211ce3b2d0cb3e02a662cc071d6be555042ca58d4d812b7b90e80d3250ac\n        /* \"DeadMansSwitch.sol\":10167:10175  _ipfsCID */\n      dup6\n        /* \"DeadMansSwitch.sol\":10126:10176  IpfsCIDRemoved(msg.sender, _beneficiary, _ipfsCID) */\n      mload(0x40)\n      tag_242\n      swap2\n      swap1\n      tag_74\n      jump\t// in\n    tag_242:\n      mload(0x40)\n      dup1\n      swap2\n      sub\n      swap1\n      log3\n        /* \"DeadMansSwitch.sol\":10195:10202  return; */\n      pop\n      pop\n        /* \"DeadMansSwitch.sol\":9403:10318  function removeIpfsCID(address _beneficiary, string memory _ipfsCID) external onlyBenefactor {... */\n      pop\n      pop\n      jump\t// out\n        /* \"DeadMansSwitch.sol\":9799:10217  if (keccak256(abi.encodePacked(ipfsCIDs[i])) == keccak256(abi.encodePacked(_ipfsCID))) {... */\n    tag_227:\n        /* \"DeadMansSwitch.sol\":9779:9782  i++ */\n      dup1\n      tag_243\n      dup2\n      tag_141\n      jump\t// in\n    tag_243:\n      swap2\n      pop\n      pop\n        /* \"DeadMansSwitch.sol\":9738:10228  for (uint256 i = 0; i < ipfsCIDs.length; i++) {... */\n      jump(tag_219)\n    tag_220:\n      pop\n        /* \"DeadMansSwitch.sol\":10264:10310  revert(\"CID not assigned to this beneficiary\") */\n      mload(0x40)\n      shl(0xe5, 0x461bcd)\n      dup2\n      mstore\n        /* \"#utility.yul\":14151:14153   */\n      0x20\n        /* \"DeadMansSwitch.sol\":10264:10310  revert(\"CID not assigned to this beneficiary\") */\n      0x04\n      dup3\n      add\n        /* \"#utility.yul\":14133:14154   */\n      mstore\n        /* \"#utility.yul\":14190:14192   */\n      0x24\n        /* \"#utility.yul\":14170:14188   */\n      dup1\n      dup3\n      add\n        /* \"#utility.yul\":14163:14193   */\n      mstore\n        /* \"#utility.yul\":14229:14263   */\n      0x434944206e6f742061737369676e656420746f20746869732062656e65666963\n        /* \"#utility.yul\":14209:14227   */\n      0x44\n      dup3\n      add\n        /* \"#utility.yul\":14202:14264   */\n      mstore\n      shl(0xe0, 0x69617279)\n        /* \"#utility.yul\":14280:14298   */\n      0x64\n      dup3\n      add\n        /* \"#utility.yul\":14273:14307   */\n      mstore\n        /* \"#utility.yul\":14324:14343   */\n      0x84\n      add\n        /* \"DeadMansSwitch.sol\":10264:10310  revert(\"CID not assigned to this beneficiary\") */\n      tag_111\n        /* \"#utility.yul\":13949:14349   */\n      jump\n        /* \"DeadMansSwitch.sol\":5531:5853  function getBenefactorPublicKey(address _benefactor, address _beneficiary) public view returns(string memory) {... */\n    tag_72:\n        /* \"DeadMansSwitch.sol\":5626:5639  string memory */\n      0x60\n        /* \"DeadMansSwitch.sol\":5656:5696  isBeneficiary(_benefactor, _beneficiary) */\n      tag_247\n        /* \"DeadMansSwitch.sol\":5670:5681  _benefactor */\n      dup4\n        /* \"DeadMansSwitch.sol\":5683:5695  _beneficiary */\n      dup4\n        /* \"DeadMansSwitch.sol\":5656:5669  isBeneficiary */\n      tag_44\n        /* \"DeadMansSwitch.sol\":5656:5696  isBeneficiary(_benefactor, _beneficiary) */\n      jump\t// in\n    tag_247:\n        /* \"DeadMansSwitch.sol\":5652:5846  if (isBeneficiary(_benefactor, _beneficiary)) {... */\n      iszero\n      tag_248\n      jumpi\n      sub(shl(0xa0, 0x01), 0x01)\n        /* \"DeadMansSwitch.sol\":5720:5744  benefactors[_benefactor] */\n      dup1\n      dup5\n      and\n        /* \"DeadMansSwitch.sol\":5720:5731  benefactors */\n      0x00\n        /* \"DeadMansSwitch.sol\":5720:5744  benefactors[_benefactor] */\n      swap1\n      dup2\n      mstore\n      0x20\n      dup2\n      dup2\n      mstore\n      0x40\n      dup1\n      dup4\n      keccak256\n        /* \"DeadMansSwitch.sol\":5720:5772  benefactors[_benefactor].beneficiaries[_beneficiary] */\n      swap4\n      dup7\n      and\n      dup4\n      mstore\n        /* \"DeadMansSwitch.sol\":5720:5758  benefactors[_benefactor].beneficiaries */\n      0x01\n      swap1\n      swap4\n      add\n        /* \"DeadMansSwitch.sol\":5720:5772  benefactors[_benefactor].beneficiaries[_beneficiary] */\n      swap1\n      mstore\n      keccak256\n        /* \"DeadMansSwitch.sol\":5720:5792  benefactors[_benefactor].beneficiaries[_beneficiary].benefactorPublicKey */\n      0x02\n      add\n        /* \"DeadMansSwitch.sol\":5713:5792  return benefactors[_benefactor].beneficiaries[_beneficiary].benefactorPublicKey */\n      dup1\n      sload\n      tag_249\n      swap1\n      tag_250\n      jump\t// in\n    tag_249:\n      dup1\n      0x1f\n      add\n      0x20\n      dup1\n      swap2\n      div\n      mul\n      0x20\n      add\n      mload(0x40)\n      swap1\n      dup2\n      add\n      0x40\n      mstore\n      dup1\n      swap3\n      swap2\n      swap1\n      dup2\n      dup2\n      mstore\n      0x20\n      add\n      dup3\n      dup1\n      sload\n      tag_251\n      swap1\n      tag_250\n      jump\t// in\n    tag_251:\n      dup1\n      iszero\n      tag_252\n      jumpi\n      dup1\n      0x1f\n      lt\n      tag_253\n      jumpi\n      0x0100\n      dup1\n      dup4\n      sload\n      div\n      mul\n      dup4\n      mstore\n      swap2\n      0x20\n      add\n      swap2\n      jump(tag_252)\n    tag_253:\n      dup3\n      add\n      swap2\n      swap1\n      0x00\n      mstore\n      keccak256(0x00, 0x20)\n      swap1\n    tag_254:\n      dup2\n      sload\n      dup2\n      mstore\n      swap1\n      0x01\n      add\n      swap1\n      0x20\n      add\n      dup1\n      dup4\n      gt\n      tag_254\n      jumpi\n      dup3\n      swap1\n      sub\n      0x1f\n      and\n      dup3\n      add\n      swap2\n    tag_252:\n      pop\n      pop\n      pop\n      pop\n      pop\n      swap1\n      pop\n      jump(tag_113)\n        /* \"DeadMansSwitch.sol\":5652:5846  if (isBeneficiary(_benefactor, _beneficiary)) {... */\n    tag_248:\n      pop\n        /* \"DeadMansSwitch.sol\":5825:5834  return \"\" */\n      0x40\n      dup1\n      mload\n      0x20\n      dup2\n      add\n      swap1\n      swap2\n      mstore\n      0x00\n      dup2\n      mstore\n      jump(tag_113)\n        /* \"DeadMansSwitch.sol\":10480:11266  function enableSwitch(address _benefactor) external {... */\n    tag_77:\n      sub(shl(0xa0, 0x01), 0x01)\n        /* \"DeadMansSwitch.sol\":10618:10642  benefactors[_benefactor] */\n      dup2\n      and\n        /* \"DeadMansSwitch.sol\":10618:10629  benefactors */\n      0x00\n        /* \"DeadMansSwitch.sol\":10618:10642  benefactors[_benefactor] */\n      swap1\n      dup2\n      mstore\n      0x20\n      dup2\n      dup2\n      mstore\n      0x40\n      dup1\n      dup4\n      keccak256\n        /* \"DeadMansSwitch.sol\":10657:10667  msg.sender */\n      caller\n        /* \"DeadMansSwitch.sol\":10618:10668  benefactors[_benefactor].beneficiaries[msg.sender] */\n      dup5\n      mstore\n        /* \"DeadMansSwitch.sol\":10618:10656  benefactors[_benefactor].beneficiaries */\n      0x01\n      add\n        /* \"DeadMansSwitch.sol\":10618:10668  benefactors[_benefactor].beneficiaries[msg.sender] */\n      swap1\n      swap2\n      mstore\n      swap1\n      keccak256\n        /* \"DeadMansSwitch.sol\":10618:10675  benefactors[_benefactor].beneficiaries[msg.sender].exists */\n      sload\n      0xff\n      and\n        /* \"DeadMansSwitch.sol\":10610:10703  require(benefactors[_benefactor].beneficiaries[msg.sender].exists, \"Not a valid beneficiary\") */\n      tag_257\n      jumpi\n      mload(0x40)\n      shl(0xe5, 0x461bcd)\n      dup2\n      mstore\n        /* \"#utility.yul\":14556:14558   */\n      0x20\n        /* \"DeadMansSwitch.sol\":10610:10703  require(benefactors[_benefactor].beneficiaries[msg.sender].exists, \"Not a valid beneficiary\") */\n      0x04\n      dup3\n      add\n        /* \"#utility.yul\":14538:14559   */\n      mstore\n        /* \"#utility.yul\":14595:14597   */\n      0x17\n        /* \"#utility.yul\":14575:14593   */\n      0x24\n      dup3\n      add\n        /* \"#utility.yul\":14568:14598   */\n      mstore\n        /* \"#utility.yul\":14634:14659   */\n      0x4e6f7420612076616c69642062656e6566696369617279000000000000000000\n        /* \"#utility.yul\":14614:14632   */\n      0x44\n      dup3\n      add\n        /* \"#utility.yul\":14607:14660   */\n      mstore\n        /* \"#utility.yul\":14677:14695   */\n      0x64\n      add\n        /* \"DeadMansSwitch.sol\":10610:10703  require(benefactors[_benefactor].beneficiaries[msg.sender].exists, \"Not a valid beneficiary\") */\n      tag_111\n        /* \"#utility.yul\":14354:14701   */\n      jump\n        /* \"DeadMansSwitch.sol\":10610:10703  require(benefactors[_benefactor].beneficiaries[msg.sender].exists, \"Not a valid beneficiary\") */\n    tag_257:\n      sub(shl(0xa0, 0x01), 0x01)\n        /* \"DeadMansSwitch.sol\":10719:10743  benefactors[_benefactor] */\n      dup2\n      and\n        /* \"DeadMansSwitch.sol\":10719:10730  benefactors */\n      0x00\n        /* \"DeadMansSwitch.sol\":10719:10743  benefactors[_benefactor] */\n      swap1\n      dup2\n      mstore\n      0x20\n      dup2\n      swap1\n      mstore\n      0x40\n      swap1\n      keccak256\n        /* \"DeadMansSwitch.sol\":10719:10757  benefactors[_benefactor].isSwitchedOff */\n      0x04\n      add\n      sload\n      0xff\n      and\n        /* \"DeadMansSwitch.sol\":10714:10851  if (!benefactors[_benefactor].isSwitchedOff) {... */\n      tag_260\n      jumpi\n        /* \"DeadMansSwitch.sol\":10779:10818  SwitchAlreadyOn(_benefactor,msg.sender) */\n      mload(0x40)\n        /* \"DeadMansSwitch.sol\":10807:10817  msg.sender */\n      caller\n      swap1\n      sub(shl(0xa0, 0x01), 0x01)\n        /* \"DeadMansSwitch.sol\":10779:10818  SwitchAlreadyOn(_benefactor,msg.sender) */\n      dup4\n      and\n      swap1\n      0x67c4731bdc193862f421e091d18f46df876bfe1b8b9aa97504f1d50d425b239d\n      swap1\n      0x00\n      swap1\n      log3\n        /* \"DeadMansSwitch.sol\":10480:11266  function enableSwitch(address _benefactor) external {... */\n      pop\n      jump\t// out\n        /* \"DeadMansSwitch.sol\":10714:10851  if (!benefactors[_benefactor].isSwitchedOff) {... */\n    tag_260:\n      sub(shl(0xa0, 0x01), 0x01)\n        /* \"DeadMansSwitch.sol\":10861:10885  benefactors[_benefactor] */\n      dup2\n      and\n        /* \"DeadMansSwitch.sol\":10902:10907  false */\n      0x00\n        /* \"DeadMansSwitch.sol\":10861:10885  benefactors[_benefactor] */\n      dup2\n      dup2\n      mstore\n      0x20\n      dup2\n      dup2\n      mstore\n      0x40\n      swap2\n      dup3\n      swap1\n      keccak256\n        /* \"DeadMansSwitch.sol\":10861:10899  benefactors[_benefactor].isSwitchedOff */\n      0x04\n      dup2\n      add\n        /* \"DeadMansSwitch.sol\":10861:10907  benefactors[_benefactor].isSwitchedOff = false */\n      dup1\n      sload\n      not(0xff)\n      and\n      swap1\n      sstore\n        /* \"DeadMansSwitch.sol\":11017:11032  block.timestamp */\n      timestamp\n        /* \"DeadMansSwitch.sol\":10963:11014  benefactors[_benefactor].lastBenefactorResponseTime */\n      0x03\n      dup3\n      add\n        /* \"DeadMansSwitch.sol\":10963:11032  benefactors[_benefactor].lastBenefactorResponseTime = block.timestamp */\n      sstore\n        /* \"DeadMansSwitch.sol\":11215:11257  benefactors[_benefactor].countdownDuration */\n      0x02\n      add\n      sload\n        /* \"DeadMansSwitch.sol\":11169:11258  DeadMansSwitchEnabled(_benefactor,msg.sender, benefactors[_benefactor].countdownDuration) */\n      swap2\n      mload\n        /* \"#utility.yul\":552:577   */\n      swap2\n      dup3\n      mstore\n        /* \"DeadMansSwitch.sol\":11203:11213  msg.sender */\n      caller\n      swap3\n        /* \"DeadMansSwitch.sol\":10861:10885  benefactors[_benefactor] */\n      swap2\n        /* \"DeadMansSwitch.sol\":11169:11258  DeadMansSwitchEnabled(_benefactor,msg.sender, benefactors[_benefactor].countdownDuration) */\n      0x82595752291d0261dfb9b4b0c2307021c29c34e22fe0697b4840b529dc351bc3\n      swap2\n        /* \"#utility.yul\":525:543   */\n      add\n        /* \"DeadMansSwitch.sol\":11169:11258  DeadMansSwitchEnabled(_benefactor,msg.sender, benefactors[_benefactor].countdownDuration) */\n      mload(0x40)\n      dup1\n      swap2\n      sub\n      swap1\n      log3\n        /* \"DeadMansSwitch.sol\":10480:11266  function enableSwitch(address _benefactor) external {... */\n      pop\n      jump\t// out\n        /* \"DeadMansSwitch.sol\":6386:6618  function removeBenefactor(address _benefactor) public {... */\n    tag_80:\n        /* \"DeadMansSwitch.sol\":6471:6481  msg.sender */\n      caller\n        /* \"DeadMansSwitch.sol\":6459:6470  benefactors */\n      0x00\n        /* \"DeadMansSwitch.sol\":6459:6482  benefactors[msg.sender] */\n      swap1\n      dup2\n      mstore\n      0x20\n      dup2\n      swap1\n      mstore\n      0x40\n      swap1\n      keccak256\n        /* \"DeadMansSwitch.sol\":6459:6489  benefactors[msg.sender].exists */\n      sload\n      0xff\n      and\n        /* \"DeadMansSwitch.sol\":6451:6519  require(benefactors[msg.sender].exists, \"Benefactor not registered\") */\n      tag_263\n      jumpi\n      mload(0x40)\n      shl(0xe5, 0x461bcd)\n      dup2\n      mstore\n        /* \"#utility.yul\":14908:14910   */\n      0x20\n        /* \"DeadMansSwitch.sol\":6451:6519  require(benefactors[msg.sender].exists, \"Benefactor not registered\") */\n      0x04\n      dup3\n      add\n        /* \"#utility.yul\":14890:14911   */\n      mstore\n        /* \"#utility.yul\":14947:14949   */\n      0x19\n        /* \"#utility.yul\":14927:14945   */\n      0x24\n      dup3\n      add\n        /* \"#utility.yul\":14920:14950   */\n      mstore\n        /* \"#utility.yul\":14986:15013   */\n      0x42656e65666163746f72206e6f74207265676973746572656400000000000000\n        /* \"#utility.yul\":14966:14984   */\n      0x44\n      dup3\n      add\n        /* \"#utility.yul\":14959:15014   */\n      mstore\n        /* \"#utility.yul\":15031:15049   */\n      0x64\n      add\n        /* \"DeadMansSwitch.sol\":6451:6519  require(benefactors[msg.sender].exists, \"Benefactor not registered\") */\n      tag_111\n        /* \"#utility.yul\":14706:15055   */\n      jump\n        /* \"DeadMansSwitch.sol\":6451:6519  require(benefactors[msg.sender].exists, \"Benefactor not registered\") */\n    tag_263:\n        /* \"DeadMansSwitch.sol\":6542:6552  msg.sender */\n      caller\n        /* \"DeadMansSwitch.sol\":6563:6568  false */\n      0x00\n        /* \"DeadMansSwitch.sol\":6530:6553  benefactors[msg.sender] */\n      swap1\n      dup2\n      mstore\n      0x20\n      dup2\n      swap1\n      mstore\n      0x40\n      dup1\n      dup3\n      keccak256\n        /* \"DeadMansSwitch.sol\":6530:6568  benefactors[msg.sender].exists = false */\n      dup1\n      sload\n      not(0xff)\n      swap1\n      dup2\n      and\n      swap1\n      swap2\n      sstore\n      sub(shl(0xa0, 0x01), 0x01)\n        /* \"DeadMansSwitch.sol\":6586:6610  benefactors[_benefactor] */\n      swap4\n      swap1\n      swap4\n      and\n      dup3\n      mstore\n      dup2\n      keccak256\n        /* \"DeadMansSwitch.sol\":6579:6610  delete benefactors[_benefactor] */\n      dup1\n      sload\n      swap1\n      swap3\n      and\n      dup3\n      sstore\n      0x02\n      dup3\n      add\n      dup2\n      swap1\n      sstore\n      0x03\n      dup3\n      add\n      sstore\n      0x04\n      add\n      dup1\n      sload\n      not(0xffff)\n      and\n      swap1\n      sstore\n        /* \"DeadMansSwitch.sol\":6386:6618  function removeBenefactor(address _benefactor) public {... */\n      jump\t// out\n        /* \"DeadMansSwitch.sol\":13360:14059  function respondToSwitch() external onlyBenefactor {... */\n    tag_82:\n        /* \"DeadMansSwitch.sol\":2418:2428  msg.sender */\n      caller\n        /* \"DeadMansSwitch.sol\":2406:2417  benefactors */\n      0x00\n        /* \"DeadMansSwitch.sol\":2406:2429  benefactors[msg.sender] */\n      swap1\n      dup2\n      mstore\n      0x20\n      dup2\n      swap1\n      mstore\n      0x40\n      swap1\n      keccak256\n        /* \"DeadMansSwitch.sol\":2406:2436  benefactors[msg.sender].exists */\n      sload\n      0xff\n      and\n        /* \"DeadMansSwitch.sol\":2406:2471  benefactors[msg.sender].exists && benefactors[msg.sender].isAlive */\n      dup1\n      iszero\n      tag_267\n      jumpi\n      pop\n        /* \"DeadMansSwitch.sol\":2452:2462  msg.sender */\n      caller\n        /* \"DeadMansSwitch.sol\":2440:2451  benefactors */\n      0x00\n        /* \"DeadMansSwitch.sol\":2440:2463  benefactors[msg.sender] */\n      swap1\n      dup2\n      mstore\n      0x20\n      dup2\n      swap1\n      mstore\n      0x40\n      swap1\n      keccak256\n        /* \"DeadMansSwitch.sol\":2440:2471  benefactors[msg.sender].isAlive */\n      0x04\n      add\n      sload\n      0x0100\n      swap1\n      div\n      0xff\n      and\n        /* \"DeadMansSwitch.sol\":2406:2471  benefactors[msg.sender].exists && benefactors[msg.sender].isAlive */\n    tag_267:\n        /* \"DeadMansSwitch.sol\":2398:2498  require(benefactors[msg.sender].exists && benefactors[msg.sender].isAlive, \"Not a valid benefactor\") */\n      tag_268\n      jumpi\n      mload(0x40)\n      shl(0xe5, 0x461bcd)\n      dup2\n      mstore\n        /* \"#utility.yul\":9973:9975   */\n      0x20\n        /* \"DeadMansSwitch.sol\":2398:2498  require(benefactors[msg.sender].exists && benefactors[msg.sender].isAlive, \"Not a valid benefactor\") */\n      0x04\n      dup3\n      add\n        /* \"#utility.yul\":9955:9976   */\n      mstore\n        /* \"#utility.yul\":10012:10014   */\n      0x16\n        /* \"#utility.yul\":9992:10010   */\n      0x24\n      dup3\n      add\n        /* \"#utility.yul\":9985:10015   */\n      mstore\n      shl(0x51, 0x2737ba1030903b30b634b2103132b732b330b1ba37b9)\n        /* \"#utility.yul\":10031:10049   */\n      0x44\n      dup3\n      add\n        /* \"#utility.yul\":10024:10076   */\n      mstore\n        /* \"#utility.yul\":10093:10111   */\n      0x64\n      add\n        /* \"DeadMansSwitch.sol\":2398:2498  require(benefactors[msg.sender].exists && benefactors[msg.sender].isAlive, \"Not a valid benefactor\") */\n      tag_111\n        /* \"#utility.yul\":9771:10117   */\n      jump\n        /* \"DeadMansSwitch.sol\":2398:2498  require(benefactors[msg.sender].exists && benefactors[msg.sender].isAlive, \"Not a valid benefactor\") */\n    tag_268:\n        /* \"DeadMansSwitch.sol\":13438:13448  msg.sender */\n      caller\n        /* \"DeadMansSwitch.sol\":13426:13437  benefactors */\n      0x00\n        /* \"DeadMansSwitch.sol\":13426:13449  benefactors[msg.sender] */\n      swap1\n      dup2\n      mstore\n      0x20\n      dup2\n      swap1\n      mstore\n      0x40\n      swap1\n      keccak256\n        /* \"DeadMansSwitch.sol\":13426:13476  benefactors[msg.sender].lastBenefactorResponseTime */\n      0x03\n      add\n      sload\n        /* \"DeadMansSwitch.sol\":13426:13481  benefactors[msg.sender].lastBenefactorResponseTime != 0 */\n      iszero\n        /* \"DeadMansSwitch.sol\":13422:14052  if (benefactors[msg.sender].lastBenefactorResponseTime != 0) {... */\n      tag_271\n      jumpi\n        /* \"DeadMansSwitch.sol\":13502:13530  checkAliveStatus(msg.sender) */\n      tag_272\n        /* \"DeadMansSwitch.sol\":13519:13529  msg.sender */\n      caller\n        /* \"DeadMansSwitch.sol\":13502:13518  checkAliveStatus */\n      tag_34\n        /* \"DeadMansSwitch.sol\":13502:13530  checkAliveStatus(msg.sender) */\n      jump\t// in\n    tag_272:\n        /* \"DeadMansSwitch.sol\":13498:13839  if (checkAliveStatus(msg.sender)) {... */\n      iszero\n      tag_273\n      jumpi\n        /* \"DeadMansSwitch.sol\":13574:13584  msg.sender */\n      caller\n      sub(shl(0xa0, 0x01), 0x01)\n        /* \"DeadMansSwitch.sol\":13556:13607  BenefactorIsAlive(msg.sender,\"Benefactor is alive\") */\n      and\n      0x793324a6f079e577f4a4646c7ec753efd3beddc2f4ce07bfae5f105c449ac356\n      mload(0x40)\n      tag_274\n      swap1\n        /* \"#utility.yul\":15262:15264   */\n      0x20\n        /* \"#utility.yul\":15244:15265   */\n      dup1\n      dup3\n      mstore\n        /* \"#utility.yul\":15301:15303   */\n      0x13\n        /* \"#utility.yul\":15281:15299   */\n      swap1\n      dup3\n      add\n        /* \"#utility.yul\":15274:15304   */\n      mstore\n        /* \"#utility.yul\":15340:15361   */\n      0x42656e65666163746f7220697320616c69766500000000000000000000000000\n        /* \"#utility.yul\":15335:15337   */\n      0x40\n        /* \"#utility.yul\":15320:15338   */\n      dup3\n      add\n        /* \"#utility.yul\":15313:15362   */\n      mstore\n        /* \"#utility.yul\":15394:15396   */\n      0x60\n        /* \"#utility.yul\":15379:15397   */\n      add\n      swap1\n        /* \"#utility.yul\":15060:15403   */\n      jump\n        /* \"DeadMansSwitch.sol\":13556:13607  BenefactorIsAlive(msg.sender,\"Benefactor is alive\") */\n    tag_274:\n      mload(0x40)\n      dup1\n      swap2\n      sub\n      swap1\n      log2\n        /* \"DeadMansSwitch.sol\":13626:13641  disableSwitch() */\n      tag_276\n        /* \"DeadMansSwitch.sol\":13626:13639  disableSwitch */\n      tag_277\n        /* \"DeadMansSwitch.sol\":13626:13641  disableSwitch() */\n      jump\t// in\n    tag_276:\n        /* \"DeadMansSwitch.sol\":13672:13682  msg.sender */\n      caller\n        /* \"DeadMansSwitch.sol\":13660:13671  benefactors */\n      0x00\n        /* \"DeadMansSwitch.sol\":13660:13683  benefactors[msg.sender] */\n      swap1\n      dup2\n      mstore\n      0x20\n      dup2\n      swap1\n      mstore\n      0x40\n      swap1\n      keccak256\n        /* \"DeadMansSwitch.sol\":13713:13728  block.timestamp */\n      timestamp\n        /* \"DeadMansSwitch.sol\":13660:13710  benefactors[msg.sender].lastBenefactorResponseTime */\n      0x03\n      swap1\n      swap2\n      add\n        /* \"DeadMansSwitch.sol\":13660:13728  benefactors[msg.sender].lastBenefactorResponseTime = block.timestamp */\n      sstore\n        /* \"DeadMansSwitch.sol\":13360:14059  function respondToSwitch() external onlyBenefactor {... */\n      jump\t// out\n        /* \"DeadMansSwitch.sol\":13498:13839  if (checkAliveStatus(msg.sender)) {... */\n    tag_273:\n        /* \"DeadMansSwitch.sol\":13791:13801  msg.sender */\n      caller\n      sub(shl(0xa0, 0x01), 0x01)\n        /* \"DeadMansSwitch.sol\":13774:13823  BenefactorIsDead(msg.sender,\"Benefactor is dead\") */\n      and\n      0x5a68fa7d6b655a3e592d5d99ac82863424750e9d262c902f30f9e56655e7a856\n      mload(0x40)\n      tag_279\n      swap1\n        /* \"#utility.yul\":15610:15612   */\n      0x20\n        /* \"#utility.yul\":15592:15613   */\n      dup1\n      dup3\n      mstore\n        /* \"#utility.yul\":15649:15651   */\n      0x12\n        /* \"#utility.yul\":15629:15647   */\n      swap1\n      dup3\n      add\n        /* \"#utility.yul\":15622:15652   */\n      mstore\n        /* \"#utility.yul\":15688:15708   */\n      0x42656e65666163746f7220697320646561640000000000000000000000000000\n        /* \"#utility.yul\":15683:15685   */\n      0x40\n        /* \"#utility.yul\":15668:15686   */\n      dup3\n      add\n        /* \"#utility.yul\":15661:15709   */\n      mstore\n        /* \"#utility.yul\":15741:15743   */\n      0x60\n        /* \"#utility.yul\":15726:15744   */\n      add\n      swap1\n        /* \"#utility.yul\":15408:15750   */\n      jump\n        /* \"DeadMansSwitch.sol\":13774:13823  BenefactorIsDead(msg.sender,\"Benefactor is dead\") */\n    tag_279:\n      mload(0x40)\n      dup1\n      swap2\n      sub\n      swap1\n      log2\n        /* \"DeadMansSwitch.sol\":13360:14059  function respondToSwitch() external onlyBenefactor {... */\n      jump\t// out\n        /* \"DeadMansSwitch.sol\":13422:14052  if (benefactors[msg.sender].lastBenefactorResponseTime != 0) {... */\n    tag_271:\n        /* \"DeadMansSwitch.sol\":13894:13904  msg.sender */\n      caller\n      sub(shl(0xa0, 0x01), 0x01)\n        /* \"DeadMansSwitch.sol\":13876:13927  BenefactorIsAlive(msg.sender,\"Benefactor is alive\") */\n      and\n      0x793324a6f079e577f4a4646c7ec753efd3beddc2f4ce07bfae5f105c449ac356\n      mload(0x40)\n      tag_274\n      swap1\n        /* \"#utility.yul\":15262:15264   */\n      0x20\n        /* \"#utility.yul\":15244:15265   */\n      dup1\n      dup3\n      mstore\n        /* \"#utility.yul\":15301:15303   */\n      0x13\n        /* \"#utility.yul\":15281:15299   */\n      swap1\n      dup3\n      add\n        /* \"#utility.yul\":15274:15304   */\n      mstore\n        /* \"#utility.yul\":15340:15361   */\n      0x42656e65666163746f7220697320616c69766500000000000000000000000000\n        /* \"#utility.yul\":15335:15337   */\n      0x40\n        /* \"#utility.yul\":15320:15338   */\n      dup3\n      add\n        /* \"#utility.yul\":15313:15362   */\n      mstore\n        /* \"#utility.yul\":15394:15396   */\n      0x60\n        /* \"#utility.yul\":15379:15397   */\n      add\n      swap1\n        /* \"#utility.yul\":15060:15403   */\n      jump\n        /* \"DeadMansSwitch.sol\":4576:4937  function addBenefactorPublicKey(address _benefactor, address _beneficiary, string memory _key) public {... */\n    tag_85:\n        /* \"DeadMansSwitch.sol\":4697:4736  isBeneficiary(_benefactor,_beneficiary) */\n      tag_285\n        /* \"DeadMansSwitch.sol\":4711:4722  _benefactor */\n      dup4\n        /* \"DeadMansSwitch.sol\":4723:4735  _beneficiary */\n      dup4\n        /* \"DeadMansSwitch.sol\":4697:4710  isBeneficiary */\n      tag_44\n        /* \"DeadMansSwitch.sol\":4697:4736  isBeneficiary(_benefactor,_beneficiary) */\n      jump\t// in\n    tag_285:\n        /* \"DeadMansSwitch.sol\":4689:4773  require(isBeneficiary(_benefactor,_beneficiary), \"Beneficiary/Benefactor not found\") */\n      tag_286\n      jumpi\n      mload(0x40)\n      shl(0xe5, 0x461bcd)\n      dup2\n      mstore\n        /* \"#utility.yul\":7023:7025   */\n      0x20\n        /* \"DeadMansSwitch.sol\":4689:4773  require(isBeneficiary(_benefactor,_beneficiary), \"Beneficiary/Benefactor not found\") */\n      0x04\n      dup3\n      add\n        /* \"#utility.yul\":7005:7026   */\n      dup2\n      swap1\n      mstore\n        /* \"#utility.yul\":7042:7060   */\n      0x24\n      dup3\n      add\n        /* \"#utility.yul\":7035:7065   */\n      mstore\n        /* \"#utility.yul\":7101:7135   */\n      0x42656e65666963696172792f42656e65666163746f72206e6f7420666f756e64\n        /* \"#utility.yul\":7081:7099   */\n      0x44\n      dup3\n      add\n        /* \"#utility.yul\":7074:7136   */\n      mstore\n        /* \"#utility.yul\":7153:7171   */\n      0x64\n      add\n        /* \"DeadMansSwitch.sol\":4689:4773  require(isBeneficiary(_benefactor,_beneficiary), \"Beneficiary/Benefactor not found\") */\n      tag_111\n        /* \"#utility.yul\":6821:7177   */\n      jump\n        /* \"DeadMansSwitch.sol\":4689:4773  require(isBeneficiary(_benefactor,_beneficiary), \"Beneficiary/Benefactor not found\") */\n    tag_286:\n      sub(shl(0xa0, 0x01), 0x01)\n        /* \"DeadMansSwitch.sol\":4784:4808  benefactors[_benefactor] */\n      dup1\n      dup5\n      and\n        /* \"DeadMansSwitch.sol\":4784:4795  benefactors */\n      0x00\n        /* \"DeadMansSwitch.sol\":4784:4808  benefactors[_benefactor] */\n      swap1\n      dup2\n      mstore\n      0x20\n      dup2\n      dup2\n      mstore\n      0x40\n      dup1\n      dup4\n      keccak256\n        /* \"DeadMansSwitch.sol\":4784:4836  benefactors[_benefactor].beneficiaries[_beneficiary] */\n      swap4\n      dup7\n      and\n      dup4\n      mstore\n        /* \"DeadMansSwitch.sol\":4784:4822  benefactors[_benefactor].beneficiaries */\n      0x01\n      swap1\n      swap4\n      add\n        /* \"DeadMansSwitch.sol\":4784:4836  benefactors[_benefactor].beneficiaries[_beneficiary] */\n      swap1\n      mstore\n      keccak256\n        /* \"DeadMansSwitch.sol\":4784:4856  benefactors[_benefactor].beneficiaries[_beneficiary].benefactorPublicKey */\n      0x02\n      add\n        /* \"DeadMansSwitch.sol\":4784:4863  benefactors[_benefactor].beneficiaries[_beneficiary].benefactorPublicKey = _key */\n      tag_288\n        /* \"DeadMansSwitch.sol\":4859:4863  _key */\n      dup3\n        /* \"DeadMansSwitch.sol\":4784:4856  benefactors[_benefactor].beneficiaries[_beneficiary].benefactorPublicKey */\n      dup3\n        /* \"DeadMansSwitch.sol\":4784:4863  benefactors[_benefactor].beneficiaries[_beneficiary].benefactorPublicKey = _key */\n      tag_152\n      jump\t// in\n    tag_288:\n      pop\n        /* \"DeadMansSwitch.sol\":4910:4922  _beneficiary */\n      dup2\n      sub(shl(0xa0, 0x01), 0x01)\n        /* \"DeadMansSwitch.sol\":4879:4929  BenefactorKeyAdded(_benefactor,_beneficiary, _key) */\n      and\n        /* \"DeadMansSwitch.sol\":4898:4909  _benefactor */\n      dup4\n      sub(shl(0xa0, 0x01), 0x01)\n        /* \"DeadMansSwitch.sol\":4879:4929  BenefactorKeyAdded(_benefactor,_beneficiary, _key) */\n      and\n      0x812e93bad7e76e8b51ecdb31c9c69773dba6b47c2ae9fc763877665448b150d9\n        /* \"DeadMansSwitch.sol\":4924:4928  _key */\n      dup4\n        /* \"DeadMansSwitch.sol\":4879:4929  BenefactorKeyAdded(_benefactor,_beneficiary, _key) */\n      mload(0x40)\n      tag_153\n      swap2\n      swap1\n      tag_74\n      jump\t// in\n        /* \"DeadMansSwitch.sol\":14249:14658  function getCIDs(address _benefactor, address _beneficiary) public view returns (string[] memory){... */\n    tag_88:\n        /* \"DeadMansSwitch.sol\":14330:14345  string[] memory */\n      0x60\n        /* \"DeadMansSwitch.sol\":14365:14404  isBeneficiary(_benefactor,_beneficiary) */\n      tag_291\n        /* \"DeadMansSwitch.sol\":14379:14390  _benefactor */\n      dup4\n        /* \"DeadMansSwitch.sol\":14391:14403  _beneficiary */\n      dup4\n        /* \"DeadMansSwitch.sol\":14365:14378  isBeneficiary */\n      tag_44\n        /* \"DeadMansSwitch.sol\":14365:14404  isBeneficiary(_benefactor,_beneficiary) */\n      jump\t// in\n    tag_291:\n        /* \"DeadMansSwitch.sol\":14357:14429  require(isBeneficiary(_benefactor,_beneficiary),\"Beneficiary not found\") */\n      tag_292\n      jumpi\n      mload(0x40)\n      shl(0xe5, 0x461bcd)\n      dup2\n      mstore\n        /* \"#utility.yul\":10324:10326   */\n      0x20\n        /* \"DeadMansSwitch.sol\":14357:14429  require(isBeneficiary(_benefactor,_beneficiary),\"Beneficiary not found\") */\n      0x04\n      dup3\n      add\n        /* \"#utility.yul\":10306:10327   */\n      mstore\n        /* \"#utility.yul\":10363:10365   */\n      0x15\n        /* \"#utility.yul\":10343:10361   */\n      0x24\n      dup3\n      add\n        /* \"#utility.yul\":10336:10366   */\n      mstore\n      shl(0x5a, 0x10995b99599a58da585c9e481b9bdd08199bdd5b99)\n        /* \"#utility.yul\":10382:10400   */\n      0x44\n      dup3\n      add\n        /* \"#utility.yul\":10375:10426   */\n      mstore\n        /* \"#utility.yul\":10443:10461   */\n      0x64\n      add\n        /* \"DeadMansSwitch.sol\":14357:14429  require(isBeneficiary(_benefactor,_beneficiary),\"Beneficiary not found\") */\n      tag_111\n        /* \"#utility.yul\":10122:10467   */\n      jump\n        /* \"DeadMansSwitch.sol\":14357:14429  require(isBeneficiary(_benefactor,_beneficiary),\"Beneficiary not found\") */\n    tag_292:\n      sub(shl(0xa0, 0x01), 0x01)\n        /* \"DeadMansSwitch.sol\":14448:14472  benefactors[_benefactor] */\n      dup4\n      and\n        /* \"DeadMansSwitch.sol\":14448:14459  benefactors */\n      0x00\n        /* \"DeadMansSwitch.sol\":14448:14472  benefactors[_benefactor] */\n      swap1\n      dup2\n      mstore\n      0x20\n      dup2\n      dup2\n      mstore\n      0x40\n      dup1\n      dup4\n      keccak256\n        /* \"DeadMansSwitch.sol\":14487:14497  msg.sender */\n      caller\n        /* \"DeadMansSwitch.sol\":14448:14498  benefactors[_benefactor].beneficiaries[msg.sender] */\n      dup5\n      mstore\n        /* \"DeadMansSwitch.sol\":14448:14486  benefactors[_benefactor].beneficiaries */\n      0x01\n      add\n        /* \"DeadMansSwitch.sol\":14448:14498  benefactors[_benefactor].beneficiaries[msg.sender] */\n      swap1\n      swap2\n      mstore\n      swap1\n      keccak256\n        /* \"DeadMansSwitch.sol\":14448:14505  benefactors[_benefactor].beneficiaries[msg.sender].exists */\n      sload\n      0xff\n      and\n        /* \"DeadMansSwitch.sol\":14448:14550  benefactors[_benefactor].beneficiaries[msg.sender].exists && benefactors[_benefactor].isAlive == false */\n      dup1\n      iszero\n      tag_294\n      jumpi\n      pop\n      sub(shl(0xa0, 0x01), 0x01)\n        /* \"DeadMansSwitch.sol\":14509:14533  benefactors[_benefactor] */\n      dup4\n      and\n        /* \"DeadMansSwitch.sol\":14509:14520  benefactors */\n      0x00\n        /* \"DeadMansSwitch.sol\":14509:14533  benefactors[_benefactor] */\n      swap1\n      dup2\n      mstore\n      0x20\n      dup2\n      swap1\n      mstore\n      0x40\n      swap1\n      keccak256\n        /* \"DeadMansSwitch.sol\":14509:14541  benefactors[_benefactor].isAlive */\n      0x04\n      add\n      sload\n      0x0100\n      swap1\n      div\n      0xff\n      and\n        /* \"DeadMansSwitch.sol\":14509:14550  benefactors[_benefactor].isAlive == false */\n      iszero\n        /* \"DeadMansSwitch.sol\":14448:14550  benefactors[_benefactor].beneficiaries[msg.sender].exists && benefactors[_benefactor].isAlive == false */\n    tag_294:\n        /* \"DeadMansSwitch.sol\":14440:14571  require(benefactors[_benefactor].beneficiaries[msg.sender].exists && benefactors[_benefactor].isAlive == false,\"No access to CIDs\") */\n      tag_295\n      jumpi\n      mload(0x40)\n      shl(0xe5, 0x461bcd)\n      dup2\n      mstore\n        /* \"#utility.yul\":15957:15959   */\n      0x20\n        /* \"DeadMansSwitch.sol\":14440:14571  require(benefactors[_benefactor].beneficiaries[msg.sender].exists && benefactors[_benefactor].isAlive == false,\"No access to CIDs\") */\n      0x04\n      dup3\n      add\n        /* \"#utility.yul\":15939:15960   */\n      mstore\n        /* \"#utility.yul\":15996:15998   */\n      0x11\n        /* \"#utility.yul\":15976:15994   */\n      0x24\n      dup3\n      add\n        /* \"#utility.yul\":15969:15999   */\n      mstore\n        /* \"#utility.yul\":16035:16054   */\n      0x4e6f2061636365737320746f2043494473000000000000000000000000000000\n        /* \"#utility.yul\":16015:16033   */\n      0x44\n      dup3\n      add\n        /* \"#utility.yul\":16008:16055   */\n      mstore\n        /* \"#utility.yul\":16072:16090   */\n      0x64\n      add\n        /* \"DeadMansSwitch.sol\":14440:14571  require(benefactors[_benefactor].beneficiaries[msg.sender].exists && benefactors[_benefactor].isAlive == false,\"No access to CIDs\") */\n      tag_111\n        /* \"#utility.yul\":15755:16096   */\n      jump\n        /* \"DeadMansSwitch.sol\":14440:14571  require(benefactors[_benefactor].beneficiaries[msg.sender].exists && benefactors[_benefactor].isAlive == false,\"No access to CIDs\") */\n    tag_295:\n      sub(shl(0xa0, 0x01), 0x01)\n        /* \"DeadMansSwitch.sol\":14589:14613  benefactors[_benefactor] */\n      dup1\n      dup5\n      and\n        /* \"DeadMansSwitch.sol\":14589:14600  benefactors */\n      0x00\n        /* \"DeadMansSwitch.sol\":14589:14613  benefactors[_benefactor] */\n      swap1\n      dup2\n      mstore\n      0x20\n      dup2\n      dup2\n      mstore\n      0x40\n      dup1\n      dup4\n      keccak256\n        /* \"DeadMansSwitch.sol\":14589:14641  benefactors[_benefactor].beneficiaries[_beneficiary] */\n      swap4\n      dup7\n      and\n      dup4\n      mstore\n        /* \"DeadMansSwitch.sol\":14589:14627  benefactors[_benefactor].beneficiaries */\n      0x01\n      swap4\n      dup5\n      add\n        /* \"DeadMansSwitch.sol\":14589:14641  benefactors[_benefactor].beneficiaries[_beneficiary] */\n      dup3\n      mstore\n      dup1\n      dup4\n      keccak256\n        /* \"DeadMansSwitch.sol\":14589:14650  benefactors[_benefactor].beneficiaries[_beneficiary].ipfsCIDs */\n      swap1\n      swap4\n      add\n        /* \"DeadMansSwitch.sol\":14582:14650  return benefactors[_benefactor].beneficiaries[_beneficiary].ipfsCIDs */\n      dup1\n      sload\n      dup5\n      mload\n      dup2\n      dup5\n      mul\n      dup2\n      add\n      dup5\n      add\n      swap1\n      swap6\n      mstore\n      dup1\n      dup6\n      mstore\n        /* \"DeadMansSwitch.sol\":14589:14650  benefactors[_benefactor].beneficiaries[_beneficiary].ipfsCIDs */\n      swap1\n      swap3\n        /* \"DeadMansSwitch.sol\":14582:14650  return benefactors[_benefactor].beneficiaries[_beneficiary].ipfsCIDs */\n      swap1\n      swap2\n      dup5\n      add\n    tag_298:\n      dup3\n      dup3\n      lt\n      iszero\n      tag_299\n      jumpi\n      dup4\n      dup3\n      swap1\n      0x00\n      mstore\n      keccak256(0x00, 0x20)\n      add\n      dup1\n      sload\n      tag_301\n      swap1\n      tag_250\n      jump\t// in\n    tag_301:\n      dup1\n      0x1f\n      add\n      0x20\n      dup1\n      swap2\n      div\n      mul\n      0x20\n      add\n      mload(0x40)\n      swap1\n      dup2\n      add\n      0x40\n      mstore\n      dup1\n      swap3\n      swap2\n      swap1\n      dup2\n      dup2\n      mstore\n      0x20\n      add\n      dup3\n      dup1\n      sload\n      tag_302\n      swap1\n      tag_250\n      jump\t// in\n    tag_302:\n      dup1\n      iszero\n      tag_303\n      jumpi\n      dup1\n      0x1f\n      lt\n      tag_304\n      jumpi\n      0x0100\n      dup1\n      dup4\n      sload\n      div\n      mul\n      dup4\n      mstore\n      swap2\n      0x20\n      add\n      swap2\n      jump(tag_303)\n    tag_304:\n      dup3\n      add\n      swap2\n      swap1\n      0x00\n      mstore\n      keccak256(0x00, 0x20)\n      swap1\n    tag_305:\n      dup2\n      sload\n      dup2\n      mstore\n      swap1\n      0x01\n      add\n      swap1\n      0x20\n      add\n      dup1\n      dup4\n      gt\n      tag_305\n      jumpi\n      dup3\n      swap1\n      sub\n      0x1f\n      and\n      dup3\n      add\n      swap2\n    tag_303:\n      pop\n      pop\n      pop\n      pop\n      pop\n      dup2\n      mstore\n      0x20\n      add\n      swap1\n      0x01\n      add\n      swap1\n      jump(tag_298)\n    tag_299:\n      pop\n      pop\n      pop\n      pop\n      swap1\n      pop\n        /* \"DeadMansSwitch.sol\":14249:14658  function getCIDs(address _benefactor, address _beneficiary) public view returns (string[] memory){... */\n      swap3\n      swap2\n      pop\n      pop\n      jump\t// out\n        /* \"DeadMansSwitch.sol\":5972:6296  function getBeneficiaryPublicKey(address _benefactor, address _beneficiary) public view returns(string memory) {... */\n    tag_93:\n        /* \"DeadMansSwitch.sol\":6068:6081  string memory */\n      0x60\n        /* \"DeadMansSwitch.sol\":6098:6138  isBeneficiary(_benefactor, _beneficiary) */\n      tag_307\n        /* \"DeadMansSwitch.sol\":6112:6123  _benefactor */\n      dup4\n        /* \"DeadMansSwitch.sol\":6125:6137  _beneficiary */\n      dup4\n        /* \"DeadMansSwitch.sol\":6098:6111  isBeneficiary */\n      tag_44\n        /* \"DeadMansSwitch.sol\":6098:6138  isBeneficiary(_benefactor, _beneficiary) */\n      jump\t// in\n    tag_307:\n        /* \"DeadMansSwitch.sol\":6094:6289  if (isBeneficiary(_benefactor, _beneficiary)) {... */\n      iszero\n      tag_248\n      jumpi\n      sub(shl(0xa0, 0x01), 0x01)\n        /* \"DeadMansSwitch.sol\":6162:6186  benefactors[_benefactor] */\n      dup1\n      dup5\n      and\n        /* \"DeadMansSwitch.sol\":6162:6173  benefactors */\n      0x00\n        /* \"DeadMansSwitch.sol\":6162:6186  benefactors[_benefactor] */\n      swap1\n      dup2\n      mstore\n      0x20\n      dup2\n      dup2\n      mstore\n      0x40\n      dup1\n      dup4\n      keccak256\n        /* \"DeadMansSwitch.sol\":6162:6214  benefactors[_benefactor].beneficiaries[_beneficiary] */\n      swap4\n      dup7\n      and\n      dup4\n      mstore\n        /* \"DeadMansSwitch.sol\":6162:6200  benefactors[_benefactor].beneficiaries */\n      0x01\n      swap1\n      swap4\n      add\n        /* \"DeadMansSwitch.sol\":6162:6214  benefactors[_benefactor].beneficiaries[_beneficiary] */\n      swap1\n      mstore\n      keccak256\n        /* \"DeadMansSwitch.sol\":6162:6235  benefactors[_benefactor].beneficiaries[_beneficiary].beneficiaryPublicKey */\n      0x03\n      add\n        /* \"DeadMansSwitch.sol\":6155:6235  return benefactors[_benefactor].beneficiaries[_beneficiary].beneficiaryPublicKey */\n      dup1\n      sload\n      tag_249\n      swap1\n      tag_250\n      jump\t// in\n        /* \"DeadMansSwitch.sol\":12867:13202  function disableSwitch() internal onlyBenefactor {... */\n    tag_277:\n        /* \"DeadMansSwitch.sol\":2418:2428  msg.sender */\n      caller\n        /* \"DeadMansSwitch.sol\":2406:2417  benefactors */\n      0x00\n        /* \"DeadMansSwitch.sol\":2406:2429  benefactors[msg.sender] */\n      swap1\n      dup2\n      mstore\n      0x20\n      dup2\n      swap1\n      mstore\n      0x40\n      swap1\n      keccak256\n        /* \"DeadMansSwitch.sol\":2406:2436  benefactors[msg.sender].exists */\n      sload\n      0xff\n      and\n        /* \"DeadMansSwitch.sol\":2406:2471  benefactors[msg.sender].exists && benefactors[msg.sender].isAlive */\n      dup1\n      iszero\n      tag_317\n      jumpi\n      pop\n        /* \"DeadMansSwitch.sol\":2452:2462  msg.sender */\n      caller\n        /* \"DeadMansSwitch.sol\":2440:2451  benefactors */\n      0x00\n        /* \"DeadMansSwitch.sol\":2440:2463  benefactors[msg.sender] */\n      swap1\n      dup2\n      mstore\n      0x20\n      dup2\n      swap1\n      mstore\n      0x40\n      swap1\n      keccak256\n        /* \"DeadMansSwitch.sol\":2440:2471  benefactors[msg.sender].isAlive */\n      0x04\n      add\n      sload\n      0x0100\n      swap1\n      div\n      0xff\n      and\n        /* \"DeadMansSwitch.sol\":2406:2471  benefactors[msg.sender].exists && benefactors[msg.sender].isAlive */\n    tag_317:\n        /* \"DeadMansSwitch.sol\":2398:2498  require(benefactors[msg.sender].exists && benefactors[msg.sender].isAlive, \"Not a valid benefactor\") */\n      tag_318\n      jumpi\n      mload(0x40)\n      shl(0xe5, 0x461bcd)\n      dup2\n      mstore\n        /* \"#utility.yul\":9973:9975   */\n      0x20\n        /* \"DeadMansSwitch.sol\":2398:2498  require(benefactors[msg.sender].exists && benefactors[msg.sender].isAlive, \"Not a valid benefactor\") */\n      0x04\n      dup3\n      add\n        /* \"#utility.yul\":9955:9976   */\n      mstore\n        /* \"#utility.yul\":10012:10014   */\n      0x16\n        /* \"#utility.yul\":9992:10010   */\n      0x24\n      dup3\n      add\n        /* \"#utility.yul\":9985:10015   */\n      mstore\n      shl(0x51, 0x2737ba1030903b30b634b2103132b732b330b1ba37b9)\n        /* \"#utility.yul\":10031:10049   */\n      0x44\n      dup3\n      add\n        /* \"#utility.yul\":10024:10076   */\n      mstore\n        /* \"#utility.yul\":10093:10111   */\n      0x64\n      add\n        /* \"DeadMansSwitch.sol\":2398:2498  require(benefactors[msg.sender].exists && benefactors[msg.sender].isAlive, \"Not a valid benefactor\") */\n      tag_111\n        /* \"#utility.yul\":9771:10117   */\n      jump\n        /* \"DeadMansSwitch.sol\":2398:2498  require(benefactors[msg.sender].exists && benefactors[msg.sender].isAlive, \"Not a valid benefactor\") */\n    tag_318:\n        /* \"DeadMansSwitch.sol\":12943:12953  msg.sender */\n      caller\n        /* \"DeadMansSwitch.sol\":12931:12942  benefactors */\n      0x00\n        /* \"DeadMansSwitch.sol\":12931:12954  benefactors[msg.sender] */\n      swap1\n      dup2\n      mstore\n      0x20\n      dup2\n      swap1\n      mstore\n      0x40\n      swap1\n      keccak256\n        /* \"DeadMansSwitch.sol\":12931:12968  benefactors[msg.sender].isSwitchedOff */\n      0x04\n      add\n      sload\n      0xff\n      and\n        /* \"DeadMansSwitch.sol\":12927:13062  if (benefactors[msg.sender].isSwitchedOff) {... */\n      iszero\n      tag_321\n      jumpi\n        /* \"DeadMansSwitch.sol\":12990:13029  SwitchAlreadyOff(msg.sender,msg.sender) */\n      mload(0x40)\n        /* \"DeadMansSwitch.sol\":13018:13028  msg.sender */\n      caller\n      swap1\n      dup2\n      swap1\n        /* \"DeadMansSwitch.sol\":12990:13029  SwitchAlreadyOff(msg.sender,msg.sender) */\n      0x439c5aaf7691cb4808dbd2a240323ce9ec0d04d66ddf65ffd5f88ebd60fa745b\n      swap1\n      0x00\n      swap1\n      log3\n        /* \"DeadMansSwitch.sol\":13360:14059  function respondToSwitch() external onlyBenefactor {... */\n      jump\t// out\n        /* \"DeadMansSwitch.sol\":12927:13062  if (benefactors[msg.sender].isSwitchedOff) {... */\n    tag_321:\n        /* \"DeadMansSwitch.sol\":13084:13094  msg.sender */\n      caller\n        /* \"DeadMansSwitch.sol\":13072:13083  benefactors */\n      0x00\n        /* \"DeadMansSwitch.sol\":13072:13095  benefactors[msg.sender] */\n      dup2\n      dup2\n      mstore\n      0x20\n      dup2\n      swap1\n      mstore\n      0x40\n      swap1\n      dup2\n      swap1\n      keccak256\n        /* \"DeadMansSwitch.sol\":13072:13109  benefactors[msg.sender].isSwitchedOff */\n      0x04\n      add\n        /* \"DeadMansSwitch.sol\":13072:13116  benefactors[msg.sender].isSwitchedOff = true */\n      dup1\n      sload\n      not(0xff)\n      and\n        /* \"DeadMansSwitch.sol\":13112:13116  true */\n      0x01\n        /* \"DeadMansSwitch.sol\":13072:13116  benefactors[msg.sender].isSwitchedOff = true */\n      or\n      swap1\n      sstore\n        /* \"DeadMansSwitch.sol\":13132:13194  DeadMansSwitchDisabled(msg.sender,msg.sender, block.timestamp) */\n      mload\n        /* \"DeadMansSwitch.sol\":13084:13094  msg.sender */\n      dup2\n      swap1\n        /* \"DeadMansSwitch.sol\":13132:13194  DeadMansSwitchDisabled(msg.sender,msg.sender, block.timestamp) */\n      0x9baa855d20de9b1a4db454f55b09d1db5f42f0871bbea3b0c699146ade171625\n      swap1\n      tag_322\n      swap1\n        /* \"DeadMansSwitch.sol\":13178:13193  block.timestamp */\n      timestamp\n        /* \"#utility.yul\":552:577   */\n      dup2\n      mstore\n        /* \"#utility.yul\":540:542   */\n      0x20\n        /* \"#utility.yul\":525:543   */\n      add\n      swap1\n        /* \"#utility.yul\":406:583   */\n      jump\n        /* \"DeadMansSwitch.sol\":13132:13194  DeadMansSwitchDisabled(msg.sender,msg.sender, block.timestamp) */\n    tag_322:\n      mload(0x40)\n      dup1\n      swap2\n      sub\n      swap1\n      log3\n        /* \"DeadMansSwitch.sol\":12867:13202  function disableSwitch() internal onlyBenefactor {... */\n      jump\t// out\n    tag_195:\n      dup3\n      dup1\n      sload\n      dup3\n      dup3\n      sstore\n      swap1\n      0x00\n      mstore\n      keccak256(0x00, 0x20)\n      swap1\n      dup2\n      add\n      swap3\n      dup3\n      iszero\n      tag_325\n      jumpi\n      swap2\n      0x20\n      mul\n      dup3\n      add\n    tag_324:\n      dup3\n      dup2\n      gt\n      iszero\n      tag_325\n      jumpi\n      dup3\n      mload\n      dup3\n      swap1\n      tag_326\n      swap1\n      dup3\n      tag_152\n      jump\t// in\n    tag_326:\n      pop\n      swap2\n      0x20\n      add\n      swap2\n      swap1\n      0x01\n      add\n      swap1\n      jump(tag_324)\n    tag_325:\n      pop\n      tag_327\n      swap3\n      swap2\n      pop\n      tag_328\n      jump\t// in\n    tag_327:\n      pop\n      swap1\n      jump\t// out\n    tag_207:\n      pop\n      dup1\n      sload\n      0x00\n      dup3\n      sstore\n      swap1\n      0x00\n      mstore\n      keccak256(0x00, 0x20)\n      swap1\n      dup2\n      add\n      swap1\n      tag_330\n      swap2\n      swap1\n      tag_328\n      jump\t// in\n    tag_330:\n      pop\n      jump\t// out\n    tag_209:\n      pop\n      dup1\n      sload\n      tag_331\n      swap1\n      tag_250\n      jump\t// in\n    tag_331:\n      0x00\n      dup3\n      sstore\n      dup1\n      0x1f\n      lt\n      tag_333\n      jumpi\n      pop\n      pop\n      jump\t// out\n    tag_333:\n      0x1f\n      add\n      0x20\n      swap1\n      div\n      swap1\n      0x00\n      mstore\n      keccak256(0x00, 0x20)\n      swap1\n      dup2\n      add\n      swap1\n      tag_330\n      swap2\n      swap1\n      tag_335\n      jump\t// in\n    tag_328:\n      dup1\n      dup3\n      gt\n      iszero\n      tag_327\n      jumpi\n      0x00\n      tag_338\n      dup3\n      dup3\n      tag_209\n      jump\t// in\n    tag_338:\n      pop\n      0x01\n      add\n      jump(tag_328)\n    tag_335:\n    tag_339:\n      dup1\n      dup3\n      gt\n      iszero\n      tag_327\n      jumpi\n      0x00\n      dup2\n      sstore\n      0x01\n      add\n      jump(tag_339)\n        /* \"#utility.yul\":14:210   */\n    tag_341:\n        /* \"#utility.yul\":82:102   */\n      dup1\n      calldataload\n      sub(shl(0xa0, 0x01), 0x01)\n        /* \"#utility.yul\":131:185   */\n      dup2\n      and\n        /* \"#utility.yul\":121:186   */\n      dup2\n      eq\n        /* \"#utility.yul\":111:204   */\n      tag_351\n      jumpi\n        /* \"#utility.yul\":200:201   */\n      0x00\n        /* \"#utility.yul\":197:198   */\n      dup1\n        /* \"#utility.yul\":190:202   */\n      revert\n        /* \"#utility.yul\":111:204   */\n    tag_351:\n        /* \"#utility.yul\":14:210   */\n      swap2\n      swap1\n      pop\n      jump\t// out\n        /* \"#utility.yul\":215:401   */\n    tag_28:\n        /* \"#utility.yul\":274:280   */\n      0x00\n        /* \"#utility.yul\":327:329   */\n      0x20\n        /* \"#utility.yul\":315:324   */\n      dup3\n        /* \"#utility.yul\":306:313   */\n      dup5\n        /* \"#utility.yul\":302:325   */\n      sub\n        /* \"#utility.yul\":298:330   */\n      slt\n        /* \"#utility.yul\":295:347   */\n      iszero\n      tag_353\n      jumpi\n        /* \"#utility.yul\":343:344   */\n      0x00\n        /* \"#utility.yul\":340:341   */\n      dup1\n        /* \"#utility.yul\":333:345   */\n      revert\n        /* \"#utility.yul\":295:347   */\n    tag_353:\n        /* \"#utility.yul\":366:395   */\n      tag_102\n        /* \"#utility.yul\":385:394   */\n      dup3\n        /* \"#utility.yul\":366:395   */\n      tag_341\n      jump\t// in\n        /* \"#utility.yul\":780:1040   */\n    tag_43:\n        /* \"#utility.yul\":848:854   */\n      0x00\n        /* \"#utility.yul\":856:862   */\n      dup1\n        /* \"#utility.yul\":909:911   */\n      0x40\n        /* \"#utility.yul\":897:906   */\n      dup4\n        /* \"#utility.yul\":888:895   */\n      dup6\n        /* \"#utility.yul\":884:907   */\n      sub\n        /* \"#utility.yul\":880:912   */\n      slt\n        /* \"#utility.yul\":877:929   */\n      iszero\n      tag_358\n      jumpi\n        /* \"#utility.yul\":925:926   */\n      0x00\n        /* \"#utility.yul\":922:923   */\n      dup1\n        /* \"#utility.yul\":915:927   */\n      revert\n        /* \"#utility.yul\":877:929   */\n    tag_358:\n        /* \"#utility.yul\":948:977   */\n      tag_359\n        /* \"#utility.yul\":967:976   */\n      dup4\n        /* \"#utility.yul\":948:977   */\n      tag_341\n      jump\t// in\n    tag_359:\n        /* \"#utility.yul\":938:977   */\n      swap2\n      pop\n        /* \"#utility.yul\":996:1034   */\n      tag_360\n        /* \"#utility.yul\":1030:1032   */\n      0x20\n        /* \"#utility.yul\":1019:1028   */\n      dup5\n        /* \"#utility.yul\":1015:1033   */\n      add\n        /* \"#utility.yul\":996:1034   */\n      tag_341\n      jump\t// in\n    tag_360:\n        /* \"#utility.yul\":986:1034   */\n      swap1\n      pop\n        /* \"#utility.yul\":780:1040   */\n      swap3\n      pop\n      swap3\n      swap1\n      pop\n      jump\t// out\n        /* \"#utility.yul\":1045:1879   */\n    tag_52:\n        /* \"#utility.yul\":1237:1241   */\n      0x00\n        /* \"#utility.yul\":1285:1287   */\n      0x60\n        /* \"#utility.yul\":1274:1283   */\n      dup3\n        /* \"#utility.yul\":1270:1288   */\n      add\n        /* \"#utility.yul\":1329:1335   */\n      dup6\n        /* \"#utility.yul\":1322:1336   */\n      iszero\n        /* \"#utility.yul\":1315:1337   */\n      iszero\n        /* \"#utility.yul\":1304:1313   */\n      dup4\n        /* \"#utility.yul\":1297:1338   */\n      mstore\n        /* \"#utility.yul\":1357:1359   */\n      0x20\n        /* \"#utility.yul\":1395:1397   */\n      0x60\n        /* \"#utility.yul\":1390:1392   */\n      dup2\n        /* \"#utility.yul\":1379:1388   */\n      dup6\n        /* \"#utility.yul\":1375:1393   */\n      add\n        /* \"#utility.yul\":1368:1398   */\n      mstore\n        /* \"#utility.yul\":1418:1424   */\n      dup2\n        /* \"#utility.yul\":1453:1459   */\n      dup7\n        /* \"#utility.yul\":1447:1460   */\n      mload\n        /* \"#utility.yul\":1484:1490   */\n      dup1\n        /* \"#utility.yul\":1476:1482   */\n      dup5\n        /* \"#utility.yul\":1469:1491   */\n      mstore\n        /* \"#utility.yul\":1522:1525   */\n      0x80\n        /* \"#utility.yul\":1511:1520   */\n      dup7\n        /* \"#utility.yul\":1507:1526   */\n      add\n        /* \"#utility.yul\":1500:1526   */\n      swap2\n      pop\n        /* \"#utility.yul\":1561:1563   */\n      dup3\n        /* \"#utility.yul\":1553:1559   */\n      dup9\n        /* \"#utility.yul\":1549:1564   */\n      add\n        /* \"#utility.yul\":1535:1564   */\n      swap4\n      pop\n        /* \"#utility.yul\":1582:1583   */\n      0x00\n        /* \"#utility.yul\":1592:1810   */\n    tag_362:\n        /* \"#utility.yul\":1606:1612   */\n      dup2\n        /* \"#utility.yul\":1603:1604   */\n      dup2\n        /* \"#utility.yul\":1600:1613   */\n      lt\n        /* \"#utility.yul\":1592:1810   */\n      iszero\n      tag_364\n      jumpi\n        /* \"#utility.yul\":1671:1684   */\n      dup5\n      mload\n      sub(shl(0xa0, 0x01), 0x01)\n        /* \"#utility.yul\":1667:1729   */\n      and\n        /* \"#utility.yul\":1655:1730   */\n      dup4\n      mstore\n        /* \"#utility.yul\":1785:1800   */\n      swap4\n      dup4\n      add\n      swap4\n        /* \"#utility.yul\":1750:1762   */\n      swap2\n      dup4\n      add\n      swap2\n        /* \"#utility.yul\":1628:1629   */\n      0x01\n        /* \"#utility.yul\":1621:1630   */\n      add\n        /* \"#utility.yul\":1592:1810   */\n      jump(tag_362)\n    tag_364:\n        /* \"#utility.yul\":1596:1599   */\n      pop\n      pop\n        /* \"#utility.yul\":1827:1830   */\n      dup1\n        /* \"#utility.yul\":1819:1830   */\n      swap4\n      pop\n      pop\n      pop\n      pop\n        /* \"#utility.yul\":1866:1872   */\n      dup3\n        /* \"#utility.yul\":1861:1863   */\n      0x40\n        /* \"#utility.yul\":1850:1859   */\n      dup4\n        /* \"#utility.yul\":1846:1864   */\n      add\n        /* \"#utility.yul\":1839:1873   */\n      mstore\n        /* \"#utility.yul\":1045:1879   */\n      swap5\n      swap4\n      pop\n      pop\n      pop\n      pop\n      jump\t// out\n        /* \"#utility.yul\":1884:2011   */\n    tag_125:\n        /* \"#utility.yul\":1945:1955   */\n      0x4e487b71\n        /* \"#utility.yul\":1940:1943   */\n      0xe0\n        /* \"#utility.yul\":1936:1956   */\n      shl\n        /* \"#utility.yul\":1933:1934   */\n      0x00\n        /* \"#utility.yul\":1926:1957   */\n      mstore\n        /* \"#utility.yul\":1976:1980   */\n      0x41\n        /* \"#utility.yul\":1973:1974   */\n      0x04\n        /* \"#utility.yul\":1966:1981   */\n      mstore\n        /* \"#utility.yul\":2000:2004   */\n      0x24\n        /* \"#utility.yul\":1997:1998   */\n      0x00\n        /* \"#utility.yul\":1990:2005   */\n      revert\n        /* \"#utility.yul\":2016:2735   */\n    tag_342:\n        /* \"#utility.yul\":2059:2064   */\n      0x00\n        /* \"#utility.yul\":2112:2115   */\n      dup3\n        /* \"#utility.yul\":2105:2109   */\n      0x1f\n        /* \"#utility.yul\":2097:2103   */\n      dup4\n        /* \"#utility.yul\":2093:2110   */\n      add\n        /* \"#utility.yul\":2089:2116   */\n      slt\n        /* \"#utility.yul\":2079:2134   */\n      tag_367\n      jumpi\n        /* \"#utility.yul\":2130:2131   */\n      0x00\n        /* \"#utility.yul\":2127:2128   */\n      dup1\n        /* \"#utility.yul\":2120:2132   */\n      revert\n        /* \"#utility.yul\":2079:2134   */\n    tag_367:\n        /* \"#utility.yul\":2166:2172   */\n      dup2\n        /* \"#utility.yul\":2153:2173   */\n      calldataload\n        /* \"#utility.yul\":2192:2210   */\n      0xffffffffffffffff\n        /* \"#utility.yul\":2229:2231   */\n      dup1\n        /* \"#utility.yul\":2225:2227   */\n      dup3\n        /* \"#utility.yul\":2222:2232   */\n      gt\n        /* \"#utility.yul\":2219:2255   */\n      iszero\n      tag_369\n      jumpi\n        /* \"#utility.yul\":2235:2253   */\n      tag_369\n      tag_125\n      jump\t// in\n    tag_369:\n        /* \"#utility.yul\":2310:2312   */\n      0x40\n        /* \"#utility.yul\":2304:2313   */\n      mload\n        /* \"#utility.yul\":2278:2280   */\n      0x1f\n        /* \"#utility.yul\":2364:2377   */\n      dup4\n      add\n      not(0x1f)\n        /* \"#utility.yul\":2360:2382   */\n      swap1\n      dup2\n      and\n        /* \"#utility.yul\":2384:2386   */\n      0x3f\n        /* \"#utility.yul\":2356:2387   */\n      add\n        /* \"#utility.yul\":2352:2392   */\n      and\n        /* \"#utility.yul\":2340:2393   */\n      dup2\n      add\n      swap1\n        /* \"#utility.yul\":2408:2426   */\n      dup3\n      dup3\n      gt\n        /* \"#utility.yul\":2428:2450   */\n      dup2\n      dup4\n      lt\n        /* \"#utility.yul\":2405:2451   */\n      or\n        /* \"#utility.yul\":2402:2474   */\n      iszero\n      tag_371\n      jumpi\n        /* \"#utility.yul\":2454:2472   */\n      tag_371\n      tag_125\n      jump\t// in\n    tag_371:\n        /* \"#utility.yul\":2494:2504   */\n      dup2\n        /* \"#utility.yul\":2490:2492   */\n      0x40\n        /* \"#utility.yul\":2483:2505   */\n      mstore\n        /* \"#utility.yul\":2529:2531   */\n      dup4\n        /* \"#utility.yul\":2521:2527   */\n      dup2\n        /* \"#utility.yul\":2514:2532   */\n      mstore\n        /* \"#utility.yul\":2575:2578   */\n      dup7\n        /* \"#utility.yul\":2568:2572   */\n      0x20\n        /* \"#utility.yul\":2563:2565   */\n      dup6\n        /* \"#utility.yul\":2555:2561   */\n      dup9\n        /* \"#utility.yul\":2551:2566   */\n      add\n        /* \"#utility.yul\":2547:2573   */\n      add\n        /* \"#utility.yul\":2544:2579   */\n      gt\n        /* \"#utility.yul\":2541:2596   */\n      iszero\n      tag_372\n      jumpi\n        /* \"#utility.yul\":2592:2593   */\n      0x00\n        /* \"#utility.yul\":2589:2590   */\n      dup1\n        /* \"#utility.yul\":2582:2594   */\n      revert\n        /* \"#utility.yul\":2541:2596   */\n    tag_372:\n        /* \"#utility.yul\":2656:2658   */\n      dup4\n        /* \"#utility.yul\":2649:2653   */\n      0x20\n        /* \"#utility.yul\":2641:2647   */\n      dup8\n        /* \"#utility.yul\":2637:2654   */\n      add\n        /* \"#utility.yul\":2630:2634   */\n      0x20\n        /* \"#utility.yul\":2622:2628   */\n      dup4\n        /* \"#utility.yul\":2618:2635   */\n      add\n        /* \"#utility.yul\":2605:2659   */\n      calldatacopy\n        /* \"#utility.yul\":2703:2704   */\n      0x00\n        /* \"#utility.yul\":2696:2700   */\n      0x20\n        /* \"#utility.yul\":2691:2693   */\n      dup6\n        /* \"#utility.yul\":2683:2689   */\n      dup4\n        /* \"#utility.yul\":2679:2694   */\n      add\n        /* \"#utility.yul\":2675:2701   */\n      add\n        /* \"#utility.yul\":2668:2705   */\n      mstore\n        /* \"#utility.yul\":2723:2729   */\n      dup1\n        /* \"#utility.yul\":2714:2729   */\n      swap5\n      pop\n      pop\n      pop\n      pop\n      pop\n        /* \"#utility.yul\":2016:2735   */\n      swap3\n      swap2\n      pop\n      pop\n      jump\t// out\n        /* \"#utility.yul\":2740:3210   */\n    tag_55:\n        /* \"#utility.yul\":2827:2833   */\n      0x00\n        /* \"#utility.yul\":2835:2841   */\n      dup1\n        /* \"#utility.yul\":2843:2849   */\n      0x00\n        /* \"#utility.yul\":2896:2898   */\n      0x60\n        /* \"#utility.yul\":2884:2893   */\n      dup5\n        /* \"#utility.yul\":2875:2882   */\n      dup7\n        /* \"#utility.yul\":2871:2894   */\n      sub\n        /* \"#utility.yul\":2867:2899   */\n      slt\n        /* \"#utility.yul\":2864:2916   */\n      iszero\n      tag_374\n      jumpi\n        /* \"#utility.yul\":2912:2913   */\n      0x00\n        /* \"#utility.yul\":2909:2910   */\n      dup1\n        /* \"#utility.yul\":2902:2914   */\n      revert\n        /* \"#utility.yul\":2864:2916   */\n    tag_374:\n        /* \"#utility.yul\":2935:2964   */\n      tag_375\n        /* \"#utility.yul\":2954:2963   */\n      dup5\n        /* \"#utility.yul\":2935:2964   */\n      tag_341\n      jump\t// in\n    tag_375:\n        /* \"#utility.yul\":2925:2964   */\n      swap3\n      pop\n        /* \"#utility.yul\":2983:3021   */\n      tag_376\n        /* \"#utility.yul\":3017:3019   */\n      0x20\n        /* \"#utility.yul\":3006:3015   */\n      dup6\n        /* \"#utility.yul\":3002:3020   */\n      add\n        /* \"#utility.yul\":2983:3021   */\n      tag_341\n      jump\t// in\n    tag_376:\n        /* \"#utility.yul\":2973:3021   */\n      swap2\n      pop\n        /* \"#utility.yul\":3072:3074   */\n      0x40\n        /* \"#utility.yul\":3061:3070   */\n      dup5\n        /* \"#utility.yul\":3057:3075   */\n      add\n        /* \"#utility.yul\":3044:3076   */\n      calldataload\n        /* \"#utility.yul\":3099:3117   */\n      0xffffffffffffffff\n        /* \"#utility.yul\":3091:3097   */\n      dup2\n        /* \"#utility.yul\":3088:3118   */\n      gt\n        /* \"#utility.yul\":3085:3135   */\n      iszero\n      tag_377\n      jumpi\n        /* \"#utility.yul\":3131:3132   */\n      0x00\n        /* \"#utility.yul\":3128:3129   */\n      dup1\n        /* \"#utility.yul\":3121:3133   */\n      revert\n        /* \"#utility.yul\":3085:3135   */\n    tag_377:\n        /* \"#utility.yul\":3154:3204   */\n      tag_378\n        /* \"#utility.yul\":3196:3203   */\n      dup7\n        /* \"#utility.yul\":3187:3193   */\n      dup3\n        /* \"#utility.yul\":3176:3185   */\n      dup8\n        /* \"#utility.yul\":3172:3194   */\n      add\n        /* \"#utility.yul\":3154:3204   */\n      tag_342\n      jump\t// in\n    tag_378:\n        /* \"#utility.yul\":3144:3204   */\n      swap2\n      pop\n      pop\n        /* \"#utility.yul\":2740:3210   */\n      swap3\n      pop\n      swap3\n      pop\n      swap3\n      jump\t// out\n        /* \"#utility.yul\":3215:3611   */\n    tag_59:\n        /* \"#utility.yul\":3293:3299   */\n      0x00\n        /* \"#utility.yul\":3301:3307   */\n      dup1\n        /* \"#utility.yul\":3354:3356   */\n      0x40\n        /* \"#utility.yul\":3342:3351   */\n      dup4\n        /* \"#utility.yul\":3333:3340   */\n      dup6\n        /* \"#utility.yul\":3329:3352   */\n      sub\n        /* \"#utility.yul\":3325:3357   */\n      slt\n        /* \"#utility.yul\":3322:3374   */\n      iszero\n      tag_380\n      jumpi\n        /* \"#utility.yul\":3370:3371   */\n      0x00\n        /* \"#utility.yul\":3367:3368   */\n      dup1\n        /* \"#utility.yul\":3360:3372   */\n      revert\n        /* \"#utility.yul\":3322:3374   */\n    tag_380:\n        /* \"#utility.yul\":3393:3422   */\n      tag_381\n        /* \"#utility.yul\":3412:3421   */\n      dup4\n        /* \"#utility.yul\":3393:3422   */\n      tag_341\n      jump\t// in\n    tag_381:\n        /* \"#utility.yul\":3383:3422   */\n      swap2\n      pop\n        /* \"#utility.yul\":3473:3475   */\n      0x20\n        /* \"#utility.yul\":3462:3471   */\n      dup4\n        /* \"#utility.yul\":3458:3476   */\n      add\n        /* \"#utility.yul\":3445:3477   */\n      calldataload\n        /* \"#utility.yul\":3500:3518   */\n      0xffffffffffffffff\n        /* \"#utility.yul\":3492:3498   */\n      dup2\n        /* \"#utility.yul\":3489:3519   */\n      gt\n        /* \"#utility.yul\":3486:3536   */\n      iszero\n      tag_382\n      jumpi\n        /* \"#utility.yul\":3532:3533   */\n      0x00\n        /* \"#utility.yul\":3529:3530   */\n      dup1\n        /* \"#utility.yul\":3522:3534   */\n      revert\n        /* \"#utility.yul\":3486:3536   */\n    tag_382:\n        /* \"#utility.yul\":3555:3605   */\n      tag_383\n        /* \"#utility.yul\":3597:3604   */\n      dup6\n        /* \"#utility.yul\":3588:3594   */\n      dup3\n        /* \"#utility.yul\":3577:3586   */\n      dup7\n        /* \"#utility.yul\":3573:3595   */\n      add\n        /* \"#utility.yul\":3555:3605   */\n      tag_342\n      jump\t// in\n    tag_383:\n        /* \"#utility.yul\":3545:3605   */\n      swap2\n      pop\n      pop\n        /* \"#utility.yul\":3215:3611   */\n      swap3\n      pop\n      swap3\n      swap1\n      pop\n      jump\t// out\n        /* \"#utility.yul\":3616:3866   */\n    tag_343:\n        /* \"#utility.yul\":3701:3702   */\n      0x00\n        /* \"#utility.yul\":3711:3824   */\n    tag_385:\n        /* \"#utility.yul\":3725:3731   */\n      dup4\n        /* \"#utility.yul\":3722:3723   */\n      dup2\n        /* \"#utility.yul\":3719:3732   */\n      lt\n        /* \"#utility.yul\":3711:3824   */\n      iszero\n      tag_387\n      jumpi\n        /* \"#utility.yul\":3801:3812   */\n      dup2\n      dup2\n      add\n        /* \"#utility.yul\":3795:3813   */\n      mload\n        /* \"#utility.yul\":3782:3793   */\n      dup4\n      dup3\n      add\n        /* \"#utility.yul\":3775:3814   */\n      mstore\n        /* \"#utility.yul\":3747:3749   */\n      0x20\n        /* \"#utility.yul\":3740:3750   */\n      add\n        /* \"#utility.yul\":3711:3824   */\n      jump(tag_385)\n    tag_387:\n      pop\n      pop\n        /* \"#utility.yul\":3858:3859   */\n      0x00\n        /* \"#utility.yul\":3840:3856   */\n      swap2\n      add\n        /* \"#utility.yul\":3833:3860   */\n      mstore\n        /* \"#utility.yul\":3616:3866   */\n      jump\t// out\n        /* \"#utility.yul\":3871:4142   */\n    tag_344:\n        /* \"#utility.yul\":3913:3916   */\n      0x00\n        /* \"#utility.yul\":3951:3956   */\n      dup2\n        /* \"#utility.yul\":3945:3957   */\n      mload\n        /* \"#utility.yul\":3978:3984   */\n      dup1\n        /* \"#utility.yul\":3973:3976   */\n      dup5\n        /* \"#utility.yul\":3966:3985   */\n      mstore\n        /* \"#utility.yul\":3994:4070   */\n      tag_389\n        /* \"#utility.yul\":4063:4069   */\n      dup2\n        /* \"#utility.yul\":4056:4060   */\n      0x20\n        /* \"#utility.yul\":4051:4054   */\n      dup7\n        /* \"#utility.yul\":4047:4061   */\n      add\n        /* \"#utility.yul\":4040:4044   */\n      0x20\n        /* \"#utility.yul\":4033:4038   */\n      dup7\n        /* \"#utility.yul\":4029:4045   */\n      add\n        /* \"#utility.yul\":3994:4070   */\n      tag_343\n      jump\t// in\n    tag_389:\n        /* \"#utility.yul\":4124:4126   */\n      0x1f\n        /* \"#utility.yul\":4103:4118   */\n      add\n      not(0x1f)\n        /* \"#utility.yul\":4099:4128   */\n      and\n        /* \"#utility.yul\":4090:4129   */\n      swap3\n      swap1\n      swap3\n      add\n        /* \"#utility.yul\":4131:4135   */\n      0x20\n        /* \"#utility.yul\":4086:4136   */\n      add\n      swap3\n        /* \"#utility.yul\":3871:4142   */\n      swap2\n      pop\n      pop\n      jump\t// out\n        /* \"#utility.yul\":4147:4367   */\n    tag_74:\n        /* \"#utility.yul\":4296:4298   */\n      0x20\n        /* \"#utility.yul\":4285:4294   */\n      dup2\n        /* \"#utility.yul\":4278:4299   */\n      mstore\n        /* \"#utility.yul\":4259:4263   */\n      0x00\n        /* \"#utility.yul\":4316:4361   */\n      tag_102\n        /* \"#utility.yul\":4357:4359   */\n      0x20\n        /* \"#utility.yul\":4346:4355   */\n      dup4\n        /* \"#utility.yul\":4342:4360   */\n      add\n        /* \"#utility.yul\":4334:4340   */\n      dup5\n        /* \"#utility.yul\":4316:4361   */\n      tag_344\n      jump\t// in\n        /* \"#utility.yul\":4372:5175   */\n    tag_90:\n        /* \"#utility.yul\":4534:4538   */\n      0x00\n        /* \"#utility.yul\":4563:4565   */\n      0x20\n        /* \"#utility.yul\":4603:4605   */\n      dup1\n        /* \"#utility.yul\":4592:4601   */\n      dup4\n        /* \"#utility.yul\":4588:4606   */\n      add\n        /* \"#utility.yul\":4633:4635   */\n      dup2\n        /* \"#utility.yul\":4622:4631   */\n      dup5\n        /* \"#utility.yul\":4615:4636   */\n      mstore\n        /* \"#utility.yul\":4656:4662   */\n      dup1\n        /* \"#utility.yul\":4691:4697   */\n      dup6\n        /* \"#utility.yul\":4685:4698   */\n      mload\n        /* \"#utility.yul\":4722:4728   */\n      dup1\n        /* \"#utility.yul\":4714:4720   */\n      dup4\n        /* \"#utility.yul\":4707:4729   */\n      mstore\n        /* \"#utility.yul\":4760:4762   */\n      0x40\n        /* \"#utility.yul\":4749:4758   */\n      dup7\n        /* \"#utility.yul\":4745:4763   */\n      add\n        /* \"#utility.yul\":4738:4763   */\n      swap2\n      pop\n        /* \"#utility.yul\":4822:4824   */\n      0x40\n        /* \"#utility.yul\":4812:4818   */\n      dup2\n        /* \"#utility.yul\":4809:4810   */\n      0x05\n        /* \"#utility.yul\":4805:4819   */\n      shl\n        /* \"#utility.yul\":4794:4803   */\n      dup8\n        /* \"#utility.yul\":4790:4820   */\n      add\n        /* \"#utility.yul\":4786:4825   */\n      add\n        /* \"#utility.yul\":4772:4825   */\n      swap3\n      pop\n        /* \"#utility.yul\":4860:4862   */\n      dup4\n        /* \"#utility.yul\":4852:4858   */\n      dup8\n        /* \"#utility.yul\":4848:4863   */\n      add\n        /* \"#utility.yul\":4881:4882   */\n      0x00\n        /* \"#utility.yul\":4891:5146   */\n    tag_393:\n        /* \"#utility.yul\":4905:4911   */\n      dup3\n        /* \"#utility.yul\":4902:4903   */\n      dup2\n        /* \"#utility.yul\":4899:4912   */\n      lt\n        /* \"#utility.yul\":4891:5146   */\n      iszero\n      tag_395\n      jumpi\n        /* \"#utility.yul\":4998:5000   */\n      0x3f\n        /* \"#utility.yul\":4994:5001   */\n      not\n        /* \"#utility.yul\":4982:4991   */\n      dup9\n        /* \"#utility.yul\":4974:4980   */\n      dup7\n        /* \"#utility.yul\":4970:4992   */\n      sub\n        /* \"#utility.yul\":4966:5002   */\n      add\n        /* \"#utility.yul\":4961:4964   */\n      dup5\n        /* \"#utility.yul\":4954:5003   */\n      mstore\n        /* \"#utility.yul\":5026:5066   */\n      tag_396\n        /* \"#utility.yul\":5059:5065   */\n      dup6\n        /* \"#utility.yul\":5050:5056   */\n      dup4\n        /* \"#utility.yul\":5044:5057   */\n      mload\n        /* \"#utility.yul\":5026:5066   */\n      tag_344\n      jump\t// in\n    tag_396:\n        /* \"#utility.yul\":5016:5066   */\n      swap5\n      pop\n        /* \"#utility.yul\":5124:5136   */\n      swap3\n      dup6\n      add\n      swap3\n        /* \"#utility.yul\":5089:5104   */\n      swap1\n      dup6\n      add\n      swap1\n        /* \"#utility.yul\":4927:4928   */\n      0x01\n        /* \"#utility.yul\":4920:4929   */\n      add\n        /* \"#utility.yul\":4891:5146   */\n      jump(tag_393)\n    tag_395:\n      pop\n        /* \"#utility.yul\":5163:5169   */\n      swap3\n      swap8\n        /* \"#utility.yul\":4372:5175   */\n      swap7\n      pop\n      pop\n      pop\n      pop\n      pop\n      pop\n      pop\n      jump\t// out\n        /* \"#utility.yul\":5180:5307   */\n    tag_345:\n        /* \"#utility.yul\":5241:5251   */\n      0x4e487b71\n        /* \"#utility.yul\":5236:5239   */\n      0xe0\n        /* \"#utility.yul\":5232:5252   */\n      shl\n        /* \"#utility.yul\":5229:5230   */\n      0x00\n        /* \"#utility.yul\":5222:5253   */\n      mstore\n        /* \"#utility.yul\":5272:5276   */\n      0x11\n        /* \"#utility.yul\":5269:5270   */\n      0x04\n        /* \"#utility.yul\":5262:5277   */\n      mstore\n        /* \"#utility.yul\":5296:5300   */\n      0x24\n        /* \"#utility.yul\":5293:5294   */\n      0x00\n        /* \"#utility.yul\":5286:5301   */\n      revert\n        /* \"#utility.yul\":5312:5440   */\n    tag_97:\n        /* \"#utility.yul\":5379:5388   */\n      dup2\n      dup2\n      sub\n        /* \"#utility.yul\":5400:5411   */\n      dup2\n      dup2\n      gt\n        /* \"#utility.yul\":5397:5434   */\n      iszero\n      tag_113\n      jumpi\n        /* \"#utility.yul\":5414:5432   */\n      tag_113\n      tag_345\n      jump\t// in\n        /* \"#utility.yul\":6549:6676   */\n    tag_132:\n        /* \"#utility.yul\":6610:6620   */\n      0x4e487b71\n        /* \"#utility.yul\":6605:6608   */\n      0xe0\n        /* \"#utility.yul\":6601:6621   */\n      shl\n        /* \"#utility.yul\":6598:6599   */\n      0x00\n        /* \"#utility.yul\":6591:6622   */\n      mstore\n        /* \"#utility.yul\":6641:6645   */\n      0x32\n        /* \"#utility.yul\":6638:6639   */\n      0x04\n        /* \"#utility.yul\":6631:6646   */\n      mstore\n        /* \"#utility.yul\":6665:6669   */\n      0x24\n        /* \"#utility.yul\":6662:6663   */\n      0x00\n        /* \"#utility.yul\":6655:6670   */\n      revert\n        /* \"#utility.yul\":6681:6816   */\n    tag_141:\n        /* \"#utility.yul\":6720:6723   */\n      0x00\n        /* \"#utility.yul\":6741:6758   */\n      0x01\n      dup3\n      add\n        /* \"#utility.yul\":6738:6781   */\n      tag_407\n      jumpi\n        /* \"#utility.yul\":6761:6779   */\n      tag_407\n      tag_345\n      jump\t// in\n    tag_407:\n      pop\n        /* \"#utility.yul\":6808:6809   */\n      0x01\n        /* \"#utility.yul\":6797:6810   */\n      add\n      swap1\n        /* \"#utility.yul\":6681:6816   */\n      jump\t// out\n        /* \"#utility.yul\":7182:7562   */\n    tag_250:\n        /* \"#utility.yul\":7261:7262   */\n      0x01\n        /* \"#utility.yul\":7257:7269   */\n      dup2\n      dup2\n      shr\n      swap1\n        /* \"#utility.yul\":7304:7316   */\n      dup3\n      and\n      dup1\n        /* \"#utility.yul\":7325:7386   */\n      tag_410\n      jumpi\n        /* \"#utility.yul\":7379:7383   */\n      0x7f\n        /* \"#utility.yul\":7371:7377   */\n      dup3\n        /* \"#utility.yul\":7367:7384   */\n      and\n        /* \"#utility.yul\":7357:7384   */\n      swap2\n      pop\n        /* \"#utility.yul\":7325:7386   */\n    tag_410:\n        /* \"#utility.yul\":7432:7434   */\n      0x20\n        /* \"#utility.yul\":7424:7430   */\n      dup3\n        /* \"#utility.yul\":7421:7435   */\n      lt\n        /* \"#utility.yul\":7401:7419   */\n      dup2\n        /* \"#utility.yul\":7398:7436   */\n      sub\n        /* \"#utility.yul\":7395:7556   */\n      tag_411\n      jumpi\n        /* \"#utility.yul\":7478:7488   */\n      0x4e487b71\n        /* \"#utility.yul\":7473:7476   */\n      0xe0\n        /* \"#utility.yul\":7469:7489   */\n      shl\n        /* \"#utility.yul\":7466:7467   */\n      0x00\n        /* \"#utility.yul\":7459:7490   */\n      mstore\n        /* \"#utility.yul\":7513:7517   */\n      0x22\n        /* \"#utility.yul\":7510:7511   */\n      0x04\n        /* \"#utility.yul\":7503:7518   */\n      mstore\n        /* \"#utility.yul\":7541:7545   */\n      0x24\n        /* \"#utility.yul\":7538:7539   */\n      0x00\n        /* \"#utility.yul\":7531:7546   */\n      revert\n        /* \"#utility.yul\":7395:7556   */\n    tag_411:\n      pop\n        /* \"#utility.yul\":7182:7562   */\n      swap2\n      swap1\n      pop\n      jump\t// out\n        /* \"#utility.yul\":7693:8238   */\n    tag_347:\n        /* \"#utility.yul\":7795:7797   */\n      0x1f\n        /* \"#utility.yul\":7790:7793   */\n      dup3\n        /* \"#utility.yul\":7787:7798   */\n      gt\n        /* \"#utility.yul\":7784:8232   */\n      iszero\n      tag_414\n      jumpi\n        /* \"#utility.yul\":7831:7832   */\n      0x00\n        /* \"#utility.yul\":7856:7861   */\n      dup2\n        /* \"#utility.yul\":7852:7854   */\n      dup2\n        /* \"#utility.yul\":7845:7862   */\n      mstore\n        /* \"#utility.yul\":7901:7905   */\n      0x20\n        /* \"#utility.yul\":7897:7899   */\n      dup2\n        /* \"#utility.yul\":7887:7906   */\n      keccak256\n        /* \"#utility.yul\":7971:7973   */\n      0x1f\n        /* \"#utility.yul\":7959:7969   */\n      dup6\n        /* \"#utility.yul\":7955:7974   */\n      add\n        /* \"#utility.yul\":7952:7953   */\n      0x05\n        /* \"#utility.yul\":7948:7975   */\n      shr\n        /* \"#utility.yul\":7942:7946   */\n      dup2\n        /* \"#utility.yul\":7938:7976   */\n      add\n        /* \"#utility.yul\":8007:8011   */\n      0x20\n        /* \"#utility.yul\":7995:8005   */\n      dup7\n        /* \"#utility.yul\":7992:8012   */\n      lt\n        /* \"#utility.yul\":7989:8036   */\n      iszero\n      tag_415\n      jumpi\n      pop\n        /* \"#utility.yul\":8030:8034   */\n      dup1\n        /* \"#utility.yul\":7989:8036   */\n    tag_415:\n        /* \"#utility.yul\":8085:8087   */\n      0x1f\n        /* \"#utility.yul\":8080:8083   */\n      dup6\n        /* \"#utility.yul\":8076:8088   */\n      add\n        /* \"#utility.yul\":8073:8074   */\n      0x05\n        /* \"#utility.yul\":8069:8089   */\n      shr\n        /* \"#utility.yul\":8063:8067   */\n      dup3\n        /* \"#utility.yul\":8059:8090   */\n      add\n        /* \"#utility.yul\":8049:8090   */\n      swap2\n      pop\n        /* \"#utility.yul\":8140:8222   */\n    tag_416:\n        /* \"#utility.yul\":8158:8160   */\n      dup2\n        /* \"#utility.yul\":8151:8156   */\n      dup2\n        /* \"#utility.yul\":8148:8161   */\n      lt\n        /* \"#utility.yul\":8140:8222   */\n      iszero\n      tag_418\n      jumpi\n        /* \"#utility.yul\":8203:8220   */\n      dup3\n      dup2\n      sstore\n        /* \"#utility.yul\":8184:8185   */\n      0x01\n        /* \"#utility.yul\":8173:8186   */\n      add\n        /* \"#utility.yul\":8140:8222   */\n      jump(tag_416)\n    tag_418:\n        /* \"#utility.yul\":8144:8147   */\n      pop\n      pop\n      pop\n        /* \"#utility.yul\":7784:8232   */\n    tag_414:\n        /* \"#utility.yul\":7693:8238   */\n      pop\n      pop\n      pop\n      jump\t// out\n        /* \"#utility.yul\":8414:9766   */\n    tag_152:\n        /* \"#utility.yul\":8540:8543   */\n      dup2\n        /* \"#utility.yul\":8534:8544   */\n      mload\n        /* \"#utility.yul\":8567:8585   */\n      0xffffffffffffffff\n        /* \"#utility.yul\":8559:8565   */\n      dup2\n        /* \"#utility.yul\":8556:8586   */\n      gt\n        /* \"#utility.yul\":8553:8609   */\n      iszero\n      tag_422\n      jumpi\n        /* \"#utility.yul\":8589:8607   */\n      tag_422\n      tag_125\n      jump\t// in\n    tag_422:\n        /* \"#utility.yul\":8618:8715   */\n      tag_423\n        /* \"#utility.yul\":8708:8714   */\n      dup2\n        /* \"#utility.yul\":8668:8706   */\n      tag_424\n        /* \"#utility.yul\":8700:8704   */\n      dup5\n        /* \"#utility.yul\":8694:8705   */\n      sload\n        /* \"#utility.yul\":8668:8706   */\n      tag_250\n      jump\t// in\n    tag_424:\n        /* \"#utility.yul\":8662:8666   */\n      dup5\n        /* \"#utility.yul\":8618:8715   */\n      tag_347\n      jump\t// in\n    tag_423:\n        /* \"#utility.yul\":8770:8774   */\n      0x20\n      dup1\n        /* \"#utility.yul\":8834:8836   */\n      0x1f\n        /* \"#utility.yul\":8823:8837   */\n      dup4\n      gt\n        /* \"#utility.yul\":8851:8852   */\n      0x01\n        /* \"#utility.yul\":8846:9509   */\n      dup2\n      eq\n      tag_426\n      jumpi\n        /* \"#utility.yul\":9553:9554   */\n      0x00\n        /* \"#utility.yul\":9570:9576   */\n      dup5\n        /* \"#utility.yul\":9567:9656   */\n      iszero\n      tag_427\n      jumpi\n      pop\n        /* \"#utility.yul\":9622:9641   */\n      dup6\n      dup4\n      add\n        /* \"#utility.yul\":9616:9642   */\n      mload\n        /* \"#utility.yul\":9567:9656   */\n    tag_427:\n      not(0x00)\n        /* \"#utility.yul\":8371:8372   */\n      0x03\n        /* \"#utility.yul\":8367:8378   */\n      dup7\n      swap1\n      shl\n        /* \"#utility.yul\":8363:8387   */\n      shr\n        /* \"#utility.yul\":8359:8388   */\n      not\n        /* \"#utility.yul\":8349:8389   */\n      and\n        /* \"#utility.yul\":8395:8396   */\n      0x01\n        /* \"#utility.yul\":8391:8402   */\n      dup6\n      swap1\n      shl\n        /* \"#utility.yul\":8346:8403   */\n      or\n        /* \"#utility.yul\":9669:9750   */\n      dup6\n      sstore\n        /* \"#utility.yul\":8816:9760   */\n      jump(tag_418)\n        /* \"#utility.yul\":8846:9509   */\n    tag_426:\n        /* \"#utility.yul\":7640:7641   */\n      0x00\n        /* \"#utility.yul\":7633:7647   */\n      dup6\n      dup2\n      mstore\n        /* \"#utility.yul\":7677:7681   */\n      0x20\n        /* \"#utility.yul\":7664:7682   */\n      dup2\n      keccak256\n      not(0x1f)\n        /* \"#utility.yul\":8882:8902   */\n      dup7\n      and\n      swap2\n        /* \"#utility.yul\":9000:9236   */\n    tag_430:\n        /* \"#utility.yul\":9014:9021   */\n      dup3\n        /* \"#utility.yul\":9011:9012   */\n      dup2\n        /* \"#utility.yul\":9008:9022   */\n      lt\n        /* \"#utility.yul\":9000:9236   */\n      iszero\n      tag_432\n      jumpi\n        /* \"#utility.yul\":9103:9122   */\n      dup9\n      dup7\n      add\n        /* \"#utility.yul\":9097:9123   */\n      mload\n        /* \"#utility.yul\":9082:9124   */\n      dup3\n      sstore\n        /* \"#utility.yul\":9195:9222   */\n      swap5\n      dup5\n      add\n      swap5\n        /* \"#utility.yul\":9163:9164   */\n      0x01\n        /* \"#utility.yul\":9151:9165   */\n      swap1\n      swap2\n      add\n      swap1\n        /* \"#utility.yul\":9030:9049   */\n      dup5\n      add\n        /* \"#utility.yul\":9000:9236   */\n      jump(tag_430)\n    tag_432:\n        /* \"#utility.yul\":9004:9007   */\n      pop\n        /* \"#utility.yul\":9264:9270   */\n      dup6\n        /* \"#utility.yul\":9255:9262   */\n      dup3\n        /* \"#utility.yul\":9252:9271   */\n      lt\n        /* \"#utility.yul\":9249:9450   */\n      iszero\n      tag_433\n      jumpi\n        /* \"#utility.yul\":9325:9344   */\n      dup8\n      dup6\n      add\n        /* \"#utility.yul\":9319:9345   */\n      mload\n      not(0x00)\n        /* \"#utility.yul\":9408:9409   */\n      0x03\n        /* \"#utility.yul\":9404:9418   */\n      dup9\n      swap1\n      shl\n        /* \"#utility.yul\":9420:9423   */\n      0xf8\n        /* \"#utility.yul\":9400:9424   */\n      and\n        /* \"#utility.yul\":9396:9433   */\n      shr\n        /* \"#utility.yul\":9392:9434   */\n      not\n        /* \"#utility.yul\":9377:9435   */\n      and\n        /* \"#utility.yul\":9362:9436   */\n      dup2\n      sstore\n        /* \"#utility.yul\":9249:9450   */\n    tag_433:\n      pop\n      pop\n      pop\n      pop\n      pop\n        /* \"#utility.yul\":9496:9497   */\n      0x01\n        /* \"#utility.yul\":9480:9494   */\n      swap1\n      dup2\n      shl\n        /* \"#utility.yul\":9476:9498   */\n      add\n        /* \"#utility.yul\":9463:9499   */\n      swap1\n      sstore\n      pop\n        /* \"#utility.yul\":8414:9766   */\n      jump\t// out\n        /* \"#utility.yul\":10472:10761   */\n    tag_168:\n        /* \"#utility.yul\":10603:10606   */\n      0x00\n        /* \"#utility.yul\":10641:10647   */\n      dup3\n        /* \"#utility.yul\":10635:10648   */\n      mload\n        /* \"#utility.yul\":10657:10723   */\n      tag_437\n        /* \"#utility.yul\":10716:10722   */\n      dup2\n        /* \"#utility.yul\":10711:10714   */\n      dup5\n        /* \"#utility.yul\":10704:10708   */\n      0x20\n        /* \"#utility.yul\":10696:10702   */\n      dup8\n        /* \"#utility.yul\":10692:10709   */\n      add\n        /* \"#utility.yul\":10657:10723   */\n      tag_343\n      jump\t// in\n    tag_437:\n        /* \"#utility.yul\":10739:10755   */\n      swap2\n      swap1\n      swap2\n      add\n      swap3\n        /* \"#utility.yul\":10472:10761   */\n      swap2\n      pop\n      pop\n      jump\t// out\n        /* \"#utility.yul\":10766:11608   */\n    tag_173:\n        /* \"#utility.yul\":10894:10897   */\n      0x00\n        /* \"#utility.yul\":10923:10924   */\n      dup1\n        /* \"#utility.yul\":10956:10962   */\n      dup4\n        /* \"#utility.yul\":10950:10963   */\n      sload\n        /* \"#utility.yul\":10986:11022   */\n      tag_439\n        /* \"#utility.yul\":11012:11021   */\n      dup2\n        /* \"#utility.yul\":10986:11022   */\n      tag_250\n      jump\t// in\n    tag_439:\n        /* \"#utility.yul\":11041:11042   */\n      0x01\n        /* \"#utility.yul\":11058:11076   */\n      dup3\n      dup2\n      and\n        /* \"#utility.yul\":11085:11218   */\n      dup1\n      iszero\n      tag_441\n      jumpi\n        /* \"#utility.yul\":11232:11233   */\n      0x01\n        /* \"#utility.yul\":11227:11583   */\n      dup2\n      eq\n      tag_442\n      jumpi\n        /* \"#utility.yul\":11051:11583   */\n      jump(tag_440)\n        /* \"#utility.yul\":11085:11218   */\n    tag_441:\n      not(0xff)\n        /* \"#utility.yul\":11118:11142   */\n      dup5\n      and\n        /* \"#utility.yul\":11106:11143   */\n      dup8\n      mstore\n        /* \"#utility.yul\":11191:11205   */\n      dup3\n      iszero\n        /* \"#utility.yul\":11184:11206   */\n      iszero\n        /* \"#utility.yul\":11172:11207   */\n      dup4\n      mul\n        /* \"#utility.yul\":11163:11208   */\n      dup8\n      add\n      swap5\n      pop\n        /* \"#utility.yul\":11085:11218   */\n      jump(tag_440)\n        /* \"#utility.yul\":11227:11583   */\n    tag_442:\n        /* \"#utility.yul\":11258:11264   */\n      dup8\n        /* \"#utility.yul\":11255:11256   */\n      0x00\n        /* \"#utility.yul\":11248:11265   */\n      mstore\n        /* \"#utility.yul\":11288:11292   */\n      0x20\n        /* \"#utility.yul\":11333:11335   */\n      dup1\n        /* \"#utility.yul\":11330:11331   */\n      0x00\n        /* \"#utility.yul\":11320:11336   */\n      keccak256\n        /* \"#utility.yul\":11358:11359   */\n      0x00\n        /* \"#utility.yul\":11372:11537   */\n    tag_443:\n        /* \"#utility.yul\":11386:11392   */\n      dup6\n        /* \"#utility.yul\":11383:11384   */\n      dup2\n        /* \"#utility.yul\":11380:11393   */\n      lt\n        /* \"#utility.yul\":11372:11537   */\n      iszero\n      tag_445\n      jumpi\n        /* \"#utility.yul\":11464:11478   */\n      dup2\n      sload\n        /* \"#utility.yul\":11451:11462   */\n      dup11\n      dup3\n      add\n        /* \"#utility.yul\":11444:11479   */\n      mstore\n        /* \"#utility.yul\":11507:11523   */\n      swap1\n      dup5\n      add\n      swap1\n        /* \"#utility.yul\":11401:11411   */\n      dup3\n      add\n        /* \"#utility.yul\":11372:11537   */\n      jump(tag_443)\n    tag_445:\n        /* \"#utility.yul\":11376:11379   */\n      pop\n      pop\n      pop\n        /* \"#utility.yul\":11566:11572   */\n      dup3\n        /* \"#utility.yul\":11561:11564   */\n      dup8\n        /* \"#utility.yul\":11557:11573   */\n      add\n        /* \"#utility.yul\":11550:11573   */\n      swap5\n      pop\n        /* \"#utility.yul\":11051:11583   */\n    tag_440:\n      pop\n        /* \"#utility.yul\":11599:11602   */\n      swap3\n      swap7\n        /* \"#utility.yul\":10766:11608   */\n      swap6\n      pop\n      pop\n      pop\n      pop\n      pop\n      pop\n      jump\t// out\n        /* \"#utility.yul\":12377:13812   */\n    tag_236:\n        /* \"#utility.yul\":12496:12499   */\n      dup2\n        /* \"#utility.yul\":12490:12494   */\n      dup2\n        /* \"#utility.yul\":12487:12500   */\n      sub\n        /* \"#utility.yul\":12484:12510   */\n      tag_449\n      jumpi\n        /* \"#utility.yul\":12503:12508   */\n      pop\n      pop\n        /* \"#utility.yul\":12377:13812   */\n      jump\t// out\n        /* \"#utility.yul\":12484:12510   */\n    tag_449:\n        /* \"#utility.yul\":12533:12570   */\n      tag_450\n        /* \"#utility.yul\":12565:12568   */\n      dup3\n        /* \"#utility.yul\":12559:12569   */\n      sload\n        /* \"#utility.yul\":12533:12570   */\n      tag_250\n      jump\t// in\n    tag_450:\n        /* \"#utility.yul\":12593:12611   */\n      0xffffffffffffffff\n        /* \"#utility.yul\":12585:12591   */\n      dup2\n        /* \"#utility.yul\":12582:12612   */\n      gt\n        /* \"#utility.yul\":12579:12635   */\n      iszero\n      tag_452\n      jumpi\n        /* \"#utility.yul\":12615:12633   */\n      tag_452\n      tag_125\n      jump\t// in\n    tag_452:\n        /* \"#utility.yul\":12644:12741   */\n      tag_453\n        /* \"#utility.yul\":12734:12740   */\n      dup2\n        /* \"#utility.yul\":12694:12732   */\n      tag_424\n        /* \"#utility.yul\":12726:12730   */\n      dup5\n        /* \"#utility.yul\":12720:12731   */\n      sload\n        /* \"#utility.yul\":12694:12732   */\n      tag_250\n      jump\t// in\n        /* \"#utility.yul\":12644:12741   */\n    tag_453:\n        /* \"#utility.yul\":12767:12768   */\n      0x00\n        /* \"#utility.yul\":12795:12797   */\n      0x1f\n        /* \"#utility.yul\":12787:12793   */\n      dup3\n        /* \"#utility.yul\":12784:12798   */\n      gt\n        /* \"#utility.yul\":12812:12813   */\n      0x01\n        /* \"#utility.yul\":12807:13555   */\n      dup2\n      eq\n      tag_456\n      jumpi\n        /* \"#utility.yul\":13599:13600   */\n      0x00\n        /* \"#utility.yul\":13616:13622   */\n      dup4\n        /* \"#utility.yul\":13613:13702   */\n      iszero\n      tag_457\n      jumpi\n      pop\n        /* \"#utility.yul\":13668:13687   */\n      dup5\n      dup3\n      add\n        /* \"#utility.yul\":13662:13688   */\n      sload\n        /* \"#utility.yul\":13613:13702   */\n    tag_457:\n      not(0x00)\n        /* \"#utility.yul\":8371:8372   */\n      0x03\n        /* \"#utility.yul\":8367:8378   */\n      dup6\n      swap1\n      shl\n        /* \"#utility.yul\":8363:8387   */\n      shr\n        /* \"#utility.yul\":8359:8388   */\n      not\n        /* \"#utility.yul\":8349:8389   */\n      and\n        /* \"#utility.yul\":8395:8396   */\n      0x01\n        /* \"#utility.yul\":8391:8402   */\n      dup5\n      swap1\n      shl\n        /* \"#utility.yul\":8346:8403   */\n      or\n        /* \"#utility.yul\":13715:13796   */\n      dup5\n      sstore\n        /* \"#utility.yul\":12777:13806   */\n      jump(tag_455)\n        /* \"#utility.yul\":12807:13555   */\n    tag_456:\n        /* \"#utility.yul\":7640:7641   */\n      0x00\n        /* \"#utility.yul\":7633:7647   */\n      dup6\n      dup2\n      mstore\n        /* \"#utility.yul\":7677:7681   */\n      0x20\n        /* \"#utility.yul\":7664:7682   */\n      swap1\n      keccak256\n      not(0x1f)\n        /* \"#utility.yul\":12843:12863   */\n      dup5\n      and\n      swap1\n        /* \"#utility.yul\":7640:7641   */\n      0x00\n        /* \"#utility.yul\":7633:7647   */\n      dup7\n      dup2\n      mstore\n        /* \"#utility.yul\":7677:7681   */\n      0x20\n        /* \"#utility.yul\":7664:7682   */\n      swap1\n      keccak256\n        /* \"#utility.yul\":13007:13016   */\n      dup5\n        /* \"#utility.yul\":13029:13280   */\n    tag_461:\n        /* \"#utility.yul\":13043:13050   */\n      dup4\n        /* \"#utility.yul\":13040:13041   */\n      dup2\n        /* \"#utility.yul\":13037:13051   */\n      lt\n        /* \"#utility.yul\":13029:13280   */\n      iszero\n      tag_463\n      jumpi\n        /* \"#utility.yul\":13125:13146   */\n      dup3\n      dup7\n      add\n        /* \"#utility.yul\":13119:13147   */\n      sload\n        /* \"#utility.yul\":13104:13148   */\n      dup3\n      sstore\n        /* \"#utility.yul\":13175:13176   */\n      0x01\n        /* \"#utility.yul\":13248:13266   */\n      swap6\n      dup7\n      add\n      swap6\n        /* \"#utility.yul\":13203:13218   */\n      swap1\n      swap2\n      add\n      swap1\n        /* \"#utility.yul\":13066:13070   */\n      0x20\n        /* \"#utility.yul\":13059:13071   */\n      add\n        /* \"#utility.yul\":13029:13280   */\n      jump(tag_461)\n    tag_463:\n        /* \"#utility.yul\":13033:13036   */\n      pop\n        /* \"#utility.yul\":13308:13314   */\n      dup6\n        /* \"#utility.yul\":13299:13306   */\n      dup4\n        /* \"#utility.yul\":13296:13315   */\n      lt\n        /* \"#utility.yul\":13293:13496   */\n      iszero\n      tag_464\n      jumpi\n        /* \"#utility.yul\":13369:13390   */\n      dup2\n      dup6\n      add\n        /* \"#utility.yul\":13363:13391   */\n      sload\n      not(0x00)\n        /* \"#utility.yul\":13454:13455   */\n      0x03\n        /* \"#utility.yul\":13450:13464   */\n      dup9\n      swap1\n      shl\n        /* \"#utility.yul\":13466:13469   */\n      0xf8\n        /* \"#utility.yul\":13446:13470   */\n      and\n        /* \"#utility.yul\":13442:13479   */\n      shr\n        /* \"#utility.yul\":13438:13480   */\n      not\n        /* \"#utility.yul\":13423:13481   */\n      and\n        /* \"#utility.yul\":13408:13482   */\n      dup2\n      sstore\n        /* \"#utility.yul\":13293:13496   */\n    tag_464:\n      pop\n      pop\n      pop\n        /* \"#utility.yul\":13542:13543   */\n      0x01\n        /* \"#utility.yul\":13533:13539   */\n      dup4\n        /* \"#utility.yul\":13530:13531   */\n      0x01\n        /* \"#utility.yul\":13526:13540   */\n      shl\n        /* \"#utility.yul\":13522:13544   */\n      add\n        /* \"#utility.yul\":13516:13520   */\n      dup5\n        /* \"#utility.yul\":13509:13545   */\n      sstore\n        /* \"#utility.yul\":12777:13806   */\n    tag_455:\n      pop\n      pop\n      pop\n        /* \"#utility.yul\":12377:13812   */\n      pop\n      pop\n      jump\t// out\n        /* \"#utility.yul\":13817:13944   */\n    tag_239:\n        /* \"#utility.yul\":13878:13888   */\n      0x4e487b71\n        /* \"#utility.yul\":13873:13876   */\n      0xe0\n        /* \"#utility.yul\":13869:13889   */\n      shl\n        /* \"#utility.yul\":13866:13867   */\n      0x00\n        /* \"#utility.yul\":13859:13890   */\n      mstore\n        /* \"#utility.yul\":13909:13913   */\n      0x31\n        /* \"#utility.yul\":13906:13907   */\n      0x04\n        /* \"#utility.yul\":13899:13914   */\n      mstore\n        /* \"#utility.yul\":13933:13937   */\n      0x24\n        /* \"#utility.yul\":13930:13931   */\n      0x00\n        /* \"#utility.yul\":13923:13938   */\n      revert\n\n    auxdata: 0xa26469706673582212209f049182fcc4c6543d21d9c50ae46b18dcb2ac9513ddb1493fbd2e939672917464736f6c63430008110033\n}\n",
    "bytecode": {
      "linkReferences": {},
      "object": "608060405234801561001057600080fd5b50612105806100206000396000f3fe608060405234801561001057600080fd5b50600436106101365760003560e01c806359633a1c116100b2578063a98d22bc11610081578063d51c319911610066578063d51c319914610283578063df78bc5414610296578063f892cb36146102b657600080fd5b8063a98d22bc14610268578063cd9c93621461027b57600080fd5b806359633a1c1461020f57806387c637141461022257806387ce1ca8146102355780638d5492e41461025557600080fd5b8063196ba7ef116101095780633dea2f84116100ee5780633dea2f84146101d65780635211287e146101e95780635926651d146101fc57600080fd5b8063196ba7ef146101aa57806338266b22146101b457600080fd5b806301e2b33f1461013b578063072039a21461016157806307a8b76714610184578063096e27d914610197575b600080fd5b61014e610149366004611ae7565b6102c9565b6040519081526020015b60405180910390f35b61017461016f366004611ae7565b6103b7565b6040519015158152602001610158565b610174610192366004611ae7565b61044b565b6101746101a5366004611b02565b6104db565b6101b261050d565b005b6101c76101c2366004611ae7565b6105a9565b60405161015893929190611b35565b6101b26101e4366004611c3a565b6107d0565b6101b26101f7366004611c98565b6108ab565b6101b261020a366004611ae7565b610b17565b6101b261021d366004611ae7565b610cfa565b6101b2610230366004611c98565b610e56565b610248610243366004611b02565b6110f8565b6040516101589190611d36565b6101b2610263366004611ae7565b6111d8565b6101b2610276366004611ae7565b61130e565b6101b26113b9565b6101b2610291366004611c3a565b6115c7565b6102a96102a4366004611b02565b611695565b6040516101589190611d49565b6102486102c4366004611b02565b611882565b6001600160a01b03811660009081526020819052604081206003015481906102f19042611dc1565b6001600160a01b038416600081815260208181526040918290206002810154600390910154835191825291810185905242928101929092526060820152919250907f74a7c0c2e8065fcdbfca5ae9f6cf0233e47e9e75b6fcf75674dd4b7e3f9b81839060800160405180910390a26001600160a01b03831660009081526020819052604090206002015481116103ad576001600160a01b0383166000908152602081905260409020600201546103a8908290611dc1565b6103b0565b60005b9392505050565b60006103c28261044b565b15610424576001600160a01b038216600090815260208190526040902060030154156104245760006103f3836102c9565b905060008111610422576001600160a01b0383166000908152602081905260409020600401805461ff00191690555b505b506001600160a01b0316600090815260208190526040902060040154610100900460ff1690565b6001600160a01b03811660009081526020819052604081205460ff166104b85760405162461bcd60e51b815260206004820152601960248201527f42656e65666163746f7220646f6573206e6f742065786973740000000000000060448201526064015b60405180910390fd5b506001600160a01b031660009081526020819052604090206004015460ff161590565b6001600160a01b03808316600090815260208181526040808320938516835260019093019052205460ff165b92915050565b3360009081526020819052604090205460ff161561056d5760405162461bcd60e51b815260206004820152601960248201527f62656e65666163746f7220616c7265616479206578697374730000000000000060448201526064016104af565b336000908152602081905260408120805460ff1916600117815562093a80600282015560048101805461010161ffff1990911617905560030155565b6001600160a01b038116600090815260208190526040812054606090829060ff166106165760405162461bcd60e51b815260206004820152601960248201527f42656e65666163746f7220646f6573206e6f742065786973740000000000000060448201526064016104af565b6001600160a01b0384166000908152602081815260408083206004015460019092529091205460ff90911615935067ffffffffffffffff81111561065c5761065c611b97565b604051908082528060200260200182016040528015610685578160200160208202803683370190505b5091506000805b835181101561078e576001600160a01b0386166000908152602081815260408083206001928390529083208054929091019291849081106106cf576106cf611dd4565b60009182526020808320909101546001600160a01b0316835282019290925260400190205460ff161561077c576001600160a01b038616600090815260016020526040902080548290811061072657610726611dd4565b9060005260206000200160009054906101000a90046001600160a01b031684838151811061075657610756611dd4565b6001600160a01b03909216602092830291909101909101528161077881611dea565b9250505b8061078681611dea565b91505061068c565b506001600160a01b03851660009081526020819052604090206004015460ff16156107bc57600091506107c8565b6107c5856102c9565b91505b509193909250565b6107da83836104db565b6108265760405162461bcd60e51b815260206004820181905260248201527f42656e65666963696172792f42656e65666163746f72206e6f7420666f756e6460448201526064016104af565b6001600160a01b038084166000908152602081815260408083209386168352600190930190522060030161085a8282611e8c565b50816001600160a01b0316836001600160a01b03167f69ccea10852ac51b01745414774b5af302217e774786d2068296650b57ba03f28360405161089e9190611d36565b60405180910390a3505050565b3360009081526020819052604090205460ff1680156108e1575033600090815260208190526040902060040154610100900460ff165b6109265760405162461bcd60e51b81526020600482015260166024820152752737ba1030903b30b634b2103132b732b330b1ba37b960511b60448201526064016104af565b61093033836104db565b6109745760405162461bcd60e51b815260206004820152601560248201527410995b99599a58da585c9e481b9bdd08199bdd5b99605a1b60448201526064016104af565b336000908152602081815260408083206001600160a01b03861684526001908101909252822001905b8154811015610a9457826040516020016109b79190611f4c565b604051602081830303815290604052805190602001208282815481106109df576109df611dd4565b906000526020600020016040516020016109f99190611f68565b6040516020818303038152906040528051906020012003610a825760405162461bcd60e51b815260206004820152602860248201527f43494420616c72656164792061737369676e656420746f20746869732062656e60448201527f656669636961727900000000000000000000000000000000000000000000000060648201526084016104af565b80610a8c81611dea565b91505061099d565b50336000908152602081815260408083206001600160a01b0387168452600190810183529083208101805491820181558352912001610ad38382611e8c565b50826001600160a01b0316336001600160a01b03167fa1bb52b874769d5c17cde30e708e8f7180bb949f70e77caf0da68d25f9a1a5108460405161089e9190611d36565b3360009081526020819052604090205460ff168015610b4d575033600090815260208190526040902060040154610100900460ff165b610b925760405162461bcd60e51b81526020600482015260166024820152752737ba1030903b30b634b2103132b732b330b1ba37b960511b60448201526064016104af565b610b9c33826104db565b15610be95760405162461bcd60e51b815260206004820152601a60248201527f42656e656669636961727920616c72656164792065786973747300000000000060448201526064016104af565b60408051608081018252600181528151600080825260208281019094529192830191610c25565b6060815260200190600190039081610c105790505b508152604080516020808201835260008083528185019290925282518082018452828152938301939093523381528083528181206001600160a01b0386168252600190810184529190208351815460ff19169015151781558383015180519193610c94938501929101906119e8565b5060408201516002820190610ca99082611e8c565b5060608201516003820190610cbe9082611e8c565b50506040516001600160a01b038316915033907fbb39c36a7502b7256e1a687254146a9a2ea7b146c77cb9e40eb0e2b8793781e190600090a350565b3360009081526020819052604090205460ff168015610d30575033600090815260208190526040902060040154610100900460ff165b610d755760405162461bcd60e51b81526020600482015260166024820152752737ba1030903b30b634b2103132b732b330b1ba37b960511b60448201526064016104af565b610d7f33826104db565b610dc35760405162461bcd60e51b815260206004820152601560248201527410995b99599a58da585c9e481b9bdd08199bdd5b99605a1b60448201526064016104af565b336000908152602081815260408083206001600160a01b038516845260019081019092528220805460ff191681559190610dff90830182611a3e565b610e0d600283016000611a5f565b610e1b600383016000611a5f565b50506040516001600160a01b0382169033907f1a6590bd0cabbfcc7c86bef99e1034054e179905cfcc294598fcd426c092244290600090a350565b3360009081526020819052604090205460ff168015610e8c575033600090815260208190526040902060040154610100900460ff165b610ed15760405162461bcd60e51b81526020600482015260166024820152752737ba1030903b30b634b2103132b732b330b1ba37b960511b60448201526064016104af565b610edb33836104db565b610f1f5760405162461bcd60e51b815260206004820152601560248201527410995b99599a58da585c9e481b9bdd08199bdd5b99605a1b60448201526064016104af565b336000908152602081815260408083206001600160a01b03861684526001908101909252822001905b81548110156110a35782604051602001610f629190611f4c565b60405160208183030381529060405280519060200120828281548110610f8a57610f8a611dd4565b90600052602060002001604051602001610fa49190611f68565b60405160208183030381529060405280519060200120036110915781548290610fcf90600190611dc1565b81548110610fdf57610fdf611dd4565b90600052602060002001828281548110610ffb57610ffb611dd4565b9060005260206000200190816110119190611fde565b5081805480611022576110226120b9565b60019003818190600052602060002001600061103e9190611a5f565b9055836001600160a01b0316336001600160a01b03167f4c13211ce3b2d0cb3e02a662cc071d6be555042ca58d4d812b7b90e80d3250ac856040516110839190611d36565b60405180910390a350505050565b8061109b81611dea565b915050610f48565b5060405162461bcd60e51b8152602060048201526024808201527f434944206e6f742061737369676e656420746f20746869732062656e656669636044820152636961727960e01b60648201526084016104af565b606061110483836104db565b156111c3576001600160a01b0380841660009081526020818152604080832093861683526001909301905220600201805461113e90611e03565b80601f016020809104026020016040519081016040528092919081815260200182805461116a90611e03565b80156111b75780601f1061118c576101008083540402835291602001916111b7565b820191906000526020600020905b81548152906001019060200180831161119a57829003601f168201915b50505050509050610507565b50604080516020810190915260008152610507565b6001600160a01b03811660009081526020818152604080832033845260010190915290205460ff1661124c5760405162461bcd60e51b815260206004820152601760248201527f4e6f7420612076616c69642062656e656669636961727900000000000000000060448201526064016104af565b6001600160a01b03811660009081526020819052604090206004015460ff166112a85760405133906001600160a01b038316907f67c4731bdc193862f421e091d18f46df876bfe1b8b9aa97504f1d50d425b239d90600090a350565b6001600160a01b0381166000818152602081815260409182902060048101805460ff191690554260038201556002015491519182523392917f82595752291d0261dfb9b4b0c2307021c29c34e22fe0697b4840b529dc351bc3910160405180910390a350565b3360009081526020819052604090205460ff1661136d5760405162461bcd60e51b815260206004820152601960248201527f42656e65666163746f72206e6f7420726567697374657265640000000000000060448201526064016104af565b33600090815260208190526040808220805460ff199081169091556001600160a01b03939093168252812080549092168255600282018190556003820155600401805461ffff19169055565b3360009081526020819052604090205460ff1680156113ef575033600090815260208190526040902060040154610100900460ff165b6114345760405162461bcd60e51b81526020600482015260166024820152752737ba1030903b30b634b2103132b732b330b1ba37b960511b60448201526064016104af565b336000908152602081905260409020600301541561155e57611455336103b7565b156114eb57336001600160a01b03167f793324a6f079e577f4a4646c7ec753efd3beddc2f4ce07bfae5f105c449ac3566040516114c39060208082526013908201527f42656e65666163746f7220697320616c69766500000000000000000000000000604082015260600190565b60405180910390a26114d36118c8565b33600090815260208190526040902042600390910155565b336001600160a01b03167f5a68fa7d6b655a3e592d5d99ac82863424750e9d262c902f30f9e56655e7a8566040516115549060208082526012908201527f42656e65666163746f7220697320646561640000000000000000000000000000604082015260600190565b60405180910390a2565b336001600160a01b03167f793324a6f079e577f4a4646c7ec753efd3beddc2f4ce07bfae5f105c449ac3566040516114c39060208082526013908201527f42656e65666163746f7220697320616c69766500000000000000000000000000604082015260600190565b6115d183836104db565b61161d5760405162461bcd60e51b815260206004820181905260248201527f42656e65666963696172792f42656e65666163746f72206e6f7420666f756e6460448201526064016104af565b6001600160a01b03808416600090815260208181526040808320938616835260019093019052206002016116518282611e8c565b50816001600160a01b0316836001600160a01b03167f812e93bad7e76e8b51ecdb31c9c69773dba6b47c2ae9fc763877665448b150d98360405161089e9190611d36565b60606116a183836104db565b6116e55760405162461bcd60e51b815260206004820152601560248201527410995b99599a58da585c9e481b9bdd08199bdd5b99605a1b60448201526064016104af565b6001600160a01b03831660009081526020818152604080832033845260010190915290205460ff16801561173a57506001600160a01b038316600090815260208190526040902060040154610100900460ff16155b6117865760405162461bcd60e51b815260206004820152601160248201527f4e6f2061636365737320746f204349447300000000000000000000000000000060448201526064016104af565b6001600160a01b0380841660009081526020818152604080832093861683526001938401825280832090930180548451818402810184019095528085529092909184015b828210156118765783829060005260206000200180546117e990611e03565b80601f016020809104026020016040519081016040528092919081815260200182805461181590611e03565b80156118625780601f1061183757610100808354040283529160200191611862565b820191906000526020600020905b81548152906001019060200180831161184557829003601f168201915b5050505050815260200190600101906117ca565b50505050905092915050565b606061188e83836104db565b156111c3576001600160a01b0380841660009081526020818152604080832093861683526001909301905220600301805461113e90611e03565b3360009081526020819052604090205460ff1680156118fe575033600090815260208190526040902060040154610100900460ff165b6119435760405162461bcd60e51b81526020600482015260166024820152752737ba1030903b30b634b2103132b732b330b1ba37b960511b60448201526064016104af565b3360009081526020819052604090206004015460ff161561198d57604051339081907f439c5aaf7691cb4808dbd2a240323ce9ec0d04d66ddf65ffd5f88ebd60fa745b90600090a3565b3360008181526020819052604090819020600401805460ff191660011790555181907f9baa855d20de9b1a4db454f55b09d1db5f42f0871bbea3b0c699146ade171625906119de9042815260200190565b60405180910390a3565b828054828255906000526020600020908101928215611a2e579160200282015b82811115611a2e5782518290611a1e9082611e8c565b5091602001919060010190611a08565b50611a3a929150611a99565b5090565b5080546000825590600052602060002090810190611a5c9190611a99565b50565b508054611a6b90611e03565b6000825580601f10611a7b575050565b601f016020900490600052602060002090810190611a5c9190611ab6565b80821115611a3a576000611aad8282611a5f565b50600101611a99565b5b80821115611a3a5760008155600101611ab7565b80356001600160a01b0381168114611ae257600080fd5b919050565b600060208284031215611af957600080fd5b6103b082611acb565b60008060408385031215611b1557600080fd5b611b1e83611acb565b9150611b2c60208401611acb565b90509250929050565b60006060820185151583526020606081850152818651808452608086019150828801935060005b81811015611b815784516001600160a01b031683529383019391830191600101611b5c565b5050809350505050826040830152949350505050565b634e487b7160e01b600052604160045260246000fd5b600082601f830112611bbe57600080fd5b813567ffffffffffffffff80821115611bd957611bd9611b97565b604051601f8301601f19908116603f01168101908282118183101715611c0157611c01611b97565b81604052838152866020858801011115611c1a57600080fd5b836020870160208301376000602085830101528094505050505092915050565b600080600060608486031215611c4f57600080fd5b611c5884611acb565b9250611c6660208501611acb565b9150604084013567ffffffffffffffff811115611c8257600080fd5b611c8e86828701611bad565b9150509250925092565b60008060408385031215611cab57600080fd5b611cb483611acb565b9150602083013567ffffffffffffffff811115611cd057600080fd5b611cdc85828601611bad565b9150509250929050565b60005b83811015611d01578181015183820152602001611ce9565b50506000910152565b60008151808452611d22816020860160208601611ce6565b601f01601f19169290920160200192915050565b6020815260006103b06020830184611d0a565b6000602080830181845280855180835260408601915060408160051b870101925083870160005b82811015611d9e57603f19888603018452611d8c858351611d0a565b94509285019290850190600101611d70565b5092979650505050505050565b634e487b7160e01b600052601160045260246000fd5b8181038181111561050757610507611dab565b634e487b7160e01b600052603260045260246000fd5b600060018201611dfc57611dfc611dab565b5060010190565b600181811c90821680611e1757607f821691505b602082108103611e3757634e487b7160e01b600052602260045260246000fd5b50919050565b601f821115611e8757600081815260208120601f850160051c81016020861015611e645750805b601f850160051c820191505b81811015611e8357828155600101611e70565b5050505b505050565b815167ffffffffffffffff811115611ea657611ea6611b97565b611eba81611eb48454611e03565b84611e3d565b602080601f831160018114611eef5760008415611ed75750858301515b600019600386901b1c1916600185901b178555611e83565b600085815260208120601f198616915b82811015611f1e57888601518255948401946001909101908401611eff565b5085821015611f3c5787850151600019600388901b60f8161c191681555b5050505050600190811b01905550565b60008251611f5e818460208701611ce6565b9190910192915050565b6000808354611f7681611e03565b60018281168015611f8e5760018114611fa357611fd2565b60ff1984168752821515830287019450611fd2565b8760005260208060002060005b85811015611fc95781548a820152908401908201611fb0565b50505082870194505b50929695505050505050565b818103611fe9575050565b611ff38254611e03565b67ffffffffffffffff81111561200b5761200b611b97565b61201981611eb48454611e03565b6000601f82116001811461204d57600083156120355750848201545b600019600385901b1c1916600184901b1784556120b2565b600085815260209020601f19841690600086815260209020845b838110156120875782860154825560019586019590910190602001612067565b50858310156120a55781850154600019600388901b60f8161c191681555b50505060018360011b0184555b5050505050565b634e487b7160e01b600052603160045260246000fdfea26469706673582212209f049182fcc4c6543d21d9c50ae46b18dcb2ac9513ddb1493fbd2e939672917464736f6c63430008110033",
      "opcodes": "PUSH1 0x80 PUSH1 0x40 MSTORE CALLVALUE DUP1 ISZERO PUSH2 0x10 JUMPI PUSH1 0x0 DUP1 REVERT JUMPDEST POP PUSH2 0x2105 DUP1 PUSH2 0x20 PUSH1 0x0 CODECOPY PUSH1 0x0 RETURN INVALID PUSH1 0x80 PUSH1 0x40 MSTORE CALLVALUE DUP1 ISZERO PUSH2 0x10 JUMPI PUSH1 0x0 DUP1 REVERT JUMPDEST POP PUSH1 0x4 CALLDATASIZE LT PUSH2 0x136 JUMPI PUSH1 0x0 CALLDATALOAD PUSH1 0xE0 SHR DUP1 PUSH4 0x59633A1C GT PUSH2 0xB2 JUMPI DUP1 PUSH4 0xA98D22BC GT PUSH2 0x81 JUMPI DUP1 PUSH4 0xD51C3199 GT PUSH2 0x66 JUMPI DUP1 PUSH4 0xD51C3199 EQ PUSH2 0x283 JUMPI DUP1 PUSH4 0xDF78BC54 EQ PUSH2 0x296 JUMPI DUP1 PUSH4 0xF892CB36 EQ PUSH2 0x2B6 JUMPI PUSH1 0x0 DUP1 REVERT JUMPDEST DUP1 PUSH4 0xA98D22BC EQ PUSH2 0x268 JUMPI DUP1 PUSH4 0xCD9C9362 EQ PUSH2 0x27B JUMPI PUSH1 0x0 DUP1 REVERT JUMPDEST DUP1 PUSH4 0x59633A1C EQ PUSH2 0x20F JUMPI DUP1 PUSH4 0x87C63714 EQ PUSH2 0x222 JUMPI DUP1 PUSH4 0x87CE1CA8 EQ PUSH2 0x235 JUMPI DUP1 PUSH4 0x8D5492E4 EQ PUSH2 0x255 JUMPI PUSH1 0x0 DUP1 REVERT JUMPDEST DUP1 PUSH4 0x196BA7EF GT PUSH2 0x109 JUMPI DUP1 PUSH4 0x3DEA2F84 GT PUSH2 0xEE JUMPI DUP1 PUSH4 0x3DEA2F84 EQ PUSH2 0x1D6 JUMPI DUP1 PUSH4 0x5211287E EQ PUSH2 0x1E9 JUMPI DUP1 PUSH4 0x5926651D EQ PUSH2 0x1FC JUMPI PUSH1 0x0 DUP1 REVERT JUMPDEST DUP1 PUSH4 0x196BA7EF EQ PUSH2 0x1AA JUMPI DUP1 PUSH4 0x38266B22 EQ PUSH2 0x1B4 JUMPI PUSH1 0x0 DUP1 REVERT JUMPDEST DUP1 PUSH4 0x1E2B33F EQ PUSH2 0x13B JUMPI DUP1 PUSH4 0x72039A2 EQ PUSH2 0x161 JUMPI DUP1 PUSH4 0x7A8B767 EQ PUSH2 0x184 JUMPI DUP1 PUSH4 0x96E27D9 EQ PUSH2 0x197 JUMPI JUMPDEST PUSH1 0x0 DUP1 REVERT JUMPDEST PUSH2 0x14E PUSH2 0x149 CALLDATASIZE PUSH1 0x4 PUSH2 0x1AE7 JUMP JUMPDEST PUSH2 0x2C9 JUMP JUMPDEST PUSH1 0x40 MLOAD SWAP1 DUP2 MSTORE PUSH1 0x20 ADD JUMPDEST PUSH1 0x40 MLOAD DUP1 SWAP2 SUB SWAP1 RETURN JUMPDEST PUSH2 0x174 PUSH2 0x16F CALLDATASIZE PUSH1 0x4 PUSH2 0x1AE7 JUMP JUMPDEST PUSH2 0x3B7 JUMP JUMPDEST PUSH1 0x40 MLOAD SWAP1 ISZERO ISZERO DUP2 MSTORE PUSH1 0x20 ADD PUSH2 0x158 JUMP JUMPDEST PUSH2 0x174 PUSH2 0x192 CALLDATASIZE PUSH1 0x4 PUSH2 0x1AE7 JUMP JUMPDEST PUSH2 0x44B JUMP JUMPDEST PUSH2 0x174 PUSH2 0x1A5 CALLDATASIZE PUSH1 0x4 PUSH2 0x1B02 JUMP JUMPDEST PUSH2 0x4DB JUMP JUMPDEST PUSH2 0x1B2 PUSH2 0x50D JUMP JUMPDEST STOP JUMPDEST PUSH2 0x1C7 PUSH2 0x1C2 CALLDATASIZE PUSH1 0x4 PUSH2 0x1AE7 JUMP JUMPDEST PUSH2 0x5A9 JUMP JUMPDEST PUSH1 0x40 MLOAD PUSH2 0x158 SWAP4 SWAP3 SWAP2 SWAP1 PUSH2 0x1B35 JUMP JUMPDEST PUSH2 0x1B2 PUSH2 0x1E4 CALLDATASIZE PUSH1 0x4 PUSH2 0x1C3A JUMP JUMPDEST PUSH2 0x7D0 JUMP JUMPDEST PUSH2 0x1B2 PUSH2 0x1F7 CALLDATASIZE PUSH1 0x4 PUSH2 0x1C98 JUMP JUMPDEST PUSH2 0x8AB JUMP JUMPDEST PUSH2 0x1B2 PUSH2 0x20A CALLDATASIZE PUSH1 0x4 PUSH2 0x1AE7 JUMP JUMPDEST PUSH2 0xB17 JUMP JUMPDEST PUSH2 0x1B2 PUSH2 0x21D CALLDATASIZE PUSH1 0x4 PUSH2 0x1AE7 JUMP JUMPDEST PUSH2 0xCFA JUMP JUMPDEST PUSH2 0x1B2 PUSH2 0x230 CALLDATASIZE PUSH1 0x4 PUSH2 0x1C98 JUMP JUMPDEST PUSH2 0xE56 JUMP JUMPDEST PUSH2 0x248 PUSH2 0x243 CALLDATASIZE PUSH1 0x4 PUSH2 0x1B02 JUMP JUMPDEST PUSH2 0x10F8 JUMP JUMPDEST PUSH1 0x40 MLOAD PUSH2 0x158 SWAP2 SWAP1 PUSH2 0x1D36 JUMP JUMPDEST PUSH2 0x1B2 PUSH2 0x263 CALLDATASIZE PUSH1 0x4 PUSH2 0x1AE7 JUMP JUMPDEST PUSH2 0x11D8 JUMP JUMPDEST PUSH2 0x1B2 PUSH2 0x276 CALLDATASIZE PUSH1 0x4 PUSH2 0x1AE7 JUMP JUMPDEST PUSH2 0x130E JUMP JUMPDEST PUSH2 0x1B2 PUSH2 0x13B9 JUMP JUMPDEST PUSH2 0x1B2 PUSH2 0x291 CALLDATASIZE PUSH1 0x4 PUSH2 0x1C3A JUMP JUMPDEST PUSH2 0x15C7 JUMP JUMPDEST PUSH2 0x2A9 PUSH2 0x2A4 CALLDATASIZE PUSH1 0x4 PUSH2 0x1B02 JUMP JUMPDEST PUSH2 0x1695 JUMP JUMPDEST PUSH1 0x40 MLOAD PUSH2 0x158 SWAP2 SWAP1 PUSH2 0x1D49 JUMP JUMPDEST PUSH2 0x248 PUSH2 0x2C4 CALLDATASIZE PUSH1 0x4 PUSH2 0x1B02 JUMP JUMPDEST PUSH2 0x1882 JUMP JUMPDEST PUSH1 0x1 PUSH1 0x1 PUSH1 0xA0 SHL SUB DUP2 AND PUSH1 0x0 SWAP1 DUP2 MSTORE PUSH1 0x20 DUP2 SWAP1 MSTORE PUSH1 0x40 DUP2 KECCAK256 PUSH1 0x3 ADD SLOAD DUP2 SWAP1 PUSH2 0x2F1 SWAP1 TIMESTAMP PUSH2 0x1DC1 JUMP JUMPDEST PUSH1 0x1 PUSH1 0x1 PUSH1 0xA0 SHL SUB DUP5 AND PUSH1 0x0 DUP2 DUP2 MSTORE PUSH1 0x20 DUP2 DUP2 MSTORE PUSH1 0x40 SWAP2 DUP3 SWAP1 KECCAK256 PUSH1 0x2 DUP2 ADD SLOAD PUSH1 0x3 SWAP1 SWAP2 ADD SLOAD DUP4 MLOAD SWAP2 DUP3 MSTORE SWAP2 DUP2 ADD DUP6 SWAP1 MSTORE TIMESTAMP SWAP3 DUP2 ADD SWAP3 SWAP1 SWAP3 MSTORE PUSH1 0x60 DUP3 ADD MSTORE SWAP2 SWAP3 POP SWAP1 PUSH32 0x74A7C0C2E8065FCDBFCA5AE9F6CF0233E47E9E75B6FCF75674DD4B7E3F9B8183 SWAP1 PUSH1 0x80 ADD PUSH1 0x40 MLOAD DUP1 SWAP2 SUB SWAP1 LOG2 PUSH1 0x1 PUSH1 0x1 PUSH1 0xA0 SHL SUB DUP4 AND PUSH1 0x0 SWAP1 DUP2 MSTORE PUSH1 0x20 DUP2 SWAP1 MSTORE PUSH1 0x40 SWAP1 KECCAK256 PUSH1 0x2 ADD SLOAD DUP2 GT PUSH2 0x3AD JUMPI PUSH1 0x1 PUSH1 0x1 PUSH1 0xA0 SHL SUB DUP4 AND PUSH1 0x0 SWAP1 DUP2 MSTORE PUSH1 0x20 DUP2 SWAP1 MSTORE PUSH1 0x40 SWAP1 KECCAK256 PUSH1 0x2 ADD SLOAD PUSH2 0x3A8 SWAP1 DUP3 SWAP1 PUSH2 0x1DC1 JUMP JUMPDEST PUSH2 0x3B0 JUMP JUMPDEST PUSH1 0x0 JUMPDEST SWAP4 SWAP3 POP POP POP JUMP JUMPDEST PUSH1 0x0 PUSH2 0x3C2 DUP3 PUSH2 0x44B JUMP JUMPDEST ISZERO PUSH2 0x424 JUMPI PUSH1 0x1 PUSH1 0x1 PUSH1 0xA0 SHL SUB DUP3 AND PUSH1 0x0 SWAP1 DUP2 MSTORE PUSH1 0x20 DUP2 SWAP1 MSTORE PUSH1 0x40 SWAP1 KECCAK256 PUSH1 0x3 ADD SLOAD ISZERO PUSH2 0x424 JUMPI PUSH1 0x0 PUSH2 0x3F3 DUP4 PUSH2 0x2C9 JUMP JUMPDEST SWAP1 POP PUSH1 0x0 DUP2 GT PUSH2 0x422 JUMPI PUSH1 0x1 PUSH1 0x1 PUSH1 0xA0 SHL SUB DUP4 AND PUSH1 0x0 SWAP1 DUP2 MSTORE PUSH1 0x20 DUP2 SWAP1 MSTORE PUSH1 0x40 SWAP1 KECCAK256 PUSH1 0x4 ADD DUP1 SLOAD PUSH2 0xFF00 NOT AND SWAP1 SSTORE JUMPDEST POP JUMPDEST POP PUSH1 0x1 PUSH1 0x1 PUSH1 0xA0 SHL SUB AND PUSH1 0x0 SWAP1 DUP2 MSTORE PUSH1 0x20 DUP2 SWAP1 MSTORE PUSH1 0x40 SWAP1 KECCAK256 PUSH1 0x4 ADD SLOAD PUSH2 0x100 SWAP1 DIV PUSH1 0xFF AND SWAP1 JUMP JUMPDEST PUSH1 0x1 PUSH1 0x1 PUSH1 0xA0 SHL SUB DUP2 AND PUSH1 0x0 SWAP1 DUP2 MSTORE PUSH1 0x20 DUP2 SWAP1 MSTORE PUSH1 0x40 DUP2 KECCAK256 SLOAD PUSH1 0xFF AND PUSH2 0x4B8 JUMPI PUSH1 0x40 MLOAD PUSH3 0x461BCD PUSH1 0xE5 SHL DUP2 MSTORE PUSH1 0x20 PUSH1 0x4 DUP3 ADD MSTORE PUSH1 0x19 PUSH1 0x24 DUP3 ADD MSTORE PUSH32 0x42656E65666163746F7220646F6573206E6F7420657869737400000000000000 PUSH1 0x44 DUP3 ADD MSTORE PUSH1 0x64 ADD JUMPDEST PUSH1 0x40 MLOAD DUP1 SWAP2 SUB SWAP1 REVERT JUMPDEST POP PUSH1 0x1 PUSH1 0x1 PUSH1 0xA0 SHL SUB AND PUSH1 0x0 SWAP1 DUP2 MSTORE PUSH1 0x20 DUP2 SWAP1 MSTORE PUSH1 0x40 SWAP1 KECCAK256 PUSH1 0x4 ADD SLOAD PUSH1 0xFF AND ISZERO SWAP1 JUMP JUMPDEST PUSH1 0x1 PUSH1 0x1 PUSH1 0xA0 SHL SUB DUP1 DUP4 AND PUSH1 0x0 SWAP1 DUP2 MSTORE PUSH1 0x20 DUP2 DUP2 MSTORE PUSH1 0x40 DUP1 DUP4 KECCAK256 SWAP4 DUP6 AND DUP4 MSTORE PUSH1 0x1 SWAP1 SWAP4 ADD SWAP1 MSTORE KECCAK256 SLOAD PUSH1 0xFF AND JUMPDEST SWAP3 SWAP2 POP POP JUMP JUMPDEST CALLER PUSH1 0x0 SWAP1 DUP2 MSTORE PUSH1 0x20 DUP2 SWAP1 MSTORE PUSH1 0x40 SWAP1 KECCAK256 SLOAD PUSH1 0xFF AND ISZERO PUSH2 0x56D JUMPI PUSH1 0x40 MLOAD PUSH3 0x461BCD PUSH1 0xE5 SHL DUP2 MSTORE PUSH1 0x20 PUSH1 0x4 DUP3 ADD MSTORE PUSH1 0x19 PUSH1 0x24 DUP3 ADD MSTORE PUSH32 0x62656E65666163746F7220616C72656164792065786973747300000000000000 PUSH1 0x44 DUP3 ADD MSTORE PUSH1 0x64 ADD PUSH2 0x4AF JUMP JUMPDEST CALLER PUSH1 0x0 SWAP1 DUP2 MSTORE PUSH1 0x20 DUP2 SWAP1 MSTORE PUSH1 0x40 DUP2 KECCAK256 DUP1 SLOAD PUSH1 0xFF NOT AND PUSH1 0x1 OR DUP2 SSTORE PUSH3 0x93A80 PUSH1 0x2 DUP3 ADD SSTORE PUSH1 0x4 DUP2 ADD DUP1 SLOAD PUSH2 0x101 PUSH2 0xFFFF NOT SWAP1 SWAP2 AND OR SWAP1 SSTORE PUSH1 0x3 ADD SSTORE JUMP JUMPDEST PUSH1 0x1 PUSH1 0x1 PUSH1 0xA0 SHL SUB DUP2 AND PUSH1 0x0 SWAP1 DUP2 MSTORE PUSH1 0x20 DUP2 SWAP1 MSTORE PUSH1 0x40 DUP2 KECCAK256 SLOAD PUSH1 0x60 SWAP1 DUP3 SWAP1 PUSH1 0xFF AND PUSH2 0x616 JUMPI PUSH1 0x40 MLOAD PUSH3 0x461BCD PUSH1 0xE5 SHL DUP2 MSTORE PUSH1 0x20 PUSH1 0x4 DUP3 ADD MSTORE PUSH1 0x19 PUSH1 0x24 DUP3 ADD MSTORE PUSH32 0x42656E65666163746F7220646F6573206E6F7420657869737400000000000000 PUSH1 0x44 DUP3 ADD MSTORE PUSH1 0x64 ADD PUSH2 0x4AF JUMP JUMPDEST PUSH1 0x1 PUSH1 0x1 PUSH1 0xA0 SHL SUB DUP5 AND PUSH1 0x0 SWAP1 DUP2 MSTORE PUSH1 0x20 DUP2 DUP2 MSTORE PUSH1 0x40 DUP1 DUP4 KECCAK256 PUSH1 0x4 ADD SLOAD PUSH1 0x1 SWAP1 SWAP3 MSTORE SWAP1 SWAP2 KECCAK256 SLOAD PUSH1 0xFF SWAP1 SWAP2 AND ISZERO SWAP4 POP PUSH8 0xFFFFFFFFFFFFFFFF DUP2 GT ISZERO PUSH2 0x65C JUMPI PUSH2 0x65C PUSH2 0x1B97 JUMP JUMPDEST PUSH1 0x40 MLOAD SWAP1 DUP1 DUP3 MSTORE DUP1 PUSH1 0x20 MUL PUSH1 0x20 ADD DUP3 ADD PUSH1 0x40 MSTORE DUP1 ISZERO PUSH2 0x685 JUMPI DUP2 PUSH1 0x20 ADD PUSH1 0x20 DUP3 MUL DUP1 CALLDATASIZE DUP4 CALLDATACOPY ADD SWAP1 POP JUMPDEST POP SWAP2 POP PUSH1 0x0 DUP1 JUMPDEST DUP4 MLOAD DUP2 LT ISZERO PUSH2 0x78E JUMPI PUSH1 0x1 PUSH1 0x1 PUSH1 0xA0 SHL SUB DUP7 AND PUSH1 0x0 SWAP1 DUP2 MSTORE PUSH1 0x20 DUP2 DUP2 MSTORE PUSH1 0x40 DUP1 DUP4 KECCAK256 PUSH1 0x1 SWAP3 DUP4 SWAP1 MSTORE SWAP1 DUP4 KECCAK256 DUP1 SLOAD SWAP3 SWAP1 SWAP2 ADD SWAP3 SWAP2 DUP5 SWAP1 DUP2 LT PUSH2 0x6CF JUMPI PUSH2 0x6CF PUSH2 0x1DD4 JUMP JUMPDEST PUSH1 0x0 SWAP2 DUP3 MSTORE PUSH1 0x20 DUP1 DUP4 KECCAK256 SWAP1 SWAP2 ADD SLOAD PUSH1 0x1 PUSH1 0x1 PUSH1 0xA0 SHL SUB AND DUP4 MSTORE DUP3 ADD SWAP3 SWAP1 SWAP3 MSTORE PUSH1 0x40 ADD SWAP1 KECCAK256 SLOAD PUSH1 0xFF AND ISZERO PUSH2 0x77C JUMPI PUSH1 0x1 PUSH1 0x1 PUSH1 0xA0 SHL SUB DUP7 AND PUSH1 0x0 SWAP1 DUP2 MSTORE PUSH1 0x1 PUSH1 0x20 MSTORE PUSH1 0x40 SWAP1 KECCAK256 DUP1 SLOAD DUP3 SWAP1 DUP2 LT PUSH2 0x726 JUMPI PUSH2 0x726 PUSH2 0x1DD4 JUMP JUMPDEST SWAP1 PUSH1 0x0 MSTORE PUSH1 0x20 PUSH1 0x0 KECCAK256 ADD PUSH1 0x0 SWAP1 SLOAD SWAP1 PUSH2 0x100 EXP SWAP1 DIV PUSH1 0x1 PUSH1 0x1 PUSH1 0xA0 SHL SUB AND DUP5 DUP4 DUP2 MLOAD DUP2 LT PUSH2 0x756 JUMPI PUSH2 0x756 PUSH2 0x1DD4 JUMP JUMPDEST PUSH1 0x1 PUSH1 0x1 PUSH1 0xA0 SHL SUB SWAP1 SWAP3 AND PUSH1 0x20 SWAP3 DUP4 MUL SWAP2 SWAP1 SWAP2 ADD SWAP1 SWAP2 ADD MSTORE DUP2 PUSH2 0x778 DUP2 PUSH2 0x1DEA JUMP JUMPDEST SWAP3 POP POP JUMPDEST DUP1 PUSH2 0x786 DUP2 PUSH2 0x1DEA JUMP JUMPDEST SWAP2 POP POP PUSH2 0x68C JUMP JUMPDEST POP PUSH1 0x1 PUSH1 0x1 PUSH1 0xA0 SHL SUB DUP6 AND PUSH1 0x0 SWAP1 DUP2 MSTORE PUSH1 0x20 DUP2 SWAP1 MSTORE PUSH1 0x40 SWAP1 KECCAK256 PUSH1 0x4 ADD SLOAD PUSH1 0xFF AND ISZERO PUSH2 0x7BC JUMPI PUSH1 0x0 SWAP2 POP PUSH2 0x7C8 JUMP JUMPDEST PUSH2 0x7C5 DUP6 PUSH2 0x2C9 JUMP JUMPDEST SWAP2 POP JUMPDEST POP SWAP2 SWAP4 SWAP1 SWAP3 POP JUMP JUMPDEST PUSH2 0x7DA DUP4 DUP4 PUSH2 0x4DB JUMP JUMPDEST PUSH2 0x826 JUMPI PUSH1 0x40 MLOAD PUSH3 0x461BCD PUSH1 0xE5 SHL DUP2 MSTORE PUSH1 0x20 PUSH1 0x4 DUP3 ADD DUP2 SWAP1 MSTORE PUSH1 0x24 DUP3 ADD MSTORE PUSH32 0x42656E65666963696172792F42656E65666163746F72206E6F7420666F756E64 PUSH1 0x44 DUP3 ADD MSTORE PUSH1 0x64 ADD PUSH2 0x4AF JUMP JUMPDEST PUSH1 0x1 PUSH1 0x1 PUSH1 0xA0 SHL SUB DUP1 DUP5 AND PUSH1 0x0 SWAP1 DUP2 MSTORE PUSH1 0x20 DUP2 DUP2 MSTORE PUSH1 0x40 DUP1 DUP4 KECCAK256 SWAP4 DUP7 AND DUP4 MSTORE PUSH1 0x1 SWAP1 SWAP4 ADD SWAP1 MSTORE KECCAK256 PUSH1 0x3 ADD PUSH2 0x85A DUP3 DUP3 PUSH2 0x1E8C JUMP JUMPDEST POP DUP2 PUSH1 0x1 PUSH1 0x1 PUSH1 0xA0 SHL SUB AND DUP4 PUSH1 0x1 PUSH1 0x1 PUSH1 0xA0 SHL SUB AND PUSH32 0x69CCEA10852AC51B01745414774B5AF302217E774786D2068296650B57BA03F2 DUP4 PUSH1 0x40 MLOAD PUSH2 0x89E SWAP2 SWAP1 PUSH2 0x1D36 JUMP JUMPDEST PUSH1 0x40 MLOAD DUP1 SWAP2 SUB SWAP1 LOG3 POP POP POP JUMP JUMPDEST CALLER PUSH1 0x0 SWAP1 DUP2 MSTORE PUSH1 0x20 DUP2 SWAP1 MSTORE PUSH1 0x40 SWAP1 KECCAK256 SLOAD PUSH1 0xFF AND DUP1 ISZERO PUSH2 0x8E1 JUMPI POP CALLER PUSH1 0x0 SWAP1 DUP2 MSTORE PUSH1 0x20 DUP2 SWAP1 MSTORE PUSH1 0x40 SWAP1 KECCAK256 PUSH1 0x4 ADD SLOAD PUSH2 0x100 SWAP1 DIV PUSH1 0xFF AND JUMPDEST PUSH2 0x926 JUMPI PUSH1 0x40 MLOAD PUSH3 0x461BCD PUSH1 0xE5 SHL DUP2 MSTORE PUSH1 0x20 PUSH1 0x4 DUP3 ADD MSTORE PUSH1 0x16 PUSH1 0x24 DUP3 ADD MSTORE PUSH22 0x2737BA1030903B30B634B2103132B732B330B1BA37B9 PUSH1 0x51 SHL PUSH1 0x44 DUP3 ADD MSTORE PUSH1 0x64 ADD PUSH2 0x4AF JUMP JUMPDEST PUSH2 0x930 CALLER DUP4 PUSH2 0x4DB JUMP JUMPDEST PUSH2 0x974 JUMPI PUSH1 0x40 MLOAD PUSH3 0x461BCD PUSH1 0xE5 SHL DUP2 MSTORE PUSH1 0x20 PUSH1 0x4 DUP3 ADD MSTORE PUSH1 0x15 PUSH1 0x24 DUP3 ADD MSTORE PUSH21 0x10995B99599A58DA585C9E481B9BDD08199BDD5B99 PUSH1 0x5A SHL PUSH1 0x44 DUP3 ADD MSTORE PUSH1 0x64 ADD PUSH2 0x4AF JUMP JUMPDEST CALLER PUSH1 0x0 SWAP1 DUP2 MSTORE PUSH1 0x20 DUP2 DUP2 MSTORE PUSH1 0x40 DUP1 DUP4 KECCAK256 PUSH1 0x1 PUSH1 0x1 PUSH1 0xA0 SHL SUB DUP7 AND DUP5 MSTORE PUSH1 0x1 SWAP1 DUP2 ADD SWAP1 SWAP3 MSTORE DUP3 KECCAK256 ADD SWAP1 JUMPDEST DUP2 SLOAD DUP2 LT ISZERO PUSH2 0xA94 JUMPI DUP3 PUSH1 0x40 MLOAD PUSH1 0x20 ADD PUSH2 0x9B7 SWAP2 SWAP1 PUSH2 0x1F4C JUMP JUMPDEST PUSH1 0x40 MLOAD PUSH1 0x20 DUP2 DUP4 SUB SUB DUP2 MSTORE SWAP1 PUSH1 0x40 MSTORE DUP1 MLOAD SWAP1 PUSH1 0x20 ADD KECCAK256 DUP3 DUP3 DUP2 SLOAD DUP2 LT PUSH2 0x9DF JUMPI PUSH2 0x9DF PUSH2 0x1DD4 JUMP JUMPDEST SWAP1 PUSH1 0x0 MSTORE PUSH1 0x20 PUSH1 0x0 KECCAK256 ADD PUSH1 0x40 MLOAD PUSH1 0x20 ADD PUSH2 0x9F9 SWAP2 SWAP1 PUSH2 0x1F68 JUMP JUMPDEST PUSH1 0x40 MLOAD PUSH1 0x20 DUP2 DUP4 SUB SUB DUP2 MSTORE SWAP1 PUSH1 0x40 MSTORE DUP1 MLOAD SWAP1 PUSH1 0x20 ADD KECCAK256 SUB PUSH2 0xA82 JUMPI PUSH1 0x40 MLOAD PUSH3 0x461BCD PUSH1 0xE5 SHL DUP2 MSTORE PUSH1 0x20 PUSH1 0x4 DUP3 ADD MSTORE PUSH1 0x28 PUSH1 0x24 DUP3 ADD MSTORE PUSH32 0x43494420616C72656164792061737369676E656420746F20746869732062656E PUSH1 0x44 DUP3 ADD MSTORE PUSH32 0x6566696369617279000000000000000000000000000000000000000000000000 PUSH1 0x64 DUP3 ADD MSTORE PUSH1 0x84 ADD PUSH2 0x4AF JUMP JUMPDEST DUP1 PUSH2 0xA8C DUP2 PUSH2 0x1DEA JUMP JUMPDEST SWAP2 POP POP PUSH2 0x99D JUMP JUMPDEST POP CALLER PUSH1 0x0 SWAP1 DUP2 MSTORE PUSH1 0x20 DUP2 DUP2 MSTORE PUSH1 0x40 DUP1 DUP4 KECCAK256 PUSH1 0x1 PUSH1 0x1 PUSH1 0xA0 SHL SUB DUP8 AND DUP5 MSTORE PUSH1 0x1 SWAP1 DUP2 ADD DUP4 MSTORE SWAP1 DUP4 KECCAK256 DUP2 ADD DUP1 SLOAD SWAP2 DUP3 ADD DUP2 SSTORE DUP4 MSTORE SWAP2 KECCAK256 ADD PUSH2 0xAD3 DUP4 DUP3 PUSH2 0x1E8C JUMP JUMPDEST POP DUP3 PUSH1 0x1 PUSH1 0x1 PUSH1 0xA0 SHL SUB AND CALLER PUSH1 0x1 PUSH1 0x1 PUSH1 0xA0 SHL SUB AND PUSH32 0xA1BB52B874769D5C17CDE30E708E8F7180BB949F70E77CAF0DA68D25F9A1A510 DUP5 PUSH1 0x40 MLOAD PUSH2 0x89E SWAP2 SWAP1 PUSH2 0x1D36 JUMP JUMPDEST CALLER PUSH1 0x0 SWAP1 DUP2 MSTORE PUSH1 0x20 DUP2 SWAP1 MSTORE PUSH1 0x40 SWAP1 KECCAK256 SLOAD PUSH1 0xFF AND DUP1 ISZERO PUSH2 0xB4D JUMPI POP CALLER PUSH1 0x0 SWAP1 DUP2 MSTORE PUSH1 0x20 DUP2 SWAP1 MSTORE PUSH1 0x40 SWAP1 KECCAK256 PUSH1 0x4 ADD SLOAD PUSH2 0x100 SWAP1 DIV PUSH1 0xFF AND JUMPDEST PUSH2 0xB92 JUMPI PUSH1 0x40 MLOAD PUSH3 0x461BCD PUSH1 0xE5 SHL DUP2 MSTORE PUSH1 0x20 PUSH1 0x4 DUP3 ADD MSTORE PUSH1 0x16 PUSH1 0x24 DUP3 ADD MSTORE PUSH22 0x2737BA1030903B30B634B2103132B732B330B1BA37B9 PUSH1 0x51 SHL PUSH1 0x44 DUP3 ADD MSTORE PUSH1 0x64 ADD PUSH2 0x4AF JUMP JUMPDEST PUSH2 0xB9C CALLER DUP3 PUSH2 0x4DB JUMP JUMPDEST ISZERO PUSH2 0xBE9 JUMPI PUSH1 0x40 MLOAD PUSH3 0x461BCD PUSH1 0xE5 SHL DUP2 MSTORE PUSH1 0x20 PUSH1 0x4 DUP3 ADD MSTORE PUSH1 0x1A PUSH1 0x24 DUP3 ADD MSTORE PUSH32 0x42656E656669636961727920616C726561647920657869737473000000000000 PUSH1 0x44 DUP3 ADD MSTORE PUSH1 0x64 ADD PUSH2 0x4AF JUMP JUMPDEST PUSH1 0x40 DUP1 MLOAD PUSH1 0x80 DUP2 ADD DUP3 MSTORE PUSH1 0x1 DUP2 MSTORE DUP2 MLOAD PUSH1 0x0 DUP1 DUP3 MSTORE PUSH1 0x20 DUP3 DUP2 ADD SWAP1 SWAP5 MSTORE SWAP2 SWAP3 DUP4 ADD SWAP2 PUSH2 0xC25 JUMP JUMPDEST PUSH1 0x60 DUP2 MSTORE PUSH1 0x20 ADD SWAP1 PUSH1 0x1 SWAP1 SUB SWAP1 DUP2 PUSH2 0xC10 JUMPI SWAP1 POP JUMPDEST POP DUP2 MSTORE PUSH1 0x40 DUP1 MLOAD PUSH1 0x20 DUP1 DUP3 ADD DUP4 MSTORE PUSH1 0x0 DUP1 DUP4 MSTORE DUP2 DUP6 ADD SWAP3 SWAP1 SWAP3 MSTORE DUP3 MLOAD DUP1 DUP3 ADD DUP5 MSTORE DUP3 DUP2 MSTORE SWAP4 DUP4 ADD SWAP4 SWAP1 SWAP4 MSTORE CALLER DUP2 MSTORE DUP1 DUP4 MSTORE DUP2 DUP2 KECCAK256 PUSH1 0x1 PUSH1 0x1 PUSH1 0xA0 SHL SUB DUP7 AND DUP3 MSTORE PUSH1 0x1 SWAP1 DUP2 ADD DUP5 MSTORE SWAP2 SWAP1 KECCAK256 DUP4 MLOAD DUP2 SLOAD PUSH1 0xFF NOT AND SWAP1 ISZERO ISZERO OR DUP2 SSTORE DUP4 DUP4 ADD MLOAD DUP1 MLOAD SWAP2 SWAP4 PUSH2 0xC94 SWAP4 DUP6 ADD SWAP3 SWAP2 ADD SWAP1 PUSH2 0x19E8 JUMP JUMPDEST POP PUSH1 0x40 DUP3 ADD MLOAD PUSH1 0x2 DUP3 ADD SWAP1 PUSH2 0xCA9 SWAP1 DUP3 PUSH2 0x1E8C JUMP JUMPDEST POP PUSH1 0x60 DUP3 ADD MLOAD PUSH1 0x3 DUP3 ADD SWAP1 PUSH2 0xCBE SWAP1 DUP3 PUSH2 0x1E8C JUMP JUMPDEST POP POP PUSH1 0x40 MLOAD PUSH1 0x1 PUSH1 0x1 PUSH1 0xA0 SHL SUB DUP4 AND SWAP2 POP CALLER SWAP1 PUSH32 0xBB39C36A7502B7256E1A687254146A9A2EA7B146C77CB9E40EB0E2B8793781E1 SWAP1 PUSH1 0x0 SWAP1 LOG3 POP JUMP JUMPDEST CALLER PUSH1 0x0 SWAP1 DUP2 MSTORE PUSH1 0x20 DUP2 SWAP1 MSTORE PUSH1 0x40 SWAP1 KECCAK256 SLOAD PUSH1 0xFF AND DUP1 ISZERO PUSH2 0xD30 JUMPI POP CALLER PUSH1 0x0 SWAP1 DUP2 MSTORE PUSH1 0x20 DUP2 SWAP1 MSTORE PUSH1 0x40 SWAP1 KECCAK256 PUSH1 0x4 ADD SLOAD PUSH2 0x100 SWAP1 DIV PUSH1 0xFF AND JUMPDEST PUSH2 0xD75 JUMPI PUSH1 0x40 MLOAD PUSH3 0x461BCD PUSH1 0xE5 SHL DUP2 MSTORE PUSH1 0x20 PUSH1 0x4 DUP3 ADD MSTORE PUSH1 0x16 PUSH1 0x24 DUP3 ADD MSTORE PUSH22 0x2737BA1030903B30B634B2103132B732B330B1BA37B9 PUSH1 0x51 SHL PUSH1 0x44 DUP3 ADD MSTORE PUSH1 0x64 ADD PUSH2 0x4AF JUMP JUMPDEST PUSH2 0xD7F CALLER DUP3 PUSH2 0x4DB JUMP JUMPDEST PUSH2 0xDC3 JUMPI PUSH1 0x40 MLOAD PUSH3 0x461BCD PUSH1 0xE5 SHL DUP2 MSTORE PUSH1 0x20 PUSH1 0x4 DUP3 ADD MSTORE PUSH1 0x15 PUSH1 0x24 DUP3 ADD MSTORE PUSH21 0x10995B99599A58DA585C9E481B9BDD08199BDD5B99 PUSH1 0x5A SHL PUSH1 0x44 DUP3 ADD MSTORE PUSH1 0x64 ADD PUSH2 0x4AF JUMP JUMPDEST CALLER PUSH1 0x0 SWAP1 DUP2 MSTORE PUSH1 0x20 DUP2 DUP2 MSTORE PUSH1 0x40 DUP1 DUP4 KECCAK256 PUSH1 0x1 PUSH1 0x1 PUSH1 0xA0 SHL SUB DUP6 AND DUP5 MSTORE PUSH1 0x1 SWAP1 DUP2 ADD SWAP1 SWAP3 MSTORE DUP3 KECCAK256 DUP1 SLOAD PUSH1 0xFF NOT AND DUP2 SSTORE SWAP2 SWAP1 PUSH2 0xDFF SWAP1 DUP4 ADD DUP3 PUSH2 0x1A3E JUMP JUMPDEST PUSH2 0xE0D PUSH1 0x2 DUP4 ADD PUSH1 0x0 PUSH2 0x1A5F JUMP JUMPDEST PUSH2 0xE1B PUSH1 0x3 DUP4 ADD PUSH1 0x0 PUSH2 0x1A5F JUMP JUMPDEST POP POP PUSH1 0x40 MLOAD PUSH1 0x1 PUSH1 0x1 PUSH1 0xA0 SHL SUB DUP3 AND SWAP1 CALLER SWAP1 PUSH32 0x1A6590BD0CABBFCC7C86BEF99E1034054E179905CFCC294598FCD426C0922442 SWAP1 PUSH1 0x0 SWAP1 LOG3 POP JUMP JUMPDEST CALLER PUSH1 0x0 SWAP1 DUP2 MSTORE PUSH1 0x20 DUP2 SWAP1 MSTORE PUSH1 0x40 SWAP1 KECCAK256 SLOAD PUSH1 0xFF AND DUP1 ISZERO PUSH2 0xE8C JUMPI POP CALLER PUSH1 0x0 SWAP1 DUP2 MSTORE PUSH1 0x20 DUP2 SWAP1 MSTORE PUSH1 0x40 SWAP1 KECCAK256 PUSH1 0x4 ADD SLOAD PUSH2 0x100 SWAP1 DIV PUSH1 0xFF AND JUMPDEST PUSH2 0xED1 JUMPI PUSH1 0x40 MLOAD PUSH3 0x461BCD PUSH1 0xE5 SHL DUP2 MSTORE PUSH1 0x20 PUSH1 0x4 DUP3 ADD MSTORE PUSH1 0x16 PUSH1 0x24 DUP3 ADD MSTORE PUSH22 0x2737BA1030903B30B634B2103132B732B330B1BA37B9 PUSH1 0x51 SHL PUSH1 0x44 DUP3 ADD MSTORE PUSH1 0x64 ADD PUSH2 0x4AF JUMP JUMPDEST PUSH2 0xEDB CALLER DUP4 PUSH2 0x4DB JUMP JUMPDEST PUSH2 0xF1F JUMPI PUSH1 0x40 MLOAD PUSH3 0x461BCD PUSH1 0xE5 SHL DUP2 MSTORE PUSH1 0x20 PUSH1 0x4 DUP3 ADD MSTORE PUSH1 0x15 PUSH1 0x24 DUP3 ADD MSTORE PUSH21 0x10995B99599A58DA585C9E481B9BDD08199BDD5B99 PUSH1 0x5A SHL PUSH1 0x44 DUP3 ADD MSTORE PUSH1 0x64 ADD PUSH2 0x4AF JUMP JUMPDEST CALLER PUSH1 0x0 SWAP1 DUP2 MSTORE PUSH1 0x20 DUP2 DUP2 MSTORE PUSH1 0x40 DUP1 DUP4 KECCAK256 PUSH1 0x1 PUSH1 0x1 PUSH1 0xA0 SHL SUB DUP7 AND DUP5 MSTORE PUSH1 0x1 SWAP1 DUP2 ADD SWAP1 SWAP3 MSTORE DUP3 KECCAK256 ADD SWAP1 JUMPDEST DUP2 SLOAD DUP2 LT ISZERO PUSH2 0x10A3 JUMPI DUP3 PUSH1 0x40 MLOAD PUSH1 0x20 ADD PUSH2 0xF62 SWAP2 SWAP1 PUSH2 0x1F4C JUMP JUMPDEST PUSH1 0x40 MLOAD PUSH1 0x20 DUP2 DUP4 SUB SUB DUP2 MSTORE SWAP1 PUSH1 0x40 MSTORE DUP1 MLOAD SWAP1 PUSH1 0x20 ADD KECCAK256 DUP3 DUP3 DUP2 SLOAD DUP2 LT PUSH2 0xF8A JUMPI PUSH2 0xF8A PUSH2 0x1DD4 JUMP JUMPDEST SWAP1 PUSH1 0x0 MSTORE PUSH1 0x20 PUSH1 0x0 KECCAK256 ADD PUSH1 0x40 MLOAD PUSH1 0x20 ADD PUSH2 0xFA4 SWAP2 SWAP1 PUSH2 0x1F68 JUMP JUMPDEST PUSH1 0x40 MLOAD PUSH1 0x20 DUP2 DUP4 SUB SUB DUP2 MSTORE SWAP1 PUSH1 0x40 MSTORE DUP1 MLOAD SWAP1 PUSH1 0x20 ADD KECCAK256 SUB PUSH2 0x1091 JUMPI DUP2 SLOAD DUP3 SWAP1 PUSH2 0xFCF SWAP1 PUSH1 0x1 SWAP1 PUSH2 0x1DC1 JUMP JUMPDEST DUP2 SLOAD DUP2 LT PUSH2 0xFDF JUMPI PUSH2 0xFDF PUSH2 0x1DD4 JUMP JUMPDEST SWAP1 PUSH1 0x0 MSTORE PUSH1 0x20 PUSH1 0x0 KECCAK256 ADD DUP3 DUP3 DUP2 SLOAD DUP2 LT PUSH2 0xFFB JUMPI PUSH2 0xFFB PUSH2 0x1DD4 JUMP JUMPDEST SWAP1 PUSH1 0x0 MSTORE PUSH1 0x20 PUSH1 0x0 KECCAK256 ADD SWAP1 DUP2 PUSH2 0x1011 SWAP2 SWAP1 PUSH2 0x1FDE JUMP JUMPDEST POP DUP2 DUP1 SLOAD DUP1 PUSH2 0x1022 JUMPI PUSH2 0x1022 PUSH2 0x20B9 JUMP JUMPDEST PUSH1 0x1 SWAP1 SUB DUP2 DUP2 SWAP1 PUSH1 0x0 MSTORE PUSH1 0x20 PUSH1 0x0 KECCAK256 ADD PUSH1 0x0 PUSH2 0x103E SWAP2 SWAP1 PUSH2 0x1A5F JUMP JUMPDEST SWAP1 SSTORE DUP4 PUSH1 0x1 PUSH1 0x1 PUSH1 0xA0 SHL SUB AND CALLER PUSH1 0x1 PUSH1 0x1 PUSH1 0xA0 SHL SUB AND PUSH32 0x4C13211CE3B2D0CB3E02A662CC071D6BE555042CA58D4D812B7B90E80D3250AC DUP6 PUSH1 0x40 MLOAD PUSH2 0x1083 SWAP2 SWAP1 PUSH2 0x1D36 JUMP JUMPDEST PUSH1 0x40 MLOAD DUP1 SWAP2 SUB SWAP1 LOG3 POP POP POP POP JUMP JUMPDEST DUP1 PUSH2 0x109B DUP2 PUSH2 0x1DEA JUMP JUMPDEST SWAP2 POP POP PUSH2 0xF48 JUMP JUMPDEST POP PUSH1 0x40 MLOAD PUSH3 0x461BCD PUSH1 0xE5 SHL DUP2 MSTORE PUSH1 0x20 PUSH1 0x4 DUP3 ADD MSTORE PUSH1 0x24 DUP1 DUP3 ADD MSTORE PUSH32 0x434944206E6F742061737369676E656420746F20746869732062656E65666963 PUSH1 0x44 DUP3 ADD MSTORE PUSH4 0x69617279 PUSH1 0xE0 SHL PUSH1 0x64 DUP3 ADD MSTORE PUSH1 0x84 ADD PUSH2 0x4AF JUMP JUMPDEST PUSH1 0x60 PUSH2 0x1104 DUP4 DUP4 PUSH2 0x4DB JUMP JUMPDEST ISZERO PUSH2 0x11C3 JUMPI PUSH1 0x1 PUSH1 0x1 PUSH1 0xA0 SHL SUB DUP1 DUP5 AND PUSH1 0x0 SWAP1 DUP2 MSTORE PUSH1 0x20 DUP2 DUP2 MSTORE PUSH1 0x40 DUP1 DUP4 KECCAK256 SWAP4 DUP7 AND DUP4 MSTORE PUSH1 0x1 SWAP1 SWAP4 ADD SWAP1 MSTORE KECCAK256 PUSH1 0x2 ADD DUP1 SLOAD PUSH2 0x113E SWAP1 PUSH2 0x1E03 JUMP JUMPDEST DUP1 PUSH1 0x1F ADD PUSH1 0x20 DUP1 SWAP2 DIV MUL PUSH1 0x20 ADD PUSH1 0x40 MLOAD SWAP1 DUP2 ADD PUSH1 0x40 MSTORE DUP1 SWAP3 SWAP2 SWAP1 DUP2 DUP2 MSTORE PUSH1 0x20 ADD DUP3 DUP1 SLOAD PUSH2 0x116A SWAP1 PUSH2 0x1E03 JUMP JUMPDEST DUP1 ISZERO PUSH2 0x11B7 JUMPI DUP1 PUSH1 0x1F LT PUSH2 0x118C JUMPI PUSH2 0x100 DUP1 DUP4 SLOAD DIV MUL DUP4 MSTORE SWAP2 PUSH1 0x20 ADD SWAP2 PUSH2 0x11B7 JUMP JUMPDEST DUP3 ADD SWAP2 SWAP1 PUSH1 0x0 MSTORE PUSH1 0x20 PUSH1 0x0 KECCAK256 SWAP1 JUMPDEST DUP2 SLOAD DUP2 MSTORE SWAP1 PUSH1 0x1 ADD SWAP1 PUSH1 0x20 ADD DUP1 DUP4 GT PUSH2 0x119A JUMPI DUP3 SWAP1 SUB PUSH1 0x1F AND DUP3 ADD SWAP2 JUMPDEST POP POP POP POP POP SWAP1 POP PUSH2 0x507 JUMP JUMPDEST POP PUSH1 0x40 DUP1 MLOAD PUSH1 0x20 DUP2 ADD SWAP1 SWAP2 MSTORE PUSH1 0x0 DUP2 MSTORE PUSH2 0x507 JUMP JUMPDEST PUSH1 0x1 PUSH1 0x1 PUSH1 0xA0 SHL SUB DUP2 AND PUSH1 0x0 SWAP1 DUP2 MSTORE PUSH1 0x20 DUP2 DUP2 MSTORE PUSH1 0x40 DUP1 DUP4 KECCAK256 CALLER DUP5 MSTORE PUSH1 0x1 ADD SWAP1 SWAP2 MSTORE SWAP1 KECCAK256 SLOAD PUSH1 0xFF AND PUSH2 0x124C JUMPI PUSH1 0x40 MLOAD PUSH3 0x461BCD PUSH1 0xE5 SHL DUP2 MSTORE PUSH1 0x20 PUSH1 0x4 DUP3 ADD MSTORE PUSH1 0x17 PUSH1 0x24 DUP3 ADD MSTORE PUSH32 0x4E6F7420612076616C69642062656E6566696369617279000000000000000000 PUSH1 0x44 DUP3 ADD MSTORE PUSH1 0x64 ADD PUSH2 0x4AF JUMP JUMPDEST PUSH1 0x1 PUSH1 0x1 PUSH1 0xA0 SHL SUB DUP2 AND PUSH1 0x0 SWAP1 DUP2 MSTORE PUSH1 0x20 DUP2 SWAP1 MSTORE PUSH1 0x40 SWAP1 KECCAK256 PUSH1 0x4 ADD SLOAD PUSH1 0xFF AND PUSH2 0x12A8 JUMPI PUSH1 0x40 MLOAD CALLER SWAP1 PUSH1 0x1 PUSH1 0x1 PUSH1 0xA0 SHL SUB DUP4 AND SWAP1 PUSH32 0x67C4731BDC193862F421E091D18F46DF876BFE1B8B9AA97504F1D50D425B239D SWAP1 PUSH1 0x0 SWAP1 LOG3 POP JUMP JUMPDEST PUSH1 0x1 PUSH1 0x1 PUSH1 0xA0 SHL SUB DUP2 AND PUSH1 0x0 DUP2 DUP2 MSTORE PUSH1 0x20 DUP2 DUP2 MSTORE PUSH1 0x40 SWAP2 DUP3 SWAP1 KECCAK256 PUSH1 0x4 DUP2 ADD DUP1 SLOAD PUSH1 0xFF NOT AND SWAP1 SSTORE TIMESTAMP PUSH1 0x3 DUP3 ADD SSTORE PUSH1 0x2 ADD SLOAD SWAP2 MLOAD SWAP2 DUP3 MSTORE CALLER SWAP3 SWAP2 PUSH32 0x82595752291D0261DFB9B4B0C2307021C29C34E22FE0697B4840B529DC351BC3 SWAP2 ADD PUSH1 0x40 MLOAD DUP1 SWAP2 SUB SWAP1 LOG3 POP JUMP JUMPDEST CALLER PUSH1 0x0 SWAP1 DUP2 MSTORE PUSH1 0x20 DUP2 SWAP1 MSTORE PUSH1 0x40 SWAP1 KECCAK256 SLOAD PUSH1 0xFF AND PUSH2 0x136D JUMPI PUSH1 0x40 MLOAD PUSH3 0x461BCD PUSH1 0xE5 SHL DUP2 MSTORE PUSH1 0x20 PUSH1 0x4 DUP3 ADD MSTORE PUSH1 0x19 PUSH1 0x24 DUP3 ADD MSTORE PUSH32 0x42656E65666163746F72206E6F74207265676973746572656400000000000000 PUSH1 0x44 DUP3 ADD MSTORE PUSH1 0x64 ADD PUSH2 0x4AF JUMP JUMPDEST CALLER PUSH1 0x0 SWAP1 DUP2 MSTORE PUSH1 0x20 DUP2 SWAP1 MSTORE PUSH1 0x40 DUP1 DUP3 KECCAK256 DUP1 SLOAD PUSH1 0xFF NOT SWAP1 DUP2 AND SWAP1 SWAP2 SSTORE PUSH1 0x1 PUSH1 0x1 PUSH1 0xA0 SHL SUB SWAP4 SWAP1 SWAP4 AND DUP3 MSTORE DUP2 KECCAK256 DUP1 SLOAD SWAP1 SWAP3 AND DUP3 SSTORE PUSH1 0x2 DUP3 ADD DUP2 SWAP1 SSTORE PUSH1 0x3 DUP3 ADD SSTORE PUSH1 0x4 ADD DUP1 SLOAD PUSH2 0xFFFF NOT AND SWAP1 SSTORE JUMP JUMPDEST CALLER PUSH1 0x0 SWAP1 DUP2 MSTORE PUSH1 0x20 DUP2 SWAP1 MSTORE PUSH1 0x40 SWAP1 KECCAK256 SLOAD PUSH1 0xFF AND DUP1 ISZERO PUSH2 0x13EF JUMPI POP CALLER PUSH1 0x0 SWAP1 DUP2 MSTORE PUSH1 0x20 DUP2 SWAP1 MSTORE PUSH1 0x40 SWAP1 KECCAK256 PUSH1 0x4 ADD SLOAD PUSH2 0x100 SWAP1 DIV PUSH1 0xFF AND JUMPDEST PUSH2 0x1434 JUMPI PUSH1 0x40 MLOAD PUSH3 0x461BCD PUSH1 0xE5 SHL DUP2 MSTORE PUSH1 0x20 PUSH1 0x4 DUP3 ADD MSTORE PUSH1 0x16 PUSH1 0x24 DUP3 ADD MSTORE PUSH22 0x2737BA1030903B30B634B2103132B732B330B1BA37B9 PUSH1 0x51 SHL PUSH1 0x44 DUP3 ADD MSTORE PUSH1 0x64 ADD PUSH2 0x4AF JUMP JUMPDEST CALLER PUSH1 0x0 SWAP1 DUP2 MSTORE PUSH1 0x20 DUP2 SWAP1 MSTORE PUSH1 0x40 SWAP1 KECCAK256 PUSH1 0x3 ADD SLOAD ISZERO PUSH2 0x155E JUMPI PUSH2 0x1455 CALLER PUSH2 0x3B7 JUMP JUMPDEST ISZERO PUSH2 0x14EB JUMPI CALLER PUSH1 0x1 PUSH1 0x1 PUSH1 0xA0 SHL SUB AND PUSH32 0x793324A6F079E577F4A4646C7EC753EFD3BEDDC2F4CE07BFAE5F105C449AC356 PUSH1 0x40 MLOAD PUSH2 0x14C3 SWAP1 PUSH1 0x20 DUP1 DUP3 MSTORE PUSH1 0x13 SWAP1 DUP3 ADD MSTORE PUSH32 0x42656E65666163746F7220697320616C69766500000000000000000000000000 PUSH1 0x40 DUP3 ADD MSTORE PUSH1 0x60 ADD SWAP1 JUMP JUMPDEST PUSH1 0x40 MLOAD DUP1 SWAP2 SUB SWAP1 LOG2 PUSH2 0x14D3 PUSH2 0x18C8 JUMP JUMPDEST CALLER PUSH1 0x0 SWAP1 DUP2 MSTORE PUSH1 0x20 DUP2 SWAP1 MSTORE PUSH1 0x40 SWAP1 KECCAK256 TIMESTAMP PUSH1 0x3 SWAP1 SWAP2 ADD SSTORE JUMP JUMPDEST CALLER PUSH1 0x1 PUSH1 0x1 PUSH1 0xA0 SHL SUB AND PUSH32 0x5A68FA7D6B655A3E592D5D99AC82863424750E9D262C902F30F9E56655E7A856 PUSH1 0x40 MLOAD PUSH2 0x1554 SWAP1 PUSH1 0x20 DUP1 DUP3 MSTORE PUSH1 0x12 SWAP1 DUP3 ADD MSTORE PUSH32 0x42656E65666163746F7220697320646561640000000000000000000000000000 PUSH1 0x40 DUP3 ADD MSTORE PUSH1 0x60 ADD SWAP1 JUMP JUMPDEST PUSH1 0x40 MLOAD DUP1 SWAP2 SUB SWAP1 LOG2 JUMP JUMPDEST CALLER PUSH1 0x1 PUSH1 0x1 PUSH1 0xA0 SHL SUB AND PUSH32 0x793324A6F079E577F4A4646C7EC753EFD3BEDDC2F4CE07BFAE5F105C449AC356 PUSH1 0x40 MLOAD PUSH2 0x14C3 SWAP1 PUSH1 0x20 DUP1 DUP3 MSTORE PUSH1 0x13 SWAP1 DUP3 ADD MSTORE PUSH32 0x42656E65666163746F7220697320616C69766500000000000000000000000000 PUSH1 0x40 DUP3 ADD MSTORE PUSH1 0x60 ADD SWAP1 JUMP JUMPDEST PUSH2 0x15D1 DUP4 DUP4 PUSH2 0x4DB JUMP JUMPDEST PUSH2 0x161D JUMPI PUSH1 0x40 MLOAD PUSH3 0x461BCD PUSH1 0xE5 SHL DUP2 MSTORE PUSH1 0x20 PUSH1 0x4 DUP3 ADD DUP2 SWAP1 MSTORE PUSH1 0x24 DUP3 ADD MSTORE PUSH32 0x42656E65666963696172792F42656E65666163746F72206E6F7420666F756E64 PUSH1 0x44 DUP3 ADD MSTORE PUSH1 0x64 ADD PUSH2 0x4AF JUMP JUMPDEST PUSH1 0x1 PUSH1 0x1 PUSH1 0xA0 SHL SUB DUP1 DUP5 AND PUSH1 0x0 SWAP1 DUP2 MSTORE PUSH1 0x20 DUP2 DUP2 MSTORE PUSH1 0x40 DUP1 DUP4 KECCAK256 SWAP4 DUP7 AND DUP4 MSTORE PUSH1 0x1 SWAP1 SWAP4 ADD SWAP1 MSTORE KECCAK256 PUSH1 0x2 ADD PUSH2 0x1651 DUP3 DUP3 PUSH2 0x1E8C JUMP JUMPDEST POP DUP2 PUSH1 0x1 PUSH1 0x1 PUSH1 0xA0 SHL SUB AND DUP4 PUSH1 0x1 PUSH1 0x1 PUSH1 0xA0 SHL SUB AND PUSH32 0x812E93BAD7E76E8B51ECDB31C9C69773DBA6B47C2AE9FC763877665448B150D9 DUP4 PUSH1 0x40 MLOAD PUSH2 0x89E SWAP2 SWAP1 PUSH2 0x1D36 JUMP JUMPDEST PUSH1 0x60 PUSH2 0x16A1 DUP4 DUP4 PUSH2 0x4DB JUMP JUMPDEST PUSH2 0x16E5 JUMPI PUSH1 0x40 MLOAD PUSH3 0x461BCD PUSH1 0xE5 SHL DUP2 MSTORE PUSH1 0x20 PUSH1 0x4 DUP3 ADD MSTORE PUSH1 0x15 PUSH1 0x24 DUP3 ADD MSTORE PUSH21 0x10995B99599A58DA585C9E481B9BDD08199BDD5B99 PUSH1 0x5A SHL PUSH1 0x44 DUP3 ADD MSTORE PUSH1 0x64 ADD PUSH2 0x4AF JUMP JUMPDEST PUSH1 0x1 PUSH1 0x1 PUSH1 0xA0 SHL SUB DUP4 AND PUSH1 0x0 SWAP1 DUP2 MSTORE PUSH1 0x20 DUP2 DUP2 MSTORE PUSH1 0x40 DUP1 DUP4 KECCAK256 CALLER DUP5 MSTORE PUSH1 0x1 ADD SWAP1 SWAP2 MSTORE SWAP1 KECCAK256 SLOAD PUSH1 0xFF AND DUP1 ISZERO PUSH2 0x173A JUMPI POP PUSH1 0x1 PUSH1 0x1 PUSH1 0xA0 SHL SUB DUP4 AND PUSH1 0x0 SWAP1 DUP2 MSTORE PUSH1 0x20 DUP2 SWAP1 MSTORE PUSH1 0x40 SWAP1 KECCAK256 PUSH1 0x4 ADD SLOAD PUSH2 0x100 SWAP1 DIV PUSH1 0xFF AND ISZERO JUMPDEST PUSH2 0x1786 JUMPI PUSH1 0x40 MLOAD PUSH3 0x461BCD PUSH1 0xE5 SHL DUP2 MSTORE PUSH1 0x20 PUSH1 0x4 DUP3 ADD MSTORE PUSH1 0x11 PUSH1 0x24 DUP3 ADD MSTORE PUSH32 0x4E6F2061636365737320746F2043494473000000000000000000000000000000 PUSH1 0x44 DUP3 ADD MSTORE PUSH1 0x64 ADD PUSH2 0x4AF JUMP JUMPDEST PUSH1 0x1 PUSH1 0x1 PUSH1 0xA0 SHL SUB DUP1 DUP5 AND PUSH1 0x0 SWAP1 DUP2 MSTORE PUSH1 0x20 DUP2 DUP2 MSTORE PUSH1 0x40 DUP1 DUP4 KECCAK256 SWAP4 DUP7 AND DUP4 MSTORE PUSH1 0x1 SWAP4 DUP5 ADD DUP3 MSTORE DUP1 DUP4 KECCAK256 SWAP1 SWAP4 ADD DUP1 SLOAD DUP5 MLOAD DUP2 DUP5 MUL DUP2 ADD DUP5 ADD SWAP1 SWAP6 MSTORE DUP1 DUP6 MSTORE SWAP1 SWAP3 SWAP1 SWAP2 DUP5 ADD JUMPDEST DUP3 DUP3 LT ISZERO PUSH2 0x1876 JUMPI DUP4 DUP3 SWAP1 PUSH1 0x0 MSTORE PUSH1 0x20 PUSH1 0x0 KECCAK256 ADD DUP1 SLOAD PUSH2 0x17E9 SWAP1 PUSH2 0x1E03 JUMP JUMPDEST DUP1 PUSH1 0x1F ADD PUSH1 0x20 DUP1 SWAP2 DIV MUL PUSH1 0x20 ADD PUSH1 0x40 MLOAD SWAP1 DUP2 ADD PUSH1 0x40 MSTORE DUP1 SWAP3 SWAP2 SWAP1 DUP2 DUP2 MSTORE PUSH1 0x20 ADD DUP3 DUP1 SLOAD PUSH2 0x1815 SWAP1 PUSH2 0x1E03 JUMP JUMPDEST DUP1 ISZERO PUSH2 0x1862 JUMPI DUP1 PUSH1 0x1F LT PUSH2 0x1837 JUMPI PUSH2 0x100 DUP1 DUP4 SLOAD DIV MUL DUP4 MSTORE SWAP2 PUSH1 0x20 ADD SWAP2 PUSH2 0x1862 JUMP JUMPDEST DUP3 ADD SWAP2 SWAP1 PUSH1 0x0 MSTORE PUSH1 0x20 PUSH1 0x0 KECCAK256 SWAP1 JUMPDEST DUP2 SLOAD DUP2 MSTORE SWAP1 PUSH1 0x1 ADD SWAP1 PUSH1 0x20 ADD DUP1 DUP4 GT PUSH2 0x1845 JUMPI DUP3 SWAP1 SUB PUSH1 0x1F AND DUP3 ADD SWAP2 JUMPDEST POP POP POP POP POP DUP2 MSTORE PUSH1 0x20 ADD SWAP1 PUSH1 0x1 ADD SWAP1 PUSH2 0x17CA JUMP JUMPDEST POP POP POP POP SWAP1 POP SWAP3 SWAP2 POP POP JUMP JUMPDEST PUSH1 0x60 PUSH2 0x188E DUP4 DUP4 PUSH2 0x4DB JUMP JUMPDEST ISZERO PUSH2 0x11C3 JUMPI PUSH1 0x1 PUSH1 0x1 PUSH1 0xA0 SHL SUB DUP1 DUP5 AND PUSH1 0x0 SWAP1 DUP2 MSTORE PUSH1 0x20 DUP2 DUP2 MSTORE PUSH1 0x40 DUP1 DUP4 KECCAK256 SWAP4 DUP7 AND DUP4 MSTORE PUSH1 0x1 SWAP1 SWAP4 ADD SWAP1 MSTORE KECCAK256 PUSH1 0x3 ADD DUP1 SLOAD PUSH2 0x113E SWAP1 PUSH2 0x1E03 JUMP JUMPDEST CALLER PUSH1 0x0 SWAP1 DUP2 MSTORE PUSH1 0x20 DUP2 SWAP1 MSTORE PUSH1 0x40 SWAP1 KECCAK256 SLOAD PUSH1 0xFF AND DUP1 ISZERO PUSH2 0x18FE JUMPI POP CALLER PUSH1 0x0 SWAP1 DUP2 MSTORE PUSH1 0x20 DUP2 SWAP1 MSTORE PUSH1 0x40 SWAP1 KECCAK256 PUSH1 0x4 ADD SLOAD PUSH2 0x100 SWAP1 DIV PUSH1 0xFF AND JUMPDEST PUSH2 0x1943 JUMPI PUSH1 0x40 MLOAD PUSH3 0x461BCD PUSH1 0xE5 SHL DUP2 MSTORE PUSH1 0x20 PUSH1 0x4 DUP3 ADD MSTORE PUSH1 0x16 PUSH1 0x24 DUP3 ADD MSTORE PUSH22 0x2737BA1030903B30B634B2103132B732B330B1BA37B9 PUSH1 0x51 SHL PUSH1 0x44 DUP3 ADD MSTORE PUSH1 0x64 ADD PUSH2 0x4AF JUMP JUMPDEST CALLER PUSH1 0x0 SWAP1 DUP2 MSTORE PUSH1 0x20 DUP2 SWAP1 MSTORE PUSH1 0x40 SWAP1 KECCAK256 PUSH1 0x4 ADD SLOAD PUSH1 0xFF AND ISZERO PUSH2 0x198D JUMPI PUSH1 0x40 MLOAD CALLER SWAP1 DUP2 SWAP1 PUSH32 0x439C5AAF7691CB4808DBD2A240323CE9EC0D04D66DDF65FFD5F88EBD60FA745B SWAP1 PUSH1 0x0 SWAP1 LOG3 JUMP JUMPDEST CALLER PUSH1 0x0 DUP2 DUP2 MSTORE PUSH1 0x20 DUP2 SWAP1 MSTORE PUSH1 0x40 SWAP1 DUP2 SWAP1 KECCAK256 PUSH1 0x4 ADD DUP1 SLOAD PUSH1 0xFF NOT AND PUSH1 0x1 OR SWAP1 SSTORE MLOAD DUP2 SWAP1 PUSH32 0x9BAA855D20DE9B1A4DB454F55B09D1DB5F42F0871BBEA3B0C699146ADE171625 SWAP1 PUSH2 0x19DE SWAP1 TIMESTAMP DUP2 MSTORE PUSH1 0x20 ADD SWAP1 JUMP JUMPDEST PUSH1 0x40 MLOAD DUP1 SWAP2 SUB SWAP1 LOG3 JUMP JUMPDEST DUP3 DUP1 SLOAD DUP3 DUP3 SSTORE SWAP1 PUSH1 0x0 MSTORE PUSH1 0x20 PUSH1 0x0 KECCAK256 SWAP1 DUP2 ADD SWAP3 DUP3 ISZERO PUSH2 0x1A2E JUMPI SWAP2 PUSH1 0x20 MUL DUP3 ADD JUMPDEST DUP3 DUP2 GT ISZERO PUSH2 0x1A2E JUMPI DUP3 MLOAD DUP3 SWAP1 PUSH2 0x1A1E SWAP1 DUP3 PUSH2 0x1E8C JUMP JUMPDEST POP SWAP2 PUSH1 0x20 ADD SWAP2 SWAP1 PUSH1 0x1 ADD SWAP1 PUSH2 0x1A08 JUMP JUMPDEST POP PUSH2 0x1A3A SWAP3 SWAP2 POP PUSH2 0x1A99 JUMP JUMPDEST POP SWAP1 JUMP JUMPDEST POP DUP1 SLOAD PUSH1 0x0 DUP3 SSTORE SWAP1 PUSH1 0x0 MSTORE PUSH1 0x20 PUSH1 0x0 KECCAK256 SWAP1 DUP2 ADD SWAP1 PUSH2 0x1A5C SWAP2 SWAP1 PUSH2 0x1A99 JUMP JUMPDEST POP JUMP JUMPDEST POP DUP1 SLOAD PUSH2 0x1A6B SWAP1 PUSH2 0x1E03 JUMP JUMPDEST PUSH1 0x0 DUP3 SSTORE DUP1 PUSH1 0x1F LT PUSH2 0x1A7B JUMPI POP POP JUMP JUMPDEST PUSH1 0x1F ADD PUSH1 0x20 SWAP1 DIV SWAP1 PUSH1 0x0 MSTORE PUSH1 0x20 PUSH1 0x0 KECCAK256 SWAP1 DUP2 ADD SWAP1 PUSH2 0x1A5C SWAP2 SWAP1 PUSH2 0x1AB6 JUMP JUMPDEST DUP1 DUP3 GT ISZERO PUSH2 0x1A3A JUMPI PUSH1 0x0 PUSH2 0x1AAD DUP3 DUP3 PUSH2 0x1A5F JUMP JUMPDEST POP PUSH1 0x1 ADD PUSH2 0x1A99 JUMP JUMPDEST JUMPDEST DUP1 DUP3 GT ISZERO PUSH2 0x1A3A JUMPI PUSH1 0x0 DUP2 SSTORE PUSH1 0x1 ADD PUSH2 0x1AB7 JUMP JUMPDEST DUP1 CALLDATALOAD PUSH1 0x1 PUSH1 0x1 PUSH1 0xA0 SHL SUB DUP2 AND DUP2 EQ PUSH2 0x1AE2 JUMPI PUSH1 0x0 DUP1 REVERT JUMPDEST SWAP2 SWAP1 POP JUMP JUMPDEST PUSH1 0x0 PUSH1 0x20 DUP3 DUP5 SUB SLT ISZERO PUSH2 0x1AF9 JUMPI PUSH1 0x0 DUP1 REVERT JUMPDEST PUSH2 0x3B0 DUP3 PUSH2 0x1ACB JUMP JUMPDEST PUSH1 0x0 DUP1 PUSH1 0x40 DUP4 DUP6 SUB SLT ISZERO PUSH2 0x1B15 JUMPI PUSH1 0x0 DUP1 REVERT JUMPDEST PUSH2 0x1B1E DUP4 PUSH2 0x1ACB JUMP JUMPDEST SWAP2 POP PUSH2 0x1B2C PUSH1 0x20 DUP5 ADD PUSH2 0x1ACB JUMP JUMPDEST SWAP1 POP SWAP3 POP SWAP3 SWAP1 POP JUMP JUMPDEST PUSH1 0x0 PUSH1 0x60 DUP3 ADD DUP6 ISZERO ISZERO DUP4 MSTORE PUSH1 0x20 PUSH1 0x60 DUP2 DUP6 ADD MSTORE DUP2 DUP7 MLOAD DUP1 DUP5 MSTORE PUSH1 0x80 DUP7 ADD SWAP2 POP DUP3 DUP9 ADD SWAP4 POP PUSH1 0x0 JUMPDEST DUP2 DUP2 LT ISZERO PUSH2 0x1B81 JUMPI DUP5 MLOAD PUSH1 0x1 PUSH1 0x1 PUSH1 0xA0 SHL SUB AND DUP4 MSTORE SWAP4 DUP4 ADD SWAP4 SWAP2 DUP4 ADD SWAP2 PUSH1 0x1 ADD PUSH2 0x1B5C JUMP JUMPDEST POP POP DUP1 SWAP4 POP POP POP POP DUP3 PUSH1 0x40 DUP4 ADD MSTORE SWAP5 SWAP4 POP POP POP POP JUMP JUMPDEST PUSH4 0x4E487B71 PUSH1 0xE0 SHL PUSH1 0x0 MSTORE PUSH1 0x41 PUSH1 0x4 MSTORE PUSH1 0x24 PUSH1 0x0 REVERT JUMPDEST PUSH1 0x0 DUP3 PUSH1 0x1F DUP4 ADD SLT PUSH2 0x1BBE JUMPI PUSH1 0x0 DUP1 REVERT JUMPDEST DUP2 CALLDATALOAD PUSH8 0xFFFFFFFFFFFFFFFF DUP1 DUP3 GT ISZERO PUSH2 0x1BD9 JUMPI PUSH2 0x1BD9 PUSH2 0x1B97 JUMP JUMPDEST PUSH1 0x40 MLOAD PUSH1 0x1F DUP4 ADD PUSH1 0x1F NOT SWAP1 DUP2 AND PUSH1 0x3F ADD AND DUP2 ADD SWAP1 DUP3 DUP3 GT DUP2 DUP4 LT OR ISZERO PUSH2 0x1C01 JUMPI PUSH2 0x1C01 PUSH2 0x1B97 JUMP JUMPDEST DUP2 PUSH1 0x40 MSTORE DUP4 DUP2 MSTORE DUP7 PUSH1 0x20 DUP6 DUP9 ADD ADD GT ISZERO PUSH2 0x1C1A JUMPI PUSH1 0x0 DUP1 REVERT JUMPDEST DUP4 PUSH1 0x20 DUP8 ADD PUSH1 0x20 DUP4 ADD CALLDATACOPY PUSH1 0x0 PUSH1 0x20 DUP6 DUP4 ADD ADD MSTORE DUP1 SWAP5 POP POP POP POP POP SWAP3 SWAP2 POP POP JUMP JUMPDEST PUSH1 0x0 DUP1 PUSH1 0x0 PUSH1 0x60 DUP5 DUP7 SUB SLT ISZERO PUSH2 0x1C4F JUMPI PUSH1 0x0 DUP1 REVERT JUMPDEST PUSH2 0x1C58 DUP5 PUSH2 0x1ACB JUMP JUMPDEST SWAP3 POP PUSH2 0x1C66 PUSH1 0x20 DUP6 ADD PUSH2 0x1ACB JUMP JUMPDEST SWAP2 POP PUSH1 0x40 DUP5 ADD CALLDATALOAD PUSH8 0xFFFFFFFFFFFFFFFF DUP2 GT ISZERO PUSH2 0x1C82 JUMPI PUSH1 0x0 DUP1 REVERT JUMPDEST PUSH2 0x1C8E DUP7 DUP3 DUP8 ADD PUSH2 0x1BAD JUMP JUMPDEST SWAP2 POP POP SWAP3 POP SWAP3 POP SWAP3 JUMP JUMPDEST PUSH1 0x0 DUP1 PUSH1 0x40 DUP4 DUP6 SUB SLT ISZERO PUSH2 0x1CAB JUMPI PUSH1 0x0 DUP1 REVERT JUMPDEST PUSH2 0x1CB4 DUP4 PUSH2 0x1ACB JUMP JUMPDEST SWAP2 POP PUSH1 0x20 DUP4 ADD CALLDATALOAD PUSH8 0xFFFFFFFFFFFFFFFF DUP2 GT ISZERO PUSH2 0x1CD0 JUMPI PUSH1 0x0 DUP1 REVERT JUMPDEST PUSH2 0x1CDC DUP6 DUP3 DUP7 ADD PUSH2 0x1BAD JUMP JUMPDEST SWAP2 POP POP SWAP3 POP SWAP3 SWAP1 POP JUMP JUMPDEST PUSH1 0x0 JUMPDEST DUP4 DUP2 LT ISZERO PUSH2 0x1D01 JUMPI DUP2 DUP2 ADD MLOAD DUP4 DUP3 ADD MSTORE PUSH1 0x20 ADD PUSH2 0x1CE9 JUMP JUMPDEST POP POP PUSH1 0x0 SWAP2 ADD MSTORE JUMP JUMPDEST PUSH1 0x0 DUP2 MLOAD DUP1 DUP5 MSTORE PUSH2 0x1D22 DUP2 PUSH1 0x20 DUP7 ADD PUSH1 0x20 DUP7 ADD PUSH2 0x1CE6 JUMP JUMPDEST PUSH1 0x1F ADD PUSH1 0x1F NOT AND SWAP3 SWAP1 SWAP3 ADD PUSH1 0x20 ADD SWAP3 SWAP2 POP POP JUMP JUMPDEST PUSH1 0x20 DUP2 MSTORE PUSH1 0x0 PUSH2 0x3B0 PUSH1 0x20 DUP4 ADD DUP5 PUSH2 0x1D0A JUMP JUMPDEST PUSH1 0x0 PUSH1 0x20 DUP1 DUP4 ADD DUP2 DUP5 MSTORE DUP1 DUP6 MLOAD DUP1 DUP4 MSTORE PUSH1 0x40 DUP7 ADD SWAP2 POP PUSH1 0x40 DUP2 PUSH1 0x5 SHL DUP8 ADD ADD SWAP3 POP DUP4 DUP8 ADD PUSH1 0x0 JUMPDEST DUP3 DUP2 LT ISZERO PUSH2 0x1D9E JUMPI PUSH1 0x3F NOT DUP9 DUP7 SUB ADD DUP5 MSTORE PUSH2 0x1D8C DUP6 DUP4 MLOAD PUSH2 0x1D0A JUMP JUMPDEST SWAP5 POP SWAP3 DUP6 ADD SWAP3 SWAP1 DUP6 ADD SWAP1 PUSH1 0x1 ADD PUSH2 0x1D70 JUMP JUMPDEST POP SWAP3 SWAP8 SWAP7 POP POP POP POP POP POP POP JUMP JUMPDEST PUSH4 0x4E487B71 PUSH1 0xE0 SHL PUSH1 0x0 MSTORE PUSH1 0x11 PUSH1 0x4 MSTORE PUSH1 0x24 PUSH1 0x0 REVERT JUMPDEST DUP2 DUP2 SUB DUP2 DUP2 GT ISZERO PUSH2 0x507 JUMPI PUSH2 0x507 PUSH2 0x1DAB JUMP JUMPDEST PUSH4 0x4E487B71 PUSH1 0xE0 SHL PUSH1 0x0 MSTORE PUSH1 0x32 PUSH1 0x4 MSTORE PUSH1 0x24 PUSH1 0x0 REVERT JUMPDEST PUSH1 0x0 PUSH1 0x1 DUP3 ADD PUSH2 0x1DFC JUMPI PUSH2 0x1DFC PUSH2 0x1DAB JUMP JUMPDEST POP PUSH1 0x1 ADD SWAP1 JUMP JUMPDEST PUSH1 0x1 DUP2 DUP2 SHR SWAP1 DUP3 AND DUP1 PUSH2 0x1E17 JUMPI PUSH1 0x7F DUP3 AND SWAP2 POP JUMPDEST PUSH1 0x20 DUP3 LT DUP2 SUB PUSH2 0x1E37 JUMPI PUSH4 0x4E487B71 PUSH1 0xE0 SHL PUSH1 0x0 MSTORE PUSH1 0x22 PUSH1 0x4 MSTORE PUSH1 0x24 PUSH1 0x0 REVERT JUMPDEST POP SWAP2 SWAP1 POP JUMP JUMPDEST PUSH1 0x1F DUP3 GT ISZERO PUSH2 0x1E87 JUMPI PUSH1 0x0 DUP2 DUP2 MSTORE PUSH1 0x20 DUP2 KECCAK256 PUSH1 0x1F DUP6 ADD PUSH1 0x5 SHR DUP2 ADD PUSH1 0x20 DUP7 LT ISZERO PUSH2 0x1E64 JUMPI POP DUP1 JUMPDEST PUSH1 0x1F DUP6 ADD PUSH1 0x5 SHR DUP3 ADD SWAP2 POP JUMPDEST DUP2 DUP2 LT ISZERO PUSH2 0x1E83 JUMPI DUP3 DUP2 SSTORE PUSH1 0x1 ADD PUSH2 0x1E70 JUMP JUMPDEST POP POP POP JUMPDEST POP POP POP JUMP JUMPDEST DUP2 MLOAD PUSH8 0xFFFFFFFFFFFFFFFF DUP2 GT ISZERO PUSH2 0x1EA6 JUMPI PUSH2 0x1EA6 PUSH2 0x1B97 JUMP JUMPDEST PUSH2 0x1EBA DUP2 PUSH2 0x1EB4 DUP5 SLOAD PUSH2 0x1E03 JUMP JUMPDEST DUP5 PUSH2 0x1E3D JUMP JUMPDEST PUSH1 0x20 DUP1 PUSH1 0x1F DUP4 GT PUSH1 0x1 DUP2 EQ PUSH2 0x1EEF JUMPI PUSH1 0x0 DUP5 ISZERO PUSH2 0x1ED7 JUMPI POP DUP6 DUP4 ADD MLOAD JUMPDEST PUSH1 0x0 NOT PUSH1 0x3 DUP7 SWAP1 SHL SHR NOT AND PUSH1 0x1 DUP6 SWAP1 SHL OR DUP6 SSTORE PUSH2 0x1E83 JUMP JUMPDEST PUSH1 0x0 DUP6 DUP2 MSTORE PUSH1 0x20 DUP2 KECCAK256 PUSH1 0x1F NOT DUP7 AND SWAP2 JUMPDEST DUP3 DUP2 LT ISZERO PUSH2 0x1F1E JUMPI DUP9 DUP7 ADD MLOAD DUP3 SSTORE SWAP5 DUP5 ADD SWAP5 PUSH1 0x1 SWAP1 SWAP2 ADD SWAP1 DUP5 ADD PUSH2 0x1EFF JUMP JUMPDEST POP DUP6 DUP3 LT ISZERO PUSH2 0x1F3C JUMPI DUP8 DUP6 ADD MLOAD PUSH1 0x0 NOT PUSH1 0x3 DUP9 SWAP1 SHL PUSH1 0xF8 AND SHR NOT AND DUP2 SSTORE JUMPDEST POP POP POP POP POP PUSH1 0x1 SWAP1 DUP2 SHL ADD SWAP1 SSTORE POP JUMP JUMPDEST PUSH1 0x0 DUP3 MLOAD PUSH2 0x1F5E DUP2 DUP5 PUSH1 0x20 DUP8 ADD PUSH2 0x1CE6 JUMP JUMPDEST SWAP2 SWAP1 SWAP2 ADD SWAP3 SWAP2 POP POP JUMP JUMPDEST PUSH1 0x0 DUP1 DUP4 SLOAD PUSH2 0x1F76 DUP2 PUSH2 0x1E03 JUMP JUMPDEST PUSH1 0x1 DUP3 DUP2 AND DUP1 ISZERO PUSH2 0x1F8E JUMPI PUSH1 0x1 DUP2 EQ PUSH2 0x1FA3 JUMPI PUSH2 0x1FD2 JUMP JUMPDEST PUSH1 0xFF NOT DUP5 AND DUP8 MSTORE DUP3 ISZERO ISZERO DUP4 MUL DUP8 ADD SWAP5 POP PUSH2 0x1FD2 JUMP JUMPDEST DUP8 PUSH1 0x0 MSTORE PUSH1 0x20 DUP1 PUSH1 0x0 KECCAK256 PUSH1 0x0 JUMPDEST DUP6 DUP2 LT ISZERO PUSH2 0x1FC9 JUMPI DUP2 SLOAD DUP11 DUP3 ADD MSTORE SWAP1 DUP5 ADD SWAP1 DUP3 ADD PUSH2 0x1FB0 JUMP JUMPDEST POP POP POP DUP3 DUP8 ADD SWAP5 POP JUMPDEST POP SWAP3 SWAP7 SWAP6 POP POP POP POP POP POP JUMP JUMPDEST DUP2 DUP2 SUB PUSH2 0x1FE9 JUMPI POP POP JUMP JUMPDEST PUSH2 0x1FF3 DUP3 SLOAD PUSH2 0x1E03 JUMP JUMPDEST PUSH8 0xFFFFFFFFFFFFFFFF DUP2 GT ISZERO PUSH2 0x200B JUMPI PUSH2 0x200B PUSH2 0x1B97 JUMP JUMPDEST PUSH2 0x2019 DUP2 PUSH2 0x1EB4 DUP5 SLOAD PUSH2 0x1E03 JUMP JUMPDEST PUSH1 0x0 PUSH1 0x1F DUP3 GT PUSH1 0x1 DUP2 EQ PUSH2 0x204D JUMPI PUSH1 0x0 DUP4 ISZERO PUSH2 0x2035 JUMPI POP DUP5 DUP3 ADD SLOAD JUMPDEST PUSH1 0x0 NOT PUSH1 0x3 DUP6 SWAP1 SHL SHR NOT AND PUSH1 0x1 DUP5 SWAP1 SHL OR DUP5 SSTORE PUSH2 0x20B2 JUMP JUMPDEST PUSH1 0x0 DUP6 DUP2 MSTORE PUSH1 0x20 SWAP1 KECCAK256 PUSH1 0x1F NOT DUP5 AND SWAP1 PUSH1 0x0 DUP7 DUP2 MSTORE PUSH1 0x20 SWAP1 KECCAK256 DUP5 JUMPDEST DUP4 DUP2 LT ISZERO PUSH2 0x2087 JUMPI DUP3 DUP7 ADD SLOAD DUP3 SSTORE PUSH1 0x1 SWAP6 DUP7 ADD SWAP6 SWAP1 SWAP2 ADD SWAP1 PUSH1 0x20 ADD PUSH2 0x2067 JUMP JUMPDEST POP DUP6 DUP4 LT ISZERO PUSH2 0x20A5 JUMPI DUP2 DUP6 ADD SLOAD PUSH1 0x0 NOT PUSH1 0x3 DUP9 SWAP1 SHL PUSH1 0xF8 AND SHR NOT AND DUP2 SSTORE JUMPDEST POP POP POP PUSH1 0x1 DUP4 PUSH1 0x1 SHL ADD DUP5 SSTORE JUMPDEST POP POP POP POP POP JUMP JUMPDEST PUSH4 0x4E487B71 PUSH1 0xE0 SHL PUSH1 0x0 MSTORE PUSH1 0x31 PUSH1 0x4 MSTORE PUSH1 0x24 PUSH1 0x0 REVERT INVALID LOG2 PUSH5 0x6970667358 0x22 SLT KECCAK256 SWAP16 DIV SWAP2 DUP3 0xFC 0xC4 0xC6 SLOAD RETURNDATASIZE 0x21 0xD9 0xC5 EXP 0xE4 PUSH12 0x18DCB2AC9513DDB1493FBD2E SWAP4 SWAP7 PUSH19 0x917464736F6C63430008110033000000000000 "
    },
    "gasEstimates": {
      "creation": {
        "codeDepositCost": "1690600",
        "executionCost": "1778",
        "totalCost": "1692378"
      },
      "external": {
        "addBenefactorPublicKey(address,address,string)": "infinite",
        "addBeneficiary(address)": "infinite",
        "addBeneficiaryPublicKey(address,address,string)": "infinite",
        "addIpfsCID(address,string)": "infinite",
        "checkAliveStatus(address)": "infinite",
        "enableSwitch(address)": "55248",
        "getBenefactorPublicKey(address,address)": "infinite",
        "getBeneficiaryPublicKey(address,address)": "infinite",
        "getCIDs(address,address)": "infinite",
        "getData(address)": "infinite",
        "getRemainingCountdownTime(address)": "infinite",
        "getSwitchStatus(address)": "4856",
        "isBeneficiary(address,address)": "infinite",
        "removeBenefactor(address)": "85380",
        "removeBeneficiary(address)": "infinite",
        "removeIpfsCID(address,string)": "infinite",
        "respondToSwitch()": "infinite",
        "setBenefactor()": "78036"
      },
      "internal": {
        "disableSwitch()": "infinite",
        "getBeneficiariesCount(address)": "infinite"
      }
    },
    "methodIdentifiers": {
      "addBenefactorPublicKey(address,address,string)": "d51c3199",
      "addBeneficiary(address)": "5926651d",
      "addBeneficiaryPublicKey(address,address,string)": "3dea2f84",
      "addIpfsCID(address,string)": "5211287e",
      "checkAliveStatus(address)": "072039a2",
      "enableSwitch(address)": "8d5492e4",
      "getBenefactorPublicKey(address,address)": "87ce1ca8",
      "getBeneficiaryPublicKey(address,address)": "f892cb36",
      "getCIDs(address,address)": "df78bc54",
      "getData(address)": "38266b22",
      "getRemainingCountdownTime(address)": "01e2b33f",
      "getSwitchStatus(address)": "07a8b767",
      "isBeneficiary(address,address)": "096e27d9",
      "removeBenefactor(address)": "a98d22bc",
      "removeBeneficiary(address)": "59633a1c",
      "removeIpfsCID(address,string)": "87c63714",
      "respondToSwitch()": "cd9c9362",
      "setBenefactor()": "196ba7ef"
    }
  },
  "storageLayout": {
    "storage": [
      {
        "astId": 321,
        "contract": "DeadMansSwitch.sol:BenefactorsDeadManSwitch",
        "label": "benefactors",
        "offset": 0,
        "slot": "0",
        "type": "t_mapping(t_address,t_struct(BenefactorInfo)316_storage)"
      },
      {
        "astId": 326,
        "contract": "DeadMansSwitch.sol:BenefactorsDeadManSwitch",
        "label": "beneficiaryKeys",
        "offset": 0,
        "slot": "1",
        "type": "t_mapping(t_address,t_array(t_address)dyn_storage)"
      }
    ],
    "types": {
      "t_address": {
        "encoding": "inplace",
        "label": "address",
        "numberOfBytes": "20"
      },
      "t_array(t_address)dyn_storage": {
        "base": "t_address",
        "encoding": "dynamic_array",
        "label": "address[]",
        "numberOfBytes": "32"
      },
      "t_array(t_string_storage)dyn_storage": {
        "base": "t_string_storage",
        "encoding": "dynamic_array",
        "label": "string[]",
        "numberOfBytes": "32"
      },
      "t_bool": {
        "encoding": "inplace",
        "label": "bool",
        "numberOfBytes": "1"
      },
      "t_mapping(t_address,t_array(t_address)dyn_storage)": {
        "encoding": "mapping",
        "key": "t_address",
        "label": "mapping(address => address[])",
        "numberOfBytes": "32",
        "value": "t_array(t_address)dyn_storage"
      },
      "t_mapping(t_address,t_struct(BenefactorInfo)316_storage)": {
        "encoding": "mapping",
        "key": "t_address",
        "label": "mapping(address => struct BenefactorsDeadManSwitch.BenefactorInfo)",
        "numberOfBytes": "32",
        "value": "t_struct(BenefactorInfo)316_storage"
      },
      "t_mapping(t_address,t_struct(Beneficiary)300_storage)": {
        "encoding": "mapping",
        "key": "t_address",
        "label": "mapping(address => struct BenefactorsDeadManSwitch.Beneficiary)",
        "numberOfBytes": "32",
        "value": "t_struct(Beneficiary)300_storage"
      },
      "t_string_storage": {
        "encoding": "bytes",
        "label": "string",
        "numberOfBytes": "32"
      },
      "t_struct(BenefactorInfo)316_storage": {
        "encoding": "inplace",
        "label": "struct BenefactorsDeadManSwitch.BenefactorInfo",
        "members": [
          {
            "astId": 302,
            "contract": "DeadMansSwitch.sol:BenefactorsDeadManSwitch",
            "label": "exists",
            "offset": 0,
            "slot": "0",
            "type": "t_bool"
          },
          {
            "astId": 307,
            "contract": "DeadMansSwitch.sol:BenefactorsDeadManSwitch",
            "label": "beneficiaries",
            "offset": 0,
            "slot": "1",
            "type": "t_mapping(t_address,t_struct(Beneficiary)300_storage)"
          },
          {
            "astId": 309,
            "contract": "DeadMansSwitch.sol:BenefactorsDeadManSwitch",
            "label": "countdownDuration",
            "offset": 0,
            "slot": "2",
            "type": "t_uint256"
          },
          {
            "astId": 311,
            "contract": "DeadMansSwitch.sol:BenefactorsDeadManSwitch",
            "label": "lastBenefactorResponseTime",
            "offset": 0,
            "slot": "3",
            "type": "t_uint256"
          },
          {
            "astId": 313,
            "contract": "DeadMansSwitch.sol:BenefactorsDeadManSwitch",
            "label": "isSwitchedOff",
            "offset": 0,
            "slot": "4",
            "type": "t_bool"
          },
          {
            "astId": 315,
            "contract": "DeadMansSwitch.sol:BenefactorsDeadManSwitch",
            "label": "isAlive",
            "offset": 1,
            "slot": "4",
            "type": "t_bool"
          }
        ],
        "numberOfBytes": "160"
      },
      "t_struct(Beneficiary)300_storage": {
        "encoding": "inplace",
        "label": "struct BenefactorsDeadManSwitch.Beneficiary",
        "members": [
          {
            "astId": 292,
            "contract": "DeadMansSwitch.sol:BenefactorsDeadManSwitch",
            "label": "exists",
            "offset": 0,
            "slot": "0",
            "type": "t_bool"
          },
          {
            "astId": 295,
            "contract": "DeadMansSwitch.sol:BenefactorsDeadManSwitch",
            "label": "ipfsCIDs",
            "offset": 0,
            "slot": "1",
            "type": "t_array(t_string_storage)dyn_storage"
          },
          {
            "astId": 297,
            "contract": "DeadMansSwitch.sol:BenefactorsDeadManSwitch",
            "label": "benefactorPublicKey",
            "offset": 0,
            "slot": "2",
            "type": "t_string_storage"
          },
          {
            "astId": 299,
            "contract": "DeadMansSwitch.sol:BenefactorsDeadManSwitch",
            "label": "beneficiaryPublicKey",
            "offset": 0,
            "slot": "3",
            "type": "t_string_storage"
          }
        ],
        "numberOfBytes": "128"
      },
      "t_uint256": {
        "encoding": "inplace",
        "label": "uint256",
        "numberOfBytes": "32"
      }
    }
  },
  "userdoc": {
    "kind": "user",
    "methods": {},
    "version": 1
  }
}