{
  "abi": [
    {
      "inputs": [],
      "stateMutability": "nonpayable",
      "type": "constructor"
    },
    {
      "anonymous": false,
      "inputs": [
        {
          "indexed": true,
          "internalType": "address",
          "name": "benefactor",
          "type": "address"
        },
        {
          "indexed": false,
          "internalType": "string",
          "name": "aliveStatus",
          "type": "string"
        }
      ],
      "name": "BenefactorIsAlive",
      "type": "event"
    },
    {
      "anonymous": false,
      "inputs": [
        {
          "indexed": true,
          "internalType": "address",
          "name": "benefactor",
          "type": "address"
        },
        {
          "indexed": false,
          "internalType": "string",
          "name": "deadStatus",
          "type": "string"
        }
      ],
      "name": "BenefactorIsDead",
      "type": "event"
    },
    {
      "anonymous": false,
      "inputs": [
        {
          "indexed": true,
          "internalType": "address",
          "name": "benefactor",
          "type": "address"
        },
        {
          "indexed": true,
          "internalType": "address",
          "name": "beneficiary",
          "type": "address"
        }
      ],
      "name": "BeneficiaryAdded",
      "type": "event"
    },
    {
      "anonymous": false,
      "inputs": [
        {
          "indexed": true,
          "internalType": "address",
          "name": "benefactor",
          "type": "address"
        },
        {
          "indexed": true,
          "internalType": "address",
          "name": "beneficiary",
          "type": "address"
        }
      ],
      "name": "BeneficiaryRemoved",
      "type": "event"
    },
    {
      "anonymous": false,
      "inputs": [
        {
          "indexed": true,
          "internalType": "address",
          "name": "benefactor",
          "type": "address"
        },
        {
          "indexed": true,
          "internalType": "address",
          "name": "caller",
          "type": "address"
        },
        {
          "indexed": false,
          "internalType": "uint256",
          "name": "responseTime",
          "type": "uint256"
        }
      ],
      "name": "DeadMansSwitchDisabled",
      "type": "event"
    },
    {
      "anonymous": false,
      "inputs": [
        {
          "indexed": true,
          "internalType": "address",
          "name": "benefactor",
          "type": "address"
        },
        {
          "indexed": true,
          "internalType": "address",
          "name": "beneficiary",
          "type": "address"
        },
        {
          "indexed": false,
          "internalType": "uint256",
          "name": "countdownDuration",
          "type": "uint256"
        }
      ],
      "name": "DeadMansSwitchEnabled",
      "type": "event"
    },
    {
      "anonymous": false,
      "inputs": [
        {
          "indexed": true,
          "internalType": "address",
          "name": "benefactor",
          "type": "address"
        },
        {
          "indexed": true,
          "internalType": "address",
          "name": "beneficiary",
          "type": "address"
        },
        {
          "indexed": false,
          "internalType": "string",
          "name": "ipfsCID",
          "type": "string"
        }
      ],
      "name": "IpfsCIDAdded",
      "type": "event"
    },
    {
      "anonymous": false,
      "inputs": [
        {
          "indexed": true,
          "internalType": "address",
          "name": "benefactor",
          "type": "address"
        },
        {
          "indexed": true,
          "internalType": "address",
          "name": "beneficiary",
          "type": "address"
        },
        {
          "indexed": false,
          "internalType": "string",
          "name": "ipfsCID",
          "type": "string"
        }
      ],
      "name": "IpfsCIDRemoved",
      "type": "event"
    },
    {
      "anonymous": false,
      "inputs": [
        {
          "indexed": true,
          "internalType": "address",
          "name": "benefactor",
          "type": "address"
        },
        {
          "indexed": false,
          "internalType": "uint256",
          "name": "countdownDuration",
          "type": "uint256"
        },
        {
          "indexed": false,
          "internalType": "uint256",
          "name": "responseTime",
          "type": "uint256"
        },
        {
          "indexed": false,
          "internalType": "uint256",
          "name": "currentTime",
          "type": "uint256"
        },
        {
          "indexed": false,
          "internalType": "uint256",
          "name": "lastBenefactorResponseTime",
          "type": "uint256"
        }
      ],
      "name": "RemainingCountdownInfo",
      "type": "event"
    },
    {
      "anonymous": false,
      "inputs": [
        {
          "indexed": true,
          "internalType": "address",
          "name": "benefactor",
          "type": "address"
        },
        {
          "indexed": true,
          "internalType": "address",
          "name": "caller",
          "type": "address"
        }
      ],
      "name": "SwitchAlreadyOff",
      "type": "event"
    },
    {
      "anonymous": false,
      "inputs": [
        {
          "indexed": true,
          "internalType": "address",
          "name": "benefactor",
          "type": "address"
        },
        {
          "indexed": true,
          "internalType": "address",
          "name": "caller",
          "type": "address"
        }
      ],
      "name": "SwitchAlreadyOn",
      "type": "event"
    },
    {
      "inputs": [
        {
          "internalType": "address",
          "name": "_beneficiary",
          "type": "address"
        }
      ],
      "name": "addBeneficiary",
      "outputs": [],
      "stateMutability": "nonpayable",
      "type": "function"
    },
    {
      "inputs": [
        {
          "internalType": "address",
          "name": "_beneficiary",
          "type": "address"
        },
        {
          "internalType": "string",
          "name": "_ipfsCID",
          "type": "string"
        }
      ],
      "name": "addIpfsCID",
      "outputs": [],
      "stateMutability": "nonpayable",
      "type": "function"
    },
    {
      "inputs": [
        {
          "internalType": "address",
          "name": "_benefactor",
          "type": "address"
        }
      ],
      "name": "checkAliveStatus",
      "outputs": [
        {
          "internalType": "bool",
          "name": "",
          "type": "bool"
        }
      ],
      "stateMutability": "nonpayable",
      "type": "function"
    },
    {
      "inputs": [
        {
          "internalType": "address",
          "name": "_benefactor",
          "type": "address"
        }
      ],
      "name": "enableSwitch",
      "outputs": [],
      "stateMutability": "nonpayable",
      "type": "function"
    },
    {
      "inputs": [
        {
          "internalType": "address",
          "name": "_benefactor",
          "type": "address"
        },
        {
          "internalType": "address",
          "name": "_beneficiary",
          "type": "address"
        }
      ],
      "name": "getCIDs",
      "outputs": [
        {
          "internalType": "string[]",
          "name": "",
          "type": "string[]"
        }
      ],
      "stateMutability": "view",
      "type": "function"
    },
    {
      "inputs": [
        {
          "internalType": "address",
          "name": "_benefactor",
          "type": "address"
        }
      ],
      "name": "getRemainingCountdownTime",
      "outputs": [
        {
          "internalType": "uint256",
          "name": "",
          "type": "uint256"
        }
      ],
      "stateMutability": "nonpayable",
      "type": "function"
    },
    {
      "inputs": [
        {
          "internalType": "address",
          "name": "_benefactor",
          "type": "address"
        }
      ],
      "name": "getSwitchStatus",
      "outputs": [
        {
          "internalType": "bool",
          "name": "",
          "type": "bool"
        }
      ],
      "stateMutability": "view",
      "type": "function"
    },
    {
      "inputs": [
        {
          "internalType": "address",
          "name": "_benefactor",
          "type": "address"
        },
        {
          "internalType": "address",
          "name": "_address",
          "type": "address"
        }
      ],
      "name": "isBeneficiary",
      "outputs": [
        {
          "internalType": "bool",
          "name": "",
          "type": "bool"
        }
      ],
      "stateMutability": "view",
      "type": "function"
    },
    {
      "inputs": [
        {
          "internalType": "address",
          "name": "_benefactor",
          "type": "address"
        }
      ],
      "name": "removeBenefactor",
      "outputs": [],
      "stateMutability": "nonpayable",
      "type": "function"
    },
    {
      "inputs": [
        {
          "internalType": "address",
          "name": "_beneficiary",
          "type": "address"
        }
      ],
      "name": "removeBeneficiary",
      "outputs": [],
      "stateMutability": "nonpayable",
      "type": "function"
    },
    {
      "inputs": [
        {
          "internalType": "address",
          "name": "_beneficiary",
          "type": "address"
        },
        {
          "internalType": "string",
          "name": "_ipfsCID",
          "type": "string"
        }
      ],
      "name": "removeIpfsCID",
      "outputs": [],
      "stateMutability": "nonpayable",
      "type": "function"
    },
    {
      "inputs": [],
      "name": "respondToSwitch",
      "outputs": [],
      "stateMutability": "nonpayable",
      "type": "function"
    },
    {
      "inputs": [],
      "name": "setBenefactor",
      "outputs": [],
      "stateMutability": "nonpayable",
      "type": "function"
    }
  ],
  "devdoc": {
    "details": "Smart contract for managing a benefactor's dead man's switch with assigned beneficiaries.",
    "kind": "dev",
    "methods": {
      "addBeneficiary(address)": {
        "details": "Adds a new beneficiary to the list. Only callable by the benefactor.",
        "params": {
          "_beneficiary": "The address of the new beneficiary."
        }
      },
      "addIpfsCID(address,string)": {
        "details": "Adds an IPFS CID to the specified beneficiary. Only callable by the benefactor.",
        "params": {
          "_beneficiary": "The address of the beneficiary.",
          "_ipfsCID": "The IPFS CID to add."
        }
      },
      "checkAliveStatus(address)": {
        "details": "Checks the alive status of the benefactor.",
        "params": {
          "_benefactor": "The address of the benefactor."
        },
        "returns": {
          "_0": "A boolean indicating whether the benefactor is alive."
        }
      },
      "enableSwitch(address)": {
        "details": "Enables the dead man's switch. Only callable by beneficiaries.",
        "params": {
          "_benefactor": "The address of the benefactor."
        }
      },
      "getCIDs(address,address)": {
        "details": "Release CIDs to beneficiary.",
        "params": {
          "_benefactor": "The address of the benefactor.",
          "_beneficiary": "The address of the beneficiary."
        }
      },
      "getRemainingCountdownTime(address)": {
        "details": "Returns the remaining countdown time.",
        "params": {
          "_benefactor": "The address of the benefactor."
        },
        "returns": {
          "_0": "The remaining countdown time in seconds."
        }
      },
      "isBeneficiary(address,address)": {
        "details": "Checks if the given address is a beneficiary. Only benefactor",
        "params": {
          "_address": "The address to check."
        },
        "returns": {
          "_0": "A boolean indicating whether the address is a beneficiary."
        }
      },
      "removeBenefactor(address)": {
        "details": "Removes a benefactor. Only callable by benefactor."
      },
      "removeBeneficiary(address)": {
        "details": "Removes a beneficiary from the list. Only callable by the benefactor.",
        "params": {
          "_beneficiary": "The address of the beneficiary to be removed."
        }
      },
      "removeIpfsCID(address,string)": {
        "details": "Removes an IPFS CID from the specified beneficiary. Only callable by benefactor.",
        "params": {
          "_beneficiary": "The address of the beneficiary.",
          "_ipfsCID": "The IPFS CID to remove."
        }
      },
      "respondToSwitch()": {
        "details": "Performs actions based on benefactor's activity when responding to an enabled switch. Only callable by the benefactor."
      },
      "setBenefactor()": {
        "details": "Sets up a benefactor. Only callable by benefactor."
      }
    },
    "title": "BenefactorsDeadManSwitch",
    "version": 1
  },
  "evm": {
    "assembly": "    /* \"DeadMansSwitch.sol\":235:11049  contract BenefactorsDeadManSwitch {... */\n  mstore(0x40, 0x80)\n    /* \"DeadMansSwitch.sol\":2035:2051  constructor() {} */\n  callvalue\n  dup1\n  iszero\n  tag_1\n  jumpi\n  0x00\n  dup1\n  revert\ntag_1:\n  pop\n    /* \"DeadMansSwitch.sol\":235:11049  contract BenefactorsDeadManSwitch {... */\n  dataSize(sub_0)\n  dup1\n  dataOffset(sub_0)\n  0x00\n  codecopy\n  0x00\n  return\nstop\n\nsub_0: assembly {\n        /* \"DeadMansSwitch.sol\":235:11049  contract BenefactorsDeadManSwitch {... */\n      mstore(0x40, 0x80)\n      callvalue\n      dup1\n      iszero\n      tag_1\n      jumpi\n      0x00\n      dup1\n      revert\n    tag_1:\n      pop\n      jumpi(tag_2, lt(calldatasize, 0x04))\n      shr(0xe0, calldataload(0x00))\n      dup1\n      0x5926651d\n      gt\n      tag_16\n      jumpi\n      dup1\n      0x8d5492e4\n      gt\n      tag_17\n      jumpi\n      dup1\n      0x8d5492e4\n      eq\n      tag_12\n      jumpi\n      dup1\n      0xa98d22bc\n      eq\n      tag_13\n      jumpi\n      dup1\n      0xcd9c9362\n      eq\n      tag_14\n      jumpi\n      dup1\n      0xdf78bc54\n      eq\n      tag_15\n      jumpi\n      0x00\n      dup1\n      revert\n    tag_17:\n      dup1\n      0x5926651d\n      eq\n      tag_9\n      jumpi\n      dup1\n      0x59633a1c\n      eq\n      tag_10\n      jumpi\n      dup1\n      0x87c63714\n      eq\n      tag_11\n      jumpi\n      0x00\n      dup1\n      revert\n    tag_16:\n      dup1\n      0x096e27d9\n      gt\n      tag_18\n      jumpi\n      dup1\n      0x096e27d9\n      eq\n      tag_6\n      jumpi\n      dup1\n      0x196ba7ef\n      eq\n      tag_7\n      jumpi\n      dup1\n      0x5211287e\n      eq\n      tag_8\n      jumpi\n      0x00\n      dup1\n      revert\n    tag_18:\n      dup1\n      0x01e2b33f\n      eq\n      tag_3\n      jumpi\n      dup1\n      0x072039a2\n      eq\n      tag_4\n      jumpi\n      dup1\n      0x07a8b767\n      eq\n      tag_5\n      jumpi\n    tag_2:\n      0x00\n      dup1\n      revert\n        /* \"DeadMansSwitch.sol\":7799:8310  function getRemainingCountdownTime(address _benefactor) public returns (uint256) {... */\n    tag_3:\n      tag_19\n      tag_20\n      calldatasize\n      0x04\n      tag_21\n      jump\t// in\n    tag_20:\n      tag_22\n      jump\t// in\n    tag_19:\n      mload(0x40)\n        /* \"#utility.yul\":552:577   */\n      swap1\n      dup2\n      mstore\n        /* \"#utility.yul\":540:542   */\n      0x20\n        /* \"#utility.yul\":525:543   */\n      add\n        /* \"DeadMansSwitch.sol\":7799:8310  function getRemainingCountdownTime(address _benefactor) public returns (uint256) {... */\n    tag_23:\n      mload(0x40)\n      dup1\n      swap2\n      sub\n      swap1\n      return\n        /* \"DeadMansSwitch.sol\":8520:9104  function checkAliveStatus(address _benefactor) public returns (bool) {... */\n    tag_4:\n      tag_25\n      tag_26\n      calldatasize\n      0x04\n      tag_21\n      jump\t// in\n    tag_26:\n      tag_27\n      jump\t// in\n    tag_25:\n      mload(0x40)\n        /* \"#utility.yul\":753:767   */\n      swap1\n      iszero\n        /* \"#utility.yul\":746:768   */\n      iszero\n        /* \"#utility.yul\":728:769   */\n      dup2\n      mstore\n        /* \"#utility.yul\":716:718   */\n      0x20\n        /* \"#utility.yul\":701:719   */\n      add\n        /* \"DeadMansSwitch.sol\":8520:9104  function checkAliveStatus(address _benefactor) public returns (bool) {... */\n      tag_23\n        /* \"#utility.yul\":588:775   */\n      jump\n        /* \"DeadMansSwitch.sol\":2973:3190  function getSwitchStatus(address _benefactor) public view returns (bool) {... */\n    tag_5:\n      tag_25\n      tag_31\n      calldatasize\n      0x04\n      tag_21\n      jump\t// in\n    tag_31:\n      tag_32\n      jump\t// in\n        /* \"DeadMansSwitch.sol\":3412:3582  function isBeneficiary(address _benefactor, address _address) public view returns (bool) {... */\n    tag_6:\n      tag_25\n      tag_35\n      calldatasize\n      0x04\n      tag_36\n      jump\t// in\n    tag_35:\n      tag_37\n      jump\t// in\n        /* \"DeadMansSwitch.sol\":2141:2643  function setBenefactor() public{... */\n    tag_7:\n      tag_39\n      tag_40\n      jump\t// in\n    tag_39:\n      stop\n        /* \"DeadMansSwitch.sol\":4776:5516  function addIpfsCID(address _beneficiary, string memory _ipfsCID) external onlyBenefactor {... */\n    tag_8:\n      tag_39\n      tag_42\n      calldatasize\n      0x04\n      tag_43\n      jump\t// in\n    tag_42:\n      tag_44\n      jump\t// in\n        /* \"DeadMansSwitch.sol\":4229:4552  function addBeneficiary(address _beneficiary) external onlyBenefactor {... */\n    tag_9:\n      tag_39\n      tag_46\n      calldatasize\n      0x04\n      tag_21\n      jump\t// in\n    tag_46:\n      tag_47\n      jump\t// in\n        /* \"DeadMansSwitch.sol\":3765:4057  function removeBeneficiary(address _beneficiary) external onlyBenefactor {... */\n    tag_10:\n      tag_39\n      tag_49\n      calldatasize\n      0x04\n      tag_21\n      jump\t// in\n    tag_49:\n      tag_50\n      jump\t// in\n        /* \"DeadMansSwitch.sol\":5744:6659  function removeIpfsCID(address _beneficiary, string memory _ipfsCID) external onlyBenefactor {... */\n    tag_11:\n      tag_39\n      tag_52\n      calldatasize\n      0x04\n      tag_43\n      jump\t// in\n    tag_52:\n      tag_53\n      jump\t// in\n        /* \"DeadMansSwitch.sol\":6821:7607  function enableSwitch(address _benefactor) external {... */\n    tag_12:\n      tag_39\n      tag_55\n      calldatasize\n      0x04\n      tag_21\n      jump\t// in\n    tag_55:\n      tag_56\n      jump\t// in\n        /* \"DeadMansSwitch.sol\":2733:2965  function removeBenefactor(address _benefactor) public {... */\n    tag_13:\n      tag_39\n      tag_58\n      calldatasize\n      0x04\n      tag_21\n      jump\t// in\n    tag_58:\n      tag_59\n      jump\t// in\n        /* \"DeadMansSwitch.sol\":9701:10447  function respondToSwitch() external onlyBenefactor {... */\n    tag_14:\n      tag_39\n      tag_61\n      jump\t// in\n        /* \"DeadMansSwitch.sol\":10637:11046  function getCIDs(address _benefactor, address _beneficiary) public view returns (string[] memory){... */\n    tag_15:\n      tag_62\n      tag_63\n      calldatasize\n      0x04\n      tag_36\n      jump\t// in\n    tag_63:\n      tag_64\n      jump\t// in\n    tag_62:\n      mload(0x40)\n      tag_23\n      swap2\n      swap1\n      tag_66\n      jump\t// in\n        /* \"DeadMansSwitch.sol\":7799:8310  function getRemainingCountdownTime(address _benefactor) public returns (uint256) {... */\n    tag_22:\n      sub(shl(0xa0, 0x01), 0x01)\n        /* \"DeadMansSwitch.sol\":7932:7956  benefactors[_benefactor] */\n      dup2\n      and\n        /* \"DeadMansSwitch.sol\":7871:7878  uint256 */\n      0x00\n        /* \"DeadMansSwitch.sol\":7932:7956  benefactors[_benefactor] */\n      swap1\n      dup2\n      mstore\n      0x20\n      dup2\n      swap1\n      mstore\n      0x40\n      dup2\n      keccak256\n        /* \"DeadMansSwitch.sol\":7932:7983  benefactors[_benefactor].lastBenefactorResponseTime */\n      0x03\n      add\n      sload\n        /* \"DeadMansSwitch.sol\":7871:7878  uint256 */\n      dup2\n      swap1\n        /* \"DeadMansSwitch.sol\":7914:7983  block.timestamp - benefactors[_benefactor].lastBenefactorResponseTime */\n      tag_68\n      swap1\n        /* \"DeadMansSwitch.sol\":7914:7929  block.timestamp */\n      timestamp\n        /* \"DeadMansSwitch.sol\":7914:7983  block.timestamp - benefactors[_benefactor].lastBenefactorResponseTime */\n      tag_69\n      jump\t// in\n    tag_68:\n      sub(shl(0xa0, 0x01), 0x01)\n        /* \"DeadMansSwitch.sol\":7999:8161  RemainingCountdownInfo(_benefactor,benefactors[_benefactor].countdownDuration, responseTime, block.timestamp, benefactors[_benefactor].lastBenefactorResponseTime) */\n      dup5\n      and\n        /* \"DeadMansSwitch.sol\":8034:8045  benefactors */\n      0x00\n        /* \"DeadMansSwitch.sol\":8034:8058  benefactors[_benefactor] */\n      dup2\n      dup2\n      mstore\n      0x20\n      dup2\n      dup2\n      mstore\n      0x40\n      swap2\n      dup3\n      swap1\n      keccak256\n        /* \"DeadMansSwitch.sol\":8034:8076  benefactors[_benefactor].countdownDuration */\n      0x02\n      dup2\n      add\n      sload\n        /* \"DeadMansSwitch.sol\":8109:8160  benefactors[_benefactor].lastBenefactorResponseTime */\n      0x03\n      swap1\n      swap2\n      add\n      sload\n        /* \"DeadMansSwitch.sol\":7999:8161  RemainingCountdownInfo(_benefactor,benefactors[_benefactor].countdownDuration, responseTime, block.timestamp, benefactors[_benefactor].lastBenefactorResponseTime) */\n      dup4\n      mload\n        /* \"#utility.yul\":4013:4038   */\n      swap2\n      dup3\n      mstore\n        /* \"#utility.yul\":4054:4072   */\n      swap2\n      dup2\n      add\n        /* \"#utility.yul\":4047:4081   */\n      dup6\n      swap1\n      mstore\n        /* \"DeadMansSwitch.sol\":8092:8107  block.timestamp */\n      timestamp\n        /* \"#utility.yul\":4097:4115   */\n      swap3\n      dup2\n      add\n        /* \"#utility.yul\":4090:4124   */\n      swap3\n      swap1\n      swap3\n      mstore\n        /* \"#utility.yul\":4155:4157   */\n      0x60\n        /* \"#utility.yul\":4140:4158   */\n      dup3\n      add\n        /* \"#utility.yul\":4133:4167   */\n      mstore\n        /* \"DeadMansSwitch.sol\":7891:7983  uint256 responseTime = block.timestamp - benefactors[_benefactor].lastBenefactorResponseTime */\n      swap2\n      swap3\n      pop\n        /* \"DeadMansSwitch.sol\":7999:8161  RemainingCountdownInfo(_benefactor,benefactors[_benefactor].countdownDuration, responseTime, block.timestamp, benefactors[_benefactor].lastBenefactorResponseTime) */\n      swap1\n      0x74a7c0c2e8065fcdbfca5ae9f6cf0233e47e9e75b6fcf75674dd4b7e3f9b8183\n      swap1\n        /* \"#utility.yul\":4000:4003   */\n      0x80\n        /* \"#utility.yul\":3985:4004   */\n      add\n        /* \"DeadMansSwitch.sol\":7999:8161  RemainingCountdownInfo(_benefactor,benefactors[_benefactor].countdownDuration, responseTime, block.timestamp, benefactors[_benefactor].lastBenefactorResponseTime) */\n      mload(0x40)\n      dup1\n      swap2\n      sub\n      swap1\n      log2\n      sub(shl(0xa0, 0x01), 0x01)\n        /* \"DeadMansSwitch.sol\":8195:8219  benefactors[_benefactor] */\n      dup4\n      and\n        /* \"DeadMansSwitch.sol\":8195:8206  benefactors */\n      0x00\n        /* \"DeadMansSwitch.sol\":8195:8219  benefactors[_benefactor] */\n      swap1\n      dup2\n      mstore\n      0x20\n      dup2\n      swap1\n      mstore\n      0x40\n      swap1\n      keccak256\n        /* \"DeadMansSwitch.sol\":8195:8237  benefactors[_benefactor].countdownDuration */\n      0x02\n      add\n      sload\n        /* \"DeadMansSwitch.sol\":8180:8237  responseTime > benefactors[_benefactor].countdownDuration */\n      dup2\n      gt\n        /* \"DeadMansSwitch.sol\":8179:8302  (responseTime > benefactors[_benefactor].countdownDuration) ? 0 : benefactors[_benefactor].countdownDuration - responseTime */\n      tag_72\n      jumpi\n      sub(shl(0xa0, 0x01), 0x01)\n        /* \"DeadMansSwitch.sol\":8245:8269  benefactors[_benefactor] */\n      dup4\n      and\n        /* \"DeadMansSwitch.sol\":8245:8256  benefactors */\n      0x00\n        /* \"DeadMansSwitch.sol\":8245:8269  benefactors[_benefactor] */\n      swap1\n      dup2\n      mstore\n      0x20\n      dup2\n      swap1\n      mstore\n      0x40\n      swap1\n      keccak256\n        /* \"DeadMansSwitch.sol\":8245:8287  benefactors[_benefactor].countdownDuration */\n      0x02\n      add\n      sload\n        /* \"DeadMansSwitch.sol\":8245:8302  benefactors[_benefactor].countdownDuration - responseTime */\n      tag_73\n      swap1\n        /* \"DeadMansSwitch.sol\":8290:8302  responseTime */\n      dup3\n      swap1\n        /* \"DeadMansSwitch.sol\":8245:8302  benefactors[_benefactor].countdownDuration - responseTime */\n      tag_69\n      jump\t// in\n    tag_73:\n        /* \"DeadMansSwitch.sol\":8179:8302  (responseTime > benefactors[_benefactor].countdownDuration) ? 0 : benefactors[_benefactor].countdownDuration - responseTime */\n      jump(tag_74)\n    tag_72:\n        /* \"DeadMansSwitch.sol\":8241:8242  0 */\n      0x00\n        /* \"DeadMansSwitch.sol\":8179:8302  (responseTime > benefactors[_benefactor].countdownDuration) ? 0 : benefactors[_benefactor].countdownDuration - responseTime */\n    tag_74:\n        /* \"DeadMansSwitch.sol\":8172:8302  return (responseTime > benefactors[_benefactor].countdownDuration) ? 0 : benefactors[_benefactor].countdownDuration - responseTime */\n      swap4\n        /* \"DeadMansSwitch.sol\":7799:8310  function getRemainingCountdownTime(address _benefactor) public returns (uint256) {... */\n      swap3\n      pop\n      pop\n      pop\n      jump\t// out\n        /* \"DeadMansSwitch.sol\":8520:9104  function checkAliveStatus(address _benefactor) public returns (bool) {... */\n    tag_27:\n        /* \"DeadMansSwitch.sol\":8583:8587  bool */\n      0x00\n        /* \"DeadMansSwitch.sol\":8604:8632  getSwitchStatus(_benefactor) */\n      tag_76\n        /* \"DeadMansSwitch.sol\":8620:8631  _benefactor */\n      dup3\n        /* \"DeadMansSwitch.sol\":8604:8619  getSwitchStatus */\n      tag_32\n        /* \"DeadMansSwitch.sol\":8604:8632  getSwitchStatus(_benefactor) */\n      jump\t// in\n    tag_76:\n        /* \"DeadMansSwitch.sol\":8600:8957  if (getSwitchStatus(_benefactor)){... */\n      iszero\n      tag_78\n      jumpi\n      sub(shl(0xa0, 0x01), 0x01)\n        /* \"DeadMansSwitch.sol\":8652:8676  benefactors[_benefactor] */\n      dup3\n      and\n        /* \"DeadMansSwitch.sol\":8652:8663  benefactors */\n      0x00\n        /* \"DeadMansSwitch.sol\":8652:8676  benefactors[_benefactor] */\n      swap1\n      dup2\n      mstore\n      0x20\n      dup2\n      swap1\n      mstore\n      0x40\n      swap1\n      keccak256\n        /* \"DeadMansSwitch.sol\":8652:8703  benefactors[_benefactor].lastBenefactorResponseTime */\n      0x03\n      add\n      sload\n        /* \"DeadMansSwitch.sol\":8652:8708  benefactors[_benefactor].lastBenefactorResponseTime != 0 */\n      iszero\n        /* \"DeadMansSwitch.sol\":8648:8943  if (benefactors[_benefactor].lastBenefactorResponseTime != 0) {... */\n      tag_78\n      jumpi\n        /* \"DeadMansSwitch.sol\":8729:8755  uint256 remainingCountdown */\n      0x00\n        /* \"DeadMansSwitch.sol\":8758:8796  getRemainingCountdownTime(_benefactor) */\n      tag_79\n        /* \"DeadMansSwitch.sol\":8784:8795  _benefactor */\n      dup4\n        /* \"DeadMansSwitch.sol\":8758:8783  getRemainingCountdownTime */\n      tag_22\n        /* \"DeadMansSwitch.sol\":8758:8796  getRemainingCountdownTime(_benefactor) */\n      jump\t// in\n    tag_79:\n        /* \"DeadMansSwitch.sol\":8729:8796  uint256 remainingCountdown = getRemainingCountdownTime(_benefactor) */\n      swap1\n      pop\n        /* \"DeadMansSwitch.sol\":8841:8842  0 */\n      0x00\n        /* \"DeadMansSwitch.sol\":8819:8837  remainingCountdown */\n      dup2\n        /* \"DeadMansSwitch.sol\":8819:8842  remainingCountdown <= 0 */\n      gt\n        /* \"DeadMansSwitch.sol\":8815:8927  if (remainingCountdown <= 0) {... */\n      tag_80\n      jumpi\n      sub(shl(0xa0, 0x01), 0x01)\n        /* \"DeadMansSwitch.sol\":8867:8891  benefactors[_benefactor] */\n      dup4\n      and\n        /* \"DeadMansSwitch.sol\":8902:8907  false */\n      0x00\n        /* \"DeadMansSwitch.sol\":8867:8891  benefactors[_benefactor] */\n      swap1\n      dup2\n      mstore\n      0x20\n      dup2\n      swap1\n      mstore\n      0x40\n      swap1\n      keccak256\n        /* \"DeadMansSwitch.sol\":8867:8899  benefactors[_benefactor].isAlive */\n      0x04\n      add\n        /* \"DeadMansSwitch.sol\":8867:8907  benefactors[_benefactor].isAlive = false */\n      dup1\n      sload\n      not(0xff00)\n      and\n      swap1\n      sstore\n        /* \"DeadMansSwitch.sol\":8815:8927  if (remainingCountdown <= 0) {... */\n    tag_80:\n        /* \"DeadMansSwitch.sol\":8710:8943  {... */\n      pop\n        /* \"DeadMansSwitch.sol\":8648:8943  if (benefactors[_benefactor].lastBenefactorResponseTime != 0) {... */\n    tag_78:\n      pop\n      sub(shl(0xa0, 0x01), 0x01)\n        /* \"DeadMansSwitch.sol\":9064:9088  benefactors[_benefactor] */\n      and\n        /* \"DeadMansSwitch.sol\":9064:9075  benefactors */\n      0x00\n        /* \"DeadMansSwitch.sol\":9064:9088  benefactors[_benefactor] */\n      swap1\n      dup2\n      mstore\n      0x20\n      dup2\n      swap1\n      mstore\n      0x40\n      swap1\n      keccak256\n        /* \"DeadMansSwitch.sol\":9064:9096  benefactors[_benefactor].isAlive */\n      0x04\n      add\n      sload\n      0x0100\n      swap1\n      div\n      0xff\n      and\n      swap1\n        /* \"DeadMansSwitch.sol\":8520:9104  function checkAliveStatus(address _benefactor) public returns (bool) {... */\n      jump\t// out\n        /* \"DeadMansSwitch.sol\":2973:3190  function getSwitchStatus(address _benefactor) public view returns (bool) {... */\n    tag_32:\n      sub(shl(0xa0, 0x01), 0x01)\n        /* \"DeadMansSwitch.sol\":3065:3089  benefactors[_benefactor] */\n      dup2\n      and\n        /* \"DeadMansSwitch.sol\":3040:3044  bool */\n      0x00\n        /* \"DeadMansSwitch.sol\":3065:3089  benefactors[_benefactor] */\n      swap1\n      dup2\n      mstore\n      0x20\n      dup2\n      swap1\n      mstore\n      0x40\n      dup2\n      keccak256\n        /* \"DeadMansSwitch.sol\":3065:3096  benefactors[_benefactor].exists */\n      sload\n      0xff\n      and\n        /* \"DeadMansSwitch.sol\":3057:3125  require(benefactors[_benefactor].exists,\"Benefactor does not exist\") */\n      tag_82\n      jumpi\n      mload(0x40)\n      shl(0xe5, 0x461bcd)\n      dup2\n      mstore\n        /* \"#utility.yul\":4380:4382   */\n      0x20\n        /* \"DeadMansSwitch.sol\":3057:3125  require(benefactors[_benefactor].exists,\"Benefactor does not exist\") */\n      0x04\n      dup3\n      add\n        /* \"#utility.yul\":4362:4383   */\n      mstore\n        /* \"#utility.yul\":4419:4421   */\n      0x19\n        /* \"#utility.yul\":4399:4417   */\n      0x24\n      dup3\n      add\n        /* \"#utility.yul\":4392:4422   */\n      mstore\n        /* \"#utility.yul\":4458:4485   */\n      0x42656e65666163746f7220646f6573206e6f7420657869737400000000000000\n        /* \"#utility.yul\":4438:4456   */\n      0x44\n      dup3\n      add\n        /* \"#utility.yul\":4431:4486   */\n      mstore\n        /* \"#utility.yul\":4503:4521   */\n      0x64\n      add\n        /* \"DeadMansSwitch.sol\":3057:3125  require(benefactors[_benefactor].exists,\"Benefactor does not exist\") */\n    tag_83:\n      mload(0x40)\n      dup1\n      swap2\n      sub\n      swap1\n      revert\n    tag_82:\n      pop\n      sub(shl(0xa0, 0x01), 0x01)\n        /* \"DeadMansSwitch.sol\":3144:3168  benefactors[_benefactor] */\n      and\n        /* \"DeadMansSwitch.sol\":3144:3155  benefactors */\n      0x00\n        /* \"DeadMansSwitch.sol\":3144:3168  benefactors[_benefactor] */\n      swap1\n      dup2\n      mstore\n      0x20\n      dup2\n      swap1\n      mstore\n      0x40\n      swap1\n      keccak256\n        /* \"DeadMansSwitch.sol\":3144:3182  benefactors[_benefactor].isSwitchedOff */\n      0x04\n      add\n      sload\n      0xff\n      and\n        /* \"DeadMansSwitch.sol\":3143:3182  !benefactors[_benefactor].isSwitchedOff */\n      iszero\n      swap1\n        /* \"DeadMansSwitch.sol\":2973:3190  function getSwitchStatus(address _benefactor) public view returns (bool) {... */\n      jump\t// out\n        /* \"DeadMansSwitch.sol\":3412:3582  function isBeneficiary(address _benefactor, address _address) public view returns (bool) {... */\n    tag_37:\n      sub(shl(0xa0, 0x01), 0x01)\n        /* \"DeadMansSwitch.sol\":3519:3543  benefactors[_benefactor] */\n      dup1\n      dup4\n      and\n        /* \"DeadMansSwitch.sol\":3495:3499  bool */\n      0x00\n        /* \"DeadMansSwitch.sol\":3519:3543  benefactors[_benefactor] */\n      swap1\n      dup2\n      mstore\n      0x20\n      dup2\n      dup2\n      mstore\n      0x40\n      dup1\n      dup4\n      keccak256\n        /* \"DeadMansSwitch.sol\":3519:3567  benefactors[_benefactor].beneficiaries[_address] */\n      swap4\n      dup6\n      and\n      dup4\n      mstore\n        /* \"DeadMansSwitch.sol\":3519:3557  benefactors[_benefactor].beneficiaries */\n      0x01\n      swap1\n      swap4\n      add\n        /* \"DeadMansSwitch.sol\":3519:3567  benefactors[_benefactor].beneficiaries[_address] */\n      swap1\n      mstore\n      keccak256\n        /* \"DeadMansSwitch.sol\":3519:3574  benefactors[_benefactor].beneficiaries[_address].exists */\n      sload\n      0xff\n      and\n        /* \"DeadMansSwitch.sol\":3412:3582  function isBeneficiary(address _benefactor, address _address) public view returns (bool) {... */\n    tag_85:\n      swap3\n      swap2\n      pop\n      pop\n      jump\t// out\n        /* \"DeadMansSwitch.sol\":2141:2643  function setBenefactor() public{... */\n    tag_40:\n        /* \"DeadMansSwitch.sol\":2204:2214  msg.sender */\n      caller\n        /* \"DeadMansSwitch.sol\":2192:2203  benefactors */\n      0x00\n        /* \"DeadMansSwitch.sol\":2192:2215  benefactors[msg.sender] */\n      swap1\n      dup2\n      mstore\n      0x20\n      dup2\n      swap1\n      mstore\n      0x40\n      swap1\n      keccak256\n        /* \"DeadMansSwitch.sol\":2192:2222  benefactors[msg.sender].exists */\n      sload\n      0xff\n      and\n        /* \"DeadMansSwitch.sol\":2191:2222  !benefactors[msg.sender].exists */\n      iszero\n        /* \"DeadMansSwitch.sol\":2183:2251  require(!benefactors[msg.sender].exists,\"benefactor already exists\") */\n      tag_87\n      jumpi\n      mload(0x40)\n      shl(0xe5, 0x461bcd)\n      dup2\n      mstore\n        /* \"#utility.yul\":4734:4736   */\n      0x20\n        /* \"DeadMansSwitch.sol\":2183:2251  require(!benefactors[msg.sender].exists,\"benefactor already exists\") */\n      0x04\n      dup3\n      add\n        /* \"#utility.yul\":4716:4737   */\n      mstore\n        /* \"#utility.yul\":4773:4775   */\n      0x19\n        /* \"#utility.yul\":4753:4771   */\n      0x24\n      dup3\n      add\n        /* \"#utility.yul\":4746:4776   */\n      mstore\n        /* \"#utility.yul\":4812:4839   */\n      0x62656e65666163746f7220616c72656164792065786973747300000000000000\n        /* \"#utility.yul\":4792:4810   */\n      0x44\n      dup3\n      add\n        /* \"#utility.yul\":4785:4840   */\n      mstore\n        /* \"#utility.yul\":4857:4875   */\n      0x64\n      add\n        /* \"DeadMansSwitch.sol\":2183:2251  require(!benefactors[msg.sender].exists,\"benefactor already exists\") */\n      tag_83\n        /* \"#utility.yul\":4532:4881   */\n      jump\n        /* \"DeadMansSwitch.sol\":2183:2251  require(!benefactors[msg.sender].exists,\"benefactor already exists\") */\n    tag_87:\n        /* \"DeadMansSwitch.sol\":2274:2284  msg.sender */\n      caller\n        /* \"DeadMansSwitch.sol\":2262:2273  benefactors */\n      0x00\n        /* \"DeadMansSwitch.sol\":2262:2285  benefactors[msg.sender] */\n      swap1\n      dup2\n      mstore\n      0x20\n      dup2\n      swap1\n      mstore\n      0x40\n      dup2\n      keccak256\n        /* \"DeadMansSwitch.sol\":2262:2297  benefactors[msg.sender].exists=true */\n      dup1\n      sload\n      not(0xff)\n      and\n        /* \"DeadMansSwitch.sol\":2293:2297  true */\n      0x01\n        /* \"DeadMansSwitch.sol\":2262:2297  benefactors[msg.sender].exists=true */\n      or\n      dup2\n      sstore\n        /* \"DeadMansSwitch.sol\":2352:2369  7*24*3600 seconds */\n      0x093a80\n        /* \"DeadMansSwitch.sol\":2308:2349  benefactors[msg.sender].countdownDuration */\n      0x02\n      dup3\n      add\n        /* \"DeadMansSwitch.sol\":2308:2369  benefactors[msg.sender].countdownDuration = 7*24*3600 seconds */\n      sstore\n        /* \"DeadMansSwitch.sol\":2477:2514  benefactors[msg.sender].isSwitchedOff */\n      0x04\n      dup2\n      add\n        /* \"DeadMansSwitch.sol\":2477:2521  benefactors[msg.sender].isSwitchedOff = true */\n      dup1\n      sload\n        /* \"DeadMansSwitch.sol\":2532:2570  benefactors[msg.sender].isAlive = true */\n      0x0101\n      not(0xffff)\n      swap1\n      swap2\n      and\n      or\n      swap1\n      sstore\n        /* \"DeadMansSwitch.sol\":2581:2631  benefactors[msg.sender].lastBenefactorResponseTime */\n      0x03\n      add\n        /* \"DeadMansSwitch.sol\":2581:2635  benefactors[msg.sender].lastBenefactorResponseTime = 0 */\n      sstore\n        /* \"DeadMansSwitch.sol\":2141:2643  function setBenefactor() public{... */\n      jump\t// out\n        /* \"DeadMansSwitch.sol\":4776:5516  function addIpfsCID(address _beneficiary, string memory _ipfsCID) external onlyBenefactor {... */\n    tag_44:\n        /* \"DeadMansSwitch.sol\":1927:1937  msg.sender */\n      caller\n        /* \"DeadMansSwitch.sol\":1915:1926  benefactors */\n      0x00\n        /* \"DeadMansSwitch.sol\":1915:1938  benefactors[msg.sender] */\n      swap1\n      dup2\n      mstore\n      0x20\n      dup2\n      swap1\n      mstore\n      0x40\n      swap1\n      keccak256\n        /* \"DeadMansSwitch.sol\":1915:1945  benefactors[msg.sender].exists */\n      sload\n      0xff\n      and\n        /* \"DeadMansSwitch.sol\":1915:1980  benefactors[msg.sender].exists && benefactors[msg.sender].isAlive */\n      dup1\n      iszero\n      tag_91\n      jumpi\n      pop\n        /* \"DeadMansSwitch.sol\":1961:1971  msg.sender */\n      caller\n        /* \"DeadMansSwitch.sol\":1949:1960  benefactors */\n      0x00\n        /* \"DeadMansSwitch.sol\":1949:1972  benefactors[msg.sender] */\n      swap1\n      dup2\n      mstore\n      0x20\n      dup2\n      swap1\n      mstore\n      0x40\n      swap1\n      keccak256\n        /* \"DeadMansSwitch.sol\":1949:1980  benefactors[msg.sender].isAlive */\n      0x04\n      add\n      sload\n      0x0100\n      swap1\n      div\n      0xff\n      and\n        /* \"DeadMansSwitch.sol\":1915:1980  benefactors[msg.sender].exists && benefactors[msg.sender].isAlive */\n    tag_91:\n        /* \"DeadMansSwitch.sol\":1907:2007  require(benefactors[msg.sender].exists && benefactors[msg.sender].isAlive, \"Not a valid benefactor\") */\n      tag_92\n      jumpi\n      mload(0x40)\n      shl(0xe5, 0x461bcd)\n      dup2\n      mstore\n        /* \"#utility.yul\":5088:5090   */\n      0x20\n        /* \"DeadMansSwitch.sol\":1907:2007  require(benefactors[msg.sender].exists && benefactors[msg.sender].isAlive, \"Not a valid benefactor\") */\n      0x04\n      dup3\n      add\n        /* \"#utility.yul\":5070:5091   */\n      mstore\n        /* \"#utility.yul\":5127:5129   */\n      0x16\n        /* \"#utility.yul\":5107:5125   */\n      0x24\n      dup3\n      add\n        /* \"#utility.yul\":5100:5130   */\n      mstore\n      shl(0x51, 0x2737ba1030903b30b634b2103132b732b330b1ba37b9)\n        /* \"#utility.yul\":5146:5164   */\n      0x44\n      dup3\n      add\n        /* \"#utility.yul\":5139:5191   */\n      mstore\n        /* \"#utility.yul\":5208:5226   */\n      0x64\n      add\n        /* \"DeadMansSwitch.sol\":1907:2007  require(benefactors[msg.sender].exists && benefactors[msg.sender].isAlive, \"Not a valid benefactor\") */\n      tag_83\n        /* \"#utility.yul\":4886:5232   */\n      jump\n        /* \"DeadMansSwitch.sol\":1907:2007  require(benefactors[msg.sender].exists && benefactors[msg.sender].isAlive, \"Not a valid benefactor\") */\n    tag_92:\n        /* \"DeadMansSwitch.sol\":4885:4923  isBeneficiary(msg.sender,_beneficiary) */\n      tag_96\n        /* \"DeadMansSwitch.sol\":4899:4909  msg.sender */\n      caller\n        /* \"DeadMansSwitch.sol\":4910:4922  _beneficiary */\n      dup4\n        /* \"DeadMansSwitch.sol\":4885:4898  isBeneficiary */\n      tag_37\n        /* \"DeadMansSwitch.sol\":4885:4923  isBeneficiary(msg.sender,_beneficiary) */\n      jump\t// in\n    tag_96:\n        /* \"DeadMansSwitch.sol\":4877:4949  require(isBeneficiary(msg.sender,_beneficiary), \"Beneficiary not found\") */\n      tag_97\n      jumpi\n      mload(0x40)\n      shl(0xe5, 0x461bcd)\n      dup2\n      mstore\n        /* \"#utility.yul\":5439:5441   */\n      0x20\n        /* \"DeadMansSwitch.sol\":4877:4949  require(isBeneficiary(msg.sender,_beneficiary), \"Beneficiary not found\") */\n      0x04\n      dup3\n      add\n        /* \"#utility.yul\":5421:5442   */\n      mstore\n        /* \"#utility.yul\":5478:5480   */\n      0x15\n        /* \"#utility.yul\":5458:5476   */\n      0x24\n      dup3\n      add\n        /* \"#utility.yul\":5451:5481   */\n      mstore\n      shl(0x5a, 0x10995b99599a58da585c9e481b9bdd08199bdd5b99)\n        /* \"#utility.yul\":5497:5515   */\n      0x44\n      dup3\n      add\n        /* \"#utility.yul\":5490:5541   */\n      mstore\n        /* \"#utility.yul\":5558:5576   */\n      0x64\n      add\n        /* \"DeadMansSwitch.sol\":4877:4949  require(isBeneficiary(msg.sender,_beneficiary), \"Beneficiary not found\") */\n      tag_83\n        /* \"#utility.yul\":5237:5582   */\n      jump\n        /* \"DeadMansSwitch.sol\":4877:4949  require(isBeneficiary(msg.sender,_beneficiary), \"Beneficiary not found\") */\n    tag_97:\n        /* \"DeadMansSwitch.sol\":5000:5010  msg.sender */\n      caller\n        /* \"DeadMansSwitch.sol\":4960:4985  string[] storage ipfsCIDs */\n      0x00\n        /* \"DeadMansSwitch.sol\":4988:5011  benefactors[msg.sender] */\n      swap1\n      dup2\n      mstore\n      0x20\n      dup2\n      dup2\n      mstore\n      0x40\n      dup1\n      dup4\n      keccak256\n      sub(shl(0xa0, 0x01), 0x01)\n        /* \"DeadMansSwitch.sol\":4988:5039  benefactors[msg.sender].beneficiaries[_beneficiary] */\n      dup7\n      and\n      dup5\n      mstore\n        /* \"DeadMansSwitch.sol\":4988:5025  benefactors[msg.sender].beneficiaries */\n      0x01\n      swap1\n      dup2\n      add\n        /* \"DeadMansSwitch.sol\":4988:5039  benefactors[msg.sender].beneficiaries[_beneficiary] */\n      swap1\n      swap3\n      mstore\n      dup3\n      keccak256\n        /* \"DeadMansSwitch.sol\":4988:5048  benefactors[msg.sender].beneficiaries[_beneficiary].ipfsCIDs */\n      add\n      swap1\n        /* \"DeadMansSwitch.sol\":5098:5305  for (uint256 i = 0; i < ipfsCIDs.length; i++) {... */\n    tag_100:\n        /* \"DeadMansSwitch.sol\":5122:5137  ipfsCIDs.length */\n      dup2\n      sload\n        /* \"DeadMansSwitch.sol\":5118:5137  i < ipfsCIDs.length */\n      dup2\n      lt\n        /* \"DeadMansSwitch.sol\":5098:5305  for (uint256 i = 0; i < ipfsCIDs.length; i++) {... */\n      iszero\n      tag_101\n      jumpi\n        /* \"DeadMansSwitch.sol\":5238:5246  _ipfsCID */\n      dup3\n        /* \"DeadMansSwitch.sol\":5221:5247  abi.encodePacked(_ipfsCID) */\n      add(0x20, mload(0x40))\n      tag_103\n      swap2\n      swap1\n      tag_104\n      jump\t// in\n    tag_103:\n      mload(0x40)\n      0x20\n      dup2\n      dup4\n      sub\n      sub\n      dup2\n      mstore\n      swap1\n      0x40\n      mstore\n        /* \"DeadMansSwitch.sol\":5211:5248  keccak256(abi.encodePacked(_ipfsCID)) */\n      dup1\n      mload\n      swap1\n      0x20\n      add\n      keccak256\n        /* \"DeadMansSwitch.sol\":5194:5202  ipfsCIDs */\n      dup3\n        /* \"DeadMansSwitch.sol\":5203:5204  i */\n      dup3\n        /* \"DeadMansSwitch.sol\":5194:5205  ipfsCIDs[i] */\n      dup2\n      sload\n      dup2\n      lt\n      tag_106\n      jumpi\n      tag_106\n      tag_107\n      jump\t// in\n    tag_106:\n      swap1\n      0x00\n      mstore\n      keccak256(0x00, 0x20)\n      add\n        /* \"DeadMansSwitch.sol\":5177:5206  abi.encodePacked(ipfsCIDs[i]) */\n      add(0x20, mload(0x40))\n      tag_109\n      swap2\n      swap1\n      tag_110\n      jump\t// in\n    tag_109:\n      mload(0x40)\n      0x20\n      dup2\n      dup4\n      sub\n      sub\n      dup2\n      mstore\n      swap1\n      0x40\n      mstore\n        /* \"DeadMansSwitch.sol\":5167:5207  keccak256(abi.encodePacked(ipfsCIDs[i])) */\n      dup1\n      mload\n      swap1\n      0x20\n      add\n      keccak256\n        /* \"DeadMansSwitch.sol\":5167:5248  keccak256(abi.encodePacked(ipfsCIDs[i])) != keccak256(abi.encodePacked(_ipfsCID)) */\n      sub\n        /* \"DeadMansSwitch.sol\":5159:5293  require(keccak256(abi.encodePacked(ipfsCIDs[i])) != keccak256(abi.encodePacked(_ipfsCID)), \"CID already assigned to this beneficiary\") */\n      tag_111\n      jumpi\n      mload(0x40)\n      shl(0xe5, 0x461bcd)\n      dup2\n      mstore\n        /* \"#utility.yul\":7573:7575   */\n      0x20\n        /* \"DeadMansSwitch.sol\":5159:5293  require(keccak256(abi.encodePacked(ipfsCIDs[i])) != keccak256(abi.encodePacked(_ipfsCID)), \"CID already assigned to this beneficiary\") */\n      0x04\n      dup3\n      add\n        /* \"#utility.yul\":7555:7576   */\n      mstore\n        /* \"#utility.yul\":7612:7614   */\n      0x28\n        /* \"#utility.yul\":7592:7610   */\n      0x24\n      dup3\n      add\n        /* \"#utility.yul\":7585:7615   */\n      mstore\n        /* \"#utility.yul\":7651:7685   */\n      0x43494420616c72656164792061737369676e656420746f20746869732062656e\n        /* \"#utility.yul\":7631:7649   */\n      0x44\n      dup3\n      add\n        /* \"#utility.yul\":7624:7686   */\n      mstore\n        /* \"#utility.yul\":7722:7732   */\n      0x6566696369617279000000000000000000000000000000000000000000000000\n        /* \"#utility.yul\":7702:7720   */\n      0x64\n      dup3\n      add\n        /* \"#utility.yul\":7695:7733   */\n      mstore\n        /* \"#utility.yul\":7750:7769   */\n      0x84\n      add\n        /* \"DeadMansSwitch.sol\":5159:5293  require(keccak256(abi.encodePacked(ipfsCIDs[i])) != keccak256(abi.encodePacked(_ipfsCID)), \"CID already assigned to this beneficiary\") */\n      tag_83\n        /* \"#utility.yul\":7371:7775   */\n      jump\n        /* \"DeadMansSwitch.sol\":5159:5293  require(keccak256(abi.encodePacked(ipfsCIDs[i])) != keccak256(abi.encodePacked(_ipfsCID)), \"CID already assigned to this beneficiary\") */\n    tag_111:\n        /* \"DeadMansSwitch.sol\":5139:5142  i++ */\n      dup1\n      tag_114\n      dup2\n      tag_115\n      jump\t// in\n    tag_114:\n      swap2\n      pop\n      pop\n        /* \"DeadMansSwitch.sol\":5098:5305  for (uint256 i = 0; i < ipfsCIDs.length; i++) {... */\n      jump(tag_100)\n    tag_101:\n      pop\n        /* \"DeadMansSwitch.sol\":5382:5392  msg.sender */\n      caller\n        /* \"DeadMansSwitch.sol\":5370:5381  benefactors */\n      0x00\n        /* \"DeadMansSwitch.sol\":5370:5393  benefactors[msg.sender] */\n      swap1\n      dup2\n      mstore\n      0x20\n      dup2\n      dup2\n      mstore\n      0x40\n      dup1\n      dup4\n      keccak256\n      sub(shl(0xa0, 0x01), 0x01)\n        /* \"DeadMansSwitch.sol\":5370:5421  benefactors[msg.sender].beneficiaries[_beneficiary] */\n      dup8\n      and\n      dup5\n      mstore\n        /* \"DeadMansSwitch.sol\":5370:5407  benefactors[msg.sender].beneficiaries */\n      0x01\n      swap1\n      dup2\n      add\n        /* \"DeadMansSwitch.sol\":5370:5421  benefactors[msg.sender].beneficiaries[_beneficiary] */\n      dup4\n      mstore\n      swap1\n      dup4\n      keccak256\n        /* \"DeadMansSwitch.sol\":5370:5430  benefactors[msg.sender].beneficiaries[_beneficiary].ipfsCIDs */\n      dup2\n      add\n        /* \"DeadMansSwitch.sol\":5370:5445  benefactors[msg.sender].beneficiaries[_beneficiary].ipfsCIDs.push(_ipfsCID) */\n      dup1\n      sload\n      swap2\n      dup3\n      add\n      dup2\n      sstore\n      dup4\n      mstore\n      swap2\n      keccak256\n      add\n      tag_117\n        /* \"DeadMansSwitch.sol\":5436:5444  _ipfsCID */\n      dup4\n        /* \"DeadMansSwitch.sol\":5370:5445  benefactors[msg.sender].beneficiaries[_beneficiary].ipfsCIDs.push(_ipfsCID) */\n      dup3\n      tag_118\n      jump\t// in\n    tag_117:\n      pop\n        /* \"DeadMansSwitch.sol\":5485:5497  _beneficiary */\n      dup3\n      sub(shl(0xa0, 0x01), 0x01)\n        /* \"DeadMansSwitch.sol\":5461:5508  IpfsCIDAdded(msg.sender,_beneficiary, _ipfsCID) */\n      and\n        /* \"DeadMansSwitch.sol\":5474:5484  msg.sender */\n      caller\n      sub(shl(0xa0, 0x01), 0x01)\n        /* \"DeadMansSwitch.sol\":5461:5508  IpfsCIDAdded(msg.sender,_beneficiary, _ipfsCID) */\n      and\n      0xa1bb52b874769d5c17cde30e708e8f7180bb949f70e77caf0da68d25f9a1a510\n        /* \"DeadMansSwitch.sol\":5499:5507  _ipfsCID */\n      dup5\n        /* \"DeadMansSwitch.sol\":5461:5508  IpfsCIDAdded(msg.sender,_beneficiary, _ipfsCID) */\n      mload(0x40)\n      tag_119\n      swap2\n      swap1\n      tag_120\n      jump\t// in\n    tag_119:\n      mload(0x40)\n      dup1\n      swap2\n      sub\n      swap1\n      log3\n        /* \"DeadMansSwitch.sol\":4866:5516  {... */\n      pop\n        /* \"DeadMansSwitch.sol\":4776:5516  function addIpfsCID(address _beneficiary, string memory _ipfsCID) external onlyBenefactor {... */\n      pop\n      pop\n      jump\t// out\n        /* \"DeadMansSwitch.sol\":4229:4552  function addBeneficiary(address _beneficiary) external onlyBenefactor {... */\n    tag_47:\n        /* \"DeadMansSwitch.sol\":1927:1937  msg.sender */\n      caller\n        /* \"DeadMansSwitch.sol\":1915:1926  benefactors */\n      0x00\n        /* \"DeadMansSwitch.sol\":1915:1938  benefactors[msg.sender] */\n      swap1\n      dup2\n      mstore\n      0x20\n      dup2\n      swap1\n      mstore\n      0x40\n      swap1\n      keccak256\n        /* \"DeadMansSwitch.sol\":1915:1945  benefactors[msg.sender].exists */\n      sload\n      0xff\n      and\n        /* \"DeadMansSwitch.sol\":1915:1980  benefactors[msg.sender].exists && benefactors[msg.sender].isAlive */\n      dup1\n      iszero\n      tag_122\n      jumpi\n      pop\n        /* \"DeadMansSwitch.sol\":1961:1971  msg.sender */\n      caller\n        /* \"DeadMansSwitch.sol\":1949:1960  benefactors */\n      0x00\n        /* \"DeadMansSwitch.sol\":1949:1972  benefactors[msg.sender] */\n      swap1\n      dup2\n      mstore\n      0x20\n      dup2\n      swap1\n      mstore\n      0x40\n      swap1\n      keccak256\n        /* \"DeadMansSwitch.sol\":1949:1980  benefactors[msg.sender].isAlive */\n      0x04\n      add\n      sload\n      0x0100\n      swap1\n      div\n      0xff\n      and\n        /* \"DeadMansSwitch.sol\":1915:1980  benefactors[msg.sender].exists && benefactors[msg.sender].isAlive */\n    tag_122:\n        /* \"DeadMansSwitch.sol\":1907:2007  require(benefactors[msg.sender].exists && benefactors[msg.sender].isAlive, \"Not a valid benefactor\") */\n      tag_123\n      jumpi\n      mload(0x40)\n      shl(0xe5, 0x461bcd)\n      dup2\n      mstore\n        /* \"#utility.yul\":5088:5090   */\n      0x20\n        /* \"DeadMansSwitch.sol\":1907:2007  require(benefactors[msg.sender].exists && benefactors[msg.sender].isAlive, \"Not a valid benefactor\") */\n      0x04\n      dup3\n      add\n        /* \"#utility.yul\":5070:5091   */\n      mstore\n        /* \"#utility.yul\":5127:5129   */\n      0x16\n        /* \"#utility.yul\":5107:5125   */\n      0x24\n      dup3\n      add\n        /* \"#utility.yul\":5100:5130   */\n      mstore\n      shl(0x51, 0x2737ba1030903b30b634b2103132b732b330b1ba37b9)\n        /* \"#utility.yul\":5146:5164   */\n      0x44\n      dup3\n      add\n        /* \"#utility.yul\":5139:5191   */\n      mstore\n        /* \"#utility.yul\":5208:5226   */\n      0x64\n      add\n        /* \"DeadMansSwitch.sol\":1907:2007  require(benefactors[msg.sender].exists && benefactors[msg.sender].isAlive, \"Not a valid benefactor\") */\n      tag_83\n        /* \"#utility.yul\":4886:5232   */\n      jump\n        /* \"DeadMansSwitch.sol\":1907:2007  require(benefactors[msg.sender].exists && benefactors[msg.sender].isAlive, \"Not a valid benefactor\") */\n    tag_123:\n        /* \"DeadMansSwitch.sol\":4319:4357  isBeneficiary(msg.sender,_beneficiary) */\n      tag_126\n        /* \"DeadMansSwitch.sol\":4333:4343  msg.sender */\n      caller\n        /* \"DeadMansSwitch.sol\":4344:4356  _beneficiary */\n      dup3\n        /* \"DeadMansSwitch.sol\":4319:4332  isBeneficiary */\n      tag_37\n        /* \"DeadMansSwitch.sol\":4319:4357  isBeneficiary(msg.sender,_beneficiary) */\n      jump\t// in\n    tag_126:\n        /* \"DeadMansSwitch.sol\":4318:4357  !isBeneficiary(msg.sender,_beneficiary) */\n      iszero\n        /* \"DeadMansSwitch.sol\":4310:4388  require(!isBeneficiary(msg.sender,_beneficiary), \"Beneficiary already exists\") */\n      tag_127\n      jumpi\n      mload(0x40)\n      shl(0xe5, 0x461bcd)\n      dup2\n      mstore\n        /* \"#utility.yul\":10425:10427   */\n      0x20\n        /* \"DeadMansSwitch.sol\":4310:4388  require(!isBeneficiary(msg.sender,_beneficiary), \"Beneficiary already exists\") */\n      0x04\n      dup3\n      add\n        /* \"#utility.yul\":10407:10428   */\n      mstore\n        /* \"#utility.yul\":10464:10466   */\n      0x1a\n        /* \"#utility.yul\":10444:10462   */\n      0x24\n      dup3\n      add\n        /* \"#utility.yul\":10437:10467   */\n      mstore\n        /* \"#utility.yul\":10503:10531   */\n      0x42656e656669636961727920616c726561647920657869737473000000000000\n        /* \"#utility.yul\":10483:10501   */\n      0x44\n      dup3\n      add\n        /* \"#utility.yul\":10476:10532   */\n      mstore\n        /* \"#utility.yul\":10549:10567   */\n      0x64\n      add\n        /* \"DeadMansSwitch.sol\":4310:4388  require(!isBeneficiary(msg.sender,_beneficiary), \"Beneficiary already exists\") */\n      tag_83\n        /* \"#utility.yul\":10223:10573   */\n      jump\n        /* \"DeadMansSwitch.sol\":4310:4388  require(!isBeneficiary(msg.sender,_beneficiary), \"Beneficiary already exists\") */\n    tag_127:\n        /* \"DeadMansSwitch.sol\":4453:4487  Beneficiary(true, new string[](0)) */\n      0x40\n      dup1\n      mload\n      dup1\n      dup3\n      add\n      dup3\n      mstore\n        /* \"DeadMansSwitch.sol\":4465:4469  true */\n      0x01\n        /* \"DeadMansSwitch.sol\":4453:4487  Beneficiary(true, new string[](0)) */\n      dup2\n      mstore\n        /* \"DeadMansSwitch.sol\":4471:4486  new string[](0) */\n      dup2\n      mload\n      0x00\n      dup1\n      dup3\n      mstore\n        /* \"DeadMansSwitch.sol\":4453:4487  Beneficiary(true, new string[](0)) */\n      0x20\n        /* \"DeadMansSwitch.sol\":4471:4486  new string[](0) */\n      dup3\n      dup2\n      add\n      swap1\n      swap5\n      mstore\n        /* \"DeadMansSwitch.sol\":4453:4487  Beneficiary(true, new string[](0)) */\n      swap2\n      swap3\n      dup4\n      add\n      swap2\n        /* \"DeadMansSwitch.sol\":4471:4486  new string[](0) */\n      jump(tag_133)\n    tag_134:\n      0x60\n      dup2\n      mstore\n      0x20\n      add\n      swap1\n      0x01\n      swap1\n      sub\n      swap1\n      dup2\n      tag_134\n      jumpi\n      swap1\n      pop\n    tag_133:\n      pop\n        /* \"DeadMansSwitch.sol\":4453:4487  Beneficiary(true, new string[](0)) */\n      swap1\n      mstore\n        /* \"DeadMansSwitch.sol\":4411:4421  msg.sender */\n      caller\n        /* \"DeadMansSwitch.sol\":4399:4410  benefactors */\n      0x00\n        /* \"DeadMansSwitch.sol\":4399:4422  benefactors[msg.sender] */\n      swap1\n      dup2\n      mstore\n      0x20\n      dup2\n      dup2\n      mstore\n      0x40\n      dup1\n      dup4\n      keccak256\n      sub(shl(0xa0, 0x01), 0x01)\n        /* \"DeadMansSwitch.sol\":4399:4450  benefactors[msg.sender].beneficiaries[_beneficiary] */\n      dup7\n      and\n      dup5\n      mstore\n        /* \"DeadMansSwitch.sol\":4399:4436  benefactors[msg.sender].beneficiaries */\n      0x01\n      swap1\n      dup2\n      add\n        /* \"DeadMansSwitch.sol\":4399:4450  benefactors[msg.sender].beneficiaries[_beneficiary] */\n      dup4\n      mstore\n      swap3\n      keccak256\n        /* \"DeadMansSwitch.sol\":4399:4487  benefactors[msg.sender].beneficiaries[_beneficiary] = Beneficiary(true, new string[](0)) */\n      dup4\n      mload\n      dup2\n      sload\n      not(0xff)\n      and\n      swap1\n      iszero\n      iszero\n      or\n      dup2\n      sstore\n      dup4\n      dup3\n      add\n      mload\n      dup1\n      mload\n        /* \"DeadMansSwitch.sol\":4399:4450  benefactors[msg.sender].beneficiaries[_beneficiary] */\n      swap2\n      swap4\n        /* \"DeadMansSwitch.sol\":4399:4487  benefactors[msg.sender].beneficiaries[_beneficiary] = Beneficiary(true, new string[](0)) */\n      tag_135\n      swap4\n      swap1\n      dup6\n      add\n      swap3\n      swap2\n      add\n      swap1\n      tag_136\n      jump\t// in\n    tag_135:\n      pop\n      pop\n        /* \"DeadMansSwitch.sol\":4503:4544  BeneficiaryAdded(msg.sender,_beneficiary) */\n      mload(0x40)\n      sub(shl(0xa0, 0x01), 0x01)\n      dup4\n      and\n      swap2\n      pop\n        /* \"DeadMansSwitch.sol\":4520:4530  msg.sender */\n      caller\n      swap1\n        /* \"DeadMansSwitch.sol\":4503:4544  BeneficiaryAdded(msg.sender,_beneficiary) */\n      0xbb39c36a7502b7256e1a687254146a9a2ea7b146c77cb9e40eb0e2b8793781e1\n      swap1\n      0x00\n      swap1\n      log3\n        /* \"DeadMansSwitch.sol\":4229:4552  function addBeneficiary(address _beneficiary) external onlyBenefactor {... */\n      pop\n      jump\t// out\n        /* \"DeadMansSwitch.sol\":3765:4057  function removeBeneficiary(address _beneficiary) external onlyBenefactor {... */\n    tag_50:\n        /* \"DeadMansSwitch.sol\":1927:1937  msg.sender */\n      caller\n        /* \"DeadMansSwitch.sol\":1915:1926  benefactors */\n      0x00\n        /* \"DeadMansSwitch.sol\":1915:1938  benefactors[msg.sender] */\n      swap1\n      dup2\n      mstore\n      0x20\n      dup2\n      swap1\n      mstore\n      0x40\n      swap1\n      keccak256\n        /* \"DeadMansSwitch.sol\":1915:1945  benefactors[msg.sender].exists */\n      sload\n      0xff\n      and\n        /* \"DeadMansSwitch.sol\":1915:1980  benefactors[msg.sender].exists && benefactors[msg.sender].isAlive */\n      dup1\n      iszero\n      tag_138\n      jumpi\n      pop\n        /* \"DeadMansSwitch.sol\":1961:1971  msg.sender */\n      caller\n        /* \"DeadMansSwitch.sol\":1949:1960  benefactors */\n      0x00\n        /* \"DeadMansSwitch.sol\":1949:1972  benefactors[msg.sender] */\n      swap1\n      dup2\n      mstore\n      0x20\n      dup2\n      swap1\n      mstore\n      0x40\n      swap1\n      keccak256\n        /* \"DeadMansSwitch.sol\":1949:1980  benefactors[msg.sender].isAlive */\n      0x04\n      add\n      sload\n      0x0100\n      swap1\n      div\n      0xff\n      and\n        /* \"DeadMansSwitch.sol\":1915:1980  benefactors[msg.sender].exists && benefactors[msg.sender].isAlive */\n    tag_138:\n        /* \"DeadMansSwitch.sol\":1907:2007  require(benefactors[msg.sender].exists && benefactors[msg.sender].isAlive, \"Not a valid benefactor\") */\n      tag_139\n      jumpi\n      mload(0x40)\n      shl(0xe5, 0x461bcd)\n      dup2\n      mstore\n        /* \"#utility.yul\":5088:5090   */\n      0x20\n        /* \"DeadMansSwitch.sol\":1907:2007  require(benefactors[msg.sender].exists && benefactors[msg.sender].isAlive, \"Not a valid benefactor\") */\n      0x04\n      dup3\n      add\n        /* \"#utility.yul\":5070:5091   */\n      mstore\n        /* \"#utility.yul\":5127:5129   */\n      0x16\n        /* \"#utility.yul\":5107:5125   */\n      0x24\n      dup3\n      add\n        /* \"#utility.yul\":5100:5130   */\n      mstore\n      shl(0x51, 0x2737ba1030903b30b634b2103132b732b330b1ba37b9)\n        /* \"#utility.yul\":5146:5164   */\n      0x44\n      dup3\n      add\n        /* \"#utility.yul\":5139:5191   */\n      mstore\n        /* \"#utility.yul\":5208:5226   */\n      0x64\n      add\n        /* \"DeadMansSwitch.sol\":1907:2007  require(benefactors[msg.sender].exists && benefactors[msg.sender].isAlive, \"Not a valid benefactor\") */\n      tag_83\n        /* \"#utility.yul\":4886:5232   */\n      jump\n        /* \"DeadMansSwitch.sol\":1907:2007  require(benefactors[msg.sender].exists && benefactors[msg.sender].isAlive, \"Not a valid benefactor\") */\n    tag_139:\n        /* \"DeadMansSwitch.sol\":3857:3895  isBeneficiary(msg.sender,_beneficiary) */\n      tag_142\n        /* \"DeadMansSwitch.sol\":3871:3881  msg.sender */\n      caller\n        /* \"DeadMansSwitch.sol\":3882:3894  _beneficiary */\n      dup3\n        /* \"DeadMansSwitch.sol\":3857:3870  isBeneficiary */\n      tag_37\n        /* \"DeadMansSwitch.sol\":3857:3895  isBeneficiary(msg.sender,_beneficiary) */\n      jump\t// in\n    tag_142:\n        /* \"DeadMansSwitch.sol\":3849:3921  require(isBeneficiary(msg.sender,_beneficiary), \"Beneficiary not found\") */\n      tag_143\n      jumpi\n      mload(0x40)\n      shl(0xe5, 0x461bcd)\n      dup2\n      mstore\n        /* \"#utility.yul\":5439:5441   */\n      0x20\n        /* \"DeadMansSwitch.sol\":3849:3921  require(isBeneficiary(msg.sender,_beneficiary), \"Beneficiary not found\") */\n      0x04\n      dup3\n      add\n        /* \"#utility.yul\":5421:5442   */\n      mstore\n        /* \"#utility.yul\":5478:5480   */\n      0x15\n        /* \"#utility.yul\":5458:5476   */\n      0x24\n      dup3\n      add\n        /* \"#utility.yul\":5451:5481   */\n      mstore\n      shl(0x5a, 0x10995b99599a58da585c9e481b9bdd08199bdd5b99)\n        /* \"#utility.yul\":5497:5515   */\n      0x44\n      dup3\n      add\n        /* \"#utility.yul\":5490:5541   */\n      mstore\n        /* \"#utility.yul\":5558:5576   */\n      0x64\n      add\n        /* \"DeadMansSwitch.sol\":3849:3921  require(isBeneficiary(msg.sender,_beneficiary), \"Beneficiary not found\") */\n      tag_83\n        /* \"#utility.yul\":5237:5582   */\n      jump\n        /* \"DeadMansSwitch.sol\":3849:3921  require(isBeneficiary(msg.sender,_beneficiary), \"Beneficiary not found\") */\n    tag_143:\n        /* \"DeadMansSwitch.sol\":3951:3961  msg.sender */\n      caller\n        /* \"DeadMansSwitch.sol\":3939:3950  benefactors */\n      0x00\n        /* \"DeadMansSwitch.sol\":3939:3962  benefactors[msg.sender] */\n      swap1\n      dup2\n      mstore\n      0x20\n      dup2\n      dup2\n      mstore\n      0x40\n      dup1\n      dup4\n      keccak256\n      sub(shl(0xa0, 0x01), 0x01)\n        /* \"DeadMansSwitch.sol\":3939:3990  benefactors[msg.sender].beneficiaries[_beneficiary] */\n      dup6\n      and\n      dup5\n      mstore\n        /* \"DeadMansSwitch.sol\":3939:3976  benefactors[msg.sender].beneficiaries */\n      0x01\n      swap1\n      dup2\n      add\n        /* \"DeadMansSwitch.sol\":3939:3990  benefactors[msg.sender].beneficiaries[_beneficiary] */\n      swap1\n      swap3\n      mstore\n      dup3\n      keccak256\n        /* \"DeadMansSwitch.sol\":3932:3990  delete benefactors[msg.sender].beneficiaries[_beneficiary] */\n      dup1\n      sload\n      not(0xff)\n      and\n      dup2\n      sstore\n        /* \"DeadMansSwitch.sol\":3939:3990  benefactors[msg.sender].beneficiaries[_beneficiary] */\n      swap2\n        /* \"DeadMansSwitch.sol\":3939:3950  benefactors */\n      swap1\n        /* \"DeadMansSwitch.sol\":3932:3990  delete benefactors[msg.sender].beneficiaries[_beneficiary] */\n      tag_145\n      swap1\n      dup4\n      add\n        /* \"DeadMansSwitch.sol\":3939:3950  benefactors */\n      dup3\n        /* \"DeadMansSwitch.sol\":3932:3990  delete benefactors[msg.sender].beneficiaries[_beneficiary] */\n      tag_146\n      jump\t// in\n    tag_145:\n      pop\n      pop\n        /* \"DeadMansSwitch.sol\":4006:4049  BeneficiaryRemoved(msg.sender,_beneficiary) */\n      mload(0x40)\n      sub(shl(0xa0, 0x01), 0x01)\n      dup3\n      and\n      swap1\n        /* \"DeadMansSwitch.sol\":4025:4035  msg.sender */\n      caller\n      swap1\n        /* \"DeadMansSwitch.sol\":4006:4049  BeneficiaryRemoved(msg.sender,_beneficiary) */\n      0x1a6590bd0cabbfcc7c86bef99e1034054e179905cfcc294598fcd426c0922442\n      swap1\n      0x00\n      swap1\n      log3\n        /* \"DeadMansSwitch.sol\":3765:4057  function removeBeneficiary(address _beneficiary) external onlyBenefactor {... */\n      pop\n      jump\t// out\n        /* \"DeadMansSwitch.sol\":5744:6659  function removeIpfsCID(address _beneficiary, string memory _ipfsCID) external onlyBenefactor {... */\n    tag_53:\n        /* \"DeadMansSwitch.sol\":1927:1937  msg.sender */\n      caller\n        /* \"DeadMansSwitch.sol\":1915:1926  benefactors */\n      0x00\n        /* \"DeadMansSwitch.sol\":1915:1938  benefactors[msg.sender] */\n      swap1\n      dup2\n      mstore\n      0x20\n      dup2\n      swap1\n      mstore\n      0x40\n      swap1\n      keccak256\n        /* \"DeadMansSwitch.sol\":1915:1945  benefactors[msg.sender].exists */\n      sload\n      0xff\n      and\n        /* \"DeadMansSwitch.sol\":1915:1980  benefactors[msg.sender].exists && benefactors[msg.sender].isAlive */\n      dup1\n      iszero\n      tag_148\n      jumpi\n      pop\n        /* \"DeadMansSwitch.sol\":1961:1971  msg.sender */\n      caller\n        /* \"DeadMansSwitch.sol\":1949:1960  benefactors */\n      0x00\n        /* \"DeadMansSwitch.sol\":1949:1972  benefactors[msg.sender] */\n      swap1\n      dup2\n      mstore\n      0x20\n      dup2\n      swap1\n      mstore\n      0x40\n      swap1\n      keccak256\n        /* \"DeadMansSwitch.sol\":1949:1980  benefactors[msg.sender].isAlive */\n      0x04\n      add\n      sload\n      0x0100\n      swap1\n      div\n      0xff\n      and\n        /* \"DeadMansSwitch.sol\":1915:1980  benefactors[msg.sender].exists && benefactors[msg.sender].isAlive */\n    tag_148:\n        /* \"DeadMansSwitch.sol\":1907:2007  require(benefactors[msg.sender].exists && benefactors[msg.sender].isAlive, \"Not a valid benefactor\") */\n      tag_149\n      jumpi\n      mload(0x40)\n      shl(0xe5, 0x461bcd)\n      dup2\n      mstore\n        /* \"#utility.yul\":5088:5090   */\n      0x20\n        /* \"DeadMansSwitch.sol\":1907:2007  require(benefactors[msg.sender].exists && benefactors[msg.sender].isAlive, \"Not a valid benefactor\") */\n      0x04\n      dup3\n      add\n        /* \"#utility.yul\":5070:5091   */\n      mstore\n        /* \"#utility.yul\":5127:5129   */\n      0x16\n        /* \"#utility.yul\":5107:5125   */\n      0x24\n      dup3\n      add\n        /* \"#utility.yul\":5100:5130   */\n      mstore\n      shl(0x51, 0x2737ba1030903b30b634b2103132b732b330b1ba37b9)\n        /* \"#utility.yul\":5146:5164   */\n      0x44\n      dup3\n      add\n        /* \"#utility.yul\":5139:5191   */\n      mstore\n        /* \"#utility.yul\":5208:5226   */\n      0x64\n      add\n        /* \"DeadMansSwitch.sol\":1907:2007  require(benefactors[msg.sender].exists && benefactors[msg.sender].isAlive, \"Not a valid benefactor\") */\n      tag_83\n        /* \"#utility.yul\":4886:5232   */\n      jump\n        /* \"DeadMansSwitch.sol\":1907:2007  require(benefactors[msg.sender].exists && benefactors[msg.sender].isAlive, \"Not a valid benefactor\") */\n    tag_149:\n        /* \"DeadMansSwitch.sol\":5856:5895  isBeneficiary(msg.sender, _beneficiary) */\n      tag_152\n        /* \"DeadMansSwitch.sol\":5870:5880  msg.sender */\n      caller\n        /* \"DeadMansSwitch.sol\":5882:5894  _beneficiary */\n      dup4\n        /* \"DeadMansSwitch.sol\":5856:5869  isBeneficiary */\n      tag_37\n        /* \"DeadMansSwitch.sol\":5856:5895  isBeneficiary(msg.sender, _beneficiary) */\n      jump\t// in\n    tag_152:\n        /* \"DeadMansSwitch.sol\":5848:5921  require(isBeneficiary(msg.sender, _beneficiary), \"Beneficiary not found\") */\n      tag_153\n      jumpi\n      mload(0x40)\n      shl(0xe5, 0x461bcd)\n      dup2\n      mstore\n        /* \"#utility.yul\":5439:5441   */\n      0x20\n        /* \"DeadMansSwitch.sol\":5848:5921  require(isBeneficiary(msg.sender, _beneficiary), \"Beneficiary not found\") */\n      0x04\n      dup3\n      add\n        /* \"#utility.yul\":5421:5442   */\n      mstore\n        /* \"#utility.yul\":5478:5480   */\n      0x15\n        /* \"#utility.yul\":5458:5476   */\n      0x24\n      dup3\n      add\n        /* \"#utility.yul\":5451:5481   */\n      mstore\n      shl(0x5a, 0x10995b99599a58da585c9e481b9bdd08199bdd5b99)\n        /* \"#utility.yul\":5497:5515   */\n      0x44\n      dup3\n      add\n        /* \"#utility.yul\":5490:5541   */\n      mstore\n        /* \"#utility.yul\":5558:5576   */\n      0x64\n      add\n        /* \"DeadMansSwitch.sol\":5848:5921  require(isBeneficiary(msg.sender, _beneficiary), \"Beneficiary not found\") */\n      tag_83\n        /* \"#utility.yul\":5237:5582   */\n      jump\n        /* \"DeadMansSwitch.sol\":5848:5921  require(isBeneficiary(msg.sender, _beneficiary), \"Beneficiary not found\") */\n    tag_153:\n        /* \"DeadMansSwitch.sol\":5974:5984  msg.sender */\n      caller\n        /* \"DeadMansSwitch.sol\":5934:5959  string[] storage ipfsCIDs */\n      0x00\n        /* \"DeadMansSwitch.sol\":5962:5985  benefactors[msg.sender] */\n      swap1\n      dup2\n      mstore\n      0x20\n      dup2\n      dup2\n      mstore\n      0x40\n      dup1\n      dup4\n      keccak256\n      sub(shl(0xa0, 0x01), 0x01)\n        /* \"DeadMansSwitch.sol\":5962:6013  benefactors[msg.sender].beneficiaries[_beneficiary] */\n      dup7\n      and\n      dup5\n      mstore\n        /* \"DeadMansSwitch.sol\":5962:5999  benefactors[msg.sender].beneficiaries */\n      0x01\n      swap1\n      dup2\n      add\n        /* \"DeadMansSwitch.sol\":5962:6013  benefactors[msg.sender].beneficiaries[_beneficiary] */\n      swap1\n      swap3\n      mstore\n      dup3\n      keccak256\n        /* \"DeadMansSwitch.sol\":5962:6022  benefactors[msg.sender].beneficiaries[_beneficiary].ipfsCIDs */\n      add\n      swap1\n        /* \"DeadMansSwitch.sol\":6079:6569  for (uint256 i = 0; i < ipfsCIDs.length; i++) {... */\n    tag_155:\n        /* \"DeadMansSwitch.sol\":6103:6118  ipfsCIDs.length */\n      dup2\n      sload\n        /* \"DeadMansSwitch.sol\":6099:6118  i < ipfsCIDs.length */\n      dup2\n      lt\n        /* \"DeadMansSwitch.sol\":6079:6569  for (uint256 i = 0; i < ipfsCIDs.length; i++) {... */\n      iszero\n      tag_156\n      jumpi\n        /* \"DeadMansSwitch.sol\":6215:6223  _ipfsCID */\n      dup3\n        /* \"DeadMansSwitch.sol\":6198:6224  abi.encodePacked(_ipfsCID) */\n      add(0x20, mload(0x40))\n      tag_158\n      swap2\n      swap1\n      tag_104\n      jump\t// in\n    tag_158:\n      mload(0x40)\n      0x20\n      dup2\n      dup4\n      sub\n      sub\n      dup2\n      mstore\n      swap1\n      0x40\n      mstore\n        /* \"DeadMansSwitch.sol\":6188:6225  keccak256(abi.encodePacked(_ipfsCID)) */\n      dup1\n      mload\n      swap1\n      0x20\n      add\n      keccak256\n        /* \"DeadMansSwitch.sol\":6171:6179  ipfsCIDs */\n      dup3\n        /* \"DeadMansSwitch.sol\":6180:6181  i */\n      dup3\n        /* \"DeadMansSwitch.sol\":6171:6182  ipfsCIDs[i] */\n      dup2\n      sload\n      dup2\n      lt\n      tag_160\n      jumpi\n      tag_160\n      tag_107\n      jump\t// in\n    tag_160:\n      swap1\n      0x00\n      mstore\n      keccak256(0x00, 0x20)\n      add\n        /* \"DeadMansSwitch.sol\":6154:6183  abi.encodePacked(ipfsCIDs[i]) */\n      add(0x20, mload(0x40))\n      tag_162\n      swap2\n      swap1\n      tag_110\n      jump\t// in\n    tag_162:\n      mload(0x40)\n      0x20\n      dup2\n      dup4\n      sub\n      sub\n      dup2\n      mstore\n      swap1\n      0x40\n      mstore\n        /* \"DeadMansSwitch.sol\":6144:6184  keccak256(abi.encodePacked(ipfsCIDs[i])) */\n      dup1\n      mload\n      swap1\n      0x20\n      add\n      keccak256\n        /* \"DeadMansSwitch.sol\":6144:6225  keccak256(abi.encodePacked(ipfsCIDs[i])) == keccak256(abi.encodePacked(_ipfsCID)) */\n      sub\n        /* \"DeadMansSwitch.sol\":6140:6558  if (keccak256(abi.encodePacked(ipfsCIDs[i])) == keccak256(abi.encodePacked(_ipfsCID))) {... */\n      tag_163\n      jumpi\n        /* \"DeadMansSwitch.sol\":6337:6352  ipfsCIDs.length */\n      dup2\n      sload\n        /* \"DeadMansSwitch.sol\":6328:6336  ipfsCIDs */\n      dup3\n      swap1\n        /* \"DeadMansSwitch.sol\":6337:6356  ipfsCIDs.length - 1 */\n      tag_164\n      swap1\n        /* \"DeadMansSwitch.sol\":6355:6356  1 */\n      0x01\n      swap1\n        /* \"DeadMansSwitch.sol\":6337:6356  ipfsCIDs.length - 1 */\n      tag_69\n      jump\t// in\n    tag_164:\n        /* \"DeadMansSwitch.sol\":6328:6357  ipfsCIDs[ipfsCIDs.length - 1] */\n      dup2\n      sload\n      dup2\n      lt\n      tag_166\n      jumpi\n      tag_166\n      tag_107\n      jump\t// in\n    tag_166:\n      swap1\n      0x00\n      mstore\n      keccak256(0x00, 0x20)\n      add\n        /* \"DeadMansSwitch.sol\":6314:6322  ipfsCIDs */\n      dup3\n        /* \"DeadMansSwitch.sol\":6323:6324  i */\n      dup3\n        /* \"DeadMansSwitch.sol\":6314:6325  ipfsCIDs[i] */\n      dup2\n      sload\n      dup2\n      lt\n      tag_169\n      jumpi\n      tag_169\n      tag_107\n      jump\t// in\n    tag_169:\n      swap1\n      0x00\n      mstore\n      keccak256(0x00, 0x20)\n      add\n        /* \"DeadMansSwitch.sol\":6314:6357  ipfsCIDs[i] = ipfsCIDs[ipfsCIDs.length - 1] */\n      swap1\n      dup2\n      tag_171\n      swap2\n      swap1\n      tag_172\n      jump\t// in\n    tag_171:\n      pop\n        /* \"DeadMansSwitch.sol\":6429:6437  ipfsCIDs */\n      dup2\n        /* \"DeadMansSwitch.sol\":6429:6443  ipfsCIDs.pop() */\n      dup1\n      sload\n      dup1\n      tag_174\n      jumpi\n      tag_174\n      tag_175\n      jump\t// in\n    tag_174:\n      0x01\n      swap1\n      sub\n      dup2\n      dup2\n      swap1\n      0x00\n      mstore\n      keccak256(0x00, 0x20)\n      add\n      0x00\n      tag_177\n      swap2\n      swap1\n      tag_178\n      jump\t// in\n    tag_177:\n      swap1\n      sstore\n        /* \"DeadMansSwitch.sol\":6494:6506  _beneficiary */\n      dup4\n      sub(shl(0xa0, 0x01), 0x01)\n        /* \"DeadMansSwitch.sol\":6467:6517  IpfsCIDRemoved(msg.sender, _beneficiary, _ipfsCID) */\n      and\n        /* \"DeadMansSwitch.sol\":6482:6492  msg.sender */\n      caller\n      sub(shl(0xa0, 0x01), 0x01)\n        /* \"DeadMansSwitch.sol\":6467:6517  IpfsCIDRemoved(msg.sender, _beneficiary, _ipfsCID) */\n      and\n      0x4c13211ce3b2d0cb3e02a662cc071d6be555042ca58d4d812b7b90e80d3250ac\n        /* \"DeadMansSwitch.sol\":6508:6516  _ipfsCID */\n      dup6\n        /* \"DeadMansSwitch.sol\":6467:6517  IpfsCIDRemoved(msg.sender, _beneficiary, _ipfsCID) */\n      mload(0x40)\n      tag_179\n      swap2\n      swap1\n      tag_120\n      jump\t// in\n    tag_179:\n      mload(0x40)\n      dup1\n      swap2\n      sub\n      swap1\n      log3\n        /* \"DeadMansSwitch.sol\":6536:6543  return; */\n      pop\n      pop\n        /* \"DeadMansSwitch.sol\":5744:6659  function removeIpfsCID(address _beneficiary, string memory _ipfsCID) external onlyBenefactor {... */\n      pop\n      pop\n      jump\t// out\n        /* \"DeadMansSwitch.sol\":6140:6558  if (keccak256(abi.encodePacked(ipfsCIDs[i])) == keccak256(abi.encodePacked(_ipfsCID))) {... */\n    tag_163:\n        /* \"DeadMansSwitch.sol\":6120:6123  i++ */\n      dup1\n      tag_180\n      dup2\n      tag_115\n      jump\t// in\n    tag_180:\n      swap2\n      pop\n      pop\n        /* \"DeadMansSwitch.sol\":6079:6569  for (uint256 i = 0; i < ipfsCIDs.length; i++) {... */\n      jump(tag_155)\n    tag_156:\n      pop\n        /* \"DeadMansSwitch.sol\":6605:6651  revert(\"CID not assigned to this beneficiary\") */\n      mload(0x40)\n      shl(0xe5, 0x461bcd)\n      dup2\n      mstore\n        /* \"#utility.yul\":12352:12354   */\n      0x20\n        /* \"DeadMansSwitch.sol\":6605:6651  revert(\"CID not assigned to this beneficiary\") */\n      0x04\n      dup3\n      add\n        /* \"#utility.yul\":12334:12355   */\n      mstore\n        /* \"#utility.yul\":12391:12393   */\n      0x24\n        /* \"#utility.yul\":12371:12389   */\n      dup1\n      dup3\n      add\n        /* \"#utility.yul\":12364:12394   */\n      mstore\n        /* \"#utility.yul\":12430:12464   */\n      0x434944206e6f742061737369676e656420746f20746869732062656e65666963\n        /* \"#utility.yul\":12410:12428   */\n      0x44\n      dup3\n      add\n        /* \"#utility.yul\":12403:12465   */\n      mstore\n      shl(0xe0, 0x69617279)\n        /* \"#utility.yul\":12481:12499   */\n      0x64\n      dup3\n      add\n        /* \"#utility.yul\":12474:12508   */\n      mstore\n        /* \"#utility.yul\":12525:12544   */\n      0x84\n      add\n        /* \"DeadMansSwitch.sol\":6605:6651  revert(\"CID not assigned to this beneficiary\") */\n      tag_83\n        /* \"#utility.yul\":12150:12550   */\n      jump\n        /* \"DeadMansSwitch.sol\":6821:7607  function enableSwitch(address _benefactor) external {... */\n    tag_56:\n      sub(shl(0xa0, 0x01), 0x01)\n        /* \"DeadMansSwitch.sol\":6959:6983  benefactors[_benefactor] */\n      dup2\n      and\n        /* \"DeadMansSwitch.sol\":6959:6970  benefactors */\n      0x00\n        /* \"DeadMansSwitch.sol\":6959:6983  benefactors[_benefactor] */\n      swap1\n      dup2\n      mstore\n      0x20\n      dup2\n      dup2\n      mstore\n      0x40\n      dup1\n      dup4\n      keccak256\n        /* \"DeadMansSwitch.sol\":6998:7008  msg.sender */\n      caller\n        /* \"DeadMansSwitch.sol\":6959:7009  benefactors[_benefactor].beneficiaries[msg.sender] */\n      dup5\n      mstore\n        /* \"DeadMansSwitch.sol\":6959:6997  benefactors[_benefactor].beneficiaries */\n      0x01\n      add\n        /* \"DeadMansSwitch.sol\":6959:7009  benefactors[_benefactor].beneficiaries[msg.sender] */\n      swap1\n      swap2\n      mstore\n      swap1\n      keccak256\n        /* \"DeadMansSwitch.sol\":6959:7016  benefactors[_benefactor].beneficiaries[msg.sender].exists */\n      sload\n      0xff\n      and\n        /* \"DeadMansSwitch.sol\":6951:7044  require(benefactors[_benefactor].beneficiaries[msg.sender].exists, \"Not a valid beneficiary\") */\n      tag_184\n      jumpi\n      mload(0x40)\n      shl(0xe5, 0x461bcd)\n      dup2\n      mstore\n        /* \"#utility.yul\":12757:12759   */\n      0x20\n        /* \"DeadMansSwitch.sol\":6951:7044  require(benefactors[_benefactor].beneficiaries[msg.sender].exists, \"Not a valid beneficiary\") */\n      0x04\n      dup3\n      add\n        /* \"#utility.yul\":12739:12760   */\n      mstore\n        /* \"#utility.yul\":12796:12798   */\n      0x17\n        /* \"#utility.yul\":12776:12794   */\n      0x24\n      dup3\n      add\n        /* \"#utility.yul\":12769:12799   */\n      mstore\n        /* \"#utility.yul\":12835:12860   */\n      0x4e6f7420612076616c69642062656e6566696369617279000000000000000000\n        /* \"#utility.yul\":12815:12833   */\n      0x44\n      dup3\n      add\n        /* \"#utility.yul\":12808:12861   */\n      mstore\n        /* \"#utility.yul\":12878:12896   */\n      0x64\n      add\n        /* \"DeadMansSwitch.sol\":6951:7044  require(benefactors[_benefactor].beneficiaries[msg.sender].exists, \"Not a valid beneficiary\") */\n      tag_83\n        /* \"#utility.yul\":12555:12902   */\n      jump\n        /* \"DeadMansSwitch.sol\":6951:7044  require(benefactors[_benefactor].beneficiaries[msg.sender].exists, \"Not a valid beneficiary\") */\n    tag_184:\n      sub(shl(0xa0, 0x01), 0x01)\n        /* \"DeadMansSwitch.sol\":7060:7084  benefactors[_benefactor] */\n      dup2\n      and\n        /* \"DeadMansSwitch.sol\":7060:7071  benefactors */\n      0x00\n        /* \"DeadMansSwitch.sol\":7060:7084  benefactors[_benefactor] */\n      swap1\n      dup2\n      mstore\n      0x20\n      dup2\n      swap1\n      mstore\n      0x40\n      swap1\n      keccak256\n        /* \"DeadMansSwitch.sol\":7060:7098  benefactors[_benefactor].isSwitchedOff */\n      0x04\n      add\n      sload\n      0xff\n      and\n        /* \"DeadMansSwitch.sol\":7055:7192  if (!benefactors[_benefactor].isSwitchedOff) {... */\n      tag_187\n      jumpi\n        /* \"DeadMansSwitch.sol\":7120:7159  SwitchAlreadyOn(_benefactor,msg.sender) */\n      mload(0x40)\n        /* \"DeadMansSwitch.sol\":7148:7158  msg.sender */\n      caller\n      swap1\n      sub(shl(0xa0, 0x01), 0x01)\n        /* \"DeadMansSwitch.sol\":7120:7159  SwitchAlreadyOn(_benefactor,msg.sender) */\n      dup4\n      and\n      swap1\n      0x67c4731bdc193862f421e091d18f46df876bfe1b8b9aa97504f1d50d425b239d\n      swap1\n      0x00\n      swap1\n      log3\n        /* \"DeadMansSwitch.sol\":6821:7607  function enableSwitch(address _benefactor) external {... */\n      pop\n      jump\t// out\n        /* \"DeadMansSwitch.sol\":7055:7192  if (!benefactors[_benefactor].isSwitchedOff) {... */\n    tag_187:\n      sub(shl(0xa0, 0x01), 0x01)\n        /* \"DeadMansSwitch.sol\":7202:7226  benefactors[_benefactor] */\n      dup2\n      and\n        /* \"DeadMansSwitch.sol\":7243:7248  false */\n      0x00\n        /* \"DeadMansSwitch.sol\":7202:7226  benefactors[_benefactor] */\n      dup2\n      dup2\n      mstore\n      0x20\n      dup2\n      dup2\n      mstore\n      0x40\n      swap2\n      dup3\n      swap1\n      keccak256\n        /* \"DeadMansSwitch.sol\":7202:7240  benefactors[_benefactor].isSwitchedOff */\n      0x04\n      dup2\n      add\n        /* \"DeadMansSwitch.sol\":7202:7248  benefactors[_benefactor].isSwitchedOff = false */\n      dup1\n      sload\n      not(0xff)\n      and\n      swap1\n      sstore\n        /* \"DeadMansSwitch.sol\":7358:7373  block.timestamp */\n      timestamp\n        /* \"DeadMansSwitch.sol\":7304:7355  benefactors[_benefactor].lastBenefactorResponseTime */\n      0x03\n      dup3\n      add\n        /* \"DeadMansSwitch.sol\":7304:7373  benefactors[_benefactor].lastBenefactorResponseTime = block.timestamp */\n      sstore\n        /* \"DeadMansSwitch.sol\":7556:7598  benefactors[_benefactor].countdownDuration */\n      0x02\n      add\n      sload\n        /* \"DeadMansSwitch.sol\":7510:7599  DeadMansSwitchEnabled(_benefactor,msg.sender, benefactors[_benefactor].countdownDuration) */\n      swap2\n      mload\n        /* \"#utility.yul\":552:577   */\n      swap2\n      dup3\n      mstore\n        /* \"DeadMansSwitch.sol\":7544:7554  msg.sender */\n      caller\n      swap3\n        /* \"DeadMansSwitch.sol\":7202:7226  benefactors[_benefactor] */\n      swap2\n        /* \"DeadMansSwitch.sol\":7510:7599  DeadMansSwitchEnabled(_benefactor,msg.sender, benefactors[_benefactor].countdownDuration) */\n      0x82595752291d0261dfb9b4b0c2307021c29c34e22fe0697b4840b529dc351bc3\n      swap2\n        /* \"#utility.yul\":525:543   */\n      add\n        /* \"DeadMansSwitch.sol\":7510:7599  DeadMansSwitchEnabled(_benefactor,msg.sender, benefactors[_benefactor].countdownDuration) */\n      mload(0x40)\n      dup1\n      swap2\n      sub\n      swap1\n      log3\n        /* \"DeadMansSwitch.sol\":6821:7607  function enableSwitch(address _benefactor) external {... */\n      pop\n      jump\t// out\n        /* \"DeadMansSwitch.sol\":2733:2965  function removeBenefactor(address _benefactor) public {... */\n    tag_59:\n        /* \"DeadMansSwitch.sol\":2818:2828  msg.sender */\n      caller\n        /* \"DeadMansSwitch.sol\":2806:2817  benefactors */\n      0x00\n        /* \"DeadMansSwitch.sol\":2806:2829  benefactors[msg.sender] */\n      swap1\n      dup2\n      mstore\n      0x20\n      dup2\n      swap1\n      mstore\n      0x40\n      swap1\n      keccak256\n        /* \"DeadMansSwitch.sol\":2806:2836  benefactors[msg.sender].exists */\n      sload\n      0xff\n      and\n        /* \"DeadMansSwitch.sol\":2798:2866  require(benefactors[msg.sender].exists, \"Benefactor not registered\") */\n      tag_190\n      jumpi\n      mload(0x40)\n      shl(0xe5, 0x461bcd)\n      dup2\n      mstore\n        /* \"#utility.yul\":13109:13111   */\n      0x20\n        /* \"DeadMansSwitch.sol\":2798:2866  require(benefactors[msg.sender].exists, \"Benefactor not registered\") */\n      0x04\n      dup3\n      add\n        /* \"#utility.yul\":13091:13112   */\n      mstore\n        /* \"#utility.yul\":13148:13150   */\n      0x19\n        /* \"#utility.yul\":13128:13146   */\n      0x24\n      dup3\n      add\n        /* \"#utility.yul\":13121:13151   */\n      mstore\n        /* \"#utility.yul\":13187:13214   */\n      0x42656e65666163746f72206e6f74207265676973746572656400000000000000\n        /* \"#utility.yul\":13167:13185   */\n      0x44\n      dup3\n      add\n        /* \"#utility.yul\":13160:13215   */\n      mstore\n        /* \"#utility.yul\":13232:13250   */\n      0x64\n      add\n        /* \"DeadMansSwitch.sol\":2798:2866  require(benefactors[msg.sender].exists, \"Benefactor not registered\") */\n      tag_83\n        /* \"#utility.yul\":12907:13256   */\n      jump\n        /* \"DeadMansSwitch.sol\":2798:2866  require(benefactors[msg.sender].exists, \"Benefactor not registered\") */\n    tag_190:\n        /* \"DeadMansSwitch.sol\":2889:2899  msg.sender */\n      caller\n        /* \"DeadMansSwitch.sol\":2910:2915  false */\n      0x00\n        /* \"DeadMansSwitch.sol\":2877:2900  benefactors[msg.sender] */\n      swap1\n      dup2\n      mstore\n      0x20\n      dup2\n      swap1\n      mstore\n      0x40\n      dup1\n      dup3\n      keccak256\n        /* \"DeadMansSwitch.sol\":2877:2915  benefactors[msg.sender].exists = false */\n      dup1\n      sload\n      not(0xff)\n      swap1\n      dup2\n      and\n      swap1\n      swap2\n      sstore\n      sub(shl(0xa0, 0x01), 0x01)\n        /* \"DeadMansSwitch.sol\":2933:2957  benefactors[_benefactor] */\n      swap4\n      swap1\n      swap4\n      and\n      dup3\n      mstore\n      dup2\n      keccak256\n        /* \"DeadMansSwitch.sol\":2926:2957  delete benefactors[_benefactor] */\n      dup1\n      sload\n      swap1\n      swap3\n      and\n      dup3\n      sstore\n      0x02\n      dup3\n      add\n      dup2\n      swap1\n      sstore\n      0x03\n      dup3\n      add\n      sstore\n      0x04\n      add\n      dup1\n      sload\n      not(0xffff)\n      and\n      swap1\n      sstore\n        /* \"DeadMansSwitch.sol\":2733:2965  function removeBenefactor(address _benefactor) public {... */\n      jump\t// out\n        /* \"DeadMansSwitch.sol\":9701:10447  function respondToSwitch() external onlyBenefactor {... */\n    tag_61:\n        /* \"DeadMansSwitch.sol\":1927:1937  msg.sender */\n      caller\n        /* \"DeadMansSwitch.sol\":1915:1926  benefactors */\n      0x00\n        /* \"DeadMansSwitch.sol\":1915:1938  benefactors[msg.sender] */\n      swap1\n      dup2\n      mstore\n      0x20\n      dup2\n      swap1\n      mstore\n      0x40\n      swap1\n      keccak256\n        /* \"DeadMansSwitch.sol\":1915:1945  benefactors[msg.sender].exists */\n      sload\n      0xff\n      and\n        /* \"DeadMansSwitch.sol\":1915:1980  benefactors[msg.sender].exists && benefactors[msg.sender].isAlive */\n      dup1\n      iszero\n      tag_194\n      jumpi\n      pop\n        /* \"DeadMansSwitch.sol\":1961:1971  msg.sender */\n      caller\n        /* \"DeadMansSwitch.sol\":1949:1960  benefactors */\n      0x00\n        /* \"DeadMansSwitch.sol\":1949:1972  benefactors[msg.sender] */\n      swap1\n      dup2\n      mstore\n      0x20\n      dup2\n      swap1\n      mstore\n      0x40\n      swap1\n      keccak256\n        /* \"DeadMansSwitch.sol\":1949:1980  benefactors[msg.sender].isAlive */\n      0x04\n      add\n      sload\n      0x0100\n      swap1\n      div\n      0xff\n      and\n        /* \"DeadMansSwitch.sol\":1915:1980  benefactors[msg.sender].exists && benefactors[msg.sender].isAlive */\n    tag_194:\n        /* \"DeadMansSwitch.sol\":1907:2007  require(benefactors[msg.sender].exists && benefactors[msg.sender].isAlive, \"Not a valid benefactor\") */\n      tag_195\n      jumpi\n      mload(0x40)\n      shl(0xe5, 0x461bcd)\n      dup2\n      mstore\n        /* \"#utility.yul\":5088:5090   */\n      0x20\n        /* \"DeadMansSwitch.sol\":1907:2007  require(benefactors[msg.sender].exists && benefactors[msg.sender].isAlive, \"Not a valid benefactor\") */\n      0x04\n      dup3\n      add\n        /* \"#utility.yul\":5070:5091   */\n      mstore\n        /* \"#utility.yul\":5127:5129   */\n      0x16\n        /* \"#utility.yul\":5107:5125   */\n      0x24\n      dup3\n      add\n        /* \"#utility.yul\":5100:5130   */\n      mstore\n      shl(0x51, 0x2737ba1030903b30b634b2103132b732b330b1ba37b9)\n        /* \"#utility.yul\":5146:5164   */\n      0x44\n      dup3\n      add\n        /* \"#utility.yul\":5139:5191   */\n      mstore\n        /* \"#utility.yul\":5208:5226   */\n      0x64\n      add\n        /* \"DeadMansSwitch.sol\":1907:2007  require(benefactors[msg.sender].exists && benefactors[msg.sender].isAlive, \"Not a valid benefactor\") */\n      tag_83\n        /* \"#utility.yul\":4886:5232   */\n      jump\n        /* \"DeadMansSwitch.sol\":1907:2007  require(benefactors[msg.sender].exists && benefactors[msg.sender].isAlive, \"Not a valid benefactor\") */\n    tag_195:\n        /* \"DeadMansSwitch.sol\":9779:9789  msg.sender */\n      caller\n        /* \"DeadMansSwitch.sol\":9767:9778  benefactors */\n      0x00\n        /* \"DeadMansSwitch.sol\":9767:9790  benefactors[msg.sender] */\n      swap1\n      dup2\n      mstore\n      0x20\n      dup2\n      swap1\n      mstore\n      0x40\n      swap1\n      keccak256\n        /* \"DeadMansSwitch.sol\":9767:9817  benefactors[msg.sender].lastBenefactorResponseTime */\n      0x03\n      add\n      sload\n        /* \"DeadMansSwitch.sol\":9767:9822  benefactors[msg.sender].lastBenefactorResponseTime != 0 */\n      iszero\n        /* \"DeadMansSwitch.sol\":9763:10440  if (benefactors[msg.sender].lastBenefactorResponseTime != 0) {... */\n      tag_198\n      jumpi\n        /* \"DeadMansSwitch.sol\":9843:9871  checkAliveStatus(msg.sender) */\n      tag_199\n        /* \"DeadMansSwitch.sol\":9860:9870  msg.sender */\n      caller\n        /* \"DeadMansSwitch.sol\":9843:9859  checkAliveStatus */\n      tag_27\n        /* \"DeadMansSwitch.sol\":9843:9871  checkAliveStatus(msg.sender) */\n      jump\t// in\n    tag_199:\n        /* \"DeadMansSwitch.sol\":9839:10227  if (checkAliveStatus(msg.sender)) {... */\n      iszero\n      tag_200\n      jumpi\n        /* \"DeadMansSwitch.sol\":9915:9925  msg.sender */\n      caller\n      sub(shl(0xa0, 0x01), 0x01)\n        /* \"DeadMansSwitch.sol\":9897:9948  BenefactorIsAlive(msg.sender,\"Benefactor is alive\") */\n      and\n      0x793324a6f079e577f4a4646c7ec753efd3beddc2f4ce07bfae5f105c449ac356\n      mload(0x40)\n      tag_201\n      swap1\n        /* \"#utility.yul\":13463:13465   */\n      0x20\n        /* \"#utility.yul\":13445:13466   */\n      dup1\n      dup3\n      mstore\n        /* \"#utility.yul\":13502:13504   */\n      0x13\n        /* \"#utility.yul\":13482:13500   */\n      swap1\n      dup3\n      add\n        /* \"#utility.yul\":13475:13505   */\n      mstore\n        /* \"#utility.yul\":13541:13562   */\n      0x42656e65666163746f7220697320616c69766500000000000000000000000000\n        /* \"#utility.yul\":13536:13538   */\n      0x40\n        /* \"#utility.yul\":13521:13539   */\n      dup3\n      add\n        /* \"#utility.yul\":13514:13563   */\n      mstore\n        /* \"#utility.yul\":13595:13597   */\n      0x60\n        /* \"#utility.yul\":13580:13598   */\n      add\n      swap1\n        /* \"#utility.yul\":13261:13604   */\n      jump\n        /* \"DeadMansSwitch.sol\":9897:9948  BenefactorIsAlive(msg.sender,\"Benefactor is alive\") */\n    tag_201:\n      mload(0x40)\n      dup1\n      swap2\n      sub\n      swap1\n      log2\n        /* \"DeadMansSwitch.sol\":9967:9982  disableSwitch() */\n      tag_203\n        /* \"DeadMansSwitch.sol\":9967:9980  disableSwitch */\n      tag_204\n        /* \"DeadMansSwitch.sol\":9967:9982  disableSwitch() */\n      jump\t// in\n    tag_203:\n        /* \"DeadMansSwitch.sol\":10013:10023  msg.sender */\n      caller\n        /* \"DeadMansSwitch.sol\":10001:10012  benefactors */\n      0x00\n        /* \"DeadMansSwitch.sol\":10001:10024  benefactors[msg.sender] */\n      swap1\n      dup2\n      mstore\n      0x20\n      dup2\n      swap1\n      mstore\n      0x40\n      swap1\n      keccak256\n        /* \"DeadMansSwitch.sol\":10054:10069  block.timestamp */\n      timestamp\n        /* \"DeadMansSwitch.sol\":10001:10051  benefactors[msg.sender].lastBenefactorResponseTime */\n      0x03\n      swap1\n      swap2\n      add\n        /* \"DeadMansSwitch.sol\":10001:10069  benefactors[msg.sender].lastBenefactorResponseTime = block.timestamp */\n      sstore\n        /* \"DeadMansSwitch.sol\":9701:10447  function respondToSwitch() external onlyBenefactor {... */\n      jump\t// out\n        /* \"DeadMansSwitch.sol\":9839:10227  if (checkAliveStatus(msg.sender)) {... */\n    tag_200:\n        /* \"DeadMansSwitch.sol\":10110:10138  removeBenefactor(msg.sender) */\n      tag_206\n        /* \"DeadMansSwitch.sol\":10127:10137  msg.sender */\n      caller\n        /* \"DeadMansSwitch.sol\":10110:10126  removeBenefactor */\n      tag_59\n        /* \"DeadMansSwitch.sol\":10110:10138  removeBenefactor(msg.sender) */\n      jump\t// in\n    tag_206:\n        /* \"DeadMansSwitch.sol\":10179:10189  msg.sender */\n      caller\n      sub(shl(0xa0, 0x01), 0x01)\n        /* \"DeadMansSwitch.sol\":10162:10211  BenefactorIsDead(msg.sender,\"Benefactor is dead\") */\n      and\n      0x5a68fa7d6b655a3e592d5d99ac82863424750e9d262c902f30f9e56655e7a856\n      mload(0x40)\n      tag_207\n      swap1\n        /* \"#utility.yul\":13811:13813   */\n      0x20\n        /* \"#utility.yul\":13793:13814   */\n      dup1\n      dup3\n      mstore\n        /* \"#utility.yul\":13850:13852   */\n      0x12\n        /* \"#utility.yul\":13830:13848   */\n      swap1\n      dup3\n      add\n        /* \"#utility.yul\":13823:13853   */\n      mstore\n        /* \"#utility.yul\":13889:13909   */\n      0x42656e65666163746f7220697320646561640000000000000000000000000000\n        /* \"#utility.yul\":13884:13886   */\n      0x40\n        /* \"#utility.yul\":13869:13887   */\n      dup3\n      add\n        /* \"#utility.yul\":13862:13910   */\n      mstore\n        /* \"#utility.yul\":13942:13944   */\n      0x60\n        /* \"#utility.yul\":13927:13945   */\n      add\n      swap1\n        /* \"#utility.yul\":13609:13951   */\n      jump\n        /* \"DeadMansSwitch.sol\":10162:10211  BenefactorIsDead(msg.sender,\"Benefactor is dead\") */\n    tag_207:\n      mload(0x40)\n      dup1\n      swap2\n      sub\n      swap1\n      log2\n        /* \"DeadMansSwitch.sol\":9701:10447  function respondToSwitch() external onlyBenefactor {... */\n      jump\t// out\n        /* \"DeadMansSwitch.sol\":9763:10440  if (benefactors[msg.sender].lastBenefactorResponseTime != 0) {... */\n    tag_198:\n        /* \"DeadMansSwitch.sol\":10282:10292  msg.sender */\n      caller\n      sub(shl(0xa0, 0x01), 0x01)\n        /* \"DeadMansSwitch.sol\":10264:10315  BenefactorIsAlive(msg.sender,\"Benefactor is alive\") */\n      and\n      0x793324a6f079e577f4a4646c7ec753efd3beddc2f4ce07bfae5f105c449ac356\n      mload(0x40)\n      tag_201\n      swap1\n        /* \"#utility.yul\":13463:13465   */\n      0x20\n        /* \"#utility.yul\":13445:13466   */\n      dup1\n      dup3\n      mstore\n        /* \"#utility.yul\":13502:13504   */\n      0x13\n        /* \"#utility.yul\":13482:13500   */\n      swap1\n      dup3\n      add\n        /* \"#utility.yul\":13475:13505   */\n      mstore\n        /* \"#utility.yul\":13541:13562   */\n      0x42656e65666163746f7220697320616c69766500000000000000000000000000\n        /* \"#utility.yul\":13536:13538   */\n      0x40\n        /* \"#utility.yul\":13521:13539   */\n      dup3\n      add\n        /* \"#utility.yul\":13514:13563   */\n      mstore\n        /* \"#utility.yul\":13595:13597   */\n      0x60\n        /* \"#utility.yul\":13580:13598   */\n      add\n      swap1\n        /* \"#utility.yul\":13261:13604   */\n      jump\n        /* \"DeadMansSwitch.sol\":10637:11046  function getCIDs(address _benefactor, address _beneficiary) public view returns (string[] memory){... */\n    tag_64:\n        /* \"DeadMansSwitch.sol\":10718:10733  string[] memory */\n      0x60\n        /* \"DeadMansSwitch.sol\":10753:10792  isBeneficiary(_benefactor,_beneficiary) */\n      tag_213\n        /* \"DeadMansSwitch.sol\":10767:10778  _benefactor */\n      dup4\n        /* \"DeadMansSwitch.sol\":10779:10791  _beneficiary */\n      dup4\n        /* \"DeadMansSwitch.sol\":10753:10766  isBeneficiary */\n      tag_37\n        /* \"DeadMansSwitch.sol\":10753:10792  isBeneficiary(_benefactor,_beneficiary) */\n      jump\t// in\n    tag_213:\n        /* \"DeadMansSwitch.sol\":10745:10817  require(isBeneficiary(_benefactor,_beneficiary),\"Beneficiary not found\") */\n      tag_214\n      jumpi\n      mload(0x40)\n      shl(0xe5, 0x461bcd)\n      dup2\n      mstore\n        /* \"#utility.yul\":5439:5441   */\n      0x20\n        /* \"DeadMansSwitch.sol\":10745:10817  require(isBeneficiary(_benefactor,_beneficiary),\"Beneficiary not found\") */\n      0x04\n      dup3\n      add\n        /* \"#utility.yul\":5421:5442   */\n      mstore\n        /* \"#utility.yul\":5478:5480   */\n      0x15\n        /* \"#utility.yul\":5458:5476   */\n      0x24\n      dup3\n      add\n        /* \"#utility.yul\":5451:5481   */\n      mstore\n      shl(0x5a, 0x10995b99599a58da585c9e481b9bdd08199bdd5b99)\n        /* \"#utility.yul\":5497:5515   */\n      0x44\n      dup3\n      add\n        /* \"#utility.yul\":5490:5541   */\n      mstore\n        /* \"#utility.yul\":5558:5576   */\n      0x64\n      add\n        /* \"DeadMansSwitch.sol\":10745:10817  require(isBeneficiary(_benefactor,_beneficiary),\"Beneficiary not found\") */\n      tag_83\n        /* \"#utility.yul\":5237:5582   */\n      jump\n        /* \"DeadMansSwitch.sol\":10745:10817  require(isBeneficiary(_benefactor,_beneficiary),\"Beneficiary not found\") */\n    tag_214:\n      sub(shl(0xa0, 0x01), 0x01)\n        /* \"DeadMansSwitch.sol\":10836:10860  benefactors[_benefactor] */\n      dup4\n      and\n        /* \"DeadMansSwitch.sol\":10836:10847  benefactors */\n      0x00\n        /* \"DeadMansSwitch.sol\":10836:10860  benefactors[_benefactor] */\n      swap1\n      dup2\n      mstore\n      0x20\n      dup2\n      dup2\n      mstore\n      0x40\n      dup1\n      dup4\n      keccak256\n        /* \"DeadMansSwitch.sol\":10875:10885  msg.sender */\n      caller\n        /* \"DeadMansSwitch.sol\":10836:10886  benefactors[_benefactor].beneficiaries[msg.sender] */\n      dup5\n      mstore\n        /* \"DeadMansSwitch.sol\":10836:10874  benefactors[_benefactor].beneficiaries */\n      0x01\n      add\n        /* \"DeadMansSwitch.sol\":10836:10886  benefactors[_benefactor].beneficiaries[msg.sender] */\n      swap1\n      swap2\n      mstore\n      swap1\n      keccak256\n        /* \"DeadMansSwitch.sol\":10836:10893  benefactors[_benefactor].beneficiaries[msg.sender].exists */\n      sload\n      0xff\n      and\n        /* \"DeadMansSwitch.sol\":10836:10938  benefactors[_benefactor].beneficiaries[msg.sender].exists && benefactors[_benefactor].isAlive == false */\n      dup1\n      iszero\n      tag_216\n      jumpi\n      pop\n      sub(shl(0xa0, 0x01), 0x01)\n        /* \"DeadMansSwitch.sol\":10897:10921  benefactors[_benefactor] */\n      dup4\n      and\n        /* \"DeadMansSwitch.sol\":10897:10908  benefactors */\n      0x00\n        /* \"DeadMansSwitch.sol\":10897:10921  benefactors[_benefactor] */\n      swap1\n      dup2\n      mstore\n      0x20\n      dup2\n      swap1\n      mstore\n      0x40\n      swap1\n      keccak256\n        /* \"DeadMansSwitch.sol\":10897:10929  benefactors[_benefactor].isAlive */\n      0x04\n      add\n      sload\n      0x0100\n      swap1\n      div\n      0xff\n      and\n        /* \"DeadMansSwitch.sol\":10897:10938  benefactors[_benefactor].isAlive == false */\n      iszero\n        /* \"DeadMansSwitch.sol\":10836:10938  benefactors[_benefactor].beneficiaries[msg.sender].exists && benefactors[_benefactor].isAlive == false */\n    tag_216:\n        /* \"DeadMansSwitch.sol\":10828:10959  require(benefactors[_benefactor].beneficiaries[msg.sender].exists && benefactors[_benefactor].isAlive == false,\"No access to CIDs\") */\n      tag_217\n      jumpi\n      mload(0x40)\n      shl(0xe5, 0x461bcd)\n      dup2\n      mstore\n        /* \"#utility.yul\":14158:14160   */\n      0x20\n        /* \"DeadMansSwitch.sol\":10828:10959  require(benefactors[_benefactor].beneficiaries[msg.sender].exists && benefactors[_benefactor].isAlive == false,\"No access to CIDs\") */\n      0x04\n      dup3\n      add\n        /* \"#utility.yul\":14140:14161   */\n      mstore\n        /* \"#utility.yul\":14197:14199   */\n      0x11\n        /* \"#utility.yul\":14177:14195   */\n      0x24\n      dup3\n      add\n        /* \"#utility.yul\":14170:14200   */\n      mstore\n        /* \"#utility.yul\":14236:14255   */\n      0x4e6f2061636365737320746f2043494473000000000000000000000000000000\n        /* \"#utility.yul\":14216:14234   */\n      0x44\n      dup3\n      add\n        /* \"#utility.yul\":14209:14256   */\n      mstore\n        /* \"#utility.yul\":14273:14291   */\n      0x64\n      add\n        /* \"DeadMansSwitch.sol\":10828:10959  require(benefactors[_benefactor].beneficiaries[msg.sender].exists && benefactors[_benefactor].isAlive == false,\"No access to CIDs\") */\n      tag_83\n        /* \"#utility.yul\":13956:14297   */\n      jump\n        /* \"DeadMansSwitch.sol\":10828:10959  require(benefactors[_benefactor].beneficiaries[msg.sender].exists && benefactors[_benefactor].isAlive == false,\"No access to CIDs\") */\n    tag_217:\n      sub(shl(0xa0, 0x01), 0x01)\n        /* \"DeadMansSwitch.sol\":10977:11001  benefactors[_benefactor] */\n      dup1\n      dup5\n      and\n        /* \"DeadMansSwitch.sol\":10977:10988  benefactors */\n      0x00\n        /* \"DeadMansSwitch.sol\":10977:11001  benefactors[_benefactor] */\n      swap1\n      dup2\n      mstore\n      0x20\n      dup2\n      dup2\n      mstore\n      0x40\n      dup1\n      dup4\n      keccak256\n        /* \"DeadMansSwitch.sol\":10977:11029  benefactors[_benefactor].beneficiaries[_beneficiary] */\n      swap4\n      dup7\n      and\n      dup4\n      mstore\n        /* \"DeadMansSwitch.sol\":10977:11015  benefactors[_benefactor].beneficiaries */\n      0x01\n      swap4\n      dup5\n      add\n        /* \"DeadMansSwitch.sol\":10977:11029  benefactors[_benefactor].beneficiaries[_beneficiary] */\n      dup3\n      mstore\n      dup1\n      dup4\n      keccak256\n        /* \"DeadMansSwitch.sol\":10977:11038  benefactors[_benefactor].beneficiaries[_beneficiary].ipfsCIDs */\n      swap1\n      swap4\n      add\n        /* \"DeadMansSwitch.sol\":10970:11038  return benefactors[_benefactor].beneficiaries[_beneficiary].ipfsCIDs */\n      dup1\n      sload\n      dup5\n      mload\n      dup2\n      dup5\n      mul\n      dup2\n      add\n      dup5\n      add\n      swap1\n      swap6\n      mstore\n      dup1\n      dup6\n      mstore\n        /* \"DeadMansSwitch.sol\":10977:11038  benefactors[_benefactor].beneficiaries[_beneficiary].ipfsCIDs */\n      swap1\n      swap3\n        /* \"DeadMansSwitch.sol\":10970:11038  return benefactors[_benefactor].beneficiaries[_beneficiary].ipfsCIDs */\n      swap1\n      swap2\n      dup5\n      add\n    tag_220:\n      dup3\n      dup3\n      lt\n      iszero\n      tag_221\n      jumpi\n      dup4\n      dup3\n      swap1\n      0x00\n      mstore\n      keccak256(0x00, 0x20)\n      add\n      dup1\n      sload\n      tag_223\n      swap1\n      tag_224\n      jump\t// in\n    tag_223:\n      dup1\n      0x1f\n      add\n      0x20\n      dup1\n      swap2\n      div\n      mul\n      0x20\n      add\n      mload(0x40)\n      swap1\n      dup2\n      add\n      0x40\n      mstore\n      dup1\n      swap3\n      swap2\n      swap1\n      dup2\n      dup2\n      mstore\n      0x20\n      add\n      dup3\n      dup1\n      sload\n      tag_225\n      swap1\n      tag_224\n      jump\t// in\n    tag_225:\n      dup1\n      iszero\n      tag_226\n      jumpi\n      dup1\n      0x1f\n      lt\n      tag_227\n      jumpi\n      0x0100\n      dup1\n      dup4\n      sload\n      div\n      mul\n      dup4\n      mstore\n      swap2\n      0x20\n      add\n      swap2\n      jump(tag_226)\n    tag_227:\n      dup3\n      add\n      swap2\n      swap1\n      0x00\n      mstore\n      keccak256(0x00, 0x20)\n      swap1\n    tag_228:\n      dup2\n      sload\n      dup2\n      mstore\n      swap1\n      0x01\n      add\n      swap1\n      0x20\n      add\n      dup1\n      dup4\n      gt\n      tag_228\n      jumpi\n      dup3\n      swap1\n      sub\n      0x1f\n      and\n      dup3\n      add\n      swap2\n    tag_226:\n      pop\n      pop\n      pop\n      pop\n      pop\n      dup2\n      mstore\n      0x20\n      add\n      swap1\n      0x01\n      add\n      swap1\n      jump(tag_220)\n    tag_221:\n      pop\n      pop\n      pop\n      pop\n      swap1\n      pop\n        /* \"DeadMansSwitch.sol\":10637:11046  function getCIDs(address _benefactor, address _beneficiary) public view returns (string[] memory){... */\n      swap3\n      swap2\n      pop\n      pop\n      jump\t// out\n        /* \"DeadMansSwitch.sol\":9208:9543  function disableSwitch() internal onlyBenefactor {... */\n    tag_204:\n        /* \"DeadMansSwitch.sol\":1927:1937  msg.sender */\n      caller\n        /* \"DeadMansSwitch.sol\":1915:1926  benefactors */\n      0x00\n        /* \"DeadMansSwitch.sol\":1915:1938  benefactors[msg.sender] */\n      swap1\n      dup2\n      mstore\n      0x20\n      dup2\n      swap1\n      mstore\n      0x40\n      swap1\n      keccak256\n        /* \"DeadMansSwitch.sol\":1915:1945  benefactors[msg.sender].exists */\n      sload\n      0xff\n      and\n        /* \"DeadMansSwitch.sol\":1915:1980  benefactors[msg.sender].exists && benefactors[msg.sender].isAlive */\n      dup1\n      iszero\n      tag_230\n      jumpi\n      pop\n        /* \"DeadMansSwitch.sol\":1961:1971  msg.sender */\n      caller\n        /* \"DeadMansSwitch.sol\":1949:1960  benefactors */\n      0x00\n        /* \"DeadMansSwitch.sol\":1949:1972  benefactors[msg.sender] */\n      swap1\n      dup2\n      mstore\n      0x20\n      dup2\n      swap1\n      mstore\n      0x40\n      swap1\n      keccak256\n        /* \"DeadMansSwitch.sol\":1949:1980  benefactors[msg.sender].isAlive */\n      0x04\n      add\n      sload\n      0x0100\n      swap1\n      div\n      0xff\n      and\n        /* \"DeadMansSwitch.sol\":1915:1980  benefactors[msg.sender].exists && benefactors[msg.sender].isAlive */\n    tag_230:\n        /* \"DeadMansSwitch.sol\":1907:2007  require(benefactors[msg.sender].exists && benefactors[msg.sender].isAlive, \"Not a valid benefactor\") */\n      tag_231\n      jumpi\n      mload(0x40)\n      shl(0xe5, 0x461bcd)\n      dup2\n      mstore\n        /* \"#utility.yul\":5088:5090   */\n      0x20\n        /* \"DeadMansSwitch.sol\":1907:2007  require(benefactors[msg.sender].exists && benefactors[msg.sender].isAlive, \"Not a valid benefactor\") */\n      0x04\n      dup3\n      add\n        /* \"#utility.yul\":5070:5091   */\n      mstore\n        /* \"#utility.yul\":5127:5129   */\n      0x16\n        /* \"#utility.yul\":5107:5125   */\n      0x24\n      dup3\n      add\n        /* \"#utility.yul\":5100:5130   */\n      mstore\n      shl(0x51, 0x2737ba1030903b30b634b2103132b732b330b1ba37b9)\n        /* \"#utility.yul\":5146:5164   */\n      0x44\n      dup3\n      add\n        /* \"#utility.yul\":5139:5191   */\n      mstore\n        /* \"#utility.yul\":5208:5226   */\n      0x64\n      add\n        /* \"DeadMansSwitch.sol\":1907:2007  require(benefactors[msg.sender].exists && benefactors[msg.sender].isAlive, \"Not a valid benefactor\") */\n      tag_83\n        /* \"#utility.yul\":4886:5232   */\n      jump\n        /* \"DeadMansSwitch.sol\":1907:2007  require(benefactors[msg.sender].exists && benefactors[msg.sender].isAlive, \"Not a valid benefactor\") */\n    tag_231:\n        /* \"DeadMansSwitch.sol\":9284:9294  msg.sender */\n      caller\n        /* \"DeadMansSwitch.sol\":9272:9283  benefactors */\n      0x00\n        /* \"DeadMansSwitch.sol\":9272:9295  benefactors[msg.sender] */\n      swap1\n      dup2\n      mstore\n      0x20\n      dup2\n      swap1\n      mstore\n      0x40\n      swap1\n      keccak256\n        /* \"DeadMansSwitch.sol\":9272:9309  benefactors[msg.sender].isSwitchedOff */\n      0x04\n      add\n      sload\n      0xff\n      and\n        /* \"DeadMansSwitch.sol\":9268:9403  if (benefactors[msg.sender].isSwitchedOff) {... */\n      iszero\n      tag_234\n      jumpi\n        /* \"DeadMansSwitch.sol\":9331:9370  SwitchAlreadyOff(msg.sender,msg.sender) */\n      mload(0x40)\n        /* \"DeadMansSwitch.sol\":9359:9369  msg.sender */\n      caller\n      swap1\n      dup2\n      swap1\n        /* \"DeadMansSwitch.sol\":9331:9370  SwitchAlreadyOff(msg.sender,msg.sender) */\n      0x439c5aaf7691cb4808dbd2a240323ce9ec0d04d66ddf65ffd5f88ebd60fa745b\n      swap1\n      0x00\n      swap1\n      log3\n        /* \"DeadMansSwitch.sol\":9701:10447  function respondToSwitch() external onlyBenefactor {... */\n      jump\t// out\n        /* \"DeadMansSwitch.sol\":9268:9403  if (benefactors[msg.sender].isSwitchedOff) {... */\n    tag_234:\n        /* \"DeadMansSwitch.sol\":9425:9435  msg.sender */\n      caller\n        /* \"DeadMansSwitch.sol\":9413:9424  benefactors */\n      0x00\n        /* \"DeadMansSwitch.sol\":9413:9436  benefactors[msg.sender] */\n      dup2\n      dup2\n      mstore\n      0x20\n      dup2\n      swap1\n      mstore\n      0x40\n      swap1\n      dup2\n      swap1\n      keccak256\n        /* \"DeadMansSwitch.sol\":9413:9450  benefactors[msg.sender].isSwitchedOff */\n      0x04\n      add\n        /* \"DeadMansSwitch.sol\":9413:9457  benefactors[msg.sender].isSwitchedOff = true */\n      dup1\n      sload\n      not(0xff)\n      and\n        /* \"DeadMansSwitch.sol\":9453:9457  true */\n      0x01\n        /* \"DeadMansSwitch.sol\":9413:9457  benefactors[msg.sender].isSwitchedOff = true */\n      or\n      swap1\n      sstore\n        /* \"DeadMansSwitch.sol\":9473:9535  DeadMansSwitchDisabled(msg.sender,msg.sender, block.timestamp) */\n      mload\n        /* \"DeadMansSwitch.sol\":9425:9435  msg.sender */\n      dup2\n      swap1\n        /* \"DeadMansSwitch.sol\":9473:9535  DeadMansSwitchDisabled(msg.sender,msg.sender, block.timestamp) */\n      0x9baa855d20de9b1a4db454f55b09d1db5f42f0871bbea3b0c699146ade171625\n      swap1\n      tag_235\n      swap1\n        /* \"DeadMansSwitch.sol\":9519:9534  block.timestamp */\n      timestamp\n        /* \"#utility.yul\":552:577   */\n      dup2\n      mstore\n        /* \"#utility.yul\":540:542   */\n      0x20\n        /* \"#utility.yul\":525:543   */\n      add\n      swap1\n        /* \"#utility.yul\":406:583   */\n      jump\n        /* \"DeadMansSwitch.sol\":9473:9535  DeadMansSwitchDisabled(msg.sender,msg.sender, block.timestamp) */\n    tag_235:\n      mload(0x40)\n      dup1\n      swap2\n      sub\n      swap1\n      log3\n        /* \"DeadMansSwitch.sol\":9208:9543  function disableSwitch() internal onlyBenefactor {... */\n      jump\t// out\n    tag_136:\n      dup3\n      dup1\n      sload\n      dup3\n      dup3\n      sstore\n      swap1\n      0x00\n      mstore\n      keccak256(0x00, 0x20)\n      swap1\n      dup2\n      add\n      swap3\n      dup3\n      iszero\n      tag_238\n      jumpi\n      swap2\n      0x20\n      mul\n      dup3\n      add\n    tag_237:\n      dup3\n      dup2\n      gt\n      iszero\n      tag_238\n      jumpi\n      dup3\n      mload\n      dup3\n      swap1\n      tag_239\n      swap1\n      dup3\n      tag_118\n      jump\t// in\n    tag_239:\n      pop\n      swap2\n      0x20\n      add\n      swap2\n      swap1\n      0x01\n      add\n      swap1\n      jump(tag_237)\n    tag_238:\n      pop\n      tag_240\n      swap3\n      swap2\n      pop\n      tag_241\n      jump\t// in\n    tag_240:\n      pop\n      swap1\n      jump\t// out\n    tag_146:\n      pop\n      dup1\n      sload\n      0x00\n      dup3\n      sstore\n      swap1\n      0x00\n      mstore\n      keccak256(0x00, 0x20)\n      swap1\n      dup2\n      add\n      swap1\n      tag_243\n      swap2\n      swap1\n      tag_241\n      jump\t// in\n    tag_243:\n      pop\n      jump\t// out\n    tag_178:\n      pop\n      dup1\n      sload\n      tag_244\n      swap1\n      tag_224\n      jump\t// in\n    tag_244:\n      0x00\n      dup3\n      sstore\n      dup1\n      0x1f\n      lt\n      tag_246\n      jumpi\n      pop\n      pop\n      jump\t// out\n    tag_246:\n      0x1f\n      add\n      0x20\n      swap1\n      div\n      swap1\n      0x00\n      mstore\n      keccak256(0x00, 0x20)\n      swap1\n      dup2\n      add\n      swap1\n      tag_243\n      swap2\n      swap1\n      tag_248\n      jump\t// in\n    tag_241:\n      dup1\n      dup3\n      gt\n      iszero\n      tag_240\n      jumpi\n      0x00\n      tag_251\n      dup3\n      dup3\n      tag_178\n      jump\t// in\n    tag_251:\n      pop\n      0x01\n      add\n      jump(tag_241)\n    tag_248:\n    tag_252:\n      dup1\n      dup3\n      gt\n      iszero\n      tag_240\n      jumpi\n      0x00\n      dup2\n      sstore\n      0x01\n      add\n      jump(tag_252)\n        /* \"#utility.yul\":14:210   */\n    tag_254:\n        /* \"#utility.yul\":82:102   */\n      dup1\n      calldataload\n      sub(shl(0xa0, 0x01), 0x01)\n        /* \"#utility.yul\":131:185   */\n      dup2\n      and\n        /* \"#utility.yul\":121:186   */\n      dup2\n      eq\n        /* \"#utility.yul\":111:204   */\n      tag_263\n      jumpi\n        /* \"#utility.yul\":200:201   */\n      0x00\n        /* \"#utility.yul\":197:198   */\n      dup1\n        /* \"#utility.yul\":190:202   */\n      revert\n        /* \"#utility.yul\":111:204   */\n    tag_263:\n        /* \"#utility.yul\":14:210   */\n      swap2\n      swap1\n      pop\n      jump\t// out\n        /* \"#utility.yul\":215:401   */\n    tag_21:\n        /* \"#utility.yul\":274:280   */\n      0x00\n        /* \"#utility.yul\":327:329   */\n      0x20\n        /* \"#utility.yul\":315:324   */\n      dup3\n        /* \"#utility.yul\":306:313   */\n      dup5\n        /* \"#utility.yul\":302:325   */\n      sub\n        /* \"#utility.yul\":298:330   */\n      slt\n        /* \"#utility.yul\":295:347   */\n      iszero\n      tag_265\n      jumpi\n        /* \"#utility.yul\":343:344   */\n      0x00\n        /* \"#utility.yul\":340:341   */\n      dup1\n        /* \"#utility.yul\":333:345   */\n      revert\n        /* \"#utility.yul\":295:347   */\n    tag_265:\n        /* \"#utility.yul\":366:395   */\n      tag_74\n        /* \"#utility.yul\":385:394   */\n      dup3\n        /* \"#utility.yul\":366:395   */\n      tag_254\n      jump\t// in\n        /* \"#utility.yul\":780:1040   */\n    tag_36:\n        /* \"#utility.yul\":848:854   */\n      0x00\n        /* \"#utility.yul\":856:862   */\n      dup1\n        /* \"#utility.yul\":909:911   */\n      0x40\n        /* \"#utility.yul\":897:906   */\n      dup4\n        /* \"#utility.yul\":888:895   */\n      dup6\n        /* \"#utility.yul\":884:907   */\n      sub\n        /* \"#utility.yul\":880:912   */\n      slt\n        /* \"#utility.yul\":877:929   */\n      iszero\n      tag_270\n      jumpi\n        /* \"#utility.yul\":925:926   */\n      0x00\n        /* \"#utility.yul\":922:923   */\n      dup1\n        /* \"#utility.yul\":915:927   */\n      revert\n        /* \"#utility.yul\":877:929   */\n    tag_270:\n        /* \"#utility.yul\":948:977   */\n      tag_271\n        /* \"#utility.yul\":967:976   */\n      dup4\n        /* \"#utility.yul\":948:977   */\n      tag_254\n      jump\t// in\n    tag_271:\n        /* \"#utility.yul\":938:977   */\n      swap2\n      pop\n        /* \"#utility.yul\":996:1034   */\n      tag_272\n        /* \"#utility.yul\":1030:1032   */\n      0x20\n        /* \"#utility.yul\":1019:1028   */\n      dup5\n        /* \"#utility.yul\":1015:1033   */\n      add\n        /* \"#utility.yul\":996:1034   */\n      tag_254\n      jump\t// in\n    tag_272:\n        /* \"#utility.yul\":986:1034   */\n      swap1\n      pop\n        /* \"#utility.yul\":780:1040   */\n      swap3\n      pop\n      swap3\n      swap1\n      pop\n      jump\t// out\n        /* \"#utility.yul\":1045:1172   */\n    tag_132:\n        /* \"#utility.yul\":1106:1116   */\n      0x4e487b71\n        /* \"#utility.yul\":1101:1104   */\n      0xe0\n        /* \"#utility.yul\":1097:1117   */\n      shl\n        /* \"#utility.yul\":1094:1095   */\n      0x00\n        /* \"#utility.yul\":1087:1118   */\n      mstore\n        /* \"#utility.yul\":1137:1141   */\n      0x41\n        /* \"#utility.yul\":1134:1135   */\n      0x04\n        /* \"#utility.yul\":1127:1142   */\n      mstore\n        /* \"#utility.yul\":1161:1165   */\n      0x24\n        /* \"#utility.yul\":1158:1159   */\n      0x00\n        /* \"#utility.yul\":1151:1166   */\n      revert\n        /* \"#utility.yul\":1177:2173   */\n    tag_43:\n        /* \"#utility.yul\":1255:1261   */\n      0x00\n        /* \"#utility.yul\":1263:1269   */\n      dup1\n        /* \"#utility.yul\":1316:1318   */\n      0x40\n        /* \"#utility.yul\":1304:1313   */\n      dup4\n        /* \"#utility.yul\":1295:1302   */\n      dup6\n        /* \"#utility.yul\":1291:1314   */\n      sub\n        /* \"#utility.yul\":1287:1319   */\n      slt\n        /* \"#utility.yul\":1284:1336   */\n      iszero\n      tag_275\n      jumpi\n        /* \"#utility.yul\":1332:1333   */\n      0x00\n        /* \"#utility.yul\":1329:1330   */\n      dup1\n        /* \"#utility.yul\":1322:1334   */\n      revert\n        /* \"#utility.yul\":1284:1336   */\n    tag_275:\n        /* \"#utility.yul\":1355:1384   */\n      tag_276\n        /* \"#utility.yul\":1374:1383   */\n      dup4\n        /* \"#utility.yul\":1355:1384   */\n      tag_254\n      jump\t// in\n    tag_276:\n        /* \"#utility.yul\":1345:1384   */\n      swap2\n      pop\n        /* \"#utility.yul\":1435:1437   */\n      0x20\n        /* \"#utility.yul\":1424:1433   */\n      dup4\n        /* \"#utility.yul\":1420:1438   */\n      add\n        /* \"#utility.yul\":1407:1439   */\n      calldataload\n        /* \"#utility.yul\":1458:1476   */\n      0xffffffffffffffff\n        /* \"#utility.yul\":1499:1501   */\n      dup1\n        /* \"#utility.yul\":1491:1497   */\n      dup3\n        /* \"#utility.yul\":1488:1502   */\n      gt\n        /* \"#utility.yul\":1485:1519   */\n      iszero\n      tag_277\n      jumpi\n        /* \"#utility.yul\":1515:1516   */\n      0x00\n        /* \"#utility.yul\":1512:1513   */\n      dup1\n        /* \"#utility.yul\":1505:1517   */\n      revert\n        /* \"#utility.yul\":1485:1519   */\n    tag_277:\n        /* \"#utility.yul\":1553:1559   */\n      dup2\n        /* \"#utility.yul\":1542:1551   */\n      dup6\n        /* \"#utility.yul\":1538:1560   */\n      add\n        /* \"#utility.yul\":1528:1560   */\n      swap2\n      pop\n        /* \"#utility.yul\":1598:1605   */\n      dup6\n        /* \"#utility.yul\":1591:1595   */\n      0x1f\n        /* \"#utility.yul\":1587:1589   */\n      dup4\n        /* \"#utility.yul\":1583:1596   */\n      add\n        /* \"#utility.yul\":1579:1606   */\n      slt\n        /* \"#utility.yul\":1569:1624   */\n      tag_278\n      jumpi\n        /* \"#utility.yul\":1620:1621   */\n      0x00\n        /* \"#utility.yul\":1617:1618   */\n      dup1\n        /* \"#utility.yul\":1610:1622   */\n      revert\n        /* \"#utility.yul\":1569:1624   */\n    tag_278:\n        /* \"#utility.yul\":1656:1658   */\n      dup2\n        /* \"#utility.yul\":1643:1659   */\n      calldataload\n        /* \"#utility.yul\":1678:1680   */\n      dup2\n        /* \"#utility.yul\":1674:1676   */\n      dup2\n        /* \"#utility.yul\":1671:1681   */\n      gt\n        /* \"#utility.yul\":1668:1704   */\n      iszero\n      tag_280\n      jumpi\n        /* \"#utility.yul\":1684:1702   */\n      tag_280\n      tag_132\n      jump\t// in\n    tag_280:\n        /* \"#utility.yul\":1759:1761   */\n      0x40\n        /* \"#utility.yul\":1753:1762   */\n      mload\n        /* \"#utility.yul\":1727:1729   */\n      0x1f\n        /* \"#utility.yul\":1813:1826   */\n      dup3\n      add\n      not(0x1f)\n        /* \"#utility.yul\":1809:1831   */\n      swap1\n      dup2\n      and\n        /* \"#utility.yul\":1833:1835   */\n      0x3f\n        /* \"#utility.yul\":1805:1836   */\n      add\n        /* \"#utility.yul\":1801:1841   */\n      and\n        /* \"#utility.yul\":1789:1842   */\n      dup2\n      add\n      swap1\n        /* \"#utility.yul\":1857:1875   */\n      dup4\n      dup3\n      gt\n        /* \"#utility.yul\":1877:1899   */\n      dup2\n      dup4\n      lt\n        /* \"#utility.yul\":1854:1900   */\n      or\n        /* \"#utility.yul\":1851:1923   */\n      iszero\n      tag_282\n      jumpi\n        /* \"#utility.yul\":1903:1921   */\n      tag_282\n      tag_132\n      jump\t// in\n    tag_282:\n        /* \"#utility.yul\":1943:1953   */\n      dup2\n        /* \"#utility.yul\":1939:1941   */\n      0x40\n        /* \"#utility.yul\":1932:1954   */\n      mstore\n        /* \"#utility.yul\":1978:1980   */\n      dup3\n        /* \"#utility.yul\":1970:1976   */\n      dup2\n        /* \"#utility.yul\":1963:1981   */\n      mstore\n        /* \"#utility.yul\":2018:2025   */\n      dup9\n        /* \"#utility.yul\":2013:2015   */\n      0x20\n        /* \"#utility.yul\":2008:2010   */\n      dup5\n        /* \"#utility.yul\":2004:2006   */\n      dup8\n        /* \"#utility.yul\":2000:2011   */\n      add\n        /* \"#utility.yul\":1996:2016   */\n      add\n        /* \"#utility.yul\":1993:2026   */\n      gt\n        /* \"#utility.yul\":1990:2043   */\n      iszero\n      tag_283\n      jumpi\n        /* \"#utility.yul\":2039:2040   */\n      0x00\n        /* \"#utility.yul\":2036:2037   */\n      dup1\n        /* \"#utility.yul\":2029:2041   */\n      revert\n        /* \"#utility.yul\":1990:2043   */\n    tag_283:\n        /* \"#utility.yul\":2095:2097   */\n      dup3\n        /* \"#utility.yul\":2090:2092   */\n      0x20\n        /* \"#utility.yul\":2086:2088   */\n      dup7\n        /* \"#utility.yul\":2082:2093   */\n      add\n        /* \"#utility.yul\":2077:2079   */\n      0x20\n        /* \"#utility.yul\":2069:2075   */\n      dup4\n        /* \"#utility.yul\":2065:2080   */\n      add\n        /* \"#utility.yul\":2052:2098   */\n      calldatacopy\n        /* \"#utility.yul\":2140:2141   */\n      0x00\n        /* \"#utility.yul\":2135:2137   */\n      0x20\n        /* \"#utility.yul\":2130:2132   */\n      dup5\n        /* \"#utility.yul\":2122:2128   */\n      dup4\n        /* \"#utility.yul\":2118:2133   */\n      add\n        /* \"#utility.yul\":2114:2138   */\n      add\n        /* \"#utility.yul\":2107:2142   */\n      mstore\n        /* \"#utility.yul\":2161:2167   */\n      dup1\n        /* \"#utility.yul\":2151:2167   */\n      swap6\n      pop\n      pop\n      pop\n      pop\n      pop\n      pop\n        /* \"#utility.yul\":1177:2173   */\n      swap3\n      pop\n      swap3\n      swap1\n      pop\n      jump\t// out\n        /* \"#utility.yul\":2178:2428   */\n    tag_255:\n        /* \"#utility.yul\":2263:2264   */\n      0x00\n        /* \"#utility.yul\":2273:2386   */\n    tag_285:\n        /* \"#utility.yul\":2287:2293   */\n      dup4\n        /* \"#utility.yul\":2284:2285   */\n      dup2\n        /* \"#utility.yul\":2281:2294   */\n      lt\n        /* \"#utility.yul\":2273:2386   */\n      iszero\n      tag_287\n      jumpi\n        /* \"#utility.yul\":2363:2374   */\n      dup2\n      dup2\n      add\n        /* \"#utility.yul\":2357:2375   */\n      mload\n        /* \"#utility.yul\":2344:2355   */\n      dup4\n      dup3\n      add\n        /* \"#utility.yul\":2337:2376   */\n      mstore\n        /* \"#utility.yul\":2309:2311   */\n      0x20\n        /* \"#utility.yul\":2302:2312   */\n      add\n        /* \"#utility.yul\":2273:2386   */\n      jump(tag_285)\n    tag_287:\n      pop\n      pop\n        /* \"#utility.yul\":2420:2421   */\n      0x00\n        /* \"#utility.yul\":2402:2418   */\n      swap2\n      add\n        /* \"#utility.yul\":2395:2422   */\n      mstore\n        /* \"#utility.yul\":2178:2428   */\n      jump\t// out\n        /* \"#utility.yul\":2433:2704   */\n    tag_256:\n        /* \"#utility.yul\":2475:2478   */\n      0x00\n        /* \"#utility.yul\":2513:2518   */\n      dup2\n        /* \"#utility.yul\":2507:2519   */\n      mload\n        /* \"#utility.yul\":2540:2546   */\n      dup1\n        /* \"#utility.yul\":2535:2538   */\n      dup5\n        /* \"#utility.yul\":2528:2547   */\n      mstore\n        /* \"#utility.yul\":2556:2632   */\n      tag_289\n        /* \"#utility.yul\":2625:2631   */\n      dup2\n        /* \"#utility.yul\":2618:2622   */\n      0x20\n        /* \"#utility.yul\":2613:2616   */\n      dup7\n        /* \"#utility.yul\":2609:2623   */\n      add\n        /* \"#utility.yul\":2602:2606   */\n      0x20\n        /* \"#utility.yul\":2595:2600   */\n      dup7\n        /* \"#utility.yul\":2591:2607   */\n      add\n        /* \"#utility.yul\":2556:2632   */\n      tag_255\n      jump\t// in\n    tag_289:\n        /* \"#utility.yul\":2686:2688   */\n      0x1f\n        /* \"#utility.yul\":2665:2680   */\n      add\n      not(0x1f)\n        /* \"#utility.yul\":2661:2690   */\n      and\n        /* \"#utility.yul\":2652:2691   */\n      swap3\n      swap1\n      swap3\n      add\n        /* \"#utility.yul\":2693:2697   */\n      0x20\n        /* \"#utility.yul\":2648:2698   */\n      add\n      swap3\n        /* \"#utility.yul\":2433:2704   */\n      swap2\n      pop\n      pop\n      jump\t// out\n        /* \"#utility.yul\":2709:3512   */\n    tag_66:\n        /* \"#utility.yul\":2871:2875   */\n      0x00\n        /* \"#utility.yul\":2900:2902   */\n      0x20\n        /* \"#utility.yul\":2940:2942   */\n      dup1\n        /* \"#utility.yul\":2929:2938   */\n      dup4\n        /* \"#utility.yul\":2925:2943   */\n      add\n        /* \"#utility.yul\":2970:2972   */\n      dup2\n        /* \"#utility.yul\":2959:2968   */\n      dup5\n        /* \"#utility.yul\":2952:2973   */\n      mstore\n        /* \"#utility.yul\":2993:2999   */\n      dup1\n        /* \"#utility.yul\":3028:3034   */\n      dup6\n        /* \"#utility.yul\":3022:3035   */\n      mload\n        /* \"#utility.yul\":3059:3065   */\n      dup1\n        /* \"#utility.yul\":3051:3057   */\n      dup4\n        /* \"#utility.yul\":3044:3066   */\n      mstore\n        /* \"#utility.yul\":3097:3099   */\n      0x40\n        /* \"#utility.yul\":3086:3095   */\n      dup7\n        /* \"#utility.yul\":3082:3100   */\n      add\n        /* \"#utility.yul\":3075:3100   */\n      swap2\n      pop\n        /* \"#utility.yul\":3159:3161   */\n      0x40\n        /* \"#utility.yul\":3149:3155   */\n      dup2\n        /* \"#utility.yul\":3146:3147   */\n      0x05\n        /* \"#utility.yul\":3142:3156   */\n      shl\n        /* \"#utility.yul\":3131:3140   */\n      dup8\n        /* \"#utility.yul\":3127:3157   */\n      add\n        /* \"#utility.yul\":3123:3162   */\n      add\n        /* \"#utility.yul\":3109:3162   */\n      swap3\n      pop\n        /* \"#utility.yul\":3197:3199   */\n      dup4\n        /* \"#utility.yul\":3189:3195   */\n      dup8\n        /* \"#utility.yul\":3185:3200   */\n      add\n        /* \"#utility.yul\":3218:3219   */\n      0x00\n        /* \"#utility.yul\":3228:3483   */\n    tag_291:\n        /* \"#utility.yul\":3242:3248   */\n      dup3\n        /* \"#utility.yul\":3239:3240   */\n      dup2\n        /* \"#utility.yul\":3236:3249   */\n      lt\n        /* \"#utility.yul\":3228:3483   */\n      iszero\n      tag_293\n      jumpi\n        /* \"#utility.yul\":3335:3337   */\n      0x3f\n        /* \"#utility.yul\":3331:3338   */\n      not\n        /* \"#utility.yul\":3319:3328   */\n      dup9\n        /* \"#utility.yul\":3311:3317   */\n      dup7\n        /* \"#utility.yul\":3307:3329   */\n      sub\n        /* \"#utility.yul\":3303:3339   */\n      add\n        /* \"#utility.yul\":3298:3301   */\n      dup5\n        /* \"#utility.yul\":3291:3340   */\n      mstore\n        /* \"#utility.yul\":3363:3403   */\n      tag_294\n        /* \"#utility.yul\":3396:3402   */\n      dup6\n        /* \"#utility.yul\":3387:3393   */\n      dup4\n        /* \"#utility.yul\":3381:3394   */\n      mload\n        /* \"#utility.yul\":3363:3403   */\n      tag_256\n      jump\t// in\n    tag_294:\n        /* \"#utility.yul\":3353:3403   */\n      swap5\n      pop\n        /* \"#utility.yul\":3461:3473   */\n      swap3\n      dup6\n      add\n      swap3\n        /* \"#utility.yul\":3426:3441   */\n      swap1\n      dup6\n      add\n      swap1\n        /* \"#utility.yul\":3264:3265   */\n      0x01\n        /* \"#utility.yul\":3257:3266   */\n      add\n        /* \"#utility.yul\":3228:3483   */\n      jump(tag_291)\n    tag_293:\n      pop\n        /* \"#utility.yul\":3500:3506   */\n      swap3\n      swap8\n        /* \"#utility.yul\":2709:3512   */\n      swap7\n      pop\n      pop\n      pop\n      pop\n      pop\n      pop\n      pop\n      jump\t// out\n        /* \"#utility.yul\":3517:3644   */\n    tag_257:\n        /* \"#utility.yul\":3578:3588   */\n      0x4e487b71\n        /* \"#utility.yul\":3573:3576   */\n      0xe0\n        /* \"#utility.yul\":3569:3589   */\n      shl\n        /* \"#utility.yul\":3566:3567   */\n      0x00\n        /* \"#utility.yul\":3559:3590   */\n      mstore\n        /* \"#utility.yul\":3609:3613   */\n      0x11\n        /* \"#utility.yul\":3606:3607   */\n      0x04\n        /* \"#utility.yul\":3599:3614   */\n      mstore\n        /* \"#utility.yul\":3633:3637   */\n      0x24\n        /* \"#utility.yul\":3630:3631   */\n      0x00\n        /* \"#utility.yul\":3623:3638   */\n      revert\n        /* \"#utility.yul\":3649:3777   */\n    tag_69:\n        /* \"#utility.yul\":3716:3725   */\n      dup2\n      dup2\n      sub\n        /* \"#utility.yul\":3737:3748   */\n      dup2\n      dup2\n      gt\n        /* \"#utility.yul\":3734:3771   */\n      iszero\n      tag_85\n      jumpi\n        /* \"#utility.yul\":3751:3769   */\n      tag_85\n      tag_257\n      jump\t// in\n        /* \"#utility.yul\":5587:5876   */\n    tag_104:\n        /* \"#utility.yul\":5718:5721   */\n      0x00\n        /* \"#utility.yul\":5756:5762   */\n      dup3\n        /* \"#utility.yul\":5750:5763   */\n      mload\n        /* \"#utility.yul\":5772:5838   */\n      tag_305\n        /* \"#utility.yul\":5831:5837   */\n      dup2\n        /* \"#utility.yul\":5826:5829   */\n      dup5\n        /* \"#utility.yul\":5819:5823   */\n      0x20\n        /* \"#utility.yul\":5811:5817   */\n      dup8\n        /* \"#utility.yul\":5807:5824   */\n      add\n        /* \"#utility.yul\":5772:5838   */\n      tag_255\n      jump\t// in\n    tag_305:\n        /* \"#utility.yul\":5854:5870   */\n      swap2\n      swap1\n      swap2\n      add\n      swap3\n        /* \"#utility.yul\":5587:5876   */\n      swap2\n      pop\n      pop\n      jump\t// out\n        /* \"#utility.yul\":5881:6008   */\n    tag_107:\n        /* \"#utility.yul\":5942:5952   */\n      0x4e487b71\n        /* \"#utility.yul\":5937:5940   */\n      0xe0\n        /* \"#utility.yul\":5933:5953   */\n      shl\n        /* \"#utility.yul\":5930:5931   */\n      0x00\n        /* \"#utility.yul\":5923:5954   */\n      mstore\n        /* \"#utility.yul\":5973:5977   */\n      0x32\n        /* \"#utility.yul\":5970:5971   */\n      0x04\n        /* \"#utility.yul\":5963:5978   */\n      mstore\n        /* \"#utility.yul\":5997:6001   */\n      0x24\n        /* \"#utility.yul\":5994:5995   */\n      0x00\n        /* \"#utility.yul\":5987:6002   */\n      revert\n        /* \"#utility.yul\":6013:6393   */\n    tag_224:\n        /* \"#utility.yul\":6092:6093   */\n      0x01\n        /* \"#utility.yul\":6088:6100   */\n      dup2\n      dup2\n      shr\n      swap1\n        /* \"#utility.yul\":6135:6147   */\n      dup3\n      and\n      dup1\n        /* \"#utility.yul\":6156:6217   */\n      tag_308\n      jumpi\n        /* \"#utility.yul\":6210:6214   */\n      0x7f\n        /* \"#utility.yul\":6202:6208   */\n      dup3\n        /* \"#utility.yul\":6198:6215   */\n      and\n        /* \"#utility.yul\":6188:6215   */\n      swap2\n      pop\n        /* \"#utility.yul\":6156:6217   */\n    tag_308:\n        /* \"#utility.yul\":6263:6265   */\n      0x20\n        /* \"#utility.yul\":6255:6261   */\n      dup3\n        /* \"#utility.yul\":6252:6266   */\n      lt\n        /* \"#utility.yul\":6232:6250   */\n      dup2\n        /* \"#utility.yul\":6229:6267   */\n      sub\n        /* \"#utility.yul\":6226:6387   */\n      tag_309\n      jumpi\n        /* \"#utility.yul\":6309:6319   */\n      0x4e487b71\n        /* \"#utility.yul\":6304:6307   */\n      0xe0\n        /* \"#utility.yul\":6300:6320   */\n      shl\n        /* \"#utility.yul\":6297:6298   */\n      0x00\n        /* \"#utility.yul\":6290:6321   */\n      mstore\n        /* \"#utility.yul\":6344:6348   */\n      0x22\n        /* \"#utility.yul\":6341:6342   */\n      0x04\n        /* \"#utility.yul\":6334:6349   */\n      mstore\n        /* \"#utility.yul\":6372:6376   */\n      0x24\n        /* \"#utility.yul\":6369:6370   */\n      0x00\n        /* \"#utility.yul\":6362:6377   */\n      revert\n        /* \"#utility.yul\":6226:6387   */\n    tag_309:\n      pop\n        /* \"#utility.yul\":6013:6393   */\n      swap2\n      swap1\n      pop\n      jump\t// out\n        /* \"#utility.yul\":6524:7366   */\n    tag_110:\n        /* \"#utility.yul\":6652:6655   */\n      0x00\n        /* \"#utility.yul\":6681:6682   */\n      dup1\n        /* \"#utility.yul\":6714:6720   */\n      dup4\n        /* \"#utility.yul\":6708:6721   */\n      sload\n        /* \"#utility.yul\":6744:6780   */\n      tag_312\n        /* \"#utility.yul\":6770:6779   */\n      dup2\n        /* \"#utility.yul\":6744:6780   */\n      tag_224\n      jump\t// in\n    tag_312:\n        /* \"#utility.yul\":6799:6800   */\n      0x01\n        /* \"#utility.yul\":6816:6834   */\n      dup3\n      dup2\n      and\n        /* \"#utility.yul\":6843:6976   */\n      dup1\n      iszero\n      tag_314\n      jumpi\n        /* \"#utility.yul\":6990:6991   */\n      0x01\n        /* \"#utility.yul\":6985:7341   */\n      dup2\n      eq\n      tag_315\n      jumpi\n        /* \"#utility.yul\":6809:7341   */\n      jump(tag_313)\n        /* \"#utility.yul\":6843:6976   */\n    tag_314:\n      not(0xff)\n        /* \"#utility.yul\":6876:6900   */\n      dup5\n      and\n        /* \"#utility.yul\":6864:6901   */\n      dup8\n      mstore\n        /* \"#utility.yul\":6949:6963   */\n      dup3\n      iszero\n        /* \"#utility.yul\":6942:6964   */\n      iszero\n        /* \"#utility.yul\":6930:6965   */\n      dup4\n      mul\n        /* \"#utility.yul\":6921:6966   */\n      dup8\n      add\n      swap5\n      pop\n        /* \"#utility.yul\":6843:6976   */\n      jump(tag_313)\n        /* \"#utility.yul\":6985:7341   */\n    tag_315:\n        /* \"#utility.yul\":7016:7022   */\n      dup8\n        /* \"#utility.yul\":7013:7014   */\n      0x00\n        /* \"#utility.yul\":7006:7023   */\n      mstore\n        /* \"#utility.yul\":7046:7050   */\n      0x20\n        /* \"#utility.yul\":7091:7093   */\n      dup1\n        /* \"#utility.yul\":7088:7089   */\n      0x00\n        /* \"#utility.yul\":7078:7094   */\n      keccak256\n        /* \"#utility.yul\":7116:7117   */\n      0x00\n        /* \"#utility.yul\":7130:7295   */\n    tag_316:\n        /* \"#utility.yul\":7144:7150   */\n      dup6\n        /* \"#utility.yul\":7141:7142   */\n      dup2\n        /* \"#utility.yul\":7138:7151   */\n      lt\n        /* \"#utility.yul\":7130:7295   */\n      iszero\n      tag_318\n      jumpi\n        /* \"#utility.yul\":7222:7236   */\n      dup2\n      sload\n        /* \"#utility.yul\":7209:7220   */\n      dup11\n      dup3\n      add\n        /* \"#utility.yul\":7202:7237   */\n      mstore\n        /* \"#utility.yul\":7265:7281   */\n      swap1\n      dup5\n      add\n      swap1\n        /* \"#utility.yul\":7159:7169   */\n      dup3\n      add\n        /* \"#utility.yul\":7130:7295   */\n      jump(tag_316)\n    tag_318:\n        /* \"#utility.yul\":7134:7137   */\n      pop\n      pop\n      pop\n        /* \"#utility.yul\":7324:7330   */\n      dup3\n        /* \"#utility.yul\":7319:7322   */\n      dup8\n        /* \"#utility.yul\":7315:7331   */\n      add\n        /* \"#utility.yul\":7308:7331   */\n      swap5\n      pop\n        /* \"#utility.yul\":6809:7341   */\n    tag_313:\n      pop\n        /* \"#utility.yul\":7357:7360   */\n      swap3\n      swap7\n        /* \"#utility.yul\":6524:7366   */\n      swap6\n      pop\n      pop\n      pop\n      pop\n      pop\n      pop\n      jump\t// out\n        /* \"#utility.yul\":7780:7915   */\n    tag_115:\n        /* \"#utility.yul\":7819:7822   */\n      0x00\n        /* \"#utility.yul\":7840:7857   */\n      0x01\n      dup3\n      add\n        /* \"#utility.yul\":7837:7880   */\n      tag_322\n      jumpi\n        /* \"#utility.yul\":7860:7878   */\n      tag_322\n      tag_257\n      jump\t// in\n    tag_322:\n      pop\n        /* \"#utility.yul\":7907:7908   */\n      0x01\n        /* \"#utility.yul\":7896:7909   */\n      add\n      swap1\n        /* \"#utility.yul\":7780:7915   */\n      jump\t// out\n        /* \"#utility.yul\":7920:8465   */\n    tag_259:\n        /* \"#utility.yul\":8022:8024   */\n      0x1f\n        /* \"#utility.yul\":8017:8020   */\n      dup3\n        /* \"#utility.yul\":8014:8025   */\n      gt\n        /* \"#utility.yul\":8011:8459   */\n      iszero\n      tag_324\n      jumpi\n        /* \"#utility.yul\":8058:8059   */\n      0x00\n        /* \"#utility.yul\":8083:8088   */\n      dup2\n        /* \"#utility.yul\":8079:8081   */\n      dup2\n        /* \"#utility.yul\":8072:8089   */\n      mstore\n        /* \"#utility.yul\":8128:8132   */\n      0x20\n        /* \"#utility.yul\":8124:8126   */\n      dup2\n        /* \"#utility.yul\":8114:8133   */\n      keccak256\n        /* \"#utility.yul\":8198:8200   */\n      0x1f\n        /* \"#utility.yul\":8186:8196   */\n      dup6\n        /* \"#utility.yul\":8182:8201   */\n      add\n        /* \"#utility.yul\":8179:8180   */\n      0x05\n        /* \"#utility.yul\":8175:8202   */\n      shr\n        /* \"#utility.yul\":8169:8173   */\n      dup2\n        /* \"#utility.yul\":8165:8203   */\n      add\n        /* \"#utility.yul\":8234:8238   */\n      0x20\n        /* \"#utility.yul\":8222:8232   */\n      dup7\n        /* \"#utility.yul\":8219:8239   */\n      lt\n        /* \"#utility.yul\":8216:8263   */\n      iszero\n      tag_325\n      jumpi\n      pop\n        /* \"#utility.yul\":8257:8261   */\n      dup1\n        /* \"#utility.yul\":8216:8263   */\n    tag_325:\n        /* \"#utility.yul\":8312:8314   */\n      0x1f\n        /* \"#utility.yul\":8307:8310   */\n      dup6\n        /* \"#utility.yul\":8303:8315   */\n      add\n        /* \"#utility.yul\":8300:8301   */\n      0x05\n        /* \"#utility.yul\":8296:8316   */\n      shr\n        /* \"#utility.yul\":8290:8294   */\n      dup3\n        /* \"#utility.yul\":8286:8317   */\n      add\n        /* \"#utility.yul\":8276:8317   */\n      swap2\n      pop\n        /* \"#utility.yul\":8367:8449   */\n    tag_326:\n        /* \"#utility.yul\":8385:8387   */\n      dup2\n        /* \"#utility.yul\":8378:8383   */\n      dup2\n        /* \"#utility.yul\":8375:8388   */\n      lt\n        /* \"#utility.yul\":8367:8449   */\n      iszero\n      tag_328\n      jumpi\n        /* \"#utility.yul\":8430:8447   */\n      dup3\n      dup2\n      sstore\n        /* \"#utility.yul\":8411:8412   */\n      0x01\n        /* \"#utility.yul\":8400:8413   */\n      add\n        /* \"#utility.yul\":8367:8449   */\n      jump(tag_326)\n    tag_328:\n        /* \"#utility.yul\":8371:8374   */\n      pop\n      pop\n      pop\n        /* \"#utility.yul\":8011:8459   */\n    tag_324:\n        /* \"#utility.yul\":7920:8465   */\n      pop\n      pop\n      pop\n      jump\t// out\n        /* \"#utility.yul\":8641:9993   */\n    tag_118:\n        /* \"#utility.yul\":8767:8770   */\n      dup2\n        /* \"#utility.yul\":8761:8771   */\n      mload\n        /* \"#utility.yul\":8794:8812   */\n      0xffffffffffffffff\n        /* \"#utility.yul\":8786:8792   */\n      dup2\n        /* \"#utility.yul\":8783:8813   */\n      gt\n        /* \"#utility.yul\":8780:8836   */\n      iszero\n      tag_332\n      jumpi\n        /* \"#utility.yul\":8816:8834   */\n      tag_332\n      tag_132\n      jump\t// in\n    tag_332:\n        /* \"#utility.yul\":8845:8942   */\n      tag_333\n        /* \"#utility.yul\":8935:8941   */\n      dup2\n        /* \"#utility.yul\":8895:8933   */\n      tag_334\n        /* \"#utility.yul\":8927:8931   */\n      dup5\n        /* \"#utility.yul\":8921:8932   */\n      sload\n        /* \"#utility.yul\":8895:8933   */\n      tag_224\n      jump\t// in\n    tag_334:\n        /* \"#utility.yul\":8889:8893   */\n      dup5\n        /* \"#utility.yul\":8845:8942   */\n      tag_259\n      jump\t// in\n    tag_333:\n        /* \"#utility.yul\":8997:9001   */\n      0x20\n      dup1\n        /* \"#utility.yul\":9061:9063   */\n      0x1f\n        /* \"#utility.yul\":9050:9064   */\n      dup4\n      gt\n        /* \"#utility.yul\":9078:9079   */\n      0x01\n        /* \"#utility.yul\":9073:9736   */\n      dup2\n      eq\n      tag_336\n      jumpi\n        /* \"#utility.yul\":9780:9781   */\n      0x00\n        /* \"#utility.yul\":9797:9803   */\n      dup5\n        /* \"#utility.yul\":9794:9883   */\n      iszero\n      tag_337\n      jumpi\n      pop\n        /* \"#utility.yul\":9849:9868   */\n      dup6\n      dup4\n      add\n        /* \"#utility.yul\":9843:9869   */\n      mload\n        /* \"#utility.yul\":9794:9883   */\n    tag_337:\n      not(0x00)\n        /* \"#utility.yul\":8598:8599   */\n      0x03\n        /* \"#utility.yul\":8594:8605   */\n      dup7\n      swap1\n      shl\n        /* \"#utility.yul\":8590:8614   */\n      shr\n        /* \"#utility.yul\":8586:8615   */\n      not\n        /* \"#utility.yul\":8576:8616   */\n      and\n        /* \"#utility.yul\":8622:8623   */\n      0x01\n        /* \"#utility.yul\":8618:8629   */\n      dup6\n      swap1\n      shl\n        /* \"#utility.yul\":8573:8630   */\n      or\n        /* \"#utility.yul\":9896:9977   */\n      dup6\n      sstore\n        /* \"#utility.yul\":9043:9987   */\n      jump(tag_328)\n        /* \"#utility.yul\":9073:9736   */\n    tag_336:\n        /* \"#utility.yul\":6471:6472   */\n      0x00\n        /* \"#utility.yul\":6464:6478   */\n      dup6\n      dup2\n      mstore\n        /* \"#utility.yul\":6508:6512   */\n      0x20\n        /* \"#utility.yul\":6495:6513   */\n      dup2\n      keccak256\n      not(0x1f)\n        /* \"#utility.yul\":9109:9129   */\n      dup7\n      and\n      swap2\n        /* \"#utility.yul\":9227:9463   */\n    tag_340:\n        /* \"#utility.yul\":9241:9248   */\n      dup3\n        /* \"#utility.yul\":9238:9239   */\n      dup2\n        /* \"#utility.yul\":9235:9249   */\n      lt\n        /* \"#utility.yul\":9227:9463   */\n      iszero\n      tag_342\n      jumpi\n        /* \"#utility.yul\":9330:9349   */\n      dup9\n      dup7\n      add\n        /* \"#utility.yul\":9324:9350   */\n      mload\n        /* \"#utility.yul\":9309:9351   */\n      dup3\n      sstore\n        /* \"#utility.yul\":9422:9449   */\n      swap5\n      dup5\n      add\n      swap5\n        /* \"#utility.yul\":9390:9391   */\n      0x01\n        /* \"#utility.yul\":9378:9392   */\n      swap1\n      swap2\n      add\n      swap1\n        /* \"#utility.yul\":9257:9276   */\n      dup5\n      add\n        /* \"#utility.yul\":9227:9463   */\n      jump(tag_340)\n    tag_342:\n        /* \"#utility.yul\":9231:9234   */\n      pop\n        /* \"#utility.yul\":9491:9497   */\n      dup6\n        /* \"#utility.yul\":9482:9489   */\n      dup3\n        /* \"#utility.yul\":9479:9498   */\n      lt\n        /* \"#utility.yul\":9476:9677   */\n      iszero\n      tag_343\n      jumpi\n        /* \"#utility.yul\":9552:9571   */\n      dup8\n      dup6\n      add\n        /* \"#utility.yul\":9546:9572   */\n      mload\n      not(0x00)\n        /* \"#utility.yul\":9635:9636   */\n      0x03\n        /* \"#utility.yul\":9631:9645   */\n      dup9\n      swap1\n      shl\n        /* \"#utility.yul\":9647:9650   */\n      0xf8\n        /* \"#utility.yul\":9627:9651   */\n      and\n        /* \"#utility.yul\":9623:9660   */\n      shr\n        /* \"#utility.yul\":9619:9661   */\n      not\n        /* \"#utility.yul\":9604:9662   */\n      and\n        /* \"#utility.yul\":9589:9663   */\n      dup2\n      sstore\n        /* \"#utility.yul\":9476:9677   */\n    tag_343:\n      pop\n      pop\n      pop\n      pop\n      pop\n        /* \"#utility.yul\":9723:9724   */\n      0x01\n        /* \"#utility.yul\":9707:9721   */\n      swap1\n      dup2\n      shl\n        /* \"#utility.yul\":9703:9725   */\n      add\n        /* \"#utility.yul\":9690:9726   */\n      swap1\n      sstore\n      pop\n        /* \"#utility.yul\":8641:9993   */\n      jump\t// out\n        /* \"#utility.yul\":9998:10218   */\n    tag_120:\n        /* \"#utility.yul\":10147:10149   */\n      0x20\n        /* \"#utility.yul\":10136:10145   */\n      dup2\n        /* \"#utility.yul\":10129:10150   */\n      mstore\n        /* \"#utility.yul\":10110:10114   */\n      0x00\n        /* \"#utility.yul\":10167:10212   */\n      tag_74\n        /* \"#utility.yul\":10208:10210   */\n      0x20\n        /* \"#utility.yul\":10197:10206   */\n      dup4\n        /* \"#utility.yul\":10193:10211   */\n      add\n        /* \"#utility.yul\":10185:10191   */\n      dup5\n        /* \"#utility.yul\":10167:10212   */\n      tag_256\n      jump\t// in\n        /* \"#utility.yul\":10578:12013   */\n    tag_172:\n        /* \"#utility.yul\":10697:10700   */\n      dup2\n        /* \"#utility.yul\":10691:10695   */\n      dup2\n        /* \"#utility.yul\":10688:10701   */\n      sub\n        /* \"#utility.yul\":10685:10711   */\n      tag_348\n      jumpi\n        /* \"#utility.yul\":10704:10709   */\n      pop\n      pop\n        /* \"#utility.yul\":10578:12013   */\n      jump\t// out\n        /* \"#utility.yul\":10685:10711   */\n    tag_348:\n        /* \"#utility.yul\":10734:10771   */\n      tag_349\n        /* \"#utility.yul\":10766:10769   */\n      dup3\n        /* \"#utility.yul\":10760:10770   */\n      sload\n        /* \"#utility.yul\":10734:10771   */\n      tag_224\n      jump\t// in\n    tag_349:\n        /* \"#utility.yul\":10794:10812   */\n      0xffffffffffffffff\n        /* \"#utility.yul\":10786:10792   */\n      dup2\n        /* \"#utility.yul\":10783:10813   */\n      gt\n        /* \"#utility.yul\":10780:10836   */\n      iszero\n      tag_351\n      jumpi\n        /* \"#utility.yul\":10816:10834   */\n      tag_351\n      tag_132\n      jump\t// in\n    tag_351:\n        /* \"#utility.yul\":10845:10942   */\n      tag_352\n        /* \"#utility.yul\":10935:10941   */\n      dup2\n        /* \"#utility.yul\":10895:10933   */\n      tag_334\n        /* \"#utility.yul\":10927:10931   */\n      dup5\n        /* \"#utility.yul\":10921:10932   */\n      sload\n        /* \"#utility.yul\":10895:10933   */\n      tag_224\n      jump\t// in\n        /* \"#utility.yul\":10845:10942   */\n    tag_352:\n        /* \"#utility.yul\":10968:10969   */\n      0x00\n        /* \"#utility.yul\":10996:10998   */\n      0x1f\n        /* \"#utility.yul\":10988:10994   */\n      dup3\n        /* \"#utility.yul\":10985:10999   */\n      gt\n        /* \"#utility.yul\":11013:11014   */\n      0x01\n        /* \"#utility.yul\":11008:11756   */\n      dup2\n      eq\n      tag_355\n      jumpi\n        /* \"#utility.yul\":11800:11801   */\n      0x00\n        /* \"#utility.yul\":11817:11823   */\n      dup4\n        /* \"#utility.yul\":11814:11903   */\n      iszero\n      tag_356\n      jumpi\n      pop\n        /* \"#utility.yul\":11869:11888   */\n      dup5\n      dup3\n      add\n        /* \"#utility.yul\":11863:11889   */\n      sload\n        /* \"#utility.yul\":11814:11903   */\n    tag_356:\n      not(0x00)\n        /* \"#utility.yul\":8598:8599   */\n      0x03\n        /* \"#utility.yul\":8594:8605   */\n      dup6\n      swap1\n      shl\n        /* \"#utility.yul\":8590:8614   */\n      shr\n        /* \"#utility.yul\":8586:8615   */\n      not\n        /* \"#utility.yul\":8576:8616   */\n      and\n        /* \"#utility.yul\":8622:8623   */\n      0x01\n        /* \"#utility.yul\":8618:8629   */\n      dup5\n      swap1\n      shl\n        /* \"#utility.yul\":8573:8630   */\n      or\n        /* \"#utility.yul\":11916:11997   */\n      dup5\n      sstore\n        /* \"#utility.yul\":10978:12007   */\n      jump(tag_354)\n        /* \"#utility.yul\":11008:11756   */\n    tag_355:\n        /* \"#utility.yul\":6471:6472   */\n      0x00\n        /* \"#utility.yul\":6464:6478   */\n      dup6\n      dup2\n      mstore\n        /* \"#utility.yul\":6508:6512   */\n      0x20\n        /* \"#utility.yul\":6495:6513   */\n      swap1\n      keccak256\n      not(0x1f)\n        /* \"#utility.yul\":11044:11064   */\n      dup5\n      and\n      swap1\n        /* \"#utility.yul\":6471:6472   */\n      0x00\n        /* \"#utility.yul\":6464:6478   */\n      dup7\n      dup2\n      mstore\n        /* \"#utility.yul\":6508:6512   */\n      0x20\n        /* \"#utility.yul\":6495:6513   */\n      swap1\n      keccak256\n        /* \"#utility.yul\":11208:11217   */\n      dup5\n        /* \"#utility.yul\":11230:11481   */\n    tag_360:\n        /* \"#utility.yul\":11244:11251   */\n      dup4\n        /* \"#utility.yul\":11241:11242   */\n      dup2\n        /* \"#utility.yul\":11238:11252   */\n      lt\n        /* \"#utility.yul\":11230:11481   */\n      iszero\n      tag_362\n      jumpi\n        /* \"#utility.yul\":11326:11347   */\n      dup3\n      dup7\n      add\n        /* \"#utility.yul\":11320:11348   */\n      sload\n        /* \"#utility.yul\":11305:11349   */\n      dup3\n      sstore\n        /* \"#utility.yul\":11376:11377   */\n      0x01\n        /* \"#utility.yul\":11449:11467   */\n      swap6\n      dup7\n      add\n      swap6\n        /* \"#utility.yul\":11404:11419   */\n      swap1\n      swap2\n      add\n      swap1\n        /* \"#utility.yul\":11267:11271   */\n      0x20\n        /* \"#utility.yul\":11260:11272   */\n      add\n        /* \"#utility.yul\":11230:11481   */\n      jump(tag_360)\n    tag_362:\n        /* \"#utility.yul\":11234:11237   */\n      pop\n        /* \"#utility.yul\":11509:11515   */\n      dup6\n        /* \"#utility.yul\":11500:11507   */\n      dup4\n        /* \"#utility.yul\":11497:11516   */\n      lt\n        /* \"#utility.yul\":11494:11697   */\n      iszero\n      tag_363\n      jumpi\n        /* \"#utility.yul\":11570:11591   */\n      dup2\n      dup6\n      add\n        /* \"#utility.yul\":11564:11592   */\n      sload\n      not(0x00)\n        /* \"#utility.yul\":11655:11656   */\n      0x03\n        /* \"#utility.yul\":11651:11665   */\n      dup9\n      swap1\n      shl\n        /* \"#utility.yul\":11667:11670   */\n      0xf8\n        /* \"#utility.yul\":11647:11671   */\n      and\n        /* \"#utility.yul\":11643:11680   */\n      shr\n        /* \"#utility.yul\":11639:11681   */\n      not\n        /* \"#utility.yul\":11624:11682   */\n      and\n        /* \"#utility.yul\":11609:11683   */\n      dup2\n      sstore\n        /* \"#utility.yul\":11494:11697   */\n    tag_363:\n      pop\n      pop\n      pop\n        /* \"#utility.yul\":11743:11744   */\n      0x01\n        /* \"#utility.yul\":11734:11740   */\n      dup4\n        /* \"#utility.yul\":11731:11732   */\n      0x01\n        /* \"#utility.yul\":11727:11741   */\n      shl\n        /* \"#utility.yul\":11723:11745   */\n      add\n        /* \"#utility.yul\":11717:11721   */\n      dup5\n        /* \"#utility.yul\":11710:11746   */\n      sstore\n        /* \"#utility.yul\":10978:12007   */\n    tag_354:\n      pop\n      pop\n      pop\n        /* \"#utility.yul\":10578:12013   */\n      pop\n      pop\n      jump\t// out\n        /* \"#utility.yul\":12018:12145   */\n    tag_175:\n        /* \"#utility.yul\":12079:12089   */\n      0x4e487b71\n        /* \"#utility.yul\":12074:12077   */\n      0xe0\n        /* \"#utility.yul\":12070:12090   */\n      shl\n        /* \"#utility.yul\":12067:12068   */\n      0x00\n        /* \"#utility.yul\":12060:12091   */\n      mstore\n        /* \"#utility.yul\":12110:12114   */\n      0x31\n        /* \"#utility.yul\":12107:12108   */\n      0x04\n        /* \"#utility.yul\":12100:12115   */\n      mstore\n        /* \"#utility.yul\":12134:12138   */\n      0x24\n        /* \"#utility.yul\":12131:12132   */\n      0x00\n        /* \"#utility.yul\":12124:12139   */\n      revert\n\n    auxdata: 0xa26469706673582212200a936c99a73158ae3802b8b6f5731cee98d313c1dbd4e310f5f8118849c23d6264736f6c63430008110033\n}\n",
    "bytecode": {
      "linkReferences": {},
      "object": "608060405234801561001057600080fd5b50611a12806100206000396000f3fe608060405234801561001057600080fd5b50600436106100df5760003560e01c80635926651d1161008c5780638d5492e4116100665780638d5492e4146101a9578063a98d22bc146101bc578063cd9c9362146101cf578063df78bc54146101d757600080fd5b80635926651d1461017057806359633a1c1461018357806387c637141461019657600080fd5b8063096e27d9116100bd578063096e27d914610140578063196ba7ef146101535780635211287e1461015d57600080fd5b806301e2b33f146100e4578063072039a21461010a57806307a8b7671461012d575b600080fd5b6100f76100f23660046114cd565b6101f7565b6040519081526020015b60405180910390f35b61011d6101183660046114cd565b6102e5565b6040519015158152602001610101565b61011d61013b3660046114cd565b610379565b61011d61014e3660046114e8565b610409565b61015b61043b565b005b61015b61016b366004611531565b6104d7565b61015b61017e3660046114cd565b610750565b61015b6101913660046114cd565b6108e7565b61015b6101a4366004611531565b610a27565b61015b6101b73660046114cd565b610cc9565b61015b6101ca3660046114cd565b610dff565b61015b610eaa565b6101ea6101e53660046114e8565b6110c1565b6040516101019190611643565b6001600160a01b038116600090815260208190526040812060030154819061021f90426116bb565b6001600160a01b038416600081815260208181526040918290206002810154600390910154835191825291810185905242928101929092526060820152919250907f74a7c0c2e8065fcdbfca5ae9f6cf0233e47e9e75b6fcf75674dd4b7e3f9b81839060800160405180910390a26001600160a01b03831660009081526020819052604090206002015481116102db576001600160a01b0383166000908152602081905260409020600201546102d69082906116bb565b6102de565b60005b9392505050565b60006102f082610379565b15610352576001600160a01b03821660009081526020819052604090206003015415610352576000610321836101f7565b905060008111610350576001600160a01b0383166000908152602081905260409020600401805461ff00191690555b505b506001600160a01b0316600090815260208190526040902060040154610100900460ff1690565b6001600160a01b03811660009081526020819052604081205460ff166103e65760405162461bcd60e51b815260206004820152601960248201527f42656e65666163746f7220646f6573206e6f742065786973740000000000000060448201526064015b60405180910390fd5b506001600160a01b031660009081526020819052604090206004015460ff161590565b6001600160a01b03808316600090815260208181526040808320938516835260019093019052205460ff165b92915050565b3360009081526020819052604090205460ff161561049b5760405162461bcd60e51b815260206004820152601960248201527f62656e65666163746f7220616c7265616479206578697374730000000000000060448201526064016103dd565b336000908152602081905260408120805460ff1916600117815562093a80600282015560048101805461010161ffff1990911617905560030155565b3360009081526020819052604090205460ff16801561050d575033600090815260208190526040902060040154610100900460ff165b6105525760405162461bcd60e51b81526020600482015260166024820152752737ba1030903b30b634b2103132b732b330b1ba37b960511b60448201526064016103dd565b61055c3383610409565b6105a05760405162461bcd60e51b815260206004820152601560248201527410995b99599a58da585c9e481b9bdd08199bdd5b99605a1b60448201526064016103dd565b336000908152602081815260408083206001600160a01b03861684526001908101909252822001905b81548110156106c057826040516020016105e391906116ce565b6040516020818303038152906040528051906020012082828154811061060b5761060b6116ea565b90600052602060002001604051602001610625919061173a565b60405160208183030381529060405280519060200120036106ae5760405162461bcd60e51b815260206004820152602860248201527f43494420616c72656164792061737369676e656420746f20746869732062656e60448201527f656669636961727900000000000000000000000000000000000000000000000060648201526084016103dd565b806106b8816117b0565b9150506105c9565b50336000908152602081815260408083206001600160a01b03871684526001908101835290832081018054918201815583529120016106ff8382611818565b50826001600160a01b0316336001600160a01b03167fa1bb52b874769d5c17cde30e708e8f7180bb949f70e77caf0da68d25f9a1a5108460405161074391906118d8565b60405180910390a3505050565b3360009081526020819052604090205460ff168015610786575033600090815260208190526040902060040154610100900460ff165b6107cb5760405162461bcd60e51b81526020600482015260166024820152752737ba1030903b30b634b2103132b732b330b1ba37b960511b60448201526064016103dd565b6107d53382610409565b156108225760405162461bcd60e51b815260206004820152601a60248201527f42656e656669636961727920616c72656164792065786973747300000000000060448201526064016103dd565b60408051808201825260018152815160008082526020828101909452919283019161085d565b60608152602001906001900390816108485790505b509052336000908152602081815260408083206001600160a01b03861684526001908101835292208351815460ff191690151517815583820151805191936108ab93908501929101906113ce565b50506040516001600160a01b038316915033907fbb39c36a7502b7256e1a687254146a9a2ea7b146c77cb9e40eb0e2b8793781e190600090a350565b3360009081526020819052604090205460ff16801561091d575033600090815260208190526040902060040154610100900460ff165b6109625760405162461bcd60e51b81526020600482015260166024820152752737ba1030903b30b634b2103132b732b330b1ba37b960511b60448201526064016103dd565b61096c3382610409565b6109b05760405162461bcd60e51b815260206004820152601560248201527410995b99599a58da585c9e481b9bdd08199bdd5b99605a1b60448201526064016103dd565b336000908152602081815260408083206001600160a01b038516845260019081019092528220805460ff1916815591906109ec90830182611424565b50506040516001600160a01b0382169033907f1a6590bd0cabbfcc7c86bef99e1034054e179905cfcc294598fcd426c092244290600090a350565b3360009081526020819052604090205460ff168015610a5d575033600090815260208190526040902060040154610100900460ff165b610aa25760405162461bcd60e51b81526020600482015260166024820152752737ba1030903b30b634b2103132b732b330b1ba37b960511b60448201526064016103dd565b610aac3383610409565b610af05760405162461bcd60e51b815260206004820152601560248201527410995b99599a58da585c9e481b9bdd08199bdd5b99605a1b60448201526064016103dd565b336000908152602081815260408083206001600160a01b03861684526001908101909252822001905b8154811015610c745782604051602001610b3391906116ce565b60405160208183030381529060405280519060200120828281548110610b5b57610b5b6116ea565b90600052602060002001604051602001610b75919061173a565b6040516020818303038152906040528051906020012003610c625781548290610ba0906001906116bb565b81548110610bb057610bb06116ea565b90600052602060002001828281548110610bcc57610bcc6116ea565b906000526020600020019081610be291906118eb565b5081805480610bf357610bf36119c6565b600190038181906000526020600020016000610c0f9190611445565b9055836001600160a01b0316336001600160a01b03167f4c13211ce3b2d0cb3e02a662cc071d6be555042ca58d4d812b7b90e80d3250ac85604051610c5491906118d8565b60405180910390a350505050565b80610c6c816117b0565b915050610b19565b5060405162461bcd60e51b8152602060048201526024808201527f434944206e6f742061737369676e656420746f20746869732062656e656669636044820152636961727960e01b60648201526084016103dd565b6001600160a01b03811660009081526020818152604080832033845260010190915290205460ff16610d3d5760405162461bcd60e51b815260206004820152601760248201527f4e6f7420612076616c69642062656e656669636961727900000000000000000060448201526064016103dd565b6001600160a01b03811660009081526020819052604090206004015460ff16610d995760405133906001600160a01b038316907f67c4731bdc193862f421e091d18f46df876bfe1b8b9aa97504f1d50d425b239d90600090a350565b6001600160a01b0381166000818152602081815260409182902060048101805460ff191690554260038201556002015491519182523392917f82595752291d0261dfb9b4b0c2307021c29c34e22fe0697b4840b529dc351bc3910160405180910390a350565b3360009081526020819052604090205460ff16610e5e5760405162461bcd60e51b815260206004820152601960248201527f42656e65666163746f72206e6f7420726567697374657265640000000000000060448201526064016103dd565b33600090815260208190526040808220805460ff199081169091556001600160a01b03939093168252812080549092168255600282018190556003820155600401805461ffff19169055565b3360009081526020819052604090205460ff168015610ee0575033600090815260208190526040902060040154610100900460ff165b610f255760405162461bcd60e51b81526020600482015260166024820152752737ba1030903b30b634b2103132b732b330b1ba37b960511b60448201526064016103dd565b336000908152602081905260409020600301541561105857610f46336102e5565b15610fdc57336001600160a01b03167f793324a6f079e577f4a4646c7ec753efd3beddc2f4ce07bfae5f105c449ac356604051610fb49060208082526013908201527f42656e65666163746f7220697320616c69766500000000000000000000000000604082015260600190565b60405180910390a2610fc46112ae565b33600090815260208190526040902042600390910155565b610fe533610dff565b336001600160a01b03167f5a68fa7d6b655a3e592d5d99ac82863424750e9d262c902f30f9e56655e7a85660405161104e9060208082526012908201527f42656e65666163746f7220697320646561640000000000000000000000000000604082015260600190565b60405180910390a2565b336001600160a01b03167f793324a6f079e577f4a4646c7ec753efd3beddc2f4ce07bfae5f105c449ac356604051610fb49060208082526013908201527f42656e65666163746f7220697320616c69766500000000000000000000000000604082015260600190565b60606110cd8383610409565b6111115760405162461bcd60e51b815260206004820152601560248201527410995b99599a58da585c9e481b9bdd08199bdd5b99605a1b60448201526064016103dd565b6001600160a01b03831660009081526020818152604080832033845260010190915290205460ff16801561116657506001600160a01b038316600090815260208190526040902060040154610100900460ff16155b6111b25760405162461bcd60e51b815260206004820152601160248201527f4e6f2061636365737320746f204349447300000000000000000000000000000060448201526064016103dd565b6001600160a01b0380841660009081526020818152604080832093861683526001938401825280832090930180548451818402810184019095528085529092909184015b828210156112a257838290600052602060002001805461121590611700565b80601f016020809104026020016040519081016040528092919081815260200182805461124190611700565b801561128e5780601f106112635761010080835404028352916020019161128e565b820191906000526020600020905b81548152906001019060200180831161127157829003601f168201915b5050505050815260200190600101906111f6565b50505050905092915050565b3360009081526020819052604090205460ff1680156112e4575033600090815260208190526040902060040154610100900460ff165b6113295760405162461bcd60e51b81526020600482015260166024820152752737ba1030903b30b634b2103132b732b330b1ba37b960511b60448201526064016103dd565b3360009081526020819052604090206004015460ff161561137357604051339081907f439c5aaf7691cb4808dbd2a240323ce9ec0d04d66ddf65ffd5f88ebd60fa745b90600090a3565b3360008181526020819052604090819020600401805460ff191660011790555181907f9baa855d20de9b1a4db454f55b09d1db5f42f0871bbea3b0c699146ade171625906113c49042815260200190565b60405180910390a3565b828054828255906000526020600020908101928215611414579160200282015b8281111561141457825182906114049082611818565b50916020019190600101906113ee565b5061142092915061147f565b5090565b5080546000825590600052602060002090810190611442919061147f565b50565b50805461145190611700565b6000825580601f10611461575050565b601f016020900490600052602060002090810190611442919061149c565b808211156114205760006114938282611445565b5060010161147f565b5b80821115611420576000815560010161149d565b80356001600160a01b03811681146114c857600080fd5b919050565b6000602082840312156114df57600080fd5b6102de826114b1565b600080604083850312156114fb57600080fd5b611504836114b1565b9150611512602084016114b1565b90509250929050565b634e487b7160e01b600052604160045260246000fd5b6000806040838503121561154457600080fd5b61154d836114b1565b9150602083013567ffffffffffffffff8082111561156a57600080fd5b818501915085601f83011261157e57600080fd5b8135818111156115905761159061151b565b604051601f8201601f19908116603f011681019083821181831017156115b8576115b861151b565b816040528281528860208487010111156115d157600080fd5b8260208601602083013760006020848301015280955050505050509250929050565b60005b8381101561160e5781810151838201526020016115f6565b50506000910152565b6000815180845261162f8160208601602086016115f3565b601f01601f19169290920160200192915050565b6000602080830181845280855180835260408601915060408160051b870101925083870160005b8281101561169857603f19888603018452611686858351611617565b9450928501929085019060010161166a565b5092979650505050505050565b634e487b7160e01b600052601160045260246000fd5b81810381811115610435576104356116a5565b600082516116e08184602087016115f3565b9190910192915050565b634e487b7160e01b600052603260045260246000fd5b600181811c9082168061171457607f821691505b60208210810361173457634e487b7160e01b600052602260045260246000fd5b50919050565b600080835461174881611700565b600182811680156117605760018114611775576117a4565b60ff19841687528215158302870194506117a4565b8760005260208060002060005b8581101561179b5781548a820152908401908201611782565b50505082870194505b50929695505050505050565b6000600182016117c2576117c26116a5565b5060010190565b601f82111561181357600081815260208120601f850160051c810160208610156117f05750805b601f850160051c820191505b8181101561180f578281556001016117fc565b5050505b505050565b815167ffffffffffffffff8111156118325761183261151b565b611846816118408454611700565b846117c9565b602080601f83116001811461187b57600084156118635750858301515b600019600386901b1c1916600185901b17855561180f565b600085815260208120601f198616915b828110156118aa5788860151825594840194600190910190840161188b565b50858210156118c85787850151600019600388901b60f8161c191681555b5050505050600190811b01905550565b6020815260006102de6020830184611617565b8181036118f6575050565b6119008254611700565b67ffffffffffffffff8111156119185761191861151b565b611926816118408454611700565b6000601f82116001811461195a57600083156119425750848201545b600019600385901b1c1916600184901b1784556119bf565b600085815260209020601f19841690600086815260209020845b838110156119945782860154825560019586019590910190602001611974565b50858310156119b25781850154600019600388901b60f8161c191681555b50505060018360011b0184555b5050505050565b634e487b7160e01b600052603160045260246000fdfea26469706673582212200a936c99a73158ae3802b8b6f5731cee98d313c1dbd4e310f5f8118849c23d6264736f6c63430008110033",
      "opcodes": "PUSH1 0x80 PUSH1 0x40 MSTORE CALLVALUE DUP1 ISZERO PUSH2 0x10 JUMPI PUSH1 0x0 DUP1 REVERT JUMPDEST POP PUSH2 0x1A12 DUP1 PUSH2 0x20 PUSH1 0x0 CODECOPY PUSH1 0x0 RETURN INVALID PUSH1 0x80 PUSH1 0x40 MSTORE CALLVALUE DUP1 ISZERO PUSH2 0x10 JUMPI PUSH1 0x0 DUP1 REVERT JUMPDEST POP PUSH1 0x4 CALLDATASIZE LT PUSH2 0xDF JUMPI PUSH1 0x0 CALLDATALOAD PUSH1 0xE0 SHR DUP1 PUSH4 0x5926651D GT PUSH2 0x8C JUMPI DUP1 PUSH4 0x8D5492E4 GT PUSH2 0x66 JUMPI DUP1 PUSH4 0x8D5492E4 EQ PUSH2 0x1A9 JUMPI DUP1 PUSH4 0xA98D22BC EQ PUSH2 0x1BC JUMPI DUP1 PUSH4 0xCD9C9362 EQ PUSH2 0x1CF JUMPI DUP1 PUSH4 0xDF78BC54 EQ PUSH2 0x1D7 JUMPI PUSH1 0x0 DUP1 REVERT JUMPDEST DUP1 PUSH4 0x5926651D EQ PUSH2 0x170 JUMPI DUP1 PUSH4 0x59633A1C EQ PUSH2 0x183 JUMPI DUP1 PUSH4 0x87C63714 EQ PUSH2 0x196 JUMPI PUSH1 0x0 DUP1 REVERT JUMPDEST DUP1 PUSH4 0x96E27D9 GT PUSH2 0xBD JUMPI DUP1 PUSH4 0x96E27D9 EQ PUSH2 0x140 JUMPI DUP1 PUSH4 0x196BA7EF EQ PUSH2 0x153 JUMPI DUP1 PUSH4 0x5211287E EQ PUSH2 0x15D JUMPI PUSH1 0x0 DUP1 REVERT JUMPDEST DUP1 PUSH4 0x1E2B33F EQ PUSH2 0xE4 JUMPI DUP1 PUSH4 0x72039A2 EQ PUSH2 0x10A JUMPI DUP1 PUSH4 0x7A8B767 EQ PUSH2 0x12D JUMPI JUMPDEST PUSH1 0x0 DUP1 REVERT JUMPDEST PUSH2 0xF7 PUSH2 0xF2 CALLDATASIZE PUSH1 0x4 PUSH2 0x14CD JUMP JUMPDEST PUSH2 0x1F7 JUMP JUMPDEST PUSH1 0x40 MLOAD SWAP1 DUP2 MSTORE PUSH1 0x20 ADD JUMPDEST PUSH1 0x40 MLOAD DUP1 SWAP2 SUB SWAP1 RETURN JUMPDEST PUSH2 0x11D PUSH2 0x118 CALLDATASIZE PUSH1 0x4 PUSH2 0x14CD JUMP JUMPDEST PUSH2 0x2E5 JUMP JUMPDEST PUSH1 0x40 MLOAD SWAP1 ISZERO ISZERO DUP2 MSTORE PUSH1 0x20 ADD PUSH2 0x101 JUMP JUMPDEST PUSH2 0x11D PUSH2 0x13B CALLDATASIZE PUSH1 0x4 PUSH2 0x14CD JUMP JUMPDEST PUSH2 0x379 JUMP JUMPDEST PUSH2 0x11D PUSH2 0x14E CALLDATASIZE PUSH1 0x4 PUSH2 0x14E8 JUMP JUMPDEST PUSH2 0x409 JUMP JUMPDEST PUSH2 0x15B PUSH2 0x43B JUMP JUMPDEST STOP JUMPDEST PUSH2 0x15B PUSH2 0x16B CALLDATASIZE PUSH1 0x4 PUSH2 0x1531 JUMP JUMPDEST PUSH2 0x4D7 JUMP JUMPDEST PUSH2 0x15B PUSH2 0x17E CALLDATASIZE PUSH1 0x4 PUSH2 0x14CD JUMP JUMPDEST PUSH2 0x750 JUMP JUMPDEST PUSH2 0x15B PUSH2 0x191 CALLDATASIZE PUSH1 0x4 PUSH2 0x14CD JUMP JUMPDEST PUSH2 0x8E7 JUMP JUMPDEST PUSH2 0x15B PUSH2 0x1A4 CALLDATASIZE PUSH1 0x4 PUSH2 0x1531 JUMP JUMPDEST PUSH2 0xA27 JUMP JUMPDEST PUSH2 0x15B PUSH2 0x1B7 CALLDATASIZE PUSH1 0x4 PUSH2 0x14CD JUMP JUMPDEST PUSH2 0xCC9 JUMP JUMPDEST PUSH2 0x15B PUSH2 0x1CA CALLDATASIZE PUSH1 0x4 PUSH2 0x14CD JUMP JUMPDEST PUSH2 0xDFF JUMP JUMPDEST PUSH2 0x15B PUSH2 0xEAA JUMP JUMPDEST PUSH2 0x1EA PUSH2 0x1E5 CALLDATASIZE PUSH1 0x4 PUSH2 0x14E8 JUMP JUMPDEST PUSH2 0x10C1 JUMP JUMPDEST PUSH1 0x40 MLOAD PUSH2 0x101 SWAP2 SWAP1 PUSH2 0x1643 JUMP JUMPDEST PUSH1 0x1 PUSH1 0x1 PUSH1 0xA0 SHL SUB DUP2 AND PUSH1 0x0 SWAP1 DUP2 MSTORE PUSH1 0x20 DUP2 SWAP1 MSTORE PUSH1 0x40 DUP2 KECCAK256 PUSH1 0x3 ADD SLOAD DUP2 SWAP1 PUSH2 0x21F SWAP1 TIMESTAMP PUSH2 0x16BB JUMP JUMPDEST PUSH1 0x1 PUSH1 0x1 PUSH1 0xA0 SHL SUB DUP5 AND PUSH1 0x0 DUP2 DUP2 MSTORE PUSH1 0x20 DUP2 DUP2 MSTORE PUSH1 0x40 SWAP2 DUP3 SWAP1 KECCAK256 PUSH1 0x2 DUP2 ADD SLOAD PUSH1 0x3 SWAP1 SWAP2 ADD SLOAD DUP4 MLOAD SWAP2 DUP3 MSTORE SWAP2 DUP2 ADD DUP6 SWAP1 MSTORE TIMESTAMP SWAP3 DUP2 ADD SWAP3 SWAP1 SWAP3 MSTORE PUSH1 0x60 DUP3 ADD MSTORE SWAP2 SWAP3 POP SWAP1 PUSH32 0x74A7C0C2E8065FCDBFCA5AE9F6CF0233E47E9E75B6FCF75674DD4B7E3F9B8183 SWAP1 PUSH1 0x80 ADD PUSH1 0x40 MLOAD DUP1 SWAP2 SUB SWAP1 LOG2 PUSH1 0x1 PUSH1 0x1 PUSH1 0xA0 SHL SUB DUP4 AND PUSH1 0x0 SWAP1 DUP2 MSTORE PUSH1 0x20 DUP2 SWAP1 MSTORE PUSH1 0x40 SWAP1 KECCAK256 PUSH1 0x2 ADD SLOAD DUP2 GT PUSH2 0x2DB JUMPI PUSH1 0x1 PUSH1 0x1 PUSH1 0xA0 SHL SUB DUP4 AND PUSH1 0x0 SWAP1 DUP2 MSTORE PUSH1 0x20 DUP2 SWAP1 MSTORE PUSH1 0x40 SWAP1 KECCAK256 PUSH1 0x2 ADD SLOAD PUSH2 0x2D6 SWAP1 DUP3 SWAP1 PUSH2 0x16BB JUMP JUMPDEST PUSH2 0x2DE JUMP JUMPDEST PUSH1 0x0 JUMPDEST SWAP4 SWAP3 POP POP POP JUMP JUMPDEST PUSH1 0x0 PUSH2 0x2F0 DUP3 PUSH2 0x379 JUMP JUMPDEST ISZERO PUSH2 0x352 JUMPI PUSH1 0x1 PUSH1 0x1 PUSH1 0xA0 SHL SUB DUP3 AND PUSH1 0x0 SWAP1 DUP2 MSTORE PUSH1 0x20 DUP2 SWAP1 MSTORE PUSH1 0x40 SWAP1 KECCAK256 PUSH1 0x3 ADD SLOAD ISZERO PUSH2 0x352 JUMPI PUSH1 0x0 PUSH2 0x321 DUP4 PUSH2 0x1F7 JUMP JUMPDEST SWAP1 POP PUSH1 0x0 DUP2 GT PUSH2 0x350 JUMPI PUSH1 0x1 PUSH1 0x1 PUSH1 0xA0 SHL SUB DUP4 AND PUSH1 0x0 SWAP1 DUP2 MSTORE PUSH1 0x20 DUP2 SWAP1 MSTORE PUSH1 0x40 SWAP1 KECCAK256 PUSH1 0x4 ADD DUP1 SLOAD PUSH2 0xFF00 NOT AND SWAP1 SSTORE JUMPDEST POP JUMPDEST POP PUSH1 0x1 PUSH1 0x1 PUSH1 0xA0 SHL SUB AND PUSH1 0x0 SWAP1 DUP2 MSTORE PUSH1 0x20 DUP2 SWAP1 MSTORE PUSH1 0x40 SWAP1 KECCAK256 PUSH1 0x4 ADD SLOAD PUSH2 0x100 SWAP1 DIV PUSH1 0xFF AND SWAP1 JUMP JUMPDEST PUSH1 0x1 PUSH1 0x1 PUSH1 0xA0 SHL SUB DUP2 AND PUSH1 0x0 SWAP1 DUP2 MSTORE PUSH1 0x20 DUP2 SWAP1 MSTORE PUSH1 0x40 DUP2 KECCAK256 SLOAD PUSH1 0xFF AND PUSH2 0x3E6 JUMPI PUSH1 0x40 MLOAD PUSH3 0x461BCD PUSH1 0xE5 SHL DUP2 MSTORE PUSH1 0x20 PUSH1 0x4 DUP3 ADD MSTORE PUSH1 0x19 PUSH1 0x24 DUP3 ADD MSTORE PUSH32 0x42656E65666163746F7220646F6573206E6F7420657869737400000000000000 PUSH1 0x44 DUP3 ADD MSTORE PUSH1 0x64 ADD JUMPDEST PUSH1 0x40 MLOAD DUP1 SWAP2 SUB SWAP1 REVERT JUMPDEST POP PUSH1 0x1 PUSH1 0x1 PUSH1 0xA0 SHL SUB AND PUSH1 0x0 SWAP1 DUP2 MSTORE PUSH1 0x20 DUP2 SWAP1 MSTORE PUSH1 0x40 SWAP1 KECCAK256 PUSH1 0x4 ADD SLOAD PUSH1 0xFF AND ISZERO SWAP1 JUMP JUMPDEST PUSH1 0x1 PUSH1 0x1 PUSH1 0xA0 SHL SUB DUP1 DUP4 AND PUSH1 0x0 SWAP1 DUP2 MSTORE PUSH1 0x20 DUP2 DUP2 MSTORE PUSH1 0x40 DUP1 DUP4 KECCAK256 SWAP4 DUP6 AND DUP4 MSTORE PUSH1 0x1 SWAP1 SWAP4 ADD SWAP1 MSTORE KECCAK256 SLOAD PUSH1 0xFF AND JUMPDEST SWAP3 SWAP2 POP POP JUMP JUMPDEST CALLER PUSH1 0x0 SWAP1 DUP2 MSTORE PUSH1 0x20 DUP2 SWAP1 MSTORE PUSH1 0x40 SWAP1 KECCAK256 SLOAD PUSH1 0xFF AND ISZERO PUSH2 0x49B JUMPI PUSH1 0x40 MLOAD PUSH3 0x461BCD PUSH1 0xE5 SHL DUP2 MSTORE PUSH1 0x20 PUSH1 0x4 DUP3 ADD MSTORE PUSH1 0x19 PUSH1 0x24 DUP3 ADD MSTORE PUSH32 0x62656E65666163746F7220616C72656164792065786973747300000000000000 PUSH1 0x44 DUP3 ADD MSTORE PUSH1 0x64 ADD PUSH2 0x3DD JUMP JUMPDEST CALLER PUSH1 0x0 SWAP1 DUP2 MSTORE PUSH1 0x20 DUP2 SWAP1 MSTORE PUSH1 0x40 DUP2 KECCAK256 DUP1 SLOAD PUSH1 0xFF NOT AND PUSH1 0x1 OR DUP2 SSTORE PUSH3 0x93A80 PUSH1 0x2 DUP3 ADD SSTORE PUSH1 0x4 DUP2 ADD DUP1 SLOAD PUSH2 0x101 PUSH2 0xFFFF NOT SWAP1 SWAP2 AND OR SWAP1 SSTORE PUSH1 0x3 ADD SSTORE JUMP JUMPDEST CALLER PUSH1 0x0 SWAP1 DUP2 MSTORE PUSH1 0x20 DUP2 SWAP1 MSTORE PUSH1 0x40 SWAP1 KECCAK256 SLOAD PUSH1 0xFF AND DUP1 ISZERO PUSH2 0x50D JUMPI POP CALLER PUSH1 0x0 SWAP1 DUP2 MSTORE PUSH1 0x20 DUP2 SWAP1 MSTORE PUSH1 0x40 SWAP1 KECCAK256 PUSH1 0x4 ADD SLOAD PUSH2 0x100 SWAP1 DIV PUSH1 0xFF AND JUMPDEST PUSH2 0x552 JUMPI PUSH1 0x40 MLOAD PUSH3 0x461BCD PUSH1 0xE5 SHL DUP2 MSTORE PUSH1 0x20 PUSH1 0x4 DUP3 ADD MSTORE PUSH1 0x16 PUSH1 0x24 DUP3 ADD MSTORE PUSH22 0x2737BA1030903B30B634B2103132B732B330B1BA37B9 PUSH1 0x51 SHL PUSH1 0x44 DUP3 ADD MSTORE PUSH1 0x64 ADD PUSH2 0x3DD JUMP JUMPDEST PUSH2 0x55C CALLER DUP4 PUSH2 0x409 JUMP JUMPDEST PUSH2 0x5A0 JUMPI PUSH1 0x40 MLOAD PUSH3 0x461BCD PUSH1 0xE5 SHL DUP2 MSTORE PUSH1 0x20 PUSH1 0x4 DUP3 ADD MSTORE PUSH1 0x15 PUSH1 0x24 DUP3 ADD MSTORE PUSH21 0x10995B99599A58DA585C9E481B9BDD08199BDD5B99 PUSH1 0x5A SHL PUSH1 0x44 DUP3 ADD MSTORE PUSH1 0x64 ADD PUSH2 0x3DD JUMP JUMPDEST CALLER PUSH1 0x0 SWAP1 DUP2 MSTORE PUSH1 0x20 DUP2 DUP2 MSTORE PUSH1 0x40 DUP1 DUP4 KECCAK256 PUSH1 0x1 PUSH1 0x1 PUSH1 0xA0 SHL SUB DUP7 AND DUP5 MSTORE PUSH1 0x1 SWAP1 DUP2 ADD SWAP1 SWAP3 MSTORE DUP3 KECCAK256 ADD SWAP1 JUMPDEST DUP2 SLOAD DUP2 LT ISZERO PUSH2 0x6C0 JUMPI DUP3 PUSH1 0x40 MLOAD PUSH1 0x20 ADD PUSH2 0x5E3 SWAP2 SWAP1 PUSH2 0x16CE JUMP JUMPDEST PUSH1 0x40 MLOAD PUSH1 0x20 DUP2 DUP4 SUB SUB DUP2 MSTORE SWAP1 PUSH1 0x40 MSTORE DUP1 MLOAD SWAP1 PUSH1 0x20 ADD KECCAK256 DUP3 DUP3 DUP2 SLOAD DUP2 LT PUSH2 0x60B JUMPI PUSH2 0x60B PUSH2 0x16EA JUMP JUMPDEST SWAP1 PUSH1 0x0 MSTORE PUSH1 0x20 PUSH1 0x0 KECCAK256 ADD PUSH1 0x40 MLOAD PUSH1 0x20 ADD PUSH2 0x625 SWAP2 SWAP1 PUSH2 0x173A JUMP JUMPDEST PUSH1 0x40 MLOAD PUSH1 0x20 DUP2 DUP4 SUB SUB DUP2 MSTORE SWAP1 PUSH1 0x40 MSTORE DUP1 MLOAD SWAP1 PUSH1 0x20 ADD KECCAK256 SUB PUSH2 0x6AE JUMPI PUSH1 0x40 MLOAD PUSH3 0x461BCD PUSH1 0xE5 SHL DUP2 MSTORE PUSH1 0x20 PUSH1 0x4 DUP3 ADD MSTORE PUSH1 0x28 PUSH1 0x24 DUP3 ADD MSTORE PUSH32 0x43494420616C72656164792061737369676E656420746F20746869732062656E PUSH1 0x44 DUP3 ADD MSTORE PUSH32 0x6566696369617279000000000000000000000000000000000000000000000000 PUSH1 0x64 DUP3 ADD MSTORE PUSH1 0x84 ADD PUSH2 0x3DD JUMP JUMPDEST DUP1 PUSH2 0x6B8 DUP2 PUSH2 0x17B0 JUMP JUMPDEST SWAP2 POP POP PUSH2 0x5C9 JUMP JUMPDEST POP CALLER PUSH1 0x0 SWAP1 DUP2 MSTORE PUSH1 0x20 DUP2 DUP2 MSTORE PUSH1 0x40 DUP1 DUP4 KECCAK256 PUSH1 0x1 PUSH1 0x1 PUSH1 0xA0 SHL SUB DUP8 AND DUP5 MSTORE PUSH1 0x1 SWAP1 DUP2 ADD DUP4 MSTORE SWAP1 DUP4 KECCAK256 DUP2 ADD DUP1 SLOAD SWAP2 DUP3 ADD DUP2 SSTORE DUP4 MSTORE SWAP2 KECCAK256 ADD PUSH2 0x6FF DUP4 DUP3 PUSH2 0x1818 JUMP JUMPDEST POP DUP3 PUSH1 0x1 PUSH1 0x1 PUSH1 0xA0 SHL SUB AND CALLER PUSH1 0x1 PUSH1 0x1 PUSH1 0xA0 SHL SUB AND PUSH32 0xA1BB52B874769D5C17CDE30E708E8F7180BB949F70E77CAF0DA68D25F9A1A510 DUP5 PUSH1 0x40 MLOAD PUSH2 0x743 SWAP2 SWAP1 PUSH2 0x18D8 JUMP JUMPDEST PUSH1 0x40 MLOAD DUP1 SWAP2 SUB SWAP1 LOG3 POP POP POP JUMP JUMPDEST CALLER PUSH1 0x0 SWAP1 DUP2 MSTORE PUSH1 0x20 DUP2 SWAP1 MSTORE PUSH1 0x40 SWAP1 KECCAK256 SLOAD PUSH1 0xFF AND DUP1 ISZERO PUSH2 0x786 JUMPI POP CALLER PUSH1 0x0 SWAP1 DUP2 MSTORE PUSH1 0x20 DUP2 SWAP1 MSTORE PUSH1 0x40 SWAP1 KECCAK256 PUSH1 0x4 ADD SLOAD PUSH2 0x100 SWAP1 DIV PUSH1 0xFF AND JUMPDEST PUSH2 0x7CB JUMPI PUSH1 0x40 MLOAD PUSH3 0x461BCD PUSH1 0xE5 SHL DUP2 MSTORE PUSH1 0x20 PUSH1 0x4 DUP3 ADD MSTORE PUSH1 0x16 PUSH1 0x24 DUP3 ADD MSTORE PUSH22 0x2737BA1030903B30B634B2103132B732B330B1BA37B9 PUSH1 0x51 SHL PUSH1 0x44 DUP3 ADD MSTORE PUSH1 0x64 ADD PUSH2 0x3DD JUMP JUMPDEST PUSH2 0x7D5 CALLER DUP3 PUSH2 0x409 JUMP JUMPDEST ISZERO PUSH2 0x822 JUMPI PUSH1 0x40 MLOAD PUSH3 0x461BCD PUSH1 0xE5 SHL DUP2 MSTORE PUSH1 0x20 PUSH1 0x4 DUP3 ADD MSTORE PUSH1 0x1A PUSH1 0x24 DUP3 ADD MSTORE PUSH32 0x42656E656669636961727920616C726561647920657869737473000000000000 PUSH1 0x44 DUP3 ADD MSTORE PUSH1 0x64 ADD PUSH2 0x3DD JUMP JUMPDEST PUSH1 0x40 DUP1 MLOAD DUP1 DUP3 ADD DUP3 MSTORE PUSH1 0x1 DUP2 MSTORE DUP2 MLOAD PUSH1 0x0 DUP1 DUP3 MSTORE PUSH1 0x20 DUP3 DUP2 ADD SWAP1 SWAP5 MSTORE SWAP2 SWAP3 DUP4 ADD SWAP2 PUSH2 0x85D JUMP JUMPDEST PUSH1 0x60 DUP2 MSTORE PUSH1 0x20 ADD SWAP1 PUSH1 0x1 SWAP1 SUB SWAP1 DUP2 PUSH2 0x848 JUMPI SWAP1 POP JUMPDEST POP SWAP1 MSTORE CALLER PUSH1 0x0 SWAP1 DUP2 MSTORE PUSH1 0x20 DUP2 DUP2 MSTORE PUSH1 0x40 DUP1 DUP4 KECCAK256 PUSH1 0x1 PUSH1 0x1 PUSH1 0xA0 SHL SUB DUP7 AND DUP5 MSTORE PUSH1 0x1 SWAP1 DUP2 ADD DUP4 MSTORE SWAP3 KECCAK256 DUP4 MLOAD DUP2 SLOAD PUSH1 0xFF NOT AND SWAP1 ISZERO ISZERO OR DUP2 SSTORE DUP4 DUP3 ADD MLOAD DUP1 MLOAD SWAP2 SWAP4 PUSH2 0x8AB SWAP4 SWAP1 DUP6 ADD SWAP3 SWAP2 ADD SWAP1 PUSH2 0x13CE JUMP JUMPDEST POP POP PUSH1 0x40 MLOAD PUSH1 0x1 PUSH1 0x1 PUSH1 0xA0 SHL SUB DUP4 AND SWAP2 POP CALLER SWAP1 PUSH32 0xBB39C36A7502B7256E1A687254146A9A2EA7B146C77CB9E40EB0E2B8793781E1 SWAP1 PUSH1 0x0 SWAP1 LOG3 POP JUMP JUMPDEST CALLER PUSH1 0x0 SWAP1 DUP2 MSTORE PUSH1 0x20 DUP2 SWAP1 MSTORE PUSH1 0x40 SWAP1 KECCAK256 SLOAD PUSH1 0xFF AND DUP1 ISZERO PUSH2 0x91D JUMPI POP CALLER PUSH1 0x0 SWAP1 DUP2 MSTORE PUSH1 0x20 DUP2 SWAP1 MSTORE PUSH1 0x40 SWAP1 KECCAK256 PUSH1 0x4 ADD SLOAD PUSH2 0x100 SWAP1 DIV PUSH1 0xFF AND JUMPDEST PUSH2 0x962 JUMPI PUSH1 0x40 MLOAD PUSH3 0x461BCD PUSH1 0xE5 SHL DUP2 MSTORE PUSH1 0x20 PUSH1 0x4 DUP3 ADD MSTORE PUSH1 0x16 PUSH1 0x24 DUP3 ADD MSTORE PUSH22 0x2737BA1030903B30B634B2103132B732B330B1BA37B9 PUSH1 0x51 SHL PUSH1 0x44 DUP3 ADD MSTORE PUSH1 0x64 ADD PUSH2 0x3DD JUMP JUMPDEST PUSH2 0x96C CALLER DUP3 PUSH2 0x409 JUMP JUMPDEST PUSH2 0x9B0 JUMPI PUSH1 0x40 MLOAD PUSH3 0x461BCD PUSH1 0xE5 SHL DUP2 MSTORE PUSH1 0x20 PUSH1 0x4 DUP3 ADD MSTORE PUSH1 0x15 PUSH1 0x24 DUP3 ADD MSTORE PUSH21 0x10995B99599A58DA585C9E481B9BDD08199BDD5B99 PUSH1 0x5A SHL PUSH1 0x44 DUP3 ADD MSTORE PUSH1 0x64 ADD PUSH2 0x3DD JUMP JUMPDEST CALLER PUSH1 0x0 SWAP1 DUP2 MSTORE PUSH1 0x20 DUP2 DUP2 MSTORE PUSH1 0x40 DUP1 DUP4 KECCAK256 PUSH1 0x1 PUSH1 0x1 PUSH1 0xA0 SHL SUB DUP6 AND DUP5 MSTORE PUSH1 0x1 SWAP1 DUP2 ADD SWAP1 SWAP3 MSTORE DUP3 KECCAK256 DUP1 SLOAD PUSH1 0xFF NOT AND DUP2 SSTORE SWAP2 SWAP1 PUSH2 0x9EC SWAP1 DUP4 ADD DUP3 PUSH2 0x1424 JUMP JUMPDEST POP POP PUSH1 0x40 MLOAD PUSH1 0x1 PUSH1 0x1 PUSH1 0xA0 SHL SUB DUP3 AND SWAP1 CALLER SWAP1 PUSH32 0x1A6590BD0CABBFCC7C86BEF99E1034054E179905CFCC294598FCD426C0922442 SWAP1 PUSH1 0x0 SWAP1 LOG3 POP JUMP JUMPDEST CALLER PUSH1 0x0 SWAP1 DUP2 MSTORE PUSH1 0x20 DUP2 SWAP1 MSTORE PUSH1 0x40 SWAP1 KECCAK256 SLOAD PUSH1 0xFF AND DUP1 ISZERO PUSH2 0xA5D JUMPI POP CALLER PUSH1 0x0 SWAP1 DUP2 MSTORE PUSH1 0x20 DUP2 SWAP1 MSTORE PUSH1 0x40 SWAP1 KECCAK256 PUSH1 0x4 ADD SLOAD PUSH2 0x100 SWAP1 DIV PUSH1 0xFF AND JUMPDEST PUSH2 0xAA2 JUMPI PUSH1 0x40 MLOAD PUSH3 0x461BCD PUSH1 0xE5 SHL DUP2 MSTORE PUSH1 0x20 PUSH1 0x4 DUP3 ADD MSTORE PUSH1 0x16 PUSH1 0x24 DUP3 ADD MSTORE PUSH22 0x2737BA1030903B30B634B2103132B732B330B1BA37B9 PUSH1 0x51 SHL PUSH1 0x44 DUP3 ADD MSTORE PUSH1 0x64 ADD PUSH2 0x3DD JUMP JUMPDEST PUSH2 0xAAC CALLER DUP4 PUSH2 0x409 JUMP JUMPDEST PUSH2 0xAF0 JUMPI PUSH1 0x40 MLOAD PUSH3 0x461BCD PUSH1 0xE5 SHL DUP2 MSTORE PUSH1 0x20 PUSH1 0x4 DUP3 ADD MSTORE PUSH1 0x15 PUSH1 0x24 DUP3 ADD MSTORE PUSH21 0x10995B99599A58DA585C9E481B9BDD08199BDD5B99 PUSH1 0x5A SHL PUSH1 0x44 DUP3 ADD MSTORE PUSH1 0x64 ADD PUSH2 0x3DD JUMP JUMPDEST CALLER PUSH1 0x0 SWAP1 DUP2 MSTORE PUSH1 0x20 DUP2 DUP2 MSTORE PUSH1 0x40 DUP1 DUP4 KECCAK256 PUSH1 0x1 PUSH1 0x1 PUSH1 0xA0 SHL SUB DUP7 AND DUP5 MSTORE PUSH1 0x1 SWAP1 DUP2 ADD SWAP1 SWAP3 MSTORE DUP3 KECCAK256 ADD SWAP1 JUMPDEST DUP2 SLOAD DUP2 LT ISZERO PUSH2 0xC74 JUMPI DUP3 PUSH1 0x40 MLOAD PUSH1 0x20 ADD PUSH2 0xB33 SWAP2 SWAP1 PUSH2 0x16CE JUMP JUMPDEST PUSH1 0x40 MLOAD PUSH1 0x20 DUP2 DUP4 SUB SUB DUP2 MSTORE SWAP1 PUSH1 0x40 MSTORE DUP1 MLOAD SWAP1 PUSH1 0x20 ADD KECCAK256 DUP3 DUP3 DUP2 SLOAD DUP2 LT PUSH2 0xB5B JUMPI PUSH2 0xB5B PUSH2 0x16EA JUMP JUMPDEST SWAP1 PUSH1 0x0 MSTORE PUSH1 0x20 PUSH1 0x0 KECCAK256 ADD PUSH1 0x40 MLOAD PUSH1 0x20 ADD PUSH2 0xB75 SWAP2 SWAP1 PUSH2 0x173A JUMP JUMPDEST PUSH1 0x40 MLOAD PUSH1 0x20 DUP2 DUP4 SUB SUB DUP2 MSTORE SWAP1 PUSH1 0x40 MSTORE DUP1 MLOAD SWAP1 PUSH1 0x20 ADD KECCAK256 SUB PUSH2 0xC62 JUMPI DUP2 SLOAD DUP3 SWAP1 PUSH2 0xBA0 SWAP1 PUSH1 0x1 SWAP1 PUSH2 0x16BB JUMP JUMPDEST DUP2 SLOAD DUP2 LT PUSH2 0xBB0 JUMPI PUSH2 0xBB0 PUSH2 0x16EA JUMP JUMPDEST SWAP1 PUSH1 0x0 MSTORE PUSH1 0x20 PUSH1 0x0 KECCAK256 ADD DUP3 DUP3 DUP2 SLOAD DUP2 LT PUSH2 0xBCC JUMPI PUSH2 0xBCC PUSH2 0x16EA JUMP JUMPDEST SWAP1 PUSH1 0x0 MSTORE PUSH1 0x20 PUSH1 0x0 KECCAK256 ADD SWAP1 DUP2 PUSH2 0xBE2 SWAP2 SWAP1 PUSH2 0x18EB JUMP JUMPDEST POP DUP2 DUP1 SLOAD DUP1 PUSH2 0xBF3 JUMPI PUSH2 0xBF3 PUSH2 0x19C6 JUMP JUMPDEST PUSH1 0x1 SWAP1 SUB DUP2 DUP2 SWAP1 PUSH1 0x0 MSTORE PUSH1 0x20 PUSH1 0x0 KECCAK256 ADD PUSH1 0x0 PUSH2 0xC0F SWAP2 SWAP1 PUSH2 0x1445 JUMP JUMPDEST SWAP1 SSTORE DUP4 PUSH1 0x1 PUSH1 0x1 PUSH1 0xA0 SHL SUB AND CALLER PUSH1 0x1 PUSH1 0x1 PUSH1 0xA0 SHL SUB AND PUSH32 0x4C13211CE3B2D0CB3E02A662CC071D6BE555042CA58D4D812B7B90E80D3250AC DUP6 PUSH1 0x40 MLOAD PUSH2 0xC54 SWAP2 SWAP1 PUSH2 0x18D8 JUMP JUMPDEST PUSH1 0x40 MLOAD DUP1 SWAP2 SUB SWAP1 LOG3 POP POP POP POP JUMP JUMPDEST DUP1 PUSH2 0xC6C DUP2 PUSH2 0x17B0 JUMP JUMPDEST SWAP2 POP POP PUSH2 0xB19 JUMP JUMPDEST POP PUSH1 0x40 MLOAD PUSH3 0x461BCD PUSH1 0xE5 SHL DUP2 MSTORE PUSH1 0x20 PUSH1 0x4 DUP3 ADD MSTORE PUSH1 0x24 DUP1 DUP3 ADD MSTORE PUSH32 0x434944206E6F742061737369676E656420746F20746869732062656E65666963 PUSH1 0x44 DUP3 ADD MSTORE PUSH4 0x69617279 PUSH1 0xE0 SHL PUSH1 0x64 DUP3 ADD MSTORE PUSH1 0x84 ADD PUSH2 0x3DD JUMP JUMPDEST PUSH1 0x1 PUSH1 0x1 PUSH1 0xA0 SHL SUB DUP2 AND PUSH1 0x0 SWAP1 DUP2 MSTORE PUSH1 0x20 DUP2 DUP2 MSTORE PUSH1 0x40 DUP1 DUP4 KECCAK256 CALLER DUP5 MSTORE PUSH1 0x1 ADD SWAP1 SWAP2 MSTORE SWAP1 KECCAK256 SLOAD PUSH1 0xFF AND PUSH2 0xD3D JUMPI PUSH1 0x40 MLOAD PUSH3 0x461BCD PUSH1 0xE5 SHL DUP2 MSTORE PUSH1 0x20 PUSH1 0x4 DUP3 ADD MSTORE PUSH1 0x17 PUSH1 0x24 DUP3 ADD MSTORE PUSH32 0x4E6F7420612076616C69642062656E6566696369617279000000000000000000 PUSH1 0x44 DUP3 ADD MSTORE PUSH1 0x64 ADD PUSH2 0x3DD JUMP JUMPDEST PUSH1 0x1 PUSH1 0x1 PUSH1 0xA0 SHL SUB DUP2 AND PUSH1 0x0 SWAP1 DUP2 MSTORE PUSH1 0x20 DUP2 SWAP1 MSTORE PUSH1 0x40 SWAP1 KECCAK256 PUSH1 0x4 ADD SLOAD PUSH1 0xFF AND PUSH2 0xD99 JUMPI PUSH1 0x40 MLOAD CALLER SWAP1 PUSH1 0x1 PUSH1 0x1 PUSH1 0xA0 SHL SUB DUP4 AND SWAP1 PUSH32 0x67C4731BDC193862F421E091D18F46DF876BFE1B8B9AA97504F1D50D425B239D SWAP1 PUSH1 0x0 SWAP1 LOG3 POP JUMP JUMPDEST PUSH1 0x1 PUSH1 0x1 PUSH1 0xA0 SHL SUB DUP2 AND PUSH1 0x0 DUP2 DUP2 MSTORE PUSH1 0x20 DUP2 DUP2 MSTORE PUSH1 0x40 SWAP2 DUP3 SWAP1 KECCAK256 PUSH1 0x4 DUP2 ADD DUP1 SLOAD PUSH1 0xFF NOT AND SWAP1 SSTORE TIMESTAMP PUSH1 0x3 DUP3 ADD SSTORE PUSH1 0x2 ADD SLOAD SWAP2 MLOAD SWAP2 DUP3 MSTORE CALLER SWAP3 SWAP2 PUSH32 0x82595752291D0261DFB9B4B0C2307021C29C34E22FE0697B4840B529DC351BC3 SWAP2 ADD PUSH1 0x40 MLOAD DUP1 SWAP2 SUB SWAP1 LOG3 POP JUMP JUMPDEST CALLER PUSH1 0x0 SWAP1 DUP2 MSTORE PUSH1 0x20 DUP2 SWAP1 MSTORE PUSH1 0x40 SWAP1 KECCAK256 SLOAD PUSH1 0xFF AND PUSH2 0xE5E JUMPI PUSH1 0x40 MLOAD PUSH3 0x461BCD PUSH1 0xE5 SHL DUP2 MSTORE PUSH1 0x20 PUSH1 0x4 DUP3 ADD MSTORE PUSH1 0x19 PUSH1 0x24 DUP3 ADD MSTORE PUSH32 0x42656E65666163746F72206E6F74207265676973746572656400000000000000 PUSH1 0x44 DUP3 ADD MSTORE PUSH1 0x64 ADD PUSH2 0x3DD JUMP JUMPDEST CALLER PUSH1 0x0 SWAP1 DUP2 MSTORE PUSH1 0x20 DUP2 SWAP1 MSTORE PUSH1 0x40 DUP1 DUP3 KECCAK256 DUP1 SLOAD PUSH1 0xFF NOT SWAP1 DUP2 AND SWAP1 SWAP2 SSTORE PUSH1 0x1 PUSH1 0x1 PUSH1 0xA0 SHL SUB SWAP4 SWAP1 SWAP4 AND DUP3 MSTORE DUP2 KECCAK256 DUP1 SLOAD SWAP1 SWAP3 AND DUP3 SSTORE PUSH1 0x2 DUP3 ADD DUP2 SWAP1 SSTORE PUSH1 0x3 DUP3 ADD SSTORE PUSH1 0x4 ADD DUP1 SLOAD PUSH2 0xFFFF NOT AND SWAP1 SSTORE JUMP JUMPDEST CALLER PUSH1 0x0 SWAP1 DUP2 MSTORE PUSH1 0x20 DUP2 SWAP1 MSTORE PUSH1 0x40 SWAP1 KECCAK256 SLOAD PUSH1 0xFF AND DUP1 ISZERO PUSH2 0xEE0 JUMPI POP CALLER PUSH1 0x0 SWAP1 DUP2 MSTORE PUSH1 0x20 DUP2 SWAP1 MSTORE PUSH1 0x40 SWAP1 KECCAK256 PUSH1 0x4 ADD SLOAD PUSH2 0x100 SWAP1 DIV PUSH1 0xFF AND JUMPDEST PUSH2 0xF25 JUMPI PUSH1 0x40 MLOAD PUSH3 0x461BCD PUSH1 0xE5 SHL DUP2 MSTORE PUSH1 0x20 PUSH1 0x4 DUP3 ADD MSTORE PUSH1 0x16 PUSH1 0x24 DUP3 ADD MSTORE PUSH22 0x2737BA1030903B30B634B2103132B732B330B1BA37B9 PUSH1 0x51 SHL PUSH1 0x44 DUP3 ADD MSTORE PUSH1 0x64 ADD PUSH2 0x3DD JUMP JUMPDEST CALLER PUSH1 0x0 SWAP1 DUP2 MSTORE PUSH1 0x20 DUP2 SWAP1 MSTORE PUSH1 0x40 SWAP1 KECCAK256 PUSH1 0x3 ADD SLOAD ISZERO PUSH2 0x1058 JUMPI PUSH2 0xF46 CALLER PUSH2 0x2E5 JUMP JUMPDEST ISZERO PUSH2 0xFDC JUMPI CALLER PUSH1 0x1 PUSH1 0x1 PUSH1 0xA0 SHL SUB AND PUSH32 0x793324A6F079E577F4A4646C7EC753EFD3BEDDC2F4CE07BFAE5F105C449AC356 PUSH1 0x40 MLOAD PUSH2 0xFB4 SWAP1 PUSH1 0x20 DUP1 DUP3 MSTORE PUSH1 0x13 SWAP1 DUP3 ADD MSTORE PUSH32 0x42656E65666163746F7220697320616C69766500000000000000000000000000 PUSH1 0x40 DUP3 ADD MSTORE PUSH1 0x60 ADD SWAP1 JUMP JUMPDEST PUSH1 0x40 MLOAD DUP1 SWAP2 SUB SWAP1 LOG2 PUSH2 0xFC4 PUSH2 0x12AE JUMP JUMPDEST CALLER PUSH1 0x0 SWAP1 DUP2 MSTORE PUSH1 0x20 DUP2 SWAP1 MSTORE PUSH1 0x40 SWAP1 KECCAK256 TIMESTAMP PUSH1 0x3 SWAP1 SWAP2 ADD SSTORE JUMP JUMPDEST PUSH2 0xFE5 CALLER PUSH2 0xDFF JUMP JUMPDEST CALLER PUSH1 0x1 PUSH1 0x1 PUSH1 0xA0 SHL SUB AND PUSH32 0x5A68FA7D6B655A3E592D5D99AC82863424750E9D262C902F30F9E56655E7A856 PUSH1 0x40 MLOAD PUSH2 0x104E SWAP1 PUSH1 0x20 DUP1 DUP3 MSTORE PUSH1 0x12 SWAP1 DUP3 ADD MSTORE PUSH32 0x42656E65666163746F7220697320646561640000000000000000000000000000 PUSH1 0x40 DUP3 ADD MSTORE PUSH1 0x60 ADD SWAP1 JUMP JUMPDEST PUSH1 0x40 MLOAD DUP1 SWAP2 SUB SWAP1 LOG2 JUMP JUMPDEST CALLER PUSH1 0x1 PUSH1 0x1 PUSH1 0xA0 SHL SUB AND PUSH32 0x793324A6F079E577F4A4646C7EC753EFD3BEDDC2F4CE07BFAE5F105C449AC356 PUSH1 0x40 MLOAD PUSH2 0xFB4 SWAP1 PUSH1 0x20 DUP1 DUP3 MSTORE PUSH1 0x13 SWAP1 DUP3 ADD MSTORE PUSH32 0x42656E65666163746F7220697320616C69766500000000000000000000000000 PUSH1 0x40 DUP3 ADD MSTORE PUSH1 0x60 ADD SWAP1 JUMP JUMPDEST PUSH1 0x60 PUSH2 0x10CD DUP4 DUP4 PUSH2 0x409 JUMP JUMPDEST PUSH2 0x1111 JUMPI PUSH1 0x40 MLOAD PUSH3 0x461BCD PUSH1 0xE5 SHL DUP2 MSTORE PUSH1 0x20 PUSH1 0x4 DUP3 ADD MSTORE PUSH1 0x15 PUSH1 0x24 DUP3 ADD MSTORE PUSH21 0x10995B99599A58DA585C9E481B9BDD08199BDD5B99 PUSH1 0x5A SHL PUSH1 0x44 DUP3 ADD MSTORE PUSH1 0x64 ADD PUSH2 0x3DD JUMP JUMPDEST PUSH1 0x1 PUSH1 0x1 PUSH1 0xA0 SHL SUB DUP4 AND PUSH1 0x0 SWAP1 DUP2 MSTORE PUSH1 0x20 DUP2 DUP2 MSTORE PUSH1 0x40 DUP1 DUP4 KECCAK256 CALLER DUP5 MSTORE PUSH1 0x1 ADD SWAP1 SWAP2 MSTORE SWAP1 KECCAK256 SLOAD PUSH1 0xFF AND DUP1 ISZERO PUSH2 0x1166 JUMPI POP PUSH1 0x1 PUSH1 0x1 PUSH1 0xA0 SHL SUB DUP4 AND PUSH1 0x0 SWAP1 DUP2 MSTORE PUSH1 0x20 DUP2 SWAP1 MSTORE PUSH1 0x40 SWAP1 KECCAK256 PUSH1 0x4 ADD SLOAD PUSH2 0x100 SWAP1 DIV PUSH1 0xFF AND ISZERO JUMPDEST PUSH2 0x11B2 JUMPI PUSH1 0x40 MLOAD PUSH3 0x461BCD PUSH1 0xE5 SHL DUP2 MSTORE PUSH1 0x20 PUSH1 0x4 DUP3 ADD MSTORE PUSH1 0x11 PUSH1 0x24 DUP3 ADD MSTORE PUSH32 0x4E6F2061636365737320746F2043494473000000000000000000000000000000 PUSH1 0x44 DUP3 ADD MSTORE PUSH1 0x64 ADD PUSH2 0x3DD JUMP JUMPDEST PUSH1 0x1 PUSH1 0x1 PUSH1 0xA0 SHL SUB DUP1 DUP5 AND PUSH1 0x0 SWAP1 DUP2 MSTORE PUSH1 0x20 DUP2 DUP2 MSTORE PUSH1 0x40 DUP1 DUP4 KECCAK256 SWAP4 DUP7 AND DUP4 MSTORE PUSH1 0x1 SWAP4 DUP5 ADD DUP3 MSTORE DUP1 DUP4 KECCAK256 SWAP1 SWAP4 ADD DUP1 SLOAD DUP5 MLOAD DUP2 DUP5 MUL DUP2 ADD DUP5 ADD SWAP1 SWAP6 MSTORE DUP1 DUP6 MSTORE SWAP1 SWAP3 SWAP1 SWAP2 DUP5 ADD JUMPDEST DUP3 DUP3 LT ISZERO PUSH2 0x12A2 JUMPI DUP4 DUP3 SWAP1 PUSH1 0x0 MSTORE PUSH1 0x20 PUSH1 0x0 KECCAK256 ADD DUP1 SLOAD PUSH2 0x1215 SWAP1 PUSH2 0x1700 JUMP JUMPDEST DUP1 PUSH1 0x1F ADD PUSH1 0x20 DUP1 SWAP2 DIV MUL PUSH1 0x20 ADD PUSH1 0x40 MLOAD SWAP1 DUP2 ADD PUSH1 0x40 MSTORE DUP1 SWAP3 SWAP2 SWAP1 DUP2 DUP2 MSTORE PUSH1 0x20 ADD DUP3 DUP1 SLOAD PUSH2 0x1241 SWAP1 PUSH2 0x1700 JUMP JUMPDEST DUP1 ISZERO PUSH2 0x128E JUMPI DUP1 PUSH1 0x1F LT PUSH2 0x1263 JUMPI PUSH2 0x100 DUP1 DUP4 SLOAD DIV MUL DUP4 MSTORE SWAP2 PUSH1 0x20 ADD SWAP2 PUSH2 0x128E JUMP JUMPDEST DUP3 ADD SWAP2 SWAP1 PUSH1 0x0 MSTORE PUSH1 0x20 PUSH1 0x0 KECCAK256 SWAP1 JUMPDEST DUP2 SLOAD DUP2 MSTORE SWAP1 PUSH1 0x1 ADD SWAP1 PUSH1 0x20 ADD DUP1 DUP4 GT PUSH2 0x1271 JUMPI DUP3 SWAP1 SUB PUSH1 0x1F AND DUP3 ADD SWAP2 JUMPDEST POP POP POP POP POP DUP2 MSTORE PUSH1 0x20 ADD SWAP1 PUSH1 0x1 ADD SWAP1 PUSH2 0x11F6 JUMP JUMPDEST POP POP POP POP SWAP1 POP SWAP3 SWAP2 POP POP JUMP JUMPDEST CALLER PUSH1 0x0 SWAP1 DUP2 MSTORE PUSH1 0x20 DUP2 SWAP1 MSTORE PUSH1 0x40 SWAP1 KECCAK256 SLOAD PUSH1 0xFF AND DUP1 ISZERO PUSH2 0x12E4 JUMPI POP CALLER PUSH1 0x0 SWAP1 DUP2 MSTORE PUSH1 0x20 DUP2 SWAP1 MSTORE PUSH1 0x40 SWAP1 KECCAK256 PUSH1 0x4 ADD SLOAD PUSH2 0x100 SWAP1 DIV PUSH1 0xFF AND JUMPDEST PUSH2 0x1329 JUMPI PUSH1 0x40 MLOAD PUSH3 0x461BCD PUSH1 0xE5 SHL DUP2 MSTORE PUSH1 0x20 PUSH1 0x4 DUP3 ADD MSTORE PUSH1 0x16 PUSH1 0x24 DUP3 ADD MSTORE PUSH22 0x2737BA1030903B30B634B2103132B732B330B1BA37B9 PUSH1 0x51 SHL PUSH1 0x44 DUP3 ADD MSTORE PUSH1 0x64 ADD PUSH2 0x3DD JUMP JUMPDEST CALLER PUSH1 0x0 SWAP1 DUP2 MSTORE PUSH1 0x20 DUP2 SWAP1 MSTORE PUSH1 0x40 SWAP1 KECCAK256 PUSH1 0x4 ADD SLOAD PUSH1 0xFF AND ISZERO PUSH2 0x1373 JUMPI PUSH1 0x40 MLOAD CALLER SWAP1 DUP2 SWAP1 PUSH32 0x439C5AAF7691CB4808DBD2A240323CE9EC0D04D66DDF65FFD5F88EBD60FA745B SWAP1 PUSH1 0x0 SWAP1 LOG3 JUMP JUMPDEST CALLER PUSH1 0x0 DUP2 DUP2 MSTORE PUSH1 0x20 DUP2 SWAP1 MSTORE PUSH1 0x40 SWAP1 DUP2 SWAP1 KECCAK256 PUSH1 0x4 ADD DUP1 SLOAD PUSH1 0xFF NOT AND PUSH1 0x1 OR SWAP1 SSTORE MLOAD DUP2 SWAP1 PUSH32 0x9BAA855D20DE9B1A4DB454F55B09D1DB5F42F0871BBEA3B0C699146ADE171625 SWAP1 PUSH2 0x13C4 SWAP1 TIMESTAMP DUP2 MSTORE PUSH1 0x20 ADD SWAP1 JUMP JUMPDEST PUSH1 0x40 MLOAD DUP1 SWAP2 SUB SWAP1 LOG3 JUMP JUMPDEST DUP3 DUP1 SLOAD DUP3 DUP3 SSTORE SWAP1 PUSH1 0x0 MSTORE PUSH1 0x20 PUSH1 0x0 KECCAK256 SWAP1 DUP2 ADD SWAP3 DUP3 ISZERO PUSH2 0x1414 JUMPI SWAP2 PUSH1 0x20 MUL DUP3 ADD JUMPDEST DUP3 DUP2 GT ISZERO PUSH2 0x1414 JUMPI DUP3 MLOAD DUP3 SWAP1 PUSH2 0x1404 SWAP1 DUP3 PUSH2 0x1818 JUMP JUMPDEST POP SWAP2 PUSH1 0x20 ADD SWAP2 SWAP1 PUSH1 0x1 ADD SWAP1 PUSH2 0x13EE JUMP JUMPDEST POP PUSH2 0x1420 SWAP3 SWAP2 POP PUSH2 0x147F JUMP JUMPDEST POP SWAP1 JUMP JUMPDEST POP DUP1 SLOAD PUSH1 0x0 DUP3 SSTORE SWAP1 PUSH1 0x0 MSTORE PUSH1 0x20 PUSH1 0x0 KECCAK256 SWAP1 DUP2 ADD SWAP1 PUSH2 0x1442 SWAP2 SWAP1 PUSH2 0x147F JUMP JUMPDEST POP JUMP JUMPDEST POP DUP1 SLOAD PUSH2 0x1451 SWAP1 PUSH2 0x1700 JUMP JUMPDEST PUSH1 0x0 DUP3 SSTORE DUP1 PUSH1 0x1F LT PUSH2 0x1461 JUMPI POP POP JUMP JUMPDEST PUSH1 0x1F ADD PUSH1 0x20 SWAP1 DIV SWAP1 PUSH1 0x0 MSTORE PUSH1 0x20 PUSH1 0x0 KECCAK256 SWAP1 DUP2 ADD SWAP1 PUSH2 0x1442 SWAP2 SWAP1 PUSH2 0x149C JUMP JUMPDEST DUP1 DUP3 GT ISZERO PUSH2 0x1420 JUMPI PUSH1 0x0 PUSH2 0x1493 DUP3 DUP3 PUSH2 0x1445 JUMP JUMPDEST POP PUSH1 0x1 ADD PUSH2 0x147F JUMP JUMPDEST JUMPDEST DUP1 DUP3 GT ISZERO PUSH2 0x1420 JUMPI PUSH1 0x0 DUP2 SSTORE PUSH1 0x1 ADD PUSH2 0x149D JUMP JUMPDEST DUP1 CALLDATALOAD PUSH1 0x1 PUSH1 0x1 PUSH1 0xA0 SHL SUB DUP2 AND DUP2 EQ PUSH2 0x14C8 JUMPI PUSH1 0x0 DUP1 REVERT JUMPDEST SWAP2 SWAP1 POP JUMP JUMPDEST PUSH1 0x0 PUSH1 0x20 DUP3 DUP5 SUB SLT ISZERO PUSH2 0x14DF JUMPI PUSH1 0x0 DUP1 REVERT JUMPDEST PUSH2 0x2DE DUP3 PUSH2 0x14B1 JUMP JUMPDEST PUSH1 0x0 DUP1 PUSH1 0x40 DUP4 DUP6 SUB SLT ISZERO PUSH2 0x14FB JUMPI PUSH1 0x0 DUP1 REVERT JUMPDEST PUSH2 0x1504 DUP4 PUSH2 0x14B1 JUMP JUMPDEST SWAP2 POP PUSH2 0x1512 PUSH1 0x20 DUP5 ADD PUSH2 0x14B1 JUMP JUMPDEST SWAP1 POP SWAP3 POP SWAP3 SWAP1 POP JUMP JUMPDEST PUSH4 0x4E487B71 PUSH1 0xE0 SHL PUSH1 0x0 MSTORE PUSH1 0x41 PUSH1 0x4 MSTORE PUSH1 0x24 PUSH1 0x0 REVERT JUMPDEST PUSH1 0x0 DUP1 PUSH1 0x40 DUP4 DUP6 SUB SLT ISZERO PUSH2 0x1544 JUMPI PUSH1 0x0 DUP1 REVERT JUMPDEST PUSH2 0x154D DUP4 PUSH2 0x14B1 JUMP JUMPDEST SWAP2 POP PUSH1 0x20 DUP4 ADD CALLDATALOAD PUSH8 0xFFFFFFFFFFFFFFFF DUP1 DUP3 GT ISZERO PUSH2 0x156A JUMPI PUSH1 0x0 DUP1 REVERT JUMPDEST DUP2 DUP6 ADD SWAP2 POP DUP6 PUSH1 0x1F DUP4 ADD SLT PUSH2 0x157E JUMPI PUSH1 0x0 DUP1 REVERT JUMPDEST DUP2 CALLDATALOAD DUP2 DUP2 GT ISZERO PUSH2 0x1590 JUMPI PUSH2 0x1590 PUSH2 0x151B JUMP JUMPDEST PUSH1 0x40 MLOAD PUSH1 0x1F DUP3 ADD PUSH1 0x1F NOT SWAP1 DUP2 AND PUSH1 0x3F ADD AND DUP2 ADD SWAP1 DUP4 DUP3 GT DUP2 DUP4 LT OR ISZERO PUSH2 0x15B8 JUMPI PUSH2 0x15B8 PUSH2 0x151B JUMP JUMPDEST DUP2 PUSH1 0x40 MSTORE DUP3 DUP2 MSTORE DUP9 PUSH1 0x20 DUP5 DUP8 ADD ADD GT ISZERO PUSH2 0x15D1 JUMPI PUSH1 0x0 DUP1 REVERT JUMPDEST DUP3 PUSH1 0x20 DUP7 ADD PUSH1 0x20 DUP4 ADD CALLDATACOPY PUSH1 0x0 PUSH1 0x20 DUP5 DUP4 ADD ADD MSTORE DUP1 SWAP6 POP POP POP POP POP POP SWAP3 POP SWAP3 SWAP1 POP JUMP JUMPDEST PUSH1 0x0 JUMPDEST DUP4 DUP2 LT ISZERO PUSH2 0x160E JUMPI DUP2 DUP2 ADD MLOAD DUP4 DUP3 ADD MSTORE PUSH1 0x20 ADD PUSH2 0x15F6 JUMP JUMPDEST POP POP PUSH1 0x0 SWAP2 ADD MSTORE JUMP JUMPDEST PUSH1 0x0 DUP2 MLOAD DUP1 DUP5 MSTORE PUSH2 0x162F DUP2 PUSH1 0x20 DUP7 ADD PUSH1 0x20 DUP7 ADD PUSH2 0x15F3 JUMP JUMPDEST PUSH1 0x1F ADD PUSH1 0x1F NOT AND SWAP3 SWAP1 SWAP3 ADD PUSH1 0x20 ADD SWAP3 SWAP2 POP POP JUMP JUMPDEST PUSH1 0x0 PUSH1 0x20 DUP1 DUP4 ADD DUP2 DUP5 MSTORE DUP1 DUP6 MLOAD DUP1 DUP4 MSTORE PUSH1 0x40 DUP7 ADD SWAP2 POP PUSH1 0x40 DUP2 PUSH1 0x5 SHL DUP8 ADD ADD SWAP3 POP DUP4 DUP8 ADD PUSH1 0x0 JUMPDEST DUP3 DUP2 LT ISZERO PUSH2 0x1698 JUMPI PUSH1 0x3F NOT DUP9 DUP7 SUB ADD DUP5 MSTORE PUSH2 0x1686 DUP6 DUP4 MLOAD PUSH2 0x1617 JUMP JUMPDEST SWAP5 POP SWAP3 DUP6 ADD SWAP3 SWAP1 DUP6 ADD SWAP1 PUSH1 0x1 ADD PUSH2 0x166A JUMP JUMPDEST POP SWAP3 SWAP8 SWAP7 POP POP POP POP POP POP POP JUMP JUMPDEST PUSH4 0x4E487B71 PUSH1 0xE0 SHL PUSH1 0x0 MSTORE PUSH1 0x11 PUSH1 0x4 MSTORE PUSH1 0x24 PUSH1 0x0 REVERT JUMPDEST DUP2 DUP2 SUB DUP2 DUP2 GT ISZERO PUSH2 0x435 JUMPI PUSH2 0x435 PUSH2 0x16A5 JUMP JUMPDEST PUSH1 0x0 DUP3 MLOAD PUSH2 0x16E0 DUP2 DUP5 PUSH1 0x20 DUP8 ADD PUSH2 0x15F3 JUMP JUMPDEST SWAP2 SWAP1 SWAP2 ADD SWAP3 SWAP2 POP POP JUMP JUMPDEST PUSH4 0x4E487B71 PUSH1 0xE0 SHL PUSH1 0x0 MSTORE PUSH1 0x32 PUSH1 0x4 MSTORE PUSH1 0x24 PUSH1 0x0 REVERT JUMPDEST PUSH1 0x1 DUP2 DUP2 SHR SWAP1 DUP3 AND DUP1 PUSH2 0x1714 JUMPI PUSH1 0x7F DUP3 AND SWAP2 POP JUMPDEST PUSH1 0x20 DUP3 LT DUP2 SUB PUSH2 0x1734 JUMPI PUSH4 0x4E487B71 PUSH1 0xE0 SHL PUSH1 0x0 MSTORE PUSH1 0x22 PUSH1 0x4 MSTORE PUSH1 0x24 PUSH1 0x0 REVERT JUMPDEST POP SWAP2 SWAP1 POP JUMP JUMPDEST PUSH1 0x0 DUP1 DUP4 SLOAD PUSH2 0x1748 DUP2 PUSH2 0x1700 JUMP JUMPDEST PUSH1 0x1 DUP3 DUP2 AND DUP1 ISZERO PUSH2 0x1760 JUMPI PUSH1 0x1 DUP2 EQ PUSH2 0x1775 JUMPI PUSH2 0x17A4 JUMP JUMPDEST PUSH1 0xFF NOT DUP5 AND DUP8 MSTORE DUP3 ISZERO ISZERO DUP4 MUL DUP8 ADD SWAP5 POP PUSH2 0x17A4 JUMP JUMPDEST DUP8 PUSH1 0x0 MSTORE PUSH1 0x20 DUP1 PUSH1 0x0 KECCAK256 PUSH1 0x0 JUMPDEST DUP6 DUP2 LT ISZERO PUSH2 0x179B JUMPI DUP2 SLOAD DUP11 DUP3 ADD MSTORE SWAP1 DUP5 ADD SWAP1 DUP3 ADD PUSH2 0x1782 JUMP JUMPDEST POP POP POP DUP3 DUP8 ADD SWAP5 POP JUMPDEST POP SWAP3 SWAP7 SWAP6 POP POP POP POP POP POP JUMP JUMPDEST PUSH1 0x0 PUSH1 0x1 DUP3 ADD PUSH2 0x17C2 JUMPI PUSH2 0x17C2 PUSH2 0x16A5 JUMP JUMPDEST POP PUSH1 0x1 ADD SWAP1 JUMP JUMPDEST PUSH1 0x1F DUP3 GT ISZERO PUSH2 0x1813 JUMPI PUSH1 0x0 DUP2 DUP2 MSTORE PUSH1 0x20 DUP2 KECCAK256 PUSH1 0x1F DUP6 ADD PUSH1 0x5 SHR DUP2 ADD PUSH1 0x20 DUP7 LT ISZERO PUSH2 0x17F0 JUMPI POP DUP1 JUMPDEST PUSH1 0x1F DUP6 ADD PUSH1 0x5 SHR DUP3 ADD SWAP2 POP JUMPDEST DUP2 DUP2 LT ISZERO PUSH2 0x180F JUMPI DUP3 DUP2 SSTORE PUSH1 0x1 ADD PUSH2 0x17FC JUMP JUMPDEST POP POP POP JUMPDEST POP POP POP JUMP JUMPDEST DUP2 MLOAD PUSH8 0xFFFFFFFFFFFFFFFF DUP2 GT ISZERO PUSH2 0x1832 JUMPI PUSH2 0x1832 PUSH2 0x151B JUMP JUMPDEST PUSH2 0x1846 DUP2 PUSH2 0x1840 DUP5 SLOAD PUSH2 0x1700 JUMP JUMPDEST DUP5 PUSH2 0x17C9 JUMP JUMPDEST PUSH1 0x20 DUP1 PUSH1 0x1F DUP4 GT PUSH1 0x1 DUP2 EQ PUSH2 0x187B JUMPI PUSH1 0x0 DUP5 ISZERO PUSH2 0x1863 JUMPI POP DUP6 DUP4 ADD MLOAD JUMPDEST PUSH1 0x0 NOT PUSH1 0x3 DUP7 SWAP1 SHL SHR NOT AND PUSH1 0x1 DUP6 SWAP1 SHL OR DUP6 SSTORE PUSH2 0x180F JUMP JUMPDEST PUSH1 0x0 DUP6 DUP2 MSTORE PUSH1 0x20 DUP2 KECCAK256 PUSH1 0x1F NOT DUP7 AND SWAP2 JUMPDEST DUP3 DUP2 LT ISZERO PUSH2 0x18AA JUMPI DUP9 DUP7 ADD MLOAD DUP3 SSTORE SWAP5 DUP5 ADD SWAP5 PUSH1 0x1 SWAP1 SWAP2 ADD SWAP1 DUP5 ADD PUSH2 0x188B JUMP JUMPDEST POP DUP6 DUP3 LT ISZERO PUSH2 0x18C8 JUMPI DUP8 DUP6 ADD MLOAD PUSH1 0x0 NOT PUSH1 0x3 DUP9 SWAP1 SHL PUSH1 0xF8 AND SHR NOT AND DUP2 SSTORE JUMPDEST POP POP POP POP POP PUSH1 0x1 SWAP1 DUP2 SHL ADD SWAP1 SSTORE POP JUMP JUMPDEST PUSH1 0x20 DUP2 MSTORE PUSH1 0x0 PUSH2 0x2DE PUSH1 0x20 DUP4 ADD DUP5 PUSH2 0x1617 JUMP JUMPDEST DUP2 DUP2 SUB PUSH2 0x18F6 JUMPI POP POP JUMP JUMPDEST PUSH2 0x1900 DUP3 SLOAD PUSH2 0x1700 JUMP JUMPDEST PUSH8 0xFFFFFFFFFFFFFFFF DUP2 GT ISZERO PUSH2 0x1918 JUMPI PUSH2 0x1918 PUSH2 0x151B JUMP JUMPDEST PUSH2 0x1926 DUP2 PUSH2 0x1840 DUP5 SLOAD PUSH2 0x1700 JUMP JUMPDEST PUSH1 0x0 PUSH1 0x1F DUP3 GT PUSH1 0x1 DUP2 EQ PUSH2 0x195A JUMPI PUSH1 0x0 DUP4 ISZERO PUSH2 0x1942 JUMPI POP DUP5 DUP3 ADD SLOAD JUMPDEST PUSH1 0x0 NOT PUSH1 0x3 DUP6 SWAP1 SHL SHR NOT AND PUSH1 0x1 DUP5 SWAP1 SHL OR DUP5 SSTORE PUSH2 0x19BF JUMP JUMPDEST PUSH1 0x0 DUP6 DUP2 MSTORE PUSH1 0x20 SWAP1 KECCAK256 PUSH1 0x1F NOT DUP5 AND SWAP1 PUSH1 0x0 DUP7 DUP2 MSTORE PUSH1 0x20 SWAP1 KECCAK256 DUP5 JUMPDEST DUP4 DUP2 LT ISZERO PUSH2 0x1994 JUMPI DUP3 DUP7 ADD SLOAD DUP3 SSTORE PUSH1 0x1 SWAP6 DUP7 ADD SWAP6 SWAP1 SWAP2 ADD SWAP1 PUSH1 0x20 ADD PUSH2 0x1974 JUMP JUMPDEST POP DUP6 DUP4 LT ISZERO PUSH2 0x19B2 JUMPI DUP2 DUP6 ADD SLOAD PUSH1 0x0 NOT PUSH1 0x3 DUP9 SWAP1 SHL PUSH1 0xF8 AND SHR NOT AND DUP2 SSTORE JUMPDEST POP POP POP PUSH1 0x1 DUP4 PUSH1 0x1 SHL ADD DUP5 SSTORE JUMPDEST POP POP POP POP POP JUMP JUMPDEST PUSH4 0x4E487B71 PUSH1 0xE0 SHL PUSH1 0x0 MSTORE PUSH1 0x31 PUSH1 0x4 MSTORE PUSH1 0x24 PUSH1 0x0 REVERT INVALID LOG2 PUSH5 0x6970667358 0x22 SLT KECCAK256 EXP SWAP4 PUSH13 0x99A73158AE3802B8B6F5731CEE SWAP9 0xD3 SGT 0xC1 0xDB 0xD4 0xE3 LT CREATE2 0xF8 GT DUP9 0x49 0xC2 RETURNDATASIZE PUSH3 0x64736F PUSH13 0x63430008110033000000000000 "
    },
    "gasEstimates": {
      "creation": {
        "codeDepositCost": "1334800",
        "executionCost": "1390",
        "totalCost": "1336190"
      },
      "external": {
        "addBeneficiary(address)": "infinite",
        "addIpfsCID(address,string)": "infinite",
        "checkAliveStatus(address)": "infinite",
        "enableSwitch(address)": "55181",
        "getCIDs(address,address)": "infinite",
        "getRemainingCountdownTime(address)": "infinite",
        "getSwitchStatus(address)": "4856",
        "isBeneficiary(address,address)": "infinite",
        "removeBenefactor(address)": "85379",
        "removeBeneficiary(address)": "infinite",
        "removeIpfsCID(address,string)": "infinite",
        "respondToSwitch()": "infinite",
        "setBenefactor()": "78035"
      },
      "internal": {
        "disableSwitch()": "infinite"
      }
    },
    "methodIdentifiers": {
      "addBeneficiary(address)": "5926651d",
      "addIpfsCID(address,string)": "5211287e",
      "checkAliveStatus(address)": "072039a2",
      "enableSwitch(address)": "8d5492e4",
      "getCIDs(address,address)": "df78bc54",
      "getRemainingCountdownTime(address)": "01e2b33f",
      "getSwitchStatus(address)": "07a8b767",
      "isBeneficiary(address,address)": "096e27d9",
      "removeBenefactor(address)": "a98d22bc",
      "removeBeneficiary(address)": "59633a1c",
      "removeIpfsCID(address,string)": "87c63714",
      "respondToSwitch()": "cd9c9362",
      "setBenefactor()": "196ba7ef"
    }
  },
  "storageLayout": {
    "storage": [
      {
        "astId": 317,
        "contract": "DeadMansSwitch.sol:BenefactorsDeadManSwitch",
        "label": "benefactors",
        "offset": 0,
        "slot": "0",
        "type": "t_mapping(t_address,t_struct(BenefactorInfo)312_storage)"
      }
    ],
    "types": {
      "t_address": {
        "encoding": "inplace",
        "label": "address",
        "numberOfBytes": "20"
      },
      "t_array(t_string_storage)dyn_storage": {
        "base": "t_string_storage",
        "encoding": "dynamic_array",
        "label": "string[]",
        "numberOfBytes": "32"
      },
      "t_bool": {
        "encoding": "inplace",
        "label": "bool",
        "numberOfBytes": "1"
      },
      "t_mapping(t_address,t_struct(BenefactorInfo)312_storage)": {
        "encoding": "mapping",
        "key": "t_address",
        "label": "mapping(address => struct BenefactorsDeadManSwitch.BenefactorInfo)",
        "numberOfBytes": "32",
        "value": "t_struct(BenefactorInfo)312_storage"
      },
      "t_mapping(t_address,t_struct(Beneficiary)296_storage)": {
        "encoding": "mapping",
        "key": "t_address",
        "label": "mapping(address => struct BenefactorsDeadManSwitch.Beneficiary)",
        "numberOfBytes": "32",
        "value": "t_struct(Beneficiary)296_storage"
      },
      "t_string_storage": {
        "encoding": "bytes",
        "label": "string",
        "numberOfBytes": "32"
      },
      "t_struct(BenefactorInfo)312_storage": {
        "encoding": "inplace",
        "label": "struct BenefactorsDeadManSwitch.BenefactorInfo",
        "members": [
          {
            "astId": 298,
            "contract": "DeadMansSwitch.sol:BenefactorsDeadManSwitch",
            "label": "exists",
            "offset": 0,
            "slot": "0",
            "type": "t_bool"
          },
          {
            "astId": 303,
            "contract": "DeadMansSwitch.sol:BenefactorsDeadManSwitch",
            "label": "beneficiaries",
            "offset": 0,
            "slot": "1",
            "type": "t_mapping(t_address,t_struct(Beneficiary)296_storage)"
          },
          {
            "astId": 305,
            "contract": "DeadMansSwitch.sol:BenefactorsDeadManSwitch",
            "label": "countdownDuration",
            "offset": 0,
            "slot": "2",
            "type": "t_uint256"
          },
          {
            "astId": 307,
            "contract": "DeadMansSwitch.sol:BenefactorsDeadManSwitch",
            "label": "lastBenefactorResponseTime",
            "offset": 0,
            "slot": "3",
            "type": "t_uint256"
          },
          {
            "astId": 309,
            "contract": "DeadMansSwitch.sol:BenefactorsDeadManSwitch",
            "label": "isSwitchedOff",
            "offset": 0,
            "slot": "4",
            "type": "t_bool"
          },
          {
            "astId": 311,
            "contract": "DeadMansSwitch.sol:BenefactorsDeadManSwitch",
            "label": "isAlive",
            "offset": 1,
            "slot": "4",
            "type": "t_bool"
          }
        ],
        "numberOfBytes": "160"
      },
      "t_struct(Beneficiary)296_storage": {
        "encoding": "inplace",
        "label": "struct BenefactorsDeadManSwitch.Beneficiary",
        "members": [
          {
            "astId": 292,
            "contract": "DeadMansSwitch.sol:BenefactorsDeadManSwitch",
            "label": "exists",
            "offset": 0,
            "slot": "0",
            "type": "t_bool"
          },
          {
            "astId": 295,
            "contract": "DeadMansSwitch.sol:BenefactorsDeadManSwitch",
            "label": "ipfsCIDs",
            "offset": 0,
            "slot": "1",
            "type": "t_array(t_string_storage)dyn_storage"
          }
        ],
        "numberOfBytes": "64"
      },
      "t_uint256": {
        "encoding": "inplace",
        "label": "uint256",
        "numberOfBytes": "32"
      }
    }
  },
  "userdoc": {
    "kind": "user",
    "methods": {},
    "version": 1
  }
}