{
  "abi": [
    {
      "inputs": [],
      "stateMutability": "nonpayable",
      "type": "constructor"
    },
    {
      "anonymous": false,
      "inputs": [
        {
          "indexed": true,
          "internalType": "address",
          "name": "benefactor",
          "type": "address"
        },
        {
          "indexed": false,
          "internalType": "string",
          "name": "aliveStatus",
          "type": "string"
        }
      ],
      "name": "BenefactorIsAlive",
      "type": "event"
    },
    {
      "anonymous": false,
      "inputs": [
        {
          "indexed": true,
          "internalType": "address",
          "name": "benefactor",
          "type": "address"
        },
        {
          "indexed": false,
          "internalType": "string",
          "name": "deadStatus",
          "type": "string"
        }
      ],
      "name": "BenefactorIsDead",
      "type": "event"
    },
    {
      "anonymous": false,
      "inputs": [
        {
          "indexed": true,
          "internalType": "address",
          "name": "benefactor",
          "type": "address"
        },
        {
          "indexed": true,
          "internalType": "address",
          "name": "beneficiary",
          "type": "address"
        },
        {
          "indexed": false,
          "internalType": "string",
          "name": "key",
          "type": "string"
        }
      ],
      "name": "BenefactorKeyAdded",
      "type": "event"
    },
    {
      "anonymous": false,
      "inputs": [
        {
          "indexed": false,
          "internalType": "bool",
          "name": "switchStatus",
          "type": "bool"
        },
        {
          "indexed": false,
          "internalType": "address[]",
          "name": "beneficiaries",
          "type": "address[]"
        },
        {
          "indexed": false,
          "internalType": "uint256",
          "name": "remainingTime",
          "type": "uint256"
        }
      ],
      "name": "BeneficiariesData",
      "type": "event"
    },
    {
      "anonymous": false,
      "inputs": [
        {
          "indexed": true,
          "internalType": "address",
          "name": "benefactor",
          "type": "address"
        },
        {
          "indexed": true,
          "internalType": "address",
          "name": "beneficiary",
          "type": "address"
        }
      ],
      "name": "BeneficiaryAdded",
      "type": "event"
    },
    {
      "anonymous": false,
      "inputs": [
        {
          "indexed": true,
          "internalType": "address",
          "name": "benefactor",
          "type": "address"
        },
        {
          "indexed": true,
          "internalType": "address",
          "name": "beneficiary",
          "type": "address"
        },
        {
          "indexed": false,
          "internalType": "string",
          "name": "key",
          "type": "string"
        }
      ],
      "name": "BeneficiaryKeyAdded",
      "type": "event"
    },
    {
      "anonymous": false,
      "inputs": [
        {
          "indexed": true,
          "internalType": "address",
          "name": "benefactor",
          "type": "address"
        },
        {
          "indexed": true,
          "internalType": "address",
          "name": "beneficiary",
          "type": "address"
        }
      ],
      "name": "BeneficiaryRemoved",
      "type": "event"
    },
    {
      "anonymous": false,
      "inputs": [
        {
          "indexed": true,
          "internalType": "address",
          "name": "benefactor",
          "type": "address"
        },
        {
          "indexed": true,
          "internalType": "address",
          "name": "caller",
          "type": "address"
        },
        {
          "indexed": false,
          "internalType": "uint256",
          "name": "responseTime",
          "type": "uint256"
        }
      ],
      "name": "DeadMansSwitchDisabled",
      "type": "event"
    },
    {
      "anonymous": false,
      "inputs": [
        {
          "indexed": true,
          "internalType": "address",
          "name": "benefactor",
          "type": "address"
        },
        {
          "indexed": true,
          "internalType": "address",
          "name": "beneficiary",
          "type": "address"
        },
        {
          "indexed": false,
          "internalType": "uint256",
          "name": "countdownDuration",
          "type": "uint256"
        }
      ],
      "name": "DeadMansSwitchEnabled",
      "type": "event"
    },
    {
      "anonymous": false,
      "inputs": [
        {
          "indexed": true,
          "internalType": "address",
          "name": "benefactor",
          "type": "address"
        },
        {
          "indexed": true,
          "internalType": "address",
          "name": "beneficiary",
          "type": "address"
        },
        {
          "indexed": false,
          "internalType": "string",
          "name": "ipfsCID",
          "type": "string"
        }
      ],
      "name": "IpfsCIDAdded",
      "type": "event"
    },
    {
      "anonymous": false,
      "inputs": [
        {
          "indexed": true,
          "internalType": "address",
          "name": "benefactor",
          "type": "address"
        },
        {
          "indexed": true,
          "internalType": "address",
          "name": "beneficiary",
          "type": "address"
        },
        {
          "indexed": false,
          "internalType": "string",
          "name": "ipfsCID",
          "type": "string"
        }
      ],
      "name": "IpfsCIDRemoved",
      "type": "event"
    },
    {
      "anonymous": false,
      "inputs": [
        {
          "indexed": true,
          "internalType": "address",
          "name": "benefactor",
          "type": "address"
        },
        {
          "indexed": false,
          "internalType": "uint256",
          "name": "countdownDuration",
          "type": "uint256"
        },
        {
          "indexed": false,
          "internalType": "uint256",
          "name": "responseTime",
          "type": "uint256"
        },
        {
          "indexed": false,
          "internalType": "uint256",
          "name": "currentTime",
          "type": "uint256"
        },
        {
          "indexed": false,
          "internalType": "uint256",
          "name": "lastBenefactorResponseTime",
          "type": "uint256"
        }
      ],
      "name": "RemainingCountdownInfo",
      "type": "event"
    },
    {
      "anonymous": false,
      "inputs": [
        {
          "indexed": true,
          "internalType": "address",
          "name": "benefactor",
          "type": "address"
        },
        {
          "indexed": true,
          "internalType": "address",
          "name": "caller",
          "type": "address"
        }
      ],
      "name": "SwitchAlreadyOff",
      "type": "event"
    },
    {
      "anonymous": false,
      "inputs": [
        {
          "indexed": true,
          "internalType": "address",
          "name": "benefactor",
          "type": "address"
        },
        {
          "indexed": true,
          "internalType": "address",
          "name": "caller",
          "type": "address"
        }
      ],
      "name": "SwitchAlreadyOn",
      "type": "event"
    },
    {
      "inputs": [
        {
          "internalType": "address",
          "name": "_benefactor",
          "type": "address"
        },
        {
          "internalType": "address",
          "name": "_beneficiary",
          "type": "address"
        },
        {
          "internalType": "string",
          "name": "_key",
          "type": "string"
        }
      ],
      "name": "addBenefactorPublicKey",
      "outputs": [],
      "stateMutability": "nonpayable",
      "type": "function"
    },
    {
      "inputs": [
        {
          "internalType": "address",
          "name": "_beneficiary",
          "type": "address"
        }
      ],
      "name": "addBeneficiary",
      "outputs": [],
      "stateMutability": "nonpayable",
      "type": "function"
    },
    {
      "inputs": [
        {
          "internalType": "address",
          "name": "_benefactor",
          "type": "address"
        },
        {
          "internalType": "address",
          "name": "_beneficiary",
          "type": "address"
        },
        {
          "internalType": "string",
          "name": "_key",
          "type": "string"
        }
      ],
      "name": "addBeneficiaryPublicKey",
      "outputs": [],
      "stateMutability": "nonpayable",
      "type": "function"
    },
    {
      "inputs": [
        {
          "internalType": "address",
          "name": "_beneficiary",
          "type": "address"
        },
        {
          "internalType": "string",
          "name": "_ipfsCID",
          "type": "string"
        }
      ],
      "name": "addIpfsCID",
      "outputs": [],
      "stateMutability": "nonpayable",
      "type": "function"
    },
    {
      "inputs": [
        {
          "internalType": "address",
          "name": "_benefactor",
          "type": "address"
        }
      ],
      "name": "checkAliveStatus",
      "outputs": [
        {
          "internalType": "bool",
          "name": "",
          "type": "bool"
        }
      ],
      "stateMutability": "nonpayable",
      "type": "function"
    },
    {
      "inputs": [
        {
          "internalType": "address",
          "name": "_benefactor",
          "type": "address"
        }
      ],
      "name": "enableSwitch",
      "outputs": [],
      "stateMutability": "nonpayable",
      "type": "function"
    },
    {
      "inputs": [
        {
          "internalType": "address",
          "name": "_benefactor",
          "type": "address"
        },
        {
          "internalType": "address",
          "name": "_beneficiary",
          "type": "address"
        }
      ],
      "name": "getBenefactorPublicKey",
      "outputs": [
        {
          "internalType": "string",
          "name": "",
          "type": "string"
        }
      ],
      "stateMutability": "view",
      "type": "function"
    },
    {
      "inputs": [
        {
          "internalType": "address",
          "name": "_benefactor",
          "type": "address"
        },
        {
          "internalType": "address",
          "name": "_beneficiary",
          "type": "address"
        }
      ],
      "name": "getBeneficiaryPublicKey",
      "outputs": [
        {
          "internalType": "string",
          "name": "",
          "type": "string"
        }
      ],
      "stateMutability": "view",
      "type": "function"
    },
    {
      "inputs": [
        {
          "internalType": "address",
          "name": "_benefactor",
          "type": "address"
        },
        {
          "internalType": "address",
          "name": "_beneficiary",
          "type": "address"
        }
      ],
      "name": "getCIDs",
      "outputs": [
        {
          "internalType": "string[]",
          "name": "",
          "type": "string[]"
        }
      ],
      "stateMutability": "view",
      "type": "function"
    },
    {
      "inputs": [
        {
          "internalType": "address",
          "name": "_benefactor",
          "type": "address"
        }
      ],
      "name": "getData",
      "outputs": [
        {
          "internalType": "bool",
          "name": "switchStatus",
          "type": "bool"
        },
        {
          "internalType": "address[]",
          "name": "beneficiaries",
          "type": "address[]"
        },
        {
          "internalType": "uint256",
          "name": "remainingTime",
          "type": "uint256"
        }
      ],
      "stateMutability": "nonpayable",
      "type": "function"
    },
    {
      "inputs": [],
      "name": "getPrimeAndGenerator",
      "outputs": [
        {
          "internalType": "uint256",
          "name": "",
          "type": "uint256"
        },
        {
          "internalType": "uint256",
          "name": "",
          "type": "uint256"
        }
      ],
      "stateMutability": "view",
      "type": "function"
    },
    {
      "inputs": [
        {
          "internalType": "address",
          "name": "_benefactor",
          "type": "address"
        }
      ],
      "name": "getRemainingCountdownTime",
      "outputs": [
        {
          "internalType": "uint256",
          "name": "",
          "type": "uint256"
        }
      ],
      "stateMutability": "nonpayable",
      "type": "function"
    },
    {
      "inputs": [
        {
          "internalType": "address",
          "name": "_benefactor",
          "type": "address"
        }
      ],
      "name": "getSwitchStatus",
      "outputs": [
        {
          "internalType": "bool",
          "name": "",
          "type": "bool"
        }
      ],
      "stateMutability": "view",
      "type": "function"
    },
    {
      "inputs": [
        {
          "internalType": "address",
          "name": "_benefactor",
          "type": "address"
        },
        {
          "internalType": "address",
          "name": "_address",
          "type": "address"
        }
      ],
      "name": "isBeneficiary",
      "outputs": [
        {
          "internalType": "bool",
          "name": "",
          "type": "bool"
        }
      ],
      "stateMutability": "view",
      "type": "function"
    },
    {
      "inputs": [
        {
          "internalType": "address",
          "name": "_benefactor",
          "type": "address"
        }
      ],
      "name": "removeBenefactor",
      "outputs": [],
      "stateMutability": "nonpayable",
      "type": "function"
    },
    {
      "inputs": [
        {
          "internalType": "address",
          "name": "_beneficiary",
          "type": "address"
        }
      ],
      "name": "removeBeneficiary",
      "outputs": [],
      "stateMutability": "nonpayable",
      "type": "function"
    },
    {
      "inputs": [
        {
          "internalType": "address",
          "name": "_beneficiary",
          "type": "address"
        },
        {
          "internalType": "string",
          "name": "_ipfsCID",
          "type": "string"
        }
      ],
      "name": "removeIpfsCID",
      "outputs": [],
      "stateMutability": "nonpayable",
      "type": "function"
    },
    {
      "inputs": [],
      "name": "respondToSwitch",
      "outputs": [],
      "stateMutability": "nonpayable",
      "type": "function"
    },
    {
      "inputs": [],
      "name": "setBenefactor",
      "outputs": [],
      "stateMutability": "nonpayable",
      "type": "function"
    },
    {
      "inputs": [
        {
          "internalType": "uint256",
          "name": "_prime",
          "type": "uint256"
        },
        {
          "internalType": "uint256",
          "name": "_generator",
          "type": "uint256"
        }
      ],
      "name": "setPrimeAndGenerator",
      "outputs": [],
      "stateMutability": "nonpayable",
      "type": "function"
    }
  ],
  "devdoc": {
    "details": "Smart contract for managing a benefactor's dead man's switch with assigned beneficiaries.",
    "kind": "dev",
    "methods": {
      "addBenefactorPublicKey(address,address,string)": {
        "details": "adds the benefactor public key to the specified benefactor-beneficiary pair"
      },
      "addBeneficiary(address)": {
        "details": "Adds a new beneficiary to the list. Only callable by the benefactor.",
        "params": {
          "_beneficiary": "The address of the new beneficiary."
        }
      },
      "addBeneficiaryPublicKey(address,address,string)": {
        "details": "adds the beneficiary public key to the specified benefactor-beneficiary pair"
      },
      "addIpfsCID(address,string)": {
        "details": "Adds an IPFS CID to the specified beneficiary. Only callable by the benefactor.",
        "params": {
          "_beneficiary": "The address of the beneficiary.",
          "_ipfsCID": "The IPFS CID to add."
        }
      },
      "checkAliveStatus(address)": {
        "details": "Checks the alive status of the benefactor.",
        "params": {
          "_benefactor": "The address of the benefactor."
        },
        "returns": {
          "_0": "A boolean indicating whether the benefactor is alive."
        }
      },
      "enableSwitch(address)": {
        "details": "Enables the dead man's switch. Only callable by beneficiaries.",
        "params": {
          "_benefactor": "The address of the benefactor."
        }
      },
      "getBenefactorPublicKey(address,address)": {
        "details": "returns the benefactor public key from the specified benefactor-beneficiary pair"
      },
      "getBeneficiaryPublicKey(address,address)": {
        "details": "returns the beneficiary public key from the specified benefactor-beneficiary pair"
      },
      "getCIDs(address,address)": {
        "details": "Release CIDs to beneficiary.",
        "params": {
          "_benefactor": "The address of the benefactor.",
          "_beneficiary": "The address of the beneficiary."
        }
      },
      "getData(address)": {
        "details": "Returns current status of benefactor."
      },
      "getPrimeAndGenerator()": {
        "details": "Getter function to get both prime and generator values"
      },
      "getRemainingCountdownTime(address)": {
        "details": "Returns the remaining countdown time.",
        "params": {
          "_benefactor": "The address of the benefactor."
        },
        "returns": {
          "_0": "The remaining countdown time in seconds."
        }
      },
      "isBeneficiary(address,address)": {
        "details": "Checks if the given address is a beneficiary. Only benefactor",
        "params": {
          "_address": "The address to check."
        },
        "returns": {
          "_0": "A boolean indicating whether the address is a beneficiary."
        }
      },
      "removeBenefactor(address)": {
        "details": "Removes a benefactor. Only callable by benefactor."
      },
      "removeBeneficiary(address)": {
        "details": "Removes a beneficiary from the list. Only callable by the benefactor.",
        "params": {
          "_beneficiary": "The address of the beneficiary to be removed."
        }
      },
      "removeIpfsCID(address,string)": {
        "details": "Removes an IPFS CID from the specified beneficiary. Only callable by benefactor.",
        "params": {
          "_beneficiary": "The address of the beneficiary.",
          "_ipfsCID": "The IPFS CID to remove."
        }
      },
      "respondToSwitch()": {
        "details": "Performs actions based on benefactor's activity when responding to an enabled switch. Only callable by the benefactor."
      },
      "setBenefactor()": {
        "details": "Sets up a benefactor. Only callable by benefactor."
      },
      "setPrimeAndGenerator(uint256,uint256)": {
        "details": "Setter function to set both prime and generator values",
        "params": {
          "_generator": "The generator used in the Diffie-Hellman algorithm.",
          "_prime": "The prime number used in the Diffie-Hellman algorithm."
        }
      }
    },
    "title": "BenefactorsDeadManSwitch",
    "version": 1
  },
  "evm": {
    "assembly": "    /* \"DeadMansSwitch.sol\":235:15249  contract BenefactorsDeadManSwitch {... */\n  mstore(0x40, 0x80)\n    /* \"DeadMansSwitch.sol\":737:738  0 */\n  0x00\n    /* \"DeadMansSwitch.sol\":713:738  uint256 private prime = 0 */\n  dup1\n  sstore\n    /* \"DeadMansSwitch.sol\":773:774  0 */\n  0x00\n    /* \"DeadMansSwitch.sol\":745:774  uint256 private generator = 0 */\n  0x01\n  sstore\n    /* \"DeadMansSwitch.sol\":2596:2612  constructor() {} */\n  callvalue\n  dup1\n  iszero\n  tag_1\n  jumpi\n  0x00\n  dup1\n  revert\ntag_1:\n  pop\n    /* \"DeadMansSwitch.sol\":235:15249  contract BenefactorsDeadManSwitch {... */\n  dataSize(sub_0)\n  dup1\n  dataOffset(sub_0)\n  0x00\n  codecopy\n  0x00\n  return\nstop\n\nsub_0: assembly {\n        /* \"DeadMansSwitch.sol\":235:15249  contract BenefactorsDeadManSwitch {... */\n      mstore(0x40, 0x80)\n      callvalue\n      dup1\n      iszero\n      tag_1\n      jumpi\n      0x00\n      dup1\n      revert\n    tag_1:\n      pop\n      jumpi(tag_2, lt(calldatasize, 0x04))\n      shr(0xe0, calldataload(0x00))\n      dup1\n      0x59633a1c\n      gt\n      tag_23\n      jumpi\n      dup1\n      0xccb53a09\n      gt\n      tag_24\n      jumpi\n      dup1\n      0xd51c3199\n      gt\n      tag_25\n      jumpi\n      dup1\n      0xd51c3199\n      eq\n      tag_20\n      jumpi\n      dup1\n      0xdf78bc54\n      eq\n      tag_21\n      jumpi\n      dup1\n      0xf892cb36\n      eq\n      tag_22\n      jumpi\n      0x00\n      dup1\n      revert\n    tag_25:\n      dup1\n      0xccb53a09\n      eq\n      tag_18\n      jumpi\n      dup1\n      0xcd9c9362\n      eq\n      tag_19\n      jumpi\n      0x00\n      dup1\n      revert\n    tag_24:\n      dup1\n      0x87ce1ca8\n      gt\n      tag_26\n      jumpi\n      dup1\n      0x87ce1ca8\n      eq\n      tag_15\n      jumpi\n      dup1\n      0x8d5492e4\n      eq\n      tag_16\n      jumpi\n      dup1\n      0xa98d22bc\n      eq\n      tag_17\n      jumpi\n      0x00\n      dup1\n      revert\n    tag_26:\n      dup1\n      0x59633a1c\n      eq\n      tag_13\n      jumpi\n      dup1\n      0x87c63714\n      eq\n      tag_14\n      jumpi\n      0x00\n      dup1\n      revert\n    tag_23:\n      dup1\n      0x38266b22\n      gt\n      tag_27\n      jumpi\n      dup1\n      0x46437d3a\n      gt\n      tag_28\n      jumpi\n      dup1\n      0x46437d3a\n      eq\n      tag_10\n      jumpi\n      dup1\n      0x5211287e\n      eq\n      tag_11\n      jumpi\n      dup1\n      0x5926651d\n      eq\n      tag_12\n      jumpi\n      0x00\n      dup1\n      revert\n    tag_28:\n      dup1\n      0x38266b22\n      eq\n      tag_8\n      jumpi\n      dup1\n      0x3dea2f84\n      eq\n      tag_9\n      jumpi\n      0x00\n      dup1\n      revert\n    tag_27:\n      dup1\n      0x07a8b767\n      gt\n      tag_29\n      jumpi\n      dup1\n      0x07a8b767\n      eq\n      tag_5\n      jumpi\n      dup1\n      0x096e27d9\n      eq\n      tag_6\n      jumpi\n      dup1\n      0x196ba7ef\n      eq\n      tag_7\n      jumpi\n      0x00\n      dup1\n      revert\n    tag_29:\n      dup1\n      0x01e2b33f\n      eq\n      tag_3\n      jumpi\n      dup1\n      0x072039a2\n      eq\n      tag_4\n      jumpi\n    tag_2:\n      0x00\n      dup1\n      revert\n        /* \"DeadMansSwitch.sol\":10378:10889  function getRemainingCountdownTime(address _benefactor) public returns (uint256) {... */\n    tag_3:\n      tag_30\n      tag_31\n      calldatasize\n      0x04\n      tag_32\n      jump\t// in\n    tag_31:\n      tag_33\n      jump\t// in\n    tag_30:\n      mload(0x40)\n        /* \"#utility.yul\":552:577   */\n      swap1\n      dup2\n      mstore\n        /* \"#utility.yul\":540:542   */\n      0x20\n        /* \"#utility.yul\":525:543   */\n      add\n        /* \"DeadMansSwitch.sol\":10378:10889  function getRemainingCountdownTime(address _benefactor) public returns (uint256) {... */\n    tag_34:\n      mload(0x40)\n      dup1\n      swap2\n      sub\n      swap1\n      return\n        /* \"DeadMansSwitch.sol\":11099:11683  function checkAliveStatus(address _benefactor) public returns (bool) {... */\n    tag_4:\n      tag_36\n      tag_37\n      calldatasize\n      0x04\n      tag_32\n      jump\t// in\n    tag_37:\n      tag_38\n      jump\t// in\n    tag_36:\n      mload(0x40)\n        /* \"#utility.yul\":753:767   */\n      swap1\n      iszero\n        /* \"#utility.yul\":746:768   */\n      iszero\n        /* \"#utility.yul\":728:769   */\n      dup2\n      mstore\n        /* \"#utility.yul\":716:718   */\n      0x20\n        /* \"#utility.yul\":701:719   */\n      add\n        /* \"DeadMansSwitch.sol\":11099:11683  function checkAliveStatus(address _benefactor) public returns (bool) {... */\n      tag_34\n        /* \"#utility.yul\":588:775   */\n      jump\n        /* \"DeadMansSwitch.sol\":5938:6155  function getSwitchStatus(address _benefactor) public view returns (bool) {... */\n    tag_5:\n      tag_36\n      tag_42\n      calldatasize\n      0x04\n      tag_32\n      jump\t// in\n    tag_42:\n      tag_43\n      jump\t// in\n        /* \"DeadMansSwitch.sol\":3349:3519  function isBeneficiary(address _benefactor, address _address) public view returns (bool) {... */\n    tag_6:\n      tag_36\n      tag_46\n      calldatasize\n      0x04\n      tag_47\n      jump\t// in\n    tag_46:\n      tag_48\n      jump\t// in\n        /* \"DeadMansSwitch.sol\":2702:3125  function setBenefactor() public{... */\n    tag_7:\n      tag_50\n        /* \"DeadMansSwitch.sol\":2756:2766  msg.sender */\n      caller\n        /* \"DeadMansSwitch.sol\":2744:2767  benefactors[msg.sender] */\n      0x00\n      swap1\n      dup2\n      mstore\n        /* \"DeadMansSwitch.sol\":2744:2755  benefactors */\n      0x02\n        /* \"DeadMansSwitch.sol\":2744:2767  benefactors[msg.sender] */\n      0x20\n      dup2\n      swap1\n      mstore\n      0x40\n      dup3\n      keccak256\n        /* \"DeadMansSwitch.sol\":2744:2779  benefactors[msg.sender].exists=true */\n      dup1\n      sload\n      not(0xff)\n      and\n        /* \"DeadMansSwitch.sol\":2775:2779  true */\n      0x01\n        /* \"DeadMansSwitch.sol\":2744:2779  benefactors[msg.sender].exists=true */\n      or\n      dup2\n      sstore\n        /* \"DeadMansSwitch.sol\":2834:2851  7*24*3600 seconds */\n      0x093a80\n        /* \"DeadMansSwitch.sol\":2790:2831  benefactors[msg.sender].countdownDuration */\n      swap2\n      dup2\n      add\n        /* \"DeadMansSwitch.sol\":2790:2851  benefactors[msg.sender].countdownDuration = 7*24*3600 seconds */\n      swap2\n      swap1\n      swap2\n      sstore\n        /* \"DeadMansSwitch.sol\":2959:2996  benefactors[msg.sender].isSwitchedOff */\n      0x04\n      dup2\n      add\n        /* \"DeadMansSwitch.sol\":2959:3003  benefactors[msg.sender].isSwitchedOff = true */\n      dup1\n      sload\n        /* \"DeadMansSwitch.sol\":3014:3052  benefactors[msg.sender].isAlive = true */\n      0x0101\n      not(0xffff)\n      swap1\n      swap2\n      and\n      or\n      swap1\n      sstore\n        /* \"DeadMansSwitch.sol\":3063:3113  benefactors[msg.sender].lastBenefactorResponseTime */\n      0x03\n      add\n        /* \"DeadMansSwitch.sol\":3063:3117  benefactors[msg.sender].lastBenefactorResponseTime = 0 */\n      sstore\n        /* \"DeadMansSwitch.sol\":2702:3125  function setBenefactor() public{... */\n      jump\n    tag_50:\n      stop\n        /* \"DeadMansSwitch.sol\":14251:15246  function getData(address _benefactor) public returns (bool switchStatus, address[] memory beneficiaries, uint256 remainingTime) {... */\n    tag_8:\n      tag_52\n      tag_53\n      calldatasize\n      0x04\n      tag_32\n      jump\t// in\n    tag_53:\n      tag_54\n      jump\t// in\n    tag_52:\n      mload(0x40)\n      tag_34\n      swap4\n      swap3\n      swap2\n      swap1\n      tag_56\n      jump\t// in\n        /* \"DeadMansSwitch.sol\":4361:4725  function addBeneficiaryPublicKey(address _benefactor, address _beneficiary, string memory _key) public {... */\n    tag_9:\n      tag_50\n      tag_58\n      calldatasize\n      0x04\n      tag_59\n      jump\t// in\n    tag_58:\n      tag_60\n      jump\t// in\n        /* \"DeadMansSwitch.sol\":14059:14174  function getPrimeAndGenerator() public view returns (uint256, uint256) {... */\n    tag_10:\n        /* \"DeadMansSwitch.sol\":14112:14119  uint256 */\n      0x00\n        /* \"DeadMansSwitch.sol\":14149:14154  prime */\n      sload\n        /* \"DeadMansSwitch.sol\":14156:14165  generator */\n      sload(0x01)\n        /* \"DeadMansSwitch.sol\":14059:14174  function getPrimeAndGenerator() public view returns (uint256, uint256) {... */\n      0x40\n      dup1\n      mload\n        /* \"#utility.yul\":3389:3414   */\n      swap3\n      dup4\n      mstore\n        /* \"#utility.yul\":3445:3447   */\n      0x20\n        /* \"#utility.yul\":3430:3448   */\n      dup4\n      add\n        /* \"#utility.yul\":3423:3457   */\n      swap2\n      swap1\n      swap2\n      mstore\n        /* \"#utility.yul\":3362:3380   */\n      add\n        /* \"DeadMansSwitch.sol\":14059:14174  function getPrimeAndGenerator() public view returns (uint256, uint256) {... */\n      tag_34\n        /* \"#utility.yul\":3215:3463   */\n      jump\n        /* \"DeadMansSwitch.sol\":7355:8095  function addIpfsCID(address _beneficiary, string memory _ipfsCID) external onlyBenefactor {... */\n    tag_11:\n      tag_50\n      tag_66\n      calldatasize\n      0x04\n      tag_67\n      jump\t// in\n    tag_66:\n      tag_68\n      jump\t// in\n        /* \"DeadMansSwitch.sol\":6802:7131  function addBeneficiary(address _beneficiary) external onlyBenefactor {... */\n    tag_12:\n      tag_50\n      tag_70\n      calldatasize\n      0x04\n      tag_32\n      jump\t// in\n    tag_70:\n      tag_71\n      jump\t// in\n        /* \"DeadMansSwitch.sol\":6338:6630  function removeBeneficiary(address _beneficiary) external onlyBenefactor {... */\n    tag_13:\n      tag_50\n      tag_73\n      calldatasize\n      0x04\n      tag_32\n      jump\t// in\n    tag_73:\n      tag_74\n      jump\t// in\n        /* \"DeadMansSwitch.sol\":8323:9238  function removeIpfsCID(address _beneficiary, string memory _ipfsCID) external onlyBenefactor {... */\n    tag_14:\n      tag_50\n      tag_76\n      calldatasize\n      0x04\n      tag_67\n      jump\t// in\n    tag_76:\n      tag_77\n      jump\t// in\n        /* \"DeadMansSwitch.sol\":4843:5165  function getBenefactorPublicKey(address _benefactor, address _beneficiary) public view returns(string memory) {... */\n    tag_15:\n      tag_78\n      tag_79\n      calldatasize\n      0x04\n      tag_47\n      jump\t// in\n    tag_79:\n      tag_80\n      jump\t// in\n    tag_78:\n      mload(0x40)\n      tag_34\n      swap2\n      swap1\n      tag_82\n      jump\t// in\n        /* \"DeadMansSwitch.sol\":9400:10186  function enableSwitch(address _benefactor) external {... */\n    tag_16:\n      tag_50\n      tag_84\n      calldatasize\n      0x04\n      tag_32\n      jump\t// in\n    tag_84:\n      tag_85\n      jump\t// in\n        /* \"DeadMansSwitch.sol\":5698:5930  function removeBenefactor(address _benefactor) public {... */\n    tag_17:\n      tag_50\n      tag_87\n      calldatasize\n      0x04\n      tag_32\n      jump\t// in\n    tag_87:\n      tag_88\n      jump\t// in\n        /* \"DeadMansSwitch.sol\":13827:13966  function setPrimeAndGenerator(uint256 _prime, uint256 _generator) public {... */\n    tag_18:\n      tag_50\n      tag_90\n      calldatasize\n      0x04\n      tag_91\n      jump\t// in\n    tag_90:\n        /* \"DeadMansSwitch.sol\":13911:13916  prime */\n      0x00\n        /* \"DeadMansSwitch.sol\":13911:13925  prime = _prime */\n      swap2\n      swap1\n      swap2\n      sstore\n        /* \"DeadMansSwitch.sol\":13936:13945  generator */\n      0x01\n        /* \"DeadMansSwitch.sol\":13936:13958  generator = _generator */\n      sstore\n        /* \"DeadMansSwitch.sol\":13827:13966  function setPrimeAndGenerator(uint256 _prime, uint256 _generator) public {... */\n      jump\n        /* \"DeadMansSwitch.sol\":12280:12979  function respondToSwitch() external onlyBenefactor {... */\n    tag_19:\n      tag_50\n      tag_94\n      jump\t// in\n        /* \"DeadMansSwitch.sol\":3888:4249  function addBenefactorPublicKey(address _benefactor, address _beneficiary, string memory _key) public {... */\n    tag_20:\n      tag_50\n      tag_96\n      calldatasize\n      0x04\n      tag_59\n      jump\t// in\n    tag_96:\n      tag_97\n      jump\t// in\n        /* \"DeadMansSwitch.sol\":13169:13578  function getCIDs(address _benefactor, address _beneficiary) public view returns (string[] memory){... */\n    tag_21:\n      tag_98\n      tag_99\n      calldatasize\n      0x04\n      tag_47\n      jump\t// in\n    tag_99:\n      tag_100\n      jump\t// in\n    tag_98:\n      mload(0x40)\n      tag_34\n      swap2\n      swap1\n      tag_102\n      jump\t// in\n        /* \"DeadMansSwitch.sol\":5284:5608  function getBeneficiaryPublicKey(address _benefactor, address _beneficiary) public view returns(string memory) {... */\n    tag_22:\n      tag_78\n      tag_104\n      calldatasize\n      0x04\n      tag_47\n      jump\t// in\n    tag_104:\n      tag_105\n      jump\t// in\n        /* \"DeadMansSwitch.sol\":10378:10889  function getRemainingCountdownTime(address _benefactor) public returns (uint256) {... */\n    tag_33:\n      sub(shl(0xa0, 0x01), 0x01)\n        /* \"DeadMansSwitch.sol\":10511:10535  benefactors[_benefactor] */\n      dup2\n      and\n        /* \"DeadMansSwitch.sol\":10450:10457  uint256 */\n      0x00\n        /* \"DeadMansSwitch.sol\":10511:10535  benefactors[_benefactor] */\n      swap1\n      dup2\n      mstore\n        /* \"DeadMansSwitch.sol\":10511:10522  benefactors */\n      0x02\n        /* \"DeadMansSwitch.sol\":10511:10535  benefactors[_benefactor] */\n      0x20\n      mstore\n      0x40\n      dup2\n      keccak256\n        /* \"DeadMansSwitch.sol\":10511:10562  benefactors[_benefactor].lastBenefactorResponseTime */\n      0x03\n      add\n      sload\n        /* \"DeadMansSwitch.sol\":10450:10457  uint256 */\n      dup2\n      swap1\n        /* \"DeadMansSwitch.sol\":10493:10562  block.timestamp - benefactors[_benefactor].lastBenefactorResponseTime */\n      tag_108\n      swap1\n        /* \"DeadMansSwitch.sol\":10493:10508  block.timestamp */\n      timestamp\n        /* \"DeadMansSwitch.sol\":10493:10562  block.timestamp - benefactors[_benefactor].lastBenefactorResponseTime */\n      tag_109\n      jump\t// in\n    tag_108:\n      sub(shl(0xa0, 0x01), 0x01)\n        /* \"DeadMansSwitch.sol\":10578:10740  RemainingCountdownInfo(_benefactor,benefactors[_benefactor].countdownDuration, responseTime, block.timestamp, benefactors[_benefactor].lastBenefactorResponseTime) */\n      dup5\n      and\n        /* \"DeadMansSwitch.sol\":10613:10637  benefactors[_benefactor] */\n      0x00\n      dup2\n      dup2\n      mstore\n        /* \"DeadMansSwitch.sol\":10613:10624  benefactors */\n      0x02\n        /* \"DeadMansSwitch.sol\":10613:10637  benefactors[_benefactor] */\n      0x20\n      dup2\n      dup2\n      mstore\n      0x40\n      swap3\n      dup4\n      swap1\n      keccak256\n        /* \"DeadMansSwitch.sol\":10613:10655  benefactors[_benefactor].countdownDuration */\n      swap2\n      dup3\n      add\n      sload\n        /* \"DeadMansSwitch.sol\":10688:10739  benefactors[_benefactor].lastBenefactorResponseTime */\n      0x03\n      swap1\n      swap3\n      add\n      sload\n        /* \"DeadMansSwitch.sol\":10578:10740  RemainingCountdownInfo(_benefactor,benefactors[_benefactor].countdownDuration, responseTime, block.timestamp, benefactors[_benefactor].lastBenefactorResponseTime) */\n      dup4\n      mload\n        /* \"#utility.yul\":6182:6207   */\n      swap3\n      dup4\n      mstore\n        /* \"#utility.yul\":6223:6241   */\n      swap1\n      dup3\n      add\n        /* \"#utility.yul\":6216:6250   */\n      dup6\n      swap1\n      mstore\n        /* \"DeadMansSwitch.sol\":10671:10686  block.timestamp */\n      timestamp\n        /* \"#utility.yul\":6266:6284   */\n      dup3\n      dup5\n      add\n        /* \"#utility.yul\":6259:6293   */\n      mstore\n        /* \"#utility.yul\":6324:6326   */\n      0x60\n        /* \"#utility.yul\":6309:6327   */\n      dup3\n      add\n        /* \"#utility.yul\":6302:6336   */\n      mstore\n        /* \"DeadMansSwitch.sol\":10578:10740  RemainingCountdownInfo(_benefactor,benefactors[_benefactor].countdownDuration, responseTime, block.timestamp, benefactors[_benefactor].lastBenefactorResponseTime) */\n      swap1\n      mload\n        /* \"#utility.yul\":6216:6250   */\n      swap3\n      swap4\n      pop\n        /* \"DeadMansSwitch.sol\":10578:10740  RemainingCountdownInfo(_benefactor,benefactors[_benefactor].countdownDuration, responseTime, block.timestamp, benefactors[_benefactor].lastBenefactorResponseTime) */\n      swap1\n      swap2\n      0x74a7c0c2e8065fcdbfca5ae9f6cf0233e47e9e75b6fcf75674dd4b7e3f9b8183\n      swap2\n      dup2\n      swap1\n      sub\n        /* \"#utility.yul\":6169:6172   */\n      0x80\n        /* \"DeadMansSwitch.sol\":10578:10740  RemainingCountdownInfo(_benefactor,benefactors[_benefactor].countdownDuration, responseTime, block.timestamp, benefactors[_benefactor].lastBenefactorResponseTime) */\n      add\n      swap1\n      log2\n      sub(shl(0xa0, 0x01), 0x01)\n        /* \"DeadMansSwitch.sol\":10774:10798  benefactors[_benefactor] */\n      dup4\n      and\n      0x00\n      swap1\n      dup2\n      mstore\n        /* \"DeadMansSwitch.sol\":10774:10785  benefactors */\n      0x02\n        /* \"DeadMansSwitch.sol\":10774:10798  benefactors[_benefactor] */\n      0x20\n      dup2\n      swap1\n      mstore\n      0x40\n      swap1\n      swap2\n      keccak256\n        /* \"DeadMansSwitch.sol\":10774:10816  benefactors[_benefactor].countdownDuration */\n      add\n      sload\n        /* \"DeadMansSwitch.sol\":10759:10816  responseTime > benefactors[_benefactor].countdownDuration */\n      dup2\n      gt\n        /* \"DeadMansSwitch.sol\":10758:10881  (responseTime > benefactors[_benefactor].countdownDuration) ? 0 : benefactors[_benefactor].countdownDuration - responseTime */\n      tag_112\n      jumpi\n      sub(shl(0xa0, 0x01), 0x01)\n        /* \"DeadMansSwitch.sol\":10824:10848  benefactors[_benefactor] */\n      dup4\n      and\n      0x00\n      swap1\n      dup2\n      mstore\n        /* \"DeadMansSwitch.sol\":10824:10835  benefactors */\n      0x02\n        /* \"DeadMansSwitch.sol\":10824:10848  benefactors[_benefactor] */\n      0x20\n      dup2\n      swap1\n      mstore\n      0x40\n      swap1\n      swap2\n      keccak256\n        /* \"DeadMansSwitch.sol\":10824:10866  benefactors[_benefactor].countdownDuration */\n      add\n      sload\n        /* \"DeadMansSwitch.sol\":10824:10881  benefactors[_benefactor].countdownDuration - responseTime */\n      tag_113\n      swap1\n        /* \"DeadMansSwitch.sol\":10869:10881  responseTime */\n      dup3\n      swap1\n        /* \"DeadMansSwitch.sol\":10824:10881  benefactors[_benefactor].countdownDuration - responseTime */\n      tag_109\n      jump\t// in\n    tag_113:\n        /* \"DeadMansSwitch.sol\":10758:10881  (responseTime > benefactors[_benefactor].countdownDuration) ? 0 : benefactors[_benefactor].countdownDuration - responseTime */\n      jump(tag_114)\n    tag_112:\n        /* \"DeadMansSwitch.sol\":10820:10821  0 */\n      0x00\n        /* \"DeadMansSwitch.sol\":10758:10881  (responseTime > benefactors[_benefactor].countdownDuration) ? 0 : benefactors[_benefactor].countdownDuration - responseTime */\n    tag_114:\n        /* \"DeadMansSwitch.sol\":10751:10881  return (responseTime > benefactors[_benefactor].countdownDuration) ? 0 : benefactors[_benefactor].countdownDuration - responseTime */\n      swap4\n        /* \"DeadMansSwitch.sol\":10378:10889  function getRemainingCountdownTime(address _benefactor) public returns (uint256) {... */\n      swap3\n      pop\n      pop\n      pop\n      jump\t// out\n        /* \"DeadMansSwitch.sol\":11099:11683  function checkAliveStatus(address _benefactor) public returns (bool) {... */\n    tag_38:\n        /* \"DeadMansSwitch.sol\":11162:11166  bool */\n      0x00\n        /* \"DeadMansSwitch.sol\":11183:11211  getSwitchStatus(_benefactor) */\n      tag_116\n        /* \"DeadMansSwitch.sol\":11199:11210  _benefactor */\n      dup3\n        /* \"DeadMansSwitch.sol\":11183:11198  getSwitchStatus */\n      tag_43\n        /* \"DeadMansSwitch.sol\":11183:11211  getSwitchStatus(_benefactor) */\n      jump\t// in\n    tag_116:\n        /* \"DeadMansSwitch.sol\":11179:11536  if (getSwitchStatus(_benefactor)){... */\n      iszero\n      tag_118\n      jumpi\n      sub(shl(0xa0, 0x01), 0x01)\n        /* \"DeadMansSwitch.sol\":11231:11255  benefactors[_benefactor] */\n      dup3\n      and\n      0x00\n      swap1\n      dup2\n      mstore\n        /* \"DeadMansSwitch.sol\":11231:11242  benefactors */\n      0x02\n        /* \"DeadMansSwitch.sol\":11231:11255  benefactors[_benefactor] */\n      0x20\n      mstore\n      0x40\n      swap1\n      keccak256\n        /* \"DeadMansSwitch.sol\":11231:11282  benefactors[_benefactor].lastBenefactorResponseTime */\n      0x03\n      add\n      sload\n        /* \"DeadMansSwitch.sol\":11231:11287  benefactors[_benefactor].lastBenefactorResponseTime != 0 */\n      iszero\n        /* \"DeadMansSwitch.sol\":11227:11522  if (benefactors[_benefactor].lastBenefactorResponseTime != 0) {... */\n      tag_118\n      jumpi\n        /* \"DeadMansSwitch.sol\":11308:11334  uint256 remainingCountdown */\n      0x00\n        /* \"DeadMansSwitch.sol\":11337:11375  getRemainingCountdownTime(_benefactor) */\n      tag_119\n        /* \"DeadMansSwitch.sol\":11363:11374  _benefactor */\n      dup4\n        /* \"DeadMansSwitch.sol\":11337:11362  getRemainingCountdownTime */\n      tag_33\n        /* \"DeadMansSwitch.sol\":11337:11375  getRemainingCountdownTime(_benefactor) */\n      jump\t// in\n    tag_119:\n        /* \"DeadMansSwitch.sol\":11308:11375  uint256 remainingCountdown = getRemainingCountdownTime(_benefactor) */\n      swap1\n      pop\n        /* \"DeadMansSwitch.sol\":11420:11421  0 */\n      0x00\n        /* \"DeadMansSwitch.sol\":11398:11416  remainingCountdown */\n      dup2\n        /* \"DeadMansSwitch.sol\":11398:11421  remainingCountdown <= 0 */\n      gt\n        /* \"DeadMansSwitch.sol\":11394:11506  if (remainingCountdown <= 0) {... */\n      tag_120\n      jumpi\n      sub(shl(0xa0, 0x01), 0x01)\n        /* \"DeadMansSwitch.sol\":11446:11470  benefactors[_benefactor] */\n      dup4\n      and\n        /* \"DeadMansSwitch.sol\":11481:11486  false */\n      0x00\n        /* \"DeadMansSwitch.sol\":11446:11470  benefactors[_benefactor] */\n      swap1\n      dup2\n      mstore\n        /* \"DeadMansSwitch.sol\":11446:11457  benefactors */\n      0x02\n        /* \"DeadMansSwitch.sol\":11446:11470  benefactors[_benefactor] */\n      0x20\n      mstore\n      0x40\n      swap1\n      keccak256\n        /* \"DeadMansSwitch.sol\":11446:11478  benefactors[_benefactor].isAlive */\n      0x04\n      add\n        /* \"DeadMansSwitch.sol\":11446:11486  benefactors[_benefactor].isAlive = false */\n      dup1\n      sload\n      not(0xff00)\n      and\n      swap1\n      sstore\n        /* \"DeadMansSwitch.sol\":11394:11506  if (remainingCountdown <= 0) {... */\n    tag_120:\n        /* \"DeadMansSwitch.sol\":11289:11522  {... */\n      pop\n        /* \"DeadMansSwitch.sol\":11227:11522  if (benefactors[_benefactor].lastBenefactorResponseTime != 0) {... */\n    tag_118:\n      pop\n      sub(shl(0xa0, 0x01), 0x01)\n        /* \"DeadMansSwitch.sol\":11643:11667  benefactors[_benefactor] */\n      and\n      0x00\n      swap1\n      dup2\n      mstore\n        /* \"DeadMansSwitch.sol\":11643:11654  benefactors */\n      0x02\n        /* \"DeadMansSwitch.sol\":11643:11667  benefactors[_benefactor] */\n      0x20\n      mstore\n      0x40\n      swap1\n      keccak256\n        /* \"DeadMansSwitch.sol\":11643:11675  benefactors[_benefactor].isAlive */\n      0x04\n      add\n      sload\n      0x0100\n      swap1\n      div\n      0xff\n      and\n      swap1\n        /* \"DeadMansSwitch.sol\":11099:11683  function checkAliveStatus(address _benefactor) public returns (bool) {... */\n      jump\t// out\n        /* \"DeadMansSwitch.sol\":5938:6155  function getSwitchStatus(address _benefactor) public view returns (bool) {... */\n    tag_43:\n      sub(shl(0xa0, 0x01), 0x01)\n        /* \"DeadMansSwitch.sol\":6030:6054  benefactors[_benefactor] */\n      dup2\n      and\n        /* \"DeadMansSwitch.sol\":6005:6009  bool */\n      0x00\n        /* \"DeadMansSwitch.sol\":6030:6054  benefactors[_benefactor] */\n      swap1\n      dup2\n      mstore\n        /* \"DeadMansSwitch.sol\":6030:6041  benefactors */\n      0x02\n        /* \"DeadMansSwitch.sol\":6030:6054  benefactors[_benefactor] */\n      0x20\n      mstore\n      0x40\n      dup2\n      keccak256\n        /* \"DeadMansSwitch.sol\":6030:6061  benefactors[_benefactor].exists */\n      sload\n      0xff\n      and\n        /* \"DeadMansSwitch.sol\":6022:6090  require(benefactors[_benefactor].exists,\"Benefactor does not exist\") */\n      tag_122\n      jumpi\n      mload(0x40)\n      shl(0xe5, 0x461bcd)\n      dup2\n      mstore\n        /* \"#utility.yul\":6549:6551   */\n      0x20\n        /* \"DeadMansSwitch.sol\":6022:6090  require(benefactors[_benefactor].exists,\"Benefactor does not exist\") */\n      0x04\n      dup3\n      add\n        /* \"#utility.yul\":6531:6552   */\n      mstore\n        /* \"#utility.yul\":6588:6590   */\n      0x19\n        /* \"#utility.yul\":6568:6586   */\n      0x24\n      dup3\n      add\n        /* \"#utility.yul\":6561:6591   */\n      mstore\n        /* \"#utility.yul\":6627:6654   */\n      0x42656e65666163746f7220646f6573206e6f7420657869737400000000000000\n        /* \"#utility.yul\":6607:6625   */\n      0x44\n      dup3\n      add\n        /* \"#utility.yul\":6600:6655   */\n      mstore\n        /* \"#utility.yul\":6672:6690   */\n      0x64\n      add\n        /* \"DeadMansSwitch.sol\":6022:6090  require(benefactors[_benefactor].exists,\"Benefactor does not exist\") */\n    tag_123:\n      mload(0x40)\n      dup1\n      swap2\n      sub\n      swap1\n      revert\n    tag_122:\n      pop\n      sub(shl(0xa0, 0x01), 0x01)\n        /* \"DeadMansSwitch.sol\":6109:6133  benefactors[_benefactor] */\n      and\n      0x00\n      swap1\n      dup2\n      mstore\n        /* \"DeadMansSwitch.sol\":6109:6120  benefactors */\n      0x02\n        /* \"DeadMansSwitch.sol\":6109:6133  benefactors[_benefactor] */\n      0x20\n      mstore\n      0x40\n      swap1\n      keccak256\n        /* \"DeadMansSwitch.sol\":6109:6147  benefactors[_benefactor].isSwitchedOff */\n      0x04\n      add\n      sload\n      0xff\n      and\n        /* \"DeadMansSwitch.sol\":6108:6147  !benefactors[_benefactor].isSwitchedOff */\n      iszero\n      swap1\n        /* \"DeadMansSwitch.sol\":5938:6155  function getSwitchStatus(address _benefactor) public view returns (bool) {... */\n      jump\t// out\n        /* \"DeadMansSwitch.sol\":3349:3519  function isBeneficiary(address _benefactor, address _address) public view returns (bool) {... */\n    tag_48:\n      sub(shl(0xa0, 0x01), 0x01)\n        /* \"DeadMansSwitch.sol\":3456:3480  benefactors[_benefactor] */\n      dup1\n      dup4\n      and\n        /* \"DeadMansSwitch.sol\":3432:3436  bool */\n      0x00\n        /* \"DeadMansSwitch.sol\":3456:3480  benefactors[_benefactor] */\n      swap1\n      dup2\n      mstore\n        /* \"DeadMansSwitch.sol\":3456:3467  benefactors */\n      0x02\n        /* \"DeadMansSwitch.sol\":3456:3480  benefactors[_benefactor] */\n      0x20\n      swap1\n      dup2\n      mstore\n      0x40\n      dup1\n      dup4\n      keccak256\n        /* \"DeadMansSwitch.sol\":3456:3504  benefactors[_benefactor].beneficiaries[_address] */\n      swap4\n      dup6\n      and\n      dup4\n      mstore\n        /* \"DeadMansSwitch.sol\":3456:3494  benefactors[_benefactor].beneficiaries */\n      0x01\n      swap1\n      swap4\n      add\n        /* \"DeadMansSwitch.sol\":3456:3504  benefactors[_benefactor].beneficiaries[_address] */\n      swap1\n      mstore\n      keccak256\n        /* \"DeadMansSwitch.sol\":3456:3511  benefactors[_benefactor].beneficiaries[_address].exists */\n      sload\n      0xff\n      and\n        /* \"DeadMansSwitch.sol\":3349:3519  function isBeneficiary(address _benefactor, address _address) public view returns (bool) {... */\n    tag_125:\n      swap3\n      swap2\n      pop\n      pop\n      jump\t// out\n        /* \"DeadMansSwitch.sol\":14251:15246  function getData(address _benefactor) public returns (bool switchStatus, address[] memory beneficiaries, uint256 remainingTime) {... */\n    tag_54:\n      sub(shl(0xa0, 0x01), 0x01)\n        /* \"DeadMansSwitch.sol\":14398:14422  benefactors[_benefactor] */\n      dup2\n      and\n        /* \"DeadMansSwitch.sol\":14305:14322  bool switchStatus */\n      0x00\n        /* \"DeadMansSwitch.sol\":14398:14422  benefactors[_benefactor] */\n      swap1\n      dup2\n      mstore\n        /* \"DeadMansSwitch.sol\":14398:14409  benefactors */\n      0x02\n        /* \"DeadMansSwitch.sol\":14398:14422  benefactors[_benefactor] */\n      0x20\n      mstore\n      0x40\n      dup2\n      keccak256\n        /* \"DeadMansSwitch.sol\":14398:14429  benefactors[_benefactor].exists */\n      sload\n        /* \"DeadMansSwitch.sol\":14324:14354  address[] memory beneficiaries */\n      0x60\n      swap1\n        /* \"DeadMansSwitch.sol\":14305:14322  bool switchStatus */\n      dup3\n      swap1\n        /* \"DeadMansSwitch.sol\":14398:14429  benefactors[_benefactor].exists */\n      0xff\n      and\n        /* \"DeadMansSwitch.sol\":14390:14459  require(benefactors[_benefactor].exists, \"Benefactor does not exist\") */\n      tag_128\n      jumpi\n      mload(0x40)\n      shl(0xe5, 0x461bcd)\n      dup2\n      mstore\n        /* \"#utility.yul\":6549:6551   */\n      0x20\n        /* \"DeadMansSwitch.sol\":14390:14459  require(benefactors[_benefactor].exists, \"Benefactor does not exist\") */\n      0x04\n      dup3\n      add\n        /* \"#utility.yul\":6531:6552   */\n      mstore\n        /* \"#utility.yul\":6588:6590   */\n      0x19\n        /* \"#utility.yul\":6568:6586   */\n      0x24\n      dup3\n      add\n        /* \"#utility.yul\":6561:6591   */\n      mstore\n        /* \"#utility.yul\":6627:6654   */\n      0x42656e65666163746f7220646f6573206e6f7420657869737400000000000000\n        /* \"#utility.yul\":6607:6625   */\n      0x44\n      dup3\n      add\n        /* \"#utility.yul\":6600:6655   */\n      mstore\n        /* \"#utility.yul\":6672:6690   */\n      0x64\n      add\n        /* \"DeadMansSwitch.sol\":14390:14459  require(benefactors[_benefactor].exists, \"Benefactor does not exist\") */\n      tag_123\n        /* \"#utility.yul\":6347:6696   */\n      jump\n        /* \"DeadMansSwitch.sol\":14390:14459  require(benefactors[_benefactor].exists, \"Benefactor does not exist\") */\n    tag_128:\n      sub(shl(0xa0, 0x01), 0x01)\n        /* \"DeadMansSwitch.sol\":14486:14510  benefactors[_benefactor] */\n      dup5\n      and\n      0x00\n      swap1\n      dup2\n      mstore\n        /* \"DeadMansSwitch.sol\":14486:14497  benefactors */\n      0x02\n        /* \"DeadMansSwitch.sol\":14486:14510  benefactors[_benefactor] */\n      0x20\n      swap1\n      dup2\n      mstore\n      0x40\n      dup1\n      dup4\n      keccak256\n        /* \"DeadMansSwitch.sol\":14486:14524  benefactors[_benefactor].isSwitchedOff */\n      0x04\n      add\n      sload\n        /* \"DeadMansSwitch.sol\":3734:3749  beneficiaryKeys */\n      0x03\n        /* \"DeadMansSwitch.sol\":3734:3762  beneficiaryKeys[_benefactor] */\n      swap1\n      swap3\n      mstore\n      swap1\n      swap2\n      keccak256\n        /* \"DeadMansSwitch.sol\":3734:3769  beneficiaryKeys[_benefactor].length */\n      sload\n        /* \"DeadMansSwitch.sol\":14486:14524  benefactors[_benefactor].isSwitchedOff */\n      0xff\n      swap1\n      swap2\n      and\n        /* \"DeadMansSwitch.sol\":14485:14524  !benefactors[_benefactor].isSwitchedOff */\n      iszero\n      swap4\n      pop\n        /* \"DeadMansSwitch.sol\":14551:14600  new address[](getBeneficiariesCount(_benefactor)) */\n      0xffffffffffffffff\n      dup2\n      gt\n      iszero\n      tag_133\n      jumpi\n      tag_133\n      tag_134\n      jump\t// in\n    tag_133:\n      mload(0x40)\n      swap1\n      dup1\n      dup3\n      mstore\n      dup1\n      0x20\n      mul\n      0x20\n      add\n      dup3\n      add\n      0x40\n      mstore\n      dup1\n      iszero\n      tag_135\n      jumpi\n      dup2\n      0x20\n      add\n      0x20\n      dup3\n      mul\n      dup1\n      calldatasize\n      dup4\n      calldatacopy\n      add\n      swap1\n      pop\n    tag_135:\n      pop\n        /* \"DeadMansSwitch.sol\":14535:14600  beneficiaries = new address[](getBeneficiariesCount(_benefactor)) */\n      swap2\n      pop\n        /* \"DeadMansSwitch.sol\":14611:14624  uint256 index */\n      0x00\n        /* \"DeadMansSwitch.sol\":14644:14653  uint256 i */\n      dup1\n        /* \"DeadMansSwitch.sol\":14639:14915  for (uint256 i = 0; i < beneficiaries.length; i++) {... */\n    tag_136:\n        /* \"DeadMansSwitch.sol\":14663:14676  beneficiaries */\n      dup4\n        /* \"DeadMansSwitch.sol\":14663:14683  beneficiaries.length */\n      mload\n        /* \"DeadMansSwitch.sol\":14659:14660  i */\n      dup2\n        /* \"DeadMansSwitch.sol\":14659:14683  i < beneficiaries.length */\n      lt\n        /* \"DeadMansSwitch.sol\":14639:14915  for (uint256 i = 0; i < beneficiaries.length; i++) {... */\n      iszero\n      tag_137\n      jumpi\n      sub(shl(0xa0, 0x01), 0x01)\n        /* \"DeadMansSwitch.sol\":14709:14733  benefactors[_benefactor] */\n      dup7\n      and\n      0x00\n      swap1\n      dup2\n      mstore\n        /* \"DeadMansSwitch.sol\":14709:14720  benefactors */\n      0x02\n        /* \"DeadMansSwitch.sol\":14709:14733  benefactors[_benefactor] */\n      0x20\n      swap1\n      dup2\n      mstore\n      0x40\n      dup1\n      dup4\n      keccak256\n        /* \"DeadMansSwitch.sol\":14748:14763  beneficiaryKeys */\n      0x03\n        /* \"DeadMansSwitch.sol\":14748:14776  beneficiaryKeys[_benefactor] */\n      swap1\n      swap3\n      mstore\n      dup3\n      keccak256\n        /* \"DeadMansSwitch.sol\":14748:14779  beneficiaryKeys[_benefactor][i] */\n      dup1\n      sload\n        /* \"DeadMansSwitch.sol\":14709:14747  benefactors[_benefactor].beneficiaries */\n      0x01\n      swap1\n      swap3\n      add\n      swap3\n        /* \"DeadMansSwitch.sol\":14709:14733  benefactors[_benefactor] */\n      swap2\n        /* \"DeadMansSwitch.sol\":14777:14778  i */\n      dup5\n      swap1\n        /* \"DeadMansSwitch.sol\":14748:14779  beneficiaryKeys[_benefactor][i] */\n      dup2\n      lt\n      tag_140\n      jumpi\n      tag_140\n      tag_141\n      jump\t// in\n    tag_140:\n      0x00\n      swap2\n      dup3\n      mstore\n      0x20\n      dup1\n      dup4\n      keccak256\n      swap1\n      swap2\n      add\n      sload\n      sub(shl(0xa0, 0x01), 0x01)\n      and\n        /* \"DeadMansSwitch.sol\":14709:14780  benefactors[_benefactor].beneficiaries[beneficiaryKeys[_benefactor][i]] */\n      dup4\n      mstore\n      dup3\n      add\n      swap3\n      swap1\n      swap3\n      mstore\n      0x40\n      add\n      swap1\n      keccak256\n        /* \"DeadMansSwitch.sol\":14709:14787  benefactors[_benefactor].beneficiaries[beneficiaryKeys[_benefactor][i]].exists */\n      sload\n      0xff\n      and\n        /* \"DeadMansSwitch.sol\":14705:14904  if (benefactors[_benefactor].beneficiaries[beneficiaryKeys[_benefactor][i]].exists) {... */\n      iszero\n      tag_143\n      jumpi\n      sub(shl(0xa0, 0x01), 0x01)\n        /* \"DeadMansSwitch.sol\":14831:14859  beneficiaryKeys[_benefactor] */\n      dup7\n      and\n      0x00\n      swap1\n      dup2\n      mstore\n        /* \"DeadMansSwitch.sol\":14831:14846  beneficiaryKeys */\n      0x03\n        /* \"DeadMansSwitch.sol\":14831:14859  beneficiaryKeys[_benefactor] */\n      0x20\n      mstore\n      0x40\n      swap1\n      keccak256\n        /* \"DeadMansSwitch.sol\":14831:14862  beneficiaryKeys[_benefactor][i] */\n      dup1\n      sload\n        /* \"DeadMansSwitch.sol\":14860:14861  i */\n      dup3\n      swap1\n        /* \"DeadMansSwitch.sol\":14831:14862  beneficiaryKeys[_benefactor][i] */\n      dup2\n      lt\n      tag_145\n      jumpi\n      tag_145\n      tag_141\n      jump\t// in\n    tag_145:\n      swap1\n      0x00\n      mstore\n      keccak256(0x00, 0x20)\n      add\n      0x00\n      swap1\n      sload\n      swap1\n      0x0100\n      exp\n      swap1\n      div\n      sub(shl(0xa0, 0x01), 0x01)\n      and\n        /* \"DeadMansSwitch.sol\":14808:14821  beneficiaries */\n      dup5\n        /* \"DeadMansSwitch.sol\":14822:14827  index */\n      dup4\n        /* \"DeadMansSwitch.sol\":14808:14828  beneficiaries[index] */\n      dup2\n      mload\n      dup2\n      lt\n      tag_148\n      jumpi\n      tag_148\n      tag_141\n      jump\t// in\n    tag_148:\n      sub(shl(0xa0, 0x01), 0x01)\n        /* \"DeadMansSwitch.sol\":14808:14862  beneficiaries[index] = beneficiaryKeys[_benefactor][i] */\n      swap1\n      swap3\n      and\n        /* \"DeadMansSwitch.sol\":14808:14828  beneficiaries[index] */\n      0x20\n      swap3\n      dup4\n      mul\n      swap2\n      swap1\n      swap2\n      add\n      swap1\n      swap2\n      add\n        /* \"DeadMansSwitch.sol\":14808:14862  beneficiaries[index] = beneficiaryKeys[_benefactor][i] */\n      mstore\n        /* \"DeadMansSwitch.sol\":14881:14888  index++ */\n      dup2\n      tag_149\n      dup2\n      tag_150\n      jump\t// in\n    tag_149:\n      swap3\n      pop\n      pop\n        /* \"DeadMansSwitch.sol\":14705:14904  if (benefactors[_benefactor].beneficiaries[beneficiaryKeys[_benefactor][i]].exists) {... */\n    tag_143:\n        /* \"DeadMansSwitch.sol\":14685:14688  i++ */\n      dup1\n      tag_151\n      dup2\n      tag_150\n      jump\t// in\n    tag_151:\n      swap2\n      pop\n      pop\n        /* \"DeadMansSwitch.sol\":14639:14915  for (uint256 i = 0; i < beneficiaries.length; i++) {... */\n      jump(tag_136)\n    tag_137:\n      pop\n      sub(shl(0xa0, 0x01), 0x01)\n        /* \"DeadMansSwitch.sol\":14929:14953  benefactors[_benefactor] */\n      dup6\n      and\n      0x00\n      swap1\n      dup2\n      mstore\n        /* \"DeadMansSwitch.sol\":14929:14940  benefactors */\n      0x02\n        /* \"DeadMansSwitch.sol\":14929:14953  benefactors[_benefactor] */\n      0x20\n      mstore\n      0x40\n      swap1\n      keccak256\n        /* \"DeadMansSwitch.sol\":14929:14967  benefactors[_benefactor].isSwitchedOff */\n      0x04\n      add\n      sload\n      0xff\n      and\n        /* \"DeadMansSwitch.sol\":14925:15100  if (benefactors[_benefactor].isSwitchedOff) {... */\n      iszero\n      tag_152\n      jumpi\n        /* \"DeadMansSwitch.sol\":15000:15001  0 */\n      0x00\n        /* \"DeadMansSwitch.sol\":14984:15001  remainingTime = 0 */\n      swap2\n      pop\n        /* \"DeadMansSwitch.sol\":14925:15100  if (benefactors[_benefactor].isSwitchedOff) {... */\n      jump(tag_153)\n    tag_152:\n        /* \"DeadMansSwitch.sol\":15050:15088  getRemainingCountdownTime(_benefactor) */\n      tag_154\n        /* \"DeadMansSwitch.sol\":15076:15087  _benefactor */\n      dup6\n        /* \"DeadMansSwitch.sol\":15050:15075  getRemainingCountdownTime */\n      tag_33\n        /* \"DeadMansSwitch.sol\":15050:15088  getRemainingCountdownTime(_benefactor) */\n      jump\t// in\n    tag_154:\n        /* \"DeadMansSwitch.sol\":15034:15088  remainingTime = getRemainingCountdownTime(_benefactor) */\n      swap2\n      pop\n        /* \"DeadMansSwitch.sol\":14925:15100  if (benefactors[_benefactor].isSwitchedOff) {... */\n    tag_153:\n        /* \"DeadMansSwitch.sol\":15115:15176  BeneficiariesData(switchStatus, beneficiaries, remainingTime) */\n      0x0dd263db0c9fa976850dae07ea6a26e6781d52ed1a3dbf2da9335431c5664c20\n        /* \"DeadMansSwitch.sol\":15133:15145  switchStatus */\n      dup5\n        /* \"DeadMansSwitch.sol\":15147:15160  beneficiaries */\n      dup5\n        /* \"DeadMansSwitch.sol\":15162:15175  remainingTime */\n      dup5\n        /* \"DeadMansSwitch.sol\":15115:15176  BeneficiariesData(switchStatus, beneficiaries, remainingTime) */\n      mload(0x40)\n      tag_155\n      swap4\n      swap3\n      swap2\n      swap1\n      tag_56\n      jump\t// in\n    tag_155:\n      mload(0x40)\n      dup1\n      swap2\n      sub\n      swap1\n      log1\n        /* \"DeadMansSwitch.sol\":15187:15238  return (switchStatus, beneficiaries, remainingTime) */\n      pop\n        /* \"DeadMansSwitch.sol\":14251:15246  function getData(address _benefactor) public returns (bool switchStatus, address[] memory beneficiaries, uint256 remainingTime) {... */\n      swap2\n      swap4\n      swap1\n      swap3\n      pop\n      jump\t// out\n        /* \"DeadMansSwitch.sol\":4361:4725  function addBeneficiaryPublicKey(address _benefactor, address _beneficiary, string memory _key) public {... */\n    tag_60:\n        /* \"DeadMansSwitch.sol\":4483:4522  isBeneficiary(_benefactor,_beneficiary) */\n      tag_157\n        /* \"DeadMansSwitch.sol\":4497:4508  _benefactor */\n      dup4\n        /* \"DeadMansSwitch.sol\":4509:4521  _beneficiary */\n      dup4\n        /* \"DeadMansSwitch.sol\":4483:4496  isBeneficiary */\n      tag_48\n        /* \"DeadMansSwitch.sol\":4483:4522  isBeneficiary(_benefactor,_beneficiary) */\n      jump\t// in\n    tag_157:\n        /* \"DeadMansSwitch.sol\":4475:4559  require(isBeneficiary(_benefactor,_beneficiary), \"Beneficiary/Benefactor not found\") */\n      tag_158\n      jumpi\n      mload(0x40)\n      shl(0xe5, 0x461bcd)\n      dup2\n      mstore\n        /* \"#utility.yul\":7175:7177   */\n      0x20\n        /* \"DeadMansSwitch.sol\":4475:4559  require(isBeneficiary(_benefactor,_beneficiary), \"Beneficiary/Benefactor not found\") */\n      0x04\n      dup3\n      add\n        /* \"#utility.yul\":7157:7178   */\n      dup2\n      swap1\n      mstore\n        /* \"#utility.yul\":7194:7212   */\n      0x24\n      dup3\n      add\n        /* \"#utility.yul\":7187:7217   */\n      mstore\n        /* \"#utility.yul\":7253:7287   */\n      0x42656e65666963696172792f42656e65666163746f72206e6f7420666f756e64\n        /* \"#utility.yul\":7233:7251   */\n      0x44\n      dup3\n      add\n        /* \"#utility.yul\":7226:7288   */\n      mstore\n        /* \"#utility.yul\":7305:7323   */\n      0x64\n      add\n        /* \"DeadMansSwitch.sol\":4475:4559  require(isBeneficiary(_benefactor,_beneficiary), \"Beneficiary/Benefactor not found\") */\n      tag_123\n        /* \"#utility.yul\":6973:7329   */\n      jump\n        /* \"DeadMansSwitch.sol\":4475:4559  require(isBeneficiary(_benefactor,_beneficiary), \"Beneficiary/Benefactor not found\") */\n    tag_158:\n      sub(shl(0xa0, 0x01), 0x01)\n        /* \"DeadMansSwitch.sol\":4570:4594  benefactors[_benefactor] */\n      dup1\n      dup5\n      and\n      0x00\n      swap1\n      dup2\n      mstore\n        /* \"DeadMansSwitch.sol\":4570:4581  benefactors */\n      0x02\n        /* \"DeadMansSwitch.sol\":4570:4594  benefactors[_benefactor] */\n      0x20\n      swap1\n      dup2\n      mstore\n      0x40\n      dup1\n      dup4\n      keccak256\n        /* \"DeadMansSwitch.sol\":4570:4622  benefactors[_benefactor].beneficiaries[_beneficiary] */\n      swap4\n      dup7\n      and\n      dup4\n      mstore\n        /* \"DeadMansSwitch.sol\":4570:4608  benefactors[_benefactor].beneficiaries */\n      0x01\n      swap1\n      swap4\n      add\n        /* \"DeadMansSwitch.sol\":4570:4622  benefactors[_benefactor].beneficiaries[_beneficiary] */\n      swap1\n      mstore\n      keccak256\n        /* \"DeadMansSwitch.sol\":4570:4643  benefactors[_benefactor].beneficiaries[_beneficiary].beneficiaryPublicKey */\n      0x03\n      add\n        /* \"DeadMansSwitch.sol\":4570:4650  benefactors[_benefactor].beneficiaries[_beneficiary].beneficiaryPublicKey = _key */\n      tag_161\n        /* \"DeadMansSwitch.sol\":4646:4650  _key */\n      dup3\n        /* \"DeadMansSwitch.sol\":4570:4643  benefactors[_benefactor].beneficiaries[_beneficiary].beneficiaryPublicKey */\n      dup3\n        /* \"DeadMansSwitch.sol\":4570:4650  benefactors[_benefactor].beneficiaries[_beneficiary].beneficiaryPublicKey = _key */\n      tag_162\n      jump\t// in\n    tag_161:\n      pop\n        /* \"DeadMansSwitch.sol\":4698:4710  _beneficiary */\n      dup2\n      sub(shl(0xa0, 0x01), 0x01)\n        /* \"DeadMansSwitch.sol\":4666:4717  BeneficiaryKeyAdded(_benefactor,_beneficiary, _key) */\n      and\n        /* \"DeadMansSwitch.sol\":4686:4697  _benefactor */\n      dup4\n      sub(shl(0xa0, 0x01), 0x01)\n        /* \"DeadMansSwitch.sol\":4666:4717  BeneficiaryKeyAdded(_benefactor,_beneficiary, _key) */\n      and\n      0x69ccea10852ac51b01745414774b5af302217e774786d2068296650b57ba03f2\n        /* \"DeadMansSwitch.sol\":4712:4716  _key */\n      dup4\n        /* \"DeadMansSwitch.sol\":4666:4717  BeneficiaryKeyAdded(_benefactor,_beneficiary, _key) */\n      mload(0x40)\n      tag_163\n      swap2\n      swap1\n      tag_82\n      jump\t// in\n    tag_163:\n      mload(0x40)\n      dup1\n      swap2\n      sub\n      swap1\n      log3\n        /* \"DeadMansSwitch.sol\":4361:4725  function addBeneficiaryPublicKey(address _benefactor, address _beneficiary, string memory _key) public {... */\n      pop\n      pop\n      pop\n      jump\t// out\n        /* \"DeadMansSwitch.sol\":7355:8095  function addIpfsCID(address _beneficiary, string memory _ipfsCID) external onlyBenefactor {... */\n    tag_68:\n        /* \"DeadMansSwitch.sol\":2488:2498  msg.sender */\n      caller\n        /* \"DeadMansSwitch.sol\":2476:2499  benefactors[msg.sender] */\n      0x00\n      swap1\n      dup2\n      mstore\n        /* \"DeadMansSwitch.sol\":2476:2487  benefactors */\n      0x02\n        /* \"DeadMansSwitch.sol\":2476:2499  benefactors[msg.sender] */\n      0x20\n      mstore\n      0x40\n      swap1\n      keccak256\n        /* \"DeadMansSwitch.sol\":2476:2506  benefactors[msg.sender].exists */\n      sload\n      0xff\n      and\n        /* \"DeadMansSwitch.sol\":2476:2541  benefactors[msg.sender].exists && benefactors[msg.sender].isAlive */\n      dup1\n      iszero\n      tag_166\n      jumpi\n      pop\n        /* \"DeadMansSwitch.sol\":2522:2532  msg.sender */\n      caller\n        /* \"DeadMansSwitch.sol\":2510:2533  benefactors[msg.sender] */\n      0x00\n      swap1\n      dup2\n      mstore\n        /* \"DeadMansSwitch.sol\":2510:2521  benefactors */\n      0x02\n        /* \"DeadMansSwitch.sol\":2510:2533  benefactors[msg.sender] */\n      0x20\n      mstore\n      0x40\n      swap1\n      keccak256\n        /* \"DeadMansSwitch.sol\":2510:2541  benefactors[msg.sender].isAlive */\n      0x04\n      add\n      sload\n      0x0100\n      swap1\n      div\n      0xff\n      and\n        /* \"DeadMansSwitch.sol\":2476:2541  benefactors[msg.sender].exists && benefactors[msg.sender].isAlive */\n    tag_166:\n        /* \"DeadMansSwitch.sol\":2468:2568  require(benefactors[msg.sender].exists && benefactors[msg.sender].isAlive, \"Not a valid benefactor\") */\n      tag_167\n      jumpi\n      mload(0x40)\n      shl(0xe5, 0x461bcd)\n      dup2\n      mstore\n        /* \"#utility.yul\":10125:10127   */\n      0x20\n        /* \"DeadMansSwitch.sol\":2468:2568  require(benefactors[msg.sender].exists && benefactors[msg.sender].isAlive, \"Not a valid benefactor\") */\n      0x04\n      dup3\n      add\n        /* \"#utility.yul\":10107:10128   */\n      mstore\n        /* \"#utility.yul\":10164:10166   */\n      0x16\n        /* \"#utility.yul\":10144:10162   */\n      0x24\n      dup3\n      add\n        /* \"#utility.yul\":10137:10167   */\n      mstore\n      shl(0x51, 0x2737ba1030903b30b634b2103132b732b330b1ba37b9)\n        /* \"#utility.yul\":10183:10201   */\n      0x44\n      dup3\n      add\n        /* \"#utility.yul\":10176:10228   */\n      mstore\n        /* \"#utility.yul\":10245:10263   */\n      0x64\n      add\n        /* \"DeadMansSwitch.sol\":2468:2568  require(benefactors[msg.sender].exists && benefactors[msg.sender].isAlive, \"Not a valid benefactor\") */\n      tag_123\n        /* \"#utility.yul\":9923:10269   */\n      jump\n        /* \"DeadMansSwitch.sol\":2468:2568  require(benefactors[msg.sender].exists && benefactors[msg.sender].isAlive, \"Not a valid benefactor\") */\n    tag_167:\n        /* \"DeadMansSwitch.sol\":7464:7502  isBeneficiary(msg.sender,_beneficiary) */\n      tag_171\n        /* \"DeadMansSwitch.sol\":7478:7488  msg.sender */\n      caller\n        /* \"DeadMansSwitch.sol\":7489:7501  _beneficiary */\n      dup4\n        /* \"DeadMansSwitch.sol\":7464:7477  isBeneficiary */\n      tag_48\n        /* \"DeadMansSwitch.sol\":7464:7502  isBeneficiary(msg.sender,_beneficiary) */\n      jump\t// in\n    tag_171:\n        /* \"DeadMansSwitch.sol\":7456:7528  require(isBeneficiary(msg.sender,_beneficiary), \"Beneficiary not found\") */\n      tag_172\n      jumpi\n      mload(0x40)\n      shl(0xe5, 0x461bcd)\n      dup2\n      mstore\n        /* \"#utility.yul\":10476:10478   */\n      0x20\n        /* \"DeadMansSwitch.sol\":7456:7528  require(isBeneficiary(msg.sender,_beneficiary), \"Beneficiary not found\") */\n      0x04\n      dup3\n      add\n        /* \"#utility.yul\":10458:10479   */\n      mstore\n        /* \"#utility.yul\":10515:10517   */\n      0x15\n        /* \"#utility.yul\":10495:10513   */\n      0x24\n      dup3\n      add\n        /* \"#utility.yul\":10488:10518   */\n      mstore\n      shl(0x5a, 0x10995b99599a58da585c9e481b9bdd08199bdd5b99)\n        /* \"#utility.yul\":10534:10552   */\n      0x44\n      dup3\n      add\n        /* \"#utility.yul\":10527:10578   */\n      mstore\n        /* \"#utility.yul\":10595:10613   */\n      0x64\n      add\n        /* \"DeadMansSwitch.sol\":7456:7528  require(isBeneficiary(msg.sender,_beneficiary), \"Beneficiary not found\") */\n      tag_123\n        /* \"#utility.yul\":10274:10619   */\n      jump\n        /* \"DeadMansSwitch.sol\":7456:7528  require(isBeneficiary(msg.sender,_beneficiary), \"Beneficiary not found\") */\n    tag_172:\n        /* \"DeadMansSwitch.sol\":7579:7589  msg.sender */\n      caller\n        /* \"DeadMansSwitch.sol\":7539:7564  string[] storage ipfsCIDs */\n      0x00\n        /* \"DeadMansSwitch.sol\":7567:7590  benefactors[msg.sender] */\n      swap1\n      dup2\n      mstore\n        /* \"DeadMansSwitch.sol\":7567:7578  benefactors */\n      0x02\n        /* \"DeadMansSwitch.sol\":7567:7590  benefactors[msg.sender] */\n      0x20\n      swap1\n      dup2\n      mstore\n      0x40\n      dup1\n      dup4\n      keccak256\n      sub(shl(0xa0, 0x01), 0x01)\n        /* \"DeadMansSwitch.sol\":7567:7618  benefactors[msg.sender].beneficiaries[_beneficiary] */\n      dup7\n      and\n      dup5\n      mstore\n        /* \"DeadMansSwitch.sol\":7567:7604  benefactors[msg.sender].beneficiaries */\n      0x01\n      swap1\n      dup2\n      add\n        /* \"DeadMansSwitch.sol\":7567:7618  benefactors[msg.sender].beneficiaries[_beneficiary] */\n      swap1\n      swap3\n      mstore\n      dup3\n      keccak256\n        /* \"DeadMansSwitch.sol\":7567:7627  benefactors[msg.sender].beneficiaries[_beneficiary].ipfsCIDs */\n      add\n      swap1\n        /* \"DeadMansSwitch.sol\":7677:7884  for (uint256 i = 0; i < ipfsCIDs.length; i++) {... */\n    tag_175:\n        /* \"DeadMansSwitch.sol\":7701:7716  ipfsCIDs.length */\n      dup2\n      sload\n        /* \"DeadMansSwitch.sol\":7697:7716  i < ipfsCIDs.length */\n      dup2\n      lt\n        /* \"DeadMansSwitch.sol\":7677:7884  for (uint256 i = 0; i < ipfsCIDs.length; i++) {... */\n      iszero\n      tag_176\n      jumpi\n        /* \"DeadMansSwitch.sol\":7817:7825  _ipfsCID */\n      dup3\n        /* \"DeadMansSwitch.sol\":7800:7826  abi.encodePacked(_ipfsCID) */\n      add(0x20, mload(0x40))\n      tag_178\n      swap2\n      swap1\n      tag_179\n      jump\t// in\n    tag_178:\n      mload(0x40)\n      0x20\n      dup2\n      dup4\n      sub\n      sub\n      dup2\n      mstore\n      swap1\n      0x40\n      mstore\n        /* \"DeadMansSwitch.sol\":7790:7827  keccak256(abi.encodePacked(_ipfsCID)) */\n      dup1\n      mload\n      swap1\n      0x20\n      add\n      keccak256\n        /* \"DeadMansSwitch.sol\":7773:7781  ipfsCIDs */\n      dup3\n        /* \"DeadMansSwitch.sol\":7782:7783  i */\n      dup3\n        /* \"DeadMansSwitch.sol\":7773:7784  ipfsCIDs[i] */\n      dup2\n      sload\n      dup2\n      lt\n      tag_181\n      jumpi\n      tag_181\n      tag_141\n      jump\t// in\n    tag_181:\n      swap1\n      0x00\n      mstore\n      keccak256(0x00, 0x20)\n      add\n        /* \"DeadMansSwitch.sol\":7756:7785  abi.encodePacked(ipfsCIDs[i]) */\n      add(0x20, mload(0x40))\n      tag_183\n      swap2\n      swap1\n      tag_184\n      jump\t// in\n    tag_183:\n      mload(0x40)\n      0x20\n      dup2\n      dup4\n      sub\n      sub\n      dup2\n      mstore\n      swap1\n      0x40\n      mstore\n        /* \"DeadMansSwitch.sol\":7746:7786  keccak256(abi.encodePacked(ipfsCIDs[i])) */\n      dup1\n      mload\n      swap1\n      0x20\n      add\n      keccak256\n        /* \"DeadMansSwitch.sol\":7746:7827  keccak256(abi.encodePacked(ipfsCIDs[i])) != keccak256(abi.encodePacked(_ipfsCID)) */\n      sub\n        /* \"DeadMansSwitch.sol\":7738:7872  require(keccak256(abi.encodePacked(ipfsCIDs[i])) != keccak256(abi.encodePacked(_ipfsCID)), \"CID already assigned to this beneficiary\") */\n      tag_185\n      jumpi\n      mload(0x40)\n      shl(0xe5, 0x461bcd)\n      dup2\n      mstore\n        /* \"#utility.yul\":11967:11969   */\n      0x20\n        /* \"DeadMansSwitch.sol\":7738:7872  require(keccak256(abi.encodePacked(ipfsCIDs[i])) != keccak256(abi.encodePacked(_ipfsCID)), \"CID already assigned to this beneficiary\") */\n      0x04\n      dup3\n      add\n        /* \"#utility.yul\":11949:11970   */\n      mstore\n        /* \"#utility.yul\":12006:12008   */\n      0x28\n        /* \"#utility.yul\":11986:12004   */\n      0x24\n      dup3\n      add\n        /* \"#utility.yul\":11979:12009   */\n      mstore\n        /* \"#utility.yul\":12045:12079   */\n      0x43494420616c72656164792061737369676e656420746f20746869732062656e\n        /* \"#utility.yul\":12025:12043   */\n      0x44\n      dup3\n      add\n        /* \"#utility.yul\":12018:12080   */\n      mstore\n        /* \"#utility.yul\":12116:12126   */\n      0x6566696369617279000000000000000000000000000000000000000000000000\n        /* \"#utility.yul\":12096:12114   */\n      0x64\n      dup3\n      add\n        /* \"#utility.yul\":12089:12127   */\n      mstore\n        /* \"#utility.yul\":12144:12163   */\n      0x84\n      add\n        /* \"DeadMansSwitch.sol\":7738:7872  require(keccak256(abi.encodePacked(ipfsCIDs[i])) != keccak256(abi.encodePacked(_ipfsCID)), \"CID already assigned to this beneficiary\") */\n      tag_123\n        /* \"#utility.yul\":11765:12169   */\n      jump\n        /* \"DeadMansSwitch.sol\":7738:7872  require(keccak256(abi.encodePacked(ipfsCIDs[i])) != keccak256(abi.encodePacked(_ipfsCID)), \"CID already assigned to this beneficiary\") */\n    tag_185:\n        /* \"DeadMansSwitch.sol\":7718:7721  i++ */\n      dup1\n      tag_188\n      dup2\n      tag_150\n      jump\t// in\n    tag_188:\n      swap2\n      pop\n      pop\n        /* \"DeadMansSwitch.sol\":7677:7884  for (uint256 i = 0; i < ipfsCIDs.length; i++) {... */\n      jump(tag_175)\n    tag_176:\n      pop\n        /* \"DeadMansSwitch.sol\":7961:7971  msg.sender */\n      caller\n        /* \"DeadMansSwitch.sol\":7949:7972  benefactors[msg.sender] */\n      0x00\n      swap1\n      dup2\n      mstore\n        /* \"DeadMansSwitch.sol\":7949:7960  benefactors */\n      0x02\n        /* \"DeadMansSwitch.sol\":7949:7972  benefactors[msg.sender] */\n      0x20\n      swap1\n      dup2\n      mstore\n      0x40\n      dup1\n      dup4\n      keccak256\n      sub(shl(0xa0, 0x01), 0x01)\n        /* \"DeadMansSwitch.sol\":7949:8000  benefactors[msg.sender].beneficiaries[_beneficiary] */\n      dup8\n      and\n      dup5\n      mstore\n        /* \"DeadMansSwitch.sol\":7949:7986  benefactors[msg.sender].beneficiaries */\n      0x01\n      swap1\n      dup2\n      add\n        /* \"DeadMansSwitch.sol\":7949:8000  benefactors[msg.sender].beneficiaries[_beneficiary] */\n      dup4\n      mstore\n      swap1\n      dup4\n      keccak256\n        /* \"DeadMansSwitch.sol\":7949:8009  benefactors[msg.sender].beneficiaries[_beneficiary].ipfsCIDs */\n      dup2\n      add\n        /* \"DeadMansSwitch.sol\":7949:8024  benefactors[msg.sender].beneficiaries[_beneficiary].ipfsCIDs.push(_ipfsCID) */\n      dup1\n      sload\n      swap2\n      dup3\n      add\n      dup2\n      sstore\n      dup4\n      mstore\n      swap2\n      keccak256\n      add\n      tag_190\n        /* \"DeadMansSwitch.sol\":8015:8023  _ipfsCID */\n      dup4\n        /* \"DeadMansSwitch.sol\":7949:8024  benefactors[msg.sender].beneficiaries[_beneficiary].ipfsCIDs.push(_ipfsCID) */\n      dup3\n      tag_162\n      jump\t// in\n    tag_190:\n      pop\n        /* \"DeadMansSwitch.sol\":8064:8076  _beneficiary */\n      dup3\n      sub(shl(0xa0, 0x01), 0x01)\n        /* \"DeadMansSwitch.sol\":8040:8087  IpfsCIDAdded(msg.sender,_beneficiary, _ipfsCID) */\n      and\n        /* \"DeadMansSwitch.sol\":8053:8063  msg.sender */\n      caller\n      sub(shl(0xa0, 0x01), 0x01)\n        /* \"DeadMansSwitch.sol\":8040:8087  IpfsCIDAdded(msg.sender,_beneficiary, _ipfsCID) */\n      and\n      0xa1bb52b874769d5c17cde30e708e8f7180bb949f70e77caf0da68d25f9a1a510\n        /* \"DeadMansSwitch.sol\":8078:8086  _ipfsCID */\n      dup5\n        /* \"DeadMansSwitch.sol\":8040:8087  IpfsCIDAdded(msg.sender,_beneficiary, _ipfsCID) */\n      mload(0x40)\n      tag_163\n      swap2\n      swap1\n      tag_82\n      jump\t// in\n        /* \"DeadMansSwitch.sol\":6802:7131  function addBeneficiary(address _beneficiary) external onlyBenefactor {... */\n    tag_71:\n        /* \"DeadMansSwitch.sol\":2488:2498  msg.sender */\n      caller\n        /* \"DeadMansSwitch.sol\":2476:2499  benefactors[msg.sender] */\n      0x00\n      swap1\n      dup2\n      mstore\n        /* \"DeadMansSwitch.sol\":2476:2487  benefactors */\n      0x02\n        /* \"DeadMansSwitch.sol\":2476:2499  benefactors[msg.sender] */\n      0x20\n      mstore\n      0x40\n      swap1\n      keccak256\n        /* \"DeadMansSwitch.sol\":2476:2506  benefactors[msg.sender].exists */\n      sload\n      0xff\n      and\n        /* \"DeadMansSwitch.sol\":2476:2541  benefactors[msg.sender].exists && benefactors[msg.sender].isAlive */\n      dup1\n      iszero\n      tag_193\n      jumpi\n      pop\n        /* \"DeadMansSwitch.sol\":2522:2532  msg.sender */\n      caller\n        /* \"DeadMansSwitch.sol\":2510:2533  benefactors[msg.sender] */\n      0x00\n      swap1\n      dup2\n      mstore\n        /* \"DeadMansSwitch.sol\":2510:2521  benefactors */\n      0x02\n        /* \"DeadMansSwitch.sol\":2510:2533  benefactors[msg.sender] */\n      0x20\n      mstore\n      0x40\n      swap1\n      keccak256\n        /* \"DeadMansSwitch.sol\":2510:2541  benefactors[msg.sender].isAlive */\n      0x04\n      add\n      sload\n      0x0100\n      swap1\n      div\n      0xff\n      and\n        /* \"DeadMansSwitch.sol\":2476:2541  benefactors[msg.sender].exists && benefactors[msg.sender].isAlive */\n    tag_193:\n        /* \"DeadMansSwitch.sol\":2468:2568  require(benefactors[msg.sender].exists && benefactors[msg.sender].isAlive, \"Not a valid benefactor\") */\n      tag_194\n      jumpi\n      mload(0x40)\n      shl(0xe5, 0x461bcd)\n      dup2\n      mstore\n        /* \"#utility.yul\":10125:10127   */\n      0x20\n        /* \"DeadMansSwitch.sol\":2468:2568  require(benefactors[msg.sender].exists && benefactors[msg.sender].isAlive, \"Not a valid benefactor\") */\n      0x04\n      dup3\n      add\n        /* \"#utility.yul\":10107:10128   */\n      mstore\n        /* \"#utility.yul\":10164:10166   */\n      0x16\n        /* \"#utility.yul\":10144:10162   */\n      0x24\n      dup3\n      add\n        /* \"#utility.yul\":10137:10167   */\n      mstore\n      shl(0x51, 0x2737ba1030903b30b634b2103132b732b330b1ba37b9)\n        /* \"#utility.yul\":10183:10201   */\n      0x44\n      dup3\n      add\n        /* \"#utility.yul\":10176:10228   */\n      mstore\n        /* \"#utility.yul\":10245:10263   */\n      0x64\n      add\n        /* \"DeadMansSwitch.sol\":2468:2568  require(benefactors[msg.sender].exists && benefactors[msg.sender].isAlive, \"Not a valid benefactor\") */\n      tag_123\n        /* \"#utility.yul\":9923:10269   */\n      jump\n        /* \"DeadMansSwitch.sol\":2468:2568  require(benefactors[msg.sender].exists && benefactors[msg.sender].isAlive, \"Not a valid benefactor\") */\n    tag_194:\n        /* \"DeadMansSwitch.sol\":6892:6930  isBeneficiary(msg.sender,_beneficiary) */\n      tag_197\n        /* \"DeadMansSwitch.sol\":6906:6916  msg.sender */\n      caller\n        /* \"DeadMansSwitch.sol\":6917:6929  _beneficiary */\n      dup3\n        /* \"DeadMansSwitch.sol\":6892:6905  isBeneficiary */\n      tag_48\n        /* \"DeadMansSwitch.sol\":6892:6930  isBeneficiary(msg.sender,_beneficiary) */\n      jump\t// in\n    tag_197:\n        /* \"DeadMansSwitch.sol\":6891:6930  !isBeneficiary(msg.sender,_beneficiary) */\n      iszero\n        /* \"DeadMansSwitch.sol\":6883:6961  require(!isBeneficiary(msg.sender,_beneficiary), \"Beneficiary already exists\") */\n      tag_198\n      jumpi\n      mload(0x40)\n      shl(0xe5, 0x461bcd)\n      dup2\n      mstore\n        /* \"#utility.yul\":12376:12378   */\n      0x20\n        /* \"DeadMansSwitch.sol\":6883:6961  require(!isBeneficiary(msg.sender,_beneficiary), \"Beneficiary already exists\") */\n      0x04\n      dup3\n      add\n        /* \"#utility.yul\":12358:12379   */\n      mstore\n        /* \"#utility.yul\":12415:12417   */\n      0x1a\n        /* \"#utility.yul\":12395:12413   */\n      0x24\n      dup3\n      add\n        /* \"#utility.yul\":12388:12418   */\n      mstore\n        /* \"#utility.yul\":12454:12482   */\n      0x42656e656669636961727920616c726561647920657869737473000000000000\n        /* \"#utility.yul\":12434:12452   */\n      0x44\n      dup3\n      add\n        /* \"#utility.yul\":12427:12483   */\n      mstore\n        /* \"#utility.yul\":12500:12518   */\n      0x64\n      add\n        /* \"DeadMansSwitch.sol\":6883:6961  require(!isBeneficiary(msg.sender,_beneficiary), \"Beneficiary already exists\") */\n      tag_123\n        /* \"#utility.yul\":12174:12524   */\n      jump\n        /* \"DeadMansSwitch.sol\":6883:6961  require(!isBeneficiary(msg.sender,_beneficiary), \"Beneficiary already exists\") */\n    tag_198:\n        /* \"DeadMansSwitch.sol\":7026:7066  Beneficiary(true, new string[](0),\"\",\"\") */\n      0x40\n      dup1\n      mload\n      0x80\n      dup2\n      add\n      dup3\n      mstore\n        /* \"DeadMansSwitch.sol\":7038:7042  true */\n      0x01\n        /* \"DeadMansSwitch.sol\":7026:7066  Beneficiary(true, new string[](0),\"\",\"\") */\n      dup2\n      mstore\n        /* \"DeadMansSwitch.sol\":7044:7059  new string[](0) */\n      dup2\n      mload\n      0x00\n      dup1\n      dup3\n      mstore\n        /* \"DeadMansSwitch.sol\":7026:7066  Beneficiary(true, new string[](0),\"\",\"\") */\n      0x20\n        /* \"DeadMansSwitch.sol\":7044:7059  new string[](0) */\n      dup3\n      dup2\n      add\n      swap1\n      swap5\n      mstore\n        /* \"DeadMansSwitch.sol\":7026:7066  Beneficiary(true, new string[](0),\"\",\"\") */\n      swap2\n      swap3\n      dup4\n      add\n      swap2\n        /* \"DeadMansSwitch.sol\":7044:7059  new string[](0) */\n      jump(tag_203)\n    tag_204:\n      0x60\n      dup2\n      mstore\n      0x20\n      add\n      swap1\n      0x01\n      swap1\n      sub\n      swap1\n      dup2\n      tag_204\n      jumpi\n      swap1\n      pop\n    tag_203:\n      pop\n        /* \"DeadMansSwitch.sol\":7026:7066  Beneficiary(true, new string[](0),\"\",\"\") */\n      dup2\n      mstore\n      0x40\n      dup1\n      mload\n      0x20\n      dup1\n      dup3\n      add\n      dup4\n      mstore\n      0x00\n      dup1\n      dup4\n      mstore\n      dup2\n      dup6\n      add\n      swap3\n      swap1\n      swap3\n      mstore\n      dup3\n      mload\n      dup1\n      dup3\n      add\n      dup5\n      mstore\n      dup3\n      dup2\n      mstore\n      swap4\n      dup4\n      add\n      swap4\n      swap1\n      swap4\n      mstore\n        /* \"DeadMansSwitch.sol\":6984:6994  msg.sender */\n      caller\n        /* \"DeadMansSwitch.sol\":6972:6995  benefactors[msg.sender] */\n      dup2\n      mstore\n        /* \"DeadMansSwitch.sol\":6972:6983  benefactors */\n      0x02\n        /* \"DeadMansSwitch.sol\":6972:6995  benefactors[msg.sender] */\n      dup4\n      mstore\n      dup2\n      dup2\n      keccak256\n      sub(shl(0xa0, 0x01), 0x01)\n        /* \"DeadMansSwitch.sol\":6972:7023  benefactors[msg.sender].beneficiaries[_beneficiary] */\n      dup7\n      and\n      dup3\n      mstore\n        /* \"DeadMansSwitch.sol\":6972:7009  benefactors[msg.sender].beneficiaries */\n      0x01\n      swap1\n      dup2\n      add\n        /* \"DeadMansSwitch.sol\":6972:7023  benefactors[msg.sender].beneficiaries[_beneficiary] */\n      dup5\n      mstore\n      swap2\n      swap1\n      keccak256\n        /* \"DeadMansSwitch.sol\":6972:7066  benefactors[msg.sender].beneficiaries[_beneficiary] = Beneficiary(true, new string[](0),\"\",\"\") */\n      dup4\n      mload\n      dup2\n      sload\n      not(0xff)\n      and\n      swap1\n      iszero\n      iszero\n      or\n      dup2\n      sstore\n      dup4\n      dup4\n      add\n      mload\n      dup1\n      mload\n        /* \"DeadMansSwitch.sol\":6972:7023  benefactors[msg.sender].beneficiaries[_beneficiary] */\n      swap2\n      swap4\n        /* \"DeadMansSwitch.sol\":6972:7066  benefactors[msg.sender].beneficiaries[_beneficiary] = Beneficiary(true, new string[](0),\"\",\"\") */\n      tag_205\n      swap4\n      dup6\n      add\n      swap3\n      swap2\n      add\n      swap1\n      tag_206\n      jump\t// in\n    tag_205:\n      pop\n      0x40\n      dup3\n      add\n      mload\n      0x02\n      dup3\n      add\n      swap1\n      tag_207\n      swap1\n      dup3\n      tag_162\n      jump\t// in\n    tag_207:\n      pop\n      0x60\n      dup3\n      add\n      mload\n      0x03\n      dup3\n      add\n      swap1\n      tag_208\n      swap1\n      dup3\n      tag_162\n      jump\t// in\n    tag_208:\n      pop\n      pop\n        /* \"DeadMansSwitch.sol\":7082:7123  BeneficiaryAdded(msg.sender,_beneficiary) */\n      mload(0x40)\n      sub(shl(0xa0, 0x01), 0x01)\n      dup4\n      and\n      swap2\n      pop\n        /* \"DeadMansSwitch.sol\":7099:7109  msg.sender */\n      caller\n      swap1\n        /* \"DeadMansSwitch.sol\":7082:7123  BeneficiaryAdded(msg.sender,_beneficiary) */\n      0xbb39c36a7502b7256e1a687254146a9a2ea7b146c77cb9e40eb0e2b8793781e1\n      swap1\n      0x00\n      swap1\n      log3\n        /* \"DeadMansSwitch.sol\":6802:7131  function addBeneficiary(address _beneficiary) external onlyBenefactor {... */\n      pop\n      jump\t// out\n        /* \"DeadMansSwitch.sol\":6338:6630  function removeBeneficiary(address _beneficiary) external onlyBenefactor {... */\n    tag_74:\n        /* \"DeadMansSwitch.sol\":2488:2498  msg.sender */\n      caller\n        /* \"DeadMansSwitch.sol\":2476:2499  benefactors[msg.sender] */\n      0x00\n      swap1\n      dup2\n      mstore\n        /* \"DeadMansSwitch.sol\":2476:2487  benefactors */\n      0x02\n        /* \"DeadMansSwitch.sol\":2476:2499  benefactors[msg.sender] */\n      0x20\n      mstore\n      0x40\n      swap1\n      keccak256\n        /* \"DeadMansSwitch.sol\":2476:2506  benefactors[msg.sender].exists */\n      sload\n      0xff\n      and\n        /* \"DeadMansSwitch.sol\":2476:2541  benefactors[msg.sender].exists && benefactors[msg.sender].isAlive */\n      dup1\n      iszero\n      tag_210\n      jumpi\n      pop\n        /* \"DeadMansSwitch.sol\":2522:2532  msg.sender */\n      caller\n        /* \"DeadMansSwitch.sol\":2510:2533  benefactors[msg.sender] */\n      0x00\n      swap1\n      dup2\n      mstore\n        /* \"DeadMansSwitch.sol\":2510:2521  benefactors */\n      0x02\n        /* \"DeadMansSwitch.sol\":2510:2533  benefactors[msg.sender] */\n      0x20\n      mstore\n      0x40\n      swap1\n      keccak256\n        /* \"DeadMansSwitch.sol\":2510:2541  benefactors[msg.sender].isAlive */\n      0x04\n      add\n      sload\n      0x0100\n      swap1\n      div\n      0xff\n      and\n        /* \"DeadMansSwitch.sol\":2476:2541  benefactors[msg.sender].exists && benefactors[msg.sender].isAlive */\n    tag_210:\n        /* \"DeadMansSwitch.sol\":2468:2568  require(benefactors[msg.sender].exists && benefactors[msg.sender].isAlive, \"Not a valid benefactor\") */\n      tag_211\n      jumpi\n      mload(0x40)\n      shl(0xe5, 0x461bcd)\n      dup2\n      mstore\n        /* \"#utility.yul\":10125:10127   */\n      0x20\n        /* \"DeadMansSwitch.sol\":2468:2568  require(benefactors[msg.sender].exists && benefactors[msg.sender].isAlive, \"Not a valid benefactor\") */\n      0x04\n      dup3\n      add\n        /* \"#utility.yul\":10107:10128   */\n      mstore\n        /* \"#utility.yul\":10164:10166   */\n      0x16\n        /* \"#utility.yul\":10144:10162   */\n      0x24\n      dup3\n      add\n        /* \"#utility.yul\":10137:10167   */\n      mstore\n      shl(0x51, 0x2737ba1030903b30b634b2103132b732b330b1ba37b9)\n        /* \"#utility.yul\":10183:10201   */\n      0x44\n      dup3\n      add\n        /* \"#utility.yul\":10176:10228   */\n      mstore\n        /* \"#utility.yul\":10245:10263   */\n      0x64\n      add\n        /* \"DeadMansSwitch.sol\":2468:2568  require(benefactors[msg.sender].exists && benefactors[msg.sender].isAlive, \"Not a valid benefactor\") */\n      tag_123\n        /* \"#utility.yul\":9923:10269   */\n      jump\n        /* \"DeadMansSwitch.sol\":2468:2568  require(benefactors[msg.sender].exists && benefactors[msg.sender].isAlive, \"Not a valid benefactor\") */\n    tag_211:\n        /* \"DeadMansSwitch.sol\":6430:6468  isBeneficiary(msg.sender,_beneficiary) */\n      tag_214\n        /* \"DeadMansSwitch.sol\":6444:6454  msg.sender */\n      caller\n        /* \"DeadMansSwitch.sol\":6455:6467  _beneficiary */\n      dup3\n        /* \"DeadMansSwitch.sol\":6430:6443  isBeneficiary */\n      tag_48\n        /* \"DeadMansSwitch.sol\":6430:6468  isBeneficiary(msg.sender,_beneficiary) */\n      jump\t// in\n    tag_214:\n        /* \"DeadMansSwitch.sol\":6422:6494  require(isBeneficiary(msg.sender,_beneficiary), \"Beneficiary not found\") */\n      tag_215\n      jumpi\n      mload(0x40)\n      shl(0xe5, 0x461bcd)\n      dup2\n      mstore\n        /* \"#utility.yul\":10476:10478   */\n      0x20\n        /* \"DeadMansSwitch.sol\":6422:6494  require(isBeneficiary(msg.sender,_beneficiary), \"Beneficiary not found\") */\n      0x04\n      dup3\n      add\n        /* \"#utility.yul\":10458:10479   */\n      mstore\n        /* \"#utility.yul\":10515:10517   */\n      0x15\n        /* \"#utility.yul\":10495:10513   */\n      0x24\n      dup3\n      add\n        /* \"#utility.yul\":10488:10518   */\n      mstore\n      shl(0x5a, 0x10995b99599a58da585c9e481b9bdd08199bdd5b99)\n        /* \"#utility.yul\":10534:10552   */\n      0x44\n      dup3\n      add\n        /* \"#utility.yul\":10527:10578   */\n      mstore\n        /* \"#utility.yul\":10595:10613   */\n      0x64\n      add\n        /* \"DeadMansSwitch.sol\":6422:6494  require(isBeneficiary(msg.sender,_beneficiary), \"Beneficiary not found\") */\n      tag_123\n        /* \"#utility.yul\":10274:10619   */\n      jump\n        /* \"DeadMansSwitch.sol\":6422:6494  require(isBeneficiary(msg.sender,_beneficiary), \"Beneficiary not found\") */\n    tag_215:\n        /* \"DeadMansSwitch.sol\":6524:6534  msg.sender */\n      caller\n        /* \"DeadMansSwitch.sol\":6512:6535  benefactors[msg.sender] */\n      0x00\n      swap1\n      dup2\n      mstore\n        /* \"DeadMansSwitch.sol\":6512:6523  benefactors */\n      0x02\n        /* \"DeadMansSwitch.sol\":6512:6535  benefactors[msg.sender] */\n      0x20\n      swap1\n      dup2\n      mstore\n      0x40\n      dup1\n      dup4\n      keccak256\n      sub(shl(0xa0, 0x01), 0x01)\n        /* \"DeadMansSwitch.sol\":6512:6563  benefactors[msg.sender].beneficiaries[_beneficiary] */\n      dup6\n      and\n      dup5\n      mstore\n        /* \"DeadMansSwitch.sol\":6512:6549  benefactors[msg.sender].beneficiaries */\n      0x01\n      swap1\n      dup2\n      add\n        /* \"DeadMansSwitch.sol\":6512:6563  benefactors[msg.sender].beneficiaries[_beneficiary] */\n      swap1\n      swap3\n      mstore\n      dup3\n      keccak256\n        /* \"DeadMansSwitch.sol\":6505:6563  delete benefactors[msg.sender].beneficiaries[_beneficiary] */\n      dup1\n      sload\n      not(0xff)\n      and\n      dup2\n      sstore\n        /* \"DeadMansSwitch.sol\":6512:6563  benefactors[msg.sender].beneficiaries[_beneficiary] */\n      swap2\n        /* \"DeadMansSwitch.sol\":6512:6535  benefactors[msg.sender] */\n      swap1\n        /* \"DeadMansSwitch.sol\":6505:6563  delete benefactors[msg.sender].beneficiaries[_beneficiary] */\n      tag_217\n      swap1\n      dup4\n      add\n        /* \"DeadMansSwitch.sol\":6512:6535  benefactors[msg.sender] */\n      dup3\n        /* \"DeadMansSwitch.sol\":6505:6563  delete benefactors[msg.sender].beneficiaries[_beneficiary] */\n      tag_218\n      jump\t// in\n    tag_217:\n      tag_219\n      0x02\n      dup4\n      add\n      0x00\n      tag_220\n      jump\t// in\n    tag_219:\n      tag_221\n      0x03\n      dup4\n      add\n      0x00\n      tag_220\n      jump\t// in\n    tag_221:\n      pop\n      pop\n        /* \"DeadMansSwitch.sol\":6579:6622  BeneficiaryRemoved(msg.sender,_beneficiary) */\n      mload(0x40)\n      sub(shl(0xa0, 0x01), 0x01)\n      dup3\n      and\n      swap1\n        /* \"DeadMansSwitch.sol\":6598:6608  msg.sender */\n      caller\n      swap1\n        /* \"DeadMansSwitch.sol\":6579:6622  BeneficiaryRemoved(msg.sender,_beneficiary) */\n      0x1a6590bd0cabbfcc7c86bef99e1034054e179905cfcc294598fcd426c0922442\n      swap1\n      0x00\n      swap1\n      log3\n        /* \"DeadMansSwitch.sol\":6338:6630  function removeBeneficiary(address _beneficiary) external onlyBenefactor {... */\n      pop\n      jump\t// out\n        /* \"DeadMansSwitch.sol\":8323:9238  function removeIpfsCID(address _beneficiary, string memory _ipfsCID) external onlyBenefactor {... */\n    tag_77:\n        /* \"DeadMansSwitch.sol\":2488:2498  msg.sender */\n      caller\n        /* \"DeadMansSwitch.sol\":2476:2499  benefactors[msg.sender] */\n      0x00\n      swap1\n      dup2\n      mstore\n        /* \"DeadMansSwitch.sol\":2476:2487  benefactors */\n      0x02\n        /* \"DeadMansSwitch.sol\":2476:2499  benefactors[msg.sender] */\n      0x20\n      mstore\n      0x40\n      swap1\n      keccak256\n        /* \"DeadMansSwitch.sol\":2476:2506  benefactors[msg.sender].exists */\n      sload\n      0xff\n      and\n        /* \"DeadMansSwitch.sol\":2476:2541  benefactors[msg.sender].exists && benefactors[msg.sender].isAlive */\n      dup1\n      iszero\n      tag_223\n      jumpi\n      pop\n        /* \"DeadMansSwitch.sol\":2522:2532  msg.sender */\n      caller\n        /* \"DeadMansSwitch.sol\":2510:2533  benefactors[msg.sender] */\n      0x00\n      swap1\n      dup2\n      mstore\n        /* \"DeadMansSwitch.sol\":2510:2521  benefactors */\n      0x02\n        /* \"DeadMansSwitch.sol\":2510:2533  benefactors[msg.sender] */\n      0x20\n      mstore\n      0x40\n      swap1\n      keccak256\n        /* \"DeadMansSwitch.sol\":2510:2541  benefactors[msg.sender].isAlive */\n      0x04\n      add\n      sload\n      0x0100\n      swap1\n      div\n      0xff\n      and\n        /* \"DeadMansSwitch.sol\":2476:2541  benefactors[msg.sender].exists && benefactors[msg.sender].isAlive */\n    tag_223:\n        /* \"DeadMansSwitch.sol\":2468:2568  require(benefactors[msg.sender].exists && benefactors[msg.sender].isAlive, \"Not a valid benefactor\") */\n      tag_224\n      jumpi\n      mload(0x40)\n      shl(0xe5, 0x461bcd)\n      dup2\n      mstore\n        /* \"#utility.yul\":10125:10127   */\n      0x20\n        /* \"DeadMansSwitch.sol\":2468:2568  require(benefactors[msg.sender].exists && benefactors[msg.sender].isAlive, \"Not a valid benefactor\") */\n      0x04\n      dup3\n      add\n        /* \"#utility.yul\":10107:10128   */\n      mstore\n        /* \"#utility.yul\":10164:10166   */\n      0x16\n        /* \"#utility.yul\":10144:10162   */\n      0x24\n      dup3\n      add\n        /* \"#utility.yul\":10137:10167   */\n      mstore\n      shl(0x51, 0x2737ba1030903b30b634b2103132b732b330b1ba37b9)\n        /* \"#utility.yul\":10183:10201   */\n      0x44\n      dup3\n      add\n        /* \"#utility.yul\":10176:10228   */\n      mstore\n        /* \"#utility.yul\":10245:10263   */\n      0x64\n      add\n        /* \"DeadMansSwitch.sol\":2468:2568  require(benefactors[msg.sender].exists && benefactors[msg.sender].isAlive, \"Not a valid benefactor\") */\n      tag_123\n        /* \"#utility.yul\":9923:10269   */\n      jump\n        /* \"DeadMansSwitch.sol\":2468:2568  require(benefactors[msg.sender].exists && benefactors[msg.sender].isAlive, \"Not a valid benefactor\") */\n    tag_224:\n        /* \"DeadMansSwitch.sol\":8435:8474  isBeneficiary(msg.sender, _beneficiary) */\n      tag_227\n        /* \"DeadMansSwitch.sol\":8449:8459  msg.sender */\n      caller\n        /* \"DeadMansSwitch.sol\":8461:8473  _beneficiary */\n      dup4\n        /* \"DeadMansSwitch.sol\":8435:8448  isBeneficiary */\n      tag_48\n        /* \"DeadMansSwitch.sol\":8435:8474  isBeneficiary(msg.sender, _beneficiary) */\n      jump\t// in\n    tag_227:\n        /* \"DeadMansSwitch.sol\":8427:8500  require(isBeneficiary(msg.sender, _beneficiary), \"Beneficiary not found\") */\n      tag_228\n      jumpi\n      mload(0x40)\n      shl(0xe5, 0x461bcd)\n      dup2\n      mstore\n        /* \"#utility.yul\":10476:10478   */\n      0x20\n        /* \"DeadMansSwitch.sol\":8427:8500  require(isBeneficiary(msg.sender, _beneficiary), \"Beneficiary not found\") */\n      0x04\n      dup3\n      add\n        /* \"#utility.yul\":10458:10479   */\n      mstore\n        /* \"#utility.yul\":10515:10517   */\n      0x15\n        /* \"#utility.yul\":10495:10513   */\n      0x24\n      dup3\n      add\n        /* \"#utility.yul\":10488:10518   */\n      mstore\n      shl(0x5a, 0x10995b99599a58da585c9e481b9bdd08199bdd5b99)\n        /* \"#utility.yul\":10534:10552   */\n      0x44\n      dup3\n      add\n        /* \"#utility.yul\":10527:10578   */\n      mstore\n        /* \"#utility.yul\":10595:10613   */\n      0x64\n      add\n        /* \"DeadMansSwitch.sol\":8427:8500  require(isBeneficiary(msg.sender, _beneficiary), \"Beneficiary not found\") */\n      tag_123\n        /* \"#utility.yul\":10274:10619   */\n      jump\n        /* \"DeadMansSwitch.sol\":8427:8500  require(isBeneficiary(msg.sender, _beneficiary), \"Beneficiary not found\") */\n    tag_228:\n        /* \"DeadMansSwitch.sol\":8553:8563  msg.sender */\n      caller\n        /* \"DeadMansSwitch.sol\":8513:8538  string[] storage ipfsCIDs */\n      0x00\n        /* \"DeadMansSwitch.sol\":8541:8564  benefactors[msg.sender] */\n      swap1\n      dup2\n      mstore\n        /* \"DeadMansSwitch.sol\":8541:8552  benefactors */\n      0x02\n        /* \"DeadMansSwitch.sol\":8541:8564  benefactors[msg.sender] */\n      0x20\n      swap1\n      dup2\n      mstore\n      0x40\n      dup1\n      dup4\n      keccak256\n      sub(shl(0xa0, 0x01), 0x01)\n        /* \"DeadMansSwitch.sol\":8541:8592  benefactors[msg.sender].beneficiaries[_beneficiary] */\n      dup7\n      and\n      dup5\n      mstore\n        /* \"DeadMansSwitch.sol\":8541:8578  benefactors[msg.sender].beneficiaries */\n      0x01\n      swap1\n      dup2\n      add\n        /* \"DeadMansSwitch.sol\":8541:8592  benefactors[msg.sender].beneficiaries[_beneficiary] */\n      swap1\n      swap3\n      mstore\n      dup3\n      keccak256\n        /* \"DeadMansSwitch.sol\":8541:8601  benefactors[msg.sender].beneficiaries[_beneficiary].ipfsCIDs */\n      add\n      swap1\n        /* \"DeadMansSwitch.sol\":8658:9148  for (uint256 i = 0; i < ipfsCIDs.length; i++) {... */\n    tag_230:\n        /* \"DeadMansSwitch.sol\":8682:8697  ipfsCIDs.length */\n      dup2\n      sload\n        /* \"DeadMansSwitch.sol\":8678:8697  i < ipfsCIDs.length */\n      dup2\n      lt\n        /* \"DeadMansSwitch.sol\":8658:9148  for (uint256 i = 0; i < ipfsCIDs.length; i++) {... */\n      iszero\n      tag_231\n      jumpi\n        /* \"DeadMansSwitch.sol\":8794:8802  _ipfsCID */\n      dup3\n        /* \"DeadMansSwitch.sol\":8777:8803  abi.encodePacked(_ipfsCID) */\n      add(0x20, mload(0x40))\n      tag_233\n      swap2\n      swap1\n      tag_179\n      jump\t// in\n    tag_233:\n      mload(0x40)\n      0x20\n      dup2\n      dup4\n      sub\n      sub\n      dup2\n      mstore\n      swap1\n      0x40\n      mstore\n        /* \"DeadMansSwitch.sol\":8767:8804  keccak256(abi.encodePacked(_ipfsCID)) */\n      dup1\n      mload\n      swap1\n      0x20\n      add\n      keccak256\n        /* \"DeadMansSwitch.sol\":8750:8758  ipfsCIDs */\n      dup3\n        /* \"DeadMansSwitch.sol\":8759:8760  i */\n      dup3\n        /* \"DeadMansSwitch.sol\":8750:8761  ipfsCIDs[i] */\n      dup2\n      sload\n      dup2\n      lt\n      tag_235\n      jumpi\n      tag_235\n      tag_141\n      jump\t// in\n    tag_235:\n      swap1\n      0x00\n      mstore\n      keccak256(0x00, 0x20)\n      add\n        /* \"DeadMansSwitch.sol\":8733:8762  abi.encodePacked(ipfsCIDs[i]) */\n      add(0x20, mload(0x40))\n      tag_237\n      swap2\n      swap1\n      tag_184\n      jump\t// in\n    tag_237:\n      mload(0x40)\n      0x20\n      dup2\n      dup4\n      sub\n      sub\n      dup2\n      mstore\n      swap1\n      0x40\n      mstore\n        /* \"DeadMansSwitch.sol\":8723:8763  keccak256(abi.encodePacked(ipfsCIDs[i])) */\n      dup1\n      mload\n      swap1\n      0x20\n      add\n      keccak256\n        /* \"DeadMansSwitch.sol\":8723:8804  keccak256(abi.encodePacked(ipfsCIDs[i])) == keccak256(abi.encodePacked(_ipfsCID)) */\n      sub\n        /* \"DeadMansSwitch.sol\":8719:9137  if (keccak256(abi.encodePacked(ipfsCIDs[i])) == keccak256(abi.encodePacked(_ipfsCID))) {... */\n      tag_238\n      jumpi\n        /* \"DeadMansSwitch.sol\":8916:8931  ipfsCIDs.length */\n      dup2\n      sload\n        /* \"DeadMansSwitch.sol\":8907:8915  ipfsCIDs */\n      dup3\n      swap1\n        /* \"DeadMansSwitch.sol\":8916:8935  ipfsCIDs.length - 1 */\n      tag_239\n      swap1\n        /* \"DeadMansSwitch.sol\":8934:8935  1 */\n      0x01\n      swap1\n        /* \"DeadMansSwitch.sol\":8916:8935  ipfsCIDs.length - 1 */\n      tag_109\n      jump\t// in\n    tag_239:\n        /* \"DeadMansSwitch.sol\":8907:8936  ipfsCIDs[ipfsCIDs.length - 1] */\n      dup2\n      sload\n      dup2\n      lt\n      tag_241\n      jumpi\n      tag_241\n      tag_141\n      jump\t// in\n    tag_241:\n      swap1\n      0x00\n      mstore\n      keccak256(0x00, 0x20)\n      add\n        /* \"DeadMansSwitch.sol\":8893:8901  ipfsCIDs */\n      dup3\n        /* \"DeadMansSwitch.sol\":8902:8903  i */\n      dup3\n        /* \"DeadMansSwitch.sol\":8893:8904  ipfsCIDs[i] */\n      dup2\n      sload\n      dup2\n      lt\n      tag_244\n      jumpi\n      tag_244\n      tag_141\n      jump\t// in\n    tag_244:\n      swap1\n      0x00\n      mstore\n      keccak256(0x00, 0x20)\n      add\n        /* \"DeadMansSwitch.sol\":8893:8936  ipfsCIDs[i] = ipfsCIDs[ipfsCIDs.length - 1] */\n      swap1\n      dup2\n      tag_246\n      swap2\n      swap1\n      tag_247\n      jump\t// in\n    tag_246:\n      pop\n        /* \"DeadMansSwitch.sol\":9008:9016  ipfsCIDs */\n      dup2\n        /* \"DeadMansSwitch.sol\":9008:9022  ipfsCIDs.pop() */\n      dup1\n      sload\n      dup1\n      tag_249\n      jumpi\n      tag_249\n      tag_250\n      jump\t// in\n    tag_249:\n      0x01\n      swap1\n      sub\n      dup2\n      dup2\n      swap1\n      0x00\n      mstore\n      keccak256(0x00, 0x20)\n      add\n      0x00\n      tag_252\n      swap2\n      swap1\n      tag_220\n      jump\t// in\n    tag_252:\n      swap1\n      sstore\n        /* \"DeadMansSwitch.sol\":9073:9085  _beneficiary */\n      dup4\n      sub(shl(0xa0, 0x01), 0x01)\n        /* \"DeadMansSwitch.sol\":9046:9096  IpfsCIDRemoved(msg.sender, _beneficiary, _ipfsCID) */\n      and\n        /* \"DeadMansSwitch.sol\":9061:9071  msg.sender */\n      caller\n      sub(shl(0xa0, 0x01), 0x01)\n        /* \"DeadMansSwitch.sol\":9046:9096  IpfsCIDRemoved(msg.sender, _beneficiary, _ipfsCID) */\n      and\n      0x4c13211ce3b2d0cb3e02a662cc071d6be555042ca58d4d812b7b90e80d3250ac\n        /* \"DeadMansSwitch.sol\":9087:9095  _ipfsCID */\n      dup6\n        /* \"DeadMansSwitch.sol\":9046:9096  IpfsCIDRemoved(msg.sender, _beneficiary, _ipfsCID) */\n      mload(0x40)\n      tag_253\n      swap2\n      swap1\n      tag_82\n      jump\t// in\n    tag_253:\n      mload(0x40)\n      dup1\n      swap2\n      sub\n      swap1\n      log3\n        /* \"DeadMansSwitch.sol\":9115:9122  return; */\n      pop\n      pop\n        /* \"DeadMansSwitch.sol\":8323:9238  function removeIpfsCID(address _beneficiary, string memory _ipfsCID) external onlyBenefactor {... */\n      pop\n      pop\n      jump\t// out\n        /* \"DeadMansSwitch.sol\":8719:9137  if (keccak256(abi.encodePacked(ipfsCIDs[i])) == keccak256(abi.encodePacked(_ipfsCID))) {... */\n    tag_238:\n        /* \"DeadMansSwitch.sol\":8699:8702  i++ */\n      dup1\n      tag_254\n      dup2\n      tag_150\n      jump\t// in\n    tag_254:\n      swap2\n      pop\n      pop\n        /* \"DeadMansSwitch.sol\":8658:9148  for (uint256 i = 0; i < ipfsCIDs.length; i++) {... */\n      jump(tag_230)\n    tag_231:\n      pop\n        /* \"DeadMansSwitch.sol\":9184:9230  revert(\"CID not assigned to this beneficiary\") */\n      mload(0x40)\n      shl(0xe5, 0x461bcd)\n      dup2\n      mstore\n        /* \"#utility.yul\":14303:14305   */\n      0x20\n        /* \"DeadMansSwitch.sol\":9184:9230  revert(\"CID not assigned to this beneficiary\") */\n      0x04\n      dup3\n      add\n        /* \"#utility.yul\":14285:14306   */\n      mstore\n        /* \"#utility.yul\":14342:14344   */\n      0x24\n        /* \"#utility.yul\":14322:14340   */\n      dup1\n      dup3\n      add\n        /* \"#utility.yul\":14315:14345   */\n      mstore\n        /* \"#utility.yul\":14381:14415   */\n      0x434944206e6f742061737369676e656420746f20746869732062656e65666963\n        /* \"#utility.yul\":14361:14379   */\n      0x44\n      dup3\n      add\n        /* \"#utility.yul\":14354:14416   */\n      mstore\n      shl(0xe0, 0x69617279)\n        /* \"#utility.yul\":14432:14450   */\n      0x64\n      dup3\n      add\n        /* \"#utility.yul\":14425:14459   */\n      mstore\n        /* \"#utility.yul\":14476:14495   */\n      0x84\n      add\n        /* \"DeadMansSwitch.sol\":9184:9230  revert(\"CID not assigned to this beneficiary\") */\n      tag_123\n        /* \"#utility.yul\":14101:14501   */\n      jump\n        /* \"DeadMansSwitch.sol\":4843:5165  function getBenefactorPublicKey(address _benefactor, address _beneficiary) public view returns(string memory) {... */\n    tag_80:\n        /* \"DeadMansSwitch.sol\":4938:4951  string memory */\n      0x60\n        /* \"DeadMansSwitch.sol\":4968:5008  isBeneficiary(_benefactor, _beneficiary) */\n      tag_258\n        /* \"DeadMansSwitch.sol\":4982:4993  _benefactor */\n      dup4\n        /* \"DeadMansSwitch.sol\":4995:5007  _beneficiary */\n      dup4\n        /* \"DeadMansSwitch.sol\":4968:4981  isBeneficiary */\n      tag_48\n        /* \"DeadMansSwitch.sol\":4968:5008  isBeneficiary(_benefactor, _beneficiary) */\n      jump\t// in\n    tag_258:\n        /* \"DeadMansSwitch.sol\":4964:5158  if (isBeneficiary(_benefactor, _beneficiary)) {... */\n      iszero\n      tag_259\n      jumpi\n      sub(shl(0xa0, 0x01), 0x01)\n        /* \"DeadMansSwitch.sol\":5032:5056  benefactors[_benefactor] */\n      dup1\n      dup5\n      and\n      0x00\n      swap1\n      dup2\n      mstore\n        /* \"DeadMansSwitch.sol\":5032:5043  benefactors */\n      0x02\n        /* \"DeadMansSwitch.sol\":5032:5056  benefactors[_benefactor] */\n      0x20\n      dup2\n      dup2\n      mstore\n      0x40\n      dup1\n      dup5\n      keccak256\n        /* \"DeadMansSwitch.sol\":5032:5084  benefactors[_benefactor].beneficiaries[_beneficiary] */\n      swap5\n      dup8\n      and\n      dup5\n      mstore\n        /* \"DeadMansSwitch.sol\":5032:5070  benefactors[_benefactor].beneficiaries */\n      0x01\n      swap1\n      swap5\n      add\n        /* \"DeadMansSwitch.sol\":5032:5084  benefactors[_benefactor].beneficiaries[_beneficiary] */\n      swap1\n      mstore\n      swap2\n      swap1\n      keccak256\n        /* \"DeadMansSwitch.sol\":5032:5104  benefactors[_benefactor].beneficiaries[_beneficiary].benefactorPublicKey */\n      add\n        /* \"DeadMansSwitch.sol\":5025:5104  return benefactors[_benefactor].beneficiaries[_beneficiary].benefactorPublicKey */\n      dup1\n      sload\n      tag_260\n      swap1\n      tag_261\n      jump\t// in\n    tag_260:\n      dup1\n      0x1f\n      add\n      0x20\n      dup1\n      swap2\n      div\n      mul\n      0x20\n      add\n      mload(0x40)\n      swap1\n      dup2\n      add\n      0x40\n      mstore\n      dup1\n      swap3\n      swap2\n      swap1\n      dup2\n      dup2\n      mstore\n      0x20\n      add\n      dup3\n      dup1\n      sload\n      tag_262\n      swap1\n      tag_261\n      jump\t// in\n    tag_262:\n      dup1\n      iszero\n      tag_263\n      jumpi\n      dup1\n      0x1f\n      lt\n      tag_264\n      jumpi\n      0x0100\n      dup1\n      dup4\n      sload\n      div\n      mul\n      dup4\n      mstore\n      swap2\n      0x20\n      add\n      swap2\n      jump(tag_263)\n    tag_264:\n      dup3\n      add\n      swap2\n      swap1\n      0x00\n      mstore\n      keccak256(0x00, 0x20)\n      swap1\n    tag_265:\n      dup2\n      sload\n      dup2\n      mstore\n      swap1\n      0x01\n      add\n      swap1\n      0x20\n      add\n      dup1\n      dup4\n      gt\n      tag_265\n      jumpi\n      dup3\n      swap1\n      sub\n      0x1f\n      and\n      dup3\n      add\n      swap2\n    tag_263:\n      pop\n      pop\n      pop\n      pop\n      pop\n      swap1\n      pop\n      jump(tag_125)\n        /* \"DeadMansSwitch.sol\":4964:5158  if (isBeneficiary(_benefactor, _beneficiary)) {... */\n    tag_259:\n      pop\n        /* \"DeadMansSwitch.sol\":5137:5146  return \"\" */\n      0x40\n      dup1\n      mload\n      0x20\n      dup2\n      add\n      swap1\n      swap2\n      mstore\n      0x00\n      dup2\n      mstore\n      jump(tag_125)\n        /* \"DeadMansSwitch.sol\":9400:10186  function enableSwitch(address _benefactor) external {... */\n    tag_85:\n      sub(shl(0xa0, 0x01), 0x01)\n        /* \"DeadMansSwitch.sol\":9538:9562  benefactors[_benefactor] */\n      dup2\n      and\n      0x00\n      swap1\n      dup2\n      mstore\n        /* \"DeadMansSwitch.sol\":9538:9549  benefactors */\n      0x02\n        /* \"DeadMansSwitch.sol\":9538:9562  benefactors[_benefactor] */\n      0x20\n      swap1\n      dup2\n      mstore\n      0x40\n      dup1\n      dup4\n      keccak256\n        /* \"DeadMansSwitch.sol\":9577:9587  msg.sender */\n      caller\n        /* \"DeadMansSwitch.sol\":9538:9588  benefactors[_benefactor].beneficiaries[msg.sender] */\n      dup5\n      mstore\n        /* \"DeadMansSwitch.sol\":9538:9576  benefactors[_benefactor].beneficiaries */\n      0x01\n      add\n        /* \"DeadMansSwitch.sol\":9538:9588  benefactors[_benefactor].beneficiaries[msg.sender] */\n      swap1\n      swap2\n      mstore\n      swap1\n      keccak256\n        /* \"DeadMansSwitch.sol\":9538:9595  benefactors[_benefactor].beneficiaries[msg.sender].exists */\n      sload\n      0xff\n      and\n        /* \"DeadMansSwitch.sol\":9530:9623  require(benefactors[_benefactor].beneficiaries[msg.sender].exists, \"Not a valid beneficiary\") */\n      tag_268\n      jumpi\n      mload(0x40)\n      shl(0xe5, 0x461bcd)\n      dup2\n      mstore\n        /* \"#utility.yul\":14708:14710   */\n      0x20\n        /* \"DeadMansSwitch.sol\":9530:9623  require(benefactors[_benefactor].beneficiaries[msg.sender].exists, \"Not a valid beneficiary\") */\n      0x04\n      dup3\n      add\n        /* \"#utility.yul\":14690:14711   */\n      mstore\n        /* \"#utility.yul\":14747:14749   */\n      0x17\n        /* \"#utility.yul\":14727:14745   */\n      0x24\n      dup3\n      add\n        /* \"#utility.yul\":14720:14750   */\n      mstore\n        /* \"#utility.yul\":14786:14811   */\n      0x4e6f7420612076616c69642062656e6566696369617279000000000000000000\n        /* \"#utility.yul\":14766:14784   */\n      0x44\n      dup3\n      add\n        /* \"#utility.yul\":14759:14812   */\n      mstore\n        /* \"#utility.yul\":14829:14847   */\n      0x64\n      add\n        /* \"DeadMansSwitch.sol\":9530:9623  require(benefactors[_benefactor].beneficiaries[msg.sender].exists, \"Not a valid beneficiary\") */\n      tag_123\n        /* \"#utility.yul\":14506:14853   */\n      jump\n        /* \"DeadMansSwitch.sol\":9530:9623  require(benefactors[_benefactor].beneficiaries[msg.sender].exists, \"Not a valid beneficiary\") */\n    tag_268:\n      sub(shl(0xa0, 0x01), 0x01)\n        /* \"DeadMansSwitch.sol\":9639:9663  benefactors[_benefactor] */\n      dup2\n      and\n      0x00\n      swap1\n      dup2\n      mstore\n        /* \"DeadMansSwitch.sol\":9639:9650  benefactors */\n      0x02\n        /* \"DeadMansSwitch.sol\":9639:9663  benefactors[_benefactor] */\n      0x20\n      mstore\n      0x40\n      swap1\n      keccak256\n        /* \"DeadMansSwitch.sol\":9639:9677  benefactors[_benefactor].isSwitchedOff */\n      0x04\n      add\n      sload\n      0xff\n      and\n        /* \"DeadMansSwitch.sol\":9634:9771  if (!benefactors[_benefactor].isSwitchedOff) {... */\n      tag_271\n      jumpi\n        /* \"DeadMansSwitch.sol\":9699:9738  SwitchAlreadyOn(_benefactor,msg.sender) */\n      mload(0x40)\n        /* \"DeadMansSwitch.sol\":9727:9737  msg.sender */\n      caller\n      swap1\n      sub(shl(0xa0, 0x01), 0x01)\n        /* \"DeadMansSwitch.sol\":9699:9738  SwitchAlreadyOn(_benefactor,msg.sender) */\n      dup4\n      and\n      swap1\n      0x67c4731bdc193862f421e091d18f46df876bfe1b8b9aa97504f1d50d425b239d\n      swap1\n      0x00\n      swap1\n      log3\n        /* \"DeadMansSwitch.sol\":9400:10186  function enableSwitch(address _benefactor) external {... */\n      pop\n      jump\t// out\n        /* \"DeadMansSwitch.sol\":9634:9771  if (!benefactors[_benefactor].isSwitchedOff) {... */\n    tag_271:\n      sub(shl(0xa0, 0x01), 0x01)\n        /* \"DeadMansSwitch.sol\":9781:9805  benefactors[_benefactor] */\n      dup2\n      and\n        /* \"DeadMansSwitch.sol\":9822:9827  false */\n      0x00\n        /* \"DeadMansSwitch.sol\":9781:9805  benefactors[_benefactor] */\n      dup2\n      dup2\n      mstore\n        /* \"DeadMansSwitch.sol\":9781:9792  benefactors */\n      0x02\n        /* \"DeadMansSwitch.sol\":9781:9805  benefactors[_benefactor] */\n      0x20\n      dup2\n      swap1\n      mstore\n      0x40\n      swap2\n      dup3\n      swap1\n      keccak256\n        /* \"DeadMansSwitch.sol\":9781:9819  benefactors[_benefactor].isSwitchedOff */\n      0x04\n      dup2\n      add\n        /* \"DeadMansSwitch.sol\":9781:9827  benefactors[_benefactor].isSwitchedOff = false */\n      dup1\n      sload\n      not(0xff)\n      and\n      swap1\n      sstore\n        /* \"DeadMansSwitch.sol\":9937:9952  block.timestamp */\n      timestamp\n        /* \"DeadMansSwitch.sol\":9883:9934  benefactors[_benefactor].lastBenefactorResponseTime */\n      0x03\n      dup3\n      add\n        /* \"DeadMansSwitch.sol\":9883:9952  benefactors[_benefactor].lastBenefactorResponseTime = block.timestamp */\n      sstore\n        /* \"DeadMansSwitch.sol\":10135:10177  benefactors[_benefactor].countdownDuration */\n      add\n      sload\n        /* \"DeadMansSwitch.sol\":10089:10178  DeadMansSwitchEnabled(_benefactor,msg.sender, benefactors[_benefactor].countdownDuration) */\n      swap1\n      mload\n        /* \"DeadMansSwitch.sol\":10123:10133  msg.sender */\n      caller\n      swap3\n        /* \"DeadMansSwitch.sol\":9781:9805  benefactors[_benefactor] */\n      swap2\n        /* \"DeadMansSwitch.sol\":10089:10178  DeadMansSwitchEnabled(_benefactor,msg.sender, benefactors[_benefactor].countdownDuration) */\n      0x82595752291d0261dfb9b4b0c2307021c29c34e22fe0697b4840b529dc351bc3\n      swap2\n      tag_272\n      swap2\n        /* \"#utility.yul\":552:577   */\n      dup2\n      mstore\n        /* \"#utility.yul\":540:542   */\n      0x20\n        /* \"#utility.yul\":525:543   */\n      add\n      swap1\n        /* \"#utility.yul\":406:583   */\n      jump\n        /* \"DeadMansSwitch.sol\":10089:10178  DeadMansSwitchEnabled(_benefactor,msg.sender, benefactors[_benefactor].countdownDuration) */\n    tag_272:\n      mload(0x40)\n      dup1\n      swap2\n      sub\n      swap1\n      log3\n        /* \"DeadMansSwitch.sol\":9400:10186  function enableSwitch(address _benefactor) external {... */\n      pop\n      jump\t// out\n        /* \"DeadMansSwitch.sol\":5698:5930  function removeBenefactor(address _benefactor) public {... */\n    tag_88:\n        /* \"DeadMansSwitch.sol\":5783:5793  msg.sender */\n      caller\n        /* \"DeadMansSwitch.sol\":5771:5794  benefactors[msg.sender] */\n      0x00\n      swap1\n      dup2\n      mstore\n        /* \"DeadMansSwitch.sol\":5771:5782  benefactors */\n      0x02\n        /* \"DeadMansSwitch.sol\":5771:5794  benefactors[msg.sender] */\n      0x20\n      mstore\n      0x40\n      swap1\n      keccak256\n        /* \"DeadMansSwitch.sol\":5771:5801  benefactors[msg.sender].exists */\n      sload\n      0xff\n      and\n        /* \"DeadMansSwitch.sol\":5763:5831  require(benefactors[msg.sender].exists, \"Benefactor not registered\") */\n      tag_274\n      jumpi\n      mload(0x40)\n      shl(0xe5, 0x461bcd)\n      dup2\n      mstore\n        /* \"#utility.yul\":15060:15062   */\n      0x20\n        /* \"DeadMansSwitch.sol\":5763:5831  require(benefactors[msg.sender].exists, \"Benefactor not registered\") */\n      0x04\n      dup3\n      add\n        /* \"#utility.yul\":15042:15063   */\n      mstore\n        /* \"#utility.yul\":15099:15101   */\n      0x19\n        /* \"#utility.yul\":15079:15097   */\n      0x24\n      dup3\n      add\n        /* \"#utility.yul\":15072:15102   */\n      mstore\n        /* \"#utility.yul\":15138:15165   */\n      0x42656e65666163746f72206e6f74207265676973746572656400000000000000\n        /* \"#utility.yul\":15118:15136   */\n      0x44\n      dup3\n      add\n        /* \"#utility.yul\":15111:15166   */\n      mstore\n        /* \"#utility.yul\":15183:15201   */\n      0x64\n      add\n        /* \"DeadMansSwitch.sol\":5763:5831  require(benefactors[msg.sender].exists, \"Benefactor not registered\") */\n      tag_123\n        /* \"#utility.yul\":14858:15207   */\n      jump\n        /* \"DeadMansSwitch.sol\":5763:5831  require(benefactors[msg.sender].exists, \"Benefactor not registered\") */\n    tag_274:\n        /* \"DeadMansSwitch.sol\":5854:5864  msg.sender */\n      caller\n        /* \"DeadMansSwitch.sol\":5875:5880  false */\n      0x00\n        /* \"DeadMansSwitch.sol\":5842:5865  benefactors[msg.sender] */\n      swap1\n      dup2\n      mstore\n        /* \"DeadMansSwitch.sol\":5842:5853  benefactors */\n      0x02\n        /* \"DeadMansSwitch.sol\":5842:5865  benefactors[msg.sender] */\n      0x20\n      dup2\n      swap1\n      mstore\n      0x40\n      dup1\n      dup4\n      keccak256\n        /* \"DeadMansSwitch.sol\":5842:5880  benefactors[msg.sender].exists = false */\n      dup1\n      sload\n      not(0xff)\n      swap1\n      dup2\n      and\n      swap1\n      swap2\n      sstore\n      sub(shl(0xa0, 0x01), 0x01)\n        /* \"DeadMansSwitch.sol\":5898:5922  benefactors[_benefactor] */\n      swap5\n      swap1\n      swap5\n      and\n      dup4\n      mstore\n      dup3\n      keccak256\n        /* \"DeadMansSwitch.sol\":5891:5922  delete benefactors[_benefactor] */\n      dup1\n      sload\n      swap1\n      swap4\n      and\n      dup4\n      sstore\n      dup3\n      add\n      dup2\n      swap1\n      sstore\n      0x03\n      dup3\n      add\n      sstore\n      0x04\n      add\n      dup1\n      sload\n      not(0xffff)\n      and\n      swap1\n      sstore\n        /* \"DeadMansSwitch.sol\":5698:5930  function removeBenefactor(address _benefactor) public {... */\n      jump\t// out\n        /* \"DeadMansSwitch.sol\":12280:12979  function respondToSwitch() external onlyBenefactor {... */\n    tag_94:\n        /* \"DeadMansSwitch.sol\":2488:2498  msg.sender */\n      caller\n        /* \"DeadMansSwitch.sol\":2476:2499  benefactors[msg.sender] */\n      0x00\n      swap1\n      dup2\n      mstore\n        /* \"DeadMansSwitch.sol\":2476:2487  benefactors */\n      0x02\n        /* \"DeadMansSwitch.sol\":2476:2499  benefactors[msg.sender] */\n      0x20\n      mstore\n      0x40\n      swap1\n      keccak256\n        /* \"DeadMansSwitch.sol\":2476:2506  benefactors[msg.sender].exists */\n      sload\n      0xff\n      and\n        /* \"DeadMansSwitch.sol\":2476:2541  benefactors[msg.sender].exists && benefactors[msg.sender].isAlive */\n      dup1\n      iszero\n      tag_279\n      jumpi\n      pop\n        /* \"DeadMansSwitch.sol\":2522:2532  msg.sender */\n      caller\n        /* \"DeadMansSwitch.sol\":2510:2533  benefactors[msg.sender] */\n      0x00\n      swap1\n      dup2\n      mstore\n        /* \"DeadMansSwitch.sol\":2510:2521  benefactors */\n      0x02\n        /* \"DeadMansSwitch.sol\":2510:2533  benefactors[msg.sender] */\n      0x20\n      mstore\n      0x40\n      swap1\n      keccak256\n        /* \"DeadMansSwitch.sol\":2510:2541  benefactors[msg.sender].isAlive */\n      0x04\n      add\n      sload\n      0x0100\n      swap1\n      div\n      0xff\n      and\n        /* \"DeadMansSwitch.sol\":2476:2541  benefactors[msg.sender].exists && benefactors[msg.sender].isAlive */\n    tag_279:\n        /* \"DeadMansSwitch.sol\":2468:2568  require(benefactors[msg.sender].exists && benefactors[msg.sender].isAlive, \"Not a valid benefactor\") */\n      tag_280\n      jumpi\n      mload(0x40)\n      shl(0xe5, 0x461bcd)\n      dup2\n      mstore\n        /* \"#utility.yul\":10125:10127   */\n      0x20\n        /* \"DeadMansSwitch.sol\":2468:2568  require(benefactors[msg.sender].exists && benefactors[msg.sender].isAlive, \"Not a valid benefactor\") */\n      0x04\n      dup3\n      add\n        /* \"#utility.yul\":10107:10128   */\n      mstore\n        /* \"#utility.yul\":10164:10166   */\n      0x16\n        /* \"#utility.yul\":10144:10162   */\n      0x24\n      dup3\n      add\n        /* \"#utility.yul\":10137:10167   */\n      mstore\n      shl(0x51, 0x2737ba1030903b30b634b2103132b732b330b1ba37b9)\n        /* \"#utility.yul\":10183:10201   */\n      0x44\n      dup3\n      add\n        /* \"#utility.yul\":10176:10228   */\n      mstore\n        /* \"#utility.yul\":10245:10263   */\n      0x64\n      add\n        /* \"DeadMansSwitch.sol\":2468:2568  require(benefactors[msg.sender].exists && benefactors[msg.sender].isAlive, \"Not a valid benefactor\") */\n      tag_123\n        /* \"#utility.yul\":9923:10269   */\n      jump\n        /* \"DeadMansSwitch.sol\":2468:2568  require(benefactors[msg.sender].exists && benefactors[msg.sender].isAlive, \"Not a valid benefactor\") */\n    tag_280:\n        /* \"DeadMansSwitch.sol\":12358:12368  msg.sender */\n      caller\n        /* \"DeadMansSwitch.sol\":12346:12369  benefactors[msg.sender] */\n      0x00\n      swap1\n      dup2\n      mstore\n        /* \"DeadMansSwitch.sol\":12346:12357  benefactors */\n      0x02\n        /* \"DeadMansSwitch.sol\":12346:12369  benefactors[msg.sender] */\n      0x20\n      mstore\n      0x40\n      swap1\n      keccak256\n        /* \"DeadMansSwitch.sol\":12346:12396  benefactors[msg.sender].lastBenefactorResponseTime */\n      0x03\n      add\n      sload\n        /* \"DeadMansSwitch.sol\":12346:12401  benefactors[msg.sender].lastBenefactorResponseTime != 0 */\n      iszero\n        /* \"DeadMansSwitch.sol\":12342:12972  if (benefactors[msg.sender].lastBenefactorResponseTime != 0) {... */\n      tag_283\n      jumpi\n        /* \"DeadMansSwitch.sol\":12422:12450  checkAliveStatus(msg.sender) */\n      tag_284\n        /* \"DeadMansSwitch.sol\":12439:12449  msg.sender */\n      caller\n        /* \"DeadMansSwitch.sol\":12422:12438  checkAliveStatus */\n      tag_38\n        /* \"DeadMansSwitch.sol\":12422:12450  checkAliveStatus(msg.sender) */\n      jump\t// in\n    tag_284:\n        /* \"DeadMansSwitch.sol\":12418:12759  if (checkAliveStatus(msg.sender)) {... */\n      iszero\n      tag_285\n      jumpi\n        /* \"DeadMansSwitch.sol\":12494:12504  msg.sender */\n      caller\n      sub(shl(0xa0, 0x01), 0x01)\n        /* \"DeadMansSwitch.sol\":12476:12527  BenefactorIsAlive(msg.sender,\"Benefactor is alive\") */\n      and\n      0x793324a6f079e577f4a4646c7ec753efd3beddc2f4ce07bfae5f105c449ac356\n      mload(0x40)\n      tag_286\n      swap1\n        /* \"#utility.yul\":15414:15416   */\n      0x20\n        /* \"#utility.yul\":15396:15417   */\n      dup1\n      dup3\n      mstore\n        /* \"#utility.yul\":15453:15455   */\n      0x13\n        /* \"#utility.yul\":15433:15451   */\n      swap1\n      dup3\n      add\n        /* \"#utility.yul\":15426:15456   */\n      mstore\n        /* \"#utility.yul\":15492:15513   */\n      0x42656e65666163746f7220697320616c69766500000000000000000000000000\n        /* \"#utility.yul\":15487:15489   */\n      0x40\n        /* \"#utility.yul\":15472:15490   */\n      dup3\n      add\n        /* \"#utility.yul\":15465:15514   */\n      mstore\n        /* \"#utility.yul\":15546:15548   */\n      0x60\n        /* \"#utility.yul\":15531:15549   */\n      add\n      swap1\n        /* \"#utility.yul\":15212:15555   */\n      jump\n        /* \"DeadMansSwitch.sol\":12476:12527  BenefactorIsAlive(msg.sender,\"Benefactor is alive\") */\n    tag_286:\n      mload(0x40)\n      dup1\n      swap2\n      sub\n      swap1\n      log2\n        /* \"DeadMansSwitch.sol\":12546:12561  disableSwitch() */\n      tag_288\n        /* \"DeadMansSwitch.sol\":12546:12559  disableSwitch */\n      tag_289\n        /* \"DeadMansSwitch.sol\":12546:12561  disableSwitch() */\n      jump\t// in\n    tag_288:\n        /* \"DeadMansSwitch.sol\":12592:12602  msg.sender */\n      caller\n        /* \"DeadMansSwitch.sol\":12580:12603  benefactors[msg.sender] */\n      0x00\n      swap1\n      dup2\n      mstore\n        /* \"DeadMansSwitch.sol\":12580:12591  benefactors */\n      0x02\n        /* \"DeadMansSwitch.sol\":12580:12603  benefactors[msg.sender] */\n      0x20\n      mstore\n      0x40\n      swap1\n      keccak256\n        /* \"DeadMansSwitch.sol\":12633:12648  block.timestamp */\n      timestamp\n        /* \"DeadMansSwitch.sol\":12580:12630  benefactors[msg.sender].lastBenefactorResponseTime */\n      0x03\n      swap1\n      swap2\n      add\n        /* \"DeadMansSwitch.sol\":12580:12648  benefactors[msg.sender].lastBenefactorResponseTime = block.timestamp */\n      sstore\n        /* \"DeadMansSwitch.sol\":12280:12979  function respondToSwitch() external onlyBenefactor {... */\n      jump\t// out\n        /* \"DeadMansSwitch.sol\":12418:12759  if (checkAliveStatus(msg.sender)) {... */\n    tag_285:\n        /* \"DeadMansSwitch.sol\":12711:12721  msg.sender */\n      caller\n      sub(shl(0xa0, 0x01), 0x01)\n        /* \"DeadMansSwitch.sol\":12694:12743  BenefactorIsDead(msg.sender,\"Benefactor is dead\") */\n      and\n      0x5a68fa7d6b655a3e592d5d99ac82863424750e9d262c902f30f9e56655e7a856\n      mload(0x40)\n      tag_291\n      swap1\n        /* \"#utility.yul\":15762:15764   */\n      0x20\n        /* \"#utility.yul\":15744:15765   */\n      dup1\n      dup3\n      mstore\n        /* \"#utility.yul\":15801:15803   */\n      0x12\n        /* \"#utility.yul\":15781:15799   */\n      swap1\n      dup3\n      add\n        /* \"#utility.yul\":15774:15804   */\n      mstore\n        /* \"#utility.yul\":15840:15860   */\n      0x42656e65666163746f7220697320646561640000000000000000000000000000\n        /* \"#utility.yul\":15835:15837   */\n      0x40\n        /* \"#utility.yul\":15820:15838   */\n      dup3\n      add\n        /* \"#utility.yul\":15813:15861   */\n      mstore\n        /* \"#utility.yul\":15893:15895   */\n      0x60\n        /* \"#utility.yul\":15878:15896   */\n      add\n      swap1\n        /* \"#utility.yul\":15560:15902   */\n      jump\n        /* \"DeadMansSwitch.sol\":12694:12743  BenefactorIsDead(msg.sender,\"Benefactor is dead\") */\n    tag_291:\n      mload(0x40)\n      dup1\n      swap2\n      sub\n      swap1\n      log2\n        /* \"DeadMansSwitch.sol\":12280:12979  function respondToSwitch() external onlyBenefactor {... */\n      jump\t// out\n        /* \"DeadMansSwitch.sol\":12342:12972  if (benefactors[msg.sender].lastBenefactorResponseTime != 0) {... */\n    tag_283:\n        /* \"DeadMansSwitch.sol\":12814:12824  msg.sender */\n      caller\n      sub(shl(0xa0, 0x01), 0x01)\n        /* \"DeadMansSwitch.sol\":12796:12847  BenefactorIsAlive(msg.sender,\"Benefactor is alive\") */\n      and\n      0x793324a6f079e577f4a4646c7ec753efd3beddc2f4ce07bfae5f105c449ac356\n      mload(0x40)\n      tag_286\n      swap1\n        /* \"#utility.yul\":15414:15416   */\n      0x20\n        /* \"#utility.yul\":15396:15417   */\n      dup1\n      dup3\n      mstore\n        /* \"#utility.yul\":15453:15455   */\n      0x13\n        /* \"#utility.yul\":15433:15451   */\n      swap1\n      dup3\n      add\n        /* \"#utility.yul\":15426:15456   */\n      mstore\n        /* \"#utility.yul\":15492:15513   */\n      0x42656e65666163746f7220697320616c69766500000000000000000000000000\n        /* \"#utility.yul\":15487:15489   */\n      0x40\n        /* \"#utility.yul\":15472:15490   */\n      dup3\n      add\n        /* \"#utility.yul\":15465:15514   */\n      mstore\n        /* \"#utility.yul\":15546:15548   */\n      0x60\n        /* \"#utility.yul\":15531:15549   */\n      add\n      swap1\n        /* \"#utility.yul\":15212:15555   */\n      jump\n        /* \"DeadMansSwitch.sol\":3888:4249  function addBenefactorPublicKey(address _benefactor, address _beneficiary, string memory _key) public {... */\n    tag_97:\n        /* \"DeadMansSwitch.sol\":4009:4048  isBeneficiary(_benefactor,_beneficiary) */\n      tag_297\n        /* \"DeadMansSwitch.sol\":4023:4034  _benefactor */\n      dup4\n        /* \"DeadMansSwitch.sol\":4035:4047  _beneficiary */\n      dup4\n        /* \"DeadMansSwitch.sol\":4009:4022  isBeneficiary */\n      tag_48\n        /* \"DeadMansSwitch.sol\":4009:4048  isBeneficiary(_benefactor,_beneficiary) */\n      jump\t// in\n    tag_297:\n        /* \"DeadMansSwitch.sol\":4001:4085  require(isBeneficiary(_benefactor,_beneficiary), \"Beneficiary/Benefactor not found\") */\n      tag_298\n      jumpi\n      mload(0x40)\n      shl(0xe5, 0x461bcd)\n      dup2\n      mstore\n        /* \"#utility.yul\":7175:7177   */\n      0x20\n        /* \"DeadMansSwitch.sol\":4001:4085  require(isBeneficiary(_benefactor,_beneficiary), \"Beneficiary/Benefactor not found\") */\n      0x04\n      dup3\n      add\n        /* \"#utility.yul\":7157:7178   */\n      dup2\n      swap1\n      mstore\n        /* \"#utility.yul\":7194:7212   */\n      0x24\n      dup3\n      add\n        /* \"#utility.yul\":7187:7217   */\n      mstore\n        /* \"#utility.yul\":7253:7287   */\n      0x42656e65666963696172792f42656e65666163746f72206e6f7420666f756e64\n        /* \"#utility.yul\":7233:7251   */\n      0x44\n      dup3\n      add\n        /* \"#utility.yul\":7226:7288   */\n      mstore\n        /* \"#utility.yul\":7305:7323   */\n      0x64\n      add\n        /* \"DeadMansSwitch.sol\":4001:4085  require(isBeneficiary(_benefactor,_beneficiary), \"Beneficiary/Benefactor not found\") */\n      tag_123\n        /* \"#utility.yul\":6973:7329   */\n      jump\n        /* \"DeadMansSwitch.sol\":4001:4085  require(isBeneficiary(_benefactor,_beneficiary), \"Beneficiary/Benefactor not found\") */\n    tag_298:\n      sub(shl(0xa0, 0x01), 0x01)\n        /* \"DeadMansSwitch.sol\":4096:4120  benefactors[_benefactor] */\n      dup1\n      dup5\n      and\n      0x00\n      swap1\n      dup2\n      mstore\n        /* \"DeadMansSwitch.sol\":4096:4107  benefactors */\n      0x02\n        /* \"DeadMansSwitch.sol\":4096:4120  benefactors[_benefactor] */\n      0x20\n      dup2\n      dup2\n      mstore\n      0x40\n      dup1\n      dup5\n      keccak256\n        /* \"DeadMansSwitch.sol\":4096:4148  benefactors[_benefactor].beneficiaries[_beneficiary] */\n      swap5\n      dup8\n      and\n      dup5\n      mstore\n        /* \"DeadMansSwitch.sol\":4096:4134  benefactors[_benefactor].beneficiaries */\n      0x01\n      swap1\n      swap5\n      add\n        /* \"DeadMansSwitch.sol\":4096:4148  benefactors[_benefactor].beneficiaries[_beneficiary] */\n      swap1\n      mstore\n      swap2\n      swap1\n      keccak256\n        /* \"DeadMansSwitch.sol\":4096:4168  benefactors[_benefactor].beneficiaries[_beneficiary].benefactorPublicKey */\n      add\n        /* \"DeadMansSwitch.sol\":4096:4175  benefactors[_benefactor].beneficiaries[_beneficiary].benefactorPublicKey = _key */\n      tag_300\n        /* \"DeadMansSwitch.sol\":4171:4175  _key */\n      dup3\n        /* \"DeadMansSwitch.sol\":4096:4168  benefactors[_benefactor].beneficiaries[_beneficiary].benefactorPublicKey */\n      dup3\n        /* \"DeadMansSwitch.sol\":4096:4175  benefactors[_benefactor].beneficiaries[_beneficiary].benefactorPublicKey = _key */\n      tag_162\n      jump\t// in\n    tag_300:\n      pop\n        /* \"DeadMansSwitch.sol\":4222:4234  _beneficiary */\n      dup2\n      sub(shl(0xa0, 0x01), 0x01)\n        /* \"DeadMansSwitch.sol\":4191:4241  BenefactorKeyAdded(_benefactor,_beneficiary, _key) */\n      and\n        /* \"DeadMansSwitch.sol\":4210:4221  _benefactor */\n      dup4\n      sub(shl(0xa0, 0x01), 0x01)\n        /* \"DeadMansSwitch.sol\":4191:4241  BenefactorKeyAdded(_benefactor,_beneficiary, _key) */\n      and\n      0x812e93bad7e76e8b51ecdb31c9c69773dba6b47c2ae9fc763877665448b150d9\n        /* \"DeadMansSwitch.sol\":4236:4240  _key */\n      dup4\n        /* \"DeadMansSwitch.sol\":4191:4241  BenefactorKeyAdded(_benefactor,_beneficiary, _key) */\n      mload(0x40)\n      tag_163\n      swap2\n      swap1\n      tag_82\n      jump\t// in\n        /* \"DeadMansSwitch.sol\":13169:13578  function getCIDs(address _benefactor, address _beneficiary) public view returns (string[] memory){... */\n    tag_100:\n        /* \"DeadMansSwitch.sol\":13250:13265  string[] memory */\n      0x60\n        /* \"DeadMansSwitch.sol\":13285:13324  isBeneficiary(_benefactor,_beneficiary) */\n      tag_303\n        /* \"DeadMansSwitch.sol\":13299:13310  _benefactor */\n      dup4\n        /* \"DeadMansSwitch.sol\":13311:13323  _beneficiary */\n      dup4\n        /* \"DeadMansSwitch.sol\":13285:13298  isBeneficiary */\n      tag_48\n        /* \"DeadMansSwitch.sol\":13285:13324  isBeneficiary(_benefactor,_beneficiary) */\n      jump\t// in\n    tag_303:\n        /* \"DeadMansSwitch.sol\":13277:13349  require(isBeneficiary(_benefactor,_beneficiary),\"Beneficiary not found\") */\n      tag_304\n      jumpi\n      mload(0x40)\n      shl(0xe5, 0x461bcd)\n      dup2\n      mstore\n        /* \"#utility.yul\":10476:10478   */\n      0x20\n        /* \"DeadMansSwitch.sol\":13277:13349  require(isBeneficiary(_benefactor,_beneficiary),\"Beneficiary not found\") */\n      0x04\n      dup3\n      add\n        /* \"#utility.yul\":10458:10479   */\n      mstore\n        /* \"#utility.yul\":10515:10517   */\n      0x15\n        /* \"#utility.yul\":10495:10513   */\n      0x24\n      dup3\n      add\n        /* \"#utility.yul\":10488:10518   */\n      mstore\n      shl(0x5a, 0x10995b99599a58da585c9e481b9bdd08199bdd5b99)\n        /* \"#utility.yul\":10534:10552   */\n      0x44\n      dup3\n      add\n        /* \"#utility.yul\":10527:10578   */\n      mstore\n        /* \"#utility.yul\":10595:10613   */\n      0x64\n      add\n        /* \"DeadMansSwitch.sol\":13277:13349  require(isBeneficiary(_benefactor,_beneficiary),\"Beneficiary not found\") */\n      tag_123\n        /* \"#utility.yul\":10274:10619   */\n      jump\n        /* \"DeadMansSwitch.sol\":13277:13349  require(isBeneficiary(_benefactor,_beneficiary),\"Beneficiary not found\") */\n    tag_304:\n      sub(shl(0xa0, 0x01), 0x01)\n        /* \"DeadMansSwitch.sol\":13368:13392  benefactors[_benefactor] */\n      dup4\n      and\n      0x00\n      swap1\n      dup2\n      mstore\n        /* \"DeadMansSwitch.sol\":13368:13379  benefactors */\n      0x02\n        /* \"DeadMansSwitch.sol\":13368:13392  benefactors[_benefactor] */\n      0x20\n      swap1\n      dup2\n      mstore\n      0x40\n      dup1\n      dup4\n      keccak256\n        /* \"DeadMansSwitch.sol\":13407:13417  msg.sender */\n      caller\n        /* \"DeadMansSwitch.sol\":13368:13418  benefactors[_benefactor].beneficiaries[msg.sender] */\n      dup5\n      mstore\n        /* \"DeadMansSwitch.sol\":13368:13406  benefactors[_benefactor].beneficiaries */\n      0x01\n      add\n        /* \"DeadMansSwitch.sol\":13368:13418  benefactors[_benefactor].beneficiaries[msg.sender] */\n      swap1\n      swap2\n      mstore\n      swap1\n      keccak256\n        /* \"DeadMansSwitch.sol\":13368:13425  benefactors[_benefactor].beneficiaries[msg.sender].exists */\n      sload\n      0xff\n      and\n        /* \"DeadMansSwitch.sol\":13368:13470  benefactors[_benefactor].beneficiaries[msg.sender].exists && benefactors[_benefactor].isAlive == false */\n      dup1\n      iszero\n      tag_306\n      jumpi\n      pop\n      sub(shl(0xa0, 0x01), 0x01)\n        /* \"DeadMansSwitch.sol\":13429:13453  benefactors[_benefactor] */\n      dup4\n      and\n      0x00\n      swap1\n      dup2\n      mstore\n        /* \"DeadMansSwitch.sol\":13429:13440  benefactors */\n      0x02\n        /* \"DeadMansSwitch.sol\":13429:13453  benefactors[_benefactor] */\n      0x20\n      mstore\n      0x40\n      swap1\n      keccak256\n        /* \"DeadMansSwitch.sol\":13429:13461  benefactors[_benefactor].isAlive */\n      0x04\n      add\n      sload\n      0x0100\n      swap1\n      div\n      0xff\n      and\n        /* \"DeadMansSwitch.sol\":13429:13470  benefactors[_benefactor].isAlive == false */\n      iszero\n        /* \"DeadMansSwitch.sol\":13368:13470  benefactors[_benefactor].beneficiaries[msg.sender].exists && benefactors[_benefactor].isAlive == false */\n    tag_306:\n        /* \"DeadMansSwitch.sol\":13360:13491  require(benefactors[_benefactor].beneficiaries[msg.sender].exists && benefactors[_benefactor].isAlive == false,\"No access to CIDs\") */\n      tag_307\n      jumpi\n      mload(0x40)\n      shl(0xe5, 0x461bcd)\n      dup2\n      mstore\n        /* \"#utility.yul\":16109:16111   */\n      0x20\n        /* \"DeadMansSwitch.sol\":13360:13491  require(benefactors[_benefactor].beneficiaries[msg.sender].exists && benefactors[_benefactor].isAlive == false,\"No access to CIDs\") */\n      0x04\n      dup3\n      add\n        /* \"#utility.yul\":16091:16112   */\n      mstore\n        /* \"#utility.yul\":16148:16150   */\n      0x11\n        /* \"#utility.yul\":16128:16146   */\n      0x24\n      dup3\n      add\n        /* \"#utility.yul\":16121:16151   */\n      mstore\n        /* \"#utility.yul\":16187:16206   */\n      0x4e6f2061636365737320746f2043494473000000000000000000000000000000\n        /* \"#utility.yul\":16167:16185   */\n      0x44\n      dup3\n      add\n        /* \"#utility.yul\":16160:16207   */\n      mstore\n        /* \"#utility.yul\":16224:16242   */\n      0x64\n      add\n        /* \"DeadMansSwitch.sol\":13360:13491  require(benefactors[_benefactor].beneficiaries[msg.sender].exists && benefactors[_benefactor].isAlive == false,\"No access to CIDs\") */\n      tag_123\n        /* \"#utility.yul\":15907:16248   */\n      jump\n        /* \"DeadMansSwitch.sol\":13360:13491  require(benefactors[_benefactor].beneficiaries[msg.sender].exists && benefactors[_benefactor].isAlive == false,\"No access to CIDs\") */\n    tag_307:\n      sub(shl(0xa0, 0x01), 0x01)\n        /* \"DeadMansSwitch.sol\":13509:13533  benefactors[_benefactor] */\n      dup1\n      dup5\n      and\n      0x00\n      swap1\n      dup2\n      mstore\n        /* \"DeadMansSwitch.sol\":13509:13520  benefactors */\n      0x02\n        /* \"DeadMansSwitch.sol\":13509:13533  benefactors[_benefactor] */\n      0x20\n      swap1\n      dup2\n      mstore\n      0x40\n      dup1\n      dup4\n      keccak256\n        /* \"DeadMansSwitch.sol\":13509:13561  benefactors[_benefactor].beneficiaries[_beneficiary] */\n      swap4\n      dup7\n      and\n      dup4\n      mstore\n        /* \"DeadMansSwitch.sol\":13509:13547  benefactors[_benefactor].beneficiaries */\n      0x01\n      swap4\n      dup5\n      add\n        /* \"DeadMansSwitch.sol\":13509:13561  benefactors[_benefactor].beneficiaries[_beneficiary] */\n      dup3\n      mstore\n      dup1\n      dup4\n      keccak256\n        /* \"DeadMansSwitch.sol\":13509:13570  benefactors[_benefactor].beneficiaries[_beneficiary].ipfsCIDs */\n      swap1\n      swap4\n      add\n        /* \"DeadMansSwitch.sol\":13502:13570  return benefactors[_benefactor].beneficiaries[_beneficiary].ipfsCIDs */\n      dup1\n      sload\n      dup5\n      mload\n      dup2\n      dup5\n      mul\n      dup2\n      add\n      dup5\n      add\n      swap1\n      swap6\n      mstore\n      dup1\n      dup6\n      mstore\n        /* \"DeadMansSwitch.sol\":13509:13570  benefactors[_benefactor].beneficiaries[_beneficiary].ipfsCIDs */\n      swap1\n      swap3\n        /* \"DeadMansSwitch.sol\":13502:13570  return benefactors[_benefactor].beneficiaries[_beneficiary].ipfsCIDs */\n      swap1\n      swap2\n      dup5\n      add\n    tag_310:\n      dup3\n      dup3\n      lt\n      iszero\n      tag_311\n      jumpi\n      dup4\n      dup3\n      swap1\n      0x00\n      mstore\n      keccak256(0x00, 0x20)\n      add\n      dup1\n      sload\n      tag_313\n      swap1\n      tag_261\n      jump\t// in\n    tag_313:\n      dup1\n      0x1f\n      add\n      0x20\n      dup1\n      swap2\n      div\n      mul\n      0x20\n      add\n      mload(0x40)\n      swap1\n      dup2\n      add\n      0x40\n      mstore\n      dup1\n      swap3\n      swap2\n      swap1\n      dup2\n      dup2\n      mstore\n      0x20\n      add\n      dup3\n      dup1\n      sload\n      tag_314\n      swap1\n      tag_261\n      jump\t// in\n    tag_314:\n      dup1\n      iszero\n      tag_315\n      jumpi\n      dup1\n      0x1f\n      lt\n      tag_316\n      jumpi\n      0x0100\n      dup1\n      dup4\n      sload\n      div\n      mul\n      dup4\n      mstore\n      swap2\n      0x20\n      add\n      swap2\n      jump(tag_315)\n    tag_316:\n      dup3\n      add\n      swap2\n      swap1\n      0x00\n      mstore\n      keccak256(0x00, 0x20)\n      swap1\n    tag_317:\n      dup2\n      sload\n      dup2\n      mstore\n      swap1\n      0x01\n      add\n      swap1\n      0x20\n      add\n      dup1\n      dup4\n      gt\n      tag_317\n      jumpi\n      dup3\n      swap1\n      sub\n      0x1f\n      and\n      dup3\n      add\n      swap2\n    tag_315:\n      pop\n      pop\n      pop\n      pop\n      pop\n      dup2\n      mstore\n      0x20\n      add\n      swap1\n      0x01\n      add\n      swap1\n      jump(tag_310)\n    tag_311:\n      pop\n      pop\n      pop\n      pop\n      swap1\n      pop\n        /* \"DeadMansSwitch.sol\":13169:13578  function getCIDs(address _benefactor, address _beneficiary) public view returns (string[] memory){... */\n      swap3\n      swap2\n      pop\n      pop\n      jump\t// out\n        /* \"DeadMansSwitch.sol\":5284:5608  function getBeneficiaryPublicKey(address _benefactor, address _beneficiary) public view returns(string memory) {... */\n    tag_105:\n        /* \"DeadMansSwitch.sol\":5380:5393  string memory */\n      0x60\n        /* \"DeadMansSwitch.sol\":5410:5450  isBeneficiary(_benefactor, _beneficiary) */\n      tag_319\n        /* \"DeadMansSwitch.sol\":5424:5435  _benefactor */\n      dup4\n        /* \"DeadMansSwitch.sol\":5437:5449  _beneficiary */\n      dup4\n        /* \"DeadMansSwitch.sol\":5410:5423  isBeneficiary */\n      tag_48\n        /* \"DeadMansSwitch.sol\":5410:5450  isBeneficiary(_benefactor, _beneficiary) */\n      jump\t// in\n    tag_319:\n        /* \"DeadMansSwitch.sol\":5406:5601  if (isBeneficiary(_benefactor, _beneficiary)) {... */\n      iszero\n      tag_259\n      jumpi\n      sub(shl(0xa0, 0x01), 0x01)\n        /* \"DeadMansSwitch.sol\":5474:5498  benefactors[_benefactor] */\n      dup1\n      dup5\n      and\n      0x00\n      swap1\n      dup2\n      mstore\n        /* \"DeadMansSwitch.sol\":5474:5485  benefactors */\n      0x02\n        /* \"DeadMansSwitch.sol\":5474:5498  benefactors[_benefactor] */\n      0x20\n      swap1\n      dup2\n      mstore\n      0x40\n      dup1\n      dup4\n      keccak256\n        /* \"DeadMansSwitch.sol\":5474:5526  benefactors[_benefactor].beneficiaries[_beneficiary] */\n      swap4\n      dup7\n      and\n      dup4\n      mstore\n        /* \"DeadMansSwitch.sol\":5474:5512  benefactors[_benefactor].beneficiaries */\n      0x01\n      swap1\n      swap4\n      add\n        /* \"DeadMansSwitch.sol\":5474:5526  benefactors[_benefactor].beneficiaries[_beneficiary] */\n      swap1\n      mstore\n      keccak256\n        /* \"DeadMansSwitch.sol\":5474:5547  benefactors[_benefactor].beneficiaries[_beneficiary].beneficiaryPublicKey */\n      0x03\n      add\n        /* \"DeadMansSwitch.sol\":5467:5547  return benefactors[_benefactor].beneficiaries[_beneficiary].beneficiaryPublicKey */\n      dup1\n      sload\n      tag_260\n      swap1\n      tag_261\n      jump\t// in\n        /* \"DeadMansSwitch.sol\":11787:12122  function disableSwitch() internal onlyBenefactor {... */\n    tag_289:\n        /* \"DeadMansSwitch.sol\":2488:2498  msg.sender */\n      caller\n        /* \"DeadMansSwitch.sol\":2476:2499  benefactors[msg.sender] */\n      0x00\n      swap1\n      dup2\n      mstore\n        /* \"DeadMansSwitch.sol\":2476:2487  benefactors */\n      0x02\n        /* \"DeadMansSwitch.sol\":2476:2499  benefactors[msg.sender] */\n      0x20\n      mstore\n      0x40\n      swap1\n      keccak256\n        /* \"DeadMansSwitch.sol\":2476:2506  benefactors[msg.sender].exists */\n      sload\n      0xff\n      and\n        /* \"DeadMansSwitch.sol\":2476:2541  benefactors[msg.sender].exists && benefactors[msg.sender].isAlive */\n      dup1\n      iszero\n      tag_329\n      jumpi\n      pop\n        /* \"DeadMansSwitch.sol\":2522:2532  msg.sender */\n      caller\n        /* \"DeadMansSwitch.sol\":2510:2533  benefactors[msg.sender] */\n      0x00\n      swap1\n      dup2\n      mstore\n        /* \"DeadMansSwitch.sol\":2510:2521  benefactors */\n      0x02\n        /* \"DeadMansSwitch.sol\":2510:2533  benefactors[msg.sender] */\n      0x20\n      mstore\n      0x40\n      swap1\n      keccak256\n        /* \"DeadMansSwitch.sol\":2510:2541  benefactors[msg.sender].isAlive */\n      0x04\n      add\n      sload\n      0x0100\n      swap1\n      div\n      0xff\n      and\n        /* \"DeadMansSwitch.sol\":2476:2541  benefactors[msg.sender].exists && benefactors[msg.sender].isAlive */\n    tag_329:\n        /* \"DeadMansSwitch.sol\":2468:2568  require(benefactors[msg.sender].exists && benefactors[msg.sender].isAlive, \"Not a valid benefactor\") */\n      tag_330\n      jumpi\n      mload(0x40)\n      shl(0xe5, 0x461bcd)\n      dup2\n      mstore\n        /* \"#utility.yul\":10125:10127   */\n      0x20\n        /* \"DeadMansSwitch.sol\":2468:2568  require(benefactors[msg.sender].exists && benefactors[msg.sender].isAlive, \"Not a valid benefactor\") */\n      0x04\n      dup3\n      add\n        /* \"#utility.yul\":10107:10128   */\n      mstore\n        /* \"#utility.yul\":10164:10166   */\n      0x16\n        /* \"#utility.yul\":10144:10162   */\n      0x24\n      dup3\n      add\n        /* \"#utility.yul\":10137:10167   */\n      mstore\n      shl(0x51, 0x2737ba1030903b30b634b2103132b732b330b1ba37b9)\n        /* \"#utility.yul\":10183:10201   */\n      0x44\n      dup3\n      add\n        /* \"#utility.yul\":10176:10228   */\n      mstore\n        /* \"#utility.yul\":10245:10263   */\n      0x64\n      add\n        /* \"DeadMansSwitch.sol\":2468:2568  require(benefactors[msg.sender].exists && benefactors[msg.sender].isAlive, \"Not a valid benefactor\") */\n      tag_123\n        /* \"#utility.yul\":9923:10269   */\n      jump\n        /* \"DeadMansSwitch.sol\":2468:2568  require(benefactors[msg.sender].exists && benefactors[msg.sender].isAlive, \"Not a valid benefactor\") */\n    tag_330:\n        /* \"DeadMansSwitch.sol\":11863:11873  msg.sender */\n      caller\n        /* \"DeadMansSwitch.sol\":11851:11874  benefactors[msg.sender] */\n      0x00\n      swap1\n      dup2\n      mstore\n        /* \"DeadMansSwitch.sol\":11851:11862  benefactors */\n      0x02\n        /* \"DeadMansSwitch.sol\":11851:11874  benefactors[msg.sender] */\n      0x20\n      mstore\n      0x40\n      swap1\n      keccak256\n        /* \"DeadMansSwitch.sol\":11851:11888  benefactors[msg.sender].isSwitchedOff */\n      0x04\n      add\n      sload\n      0xff\n      and\n        /* \"DeadMansSwitch.sol\":11847:11982  if (benefactors[msg.sender].isSwitchedOff) {... */\n      iszero\n      tag_333\n      jumpi\n        /* \"DeadMansSwitch.sol\":11910:11949  SwitchAlreadyOff(msg.sender,msg.sender) */\n      mload(0x40)\n        /* \"DeadMansSwitch.sol\":11938:11948  msg.sender */\n      caller\n      swap1\n      dup2\n      swap1\n        /* \"DeadMansSwitch.sol\":11910:11949  SwitchAlreadyOff(msg.sender,msg.sender) */\n      0x439c5aaf7691cb4808dbd2a240323ce9ec0d04d66ddf65ffd5f88ebd60fa745b\n      swap1\n      0x00\n      swap1\n      log3\n        /* \"DeadMansSwitch.sol\":12280:12979  function respondToSwitch() external onlyBenefactor {... */\n      jump\t// out\n        /* \"DeadMansSwitch.sol\":11847:11982  if (benefactors[msg.sender].isSwitchedOff) {... */\n    tag_333:\n        /* \"DeadMansSwitch.sol\":12004:12014  msg.sender */\n      caller\n        /* \"DeadMansSwitch.sol\":11992:12015  benefactors[msg.sender] */\n      0x00\n      dup2\n      dup2\n      mstore\n        /* \"DeadMansSwitch.sol\":11992:12003  benefactors */\n      0x02\n        /* \"DeadMansSwitch.sol\":11992:12015  benefactors[msg.sender] */\n      0x20\n      mstore\n      0x40\n      swap1\n      dup2\n      swap1\n      keccak256\n        /* \"DeadMansSwitch.sol\":11992:12029  benefactors[msg.sender].isSwitchedOff */\n      0x04\n      add\n        /* \"DeadMansSwitch.sol\":11992:12036  benefactors[msg.sender].isSwitchedOff = true */\n      dup1\n      sload\n      not(0xff)\n      and\n        /* \"DeadMansSwitch.sol\":12032:12036  true */\n      0x01\n        /* \"DeadMansSwitch.sol\":11992:12036  benefactors[msg.sender].isSwitchedOff = true */\n      or\n      swap1\n      sstore\n        /* \"DeadMansSwitch.sol\":12052:12114  DeadMansSwitchDisabled(msg.sender,msg.sender, block.timestamp) */\n      mload\n        /* \"DeadMansSwitch.sol\":12004:12014  msg.sender */\n      dup2\n      swap1\n        /* \"DeadMansSwitch.sol\":12052:12114  DeadMansSwitchDisabled(msg.sender,msg.sender, block.timestamp) */\n      0x9baa855d20de9b1a4db454f55b09d1db5f42f0871bbea3b0c699146ade171625\n      swap1\n      tag_334\n      swap1\n        /* \"DeadMansSwitch.sol\":12098:12113  block.timestamp */\n      timestamp\n        /* \"#utility.yul\":552:577   */\n      dup2\n      mstore\n        /* \"#utility.yul\":540:542   */\n      0x20\n        /* \"#utility.yul\":525:543   */\n      add\n      swap1\n        /* \"#utility.yul\":406:583   */\n      jump\n        /* \"DeadMansSwitch.sol\":12052:12114  DeadMansSwitchDisabled(msg.sender,msg.sender, block.timestamp) */\n    tag_334:\n      mload(0x40)\n      dup1\n      swap2\n      sub\n      swap1\n      log3\n        /* \"DeadMansSwitch.sol\":11787:12122  function disableSwitch() internal onlyBenefactor {... */\n      jump\t// out\n    tag_206:\n      dup3\n      dup1\n      sload\n      dup3\n      dup3\n      sstore\n      swap1\n      0x00\n      mstore\n      keccak256(0x00, 0x20)\n      swap1\n      dup2\n      add\n      swap3\n      dup3\n      iszero\n      tag_337\n      jumpi\n      swap2\n      0x20\n      mul\n      dup3\n      add\n    tag_336:\n      dup3\n      dup2\n      gt\n      iszero\n      tag_337\n      jumpi\n      dup3\n      mload\n      dup3\n      swap1\n      tag_338\n      swap1\n      dup3\n      tag_162\n      jump\t// in\n    tag_338:\n      pop\n      swap2\n      0x20\n      add\n      swap2\n      swap1\n      0x01\n      add\n      swap1\n      jump(tag_336)\n    tag_337:\n      pop\n      tag_339\n      swap3\n      swap2\n      pop\n      tag_340\n      jump\t// in\n    tag_339:\n      pop\n      swap1\n      jump\t// out\n    tag_218:\n      pop\n      dup1\n      sload\n      0x00\n      dup3\n      sstore\n      swap1\n      0x00\n      mstore\n      keccak256(0x00, 0x20)\n      swap1\n      dup2\n      add\n      swap1\n      tag_342\n      swap2\n      swap1\n      tag_340\n      jump\t// in\n    tag_342:\n      pop\n      jump\t// out\n    tag_220:\n      pop\n      dup1\n      sload\n      tag_343\n      swap1\n      tag_261\n      jump\t// in\n    tag_343:\n      0x00\n      dup3\n      sstore\n      dup1\n      0x1f\n      lt\n      tag_345\n      jumpi\n      pop\n      pop\n      jump\t// out\n    tag_345:\n      0x1f\n      add\n      0x20\n      swap1\n      div\n      swap1\n      0x00\n      mstore\n      keccak256(0x00, 0x20)\n      swap1\n      dup2\n      add\n      swap1\n      tag_342\n      swap2\n      swap1\n      tag_347\n      jump\t// in\n    tag_340:\n      dup1\n      dup3\n      gt\n      iszero\n      tag_339\n      jumpi\n      0x00\n      tag_350\n      dup3\n      dup3\n      tag_220\n      jump\t// in\n    tag_350:\n      pop\n      0x01\n      add\n      jump(tag_340)\n    tag_347:\n    tag_351:\n      dup1\n      dup3\n      gt\n      iszero\n      tag_339\n      jumpi\n      0x00\n      dup2\n      sstore\n      0x01\n      add\n      jump(tag_351)\n        /* \"#utility.yul\":14:210   */\n    tag_353:\n        /* \"#utility.yul\":82:102   */\n      dup1\n      calldataload\n      sub(shl(0xa0, 0x01), 0x01)\n        /* \"#utility.yul\":131:185   */\n      dup2\n      and\n        /* \"#utility.yul\":121:186   */\n      dup2\n      eq\n        /* \"#utility.yul\":111:204   */\n      tag_363\n      jumpi\n        /* \"#utility.yul\":200:201   */\n      0x00\n        /* \"#utility.yul\":197:198   */\n      dup1\n        /* \"#utility.yul\":190:202   */\n      revert\n        /* \"#utility.yul\":111:204   */\n    tag_363:\n        /* \"#utility.yul\":14:210   */\n      swap2\n      swap1\n      pop\n      jump\t// out\n        /* \"#utility.yul\":215:401   */\n    tag_32:\n        /* \"#utility.yul\":274:280   */\n      0x00\n        /* \"#utility.yul\":327:329   */\n      0x20\n        /* \"#utility.yul\":315:324   */\n      dup3\n        /* \"#utility.yul\":306:313   */\n      dup5\n        /* \"#utility.yul\":302:325   */\n      sub\n        /* \"#utility.yul\":298:330   */\n      slt\n        /* \"#utility.yul\":295:347   */\n      iszero\n      tag_365\n      jumpi\n        /* \"#utility.yul\":343:344   */\n      0x00\n        /* \"#utility.yul\":340:341   */\n      dup1\n        /* \"#utility.yul\":333:345   */\n      revert\n        /* \"#utility.yul\":295:347   */\n    tag_365:\n        /* \"#utility.yul\":366:395   */\n      tag_114\n        /* \"#utility.yul\":385:394   */\n      dup3\n        /* \"#utility.yul\":366:395   */\n      tag_353\n      jump\t// in\n        /* \"#utility.yul\":780:1040   */\n    tag_47:\n        /* \"#utility.yul\":848:854   */\n      0x00\n        /* \"#utility.yul\":856:862   */\n      dup1\n        /* \"#utility.yul\":909:911   */\n      0x40\n        /* \"#utility.yul\":897:906   */\n      dup4\n        /* \"#utility.yul\":888:895   */\n      dup6\n        /* \"#utility.yul\":884:907   */\n      sub\n        /* \"#utility.yul\":880:912   */\n      slt\n        /* \"#utility.yul\":877:929   */\n      iszero\n      tag_370\n      jumpi\n        /* \"#utility.yul\":925:926   */\n      0x00\n        /* \"#utility.yul\":922:923   */\n      dup1\n        /* \"#utility.yul\":915:927   */\n      revert\n        /* \"#utility.yul\":877:929   */\n    tag_370:\n        /* \"#utility.yul\":948:977   */\n      tag_371\n        /* \"#utility.yul\":967:976   */\n      dup4\n        /* \"#utility.yul\":948:977   */\n      tag_353\n      jump\t// in\n    tag_371:\n        /* \"#utility.yul\":938:977   */\n      swap2\n      pop\n        /* \"#utility.yul\":996:1034   */\n      tag_372\n        /* \"#utility.yul\":1030:1032   */\n      0x20\n        /* \"#utility.yul\":1019:1028   */\n      dup5\n        /* \"#utility.yul\":1015:1033   */\n      add\n        /* \"#utility.yul\":996:1034   */\n      tag_353\n      jump\t// in\n    tag_372:\n        /* \"#utility.yul\":986:1034   */\n      swap1\n      pop\n        /* \"#utility.yul\":780:1040   */\n      swap3\n      pop\n      swap3\n      swap1\n      pop\n      jump\t// out\n        /* \"#utility.yul\":1045:1879   */\n    tag_56:\n        /* \"#utility.yul\":1237:1241   */\n      0x00\n        /* \"#utility.yul\":1285:1287   */\n      0x60\n        /* \"#utility.yul\":1274:1283   */\n      dup3\n        /* \"#utility.yul\":1270:1288   */\n      add\n        /* \"#utility.yul\":1329:1335   */\n      dup6\n        /* \"#utility.yul\":1322:1336   */\n      iszero\n        /* \"#utility.yul\":1315:1337   */\n      iszero\n        /* \"#utility.yul\":1304:1313   */\n      dup4\n        /* \"#utility.yul\":1297:1338   */\n      mstore\n        /* \"#utility.yul\":1357:1359   */\n      0x20\n        /* \"#utility.yul\":1395:1397   */\n      0x60\n        /* \"#utility.yul\":1390:1392   */\n      dup2\n        /* \"#utility.yul\":1379:1388   */\n      dup6\n        /* \"#utility.yul\":1375:1393   */\n      add\n        /* \"#utility.yul\":1368:1398   */\n      mstore\n        /* \"#utility.yul\":1418:1424   */\n      dup2\n        /* \"#utility.yul\":1453:1459   */\n      dup7\n        /* \"#utility.yul\":1447:1460   */\n      mload\n        /* \"#utility.yul\":1484:1490   */\n      dup1\n        /* \"#utility.yul\":1476:1482   */\n      dup5\n        /* \"#utility.yul\":1469:1491   */\n      mstore\n        /* \"#utility.yul\":1522:1525   */\n      0x80\n        /* \"#utility.yul\":1511:1520   */\n      dup7\n        /* \"#utility.yul\":1507:1526   */\n      add\n        /* \"#utility.yul\":1500:1526   */\n      swap2\n      pop\n        /* \"#utility.yul\":1561:1563   */\n      dup3\n        /* \"#utility.yul\":1553:1559   */\n      dup9\n        /* \"#utility.yul\":1549:1564   */\n      add\n        /* \"#utility.yul\":1535:1564   */\n      swap4\n      pop\n        /* \"#utility.yul\":1582:1583   */\n      0x00\n        /* \"#utility.yul\":1592:1810   */\n    tag_374:\n        /* \"#utility.yul\":1606:1612   */\n      dup2\n        /* \"#utility.yul\":1603:1604   */\n      dup2\n        /* \"#utility.yul\":1600:1613   */\n      lt\n        /* \"#utility.yul\":1592:1810   */\n      iszero\n      tag_376\n      jumpi\n        /* \"#utility.yul\":1671:1684   */\n      dup5\n      mload\n      sub(shl(0xa0, 0x01), 0x01)\n        /* \"#utility.yul\":1667:1729   */\n      and\n        /* \"#utility.yul\":1655:1730   */\n      dup4\n      mstore\n        /* \"#utility.yul\":1785:1800   */\n      swap4\n      dup4\n      add\n      swap4\n        /* \"#utility.yul\":1750:1762   */\n      swap2\n      dup4\n      add\n      swap2\n        /* \"#utility.yul\":1628:1629   */\n      0x01\n        /* \"#utility.yul\":1621:1630   */\n      add\n        /* \"#utility.yul\":1592:1810   */\n      jump(tag_374)\n    tag_376:\n        /* \"#utility.yul\":1596:1599   */\n      pop\n      pop\n        /* \"#utility.yul\":1827:1830   */\n      dup1\n        /* \"#utility.yul\":1819:1830   */\n      swap4\n      pop\n      pop\n      pop\n      pop\n        /* \"#utility.yul\":1866:1872   */\n      dup3\n        /* \"#utility.yul\":1861:1863   */\n      0x40\n        /* \"#utility.yul\":1850:1859   */\n      dup4\n        /* \"#utility.yul\":1846:1864   */\n      add\n        /* \"#utility.yul\":1839:1873   */\n      mstore\n        /* \"#utility.yul\":1045:1879   */\n      swap5\n      swap4\n      pop\n      pop\n      pop\n      pop\n      jump\t// out\n        /* \"#utility.yul\":1884:2011   */\n    tag_134:\n        /* \"#utility.yul\":1945:1955   */\n      0x4e487b71\n        /* \"#utility.yul\":1940:1943   */\n      0xe0\n        /* \"#utility.yul\":1936:1956   */\n      shl\n        /* \"#utility.yul\":1933:1934   */\n      0x00\n        /* \"#utility.yul\":1926:1957   */\n      mstore\n        /* \"#utility.yul\":1976:1980   */\n      0x41\n        /* \"#utility.yul\":1973:1974   */\n      0x04\n        /* \"#utility.yul\":1966:1981   */\n      mstore\n        /* \"#utility.yul\":2000:2004   */\n      0x24\n        /* \"#utility.yul\":1997:1998   */\n      0x00\n        /* \"#utility.yul\":1990:2005   */\n      revert\n        /* \"#utility.yul\":2016:2735   */\n    tag_354:\n        /* \"#utility.yul\":2059:2064   */\n      0x00\n        /* \"#utility.yul\":2112:2115   */\n      dup3\n        /* \"#utility.yul\":2105:2109   */\n      0x1f\n        /* \"#utility.yul\":2097:2103   */\n      dup4\n        /* \"#utility.yul\":2093:2110   */\n      add\n        /* \"#utility.yul\":2089:2116   */\n      slt\n        /* \"#utility.yul\":2079:2134   */\n      tag_379\n      jumpi\n        /* \"#utility.yul\":2130:2131   */\n      0x00\n        /* \"#utility.yul\":2127:2128   */\n      dup1\n        /* \"#utility.yul\":2120:2132   */\n      revert\n        /* \"#utility.yul\":2079:2134   */\n    tag_379:\n        /* \"#utility.yul\":2166:2172   */\n      dup2\n        /* \"#utility.yul\":2153:2173   */\n      calldataload\n        /* \"#utility.yul\":2192:2210   */\n      0xffffffffffffffff\n        /* \"#utility.yul\":2229:2231   */\n      dup1\n        /* \"#utility.yul\":2225:2227   */\n      dup3\n        /* \"#utility.yul\":2222:2232   */\n      gt\n        /* \"#utility.yul\":2219:2255   */\n      iszero\n      tag_381\n      jumpi\n        /* \"#utility.yul\":2235:2253   */\n      tag_381\n      tag_134\n      jump\t// in\n    tag_381:\n        /* \"#utility.yul\":2310:2312   */\n      0x40\n        /* \"#utility.yul\":2304:2313   */\n      mload\n        /* \"#utility.yul\":2278:2280   */\n      0x1f\n        /* \"#utility.yul\":2364:2377   */\n      dup4\n      add\n      not(0x1f)\n        /* \"#utility.yul\":2360:2382   */\n      swap1\n      dup2\n      and\n        /* \"#utility.yul\":2384:2386   */\n      0x3f\n        /* \"#utility.yul\":2356:2387   */\n      add\n        /* \"#utility.yul\":2352:2392   */\n      and\n        /* \"#utility.yul\":2340:2393   */\n      dup2\n      add\n      swap1\n        /* \"#utility.yul\":2408:2426   */\n      dup3\n      dup3\n      gt\n        /* \"#utility.yul\":2428:2450   */\n      dup2\n      dup4\n      lt\n        /* \"#utility.yul\":2405:2451   */\n      or\n        /* \"#utility.yul\":2402:2474   */\n      iszero\n      tag_383\n      jumpi\n        /* \"#utility.yul\":2454:2472   */\n      tag_383\n      tag_134\n      jump\t// in\n    tag_383:\n        /* \"#utility.yul\":2494:2504   */\n      dup2\n        /* \"#utility.yul\":2490:2492   */\n      0x40\n        /* \"#utility.yul\":2483:2505   */\n      mstore\n        /* \"#utility.yul\":2529:2531   */\n      dup4\n        /* \"#utility.yul\":2521:2527   */\n      dup2\n        /* \"#utility.yul\":2514:2532   */\n      mstore\n        /* \"#utility.yul\":2575:2578   */\n      dup7\n        /* \"#utility.yul\":2568:2572   */\n      0x20\n        /* \"#utility.yul\":2563:2565   */\n      dup6\n        /* \"#utility.yul\":2555:2561   */\n      dup9\n        /* \"#utility.yul\":2551:2566   */\n      add\n        /* \"#utility.yul\":2547:2573   */\n      add\n        /* \"#utility.yul\":2544:2579   */\n      gt\n        /* \"#utility.yul\":2541:2596   */\n      iszero\n      tag_384\n      jumpi\n        /* \"#utility.yul\":2592:2593   */\n      0x00\n        /* \"#utility.yul\":2589:2590   */\n      dup1\n        /* \"#utility.yul\":2582:2594   */\n      revert\n        /* \"#utility.yul\":2541:2596   */\n    tag_384:\n        /* \"#utility.yul\":2656:2658   */\n      dup4\n        /* \"#utility.yul\":2649:2653   */\n      0x20\n        /* \"#utility.yul\":2641:2647   */\n      dup8\n        /* \"#utility.yul\":2637:2654   */\n      add\n        /* \"#utility.yul\":2630:2634   */\n      0x20\n        /* \"#utility.yul\":2622:2628   */\n      dup4\n        /* \"#utility.yul\":2618:2635   */\n      add\n        /* \"#utility.yul\":2605:2659   */\n      calldatacopy\n        /* \"#utility.yul\":2703:2704   */\n      0x00\n        /* \"#utility.yul\":2696:2700   */\n      0x20\n        /* \"#utility.yul\":2691:2693   */\n      dup6\n        /* \"#utility.yul\":2683:2689   */\n      dup4\n        /* \"#utility.yul\":2679:2694   */\n      add\n        /* \"#utility.yul\":2675:2701   */\n      add\n        /* \"#utility.yul\":2668:2705   */\n      mstore\n        /* \"#utility.yul\":2723:2729   */\n      dup1\n        /* \"#utility.yul\":2714:2729   */\n      swap5\n      pop\n      pop\n      pop\n      pop\n      pop\n        /* \"#utility.yul\":2016:2735   */\n      swap3\n      swap2\n      pop\n      pop\n      jump\t// out\n        /* \"#utility.yul\":2740:3210   */\n    tag_59:\n        /* \"#utility.yul\":2827:2833   */\n      0x00\n        /* \"#utility.yul\":2835:2841   */\n      dup1\n        /* \"#utility.yul\":2843:2849   */\n      0x00\n        /* \"#utility.yul\":2896:2898   */\n      0x60\n        /* \"#utility.yul\":2884:2893   */\n      dup5\n        /* \"#utility.yul\":2875:2882   */\n      dup7\n        /* \"#utility.yul\":2871:2894   */\n      sub\n        /* \"#utility.yul\":2867:2899   */\n      slt\n        /* \"#utility.yul\":2864:2916   */\n      iszero\n      tag_386\n      jumpi\n        /* \"#utility.yul\":2912:2913   */\n      0x00\n        /* \"#utility.yul\":2909:2910   */\n      dup1\n        /* \"#utility.yul\":2902:2914   */\n      revert\n        /* \"#utility.yul\":2864:2916   */\n    tag_386:\n        /* \"#utility.yul\":2935:2964   */\n      tag_387\n        /* \"#utility.yul\":2954:2963   */\n      dup5\n        /* \"#utility.yul\":2935:2964   */\n      tag_353\n      jump\t// in\n    tag_387:\n        /* \"#utility.yul\":2925:2964   */\n      swap3\n      pop\n        /* \"#utility.yul\":2983:3021   */\n      tag_388\n        /* \"#utility.yul\":3017:3019   */\n      0x20\n        /* \"#utility.yul\":3006:3015   */\n      dup6\n        /* \"#utility.yul\":3002:3020   */\n      add\n        /* \"#utility.yul\":2983:3021   */\n      tag_353\n      jump\t// in\n    tag_388:\n        /* \"#utility.yul\":2973:3021   */\n      swap2\n      pop\n        /* \"#utility.yul\":3072:3074   */\n      0x40\n        /* \"#utility.yul\":3061:3070   */\n      dup5\n        /* \"#utility.yul\":3057:3075   */\n      add\n        /* \"#utility.yul\":3044:3076   */\n      calldataload\n        /* \"#utility.yul\":3099:3117   */\n      0xffffffffffffffff\n        /* \"#utility.yul\":3091:3097   */\n      dup2\n        /* \"#utility.yul\":3088:3118   */\n      gt\n        /* \"#utility.yul\":3085:3135   */\n      iszero\n      tag_389\n      jumpi\n        /* \"#utility.yul\":3131:3132   */\n      0x00\n        /* \"#utility.yul\":3128:3129   */\n      dup1\n        /* \"#utility.yul\":3121:3133   */\n      revert\n        /* \"#utility.yul\":3085:3135   */\n    tag_389:\n        /* \"#utility.yul\":3154:3204   */\n      tag_390\n        /* \"#utility.yul\":3196:3203   */\n      dup7\n        /* \"#utility.yul\":3187:3193   */\n      dup3\n        /* \"#utility.yul\":3176:3185   */\n      dup8\n        /* \"#utility.yul\":3172:3194   */\n      add\n        /* \"#utility.yul\":3154:3204   */\n      tag_354\n      jump\t// in\n    tag_390:\n        /* \"#utility.yul\":3144:3204   */\n      swap2\n      pop\n      pop\n        /* \"#utility.yul\":2740:3210   */\n      swap3\n      pop\n      swap3\n      pop\n      swap3\n      jump\t// out\n        /* \"#utility.yul\":3468:3864   */\n    tag_67:\n        /* \"#utility.yul\":3546:3552   */\n      0x00\n        /* \"#utility.yul\":3554:3560   */\n      dup1\n        /* \"#utility.yul\":3607:3609   */\n      0x40\n        /* \"#utility.yul\":3595:3604   */\n      dup4\n        /* \"#utility.yul\":3586:3593   */\n      dup6\n        /* \"#utility.yul\":3582:3605   */\n      sub\n        /* \"#utility.yul\":3578:3610   */\n      slt\n        /* \"#utility.yul\":3575:3627   */\n      iszero\n      tag_393\n      jumpi\n        /* \"#utility.yul\":3623:3624   */\n      0x00\n        /* \"#utility.yul\":3620:3621   */\n      dup1\n        /* \"#utility.yul\":3613:3625   */\n      revert\n        /* \"#utility.yul\":3575:3627   */\n    tag_393:\n        /* \"#utility.yul\":3646:3675   */\n      tag_394\n        /* \"#utility.yul\":3665:3674   */\n      dup4\n        /* \"#utility.yul\":3646:3675   */\n      tag_353\n      jump\t// in\n    tag_394:\n        /* \"#utility.yul\":3636:3675   */\n      swap2\n      pop\n        /* \"#utility.yul\":3726:3728   */\n      0x20\n        /* \"#utility.yul\":3715:3724   */\n      dup4\n        /* \"#utility.yul\":3711:3729   */\n      add\n        /* \"#utility.yul\":3698:3730   */\n      calldataload\n        /* \"#utility.yul\":3753:3771   */\n      0xffffffffffffffff\n        /* \"#utility.yul\":3745:3751   */\n      dup2\n        /* \"#utility.yul\":3742:3772   */\n      gt\n        /* \"#utility.yul\":3739:3789   */\n      iszero\n      tag_395\n      jumpi\n        /* \"#utility.yul\":3785:3786   */\n      0x00\n        /* \"#utility.yul\":3782:3783   */\n      dup1\n        /* \"#utility.yul\":3775:3787   */\n      revert\n        /* \"#utility.yul\":3739:3789   */\n    tag_395:\n        /* \"#utility.yul\":3808:3858   */\n      tag_396\n        /* \"#utility.yul\":3850:3857   */\n      dup6\n        /* \"#utility.yul\":3841:3847   */\n      dup3\n        /* \"#utility.yul\":3830:3839   */\n      dup7\n        /* \"#utility.yul\":3826:3848   */\n      add\n        /* \"#utility.yul\":3808:3858   */\n      tag_354\n      jump\t// in\n    tag_396:\n        /* \"#utility.yul\":3798:3858   */\n      swap2\n      pop\n      pop\n        /* \"#utility.yul\":3468:3864   */\n      swap3\n      pop\n      swap3\n      swap1\n      pop\n      jump\t// out\n        /* \"#utility.yul\":3869:4119   */\n    tag_355:\n        /* \"#utility.yul\":3954:3955   */\n      0x00\n        /* \"#utility.yul\":3964:4077   */\n    tag_398:\n        /* \"#utility.yul\":3978:3984   */\n      dup4\n        /* \"#utility.yul\":3975:3976   */\n      dup2\n        /* \"#utility.yul\":3972:3985   */\n      lt\n        /* \"#utility.yul\":3964:4077   */\n      iszero\n      tag_400\n      jumpi\n        /* \"#utility.yul\":4054:4065   */\n      dup2\n      dup2\n      add\n        /* \"#utility.yul\":4048:4066   */\n      mload\n        /* \"#utility.yul\":4035:4046   */\n      dup4\n      dup3\n      add\n        /* \"#utility.yul\":4028:4067   */\n      mstore\n        /* \"#utility.yul\":4000:4002   */\n      0x20\n        /* \"#utility.yul\":3993:4003   */\n      add\n        /* \"#utility.yul\":3964:4077   */\n      jump(tag_398)\n    tag_400:\n      pop\n      pop\n        /* \"#utility.yul\":4111:4112   */\n      0x00\n        /* \"#utility.yul\":4093:4109   */\n      swap2\n      add\n        /* \"#utility.yul\":4086:4113   */\n      mstore\n        /* \"#utility.yul\":3869:4119   */\n      jump\t// out\n        /* \"#utility.yul\":4124:4395   */\n    tag_356:\n        /* \"#utility.yul\":4166:4169   */\n      0x00\n        /* \"#utility.yul\":4204:4209   */\n      dup2\n        /* \"#utility.yul\":4198:4210   */\n      mload\n        /* \"#utility.yul\":4231:4237   */\n      dup1\n        /* \"#utility.yul\":4226:4229   */\n      dup5\n        /* \"#utility.yul\":4219:4238   */\n      mstore\n        /* \"#utility.yul\":4247:4323   */\n      tag_402\n        /* \"#utility.yul\":4316:4322   */\n      dup2\n        /* \"#utility.yul\":4309:4313   */\n      0x20\n        /* \"#utility.yul\":4304:4307   */\n      dup7\n        /* \"#utility.yul\":4300:4314   */\n      add\n        /* \"#utility.yul\":4293:4297   */\n      0x20\n        /* \"#utility.yul\":4286:4291   */\n      dup7\n        /* \"#utility.yul\":4282:4298   */\n      add\n        /* \"#utility.yul\":4247:4323   */\n      tag_355\n      jump\t// in\n    tag_402:\n        /* \"#utility.yul\":4377:4379   */\n      0x1f\n        /* \"#utility.yul\":4356:4371   */\n      add\n      not(0x1f)\n        /* \"#utility.yul\":4352:4381   */\n      and\n        /* \"#utility.yul\":4343:4382   */\n      swap3\n      swap1\n      swap3\n      add\n        /* \"#utility.yul\":4384:4388   */\n      0x20\n        /* \"#utility.yul\":4339:4389   */\n      add\n      swap3\n        /* \"#utility.yul\":4124:4395   */\n      swap2\n      pop\n      pop\n      jump\t// out\n        /* \"#utility.yul\":4400:4620   */\n    tag_82:\n        /* \"#utility.yul\":4549:4551   */\n      0x20\n        /* \"#utility.yul\":4538:4547   */\n      dup2\n        /* \"#utility.yul\":4531:4552   */\n      mstore\n        /* \"#utility.yul\":4512:4516   */\n      0x00\n        /* \"#utility.yul\":4569:4614   */\n      tag_114\n        /* \"#utility.yul\":4610:4612   */\n      0x20\n        /* \"#utility.yul\":4599:4608   */\n      dup4\n        /* \"#utility.yul\":4595:4613   */\n      add\n        /* \"#utility.yul\":4587:4593   */\n      dup5\n        /* \"#utility.yul\":4569:4614   */\n      tag_356\n      jump\t// in\n        /* \"#utility.yul\":4625:4873   */\n    tag_91:\n        /* \"#utility.yul\":4693:4699   */\n      0x00\n        /* \"#utility.yul\":4701:4707   */\n      dup1\n        /* \"#utility.yul\":4754:4756   */\n      0x40\n        /* \"#utility.yul\":4742:4751   */\n      dup4\n        /* \"#utility.yul\":4733:4740   */\n      dup6\n        /* \"#utility.yul\":4729:4752   */\n      sub\n        /* \"#utility.yul\":4725:4757   */\n      slt\n        /* \"#utility.yul\":4722:4774   */\n      iszero\n      tag_406\n      jumpi\n        /* \"#utility.yul\":4770:4771   */\n      0x00\n        /* \"#utility.yul\":4767:4768   */\n      dup1\n        /* \"#utility.yul\":4760:4772   */\n      revert\n        /* \"#utility.yul\":4722:4774   */\n    tag_406:\n      pop\n      pop\n        /* \"#utility.yul\":4793:4816   */\n      dup1\n      calldataload\n      swap3\n        /* \"#utility.yul\":4863:4865   */\n      0x20\n        /* \"#utility.yul\":4848:4866   */\n      swap1\n      swap2\n      add\n        /* \"#utility.yul\":4835:4867   */\n      calldataload\n      swap2\n      pop\n        /* \"#utility.yul\":4625:4873   */\n      jump\t// out\n        /* \"#utility.yul\":4878:5681   */\n    tag_102:\n        /* \"#utility.yul\":5040:5044   */\n      0x00\n        /* \"#utility.yul\":5069:5071   */\n      0x20\n        /* \"#utility.yul\":5109:5111   */\n      dup1\n        /* \"#utility.yul\":5098:5107   */\n      dup4\n        /* \"#utility.yul\":5094:5112   */\n      add\n        /* \"#utility.yul\":5139:5141   */\n      dup2\n        /* \"#utility.yul\":5128:5137   */\n      dup5\n        /* \"#utility.yul\":5121:5142   */\n      mstore\n        /* \"#utility.yul\":5162:5168   */\n      dup1\n        /* \"#utility.yul\":5197:5203   */\n      dup6\n        /* \"#utility.yul\":5191:5204   */\n      mload\n        /* \"#utility.yul\":5228:5234   */\n      dup1\n        /* \"#utility.yul\":5220:5226   */\n      dup4\n        /* \"#utility.yul\":5213:5235   */\n      mstore\n        /* \"#utility.yul\":5266:5268   */\n      0x40\n        /* \"#utility.yul\":5255:5264   */\n      dup7\n        /* \"#utility.yul\":5251:5269   */\n      add\n        /* \"#utility.yul\":5244:5269   */\n      swap2\n      pop\n        /* \"#utility.yul\":5328:5330   */\n      0x40\n        /* \"#utility.yul\":5318:5324   */\n      dup2\n        /* \"#utility.yul\":5315:5316   */\n      0x05\n        /* \"#utility.yul\":5311:5325   */\n      shl\n        /* \"#utility.yul\":5300:5309   */\n      dup8\n        /* \"#utility.yul\":5296:5326   */\n      add\n        /* \"#utility.yul\":5292:5331   */\n      add\n        /* \"#utility.yul\":5278:5331   */\n      swap3\n      pop\n        /* \"#utility.yul\":5366:5368   */\n      dup4\n        /* \"#utility.yul\":5358:5364   */\n      dup8\n        /* \"#utility.yul\":5354:5369   */\n      add\n        /* \"#utility.yul\":5387:5388   */\n      0x00\n        /* \"#utility.yul\":5397:5652   */\n    tag_408:\n        /* \"#utility.yul\":5411:5417   */\n      dup3\n        /* \"#utility.yul\":5408:5409   */\n      dup2\n        /* \"#utility.yul\":5405:5418   */\n      lt\n        /* \"#utility.yul\":5397:5652   */\n      iszero\n      tag_410\n      jumpi\n        /* \"#utility.yul\":5504:5506   */\n      0x3f\n        /* \"#utility.yul\":5500:5507   */\n      not\n        /* \"#utility.yul\":5488:5497   */\n      dup9\n        /* \"#utility.yul\":5480:5486   */\n      dup7\n        /* \"#utility.yul\":5476:5498   */\n      sub\n        /* \"#utility.yul\":5472:5508   */\n      add\n        /* \"#utility.yul\":5467:5470   */\n      dup5\n        /* \"#utility.yul\":5460:5509   */\n      mstore\n        /* \"#utility.yul\":5532:5572   */\n      tag_411\n        /* \"#utility.yul\":5565:5571   */\n      dup6\n        /* \"#utility.yul\":5556:5562   */\n      dup4\n        /* \"#utility.yul\":5550:5563   */\n      mload\n        /* \"#utility.yul\":5532:5572   */\n      tag_356\n      jump\t// in\n    tag_411:\n        /* \"#utility.yul\":5522:5572   */\n      swap5\n      pop\n        /* \"#utility.yul\":5630:5642   */\n      swap3\n      dup6\n      add\n      swap3\n        /* \"#utility.yul\":5595:5610   */\n      swap1\n      dup6\n      add\n      swap1\n        /* \"#utility.yul\":5433:5434   */\n      0x01\n        /* \"#utility.yul\":5426:5435   */\n      add\n        /* \"#utility.yul\":5397:5652   */\n      jump(tag_408)\n    tag_410:\n      pop\n        /* \"#utility.yul\":5669:5675   */\n      swap3\n      swap8\n        /* \"#utility.yul\":4878:5681   */\n      swap7\n      pop\n      pop\n      pop\n      pop\n      pop\n      pop\n      pop\n      jump\t// out\n        /* \"#utility.yul\":5686:5813   */\n    tag_357:\n        /* \"#utility.yul\":5747:5757   */\n      0x4e487b71\n        /* \"#utility.yul\":5742:5745   */\n      0xe0\n        /* \"#utility.yul\":5738:5758   */\n      shl\n        /* \"#utility.yul\":5735:5736   */\n      0x00\n        /* \"#utility.yul\":5728:5759   */\n      mstore\n        /* \"#utility.yul\":5778:5782   */\n      0x11\n        /* \"#utility.yul\":5775:5776   */\n      0x04\n        /* \"#utility.yul\":5768:5783   */\n      mstore\n        /* \"#utility.yul\":5802:5806   */\n      0x24\n        /* \"#utility.yul\":5799:5800   */\n      0x00\n        /* \"#utility.yul\":5792:5807   */\n      revert\n        /* \"#utility.yul\":5818:5946   */\n    tag_109:\n        /* \"#utility.yul\":5885:5894   */\n      dup2\n      dup2\n      sub\n        /* \"#utility.yul\":5906:5917   */\n      dup2\n      dup2\n      gt\n        /* \"#utility.yul\":5903:5940   */\n      iszero\n      tag_125\n      jumpi\n        /* \"#utility.yul\":5920:5938   */\n      tag_125\n      tag_357\n      jump\t// in\n        /* \"#utility.yul\":6701:6828   */\n    tag_141:\n        /* \"#utility.yul\":6762:6772   */\n      0x4e487b71\n        /* \"#utility.yul\":6757:6760   */\n      0xe0\n        /* \"#utility.yul\":6753:6773   */\n      shl\n        /* \"#utility.yul\":6750:6751   */\n      0x00\n        /* \"#utility.yul\":6743:6774   */\n      mstore\n        /* \"#utility.yul\":6793:6797   */\n      0x32\n        /* \"#utility.yul\":6790:6791   */\n      0x04\n        /* \"#utility.yul\":6783:6798   */\n      mstore\n        /* \"#utility.yul\":6817:6821   */\n      0x24\n        /* \"#utility.yul\":6814:6815   */\n      0x00\n        /* \"#utility.yul\":6807:6822   */\n      revert\n        /* \"#utility.yul\":6833:6968   */\n    tag_150:\n        /* \"#utility.yul\":6872:6875   */\n      0x00\n        /* \"#utility.yul\":6893:6910   */\n      0x01\n      dup3\n      add\n        /* \"#utility.yul\":6890:6933   */\n      tag_421\n      jumpi\n        /* \"#utility.yul\":6913:6931   */\n      tag_421\n      tag_357\n      jump\t// in\n    tag_421:\n      pop\n        /* \"#utility.yul\":6960:6961   */\n      0x01\n        /* \"#utility.yul\":6949:6962   */\n      add\n      swap1\n        /* \"#utility.yul\":6833:6968   */\n      jump\t// out\n        /* \"#utility.yul\":7334:7714   */\n    tag_261:\n        /* \"#utility.yul\":7413:7414   */\n      0x01\n        /* \"#utility.yul\":7409:7421   */\n      dup2\n      dup2\n      shr\n      swap1\n        /* \"#utility.yul\":7456:7468   */\n      dup3\n      and\n      dup1\n        /* \"#utility.yul\":7477:7538   */\n      tag_424\n      jumpi\n        /* \"#utility.yul\":7531:7535   */\n      0x7f\n        /* \"#utility.yul\":7523:7529   */\n      dup3\n        /* \"#utility.yul\":7519:7536   */\n      and\n        /* \"#utility.yul\":7509:7536   */\n      swap2\n      pop\n        /* \"#utility.yul\":7477:7538   */\n    tag_424:\n        /* \"#utility.yul\":7584:7586   */\n      0x20\n        /* \"#utility.yul\":7576:7582   */\n      dup3\n        /* \"#utility.yul\":7573:7587   */\n      lt\n        /* \"#utility.yul\":7553:7571   */\n      dup2\n        /* \"#utility.yul\":7550:7588   */\n      sub\n        /* \"#utility.yul\":7547:7708   */\n      tag_425\n      jumpi\n        /* \"#utility.yul\":7630:7640   */\n      0x4e487b71\n        /* \"#utility.yul\":7625:7628   */\n      0xe0\n        /* \"#utility.yul\":7621:7641   */\n      shl\n        /* \"#utility.yul\":7618:7619   */\n      0x00\n        /* \"#utility.yul\":7611:7642   */\n      mstore\n        /* \"#utility.yul\":7665:7669   */\n      0x22\n        /* \"#utility.yul\":7662:7663   */\n      0x04\n        /* \"#utility.yul\":7655:7670   */\n      mstore\n        /* \"#utility.yul\":7693:7697   */\n      0x24\n        /* \"#utility.yul\":7690:7691   */\n      0x00\n        /* \"#utility.yul\":7683:7698   */\n      revert\n        /* \"#utility.yul\":7547:7708   */\n    tag_425:\n      pop\n        /* \"#utility.yul\":7334:7714   */\n      swap2\n      swap1\n      pop\n      jump\t// out\n        /* \"#utility.yul\":7845:8390   */\n    tag_359:\n        /* \"#utility.yul\":7947:7949   */\n      0x1f\n        /* \"#utility.yul\":7942:7945   */\n      dup3\n        /* \"#utility.yul\":7939:7950   */\n      gt\n        /* \"#utility.yul\":7936:8384   */\n      iszero\n      tag_428\n      jumpi\n        /* \"#utility.yul\":7983:7984   */\n      0x00\n        /* \"#utility.yul\":8008:8013   */\n      dup2\n        /* \"#utility.yul\":8004:8006   */\n      dup2\n        /* \"#utility.yul\":7997:8014   */\n      mstore\n        /* \"#utility.yul\":8053:8057   */\n      0x20\n        /* \"#utility.yul\":8049:8051   */\n      dup2\n        /* \"#utility.yul\":8039:8058   */\n      keccak256\n        /* \"#utility.yul\":8123:8125   */\n      0x1f\n        /* \"#utility.yul\":8111:8121   */\n      dup6\n        /* \"#utility.yul\":8107:8126   */\n      add\n        /* \"#utility.yul\":8104:8105   */\n      0x05\n        /* \"#utility.yul\":8100:8127   */\n      shr\n        /* \"#utility.yul\":8094:8098   */\n      dup2\n        /* \"#utility.yul\":8090:8128   */\n      add\n        /* \"#utility.yul\":8159:8163   */\n      0x20\n        /* \"#utility.yul\":8147:8157   */\n      dup7\n        /* \"#utility.yul\":8144:8164   */\n      lt\n        /* \"#utility.yul\":8141:8188   */\n      iszero\n      tag_429\n      jumpi\n      pop\n        /* \"#utility.yul\":8182:8186   */\n      dup1\n        /* \"#utility.yul\":8141:8188   */\n    tag_429:\n        /* \"#utility.yul\":8237:8239   */\n      0x1f\n        /* \"#utility.yul\":8232:8235   */\n      dup6\n        /* \"#utility.yul\":8228:8240   */\n      add\n        /* \"#utility.yul\":8225:8226   */\n      0x05\n        /* \"#utility.yul\":8221:8241   */\n      shr\n        /* \"#utility.yul\":8215:8219   */\n      dup3\n        /* \"#utility.yul\":8211:8242   */\n      add\n        /* \"#utility.yul\":8201:8242   */\n      swap2\n      pop\n        /* \"#utility.yul\":8292:8374   */\n    tag_430:\n        /* \"#utility.yul\":8310:8312   */\n      dup2\n        /* \"#utility.yul\":8303:8308   */\n      dup2\n        /* \"#utility.yul\":8300:8313   */\n      lt\n        /* \"#utility.yul\":8292:8374   */\n      iszero\n      tag_432\n      jumpi\n        /* \"#utility.yul\":8355:8372   */\n      dup3\n      dup2\n      sstore\n        /* \"#utility.yul\":8336:8337   */\n      0x01\n        /* \"#utility.yul\":8325:8338   */\n      add\n        /* \"#utility.yul\":8292:8374   */\n      jump(tag_430)\n    tag_432:\n        /* \"#utility.yul\":8296:8299   */\n      pop\n      pop\n      pop\n        /* \"#utility.yul\":7936:8384   */\n    tag_428:\n        /* \"#utility.yul\":7845:8390   */\n      pop\n      pop\n      pop\n      jump\t// out\n        /* \"#utility.yul\":8566:9918   */\n    tag_162:\n        /* \"#utility.yul\":8692:8695   */\n      dup2\n        /* \"#utility.yul\":8686:8696   */\n      mload\n        /* \"#utility.yul\":8719:8737   */\n      0xffffffffffffffff\n        /* \"#utility.yul\":8711:8717   */\n      dup2\n        /* \"#utility.yul\":8708:8738   */\n      gt\n        /* \"#utility.yul\":8705:8761   */\n      iszero\n      tag_436\n      jumpi\n        /* \"#utility.yul\":8741:8759   */\n      tag_436\n      tag_134\n      jump\t// in\n    tag_436:\n        /* \"#utility.yul\":8770:8867   */\n      tag_437\n        /* \"#utility.yul\":8860:8866   */\n      dup2\n        /* \"#utility.yul\":8820:8858   */\n      tag_438\n        /* \"#utility.yul\":8852:8856   */\n      dup5\n        /* \"#utility.yul\":8846:8857   */\n      sload\n        /* \"#utility.yul\":8820:8858   */\n      tag_261\n      jump\t// in\n    tag_438:\n        /* \"#utility.yul\":8814:8818   */\n      dup5\n        /* \"#utility.yul\":8770:8867   */\n      tag_359\n      jump\t// in\n    tag_437:\n        /* \"#utility.yul\":8922:8926   */\n      0x20\n      dup1\n        /* \"#utility.yul\":8986:8988   */\n      0x1f\n        /* \"#utility.yul\":8975:8989   */\n      dup4\n      gt\n        /* \"#utility.yul\":9003:9004   */\n      0x01\n        /* \"#utility.yul\":8998:9661   */\n      dup2\n      eq\n      tag_440\n      jumpi\n        /* \"#utility.yul\":9705:9706   */\n      0x00\n        /* \"#utility.yul\":9722:9728   */\n      dup5\n        /* \"#utility.yul\":9719:9808   */\n      iszero\n      tag_441\n      jumpi\n      pop\n        /* \"#utility.yul\":9774:9793   */\n      dup6\n      dup4\n      add\n        /* \"#utility.yul\":9768:9794   */\n      mload\n        /* \"#utility.yul\":9719:9808   */\n    tag_441:\n      not(0x00)\n        /* \"#utility.yul\":8523:8524   */\n      0x03\n        /* \"#utility.yul\":8519:8530   */\n      dup7\n      swap1\n      shl\n        /* \"#utility.yul\":8515:8539   */\n      shr\n        /* \"#utility.yul\":8511:8540   */\n      not\n        /* \"#utility.yul\":8501:8541   */\n      and\n        /* \"#utility.yul\":8547:8548   */\n      0x01\n        /* \"#utility.yul\":8543:8554   */\n      dup6\n      swap1\n      shl\n        /* \"#utility.yul\":8498:8555   */\n      or\n        /* \"#utility.yul\":9821:9902   */\n      dup6\n      sstore\n        /* \"#utility.yul\":8968:9912   */\n      jump(tag_432)\n        /* \"#utility.yul\":8998:9661   */\n    tag_440:\n        /* \"#utility.yul\":7792:7793   */\n      0x00\n        /* \"#utility.yul\":7785:7799   */\n      dup6\n      dup2\n      mstore\n        /* \"#utility.yul\":7829:7833   */\n      0x20\n        /* \"#utility.yul\":7816:7834   */\n      dup2\n      keccak256\n      not(0x1f)\n        /* \"#utility.yul\":9034:9054   */\n      dup7\n      and\n      swap2\n        /* \"#utility.yul\":9152:9388   */\n    tag_444:\n        /* \"#utility.yul\":9166:9173   */\n      dup3\n        /* \"#utility.yul\":9163:9164   */\n      dup2\n        /* \"#utility.yul\":9160:9174   */\n      lt\n        /* \"#utility.yul\":9152:9388   */\n      iszero\n      tag_446\n      jumpi\n        /* \"#utility.yul\":9255:9274   */\n      dup9\n      dup7\n      add\n        /* \"#utility.yul\":9249:9275   */\n      mload\n        /* \"#utility.yul\":9234:9276   */\n      dup3\n      sstore\n        /* \"#utility.yul\":9347:9374   */\n      swap5\n      dup5\n      add\n      swap5\n        /* \"#utility.yul\":9315:9316   */\n      0x01\n        /* \"#utility.yul\":9303:9317   */\n      swap1\n      swap2\n      add\n      swap1\n        /* \"#utility.yul\":9182:9201   */\n      dup5\n      add\n        /* \"#utility.yul\":9152:9388   */\n      jump(tag_444)\n    tag_446:\n        /* \"#utility.yul\":9156:9159   */\n      pop\n        /* \"#utility.yul\":9416:9422   */\n      dup6\n        /* \"#utility.yul\":9407:9414   */\n      dup3\n        /* \"#utility.yul\":9404:9423   */\n      lt\n        /* \"#utility.yul\":9401:9602   */\n      iszero\n      tag_447\n      jumpi\n        /* \"#utility.yul\":9477:9496   */\n      dup8\n      dup6\n      add\n        /* \"#utility.yul\":9471:9497   */\n      mload\n      not(0x00)\n        /* \"#utility.yul\":9560:9561   */\n      0x03\n        /* \"#utility.yul\":9556:9570   */\n      dup9\n      swap1\n      shl\n        /* \"#utility.yul\":9572:9575   */\n      0xf8\n        /* \"#utility.yul\":9552:9576   */\n      and\n        /* \"#utility.yul\":9548:9585   */\n      shr\n        /* \"#utility.yul\":9544:9586   */\n      not\n        /* \"#utility.yul\":9529:9587   */\n      and\n        /* \"#utility.yul\":9514:9588   */\n      dup2\n      sstore\n        /* \"#utility.yul\":9401:9602   */\n    tag_447:\n      pop\n      pop\n      pop\n      pop\n      pop\n        /* \"#utility.yul\":9648:9649   */\n      0x01\n        /* \"#utility.yul\":9632:9646   */\n      swap1\n      dup2\n      shl\n        /* \"#utility.yul\":9628:9650   */\n      add\n        /* \"#utility.yul\":9615:9651   */\n      swap1\n      sstore\n      pop\n        /* \"#utility.yul\":8566:9918   */\n      jump\t// out\n        /* \"#utility.yul\":10624:10913   */\n    tag_179:\n        /* \"#utility.yul\":10755:10758   */\n      0x00\n        /* \"#utility.yul\":10793:10799   */\n      dup3\n        /* \"#utility.yul\":10787:10800   */\n      mload\n        /* \"#utility.yul\":10809:10875   */\n      tag_451\n        /* \"#utility.yul\":10868:10874   */\n      dup2\n        /* \"#utility.yul\":10863:10866   */\n      dup5\n        /* \"#utility.yul\":10856:10860   */\n      0x20\n        /* \"#utility.yul\":10848:10854   */\n      dup8\n        /* \"#utility.yul\":10844:10861   */\n      add\n        /* \"#utility.yul\":10809:10875   */\n      tag_355\n      jump\t// in\n    tag_451:\n        /* \"#utility.yul\":10891:10907   */\n      swap2\n      swap1\n      swap2\n      add\n      swap3\n        /* \"#utility.yul\":10624:10913   */\n      swap2\n      pop\n      pop\n      jump\t// out\n        /* \"#utility.yul\":10918:11760   */\n    tag_184:\n        /* \"#utility.yul\":11046:11049   */\n      0x00\n        /* \"#utility.yul\":11075:11076   */\n      dup1\n        /* \"#utility.yul\":11108:11114   */\n      dup4\n        /* \"#utility.yul\":11102:11115   */\n      sload\n        /* \"#utility.yul\":11138:11174   */\n      tag_453\n        /* \"#utility.yul\":11164:11173   */\n      dup2\n        /* \"#utility.yul\":11138:11174   */\n      tag_261\n      jump\t// in\n    tag_453:\n        /* \"#utility.yul\":11193:11194   */\n      0x01\n        /* \"#utility.yul\":11210:11228   */\n      dup3\n      dup2\n      and\n        /* \"#utility.yul\":11237:11370   */\n      dup1\n      iszero\n      tag_455\n      jumpi\n        /* \"#utility.yul\":11384:11385   */\n      0x01\n        /* \"#utility.yul\":11379:11735   */\n      dup2\n      eq\n      tag_456\n      jumpi\n        /* \"#utility.yul\":11203:11735   */\n      jump(tag_454)\n        /* \"#utility.yul\":11237:11370   */\n    tag_455:\n      not(0xff)\n        /* \"#utility.yul\":11270:11294   */\n      dup5\n      and\n        /* \"#utility.yul\":11258:11295   */\n      dup8\n      mstore\n        /* \"#utility.yul\":11343:11357   */\n      dup3\n      iszero\n        /* \"#utility.yul\":11336:11358   */\n      iszero\n        /* \"#utility.yul\":11324:11359   */\n      dup4\n      mul\n        /* \"#utility.yul\":11315:11360   */\n      dup8\n      add\n      swap5\n      pop\n        /* \"#utility.yul\":11237:11370   */\n      jump(tag_454)\n        /* \"#utility.yul\":11379:11735   */\n    tag_456:\n        /* \"#utility.yul\":11410:11416   */\n      dup8\n        /* \"#utility.yul\":11407:11408   */\n      0x00\n        /* \"#utility.yul\":11400:11417   */\n      mstore\n        /* \"#utility.yul\":11440:11444   */\n      0x20\n        /* \"#utility.yul\":11485:11487   */\n      dup1\n        /* \"#utility.yul\":11482:11483   */\n      0x00\n        /* \"#utility.yul\":11472:11488   */\n      keccak256\n        /* \"#utility.yul\":11510:11511   */\n      0x00\n        /* \"#utility.yul\":11524:11689   */\n    tag_457:\n        /* \"#utility.yul\":11538:11544   */\n      dup6\n        /* \"#utility.yul\":11535:11536   */\n      dup2\n        /* \"#utility.yul\":11532:11545   */\n      lt\n        /* \"#utility.yul\":11524:11689   */\n      iszero\n      tag_459\n      jumpi\n        /* \"#utility.yul\":11616:11630   */\n      dup2\n      sload\n        /* \"#utility.yul\":11603:11614   */\n      dup11\n      dup3\n      add\n        /* \"#utility.yul\":11596:11631   */\n      mstore\n        /* \"#utility.yul\":11659:11675   */\n      swap1\n      dup5\n      add\n      swap1\n        /* \"#utility.yul\":11553:11563   */\n      dup3\n      add\n        /* \"#utility.yul\":11524:11689   */\n      jump(tag_457)\n    tag_459:\n        /* \"#utility.yul\":11528:11531   */\n      pop\n      pop\n      pop\n        /* \"#utility.yul\":11718:11724   */\n      dup3\n        /* \"#utility.yul\":11713:11716   */\n      dup8\n        /* \"#utility.yul\":11709:11725   */\n      add\n        /* \"#utility.yul\":11702:11725   */\n      swap5\n      pop\n        /* \"#utility.yul\":11203:11735   */\n    tag_454:\n      pop\n        /* \"#utility.yul\":11751:11754   */\n      swap3\n      swap7\n        /* \"#utility.yul\":10918:11760   */\n      swap6\n      pop\n      pop\n      pop\n      pop\n      pop\n      pop\n      jump\t// out\n        /* \"#utility.yul\":12529:13964   */\n    tag_247:\n        /* \"#utility.yul\":12648:12651   */\n      dup2\n        /* \"#utility.yul\":12642:12646   */\n      dup2\n        /* \"#utility.yul\":12639:12652   */\n      sub\n        /* \"#utility.yul\":12636:12662   */\n      tag_463\n      jumpi\n        /* \"#utility.yul\":12655:12660   */\n      pop\n      pop\n        /* \"#utility.yul\":12529:13964   */\n      jump\t// out\n        /* \"#utility.yul\":12636:12662   */\n    tag_463:\n        /* \"#utility.yul\":12685:12722   */\n      tag_464\n        /* \"#utility.yul\":12717:12720   */\n      dup3\n        /* \"#utility.yul\":12711:12721   */\n      sload\n        /* \"#utility.yul\":12685:12722   */\n      tag_261\n      jump\t// in\n    tag_464:\n        /* \"#utility.yul\":12745:12763   */\n      0xffffffffffffffff\n        /* \"#utility.yul\":12737:12743   */\n      dup2\n        /* \"#utility.yul\":12734:12764   */\n      gt\n        /* \"#utility.yul\":12731:12787   */\n      iszero\n      tag_466\n      jumpi\n        /* \"#utility.yul\":12767:12785   */\n      tag_466\n      tag_134\n      jump\t// in\n    tag_466:\n        /* \"#utility.yul\":12796:12893   */\n      tag_467\n        /* \"#utility.yul\":12886:12892   */\n      dup2\n        /* \"#utility.yul\":12846:12884   */\n      tag_438\n        /* \"#utility.yul\":12878:12882   */\n      dup5\n        /* \"#utility.yul\":12872:12883   */\n      sload\n        /* \"#utility.yul\":12846:12884   */\n      tag_261\n      jump\t// in\n        /* \"#utility.yul\":12796:12893   */\n    tag_467:\n        /* \"#utility.yul\":12919:12920   */\n      0x00\n        /* \"#utility.yul\":12947:12949   */\n      0x1f\n        /* \"#utility.yul\":12939:12945   */\n      dup3\n        /* \"#utility.yul\":12936:12950   */\n      gt\n        /* \"#utility.yul\":12964:12965   */\n      0x01\n        /* \"#utility.yul\":12959:13707   */\n      dup2\n      eq\n      tag_470\n      jumpi\n        /* \"#utility.yul\":13751:13752   */\n      0x00\n        /* \"#utility.yul\":13768:13774   */\n      dup4\n        /* \"#utility.yul\":13765:13854   */\n      iszero\n      tag_471\n      jumpi\n      pop\n        /* \"#utility.yul\":13820:13839   */\n      dup5\n      dup3\n      add\n        /* \"#utility.yul\":13814:13840   */\n      sload\n        /* \"#utility.yul\":13765:13854   */\n    tag_471:\n      not(0x00)\n        /* \"#utility.yul\":8523:8524   */\n      0x03\n        /* \"#utility.yul\":8519:8530   */\n      dup6\n      swap1\n      shl\n        /* \"#utility.yul\":8515:8539   */\n      shr\n        /* \"#utility.yul\":8511:8540   */\n      not\n        /* \"#utility.yul\":8501:8541   */\n      and\n        /* \"#utility.yul\":8547:8548   */\n      0x01\n        /* \"#utility.yul\":8543:8554   */\n      dup5\n      swap1\n      shl\n        /* \"#utility.yul\":8498:8555   */\n      or\n        /* \"#utility.yul\":13867:13948   */\n      dup5\n      sstore\n        /* \"#utility.yul\":12929:13958   */\n      jump(tag_469)\n        /* \"#utility.yul\":12959:13707   */\n    tag_470:\n        /* \"#utility.yul\":7792:7793   */\n      0x00\n        /* \"#utility.yul\":7785:7799   */\n      dup6\n      dup2\n      mstore\n        /* \"#utility.yul\":7829:7833   */\n      0x20\n        /* \"#utility.yul\":7816:7834   */\n      swap1\n      keccak256\n      not(0x1f)\n        /* \"#utility.yul\":12995:13015   */\n      dup5\n      and\n      swap1\n        /* \"#utility.yul\":7792:7793   */\n      0x00\n        /* \"#utility.yul\":7785:7799   */\n      dup7\n      dup2\n      mstore\n        /* \"#utility.yul\":7829:7833   */\n      0x20\n        /* \"#utility.yul\":7816:7834   */\n      swap1\n      keccak256\n        /* \"#utility.yul\":13159:13168   */\n      dup5\n        /* \"#utility.yul\":13181:13432   */\n    tag_475:\n        /* \"#utility.yul\":13195:13202   */\n      dup4\n        /* \"#utility.yul\":13192:13193   */\n      dup2\n        /* \"#utility.yul\":13189:13203   */\n      lt\n        /* \"#utility.yul\":13181:13432   */\n      iszero\n      tag_477\n      jumpi\n        /* \"#utility.yul\":13277:13298   */\n      dup3\n      dup7\n      add\n        /* \"#utility.yul\":13271:13299   */\n      sload\n        /* \"#utility.yul\":13256:13300   */\n      dup3\n      sstore\n        /* \"#utility.yul\":13327:13328   */\n      0x01\n        /* \"#utility.yul\":13400:13418   */\n      swap6\n      dup7\n      add\n      swap6\n        /* \"#utility.yul\":13355:13370   */\n      swap1\n      swap2\n      add\n      swap1\n        /* \"#utility.yul\":13218:13222   */\n      0x20\n        /* \"#utility.yul\":13211:13223   */\n      add\n        /* \"#utility.yul\":13181:13432   */\n      jump(tag_475)\n    tag_477:\n        /* \"#utility.yul\":13185:13188   */\n      pop\n        /* \"#utility.yul\":13460:13466   */\n      dup6\n        /* \"#utility.yul\":13451:13458   */\n      dup4\n        /* \"#utility.yul\":13448:13467   */\n      lt\n        /* \"#utility.yul\":13445:13648   */\n      iszero\n      tag_478\n      jumpi\n        /* \"#utility.yul\":13521:13542   */\n      dup2\n      dup6\n      add\n        /* \"#utility.yul\":13515:13543   */\n      sload\n      not(0x00)\n        /* \"#utility.yul\":13606:13607   */\n      0x03\n        /* \"#utility.yul\":13602:13616   */\n      dup9\n      swap1\n      shl\n        /* \"#utility.yul\":13618:13621   */\n      0xf8\n        /* \"#utility.yul\":13598:13622   */\n      and\n        /* \"#utility.yul\":13594:13631   */\n      shr\n        /* \"#utility.yul\":13590:13632   */\n      not\n        /* \"#utility.yul\":13575:13633   */\n      and\n        /* \"#utility.yul\":13560:13634   */\n      dup2\n      sstore\n        /* \"#utility.yul\":13445:13648   */\n    tag_478:\n      pop\n      pop\n      pop\n        /* \"#utility.yul\":13694:13695   */\n      0x01\n        /* \"#utility.yul\":13685:13691   */\n      dup4\n        /* \"#utility.yul\":13682:13683   */\n      0x01\n        /* \"#utility.yul\":13678:13692   */\n      shl\n        /* \"#utility.yul\":13674:13696   */\n      add\n        /* \"#utility.yul\":13668:13672   */\n      dup5\n        /* \"#utility.yul\":13661:13697   */\n      sstore\n        /* \"#utility.yul\":12929:13958   */\n    tag_469:\n      pop\n      pop\n      pop\n        /* \"#utility.yul\":12529:13964   */\n      pop\n      pop\n      jump\t// out\n        /* \"#utility.yul\":13969:14096   */\n    tag_250:\n        /* \"#utility.yul\":14030:14040   */\n      0x4e487b71\n        /* \"#utility.yul\":14025:14028   */\n      0xe0\n        /* \"#utility.yul\":14021:14041   */\n      shl\n        /* \"#utility.yul\":14018:14019   */\n      0x00\n        /* \"#utility.yul\":14011:14042   */\n      mstore\n        /* \"#utility.yul\":14061:14065   */\n      0x31\n        /* \"#utility.yul\":14058:14059   */\n      0x04\n        /* \"#utility.yul\":14051:14066   */\n      mstore\n        /* \"#utility.yul\":14085:14089   */\n      0x24\n        /* \"#utility.yul\":14082:14083   */\n      0x00\n        /* \"#utility.yul\":14075:14090   */\n      revert\n\n    auxdata: 0xa26469706673582212205cc5dd62e797dd73533c71035429680c80100b3f48eaea2e561ca5189f569ae464736f6c63430008110033\n}\n",
    "bytecode": {
      "linkReferences": {},
      "object": "608060405260008055600060015534801561001957600080fd5b5061218f806100296000396000f3fe608060405234801561001057600080fd5b506004361061016c5760003560e01c806359633a1c116100cd578063ccb53a0911610081578063d51c319911610066578063d51c319914610328578063df78bc541461033b578063f892cb361461035b57600080fd5b8063ccb53a0914610307578063cd9c93621461032057600080fd5b806387ce1ca8116100b257806387ce1ca8146102c15780638d5492e4146102e1578063a98d22bc146102f457600080fd5b806359633a1c1461029b57806387c63714146102ae57600080fd5b806338266b221161012457806346437d3a1161010957806346437d3a1461025a5780635211287e146102755780635926651d1461028857600080fd5b806338266b22146102255780633dea2f841461024757600080fd5b806307a8b7671161015557806307a8b767146101ba578063096e27d9146101cd578063196ba7ef146101e057600080fd5b806301e2b33f14610171578063072039a214610197575b600080fd5b61018461017f366004611b4f565b61036e565b6040519081526020015b60405180910390f35b6101aa6101a5366004611b4f565b61045c565b604051901515815260200161018e565b6101aa6101c8366004611b4f565b6104f0565b6101aa6101db366004611b6a565b610580565b6102233360009081526002602081905260408220805460ff1916600117815562093a809181019190915560048101805461010161ffff1990911617905560030155565b005b610238610233366004611b4f565b6105b4565b60405161018e93929190611b9d565b610223610255366004611ca2565b610819565b6000546001546040805192835260208301919091520161018e565b610223610283366004611d00565b6108f6565b610223610296366004611b4f565b610b66565b6102236102a9366004611b4f565b610d4a565b6102236102bc366004611d00565b610ea8565b6102d46102cf366004611b6a565b61114c565b60405161018e9190611d9e565b6102236102ef366004611b4f565b61122e565b610223610302366004611b4f565b61136e565b610223610315366004611db1565b600091909155600155565b610223611419565b610223610336366004611ca2565b611627565b61034e610349366004611b6a565b6116f7565b60405161018e9190611dd3565b6102d4610369366004611b6a565b6118e8565b6001600160a01b03811660009081526002602052604081206003015481906103969042611e4b565b6001600160a01b03841660008181526002602081815260409283902091820154600390920154835192835290820185905242828401526060820152905192935090917f74a7c0c2e8065fcdbfca5ae9f6cf0233e47e9e75b6fcf75674dd4b7e3f9b81839181900360800190a26001600160a01b038316600090815260026020819052604090912001548111610452576001600160a01b0383166000908152600260208190526040909120015461044d908290611e4b565b610455565b60005b9392505050565b6000610467826104f0565b156104c9576001600160a01b038216600090815260026020526040902060030154156104c95760006104988361036e565b9050600081116104c7576001600160a01b0383166000908152600260205260409020600401805461ff00191690555b505b506001600160a01b0316600090815260026020526040902060040154610100900460ff1690565b6001600160a01b03811660009081526002602052604081205460ff1661055d5760405162461bcd60e51b815260206004820152601960248201527f42656e65666163746f7220646f6573206e6f742065786973740000000000000060448201526064015b60405180910390fd5b506001600160a01b031660009081526002602052604090206004015460ff161590565b6001600160a01b038083166000908152600260209081526040808320938516835260019093019052205460ff165b92915050565b6001600160a01b038116600090815260026020526040812054606090829060ff166106215760405162461bcd60e51b815260206004820152601960248201527f42656e65666163746f7220646f6573206e6f74206578697374000000000000006044820152606401610554565b6001600160a01b03841660009081526002602090815260408083206004015460039092529091205460ff90911615935067ffffffffffffffff81111561066957610669611bff565b604051908082528060200260200182016040528015610692578160200160208202803683370190505b5091506000805b835181101561079c576001600160a01b038616600090815260026020908152604080832060039092528220805460019092019291849081106106dd576106dd611e5e565b60009182526020808320909101546001600160a01b0316835282019290925260400190205460ff161561078a576001600160a01b038616600090815260036020526040902080548290811061073457610734611e5e565b9060005260206000200160009054906101000a90046001600160a01b031684838151811061076457610764611e5e565b6001600160a01b03909216602092830291909101909101528161078681611e74565b9250505b8061079481611e74565b915050610699565b506001600160a01b03851660009081526002602052604090206004015460ff16156107ca57600091506107d6565b6107d38561036e565b91505b7f0dd263db0c9fa976850dae07ea6a26e6781d52ed1a3dbf2da9335431c5664c2084848460405161080993929190611b9d565b60405180910390a1509193909250565b6108238383610580565b61086f5760405162461bcd60e51b815260206004820181905260248201527f42656e65666963696172792f42656e65666163746f72206e6f7420666f756e646044820152606401610554565b6001600160a01b038084166000908152600260209081526040808320938616835260019093019052206003016108a58282611f16565b50816001600160a01b0316836001600160a01b03167f69ccea10852ac51b01745414774b5af302217e774786d2068296650b57ba03f2836040516108e99190611d9e565b60405180910390a3505050565b3360009081526002602052604090205460ff16801561092c575033600090815260026020526040902060040154610100900460ff165b6109715760405162461bcd60e51b81526020600482015260166024820152752737ba1030903b30b634b2103132b732b330b1ba37b960511b6044820152606401610554565b61097b3383610580565b6109bf5760405162461bcd60e51b815260206004820152601560248201527410995b99599a58da585c9e481b9bdd08199bdd5b99605a1b6044820152606401610554565b3360009081526002602090815260408083206001600160a01b03861684526001908101909252822001905b8154811015610ae15782604051602001610a049190611fd6565b60405160208183030381529060405280519060200120828281548110610a2c57610a2c611e5e565b90600052602060002001604051602001610a469190611ff2565b6040516020818303038152906040528051906020012003610acf5760405162461bcd60e51b815260206004820152602860248201527f43494420616c72656164792061737369676e656420746f20746869732062656e60448201527f65666963696172790000000000000000000000000000000000000000000000006064820152608401610554565b80610ad981611e74565b9150506109ea565b503360009081526002602090815260408083206001600160a01b0387168452600190810183529083208101805491820181558352912001610b228382611f16565b50826001600160a01b0316336001600160a01b03167fa1bb52b874769d5c17cde30e708e8f7180bb949f70e77caf0da68d25f9a1a510846040516108e99190611d9e565b3360009081526002602052604090205460ff168015610b9c575033600090815260026020526040902060040154610100900460ff165b610be15760405162461bcd60e51b81526020600482015260166024820152752737ba1030903b30b634b2103132b732b330b1ba37b960511b6044820152606401610554565b610beb3382610580565b15610c385760405162461bcd60e51b815260206004820152601a60248201527f42656e656669636961727920616c7265616479206578697374730000000000006044820152606401610554565b60408051608081018252600181528151600080825260208281019094529192830191610c74565b6060815260200190600190039081610c5f5790505b50815260408051602080820183526000808352818501929092528251808201845282815293830193909352338152600283528181206001600160a01b0386168252600190810184529190208351815460ff19169015151781558383015180519193610ce493850192910190611a50565b5060408201516002820190610cf99082611f16565b5060608201516003820190610d0e9082611f16565b50506040516001600160a01b038316915033907fbb39c36a7502b7256e1a687254146a9a2ea7b146c77cb9e40eb0e2b8793781e190600090a350565b3360009081526002602052604090205460ff168015610d80575033600090815260026020526040902060040154610100900460ff165b610dc55760405162461bcd60e51b81526020600482015260166024820152752737ba1030903b30b634b2103132b732b330b1ba37b960511b6044820152606401610554565b610dcf3382610580565b610e135760405162461bcd60e51b815260206004820152601560248201527410995b99599a58da585c9e481b9bdd08199bdd5b99605a1b6044820152606401610554565b3360009081526002602090815260408083206001600160a01b038516845260019081019092528220805460ff191681559190610e5190830182611aa6565b610e5f600283016000611ac7565b610e6d600383016000611ac7565b50506040516001600160a01b0382169033907f1a6590bd0cabbfcc7c86bef99e1034054e179905cfcc294598fcd426c092244290600090a350565b3360009081526002602052604090205460ff168015610ede575033600090815260026020526040902060040154610100900460ff165b610f235760405162461bcd60e51b81526020600482015260166024820152752737ba1030903b30b634b2103132b732b330b1ba37b960511b6044820152606401610554565b610f2d3383610580565b610f715760405162461bcd60e51b815260206004820152601560248201527410995b99599a58da585c9e481b9bdd08199bdd5b99605a1b6044820152606401610554565b3360009081526002602090815260408083206001600160a01b03861684526001908101909252822001905b81548110156110f75782604051602001610fb69190611fd6565b60405160208183030381529060405280519060200120828281548110610fde57610fde611e5e565b90600052602060002001604051602001610ff89190611ff2565b60405160208183030381529060405280519060200120036110e5578154829061102390600190611e4b565b8154811061103357611033611e5e565b9060005260206000200182828154811061104f5761104f611e5e565b9060005260206000200190816110659190612068565b508180548061107657611076612143565b6001900381819060005260206000200160006110929190611ac7565b9055836001600160a01b0316336001600160a01b03167f4c13211ce3b2d0cb3e02a662cc071d6be555042ca58d4d812b7b90e80d3250ac856040516110d79190611d9e565b60405180910390a350505050565b806110ef81611e74565b915050610f9c565b5060405162461bcd60e51b8152602060048201526024808201527f434944206e6f742061737369676e656420746f20746869732062656e656669636044820152636961727960e01b6064820152608401610554565b60606111588383610580565b15611219576001600160a01b03808416600090815260026020818152604080842094871684526001909401905291902001805461119490611e8d565b80601f01602080910402602001604051908101604052809291908181526020018280546111c090611e8d565b801561120d5780601f106111e25761010080835404028352916020019161120d565b820191906000526020600020905b8154815290600101906020018083116111f057829003601f168201915b505050505090506105ae565b506040805160208101909152600081526105ae565b6001600160a01b038116600090815260026020908152604080832033845260010190915290205460ff166112a45760405162461bcd60e51b815260206004820152601760248201527f4e6f7420612076616c69642062656e65666963696172790000000000000000006044820152606401610554565b6001600160a01b03811660009081526002602052604090206004015460ff166113005760405133906001600160a01b038316907f67c4731bdc193862f421e091d18f46df876bfe1b8b9aa97504f1d50d425b239d90600090a350565b6001600160a01b03811660008181526002602081905260409182902060048101805460ff19169055426003820155015490513392917f82595752291d0261dfb9b4b0c2307021c29c34e22fe0697b4840b529dc351bc39161136391815260200190565b60405180910390a350565b3360009081526002602052604090205460ff166113cd5760405162461bcd60e51b815260206004820152601960248201527f42656e65666163746f72206e6f742072656769737465726564000000000000006044820152606401610554565b336000908152600260208190526040808320805460ff199081169091556001600160a01b0394909416835282208054909316835582018190556003820155600401805461ffff19169055565b3360009081526002602052604090205460ff16801561144f575033600090815260026020526040902060040154610100900460ff165b6114945760405162461bcd60e51b81526020600482015260166024820152752737ba1030903b30b634b2103132b732b330b1ba37b960511b6044820152606401610554565b33600090815260026020526040902060030154156115be576114b53361045c565b1561154b57336001600160a01b03167f793324a6f079e577f4a4646c7ec753efd3beddc2f4ce07bfae5f105c449ac3566040516115239060208082526013908201527f42656e65666163746f7220697320616c69766500000000000000000000000000604082015260600190565b60405180910390a2611533611930565b33600090815260026020526040902042600390910155565b336001600160a01b03167f5a68fa7d6b655a3e592d5d99ac82863424750e9d262c902f30f9e56655e7a8566040516115b49060208082526012908201527f42656e65666163746f7220697320646561640000000000000000000000000000604082015260600190565b60405180910390a2565b336001600160a01b03167f793324a6f079e577f4a4646c7ec753efd3beddc2f4ce07bfae5f105c449ac3566040516115239060208082526013908201527f42656e65666163746f7220697320616c69766500000000000000000000000000604082015260600190565b6116318383610580565b61167d5760405162461bcd60e51b815260206004820181905260248201527f42656e65666963696172792f42656e65666163746f72206e6f7420666f756e646044820152606401610554565b6001600160a01b038084166000908152600260208181526040808420948716845260019094019052919020016116b38282611f16565b50816001600160a01b0316836001600160a01b03167f812e93bad7e76e8b51ecdb31c9c69773dba6b47c2ae9fc763877665448b150d9836040516108e99190611d9e565b60606117038383610580565b6117475760405162461bcd60e51b815260206004820152601560248201527410995b99599a58da585c9e481b9bdd08199bdd5b99605a1b6044820152606401610554565b6001600160a01b038316600090815260026020908152604080832033845260010190915290205460ff16801561179e57506001600160a01b038316600090815260026020526040902060040154610100900460ff16155b6117ea5760405162461bcd60e51b815260206004820152601160248201527f4e6f2061636365737320746f20434944730000000000000000000000000000006044820152606401610554565b6001600160a01b03808416600090815260026020908152604080832093861683526001938401825280832090930180548451818402810184019095528085529092909184015b828210156118dc57838290600052602060002001805461184f90611e8d565b80601f016020809104026020016040519081016040528092919081815260200182805461187b90611e8d565b80156118c85780601f1061189d576101008083540402835291602001916118c8565b820191906000526020600020905b8154815290600101906020018083116118ab57829003601f168201915b505050505081526020019060010190611830565b50505050905092915050565b60606118f48383610580565b15611219576001600160a01b03808416600090815260026020908152604080832093861683526001909301905220600301805461119490611e8d565b3360009081526002602052604090205460ff168015611966575033600090815260026020526040902060040154610100900460ff165b6119ab5760405162461bcd60e51b81526020600482015260166024820152752737ba1030903b30b634b2103132b732b330b1ba37b960511b6044820152606401610554565b3360009081526002602052604090206004015460ff16156119f557604051339081907f439c5aaf7691cb4808dbd2a240323ce9ec0d04d66ddf65ffd5f88ebd60fa745b90600090a3565b3360008181526002602052604090819020600401805460ff191660011790555181907f9baa855d20de9b1a4db454f55b09d1db5f42f0871bbea3b0c699146ade17162590611a469042815260200190565b60405180910390a3565b828054828255906000526020600020908101928215611a96579160200282015b82811115611a965782518290611a869082611f16565b5091602001919060010190611a70565b50611aa2929150611b01565b5090565b5080546000825590600052602060002090810190611ac49190611b01565b50565b508054611ad390611e8d565b6000825580601f10611ae3575050565b601f016020900490600052602060002090810190611ac49190611b1e565b80821115611aa2576000611b158282611ac7565b50600101611b01565b5b80821115611aa25760008155600101611b1f565b80356001600160a01b0381168114611b4a57600080fd5b919050565b600060208284031215611b6157600080fd5b61045582611b33565b60008060408385031215611b7d57600080fd5b611b8683611b33565b9150611b9460208401611b33565b90509250929050565b60006060820185151583526020606081850152818651808452608086019150828801935060005b81811015611be95784516001600160a01b031683529383019391830191600101611bc4565b5050809350505050826040830152949350505050565b634e487b7160e01b600052604160045260246000fd5b600082601f830112611c2657600080fd5b813567ffffffffffffffff80821115611c4157611c41611bff565b604051601f8301601f19908116603f01168101908282118183101715611c6957611c69611bff565b81604052838152866020858801011115611c8257600080fd5b836020870160208301376000602085830101528094505050505092915050565b600080600060608486031215611cb757600080fd5b611cc084611b33565b9250611cce60208501611b33565b9150604084013567ffffffffffffffff811115611cea57600080fd5b611cf686828701611c15565b9150509250925092565b60008060408385031215611d1357600080fd5b611d1c83611b33565b9150602083013567ffffffffffffffff811115611d3857600080fd5b611d4485828601611c15565b9150509250929050565b60005b83811015611d69578181015183820152602001611d51565b50506000910152565b60008151808452611d8a816020860160208601611d4e565b601f01601f19169290920160200192915050565b6020815260006104556020830184611d72565b60008060408385031215611dc457600080fd5b50508035926020909101359150565b6000602080830181845280855180835260408601915060408160051b870101925083870160005b82811015611e2857603f19888603018452611e16858351611d72565b94509285019290850190600101611dfa565b5092979650505050505050565b634e487b7160e01b600052601160045260246000fd5b818103818111156105ae576105ae611e35565b634e487b7160e01b600052603260045260246000fd5b600060018201611e8657611e86611e35565b5060010190565b600181811c90821680611ea157607f821691505b602082108103611ec157634e487b7160e01b600052602260045260246000fd5b50919050565b601f821115611f1157600081815260208120601f850160051c81016020861015611eee5750805b601f850160051c820191505b81811015611f0d57828155600101611efa565b5050505b505050565b815167ffffffffffffffff811115611f3057611f30611bff565b611f4481611f3e8454611e8d565b84611ec7565b602080601f831160018114611f795760008415611f615750858301515b600019600386901b1c1916600185901b178555611f0d565b600085815260208120601f198616915b82811015611fa857888601518255948401946001909101908401611f89565b5085821015611fc65787850151600019600388901b60f8161c191681555b5050505050600190811b01905550565b60008251611fe8818460208701611d4e565b9190910192915050565b600080835461200081611e8d565b60018281168015612018576001811461202d5761205c565b60ff198416875282151583028701945061205c565b8760005260208060002060005b858110156120535781548a82015290840190820161203a565b50505082870194505b50929695505050505050565b818103612073575050565b61207d8254611e8d565b67ffffffffffffffff81111561209557612095611bff565b6120a381611f3e8454611e8d565b6000601f8211600181146120d757600083156120bf5750848201545b600019600385901b1c1916600184901b17845561213c565b600085815260209020601f19841690600086815260209020845b8381101561211157828601548255600195860195909101906020016120f1565b508583101561212f5781850154600019600388901b60f8161c191681555b50505060018360011b0184555b5050505050565b634e487b7160e01b600052603160045260246000fdfea26469706673582212205cc5dd62e797dd73533c71035429680c80100b3f48eaea2e561ca5189f569ae464736f6c63430008110033",
      "opcodes": "PUSH1 0x80 PUSH1 0x40 MSTORE PUSH1 0x0 DUP1 SSTORE PUSH1 0x0 PUSH1 0x1 SSTORE CALLVALUE DUP1 ISZERO PUSH2 0x19 JUMPI PUSH1 0x0 DUP1 REVERT JUMPDEST POP PUSH2 0x218F DUP1 PUSH2 0x29 PUSH1 0x0 CODECOPY PUSH1 0x0 RETURN INVALID PUSH1 0x80 PUSH1 0x40 MSTORE CALLVALUE DUP1 ISZERO PUSH2 0x10 JUMPI PUSH1 0x0 DUP1 REVERT JUMPDEST POP PUSH1 0x4 CALLDATASIZE LT PUSH2 0x16C JUMPI PUSH1 0x0 CALLDATALOAD PUSH1 0xE0 SHR DUP1 PUSH4 0x59633A1C GT PUSH2 0xCD JUMPI DUP1 PUSH4 0xCCB53A09 GT PUSH2 0x81 JUMPI DUP1 PUSH4 0xD51C3199 GT PUSH2 0x66 JUMPI DUP1 PUSH4 0xD51C3199 EQ PUSH2 0x328 JUMPI DUP1 PUSH4 0xDF78BC54 EQ PUSH2 0x33B JUMPI DUP1 PUSH4 0xF892CB36 EQ PUSH2 0x35B JUMPI PUSH1 0x0 DUP1 REVERT JUMPDEST DUP1 PUSH4 0xCCB53A09 EQ PUSH2 0x307 JUMPI DUP1 PUSH4 0xCD9C9362 EQ PUSH2 0x320 JUMPI PUSH1 0x0 DUP1 REVERT JUMPDEST DUP1 PUSH4 0x87CE1CA8 GT PUSH2 0xB2 JUMPI DUP1 PUSH4 0x87CE1CA8 EQ PUSH2 0x2C1 JUMPI DUP1 PUSH4 0x8D5492E4 EQ PUSH2 0x2E1 JUMPI DUP1 PUSH4 0xA98D22BC EQ PUSH2 0x2F4 JUMPI PUSH1 0x0 DUP1 REVERT JUMPDEST DUP1 PUSH4 0x59633A1C EQ PUSH2 0x29B JUMPI DUP1 PUSH4 0x87C63714 EQ PUSH2 0x2AE JUMPI PUSH1 0x0 DUP1 REVERT JUMPDEST DUP1 PUSH4 0x38266B22 GT PUSH2 0x124 JUMPI DUP1 PUSH4 0x46437D3A GT PUSH2 0x109 JUMPI DUP1 PUSH4 0x46437D3A EQ PUSH2 0x25A JUMPI DUP1 PUSH4 0x5211287E EQ PUSH2 0x275 JUMPI DUP1 PUSH4 0x5926651D EQ PUSH2 0x288 JUMPI PUSH1 0x0 DUP1 REVERT JUMPDEST DUP1 PUSH4 0x38266B22 EQ PUSH2 0x225 JUMPI DUP1 PUSH4 0x3DEA2F84 EQ PUSH2 0x247 JUMPI PUSH1 0x0 DUP1 REVERT JUMPDEST DUP1 PUSH4 0x7A8B767 GT PUSH2 0x155 JUMPI DUP1 PUSH4 0x7A8B767 EQ PUSH2 0x1BA JUMPI DUP1 PUSH4 0x96E27D9 EQ PUSH2 0x1CD JUMPI DUP1 PUSH4 0x196BA7EF EQ PUSH2 0x1E0 JUMPI PUSH1 0x0 DUP1 REVERT JUMPDEST DUP1 PUSH4 0x1E2B33F EQ PUSH2 0x171 JUMPI DUP1 PUSH4 0x72039A2 EQ PUSH2 0x197 JUMPI JUMPDEST PUSH1 0x0 DUP1 REVERT JUMPDEST PUSH2 0x184 PUSH2 0x17F CALLDATASIZE PUSH1 0x4 PUSH2 0x1B4F JUMP JUMPDEST PUSH2 0x36E JUMP JUMPDEST PUSH1 0x40 MLOAD SWAP1 DUP2 MSTORE PUSH1 0x20 ADD JUMPDEST PUSH1 0x40 MLOAD DUP1 SWAP2 SUB SWAP1 RETURN JUMPDEST PUSH2 0x1AA PUSH2 0x1A5 CALLDATASIZE PUSH1 0x4 PUSH2 0x1B4F JUMP JUMPDEST PUSH2 0x45C JUMP JUMPDEST PUSH1 0x40 MLOAD SWAP1 ISZERO ISZERO DUP2 MSTORE PUSH1 0x20 ADD PUSH2 0x18E JUMP JUMPDEST PUSH2 0x1AA PUSH2 0x1C8 CALLDATASIZE PUSH1 0x4 PUSH2 0x1B4F JUMP JUMPDEST PUSH2 0x4F0 JUMP JUMPDEST PUSH2 0x1AA PUSH2 0x1DB CALLDATASIZE PUSH1 0x4 PUSH2 0x1B6A JUMP JUMPDEST PUSH2 0x580 JUMP JUMPDEST PUSH2 0x223 CALLER PUSH1 0x0 SWAP1 DUP2 MSTORE PUSH1 0x2 PUSH1 0x20 DUP2 SWAP1 MSTORE PUSH1 0x40 DUP3 KECCAK256 DUP1 SLOAD PUSH1 0xFF NOT AND PUSH1 0x1 OR DUP2 SSTORE PUSH3 0x93A80 SWAP2 DUP2 ADD SWAP2 SWAP1 SWAP2 SSTORE PUSH1 0x4 DUP2 ADD DUP1 SLOAD PUSH2 0x101 PUSH2 0xFFFF NOT SWAP1 SWAP2 AND OR SWAP1 SSTORE PUSH1 0x3 ADD SSTORE JUMP JUMPDEST STOP JUMPDEST PUSH2 0x238 PUSH2 0x233 CALLDATASIZE PUSH1 0x4 PUSH2 0x1B4F JUMP JUMPDEST PUSH2 0x5B4 JUMP JUMPDEST PUSH1 0x40 MLOAD PUSH2 0x18E SWAP4 SWAP3 SWAP2 SWAP1 PUSH2 0x1B9D JUMP JUMPDEST PUSH2 0x223 PUSH2 0x255 CALLDATASIZE PUSH1 0x4 PUSH2 0x1CA2 JUMP JUMPDEST PUSH2 0x819 JUMP JUMPDEST PUSH1 0x0 SLOAD PUSH1 0x1 SLOAD PUSH1 0x40 DUP1 MLOAD SWAP3 DUP4 MSTORE PUSH1 0x20 DUP4 ADD SWAP2 SWAP1 SWAP2 MSTORE ADD PUSH2 0x18E JUMP JUMPDEST PUSH2 0x223 PUSH2 0x283 CALLDATASIZE PUSH1 0x4 PUSH2 0x1D00 JUMP JUMPDEST PUSH2 0x8F6 JUMP JUMPDEST PUSH2 0x223 PUSH2 0x296 CALLDATASIZE PUSH1 0x4 PUSH2 0x1B4F JUMP JUMPDEST PUSH2 0xB66 JUMP JUMPDEST PUSH2 0x223 PUSH2 0x2A9 CALLDATASIZE PUSH1 0x4 PUSH2 0x1B4F JUMP JUMPDEST PUSH2 0xD4A JUMP JUMPDEST PUSH2 0x223 PUSH2 0x2BC CALLDATASIZE PUSH1 0x4 PUSH2 0x1D00 JUMP JUMPDEST PUSH2 0xEA8 JUMP JUMPDEST PUSH2 0x2D4 PUSH2 0x2CF CALLDATASIZE PUSH1 0x4 PUSH2 0x1B6A JUMP JUMPDEST PUSH2 0x114C JUMP JUMPDEST PUSH1 0x40 MLOAD PUSH2 0x18E SWAP2 SWAP1 PUSH2 0x1D9E JUMP JUMPDEST PUSH2 0x223 PUSH2 0x2EF CALLDATASIZE PUSH1 0x4 PUSH2 0x1B4F JUMP JUMPDEST PUSH2 0x122E JUMP JUMPDEST PUSH2 0x223 PUSH2 0x302 CALLDATASIZE PUSH1 0x4 PUSH2 0x1B4F JUMP JUMPDEST PUSH2 0x136E JUMP JUMPDEST PUSH2 0x223 PUSH2 0x315 CALLDATASIZE PUSH1 0x4 PUSH2 0x1DB1 JUMP JUMPDEST PUSH1 0x0 SWAP2 SWAP1 SWAP2 SSTORE PUSH1 0x1 SSTORE JUMP JUMPDEST PUSH2 0x223 PUSH2 0x1419 JUMP JUMPDEST PUSH2 0x223 PUSH2 0x336 CALLDATASIZE PUSH1 0x4 PUSH2 0x1CA2 JUMP JUMPDEST PUSH2 0x1627 JUMP JUMPDEST PUSH2 0x34E PUSH2 0x349 CALLDATASIZE PUSH1 0x4 PUSH2 0x1B6A JUMP JUMPDEST PUSH2 0x16F7 JUMP JUMPDEST PUSH1 0x40 MLOAD PUSH2 0x18E SWAP2 SWAP1 PUSH2 0x1DD3 JUMP JUMPDEST PUSH2 0x2D4 PUSH2 0x369 CALLDATASIZE PUSH1 0x4 PUSH2 0x1B6A JUMP JUMPDEST PUSH2 0x18E8 JUMP JUMPDEST PUSH1 0x1 PUSH1 0x1 PUSH1 0xA0 SHL SUB DUP2 AND PUSH1 0x0 SWAP1 DUP2 MSTORE PUSH1 0x2 PUSH1 0x20 MSTORE PUSH1 0x40 DUP2 KECCAK256 PUSH1 0x3 ADD SLOAD DUP2 SWAP1 PUSH2 0x396 SWAP1 TIMESTAMP PUSH2 0x1E4B JUMP JUMPDEST PUSH1 0x1 PUSH1 0x1 PUSH1 0xA0 SHL SUB DUP5 AND PUSH1 0x0 DUP2 DUP2 MSTORE PUSH1 0x2 PUSH1 0x20 DUP2 DUP2 MSTORE PUSH1 0x40 SWAP3 DUP4 SWAP1 KECCAK256 SWAP2 DUP3 ADD SLOAD PUSH1 0x3 SWAP1 SWAP3 ADD SLOAD DUP4 MLOAD SWAP3 DUP4 MSTORE SWAP1 DUP3 ADD DUP6 SWAP1 MSTORE TIMESTAMP DUP3 DUP5 ADD MSTORE PUSH1 0x60 DUP3 ADD MSTORE SWAP1 MLOAD SWAP3 SWAP4 POP SWAP1 SWAP2 PUSH32 0x74A7C0C2E8065FCDBFCA5AE9F6CF0233E47E9E75B6FCF75674DD4B7E3F9B8183 SWAP2 DUP2 SWAP1 SUB PUSH1 0x80 ADD SWAP1 LOG2 PUSH1 0x1 PUSH1 0x1 PUSH1 0xA0 SHL SUB DUP4 AND PUSH1 0x0 SWAP1 DUP2 MSTORE PUSH1 0x2 PUSH1 0x20 DUP2 SWAP1 MSTORE PUSH1 0x40 SWAP1 SWAP2 KECCAK256 ADD SLOAD DUP2 GT PUSH2 0x452 JUMPI PUSH1 0x1 PUSH1 0x1 PUSH1 0xA0 SHL SUB DUP4 AND PUSH1 0x0 SWAP1 DUP2 MSTORE PUSH1 0x2 PUSH1 0x20 DUP2 SWAP1 MSTORE PUSH1 0x40 SWAP1 SWAP2 KECCAK256 ADD SLOAD PUSH2 0x44D SWAP1 DUP3 SWAP1 PUSH2 0x1E4B JUMP JUMPDEST PUSH2 0x455 JUMP JUMPDEST PUSH1 0x0 JUMPDEST SWAP4 SWAP3 POP POP POP JUMP JUMPDEST PUSH1 0x0 PUSH2 0x467 DUP3 PUSH2 0x4F0 JUMP JUMPDEST ISZERO PUSH2 0x4C9 JUMPI PUSH1 0x1 PUSH1 0x1 PUSH1 0xA0 SHL SUB DUP3 AND PUSH1 0x0 SWAP1 DUP2 MSTORE PUSH1 0x2 PUSH1 0x20 MSTORE PUSH1 0x40 SWAP1 KECCAK256 PUSH1 0x3 ADD SLOAD ISZERO PUSH2 0x4C9 JUMPI PUSH1 0x0 PUSH2 0x498 DUP4 PUSH2 0x36E JUMP JUMPDEST SWAP1 POP PUSH1 0x0 DUP2 GT PUSH2 0x4C7 JUMPI PUSH1 0x1 PUSH1 0x1 PUSH1 0xA0 SHL SUB DUP4 AND PUSH1 0x0 SWAP1 DUP2 MSTORE PUSH1 0x2 PUSH1 0x20 MSTORE PUSH1 0x40 SWAP1 KECCAK256 PUSH1 0x4 ADD DUP1 SLOAD PUSH2 0xFF00 NOT AND SWAP1 SSTORE JUMPDEST POP JUMPDEST POP PUSH1 0x1 PUSH1 0x1 PUSH1 0xA0 SHL SUB AND PUSH1 0x0 SWAP1 DUP2 MSTORE PUSH1 0x2 PUSH1 0x20 MSTORE PUSH1 0x40 SWAP1 KECCAK256 PUSH1 0x4 ADD SLOAD PUSH2 0x100 SWAP1 DIV PUSH1 0xFF AND SWAP1 JUMP JUMPDEST PUSH1 0x1 PUSH1 0x1 PUSH1 0xA0 SHL SUB DUP2 AND PUSH1 0x0 SWAP1 DUP2 MSTORE PUSH1 0x2 PUSH1 0x20 MSTORE PUSH1 0x40 DUP2 KECCAK256 SLOAD PUSH1 0xFF AND PUSH2 0x55D JUMPI PUSH1 0x40 MLOAD PUSH3 0x461BCD PUSH1 0xE5 SHL DUP2 MSTORE PUSH1 0x20 PUSH1 0x4 DUP3 ADD MSTORE PUSH1 0x19 PUSH1 0x24 DUP3 ADD MSTORE PUSH32 0x42656E65666163746F7220646F6573206E6F7420657869737400000000000000 PUSH1 0x44 DUP3 ADD MSTORE PUSH1 0x64 ADD JUMPDEST PUSH1 0x40 MLOAD DUP1 SWAP2 SUB SWAP1 REVERT JUMPDEST POP PUSH1 0x1 PUSH1 0x1 PUSH1 0xA0 SHL SUB AND PUSH1 0x0 SWAP1 DUP2 MSTORE PUSH1 0x2 PUSH1 0x20 MSTORE PUSH1 0x40 SWAP1 KECCAK256 PUSH1 0x4 ADD SLOAD PUSH1 0xFF AND ISZERO SWAP1 JUMP JUMPDEST PUSH1 0x1 PUSH1 0x1 PUSH1 0xA0 SHL SUB DUP1 DUP4 AND PUSH1 0x0 SWAP1 DUP2 MSTORE PUSH1 0x2 PUSH1 0x20 SWAP1 DUP2 MSTORE PUSH1 0x40 DUP1 DUP4 KECCAK256 SWAP4 DUP6 AND DUP4 MSTORE PUSH1 0x1 SWAP1 SWAP4 ADD SWAP1 MSTORE KECCAK256 SLOAD PUSH1 0xFF AND JUMPDEST SWAP3 SWAP2 POP POP JUMP JUMPDEST PUSH1 0x1 PUSH1 0x1 PUSH1 0xA0 SHL SUB DUP2 AND PUSH1 0x0 SWAP1 DUP2 MSTORE PUSH1 0x2 PUSH1 0x20 MSTORE PUSH1 0x40 DUP2 KECCAK256 SLOAD PUSH1 0x60 SWAP1 DUP3 SWAP1 PUSH1 0xFF AND PUSH2 0x621 JUMPI PUSH1 0x40 MLOAD PUSH3 0x461BCD PUSH1 0xE5 SHL DUP2 MSTORE PUSH1 0x20 PUSH1 0x4 DUP3 ADD MSTORE PUSH1 0x19 PUSH1 0x24 DUP3 ADD MSTORE PUSH32 0x42656E65666163746F7220646F6573206E6F7420657869737400000000000000 PUSH1 0x44 DUP3 ADD MSTORE PUSH1 0x64 ADD PUSH2 0x554 JUMP JUMPDEST PUSH1 0x1 PUSH1 0x1 PUSH1 0xA0 SHL SUB DUP5 AND PUSH1 0x0 SWAP1 DUP2 MSTORE PUSH1 0x2 PUSH1 0x20 SWAP1 DUP2 MSTORE PUSH1 0x40 DUP1 DUP4 KECCAK256 PUSH1 0x4 ADD SLOAD PUSH1 0x3 SWAP1 SWAP3 MSTORE SWAP1 SWAP2 KECCAK256 SLOAD PUSH1 0xFF SWAP1 SWAP2 AND ISZERO SWAP4 POP PUSH8 0xFFFFFFFFFFFFFFFF DUP2 GT ISZERO PUSH2 0x669 JUMPI PUSH2 0x669 PUSH2 0x1BFF JUMP JUMPDEST PUSH1 0x40 MLOAD SWAP1 DUP1 DUP3 MSTORE DUP1 PUSH1 0x20 MUL PUSH1 0x20 ADD DUP3 ADD PUSH1 0x40 MSTORE DUP1 ISZERO PUSH2 0x692 JUMPI DUP2 PUSH1 0x20 ADD PUSH1 0x20 DUP3 MUL DUP1 CALLDATASIZE DUP4 CALLDATACOPY ADD SWAP1 POP JUMPDEST POP SWAP2 POP PUSH1 0x0 DUP1 JUMPDEST DUP4 MLOAD DUP2 LT ISZERO PUSH2 0x79C JUMPI PUSH1 0x1 PUSH1 0x1 PUSH1 0xA0 SHL SUB DUP7 AND PUSH1 0x0 SWAP1 DUP2 MSTORE PUSH1 0x2 PUSH1 0x20 SWAP1 DUP2 MSTORE PUSH1 0x40 DUP1 DUP4 KECCAK256 PUSH1 0x3 SWAP1 SWAP3 MSTORE DUP3 KECCAK256 DUP1 SLOAD PUSH1 0x1 SWAP1 SWAP3 ADD SWAP3 SWAP2 DUP5 SWAP1 DUP2 LT PUSH2 0x6DD JUMPI PUSH2 0x6DD PUSH2 0x1E5E JUMP JUMPDEST PUSH1 0x0 SWAP2 DUP3 MSTORE PUSH1 0x20 DUP1 DUP4 KECCAK256 SWAP1 SWAP2 ADD SLOAD PUSH1 0x1 PUSH1 0x1 PUSH1 0xA0 SHL SUB AND DUP4 MSTORE DUP3 ADD SWAP3 SWAP1 SWAP3 MSTORE PUSH1 0x40 ADD SWAP1 KECCAK256 SLOAD PUSH1 0xFF AND ISZERO PUSH2 0x78A JUMPI PUSH1 0x1 PUSH1 0x1 PUSH1 0xA0 SHL SUB DUP7 AND PUSH1 0x0 SWAP1 DUP2 MSTORE PUSH1 0x3 PUSH1 0x20 MSTORE PUSH1 0x40 SWAP1 KECCAK256 DUP1 SLOAD DUP3 SWAP1 DUP2 LT PUSH2 0x734 JUMPI PUSH2 0x734 PUSH2 0x1E5E JUMP JUMPDEST SWAP1 PUSH1 0x0 MSTORE PUSH1 0x20 PUSH1 0x0 KECCAK256 ADD PUSH1 0x0 SWAP1 SLOAD SWAP1 PUSH2 0x100 EXP SWAP1 DIV PUSH1 0x1 PUSH1 0x1 PUSH1 0xA0 SHL SUB AND DUP5 DUP4 DUP2 MLOAD DUP2 LT PUSH2 0x764 JUMPI PUSH2 0x764 PUSH2 0x1E5E JUMP JUMPDEST PUSH1 0x1 PUSH1 0x1 PUSH1 0xA0 SHL SUB SWAP1 SWAP3 AND PUSH1 0x20 SWAP3 DUP4 MUL SWAP2 SWAP1 SWAP2 ADD SWAP1 SWAP2 ADD MSTORE DUP2 PUSH2 0x786 DUP2 PUSH2 0x1E74 JUMP JUMPDEST SWAP3 POP POP JUMPDEST DUP1 PUSH2 0x794 DUP2 PUSH2 0x1E74 JUMP JUMPDEST SWAP2 POP POP PUSH2 0x699 JUMP JUMPDEST POP PUSH1 0x1 PUSH1 0x1 PUSH1 0xA0 SHL SUB DUP6 AND PUSH1 0x0 SWAP1 DUP2 MSTORE PUSH1 0x2 PUSH1 0x20 MSTORE PUSH1 0x40 SWAP1 KECCAK256 PUSH1 0x4 ADD SLOAD PUSH1 0xFF AND ISZERO PUSH2 0x7CA JUMPI PUSH1 0x0 SWAP2 POP PUSH2 0x7D6 JUMP JUMPDEST PUSH2 0x7D3 DUP6 PUSH2 0x36E JUMP JUMPDEST SWAP2 POP JUMPDEST PUSH32 0xDD263DB0C9FA976850DAE07EA6A26E6781D52ED1A3DBF2DA9335431C5664C20 DUP5 DUP5 DUP5 PUSH1 0x40 MLOAD PUSH2 0x809 SWAP4 SWAP3 SWAP2 SWAP1 PUSH2 0x1B9D JUMP JUMPDEST PUSH1 0x40 MLOAD DUP1 SWAP2 SUB SWAP1 LOG1 POP SWAP2 SWAP4 SWAP1 SWAP3 POP JUMP JUMPDEST PUSH2 0x823 DUP4 DUP4 PUSH2 0x580 JUMP JUMPDEST PUSH2 0x86F JUMPI PUSH1 0x40 MLOAD PUSH3 0x461BCD PUSH1 0xE5 SHL DUP2 MSTORE PUSH1 0x20 PUSH1 0x4 DUP3 ADD DUP2 SWAP1 MSTORE PUSH1 0x24 DUP3 ADD MSTORE PUSH32 0x42656E65666963696172792F42656E65666163746F72206E6F7420666F756E64 PUSH1 0x44 DUP3 ADD MSTORE PUSH1 0x64 ADD PUSH2 0x554 JUMP JUMPDEST PUSH1 0x1 PUSH1 0x1 PUSH1 0xA0 SHL SUB DUP1 DUP5 AND PUSH1 0x0 SWAP1 DUP2 MSTORE PUSH1 0x2 PUSH1 0x20 SWAP1 DUP2 MSTORE PUSH1 0x40 DUP1 DUP4 KECCAK256 SWAP4 DUP7 AND DUP4 MSTORE PUSH1 0x1 SWAP1 SWAP4 ADD SWAP1 MSTORE KECCAK256 PUSH1 0x3 ADD PUSH2 0x8A5 DUP3 DUP3 PUSH2 0x1F16 JUMP JUMPDEST POP DUP2 PUSH1 0x1 PUSH1 0x1 PUSH1 0xA0 SHL SUB AND DUP4 PUSH1 0x1 PUSH1 0x1 PUSH1 0xA0 SHL SUB AND PUSH32 0x69CCEA10852AC51B01745414774B5AF302217E774786D2068296650B57BA03F2 DUP4 PUSH1 0x40 MLOAD PUSH2 0x8E9 SWAP2 SWAP1 PUSH2 0x1D9E JUMP JUMPDEST PUSH1 0x40 MLOAD DUP1 SWAP2 SUB SWAP1 LOG3 POP POP POP JUMP JUMPDEST CALLER PUSH1 0x0 SWAP1 DUP2 MSTORE PUSH1 0x2 PUSH1 0x20 MSTORE PUSH1 0x40 SWAP1 KECCAK256 SLOAD PUSH1 0xFF AND DUP1 ISZERO PUSH2 0x92C JUMPI POP CALLER PUSH1 0x0 SWAP1 DUP2 MSTORE PUSH1 0x2 PUSH1 0x20 MSTORE PUSH1 0x40 SWAP1 KECCAK256 PUSH1 0x4 ADD SLOAD PUSH2 0x100 SWAP1 DIV PUSH1 0xFF AND JUMPDEST PUSH2 0x971 JUMPI PUSH1 0x40 MLOAD PUSH3 0x461BCD PUSH1 0xE5 SHL DUP2 MSTORE PUSH1 0x20 PUSH1 0x4 DUP3 ADD MSTORE PUSH1 0x16 PUSH1 0x24 DUP3 ADD MSTORE PUSH22 0x2737BA1030903B30B634B2103132B732B330B1BA37B9 PUSH1 0x51 SHL PUSH1 0x44 DUP3 ADD MSTORE PUSH1 0x64 ADD PUSH2 0x554 JUMP JUMPDEST PUSH2 0x97B CALLER DUP4 PUSH2 0x580 JUMP JUMPDEST PUSH2 0x9BF JUMPI PUSH1 0x40 MLOAD PUSH3 0x461BCD PUSH1 0xE5 SHL DUP2 MSTORE PUSH1 0x20 PUSH1 0x4 DUP3 ADD MSTORE PUSH1 0x15 PUSH1 0x24 DUP3 ADD MSTORE PUSH21 0x10995B99599A58DA585C9E481B9BDD08199BDD5B99 PUSH1 0x5A SHL PUSH1 0x44 DUP3 ADD MSTORE PUSH1 0x64 ADD PUSH2 0x554 JUMP JUMPDEST CALLER PUSH1 0x0 SWAP1 DUP2 MSTORE PUSH1 0x2 PUSH1 0x20 SWAP1 DUP2 MSTORE PUSH1 0x40 DUP1 DUP4 KECCAK256 PUSH1 0x1 PUSH1 0x1 PUSH1 0xA0 SHL SUB DUP7 AND DUP5 MSTORE PUSH1 0x1 SWAP1 DUP2 ADD SWAP1 SWAP3 MSTORE DUP3 KECCAK256 ADD SWAP1 JUMPDEST DUP2 SLOAD DUP2 LT ISZERO PUSH2 0xAE1 JUMPI DUP3 PUSH1 0x40 MLOAD PUSH1 0x20 ADD PUSH2 0xA04 SWAP2 SWAP1 PUSH2 0x1FD6 JUMP JUMPDEST PUSH1 0x40 MLOAD PUSH1 0x20 DUP2 DUP4 SUB SUB DUP2 MSTORE SWAP1 PUSH1 0x40 MSTORE DUP1 MLOAD SWAP1 PUSH1 0x20 ADD KECCAK256 DUP3 DUP3 DUP2 SLOAD DUP2 LT PUSH2 0xA2C JUMPI PUSH2 0xA2C PUSH2 0x1E5E JUMP JUMPDEST SWAP1 PUSH1 0x0 MSTORE PUSH1 0x20 PUSH1 0x0 KECCAK256 ADD PUSH1 0x40 MLOAD PUSH1 0x20 ADD PUSH2 0xA46 SWAP2 SWAP1 PUSH2 0x1FF2 JUMP JUMPDEST PUSH1 0x40 MLOAD PUSH1 0x20 DUP2 DUP4 SUB SUB DUP2 MSTORE SWAP1 PUSH1 0x40 MSTORE DUP1 MLOAD SWAP1 PUSH1 0x20 ADD KECCAK256 SUB PUSH2 0xACF JUMPI PUSH1 0x40 MLOAD PUSH3 0x461BCD PUSH1 0xE5 SHL DUP2 MSTORE PUSH1 0x20 PUSH1 0x4 DUP3 ADD MSTORE PUSH1 0x28 PUSH1 0x24 DUP3 ADD MSTORE PUSH32 0x43494420616C72656164792061737369676E656420746F20746869732062656E PUSH1 0x44 DUP3 ADD MSTORE PUSH32 0x6566696369617279000000000000000000000000000000000000000000000000 PUSH1 0x64 DUP3 ADD MSTORE PUSH1 0x84 ADD PUSH2 0x554 JUMP JUMPDEST DUP1 PUSH2 0xAD9 DUP2 PUSH2 0x1E74 JUMP JUMPDEST SWAP2 POP POP PUSH2 0x9EA JUMP JUMPDEST POP CALLER PUSH1 0x0 SWAP1 DUP2 MSTORE PUSH1 0x2 PUSH1 0x20 SWAP1 DUP2 MSTORE PUSH1 0x40 DUP1 DUP4 KECCAK256 PUSH1 0x1 PUSH1 0x1 PUSH1 0xA0 SHL SUB DUP8 AND DUP5 MSTORE PUSH1 0x1 SWAP1 DUP2 ADD DUP4 MSTORE SWAP1 DUP4 KECCAK256 DUP2 ADD DUP1 SLOAD SWAP2 DUP3 ADD DUP2 SSTORE DUP4 MSTORE SWAP2 KECCAK256 ADD PUSH2 0xB22 DUP4 DUP3 PUSH2 0x1F16 JUMP JUMPDEST POP DUP3 PUSH1 0x1 PUSH1 0x1 PUSH1 0xA0 SHL SUB AND CALLER PUSH1 0x1 PUSH1 0x1 PUSH1 0xA0 SHL SUB AND PUSH32 0xA1BB52B874769D5C17CDE30E708E8F7180BB949F70E77CAF0DA68D25F9A1A510 DUP5 PUSH1 0x40 MLOAD PUSH2 0x8E9 SWAP2 SWAP1 PUSH2 0x1D9E JUMP JUMPDEST CALLER PUSH1 0x0 SWAP1 DUP2 MSTORE PUSH1 0x2 PUSH1 0x20 MSTORE PUSH1 0x40 SWAP1 KECCAK256 SLOAD PUSH1 0xFF AND DUP1 ISZERO PUSH2 0xB9C JUMPI POP CALLER PUSH1 0x0 SWAP1 DUP2 MSTORE PUSH1 0x2 PUSH1 0x20 MSTORE PUSH1 0x40 SWAP1 KECCAK256 PUSH1 0x4 ADD SLOAD PUSH2 0x100 SWAP1 DIV PUSH1 0xFF AND JUMPDEST PUSH2 0xBE1 JUMPI PUSH1 0x40 MLOAD PUSH3 0x461BCD PUSH1 0xE5 SHL DUP2 MSTORE PUSH1 0x20 PUSH1 0x4 DUP3 ADD MSTORE PUSH1 0x16 PUSH1 0x24 DUP3 ADD MSTORE PUSH22 0x2737BA1030903B30B634B2103132B732B330B1BA37B9 PUSH1 0x51 SHL PUSH1 0x44 DUP3 ADD MSTORE PUSH1 0x64 ADD PUSH2 0x554 JUMP JUMPDEST PUSH2 0xBEB CALLER DUP3 PUSH2 0x580 JUMP JUMPDEST ISZERO PUSH2 0xC38 JUMPI PUSH1 0x40 MLOAD PUSH3 0x461BCD PUSH1 0xE5 SHL DUP2 MSTORE PUSH1 0x20 PUSH1 0x4 DUP3 ADD MSTORE PUSH1 0x1A PUSH1 0x24 DUP3 ADD MSTORE PUSH32 0x42656E656669636961727920616C726561647920657869737473000000000000 PUSH1 0x44 DUP3 ADD MSTORE PUSH1 0x64 ADD PUSH2 0x554 JUMP JUMPDEST PUSH1 0x40 DUP1 MLOAD PUSH1 0x80 DUP2 ADD DUP3 MSTORE PUSH1 0x1 DUP2 MSTORE DUP2 MLOAD PUSH1 0x0 DUP1 DUP3 MSTORE PUSH1 0x20 DUP3 DUP2 ADD SWAP1 SWAP5 MSTORE SWAP2 SWAP3 DUP4 ADD SWAP2 PUSH2 0xC74 JUMP JUMPDEST PUSH1 0x60 DUP2 MSTORE PUSH1 0x20 ADD SWAP1 PUSH1 0x1 SWAP1 SUB SWAP1 DUP2 PUSH2 0xC5F JUMPI SWAP1 POP JUMPDEST POP DUP2 MSTORE PUSH1 0x40 DUP1 MLOAD PUSH1 0x20 DUP1 DUP3 ADD DUP4 MSTORE PUSH1 0x0 DUP1 DUP4 MSTORE DUP2 DUP6 ADD SWAP3 SWAP1 SWAP3 MSTORE DUP3 MLOAD DUP1 DUP3 ADD DUP5 MSTORE DUP3 DUP2 MSTORE SWAP4 DUP4 ADD SWAP4 SWAP1 SWAP4 MSTORE CALLER DUP2 MSTORE PUSH1 0x2 DUP4 MSTORE DUP2 DUP2 KECCAK256 PUSH1 0x1 PUSH1 0x1 PUSH1 0xA0 SHL SUB DUP7 AND DUP3 MSTORE PUSH1 0x1 SWAP1 DUP2 ADD DUP5 MSTORE SWAP2 SWAP1 KECCAK256 DUP4 MLOAD DUP2 SLOAD PUSH1 0xFF NOT AND SWAP1 ISZERO ISZERO OR DUP2 SSTORE DUP4 DUP4 ADD MLOAD DUP1 MLOAD SWAP2 SWAP4 PUSH2 0xCE4 SWAP4 DUP6 ADD SWAP3 SWAP2 ADD SWAP1 PUSH2 0x1A50 JUMP JUMPDEST POP PUSH1 0x40 DUP3 ADD MLOAD PUSH1 0x2 DUP3 ADD SWAP1 PUSH2 0xCF9 SWAP1 DUP3 PUSH2 0x1F16 JUMP JUMPDEST POP PUSH1 0x60 DUP3 ADD MLOAD PUSH1 0x3 DUP3 ADD SWAP1 PUSH2 0xD0E SWAP1 DUP3 PUSH2 0x1F16 JUMP JUMPDEST POP POP PUSH1 0x40 MLOAD PUSH1 0x1 PUSH1 0x1 PUSH1 0xA0 SHL SUB DUP4 AND SWAP2 POP CALLER SWAP1 PUSH32 0xBB39C36A7502B7256E1A687254146A9A2EA7B146C77CB9E40EB0E2B8793781E1 SWAP1 PUSH1 0x0 SWAP1 LOG3 POP JUMP JUMPDEST CALLER PUSH1 0x0 SWAP1 DUP2 MSTORE PUSH1 0x2 PUSH1 0x20 MSTORE PUSH1 0x40 SWAP1 KECCAK256 SLOAD PUSH1 0xFF AND DUP1 ISZERO PUSH2 0xD80 JUMPI POP CALLER PUSH1 0x0 SWAP1 DUP2 MSTORE PUSH1 0x2 PUSH1 0x20 MSTORE PUSH1 0x40 SWAP1 KECCAK256 PUSH1 0x4 ADD SLOAD PUSH2 0x100 SWAP1 DIV PUSH1 0xFF AND JUMPDEST PUSH2 0xDC5 JUMPI PUSH1 0x40 MLOAD PUSH3 0x461BCD PUSH1 0xE5 SHL DUP2 MSTORE PUSH1 0x20 PUSH1 0x4 DUP3 ADD MSTORE PUSH1 0x16 PUSH1 0x24 DUP3 ADD MSTORE PUSH22 0x2737BA1030903B30B634B2103132B732B330B1BA37B9 PUSH1 0x51 SHL PUSH1 0x44 DUP3 ADD MSTORE PUSH1 0x64 ADD PUSH2 0x554 JUMP JUMPDEST PUSH2 0xDCF CALLER DUP3 PUSH2 0x580 JUMP JUMPDEST PUSH2 0xE13 JUMPI PUSH1 0x40 MLOAD PUSH3 0x461BCD PUSH1 0xE5 SHL DUP2 MSTORE PUSH1 0x20 PUSH1 0x4 DUP3 ADD MSTORE PUSH1 0x15 PUSH1 0x24 DUP3 ADD MSTORE PUSH21 0x10995B99599A58DA585C9E481B9BDD08199BDD5B99 PUSH1 0x5A SHL PUSH1 0x44 DUP3 ADD MSTORE PUSH1 0x64 ADD PUSH2 0x554 JUMP JUMPDEST CALLER PUSH1 0x0 SWAP1 DUP2 MSTORE PUSH1 0x2 PUSH1 0x20 SWAP1 DUP2 MSTORE PUSH1 0x40 DUP1 DUP4 KECCAK256 PUSH1 0x1 PUSH1 0x1 PUSH1 0xA0 SHL SUB DUP6 AND DUP5 MSTORE PUSH1 0x1 SWAP1 DUP2 ADD SWAP1 SWAP3 MSTORE DUP3 KECCAK256 DUP1 SLOAD PUSH1 0xFF NOT AND DUP2 SSTORE SWAP2 SWAP1 PUSH2 0xE51 SWAP1 DUP4 ADD DUP3 PUSH2 0x1AA6 JUMP JUMPDEST PUSH2 0xE5F PUSH1 0x2 DUP4 ADD PUSH1 0x0 PUSH2 0x1AC7 JUMP JUMPDEST PUSH2 0xE6D PUSH1 0x3 DUP4 ADD PUSH1 0x0 PUSH2 0x1AC7 JUMP JUMPDEST POP POP PUSH1 0x40 MLOAD PUSH1 0x1 PUSH1 0x1 PUSH1 0xA0 SHL SUB DUP3 AND SWAP1 CALLER SWAP1 PUSH32 0x1A6590BD0CABBFCC7C86BEF99E1034054E179905CFCC294598FCD426C0922442 SWAP1 PUSH1 0x0 SWAP1 LOG3 POP JUMP JUMPDEST CALLER PUSH1 0x0 SWAP1 DUP2 MSTORE PUSH1 0x2 PUSH1 0x20 MSTORE PUSH1 0x40 SWAP1 KECCAK256 SLOAD PUSH1 0xFF AND DUP1 ISZERO PUSH2 0xEDE JUMPI POP CALLER PUSH1 0x0 SWAP1 DUP2 MSTORE PUSH1 0x2 PUSH1 0x20 MSTORE PUSH1 0x40 SWAP1 KECCAK256 PUSH1 0x4 ADD SLOAD PUSH2 0x100 SWAP1 DIV PUSH1 0xFF AND JUMPDEST PUSH2 0xF23 JUMPI PUSH1 0x40 MLOAD PUSH3 0x461BCD PUSH1 0xE5 SHL DUP2 MSTORE PUSH1 0x20 PUSH1 0x4 DUP3 ADD MSTORE PUSH1 0x16 PUSH1 0x24 DUP3 ADD MSTORE PUSH22 0x2737BA1030903B30B634B2103132B732B330B1BA37B9 PUSH1 0x51 SHL PUSH1 0x44 DUP3 ADD MSTORE PUSH1 0x64 ADD PUSH2 0x554 JUMP JUMPDEST PUSH2 0xF2D CALLER DUP4 PUSH2 0x580 JUMP JUMPDEST PUSH2 0xF71 JUMPI PUSH1 0x40 MLOAD PUSH3 0x461BCD PUSH1 0xE5 SHL DUP2 MSTORE PUSH1 0x20 PUSH1 0x4 DUP3 ADD MSTORE PUSH1 0x15 PUSH1 0x24 DUP3 ADD MSTORE PUSH21 0x10995B99599A58DA585C9E481B9BDD08199BDD5B99 PUSH1 0x5A SHL PUSH1 0x44 DUP3 ADD MSTORE PUSH1 0x64 ADD PUSH2 0x554 JUMP JUMPDEST CALLER PUSH1 0x0 SWAP1 DUP2 MSTORE PUSH1 0x2 PUSH1 0x20 SWAP1 DUP2 MSTORE PUSH1 0x40 DUP1 DUP4 KECCAK256 PUSH1 0x1 PUSH1 0x1 PUSH1 0xA0 SHL SUB DUP7 AND DUP5 MSTORE PUSH1 0x1 SWAP1 DUP2 ADD SWAP1 SWAP3 MSTORE DUP3 KECCAK256 ADD SWAP1 JUMPDEST DUP2 SLOAD DUP2 LT ISZERO PUSH2 0x10F7 JUMPI DUP3 PUSH1 0x40 MLOAD PUSH1 0x20 ADD PUSH2 0xFB6 SWAP2 SWAP1 PUSH2 0x1FD6 JUMP JUMPDEST PUSH1 0x40 MLOAD PUSH1 0x20 DUP2 DUP4 SUB SUB DUP2 MSTORE SWAP1 PUSH1 0x40 MSTORE DUP1 MLOAD SWAP1 PUSH1 0x20 ADD KECCAK256 DUP3 DUP3 DUP2 SLOAD DUP2 LT PUSH2 0xFDE JUMPI PUSH2 0xFDE PUSH2 0x1E5E JUMP JUMPDEST SWAP1 PUSH1 0x0 MSTORE PUSH1 0x20 PUSH1 0x0 KECCAK256 ADD PUSH1 0x40 MLOAD PUSH1 0x20 ADD PUSH2 0xFF8 SWAP2 SWAP1 PUSH2 0x1FF2 JUMP JUMPDEST PUSH1 0x40 MLOAD PUSH1 0x20 DUP2 DUP4 SUB SUB DUP2 MSTORE SWAP1 PUSH1 0x40 MSTORE DUP1 MLOAD SWAP1 PUSH1 0x20 ADD KECCAK256 SUB PUSH2 0x10E5 JUMPI DUP2 SLOAD DUP3 SWAP1 PUSH2 0x1023 SWAP1 PUSH1 0x1 SWAP1 PUSH2 0x1E4B JUMP JUMPDEST DUP2 SLOAD DUP2 LT PUSH2 0x1033 JUMPI PUSH2 0x1033 PUSH2 0x1E5E JUMP JUMPDEST SWAP1 PUSH1 0x0 MSTORE PUSH1 0x20 PUSH1 0x0 KECCAK256 ADD DUP3 DUP3 DUP2 SLOAD DUP2 LT PUSH2 0x104F JUMPI PUSH2 0x104F PUSH2 0x1E5E JUMP JUMPDEST SWAP1 PUSH1 0x0 MSTORE PUSH1 0x20 PUSH1 0x0 KECCAK256 ADD SWAP1 DUP2 PUSH2 0x1065 SWAP2 SWAP1 PUSH2 0x2068 JUMP JUMPDEST POP DUP2 DUP1 SLOAD DUP1 PUSH2 0x1076 JUMPI PUSH2 0x1076 PUSH2 0x2143 JUMP JUMPDEST PUSH1 0x1 SWAP1 SUB DUP2 DUP2 SWAP1 PUSH1 0x0 MSTORE PUSH1 0x20 PUSH1 0x0 KECCAK256 ADD PUSH1 0x0 PUSH2 0x1092 SWAP2 SWAP1 PUSH2 0x1AC7 JUMP JUMPDEST SWAP1 SSTORE DUP4 PUSH1 0x1 PUSH1 0x1 PUSH1 0xA0 SHL SUB AND CALLER PUSH1 0x1 PUSH1 0x1 PUSH1 0xA0 SHL SUB AND PUSH32 0x4C13211CE3B2D0CB3E02A662CC071D6BE555042CA58D4D812B7B90E80D3250AC DUP6 PUSH1 0x40 MLOAD PUSH2 0x10D7 SWAP2 SWAP1 PUSH2 0x1D9E JUMP JUMPDEST PUSH1 0x40 MLOAD DUP1 SWAP2 SUB SWAP1 LOG3 POP POP POP POP JUMP JUMPDEST DUP1 PUSH2 0x10EF DUP2 PUSH2 0x1E74 JUMP JUMPDEST SWAP2 POP POP PUSH2 0xF9C JUMP JUMPDEST POP PUSH1 0x40 MLOAD PUSH3 0x461BCD PUSH1 0xE5 SHL DUP2 MSTORE PUSH1 0x20 PUSH1 0x4 DUP3 ADD MSTORE PUSH1 0x24 DUP1 DUP3 ADD MSTORE PUSH32 0x434944206E6F742061737369676E656420746F20746869732062656E65666963 PUSH1 0x44 DUP3 ADD MSTORE PUSH4 0x69617279 PUSH1 0xE0 SHL PUSH1 0x64 DUP3 ADD MSTORE PUSH1 0x84 ADD PUSH2 0x554 JUMP JUMPDEST PUSH1 0x60 PUSH2 0x1158 DUP4 DUP4 PUSH2 0x580 JUMP JUMPDEST ISZERO PUSH2 0x1219 JUMPI PUSH1 0x1 PUSH1 0x1 PUSH1 0xA0 SHL SUB DUP1 DUP5 AND PUSH1 0x0 SWAP1 DUP2 MSTORE PUSH1 0x2 PUSH1 0x20 DUP2 DUP2 MSTORE PUSH1 0x40 DUP1 DUP5 KECCAK256 SWAP5 DUP8 AND DUP5 MSTORE PUSH1 0x1 SWAP1 SWAP5 ADD SWAP1 MSTORE SWAP2 SWAP1 KECCAK256 ADD DUP1 SLOAD PUSH2 0x1194 SWAP1 PUSH2 0x1E8D JUMP JUMPDEST DUP1 PUSH1 0x1F ADD PUSH1 0x20 DUP1 SWAP2 DIV MUL PUSH1 0x20 ADD PUSH1 0x40 MLOAD SWAP1 DUP2 ADD PUSH1 0x40 MSTORE DUP1 SWAP3 SWAP2 SWAP1 DUP2 DUP2 MSTORE PUSH1 0x20 ADD DUP3 DUP1 SLOAD PUSH2 0x11C0 SWAP1 PUSH2 0x1E8D JUMP JUMPDEST DUP1 ISZERO PUSH2 0x120D JUMPI DUP1 PUSH1 0x1F LT PUSH2 0x11E2 JUMPI PUSH2 0x100 DUP1 DUP4 SLOAD DIV MUL DUP4 MSTORE SWAP2 PUSH1 0x20 ADD SWAP2 PUSH2 0x120D JUMP JUMPDEST DUP3 ADD SWAP2 SWAP1 PUSH1 0x0 MSTORE PUSH1 0x20 PUSH1 0x0 KECCAK256 SWAP1 JUMPDEST DUP2 SLOAD DUP2 MSTORE SWAP1 PUSH1 0x1 ADD SWAP1 PUSH1 0x20 ADD DUP1 DUP4 GT PUSH2 0x11F0 JUMPI DUP3 SWAP1 SUB PUSH1 0x1F AND DUP3 ADD SWAP2 JUMPDEST POP POP POP POP POP SWAP1 POP PUSH2 0x5AE JUMP JUMPDEST POP PUSH1 0x40 DUP1 MLOAD PUSH1 0x20 DUP2 ADD SWAP1 SWAP2 MSTORE PUSH1 0x0 DUP2 MSTORE PUSH2 0x5AE JUMP JUMPDEST PUSH1 0x1 PUSH1 0x1 PUSH1 0xA0 SHL SUB DUP2 AND PUSH1 0x0 SWAP1 DUP2 MSTORE PUSH1 0x2 PUSH1 0x20 SWAP1 DUP2 MSTORE PUSH1 0x40 DUP1 DUP4 KECCAK256 CALLER DUP5 MSTORE PUSH1 0x1 ADD SWAP1 SWAP2 MSTORE SWAP1 KECCAK256 SLOAD PUSH1 0xFF AND PUSH2 0x12A4 JUMPI PUSH1 0x40 MLOAD PUSH3 0x461BCD PUSH1 0xE5 SHL DUP2 MSTORE PUSH1 0x20 PUSH1 0x4 DUP3 ADD MSTORE PUSH1 0x17 PUSH1 0x24 DUP3 ADD MSTORE PUSH32 0x4E6F7420612076616C69642062656E6566696369617279000000000000000000 PUSH1 0x44 DUP3 ADD MSTORE PUSH1 0x64 ADD PUSH2 0x554 JUMP JUMPDEST PUSH1 0x1 PUSH1 0x1 PUSH1 0xA0 SHL SUB DUP2 AND PUSH1 0x0 SWAP1 DUP2 MSTORE PUSH1 0x2 PUSH1 0x20 MSTORE PUSH1 0x40 SWAP1 KECCAK256 PUSH1 0x4 ADD SLOAD PUSH1 0xFF AND PUSH2 0x1300 JUMPI PUSH1 0x40 MLOAD CALLER SWAP1 PUSH1 0x1 PUSH1 0x1 PUSH1 0xA0 SHL SUB DUP4 AND SWAP1 PUSH32 0x67C4731BDC193862F421E091D18F46DF876BFE1B8B9AA97504F1D50D425B239D SWAP1 PUSH1 0x0 SWAP1 LOG3 POP JUMP JUMPDEST PUSH1 0x1 PUSH1 0x1 PUSH1 0xA0 SHL SUB DUP2 AND PUSH1 0x0 DUP2 DUP2 MSTORE PUSH1 0x2 PUSH1 0x20 DUP2 SWAP1 MSTORE PUSH1 0x40 SWAP2 DUP3 SWAP1 KECCAK256 PUSH1 0x4 DUP2 ADD DUP1 SLOAD PUSH1 0xFF NOT AND SWAP1 SSTORE TIMESTAMP PUSH1 0x3 DUP3 ADD SSTORE ADD SLOAD SWAP1 MLOAD CALLER SWAP3 SWAP2 PUSH32 0x82595752291D0261DFB9B4B0C2307021C29C34E22FE0697B4840B529DC351BC3 SWAP2 PUSH2 0x1363 SWAP2 DUP2 MSTORE PUSH1 0x20 ADD SWAP1 JUMP JUMPDEST PUSH1 0x40 MLOAD DUP1 SWAP2 SUB SWAP1 LOG3 POP JUMP JUMPDEST CALLER PUSH1 0x0 SWAP1 DUP2 MSTORE PUSH1 0x2 PUSH1 0x20 MSTORE PUSH1 0x40 SWAP1 KECCAK256 SLOAD PUSH1 0xFF AND PUSH2 0x13CD JUMPI PUSH1 0x40 MLOAD PUSH3 0x461BCD PUSH1 0xE5 SHL DUP2 MSTORE PUSH1 0x20 PUSH1 0x4 DUP3 ADD MSTORE PUSH1 0x19 PUSH1 0x24 DUP3 ADD MSTORE PUSH32 0x42656E65666163746F72206E6F74207265676973746572656400000000000000 PUSH1 0x44 DUP3 ADD MSTORE PUSH1 0x64 ADD PUSH2 0x554 JUMP JUMPDEST CALLER PUSH1 0x0 SWAP1 DUP2 MSTORE PUSH1 0x2 PUSH1 0x20 DUP2 SWAP1 MSTORE PUSH1 0x40 DUP1 DUP4 KECCAK256 DUP1 SLOAD PUSH1 0xFF NOT SWAP1 DUP2 AND SWAP1 SWAP2 SSTORE PUSH1 0x1 PUSH1 0x1 PUSH1 0xA0 SHL SUB SWAP5 SWAP1 SWAP5 AND DUP4 MSTORE DUP3 KECCAK256 DUP1 SLOAD SWAP1 SWAP4 AND DUP4 SSTORE DUP3 ADD DUP2 SWAP1 SSTORE PUSH1 0x3 DUP3 ADD SSTORE PUSH1 0x4 ADD DUP1 SLOAD PUSH2 0xFFFF NOT AND SWAP1 SSTORE JUMP JUMPDEST CALLER PUSH1 0x0 SWAP1 DUP2 MSTORE PUSH1 0x2 PUSH1 0x20 MSTORE PUSH1 0x40 SWAP1 KECCAK256 SLOAD PUSH1 0xFF AND DUP1 ISZERO PUSH2 0x144F JUMPI POP CALLER PUSH1 0x0 SWAP1 DUP2 MSTORE PUSH1 0x2 PUSH1 0x20 MSTORE PUSH1 0x40 SWAP1 KECCAK256 PUSH1 0x4 ADD SLOAD PUSH2 0x100 SWAP1 DIV PUSH1 0xFF AND JUMPDEST PUSH2 0x1494 JUMPI PUSH1 0x40 MLOAD PUSH3 0x461BCD PUSH1 0xE5 SHL DUP2 MSTORE PUSH1 0x20 PUSH1 0x4 DUP3 ADD MSTORE PUSH1 0x16 PUSH1 0x24 DUP3 ADD MSTORE PUSH22 0x2737BA1030903B30B634B2103132B732B330B1BA37B9 PUSH1 0x51 SHL PUSH1 0x44 DUP3 ADD MSTORE PUSH1 0x64 ADD PUSH2 0x554 JUMP JUMPDEST CALLER PUSH1 0x0 SWAP1 DUP2 MSTORE PUSH1 0x2 PUSH1 0x20 MSTORE PUSH1 0x40 SWAP1 KECCAK256 PUSH1 0x3 ADD SLOAD ISZERO PUSH2 0x15BE JUMPI PUSH2 0x14B5 CALLER PUSH2 0x45C JUMP JUMPDEST ISZERO PUSH2 0x154B JUMPI CALLER PUSH1 0x1 PUSH1 0x1 PUSH1 0xA0 SHL SUB AND PUSH32 0x793324A6F079E577F4A4646C7EC753EFD3BEDDC2F4CE07BFAE5F105C449AC356 PUSH1 0x40 MLOAD PUSH2 0x1523 SWAP1 PUSH1 0x20 DUP1 DUP3 MSTORE PUSH1 0x13 SWAP1 DUP3 ADD MSTORE PUSH32 0x42656E65666163746F7220697320616C69766500000000000000000000000000 PUSH1 0x40 DUP3 ADD MSTORE PUSH1 0x60 ADD SWAP1 JUMP JUMPDEST PUSH1 0x40 MLOAD DUP1 SWAP2 SUB SWAP1 LOG2 PUSH2 0x1533 PUSH2 0x1930 JUMP JUMPDEST CALLER PUSH1 0x0 SWAP1 DUP2 MSTORE PUSH1 0x2 PUSH1 0x20 MSTORE PUSH1 0x40 SWAP1 KECCAK256 TIMESTAMP PUSH1 0x3 SWAP1 SWAP2 ADD SSTORE JUMP JUMPDEST CALLER PUSH1 0x1 PUSH1 0x1 PUSH1 0xA0 SHL SUB AND PUSH32 0x5A68FA7D6B655A3E592D5D99AC82863424750E9D262C902F30F9E56655E7A856 PUSH1 0x40 MLOAD PUSH2 0x15B4 SWAP1 PUSH1 0x20 DUP1 DUP3 MSTORE PUSH1 0x12 SWAP1 DUP3 ADD MSTORE PUSH32 0x42656E65666163746F7220697320646561640000000000000000000000000000 PUSH1 0x40 DUP3 ADD MSTORE PUSH1 0x60 ADD SWAP1 JUMP JUMPDEST PUSH1 0x40 MLOAD DUP1 SWAP2 SUB SWAP1 LOG2 JUMP JUMPDEST CALLER PUSH1 0x1 PUSH1 0x1 PUSH1 0xA0 SHL SUB AND PUSH32 0x793324A6F079E577F4A4646C7EC753EFD3BEDDC2F4CE07BFAE5F105C449AC356 PUSH1 0x40 MLOAD PUSH2 0x1523 SWAP1 PUSH1 0x20 DUP1 DUP3 MSTORE PUSH1 0x13 SWAP1 DUP3 ADD MSTORE PUSH32 0x42656E65666163746F7220697320616C69766500000000000000000000000000 PUSH1 0x40 DUP3 ADD MSTORE PUSH1 0x60 ADD SWAP1 JUMP JUMPDEST PUSH2 0x1631 DUP4 DUP4 PUSH2 0x580 JUMP JUMPDEST PUSH2 0x167D JUMPI PUSH1 0x40 MLOAD PUSH3 0x461BCD PUSH1 0xE5 SHL DUP2 MSTORE PUSH1 0x20 PUSH1 0x4 DUP3 ADD DUP2 SWAP1 MSTORE PUSH1 0x24 DUP3 ADD MSTORE PUSH32 0x42656E65666963696172792F42656E65666163746F72206E6F7420666F756E64 PUSH1 0x44 DUP3 ADD MSTORE PUSH1 0x64 ADD PUSH2 0x554 JUMP JUMPDEST PUSH1 0x1 PUSH1 0x1 PUSH1 0xA0 SHL SUB DUP1 DUP5 AND PUSH1 0x0 SWAP1 DUP2 MSTORE PUSH1 0x2 PUSH1 0x20 DUP2 DUP2 MSTORE PUSH1 0x40 DUP1 DUP5 KECCAK256 SWAP5 DUP8 AND DUP5 MSTORE PUSH1 0x1 SWAP1 SWAP5 ADD SWAP1 MSTORE SWAP2 SWAP1 KECCAK256 ADD PUSH2 0x16B3 DUP3 DUP3 PUSH2 0x1F16 JUMP JUMPDEST POP DUP2 PUSH1 0x1 PUSH1 0x1 PUSH1 0xA0 SHL SUB AND DUP4 PUSH1 0x1 PUSH1 0x1 PUSH1 0xA0 SHL SUB AND PUSH32 0x812E93BAD7E76E8B51ECDB31C9C69773DBA6B47C2AE9FC763877665448B150D9 DUP4 PUSH1 0x40 MLOAD PUSH2 0x8E9 SWAP2 SWAP1 PUSH2 0x1D9E JUMP JUMPDEST PUSH1 0x60 PUSH2 0x1703 DUP4 DUP4 PUSH2 0x580 JUMP JUMPDEST PUSH2 0x1747 JUMPI PUSH1 0x40 MLOAD PUSH3 0x461BCD PUSH1 0xE5 SHL DUP2 MSTORE PUSH1 0x20 PUSH1 0x4 DUP3 ADD MSTORE PUSH1 0x15 PUSH1 0x24 DUP3 ADD MSTORE PUSH21 0x10995B99599A58DA585C9E481B9BDD08199BDD5B99 PUSH1 0x5A SHL PUSH1 0x44 DUP3 ADD MSTORE PUSH1 0x64 ADD PUSH2 0x554 JUMP JUMPDEST PUSH1 0x1 PUSH1 0x1 PUSH1 0xA0 SHL SUB DUP4 AND PUSH1 0x0 SWAP1 DUP2 MSTORE PUSH1 0x2 PUSH1 0x20 SWAP1 DUP2 MSTORE PUSH1 0x40 DUP1 DUP4 KECCAK256 CALLER DUP5 MSTORE PUSH1 0x1 ADD SWAP1 SWAP2 MSTORE SWAP1 KECCAK256 SLOAD PUSH1 0xFF AND DUP1 ISZERO PUSH2 0x179E JUMPI POP PUSH1 0x1 PUSH1 0x1 PUSH1 0xA0 SHL SUB DUP4 AND PUSH1 0x0 SWAP1 DUP2 MSTORE PUSH1 0x2 PUSH1 0x20 MSTORE PUSH1 0x40 SWAP1 KECCAK256 PUSH1 0x4 ADD SLOAD PUSH2 0x100 SWAP1 DIV PUSH1 0xFF AND ISZERO JUMPDEST PUSH2 0x17EA JUMPI PUSH1 0x40 MLOAD PUSH3 0x461BCD PUSH1 0xE5 SHL DUP2 MSTORE PUSH1 0x20 PUSH1 0x4 DUP3 ADD MSTORE PUSH1 0x11 PUSH1 0x24 DUP3 ADD MSTORE PUSH32 0x4E6F2061636365737320746F2043494473000000000000000000000000000000 PUSH1 0x44 DUP3 ADD MSTORE PUSH1 0x64 ADD PUSH2 0x554 JUMP JUMPDEST PUSH1 0x1 PUSH1 0x1 PUSH1 0xA0 SHL SUB DUP1 DUP5 AND PUSH1 0x0 SWAP1 DUP2 MSTORE PUSH1 0x2 PUSH1 0x20 SWAP1 DUP2 MSTORE PUSH1 0x40 DUP1 DUP4 KECCAK256 SWAP4 DUP7 AND DUP4 MSTORE PUSH1 0x1 SWAP4 DUP5 ADD DUP3 MSTORE DUP1 DUP4 KECCAK256 SWAP1 SWAP4 ADD DUP1 SLOAD DUP5 MLOAD DUP2 DUP5 MUL DUP2 ADD DUP5 ADD SWAP1 SWAP6 MSTORE DUP1 DUP6 MSTORE SWAP1 SWAP3 SWAP1 SWAP2 DUP5 ADD JUMPDEST DUP3 DUP3 LT ISZERO PUSH2 0x18DC JUMPI DUP4 DUP3 SWAP1 PUSH1 0x0 MSTORE PUSH1 0x20 PUSH1 0x0 KECCAK256 ADD DUP1 SLOAD PUSH2 0x184F SWAP1 PUSH2 0x1E8D JUMP JUMPDEST DUP1 PUSH1 0x1F ADD PUSH1 0x20 DUP1 SWAP2 DIV MUL PUSH1 0x20 ADD PUSH1 0x40 MLOAD SWAP1 DUP2 ADD PUSH1 0x40 MSTORE DUP1 SWAP3 SWAP2 SWAP1 DUP2 DUP2 MSTORE PUSH1 0x20 ADD DUP3 DUP1 SLOAD PUSH2 0x187B SWAP1 PUSH2 0x1E8D JUMP JUMPDEST DUP1 ISZERO PUSH2 0x18C8 JUMPI DUP1 PUSH1 0x1F LT PUSH2 0x189D JUMPI PUSH2 0x100 DUP1 DUP4 SLOAD DIV MUL DUP4 MSTORE SWAP2 PUSH1 0x20 ADD SWAP2 PUSH2 0x18C8 JUMP JUMPDEST DUP3 ADD SWAP2 SWAP1 PUSH1 0x0 MSTORE PUSH1 0x20 PUSH1 0x0 KECCAK256 SWAP1 JUMPDEST DUP2 SLOAD DUP2 MSTORE SWAP1 PUSH1 0x1 ADD SWAP1 PUSH1 0x20 ADD DUP1 DUP4 GT PUSH2 0x18AB JUMPI DUP3 SWAP1 SUB PUSH1 0x1F AND DUP3 ADD SWAP2 JUMPDEST POP POP POP POP POP DUP2 MSTORE PUSH1 0x20 ADD SWAP1 PUSH1 0x1 ADD SWAP1 PUSH2 0x1830 JUMP JUMPDEST POP POP POP POP SWAP1 POP SWAP3 SWAP2 POP POP JUMP JUMPDEST PUSH1 0x60 PUSH2 0x18F4 DUP4 DUP4 PUSH2 0x580 JUMP JUMPDEST ISZERO PUSH2 0x1219 JUMPI PUSH1 0x1 PUSH1 0x1 PUSH1 0xA0 SHL SUB DUP1 DUP5 AND PUSH1 0x0 SWAP1 DUP2 MSTORE PUSH1 0x2 PUSH1 0x20 SWAP1 DUP2 MSTORE PUSH1 0x40 DUP1 DUP4 KECCAK256 SWAP4 DUP7 AND DUP4 MSTORE PUSH1 0x1 SWAP1 SWAP4 ADD SWAP1 MSTORE KECCAK256 PUSH1 0x3 ADD DUP1 SLOAD PUSH2 0x1194 SWAP1 PUSH2 0x1E8D JUMP JUMPDEST CALLER PUSH1 0x0 SWAP1 DUP2 MSTORE PUSH1 0x2 PUSH1 0x20 MSTORE PUSH1 0x40 SWAP1 KECCAK256 SLOAD PUSH1 0xFF AND DUP1 ISZERO PUSH2 0x1966 JUMPI POP CALLER PUSH1 0x0 SWAP1 DUP2 MSTORE PUSH1 0x2 PUSH1 0x20 MSTORE PUSH1 0x40 SWAP1 KECCAK256 PUSH1 0x4 ADD SLOAD PUSH2 0x100 SWAP1 DIV PUSH1 0xFF AND JUMPDEST PUSH2 0x19AB JUMPI PUSH1 0x40 MLOAD PUSH3 0x461BCD PUSH1 0xE5 SHL DUP2 MSTORE PUSH1 0x20 PUSH1 0x4 DUP3 ADD MSTORE PUSH1 0x16 PUSH1 0x24 DUP3 ADD MSTORE PUSH22 0x2737BA1030903B30B634B2103132B732B330B1BA37B9 PUSH1 0x51 SHL PUSH1 0x44 DUP3 ADD MSTORE PUSH1 0x64 ADD PUSH2 0x554 JUMP JUMPDEST CALLER PUSH1 0x0 SWAP1 DUP2 MSTORE PUSH1 0x2 PUSH1 0x20 MSTORE PUSH1 0x40 SWAP1 KECCAK256 PUSH1 0x4 ADD SLOAD PUSH1 0xFF AND ISZERO PUSH2 0x19F5 JUMPI PUSH1 0x40 MLOAD CALLER SWAP1 DUP2 SWAP1 PUSH32 0x439C5AAF7691CB4808DBD2A240323CE9EC0D04D66DDF65FFD5F88EBD60FA745B SWAP1 PUSH1 0x0 SWAP1 LOG3 JUMP JUMPDEST CALLER PUSH1 0x0 DUP2 DUP2 MSTORE PUSH1 0x2 PUSH1 0x20 MSTORE PUSH1 0x40 SWAP1 DUP2 SWAP1 KECCAK256 PUSH1 0x4 ADD DUP1 SLOAD PUSH1 0xFF NOT AND PUSH1 0x1 OR SWAP1 SSTORE MLOAD DUP2 SWAP1 PUSH32 0x9BAA855D20DE9B1A4DB454F55B09D1DB5F42F0871BBEA3B0C699146ADE171625 SWAP1 PUSH2 0x1A46 SWAP1 TIMESTAMP DUP2 MSTORE PUSH1 0x20 ADD SWAP1 JUMP JUMPDEST PUSH1 0x40 MLOAD DUP1 SWAP2 SUB SWAP1 LOG3 JUMP JUMPDEST DUP3 DUP1 SLOAD DUP3 DUP3 SSTORE SWAP1 PUSH1 0x0 MSTORE PUSH1 0x20 PUSH1 0x0 KECCAK256 SWAP1 DUP2 ADD SWAP3 DUP3 ISZERO PUSH2 0x1A96 JUMPI SWAP2 PUSH1 0x20 MUL DUP3 ADD JUMPDEST DUP3 DUP2 GT ISZERO PUSH2 0x1A96 JUMPI DUP3 MLOAD DUP3 SWAP1 PUSH2 0x1A86 SWAP1 DUP3 PUSH2 0x1F16 JUMP JUMPDEST POP SWAP2 PUSH1 0x20 ADD SWAP2 SWAP1 PUSH1 0x1 ADD SWAP1 PUSH2 0x1A70 JUMP JUMPDEST POP PUSH2 0x1AA2 SWAP3 SWAP2 POP PUSH2 0x1B01 JUMP JUMPDEST POP SWAP1 JUMP JUMPDEST POP DUP1 SLOAD PUSH1 0x0 DUP3 SSTORE SWAP1 PUSH1 0x0 MSTORE PUSH1 0x20 PUSH1 0x0 KECCAK256 SWAP1 DUP2 ADD SWAP1 PUSH2 0x1AC4 SWAP2 SWAP1 PUSH2 0x1B01 JUMP JUMPDEST POP JUMP JUMPDEST POP DUP1 SLOAD PUSH2 0x1AD3 SWAP1 PUSH2 0x1E8D JUMP JUMPDEST PUSH1 0x0 DUP3 SSTORE DUP1 PUSH1 0x1F LT PUSH2 0x1AE3 JUMPI POP POP JUMP JUMPDEST PUSH1 0x1F ADD PUSH1 0x20 SWAP1 DIV SWAP1 PUSH1 0x0 MSTORE PUSH1 0x20 PUSH1 0x0 KECCAK256 SWAP1 DUP2 ADD SWAP1 PUSH2 0x1AC4 SWAP2 SWAP1 PUSH2 0x1B1E JUMP JUMPDEST DUP1 DUP3 GT ISZERO PUSH2 0x1AA2 JUMPI PUSH1 0x0 PUSH2 0x1B15 DUP3 DUP3 PUSH2 0x1AC7 JUMP JUMPDEST POP PUSH1 0x1 ADD PUSH2 0x1B01 JUMP JUMPDEST JUMPDEST DUP1 DUP3 GT ISZERO PUSH2 0x1AA2 JUMPI PUSH1 0x0 DUP2 SSTORE PUSH1 0x1 ADD PUSH2 0x1B1F JUMP JUMPDEST DUP1 CALLDATALOAD PUSH1 0x1 PUSH1 0x1 PUSH1 0xA0 SHL SUB DUP2 AND DUP2 EQ PUSH2 0x1B4A JUMPI PUSH1 0x0 DUP1 REVERT JUMPDEST SWAP2 SWAP1 POP JUMP JUMPDEST PUSH1 0x0 PUSH1 0x20 DUP3 DUP5 SUB SLT ISZERO PUSH2 0x1B61 JUMPI PUSH1 0x0 DUP1 REVERT JUMPDEST PUSH2 0x455 DUP3 PUSH2 0x1B33 JUMP JUMPDEST PUSH1 0x0 DUP1 PUSH1 0x40 DUP4 DUP6 SUB SLT ISZERO PUSH2 0x1B7D JUMPI PUSH1 0x0 DUP1 REVERT JUMPDEST PUSH2 0x1B86 DUP4 PUSH2 0x1B33 JUMP JUMPDEST SWAP2 POP PUSH2 0x1B94 PUSH1 0x20 DUP5 ADD PUSH2 0x1B33 JUMP JUMPDEST SWAP1 POP SWAP3 POP SWAP3 SWAP1 POP JUMP JUMPDEST PUSH1 0x0 PUSH1 0x60 DUP3 ADD DUP6 ISZERO ISZERO DUP4 MSTORE PUSH1 0x20 PUSH1 0x60 DUP2 DUP6 ADD MSTORE DUP2 DUP7 MLOAD DUP1 DUP5 MSTORE PUSH1 0x80 DUP7 ADD SWAP2 POP DUP3 DUP9 ADD SWAP4 POP PUSH1 0x0 JUMPDEST DUP2 DUP2 LT ISZERO PUSH2 0x1BE9 JUMPI DUP5 MLOAD PUSH1 0x1 PUSH1 0x1 PUSH1 0xA0 SHL SUB AND DUP4 MSTORE SWAP4 DUP4 ADD SWAP4 SWAP2 DUP4 ADD SWAP2 PUSH1 0x1 ADD PUSH2 0x1BC4 JUMP JUMPDEST POP POP DUP1 SWAP4 POP POP POP POP DUP3 PUSH1 0x40 DUP4 ADD MSTORE SWAP5 SWAP4 POP POP POP POP JUMP JUMPDEST PUSH4 0x4E487B71 PUSH1 0xE0 SHL PUSH1 0x0 MSTORE PUSH1 0x41 PUSH1 0x4 MSTORE PUSH1 0x24 PUSH1 0x0 REVERT JUMPDEST PUSH1 0x0 DUP3 PUSH1 0x1F DUP4 ADD SLT PUSH2 0x1C26 JUMPI PUSH1 0x0 DUP1 REVERT JUMPDEST DUP2 CALLDATALOAD PUSH8 0xFFFFFFFFFFFFFFFF DUP1 DUP3 GT ISZERO PUSH2 0x1C41 JUMPI PUSH2 0x1C41 PUSH2 0x1BFF JUMP JUMPDEST PUSH1 0x40 MLOAD PUSH1 0x1F DUP4 ADD PUSH1 0x1F NOT SWAP1 DUP2 AND PUSH1 0x3F ADD AND DUP2 ADD SWAP1 DUP3 DUP3 GT DUP2 DUP4 LT OR ISZERO PUSH2 0x1C69 JUMPI PUSH2 0x1C69 PUSH2 0x1BFF JUMP JUMPDEST DUP2 PUSH1 0x40 MSTORE DUP4 DUP2 MSTORE DUP7 PUSH1 0x20 DUP6 DUP9 ADD ADD GT ISZERO PUSH2 0x1C82 JUMPI PUSH1 0x0 DUP1 REVERT JUMPDEST DUP4 PUSH1 0x20 DUP8 ADD PUSH1 0x20 DUP4 ADD CALLDATACOPY PUSH1 0x0 PUSH1 0x20 DUP6 DUP4 ADD ADD MSTORE DUP1 SWAP5 POP POP POP POP POP SWAP3 SWAP2 POP POP JUMP JUMPDEST PUSH1 0x0 DUP1 PUSH1 0x0 PUSH1 0x60 DUP5 DUP7 SUB SLT ISZERO PUSH2 0x1CB7 JUMPI PUSH1 0x0 DUP1 REVERT JUMPDEST PUSH2 0x1CC0 DUP5 PUSH2 0x1B33 JUMP JUMPDEST SWAP3 POP PUSH2 0x1CCE PUSH1 0x20 DUP6 ADD PUSH2 0x1B33 JUMP JUMPDEST SWAP2 POP PUSH1 0x40 DUP5 ADD CALLDATALOAD PUSH8 0xFFFFFFFFFFFFFFFF DUP2 GT ISZERO PUSH2 0x1CEA JUMPI PUSH1 0x0 DUP1 REVERT JUMPDEST PUSH2 0x1CF6 DUP7 DUP3 DUP8 ADD PUSH2 0x1C15 JUMP JUMPDEST SWAP2 POP POP SWAP3 POP SWAP3 POP SWAP3 JUMP JUMPDEST PUSH1 0x0 DUP1 PUSH1 0x40 DUP4 DUP6 SUB SLT ISZERO PUSH2 0x1D13 JUMPI PUSH1 0x0 DUP1 REVERT JUMPDEST PUSH2 0x1D1C DUP4 PUSH2 0x1B33 JUMP JUMPDEST SWAP2 POP PUSH1 0x20 DUP4 ADD CALLDATALOAD PUSH8 0xFFFFFFFFFFFFFFFF DUP2 GT ISZERO PUSH2 0x1D38 JUMPI PUSH1 0x0 DUP1 REVERT JUMPDEST PUSH2 0x1D44 DUP6 DUP3 DUP7 ADD PUSH2 0x1C15 JUMP JUMPDEST SWAP2 POP POP SWAP3 POP SWAP3 SWAP1 POP JUMP JUMPDEST PUSH1 0x0 JUMPDEST DUP4 DUP2 LT ISZERO PUSH2 0x1D69 JUMPI DUP2 DUP2 ADD MLOAD DUP4 DUP3 ADD MSTORE PUSH1 0x20 ADD PUSH2 0x1D51 JUMP JUMPDEST POP POP PUSH1 0x0 SWAP2 ADD MSTORE JUMP JUMPDEST PUSH1 0x0 DUP2 MLOAD DUP1 DUP5 MSTORE PUSH2 0x1D8A DUP2 PUSH1 0x20 DUP7 ADD PUSH1 0x20 DUP7 ADD PUSH2 0x1D4E JUMP JUMPDEST PUSH1 0x1F ADD PUSH1 0x1F NOT AND SWAP3 SWAP1 SWAP3 ADD PUSH1 0x20 ADD SWAP3 SWAP2 POP POP JUMP JUMPDEST PUSH1 0x20 DUP2 MSTORE PUSH1 0x0 PUSH2 0x455 PUSH1 0x20 DUP4 ADD DUP5 PUSH2 0x1D72 JUMP JUMPDEST PUSH1 0x0 DUP1 PUSH1 0x40 DUP4 DUP6 SUB SLT ISZERO PUSH2 0x1DC4 JUMPI PUSH1 0x0 DUP1 REVERT JUMPDEST POP POP DUP1 CALLDATALOAD SWAP3 PUSH1 0x20 SWAP1 SWAP2 ADD CALLDATALOAD SWAP2 POP JUMP JUMPDEST PUSH1 0x0 PUSH1 0x20 DUP1 DUP4 ADD DUP2 DUP5 MSTORE DUP1 DUP6 MLOAD DUP1 DUP4 MSTORE PUSH1 0x40 DUP7 ADD SWAP2 POP PUSH1 0x40 DUP2 PUSH1 0x5 SHL DUP8 ADD ADD SWAP3 POP DUP4 DUP8 ADD PUSH1 0x0 JUMPDEST DUP3 DUP2 LT ISZERO PUSH2 0x1E28 JUMPI PUSH1 0x3F NOT DUP9 DUP7 SUB ADD DUP5 MSTORE PUSH2 0x1E16 DUP6 DUP4 MLOAD PUSH2 0x1D72 JUMP JUMPDEST SWAP5 POP SWAP3 DUP6 ADD SWAP3 SWAP1 DUP6 ADD SWAP1 PUSH1 0x1 ADD PUSH2 0x1DFA JUMP JUMPDEST POP SWAP3 SWAP8 SWAP7 POP POP POP POP POP POP POP JUMP JUMPDEST PUSH4 0x4E487B71 PUSH1 0xE0 SHL PUSH1 0x0 MSTORE PUSH1 0x11 PUSH1 0x4 MSTORE PUSH1 0x24 PUSH1 0x0 REVERT JUMPDEST DUP2 DUP2 SUB DUP2 DUP2 GT ISZERO PUSH2 0x5AE JUMPI PUSH2 0x5AE PUSH2 0x1E35 JUMP JUMPDEST PUSH4 0x4E487B71 PUSH1 0xE0 SHL PUSH1 0x0 MSTORE PUSH1 0x32 PUSH1 0x4 MSTORE PUSH1 0x24 PUSH1 0x0 REVERT JUMPDEST PUSH1 0x0 PUSH1 0x1 DUP3 ADD PUSH2 0x1E86 JUMPI PUSH2 0x1E86 PUSH2 0x1E35 JUMP JUMPDEST POP PUSH1 0x1 ADD SWAP1 JUMP JUMPDEST PUSH1 0x1 DUP2 DUP2 SHR SWAP1 DUP3 AND DUP1 PUSH2 0x1EA1 JUMPI PUSH1 0x7F DUP3 AND SWAP2 POP JUMPDEST PUSH1 0x20 DUP3 LT DUP2 SUB PUSH2 0x1EC1 JUMPI PUSH4 0x4E487B71 PUSH1 0xE0 SHL PUSH1 0x0 MSTORE PUSH1 0x22 PUSH1 0x4 MSTORE PUSH1 0x24 PUSH1 0x0 REVERT JUMPDEST POP SWAP2 SWAP1 POP JUMP JUMPDEST PUSH1 0x1F DUP3 GT ISZERO PUSH2 0x1F11 JUMPI PUSH1 0x0 DUP2 DUP2 MSTORE PUSH1 0x20 DUP2 KECCAK256 PUSH1 0x1F DUP6 ADD PUSH1 0x5 SHR DUP2 ADD PUSH1 0x20 DUP7 LT ISZERO PUSH2 0x1EEE JUMPI POP DUP1 JUMPDEST PUSH1 0x1F DUP6 ADD PUSH1 0x5 SHR DUP3 ADD SWAP2 POP JUMPDEST DUP2 DUP2 LT ISZERO PUSH2 0x1F0D JUMPI DUP3 DUP2 SSTORE PUSH1 0x1 ADD PUSH2 0x1EFA JUMP JUMPDEST POP POP POP JUMPDEST POP POP POP JUMP JUMPDEST DUP2 MLOAD PUSH8 0xFFFFFFFFFFFFFFFF DUP2 GT ISZERO PUSH2 0x1F30 JUMPI PUSH2 0x1F30 PUSH2 0x1BFF JUMP JUMPDEST PUSH2 0x1F44 DUP2 PUSH2 0x1F3E DUP5 SLOAD PUSH2 0x1E8D JUMP JUMPDEST DUP5 PUSH2 0x1EC7 JUMP JUMPDEST PUSH1 0x20 DUP1 PUSH1 0x1F DUP4 GT PUSH1 0x1 DUP2 EQ PUSH2 0x1F79 JUMPI PUSH1 0x0 DUP5 ISZERO PUSH2 0x1F61 JUMPI POP DUP6 DUP4 ADD MLOAD JUMPDEST PUSH1 0x0 NOT PUSH1 0x3 DUP7 SWAP1 SHL SHR NOT AND PUSH1 0x1 DUP6 SWAP1 SHL OR DUP6 SSTORE PUSH2 0x1F0D JUMP JUMPDEST PUSH1 0x0 DUP6 DUP2 MSTORE PUSH1 0x20 DUP2 KECCAK256 PUSH1 0x1F NOT DUP7 AND SWAP2 JUMPDEST DUP3 DUP2 LT ISZERO PUSH2 0x1FA8 JUMPI DUP9 DUP7 ADD MLOAD DUP3 SSTORE SWAP5 DUP5 ADD SWAP5 PUSH1 0x1 SWAP1 SWAP2 ADD SWAP1 DUP5 ADD PUSH2 0x1F89 JUMP JUMPDEST POP DUP6 DUP3 LT ISZERO PUSH2 0x1FC6 JUMPI DUP8 DUP6 ADD MLOAD PUSH1 0x0 NOT PUSH1 0x3 DUP9 SWAP1 SHL PUSH1 0xF8 AND SHR NOT AND DUP2 SSTORE JUMPDEST POP POP POP POP POP PUSH1 0x1 SWAP1 DUP2 SHL ADD SWAP1 SSTORE POP JUMP JUMPDEST PUSH1 0x0 DUP3 MLOAD PUSH2 0x1FE8 DUP2 DUP5 PUSH1 0x20 DUP8 ADD PUSH2 0x1D4E JUMP JUMPDEST SWAP2 SWAP1 SWAP2 ADD SWAP3 SWAP2 POP POP JUMP JUMPDEST PUSH1 0x0 DUP1 DUP4 SLOAD PUSH2 0x2000 DUP2 PUSH2 0x1E8D JUMP JUMPDEST PUSH1 0x1 DUP3 DUP2 AND DUP1 ISZERO PUSH2 0x2018 JUMPI PUSH1 0x1 DUP2 EQ PUSH2 0x202D JUMPI PUSH2 0x205C JUMP JUMPDEST PUSH1 0xFF NOT DUP5 AND DUP8 MSTORE DUP3 ISZERO ISZERO DUP4 MUL DUP8 ADD SWAP5 POP PUSH2 0x205C JUMP JUMPDEST DUP8 PUSH1 0x0 MSTORE PUSH1 0x20 DUP1 PUSH1 0x0 KECCAK256 PUSH1 0x0 JUMPDEST DUP6 DUP2 LT ISZERO PUSH2 0x2053 JUMPI DUP2 SLOAD DUP11 DUP3 ADD MSTORE SWAP1 DUP5 ADD SWAP1 DUP3 ADD PUSH2 0x203A JUMP JUMPDEST POP POP POP DUP3 DUP8 ADD SWAP5 POP JUMPDEST POP SWAP3 SWAP7 SWAP6 POP POP POP POP POP POP JUMP JUMPDEST DUP2 DUP2 SUB PUSH2 0x2073 JUMPI POP POP JUMP JUMPDEST PUSH2 0x207D DUP3 SLOAD PUSH2 0x1E8D JUMP JUMPDEST PUSH8 0xFFFFFFFFFFFFFFFF DUP2 GT ISZERO PUSH2 0x2095 JUMPI PUSH2 0x2095 PUSH2 0x1BFF JUMP JUMPDEST PUSH2 0x20A3 DUP2 PUSH2 0x1F3E DUP5 SLOAD PUSH2 0x1E8D JUMP JUMPDEST PUSH1 0x0 PUSH1 0x1F DUP3 GT PUSH1 0x1 DUP2 EQ PUSH2 0x20D7 JUMPI PUSH1 0x0 DUP4 ISZERO PUSH2 0x20BF JUMPI POP DUP5 DUP3 ADD SLOAD JUMPDEST PUSH1 0x0 NOT PUSH1 0x3 DUP6 SWAP1 SHL SHR NOT AND PUSH1 0x1 DUP5 SWAP1 SHL OR DUP5 SSTORE PUSH2 0x213C JUMP JUMPDEST PUSH1 0x0 DUP6 DUP2 MSTORE PUSH1 0x20 SWAP1 KECCAK256 PUSH1 0x1F NOT DUP5 AND SWAP1 PUSH1 0x0 DUP7 DUP2 MSTORE PUSH1 0x20 SWAP1 KECCAK256 DUP5 JUMPDEST DUP4 DUP2 LT ISZERO PUSH2 0x2111 JUMPI DUP3 DUP7 ADD SLOAD DUP3 SSTORE PUSH1 0x1 SWAP6 DUP7 ADD SWAP6 SWAP1 SWAP2 ADD SWAP1 PUSH1 0x20 ADD PUSH2 0x20F1 JUMP JUMPDEST POP DUP6 DUP4 LT ISZERO PUSH2 0x212F JUMPI DUP2 DUP6 ADD SLOAD PUSH1 0x0 NOT PUSH1 0x3 DUP9 SWAP1 SHL PUSH1 0xF8 AND SHR NOT AND DUP2 SSTORE JUMPDEST POP POP POP PUSH1 0x1 DUP4 PUSH1 0x1 SHL ADD DUP5 SSTORE JUMPDEST POP POP POP POP POP JUMP JUMPDEST PUSH4 0x4E487B71 PUSH1 0xE0 SHL PUSH1 0x0 MSTORE PUSH1 0x31 PUSH1 0x4 MSTORE PUSH1 0x24 PUSH1 0x0 REVERT INVALID LOG2 PUSH5 0x6970667358 0x22 SLT KECCAK256 0x5C 0xC5 0xDD PUSH3 0xE797DD PUSH20 0x533C71035429680C80100B3F48EAEA2E561CA518 SWAP16 JUMP SWAP11 0xE4 PUSH5 0x736F6C6343 STOP ADDMOD GT STOP CALLER "
    },
    "gasEstimates": {
      "creation": {
        "codeDepositCost": "1718200",
        "executionCost": "11818",
        "totalCost": "1730018"
      },
      "external": {
        "addBenefactorPublicKey(address,address,string)": "infinite",
        "addBeneficiary(address)": "infinite",
        "addBeneficiaryPublicKey(address,address,string)": "infinite",
        "addIpfsCID(address,string)": "infinite",
        "checkAliveStatus(address)": "infinite",
        "enableSwitch(address)": "55244",
        "getBenefactorPublicKey(address,address)": "infinite",
        "getBeneficiaryPublicKey(address,address)": "infinite",
        "getCIDs(address,address)": "infinite",
        "getData(address)": "infinite",
        "getPrimeAndGenerator()": "4452",
        "getRemainingCountdownTime(address)": "infinite",
        "getSwitchStatus(address)": "4828",
        "isBeneficiary(address,address)": "infinite",
        "removeBenefactor(address)": "85421",
        "removeBeneficiary(address)": "infinite",
        "removeIpfsCID(address,string)": "infinite",
        "respondToSwitch()": "infinite",
        "setBenefactor()": "75883",
        "setPrimeAndGenerator(uint256,uint256)": "44492"
      },
      "internal": {
        "disableSwitch()": "infinite",
        "getBeneficiariesCount(address)": "infinite"
      }
    },
    "methodIdentifiers": {
      "addBenefactorPublicKey(address,address,string)": "d51c3199",
      "addBeneficiary(address)": "5926651d",
      "addBeneficiaryPublicKey(address,address,string)": "3dea2f84",
      "addIpfsCID(address,string)": "5211287e",
      "checkAliveStatus(address)": "072039a2",
      "enableSwitch(address)": "8d5492e4",
      "getBenefactorPublicKey(address,address)": "87ce1ca8",
      "getBeneficiaryPublicKey(address,address)": "f892cb36",
      "getCIDs(address,address)": "df78bc54",
      "getData(address)": "38266b22",
      "getPrimeAndGenerator()": "46437d3a",
      "getRemainingCountdownTime(address)": "01e2b33f",
      "getSwitchStatus(address)": "07a8b767",
      "isBeneficiary(address,address)": "096e27d9",
      "removeBenefactor(address)": "a98d22bc",
      "removeBeneficiary(address)": "59633a1c",
      "removeIpfsCID(address,string)": "87c63714",
      "respondToSwitch()": "cd9c9362",
      "setBenefactor()": "196ba7ef",
      "setPrimeAndGenerator(uint256,uint256)": "ccb53a09"
    }
  },
  "storageLayout": {
    "storage": [
      {
        "astId": 31,
        "contract": "DeadMansSwitch.sol:BenefactorsDeadManSwitch",
        "label": "prime",
        "offset": 0,
        "slot": "0",
        "type": "t_uint256"
      },
      {
        "astId": 34,
        "contract": "DeadMansSwitch.sol:BenefactorsDeadManSwitch",
        "label": "generator",
        "offset": 0,
        "slot": "1",
        "type": "t_uint256"
      },
      {
        "astId": 39,
        "contract": "DeadMansSwitch.sol:BenefactorsDeadManSwitch",
        "label": "benefactors",
        "offset": 0,
        "slot": "2",
        "type": "t_mapping(t_address,t_struct(BenefactorInfo)28_storage)"
      },
      {
        "astId": 44,
        "contract": "DeadMansSwitch.sol:BenefactorsDeadManSwitch",
        "label": "beneficiaryKeys",
        "offset": 0,
        "slot": "3",
        "type": "t_mapping(t_address,t_array(t_address)dyn_storage)"
      }
    ],
    "types": {
      "t_address": {
        "encoding": "inplace",
        "label": "address",
        "numberOfBytes": "20"
      },
      "t_array(t_address)dyn_storage": {
        "base": "t_address",
        "encoding": "dynamic_array",
        "label": "address[]",
        "numberOfBytes": "32"
      },
      "t_array(t_string_storage)dyn_storage": {
        "base": "t_string_storage",
        "encoding": "dynamic_array",
        "label": "string[]",
        "numberOfBytes": "32"
      },
      "t_bool": {
        "encoding": "inplace",
        "label": "bool",
        "numberOfBytes": "1"
      },
      "t_mapping(t_address,t_array(t_address)dyn_storage)": {
        "encoding": "mapping",
        "key": "t_address",
        "label": "mapping(address => address[])",
        "numberOfBytes": "32",
        "value": "t_array(t_address)dyn_storage"
      },
      "t_mapping(t_address,t_struct(BenefactorInfo)28_storage)": {
        "encoding": "mapping",
        "key": "t_address",
        "label": "mapping(address => struct BenefactorsDeadManSwitch.BenefactorInfo)",
        "numberOfBytes": "32",
        "value": "t_struct(BenefactorInfo)28_storage"
      },
      "t_mapping(t_address,t_struct(Beneficiary)12_storage)": {
        "encoding": "mapping",
        "key": "t_address",
        "label": "mapping(address => struct BenefactorsDeadManSwitch.Beneficiary)",
        "numberOfBytes": "32",
        "value": "t_struct(Beneficiary)12_storage"
      },
      "t_string_storage": {
        "encoding": "bytes",
        "label": "string",
        "numberOfBytes": "32"
      },
      "t_struct(BenefactorInfo)28_storage": {
        "encoding": "inplace",
        "label": "struct BenefactorsDeadManSwitch.BenefactorInfo",
        "members": [
          {
            "astId": 14,
            "contract": "DeadMansSwitch.sol:BenefactorsDeadManSwitch",
            "label": "exists",
            "offset": 0,
            "slot": "0",
            "type": "t_bool"
          },
          {
            "astId": 19,
            "contract": "DeadMansSwitch.sol:BenefactorsDeadManSwitch",
            "label": "beneficiaries",
            "offset": 0,
            "slot": "1",
            "type": "t_mapping(t_address,t_struct(Beneficiary)12_storage)"
          },
          {
            "astId": 21,
            "contract": "DeadMansSwitch.sol:BenefactorsDeadManSwitch",
            "label": "countdownDuration",
            "offset": 0,
            "slot": "2",
            "type": "t_uint256"
          },
          {
            "astId": 23,
            "contract": "DeadMansSwitch.sol:BenefactorsDeadManSwitch",
            "label": "lastBenefactorResponseTime",
            "offset": 0,
            "slot": "3",
            "type": "t_uint256"
          },
          {
            "astId": 25,
            "contract": "DeadMansSwitch.sol:BenefactorsDeadManSwitch",
            "label": "isSwitchedOff",
            "offset": 0,
            "slot": "4",
            "type": "t_bool"
          },
          {
            "astId": 27,
            "contract": "DeadMansSwitch.sol:BenefactorsDeadManSwitch",
            "label": "isAlive",
            "offset": 1,
            "slot": "4",
            "type": "t_bool"
          }
        ],
        "numberOfBytes": "160"
      },
      "t_struct(Beneficiary)12_storage": {
        "encoding": "inplace",
        "label": "struct BenefactorsDeadManSwitch.Beneficiary",
        "members": [
          {
            "astId": 4,
            "contract": "DeadMansSwitch.sol:BenefactorsDeadManSwitch",
            "label": "exists",
            "offset": 0,
            "slot": "0",
            "type": "t_bool"
          },
          {
            "astId": 7,
            "contract": "DeadMansSwitch.sol:BenefactorsDeadManSwitch",
            "label": "ipfsCIDs",
            "offset": 0,
            "slot": "1",
            "type": "t_array(t_string_storage)dyn_storage"
          },
          {
            "astId": 9,
            "contract": "DeadMansSwitch.sol:BenefactorsDeadManSwitch",
            "label": "benefactorPublicKey",
            "offset": 0,
            "slot": "2",
            "type": "t_string_storage"
          },
          {
            "astId": 11,
            "contract": "DeadMansSwitch.sol:BenefactorsDeadManSwitch",
            "label": "beneficiaryPublicKey",
            "offset": 0,
            "slot": "3",
            "type": "t_string_storage"
          }
        ],
        "numberOfBytes": "128"
      },
      "t_uint256": {
        "encoding": "inplace",
        "label": "uint256",
        "numberOfBytes": "32"
      }
    }
  },
  "userdoc": {
    "kind": "user",
    "methods": {},
    "version": 1
  }
}