{
  "abi": [
    {
      "inputs": [],
      "stateMutability": "nonpayable",
      "type": "constructor"
    },
    {
      "anonymous": false,
      "inputs": [
        {
          "indexed": true,
          "internalType": "address",
          "name": "benefactor",
          "type": "address"
        },
        {
          "indexed": false,
          "internalType": "string",
          "name": "aliveStatus",
          "type": "string"
        }
      ],
      "name": "BenefactorIsAlive",
      "type": "event"
    },
    {
      "anonymous": false,
      "inputs": [
        {
          "indexed": true,
          "internalType": "address",
          "name": "benefactor",
          "type": "address"
        },
        {
          "indexed": false,
          "internalType": "string",
          "name": "deadStatus",
          "type": "string"
        }
      ],
      "name": "BenefactorIsDead",
      "type": "event"
    },
    {
      "anonymous": false,
      "inputs": [
        {
          "indexed": true,
          "internalType": "address",
          "name": "benefactor",
          "type": "address"
        },
        {
          "indexed": false,
          "internalType": "string",
          "name": "key",
          "type": "string"
        }
      ],
      "name": "BenefactorKeyAdded",
      "type": "event"
    },
    {
      "anonymous": false,
      "inputs": [
        {
          "indexed": false,
          "internalType": "bool",
          "name": "switchStatus",
          "type": "bool"
        },
        {
          "indexed": false,
          "internalType": "address[]",
          "name": "beneficiaries",
          "type": "address[]"
        },
        {
          "indexed": false,
          "internalType": "uint256",
          "name": "remainingTime",
          "type": "uint256"
        },
        {
          "indexed": false,
          "internalType": "bool",
          "name": "isAlive",
          "type": "bool"
        },
        {
          "indexed": false,
          "internalType": "string",
          "name": "publicKey",
          "type": "string"
        }
      ],
      "name": "BenefactorsData",
      "type": "event"
    },
    {
      "anonymous": false,
      "inputs": [
        {
          "indexed": false,
          "internalType": "bool",
          "name": "switchStatus",
          "type": "bool"
        },
        {
          "indexed": false,
          "internalType": "uint256",
          "name": "remainingTime",
          "type": "uint256"
        },
        {
          "indexed": false,
          "internalType": "bool",
          "name": "isAlive",
          "type": "bool"
        },
        {
          "indexed": false,
          "internalType": "string",
          "name": "publicKey",
          "type": "string"
        }
      ],
      "name": "BeneficiariesData",
      "type": "event"
    },
    {
      "anonymous": false,
      "inputs": [
        {
          "indexed": true,
          "internalType": "address",
          "name": "benefactor",
          "type": "address"
        },
        {
          "indexed": true,
          "internalType": "address",
          "name": "beneficiary",
          "type": "address"
        }
      ],
      "name": "BeneficiaryAdded",
      "type": "event"
    },
    {
      "anonymous": false,
      "inputs": [
        {
          "indexed": true,
          "internalType": "address",
          "name": "benefactor",
          "type": "address"
        },
        {
          "indexed": true,
          "internalType": "address",
          "name": "beneficiary",
          "type": "address"
        },
        {
          "indexed": false,
          "internalType": "string",
          "name": "key",
          "type": "string"
        }
      ],
      "name": "BeneficiaryKeyAdded",
      "type": "event"
    },
    {
      "anonymous": false,
      "inputs": [
        {
          "indexed": true,
          "internalType": "address",
          "name": "benefactor",
          "type": "address"
        },
        {
          "indexed": true,
          "internalType": "address",
          "name": "beneficiary",
          "type": "address"
        }
      ],
      "name": "BeneficiaryRemoved",
      "type": "event"
    },
    {
      "anonymous": false,
      "inputs": [
        {
          "indexed": true,
          "internalType": "address",
          "name": "benefactor",
          "type": "address"
        },
        {
          "indexed": true,
          "internalType": "address",
          "name": "caller",
          "type": "address"
        },
        {
          "indexed": false,
          "internalType": "uint256",
          "name": "responseTime",
          "type": "uint256"
        }
      ],
      "name": "DeadMansSwitchDisabled",
      "type": "event"
    },
    {
      "anonymous": false,
      "inputs": [
        {
          "indexed": true,
          "internalType": "address",
          "name": "benefactor",
          "type": "address"
        },
        {
          "indexed": true,
          "internalType": "address",
          "name": "beneficiary",
          "type": "address"
        },
        {
          "indexed": false,
          "internalType": "uint256",
          "name": "countdownDuration",
          "type": "uint256"
        }
      ],
      "name": "DeadMansSwitchEnabled",
      "type": "event"
    },
    {
      "anonymous": false,
      "inputs": [
        {
          "indexed": true,
          "internalType": "address",
          "name": "benefactor",
          "type": "address"
        },
        {
          "indexed": true,
          "internalType": "address",
          "name": "beneficiary",
          "type": "address"
        },
        {
          "indexed": false,
          "internalType": "string",
          "name": "ipfsCID",
          "type": "string"
        }
      ],
      "name": "IpfsCIDAdded",
      "type": "event"
    },
    {
      "anonymous": false,
      "inputs": [
        {
          "indexed": true,
          "internalType": "address",
          "name": "benefactor",
          "type": "address"
        },
        {
          "indexed": true,
          "internalType": "address",
          "name": "beneficiary",
          "type": "address"
        },
        {
          "indexed": false,
          "internalType": "string",
          "name": "ipfsCID",
          "type": "string"
        }
      ],
      "name": "IpfsCIDRemoved",
      "type": "event"
    },
    {
      "anonymous": false,
      "inputs": [
        {
          "indexed": true,
          "internalType": "address",
          "name": "benefactor",
          "type": "address"
        },
        {
          "indexed": false,
          "internalType": "uint256",
          "name": "countdownDuration",
          "type": "uint256"
        },
        {
          "indexed": false,
          "internalType": "uint256",
          "name": "responseTime",
          "type": "uint256"
        },
        {
          "indexed": false,
          "internalType": "uint256",
          "name": "currentTime",
          "type": "uint256"
        },
        {
          "indexed": false,
          "internalType": "uint256",
          "name": "lastBenefactorResponseTime",
          "type": "uint256"
        }
      ],
      "name": "RemainingCountdownInfo",
      "type": "event"
    },
    {
      "anonymous": false,
      "inputs": [
        {
          "indexed": true,
          "internalType": "address",
          "name": "benefactor",
          "type": "address"
        },
        {
          "indexed": true,
          "internalType": "address",
          "name": "caller",
          "type": "address"
        }
      ],
      "name": "SwitchAlreadyOff",
      "type": "event"
    },
    {
      "anonymous": false,
      "inputs": [
        {
          "indexed": true,
          "internalType": "address",
          "name": "benefactor",
          "type": "address"
        },
        {
          "indexed": true,
          "internalType": "address",
          "name": "caller",
          "type": "address"
        }
      ],
      "name": "SwitchAlreadyOn",
      "type": "event"
    },
    {
      "inputs": [
        {
          "internalType": "address",
          "name": "_benefactor",
          "type": "address"
        },
        {
          "internalType": "string",
          "name": "_key",
          "type": "string"
        }
      ],
      "name": "addBenefactorPublicKey",
      "outputs": [],
      "stateMutability": "nonpayable",
      "type": "function"
    },
    {
      "inputs": [
        {
          "internalType": "address[]",
          "name": "_beneficiaries",
          "type": "address[]"
        }
      ],
      "name": "addBeneficiaries",
      "outputs": [],
      "stateMutability": "nonpayable",
      "type": "function"
    },
    {
      "inputs": [
        {
          "internalType": "address",
          "name": "_benefactor",
          "type": "address"
        },
        {
          "internalType": "address",
          "name": "_beneficiary",
          "type": "address"
        },
        {
          "internalType": "string",
          "name": "_key",
          "type": "string"
        }
      ],
      "name": "addBeneficiaryPublicKey",
      "outputs": [],
      "stateMutability": "nonpayable",
      "type": "function"
    },
    {
      "inputs": [
        {
          "internalType": "address",
          "name": "_beneficiary",
          "type": "address"
        },
        {
          "internalType": "string[]",
          "name": "_ipfsCIDs",
          "type": "string[]"
        }
      ],
      "name": "addIpfsCIDs",
      "outputs": [],
      "stateMutability": "nonpayable",
      "type": "function"
    },
    {
      "inputs": [
        {
          "internalType": "address",
          "name": "_benefactor",
          "type": "address"
        }
      ],
      "name": "checkAliveStatus",
      "outputs": [
        {
          "internalType": "bool",
          "name": "",
          "type": "bool"
        }
      ],
      "stateMutability": "nonpayable",
      "type": "function"
    },
    {
      "inputs": [
        {
          "internalType": "address",
          "name": "_benefactor",
          "type": "address"
        }
      ],
      "name": "enableSwitch",
      "outputs": [],
      "stateMutability": "nonpayable",
      "type": "function"
    },
    {
      "inputs": [
        {
          "internalType": "address",
          "name": "_benefactor",
          "type": "address"
        }
      ],
      "name": "getBenefactorData",
      "outputs": [
        {
          "internalType": "bool",
          "name": "switchStatus",
          "type": "bool"
        },
        {
          "internalType": "address[]",
          "name": "beneficiaries",
          "type": "address[]"
        },
        {
          "internalType": "uint256",
          "name": "remainingTime",
          "type": "uint256"
        },
        {
          "internalType": "bool",
          "name": "isAlive",
          "type": "bool"
        },
        {
          "internalType": "string",
          "name": "publicKey",
          "type": "string"
        }
      ],
      "stateMutability": "nonpayable",
      "type": "function"
    },
    {
      "inputs": [
        {
          "internalType": "address",
          "name": "_benefactor",
          "type": "address"
        }
      ],
      "name": "getBenefactorPublicKey",
      "outputs": [
        {
          "internalType": "string",
          "name": "",
          "type": "string"
        }
      ],
      "stateMutability": "view",
      "type": "function"
    },
    {
      "inputs": [
        {
          "internalType": "address",
          "name": "_benefactor",
          "type": "address"
        },
        {
          "internalType": "address",
          "name": "_beneficiary",
          "type": "address"
        }
      ],
      "name": "getBeneficiaryData",
      "outputs": [
        {
          "internalType": "bool",
          "name": "switchStatus",
          "type": "bool"
        },
        {
          "internalType": "uint256",
          "name": "remainingTime",
          "type": "uint256"
        },
        {
          "internalType": "bool",
          "name": "isAlive",
          "type": "bool"
        },
        {
          "internalType": "string",
          "name": "publicKey",
          "type": "string"
        }
      ],
      "stateMutability": "nonpayable",
      "type": "function"
    },
    {
      "inputs": [
        {
          "internalType": "address",
          "name": "_benefactor",
          "type": "address"
        },
        {
          "internalType": "address",
          "name": "_beneficiary",
          "type": "address"
        }
      ],
      "name": "getBeneficiaryPublicKey",
      "outputs": [
        {
          "internalType": "string",
          "name": "",
          "type": "string"
        }
      ],
      "stateMutability": "view",
      "type": "function"
    },
    {
      "inputs": [
        {
          "internalType": "address",
          "name": "_benefactor",
          "type": "address"
        },
        {
          "internalType": "address",
          "name": "_beneficiary",
          "type": "address"
        }
      ],
      "name": "getCIDs",
      "outputs": [
        {
          "internalType": "string[]",
          "name": "",
          "type": "string[]"
        }
      ],
      "stateMutability": "view",
      "type": "function"
    },
    {
      "inputs": [
        {
          "internalType": "address",
          "name": "_benefactor",
          "type": "address"
        }
      ],
      "name": "getRemainingCountdownTime",
      "outputs": [
        {
          "internalType": "uint256",
          "name": "",
          "type": "uint256"
        }
      ],
      "stateMutability": "nonpayable",
      "type": "function"
    },
    {
      "inputs": [
        {
          "internalType": "address",
          "name": "_benefactor",
          "type": "address"
        }
      ],
      "name": "getSwitchStatus",
      "outputs": [
        {
          "internalType": "bool",
          "name": "",
          "type": "bool"
        }
      ],
      "stateMutability": "view",
      "type": "function"
    },
    {
      "inputs": [
        {
          "internalType": "address",
          "name": "_benefactor",
          "type": "address"
        },
        {
          "internalType": "address",
          "name": "_address",
          "type": "address"
        }
      ],
      "name": "isBeneficiary",
      "outputs": [
        {
          "internalType": "bool",
          "name": "",
          "type": "bool"
        }
      ],
      "stateMutability": "view",
      "type": "function"
    },
    {
      "inputs": [
        {
          "internalType": "address",
          "name": "_benefactor",
          "type": "address"
        }
      ],
      "name": "removeBenefactor",
      "outputs": [],
      "stateMutability": "nonpayable",
      "type": "function"
    },
    {
      "inputs": [
        {
          "internalType": "address",
          "name": "_beneficiary",
          "type": "address"
        }
      ],
      "name": "removeBeneficiary",
      "outputs": [],
      "stateMutability": "nonpayable",
      "type": "function"
    },
    {
      "inputs": [
        {
          "internalType": "address",
          "name": "_beneficiary",
          "type": "address"
        },
        {
          "internalType": "string",
          "name": "_ipfsCID",
          "type": "string"
        }
      ],
      "name": "removeIpfsCID",
      "outputs": [],
      "stateMutability": "nonpayable",
      "type": "function"
    },
    {
      "inputs": [],
      "name": "respondToSwitch",
      "outputs": [],
      "stateMutability": "nonpayable",
      "type": "function"
    },
    {
      "inputs": [],
      "name": "setBenefactor",
      "outputs": [],
      "stateMutability": "nonpayable",
      "type": "function"
    }
  ],
  "devdoc": {
    "details": "Smart contract for managing a benefactor's dead man's switch with assigned beneficiaries.",
    "kind": "dev",
    "methods": {
      "addBenefactorPublicKey(address,string)": {
        "details": "adds the benefactor public key to the specified benefactor-beneficiary pair"
      },
      "addBeneficiaries(address[])": {
        "details": "Adds new beneficiaries to the list. Only callable by the benefactor.",
        "params": {
          "_beneficiaries": "The addresses of the new beneficiaries."
        }
      },
      "addBeneficiaryPublicKey(address,address,string)": {
        "details": "adds the beneficiary public key to the specified benefactor-beneficiary pair"
      },
      "checkAliveStatus(address)": {
        "details": "Checks the alive status of the benefactor.",
        "params": {
          "_benefactor": "The address of the benefactor."
        },
        "returns": {
          "_0": "A boolean indicating whether the benefactor is alive."
        }
      },
      "enableSwitch(address)": {
        "details": "Enables the dead man's switch. Only callable by beneficiaries.",
        "params": {
          "_benefactor": "The address of the benefactor."
        }
      },
      "getBenefactorData(address)": {
        "details": "Returns current data of benefactor."
      },
      "getBenefactorPublicKey(address)": {
        "details": "returns the benefactor public key from the specified benefactor-beneficiary pair"
      },
      "getBeneficiaryData(address,address)": {
        "details": "Returns current status of benefactor to beneficiary."
      },
      "getBeneficiaryPublicKey(address,address)": {
        "details": "returns the beneficiary public key from the specified benefactor-beneficiary pair"
      },
      "getCIDs(address,address)": {
        "details": "Release CIDs to beneficiary.",
        "params": {
          "_benefactor": "The address of the benefactor.",
          "_beneficiary": "The address of the beneficiary."
        }
      },
      "getRemainingCountdownTime(address)": {
        "details": "Returns the remaining countdown time.",
        "params": {
          "_benefactor": "The address of the benefactor."
        },
        "returns": {
          "_0": "The remaining countdown time in seconds."
        }
      },
      "isBeneficiary(address,address)": {
        "details": "Checks if the given address is a beneficiary. Only benefactor",
        "params": {
          "_address": "The address to check."
        },
        "returns": {
          "_0": "A boolean indicating whether the address is a beneficiary."
        }
      },
      "removeBenefactor(address)": {
        "details": "Removes a benefactor. Only callable by benefactor."
      },
      "removeBeneficiary(address)": {
        "details": "Removes a beneficiary from the list. Only callable by the benefactor.",
        "params": {
          "_beneficiary": "The address of the beneficiary to be removed."
        }
      },
      "removeIpfsCID(address,string)": {
        "details": "Removes an IPFS CID from the specified beneficiary. Only callable by benefactor.",
        "params": {
          "_beneficiary": "The address of the beneficiary.",
          "_ipfsCID": "The IPFS CID to remove."
        }
      },
      "respondToSwitch()": {
        "details": "Performs actions based on benefactor's activity when responding to an enabled switch. Only callable by the benefactor."
      },
      "setBenefactor()": {
        "details": "Sets up a benefactor. Only callable by benefactor."
      }
    },
    "title": "BenefactorsDeadManSwitch",
    "version": 1
  },
  "evm": {
    "assembly": "    /* \"DeadMansSwitch.sol\":235:16515  contract BenefactorsDeadManSwitch {... */\n  mstore(0x40, 0x80)\n    /* \"DeadMansSwitch.sol\":2707:2723  constructor() {} */\n  callvalue\n  dup1\n  iszero\n  tag_1\n  jumpi\n  0x00\n  dup1\n  revert\ntag_1:\n  pop\n    /* \"DeadMansSwitch.sol\":235:16515  contract BenefactorsDeadManSwitch {... */\n  dataSize(sub_0)\n  dup1\n  dataOffset(sub_0)\n  0x00\n  codecopy\n  0x00\n  return\nstop\n\nsub_0: assembly {\n        /* \"DeadMansSwitch.sol\":235:16515  contract BenefactorsDeadManSwitch {... */\n      mstore(0x40, 0x80)\n      callvalue\n      dup1\n      iszero\n      tag_1\n      jumpi\n      0x00\n      dup1\n      revert\n    tag_1:\n      pop\n      jumpi(tag_2, lt(calldatasize, 0x04))\n      shr(0xe0, calldataload(0x00))\n      dup1\n      0x87c63714\n      gt\n      tag_22\n      jumpi\n      dup1\n      0xcd9c9362\n      gt\n      tag_23\n      jumpi\n      dup1\n      0xdf78bc54\n      gt\n      tag_24\n      jumpi\n      dup1\n      0xdf78bc54\n      eq\n      tag_19\n      jumpi\n      dup1\n      0xe9e6630a\n      eq\n      tag_20\n      jumpi\n      dup1\n      0xf892cb36\n      eq\n      tag_21\n      jumpi\n      0x00\n      dup1\n      revert\n    tag_24:\n      dup1\n      0xcd9c9362\n      eq\n      tag_17\n      jumpi\n      dup1\n      0xd0e2892c\n      eq\n      tag_18\n      jumpi\n      0x00\n      dup1\n      revert\n    tag_23:\n      dup1\n      0xa98d22bc\n      gt\n      tag_25\n      jumpi\n      dup1\n      0xa98d22bc\n      eq\n      tag_14\n      jumpi\n      dup1\n      0xb83f4805\n      eq\n      tag_15\n      jumpi\n      dup1\n      0xb944559d\n      eq\n      tag_16\n      jumpi\n      0x00\n      dup1\n      revert\n    tag_25:\n      dup1\n      0x87c63714\n      eq\n      tag_12\n      jumpi\n      dup1\n      0x8d5492e4\n      eq\n      tag_13\n      jumpi\n      0x00\n      dup1\n      revert\n    tag_22:\n      dup1\n      0x196ba7ef\n      gt\n      tag_26\n      jumpi\n      dup1\n      0x590411da\n      gt\n      tag_27\n      jumpi\n      dup1\n      0x590411da\n      eq\n      tag_9\n      jumpi\n      dup1\n      0x59633a1c\n      eq\n      tag_10\n      jumpi\n      dup1\n      0x6d769717\n      eq\n      tag_11\n      jumpi\n      0x00\n      dup1\n      revert\n    tag_27:\n      dup1\n      0x196ba7ef\n      eq\n      tag_7\n      jumpi\n      dup1\n      0x3dea2f84\n      eq\n      tag_8\n      jumpi\n      0x00\n      dup1\n      revert\n    tag_26:\n      dup1\n      0x01e2b33f\n      eq\n      tag_3\n      jumpi\n      dup1\n      0x072039a2\n      eq\n      tag_4\n      jumpi\n      dup1\n      0x07a8b767\n      eq\n      tag_5\n      jumpi\n      dup1\n      0x096e27d9\n      eq\n      tag_6\n      jumpi\n    tag_2:\n      0x00\n      dup1\n      revert\n        /* \"DeadMansSwitch.sol\":10494:11005  function getRemainingCountdownTime(address _benefactor) public returns (uint256) {... */\n    tag_3:\n      tag_28\n      tag_29\n      calldatasize\n      0x04\n      tag_30\n      jump\t// in\n    tag_29:\n      tag_31\n      jump\t// in\n    tag_28:\n      mload(0x40)\n        /* \"#utility.yul\":552:577   */\n      swap1\n      dup2\n      mstore\n        /* \"#utility.yul\":540:542   */\n      0x20\n        /* \"#utility.yul\":525:543   */\n      add\n        /* \"DeadMansSwitch.sol\":10494:11005  function getRemainingCountdownTime(address _benefactor) public returns (uint256) {... */\n    tag_32:\n      mload(0x40)\n      dup1\n      swap2\n      sub\n      swap1\n      return\n        /* \"DeadMansSwitch.sol\":11215:11799  function checkAliveStatus(address _benefactor) public returns (bool) {... */\n    tag_4:\n      tag_34\n      tag_35\n      calldatasize\n      0x04\n      tag_30\n      jump\t// in\n    tag_35:\n      tag_36\n      jump\t// in\n    tag_34:\n      mload(0x40)\n        /* \"#utility.yul\":753:767   */\n      swap1\n      iszero\n        /* \"#utility.yul\":746:768   */\n      iszero\n        /* \"#utility.yul\":728:769   */\n      dup2\n      mstore\n        /* \"#utility.yul\":716:718   */\n      0x20\n        /* \"#utility.yul\":701:719   */\n      add\n        /* \"DeadMansSwitch.sol\":11215:11799  function checkAliveStatus(address _benefactor) public returns (bool) {... */\n      tag_32\n        /* \"#utility.yul\":588:775   */\n      jump\n        /* \"DeadMansSwitch.sol\":5898:6115  function getSwitchStatus(address _benefactor) public view returns (bool) {... */\n    tag_5:\n      tag_34\n      tag_40\n      calldatasize\n      0x04\n      tag_30\n      jump\t// in\n    tag_40:\n      tag_41\n      jump\t// in\n        /* \"DeadMansSwitch.sol\":3519:3689  function isBeneficiary(address _benefactor, address _address) public view returns (bool) {... */\n    tag_6:\n      tag_34\n      tag_44\n      calldatasize\n      0x04\n      tag_45\n      jump\t// in\n    tag_44:\n      tag_46\n      jump\t// in\n        /* \"DeadMansSwitch.sol\":2813:3295  function setBenefactor() public{... */\n    tag_7:\n      tag_48\n      tag_49\n      jump\t// in\n    tag_48:\n      stop\n        /* \"DeadMansSwitch.sol\":4373:4737  function addBeneficiaryPublicKey(address _benefactor, address _beneficiary, string memory _key) public {... */\n    tag_8:\n      tag_48\n      tag_51\n      calldatasize\n      0x04\n      tag_52\n      jump\t// in\n    tag_51:\n      tag_53\n      jump\t// in\n        /* \"DeadMansSwitch.sol\":6765:7246  function addBeneficiaries(address[] calldata _beneficiaries) external onlyBenefactor {... */\n    tag_9:\n      tag_48\n      tag_55\n      calldatasize\n      0x04\n      tag_56\n      jump\t// in\n    tag_55:\n      tag_57\n      jump\t// in\n        /* \"DeadMansSwitch.sol\":6298:6590  function removeBeneficiary(address _beneficiary) external onlyBenefactor {... */\n    tag_10:\n      tag_48\n      tag_59\n      calldatasize\n      0x04\n      tag_30\n      jump\t// in\n    tag_59:\n      tag_60\n      jump\t// in\n        /* \"DeadMansSwitch.sol\":4855:5125  function getBenefactorPublicKey(address _benefactor) public view returns(string memory) {... */\n    tag_11:\n      tag_61\n      tag_62\n      calldatasize\n      0x04\n      tag_30\n      jump\t// in\n    tag_62:\n      tag_63\n      jump\t// in\n    tag_61:\n      mload(0x40)\n      tag_32\n      swap2\n      swap1\n      tag_65\n      jump\t// in\n        /* \"DeadMansSwitch.sol\":8439:9354  function removeIpfsCID(address _beneficiary, string memory _ipfsCID) external onlyBenefactor {... */\n    tag_12:\n      tag_48\n      tag_67\n      calldatasize\n      0x04\n      tag_68\n      jump\t// in\n    tag_67:\n      tag_69\n      jump\t// in\n        /* \"DeadMansSwitch.sol\":9516:10302  function enableSwitch(address _benefactor) external {... */\n    tag_13:\n      tag_48\n      tag_71\n      calldatasize\n      0x04\n      tag_30\n      jump\t// in\n    tag_71:\n      tag_72\n      jump\t// in\n        /* \"DeadMansSwitch.sol\":5658:5890  function removeBenefactor(address _benefactor) public {... */\n    tag_14:\n      tag_48\n      tag_74\n      calldatasize\n      0x04\n      tag_30\n      jump\t// in\n    tag_74:\n      tag_75\n      jump\t// in\n        /* \"DeadMansSwitch.sol\":15706:16512  function getBeneficiaryData(address _benefactor, address _beneficiary) public returns (bool switchStatus, uint256 remainingTime, bool isAlive, string memory publicKey) {... */\n    tag_15:\n      tag_76\n      tag_77\n      calldatasize\n      0x04\n      tag_45\n      jump\t// in\n    tag_77:\n      tag_78\n      jump\t// in\n    tag_76:\n      mload(0x40)\n      tag_32\n      swap5\n      swap4\n      swap3\n      swap2\n      swap1\n      tag_80\n      jump\t// in\n        /* \"DeadMansSwitch.sol\":4058:4261  function addBenefactorPublicKey(address _benefactor, string memory _key) public {... */\n    tag_16:\n      tag_48\n      tag_82\n      calldatasize\n      0x04\n      tag_68\n      jump\t// in\n    tag_82:\n      tag_83\n      jump\t// in\n        /* \"DeadMansSwitch.sol\":12396:13095  function respondToSwitch() external onlyBenefactor {... */\n    tag_17:\n      tag_48\n      tag_85\n      jump\t// in\n        /* \"DeadMansSwitch.sol\":7254:8211  function addIpfsCIDs(address _beneficiary, string[] memory _ipfsCIDs) external onlyBenefactor {... */\n    tag_18:\n      tag_48\n      tag_87\n      calldatasize\n      0x04\n      tag_88\n      jump\t// in\n    tag_87:\n      tag_89\n      jump\t// in\n        /* \"DeadMansSwitch.sol\":13285:13694  function getCIDs(address _benefactor, address _beneficiary) public view returns (string[] memory){... */\n    tag_19:\n      tag_90\n      tag_91\n      calldatasize\n      0x04\n      tag_45\n      jump\t// in\n    tag_91:\n      tag_92\n      jump\t// in\n    tag_90:\n      mload(0x40)\n      tag_32\n      swap2\n      swap1\n      tag_94\n      jump\t// in\n        /* \"DeadMansSwitch.sol\":14410:15614  function getBenefactorData(address _benefactor) public returns (bool switchStatus, address[] memory beneficiaries, uint256 remainingTime, bool isAlive, string memory publicKey) {... */\n    tag_20:\n      tag_95\n      tag_96\n      calldatasize\n      0x04\n      tag_30\n      jump\t// in\n    tag_96:\n      tag_97\n      jump\t// in\n    tag_95:\n      mload(0x40)\n      tag_32\n      swap6\n      swap5\n      swap4\n      swap3\n      swap2\n      swap1\n      tag_99\n      jump\t// in\n        /* \"DeadMansSwitch.sol\":5244:5568  function getBeneficiaryPublicKey(address _benefactor, address _beneficiary) public view returns(string memory) {... */\n    tag_21:\n      tag_61\n      tag_101\n      calldatasize\n      0x04\n      tag_45\n      jump\t// in\n    tag_101:\n      tag_102\n      jump\t// in\n        /* \"DeadMansSwitch.sol\":10494:11005  function getRemainingCountdownTime(address _benefactor) public returns (uint256) {... */\n    tag_31:\n      sub(shl(0xa0, 0x01), 0x01)\n        /* \"DeadMansSwitch.sol\":10627:10651  benefactors[_benefactor] */\n      dup2\n      and\n        /* \"DeadMansSwitch.sol\":10566:10573  uint256 */\n      0x00\n        /* \"DeadMansSwitch.sol\":10627:10651  benefactors[_benefactor] */\n      swap1\n      dup2\n      mstore\n      0x20\n      dup2\n      swap1\n      mstore\n      0x40\n      dup2\n      keccak256\n        /* \"DeadMansSwitch.sol\":10627:10678  benefactors[_benefactor].lastBenefactorResponseTime */\n      0x03\n      add\n      sload\n        /* \"DeadMansSwitch.sol\":10566:10573  uint256 */\n      dup2\n      swap1\n        /* \"DeadMansSwitch.sol\":10609:10678  block.timestamp - benefactors[_benefactor].lastBenefactorResponseTime */\n      tag_105\n      swap1\n        /* \"DeadMansSwitch.sol\":10609:10624  block.timestamp */\n      timestamp\n        /* \"DeadMansSwitch.sol\":10609:10678  block.timestamp - benefactors[_benefactor].lastBenefactorResponseTime */\n      tag_106\n      jump\t// in\n    tag_105:\n      sub(shl(0xa0, 0x01), 0x01)\n        /* \"DeadMansSwitch.sol\":10694:10856  RemainingCountdownInfo(_benefactor,benefactors[_benefactor].countdownDuration, responseTime, block.timestamp, benefactors[_benefactor].lastBenefactorResponseTime) */\n      dup5\n      and\n        /* \"DeadMansSwitch.sol\":10729:10740  benefactors */\n      0x00\n        /* \"DeadMansSwitch.sol\":10729:10753  benefactors[_benefactor] */\n      dup2\n      dup2\n      mstore\n      0x20\n      dup2\n      dup2\n      mstore\n      0x40\n      swap2\n      dup3\n      swap1\n      keccak256\n        /* \"DeadMansSwitch.sol\":10729:10771  benefactors[_benefactor].countdownDuration */\n      0x02\n      dup2\n      add\n      sload\n        /* \"DeadMansSwitch.sol\":10804:10855  benefactors[_benefactor].lastBenefactorResponseTime */\n      0x03\n      swap1\n      swap2\n      add\n      sload\n        /* \"DeadMansSwitch.sol\":10694:10856  RemainingCountdownInfo(_benefactor,benefactors[_benefactor].countdownDuration, responseTime, block.timestamp, benefactors[_benefactor].lastBenefactorResponseTime) */\n      dup4\n      mload\n        /* \"#utility.yul\":8309:8334   */\n      swap2\n      dup3\n      mstore\n        /* \"#utility.yul\":8350:8368   */\n      swap2\n      dup2\n      add\n        /* \"#utility.yul\":8343:8377   */\n      dup6\n      swap1\n      mstore\n        /* \"DeadMansSwitch.sol\":10787:10802  block.timestamp */\n      timestamp\n        /* \"#utility.yul\":8393:8411   */\n      swap3\n      dup2\n      add\n        /* \"#utility.yul\":8386:8420   */\n      swap3\n      swap1\n      swap3\n      mstore\n        /* \"#utility.yul\":8451:8453   */\n      0x60\n        /* \"#utility.yul\":8436:8454   */\n      dup3\n      add\n        /* \"#utility.yul\":8429:8463   */\n      mstore\n        /* \"DeadMansSwitch.sol\":10586:10678  uint256 responseTime = block.timestamp - benefactors[_benefactor].lastBenefactorResponseTime */\n      swap2\n      swap3\n      pop\n        /* \"DeadMansSwitch.sol\":10694:10856  RemainingCountdownInfo(_benefactor,benefactors[_benefactor].countdownDuration, responseTime, block.timestamp, benefactors[_benefactor].lastBenefactorResponseTime) */\n      swap1\n      0x74a7c0c2e8065fcdbfca5ae9f6cf0233e47e9e75b6fcf75674dd4b7e3f9b8183\n      swap1\n        /* \"#utility.yul\":8296:8299   */\n      0x80\n        /* \"#utility.yul\":8281:8300   */\n      add\n        /* \"DeadMansSwitch.sol\":10694:10856  RemainingCountdownInfo(_benefactor,benefactors[_benefactor].countdownDuration, responseTime, block.timestamp, benefactors[_benefactor].lastBenefactorResponseTime) */\n      mload(0x40)\n      dup1\n      swap2\n      sub\n      swap1\n      log2\n      sub(shl(0xa0, 0x01), 0x01)\n        /* \"DeadMansSwitch.sol\":10890:10914  benefactors[_benefactor] */\n      dup4\n      and\n        /* \"DeadMansSwitch.sol\":10890:10901  benefactors */\n      0x00\n        /* \"DeadMansSwitch.sol\":10890:10914  benefactors[_benefactor] */\n      swap1\n      dup2\n      mstore\n      0x20\n      dup2\n      swap1\n      mstore\n      0x40\n      swap1\n      keccak256\n        /* \"DeadMansSwitch.sol\":10890:10932  benefactors[_benefactor].countdownDuration */\n      0x02\n      add\n      sload\n        /* \"DeadMansSwitch.sol\":10875:10932  responseTime > benefactors[_benefactor].countdownDuration */\n      dup2\n      gt\n        /* \"DeadMansSwitch.sol\":10874:10997  (responseTime > benefactors[_benefactor].countdownDuration) ? 0 : benefactors[_benefactor].countdownDuration - responseTime */\n      tag_109\n      jumpi\n      sub(shl(0xa0, 0x01), 0x01)\n        /* \"DeadMansSwitch.sol\":10940:10964  benefactors[_benefactor] */\n      dup4\n      and\n        /* \"DeadMansSwitch.sol\":10940:10951  benefactors */\n      0x00\n        /* \"DeadMansSwitch.sol\":10940:10964  benefactors[_benefactor] */\n      swap1\n      dup2\n      mstore\n      0x20\n      dup2\n      swap1\n      mstore\n      0x40\n      swap1\n      keccak256\n        /* \"DeadMansSwitch.sol\":10940:10982  benefactors[_benefactor].countdownDuration */\n      0x02\n      add\n      sload\n        /* \"DeadMansSwitch.sol\":10940:10997  benefactors[_benefactor].countdownDuration - responseTime */\n      tag_110\n      swap1\n        /* \"DeadMansSwitch.sol\":10985:10997  responseTime */\n      dup3\n      swap1\n        /* \"DeadMansSwitch.sol\":10940:10997  benefactors[_benefactor].countdownDuration - responseTime */\n      tag_106\n      jump\t// in\n    tag_110:\n        /* \"DeadMansSwitch.sol\":10874:10997  (responseTime > benefactors[_benefactor].countdownDuration) ? 0 : benefactors[_benefactor].countdownDuration - responseTime */\n      jump(tag_111)\n    tag_109:\n        /* \"DeadMansSwitch.sol\":10936:10937  0 */\n      0x00\n        /* \"DeadMansSwitch.sol\":10874:10997  (responseTime > benefactors[_benefactor].countdownDuration) ? 0 : benefactors[_benefactor].countdownDuration - responseTime */\n    tag_111:\n        /* \"DeadMansSwitch.sol\":10867:10997  return (responseTime > benefactors[_benefactor].countdownDuration) ? 0 : benefactors[_benefactor].countdownDuration - responseTime */\n      swap4\n        /* \"DeadMansSwitch.sol\":10494:11005  function getRemainingCountdownTime(address _benefactor) public returns (uint256) {... */\n      swap3\n      pop\n      pop\n      pop\n      jump\t// out\n        /* \"DeadMansSwitch.sol\":11215:11799  function checkAliveStatus(address _benefactor) public returns (bool) {... */\n    tag_36:\n        /* \"DeadMansSwitch.sol\":11278:11282  bool */\n      0x00\n        /* \"DeadMansSwitch.sol\":11299:11327  getSwitchStatus(_benefactor) */\n      tag_113\n        /* \"DeadMansSwitch.sol\":11315:11326  _benefactor */\n      dup3\n        /* \"DeadMansSwitch.sol\":11299:11314  getSwitchStatus */\n      tag_41\n        /* \"DeadMansSwitch.sol\":11299:11327  getSwitchStatus(_benefactor) */\n      jump\t// in\n    tag_113:\n        /* \"DeadMansSwitch.sol\":11295:11652  if (getSwitchStatus(_benefactor)){... */\n      iszero\n      tag_115\n      jumpi\n      sub(shl(0xa0, 0x01), 0x01)\n        /* \"DeadMansSwitch.sol\":11347:11371  benefactors[_benefactor] */\n      dup3\n      and\n        /* \"DeadMansSwitch.sol\":11347:11358  benefactors */\n      0x00\n        /* \"DeadMansSwitch.sol\":11347:11371  benefactors[_benefactor] */\n      swap1\n      dup2\n      mstore\n      0x20\n      dup2\n      swap1\n      mstore\n      0x40\n      swap1\n      keccak256\n        /* \"DeadMansSwitch.sol\":11347:11398  benefactors[_benefactor].lastBenefactorResponseTime */\n      0x03\n      add\n      sload\n        /* \"DeadMansSwitch.sol\":11347:11403  benefactors[_benefactor].lastBenefactorResponseTime != 0 */\n      iszero\n        /* \"DeadMansSwitch.sol\":11343:11638  if (benefactors[_benefactor].lastBenefactorResponseTime != 0) {... */\n      tag_115\n      jumpi\n        /* \"DeadMansSwitch.sol\":11424:11450  uint256 remainingCountdown */\n      0x00\n        /* \"DeadMansSwitch.sol\":11453:11491  getRemainingCountdownTime(_benefactor) */\n      tag_116\n        /* \"DeadMansSwitch.sol\":11479:11490  _benefactor */\n      dup4\n        /* \"DeadMansSwitch.sol\":11453:11478  getRemainingCountdownTime */\n      tag_31\n        /* \"DeadMansSwitch.sol\":11453:11491  getRemainingCountdownTime(_benefactor) */\n      jump\t// in\n    tag_116:\n        /* \"DeadMansSwitch.sol\":11424:11491  uint256 remainingCountdown = getRemainingCountdownTime(_benefactor) */\n      swap1\n      pop\n        /* \"DeadMansSwitch.sol\":11536:11537  0 */\n      0x00\n        /* \"DeadMansSwitch.sol\":11514:11532  remainingCountdown */\n      dup2\n        /* \"DeadMansSwitch.sol\":11514:11537  remainingCountdown <= 0 */\n      gt\n        /* \"DeadMansSwitch.sol\":11510:11622  if (remainingCountdown <= 0) {... */\n      tag_117\n      jumpi\n      sub(shl(0xa0, 0x01), 0x01)\n        /* \"DeadMansSwitch.sol\":11562:11586  benefactors[_benefactor] */\n      dup4\n      and\n        /* \"DeadMansSwitch.sol\":11597:11602  false */\n      0x00\n        /* \"DeadMansSwitch.sol\":11562:11586  benefactors[_benefactor] */\n      swap1\n      dup2\n      mstore\n      0x20\n      dup2\n      swap1\n      mstore\n      0x40\n      swap1\n      keccak256\n        /* \"DeadMansSwitch.sol\":11562:11594  benefactors[_benefactor].isAlive */\n      0x04\n      add\n        /* \"DeadMansSwitch.sol\":11562:11602  benefactors[_benefactor].isAlive = false */\n      dup1\n      sload\n      not(0xff00)\n      and\n      swap1\n      sstore\n        /* \"DeadMansSwitch.sol\":11510:11622  if (remainingCountdown <= 0) {... */\n    tag_117:\n        /* \"DeadMansSwitch.sol\":11405:11638  {... */\n      pop\n        /* \"DeadMansSwitch.sol\":11343:11638  if (benefactors[_benefactor].lastBenefactorResponseTime != 0) {... */\n    tag_115:\n      pop\n      sub(shl(0xa0, 0x01), 0x01)\n        /* \"DeadMansSwitch.sol\":11759:11783  benefactors[_benefactor] */\n      and\n        /* \"DeadMansSwitch.sol\":11759:11770  benefactors */\n      0x00\n        /* \"DeadMansSwitch.sol\":11759:11783  benefactors[_benefactor] */\n      swap1\n      dup2\n      mstore\n      0x20\n      dup2\n      swap1\n      mstore\n      0x40\n      swap1\n      keccak256\n        /* \"DeadMansSwitch.sol\":11759:11791  benefactors[_benefactor].isAlive */\n      0x04\n      add\n      sload\n      0x0100\n      swap1\n      div\n      0xff\n      and\n      swap1\n        /* \"DeadMansSwitch.sol\":11215:11799  function checkAliveStatus(address _benefactor) public returns (bool) {... */\n      jump\t// out\n        /* \"DeadMansSwitch.sol\":5898:6115  function getSwitchStatus(address _benefactor) public view returns (bool) {... */\n    tag_41:\n      sub(shl(0xa0, 0x01), 0x01)\n        /* \"DeadMansSwitch.sol\":5990:6014  benefactors[_benefactor] */\n      dup2\n      and\n        /* \"DeadMansSwitch.sol\":5965:5969  bool */\n      0x00\n        /* \"DeadMansSwitch.sol\":5990:6014  benefactors[_benefactor] */\n      swap1\n      dup2\n      mstore\n      0x20\n      dup2\n      swap1\n      mstore\n      0x40\n      dup2\n      keccak256\n        /* \"DeadMansSwitch.sol\":5990:6021  benefactors[_benefactor].exists */\n      sload\n      0xff\n      and\n        /* \"DeadMansSwitch.sol\":5982:6050  require(benefactors[_benefactor].exists,\"Benefactor does not exist\") */\n      tag_119\n      jumpi\n      mload(0x40)\n      shl(0xe5, 0x461bcd)\n      dup2\n      mstore\n        /* \"#utility.yul\":8676:8678   */\n      0x20\n        /* \"DeadMansSwitch.sol\":5982:6050  require(benefactors[_benefactor].exists,\"Benefactor does not exist\") */\n      0x04\n      dup3\n      add\n        /* \"#utility.yul\":8658:8679   */\n      mstore\n        /* \"#utility.yul\":8715:8717   */\n      0x19\n        /* \"#utility.yul\":8695:8713   */\n      0x24\n      dup3\n      add\n        /* \"#utility.yul\":8688:8718   */\n      mstore\n        /* \"#utility.yul\":8754:8781   */\n      0x42656e65666163746f7220646f6573206e6f7420657869737400000000000000\n        /* \"#utility.yul\":8734:8752   */\n      0x44\n      dup3\n      add\n        /* \"#utility.yul\":8727:8782   */\n      mstore\n        /* \"#utility.yul\":8799:8817   */\n      0x64\n      add\n        /* \"DeadMansSwitch.sol\":5982:6050  require(benefactors[_benefactor].exists,\"Benefactor does not exist\") */\n    tag_120:\n      mload(0x40)\n      dup1\n      swap2\n      sub\n      swap1\n      revert\n    tag_119:\n      pop\n      sub(shl(0xa0, 0x01), 0x01)\n        /* \"DeadMansSwitch.sol\":6069:6093  benefactors[_benefactor] */\n      and\n        /* \"DeadMansSwitch.sol\":6069:6080  benefactors */\n      0x00\n        /* \"DeadMansSwitch.sol\":6069:6093  benefactors[_benefactor] */\n      swap1\n      dup2\n      mstore\n      0x20\n      dup2\n      swap1\n      mstore\n      0x40\n      swap1\n      keccak256\n        /* \"DeadMansSwitch.sol\":6069:6107  benefactors[_benefactor].isSwitchedOff */\n      0x04\n      add\n      sload\n      0xff\n      and\n        /* \"DeadMansSwitch.sol\":6068:6107  !benefactors[_benefactor].isSwitchedOff */\n      iszero\n      swap1\n        /* \"DeadMansSwitch.sol\":5898:6115  function getSwitchStatus(address _benefactor) public view returns (bool) {... */\n      jump\t// out\n        /* \"DeadMansSwitch.sol\":3519:3689  function isBeneficiary(address _benefactor, address _address) public view returns (bool) {... */\n    tag_46:\n      sub(shl(0xa0, 0x01), 0x01)\n        /* \"DeadMansSwitch.sol\":3626:3650  benefactors[_benefactor] */\n      dup1\n      dup4\n      and\n        /* \"DeadMansSwitch.sol\":3602:3606  bool */\n      0x00\n        /* \"DeadMansSwitch.sol\":3626:3650  benefactors[_benefactor] */\n      swap1\n      dup2\n      mstore\n      0x20\n      dup2\n      dup2\n      mstore\n      0x40\n      dup1\n      dup4\n      keccak256\n        /* \"DeadMansSwitch.sol\":3626:3674  benefactors[_benefactor].beneficiaries[_address] */\n      swap4\n      dup6\n      and\n      dup4\n      mstore\n        /* \"DeadMansSwitch.sol\":3626:3664  benefactors[_benefactor].beneficiaries */\n      0x01\n      swap1\n      swap4\n      add\n        /* \"DeadMansSwitch.sol\":3626:3674  benefactors[_benefactor].beneficiaries[_address] */\n      swap1\n      mstore\n      keccak256\n        /* \"DeadMansSwitch.sol\":3626:3681  benefactors[_benefactor].beneficiaries[_address].exists */\n      sload\n      0xff\n      and\n        /* \"DeadMansSwitch.sol\":3519:3689  function isBeneficiary(address _benefactor, address _address) public view returns (bool) {... */\n    tag_122:\n      swap3\n      swap2\n      pop\n      pop\n      jump\t// out\n        /* \"DeadMansSwitch.sol\":2813:3295  function setBenefactor() public{... */\n    tag_49:\n        /* \"DeadMansSwitch.sol\":2867:2877  msg.sender */\n      caller\n        /* \"DeadMansSwitch.sol\":2855:2866  benefactors */\n      0x00\n        /* \"DeadMansSwitch.sol\":2855:2878  benefactors[msg.sender] */\n      dup2\n      dup2\n      mstore\n      0x20\n      dup2\n      dup2\n      mstore\n      0x40\n      dup1\n      dup4\n      keccak256\n        /* \"DeadMansSwitch.sol\":2855:2890  benefactors[msg.sender].exists=true */\n      dup1\n      sload\n      not(0xff)\n      and\n        /* \"DeadMansSwitch.sol\":2886:2890  true */\n      0x01\n        /* \"DeadMansSwitch.sol\":2855:2890  benefactors[msg.sender].exists=true */\n      or\n      dup2\n      sstore\n        /* \"DeadMansSwitch.sol\":2945:2962  7*24*3600 seconds */\n      0x093a80\n        /* \"DeadMansSwitch.sol\":2901:2942  benefactors[msg.sender].countdownDuration */\n      0x02\n      dup3\n      add\n        /* \"DeadMansSwitch.sol\":2901:2962  benefactors[msg.sender].countdownDuration = 7*24*3600 seconds */\n      sstore\n        /* \"DeadMansSwitch.sol\":3070:3107  benefactors[msg.sender].isSwitchedOff */\n      0x04\n      dup2\n      add\n        /* \"DeadMansSwitch.sol\":3070:3114  benefactors[msg.sender].isSwitchedOff = true */\n      dup1\n      sload\n        /* \"DeadMansSwitch.sol\":3125:3163  benefactors[msg.sender].isAlive = true */\n      0x0101\n      not(0xffff)\n      swap1\n      swap2\n      and\n      or\n      swap1\n      sstore\n        /* \"DeadMansSwitch.sol\":3174:3224  benefactors[msg.sender].lastBenefactorResponseTime */\n      0x03\n      dup2\n      add\n        /* \"DeadMansSwitch.sol\":3174:3228  benefactors[msg.sender].lastBenefactorResponseTime = 0 */\n      dup5\n      swap1\n      sstore\n        /* \"DeadMansSwitch.sol\":3239:3287  benefactors[msg.sender].benefactorPublicKey = \"\" */\n      dup2\n      mload\n      dup1\n      dup5\n      add\n      swap1\n      swap3\n      mstore\n      dup4\n      dup3\n      mstore\n        /* \"DeadMansSwitch.sol\":3239:3262  benefactors[msg.sender] */\n      swap4\n      dup4\n      mstore\n      swap2\n      swap1\n      mstore\n        /* \"DeadMansSwitch.sol\":3239:3282  benefactors[msg.sender].benefactorPublicKey */\n      0x05\n      swap1\n      swap2\n      add\n      swap1\n        /* \"DeadMansSwitch.sol\":3239:3287  benefactors[msg.sender].benefactorPublicKey = \"\" */\n      tag_124\n      swap1\n        /* \"DeadMansSwitch.sol\":3239:3282  benefactors[msg.sender].benefactorPublicKey */\n      dup3\n        /* \"DeadMansSwitch.sol\":3239:3287  benefactors[msg.sender].benefactorPublicKey = \"\" */\n      tag_125\n      jump\t// in\n    tag_124:\n      pop\n        /* \"DeadMansSwitch.sol\":2813:3295  function setBenefactor() public{... */\n      jump\t// out\n        /* \"DeadMansSwitch.sol\":4373:4737  function addBeneficiaryPublicKey(address _benefactor, address _beneficiary, string memory _key) public {... */\n    tag_53:\n        /* \"DeadMansSwitch.sol\":4495:4534  isBeneficiary(_benefactor,_beneficiary) */\n      tag_127\n        /* \"DeadMansSwitch.sol\":4509:4520  _benefactor */\n      dup4\n        /* \"DeadMansSwitch.sol\":4521:4533  _beneficiary */\n      dup4\n        /* \"DeadMansSwitch.sol\":4495:4508  isBeneficiary */\n      tag_46\n        /* \"DeadMansSwitch.sol\":4495:4534  isBeneficiary(_benefactor,_beneficiary) */\n      jump\t// in\n    tag_127:\n        /* \"DeadMansSwitch.sol\":4487:4571  require(isBeneficiary(_benefactor,_beneficiary), \"Beneficiary/Benefactor not found\") */\n      tag_128\n      jumpi\n      mload(0x40)\n      shl(0xe5, 0x461bcd)\n      dup2\n      mstore\n        /* \"#utility.yul\":11619:11621   */\n      0x20\n        /* \"DeadMansSwitch.sol\":4487:4571  require(isBeneficiary(_benefactor,_beneficiary), \"Beneficiary/Benefactor not found\") */\n      0x04\n      dup3\n      add\n        /* \"#utility.yul\":11601:11622   */\n      dup2\n      swap1\n      mstore\n        /* \"#utility.yul\":11638:11656   */\n      0x24\n      dup3\n      add\n        /* \"#utility.yul\":11631:11661   */\n      mstore\n        /* \"#utility.yul\":11697:11731   */\n      0x42656e65666963696172792f42656e65666163746f72206e6f7420666f756e64\n        /* \"#utility.yul\":11677:11695   */\n      0x44\n      dup3\n      add\n        /* \"#utility.yul\":11670:11732   */\n      mstore\n        /* \"#utility.yul\":11749:11767   */\n      0x64\n      add\n        /* \"DeadMansSwitch.sol\":4487:4571  require(isBeneficiary(_benefactor,_beneficiary), \"Beneficiary/Benefactor not found\") */\n      tag_120\n        /* \"#utility.yul\":11417:11773   */\n      jump\n        /* \"DeadMansSwitch.sol\":4487:4571  require(isBeneficiary(_benefactor,_beneficiary), \"Beneficiary/Benefactor not found\") */\n    tag_128:\n      sub(shl(0xa0, 0x01), 0x01)\n        /* \"DeadMansSwitch.sol\":4582:4606  benefactors[_benefactor] */\n      dup1\n      dup5\n      and\n        /* \"DeadMansSwitch.sol\":4582:4593  benefactors */\n      0x00\n        /* \"DeadMansSwitch.sol\":4582:4606  benefactors[_benefactor] */\n      swap1\n      dup2\n      mstore\n      0x20\n      dup2\n      dup2\n      mstore\n      0x40\n      dup1\n      dup4\n      keccak256\n        /* \"DeadMansSwitch.sol\":4582:4634  benefactors[_benefactor].beneficiaries[_beneficiary] */\n      swap4\n      dup7\n      and\n      dup4\n      mstore\n        /* \"DeadMansSwitch.sol\":4582:4620  benefactors[_benefactor].beneficiaries */\n      0x01\n      swap1\n      swap4\n      add\n        /* \"DeadMansSwitch.sol\":4582:4634  benefactors[_benefactor].beneficiaries[_beneficiary] */\n      swap1\n      mstore\n      keccak256\n        /* \"DeadMansSwitch.sol\":4582:4655  benefactors[_benefactor].beneficiaries[_beneficiary].beneficiaryPublicKey */\n      0x02\n      add\n        /* \"DeadMansSwitch.sol\":4582:4662  benefactors[_benefactor].beneficiaries[_beneficiary].beneficiaryPublicKey = _key */\n      tag_131\n        /* \"DeadMansSwitch.sol\":4658:4662  _key */\n      dup3\n        /* \"DeadMansSwitch.sol\":4582:4655  benefactors[_benefactor].beneficiaries[_beneficiary].beneficiaryPublicKey */\n      dup3\n        /* \"DeadMansSwitch.sol\":4582:4662  benefactors[_benefactor].beneficiaries[_beneficiary].beneficiaryPublicKey = _key */\n      tag_125\n      jump\t// in\n    tag_131:\n      pop\n        /* \"DeadMansSwitch.sol\":4710:4722  _beneficiary */\n      dup2\n      sub(shl(0xa0, 0x01), 0x01)\n        /* \"DeadMansSwitch.sol\":4678:4729  BeneficiaryKeyAdded(_benefactor,_beneficiary, _key) */\n      and\n        /* \"DeadMansSwitch.sol\":4698:4709  _benefactor */\n      dup4\n      sub(shl(0xa0, 0x01), 0x01)\n        /* \"DeadMansSwitch.sol\":4678:4729  BeneficiaryKeyAdded(_benefactor,_beneficiary, _key) */\n      and\n      0x69ccea10852ac51b01745414774b5af302217e774786d2068296650b57ba03f2\n        /* \"DeadMansSwitch.sol\":4724:4728  _key */\n      dup4\n        /* \"DeadMansSwitch.sol\":4678:4729  BeneficiaryKeyAdded(_benefactor,_beneficiary, _key) */\n      mload(0x40)\n      tag_132\n      swap2\n      swap1\n      tag_65\n      jump\t// in\n    tag_132:\n      mload(0x40)\n      dup1\n      swap2\n      sub\n      swap1\n      log3\n        /* \"DeadMansSwitch.sol\":4373:4737  function addBeneficiaryPublicKey(address _benefactor, address _beneficiary, string memory _key) public {... */\n      pop\n      pop\n      pop\n      jump\t// out\n        /* \"DeadMansSwitch.sol\":6765:7246  function addBeneficiaries(address[] calldata _beneficiaries) external onlyBenefactor {... */\n    tag_57:\n        /* \"DeadMansSwitch.sol\":2599:2609  msg.sender */\n      caller\n        /* \"DeadMansSwitch.sol\":2587:2598  benefactors */\n      0x00\n        /* \"DeadMansSwitch.sol\":2587:2610  benefactors[msg.sender] */\n      swap1\n      dup2\n      mstore\n      0x20\n      dup2\n      swap1\n      mstore\n      0x40\n      swap1\n      keccak256\n        /* \"DeadMansSwitch.sol\":2587:2617  benefactors[msg.sender].exists */\n      sload\n      0xff\n      and\n        /* \"DeadMansSwitch.sol\":2587:2652  benefactors[msg.sender].exists && benefactors[msg.sender].isAlive */\n      dup1\n      iszero\n      tag_134\n      jumpi\n      pop\n        /* \"DeadMansSwitch.sol\":2633:2643  msg.sender */\n      caller\n        /* \"DeadMansSwitch.sol\":2621:2632  benefactors */\n      0x00\n        /* \"DeadMansSwitch.sol\":2621:2644  benefactors[msg.sender] */\n      swap1\n      dup2\n      mstore\n      0x20\n      dup2\n      swap1\n      mstore\n      0x40\n      swap1\n      keccak256\n        /* \"DeadMansSwitch.sol\":2621:2652  benefactors[msg.sender].isAlive */\n      0x04\n      add\n      sload\n      0x0100\n      swap1\n      div\n      0xff\n      and\n        /* \"DeadMansSwitch.sol\":2587:2652  benefactors[msg.sender].exists && benefactors[msg.sender].isAlive */\n    tag_134:\n        /* \"DeadMansSwitch.sol\":2579:2679  require(benefactors[msg.sender].exists && benefactors[msg.sender].isAlive, \"Not a valid benefactor\") */\n      tag_135\n      jumpi\n      mload(0x40)\n      shl(0xe5, 0x461bcd)\n      dup2\n      mstore\n        /* \"#utility.yul\":11980:11982   */\n      0x20\n        /* \"DeadMansSwitch.sol\":2579:2679  require(benefactors[msg.sender].exists && benefactors[msg.sender].isAlive, \"Not a valid benefactor\") */\n      0x04\n      dup3\n      add\n        /* \"#utility.yul\":11962:11983   */\n      mstore\n        /* \"#utility.yul\":12019:12021   */\n      0x16\n        /* \"#utility.yul\":11999:12017   */\n      0x24\n      dup3\n      add\n        /* \"#utility.yul\":11992:12022   */\n      mstore\n      shl(0x51, 0x2737ba1030903b30b634b2103132b732b330b1ba37b9)\n        /* \"#utility.yul\":12038:12056   */\n      0x44\n      dup3\n      add\n        /* \"#utility.yul\":12031:12083   */\n      mstore\n        /* \"#utility.yul\":12100:12118   */\n      0x64\n      add\n        /* \"DeadMansSwitch.sol\":2579:2679  require(benefactors[msg.sender].exists && benefactors[msg.sender].isAlive, \"Not a valid benefactor\") */\n      tag_120\n        /* \"#utility.yul\":11778:12124   */\n      jump\n        /* \"DeadMansSwitch.sol\":2579:2679  require(benefactors[msg.sender].exists && benefactors[msg.sender].isAlive, \"Not a valid benefactor\") */\n    tag_135:\n        /* \"DeadMansSwitch.sol\":6866:6875  uint256 i */\n      0x00\n        /* \"DeadMansSwitch.sol\":6861:7239  for (uint256 i = 0; i < _beneficiaries.length; i++) {... */\n    tag_139:\n        /* \"DeadMansSwitch.sol\":6881:6906  i < _beneficiaries.length */\n      dup2\n      dup2\n      lt\n        /* \"DeadMansSwitch.sol\":6861:7239  for (uint256 i = 0; i < _beneficiaries.length; i++) {... */\n      iszero\n      tag_140\n      jumpi\n        /* \"DeadMansSwitch.sol\":6928:6947  address beneficiary */\n      0x00\n        /* \"DeadMansSwitch.sol\":6950:6964  _beneficiaries */\n      dup4\n      dup4\n        /* \"DeadMansSwitch.sol\":6965:6966  i */\n      dup4\n        /* \"DeadMansSwitch.sol\":6950:6967  _beneficiaries[i] */\n      dup2\n      dup2\n      lt\n      tag_143\n      jumpi\n      tag_143\n      tag_144\n      jump\t// in\n    tag_143:\n      swap1\n      pop\n      0x20\n      mul\n      add\n      0x20\n      dup2\n      add\n      swap1\n      tag_145\n      swap2\n      swap1\n      tag_30\n      jump\t// in\n    tag_145:\n        /* \"DeadMansSwitch.sol\":6928:6967  address beneficiary = _beneficiaries[i] */\n      swap1\n      pop\n        /* \"DeadMansSwitch.sol\":6991:7029  isBeneficiary(msg.sender, beneficiary) */\n      tag_146\n        /* \"DeadMansSwitch.sol\":7005:7015  msg.sender */\n      caller\n        /* \"DeadMansSwitch.sol\":7017:7028  beneficiary */\n      dup3\n        /* \"DeadMansSwitch.sol\":6991:7004  isBeneficiary */\n      tag_46\n        /* \"DeadMansSwitch.sol\":6991:7029  isBeneficiary(msg.sender, beneficiary) */\n      jump\t// in\n    tag_146:\n        /* \"DeadMansSwitch.sol\":6990:7029  !isBeneficiary(msg.sender, beneficiary) */\n      iszero\n        /* \"DeadMansSwitch.sol\":6982:7060  require(!isBeneficiary(msg.sender, beneficiary), \"Beneficiary already exists\") */\n      tag_147\n      jumpi\n      mload(0x40)\n      shl(0xe5, 0x461bcd)\n      dup2\n      mstore\n        /* \"#utility.yul\":12463:12465   */\n      0x20\n        /* \"DeadMansSwitch.sol\":6982:7060  require(!isBeneficiary(msg.sender, beneficiary), \"Beneficiary already exists\") */\n      0x04\n      dup3\n      add\n        /* \"#utility.yul\":12445:12466   */\n      mstore\n        /* \"#utility.yul\":12502:12504   */\n      0x1a\n        /* \"#utility.yul\":12482:12500   */\n      0x24\n      dup3\n      add\n        /* \"#utility.yul\":12475:12505   */\n      mstore\n        /* \"#utility.yul\":12541:12569   */\n      0x42656e656669636961727920616c726561647920657869737473000000000000\n        /* \"#utility.yul\":12521:12539   */\n      0x44\n      dup3\n      add\n        /* \"#utility.yul\":12514:12570   */\n      mstore\n        /* \"#utility.yul\":12587:12605   */\n      0x64\n      add\n        /* \"DeadMansSwitch.sol\":6982:7060  require(!isBeneficiary(msg.sender, beneficiary), \"Beneficiary already exists\") */\n      tag_120\n        /* \"#utility.yul\":12261:12611   */\n      jump\n        /* \"DeadMansSwitch.sol\":6982:7060  require(!isBeneficiary(msg.sender, beneficiary), \"Beneficiary already exists\") */\n    tag_147:\n        /* \"DeadMansSwitch.sol\":7128:7166  Beneficiary(true, new string[](0), \"\") */\n      0x40\n      dup1\n      mload\n      0x60\n      dup2\n      add\n      dup3\n      mstore\n        /* \"DeadMansSwitch.sol\":7140:7144  true */\n      0x01\n        /* \"DeadMansSwitch.sol\":7128:7166  Beneficiary(true, new string[](0), \"\") */\n      dup2\n      mstore\n        /* \"DeadMansSwitch.sol\":7146:7161  new string[](0) */\n      dup2\n      mload\n      0x00\n      dup1\n      dup3\n      mstore\n        /* \"DeadMansSwitch.sol\":7128:7166  Beneficiary(true, new string[](0), \"\") */\n      0x20\n        /* \"DeadMansSwitch.sol\":7146:7161  new string[](0) */\n      dup3\n      dup2\n      add\n      swap1\n      swap5\n      mstore\n        /* \"DeadMansSwitch.sol\":7128:7166  Beneficiary(true, new string[](0), \"\") */\n      swap2\n      swap3\n      dup4\n      add\n      swap2\n        /* \"DeadMansSwitch.sol\":7146:7161  new string[](0) */\n      jump(tag_153)\n    tag_154:\n      0x60\n      dup2\n      mstore\n      0x20\n      add\n      swap1\n      0x01\n      swap1\n      sub\n      swap1\n      dup2\n      tag_154\n      jumpi\n      swap1\n      pop\n    tag_153:\n      pop\n        /* \"DeadMansSwitch.sol\":7128:7166  Beneficiary(true, new string[](0), \"\") */\n      dup2\n      mstore\n      0x40\n      dup1\n      mload\n      0x20\n      dup1\n      dup3\n      add\n      dup4\n      mstore\n      0x00\n      dup1\n      dup4\n      mstore\n      swap4\n      dup2\n      add\n      swap2\n      swap1\n      swap2\n      mstore\n        /* \"DeadMansSwitch.sol\":7087:7097  msg.sender */\n      caller\n        /* \"DeadMansSwitch.sol\":7075:7098  benefactors[msg.sender] */\n      dup4\n      mstore\n      dup3\n      dup2\n      mstore\n      dup2\n      dup4\n      keccak256\n      sub(shl(0xa0, 0x01), 0x01)\n        /* \"DeadMansSwitch.sol\":7075:7125  benefactors[msg.sender].beneficiaries[beneficiary] */\n      dup7\n      and\n      dup5\n      mstore\n        /* \"DeadMansSwitch.sol\":7075:7112  benefactors[msg.sender].beneficiaries */\n      0x01\n      swap1\n      dup2\n      add\n        /* \"DeadMansSwitch.sol\":7075:7125  benefactors[msg.sender].beneficiaries[beneficiary] */\n      dup3\n      mstore\n      swap2\n      swap1\n      swap3\n      keccak256\n        /* \"DeadMansSwitch.sol\":7075:7166  benefactors[msg.sender].beneficiaries[beneficiary] = Beneficiary(true, new string[](0), \"\") */\n      dup4\n      mload\n      dup2\n      sload\n      not(0xff)\n      and\n      swap1\n      iszero\n      iszero\n      or\n      dup2\n      sstore\n      dup4\n      dup4\n      add\n      mload\n      dup1\n      mload\n        /* \"DeadMansSwitch.sol\":7075:7125  benefactors[msg.sender].beneficiaries[beneficiary] */\n      swap2\n      swap4\n        /* \"DeadMansSwitch.sol\":7075:7166  benefactors[msg.sender].beneficiaries[beneficiary] = Beneficiary(true, new string[](0), \"\") */\n      tag_155\n      swap4\n      dup6\n      add\n      swap3\n      swap2\n      add\n      swap1\n      tag_156\n      jump\t// in\n    tag_155:\n      pop\n      0x40\n      dup3\n      add\n      mload\n      0x02\n      dup3\n      add\n      swap1\n      tag_157\n      swap1\n      dup3\n      tag_125\n      jump\t// in\n    tag_157:\n      pop\n      pop\n        /* \"DeadMansSwitch.sol\":7186:7227  BeneficiaryAdded(msg.sender, beneficiary) */\n      mload(0x40)\n      sub(shl(0xa0, 0x01), 0x01)\n      dup4\n      and\n      swap2\n      pop\n        /* \"DeadMansSwitch.sol\":7203:7213  msg.sender */\n      caller\n      swap1\n        /* \"DeadMansSwitch.sol\":7186:7227  BeneficiaryAdded(msg.sender, beneficiary) */\n      0xbb39c36a7502b7256e1a687254146a9a2ea7b146c77cb9e40eb0e2b8793781e1\n      swap1\n      0x00\n      swap1\n      log3\n      pop\n        /* \"DeadMansSwitch.sol\":6908:6911  i++ */\n      dup1\n      tag_158\n      dup2\n      tag_159\n      jump\t// in\n    tag_158:\n      swap2\n      pop\n      pop\n        /* \"DeadMansSwitch.sol\":6861:7239  for (uint256 i = 0; i < _beneficiaries.length; i++) {... */\n      jump(tag_139)\n    tag_140:\n      pop\n        /* \"DeadMansSwitch.sol\":6765:7246  function addBeneficiaries(address[] calldata _beneficiaries) external onlyBenefactor {... */\n      pop\n      pop\n      jump\t// out\n        /* \"DeadMansSwitch.sol\":6298:6590  function removeBeneficiary(address _beneficiary) external onlyBenefactor {... */\n    tag_60:\n        /* \"DeadMansSwitch.sol\":2599:2609  msg.sender */\n      caller\n        /* \"DeadMansSwitch.sol\":2587:2598  benefactors */\n      0x00\n        /* \"DeadMansSwitch.sol\":2587:2610  benefactors[msg.sender] */\n      swap1\n      dup2\n      mstore\n      0x20\n      dup2\n      swap1\n      mstore\n      0x40\n      swap1\n      keccak256\n        /* \"DeadMansSwitch.sol\":2587:2617  benefactors[msg.sender].exists */\n      sload\n      0xff\n      and\n        /* \"DeadMansSwitch.sol\":2587:2652  benefactors[msg.sender].exists && benefactors[msg.sender].isAlive */\n      dup1\n      iszero\n      tag_161\n      jumpi\n      pop\n        /* \"DeadMansSwitch.sol\":2633:2643  msg.sender */\n      caller\n        /* \"DeadMansSwitch.sol\":2621:2632  benefactors */\n      0x00\n        /* \"DeadMansSwitch.sol\":2621:2644  benefactors[msg.sender] */\n      swap1\n      dup2\n      mstore\n      0x20\n      dup2\n      swap1\n      mstore\n      0x40\n      swap1\n      keccak256\n        /* \"DeadMansSwitch.sol\":2621:2652  benefactors[msg.sender].isAlive */\n      0x04\n      add\n      sload\n      0x0100\n      swap1\n      div\n      0xff\n      and\n        /* \"DeadMansSwitch.sol\":2587:2652  benefactors[msg.sender].exists && benefactors[msg.sender].isAlive */\n    tag_161:\n        /* \"DeadMansSwitch.sol\":2579:2679  require(benefactors[msg.sender].exists && benefactors[msg.sender].isAlive, \"Not a valid benefactor\") */\n      tag_162\n      jumpi\n      mload(0x40)\n      shl(0xe5, 0x461bcd)\n      dup2\n      mstore\n        /* \"#utility.yul\":11980:11982   */\n      0x20\n        /* \"DeadMansSwitch.sol\":2579:2679  require(benefactors[msg.sender].exists && benefactors[msg.sender].isAlive, \"Not a valid benefactor\") */\n      0x04\n      dup3\n      add\n        /* \"#utility.yul\":11962:11983   */\n      mstore\n        /* \"#utility.yul\":12019:12021   */\n      0x16\n        /* \"#utility.yul\":11999:12017   */\n      0x24\n      dup3\n      add\n        /* \"#utility.yul\":11992:12022   */\n      mstore\n      shl(0x51, 0x2737ba1030903b30b634b2103132b732b330b1ba37b9)\n        /* \"#utility.yul\":12038:12056   */\n      0x44\n      dup3\n      add\n        /* \"#utility.yul\":12031:12083   */\n      mstore\n        /* \"#utility.yul\":12100:12118   */\n      0x64\n      add\n        /* \"DeadMansSwitch.sol\":2579:2679  require(benefactors[msg.sender].exists && benefactors[msg.sender].isAlive, \"Not a valid benefactor\") */\n      tag_120\n        /* \"#utility.yul\":11778:12124   */\n      jump\n        /* \"DeadMansSwitch.sol\":2579:2679  require(benefactors[msg.sender].exists && benefactors[msg.sender].isAlive, \"Not a valid benefactor\") */\n    tag_162:\n        /* \"DeadMansSwitch.sol\":6390:6428  isBeneficiary(msg.sender,_beneficiary) */\n      tag_165\n        /* \"DeadMansSwitch.sol\":6404:6414  msg.sender */\n      caller\n        /* \"DeadMansSwitch.sol\":6415:6427  _beneficiary */\n      dup3\n        /* \"DeadMansSwitch.sol\":6390:6403  isBeneficiary */\n      tag_46\n        /* \"DeadMansSwitch.sol\":6390:6428  isBeneficiary(msg.sender,_beneficiary) */\n      jump\t// in\n    tag_165:\n        /* \"DeadMansSwitch.sol\":6382:6454  require(isBeneficiary(msg.sender,_beneficiary), \"Beneficiary not found\") */\n      tag_166\n      jumpi\n      mload(0x40)\n      shl(0xe5, 0x461bcd)\n      dup2\n      mstore\n        /* \"#utility.yul\":12958:12960   */\n      0x20\n        /* \"DeadMansSwitch.sol\":6382:6454  require(isBeneficiary(msg.sender,_beneficiary), \"Beneficiary not found\") */\n      0x04\n      dup3\n      add\n        /* \"#utility.yul\":12940:12961   */\n      mstore\n        /* \"#utility.yul\":12997:12999   */\n      0x15\n        /* \"#utility.yul\":12977:12995   */\n      0x24\n      dup3\n      add\n        /* \"#utility.yul\":12970:13000   */\n      mstore\n      shl(0x5a, 0x10995b99599a58da585c9e481b9bdd08199bdd5b99)\n        /* \"#utility.yul\":13016:13034   */\n      0x44\n      dup3\n      add\n        /* \"#utility.yul\":13009:13060   */\n      mstore\n        /* \"#utility.yul\":13077:13095   */\n      0x64\n      add\n        /* \"DeadMansSwitch.sol\":6382:6454  require(isBeneficiary(msg.sender,_beneficiary), \"Beneficiary not found\") */\n      tag_120\n        /* \"#utility.yul\":12756:13101   */\n      jump\n        /* \"DeadMansSwitch.sol\":6382:6454  require(isBeneficiary(msg.sender,_beneficiary), \"Beneficiary not found\") */\n    tag_166:\n        /* \"DeadMansSwitch.sol\":6484:6494  msg.sender */\n      caller\n        /* \"DeadMansSwitch.sol\":6472:6483  benefactors */\n      0x00\n        /* \"DeadMansSwitch.sol\":6472:6495  benefactors[msg.sender] */\n      swap1\n      dup2\n      mstore\n      0x20\n      dup2\n      dup2\n      mstore\n      0x40\n      dup1\n      dup4\n      keccak256\n      sub(shl(0xa0, 0x01), 0x01)\n        /* \"DeadMansSwitch.sol\":6472:6523  benefactors[msg.sender].beneficiaries[_beneficiary] */\n      dup6\n      and\n      dup5\n      mstore\n        /* \"DeadMansSwitch.sol\":6472:6509  benefactors[msg.sender].beneficiaries */\n      0x01\n      swap1\n      dup2\n      add\n        /* \"DeadMansSwitch.sol\":6472:6523  benefactors[msg.sender].beneficiaries[_beneficiary] */\n      swap1\n      swap3\n      mstore\n      dup3\n      keccak256\n        /* \"DeadMansSwitch.sol\":6465:6523  delete benefactors[msg.sender].beneficiaries[_beneficiary] */\n      dup1\n      sload\n      not(0xff)\n      and\n      dup2\n      sstore\n        /* \"DeadMansSwitch.sol\":6472:6523  benefactors[msg.sender].beneficiaries[_beneficiary] */\n      swap2\n        /* \"DeadMansSwitch.sol\":6472:6483  benefactors */\n      swap1\n        /* \"DeadMansSwitch.sol\":6465:6523  delete benefactors[msg.sender].beneficiaries[_beneficiary] */\n      tag_169\n      swap1\n      dup4\n      add\n        /* \"DeadMansSwitch.sol\":6472:6483  benefactors */\n      dup3\n        /* \"DeadMansSwitch.sol\":6465:6523  delete benefactors[msg.sender].beneficiaries[_beneficiary] */\n      tag_170\n      jump\t// in\n    tag_169:\n      tag_171\n      0x02\n      dup4\n      add\n      0x00\n      tag_172\n      jump\t// in\n    tag_171:\n      pop\n      pop\n        /* \"DeadMansSwitch.sol\":6539:6582  BeneficiaryRemoved(msg.sender,_beneficiary) */\n      mload(0x40)\n      sub(shl(0xa0, 0x01), 0x01)\n      dup3\n      and\n      swap1\n        /* \"DeadMansSwitch.sol\":6558:6568  msg.sender */\n      caller\n      swap1\n        /* \"DeadMansSwitch.sol\":6539:6582  BeneficiaryRemoved(msg.sender,_beneficiary) */\n      0x1a6590bd0cabbfcc7c86bef99e1034054e179905cfcc294598fcd426c0922442\n      swap1\n      0x00\n      swap1\n      log3\n        /* \"DeadMansSwitch.sol\":6298:6590  function removeBeneficiary(address _beneficiary) external onlyBenefactor {... */\n      pop\n      jump\t// out\n        /* \"DeadMansSwitch.sol\":4855:5125  function getBenefactorPublicKey(address _benefactor) public view returns(string memory) {... */\n    tag_63:\n        /* \"DeadMansSwitch.sol\":4928:4941  string memory */\n      0x60\n        /* \"DeadMansSwitch.sol\":4958:4996  isBeneficiary(_benefactor, msg.sender) */\n      tag_174\n        /* \"DeadMansSwitch.sol\":4972:4983  _benefactor */\n      dup3\n        /* \"DeadMansSwitch.sol\":4985:4995  msg.sender */\n      caller\n        /* \"DeadMansSwitch.sol\":4958:4971  isBeneficiary */\n      tag_46\n        /* \"DeadMansSwitch.sol\":4958:4996  isBeneficiary(_benefactor, msg.sender) */\n      jump\t// in\n    tag_174:\n        /* \"DeadMansSwitch.sol\":4954:5118  if (isBeneficiary(_benefactor, msg.sender)) {... */\n      iszero\n      tag_175\n      jumpi\n      sub(shl(0xa0, 0x01), 0x01)\n        /* \"DeadMansSwitch.sol\":5020:5044  benefactors[_benefactor] */\n      dup3\n      and\n        /* \"DeadMansSwitch.sol\":5020:5031  benefactors */\n      0x00\n        /* \"DeadMansSwitch.sol\":5020:5044  benefactors[_benefactor] */\n      swap1\n      dup2\n      mstore\n      0x20\n      dup2\n      swap1\n      mstore\n      0x40\n      swap1\n      keccak256\n        /* \"DeadMansSwitch.sol\":5020:5064  benefactors[_benefactor].benefactorPublicKey */\n      0x05\n      add\n        /* \"DeadMansSwitch.sol\":5013:5064  return benefactors[_benefactor].benefactorPublicKey */\n      dup1\n      sload\n      tag_176\n      swap1\n      tag_177\n      jump\t// in\n    tag_176:\n      dup1\n      0x1f\n      add\n      0x20\n      dup1\n      swap2\n      div\n      mul\n      0x20\n      add\n      mload(0x40)\n      swap1\n      dup2\n      add\n      0x40\n      mstore\n      dup1\n      swap3\n      swap2\n      swap1\n      dup2\n      dup2\n      mstore\n      0x20\n      add\n      dup3\n      dup1\n      sload\n      tag_178\n      swap1\n      tag_177\n      jump\t// in\n    tag_178:\n      dup1\n      iszero\n      tag_179\n      jumpi\n      dup1\n      0x1f\n      lt\n      tag_180\n      jumpi\n      0x0100\n      dup1\n      dup4\n      sload\n      div\n      mul\n      dup4\n      mstore\n      swap2\n      0x20\n      add\n      swap2\n      jump(tag_179)\n    tag_180:\n      dup3\n      add\n      swap2\n      swap1\n      0x00\n      mstore\n      keccak256(0x00, 0x20)\n      swap1\n    tag_181:\n      dup2\n      sload\n      dup2\n      mstore\n      swap1\n      0x01\n      add\n      swap1\n      0x20\n      add\n      dup1\n      dup4\n      gt\n      tag_181\n      jumpi\n      dup3\n      swap1\n      sub\n      0x1f\n      and\n      dup3\n      add\n      swap2\n    tag_179:\n      pop\n      pop\n      pop\n      pop\n      pop\n      swap1\n      pop\n        /* \"DeadMansSwitch.sol\":4855:5125  function getBenefactorPublicKey(address _benefactor) public view returns(string memory) {... */\n      swap2\n      swap1\n      pop\n      jump\t// out\n        /* \"DeadMansSwitch.sol\":4954:5118  if (isBeneficiary(_benefactor, msg.sender)) {... */\n    tag_175:\n      pop\n      pop\n        /* \"DeadMansSwitch.sol\":5097:5106  return \"\" */\n      0x40\n      dup1\n      mload\n      0x20\n      dup2\n      add\n      swap1\n      swap2\n      mstore\n      0x00\n      dup2\n      mstore\n      swap1\n        /* \"DeadMansSwitch.sol\":4855:5125  function getBenefactorPublicKey(address _benefactor) public view returns(string memory) {... */\n      jump\t// out\n        /* \"DeadMansSwitch.sol\":4954:5118  if (isBeneficiary(_benefactor, msg.sender)) {... */\n    tag_182:\n        /* \"DeadMansSwitch.sol\":4855:5125  function getBenefactorPublicKey(address _benefactor) public view returns(string memory) {... */\n      swap2\n      swap1\n      pop\n      jump\t// out\n        /* \"DeadMansSwitch.sol\":8439:9354  function removeIpfsCID(address _beneficiary, string memory _ipfsCID) external onlyBenefactor {... */\n    tag_69:\n        /* \"DeadMansSwitch.sol\":2599:2609  msg.sender */\n      caller\n        /* \"DeadMansSwitch.sol\":2587:2598  benefactors */\n      0x00\n        /* \"DeadMansSwitch.sol\":2587:2610  benefactors[msg.sender] */\n      swap1\n      dup2\n      mstore\n      0x20\n      dup2\n      swap1\n      mstore\n      0x40\n      swap1\n      keccak256\n        /* \"DeadMansSwitch.sol\":2587:2617  benefactors[msg.sender].exists */\n      sload\n      0xff\n      and\n        /* \"DeadMansSwitch.sol\":2587:2652  benefactors[msg.sender].exists && benefactors[msg.sender].isAlive */\n      dup1\n      iszero\n      tag_184\n      jumpi\n      pop\n        /* \"DeadMansSwitch.sol\":2633:2643  msg.sender */\n      caller\n        /* \"DeadMansSwitch.sol\":2621:2632  benefactors */\n      0x00\n        /* \"DeadMansSwitch.sol\":2621:2644  benefactors[msg.sender] */\n      swap1\n      dup2\n      mstore\n      0x20\n      dup2\n      swap1\n      mstore\n      0x40\n      swap1\n      keccak256\n        /* \"DeadMansSwitch.sol\":2621:2652  benefactors[msg.sender].isAlive */\n      0x04\n      add\n      sload\n      0x0100\n      swap1\n      div\n      0xff\n      and\n        /* \"DeadMansSwitch.sol\":2587:2652  benefactors[msg.sender].exists && benefactors[msg.sender].isAlive */\n    tag_184:\n        /* \"DeadMansSwitch.sol\":2579:2679  require(benefactors[msg.sender].exists && benefactors[msg.sender].isAlive, \"Not a valid benefactor\") */\n      tag_185\n      jumpi\n      mload(0x40)\n      shl(0xe5, 0x461bcd)\n      dup2\n      mstore\n        /* \"#utility.yul\":11980:11982   */\n      0x20\n        /* \"DeadMansSwitch.sol\":2579:2679  require(benefactors[msg.sender].exists && benefactors[msg.sender].isAlive, \"Not a valid benefactor\") */\n      0x04\n      dup3\n      add\n        /* \"#utility.yul\":11962:11983   */\n      mstore\n        /* \"#utility.yul\":12019:12021   */\n      0x16\n        /* \"#utility.yul\":11999:12017   */\n      0x24\n      dup3\n      add\n        /* \"#utility.yul\":11992:12022   */\n      mstore\n      shl(0x51, 0x2737ba1030903b30b634b2103132b732b330b1ba37b9)\n        /* \"#utility.yul\":12038:12056   */\n      0x44\n      dup3\n      add\n        /* \"#utility.yul\":12031:12083   */\n      mstore\n        /* \"#utility.yul\":12100:12118   */\n      0x64\n      add\n        /* \"DeadMansSwitch.sol\":2579:2679  require(benefactors[msg.sender].exists && benefactors[msg.sender].isAlive, \"Not a valid benefactor\") */\n      tag_120\n        /* \"#utility.yul\":11778:12124   */\n      jump\n        /* \"DeadMansSwitch.sol\":2579:2679  require(benefactors[msg.sender].exists && benefactors[msg.sender].isAlive, \"Not a valid benefactor\") */\n    tag_185:\n        /* \"DeadMansSwitch.sol\":8551:8590  isBeneficiary(msg.sender, _beneficiary) */\n      tag_188\n        /* \"DeadMansSwitch.sol\":8565:8575  msg.sender */\n      caller\n        /* \"DeadMansSwitch.sol\":8577:8589  _beneficiary */\n      dup4\n        /* \"DeadMansSwitch.sol\":8551:8564  isBeneficiary */\n      tag_46\n        /* \"DeadMansSwitch.sol\":8551:8590  isBeneficiary(msg.sender, _beneficiary) */\n      jump\t// in\n    tag_188:\n        /* \"DeadMansSwitch.sol\":8543:8616  require(isBeneficiary(msg.sender, _beneficiary), \"Beneficiary not found\") */\n      tag_189\n      jumpi\n      mload(0x40)\n      shl(0xe5, 0x461bcd)\n      dup2\n      mstore\n        /* \"#utility.yul\":12958:12960   */\n      0x20\n        /* \"DeadMansSwitch.sol\":8543:8616  require(isBeneficiary(msg.sender, _beneficiary), \"Beneficiary not found\") */\n      0x04\n      dup3\n      add\n        /* \"#utility.yul\":12940:12961   */\n      mstore\n        /* \"#utility.yul\":12997:12999   */\n      0x15\n        /* \"#utility.yul\":12977:12995   */\n      0x24\n      dup3\n      add\n        /* \"#utility.yul\":12970:13000   */\n      mstore\n      shl(0x5a, 0x10995b99599a58da585c9e481b9bdd08199bdd5b99)\n        /* \"#utility.yul\":13016:13034   */\n      0x44\n      dup3\n      add\n        /* \"#utility.yul\":13009:13060   */\n      mstore\n        /* \"#utility.yul\":13077:13095   */\n      0x64\n      add\n        /* \"DeadMansSwitch.sol\":8543:8616  require(isBeneficiary(msg.sender, _beneficiary), \"Beneficiary not found\") */\n      tag_120\n        /* \"#utility.yul\":12756:13101   */\n      jump\n        /* \"DeadMansSwitch.sol\":8543:8616  require(isBeneficiary(msg.sender, _beneficiary), \"Beneficiary not found\") */\n    tag_189:\n        /* \"DeadMansSwitch.sol\":8669:8679  msg.sender */\n      caller\n        /* \"DeadMansSwitch.sol\":8629:8654  string[] storage ipfsCIDs */\n      0x00\n        /* \"DeadMansSwitch.sol\":8657:8680  benefactors[msg.sender] */\n      swap1\n      dup2\n      mstore\n      0x20\n      dup2\n      dup2\n      mstore\n      0x40\n      dup1\n      dup4\n      keccak256\n      sub(shl(0xa0, 0x01), 0x01)\n        /* \"DeadMansSwitch.sol\":8657:8708  benefactors[msg.sender].beneficiaries[_beneficiary] */\n      dup7\n      and\n      dup5\n      mstore\n        /* \"DeadMansSwitch.sol\":8657:8694  benefactors[msg.sender].beneficiaries */\n      0x01\n      swap1\n      dup2\n      add\n        /* \"DeadMansSwitch.sol\":8657:8708  benefactors[msg.sender].beneficiaries[_beneficiary] */\n      swap1\n      swap3\n      mstore\n      dup3\n      keccak256\n        /* \"DeadMansSwitch.sol\":8657:8717  benefactors[msg.sender].beneficiaries[_beneficiary].ipfsCIDs */\n      add\n      swap1\n        /* \"DeadMansSwitch.sol\":8774:9264  for (uint256 i = 0; i < ipfsCIDs.length; i++) {... */\n    tag_191:\n        /* \"DeadMansSwitch.sol\":8798:8813  ipfsCIDs.length */\n      dup2\n      sload\n        /* \"DeadMansSwitch.sol\":8794:8813  i < ipfsCIDs.length */\n      dup2\n      lt\n        /* \"DeadMansSwitch.sol\":8774:9264  for (uint256 i = 0; i < ipfsCIDs.length; i++) {... */\n      iszero\n      tag_192\n      jumpi\n        /* \"DeadMansSwitch.sol\":8910:8918  _ipfsCID */\n      dup3\n        /* \"DeadMansSwitch.sol\":8893:8919  abi.encodePacked(_ipfsCID) */\n      add(0x20, mload(0x40))\n      tag_194\n      swap2\n      swap1\n      tag_195\n      jump\t// in\n    tag_194:\n      mload(0x40)\n      0x20\n      dup2\n      dup4\n      sub\n      sub\n      dup2\n      mstore\n      swap1\n      0x40\n      mstore\n        /* \"DeadMansSwitch.sol\":8883:8920  keccak256(abi.encodePacked(_ipfsCID)) */\n      dup1\n      mload\n      swap1\n      0x20\n      add\n      keccak256\n        /* \"DeadMansSwitch.sol\":8866:8874  ipfsCIDs */\n      dup3\n        /* \"DeadMansSwitch.sol\":8875:8876  i */\n      dup3\n        /* \"DeadMansSwitch.sol\":8866:8877  ipfsCIDs[i] */\n      dup2\n      sload\n      dup2\n      lt\n      tag_197\n      jumpi\n      tag_197\n      tag_144\n      jump\t// in\n    tag_197:\n      swap1\n      0x00\n      mstore\n      keccak256(0x00, 0x20)\n      add\n        /* \"DeadMansSwitch.sol\":8849:8878  abi.encodePacked(ipfsCIDs[i]) */\n      add(0x20, mload(0x40))\n      tag_199\n      swap2\n      swap1\n      tag_200\n      jump\t// in\n    tag_199:\n      mload(0x40)\n      0x20\n      dup2\n      dup4\n      sub\n      sub\n      dup2\n      mstore\n      swap1\n      0x40\n      mstore\n        /* \"DeadMansSwitch.sol\":8839:8879  keccak256(abi.encodePacked(ipfsCIDs[i])) */\n      dup1\n      mload\n      swap1\n      0x20\n      add\n      keccak256\n        /* \"DeadMansSwitch.sol\":8839:8920  keccak256(abi.encodePacked(ipfsCIDs[i])) == keccak256(abi.encodePacked(_ipfsCID)) */\n      sub\n        /* \"DeadMansSwitch.sol\":8835:9253  if (keccak256(abi.encodePacked(ipfsCIDs[i])) == keccak256(abi.encodePacked(_ipfsCID))) {... */\n      tag_201\n      jumpi\n        /* \"DeadMansSwitch.sol\":9032:9047  ipfsCIDs.length */\n      dup2\n      sload\n        /* \"DeadMansSwitch.sol\":9023:9031  ipfsCIDs */\n      dup3\n      swap1\n        /* \"DeadMansSwitch.sol\":9032:9051  ipfsCIDs.length - 1 */\n      tag_202\n      swap1\n        /* \"DeadMansSwitch.sol\":9050:9051  1 */\n      0x01\n      swap1\n        /* \"DeadMansSwitch.sol\":9032:9051  ipfsCIDs.length - 1 */\n      tag_106\n      jump\t// in\n    tag_202:\n        /* \"DeadMansSwitch.sol\":9023:9052  ipfsCIDs[ipfsCIDs.length - 1] */\n      dup2\n      sload\n      dup2\n      lt\n      tag_204\n      jumpi\n      tag_204\n      tag_144\n      jump\t// in\n    tag_204:\n      swap1\n      0x00\n      mstore\n      keccak256(0x00, 0x20)\n      add\n        /* \"DeadMansSwitch.sol\":9009:9017  ipfsCIDs */\n      dup3\n        /* \"DeadMansSwitch.sol\":9018:9019  i */\n      dup3\n        /* \"DeadMansSwitch.sol\":9009:9020  ipfsCIDs[i] */\n      dup2\n      sload\n      dup2\n      lt\n      tag_207\n      jumpi\n      tag_207\n      tag_144\n      jump\t// in\n    tag_207:\n      swap1\n      0x00\n      mstore\n      keccak256(0x00, 0x20)\n      add\n        /* \"DeadMansSwitch.sol\":9009:9052  ipfsCIDs[i] = ipfsCIDs[ipfsCIDs.length - 1] */\n      swap1\n      dup2\n      tag_209\n      swap2\n      swap1\n      tag_210\n      jump\t// in\n    tag_209:\n      pop\n        /* \"DeadMansSwitch.sol\":9124:9132  ipfsCIDs */\n      dup2\n        /* \"DeadMansSwitch.sol\":9124:9138  ipfsCIDs.pop() */\n      dup1\n      sload\n      dup1\n      tag_212\n      jumpi\n      tag_212\n      tag_213\n      jump\t// in\n    tag_212:\n      0x01\n      swap1\n      sub\n      dup2\n      dup2\n      swap1\n      0x00\n      mstore\n      keccak256(0x00, 0x20)\n      add\n      0x00\n      tag_215\n      swap2\n      swap1\n      tag_172\n      jump\t// in\n    tag_215:\n      swap1\n      sstore\n        /* \"DeadMansSwitch.sol\":9189:9201  _beneficiary */\n      dup4\n      sub(shl(0xa0, 0x01), 0x01)\n        /* \"DeadMansSwitch.sol\":9162:9212  IpfsCIDRemoved(msg.sender, _beneficiary, _ipfsCID) */\n      and\n        /* \"DeadMansSwitch.sol\":9177:9187  msg.sender */\n      caller\n      sub(shl(0xa0, 0x01), 0x01)\n        /* \"DeadMansSwitch.sol\":9162:9212  IpfsCIDRemoved(msg.sender, _beneficiary, _ipfsCID) */\n      and\n      0x4c13211ce3b2d0cb3e02a662cc071d6be555042ca58d4d812b7b90e80d3250ac\n        /* \"DeadMansSwitch.sol\":9203:9211  _ipfsCID */\n      dup6\n        /* \"DeadMansSwitch.sol\":9162:9212  IpfsCIDRemoved(msg.sender, _beneficiary, _ipfsCID) */\n      mload(0x40)\n      tag_216\n      swap2\n      swap1\n      tag_65\n      jump\t// in\n    tag_216:\n      mload(0x40)\n      dup1\n      swap2\n      sub\n      swap1\n      log3\n        /* \"DeadMansSwitch.sol\":9231:9238  return; */\n      pop\n      pop\n        /* \"DeadMansSwitch.sol\":8439:9354  function removeIpfsCID(address _beneficiary, string memory _ipfsCID) external onlyBenefactor {... */\n      pop\n      pop\n      jump\t// out\n        /* \"DeadMansSwitch.sol\":8835:9253  if (keccak256(abi.encodePacked(ipfsCIDs[i])) == keccak256(abi.encodePacked(_ipfsCID))) {... */\n    tag_201:\n        /* \"DeadMansSwitch.sol\":8815:8818  i++ */\n      dup1\n      tag_217\n      dup2\n      tag_159\n      jump\t// in\n    tag_217:\n      swap2\n      pop\n      pop\n        /* \"DeadMansSwitch.sol\":8774:9264  for (uint256 i = 0; i < ipfsCIDs.length; i++) {... */\n      jump(tag_191)\n    tag_192:\n      pop\n        /* \"DeadMansSwitch.sol\":9300:9346  revert(\"CID not assigned to this beneficiary\") */\n      mload(0x40)\n      shl(0xe5, 0x461bcd)\n      dup2\n      mstore\n        /* \"#utility.yul\":16021:16023   */\n      0x20\n        /* \"DeadMansSwitch.sol\":9300:9346  revert(\"CID not assigned to this beneficiary\") */\n      0x04\n      dup3\n      add\n        /* \"#utility.yul\":16003:16024   */\n      mstore\n        /* \"#utility.yul\":16060:16062   */\n      0x24\n        /* \"#utility.yul\":16040:16058   */\n      dup1\n      dup3\n      add\n        /* \"#utility.yul\":16033:16063   */\n      mstore\n        /* \"#utility.yul\":16099:16133   */\n      0x434944206e6f742061737369676e656420746f20746869732062656e65666963\n        /* \"#utility.yul\":16079:16097   */\n      0x44\n      dup3\n      add\n        /* \"#utility.yul\":16072:16134   */\n      mstore\n      shl(0xe0, 0x69617279)\n        /* \"#utility.yul\":16150:16168   */\n      0x64\n      dup3\n      add\n        /* \"#utility.yul\":16143:16177   */\n      mstore\n        /* \"#utility.yul\":16194:16213   */\n      0x84\n      add\n        /* \"DeadMansSwitch.sol\":9300:9346  revert(\"CID not assigned to this beneficiary\") */\n      tag_120\n        /* \"#utility.yul\":15819:16219   */\n      jump\n        /* \"DeadMansSwitch.sol\":9516:10302  function enableSwitch(address _benefactor) external {... */\n    tag_72:\n      sub(shl(0xa0, 0x01), 0x01)\n        /* \"DeadMansSwitch.sol\":9654:9678  benefactors[_benefactor] */\n      dup2\n      and\n        /* \"DeadMansSwitch.sol\":9654:9665  benefactors */\n      0x00\n        /* \"DeadMansSwitch.sol\":9654:9678  benefactors[_benefactor] */\n      swap1\n      dup2\n      mstore\n      0x20\n      dup2\n      dup2\n      mstore\n      0x40\n      dup1\n      dup4\n      keccak256\n        /* \"DeadMansSwitch.sol\":9693:9703  msg.sender */\n      caller\n        /* \"DeadMansSwitch.sol\":9654:9704  benefactors[_benefactor].beneficiaries[msg.sender] */\n      dup5\n      mstore\n        /* \"DeadMansSwitch.sol\":9654:9692  benefactors[_benefactor].beneficiaries */\n      0x01\n      add\n        /* \"DeadMansSwitch.sol\":9654:9704  benefactors[_benefactor].beneficiaries[msg.sender] */\n      swap1\n      swap2\n      mstore\n      swap1\n      keccak256\n        /* \"DeadMansSwitch.sol\":9654:9711  benefactors[_benefactor].beneficiaries[msg.sender].exists */\n      sload\n      0xff\n      and\n        /* \"DeadMansSwitch.sol\":9646:9739  require(benefactors[_benefactor].beneficiaries[msg.sender].exists, \"Not a valid beneficiary\") */\n      tag_221\n      jumpi\n      mload(0x40)\n      shl(0xe5, 0x461bcd)\n      dup2\n      mstore\n        /* \"#utility.yul\":16426:16428   */\n      0x20\n        /* \"DeadMansSwitch.sol\":9646:9739  require(benefactors[_benefactor].beneficiaries[msg.sender].exists, \"Not a valid beneficiary\") */\n      0x04\n      dup3\n      add\n        /* \"#utility.yul\":16408:16429   */\n      mstore\n        /* \"#utility.yul\":16465:16467   */\n      0x17\n        /* \"#utility.yul\":16445:16463   */\n      0x24\n      dup3\n      add\n        /* \"#utility.yul\":16438:16468   */\n      mstore\n        /* \"#utility.yul\":16504:16529   */\n      0x4e6f7420612076616c69642062656e6566696369617279000000000000000000\n        /* \"#utility.yul\":16484:16502   */\n      0x44\n      dup3\n      add\n        /* \"#utility.yul\":16477:16530   */\n      mstore\n        /* \"#utility.yul\":16547:16565   */\n      0x64\n      add\n        /* \"DeadMansSwitch.sol\":9646:9739  require(benefactors[_benefactor].beneficiaries[msg.sender].exists, \"Not a valid beneficiary\") */\n      tag_120\n        /* \"#utility.yul\":16224:16571   */\n      jump\n        /* \"DeadMansSwitch.sol\":9646:9739  require(benefactors[_benefactor].beneficiaries[msg.sender].exists, \"Not a valid beneficiary\") */\n    tag_221:\n      sub(shl(0xa0, 0x01), 0x01)\n        /* \"DeadMansSwitch.sol\":9755:9779  benefactors[_benefactor] */\n      dup2\n      and\n        /* \"DeadMansSwitch.sol\":9755:9766  benefactors */\n      0x00\n        /* \"DeadMansSwitch.sol\":9755:9779  benefactors[_benefactor] */\n      swap1\n      dup2\n      mstore\n      0x20\n      dup2\n      swap1\n      mstore\n      0x40\n      swap1\n      keccak256\n        /* \"DeadMansSwitch.sol\":9755:9793  benefactors[_benefactor].isSwitchedOff */\n      0x04\n      add\n      sload\n      0xff\n      and\n        /* \"DeadMansSwitch.sol\":9750:9887  if (!benefactors[_benefactor].isSwitchedOff) {... */\n      tag_224\n      jumpi\n        /* \"DeadMansSwitch.sol\":9815:9854  SwitchAlreadyOn(_benefactor,msg.sender) */\n      mload(0x40)\n        /* \"DeadMansSwitch.sol\":9843:9853  msg.sender */\n      caller\n      swap1\n      sub(shl(0xa0, 0x01), 0x01)\n        /* \"DeadMansSwitch.sol\":9815:9854  SwitchAlreadyOn(_benefactor,msg.sender) */\n      dup4\n      and\n      swap1\n      0x67c4731bdc193862f421e091d18f46df876bfe1b8b9aa97504f1d50d425b239d\n      swap1\n      0x00\n      swap1\n      log3\n        /* \"DeadMansSwitch.sol\":9516:10302  function enableSwitch(address _benefactor) external {... */\n      pop\n      jump\t// out\n        /* \"DeadMansSwitch.sol\":9750:9887  if (!benefactors[_benefactor].isSwitchedOff) {... */\n    tag_224:\n      sub(shl(0xa0, 0x01), 0x01)\n        /* \"DeadMansSwitch.sol\":9897:9921  benefactors[_benefactor] */\n      dup2\n      and\n        /* \"DeadMansSwitch.sol\":9938:9943  false */\n      0x00\n        /* \"DeadMansSwitch.sol\":9897:9921  benefactors[_benefactor] */\n      dup2\n      dup2\n      mstore\n      0x20\n      dup2\n      dup2\n      mstore\n      0x40\n      swap2\n      dup3\n      swap1\n      keccak256\n        /* \"DeadMansSwitch.sol\":9897:9935  benefactors[_benefactor].isSwitchedOff */\n      0x04\n      dup2\n      add\n        /* \"DeadMansSwitch.sol\":9897:9943  benefactors[_benefactor].isSwitchedOff = false */\n      dup1\n      sload\n      not(0xff)\n      and\n      swap1\n      sstore\n        /* \"DeadMansSwitch.sol\":10053:10068  block.timestamp */\n      timestamp\n        /* \"DeadMansSwitch.sol\":9999:10050  benefactors[_benefactor].lastBenefactorResponseTime */\n      0x03\n      dup3\n      add\n        /* \"DeadMansSwitch.sol\":9999:10068  benefactors[_benefactor].lastBenefactorResponseTime = block.timestamp */\n      sstore\n        /* \"DeadMansSwitch.sol\":10251:10293  benefactors[_benefactor].countdownDuration */\n      0x02\n      add\n      sload\n        /* \"DeadMansSwitch.sol\":10205:10294  DeadMansSwitchEnabled(_benefactor,msg.sender, benefactors[_benefactor].countdownDuration) */\n      swap2\n      mload\n        /* \"#utility.yul\":552:577   */\n      swap2\n      dup3\n      mstore\n        /* \"DeadMansSwitch.sol\":10239:10249  msg.sender */\n      caller\n      swap3\n        /* \"DeadMansSwitch.sol\":9897:9921  benefactors[_benefactor] */\n      swap2\n        /* \"DeadMansSwitch.sol\":10205:10294  DeadMansSwitchEnabled(_benefactor,msg.sender, benefactors[_benefactor].countdownDuration) */\n      0x82595752291d0261dfb9b4b0c2307021c29c34e22fe0697b4840b529dc351bc3\n      swap2\n        /* \"#utility.yul\":525:543   */\n      add\n        /* \"DeadMansSwitch.sol\":10205:10294  DeadMansSwitchEnabled(_benefactor,msg.sender, benefactors[_benefactor].countdownDuration) */\n      mload(0x40)\n      dup1\n      swap2\n      sub\n      swap1\n      log3\n        /* \"DeadMansSwitch.sol\":9516:10302  function enableSwitch(address _benefactor) external {... */\n      pop\n      jump\t// out\n        /* \"DeadMansSwitch.sol\":5658:5890  function removeBenefactor(address _benefactor) public {... */\n    tag_75:\n        /* \"DeadMansSwitch.sol\":5743:5753  msg.sender */\n      caller\n        /* \"DeadMansSwitch.sol\":5731:5742  benefactors */\n      0x00\n        /* \"DeadMansSwitch.sol\":5731:5754  benefactors[msg.sender] */\n      swap1\n      dup2\n      mstore\n      0x20\n      dup2\n      swap1\n      mstore\n      0x40\n      swap1\n      keccak256\n        /* \"DeadMansSwitch.sol\":5731:5761  benefactors[msg.sender].exists */\n      sload\n      0xff\n      and\n        /* \"DeadMansSwitch.sol\":5723:5791  require(benefactors[msg.sender].exists, \"Benefactor not registered\") */\n      tag_227\n      jumpi\n      mload(0x40)\n      shl(0xe5, 0x461bcd)\n      dup2\n      mstore\n        /* \"#utility.yul\":16778:16780   */\n      0x20\n        /* \"DeadMansSwitch.sol\":5723:5791  require(benefactors[msg.sender].exists, \"Benefactor not registered\") */\n      0x04\n      dup3\n      add\n        /* \"#utility.yul\":16760:16781   */\n      mstore\n        /* \"#utility.yul\":16817:16819   */\n      0x19\n        /* \"#utility.yul\":16797:16815   */\n      0x24\n      dup3\n      add\n        /* \"#utility.yul\":16790:16820   */\n      mstore\n        /* \"#utility.yul\":16856:16883   */\n      0x42656e65666163746f72206e6f74207265676973746572656400000000000000\n        /* \"#utility.yul\":16836:16854   */\n      0x44\n      dup3\n      add\n        /* \"#utility.yul\":16829:16884   */\n      mstore\n        /* \"#utility.yul\":16901:16919   */\n      0x64\n      add\n        /* \"DeadMansSwitch.sol\":5723:5791  require(benefactors[msg.sender].exists, \"Benefactor not registered\") */\n      tag_120\n        /* \"#utility.yul\":16576:16925   */\n      jump\n        /* \"DeadMansSwitch.sol\":5723:5791  require(benefactors[msg.sender].exists, \"Benefactor not registered\") */\n    tag_227:\n        /* \"DeadMansSwitch.sol\":5814:5824  msg.sender */\n      caller\n        /* \"DeadMansSwitch.sol\":5835:5840  false */\n      0x00\n        /* \"DeadMansSwitch.sol\":5802:5825  benefactors[msg.sender] */\n      swap1\n      dup2\n      mstore\n      0x20\n      dup2\n      swap1\n      mstore\n      0x40\n      dup1\n      dup3\n      keccak256\n        /* \"DeadMansSwitch.sol\":5802:5840  benefactors[msg.sender].exists = false */\n      dup1\n      sload\n      not(0xff)\n      swap1\n      dup2\n      and\n      swap1\n      swap2\n      sstore\n      sub(shl(0xa0, 0x01), 0x01)\n        /* \"DeadMansSwitch.sol\":5858:5882  benefactors[_benefactor] */\n      dup5\n      and\n      dup4\n      mstore\n      swap1\n      dup3\n      keccak256\n        /* \"DeadMansSwitch.sol\":5851:5882  delete benefactors[_benefactor] */\n      dup1\n      sload\n      swap1\n      swap2\n      and\n      dup2\n      sstore\n      0x02\n      dup2\n      add\n      dup3\n      swap1\n      sstore\n      0x03\n      dup2\n      add\n      dup3\n      swap1\n      sstore\n      0x04\n      dup2\n      add\n      dup1\n      sload\n      not(0xffff)\n      and\n      swap1\n      sstore\n        /* \"DeadMansSwitch.sol\":5858:5882  benefactors[_benefactor] */\n      swap1\n        /* \"DeadMansSwitch.sol\":5851:5882  delete benefactors[_benefactor] */\n      tag_140\n      0x05\n      dup4\n      add\n        /* \"DeadMansSwitch.sol\":5835:5840  false */\n      dup3\n        /* \"DeadMansSwitch.sol\":5851:5882  delete benefactors[_benefactor] */\n      tag_172\n      jump\t// in\n        /* \"DeadMansSwitch.sol\":15706:16512  function getBeneficiaryData(address _benefactor, address _beneficiary) public returns (bool switchStatus, uint256 remainingTime, bool isAlive, string memory publicKey) {... */\n    tag_78:\n      sub(shl(0xa0, 0x01), 0x01)\n        /* \"DeadMansSwitch.sol\":15893:15917  benefactors[_benefactor] */\n      dup3\n      and\n        /* \"DeadMansSwitch.sol\":15793:15810  bool switchStatus */\n      0x00\n        /* \"DeadMansSwitch.sol\":15893:15917  benefactors[_benefactor] */\n      swap1\n      dup2\n      mstore\n      0x20\n      dup2\n      swap1\n      mstore\n      0x40\n      dup2\n      keccak256\n        /* \"DeadMansSwitch.sol\":15893:15924  benefactors[_benefactor].exists */\n      sload\n        /* \"DeadMansSwitch.sol\":15793:15810  bool switchStatus */\n      dup2\n      swap1\n      dup2\n      swap1\n        /* \"DeadMansSwitch.sol\":15849:15872  string memory publicKey */\n      0x60\n      swap1\n        /* \"DeadMansSwitch.sol\":15893:15924  benefactors[_benefactor].exists */\n      0xff\n      and\n        /* \"DeadMansSwitch.sol\":15885:15954  require(benefactors[_benefactor].exists, \"Benefactor does not exist\") */\n      tag_232\n      jumpi\n      mload(0x40)\n      shl(0xe5, 0x461bcd)\n      dup2\n      mstore\n        /* \"#utility.yul\":8676:8678   */\n      0x20\n        /* \"DeadMansSwitch.sol\":15885:15954  require(benefactors[_benefactor].exists, \"Benefactor does not exist\") */\n      0x04\n      dup3\n      add\n        /* \"#utility.yul\":8658:8679   */\n      mstore\n        /* \"#utility.yul\":8715:8717   */\n      0x19\n        /* \"#utility.yul\":8695:8713   */\n      0x24\n      dup3\n      add\n        /* \"#utility.yul\":8688:8718   */\n      mstore\n        /* \"#utility.yul\":8754:8781   */\n      0x42656e65666163746f7220646f6573206e6f7420657869737400000000000000\n        /* \"#utility.yul\":8734:8752   */\n      0x44\n      dup3\n      add\n        /* \"#utility.yul\":8727:8782   */\n      mstore\n        /* \"#utility.yul\":8799:8817   */\n      0x64\n      add\n        /* \"DeadMansSwitch.sol\":15885:15954  require(benefactors[_benefactor].exists, \"Benefactor does not exist\") */\n      tag_120\n        /* \"#utility.yul\":8474:8823   */\n      jump\n        /* \"DeadMansSwitch.sol\":15885:15954  require(benefactors[_benefactor].exists, \"Benefactor does not exist\") */\n    tag_232:\n      sub(shl(0xa0, 0x01), 0x01)\n        /* \"DeadMansSwitch.sol\":15981:16005  benefactors[_benefactor] */\n      dup7\n      and\n        /* \"DeadMansSwitch.sol\":15981:15992  benefactors */\n      0x00\n        /* \"DeadMansSwitch.sol\":15981:16005  benefactors[_benefactor] */\n      swap1\n      dup2\n      mstore\n      0x20\n      dup2\n      swap1\n      mstore\n      0x40\n      swap1\n      keccak256\n        /* \"DeadMansSwitch.sol\":15981:16019  benefactors[_benefactor].isSwitchedOff */\n      0x04\n      add\n      sload\n      0xff\n      and\n        /* \"DeadMansSwitch.sol\":15980:16019  !benefactors[_benefactor].isSwitchedOff */\n      iszero\n      swap4\n      pop\n      dup4\n        /* \"DeadMansSwitch.sol\":16030:16205  if (benefactors[_benefactor].isSwitchedOff) {... */\n      tag_234\n      jumpi\n        /* \"DeadMansSwitch.sol\":16105:16106  0 */\n      0x00\n        /* \"DeadMansSwitch.sol\":16089:16106  remainingTime = 0 */\n      swap3\n      pop\n        /* \"DeadMansSwitch.sol\":16030:16205  if (benefactors[_benefactor].isSwitchedOff) {... */\n      jump(tag_235)\n    tag_234:\n        /* \"DeadMansSwitch.sol\":16155:16193  getRemainingCountdownTime(_benefactor) */\n      tag_236\n        /* \"DeadMansSwitch.sol\":16181:16192  _benefactor */\n      dup7\n        /* \"DeadMansSwitch.sol\":16155:16180  getRemainingCountdownTime */\n      tag_31\n        /* \"DeadMansSwitch.sol\":16155:16193  getRemainingCountdownTime(_benefactor) */\n      jump\t// in\n    tag_236:\n        /* \"DeadMansSwitch.sol\":16139:16193  remainingTime = getRemainingCountdownTime(_benefactor) */\n      swap3\n      pop\n        /* \"DeadMansSwitch.sol\":16030:16205  if (benefactors[_benefactor].isSwitchedOff) {... */\n    tag_235:\n      sub(shl(0xa0, 0x01), 0x01)\n        /* \"DeadMansSwitch.sol\":16225:16249  benefactors[_benefactor] */\n      dup7\n      dup2\n      and\n        /* \"DeadMansSwitch.sol\":16225:16236  benefactors */\n      0x00\n        /* \"DeadMansSwitch.sol\":16225:16249  benefactors[_benefactor] */\n      swap1\n      dup2\n      mstore\n      0x20\n      dup2\n      dup2\n      mstore\n      0x40\n      dup1\n      dup4\n      keccak256\n        /* \"DeadMansSwitch.sol\":16225:16257  benefactors[_benefactor].isAlive */\n      0x04\n      dup2\n      add\n      sload\n        /* \"DeadMansSwitch.sol\":16280:16332  benefactors[_benefactor].beneficiaries[_beneficiary] */\n      swap5\n      dup11\n      and\n      dup5\n      mstore\n        /* \"DeadMansSwitch.sol\":16225:16257  benefactors[_benefactor].isAlive */\n      0x01\n        /* \"DeadMansSwitch.sol\":16280:16318  benefactors[_benefactor].beneficiaries */\n      add\n        /* \"DeadMansSwitch.sol\":16280:16332  benefactors[_benefactor].beneficiaries[_beneficiary] */\n      swap1\n      swap2\n      mstore\n      swap1\n      keccak256\n        /* \"DeadMansSwitch.sol\":16280:16353  benefactors[_benefactor].beneficiaries[_beneficiary].beneficiaryPublicKey */\n      0x02\n      add\n        /* \"DeadMansSwitch.sol\":16268:16353  publicKey = benefactors[_benefactor].beneficiaries[_beneficiary].beneficiaryPublicKey */\n      dup1\n      sload\n        /* \"DeadMansSwitch.sol\":16225:16257  benefactors[_benefactor].isAlive */\n      0x0100\n      swap1\n      swap3\n      div\n      0xff\n      and\n      swap4\n      pop\n        /* \"DeadMansSwitch.sol\":16280:16353  benefactors[_benefactor].beneficiaries[_beneficiary].beneficiaryPublicKey */\n      swap1\n        /* \"DeadMansSwitch.sol\":16268:16353  publicKey = benefactors[_benefactor].beneficiaries[_beneficiary].beneficiaryPublicKey */\n      tag_237\n      swap1\n      tag_177\n      jump\t// in\n    tag_237:\n      dup1\n      0x1f\n      add\n      0x20\n      dup1\n      swap2\n      div\n      mul\n      0x20\n      add\n      mload(0x40)\n      swap1\n      dup2\n      add\n      0x40\n      mstore\n      dup1\n      swap3\n      swap2\n      swap1\n      dup2\n      dup2\n      mstore\n      0x20\n      add\n      dup3\n      dup1\n      sload\n      tag_238\n      swap1\n      tag_177\n      jump\t// in\n    tag_238:\n      dup1\n      iszero\n      tag_239\n      jumpi\n      dup1\n      0x1f\n      lt\n      tag_240\n      jumpi\n      0x0100\n      dup1\n      dup4\n      sload\n      div\n      mul\n      dup4\n      mstore\n      swap2\n      0x20\n      add\n      swap2\n      jump(tag_239)\n    tag_240:\n      dup3\n      add\n      swap2\n      swap1\n      0x00\n      mstore\n      keccak256(0x00, 0x20)\n      swap1\n    tag_241:\n      dup2\n      sload\n      dup2\n      mstore\n      swap1\n      0x01\n      add\n      swap1\n      0x20\n      add\n      dup1\n      dup4\n      gt\n      tag_241\n      jumpi\n      dup3\n      swap1\n      sub\n      0x1f\n      and\n      dup3\n      add\n      swap2\n    tag_239:\n      pop\n      pop\n      pop\n      pop\n      pop\n      swap1\n      pop\n        /* \"DeadMansSwitch.sol\":16371:16437  BeneficiariesData(switchStatus, remainingTime, isAlive, publicKey) */\n      0x0e092c8eab045fa06eb05fe062c2d0a1721905a7ad6acb7eed9c804d956ea9fd\n        /* \"DeadMansSwitch.sol\":16389:16401  switchStatus */\n      dup5\n        /* \"DeadMansSwitch.sol\":16403:16416  remainingTime */\n      dup5\n        /* \"DeadMansSwitch.sol\":16418:16425  isAlive */\n      dup5\n        /* \"DeadMansSwitch.sol\":16427:16436  publicKey */\n      dup5\n        /* \"DeadMansSwitch.sol\":16371:16437  BeneficiariesData(switchStatus, remainingTime, isAlive, publicKey) */\n      mload(0x40)\n      tag_242\n      swap5\n      swap4\n      swap3\n      swap2\n      swap1\n      tag_80\n      jump\t// in\n    tag_242:\n      mload(0x40)\n      dup1\n      swap2\n      sub\n      swap1\n      log1\n        /* \"DeadMansSwitch.sol\":15706:16512  function getBeneficiaryData(address _benefactor, address _beneficiary) public returns (bool switchStatus, uint256 remainingTime, bool isAlive, string memory publicKey) {... */\n      swap3\n      swap6\n      swap2\n      swap5\n      pop\n      swap3\n      pop\n      jump\t// out\n        /* \"DeadMansSwitch.sol\":4058:4261  function addBenefactorPublicKey(address _benefactor, string memory _key) public {... */\n    tag_83:\n      sub(shl(0xa0, 0x01), 0x01)\n        /* \"DeadMansSwitch.sol\":4149:4173  benefactors[_benefactor] */\n      dup3\n      and\n        /* \"DeadMansSwitch.sol\":4149:4160  benefactors */\n      0x00\n        /* \"DeadMansSwitch.sol\":4149:4173  benefactors[_benefactor] */\n      swap1\n      dup2\n      mstore\n      0x20\n      dup2\n      swap1\n      mstore\n      0x40\n      swap1\n      keccak256\n        /* \"DeadMansSwitch.sol\":4149:4193  benefactors[_benefactor].benefactorPublicKey */\n      0x05\n      add\n        /* \"DeadMansSwitch.sol\":4149:4200  benefactors[_benefactor].benefactorPublicKey = _key */\n      tag_244\n        /* \"DeadMansSwitch.sol\":4196:4200  _key */\n      dup3\n        /* \"DeadMansSwitch.sol\":4149:4193  benefactors[_benefactor].benefactorPublicKey */\n      dup3\n        /* \"DeadMansSwitch.sol\":4149:4200  benefactors[_benefactor].benefactorPublicKey = _key */\n      tag_125\n      jump\t// in\n    tag_244:\n      pop\n        /* \"DeadMansSwitch.sol\":4235:4246  _benefactor */\n      dup2\n      sub(shl(0xa0, 0x01), 0x01)\n        /* \"DeadMansSwitch.sol\":4216:4253  BenefactorKeyAdded(_benefactor, _key) */\n      and\n      0xf20d3ea0a54b197ec507921ed526707368e27ad44b86bf2d4b11888b7009de6b\n        /* \"DeadMansSwitch.sol\":4248:4252  _key */\n      dup3\n        /* \"DeadMansSwitch.sol\":4216:4253  BenefactorKeyAdded(_benefactor, _key) */\n      mload(0x40)\n      tag_245\n      swap2\n      swap1\n      tag_65\n      jump\t// in\n    tag_245:\n      mload(0x40)\n      dup1\n      swap2\n      sub\n      swap1\n      log2\n        /* \"DeadMansSwitch.sol\":4058:4261  function addBenefactorPublicKey(address _benefactor, string memory _key) public {... */\n      pop\n      pop\n      jump\t// out\n        /* \"DeadMansSwitch.sol\":12396:13095  function respondToSwitch() external onlyBenefactor {... */\n    tag_85:\n        /* \"DeadMansSwitch.sol\":2599:2609  msg.sender */\n      caller\n        /* \"DeadMansSwitch.sol\":2587:2598  benefactors */\n      0x00\n        /* \"DeadMansSwitch.sol\":2587:2610  benefactors[msg.sender] */\n      swap1\n      dup2\n      mstore\n      0x20\n      dup2\n      swap1\n      mstore\n      0x40\n      swap1\n      keccak256\n        /* \"DeadMansSwitch.sol\":2587:2617  benefactors[msg.sender].exists */\n      sload\n      0xff\n      and\n        /* \"DeadMansSwitch.sol\":2587:2652  benefactors[msg.sender].exists && benefactors[msg.sender].isAlive */\n      dup1\n      iszero\n      tag_247\n      jumpi\n      pop\n        /* \"DeadMansSwitch.sol\":2633:2643  msg.sender */\n      caller\n        /* \"DeadMansSwitch.sol\":2621:2632  benefactors */\n      0x00\n        /* \"DeadMansSwitch.sol\":2621:2644  benefactors[msg.sender] */\n      swap1\n      dup2\n      mstore\n      0x20\n      dup2\n      swap1\n      mstore\n      0x40\n      swap1\n      keccak256\n        /* \"DeadMansSwitch.sol\":2621:2652  benefactors[msg.sender].isAlive */\n      0x04\n      add\n      sload\n      0x0100\n      swap1\n      div\n      0xff\n      and\n        /* \"DeadMansSwitch.sol\":2587:2652  benefactors[msg.sender].exists && benefactors[msg.sender].isAlive */\n    tag_247:\n        /* \"DeadMansSwitch.sol\":2579:2679  require(benefactors[msg.sender].exists && benefactors[msg.sender].isAlive, \"Not a valid benefactor\") */\n      tag_248\n      jumpi\n      mload(0x40)\n      shl(0xe5, 0x461bcd)\n      dup2\n      mstore\n        /* \"#utility.yul\":11980:11982   */\n      0x20\n        /* \"DeadMansSwitch.sol\":2579:2679  require(benefactors[msg.sender].exists && benefactors[msg.sender].isAlive, \"Not a valid benefactor\") */\n      0x04\n      dup3\n      add\n        /* \"#utility.yul\":11962:11983   */\n      mstore\n        /* \"#utility.yul\":12019:12021   */\n      0x16\n        /* \"#utility.yul\":11999:12017   */\n      0x24\n      dup3\n      add\n        /* \"#utility.yul\":11992:12022   */\n      mstore\n      shl(0x51, 0x2737ba1030903b30b634b2103132b732b330b1ba37b9)\n        /* \"#utility.yul\":12038:12056   */\n      0x44\n      dup3\n      add\n        /* \"#utility.yul\":12031:12083   */\n      mstore\n        /* \"#utility.yul\":12100:12118   */\n      0x64\n      add\n        /* \"DeadMansSwitch.sol\":2579:2679  require(benefactors[msg.sender].exists && benefactors[msg.sender].isAlive, \"Not a valid benefactor\") */\n      tag_120\n        /* \"#utility.yul\":11778:12124   */\n      jump\n        /* \"DeadMansSwitch.sol\":2579:2679  require(benefactors[msg.sender].exists && benefactors[msg.sender].isAlive, \"Not a valid benefactor\") */\n    tag_248:\n        /* \"DeadMansSwitch.sol\":12474:12484  msg.sender */\n      caller\n        /* \"DeadMansSwitch.sol\":12462:12473  benefactors */\n      0x00\n        /* \"DeadMansSwitch.sol\":12462:12485  benefactors[msg.sender] */\n      swap1\n      dup2\n      mstore\n      0x20\n      dup2\n      swap1\n      mstore\n      0x40\n      swap1\n      keccak256\n        /* \"DeadMansSwitch.sol\":12462:12512  benefactors[msg.sender].lastBenefactorResponseTime */\n      0x03\n      add\n      sload\n        /* \"DeadMansSwitch.sol\":12462:12517  benefactors[msg.sender].lastBenefactorResponseTime != 0 */\n      iszero\n        /* \"DeadMansSwitch.sol\":12458:13088  if (benefactors[msg.sender].lastBenefactorResponseTime != 0) {... */\n      tag_251\n      jumpi\n        /* \"DeadMansSwitch.sol\":12538:12566  checkAliveStatus(msg.sender) */\n      tag_252\n        /* \"DeadMansSwitch.sol\":12555:12565  msg.sender */\n      caller\n        /* \"DeadMansSwitch.sol\":12538:12554  checkAliveStatus */\n      tag_36\n        /* \"DeadMansSwitch.sol\":12538:12566  checkAliveStatus(msg.sender) */\n      jump\t// in\n    tag_252:\n        /* \"DeadMansSwitch.sol\":12534:12875  if (checkAliveStatus(msg.sender)) {... */\n      iszero\n      tag_253\n      jumpi\n        /* \"DeadMansSwitch.sol\":12610:12620  msg.sender */\n      caller\n      sub(shl(0xa0, 0x01), 0x01)\n        /* \"DeadMansSwitch.sol\":12592:12643  BenefactorIsAlive(msg.sender,\"Benefactor is alive\") */\n      and\n      0x793324a6f079e577f4a4646c7ec753efd3beddc2f4ce07bfae5f105c449ac356\n      mload(0x40)\n      tag_254\n      swap1\n        /* \"#utility.yul\":17132:17134   */\n      0x20\n        /* \"#utility.yul\":17114:17135   */\n      dup1\n      dup3\n      mstore\n        /* \"#utility.yul\":17171:17173   */\n      0x13\n        /* \"#utility.yul\":17151:17169   */\n      swap1\n      dup3\n      add\n        /* \"#utility.yul\":17144:17174   */\n      mstore\n        /* \"#utility.yul\":17210:17231   */\n      0x42656e65666163746f7220697320616c69766500000000000000000000000000\n        /* \"#utility.yul\":17205:17207   */\n      0x40\n        /* \"#utility.yul\":17190:17208   */\n      dup3\n      add\n        /* \"#utility.yul\":17183:17232   */\n      mstore\n        /* \"#utility.yul\":17264:17266   */\n      0x60\n        /* \"#utility.yul\":17249:17267   */\n      add\n      swap1\n        /* \"#utility.yul\":16930:17273   */\n      jump\n        /* \"DeadMansSwitch.sol\":12592:12643  BenefactorIsAlive(msg.sender,\"Benefactor is alive\") */\n    tag_254:\n      mload(0x40)\n      dup1\n      swap2\n      sub\n      swap1\n      log2\n        /* \"DeadMansSwitch.sol\":12662:12677  disableSwitch() */\n      tag_256\n        /* \"DeadMansSwitch.sol\":12662:12675  disableSwitch */\n      tag_257\n        /* \"DeadMansSwitch.sol\":12662:12677  disableSwitch() */\n      jump\t// in\n    tag_256:\n        /* \"DeadMansSwitch.sol\":12708:12718  msg.sender */\n      caller\n        /* \"DeadMansSwitch.sol\":12696:12707  benefactors */\n      0x00\n        /* \"DeadMansSwitch.sol\":12696:12719  benefactors[msg.sender] */\n      swap1\n      dup2\n      mstore\n      0x20\n      dup2\n      swap1\n      mstore\n      0x40\n      swap1\n      keccak256\n        /* \"DeadMansSwitch.sol\":12749:12764  block.timestamp */\n      timestamp\n        /* \"DeadMansSwitch.sol\":12696:12746  benefactors[msg.sender].lastBenefactorResponseTime */\n      0x03\n      swap1\n      swap2\n      add\n        /* \"DeadMansSwitch.sol\":12696:12764  benefactors[msg.sender].lastBenefactorResponseTime = block.timestamp */\n      sstore\n        /* \"DeadMansSwitch.sol\":12396:13095  function respondToSwitch() external onlyBenefactor {... */\n      jump\t// out\n        /* \"DeadMansSwitch.sol\":12534:12875  if (checkAliveStatus(msg.sender)) {... */\n    tag_253:\n        /* \"DeadMansSwitch.sol\":12827:12837  msg.sender */\n      caller\n      sub(shl(0xa0, 0x01), 0x01)\n        /* \"DeadMansSwitch.sol\":12810:12859  BenefactorIsDead(msg.sender,\"Benefactor is dead\") */\n      and\n      0x5a68fa7d6b655a3e592d5d99ac82863424750e9d262c902f30f9e56655e7a856\n      mload(0x40)\n      tag_259\n      swap1\n        /* \"#utility.yul\":17480:17482   */\n      0x20\n        /* \"#utility.yul\":17462:17483   */\n      dup1\n      dup3\n      mstore\n        /* \"#utility.yul\":17519:17521   */\n      0x12\n        /* \"#utility.yul\":17499:17517   */\n      swap1\n      dup3\n      add\n        /* \"#utility.yul\":17492:17522   */\n      mstore\n        /* \"#utility.yul\":17558:17578   */\n      0x42656e65666163746f7220697320646561640000000000000000000000000000\n        /* \"#utility.yul\":17553:17555   */\n      0x40\n        /* \"#utility.yul\":17538:17556   */\n      dup3\n      add\n        /* \"#utility.yul\":17531:17579   */\n      mstore\n        /* \"#utility.yul\":17611:17613   */\n      0x60\n        /* \"#utility.yul\":17596:17614   */\n      add\n      swap1\n        /* \"#utility.yul\":17278:17620   */\n      jump\n        /* \"DeadMansSwitch.sol\":12810:12859  BenefactorIsDead(msg.sender,\"Benefactor is dead\") */\n    tag_259:\n      mload(0x40)\n      dup1\n      swap2\n      sub\n      swap1\n      log2\n        /* \"DeadMansSwitch.sol\":12396:13095  function respondToSwitch() external onlyBenefactor {... */\n      jump\t// out\n        /* \"DeadMansSwitch.sol\":12458:13088  if (benefactors[msg.sender].lastBenefactorResponseTime != 0) {... */\n    tag_251:\n        /* \"DeadMansSwitch.sol\":12930:12940  msg.sender */\n      caller\n      sub(shl(0xa0, 0x01), 0x01)\n        /* \"DeadMansSwitch.sol\":12912:12963  BenefactorIsAlive(msg.sender,\"Benefactor is alive\") */\n      and\n      0x793324a6f079e577f4a4646c7ec753efd3beddc2f4ce07bfae5f105c449ac356\n      mload(0x40)\n      tag_254\n      swap1\n        /* \"#utility.yul\":17132:17134   */\n      0x20\n        /* \"#utility.yul\":17114:17135   */\n      dup1\n      dup3\n      mstore\n        /* \"#utility.yul\":17171:17173   */\n      0x13\n        /* \"#utility.yul\":17151:17169   */\n      swap1\n      dup3\n      add\n        /* \"#utility.yul\":17144:17174   */\n      mstore\n        /* \"#utility.yul\":17210:17231   */\n      0x42656e65666163746f7220697320616c69766500000000000000000000000000\n        /* \"#utility.yul\":17205:17207   */\n      0x40\n        /* \"#utility.yul\":17190:17208   */\n      dup3\n      add\n        /* \"#utility.yul\":17183:17232   */\n      mstore\n        /* \"#utility.yul\":17264:17266   */\n      0x60\n        /* \"#utility.yul\":17249:17267   */\n      add\n      swap1\n        /* \"#utility.yul\":16930:17273   */\n      jump\n        /* \"DeadMansSwitch.sol\":7254:8211  function addIpfsCIDs(address _beneficiary, string[] memory _ipfsCIDs) external onlyBenefactor {... */\n    tag_89:\n        /* \"DeadMansSwitch.sol\":2599:2609  msg.sender */\n      caller\n        /* \"DeadMansSwitch.sol\":2587:2598  benefactors */\n      0x00\n        /* \"DeadMansSwitch.sol\":2587:2610  benefactors[msg.sender] */\n      swap1\n      dup2\n      mstore\n      0x20\n      dup2\n      swap1\n      mstore\n      0x40\n      swap1\n      keccak256\n        /* \"DeadMansSwitch.sol\":2587:2617  benefactors[msg.sender].exists */\n      sload\n      0xff\n      and\n        /* \"DeadMansSwitch.sol\":2587:2652  benefactors[msg.sender].exists && benefactors[msg.sender].isAlive */\n      dup1\n      iszero\n      tag_265\n      jumpi\n      pop\n        /* \"DeadMansSwitch.sol\":2633:2643  msg.sender */\n      caller\n        /* \"DeadMansSwitch.sol\":2621:2632  benefactors */\n      0x00\n        /* \"DeadMansSwitch.sol\":2621:2644  benefactors[msg.sender] */\n      swap1\n      dup2\n      mstore\n      0x20\n      dup2\n      swap1\n      mstore\n      0x40\n      swap1\n      keccak256\n        /* \"DeadMansSwitch.sol\":2621:2652  benefactors[msg.sender].isAlive */\n      0x04\n      add\n      sload\n      0x0100\n      swap1\n      div\n      0xff\n      and\n        /* \"DeadMansSwitch.sol\":2587:2652  benefactors[msg.sender].exists && benefactors[msg.sender].isAlive */\n    tag_265:\n        /* \"DeadMansSwitch.sol\":2579:2679  require(benefactors[msg.sender].exists && benefactors[msg.sender].isAlive, \"Not a valid benefactor\") */\n      tag_266\n      jumpi\n      mload(0x40)\n      shl(0xe5, 0x461bcd)\n      dup2\n      mstore\n        /* \"#utility.yul\":11980:11982   */\n      0x20\n        /* \"DeadMansSwitch.sol\":2579:2679  require(benefactors[msg.sender].exists && benefactors[msg.sender].isAlive, \"Not a valid benefactor\") */\n      0x04\n      dup3\n      add\n        /* \"#utility.yul\":11962:11983   */\n      mstore\n        /* \"#utility.yul\":12019:12021   */\n      0x16\n        /* \"#utility.yul\":11999:12017   */\n      0x24\n      dup3\n      add\n        /* \"#utility.yul\":11992:12022   */\n      mstore\n      shl(0x51, 0x2737ba1030903b30b634b2103132b732b330b1ba37b9)\n        /* \"#utility.yul\":12038:12056   */\n      0x44\n      dup3\n      add\n        /* \"#utility.yul\":12031:12083   */\n      mstore\n        /* \"#utility.yul\":12100:12118   */\n      0x64\n      add\n        /* \"DeadMansSwitch.sol\":2579:2679  require(benefactors[msg.sender].exists && benefactors[msg.sender].isAlive, \"Not a valid benefactor\") */\n      tag_120\n        /* \"#utility.yul\":11778:12124   */\n      jump\n        /* \"DeadMansSwitch.sol\":2579:2679  require(benefactors[msg.sender].exists && benefactors[msg.sender].isAlive, \"Not a valid benefactor\") */\n    tag_266:\n        /* \"DeadMansSwitch.sol\":7367:7405  isBeneficiary(msg.sender,_beneficiary) */\n      tag_269\n        /* \"DeadMansSwitch.sol\":7381:7391  msg.sender */\n      caller\n        /* \"DeadMansSwitch.sol\":7392:7404  _beneficiary */\n      dup4\n        /* \"DeadMansSwitch.sol\":7367:7380  isBeneficiary */\n      tag_46\n        /* \"DeadMansSwitch.sol\":7367:7405  isBeneficiary(msg.sender,_beneficiary) */\n      jump\t// in\n    tag_269:\n        /* \"DeadMansSwitch.sol\":7359:7431  require(isBeneficiary(msg.sender,_beneficiary), \"Beneficiary not found\") */\n      tag_270\n      jumpi\n      mload(0x40)\n      shl(0xe5, 0x461bcd)\n      dup2\n      mstore\n        /* \"#utility.yul\":12958:12960   */\n      0x20\n        /* \"DeadMansSwitch.sol\":7359:7431  require(isBeneficiary(msg.sender,_beneficiary), \"Beneficiary not found\") */\n      0x04\n      dup3\n      add\n        /* \"#utility.yul\":12940:12961   */\n      mstore\n        /* \"#utility.yul\":12997:12999   */\n      0x15\n        /* \"#utility.yul\":12977:12995   */\n      0x24\n      dup3\n      add\n        /* \"#utility.yul\":12970:13000   */\n      mstore\n      shl(0x5a, 0x10995b99599a58da585c9e481b9bdd08199bdd5b99)\n        /* \"#utility.yul\":13016:13034   */\n      0x44\n      dup3\n      add\n        /* \"#utility.yul\":13009:13060   */\n      mstore\n        /* \"#utility.yul\":13077:13095   */\n      0x64\n      add\n        /* \"DeadMansSwitch.sol\":7359:7431  require(isBeneficiary(msg.sender,_beneficiary), \"Beneficiary not found\") */\n      tag_120\n        /* \"#utility.yul\":12756:13101   */\n      jump\n        /* \"DeadMansSwitch.sol\":7359:7431  require(isBeneficiary(msg.sender,_beneficiary), \"Beneficiary not found\") */\n    tag_270:\n        /* \"DeadMansSwitch.sol\":7482:7492  msg.sender */\n      caller\n        /* \"DeadMansSwitch.sol\":7442:7467  string[] storage ipfsCIDs */\n      0x00\n        /* \"DeadMansSwitch.sol\":7470:7493  benefactors[msg.sender] */\n      swap1\n      dup2\n      mstore\n      0x20\n      dup2\n      dup2\n      mstore\n      0x40\n      dup1\n      dup4\n      keccak256\n      sub(shl(0xa0, 0x01), 0x01)\n        /* \"DeadMansSwitch.sol\":7470:7521  benefactors[msg.sender].beneficiaries[_beneficiary] */\n      dup7\n      and\n      dup5\n      mstore\n        /* \"DeadMansSwitch.sol\":7470:7507  benefactors[msg.sender].beneficiaries */\n      0x01\n      swap1\n      dup2\n      add\n        /* \"DeadMansSwitch.sol\":7470:7521  benefactors[msg.sender].beneficiaries[_beneficiary] */\n      swap1\n      swap3\n      mstore\n      dup3\n      keccak256\n        /* \"DeadMansSwitch.sol\":7470:7530  benefactors[msg.sender].beneficiaries[_beneficiary].ipfsCIDs */\n      add\n      swap1\n        /* \"DeadMansSwitch.sol\":7541:8204  for (uint256 i = 0; i < _ipfsCIDs.length; i++) {... */\n    tag_272:\n        /* \"DeadMansSwitch.sol\":7565:7574  _ipfsCIDs */\n      dup3\n        /* \"DeadMansSwitch.sol\":7565:7581  _ipfsCIDs.length */\n      mload\n        /* \"DeadMansSwitch.sol\":7561:7562  i */\n      dup2\n        /* \"DeadMansSwitch.sol\":7561:7581  i < _ipfsCIDs.length */\n      lt\n        /* \"DeadMansSwitch.sol\":7541:8204  for (uint256 i = 0; i < _ipfsCIDs.length; i++) {... */\n      iszero\n      tag_273\n      jumpi\n        /* \"DeadMansSwitch.sol\":7647:7661  bool cidExists */\n      0x00\n        /* \"DeadMansSwitch.sol\":7689:7698  uint256 j */\n      dup1\n        /* \"DeadMansSwitch.sol\":7684:7942  for (uint256 j = 0; j < ipfsCIDs.length; j++) {... */\n    tag_275:\n        /* \"DeadMansSwitch.sol\":7708:7723  ipfsCIDs.length */\n      dup4\n      sload\n        /* \"DeadMansSwitch.sol\":7704:7723  j < ipfsCIDs.length */\n      dup2\n      lt\n        /* \"DeadMansSwitch.sol\":7684:7942  for (uint256 j = 0; j < ipfsCIDs.length; j++) {... */\n      iszero\n      tag_276\n      jumpi\n        /* \"DeadMansSwitch.sol\":7824:7833  _ipfsCIDs */\n      dup5\n        /* \"DeadMansSwitch.sol\":7834:7835  i */\n      dup4\n        /* \"DeadMansSwitch.sol\":7824:7836  _ipfsCIDs[i] */\n      dup2\n      mload\n      dup2\n      lt\n      tag_279\n      jumpi\n      tag_279\n      tag_144\n      jump\t// in\n    tag_279:\n      0x20\n      mul\n      0x20\n      add\n      add\n      mload\n        /* \"DeadMansSwitch.sol\":7807:7837  abi.encodePacked(_ipfsCIDs[i]) */\n      add(0x20, mload(0x40))\n      tag_280\n      swap2\n      swap1\n      tag_195\n      jump\t// in\n    tag_280:\n      mload(0x40)\n      0x20\n      dup2\n      dup4\n      sub\n      sub\n      dup2\n      mstore\n      swap1\n      0x40\n      mstore\n        /* \"DeadMansSwitch.sol\":7797:7838  keccak256(abi.encodePacked(_ipfsCIDs[i])) */\n      dup1\n      mload\n      swap1\n      0x20\n      add\n      keccak256\n        /* \"DeadMansSwitch.sol\":7780:7788  ipfsCIDs */\n      dup5\n        /* \"DeadMansSwitch.sol\":7789:7790  j */\n      dup3\n        /* \"DeadMansSwitch.sol\":7780:7791  ipfsCIDs[j] */\n      dup2\n      sload\n      dup2\n      lt\n      tag_282\n      jumpi\n      tag_282\n      tag_144\n      jump\t// in\n    tag_282:\n      swap1\n      0x00\n      mstore\n      keccak256(0x00, 0x20)\n      add\n        /* \"DeadMansSwitch.sol\":7763:7792  abi.encodePacked(ipfsCIDs[j]) */\n      add(0x20, mload(0x40))\n      tag_284\n      swap2\n      swap1\n      tag_200\n      jump\t// in\n    tag_284:\n      mload(0x40)\n      0x20\n      dup2\n      dup4\n      sub\n      sub\n      dup2\n      mstore\n      swap1\n      0x40\n      mstore\n        /* \"DeadMansSwitch.sol\":7753:7793  keccak256(abi.encodePacked(ipfsCIDs[j])) */\n      dup1\n      mload\n      swap1\n      0x20\n      add\n      keccak256\n        /* \"DeadMansSwitch.sol\":7753:7838  keccak256(abi.encodePacked(ipfsCIDs[j])) == keccak256(abi.encodePacked(_ipfsCIDs[i])) */\n      sub\n        /* \"DeadMansSwitch.sol\":7749:7927  if (keccak256(abi.encodePacked(ipfsCIDs[j])) == keccak256(abi.encodePacked(_ipfsCIDs[i]))) {... */\n      tag_285\n      jumpi\n        /* \"DeadMansSwitch.sol\":7875:7879  true */\n      0x01\n        /* \"DeadMansSwitch.sol\":7863:7879  cidExists = true */\n      swap2\n      pop\n        /* \"DeadMansSwitch.sol\":7902:7907  break */\n      jump(tag_276)\n        /* \"DeadMansSwitch.sol\":7749:7927  if (keccak256(abi.encodePacked(ipfsCIDs[j])) == keccak256(abi.encodePacked(_ipfsCIDs[i]))) {... */\n    tag_285:\n        /* \"DeadMansSwitch.sol\":7725:7728  j++ */\n      dup1\n      tag_286\n      dup2\n      tag_159\n      jump\t// in\n    tag_286:\n      swap2\n      pop\n      pop\n        /* \"DeadMansSwitch.sol\":7684:7942  for (uint256 j = 0; j < ipfsCIDs.length; j++) {... */\n      jump(tag_275)\n    tag_276:\n      pop\n        /* \"DeadMansSwitch.sol\":7965:7974  cidExists */\n      dup1\n        /* \"DeadMansSwitch.sol\":7964:7974  !cidExists */\n      iszero\n        /* \"DeadMansSwitch.sol\":7956:8019  require(!cidExists, \"CID already assigned to this beneficiary\") */\n      tag_287\n      jumpi\n      mload(0x40)\n      shl(0xe5, 0x461bcd)\n      dup2\n      mstore\n        /* \"#utility.yul\":17827:17829   */\n      0x20\n        /* \"DeadMansSwitch.sol\":7956:8019  require(!cidExists, \"CID already assigned to this beneficiary\") */\n      0x04\n      dup3\n      add\n        /* \"#utility.yul\":17809:17830   */\n      mstore\n        /* \"#utility.yul\":17866:17868   */\n      0x28\n        /* \"#utility.yul\":17846:17864   */\n      0x24\n      dup3\n      add\n        /* \"#utility.yul\":17839:17869   */\n      mstore\n        /* \"#utility.yul\":17905:17939   */\n      0x43494420616c72656164792061737369676e656420746f20746869732062656e\n        /* \"#utility.yul\":17885:17903   */\n      0x44\n      dup3\n      add\n        /* \"#utility.yul\":17878:17940   */\n      mstore\n        /* \"#utility.yul\":17976:17986   */\n      0x6566696369617279000000000000000000000000000000000000000000000000\n        /* \"#utility.yul\":17956:17974   */\n      0x64\n      dup3\n      add\n        /* \"#utility.yul\":17949:17987   */\n      mstore\n        /* \"#utility.yul\":18004:18023   */\n      0x84\n      add\n        /* \"DeadMansSwitch.sol\":7956:8019  require(!cidExists, \"CID already assigned to this beneficiary\") */\n      tag_120\n        /* \"#utility.yul\":17625:18029   */\n      jump\n        /* \"DeadMansSwitch.sol\":7956:8019  require(!cidExists, \"CID already assigned to this beneficiary\") */\n    tag_287:\n        /* \"DeadMansSwitch.sol\":8094:8102  ipfsCIDs */\n      dup3\n        /* \"DeadMansSwitch.sol\":8108:8117  _ipfsCIDs */\n      dup5\n        /* \"DeadMansSwitch.sol\":8118:8119  i */\n      dup4\n        /* \"DeadMansSwitch.sol\":8108:8120  _ipfsCIDs[i] */\n      dup2\n      mload\n      dup2\n      lt\n      tag_291\n      jumpi\n      tag_291\n      tag_144\n      jump\t// in\n    tag_291:\n      0x20\n      swap1\n      dup2\n      mul\n      swap2\n      swap1\n      swap2\n      add\n      dup2\n      add\n      mload\n        /* \"DeadMansSwitch.sol\":8094:8121  ipfsCIDs.push(_ipfsCIDs[i]) */\n      dup3\n      sload\n      0x01\n      dup2\n      add\n      dup5\n      sstore\n      0x00\n      swap4\n      dup5\n      mstore\n      swap2\n      swap1\n      swap3\n      keccak256\n      add\n      swap1\n      tag_293\n      swap1\n      dup3\n      tag_125\n      jump\t// in\n    tag_293:\n      pop\n        /* \"DeadMansSwitch.sol\":8165:8177  _beneficiary */\n      dup5\n      sub(shl(0xa0, 0x01), 0x01)\n        /* \"DeadMansSwitch.sol\":8141:8192  IpfsCIDAdded(msg.sender,_beneficiary, _ipfsCIDs[i]) */\n      and\n        /* \"DeadMansSwitch.sol\":8154:8164  msg.sender */\n      caller\n      sub(shl(0xa0, 0x01), 0x01)\n        /* \"DeadMansSwitch.sol\":8141:8192  IpfsCIDAdded(msg.sender,_beneficiary, _ipfsCIDs[i]) */\n      and\n      0xa1bb52b874769d5c17cde30e708e8f7180bb949f70e77caf0da68d25f9a1a510\n        /* \"DeadMansSwitch.sol\":8179:8188  _ipfsCIDs */\n      dup7\n        /* \"DeadMansSwitch.sol\":8189:8190  i */\n      dup6\n        /* \"DeadMansSwitch.sol\":8179:8191  _ipfsCIDs[i] */\n      dup2\n      mload\n      dup2\n      lt\n      tag_295\n      jumpi\n      tag_295\n      tag_144\n      jump\t// in\n    tag_295:\n      0x20\n      mul\n      0x20\n      add\n      add\n      mload\n        /* \"DeadMansSwitch.sol\":8141:8192  IpfsCIDAdded(msg.sender,_beneficiary, _ipfsCIDs[i]) */\n      mload(0x40)\n      tag_296\n      swap2\n      swap1\n      tag_65\n      jump\t// in\n    tag_296:\n      mload(0x40)\n      dup1\n      swap2\n      sub\n      swap1\n      log3\n      pop\n        /* \"DeadMansSwitch.sol\":7583:7586  i++ */\n      dup1\n      tag_297\n      dup2\n      tag_159\n      jump\t// in\n    tag_297:\n      swap2\n      pop\n      pop\n        /* \"DeadMansSwitch.sol\":7541:8204  for (uint256 i = 0; i < _ipfsCIDs.length; i++) {... */\n      jump(tag_272)\n    tag_273:\n      pop\n        /* \"DeadMansSwitch.sol\":7348:8211  {... */\n      pop\n        /* \"DeadMansSwitch.sol\":7254:8211  function addIpfsCIDs(address _beneficiary, string[] memory _ipfsCIDs) external onlyBenefactor {... */\n      pop\n      pop\n      jump\t// out\n        /* \"DeadMansSwitch.sol\":13285:13694  function getCIDs(address _benefactor, address _beneficiary) public view returns (string[] memory){... */\n    tag_92:\n        /* \"DeadMansSwitch.sol\":13366:13381  string[] memory */\n      0x60\n        /* \"DeadMansSwitch.sol\":13401:13440  isBeneficiary(_benefactor,_beneficiary) */\n      tag_299\n        /* \"DeadMansSwitch.sol\":13415:13426  _benefactor */\n      dup4\n        /* \"DeadMansSwitch.sol\":13427:13439  _beneficiary */\n      dup4\n        /* \"DeadMansSwitch.sol\":13401:13414  isBeneficiary */\n      tag_46\n        /* \"DeadMansSwitch.sol\":13401:13440  isBeneficiary(_benefactor,_beneficiary) */\n      jump\t// in\n    tag_299:\n        /* \"DeadMansSwitch.sol\":13393:13465  require(isBeneficiary(_benefactor,_beneficiary),\"Beneficiary not found\") */\n      tag_300\n      jumpi\n      mload(0x40)\n      shl(0xe5, 0x461bcd)\n      dup2\n      mstore\n        /* \"#utility.yul\":12958:12960   */\n      0x20\n        /* \"DeadMansSwitch.sol\":13393:13465  require(isBeneficiary(_benefactor,_beneficiary),\"Beneficiary not found\") */\n      0x04\n      dup3\n      add\n        /* \"#utility.yul\":12940:12961   */\n      mstore\n        /* \"#utility.yul\":12997:12999   */\n      0x15\n        /* \"#utility.yul\":12977:12995   */\n      0x24\n      dup3\n      add\n        /* \"#utility.yul\":12970:13000   */\n      mstore\n      shl(0x5a, 0x10995b99599a58da585c9e481b9bdd08199bdd5b99)\n        /* \"#utility.yul\":13016:13034   */\n      0x44\n      dup3\n      add\n        /* \"#utility.yul\":13009:13060   */\n      mstore\n        /* \"#utility.yul\":13077:13095   */\n      0x64\n      add\n        /* \"DeadMansSwitch.sol\":13393:13465  require(isBeneficiary(_benefactor,_beneficiary),\"Beneficiary not found\") */\n      tag_120\n        /* \"#utility.yul\":12756:13101   */\n      jump\n        /* \"DeadMansSwitch.sol\":13393:13465  require(isBeneficiary(_benefactor,_beneficiary),\"Beneficiary not found\") */\n    tag_300:\n      sub(shl(0xa0, 0x01), 0x01)\n        /* \"DeadMansSwitch.sol\":13484:13508  benefactors[_benefactor] */\n      dup4\n      and\n        /* \"DeadMansSwitch.sol\":13484:13495  benefactors */\n      0x00\n        /* \"DeadMansSwitch.sol\":13484:13508  benefactors[_benefactor] */\n      swap1\n      dup2\n      mstore\n      0x20\n      dup2\n      dup2\n      mstore\n      0x40\n      dup1\n      dup4\n      keccak256\n        /* \"DeadMansSwitch.sol\":13523:13533  msg.sender */\n      caller\n        /* \"DeadMansSwitch.sol\":13484:13534  benefactors[_benefactor].beneficiaries[msg.sender] */\n      dup5\n      mstore\n        /* \"DeadMansSwitch.sol\":13484:13522  benefactors[_benefactor].beneficiaries */\n      0x01\n      add\n        /* \"DeadMansSwitch.sol\":13484:13534  benefactors[_benefactor].beneficiaries[msg.sender] */\n      swap1\n      swap2\n      mstore\n      swap1\n      keccak256\n        /* \"DeadMansSwitch.sol\":13484:13541  benefactors[_benefactor].beneficiaries[msg.sender].exists */\n      sload\n      0xff\n      and\n        /* \"DeadMansSwitch.sol\":13484:13586  benefactors[_benefactor].beneficiaries[msg.sender].exists && benefactors[_benefactor].isAlive == false */\n      dup1\n      iszero\n      tag_302\n      jumpi\n      pop\n      sub(shl(0xa0, 0x01), 0x01)\n        /* \"DeadMansSwitch.sol\":13545:13569  benefactors[_benefactor] */\n      dup4\n      and\n        /* \"DeadMansSwitch.sol\":13545:13556  benefactors */\n      0x00\n        /* \"DeadMansSwitch.sol\":13545:13569  benefactors[_benefactor] */\n      swap1\n      dup2\n      mstore\n      0x20\n      dup2\n      swap1\n      mstore\n      0x40\n      swap1\n      keccak256\n        /* \"DeadMansSwitch.sol\":13545:13577  benefactors[_benefactor].isAlive */\n      0x04\n      add\n      sload\n      0x0100\n      swap1\n      div\n      0xff\n      and\n        /* \"DeadMansSwitch.sol\":13545:13586  benefactors[_benefactor].isAlive == false */\n      iszero\n        /* \"DeadMansSwitch.sol\":13484:13586  benefactors[_benefactor].beneficiaries[msg.sender].exists && benefactors[_benefactor].isAlive == false */\n    tag_302:\n        /* \"DeadMansSwitch.sol\":13476:13607  require(benefactors[_benefactor].beneficiaries[msg.sender].exists && benefactors[_benefactor].isAlive == false,\"No access to CIDs\") */\n      tag_303\n      jumpi\n      mload(0x40)\n      shl(0xe5, 0x461bcd)\n      dup2\n      mstore\n        /* \"#utility.yul\":18236:18238   */\n      0x20\n        /* \"DeadMansSwitch.sol\":13476:13607  require(benefactors[_benefactor].beneficiaries[msg.sender].exists && benefactors[_benefactor].isAlive == false,\"No access to CIDs\") */\n      0x04\n      dup3\n      add\n        /* \"#utility.yul\":18218:18239   */\n      mstore\n        /* \"#utility.yul\":18275:18277   */\n      0x11\n        /* \"#utility.yul\":18255:18273   */\n      0x24\n      dup3\n      add\n        /* \"#utility.yul\":18248:18278   */\n      mstore\n        /* \"#utility.yul\":18314:18333   */\n      0x4e6f2061636365737320746f2043494473000000000000000000000000000000\n        /* \"#utility.yul\":18294:18312   */\n      0x44\n      dup3\n      add\n        /* \"#utility.yul\":18287:18334   */\n      mstore\n        /* \"#utility.yul\":18351:18369   */\n      0x64\n      add\n        /* \"DeadMansSwitch.sol\":13476:13607  require(benefactors[_benefactor].beneficiaries[msg.sender].exists && benefactors[_benefactor].isAlive == false,\"No access to CIDs\") */\n      tag_120\n        /* \"#utility.yul\":18034:18375   */\n      jump\n        /* \"DeadMansSwitch.sol\":13476:13607  require(benefactors[_benefactor].beneficiaries[msg.sender].exists && benefactors[_benefactor].isAlive == false,\"No access to CIDs\") */\n    tag_303:\n      sub(shl(0xa0, 0x01), 0x01)\n        /* \"DeadMansSwitch.sol\":13625:13649  benefactors[_benefactor] */\n      dup1\n      dup5\n      and\n        /* \"DeadMansSwitch.sol\":13625:13636  benefactors */\n      0x00\n        /* \"DeadMansSwitch.sol\":13625:13649  benefactors[_benefactor] */\n      swap1\n      dup2\n      mstore\n      0x20\n      dup2\n      dup2\n      mstore\n      0x40\n      dup1\n      dup4\n      keccak256\n        /* \"DeadMansSwitch.sol\":13625:13677  benefactors[_benefactor].beneficiaries[_beneficiary] */\n      swap4\n      dup7\n      and\n      dup4\n      mstore\n        /* \"DeadMansSwitch.sol\":13625:13663  benefactors[_benefactor].beneficiaries */\n      0x01\n      swap4\n      dup5\n      add\n        /* \"DeadMansSwitch.sol\":13625:13677  benefactors[_benefactor].beneficiaries[_beneficiary] */\n      dup3\n      mstore\n      dup1\n      dup4\n      keccak256\n        /* \"DeadMansSwitch.sol\":13625:13686  benefactors[_benefactor].beneficiaries[_beneficiary].ipfsCIDs */\n      swap1\n      swap4\n      add\n        /* \"DeadMansSwitch.sol\":13618:13686  return benefactors[_benefactor].beneficiaries[_beneficiary].ipfsCIDs */\n      dup1\n      sload\n      dup5\n      mload\n      dup2\n      dup5\n      mul\n      dup2\n      add\n      dup5\n      add\n      swap1\n      swap6\n      mstore\n      dup1\n      dup6\n      mstore\n        /* \"DeadMansSwitch.sol\":13625:13686  benefactors[_benefactor].beneficiaries[_beneficiary].ipfsCIDs */\n      swap1\n      swap3\n        /* \"DeadMansSwitch.sol\":13618:13686  return benefactors[_benefactor].beneficiaries[_beneficiary].ipfsCIDs */\n      swap1\n      swap2\n      dup5\n      add\n    tag_306:\n      dup3\n      dup3\n      lt\n      iszero\n      tag_307\n      jumpi\n      dup4\n      dup3\n      swap1\n      0x00\n      mstore\n      keccak256(0x00, 0x20)\n      add\n      dup1\n      sload\n      tag_309\n      swap1\n      tag_177\n      jump\t// in\n    tag_309:\n      dup1\n      0x1f\n      add\n      0x20\n      dup1\n      swap2\n      div\n      mul\n      0x20\n      add\n      mload(0x40)\n      swap1\n      dup2\n      add\n      0x40\n      mstore\n      dup1\n      swap3\n      swap2\n      swap1\n      dup2\n      dup2\n      mstore\n      0x20\n      add\n      dup3\n      dup1\n      sload\n      tag_310\n      swap1\n      tag_177\n      jump\t// in\n    tag_310:\n      dup1\n      iszero\n      tag_311\n      jumpi\n      dup1\n      0x1f\n      lt\n      tag_312\n      jumpi\n      0x0100\n      dup1\n      dup4\n      sload\n      div\n      mul\n      dup4\n      mstore\n      swap2\n      0x20\n      add\n      swap2\n      jump(tag_311)\n    tag_312:\n      dup3\n      add\n      swap2\n      swap1\n      0x00\n      mstore\n      keccak256(0x00, 0x20)\n      swap1\n    tag_313:\n      dup2\n      sload\n      dup2\n      mstore\n      swap1\n      0x01\n      add\n      swap1\n      0x20\n      add\n      dup1\n      dup4\n      gt\n      tag_313\n      jumpi\n      dup3\n      swap1\n      sub\n      0x1f\n      and\n      dup3\n      add\n      swap2\n    tag_311:\n      pop\n      pop\n      pop\n      pop\n      pop\n      dup2\n      mstore\n      0x20\n      add\n      swap1\n      0x01\n      add\n      swap1\n      jump(tag_306)\n    tag_307:\n      pop\n      pop\n      pop\n      pop\n      swap1\n      pop\n        /* \"DeadMansSwitch.sol\":13285:13694  function getCIDs(address _benefactor, address _beneficiary) public view returns (string[] memory){... */\n      swap3\n      swap2\n      pop\n      pop\n      jump\t// out\n        /* \"DeadMansSwitch.sol\":14410:15614  function getBenefactorData(address _benefactor) public returns (bool switchStatus, address[] memory beneficiaries, uint256 remainingTime, bool isAlive, string memory publicKey) {... */\n    tag_97:\n      sub(shl(0xa0, 0x01), 0x01)\n        /* \"DeadMansSwitch.sol\":14606:14630  benefactors[_benefactor] */\n      dup2\n      and\n        /* \"DeadMansSwitch.sol\":14474:14491  bool switchStatus */\n      0x00\n        /* \"DeadMansSwitch.sol\":14606:14630  benefactors[_benefactor] */\n      swap1\n      dup2\n      mstore\n      0x20\n      dup2\n      swap1\n      mstore\n      0x40\n      dup2\n      keccak256\n        /* \"DeadMansSwitch.sol\":14606:14637  benefactors[_benefactor].exists */\n      sload\n        /* \"DeadMansSwitch.sol\":14493:14523  address[] memory beneficiaries */\n      0x60\n      swap1\n        /* \"DeadMansSwitch.sol\":14474:14491  bool switchStatus */\n      dup3\n      swap1\n      dup2\n      swap1\n        /* \"DeadMansSwitch.sol\":14493:14523  address[] memory beneficiaries */\n      dup4\n      swap1\n        /* \"DeadMansSwitch.sol\":14606:14637  benefactors[_benefactor].exists */\n      0xff\n      and\n        /* \"DeadMansSwitch.sol\":14598:14667  require(benefactors[_benefactor].exists, \"Benefactor does not exist\") */\n      tag_315\n      jumpi\n      mload(0x40)\n      shl(0xe5, 0x461bcd)\n      dup2\n      mstore\n        /* \"#utility.yul\":8676:8678   */\n      0x20\n        /* \"DeadMansSwitch.sol\":14598:14667  require(benefactors[_benefactor].exists, \"Benefactor does not exist\") */\n      0x04\n      dup3\n      add\n        /* \"#utility.yul\":8658:8679   */\n      mstore\n        /* \"#utility.yul\":8715:8717   */\n      0x19\n        /* \"#utility.yul\":8695:8713   */\n      0x24\n      dup3\n      add\n        /* \"#utility.yul\":8688:8718   */\n      mstore\n        /* \"#utility.yul\":8754:8781   */\n      0x42656e65666163746f7220646f6573206e6f7420657869737400000000000000\n        /* \"#utility.yul\":8734:8752   */\n      0x44\n      dup3\n      add\n        /* \"#utility.yul\":8727:8782   */\n      mstore\n        /* \"#utility.yul\":8799:8817   */\n      0x64\n      add\n        /* \"DeadMansSwitch.sol\":14598:14667  require(benefactors[_benefactor].exists, \"Benefactor does not exist\") */\n      tag_120\n        /* \"#utility.yul\":8474:8823   */\n      jump\n        /* \"DeadMansSwitch.sol\":14598:14667  require(benefactors[_benefactor].exists, \"Benefactor does not exist\") */\n    tag_315:\n      sub(shl(0xa0, 0x01), 0x01)\n        /* \"DeadMansSwitch.sol\":14694:14718  benefactors[_benefactor] */\n      dup7\n      and\n        /* \"DeadMansSwitch.sol\":14694:14705  benefactors */\n      0x00\n        /* \"DeadMansSwitch.sol\":14694:14718  benefactors[_benefactor] */\n      swap1\n      dup2\n      mstore\n      0x20\n      dup2\n      dup2\n      mstore\n      0x40\n      dup1\n      dup4\n      keccak256\n        /* \"DeadMansSwitch.sol\":14694:14732  benefactors[_benefactor].isSwitchedOff */\n      0x04\n      add\n      sload\n        /* \"DeadMansSwitch.sol\":3904:3919  beneficiaryKeys */\n      0x01\n        /* \"DeadMansSwitch.sol\":3904:3932  beneficiaryKeys[_benefactor] */\n      swap1\n      swap3\n      mstore\n      swap1\n      swap2\n      keccak256\n        /* \"DeadMansSwitch.sol\":3904:3939  beneficiaryKeys[_benefactor].length */\n      sload\n        /* \"DeadMansSwitch.sol\":14694:14732  benefactors[_benefactor].isSwitchedOff */\n      0xff\n      swap1\n      swap2\n      and\n        /* \"DeadMansSwitch.sol\":14693:14732  !benefactors[_benefactor].isSwitchedOff */\n      iszero\n      swap6\n      pop\n        /* \"DeadMansSwitch.sol\":14759:14808  new address[](getBeneficiariesCount(_benefactor)) */\n      0xffffffffffffffff\n      dup2\n      gt\n      iszero\n      tag_320\n      jumpi\n      tag_320\n      tag_152\n      jump\t// in\n    tag_320:\n      mload(0x40)\n      swap1\n      dup1\n      dup3\n      mstore\n      dup1\n      0x20\n      mul\n      0x20\n      add\n      dup3\n      add\n      0x40\n      mstore\n      dup1\n      iszero\n      tag_321\n      jumpi\n      dup2\n      0x20\n      add\n      0x20\n      dup3\n      mul\n      dup1\n      calldatasize\n      dup4\n      calldatacopy\n      add\n      swap1\n      pop\n    tag_321:\n      pop\n        /* \"DeadMansSwitch.sol\":14743:14808  beneficiaries = new address[](getBeneficiariesCount(_benefactor)) */\n      swap4\n      pop\n        /* \"DeadMansSwitch.sol\":14819:14832  uint256 index */\n      0x00\n        /* \"DeadMansSwitch.sol\":14852:14861  uint256 i */\n      dup1\n        /* \"DeadMansSwitch.sol\":14847:15123  for (uint256 i = 0; i < beneficiaries.length; i++) {... */\n    tag_322:\n        /* \"DeadMansSwitch.sol\":14871:14884  beneficiaries */\n      dup6\n        /* \"DeadMansSwitch.sol\":14871:14891  beneficiaries.length */\n      mload\n        /* \"DeadMansSwitch.sol\":14867:14868  i */\n      dup2\n        /* \"DeadMansSwitch.sol\":14867:14891  i < beneficiaries.length */\n      lt\n        /* \"DeadMansSwitch.sol\":14847:15123  for (uint256 i = 0; i < beneficiaries.length; i++) {... */\n      iszero\n      tag_323\n      jumpi\n      sub(shl(0xa0, 0x01), 0x01)\n        /* \"DeadMansSwitch.sol\":14917:14941  benefactors[_benefactor] */\n      dup9\n      and\n        /* \"DeadMansSwitch.sol\":14917:14928  benefactors */\n      0x00\n        /* \"DeadMansSwitch.sol\":14917:14941  benefactors[_benefactor] */\n      swap1\n      dup2\n      mstore\n      0x20\n      dup2\n      dup2\n      mstore\n      0x40\n      dup1\n      dup4\n      keccak256\n        /* \"DeadMansSwitch.sol\":14917:14955  benefactors[_benefactor].beneficiaries */\n      0x01\n        /* \"DeadMansSwitch.sol\":14956:14984  beneficiaryKeys[_benefactor] */\n      swap3\n      dup4\n      swap1\n      mstore\n      swap1\n      dup4\n      keccak256\n        /* \"DeadMansSwitch.sol\":14956:14987  beneficiaryKeys[_benefactor][i] */\n      dup1\n      sload\n        /* \"DeadMansSwitch.sol\":14917:14955  benefactors[_benefactor].beneficiaries */\n      swap3\n      swap1\n      swap2\n      add\n      swap3\n        /* \"DeadMansSwitch.sol\":14917:14928  benefactors */\n      swap2\n        /* \"DeadMansSwitch.sol\":14985:14986  i */\n      dup5\n      swap1\n        /* \"DeadMansSwitch.sol\":14956:14987  beneficiaryKeys[_benefactor][i] */\n      dup2\n      lt\n      tag_326\n      jumpi\n      tag_326\n      tag_144\n      jump\t// in\n    tag_326:\n      0x00\n      swap2\n      dup3\n      mstore\n      0x20\n      dup1\n      dup4\n      keccak256\n      swap1\n      swap2\n      add\n      sload\n      sub(shl(0xa0, 0x01), 0x01)\n      and\n        /* \"DeadMansSwitch.sol\":14917:14988  benefactors[_benefactor].beneficiaries[beneficiaryKeys[_benefactor][i]] */\n      dup4\n      mstore\n      dup3\n      add\n      swap3\n      swap1\n      swap3\n      mstore\n      0x40\n      add\n      swap1\n      keccak256\n        /* \"DeadMansSwitch.sol\":14917:14995  benefactors[_benefactor].beneficiaries[beneficiaryKeys[_benefactor][i]].exists */\n      sload\n      0xff\n      and\n        /* \"DeadMansSwitch.sol\":14913:15112  if (benefactors[_benefactor].beneficiaries[beneficiaryKeys[_benefactor][i]].exists) {... */\n      iszero\n      tag_328\n      jumpi\n      sub(shl(0xa0, 0x01), 0x01)\n        /* \"DeadMansSwitch.sol\":15039:15067  beneficiaryKeys[_benefactor] */\n      dup9\n      and\n      0x00\n      swap1\n      dup2\n      mstore\n        /* \"DeadMansSwitch.sol\":15039:15054  beneficiaryKeys */\n      0x01\n        /* \"DeadMansSwitch.sol\":15039:15067  beneficiaryKeys[_benefactor] */\n      0x20\n      mstore\n      0x40\n      swap1\n      keccak256\n        /* \"DeadMansSwitch.sol\":15039:15070  beneficiaryKeys[_benefactor][i] */\n      dup1\n      sload\n        /* \"DeadMansSwitch.sol\":15068:15069  i */\n      dup3\n      swap1\n        /* \"DeadMansSwitch.sol\":15039:15070  beneficiaryKeys[_benefactor][i] */\n      dup2\n      lt\n      tag_330\n      jumpi\n      tag_330\n      tag_144\n      jump\t// in\n    tag_330:\n      swap1\n      0x00\n      mstore\n      keccak256(0x00, 0x20)\n      add\n      0x00\n      swap1\n      sload\n      swap1\n      0x0100\n      exp\n      swap1\n      div\n      sub(shl(0xa0, 0x01), 0x01)\n      and\n        /* \"DeadMansSwitch.sol\":15016:15029  beneficiaries */\n      dup7\n        /* \"DeadMansSwitch.sol\":15030:15035  index */\n      dup4\n        /* \"DeadMansSwitch.sol\":15016:15036  beneficiaries[index] */\n      dup2\n      mload\n      dup2\n      lt\n      tag_333\n      jumpi\n      tag_333\n      tag_144\n      jump\t// in\n    tag_333:\n      sub(shl(0xa0, 0x01), 0x01)\n        /* \"DeadMansSwitch.sol\":15016:15070  beneficiaries[index] = beneficiaryKeys[_benefactor][i] */\n      swap1\n      swap3\n      and\n        /* \"DeadMansSwitch.sol\":15016:15036  beneficiaries[index] */\n      0x20\n      swap3\n      dup4\n      mul\n      swap2\n      swap1\n      swap2\n      add\n      swap1\n      swap2\n      add\n        /* \"DeadMansSwitch.sol\":15016:15070  beneficiaries[index] = beneficiaryKeys[_benefactor][i] */\n      mstore\n        /* \"DeadMansSwitch.sol\":15089:15096  index++ */\n      dup2\n      tag_334\n      dup2\n      tag_159\n      jump\t// in\n    tag_334:\n      swap3\n      pop\n      pop\n        /* \"DeadMansSwitch.sol\":14913:15112  if (benefactors[_benefactor].beneficiaries[beneficiaryKeys[_benefactor][i]].exists) {... */\n    tag_328:\n        /* \"DeadMansSwitch.sol\":14893:14896  i++ */\n      dup1\n      tag_335\n      dup2\n      tag_159\n      jump\t// in\n    tag_335:\n      swap2\n      pop\n      pop\n        /* \"DeadMansSwitch.sol\":14847:15123  for (uint256 i = 0; i < beneficiaries.length; i++) {... */\n      jump(tag_322)\n    tag_323:\n      pop\n      sub(shl(0xa0, 0x01), 0x01)\n        /* \"DeadMansSwitch.sol\":15137:15161  benefactors[_benefactor] */\n      dup8\n      and\n        /* \"DeadMansSwitch.sol\":15137:15148  benefactors */\n      0x00\n        /* \"DeadMansSwitch.sol\":15137:15161  benefactors[_benefactor] */\n      swap1\n      dup2\n      mstore\n      0x20\n      dup2\n      swap1\n      mstore\n      0x40\n      swap1\n      keccak256\n        /* \"DeadMansSwitch.sol\":15137:15175  benefactors[_benefactor].isSwitchedOff */\n      0x04\n      add\n      sload\n      0xff\n      and\n        /* \"DeadMansSwitch.sol\":15133:15308  if (benefactors[_benefactor].isSwitchedOff) {... */\n      iszero\n      tag_336\n      jumpi\n        /* \"DeadMansSwitch.sol\":15208:15209  0 */\n      0x00\n        /* \"DeadMansSwitch.sol\":15192:15209  remainingTime = 0 */\n      swap4\n      pop\n        /* \"DeadMansSwitch.sol\":15133:15308  if (benefactors[_benefactor].isSwitchedOff) {... */\n      jump(tag_337)\n    tag_336:\n        /* \"DeadMansSwitch.sol\":15258:15296  getRemainingCountdownTime(_benefactor) */\n      tag_338\n        /* \"DeadMansSwitch.sol\":15284:15295  _benefactor */\n      dup8\n        /* \"DeadMansSwitch.sol\":15258:15283  getRemainingCountdownTime */\n      tag_31\n        /* \"DeadMansSwitch.sol\":15258:15296  getRemainingCountdownTime(_benefactor) */\n      jump\t// in\n    tag_338:\n        /* \"DeadMansSwitch.sol\":15242:15296  remainingTime = getRemainingCountdownTime(_benefactor) */\n      swap4\n      pop\n        /* \"DeadMansSwitch.sol\":15133:15308  if (benefactors[_benefactor].isSwitchedOff) {... */\n    tag_337:\n      sub(shl(0xa0, 0x01), 0x01)\n        /* \"DeadMansSwitch.sol\":15328:15352  benefactors[_benefactor] */\n      dup8\n      and\n        /* \"DeadMansSwitch.sol\":15328:15339  benefactors */\n      0x00\n        /* \"DeadMansSwitch.sol\":15328:15352  benefactors[_benefactor] */\n      swap1\n      dup2\n      mstore\n      0x20\n      dup2\n      swap1\n      mstore\n      0x40\n      swap1\n      keccak256\n        /* \"DeadMansSwitch.sol\":15328:15360  benefactors[_benefactor].isAlive */\n      0x04\n      dup2\n      add\n      sload\n        /* \"DeadMansSwitch.sol\":15383:15427  benefactors[_benefactor].benefactorPublicKey */\n      0x05\n      swap1\n      swap2\n      add\n        /* \"DeadMansSwitch.sol\":15371:15427  publicKey = benefactors[_benefactor].benefactorPublicKey */\n      dup1\n      sload\n        /* \"DeadMansSwitch.sol\":15328:15360  benefactors[_benefactor].isAlive */\n      0x0100\n      swap1\n      swap3\n      div\n      0xff\n      and\n      swap5\n      pop\n        /* \"DeadMansSwitch.sol\":15383:15427  benefactors[_benefactor].benefactorPublicKey */\n      swap1\n        /* \"DeadMansSwitch.sol\":15371:15427  publicKey = benefactors[_benefactor].benefactorPublicKey */\n      tag_339\n      swap1\n      tag_177\n      jump\t// in\n    tag_339:\n      dup1\n      0x1f\n      add\n      0x20\n      dup1\n      swap2\n      div\n      mul\n      0x20\n      add\n      mload(0x40)\n      swap1\n      dup2\n      add\n      0x40\n      mstore\n      dup1\n      swap3\n      swap2\n      swap1\n      dup2\n      dup2\n      mstore\n      0x20\n      add\n      dup3\n      dup1\n      sload\n      tag_340\n      swap1\n      tag_177\n      jump\t// in\n    tag_340:\n      dup1\n      iszero\n      tag_341\n      jumpi\n      dup1\n      0x1f\n      lt\n      tag_342\n      jumpi\n      0x0100\n      dup1\n      dup4\n      sload\n      div\n      mul\n      dup4\n      mstore\n      swap2\n      0x20\n      add\n      swap2\n      jump(tag_341)\n    tag_342:\n      dup3\n      add\n      swap2\n      swap1\n      0x00\n      mstore\n      keccak256(0x00, 0x20)\n      swap1\n    tag_343:\n      dup2\n      sload\n      dup2\n      mstore\n      swap1\n      0x01\n      add\n      swap1\n      0x20\n      add\n      dup1\n      dup4\n      gt\n      tag_343\n      jumpi\n      dup3\n      swap1\n      sub\n      0x1f\n      and\n      dup3\n      add\n      swap2\n    tag_341:\n      pop\n      pop\n      pop\n      pop\n      pop\n      swap2\n      pop\n        /* \"DeadMansSwitch.sol\":15445:15524  BenefactorsData(switchStatus, beneficiaries, remainingTime, isAlive, publicKey) */\n      0x0fabe15a5563524b62ac7272583ab636d27eb845bb5deb57b32bf755c3db029b\n        /* \"DeadMansSwitch.sol\":15461:15473  switchStatus */\n      dup7\n        /* \"DeadMansSwitch.sol\":15475:15488  beneficiaries */\n      dup7\n        /* \"DeadMansSwitch.sol\":15490:15503  remainingTime */\n      dup7\n        /* \"DeadMansSwitch.sol\":15505:15512  isAlive */\n      dup7\n        /* \"DeadMansSwitch.sol\":15514:15523  publicKey */\n      dup7\n        /* \"DeadMansSwitch.sol\":15445:15524  BenefactorsData(switchStatus, beneficiaries, remainingTime, isAlive, publicKey) */\n      mload(0x40)\n      tag_344\n      swap6\n      swap5\n      swap4\n      swap3\n      swap2\n      swap1\n      tag_99\n      jump\t// in\n    tag_344:\n      mload(0x40)\n      dup1\n      swap2\n      sub\n      swap1\n      log1\n        /* \"DeadMansSwitch.sol\":15535:15606  return (switchStatus, beneficiaries, remainingTime, isAlive, publicKey) */\n      pop\n        /* \"DeadMansSwitch.sol\":14410:15614  function getBenefactorData(address _benefactor) public returns (bool switchStatus, address[] memory beneficiaries, uint256 remainingTime, bool isAlive, string memory publicKey) {... */\n      swap2\n      swap4\n      swap6\n      swap1\n      swap3\n      swap5\n      pop\n      jump\t// out\n        /* \"DeadMansSwitch.sol\":5244:5568  function getBeneficiaryPublicKey(address _benefactor, address _beneficiary) public view returns(string memory) {... */\n    tag_102:\n        /* \"DeadMansSwitch.sol\":5340:5353  string memory */\n      0x60\n        /* \"DeadMansSwitch.sol\":5370:5410  isBeneficiary(_benefactor, _beneficiary) */\n      tag_346\n        /* \"DeadMansSwitch.sol\":5384:5395  _benefactor */\n      dup4\n        /* \"DeadMansSwitch.sol\":5397:5409  _beneficiary */\n      dup4\n        /* \"DeadMansSwitch.sol\":5370:5383  isBeneficiary */\n      tag_46\n        /* \"DeadMansSwitch.sol\":5370:5410  isBeneficiary(_benefactor, _beneficiary) */\n      jump\t// in\n    tag_346:\n        /* \"DeadMansSwitch.sol\":5366:5561  if (isBeneficiary(_benefactor, _beneficiary)) {... */\n      iszero\n      tag_347\n      jumpi\n      sub(shl(0xa0, 0x01), 0x01)\n        /* \"DeadMansSwitch.sol\":5434:5458  benefactors[_benefactor] */\n      dup1\n      dup5\n      and\n        /* \"DeadMansSwitch.sol\":5434:5445  benefactors */\n      0x00\n        /* \"DeadMansSwitch.sol\":5434:5458  benefactors[_benefactor] */\n      swap1\n      dup2\n      mstore\n      0x20\n      dup2\n      dup2\n      mstore\n      0x40\n      dup1\n      dup4\n      keccak256\n        /* \"DeadMansSwitch.sol\":5434:5486  benefactors[_benefactor].beneficiaries[_beneficiary] */\n      swap4\n      dup7\n      and\n      dup4\n      mstore\n        /* \"DeadMansSwitch.sol\":5434:5472  benefactors[_benefactor].beneficiaries */\n      0x01\n      swap1\n      swap4\n      add\n        /* \"DeadMansSwitch.sol\":5434:5486  benefactors[_benefactor].beneficiaries[_beneficiary] */\n      swap1\n      mstore\n      keccak256\n        /* \"DeadMansSwitch.sol\":5434:5507  benefactors[_benefactor].beneficiaries[_beneficiary].beneficiaryPublicKey */\n      0x02\n      add\n        /* \"DeadMansSwitch.sol\":5427:5507  return benefactors[_benefactor].beneficiaries[_beneficiary].beneficiaryPublicKey */\n      dup1\n      sload\n      tag_348\n      swap1\n      tag_177\n      jump\t// in\n    tag_348:\n      dup1\n      0x1f\n      add\n      0x20\n      dup1\n      swap2\n      div\n      mul\n      0x20\n      add\n      mload(0x40)\n      swap1\n      dup2\n      add\n      0x40\n      mstore\n      dup1\n      swap3\n      swap2\n      swap1\n      dup2\n      dup2\n      mstore\n      0x20\n      add\n      dup3\n      dup1\n      sload\n      tag_349\n      swap1\n      tag_177\n      jump\t// in\n    tag_349:\n      dup1\n      iszero\n      tag_350\n      jumpi\n      dup1\n      0x1f\n      lt\n      tag_351\n      jumpi\n      0x0100\n      dup1\n      dup4\n      sload\n      div\n      mul\n      dup4\n      mstore\n      swap2\n      0x20\n      add\n      swap2\n      jump(tag_350)\n    tag_351:\n      dup3\n      add\n      swap2\n      swap1\n      0x00\n      mstore\n      keccak256(0x00, 0x20)\n      swap1\n    tag_352:\n      dup2\n      sload\n      dup2\n      mstore\n      swap1\n      0x01\n      add\n      swap1\n      0x20\n      add\n      dup1\n      dup4\n      gt\n      tag_352\n      jumpi\n      dup3\n      swap1\n      sub\n      0x1f\n      and\n      dup3\n      add\n      swap2\n    tag_350:\n      pop\n      pop\n      pop\n      pop\n      pop\n      swap1\n      pop\n      jump(tag_122)\n        /* \"DeadMansSwitch.sol\":5366:5561  if (isBeneficiary(_benefactor, _beneficiary)) {... */\n    tag_347:\n      pop\n        /* \"DeadMansSwitch.sol\":5540:5549  return \"\" */\n      0x40\n      dup1\n      mload\n      0x20\n      dup2\n      add\n      swap1\n      swap2\n      mstore\n      0x00\n      dup2\n      mstore\n      jump(tag_122)\n        /* \"DeadMansSwitch.sol\":11903:12238  function disableSwitch() internal onlyBenefactor {... */\n    tag_257:\n        /* \"DeadMansSwitch.sol\":2599:2609  msg.sender */\n      caller\n        /* \"DeadMansSwitch.sol\":2587:2598  benefactors */\n      0x00\n        /* \"DeadMansSwitch.sol\":2587:2610  benefactors[msg.sender] */\n      swap1\n      dup2\n      mstore\n      0x20\n      dup2\n      swap1\n      mstore\n      0x40\n      swap1\n      keccak256\n        /* \"DeadMansSwitch.sol\":2587:2617  benefactors[msg.sender].exists */\n      sload\n      0xff\n      and\n        /* \"DeadMansSwitch.sol\":2587:2652  benefactors[msg.sender].exists && benefactors[msg.sender].isAlive */\n      dup1\n      iszero\n      tag_355\n      jumpi\n      pop\n        /* \"DeadMansSwitch.sol\":2633:2643  msg.sender */\n      caller\n        /* \"DeadMansSwitch.sol\":2621:2632  benefactors */\n      0x00\n        /* \"DeadMansSwitch.sol\":2621:2644  benefactors[msg.sender] */\n      swap1\n      dup2\n      mstore\n      0x20\n      dup2\n      swap1\n      mstore\n      0x40\n      swap1\n      keccak256\n        /* \"DeadMansSwitch.sol\":2621:2652  benefactors[msg.sender].isAlive */\n      0x04\n      add\n      sload\n      0x0100\n      swap1\n      div\n      0xff\n      and\n        /* \"DeadMansSwitch.sol\":2587:2652  benefactors[msg.sender].exists && benefactors[msg.sender].isAlive */\n    tag_355:\n        /* \"DeadMansSwitch.sol\":2579:2679  require(benefactors[msg.sender].exists && benefactors[msg.sender].isAlive, \"Not a valid benefactor\") */\n      tag_356\n      jumpi\n      mload(0x40)\n      shl(0xe5, 0x461bcd)\n      dup2\n      mstore\n        /* \"#utility.yul\":11980:11982   */\n      0x20\n        /* \"DeadMansSwitch.sol\":2579:2679  require(benefactors[msg.sender].exists && benefactors[msg.sender].isAlive, \"Not a valid benefactor\") */\n      0x04\n      dup3\n      add\n        /* \"#utility.yul\":11962:11983   */\n      mstore\n        /* \"#utility.yul\":12019:12021   */\n      0x16\n        /* \"#utility.yul\":11999:12017   */\n      0x24\n      dup3\n      add\n        /* \"#utility.yul\":11992:12022   */\n      mstore\n      shl(0x51, 0x2737ba1030903b30b634b2103132b732b330b1ba37b9)\n        /* \"#utility.yul\":12038:12056   */\n      0x44\n      dup3\n      add\n        /* \"#utility.yul\":12031:12083   */\n      mstore\n        /* \"#utility.yul\":12100:12118   */\n      0x64\n      add\n        /* \"DeadMansSwitch.sol\":2579:2679  require(benefactors[msg.sender].exists && benefactors[msg.sender].isAlive, \"Not a valid benefactor\") */\n      tag_120\n        /* \"#utility.yul\":11778:12124   */\n      jump\n        /* \"DeadMansSwitch.sol\":2579:2679  require(benefactors[msg.sender].exists && benefactors[msg.sender].isAlive, \"Not a valid benefactor\") */\n    tag_356:\n        /* \"DeadMansSwitch.sol\":11979:11989  msg.sender */\n      caller\n        /* \"DeadMansSwitch.sol\":11967:11978  benefactors */\n      0x00\n        /* \"DeadMansSwitch.sol\":11967:11990  benefactors[msg.sender] */\n      swap1\n      dup2\n      mstore\n      0x20\n      dup2\n      swap1\n      mstore\n      0x40\n      swap1\n      keccak256\n        /* \"DeadMansSwitch.sol\":11967:12004  benefactors[msg.sender].isSwitchedOff */\n      0x04\n      add\n      sload\n      0xff\n      and\n        /* \"DeadMansSwitch.sol\":11963:12098  if (benefactors[msg.sender].isSwitchedOff) {... */\n      iszero\n      tag_359\n      jumpi\n        /* \"DeadMansSwitch.sol\":12026:12065  SwitchAlreadyOff(msg.sender,msg.sender) */\n      mload(0x40)\n        /* \"DeadMansSwitch.sol\":12054:12064  msg.sender */\n      caller\n      swap1\n      dup2\n      swap1\n        /* \"DeadMansSwitch.sol\":12026:12065  SwitchAlreadyOff(msg.sender,msg.sender) */\n      0x439c5aaf7691cb4808dbd2a240323ce9ec0d04d66ddf65ffd5f88ebd60fa745b\n      swap1\n      0x00\n      swap1\n      log3\n        /* \"DeadMansSwitch.sol\":12396:13095  function respondToSwitch() external onlyBenefactor {... */\n      jump\t// out\n        /* \"DeadMansSwitch.sol\":11963:12098  if (benefactors[msg.sender].isSwitchedOff) {... */\n    tag_359:\n        /* \"DeadMansSwitch.sol\":12120:12130  msg.sender */\n      caller\n        /* \"DeadMansSwitch.sol\":12108:12119  benefactors */\n      0x00\n        /* \"DeadMansSwitch.sol\":12108:12131  benefactors[msg.sender] */\n      dup2\n      dup2\n      mstore\n      0x20\n      dup2\n      swap1\n      mstore\n      0x40\n      swap1\n      dup2\n      swap1\n      keccak256\n        /* \"DeadMansSwitch.sol\":12108:12145  benefactors[msg.sender].isSwitchedOff */\n      0x04\n      add\n        /* \"DeadMansSwitch.sol\":12108:12152  benefactors[msg.sender].isSwitchedOff = true */\n      dup1\n      sload\n      not(0xff)\n      and\n        /* \"DeadMansSwitch.sol\":12148:12152  true */\n      0x01\n        /* \"DeadMansSwitch.sol\":12108:12152  benefactors[msg.sender].isSwitchedOff = true */\n      or\n      swap1\n      sstore\n        /* \"DeadMansSwitch.sol\":12168:12230  DeadMansSwitchDisabled(msg.sender,msg.sender, block.timestamp) */\n      mload\n        /* \"DeadMansSwitch.sol\":12120:12130  msg.sender */\n      dup2\n      swap1\n        /* \"DeadMansSwitch.sol\":12168:12230  DeadMansSwitchDisabled(msg.sender,msg.sender, block.timestamp) */\n      0x9baa855d20de9b1a4db454f55b09d1db5f42f0871bbea3b0c699146ade171625\n      swap1\n      tag_360\n      swap1\n        /* \"DeadMansSwitch.sol\":12214:12229  block.timestamp */\n      timestamp\n        /* \"#utility.yul\":552:577   */\n      dup2\n      mstore\n        /* \"#utility.yul\":540:542   */\n      0x20\n        /* \"#utility.yul\":525:543   */\n      add\n      swap1\n        /* \"#utility.yul\":406:583   */\n      jump\n        /* \"DeadMansSwitch.sol\":12168:12230  DeadMansSwitchDisabled(msg.sender,msg.sender, block.timestamp) */\n    tag_360:\n      mload(0x40)\n      dup1\n      swap2\n      sub\n      swap1\n      log3\n        /* \"DeadMansSwitch.sol\":11903:12238  function disableSwitch() internal onlyBenefactor {... */\n      jump\t// out\n    tag_156:\n      dup3\n      dup1\n      sload\n      dup3\n      dup3\n      sstore\n      swap1\n      0x00\n      mstore\n      keccak256(0x00, 0x20)\n      swap1\n      dup2\n      add\n      swap3\n      dup3\n      iszero\n      tag_364\n      jumpi\n      swap2\n      0x20\n      mul\n      dup3\n      add\n    tag_363:\n      dup3\n      dup2\n      gt\n      iszero\n      tag_364\n      jumpi\n      dup3\n      mload\n      dup3\n      swap1\n      tag_365\n      swap1\n      dup3\n      tag_125\n      jump\t// in\n    tag_365:\n      pop\n      swap2\n      0x20\n      add\n      swap2\n      swap1\n      0x01\n      add\n      swap1\n      jump(tag_363)\n    tag_364:\n      pop\n      tag_366\n      swap3\n      swap2\n      pop\n      tag_367\n      jump\t// in\n    tag_366:\n      pop\n      swap1\n      jump\t// out\n    tag_170:\n      pop\n      dup1\n      sload\n      0x00\n      dup3\n      sstore\n      swap1\n      0x00\n      mstore\n      keccak256(0x00, 0x20)\n      swap1\n      dup2\n      add\n      swap1\n      tag_124\n      swap2\n      swap1\n      tag_367\n      jump\t// in\n    tag_172:\n      pop\n      dup1\n      sload\n      tag_370\n      swap1\n      tag_177\n      jump\t// in\n    tag_370:\n      0x00\n      dup3\n      sstore\n      dup1\n      0x1f\n      lt\n      tag_372\n      jumpi\n      pop\n      pop\n      jump\t// out\n    tag_372:\n      0x1f\n      add\n      0x20\n      swap1\n      div\n      swap1\n      0x00\n      mstore\n      keccak256(0x00, 0x20)\n      swap1\n      dup2\n      add\n      swap1\n      tag_124\n      swap2\n      swap1\n      tag_374\n      jump\t// in\n    tag_367:\n      dup1\n      dup3\n      gt\n      iszero\n      tag_366\n      jumpi\n      0x00\n      tag_377\n      dup3\n      dup3\n      tag_172\n      jump\t// in\n    tag_377:\n      pop\n      0x01\n      add\n      jump(tag_367)\n    tag_374:\n    tag_378:\n      dup1\n      dup3\n      gt\n      iszero\n      tag_366\n      jumpi\n      0x00\n      dup2\n      sstore\n      0x01\n      add\n      jump(tag_378)\n        /* \"#utility.yul\":14:210   */\n    tag_380:\n        /* \"#utility.yul\":82:102   */\n      dup1\n      calldataload\n      sub(shl(0xa0, 0x01), 0x01)\n        /* \"#utility.yul\":131:185   */\n      dup2\n      and\n        /* \"#utility.yul\":121:186   */\n      dup2\n      eq\n        /* \"#utility.yul\":111:204   */\n      tag_182\n      jumpi\n        /* \"#utility.yul\":200:201   */\n      0x00\n        /* \"#utility.yul\":197:198   */\n      dup1\n        /* \"#utility.yul\":190:202   */\n      revert\n        /* \"#utility.yul\":215:401   */\n    tag_30:\n        /* \"#utility.yul\":274:280   */\n      0x00\n        /* \"#utility.yul\":327:329   */\n      0x20\n        /* \"#utility.yul\":315:324   */\n      dup3\n        /* \"#utility.yul\":306:313   */\n      dup5\n        /* \"#utility.yul\":302:325   */\n      sub\n        /* \"#utility.yul\":298:330   */\n      slt\n        /* \"#utility.yul\":295:347   */\n      iszero\n      tag_393\n      jumpi\n        /* \"#utility.yul\":343:344   */\n      0x00\n        /* \"#utility.yul\":340:341   */\n      dup1\n        /* \"#utility.yul\":333:345   */\n      revert\n        /* \"#utility.yul\":295:347   */\n    tag_393:\n        /* \"#utility.yul\":366:395   */\n      tag_111\n        /* \"#utility.yul\":385:394   */\n      dup3\n        /* \"#utility.yul\":366:395   */\n      tag_380\n      jump\t// in\n        /* \"#utility.yul\":780:1040   */\n    tag_45:\n        /* \"#utility.yul\":848:854   */\n      0x00\n        /* \"#utility.yul\":856:862   */\n      dup1\n        /* \"#utility.yul\":909:911   */\n      0x40\n        /* \"#utility.yul\":897:906   */\n      dup4\n        /* \"#utility.yul\":888:895   */\n      dup6\n        /* \"#utility.yul\":884:907   */\n      sub\n        /* \"#utility.yul\":880:912   */\n      slt\n        /* \"#utility.yul\":877:929   */\n      iszero\n      tag_398\n      jumpi\n        /* \"#utility.yul\":925:926   */\n      0x00\n        /* \"#utility.yul\":922:923   */\n      dup1\n        /* \"#utility.yul\":915:927   */\n      revert\n        /* \"#utility.yul\":877:929   */\n    tag_398:\n        /* \"#utility.yul\":948:977   */\n      tag_399\n        /* \"#utility.yul\":967:976   */\n      dup4\n        /* \"#utility.yul\":948:977   */\n      tag_380\n      jump\t// in\n    tag_399:\n        /* \"#utility.yul\":938:977   */\n      swap2\n      pop\n        /* \"#utility.yul\":996:1034   */\n      tag_400\n        /* \"#utility.yul\":1030:1032   */\n      0x20\n        /* \"#utility.yul\":1019:1028   */\n      dup5\n        /* \"#utility.yul\":1015:1033   */\n      add\n        /* \"#utility.yul\":996:1034   */\n      tag_380\n      jump\t// in\n    tag_400:\n        /* \"#utility.yul\":986:1034   */\n      swap1\n      pop\n        /* \"#utility.yul\":780:1040   */\n      swap3\n      pop\n      swap3\n      swap1\n      pop\n      jump\t// out\n        /* \"#utility.yul\":1045:1172   */\n    tag_152:\n        /* \"#utility.yul\":1106:1116   */\n      0x4e487b71\n        /* \"#utility.yul\":1101:1104   */\n      0xe0\n        /* \"#utility.yul\":1097:1117   */\n      shl\n        /* \"#utility.yul\":1094:1095   */\n      0x00\n        /* \"#utility.yul\":1087:1118   */\n      mstore\n        /* \"#utility.yul\":1137:1141   */\n      0x41\n        /* \"#utility.yul\":1134:1135   */\n      0x04\n        /* \"#utility.yul\":1127:1142   */\n      mstore\n        /* \"#utility.yul\":1161:1165   */\n      0x24\n        /* \"#utility.yul\":1158:1159   */\n      0x00\n        /* \"#utility.yul\":1151:1166   */\n      revert\n        /* \"#utility.yul\":1177:1452   */\n    tag_381:\n        /* \"#utility.yul\":1248:1250   */\n      0x40\n        /* \"#utility.yul\":1242:1251   */\n      mload\n        /* \"#utility.yul\":1313:1315   */\n      0x1f\n        /* \"#utility.yul\":1294:1307   */\n      dup3\n      add\n      not(0x1f)\n        /* \"#utility.yul\":1290:1317   */\n      and\n        /* \"#utility.yul\":1278:1318   */\n      dup2\n      add\n        /* \"#utility.yul\":1348:1366   */\n      0xffffffffffffffff\n        /* \"#utility.yul\":1333:1367   */\n      dup2\n      gt\n        /* \"#utility.yul\":1369:1391   */\n      dup3\n      dup3\n      lt\n        /* \"#utility.yul\":1330:1392   */\n      or\n        /* \"#utility.yul\":1327:1415   */\n      iszero\n      tag_404\n      jumpi\n        /* \"#utility.yul\":1395:1413   */\n      tag_404\n      tag_152\n      jump\t// in\n    tag_404:\n        /* \"#utility.yul\":1431:1433   */\n      0x40\n        /* \"#utility.yul\":1424:1446   */\n      mstore\n        /* \"#utility.yul\":1177:1452   */\n      swap2\n      swap1\n      pop\n      jump\t// out\n        /* \"#utility.yul\":1457:1988   */\n    tag_382:\n        /* \"#utility.yul\":1500:1505   */\n      0x00\n        /* \"#utility.yul\":1553:1556   */\n      dup3\n        /* \"#utility.yul\":1546:1550   */\n      0x1f\n        /* \"#utility.yul\":1538:1544   */\n      dup4\n        /* \"#utility.yul\":1534:1551   */\n      add\n        /* \"#utility.yul\":1530:1557   */\n      slt\n        /* \"#utility.yul\":1520:1575   */\n      tag_406\n      jumpi\n        /* \"#utility.yul\":1571:1572   */\n      0x00\n        /* \"#utility.yul\":1568:1569   */\n      dup1\n        /* \"#utility.yul\":1561:1573   */\n      revert\n        /* \"#utility.yul\":1520:1575   */\n    tag_406:\n        /* \"#utility.yul\":1607:1613   */\n      dup2\n        /* \"#utility.yul\":1594:1614   */\n      calldataload\n        /* \"#utility.yul\":1633:1651   */\n      0xffffffffffffffff\n        /* \"#utility.yul\":1629:1631   */\n      dup2\n        /* \"#utility.yul\":1626:1652   */\n      gt\n        /* \"#utility.yul\":1623:1675   */\n      iszero\n      tag_408\n      jumpi\n        /* \"#utility.yul\":1655:1673   */\n      tag_408\n      tag_152\n      jump\t// in\n    tag_408:\n        /* \"#utility.yul\":1699:1754   */\n      tag_409\n        /* \"#utility.yul\":1742:1744   */\n      0x1f\n        /* \"#utility.yul\":1723:1736   */\n      dup3\n      add\n      not(0x1f)\n        /* \"#utility.yul\":1719:1746   */\n      and\n        /* \"#utility.yul\":1748:1752   */\n      0x20\n        /* \"#utility.yul\":1715:1753   */\n      add\n        /* \"#utility.yul\":1699:1754   */\n      tag_381\n      jump\t// in\n    tag_409:\n        /* \"#utility.yul\":1779:1781   */\n      dup2\n        /* \"#utility.yul\":1770:1777   */\n      dup2\n        /* \"#utility.yul\":1763:1782   */\n      mstore\n        /* \"#utility.yul\":1825:1828   */\n      dup5\n        /* \"#utility.yul\":1818:1822   */\n      0x20\n        /* \"#utility.yul\":1813:1815   */\n      dup4\n        /* \"#utility.yul\":1805:1811   */\n      dup7\n        /* \"#utility.yul\":1801:1816   */\n      add\n        /* \"#utility.yul\":1797:1823   */\n      add\n        /* \"#utility.yul\":1794:1829   */\n      gt\n        /* \"#utility.yul\":1791:1846   */\n      iszero\n      tag_410\n      jumpi\n        /* \"#utility.yul\":1842:1843   */\n      0x00\n        /* \"#utility.yul\":1839:1840   */\n      dup1\n        /* \"#utility.yul\":1832:1844   */\n      revert\n        /* \"#utility.yul\":1791:1846   */\n    tag_410:\n        /* \"#utility.yul\":1907:1909   */\n      dup2\n        /* \"#utility.yul\":1900:1904   */\n      0x20\n        /* \"#utility.yul\":1892:1898   */\n      dup6\n        /* \"#utility.yul\":1888:1905   */\n      add\n        /* \"#utility.yul\":1881:1885   */\n      0x20\n        /* \"#utility.yul\":1872:1879   */\n      dup4\n        /* \"#utility.yul\":1868:1886   */\n      add\n        /* \"#utility.yul\":1855:1910   */\n      calldatacopy\n        /* \"#utility.yul\":1955:1956   */\n      0x00\n        /* \"#utility.yul\":1930:1946   */\n      swap2\n      dup2\n      add\n        /* \"#utility.yul\":1948:1952   */\n      0x20\n        /* \"#utility.yul\":1926:1953   */\n      add\n        /* \"#utility.yul\":1919:1957   */\n      swap2\n      swap1\n      swap2\n      mstore\n        /* \"#utility.yul\":1934:1941   */\n      swap4\n        /* \"#utility.yul\":1457:1988   */\n      swap3\n      pop\n      pop\n      pop\n      jump\t// out\n        /* \"#utility.yul\":1993:2463   */\n    tag_52:\n        /* \"#utility.yul\":2080:2086   */\n      0x00\n        /* \"#utility.yul\":2088:2094   */\n      dup1\n        /* \"#utility.yul\":2096:2102   */\n      0x00\n        /* \"#utility.yul\":2149:2151   */\n      0x60\n        /* \"#utility.yul\":2137:2146   */\n      dup5\n        /* \"#utility.yul\":2128:2135   */\n      dup7\n        /* \"#utility.yul\":2124:2147   */\n      sub\n        /* \"#utility.yul\":2120:2152   */\n      slt\n        /* \"#utility.yul\":2117:2169   */\n      iszero\n      tag_412\n      jumpi\n        /* \"#utility.yul\":2165:2166   */\n      0x00\n        /* \"#utility.yul\":2162:2163   */\n      dup1\n        /* \"#utility.yul\":2155:2167   */\n      revert\n        /* \"#utility.yul\":2117:2169   */\n    tag_412:\n        /* \"#utility.yul\":2188:2217   */\n      tag_413\n        /* \"#utility.yul\":2207:2216   */\n      dup5\n        /* \"#utility.yul\":2188:2217   */\n      tag_380\n      jump\t// in\n    tag_413:\n        /* \"#utility.yul\":2178:2217   */\n      swap3\n      pop\n        /* \"#utility.yul\":2236:2274   */\n      tag_414\n        /* \"#utility.yul\":2270:2272   */\n      0x20\n        /* \"#utility.yul\":2259:2268   */\n      dup6\n        /* \"#utility.yul\":2255:2273   */\n      add\n        /* \"#utility.yul\":2236:2274   */\n      tag_380\n      jump\t// in\n    tag_414:\n        /* \"#utility.yul\":2226:2274   */\n      swap2\n      pop\n        /* \"#utility.yul\":2325:2327   */\n      0x40\n        /* \"#utility.yul\":2314:2323   */\n      dup5\n        /* \"#utility.yul\":2310:2328   */\n      add\n        /* \"#utility.yul\":2297:2329   */\n      calldataload\n        /* \"#utility.yul\":2352:2370   */\n      0xffffffffffffffff\n        /* \"#utility.yul\":2344:2350   */\n      dup2\n        /* \"#utility.yul\":2341:2371   */\n      gt\n        /* \"#utility.yul\":2338:2388   */\n      iszero\n      tag_415\n      jumpi\n        /* \"#utility.yul\":2384:2385   */\n      0x00\n        /* \"#utility.yul\":2381:2382   */\n      dup1\n        /* \"#utility.yul\":2374:2386   */\n      revert\n        /* \"#utility.yul\":2338:2388   */\n    tag_415:\n        /* \"#utility.yul\":2407:2457   */\n      tag_416\n        /* \"#utility.yul\":2449:2456   */\n      dup7\n        /* \"#utility.yul\":2440:2446   */\n      dup3\n        /* \"#utility.yul\":2429:2438   */\n      dup8\n        /* \"#utility.yul\":2425:2447   */\n      add\n        /* \"#utility.yul\":2407:2457   */\n      tag_382\n      jump\t// in\n    tag_416:\n        /* \"#utility.yul\":2397:2457   */\n      swap2\n      pop\n      pop\n        /* \"#utility.yul\":1993:2463   */\n      swap3\n      pop\n      swap3\n      pop\n      swap3\n      jump\t// out\n        /* \"#utility.yul\":2468:3083   */\n    tag_56:\n        /* \"#utility.yul\":2554:2560   */\n      0x00\n        /* \"#utility.yul\":2562:2568   */\n      dup1\n        /* \"#utility.yul\":2615:2617   */\n      0x20\n        /* \"#utility.yul\":2603:2612   */\n      dup4\n        /* \"#utility.yul\":2594:2601   */\n      dup6\n        /* \"#utility.yul\":2590:2613   */\n      sub\n        /* \"#utility.yul\":2586:2618   */\n      slt\n        /* \"#utility.yul\":2583:2635   */\n      iszero\n      tag_418\n      jumpi\n        /* \"#utility.yul\":2631:2632   */\n      0x00\n        /* \"#utility.yul\":2628:2629   */\n      dup1\n        /* \"#utility.yul\":2621:2633   */\n      revert\n        /* \"#utility.yul\":2583:2635   */\n    tag_418:\n        /* \"#utility.yul\":2671:2680   */\n      dup3\n        /* \"#utility.yul\":2658:2681   */\n      calldataload\n        /* \"#utility.yul\":2700:2718   */\n      0xffffffffffffffff\n        /* \"#utility.yul\":2741:2743   */\n      dup1\n        /* \"#utility.yul\":2733:2739   */\n      dup3\n        /* \"#utility.yul\":2730:2744   */\n      gt\n        /* \"#utility.yul\":2727:2761   */\n      iszero\n      tag_419\n      jumpi\n        /* \"#utility.yul\":2757:2758   */\n      0x00\n        /* \"#utility.yul\":2754:2755   */\n      dup1\n        /* \"#utility.yul\":2747:2759   */\n      revert\n        /* \"#utility.yul\":2727:2761   */\n    tag_419:\n        /* \"#utility.yul\":2795:2801   */\n      dup2\n        /* \"#utility.yul\":2784:2793   */\n      dup6\n        /* \"#utility.yul\":2780:2802   */\n      add\n        /* \"#utility.yul\":2770:2802   */\n      swap2\n      pop\n        /* \"#utility.yul\":2840:2847   */\n      dup6\n        /* \"#utility.yul\":2833:2837   */\n      0x1f\n        /* \"#utility.yul\":2829:2831   */\n      dup4\n        /* \"#utility.yul\":2825:2838   */\n      add\n        /* \"#utility.yul\":2821:2848   */\n      slt\n        /* \"#utility.yul\":2811:2866   */\n      tag_420\n      jumpi\n        /* \"#utility.yul\":2862:2863   */\n      0x00\n        /* \"#utility.yul\":2859:2860   */\n      dup1\n        /* \"#utility.yul\":2852:2864   */\n      revert\n        /* \"#utility.yul\":2811:2866   */\n    tag_420:\n        /* \"#utility.yul\":2902:2904   */\n      dup2\n        /* \"#utility.yul\":2889:2905   */\n      calldataload\n        /* \"#utility.yul\":2928:2930   */\n      dup2\n        /* \"#utility.yul\":2920:2926   */\n      dup2\n        /* \"#utility.yul\":2917:2931   */\n      gt\n        /* \"#utility.yul\":2914:2948   */\n      iszero\n      tag_421\n      jumpi\n        /* \"#utility.yul\":2944:2945   */\n      0x00\n        /* \"#utility.yul\":2941:2942   */\n      dup1\n        /* \"#utility.yul\":2934:2946   */\n      revert\n        /* \"#utility.yul\":2914:2948   */\n    tag_421:\n        /* \"#utility.yul\":2997:3004   */\n      dup7\n        /* \"#utility.yul\":2992:2994   */\n      0x20\n        /* \"#utility.yul\":2982:2988   */\n      dup3\n        /* \"#utility.yul\":2979:2980   */\n      0x05\n        /* \"#utility.yul\":2975:2989   */\n      shl\n        /* \"#utility.yul\":2971:2973   */\n      dup6\n        /* \"#utility.yul\":2967:2990   */\n      add\n        /* \"#utility.yul\":2963:2995   */\n      add\n        /* \"#utility.yul\":2960:3005   */\n      gt\n        /* \"#utility.yul\":2957:3022   */\n      iszero\n      tag_422\n      jumpi\n        /* \"#utility.yul\":3018:3019   */\n      0x00\n        /* \"#utility.yul\":3015:3016   */\n      dup1\n        /* \"#utility.yul\":3008:3020   */\n      revert\n        /* \"#utility.yul\":2957:3022   */\n    tag_422:\n        /* \"#utility.yul\":3049:3051   */\n      0x20\n        /* \"#utility.yul\":3041:3052   */\n      swap3\n      swap1\n      swap3\n      add\n      swap7\n        /* \"#utility.yul\":3071:3077   */\n      swap2\n      swap6\n      pop\n        /* \"#utility.yul\":2468:3083   */\n      swap1\n      swap4\n      pop\n      pop\n      pop\n      pop\n      jump\t// out\n        /* \"#utility.yul\":3088:3338   */\n    tag_383:\n        /* \"#utility.yul\":3173:3174   */\n      0x00\n        /* \"#utility.yul\":3183:3296   */\n    tag_424:\n        /* \"#utility.yul\":3197:3203   */\n      dup4\n        /* \"#utility.yul\":3194:3195   */\n      dup2\n        /* \"#utility.yul\":3191:3204   */\n      lt\n        /* \"#utility.yul\":3183:3296   */\n      iszero\n      tag_426\n      jumpi\n        /* \"#utility.yul\":3273:3284   */\n      dup2\n      dup2\n      add\n        /* \"#utility.yul\":3267:3285   */\n      mload\n        /* \"#utility.yul\":3254:3265   */\n      dup4\n      dup3\n      add\n        /* \"#utility.yul\":3247:3286   */\n      mstore\n        /* \"#utility.yul\":3219:3221   */\n      0x20\n        /* \"#utility.yul\":3212:3222   */\n      add\n        /* \"#utility.yul\":3183:3296   */\n      jump(tag_424)\n    tag_426:\n      pop\n      pop\n        /* \"#utility.yul\":3330:3331   */\n      0x00\n        /* \"#utility.yul\":3312:3328   */\n      swap2\n      add\n        /* \"#utility.yul\":3305:3332   */\n      mstore\n        /* \"#utility.yul\":3088:3338   */\n      jump\t// out\n        /* \"#utility.yul\":3343:3614   */\n    tag_384:\n        /* \"#utility.yul\":3385:3388   */\n      0x00\n        /* \"#utility.yul\":3423:3428   */\n      dup2\n        /* \"#utility.yul\":3417:3429   */\n      mload\n        /* \"#utility.yul\":3450:3456   */\n      dup1\n        /* \"#utility.yul\":3445:3448   */\n      dup5\n        /* \"#utility.yul\":3438:3457   */\n      mstore\n        /* \"#utility.yul\":3466:3542   */\n      tag_428\n        /* \"#utility.yul\":3535:3541   */\n      dup2\n        /* \"#utility.yul\":3528:3532   */\n      0x20\n        /* \"#utility.yul\":3523:3526   */\n      dup7\n        /* \"#utility.yul\":3519:3533   */\n      add\n        /* \"#utility.yul\":3512:3516   */\n      0x20\n        /* \"#utility.yul\":3505:3510   */\n      dup7\n        /* \"#utility.yul\":3501:3517   */\n      add\n        /* \"#utility.yul\":3466:3542   */\n      tag_383\n      jump\t// in\n    tag_428:\n        /* \"#utility.yul\":3596:3598   */\n      0x1f\n        /* \"#utility.yul\":3575:3590   */\n      add\n      not(0x1f)\n        /* \"#utility.yul\":3571:3600   */\n      and\n        /* \"#utility.yul\":3562:3601   */\n      swap3\n      swap1\n      swap3\n      add\n        /* \"#utility.yul\":3603:3607   */\n      0x20\n        /* \"#utility.yul\":3558:3608   */\n      add\n      swap3\n        /* \"#utility.yul\":3343:3614   */\n      swap2\n      pop\n      pop\n      jump\t// out\n        /* \"#utility.yul\":3619:3839   */\n    tag_65:\n        /* \"#utility.yul\":3768:3770   */\n      0x20\n        /* \"#utility.yul\":3757:3766   */\n      dup2\n        /* \"#utility.yul\":3750:3771   */\n      mstore\n        /* \"#utility.yul\":3731:3735   */\n      0x00\n        /* \"#utility.yul\":3788:3833   */\n      tag_111\n        /* \"#utility.yul\":3829:3831   */\n      0x20\n        /* \"#utility.yul\":3818:3827   */\n      dup4\n        /* \"#utility.yul\":3814:3832   */\n      add\n        /* \"#utility.yul\":3806:3812   */\n      dup5\n        /* \"#utility.yul\":3788:3833   */\n      tag_384\n      jump\t// in\n        /* \"#utility.yul\":3844:4240   */\n    tag_68:\n        /* \"#utility.yul\":3922:3928   */\n      0x00\n        /* \"#utility.yul\":3930:3936   */\n      dup1\n        /* \"#utility.yul\":3983:3985   */\n      0x40\n        /* \"#utility.yul\":3971:3980   */\n      dup4\n        /* \"#utility.yul\":3962:3969   */\n      dup6\n        /* \"#utility.yul\":3958:3981   */\n      sub\n        /* \"#utility.yul\":3954:3986   */\n      slt\n        /* \"#utility.yul\":3951:4003   */\n      iszero\n      tag_432\n      jumpi\n        /* \"#utility.yul\":3999:4000   */\n      0x00\n        /* \"#utility.yul\":3996:3997   */\n      dup1\n        /* \"#utility.yul\":3989:4001   */\n      revert\n        /* \"#utility.yul\":3951:4003   */\n    tag_432:\n        /* \"#utility.yul\":4022:4051   */\n      tag_433\n        /* \"#utility.yul\":4041:4050   */\n      dup4\n        /* \"#utility.yul\":4022:4051   */\n      tag_380\n      jump\t// in\n    tag_433:\n        /* \"#utility.yul\":4012:4051   */\n      swap2\n      pop\n        /* \"#utility.yul\":4102:4104   */\n      0x20\n        /* \"#utility.yul\":4091:4100   */\n      dup4\n        /* \"#utility.yul\":4087:4105   */\n      add\n        /* \"#utility.yul\":4074:4106   */\n      calldataload\n        /* \"#utility.yul\":4129:4147   */\n      0xffffffffffffffff\n        /* \"#utility.yul\":4121:4127   */\n      dup2\n        /* \"#utility.yul\":4118:4148   */\n      gt\n        /* \"#utility.yul\":4115:4165   */\n      iszero\n      tag_434\n      jumpi\n        /* \"#utility.yul\":4161:4162   */\n      0x00\n        /* \"#utility.yul\":4158:4159   */\n      dup1\n        /* \"#utility.yul\":4151:4163   */\n      revert\n        /* \"#utility.yul\":4115:4165   */\n    tag_434:\n        /* \"#utility.yul\":4184:4234   */\n      tag_435\n        /* \"#utility.yul\":4226:4233   */\n      dup6\n        /* \"#utility.yul\":4217:4223   */\n      dup3\n        /* \"#utility.yul\":4206:4215   */\n      dup7\n        /* \"#utility.yul\":4202:4224   */\n      add\n        /* \"#utility.yul\":4184:4234   */\n      tag_382\n      jump\t// in\n    tag_435:\n        /* \"#utility.yul\":4174:4234   */\n      swap2\n      pop\n      pop\n        /* \"#utility.yul\":3844:4240   */\n      swap3\n      pop\n      swap3\n      swap1\n      pop\n      jump\t// out\n        /* \"#utility.yul\":4245:4700   */\n    tag_80:\n        /* \"#utility.yul\":4480:4486   */\n      dup5\n        /* \"#utility.yul\":4473:4487   */\n      iszero\n        /* \"#utility.yul\":4466:4488   */\n      iszero\n        /* \"#utility.yul\":4455:4464   */\n      dup2\n        /* \"#utility.yul\":4448:4489   */\n      mstore\n        /* \"#utility.yul\":4525:4531   */\n      dup4\n        /* \"#utility.yul\":4520:4522   */\n      0x20\n        /* \"#utility.yul\":4509:4518   */\n      dup3\n        /* \"#utility.yul\":4505:4523   */\n      add\n        /* \"#utility.yul\":4498:4532   */\n      mstore\n        /* \"#utility.yul\":4582:4588   */\n      dup3\n        /* \"#utility.yul\":4575:4589   */\n      iszero\n        /* \"#utility.yul\":4568:4590   */\n      iszero\n        /* \"#utility.yul\":4563:4565   */\n      0x40\n        /* \"#utility.yul\":4552:4561   */\n      dup3\n        /* \"#utility.yul\":4548:4566   */\n      add\n        /* \"#utility.yul\":4541:4591   */\n      mstore\n        /* \"#utility.yul\":4627:4630   */\n      0x80\n        /* \"#utility.yul\":4622:4624   */\n      0x60\n        /* \"#utility.yul\":4611:4620   */\n      dup3\n        /* \"#utility.yul\":4607:4625   */\n      add\n        /* \"#utility.yul\":4600:4631   */\n      mstore\n        /* \"#utility.yul\":4429:4433   */\n      0x00\n        /* \"#utility.yul\":4648:4694   */\n      tag_437\n        /* \"#utility.yul\":4689:4692   */\n      0x80\n        /* \"#utility.yul\":4678:4687   */\n      dup4\n        /* \"#utility.yul\":4674:4693   */\n      add\n        /* \"#utility.yul\":4666:4672   */\n      dup5\n        /* \"#utility.yul\":4648:4694   */\n      tag_384\n      jump\t// in\n    tag_437:\n        /* \"#utility.yul\":4640:4694   */\n      swap7\n        /* \"#utility.yul\":4245:4700   */\n      swap6\n      pop\n      pop\n      pop\n      pop\n      pop\n      pop\n      jump\t// out\n        /* \"#utility.yul\":4705:5946   */\n    tag_88:\n        /* \"#utility.yul\":4808:4814   */\n      0x00\n        /* \"#utility.yul\":4816:4822   */\n      dup1\n        /* \"#utility.yul\":4869:4871   */\n      0x40\n        /* \"#utility.yul\":4857:4866   */\n      dup4\n        /* \"#utility.yul\":4848:4855   */\n      dup6\n        /* \"#utility.yul\":4844:4867   */\n      sub\n        /* \"#utility.yul\":4840:4872   */\n      slt\n        /* \"#utility.yul\":4837:4889   */\n      iszero\n      tag_439\n      jumpi\n        /* \"#utility.yul\":4885:4886   */\n      0x00\n        /* \"#utility.yul\":4882:4883   */\n      dup1\n        /* \"#utility.yul\":4875:4887   */\n      revert\n        /* \"#utility.yul\":4837:4889   */\n    tag_439:\n        /* \"#utility.yul\":4908:4937   */\n      tag_440\n        /* \"#utility.yul\":4927:4936   */\n      dup4\n        /* \"#utility.yul\":4908:4937   */\n      tag_380\n      jump\t// in\n    tag_440:\n        /* \"#utility.yul\":4898:4937   */\n      swap2\n      pop\n        /* \"#utility.yul\":4956:4958   */\n      0x20\n        /* \"#utility.yul\":5009:5011   */\n      dup1\n        /* \"#utility.yul\":4998:5007   */\n      dup5\n        /* \"#utility.yul\":4994:5012   */\n      add\n        /* \"#utility.yul\":4981:5013   */\n      calldataload\n        /* \"#utility.yul\":5032:5050   */\n      0xffffffffffffffff\n        /* \"#utility.yul\":5073:5075   */\n      dup1\n        /* \"#utility.yul\":5065:5071   */\n      dup3\n        /* \"#utility.yul\":5062:5076   */\n      gt\n        /* \"#utility.yul\":5059:5093   */\n      iszero\n      tag_441\n      jumpi\n        /* \"#utility.yul\":5089:5090   */\n      0x00\n        /* \"#utility.yul\":5086:5087   */\n      dup1\n        /* \"#utility.yul\":5079:5091   */\n      revert\n        /* \"#utility.yul\":5059:5093   */\n    tag_441:\n        /* \"#utility.yul\":5127:5133   */\n      dup2\n        /* \"#utility.yul\":5116:5125   */\n      dup7\n        /* \"#utility.yul\":5112:5134   */\n      add\n        /* \"#utility.yul\":5102:5134   */\n      swap2\n      pop\n        /* \"#utility.yul\":5172:5179   */\n      dup7\n        /* \"#utility.yul\":5165:5169   */\n      0x1f\n        /* \"#utility.yul\":5161:5163   */\n      dup4\n        /* \"#utility.yul\":5157:5170   */\n      add\n        /* \"#utility.yul\":5153:5180   */\n      slt\n        /* \"#utility.yul\":5143:5198   */\n      tag_442\n      jumpi\n        /* \"#utility.yul\":5194:5195   */\n      0x00\n        /* \"#utility.yul\":5191:5192   */\n      dup1\n        /* \"#utility.yul\":5184:5196   */\n      revert\n        /* \"#utility.yul\":5143:5198   */\n    tag_442:\n        /* \"#utility.yul\":5230:5232   */\n      dup2\n        /* \"#utility.yul\":5217:5233   */\n      calldataload\n        /* \"#utility.yul\":5252:5254   */\n      dup2\n        /* \"#utility.yul\":5248:5250   */\n      dup2\n        /* \"#utility.yul\":5245:5255   */\n      gt\n        /* \"#utility.yul\":5242:5278   */\n      iszero\n      tag_444\n      jumpi\n        /* \"#utility.yul\":5258:5276   */\n      tag_444\n      tag_152\n      jump\t// in\n    tag_444:\n        /* \"#utility.yul\":5304:5306   */\n      dup1\n        /* \"#utility.yul\":5301:5302   */\n      0x05\n        /* \"#utility.yul\":5297:5307   */\n      shl\n        /* \"#utility.yul\":5327:5355   */\n      tag_445\n        /* \"#utility.yul\":5351:5353   */\n      dup6\n        /* \"#utility.yul\":5347:5349   */\n      dup3\n        /* \"#utility.yul\":5343:5354   */\n      add\n        /* \"#utility.yul\":5327:5355   */\n      tag_381\n      jump\t// in\n    tag_445:\n        /* \"#utility.yul\":5389:5404   */\n      swap2\n      dup3\n      mstore\n        /* \"#utility.yul\":5459:5470   */\n      dup4\n      dup2\n      add\n        /* \"#utility.yul\":5455:5475   */\n      dup6\n      add\n      swap2\n        /* \"#utility.yul\":5420:5432   */\n      dup6\n      dup2\n      add\n      swap1\n        /* \"#utility.yul\":5487:5506   */\n      dup11\n      dup5\n      gt\n        /* \"#utility.yul\":5484:5523   */\n      iszero\n      tag_446\n      jumpi\n        /* \"#utility.yul\":5519:5520   */\n      0x00\n        /* \"#utility.yul\":5516:5517   */\n      dup1\n        /* \"#utility.yul\":5509:5521   */\n      revert\n        /* \"#utility.yul\":5484:5523   */\n    tag_446:\n        /* \"#utility.yul\":5551:5553   */\n      dup7\n        /* \"#utility.yul\":5547:5549   */\n      dup7\n        /* \"#utility.yul\":5543:5554   */\n      add\n        /* \"#utility.yul\":5532:5554   */\n      swap3\n      pop\n        /* \"#utility.yul\":5563:5916   */\n    tag_447:\n        /* \"#utility.yul\":5579:5585   */\n      dup4\n        /* \"#utility.yul\":5574:5577   */\n      dup4\n        /* \"#utility.yul\":5571:5586   */\n      lt\n        /* \"#utility.yul\":5563:5916   */\n      iszero\n      tag_449\n      jumpi\n        /* \"#utility.yul\":5665:5668   */\n      dup3\n        /* \"#utility.yul\":5652:5669   */\n      calldataload\n        /* \"#utility.yul\":5701:5703   */\n      dup6\n        /* \"#utility.yul\":5688:5699   */\n      dup2\n        /* \"#utility.yul\":5685:5704   */\n      gt\n        /* \"#utility.yul\":5682:5791   */\n      iszero\n      tag_450\n      jumpi\n        /* \"#utility.yul\":5745:5746   */\n      0x00\n        /* \"#utility.yul\":5774:5776   */\n      dup1\n        /* \"#utility.yul\":5770:5772   */\n      dup2\n        /* \"#utility.yul\":5763:5777   */\n      revert\n        /* \"#utility.yul\":5682:5791   */\n    tag_450:\n        /* \"#utility.yul\":5816:5873   */\n      tag_451\n        /* \"#utility.yul\":5865:5872   */\n      dup13\n        /* \"#utility.yul\":5860:5862   */\n      dup10\n        /* \"#utility.yul\":5846:5857   */\n      dup4\n        /* \"#utility.yul\":5842:5844   */\n      dup11\n        /* \"#utility.yul\":5838:5858   */\n      add\n        /* \"#utility.yul\":5834:5863   */\n      add\n        /* \"#utility.yul\":5816:5873   */\n      tag_382\n      jump\t// in\n    tag_451:\n        /* \"#utility.yul\":5804:5874   */\n      dup4\n      mstore\n      pop\n        /* \"#utility.yul\":5596:5608   */\n      swap2\n      dup7\n      add\n      swap2\n        /* \"#utility.yul\":5894:5906   */\n      swap1\n      dup7\n      add\n      swap1\n        /* \"#utility.yul\":5563:5916   */\n      jump(tag_447)\n    tag_449:\n        /* \"#utility.yul\":5935:5940   */\n      dup1\n        /* \"#utility.yul\":5925:5940   */\n      swap8\n      pop\n      pop\n      pop\n      pop\n      pop\n      pop\n      pop\n      pop\n        /* \"#utility.yul\":4705:5946   */\n      swap3\n      pop\n      swap3\n      swap1\n      pop\n      jump\t// out\n        /* \"#utility.yul\":5951:6754   */\n    tag_94:\n        /* \"#utility.yul\":6113:6117   */\n      0x00\n        /* \"#utility.yul\":6142:6144   */\n      0x20\n        /* \"#utility.yul\":6182:6184   */\n      dup1\n        /* \"#utility.yul\":6171:6180   */\n      dup4\n        /* \"#utility.yul\":6167:6185   */\n      add\n        /* \"#utility.yul\":6212:6214   */\n      dup2\n        /* \"#utility.yul\":6201:6210   */\n      dup5\n        /* \"#utility.yul\":6194:6215   */\n      mstore\n        /* \"#utility.yul\":6235:6241   */\n      dup1\n        /* \"#utility.yul\":6270:6276   */\n      dup6\n        /* \"#utility.yul\":6264:6277   */\n      mload\n        /* \"#utility.yul\":6301:6307   */\n      dup1\n        /* \"#utility.yul\":6293:6299   */\n      dup4\n        /* \"#utility.yul\":6286:6308   */\n      mstore\n        /* \"#utility.yul\":6339:6341   */\n      0x40\n        /* \"#utility.yul\":6328:6337   */\n      dup7\n        /* \"#utility.yul\":6324:6342   */\n      add\n        /* \"#utility.yul\":6317:6342   */\n      swap2\n      pop\n        /* \"#utility.yul\":6401:6403   */\n      0x40\n        /* \"#utility.yul\":6391:6397   */\n      dup2\n        /* \"#utility.yul\":6388:6389   */\n      0x05\n        /* \"#utility.yul\":6384:6398   */\n      shl\n        /* \"#utility.yul\":6373:6382   */\n      dup8\n        /* \"#utility.yul\":6369:6399   */\n      add\n        /* \"#utility.yul\":6365:6404   */\n      add\n        /* \"#utility.yul\":6351:6404   */\n      swap3\n      pop\n        /* \"#utility.yul\":6439:6441   */\n      dup4\n        /* \"#utility.yul\":6431:6437   */\n      dup8\n        /* \"#utility.yul\":6427:6442   */\n      add\n        /* \"#utility.yul\":6460:6461   */\n      0x00\n        /* \"#utility.yul\":6470:6725   */\n    tag_453:\n        /* \"#utility.yul\":6484:6490   */\n      dup3\n        /* \"#utility.yul\":6481:6482   */\n      dup2\n        /* \"#utility.yul\":6478:6491   */\n      lt\n        /* \"#utility.yul\":6470:6725   */\n      iszero\n      tag_455\n      jumpi\n        /* \"#utility.yul\":6577:6579   */\n      0x3f\n        /* \"#utility.yul\":6573:6580   */\n      not\n        /* \"#utility.yul\":6561:6570   */\n      dup9\n        /* \"#utility.yul\":6553:6559   */\n      dup7\n        /* \"#utility.yul\":6549:6571   */\n      sub\n        /* \"#utility.yul\":6545:6581   */\n      add\n        /* \"#utility.yul\":6540:6543   */\n      dup5\n        /* \"#utility.yul\":6533:6582   */\n      mstore\n        /* \"#utility.yul\":6605:6645   */\n      tag_456\n        /* \"#utility.yul\":6638:6644   */\n      dup6\n        /* \"#utility.yul\":6629:6635   */\n      dup4\n        /* \"#utility.yul\":6623:6636   */\n      mload\n        /* \"#utility.yul\":6605:6645   */\n      tag_384\n      jump\t// in\n    tag_456:\n        /* \"#utility.yul\":6595:6645   */\n      swap5\n      pop\n        /* \"#utility.yul\":6703:6715   */\n      swap3\n      dup6\n      add\n      swap3\n        /* \"#utility.yul\":6668:6683   */\n      swap1\n      dup6\n      add\n      swap1\n        /* \"#utility.yul\":6506:6507   */\n      0x01\n        /* \"#utility.yul\":6499:6508   */\n      add\n        /* \"#utility.yul\":6470:6725   */\n      jump(tag_453)\n    tag_455:\n      pop\n        /* \"#utility.yul\":6742:6748   */\n      swap3\n      swap8\n        /* \"#utility.yul\":5951:6754   */\n      swap7\n      pop\n      pop\n      pop\n      pop\n      pop\n      pop\n      pop\n      jump\t// out\n        /* \"#utility.yul\":6759:7808   */\n    tag_99:\n        /* \"#utility.yul\":7021:7025   */\n      0x00\n        /* \"#utility.yul\":7069:7072   */\n      0xa0\n        /* \"#utility.yul\":7058:7067   */\n      dup3\n        /* \"#utility.yul\":7054:7073   */\n      add\n        /* \"#utility.yul\":7114:7120   */\n      dup8\n        /* \"#utility.yul\":7107:7121   */\n      iszero\n        /* \"#utility.yul\":7100:7122   */\n      iszero\n        /* \"#utility.yul\":7089:7098   */\n      dup4\n        /* \"#utility.yul\":7082:7123   */\n      mstore\n        /* \"#utility.yul\":7142:7144   */\n      0x20\n        /* \"#utility.yul\":7180:7183   */\n      0xa0\n        /* \"#utility.yul\":7175:7177   */\n      dup2\n        /* \"#utility.yul\":7164:7173   */\n      dup6\n        /* \"#utility.yul\":7160:7178   */\n      add\n        /* \"#utility.yul\":7153:7184   */\n      mstore\n        /* \"#utility.yul\":7204:7210   */\n      dup2\n        /* \"#utility.yul\":7239:7245   */\n      dup9\n        /* \"#utility.yul\":7233:7246   */\n      mload\n        /* \"#utility.yul\":7270:7276   */\n      dup1\n        /* \"#utility.yul\":7262:7268   */\n      dup5\n        /* \"#utility.yul\":7255:7277   */\n      mstore\n        /* \"#utility.yul\":7308:7311   */\n      0xc0\n        /* \"#utility.yul\":7297:7306   */\n      dup7\n        /* \"#utility.yul\":7293:7312   */\n      add\n        /* \"#utility.yul\":7286:7312   */\n      swap2\n      pop\n        /* \"#utility.yul\":7347:7349   */\n      dup3\n        /* \"#utility.yul\":7339:7345   */\n      dup11\n        /* \"#utility.yul\":7335:7350   */\n      add\n        /* \"#utility.yul\":7321:7350   */\n      swap4\n      pop\n        /* \"#utility.yul\":7368:7369   */\n      0x00\n        /* \"#utility.yul\":7378:7596   */\n    tag_458:\n        /* \"#utility.yul\":7392:7398   */\n      dup2\n        /* \"#utility.yul\":7389:7390   */\n      dup2\n        /* \"#utility.yul\":7386:7399   */\n      lt\n        /* \"#utility.yul\":7378:7596   */\n      iszero\n      tag_460\n      jumpi\n        /* \"#utility.yul\":7457:7470   */\n      dup5\n      mload\n      sub(shl(0xa0, 0x01), 0x01)\n        /* \"#utility.yul\":7453:7515   */\n      and\n        /* \"#utility.yul\":7441:7516   */\n      dup4\n      mstore\n        /* \"#utility.yul\":7571:7586   */\n      swap4\n      dup4\n      add\n      swap4\n        /* \"#utility.yul\":7536:7548   */\n      swap2\n      dup4\n      add\n      swap2\n        /* \"#utility.yul\":7414:7415   */\n      0x01\n        /* \"#utility.yul\":7407:7416   */\n      add\n        /* \"#utility.yul\":7378:7596   */\n      jump(tag_458)\n    tag_460:\n        /* \"#utility.yul\":7382:7385   */\n      pop\n      pop\n        /* \"#utility.yul\":7632:7638   */\n      dup8\n        /* \"#utility.yul\":7627:7629   */\n      0x40\n        /* \"#utility.yul\":7616:7625   */\n      dup7\n        /* \"#utility.yul\":7612:7630   */\n      add\n        /* \"#utility.yul\":7605:7639   */\n      mstore\n        /* \"#utility.yul\":7689:7695   */\n      dup7\n        /* \"#utility.yul\":7682:7696   */\n      iszero\n        /* \"#utility.yul\":7675:7697   */\n      iszero\n        /* \"#utility.yul\":7670:7672   */\n      0x60\n        /* \"#utility.yul\":7659:7668   */\n      dup7\n        /* \"#utility.yul\":7655:7673   */\n      add\n        /* \"#utility.yul\":7648:7698   */\n      mstore\n        /* \"#utility.yul\":7744:7753   */\n      dup5\n        /* \"#utility.yul\":7739:7742   */\n      dup2\n        /* \"#utility.yul\":7735:7754   */\n      sub\n        /* \"#utility.yul\":7729:7732   */\n      0x80\n        /* \"#utility.yul\":7718:7727   */\n      dup7\n        /* \"#utility.yul\":7714:7733   */\n      add\n        /* \"#utility.yul\":7707:7755   */\n      mstore\n        /* \"#utility.yul\":7772:7802   */\n      tag_461\n        /* \"#utility.yul\":7798:7801   */\n      dup2\n        /* \"#utility.yul\":7790:7796   */\n      dup8\n        /* \"#utility.yul\":7772:7802   */\n      tag_384\n      jump\t// in\n    tag_461:\n        /* \"#utility.yul\":7764:7802   */\n      swap11\n        /* \"#utility.yul\":6759:7808   */\n      swap10\n      pop\n      pop\n      pop\n      pop\n      pop\n      pop\n      pop\n      pop\n      pop\n      pop\n      jump\t// out\n        /* \"#utility.yul\":7813:7940   */\n    tag_385:\n        /* \"#utility.yul\":7874:7884   */\n      0x4e487b71\n        /* \"#utility.yul\":7869:7872   */\n      0xe0\n        /* \"#utility.yul\":7865:7885   */\n      shl\n        /* \"#utility.yul\":7862:7863   */\n      0x00\n        /* \"#utility.yul\":7855:7886   */\n      mstore\n        /* \"#utility.yul\":7905:7909   */\n      0x11\n        /* \"#utility.yul\":7902:7903   */\n      0x04\n        /* \"#utility.yul\":7895:7910   */\n      mstore\n        /* \"#utility.yul\":7929:7933   */\n      0x24\n        /* \"#utility.yul\":7926:7927   */\n      0x00\n        /* \"#utility.yul\":7919:7934   */\n      revert\n        /* \"#utility.yul\":7945:8073   */\n    tag_106:\n        /* \"#utility.yul\":8012:8021   */\n      dup2\n      dup2\n      sub\n        /* \"#utility.yul\":8033:8044   */\n      dup2\n      dup2\n      gt\n        /* \"#utility.yul\":8030:8067   */\n      iszero\n      tag_122\n      jumpi\n        /* \"#utility.yul\":8047:8065   */\n      tag_122\n      tag_385\n      jump\t// in\n        /* \"#utility.yul\":8828:9208   */\n    tag_177:\n        /* \"#utility.yul\":8907:8908   */\n      0x01\n        /* \"#utility.yul\":8903:8915   */\n      dup2\n      dup2\n      shr\n      swap1\n        /* \"#utility.yul\":8950:8962   */\n      dup3\n      and\n      dup1\n        /* \"#utility.yul\":8971:9032   */\n      tag_469\n      jumpi\n        /* \"#utility.yul\":9025:9029   */\n      0x7f\n        /* \"#utility.yul\":9017:9023   */\n      dup3\n        /* \"#utility.yul\":9013:9030   */\n      and\n        /* \"#utility.yul\":9003:9030   */\n      swap2\n      pop\n        /* \"#utility.yul\":8971:9032   */\n    tag_469:\n        /* \"#utility.yul\":9078:9080   */\n      0x20\n        /* \"#utility.yul\":9070:9076   */\n      dup3\n        /* \"#utility.yul\":9067:9081   */\n      lt\n        /* \"#utility.yul\":9047:9065   */\n      dup2\n        /* \"#utility.yul\":9044:9082   */\n      sub\n        /* \"#utility.yul\":9041:9202   */\n      tag_470\n      jumpi\n        /* \"#utility.yul\":9124:9134   */\n      0x4e487b71\n        /* \"#utility.yul\":9119:9122   */\n      0xe0\n        /* \"#utility.yul\":9115:9135   */\n      shl\n        /* \"#utility.yul\":9112:9113   */\n      0x00\n        /* \"#utility.yul\":9105:9136   */\n      mstore\n        /* \"#utility.yul\":9159:9163   */\n      0x22\n        /* \"#utility.yul\":9156:9157   */\n      0x04\n        /* \"#utility.yul\":9149:9164   */\n      mstore\n        /* \"#utility.yul\":9187:9191   */\n      0x24\n        /* \"#utility.yul\":9184:9185   */\n      0x00\n        /* \"#utility.yul\":9177:9192   */\n      revert\n        /* \"#utility.yul\":9041:9202   */\n    tag_470:\n      pop\n        /* \"#utility.yul\":8828:9208   */\n      swap2\n      swap1\n      pop\n      jump\t// out\n        /* \"#utility.yul\":9339:9884   */\n    tag_387:\n        /* \"#utility.yul\":9441:9443   */\n      0x1f\n        /* \"#utility.yul\":9436:9439   */\n      dup3\n        /* \"#utility.yul\":9433:9444   */\n      gt\n        /* \"#utility.yul\":9430:9878   */\n      iszero\n      tag_140\n      jumpi\n        /* \"#utility.yul\":9477:9478   */\n      0x00\n        /* \"#utility.yul\":9502:9507   */\n      dup2\n        /* \"#utility.yul\":9498:9500   */\n      dup2\n        /* \"#utility.yul\":9491:9508   */\n      mstore\n        /* \"#utility.yul\":9547:9551   */\n      0x20\n        /* \"#utility.yul\":9543:9545   */\n      dup2\n        /* \"#utility.yul\":9533:9552   */\n      keccak256\n        /* \"#utility.yul\":9617:9619   */\n      0x1f\n        /* \"#utility.yul\":9605:9615   */\n      dup6\n        /* \"#utility.yul\":9601:9620   */\n      add\n        /* \"#utility.yul\":9598:9599   */\n      0x05\n        /* \"#utility.yul\":9594:9621   */\n      shr\n        /* \"#utility.yul\":9588:9592   */\n      dup2\n        /* \"#utility.yul\":9584:9622   */\n      add\n        /* \"#utility.yul\":9653:9657   */\n      0x20\n        /* \"#utility.yul\":9641:9651   */\n      dup7\n        /* \"#utility.yul\":9638:9658   */\n      lt\n        /* \"#utility.yul\":9635:9682   */\n      iszero\n      tag_474\n      jumpi\n      pop\n        /* \"#utility.yul\":9676:9680   */\n      dup1\n        /* \"#utility.yul\":9635:9682   */\n    tag_474:\n        /* \"#utility.yul\":9731:9733   */\n      0x1f\n        /* \"#utility.yul\":9726:9729   */\n      dup6\n        /* \"#utility.yul\":9722:9734   */\n      add\n        /* \"#utility.yul\":9719:9720   */\n      0x05\n        /* \"#utility.yul\":9715:9735   */\n      shr\n        /* \"#utility.yul\":9709:9713   */\n      dup3\n        /* \"#utility.yul\":9705:9736   */\n      add\n        /* \"#utility.yul\":9695:9736   */\n      swap2\n      pop\n        /* \"#utility.yul\":9786:9868   */\n    tag_475:\n        /* \"#utility.yul\":9804:9806   */\n      dup2\n        /* \"#utility.yul\":9797:9802   */\n      dup2\n        /* \"#utility.yul\":9794:9807   */\n      lt\n        /* \"#utility.yul\":9786:9868   */\n      iszero\n      tag_477\n      jumpi\n        /* \"#utility.yul\":9849:9866   */\n      dup3\n      dup2\n      sstore\n        /* \"#utility.yul\":9830:9831   */\n      0x01\n        /* \"#utility.yul\":9819:9832   */\n      add\n        /* \"#utility.yul\":9786:9868   */\n      jump(tag_475)\n    tag_477:\n        /* \"#utility.yul\":9790:9793   */\n      pop\n      pop\n      pop\n        /* \"#utility.yul\":9339:9884   */\n      pop\n      pop\n      pop\n      jump\t// out\n        /* \"#utility.yul\":10060:11412   */\n    tag_125:\n        /* \"#utility.yul\":10186:10189   */\n      dup2\n        /* \"#utility.yul\":10180:10190   */\n      mload\n        /* \"#utility.yul\":10213:10231   */\n      0xffffffffffffffff\n        /* \"#utility.yul\":10205:10211   */\n      dup2\n        /* \"#utility.yul\":10202:10232   */\n      gt\n        /* \"#utility.yul\":10199:10255   */\n      iszero\n      tag_481\n      jumpi\n        /* \"#utility.yul\":10235:10253   */\n      tag_481\n      tag_152\n      jump\t// in\n    tag_481:\n        /* \"#utility.yul\":10264:10361   */\n      tag_482\n        /* \"#utility.yul\":10354:10360   */\n      dup2\n        /* \"#utility.yul\":10314:10352   */\n      tag_483\n        /* \"#utility.yul\":10346:10350   */\n      dup5\n        /* \"#utility.yul\":10340:10351   */\n      sload\n        /* \"#utility.yul\":10314:10352   */\n      tag_177\n      jump\t// in\n    tag_483:\n        /* \"#utility.yul\":10308:10312   */\n      dup5\n        /* \"#utility.yul\":10264:10361   */\n      tag_387\n      jump\t// in\n    tag_482:\n        /* \"#utility.yul\":10416:10420   */\n      0x20\n      dup1\n        /* \"#utility.yul\":10480:10482   */\n      0x1f\n        /* \"#utility.yul\":10469:10483   */\n      dup4\n      gt\n        /* \"#utility.yul\":10497:10498   */\n      0x01\n        /* \"#utility.yul\":10492:11155   */\n      dup2\n      eq\n      tag_485\n      jumpi\n        /* \"#utility.yul\":11199:11200   */\n      0x00\n        /* \"#utility.yul\":11216:11222   */\n      dup5\n        /* \"#utility.yul\":11213:11302   */\n      iszero\n      tag_486\n      jumpi\n      pop\n        /* \"#utility.yul\":11268:11287   */\n      dup6\n      dup4\n      add\n        /* \"#utility.yul\":11262:11288   */\n      mload\n        /* \"#utility.yul\":11213:11302   */\n    tag_486:\n      not(0x00)\n        /* \"#utility.yul\":10017:10018   */\n      0x03\n        /* \"#utility.yul\":10013:10024   */\n      dup7\n      swap1\n      shl\n        /* \"#utility.yul\":10009:10033   */\n      shr\n        /* \"#utility.yul\":10005:10034   */\n      not\n        /* \"#utility.yul\":9995:10035   */\n      and\n        /* \"#utility.yul\":10041:10042   */\n      0x01\n        /* \"#utility.yul\":10037:10048   */\n      dup6\n      swap1\n      shl\n        /* \"#utility.yul\":9992:10049   */\n      or\n        /* \"#utility.yul\":11315:11396   */\n      dup6\n      sstore\n        /* \"#utility.yul\":10462:11406   */\n      jump(tag_477)\n        /* \"#utility.yul\":10492:11155   */\n    tag_485:\n        /* \"#utility.yul\":9286:9287   */\n      0x00\n        /* \"#utility.yul\":9279:9293   */\n      dup6\n      dup2\n      mstore\n        /* \"#utility.yul\":9323:9327   */\n      0x20\n        /* \"#utility.yul\":9310:9328   */\n      dup2\n      keccak256\n      not(0x1f)\n        /* \"#utility.yul\":10528:10548   */\n      dup7\n      and\n      swap2\n        /* \"#utility.yul\":10646:10882   */\n    tag_489:\n        /* \"#utility.yul\":10660:10667   */\n      dup3\n        /* \"#utility.yul\":10657:10658   */\n      dup2\n        /* \"#utility.yul\":10654:10668   */\n      lt\n        /* \"#utility.yul\":10646:10882   */\n      iszero\n      tag_491\n      jumpi\n        /* \"#utility.yul\":10749:10768   */\n      dup9\n      dup7\n      add\n        /* \"#utility.yul\":10743:10769   */\n      mload\n        /* \"#utility.yul\":10728:10770   */\n      dup3\n      sstore\n        /* \"#utility.yul\":10841:10868   */\n      swap5\n      dup5\n      add\n      swap5\n        /* \"#utility.yul\":10809:10810   */\n      0x01\n        /* \"#utility.yul\":10797:10811   */\n      swap1\n      swap2\n      add\n      swap1\n        /* \"#utility.yul\":10676:10695   */\n      dup5\n      add\n        /* \"#utility.yul\":10646:10882   */\n      jump(tag_489)\n    tag_491:\n        /* \"#utility.yul\":10650:10653   */\n      pop\n        /* \"#utility.yul\":10910:10916   */\n      dup6\n        /* \"#utility.yul\":10901:10908   */\n      dup3\n        /* \"#utility.yul\":10898:10917   */\n      lt\n        /* \"#utility.yul\":10895:11096   */\n      iszero\n      tag_492\n      jumpi\n        /* \"#utility.yul\":10971:10990   */\n      dup8\n      dup6\n      add\n        /* \"#utility.yul\":10965:10991   */\n      mload\n      not(0x00)\n        /* \"#utility.yul\":11054:11055   */\n      0x03\n        /* \"#utility.yul\":11050:11064   */\n      dup9\n      swap1\n      shl\n        /* \"#utility.yul\":11066:11069   */\n      0xf8\n        /* \"#utility.yul\":11046:11070   */\n      and\n        /* \"#utility.yul\":11042:11079   */\n      shr\n        /* \"#utility.yul\":11038:11080   */\n      not\n        /* \"#utility.yul\":11023:11081   */\n      and\n        /* \"#utility.yul\":11008:11082   */\n      dup2\n      sstore\n        /* \"#utility.yul\":10895:11096   */\n    tag_492:\n      pop\n      pop\n      pop\n      pop\n      pop\n        /* \"#utility.yul\":11142:11143   */\n      0x01\n        /* \"#utility.yul\":11126:11140   */\n      swap1\n      dup2\n      shl\n        /* \"#utility.yul\":11122:11144   */\n      add\n        /* \"#utility.yul\":11109:11145   */\n      swap1\n      sstore\n      pop\n        /* \"#utility.yul\":10060:11412   */\n      jump\t// out\n        /* \"#utility.yul\":12129:12256   */\n    tag_144:\n        /* \"#utility.yul\":12190:12200   */\n      0x4e487b71\n        /* \"#utility.yul\":12185:12188   */\n      0xe0\n        /* \"#utility.yul\":12181:12201   */\n      shl\n        /* \"#utility.yul\":12178:12179   */\n      0x00\n        /* \"#utility.yul\":12171:12202   */\n      mstore\n        /* \"#utility.yul\":12221:12225   */\n      0x32\n        /* \"#utility.yul\":12218:12219   */\n      0x04\n        /* \"#utility.yul\":12211:12226   */\n      mstore\n        /* \"#utility.yul\":12245:12249   */\n      0x24\n        /* \"#utility.yul\":12242:12243   */\n      0x00\n        /* \"#utility.yul\":12235:12250   */\n      revert\n        /* \"#utility.yul\":12616:12751   */\n    tag_159:\n        /* \"#utility.yul\":12655:12658   */\n      0x00\n        /* \"#utility.yul\":12676:12693   */\n      0x01\n      dup3\n      add\n        /* \"#utility.yul\":12673:12716   */\n      tag_499\n      jumpi\n        /* \"#utility.yul\":12696:12714   */\n      tag_499\n      tag_385\n      jump\t// in\n    tag_499:\n      pop\n        /* \"#utility.yul\":12743:12744   */\n      0x01\n        /* \"#utility.yul\":12732:12745   */\n      add\n      swap1\n        /* \"#utility.yul\":12616:12751   */\n      jump\t// out\n        /* \"#utility.yul\":13106:13395   */\n    tag_195:\n        /* \"#utility.yul\":13237:13240   */\n      0x00\n        /* \"#utility.yul\":13275:13281   */\n      dup3\n        /* \"#utility.yul\":13269:13282   */\n      mload\n        /* \"#utility.yul\":13291:13357   */\n      tag_502\n        /* \"#utility.yul\":13350:13356   */\n      dup2\n        /* \"#utility.yul\":13345:13348   */\n      dup5\n        /* \"#utility.yul\":13338:13342   */\n      0x20\n        /* \"#utility.yul\":13330:13336   */\n      dup8\n        /* \"#utility.yul\":13326:13343   */\n      add\n        /* \"#utility.yul\":13291:13357   */\n      tag_383\n      jump\t// in\n    tag_502:\n        /* \"#utility.yul\":13373:13389   */\n      swap2\n      swap1\n      swap2\n      add\n      swap3\n        /* \"#utility.yul\":13106:13395   */\n      swap2\n      pop\n      pop\n      jump\t// out\n        /* \"#utility.yul\":13400:14242   */\n    tag_200:\n        /* \"#utility.yul\":13528:13531   */\n      0x00\n        /* \"#utility.yul\":13557:13558   */\n      dup1\n        /* \"#utility.yul\":13590:13596   */\n      dup4\n        /* \"#utility.yul\":13584:13597   */\n      sload\n        /* \"#utility.yul\":13620:13656   */\n      tag_504\n        /* \"#utility.yul\":13646:13655   */\n      dup2\n        /* \"#utility.yul\":13620:13656   */\n      tag_177\n      jump\t// in\n    tag_504:\n        /* \"#utility.yul\":13675:13676   */\n      0x01\n        /* \"#utility.yul\":13692:13710   */\n      dup3\n      dup2\n      and\n        /* \"#utility.yul\":13719:13852   */\n      dup1\n      iszero\n      tag_506\n      jumpi\n        /* \"#utility.yul\":13866:13867   */\n      0x01\n        /* \"#utility.yul\":13861:14217   */\n      dup2\n      eq\n      tag_507\n      jumpi\n        /* \"#utility.yul\":13685:14217   */\n      jump(tag_505)\n        /* \"#utility.yul\":13719:13852   */\n    tag_506:\n      not(0xff)\n        /* \"#utility.yul\":13752:13776   */\n      dup5\n      and\n        /* \"#utility.yul\":13740:13777   */\n      dup8\n      mstore\n        /* \"#utility.yul\":13825:13839   */\n      dup3\n      iszero\n        /* \"#utility.yul\":13818:13840   */\n      iszero\n        /* \"#utility.yul\":13806:13841   */\n      dup4\n      mul\n        /* \"#utility.yul\":13797:13842   */\n      dup8\n      add\n      swap5\n      pop\n        /* \"#utility.yul\":13719:13852   */\n      jump(tag_505)\n        /* \"#utility.yul\":13861:14217   */\n    tag_507:\n        /* \"#utility.yul\":13892:13898   */\n      dup8\n        /* \"#utility.yul\":13889:13890   */\n      0x00\n        /* \"#utility.yul\":13882:13899   */\n      mstore\n        /* \"#utility.yul\":13922:13926   */\n      0x20\n        /* \"#utility.yul\":13967:13969   */\n      dup1\n        /* \"#utility.yul\":13964:13965   */\n      0x00\n        /* \"#utility.yul\":13954:13970   */\n      keccak256\n        /* \"#utility.yul\":13992:13993   */\n      0x00\n        /* \"#utility.yul\":14006:14171   */\n    tag_508:\n        /* \"#utility.yul\":14020:14026   */\n      dup6\n        /* \"#utility.yul\":14017:14018   */\n      dup2\n        /* \"#utility.yul\":14014:14027   */\n      lt\n        /* \"#utility.yul\":14006:14171   */\n      iszero\n      tag_510\n      jumpi\n        /* \"#utility.yul\":14098:14112   */\n      dup2\n      sload\n        /* \"#utility.yul\":14085:14096   */\n      dup11\n      dup3\n      add\n        /* \"#utility.yul\":14078:14113   */\n      mstore\n        /* \"#utility.yul\":14141:14157   */\n      swap1\n      dup5\n      add\n      swap1\n        /* \"#utility.yul\":14035:14045   */\n      dup3\n      add\n        /* \"#utility.yul\":14006:14171   */\n      jump(tag_508)\n    tag_510:\n        /* \"#utility.yul\":14010:14013   */\n      pop\n      pop\n      pop\n        /* \"#utility.yul\":14200:14206   */\n      dup3\n        /* \"#utility.yul\":14195:14198   */\n      dup8\n        /* \"#utility.yul\":14191:14207   */\n      add\n        /* \"#utility.yul\":14184:14207   */\n      swap5\n      pop\n        /* \"#utility.yul\":13685:14217   */\n    tag_505:\n      pop\n        /* \"#utility.yul\":14233:14236   */\n      swap3\n      swap7\n        /* \"#utility.yul\":13400:14242   */\n      swap6\n      pop\n      pop\n      pop\n      pop\n      pop\n      pop\n      jump\t// out\n        /* \"#utility.yul\":14247:15682   */\n    tag_210:\n        /* \"#utility.yul\":14366:14369   */\n      dup2\n        /* \"#utility.yul\":14360:14364   */\n      dup2\n        /* \"#utility.yul\":14357:14370   */\n      sub\n        /* \"#utility.yul\":14354:14380   */\n      tag_512\n      jumpi\n        /* \"#utility.yul\":14373:14378   */\n      pop\n      pop\n        /* \"#utility.yul\":14247:15682   */\n      jump\t// out\n        /* \"#utility.yul\":14354:14380   */\n    tag_512:\n        /* \"#utility.yul\":14403:14440   */\n      tag_513\n        /* \"#utility.yul\":14435:14438   */\n      dup3\n        /* \"#utility.yul\":14429:14439   */\n      sload\n        /* \"#utility.yul\":14403:14440   */\n      tag_177\n      jump\t// in\n    tag_513:\n        /* \"#utility.yul\":14463:14481   */\n      0xffffffffffffffff\n        /* \"#utility.yul\":14455:14461   */\n      dup2\n        /* \"#utility.yul\":14452:14482   */\n      gt\n        /* \"#utility.yul\":14449:14505   */\n      iszero\n      tag_515\n      jumpi\n        /* \"#utility.yul\":14485:14503   */\n      tag_515\n      tag_152\n      jump\t// in\n    tag_515:\n        /* \"#utility.yul\":14514:14611   */\n      tag_516\n        /* \"#utility.yul\":14604:14610   */\n      dup2\n        /* \"#utility.yul\":14564:14602   */\n      tag_483\n        /* \"#utility.yul\":14596:14600   */\n      dup5\n        /* \"#utility.yul\":14590:14601   */\n      sload\n        /* \"#utility.yul\":14564:14602   */\n      tag_177\n      jump\t// in\n        /* \"#utility.yul\":14514:14611   */\n    tag_516:\n        /* \"#utility.yul\":14637:14638   */\n      0x00\n        /* \"#utility.yul\":14665:14667   */\n      0x1f\n        /* \"#utility.yul\":14657:14663   */\n      dup3\n        /* \"#utility.yul\":14654:14668   */\n      gt\n        /* \"#utility.yul\":14682:14683   */\n      0x01\n        /* \"#utility.yul\":14677:15425   */\n      dup2\n      eq\n      tag_519\n      jumpi\n        /* \"#utility.yul\":15469:15470   */\n      0x00\n        /* \"#utility.yul\":15486:15492   */\n      dup4\n        /* \"#utility.yul\":15483:15572   */\n      iszero\n      tag_520\n      jumpi\n      pop\n        /* \"#utility.yul\":15538:15557   */\n      dup5\n      dup3\n      add\n        /* \"#utility.yul\":15532:15558   */\n      sload\n        /* \"#utility.yul\":15483:15572   */\n    tag_520:\n      not(0x00)\n        /* \"#utility.yul\":10017:10018   */\n      0x03\n        /* \"#utility.yul\":10013:10024   */\n      dup6\n      swap1\n      shl\n        /* \"#utility.yul\":10009:10033   */\n      shr\n        /* \"#utility.yul\":10005:10034   */\n      not\n        /* \"#utility.yul\":9995:10035   */\n      and\n        /* \"#utility.yul\":10041:10042   */\n      0x01\n        /* \"#utility.yul\":10037:10048   */\n      dup5\n      swap1\n      shl\n        /* \"#utility.yul\":9992:10049   */\n      or\n        /* \"#utility.yul\":15585:15666   */\n      dup5\n      sstore\n        /* \"#utility.yul\":14647:15676   */\n      jump(tag_518)\n        /* \"#utility.yul\":14677:15425   */\n    tag_519:\n        /* \"#utility.yul\":9286:9287   */\n      0x00\n        /* \"#utility.yul\":9279:9293   */\n      dup6\n      dup2\n      mstore\n        /* \"#utility.yul\":9323:9327   */\n      0x20\n        /* \"#utility.yul\":9310:9328   */\n      swap1\n      keccak256\n      not(0x1f)\n        /* \"#utility.yul\":14713:14733   */\n      dup5\n      and\n      swap1\n        /* \"#utility.yul\":9286:9287   */\n      0x00\n        /* \"#utility.yul\":9279:9293   */\n      dup7\n      dup2\n      mstore\n        /* \"#utility.yul\":9323:9327   */\n      0x20\n        /* \"#utility.yul\":9310:9328   */\n      swap1\n      keccak256\n        /* \"#utility.yul\":14877:14886   */\n      dup5\n        /* \"#utility.yul\":14899:15150   */\n    tag_524:\n        /* \"#utility.yul\":14913:14920   */\n      dup4\n        /* \"#utility.yul\":14910:14911   */\n      dup2\n        /* \"#utility.yul\":14907:14921   */\n      lt\n        /* \"#utility.yul\":14899:15150   */\n      iszero\n      tag_526\n      jumpi\n        /* \"#utility.yul\":14995:15016   */\n      dup3\n      dup7\n      add\n        /* \"#utility.yul\":14989:15017   */\n      sload\n        /* \"#utility.yul\":14974:15018   */\n      dup3\n      sstore\n        /* \"#utility.yul\":15045:15046   */\n      0x01\n        /* \"#utility.yul\":15118:15136   */\n      swap6\n      dup7\n      add\n      swap6\n        /* \"#utility.yul\":15073:15088   */\n      swap1\n      swap2\n      add\n      swap1\n        /* \"#utility.yul\":14936:14940   */\n      0x20\n        /* \"#utility.yul\":14929:14941   */\n      add\n        /* \"#utility.yul\":14899:15150   */\n      jump(tag_524)\n    tag_526:\n        /* \"#utility.yul\":14903:14906   */\n      pop\n        /* \"#utility.yul\":15178:15184   */\n      dup6\n        /* \"#utility.yul\":15169:15176   */\n      dup4\n        /* \"#utility.yul\":15166:15185   */\n      lt\n        /* \"#utility.yul\":15163:15366   */\n      iszero\n      tag_527\n      jumpi\n        /* \"#utility.yul\":15239:15260   */\n      dup2\n      dup6\n      add\n        /* \"#utility.yul\":15233:15261   */\n      sload\n      not(0x00)\n        /* \"#utility.yul\":15324:15325   */\n      0x03\n        /* \"#utility.yul\":15320:15334   */\n      dup9\n      swap1\n      shl\n        /* \"#utility.yul\":15336:15339   */\n      0xf8\n        /* \"#utility.yul\":15316:15340   */\n      and\n        /* \"#utility.yul\":15312:15349   */\n      shr\n        /* \"#utility.yul\":15308:15350   */\n      not\n        /* \"#utility.yul\":15293:15351   */\n      and\n        /* \"#utility.yul\":15278:15352   */\n      dup2\n      sstore\n        /* \"#utility.yul\":15163:15366   */\n    tag_527:\n      pop\n      pop\n      pop\n        /* \"#utility.yul\":15412:15413   */\n      0x01\n        /* \"#utility.yul\":15403:15409   */\n      dup4\n        /* \"#utility.yul\":15400:15401   */\n      0x01\n        /* \"#utility.yul\":15396:15410   */\n      shl\n        /* \"#utility.yul\":15392:15414   */\n      add\n        /* \"#utility.yul\":15386:15390   */\n      dup5\n        /* \"#utility.yul\":15379:15415   */\n      sstore\n        /* \"#utility.yul\":14647:15676   */\n    tag_518:\n      pop\n      pop\n      pop\n        /* \"#utility.yul\":14247:15682   */\n      pop\n      pop\n      jump\t// out\n        /* \"#utility.yul\":15687:15814   */\n    tag_213:\n        /* \"#utility.yul\":15748:15758   */\n      0x4e487b71\n        /* \"#utility.yul\":15743:15746   */\n      0xe0\n        /* \"#utility.yul\":15739:15759   */\n      shl\n        /* \"#utility.yul\":15736:15737   */\n      0x00\n        /* \"#utility.yul\":15729:15760   */\n      mstore\n        /* \"#utility.yul\":15779:15783   */\n      0x31\n        /* \"#utility.yul\":15776:15777   */\n      0x04\n        /* \"#utility.yul\":15769:15784   */\n      mstore\n        /* \"#utility.yul\":15803:15807   */\n      0x24\n        /* \"#utility.yul\":15800:15801   */\n      0x00\n        /* \"#utility.yul\":15793:15808   */\n      revert\n\n    auxdata: 0xa264697066735822122087d7d96b985ac369823ccfd5a25dedb10cc36c4e5cfaa9d01ad0b5faad7b1ef964736f6c63430008110033\n}\n",
    "bytecode": {
      "linkReferences": {},
      "object": "608060405234801561001057600080fd5b50612622806100206000396000f3fe608060405234801561001057600080fd5b50600436106101515760003560e01c806387c63714116100cd578063cd9c936211610081578063df78bc5411610066578063df78bc54146102b2578063e9e6630a146102d2578063f892cb36146102f657600080fd5b8063cd9c936214610297578063d0e2892c1461029f57600080fd5b8063a98d22bc116100b2578063a98d22bc1461024e578063b83f480514610261578063b944559d1461028457600080fd5b806387c63714146102285780638d5492e41461023b57600080fd5b8063196ba7ef11610124578063590411da11610109578063590411da146101e257806359633a1c146101f55780636d7697171461020857600080fd5b8063196ba7ef146101c55780633dea2f84146101cf57600080fd5b806301e2b33f14610156578063072039a21461017c57806307a8b7671461019f578063096e27d9146101b2575b600080fd5b610169610164366004611e59565b610309565b6040519081526020015b60405180910390f35b61018f61018a366004611e59565b6103f7565b6040519015158152602001610173565b61018f6101ad366004611e59565b61048b565b61018f6101c0366004611e74565b61051b565b6101cd61054d565b005b6101cd6101dd366004611f5e565b6105af565b6101cd6101f0366004611fbc565b61068a565b6101cd610203366004611e59565b610893565b61021b610216366004611e59565b6109e1565b6040516101739190612081565b6101cd610236366004612094565b610ab6565b6101cd610249366004611e59565b610d58565b6101cd61025c366004611e59565b610e8e565b61027461026f366004611e74565b610f47565b60405161017394939291906120e2565b6101cd610292366004612094565b6110fe565b6101cd611169565b6101cd6102ad366004612115565b611377565b6102c56102c0366004611e74565b611650565b60405161017391906121eb565b6102e56102e0366004611e59565b61183d565b60405161017395949392919061224d565b61021b610304366004611e74565b611b62565b6001600160a01b038116600090815260208190526040812060030154819061033190426122df565b6001600160a01b038416600081815260208181526040918290206002810154600390910154835191825291810185905242928101929092526060820152919250907f74a7c0c2e8065fcdbfca5ae9f6cf0233e47e9e75b6fcf75674dd4b7e3f9b81839060800160405180910390a26001600160a01b03831660009081526020819052604090206002015481116103ed576001600160a01b0383166000908152602081905260409020600201546103e89082906122df565b6103f0565b60005b9392505050565b60006104028261048b565b15610464576001600160a01b0382166000908152602081905260409020600301541561046457600061043383610309565b905060008111610462576001600160a01b0383166000908152602081905260409020600401805461ff00191690555b505b506001600160a01b0316600090815260208190526040902060040154610100900460ff1690565b6001600160a01b03811660009081526020819052604081205460ff166104f85760405162461bcd60e51b815260206004820152601960248201527f42656e65666163746f7220646f6573206e6f742065786973740000000000000060448201526064015b60405180910390fd5b506001600160a01b031660009081526020819052604090206004015460ff161590565b6001600160a01b03808316600090815260208181526040808320938516835260019093019052205460ff165b92915050565b33600081815260208181526040808320805460ff1916600117815562093a80600282015560048101805461010161ffff199091161790556003810184905581518084019092528382529383529190526005909101906105ac908261237a565b50565b6105b9838361051b565b6106055760405162461bcd60e51b815260206004820181905260248201527f42656e65666963696172792f42656e65666163746f72206e6f7420666f756e6460448201526064016104ef565b6001600160a01b0380841660009081526020818152604080832093861683526001909301905220600201610639828261237a565b50816001600160a01b0316836001600160a01b03167f69ccea10852ac51b01745414774b5af302217e774786d2068296650b57ba03f28360405161067d9190612081565b60405180910390a3505050565b3360009081526020819052604090205460ff1680156106c0575033600090815260208190526040902060040154610100900460ff165b6107055760405162461bcd60e51b81526020600482015260166024820152752737ba1030903b30b634b2103132b732b330b1ba37b960511b60448201526064016104ef565b60005b8181101561088e5760008383838181106107245761072461243a565b90506020020160208101906107399190611e59565b9050610745338261051b565b156107925760405162461bcd60e51b815260206004820152601a60248201527f42656e656669636961727920616c72656164792065786973747300000000000060448201526064016104ef565b604080516060810182526001815281516000808252602082810190945291928301916107ce565b60608152602001906001900390816107b95790505b50815260408051602080820183526000808352938101919091523383528281528183206001600160a01b038616845260019081018252919092208351815460ff1916901515178155838301518051919361082d93850192910190611d62565b5060408201516002820190610842908261237a565b50506040516001600160a01b038316915033907fbb39c36a7502b7256e1a687254146a9a2ea7b146c77cb9e40eb0e2b8793781e190600090a3508061088681612450565b915050610708565b505050565b3360009081526020819052604090205460ff1680156108c9575033600090815260208190526040902060040154610100900460ff165b61090e5760405162461bcd60e51b81526020600482015260166024820152752737ba1030903b30b634b2103132b732b330b1ba37b960511b60448201526064016104ef565b610918338261051b565b61095c5760405162461bcd60e51b815260206004820152601560248201527410995b99599a58da585c9e481b9bdd08199bdd5b99605a1b60448201526064016104ef565b336000908152602081815260408083206001600160a01b038516845260019081019092528220805460ff19168155919061099890830182611db8565b6109a6600283016000611dd6565b50506040516001600160a01b0382169033907f1a6590bd0cabbfcc7c86bef99e1034054e179905cfcc294598fcd426c092244290600090a350565b60606109ed823361051b565b15610a9d576001600160a01b03821660009081526020819052604090206005018054610a18906122f2565b80601f0160208091040260200160405190810160405280929190818152602001828054610a44906122f2565b8015610a915780601f10610a6657610100808354040283529160200191610a91565b820191906000526020600020905b815481529060010190602001808311610a7457829003601f168201915b50505050509050919050565b505060408051602081019091526000815290565b919050565b3360009081526020819052604090205460ff168015610aec575033600090815260208190526040902060040154610100900460ff165b610b315760405162461bcd60e51b81526020600482015260166024820152752737ba1030903b30b634b2103132b732b330b1ba37b960511b60448201526064016104ef565b610b3b338361051b565b610b7f5760405162461bcd60e51b815260206004820152601560248201527410995b99599a58da585c9e481b9bdd08199bdd5b99605a1b60448201526064016104ef565b336000908152602081815260408083206001600160a01b03861684526001908101909252822001905b8154811015610d035782604051602001610bc29190612469565b60405160208183030381529060405280519060200120828281548110610bea57610bea61243a565b90600052602060002001604051602001610c049190612485565b6040516020818303038152906040528051906020012003610cf15781548290610c2f906001906122df565b81548110610c3f57610c3f61243a565b90600052602060002001828281548110610c5b57610c5b61243a565b906000526020600020019081610c7191906124fb565b5081805480610c8257610c826125d6565b600190038181906000526020600020016000610c9e9190611dd6565b9055836001600160a01b0316336001600160a01b03167f4c13211ce3b2d0cb3e02a662cc071d6be555042ca58d4d812b7b90e80d3250ac85604051610ce39190612081565b60405180910390a350505050565b80610cfb81612450565b915050610ba8565b5060405162461bcd60e51b8152602060048201526024808201527f434944206e6f742061737369676e656420746f20746869732062656e656669636044820152636961727960e01b60648201526084016104ef565b6001600160a01b03811660009081526020818152604080832033845260010190915290205460ff16610dcc5760405162461bcd60e51b815260206004820152601760248201527f4e6f7420612076616c69642062656e656669636961727900000000000000000060448201526064016104ef565b6001600160a01b03811660009081526020819052604090206004015460ff16610e285760405133906001600160a01b038316907f67c4731bdc193862f421e091d18f46df876bfe1b8b9aa97504f1d50d425b239d90600090a350565b6001600160a01b0381166000818152602081815260409182902060048101805460ff191690554260038201556002015491519182523392917f82595752291d0261dfb9b4b0c2307021c29c34e22fe0697b4840b529dc351bc3910160405180910390a350565b3360009081526020819052604090205460ff16610eed5760405162461bcd60e51b815260206004820152601960248201527f42656e65666163746f72206e6f7420726567697374657265640000000000000060448201526064016104ef565b33600090815260208190526040808220805460ff199081169091556001600160a01b038416835290822080549091168155600281018290556003810182905560048101805461ffff191690559061088e6005830182611dd6565b6001600160a01b0382166000908152602081905260408120548190819060609060ff16610fb65760405162461bcd60e51b815260206004820152601960248201527f42656e65666163746f7220646f6573206e6f742065786973740000000000000060448201526064016104ef565b6001600160a01b03861660009081526020819052604090206004015460ff1615935083610fe65760009250610ff2565b610fef86610309565b92505b6001600160a01b038681166000908152602081815260408083206004810154948a1684526001019091529020600201805461010090920460ff16935090611038906122f2565b80601f0160208091040260200160405190810160405280929190818152602001828054611064906122f2565b80156110b15780601f10611086576101008083540402835291602001916110b1565b820191906000526020600020905b81548152906001019060200180831161109457829003601f168201915b505050505090507f0e092c8eab045fa06eb05fe062c2d0a1721905a7ad6acb7eed9c804d956ea9fd848484846040516110ed94939291906120e2565b60405180910390a192959194509250565b6001600160a01b0382166000908152602081905260409020600501611123828261237a565b50816001600160a01b03167ff20d3ea0a54b197ec507921ed526707368e27ad44b86bf2d4b11888b7009de6b8260405161115d9190612081565b60405180910390a25050565b3360009081526020819052604090205460ff16801561119f575033600090815260208190526040902060040154610100900460ff165b6111e45760405162461bcd60e51b81526020600482015260166024820152752737ba1030903b30b634b2103132b732b330b1ba37b960511b60448201526064016104ef565b336000908152602081905260409020600301541561130e57611205336103f7565b1561129b57336001600160a01b03167f793324a6f079e577f4a4646c7ec753efd3beddc2f4ce07bfae5f105c449ac3566040516112739060208082526013908201527f42656e65666163746f7220697320616c69766500000000000000000000000000604082015260600190565b60405180910390a2611283611c42565b33600090815260208190526040902042600390910155565b336001600160a01b03167f5a68fa7d6b655a3e592d5d99ac82863424750e9d262c902f30f9e56655e7a8566040516113049060208082526012908201527f42656e65666163746f7220697320646561640000000000000000000000000000604082015260600190565b60405180910390a2565b336001600160a01b03167f793324a6f079e577f4a4646c7ec753efd3beddc2f4ce07bfae5f105c449ac3566040516112739060208082526013908201527f42656e65666163746f7220697320616c69766500000000000000000000000000604082015260600190565b3360009081526020819052604090205460ff1680156113ad575033600090815260208190526040902060040154610100900460ff165b6113f25760405162461bcd60e51b81526020600482015260166024820152752737ba1030903b30b634b2103132b732b330b1ba37b960511b60448201526064016104ef565b6113fc338361051b565b6114405760405162461bcd60e51b815260206004820152601560248201527410995b99599a58da585c9e481b9bdd08199bdd5b99605a1b60448201526064016104ef565b336000908152602081815260408083206001600160a01b03861684526001908101909252822001905b825181101561164a576000805b8354811015611521578483815181106114915761149161243a565b60200260200101516040516020016114a99190612469565b604051602081830303815290604052805190602001208482815481106114d1576114d161243a565b906000526020600020016040516020016114eb9190612485565b604051602081830303815290604052805190602001200361150f5760019150611521565b8061151981612450565b915050611476565b5080156115965760405162461bcd60e51b815260206004820152602860248201527f43494420616c72656164792061737369676e656420746f20746869732062656e60448201527f656669636961727900000000000000000000000000000000000000000000000060648201526084016104ef565b828483815181106115a9576115a961243a565b602090810291909101810151825460018101845560009384529190922001906115d2908261237a565b50846001600160a01b0316336001600160a01b03167fa1bb52b874769d5c17cde30e708e8f7180bb949f70e77caf0da68d25f9a1a51086858151811061161a5761161a61243a565b602002602001015160405161162f9190612081565b60405180910390a3508061164281612450565b915050611469565b50505050565b606061165c838361051b565b6116a05760405162461bcd60e51b815260206004820152601560248201527410995b99599a58da585c9e481b9bdd08199bdd5b99605a1b60448201526064016104ef565b6001600160a01b03831660009081526020818152604080832033845260010190915290205460ff1680156116f557506001600160a01b038316600090815260208190526040902060040154610100900460ff16155b6117415760405162461bcd60e51b815260206004820152601160248201527f4e6f2061636365737320746f204349447300000000000000000000000000000060448201526064016104ef565b6001600160a01b0380841660009081526020818152604080832093861683526001938401825280832090930180548451818402810184019095528085529092909184015b828210156118315783829060005260206000200180546117a4906122f2565b80601f01602080910402602001604051908101604052809291908181526020018280546117d0906122f2565b801561181d5780601f106117f25761010080835404028352916020019161181d565b820191906000526020600020905b81548152906001019060200180831161180057829003601f168201915b505050505081526020019060010190611785565b50505050905092915050565b6001600160a01b03811660009081526020819052604081205460609082908190839060ff166118ae5760405162461bcd60e51b815260206004820152601960248201527f42656e65666163746f7220646f6573206e6f742065786973740000000000000060448201526064016104ef565b6001600160a01b0386166000908152602081815260408083206004015460019092529091205460ff90911615955067ffffffffffffffff8111156118f4576118f4611ea7565b60405190808252806020026020018201604052801561191d578160200160208202803683370190505b5093506000805b8551811015611a26576001600160a01b0388166000908152602081815260408083206001928390529083208054929091019291849081106119675761196761243a565b60009182526020808320909101546001600160a01b0316835282019290925260400190205460ff1615611a14576001600160a01b03881660009081526001602052604090208054829081106119be576119be61243a565b9060005260206000200160009054906101000a90046001600160a01b03168683815181106119ee576119ee61243a565b6001600160a01b039092166020928302919091019091015281611a1081612450565b9250505b80611a1e81612450565b915050611924565b506001600160a01b03871660009081526020819052604090206004015460ff1615611a545760009350611a60565b611a5d87610309565b93505b6001600160a01b038716600090815260208190526040902060048101546005909101805461010090920460ff16945090611a99906122f2565b80601f0160208091040260200160405190810160405280929190818152602001828054611ac5906122f2565b8015611b125780601f10611ae757610100808354040283529160200191611b12565b820191906000526020600020905b815481529060010190602001808311611af557829003601f168201915b505050505091507f0fabe15a5563524b62ac7272583ab636d27eb845bb5deb57b32bf755c3db029b8686868686604051611b5095949392919061224d565b60405180910390a15091939590929450565b6060611b6e838361051b565b15611c2d576001600160a01b03808416600090815260208181526040808320938616835260019093019052206002018054611ba8906122f2565b80601f0160208091040260200160405190810160405280929190818152602001828054611bd4906122f2565b8015611c215780601f10611bf657610100808354040283529160200191611c21565b820191906000526020600020905b815481529060010190602001808311611c0457829003601f168201915b50505050509050610547565b50604080516020810190915260008152610547565b3360009081526020819052604090205460ff168015611c78575033600090815260208190526040902060040154610100900460ff165b611cbd5760405162461bcd60e51b81526020600482015260166024820152752737ba1030903b30b634b2103132b732b330b1ba37b960511b60448201526064016104ef565b3360009081526020819052604090206004015460ff1615611d0757604051339081907f439c5aaf7691cb4808dbd2a240323ce9ec0d04d66ddf65ffd5f88ebd60fa745b90600090a3565b3360008181526020819052604090819020600401805460ff191660011790555181907f9baa855d20de9b1a4db454f55b09d1db5f42f0871bbea3b0c699146ade17162590611d589042815260200190565b60405180910390a3565b828054828255906000526020600020908101928215611da8579160200282015b82811115611da85782518290611d98908261237a565b5091602001919060010190611d82565b50611db4929150611e10565b5090565b50805460008255906000526020600020908101906105ac9190611e10565b508054611de2906122f2565b6000825580601f10611df2575050565b601f0160209004906000526020600020908101906105ac9190611e2d565b80821115611db4576000611e248282611dd6565b50600101611e10565b5b80821115611db45760008155600101611e2e565b80356001600160a01b0381168114610ab157600080fd5b600060208284031215611e6b57600080fd5b6103f082611e42565b60008060408385031215611e8757600080fd5b611e9083611e42565b9150611e9e60208401611e42565b90509250929050565b634e487b7160e01b600052604160045260246000fd5b604051601f8201601f1916810167ffffffffffffffff81118282101715611ee657611ee6611ea7565b604052919050565b600082601f830112611eff57600080fd5b813567ffffffffffffffff811115611f1957611f19611ea7565b611f2c601f8201601f1916602001611ebd565b818152846020838601011115611f4157600080fd5b816020850160208301376000918101602001919091529392505050565b600080600060608486031215611f7357600080fd5b611f7c84611e42565b9250611f8a60208501611e42565b9150604084013567ffffffffffffffff811115611fa657600080fd5b611fb286828701611eee565b9150509250925092565b60008060208385031215611fcf57600080fd5b823567ffffffffffffffff80821115611fe757600080fd5b818501915085601f830112611ffb57600080fd5b81358181111561200a57600080fd5b8660208260051b850101111561201f57600080fd5b60209290920196919550909350505050565b60005b8381101561204c578181015183820152602001612034565b50506000910152565b6000815180845261206d816020860160208601612031565b601f01601f19169290920160200192915050565b6020815260006103f06020830184612055565b600080604083850312156120a757600080fd5b6120b083611e42565b9150602083013567ffffffffffffffff8111156120cc57600080fd5b6120d885828601611eee565b9150509250929050565b8415158152836020820152821515604082015260806060820152600061210b6080830184612055565b9695505050505050565b6000806040838503121561212857600080fd5b61213183611e42565b915060208084013567ffffffffffffffff8082111561214f57600080fd5b818601915086601f83011261216357600080fd5b81358181111561217557612175611ea7565b8060051b612184858201611ebd565b918252838101850191858101908a84111561219e57600080fd5b86860192505b838310156121da578235858111156121bc5760008081fd5b6121ca8c89838a0101611eee565b83525091860191908601906121a4565b809750505050505050509250929050565b6000602080830181845280855180835260408601915060408160051b870101925083870160005b8281101561224057603f1988860301845261222e858351612055565b94509285019290850190600101612212565b5092979650505050505050565b600060a082018715158352602060a08185015281885180845260c086019150828a01935060005b818110156122995784516001600160a01b031683529383019391830191600101612274565b5050876040860152861515606086015284810360808601526122bb8187612055565b9a9950505050505050505050565b634e487b7160e01b600052601160045260246000fd5b81810381811115610547576105476122c9565b600181811c9082168061230657607f821691505b60208210810361232657634e487b7160e01b600052602260045260246000fd5b50919050565b601f82111561088e57600081815260208120601f850160051c810160208610156123535750805b601f850160051c820191505b818110156123725782815560010161235f565b505050505050565b815167ffffffffffffffff81111561239457612394611ea7565b6123a8816123a284546122f2565b8461232c565b602080601f8311600181146123dd57600084156123c55750858301515b600019600386901b1c1916600185901b178555612372565b600085815260208120601f198616915b8281101561240c578886015182559484019460019091019084016123ed565b508582101561242a5787850151600019600388901b60f8161c191681555b5050505050600190811b01905550565b634e487b7160e01b600052603260045260246000fd5b600060018201612462576124626122c9565b5060010190565b6000825161247b818460208701612031565b9190910192915050565b6000808354612493816122f2565b600182811680156124ab57600181146124c0576124ef565b60ff19841687528215158302870194506124ef565b8760005260208060002060005b858110156124e65781548a8201529084019082016124cd565b50505082870194505b50929695505050505050565b818103612506575050565b61251082546122f2565b67ffffffffffffffff81111561252857612528611ea7565b612536816123a284546122f2565b6000601f82116001811461256a57600083156125525750848201545b600019600385901b1c1916600184901b1784556125cf565b600085815260209020601f19841690600086815260209020845b838110156125a45782860154825560019586019590910190602001612584565b50858310156125c25781850154600019600388901b60f8161c191681555b50505060018360011b0184555b5050505050565b634e487b7160e01b600052603160045260246000fdfea264697066735822122087d7d96b985ac369823ccfd5a25dedb10cc36c4e5cfaa9d01ad0b5faad7b1ef964736f6c63430008110033",
      "opcodes": "PUSH1 0x80 PUSH1 0x40 MSTORE CALLVALUE DUP1 ISZERO PUSH2 0x10 JUMPI PUSH1 0x0 DUP1 REVERT JUMPDEST POP PUSH2 0x2622 DUP1 PUSH2 0x20 PUSH1 0x0 CODECOPY PUSH1 0x0 RETURN INVALID PUSH1 0x80 PUSH1 0x40 MSTORE CALLVALUE DUP1 ISZERO PUSH2 0x10 JUMPI PUSH1 0x0 DUP1 REVERT JUMPDEST POP PUSH1 0x4 CALLDATASIZE LT PUSH2 0x151 JUMPI PUSH1 0x0 CALLDATALOAD PUSH1 0xE0 SHR DUP1 PUSH4 0x87C63714 GT PUSH2 0xCD JUMPI DUP1 PUSH4 0xCD9C9362 GT PUSH2 0x81 JUMPI DUP1 PUSH4 0xDF78BC54 GT PUSH2 0x66 JUMPI DUP1 PUSH4 0xDF78BC54 EQ PUSH2 0x2B2 JUMPI DUP1 PUSH4 0xE9E6630A EQ PUSH2 0x2D2 JUMPI DUP1 PUSH4 0xF892CB36 EQ PUSH2 0x2F6 JUMPI PUSH1 0x0 DUP1 REVERT JUMPDEST DUP1 PUSH4 0xCD9C9362 EQ PUSH2 0x297 JUMPI DUP1 PUSH4 0xD0E2892C EQ PUSH2 0x29F JUMPI PUSH1 0x0 DUP1 REVERT JUMPDEST DUP1 PUSH4 0xA98D22BC GT PUSH2 0xB2 JUMPI DUP1 PUSH4 0xA98D22BC EQ PUSH2 0x24E JUMPI DUP1 PUSH4 0xB83F4805 EQ PUSH2 0x261 JUMPI DUP1 PUSH4 0xB944559D EQ PUSH2 0x284 JUMPI PUSH1 0x0 DUP1 REVERT JUMPDEST DUP1 PUSH4 0x87C63714 EQ PUSH2 0x228 JUMPI DUP1 PUSH4 0x8D5492E4 EQ PUSH2 0x23B JUMPI PUSH1 0x0 DUP1 REVERT JUMPDEST DUP1 PUSH4 0x196BA7EF GT PUSH2 0x124 JUMPI DUP1 PUSH4 0x590411DA GT PUSH2 0x109 JUMPI DUP1 PUSH4 0x590411DA EQ PUSH2 0x1E2 JUMPI DUP1 PUSH4 0x59633A1C EQ PUSH2 0x1F5 JUMPI DUP1 PUSH4 0x6D769717 EQ PUSH2 0x208 JUMPI PUSH1 0x0 DUP1 REVERT JUMPDEST DUP1 PUSH4 0x196BA7EF EQ PUSH2 0x1C5 JUMPI DUP1 PUSH4 0x3DEA2F84 EQ PUSH2 0x1CF JUMPI PUSH1 0x0 DUP1 REVERT JUMPDEST DUP1 PUSH4 0x1E2B33F EQ PUSH2 0x156 JUMPI DUP1 PUSH4 0x72039A2 EQ PUSH2 0x17C JUMPI DUP1 PUSH4 0x7A8B767 EQ PUSH2 0x19F JUMPI DUP1 PUSH4 0x96E27D9 EQ PUSH2 0x1B2 JUMPI JUMPDEST PUSH1 0x0 DUP1 REVERT JUMPDEST PUSH2 0x169 PUSH2 0x164 CALLDATASIZE PUSH1 0x4 PUSH2 0x1E59 JUMP JUMPDEST PUSH2 0x309 JUMP JUMPDEST PUSH1 0x40 MLOAD SWAP1 DUP2 MSTORE PUSH1 0x20 ADD JUMPDEST PUSH1 0x40 MLOAD DUP1 SWAP2 SUB SWAP1 RETURN JUMPDEST PUSH2 0x18F PUSH2 0x18A CALLDATASIZE PUSH1 0x4 PUSH2 0x1E59 JUMP JUMPDEST PUSH2 0x3F7 JUMP JUMPDEST PUSH1 0x40 MLOAD SWAP1 ISZERO ISZERO DUP2 MSTORE PUSH1 0x20 ADD PUSH2 0x173 JUMP JUMPDEST PUSH2 0x18F PUSH2 0x1AD CALLDATASIZE PUSH1 0x4 PUSH2 0x1E59 JUMP JUMPDEST PUSH2 0x48B JUMP JUMPDEST PUSH2 0x18F PUSH2 0x1C0 CALLDATASIZE PUSH1 0x4 PUSH2 0x1E74 JUMP JUMPDEST PUSH2 0x51B JUMP JUMPDEST PUSH2 0x1CD PUSH2 0x54D JUMP JUMPDEST STOP JUMPDEST PUSH2 0x1CD PUSH2 0x1DD CALLDATASIZE PUSH1 0x4 PUSH2 0x1F5E JUMP JUMPDEST PUSH2 0x5AF JUMP JUMPDEST PUSH2 0x1CD PUSH2 0x1F0 CALLDATASIZE PUSH1 0x4 PUSH2 0x1FBC JUMP JUMPDEST PUSH2 0x68A JUMP JUMPDEST PUSH2 0x1CD PUSH2 0x203 CALLDATASIZE PUSH1 0x4 PUSH2 0x1E59 JUMP JUMPDEST PUSH2 0x893 JUMP JUMPDEST PUSH2 0x21B PUSH2 0x216 CALLDATASIZE PUSH1 0x4 PUSH2 0x1E59 JUMP JUMPDEST PUSH2 0x9E1 JUMP JUMPDEST PUSH1 0x40 MLOAD PUSH2 0x173 SWAP2 SWAP1 PUSH2 0x2081 JUMP JUMPDEST PUSH2 0x1CD PUSH2 0x236 CALLDATASIZE PUSH1 0x4 PUSH2 0x2094 JUMP JUMPDEST PUSH2 0xAB6 JUMP JUMPDEST PUSH2 0x1CD PUSH2 0x249 CALLDATASIZE PUSH1 0x4 PUSH2 0x1E59 JUMP JUMPDEST PUSH2 0xD58 JUMP JUMPDEST PUSH2 0x1CD PUSH2 0x25C CALLDATASIZE PUSH1 0x4 PUSH2 0x1E59 JUMP JUMPDEST PUSH2 0xE8E JUMP JUMPDEST PUSH2 0x274 PUSH2 0x26F CALLDATASIZE PUSH1 0x4 PUSH2 0x1E74 JUMP JUMPDEST PUSH2 0xF47 JUMP JUMPDEST PUSH1 0x40 MLOAD PUSH2 0x173 SWAP5 SWAP4 SWAP3 SWAP2 SWAP1 PUSH2 0x20E2 JUMP JUMPDEST PUSH2 0x1CD PUSH2 0x292 CALLDATASIZE PUSH1 0x4 PUSH2 0x2094 JUMP JUMPDEST PUSH2 0x10FE JUMP JUMPDEST PUSH2 0x1CD PUSH2 0x1169 JUMP JUMPDEST PUSH2 0x1CD PUSH2 0x2AD CALLDATASIZE PUSH1 0x4 PUSH2 0x2115 JUMP JUMPDEST PUSH2 0x1377 JUMP JUMPDEST PUSH2 0x2C5 PUSH2 0x2C0 CALLDATASIZE PUSH1 0x4 PUSH2 0x1E74 JUMP JUMPDEST PUSH2 0x1650 JUMP JUMPDEST PUSH1 0x40 MLOAD PUSH2 0x173 SWAP2 SWAP1 PUSH2 0x21EB JUMP JUMPDEST PUSH2 0x2E5 PUSH2 0x2E0 CALLDATASIZE PUSH1 0x4 PUSH2 0x1E59 JUMP JUMPDEST PUSH2 0x183D JUMP JUMPDEST PUSH1 0x40 MLOAD PUSH2 0x173 SWAP6 SWAP5 SWAP4 SWAP3 SWAP2 SWAP1 PUSH2 0x224D JUMP JUMPDEST PUSH2 0x21B PUSH2 0x304 CALLDATASIZE PUSH1 0x4 PUSH2 0x1E74 JUMP JUMPDEST PUSH2 0x1B62 JUMP JUMPDEST PUSH1 0x1 PUSH1 0x1 PUSH1 0xA0 SHL SUB DUP2 AND PUSH1 0x0 SWAP1 DUP2 MSTORE PUSH1 0x20 DUP2 SWAP1 MSTORE PUSH1 0x40 DUP2 KECCAK256 PUSH1 0x3 ADD SLOAD DUP2 SWAP1 PUSH2 0x331 SWAP1 TIMESTAMP PUSH2 0x22DF JUMP JUMPDEST PUSH1 0x1 PUSH1 0x1 PUSH1 0xA0 SHL SUB DUP5 AND PUSH1 0x0 DUP2 DUP2 MSTORE PUSH1 0x20 DUP2 DUP2 MSTORE PUSH1 0x40 SWAP2 DUP3 SWAP1 KECCAK256 PUSH1 0x2 DUP2 ADD SLOAD PUSH1 0x3 SWAP1 SWAP2 ADD SLOAD DUP4 MLOAD SWAP2 DUP3 MSTORE SWAP2 DUP2 ADD DUP6 SWAP1 MSTORE TIMESTAMP SWAP3 DUP2 ADD SWAP3 SWAP1 SWAP3 MSTORE PUSH1 0x60 DUP3 ADD MSTORE SWAP2 SWAP3 POP SWAP1 PUSH32 0x74A7C0C2E8065FCDBFCA5AE9F6CF0233E47E9E75B6FCF75674DD4B7E3F9B8183 SWAP1 PUSH1 0x80 ADD PUSH1 0x40 MLOAD DUP1 SWAP2 SUB SWAP1 LOG2 PUSH1 0x1 PUSH1 0x1 PUSH1 0xA0 SHL SUB DUP4 AND PUSH1 0x0 SWAP1 DUP2 MSTORE PUSH1 0x20 DUP2 SWAP1 MSTORE PUSH1 0x40 SWAP1 KECCAK256 PUSH1 0x2 ADD SLOAD DUP2 GT PUSH2 0x3ED JUMPI PUSH1 0x1 PUSH1 0x1 PUSH1 0xA0 SHL SUB DUP4 AND PUSH1 0x0 SWAP1 DUP2 MSTORE PUSH1 0x20 DUP2 SWAP1 MSTORE PUSH1 0x40 SWAP1 KECCAK256 PUSH1 0x2 ADD SLOAD PUSH2 0x3E8 SWAP1 DUP3 SWAP1 PUSH2 0x22DF JUMP JUMPDEST PUSH2 0x3F0 JUMP JUMPDEST PUSH1 0x0 JUMPDEST SWAP4 SWAP3 POP POP POP JUMP JUMPDEST PUSH1 0x0 PUSH2 0x402 DUP3 PUSH2 0x48B JUMP JUMPDEST ISZERO PUSH2 0x464 JUMPI PUSH1 0x1 PUSH1 0x1 PUSH1 0xA0 SHL SUB DUP3 AND PUSH1 0x0 SWAP1 DUP2 MSTORE PUSH1 0x20 DUP2 SWAP1 MSTORE PUSH1 0x40 SWAP1 KECCAK256 PUSH1 0x3 ADD SLOAD ISZERO PUSH2 0x464 JUMPI PUSH1 0x0 PUSH2 0x433 DUP4 PUSH2 0x309 JUMP JUMPDEST SWAP1 POP PUSH1 0x0 DUP2 GT PUSH2 0x462 JUMPI PUSH1 0x1 PUSH1 0x1 PUSH1 0xA0 SHL SUB DUP4 AND PUSH1 0x0 SWAP1 DUP2 MSTORE PUSH1 0x20 DUP2 SWAP1 MSTORE PUSH1 0x40 SWAP1 KECCAK256 PUSH1 0x4 ADD DUP1 SLOAD PUSH2 0xFF00 NOT AND SWAP1 SSTORE JUMPDEST POP JUMPDEST POP PUSH1 0x1 PUSH1 0x1 PUSH1 0xA0 SHL SUB AND PUSH1 0x0 SWAP1 DUP2 MSTORE PUSH1 0x20 DUP2 SWAP1 MSTORE PUSH1 0x40 SWAP1 KECCAK256 PUSH1 0x4 ADD SLOAD PUSH2 0x100 SWAP1 DIV PUSH1 0xFF AND SWAP1 JUMP JUMPDEST PUSH1 0x1 PUSH1 0x1 PUSH1 0xA0 SHL SUB DUP2 AND PUSH1 0x0 SWAP1 DUP2 MSTORE PUSH1 0x20 DUP2 SWAP1 MSTORE PUSH1 0x40 DUP2 KECCAK256 SLOAD PUSH1 0xFF AND PUSH2 0x4F8 JUMPI PUSH1 0x40 MLOAD PUSH3 0x461BCD PUSH1 0xE5 SHL DUP2 MSTORE PUSH1 0x20 PUSH1 0x4 DUP3 ADD MSTORE PUSH1 0x19 PUSH1 0x24 DUP3 ADD MSTORE PUSH32 0x42656E65666163746F7220646F6573206E6F7420657869737400000000000000 PUSH1 0x44 DUP3 ADD MSTORE PUSH1 0x64 ADD JUMPDEST PUSH1 0x40 MLOAD DUP1 SWAP2 SUB SWAP1 REVERT JUMPDEST POP PUSH1 0x1 PUSH1 0x1 PUSH1 0xA0 SHL SUB AND PUSH1 0x0 SWAP1 DUP2 MSTORE PUSH1 0x20 DUP2 SWAP1 MSTORE PUSH1 0x40 SWAP1 KECCAK256 PUSH1 0x4 ADD SLOAD PUSH1 0xFF AND ISZERO SWAP1 JUMP JUMPDEST PUSH1 0x1 PUSH1 0x1 PUSH1 0xA0 SHL SUB DUP1 DUP4 AND PUSH1 0x0 SWAP1 DUP2 MSTORE PUSH1 0x20 DUP2 DUP2 MSTORE PUSH1 0x40 DUP1 DUP4 KECCAK256 SWAP4 DUP6 AND DUP4 MSTORE PUSH1 0x1 SWAP1 SWAP4 ADD SWAP1 MSTORE KECCAK256 SLOAD PUSH1 0xFF AND JUMPDEST SWAP3 SWAP2 POP POP JUMP JUMPDEST CALLER PUSH1 0x0 DUP2 DUP2 MSTORE PUSH1 0x20 DUP2 DUP2 MSTORE PUSH1 0x40 DUP1 DUP4 KECCAK256 DUP1 SLOAD PUSH1 0xFF NOT AND PUSH1 0x1 OR DUP2 SSTORE PUSH3 0x93A80 PUSH1 0x2 DUP3 ADD SSTORE PUSH1 0x4 DUP2 ADD DUP1 SLOAD PUSH2 0x101 PUSH2 0xFFFF NOT SWAP1 SWAP2 AND OR SWAP1 SSTORE PUSH1 0x3 DUP2 ADD DUP5 SWAP1 SSTORE DUP2 MLOAD DUP1 DUP5 ADD SWAP1 SWAP3 MSTORE DUP4 DUP3 MSTORE SWAP4 DUP4 MSTORE SWAP2 SWAP1 MSTORE PUSH1 0x5 SWAP1 SWAP2 ADD SWAP1 PUSH2 0x5AC SWAP1 DUP3 PUSH2 0x237A JUMP JUMPDEST POP JUMP JUMPDEST PUSH2 0x5B9 DUP4 DUP4 PUSH2 0x51B JUMP JUMPDEST PUSH2 0x605 JUMPI PUSH1 0x40 MLOAD PUSH3 0x461BCD PUSH1 0xE5 SHL DUP2 MSTORE PUSH1 0x20 PUSH1 0x4 DUP3 ADD DUP2 SWAP1 MSTORE PUSH1 0x24 DUP3 ADD MSTORE PUSH32 0x42656E65666963696172792F42656E65666163746F72206E6F7420666F756E64 PUSH1 0x44 DUP3 ADD MSTORE PUSH1 0x64 ADD PUSH2 0x4EF JUMP JUMPDEST PUSH1 0x1 PUSH1 0x1 PUSH1 0xA0 SHL SUB DUP1 DUP5 AND PUSH1 0x0 SWAP1 DUP2 MSTORE PUSH1 0x20 DUP2 DUP2 MSTORE PUSH1 0x40 DUP1 DUP4 KECCAK256 SWAP4 DUP7 AND DUP4 MSTORE PUSH1 0x1 SWAP1 SWAP4 ADD SWAP1 MSTORE KECCAK256 PUSH1 0x2 ADD PUSH2 0x639 DUP3 DUP3 PUSH2 0x237A JUMP JUMPDEST POP DUP2 PUSH1 0x1 PUSH1 0x1 PUSH1 0xA0 SHL SUB AND DUP4 PUSH1 0x1 PUSH1 0x1 PUSH1 0xA0 SHL SUB AND PUSH32 0x69CCEA10852AC51B01745414774B5AF302217E774786D2068296650B57BA03F2 DUP4 PUSH1 0x40 MLOAD PUSH2 0x67D SWAP2 SWAP1 PUSH2 0x2081 JUMP JUMPDEST PUSH1 0x40 MLOAD DUP1 SWAP2 SUB SWAP1 LOG3 POP POP POP JUMP JUMPDEST CALLER PUSH1 0x0 SWAP1 DUP2 MSTORE PUSH1 0x20 DUP2 SWAP1 MSTORE PUSH1 0x40 SWAP1 KECCAK256 SLOAD PUSH1 0xFF AND DUP1 ISZERO PUSH2 0x6C0 JUMPI POP CALLER PUSH1 0x0 SWAP1 DUP2 MSTORE PUSH1 0x20 DUP2 SWAP1 MSTORE PUSH1 0x40 SWAP1 KECCAK256 PUSH1 0x4 ADD SLOAD PUSH2 0x100 SWAP1 DIV PUSH1 0xFF AND JUMPDEST PUSH2 0x705 JUMPI PUSH1 0x40 MLOAD PUSH3 0x461BCD PUSH1 0xE5 SHL DUP2 MSTORE PUSH1 0x20 PUSH1 0x4 DUP3 ADD MSTORE PUSH1 0x16 PUSH1 0x24 DUP3 ADD MSTORE PUSH22 0x2737BA1030903B30B634B2103132B732B330B1BA37B9 PUSH1 0x51 SHL PUSH1 0x44 DUP3 ADD MSTORE PUSH1 0x64 ADD PUSH2 0x4EF JUMP JUMPDEST PUSH1 0x0 JUMPDEST DUP2 DUP2 LT ISZERO PUSH2 0x88E JUMPI PUSH1 0x0 DUP4 DUP4 DUP4 DUP2 DUP2 LT PUSH2 0x724 JUMPI PUSH2 0x724 PUSH2 0x243A JUMP JUMPDEST SWAP1 POP PUSH1 0x20 MUL ADD PUSH1 0x20 DUP2 ADD SWAP1 PUSH2 0x739 SWAP2 SWAP1 PUSH2 0x1E59 JUMP JUMPDEST SWAP1 POP PUSH2 0x745 CALLER DUP3 PUSH2 0x51B JUMP JUMPDEST ISZERO PUSH2 0x792 JUMPI PUSH1 0x40 MLOAD PUSH3 0x461BCD PUSH1 0xE5 SHL DUP2 MSTORE PUSH1 0x20 PUSH1 0x4 DUP3 ADD MSTORE PUSH1 0x1A PUSH1 0x24 DUP3 ADD MSTORE PUSH32 0x42656E656669636961727920616C726561647920657869737473000000000000 PUSH1 0x44 DUP3 ADD MSTORE PUSH1 0x64 ADD PUSH2 0x4EF JUMP JUMPDEST PUSH1 0x40 DUP1 MLOAD PUSH1 0x60 DUP2 ADD DUP3 MSTORE PUSH1 0x1 DUP2 MSTORE DUP2 MLOAD PUSH1 0x0 DUP1 DUP3 MSTORE PUSH1 0x20 DUP3 DUP2 ADD SWAP1 SWAP5 MSTORE SWAP2 SWAP3 DUP4 ADD SWAP2 PUSH2 0x7CE JUMP JUMPDEST PUSH1 0x60 DUP2 MSTORE PUSH1 0x20 ADD SWAP1 PUSH1 0x1 SWAP1 SUB SWAP1 DUP2 PUSH2 0x7B9 JUMPI SWAP1 POP JUMPDEST POP DUP2 MSTORE PUSH1 0x40 DUP1 MLOAD PUSH1 0x20 DUP1 DUP3 ADD DUP4 MSTORE PUSH1 0x0 DUP1 DUP4 MSTORE SWAP4 DUP2 ADD SWAP2 SWAP1 SWAP2 MSTORE CALLER DUP4 MSTORE DUP3 DUP2 MSTORE DUP2 DUP4 KECCAK256 PUSH1 0x1 PUSH1 0x1 PUSH1 0xA0 SHL SUB DUP7 AND DUP5 MSTORE PUSH1 0x1 SWAP1 DUP2 ADD DUP3 MSTORE SWAP2 SWAP1 SWAP3 KECCAK256 DUP4 MLOAD DUP2 SLOAD PUSH1 0xFF NOT AND SWAP1 ISZERO ISZERO OR DUP2 SSTORE DUP4 DUP4 ADD MLOAD DUP1 MLOAD SWAP2 SWAP4 PUSH2 0x82D SWAP4 DUP6 ADD SWAP3 SWAP2 ADD SWAP1 PUSH2 0x1D62 JUMP JUMPDEST POP PUSH1 0x40 DUP3 ADD MLOAD PUSH1 0x2 DUP3 ADD SWAP1 PUSH2 0x842 SWAP1 DUP3 PUSH2 0x237A JUMP JUMPDEST POP POP PUSH1 0x40 MLOAD PUSH1 0x1 PUSH1 0x1 PUSH1 0xA0 SHL SUB DUP4 AND SWAP2 POP CALLER SWAP1 PUSH32 0xBB39C36A7502B7256E1A687254146A9A2EA7B146C77CB9E40EB0E2B8793781E1 SWAP1 PUSH1 0x0 SWAP1 LOG3 POP DUP1 PUSH2 0x886 DUP2 PUSH2 0x2450 JUMP JUMPDEST SWAP2 POP POP PUSH2 0x708 JUMP JUMPDEST POP POP POP JUMP JUMPDEST CALLER PUSH1 0x0 SWAP1 DUP2 MSTORE PUSH1 0x20 DUP2 SWAP1 MSTORE PUSH1 0x40 SWAP1 KECCAK256 SLOAD PUSH1 0xFF AND DUP1 ISZERO PUSH2 0x8C9 JUMPI POP CALLER PUSH1 0x0 SWAP1 DUP2 MSTORE PUSH1 0x20 DUP2 SWAP1 MSTORE PUSH1 0x40 SWAP1 KECCAK256 PUSH1 0x4 ADD SLOAD PUSH2 0x100 SWAP1 DIV PUSH1 0xFF AND JUMPDEST PUSH2 0x90E JUMPI PUSH1 0x40 MLOAD PUSH3 0x461BCD PUSH1 0xE5 SHL DUP2 MSTORE PUSH1 0x20 PUSH1 0x4 DUP3 ADD MSTORE PUSH1 0x16 PUSH1 0x24 DUP3 ADD MSTORE PUSH22 0x2737BA1030903B30B634B2103132B732B330B1BA37B9 PUSH1 0x51 SHL PUSH1 0x44 DUP3 ADD MSTORE PUSH1 0x64 ADD PUSH2 0x4EF JUMP JUMPDEST PUSH2 0x918 CALLER DUP3 PUSH2 0x51B JUMP JUMPDEST PUSH2 0x95C JUMPI PUSH1 0x40 MLOAD PUSH3 0x461BCD PUSH1 0xE5 SHL DUP2 MSTORE PUSH1 0x20 PUSH1 0x4 DUP3 ADD MSTORE PUSH1 0x15 PUSH1 0x24 DUP3 ADD MSTORE PUSH21 0x10995B99599A58DA585C9E481B9BDD08199BDD5B99 PUSH1 0x5A SHL PUSH1 0x44 DUP3 ADD MSTORE PUSH1 0x64 ADD PUSH2 0x4EF JUMP JUMPDEST CALLER PUSH1 0x0 SWAP1 DUP2 MSTORE PUSH1 0x20 DUP2 DUP2 MSTORE PUSH1 0x40 DUP1 DUP4 KECCAK256 PUSH1 0x1 PUSH1 0x1 PUSH1 0xA0 SHL SUB DUP6 AND DUP5 MSTORE PUSH1 0x1 SWAP1 DUP2 ADD SWAP1 SWAP3 MSTORE DUP3 KECCAK256 DUP1 SLOAD PUSH1 0xFF NOT AND DUP2 SSTORE SWAP2 SWAP1 PUSH2 0x998 SWAP1 DUP4 ADD DUP3 PUSH2 0x1DB8 JUMP JUMPDEST PUSH2 0x9A6 PUSH1 0x2 DUP4 ADD PUSH1 0x0 PUSH2 0x1DD6 JUMP JUMPDEST POP POP PUSH1 0x40 MLOAD PUSH1 0x1 PUSH1 0x1 PUSH1 0xA0 SHL SUB DUP3 AND SWAP1 CALLER SWAP1 PUSH32 0x1A6590BD0CABBFCC7C86BEF99E1034054E179905CFCC294598FCD426C0922442 SWAP1 PUSH1 0x0 SWAP1 LOG3 POP JUMP JUMPDEST PUSH1 0x60 PUSH2 0x9ED DUP3 CALLER PUSH2 0x51B JUMP JUMPDEST ISZERO PUSH2 0xA9D JUMPI PUSH1 0x1 PUSH1 0x1 PUSH1 0xA0 SHL SUB DUP3 AND PUSH1 0x0 SWAP1 DUP2 MSTORE PUSH1 0x20 DUP2 SWAP1 MSTORE PUSH1 0x40 SWAP1 KECCAK256 PUSH1 0x5 ADD DUP1 SLOAD PUSH2 0xA18 SWAP1 PUSH2 0x22F2 JUMP JUMPDEST DUP1 PUSH1 0x1F ADD PUSH1 0x20 DUP1 SWAP2 DIV MUL PUSH1 0x20 ADD PUSH1 0x40 MLOAD SWAP1 DUP2 ADD PUSH1 0x40 MSTORE DUP1 SWAP3 SWAP2 SWAP1 DUP2 DUP2 MSTORE PUSH1 0x20 ADD DUP3 DUP1 SLOAD PUSH2 0xA44 SWAP1 PUSH2 0x22F2 JUMP JUMPDEST DUP1 ISZERO PUSH2 0xA91 JUMPI DUP1 PUSH1 0x1F LT PUSH2 0xA66 JUMPI PUSH2 0x100 DUP1 DUP4 SLOAD DIV MUL DUP4 MSTORE SWAP2 PUSH1 0x20 ADD SWAP2 PUSH2 0xA91 JUMP JUMPDEST DUP3 ADD SWAP2 SWAP1 PUSH1 0x0 MSTORE PUSH1 0x20 PUSH1 0x0 KECCAK256 SWAP1 JUMPDEST DUP2 SLOAD DUP2 MSTORE SWAP1 PUSH1 0x1 ADD SWAP1 PUSH1 0x20 ADD DUP1 DUP4 GT PUSH2 0xA74 JUMPI DUP3 SWAP1 SUB PUSH1 0x1F AND DUP3 ADD SWAP2 JUMPDEST POP POP POP POP POP SWAP1 POP SWAP2 SWAP1 POP JUMP JUMPDEST POP POP PUSH1 0x40 DUP1 MLOAD PUSH1 0x20 DUP2 ADD SWAP1 SWAP2 MSTORE PUSH1 0x0 DUP2 MSTORE SWAP1 JUMP JUMPDEST SWAP2 SWAP1 POP JUMP JUMPDEST CALLER PUSH1 0x0 SWAP1 DUP2 MSTORE PUSH1 0x20 DUP2 SWAP1 MSTORE PUSH1 0x40 SWAP1 KECCAK256 SLOAD PUSH1 0xFF AND DUP1 ISZERO PUSH2 0xAEC JUMPI POP CALLER PUSH1 0x0 SWAP1 DUP2 MSTORE PUSH1 0x20 DUP2 SWAP1 MSTORE PUSH1 0x40 SWAP1 KECCAK256 PUSH1 0x4 ADD SLOAD PUSH2 0x100 SWAP1 DIV PUSH1 0xFF AND JUMPDEST PUSH2 0xB31 JUMPI PUSH1 0x40 MLOAD PUSH3 0x461BCD PUSH1 0xE5 SHL DUP2 MSTORE PUSH1 0x20 PUSH1 0x4 DUP3 ADD MSTORE PUSH1 0x16 PUSH1 0x24 DUP3 ADD MSTORE PUSH22 0x2737BA1030903B30B634B2103132B732B330B1BA37B9 PUSH1 0x51 SHL PUSH1 0x44 DUP3 ADD MSTORE PUSH1 0x64 ADD PUSH2 0x4EF JUMP JUMPDEST PUSH2 0xB3B CALLER DUP4 PUSH2 0x51B JUMP JUMPDEST PUSH2 0xB7F JUMPI PUSH1 0x40 MLOAD PUSH3 0x461BCD PUSH1 0xE5 SHL DUP2 MSTORE PUSH1 0x20 PUSH1 0x4 DUP3 ADD MSTORE PUSH1 0x15 PUSH1 0x24 DUP3 ADD MSTORE PUSH21 0x10995B99599A58DA585C9E481B9BDD08199BDD5B99 PUSH1 0x5A SHL PUSH1 0x44 DUP3 ADD MSTORE PUSH1 0x64 ADD PUSH2 0x4EF JUMP JUMPDEST CALLER PUSH1 0x0 SWAP1 DUP2 MSTORE PUSH1 0x20 DUP2 DUP2 MSTORE PUSH1 0x40 DUP1 DUP4 KECCAK256 PUSH1 0x1 PUSH1 0x1 PUSH1 0xA0 SHL SUB DUP7 AND DUP5 MSTORE PUSH1 0x1 SWAP1 DUP2 ADD SWAP1 SWAP3 MSTORE DUP3 KECCAK256 ADD SWAP1 JUMPDEST DUP2 SLOAD DUP2 LT ISZERO PUSH2 0xD03 JUMPI DUP3 PUSH1 0x40 MLOAD PUSH1 0x20 ADD PUSH2 0xBC2 SWAP2 SWAP1 PUSH2 0x2469 JUMP JUMPDEST PUSH1 0x40 MLOAD PUSH1 0x20 DUP2 DUP4 SUB SUB DUP2 MSTORE SWAP1 PUSH1 0x40 MSTORE DUP1 MLOAD SWAP1 PUSH1 0x20 ADD KECCAK256 DUP3 DUP3 DUP2 SLOAD DUP2 LT PUSH2 0xBEA JUMPI PUSH2 0xBEA PUSH2 0x243A JUMP JUMPDEST SWAP1 PUSH1 0x0 MSTORE PUSH1 0x20 PUSH1 0x0 KECCAK256 ADD PUSH1 0x40 MLOAD PUSH1 0x20 ADD PUSH2 0xC04 SWAP2 SWAP1 PUSH2 0x2485 JUMP JUMPDEST PUSH1 0x40 MLOAD PUSH1 0x20 DUP2 DUP4 SUB SUB DUP2 MSTORE SWAP1 PUSH1 0x40 MSTORE DUP1 MLOAD SWAP1 PUSH1 0x20 ADD KECCAK256 SUB PUSH2 0xCF1 JUMPI DUP2 SLOAD DUP3 SWAP1 PUSH2 0xC2F SWAP1 PUSH1 0x1 SWAP1 PUSH2 0x22DF JUMP JUMPDEST DUP2 SLOAD DUP2 LT PUSH2 0xC3F JUMPI PUSH2 0xC3F PUSH2 0x243A JUMP JUMPDEST SWAP1 PUSH1 0x0 MSTORE PUSH1 0x20 PUSH1 0x0 KECCAK256 ADD DUP3 DUP3 DUP2 SLOAD DUP2 LT PUSH2 0xC5B JUMPI PUSH2 0xC5B PUSH2 0x243A JUMP JUMPDEST SWAP1 PUSH1 0x0 MSTORE PUSH1 0x20 PUSH1 0x0 KECCAK256 ADD SWAP1 DUP2 PUSH2 0xC71 SWAP2 SWAP1 PUSH2 0x24FB JUMP JUMPDEST POP DUP2 DUP1 SLOAD DUP1 PUSH2 0xC82 JUMPI PUSH2 0xC82 PUSH2 0x25D6 JUMP JUMPDEST PUSH1 0x1 SWAP1 SUB DUP2 DUP2 SWAP1 PUSH1 0x0 MSTORE PUSH1 0x20 PUSH1 0x0 KECCAK256 ADD PUSH1 0x0 PUSH2 0xC9E SWAP2 SWAP1 PUSH2 0x1DD6 JUMP JUMPDEST SWAP1 SSTORE DUP4 PUSH1 0x1 PUSH1 0x1 PUSH1 0xA0 SHL SUB AND CALLER PUSH1 0x1 PUSH1 0x1 PUSH1 0xA0 SHL SUB AND PUSH32 0x4C13211CE3B2D0CB3E02A662CC071D6BE555042CA58D4D812B7B90E80D3250AC DUP6 PUSH1 0x40 MLOAD PUSH2 0xCE3 SWAP2 SWAP1 PUSH2 0x2081 JUMP JUMPDEST PUSH1 0x40 MLOAD DUP1 SWAP2 SUB SWAP1 LOG3 POP POP POP POP JUMP JUMPDEST DUP1 PUSH2 0xCFB DUP2 PUSH2 0x2450 JUMP JUMPDEST SWAP2 POP POP PUSH2 0xBA8 JUMP JUMPDEST POP PUSH1 0x40 MLOAD PUSH3 0x461BCD PUSH1 0xE5 SHL DUP2 MSTORE PUSH1 0x20 PUSH1 0x4 DUP3 ADD MSTORE PUSH1 0x24 DUP1 DUP3 ADD MSTORE PUSH32 0x434944206E6F742061737369676E656420746F20746869732062656E65666963 PUSH1 0x44 DUP3 ADD MSTORE PUSH4 0x69617279 PUSH1 0xE0 SHL PUSH1 0x64 DUP3 ADD MSTORE PUSH1 0x84 ADD PUSH2 0x4EF JUMP JUMPDEST PUSH1 0x1 PUSH1 0x1 PUSH1 0xA0 SHL SUB DUP2 AND PUSH1 0x0 SWAP1 DUP2 MSTORE PUSH1 0x20 DUP2 DUP2 MSTORE PUSH1 0x40 DUP1 DUP4 KECCAK256 CALLER DUP5 MSTORE PUSH1 0x1 ADD SWAP1 SWAP2 MSTORE SWAP1 KECCAK256 SLOAD PUSH1 0xFF AND PUSH2 0xDCC JUMPI PUSH1 0x40 MLOAD PUSH3 0x461BCD PUSH1 0xE5 SHL DUP2 MSTORE PUSH1 0x20 PUSH1 0x4 DUP3 ADD MSTORE PUSH1 0x17 PUSH1 0x24 DUP3 ADD MSTORE PUSH32 0x4E6F7420612076616C69642062656E6566696369617279000000000000000000 PUSH1 0x44 DUP3 ADD MSTORE PUSH1 0x64 ADD PUSH2 0x4EF JUMP JUMPDEST PUSH1 0x1 PUSH1 0x1 PUSH1 0xA0 SHL SUB DUP2 AND PUSH1 0x0 SWAP1 DUP2 MSTORE PUSH1 0x20 DUP2 SWAP1 MSTORE PUSH1 0x40 SWAP1 KECCAK256 PUSH1 0x4 ADD SLOAD PUSH1 0xFF AND PUSH2 0xE28 JUMPI PUSH1 0x40 MLOAD CALLER SWAP1 PUSH1 0x1 PUSH1 0x1 PUSH1 0xA0 SHL SUB DUP4 AND SWAP1 PUSH32 0x67C4731BDC193862F421E091D18F46DF876BFE1B8B9AA97504F1D50D425B239D SWAP1 PUSH1 0x0 SWAP1 LOG3 POP JUMP JUMPDEST PUSH1 0x1 PUSH1 0x1 PUSH1 0xA0 SHL SUB DUP2 AND PUSH1 0x0 DUP2 DUP2 MSTORE PUSH1 0x20 DUP2 DUP2 MSTORE PUSH1 0x40 SWAP2 DUP3 SWAP1 KECCAK256 PUSH1 0x4 DUP2 ADD DUP1 SLOAD PUSH1 0xFF NOT AND SWAP1 SSTORE TIMESTAMP PUSH1 0x3 DUP3 ADD SSTORE PUSH1 0x2 ADD SLOAD SWAP2 MLOAD SWAP2 DUP3 MSTORE CALLER SWAP3 SWAP2 PUSH32 0x82595752291D0261DFB9B4B0C2307021C29C34E22FE0697B4840B529DC351BC3 SWAP2 ADD PUSH1 0x40 MLOAD DUP1 SWAP2 SUB SWAP1 LOG3 POP JUMP JUMPDEST CALLER PUSH1 0x0 SWAP1 DUP2 MSTORE PUSH1 0x20 DUP2 SWAP1 MSTORE PUSH1 0x40 SWAP1 KECCAK256 SLOAD PUSH1 0xFF AND PUSH2 0xEED JUMPI PUSH1 0x40 MLOAD PUSH3 0x461BCD PUSH1 0xE5 SHL DUP2 MSTORE PUSH1 0x20 PUSH1 0x4 DUP3 ADD MSTORE PUSH1 0x19 PUSH1 0x24 DUP3 ADD MSTORE PUSH32 0x42656E65666163746F72206E6F74207265676973746572656400000000000000 PUSH1 0x44 DUP3 ADD MSTORE PUSH1 0x64 ADD PUSH2 0x4EF JUMP JUMPDEST CALLER PUSH1 0x0 SWAP1 DUP2 MSTORE PUSH1 0x20 DUP2 SWAP1 MSTORE PUSH1 0x40 DUP1 DUP3 KECCAK256 DUP1 SLOAD PUSH1 0xFF NOT SWAP1 DUP2 AND SWAP1 SWAP2 SSTORE PUSH1 0x1 PUSH1 0x1 PUSH1 0xA0 SHL SUB DUP5 AND DUP4 MSTORE SWAP1 DUP3 KECCAK256 DUP1 SLOAD SWAP1 SWAP2 AND DUP2 SSTORE PUSH1 0x2 DUP2 ADD DUP3 SWAP1 SSTORE PUSH1 0x3 DUP2 ADD DUP3 SWAP1 SSTORE PUSH1 0x4 DUP2 ADD DUP1 SLOAD PUSH2 0xFFFF NOT AND SWAP1 SSTORE SWAP1 PUSH2 0x88E PUSH1 0x5 DUP4 ADD DUP3 PUSH2 0x1DD6 JUMP JUMPDEST PUSH1 0x1 PUSH1 0x1 PUSH1 0xA0 SHL SUB DUP3 AND PUSH1 0x0 SWAP1 DUP2 MSTORE PUSH1 0x20 DUP2 SWAP1 MSTORE PUSH1 0x40 DUP2 KECCAK256 SLOAD DUP2 SWAP1 DUP2 SWAP1 PUSH1 0x60 SWAP1 PUSH1 0xFF AND PUSH2 0xFB6 JUMPI PUSH1 0x40 MLOAD PUSH3 0x461BCD PUSH1 0xE5 SHL DUP2 MSTORE PUSH1 0x20 PUSH1 0x4 DUP3 ADD MSTORE PUSH1 0x19 PUSH1 0x24 DUP3 ADD MSTORE PUSH32 0x42656E65666163746F7220646F6573206E6F7420657869737400000000000000 PUSH1 0x44 DUP3 ADD MSTORE PUSH1 0x64 ADD PUSH2 0x4EF JUMP JUMPDEST PUSH1 0x1 PUSH1 0x1 PUSH1 0xA0 SHL SUB DUP7 AND PUSH1 0x0 SWAP1 DUP2 MSTORE PUSH1 0x20 DUP2 SWAP1 MSTORE PUSH1 0x40 SWAP1 KECCAK256 PUSH1 0x4 ADD SLOAD PUSH1 0xFF AND ISZERO SWAP4 POP DUP4 PUSH2 0xFE6 JUMPI PUSH1 0x0 SWAP3 POP PUSH2 0xFF2 JUMP JUMPDEST PUSH2 0xFEF DUP7 PUSH2 0x309 JUMP JUMPDEST SWAP3 POP JUMPDEST PUSH1 0x1 PUSH1 0x1 PUSH1 0xA0 SHL SUB DUP7 DUP2 AND PUSH1 0x0 SWAP1 DUP2 MSTORE PUSH1 0x20 DUP2 DUP2 MSTORE PUSH1 0x40 DUP1 DUP4 KECCAK256 PUSH1 0x4 DUP2 ADD SLOAD SWAP5 DUP11 AND DUP5 MSTORE PUSH1 0x1 ADD SWAP1 SWAP2 MSTORE SWAP1 KECCAK256 PUSH1 0x2 ADD DUP1 SLOAD PUSH2 0x100 SWAP1 SWAP3 DIV PUSH1 0xFF AND SWAP4 POP SWAP1 PUSH2 0x1038 SWAP1 PUSH2 0x22F2 JUMP JUMPDEST DUP1 PUSH1 0x1F ADD PUSH1 0x20 DUP1 SWAP2 DIV MUL PUSH1 0x20 ADD PUSH1 0x40 MLOAD SWAP1 DUP2 ADD PUSH1 0x40 MSTORE DUP1 SWAP3 SWAP2 SWAP1 DUP2 DUP2 MSTORE PUSH1 0x20 ADD DUP3 DUP1 SLOAD PUSH2 0x1064 SWAP1 PUSH2 0x22F2 JUMP JUMPDEST DUP1 ISZERO PUSH2 0x10B1 JUMPI DUP1 PUSH1 0x1F LT PUSH2 0x1086 JUMPI PUSH2 0x100 DUP1 DUP4 SLOAD DIV MUL DUP4 MSTORE SWAP2 PUSH1 0x20 ADD SWAP2 PUSH2 0x10B1 JUMP JUMPDEST DUP3 ADD SWAP2 SWAP1 PUSH1 0x0 MSTORE PUSH1 0x20 PUSH1 0x0 KECCAK256 SWAP1 JUMPDEST DUP2 SLOAD DUP2 MSTORE SWAP1 PUSH1 0x1 ADD SWAP1 PUSH1 0x20 ADD DUP1 DUP4 GT PUSH2 0x1094 JUMPI DUP3 SWAP1 SUB PUSH1 0x1F AND DUP3 ADD SWAP2 JUMPDEST POP POP POP POP POP SWAP1 POP PUSH32 0xE092C8EAB045FA06EB05FE062C2D0A1721905A7AD6ACB7EED9C804D956EA9FD DUP5 DUP5 DUP5 DUP5 PUSH1 0x40 MLOAD PUSH2 0x10ED SWAP5 SWAP4 SWAP3 SWAP2 SWAP1 PUSH2 0x20E2 JUMP JUMPDEST PUSH1 0x40 MLOAD DUP1 SWAP2 SUB SWAP1 LOG1 SWAP3 SWAP6 SWAP2 SWAP5 POP SWAP3 POP JUMP JUMPDEST PUSH1 0x1 PUSH1 0x1 PUSH1 0xA0 SHL SUB DUP3 AND PUSH1 0x0 SWAP1 DUP2 MSTORE PUSH1 0x20 DUP2 SWAP1 MSTORE PUSH1 0x40 SWAP1 KECCAK256 PUSH1 0x5 ADD PUSH2 0x1123 DUP3 DUP3 PUSH2 0x237A JUMP JUMPDEST POP DUP2 PUSH1 0x1 PUSH1 0x1 PUSH1 0xA0 SHL SUB AND PUSH32 0xF20D3EA0A54B197EC507921ED526707368E27AD44B86BF2D4B11888B7009DE6B DUP3 PUSH1 0x40 MLOAD PUSH2 0x115D SWAP2 SWAP1 PUSH2 0x2081 JUMP JUMPDEST PUSH1 0x40 MLOAD DUP1 SWAP2 SUB SWAP1 LOG2 POP POP JUMP JUMPDEST CALLER PUSH1 0x0 SWAP1 DUP2 MSTORE PUSH1 0x20 DUP2 SWAP1 MSTORE PUSH1 0x40 SWAP1 KECCAK256 SLOAD PUSH1 0xFF AND DUP1 ISZERO PUSH2 0x119F JUMPI POP CALLER PUSH1 0x0 SWAP1 DUP2 MSTORE PUSH1 0x20 DUP2 SWAP1 MSTORE PUSH1 0x40 SWAP1 KECCAK256 PUSH1 0x4 ADD SLOAD PUSH2 0x100 SWAP1 DIV PUSH1 0xFF AND JUMPDEST PUSH2 0x11E4 JUMPI PUSH1 0x40 MLOAD PUSH3 0x461BCD PUSH1 0xE5 SHL DUP2 MSTORE PUSH1 0x20 PUSH1 0x4 DUP3 ADD MSTORE PUSH1 0x16 PUSH1 0x24 DUP3 ADD MSTORE PUSH22 0x2737BA1030903B30B634B2103132B732B330B1BA37B9 PUSH1 0x51 SHL PUSH1 0x44 DUP3 ADD MSTORE PUSH1 0x64 ADD PUSH2 0x4EF JUMP JUMPDEST CALLER PUSH1 0x0 SWAP1 DUP2 MSTORE PUSH1 0x20 DUP2 SWAP1 MSTORE PUSH1 0x40 SWAP1 KECCAK256 PUSH1 0x3 ADD SLOAD ISZERO PUSH2 0x130E JUMPI PUSH2 0x1205 CALLER PUSH2 0x3F7 JUMP JUMPDEST ISZERO PUSH2 0x129B JUMPI CALLER PUSH1 0x1 PUSH1 0x1 PUSH1 0xA0 SHL SUB AND PUSH32 0x793324A6F079E577F4A4646C7EC753EFD3BEDDC2F4CE07BFAE5F105C449AC356 PUSH1 0x40 MLOAD PUSH2 0x1273 SWAP1 PUSH1 0x20 DUP1 DUP3 MSTORE PUSH1 0x13 SWAP1 DUP3 ADD MSTORE PUSH32 0x42656E65666163746F7220697320616C69766500000000000000000000000000 PUSH1 0x40 DUP3 ADD MSTORE PUSH1 0x60 ADD SWAP1 JUMP JUMPDEST PUSH1 0x40 MLOAD DUP1 SWAP2 SUB SWAP1 LOG2 PUSH2 0x1283 PUSH2 0x1C42 JUMP JUMPDEST CALLER PUSH1 0x0 SWAP1 DUP2 MSTORE PUSH1 0x20 DUP2 SWAP1 MSTORE PUSH1 0x40 SWAP1 KECCAK256 TIMESTAMP PUSH1 0x3 SWAP1 SWAP2 ADD SSTORE JUMP JUMPDEST CALLER PUSH1 0x1 PUSH1 0x1 PUSH1 0xA0 SHL SUB AND PUSH32 0x5A68FA7D6B655A3E592D5D99AC82863424750E9D262C902F30F9E56655E7A856 PUSH1 0x40 MLOAD PUSH2 0x1304 SWAP1 PUSH1 0x20 DUP1 DUP3 MSTORE PUSH1 0x12 SWAP1 DUP3 ADD MSTORE PUSH32 0x42656E65666163746F7220697320646561640000000000000000000000000000 PUSH1 0x40 DUP3 ADD MSTORE PUSH1 0x60 ADD SWAP1 JUMP JUMPDEST PUSH1 0x40 MLOAD DUP1 SWAP2 SUB SWAP1 LOG2 JUMP JUMPDEST CALLER PUSH1 0x1 PUSH1 0x1 PUSH1 0xA0 SHL SUB AND PUSH32 0x793324A6F079E577F4A4646C7EC753EFD3BEDDC2F4CE07BFAE5F105C449AC356 PUSH1 0x40 MLOAD PUSH2 0x1273 SWAP1 PUSH1 0x20 DUP1 DUP3 MSTORE PUSH1 0x13 SWAP1 DUP3 ADD MSTORE PUSH32 0x42656E65666163746F7220697320616C69766500000000000000000000000000 PUSH1 0x40 DUP3 ADD MSTORE PUSH1 0x60 ADD SWAP1 JUMP JUMPDEST CALLER PUSH1 0x0 SWAP1 DUP2 MSTORE PUSH1 0x20 DUP2 SWAP1 MSTORE PUSH1 0x40 SWAP1 KECCAK256 SLOAD PUSH1 0xFF AND DUP1 ISZERO PUSH2 0x13AD JUMPI POP CALLER PUSH1 0x0 SWAP1 DUP2 MSTORE PUSH1 0x20 DUP2 SWAP1 MSTORE PUSH1 0x40 SWAP1 KECCAK256 PUSH1 0x4 ADD SLOAD PUSH2 0x100 SWAP1 DIV PUSH1 0xFF AND JUMPDEST PUSH2 0x13F2 JUMPI PUSH1 0x40 MLOAD PUSH3 0x461BCD PUSH1 0xE5 SHL DUP2 MSTORE PUSH1 0x20 PUSH1 0x4 DUP3 ADD MSTORE PUSH1 0x16 PUSH1 0x24 DUP3 ADD MSTORE PUSH22 0x2737BA1030903B30B634B2103132B732B330B1BA37B9 PUSH1 0x51 SHL PUSH1 0x44 DUP3 ADD MSTORE PUSH1 0x64 ADD PUSH2 0x4EF JUMP JUMPDEST PUSH2 0x13FC CALLER DUP4 PUSH2 0x51B JUMP JUMPDEST PUSH2 0x1440 JUMPI PUSH1 0x40 MLOAD PUSH3 0x461BCD PUSH1 0xE5 SHL DUP2 MSTORE PUSH1 0x20 PUSH1 0x4 DUP3 ADD MSTORE PUSH1 0x15 PUSH1 0x24 DUP3 ADD MSTORE PUSH21 0x10995B99599A58DA585C9E481B9BDD08199BDD5B99 PUSH1 0x5A SHL PUSH1 0x44 DUP3 ADD MSTORE PUSH1 0x64 ADD PUSH2 0x4EF JUMP JUMPDEST CALLER PUSH1 0x0 SWAP1 DUP2 MSTORE PUSH1 0x20 DUP2 DUP2 MSTORE PUSH1 0x40 DUP1 DUP4 KECCAK256 PUSH1 0x1 PUSH1 0x1 PUSH1 0xA0 SHL SUB DUP7 AND DUP5 MSTORE PUSH1 0x1 SWAP1 DUP2 ADD SWAP1 SWAP3 MSTORE DUP3 KECCAK256 ADD SWAP1 JUMPDEST DUP3 MLOAD DUP2 LT ISZERO PUSH2 0x164A JUMPI PUSH1 0x0 DUP1 JUMPDEST DUP4 SLOAD DUP2 LT ISZERO PUSH2 0x1521 JUMPI DUP5 DUP4 DUP2 MLOAD DUP2 LT PUSH2 0x1491 JUMPI PUSH2 0x1491 PUSH2 0x243A JUMP JUMPDEST PUSH1 0x20 MUL PUSH1 0x20 ADD ADD MLOAD PUSH1 0x40 MLOAD PUSH1 0x20 ADD PUSH2 0x14A9 SWAP2 SWAP1 PUSH2 0x2469 JUMP JUMPDEST PUSH1 0x40 MLOAD PUSH1 0x20 DUP2 DUP4 SUB SUB DUP2 MSTORE SWAP1 PUSH1 0x40 MSTORE DUP1 MLOAD SWAP1 PUSH1 0x20 ADD KECCAK256 DUP5 DUP3 DUP2 SLOAD DUP2 LT PUSH2 0x14D1 JUMPI PUSH2 0x14D1 PUSH2 0x243A JUMP JUMPDEST SWAP1 PUSH1 0x0 MSTORE PUSH1 0x20 PUSH1 0x0 KECCAK256 ADD PUSH1 0x40 MLOAD PUSH1 0x20 ADD PUSH2 0x14EB SWAP2 SWAP1 PUSH2 0x2485 JUMP JUMPDEST PUSH1 0x40 MLOAD PUSH1 0x20 DUP2 DUP4 SUB SUB DUP2 MSTORE SWAP1 PUSH1 0x40 MSTORE DUP1 MLOAD SWAP1 PUSH1 0x20 ADD KECCAK256 SUB PUSH2 0x150F JUMPI PUSH1 0x1 SWAP2 POP PUSH2 0x1521 JUMP JUMPDEST DUP1 PUSH2 0x1519 DUP2 PUSH2 0x2450 JUMP JUMPDEST SWAP2 POP POP PUSH2 0x1476 JUMP JUMPDEST POP DUP1 ISZERO PUSH2 0x1596 JUMPI PUSH1 0x40 MLOAD PUSH3 0x461BCD PUSH1 0xE5 SHL DUP2 MSTORE PUSH1 0x20 PUSH1 0x4 DUP3 ADD MSTORE PUSH1 0x28 PUSH1 0x24 DUP3 ADD MSTORE PUSH32 0x43494420616C72656164792061737369676E656420746F20746869732062656E PUSH1 0x44 DUP3 ADD MSTORE PUSH32 0x6566696369617279000000000000000000000000000000000000000000000000 PUSH1 0x64 DUP3 ADD MSTORE PUSH1 0x84 ADD PUSH2 0x4EF JUMP JUMPDEST DUP3 DUP5 DUP4 DUP2 MLOAD DUP2 LT PUSH2 0x15A9 JUMPI PUSH2 0x15A9 PUSH2 0x243A JUMP JUMPDEST PUSH1 0x20 SWAP1 DUP2 MUL SWAP2 SWAP1 SWAP2 ADD DUP2 ADD MLOAD DUP3 SLOAD PUSH1 0x1 DUP2 ADD DUP5 SSTORE PUSH1 0x0 SWAP4 DUP5 MSTORE SWAP2 SWAP1 SWAP3 KECCAK256 ADD SWAP1 PUSH2 0x15D2 SWAP1 DUP3 PUSH2 0x237A JUMP JUMPDEST POP DUP5 PUSH1 0x1 PUSH1 0x1 PUSH1 0xA0 SHL SUB AND CALLER PUSH1 0x1 PUSH1 0x1 PUSH1 0xA0 SHL SUB AND PUSH32 0xA1BB52B874769D5C17CDE30E708E8F7180BB949F70E77CAF0DA68D25F9A1A510 DUP7 DUP6 DUP2 MLOAD DUP2 LT PUSH2 0x161A JUMPI PUSH2 0x161A PUSH2 0x243A JUMP JUMPDEST PUSH1 0x20 MUL PUSH1 0x20 ADD ADD MLOAD PUSH1 0x40 MLOAD PUSH2 0x162F SWAP2 SWAP1 PUSH2 0x2081 JUMP JUMPDEST PUSH1 0x40 MLOAD DUP1 SWAP2 SUB SWAP1 LOG3 POP DUP1 PUSH2 0x1642 DUP2 PUSH2 0x2450 JUMP JUMPDEST SWAP2 POP POP PUSH2 0x1469 JUMP JUMPDEST POP POP POP POP JUMP JUMPDEST PUSH1 0x60 PUSH2 0x165C DUP4 DUP4 PUSH2 0x51B JUMP JUMPDEST PUSH2 0x16A0 JUMPI PUSH1 0x40 MLOAD PUSH3 0x461BCD PUSH1 0xE5 SHL DUP2 MSTORE PUSH1 0x20 PUSH1 0x4 DUP3 ADD MSTORE PUSH1 0x15 PUSH1 0x24 DUP3 ADD MSTORE PUSH21 0x10995B99599A58DA585C9E481B9BDD08199BDD5B99 PUSH1 0x5A SHL PUSH1 0x44 DUP3 ADD MSTORE PUSH1 0x64 ADD PUSH2 0x4EF JUMP JUMPDEST PUSH1 0x1 PUSH1 0x1 PUSH1 0xA0 SHL SUB DUP4 AND PUSH1 0x0 SWAP1 DUP2 MSTORE PUSH1 0x20 DUP2 DUP2 MSTORE PUSH1 0x40 DUP1 DUP4 KECCAK256 CALLER DUP5 MSTORE PUSH1 0x1 ADD SWAP1 SWAP2 MSTORE SWAP1 KECCAK256 SLOAD PUSH1 0xFF AND DUP1 ISZERO PUSH2 0x16F5 JUMPI POP PUSH1 0x1 PUSH1 0x1 PUSH1 0xA0 SHL SUB DUP4 AND PUSH1 0x0 SWAP1 DUP2 MSTORE PUSH1 0x20 DUP2 SWAP1 MSTORE PUSH1 0x40 SWAP1 KECCAK256 PUSH1 0x4 ADD SLOAD PUSH2 0x100 SWAP1 DIV PUSH1 0xFF AND ISZERO JUMPDEST PUSH2 0x1741 JUMPI PUSH1 0x40 MLOAD PUSH3 0x461BCD PUSH1 0xE5 SHL DUP2 MSTORE PUSH1 0x20 PUSH1 0x4 DUP3 ADD MSTORE PUSH1 0x11 PUSH1 0x24 DUP3 ADD MSTORE PUSH32 0x4E6F2061636365737320746F2043494473000000000000000000000000000000 PUSH1 0x44 DUP3 ADD MSTORE PUSH1 0x64 ADD PUSH2 0x4EF JUMP JUMPDEST PUSH1 0x1 PUSH1 0x1 PUSH1 0xA0 SHL SUB DUP1 DUP5 AND PUSH1 0x0 SWAP1 DUP2 MSTORE PUSH1 0x20 DUP2 DUP2 MSTORE PUSH1 0x40 DUP1 DUP4 KECCAK256 SWAP4 DUP7 AND DUP4 MSTORE PUSH1 0x1 SWAP4 DUP5 ADD DUP3 MSTORE DUP1 DUP4 KECCAK256 SWAP1 SWAP4 ADD DUP1 SLOAD DUP5 MLOAD DUP2 DUP5 MUL DUP2 ADD DUP5 ADD SWAP1 SWAP6 MSTORE DUP1 DUP6 MSTORE SWAP1 SWAP3 SWAP1 SWAP2 DUP5 ADD JUMPDEST DUP3 DUP3 LT ISZERO PUSH2 0x1831 JUMPI DUP4 DUP3 SWAP1 PUSH1 0x0 MSTORE PUSH1 0x20 PUSH1 0x0 KECCAK256 ADD DUP1 SLOAD PUSH2 0x17A4 SWAP1 PUSH2 0x22F2 JUMP JUMPDEST DUP1 PUSH1 0x1F ADD PUSH1 0x20 DUP1 SWAP2 DIV MUL PUSH1 0x20 ADD PUSH1 0x40 MLOAD SWAP1 DUP2 ADD PUSH1 0x40 MSTORE DUP1 SWAP3 SWAP2 SWAP1 DUP2 DUP2 MSTORE PUSH1 0x20 ADD DUP3 DUP1 SLOAD PUSH2 0x17D0 SWAP1 PUSH2 0x22F2 JUMP JUMPDEST DUP1 ISZERO PUSH2 0x181D JUMPI DUP1 PUSH1 0x1F LT PUSH2 0x17F2 JUMPI PUSH2 0x100 DUP1 DUP4 SLOAD DIV MUL DUP4 MSTORE SWAP2 PUSH1 0x20 ADD SWAP2 PUSH2 0x181D JUMP JUMPDEST DUP3 ADD SWAP2 SWAP1 PUSH1 0x0 MSTORE PUSH1 0x20 PUSH1 0x0 KECCAK256 SWAP1 JUMPDEST DUP2 SLOAD DUP2 MSTORE SWAP1 PUSH1 0x1 ADD SWAP1 PUSH1 0x20 ADD DUP1 DUP4 GT PUSH2 0x1800 JUMPI DUP3 SWAP1 SUB PUSH1 0x1F AND DUP3 ADD SWAP2 JUMPDEST POP POP POP POP POP DUP2 MSTORE PUSH1 0x20 ADD SWAP1 PUSH1 0x1 ADD SWAP1 PUSH2 0x1785 JUMP JUMPDEST POP POP POP POP SWAP1 POP SWAP3 SWAP2 POP POP JUMP JUMPDEST PUSH1 0x1 PUSH1 0x1 PUSH1 0xA0 SHL SUB DUP2 AND PUSH1 0x0 SWAP1 DUP2 MSTORE PUSH1 0x20 DUP2 SWAP1 MSTORE PUSH1 0x40 DUP2 KECCAK256 SLOAD PUSH1 0x60 SWAP1 DUP3 SWAP1 DUP2 SWAP1 DUP4 SWAP1 PUSH1 0xFF AND PUSH2 0x18AE JUMPI PUSH1 0x40 MLOAD PUSH3 0x461BCD PUSH1 0xE5 SHL DUP2 MSTORE PUSH1 0x20 PUSH1 0x4 DUP3 ADD MSTORE PUSH1 0x19 PUSH1 0x24 DUP3 ADD MSTORE PUSH32 0x42656E65666163746F7220646F6573206E6F7420657869737400000000000000 PUSH1 0x44 DUP3 ADD MSTORE PUSH1 0x64 ADD PUSH2 0x4EF JUMP JUMPDEST PUSH1 0x1 PUSH1 0x1 PUSH1 0xA0 SHL SUB DUP7 AND PUSH1 0x0 SWAP1 DUP2 MSTORE PUSH1 0x20 DUP2 DUP2 MSTORE PUSH1 0x40 DUP1 DUP4 KECCAK256 PUSH1 0x4 ADD SLOAD PUSH1 0x1 SWAP1 SWAP3 MSTORE SWAP1 SWAP2 KECCAK256 SLOAD PUSH1 0xFF SWAP1 SWAP2 AND ISZERO SWAP6 POP PUSH8 0xFFFFFFFFFFFFFFFF DUP2 GT ISZERO PUSH2 0x18F4 JUMPI PUSH2 0x18F4 PUSH2 0x1EA7 JUMP JUMPDEST PUSH1 0x40 MLOAD SWAP1 DUP1 DUP3 MSTORE DUP1 PUSH1 0x20 MUL PUSH1 0x20 ADD DUP3 ADD PUSH1 0x40 MSTORE DUP1 ISZERO PUSH2 0x191D JUMPI DUP2 PUSH1 0x20 ADD PUSH1 0x20 DUP3 MUL DUP1 CALLDATASIZE DUP4 CALLDATACOPY ADD SWAP1 POP JUMPDEST POP SWAP4 POP PUSH1 0x0 DUP1 JUMPDEST DUP6 MLOAD DUP2 LT ISZERO PUSH2 0x1A26 JUMPI PUSH1 0x1 PUSH1 0x1 PUSH1 0xA0 SHL SUB DUP9 AND PUSH1 0x0 SWAP1 DUP2 MSTORE PUSH1 0x20 DUP2 DUP2 MSTORE PUSH1 0x40 DUP1 DUP4 KECCAK256 PUSH1 0x1 SWAP3 DUP4 SWAP1 MSTORE SWAP1 DUP4 KECCAK256 DUP1 SLOAD SWAP3 SWAP1 SWAP2 ADD SWAP3 SWAP2 DUP5 SWAP1 DUP2 LT PUSH2 0x1967 JUMPI PUSH2 0x1967 PUSH2 0x243A JUMP JUMPDEST PUSH1 0x0 SWAP2 DUP3 MSTORE PUSH1 0x20 DUP1 DUP4 KECCAK256 SWAP1 SWAP2 ADD SLOAD PUSH1 0x1 PUSH1 0x1 PUSH1 0xA0 SHL SUB AND DUP4 MSTORE DUP3 ADD SWAP3 SWAP1 SWAP3 MSTORE PUSH1 0x40 ADD SWAP1 KECCAK256 SLOAD PUSH1 0xFF AND ISZERO PUSH2 0x1A14 JUMPI PUSH1 0x1 PUSH1 0x1 PUSH1 0xA0 SHL SUB DUP9 AND PUSH1 0x0 SWAP1 DUP2 MSTORE PUSH1 0x1 PUSH1 0x20 MSTORE PUSH1 0x40 SWAP1 KECCAK256 DUP1 SLOAD DUP3 SWAP1 DUP2 LT PUSH2 0x19BE JUMPI PUSH2 0x19BE PUSH2 0x243A JUMP JUMPDEST SWAP1 PUSH1 0x0 MSTORE PUSH1 0x20 PUSH1 0x0 KECCAK256 ADD PUSH1 0x0 SWAP1 SLOAD SWAP1 PUSH2 0x100 EXP SWAP1 DIV PUSH1 0x1 PUSH1 0x1 PUSH1 0xA0 SHL SUB AND DUP7 DUP4 DUP2 MLOAD DUP2 LT PUSH2 0x19EE JUMPI PUSH2 0x19EE PUSH2 0x243A JUMP JUMPDEST PUSH1 0x1 PUSH1 0x1 PUSH1 0xA0 SHL SUB SWAP1 SWAP3 AND PUSH1 0x20 SWAP3 DUP4 MUL SWAP2 SWAP1 SWAP2 ADD SWAP1 SWAP2 ADD MSTORE DUP2 PUSH2 0x1A10 DUP2 PUSH2 0x2450 JUMP JUMPDEST SWAP3 POP POP JUMPDEST DUP1 PUSH2 0x1A1E DUP2 PUSH2 0x2450 JUMP JUMPDEST SWAP2 POP POP PUSH2 0x1924 JUMP JUMPDEST POP PUSH1 0x1 PUSH1 0x1 PUSH1 0xA0 SHL SUB DUP8 AND PUSH1 0x0 SWAP1 DUP2 MSTORE PUSH1 0x20 DUP2 SWAP1 MSTORE PUSH1 0x40 SWAP1 KECCAK256 PUSH1 0x4 ADD SLOAD PUSH1 0xFF AND ISZERO PUSH2 0x1A54 JUMPI PUSH1 0x0 SWAP4 POP PUSH2 0x1A60 JUMP JUMPDEST PUSH2 0x1A5D DUP8 PUSH2 0x309 JUMP JUMPDEST SWAP4 POP JUMPDEST PUSH1 0x1 PUSH1 0x1 PUSH1 0xA0 SHL SUB DUP8 AND PUSH1 0x0 SWAP1 DUP2 MSTORE PUSH1 0x20 DUP2 SWAP1 MSTORE PUSH1 0x40 SWAP1 KECCAK256 PUSH1 0x4 DUP2 ADD SLOAD PUSH1 0x5 SWAP1 SWAP2 ADD DUP1 SLOAD PUSH2 0x100 SWAP1 SWAP3 DIV PUSH1 0xFF AND SWAP5 POP SWAP1 PUSH2 0x1A99 SWAP1 PUSH2 0x22F2 JUMP JUMPDEST DUP1 PUSH1 0x1F ADD PUSH1 0x20 DUP1 SWAP2 DIV MUL PUSH1 0x20 ADD PUSH1 0x40 MLOAD SWAP1 DUP2 ADD PUSH1 0x40 MSTORE DUP1 SWAP3 SWAP2 SWAP1 DUP2 DUP2 MSTORE PUSH1 0x20 ADD DUP3 DUP1 SLOAD PUSH2 0x1AC5 SWAP1 PUSH2 0x22F2 JUMP JUMPDEST DUP1 ISZERO PUSH2 0x1B12 JUMPI DUP1 PUSH1 0x1F LT PUSH2 0x1AE7 JUMPI PUSH2 0x100 DUP1 DUP4 SLOAD DIV MUL DUP4 MSTORE SWAP2 PUSH1 0x20 ADD SWAP2 PUSH2 0x1B12 JUMP JUMPDEST DUP3 ADD SWAP2 SWAP1 PUSH1 0x0 MSTORE PUSH1 0x20 PUSH1 0x0 KECCAK256 SWAP1 JUMPDEST DUP2 SLOAD DUP2 MSTORE SWAP1 PUSH1 0x1 ADD SWAP1 PUSH1 0x20 ADD DUP1 DUP4 GT PUSH2 0x1AF5 JUMPI DUP3 SWAP1 SUB PUSH1 0x1F AND DUP3 ADD SWAP2 JUMPDEST POP POP POP POP POP SWAP2 POP PUSH32 0xFABE15A5563524B62AC7272583AB636D27EB845BB5DEB57B32BF755C3DB029B DUP7 DUP7 DUP7 DUP7 DUP7 PUSH1 0x40 MLOAD PUSH2 0x1B50 SWAP6 SWAP5 SWAP4 SWAP3 SWAP2 SWAP1 PUSH2 0x224D JUMP JUMPDEST PUSH1 0x40 MLOAD DUP1 SWAP2 SUB SWAP1 LOG1 POP SWAP2 SWAP4 SWAP6 SWAP1 SWAP3 SWAP5 POP JUMP JUMPDEST PUSH1 0x60 PUSH2 0x1B6E DUP4 DUP4 PUSH2 0x51B JUMP JUMPDEST ISZERO PUSH2 0x1C2D JUMPI PUSH1 0x1 PUSH1 0x1 PUSH1 0xA0 SHL SUB DUP1 DUP5 AND PUSH1 0x0 SWAP1 DUP2 MSTORE PUSH1 0x20 DUP2 DUP2 MSTORE PUSH1 0x40 DUP1 DUP4 KECCAK256 SWAP4 DUP7 AND DUP4 MSTORE PUSH1 0x1 SWAP1 SWAP4 ADD SWAP1 MSTORE KECCAK256 PUSH1 0x2 ADD DUP1 SLOAD PUSH2 0x1BA8 SWAP1 PUSH2 0x22F2 JUMP JUMPDEST DUP1 PUSH1 0x1F ADD PUSH1 0x20 DUP1 SWAP2 DIV MUL PUSH1 0x20 ADD PUSH1 0x40 MLOAD SWAP1 DUP2 ADD PUSH1 0x40 MSTORE DUP1 SWAP3 SWAP2 SWAP1 DUP2 DUP2 MSTORE PUSH1 0x20 ADD DUP3 DUP1 SLOAD PUSH2 0x1BD4 SWAP1 PUSH2 0x22F2 JUMP JUMPDEST DUP1 ISZERO PUSH2 0x1C21 JUMPI DUP1 PUSH1 0x1F LT PUSH2 0x1BF6 JUMPI PUSH2 0x100 DUP1 DUP4 SLOAD DIV MUL DUP4 MSTORE SWAP2 PUSH1 0x20 ADD SWAP2 PUSH2 0x1C21 JUMP JUMPDEST DUP3 ADD SWAP2 SWAP1 PUSH1 0x0 MSTORE PUSH1 0x20 PUSH1 0x0 KECCAK256 SWAP1 JUMPDEST DUP2 SLOAD DUP2 MSTORE SWAP1 PUSH1 0x1 ADD SWAP1 PUSH1 0x20 ADD DUP1 DUP4 GT PUSH2 0x1C04 JUMPI DUP3 SWAP1 SUB PUSH1 0x1F AND DUP3 ADD SWAP2 JUMPDEST POP POP POP POP POP SWAP1 POP PUSH2 0x547 JUMP JUMPDEST POP PUSH1 0x40 DUP1 MLOAD PUSH1 0x20 DUP2 ADD SWAP1 SWAP2 MSTORE PUSH1 0x0 DUP2 MSTORE PUSH2 0x547 JUMP JUMPDEST CALLER PUSH1 0x0 SWAP1 DUP2 MSTORE PUSH1 0x20 DUP2 SWAP1 MSTORE PUSH1 0x40 SWAP1 KECCAK256 SLOAD PUSH1 0xFF AND DUP1 ISZERO PUSH2 0x1C78 JUMPI POP CALLER PUSH1 0x0 SWAP1 DUP2 MSTORE PUSH1 0x20 DUP2 SWAP1 MSTORE PUSH1 0x40 SWAP1 KECCAK256 PUSH1 0x4 ADD SLOAD PUSH2 0x100 SWAP1 DIV PUSH1 0xFF AND JUMPDEST PUSH2 0x1CBD JUMPI PUSH1 0x40 MLOAD PUSH3 0x461BCD PUSH1 0xE5 SHL DUP2 MSTORE PUSH1 0x20 PUSH1 0x4 DUP3 ADD MSTORE PUSH1 0x16 PUSH1 0x24 DUP3 ADD MSTORE PUSH22 0x2737BA1030903B30B634B2103132B732B330B1BA37B9 PUSH1 0x51 SHL PUSH1 0x44 DUP3 ADD MSTORE PUSH1 0x64 ADD PUSH2 0x4EF JUMP JUMPDEST CALLER PUSH1 0x0 SWAP1 DUP2 MSTORE PUSH1 0x20 DUP2 SWAP1 MSTORE PUSH1 0x40 SWAP1 KECCAK256 PUSH1 0x4 ADD SLOAD PUSH1 0xFF AND ISZERO PUSH2 0x1D07 JUMPI PUSH1 0x40 MLOAD CALLER SWAP1 DUP2 SWAP1 PUSH32 0x439C5AAF7691CB4808DBD2A240323CE9EC0D04D66DDF65FFD5F88EBD60FA745B SWAP1 PUSH1 0x0 SWAP1 LOG3 JUMP JUMPDEST CALLER PUSH1 0x0 DUP2 DUP2 MSTORE PUSH1 0x20 DUP2 SWAP1 MSTORE PUSH1 0x40 SWAP1 DUP2 SWAP1 KECCAK256 PUSH1 0x4 ADD DUP1 SLOAD PUSH1 0xFF NOT AND PUSH1 0x1 OR SWAP1 SSTORE MLOAD DUP2 SWAP1 PUSH32 0x9BAA855D20DE9B1A4DB454F55B09D1DB5F42F0871BBEA3B0C699146ADE171625 SWAP1 PUSH2 0x1D58 SWAP1 TIMESTAMP DUP2 MSTORE PUSH1 0x20 ADD SWAP1 JUMP JUMPDEST PUSH1 0x40 MLOAD DUP1 SWAP2 SUB SWAP1 LOG3 JUMP JUMPDEST DUP3 DUP1 SLOAD DUP3 DUP3 SSTORE SWAP1 PUSH1 0x0 MSTORE PUSH1 0x20 PUSH1 0x0 KECCAK256 SWAP1 DUP2 ADD SWAP3 DUP3 ISZERO PUSH2 0x1DA8 JUMPI SWAP2 PUSH1 0x20 MUL DUP3 ADD JUMPDEST DUP3 DUP2 GT ISZERO PUSH2 0x1DA8 JUMPI DUP3 MLOAD DUP3 SWAP1 PUSH2 0x1D98 SWAP1 DUP3 PUSH2 0x237A JUMP JUMPDEST POP SWAP2 PUSH1 0x20 ADD SWAP2 SWAP1 PUSH1 0x1 ADD SWAP1 PUSH2 0x1D82 JUMP JUMPDEST POP PUSH2 0x1DB4 SWAP3 SWAP2 POP PUSH2 0x1E10 JUMP JUMPDEST POP SWAP1 JUMP JUMPDEST POP DUP1 SLOAD PUSH1 0x0 DUP3 SSTORE SWAP1 PUSH1 0x0 MSTORE PUSH1 0x20 PUSH1 0x0 KECCAK256 SWAP1 DUP2 ADD SWAP1 PUSH2 0x5AC SWAP2 SWAP1 PUSH2 0x1E10 JUMP JUMPDEST POP DUP1 SLOAD PUSH2 0x1DE2 SWAP1 PUSH2 0x22F2 JUMP JUMPDEST PUSH1 0x0 DUP3 SSTORE DUP1 PUSH1 0x1F LT PUSH2 0x1DF2 JUMPI POP POP JUMP JUMPDEST PUSH1 0x1F ADD PUSH1 0x20 SWAP1 DIV SWAP1 PUSH1 0x0 MSTORE PUSH1 0x20 PUSH1 0x0 KECCAK256 SWAP1 DUP2 ADD SWAP1 PUSH2 0x5AC SWAP2 SWAP1 PUSH2 0x1E2D JUMP JUMPDEST DUP1 DUP3 GT ISZERO PUSH2 0x1DB4 JUMPI PUSH1 0x0 PUSH2 0x1E24 DUP3 DUP3 PUSH2 0x1DD6 JUMP JUMPDEST POP PUSH1 0x1 ADD PUSH2 0x1E10 JUMP JUMPDEST JUMPDEST DUP1 DUP3 GT ISZERO PUSH2 0x1DB4 JUMPI PUSH1 0x0 DUP2 SSTORE PUSH1 0x1 ADD PUSH2 0x1E2E JUMP JUMPDEST DUP1 CALLDATALOAD PUSH1 0x1 PUSH1 0x1 PUSH1 0xA0 SHL SUB DUP2 AND DUP2 EQ PUSH2 0xAB1 JUMPI PUSH1 0x0 DUP1 REVERT JUMPDEST PUSH1 0x0 PUSH1 0x20 DUP3 DUP5 SUB SLT ISZERO PUSH2 0x1E6B JUMPI PUSH1 0x0 DUP1 REVERT JUMPDEST PUSH2 0x3F0 DUP3 PUSH2 0x1E42 JUMP JUMPDEST PUSH1 0x0 DUP1 PUSH1 0x40 DUP4 DUP6 SUB SLT ISZERO PUSH2 0x1E87 JUMPI PUSH1 0x0 DUP1 REVERT JUMPDEST PUSH2 0x1E90 DUP4 PUSH2 0x1E42 JUMP JUMPDEST SWAP2 POP PUSH2 0x1E9E PUSH1 0x20 DUP5 ADD PUSH2 0x1E42 JUMP JUMPDEST SWAP1 POP SWAP3 POP SWAP3 SWAP1 POP JUMP JUMPDEST PUSH4 0x4E487B71 PUSH1 0xE0 SHL PUSH1 0x0 MSTORE PUSH1 0x41 PUSH1 0x4 MSTORE PUSH1 0x24 PUSH1 0x0 REVERT JUMPDEST PUSH1 0x40 MLOAD PUSH1 0x1F DUP3 ADD PUSH1 0x1F NOT AND DUP2 ADD PUSH8 0xFFFFFFFFFFFFFFFF DUP2 GT DUP3 DUP3 LT OR ISZERO PUSH2 0x1EE6 JUMPI PUSH2 0x1EE6 PUSH2 0x1EA7 JUMP JUMPDEST PUSH1 0x40 MSTORE SWAP2 SWAP1 POP JUMP JUMPDEST PUSH1 0x0 DUP3 PUSH1 0x1F DUP4 ADD SLT PUSH2 0x1EFF JUMPI PUSH1 0x0 DUP1 REVERT JUMPDEST DUP2 CALLDATALOAD PUSH8 0xFFFFFFFFFFFFFFFF DUP2 GT ISZERO PUSH2 0x1F19 JUMPI PUSH2 0x1F19 PUSH2 0x1EA7 JUMP JUMPDEST PUSH2 0x1F2C PUSH1 0x1F DUP3 ADD PUSH1 0x1F NOT AND PUSH1 0x20 ADD PUSH2 0x1EBD JUMP JUMPDEST DUP2 DUP2 MSTORE DUP5 PUSH1 0x20 DUP4 DUP7 ADD ADD GT ISZERO PUSH2 0x1F41 JUMPI PUSH1 0x0 DUP1 REVERT JUMPDEST DUP2 PUSH1 0x20 DUP6 ADD PUSH1 0x20 DUP4 ADD CALLDATACOPY PUSH1 0x0 SWAP2 DUP2 ADD PUSH1 0x20 ADD SWAP2 SWAP1 SWAP2 MSTORE SWAP4 SWAP3 POP POP POP JUMP JUMPDEST PUSH1 0x0 DUP1 PUSH1 0x0 PUSH1 0x60 DUP5 DUP7 SUB SLT ISZERO PUSH2 0x1F73 JUMPI PUSH1 0x0 DUP1 REVERT JUMPDEST PUSH2 0x1F7C DUP5 PUSH2 0x1E42 JUMP JUMPDEST SWAP3 POP PUSH2 0x1F8A PUSH1 0x20 DUP6 ADD PUSH2 0x1E42 JUMP JUMPDEST SWAP2 POP PUSH1 0x40 DUP5 ADD CALLDATALOAD PUSH8 0xFFFFFFFFFFFFFFFF DUP2 GT ISZERO PUSH2 0x1FA6 JUMPI PUSH1 0x0 DUP1 REVERT JUMPDEST PUSH2 0x1FB2 DUP7 DUP3 DUP8 ADD PUSH2 0x1EEE JUMP JUMPDEST SWAP2 POP POP SWAP3 POP SWAP3 POP SWAP3 JUMP JUMPDEST PUSH1 0x0 DUP1 PUSH1 0x20 DUP4 DUP6 SUB SLT ISZERO PUSH2 0x1FCF JUMPI PUSH1 0x0 DUP1 REVERT JUMPDEST DUP3 CALLDATALOAD PUSH8 0xFFFFFFFFFFFFFFFF DUP1 DUP3 GT ISZERO PUSH2 0x1FE7 JUMPI PUSH1 0x0 DUP1 REVERT JUMPDEST DUP2 DUP6 ADD SWAP2 POP DUP6 PUSH1 0x1F DUP4 ADD SLT PUSH2 0x1FFB JUMPI PUSH1 0x0 DUP1 REVERT JUMPDEST DUP2 CALLDATALOAD DUP2 DUP2 GT ISZERO PUSH2 0x200A JUMPI PUSH1 0x0 DUP1 REVERT JUMPDEST DUP7 PUSH1 0x20 DUP3 PUSH1 0x5 SHL DUP6 ADD ADD GT ISZERO PUSH2 0x201F JUMPI PUSH1 0x0 DUP1 REVERT JUMPDEST PUSH1 0x20 SWAP3 SWAP1 SWAP3 ADD SWAP7 SWAP2 SWAP6 POP SWAP1 SWAP4 POP POP POP POP JUMP JUMPDEST PUSH1 0x0 JUMPDEST DUP4 DUP2 LT ISZERO PUSH2 0x204C JUMPI DUP2 DUP2 ADD MLOAD DUP4 DUP3 ADD MSTORE PUSH1 0x20 ADD PUSH2 0x2034 JUMP JUMPDEST POP POP PUSH1 0x0 SWAP2 ADD MSTORE JUMP JUMPDEST PUSH1 0x0 DUP2 MLOAD DUP1 DUP5 MSTORE PUSH2 0x206D DUP2 PUSH1 0x20 DUP7 ADD PUSH1 0x20 DUP7 ADD PUSH2 0x2031 JUMP JUMPDEST PUSH1 0x1F ADD PUSH1 0x1F NOT AND SWAP3 SWAP1 SWAP3 ADD PUSH1 0x20 ADD SWAP3 SWAP2 POP POP JUMP JUMPDEST PUSH1 0x20 DUP2 MSTORE PUSH1 0x0 PUSH2 0x3F0 PUSH1 0x20 DUP4 ADD DUP5 PUSH2 0x2055 JUMP JUMPDEST PUSH1 0x0 DUP1 PUSH1 0x40 DUP4 DUP6 SUB SLT ISZERO PUSH2 0x20A7 JUMPI PUSH1 0x0 DUP1 REVERT JUMPDEST PUSH2 0x20B0 DUP4 PUSH2 0x1E42 JUMP JUMPDEST SWAP2 POP PUSH1 0x20 DUP4 ADD CALLDATALOAD PUSH8 0xFFFFFFFFFFFFFFFF DUP2 GT ISZERO PUSH2 0x20CC JUMPI PUSH1 0x0 DUP1 REVERT JUMPDEST PUSH2 0x20D8 DUP6 DUP3 DUP7 ADD PUSH2 0x1EEE JUMP JUMPDEST SWAP2 POP POP SWAP3 POP SWAP3 SWAP1 POP JUMP JUMPDEST DUP5 ISZERO ISZERO DUP2 MSTORE DUP4 PUSH1 0x20 DUP3 ADD MSTORE DUP3 ISZERO ISZERO PUSH1 0x40 DUP3 ADD MSTORE PUSH1 0x80 PUSH1 0x60 DUP3 ADD MSTORE PUSH1 0x0 PUSH2 0x210B PUSH1 0x80 DUP4 ADD DUP5 PUSH2 0x2055 JUMP JUMPDEST SWAP7 SWAP6 POP POP POP POP POP POP JUMP JUMPDEST PUSH1 0x0 DUP1 PUSH1 0x40 DUP4 DUP6 SUB SLT ISZERO PUSH2 0x2128 JUMPI PUSH1 0x0 DUP1 REVERT JUMPDEST PUSH2 0x2131 DUP4 PUSH2 0x1E42 JUMP JUMPDEST SWAP2 POP PUSH1 0x20 DUP1 DUP5 ADD CALLDATALOAD PUSH8 0xFFFFFFFFFFFFFFFF DUP1 DUP3 GT ISZERO PUSH2 0x214F JUMPI PUSH1 0x0 DUP1 REVERT JUMPDEST DUP2 DUP7 ADD SWAP2 POP DUP7 PUSH1 0x1F DUP4 ADD SLT PUSH2 0x2163 JUMPI PUSH1 0x0 DUP1 REVERT JUMPDEST DUP2 CALLDATALOAD DUP2 DUP2 GT ISZERO PUSH2 0x2175 JUMPI PUSH2 0x2175 PUSH2 0x1EA7 JUMP JUMPDEST DUP1 PUSH1 0x5 SHL PUSH2 0x2184 DUP6 DUP3 ADD PUSH2 0x1EBD JUMP JUMPDEST SWAP2 DUP3 MSTORE DUP4 DUP2 ADD DUP6 ADD SWAP2 DUP6 DUP2 ADD SWAP1 DUP11 DUP5 GT ISZERO PUSH2 0x219E JUMPI PUSH1 0x0 DUP1 REVERT JUMPDEST DUP7 DUP7 ADD SWAP3 POP JUMPDEST DUP4 DUP4 LT ISZERO PUSH2 0x21DA JUMPI DUP3 CALLDATALOAD DUP6 DUP2 GT ISZERO PUSH2 0x21BC JUMPI PUSH1 0x0 DUP1 DUP2 REVERT JUMPDEST PUSH2 0x21CA DUP13 DUP10 DUP4 DUP11 ADD ADD PUSH2 0x1EEE JUMP JUMPDEST DUP4 MSTORE POP SWAP2 DUP7 ADD SWAP2 SWAP1 DUP7 ADD SWAP1 PUSH2 0x21A4 JUMP JUMPDEST DUP1 SWAP8 POP POP POP POP POP POP POP POP SWAP3 POP SWAP3 SWAP1 POP JUMP JUMPDEST PUSH1 0x0 PUSH1 0x20 DUP1 DUP4 ADD DUP2 DUP5 MSTORE DUP1 DUP6 MLOAD DUP1 DUP4 MSTORE PUSH1 0x40 DUP7 ADD SWAP2 POP PUSH1 0x40 DUP2 PUSH1 0x5 SHL DUP8 ADD ADD SWAP3 POP DUP4 DUP8 ADD PUSH1 0x0 JUMPDEST DUP3 DUP2 LT ISZERO PUSH2 0x2240 JUMPI PUSH1 0x3F NOT DUP9 DUP7 SUB ADD DUP5 MSTORE PUSH2 0x222E DUP6 DUP4 MLOAD PUSH2 0x2055 JUMP JUMPDEST SWAP5 POP SWAP3 DUP6 ADD SWAP3 SWAP1 DUP6 ADD SWAP1 PUSH1 0x1 ADD PUSH2 0x2212 JUMP JUMPDEST POP SWAP3 SWAP8 SWAP7 POP POP POP POP POP POP POP JUMP JUMPDEST PUSH1 0x0 PUSH1 0xA0 DUP3 ADD DUP8 ISZERO ISZERO DUP4 MSTORE PUSH1 0x20 PUSH1 0xA0 DUP2 DUP6 ADD MSTORE DUP2 DUP9 MLOAD DUP1 DUP5 MSTORE PUSH1 0xC0 DUP7 ADD SWAP2 POP DUP3 DUP11 ADD SWAP4 POP PUSH1 0x0 JUMPDEST DUP2 DUP2 LT ISZERO PUSH2 0x2299 JUMPI DUP5 MLOAD PUSH1 0x1 PUSH1 0x1 PUSH1 0xA0 SHL SUB AND DUP4 MSTORE SWAP4 DUP4 ADD SWAP4 SWAP2 DUP4 ADD SWAP2 PUSH1 0x1 ADD PUSH2 0x2274 JUMP JUMPDEST POP POP DUP8 PUSH1 0x40 DUP7 ADD MSTORE DUP7 ISZERO ISZERO PUSH1 0x60 DUP7 ADD MSTORE DUP5 DUP2 SUB PUSH1 0x80 DUP7 ADD MSTORE PUSH2 0x22BB DUP2 DUP8 PUSH2 0x2055 JUMP JUMPDEST SWAP11 SWAP10 POP POP POP POP POP POP POP POP POP POP JUMP JUMPDEST PUSH4 0x4E487B71 PUSH1 0xE0 SHL PUSH1 0x0 MSTORE PUSH1 0x11 PUSH1 0x4 MSTORE PUSH1 0x24 PUSH1 0x0 REVERT JUMPDEST DUP2 DUP2 SUB DUP2 DUP2 GT ISZERO PUSH2 0x547 JUMPI PUSH2 0x547 PUSH2 0x22C9 JUMP JUMPDEST PUSH1 0x1 DUP2 DUP2 SHR SWAP1 DUP3 AND DUP1 PUSH2 0x2306 JUMPI PUSH1 0x7F DUP3 AND SWAP2 POP JUMPDEST PUSH1 0x20 DUP3 LT DUP2 SUB PUSH2 0x2326 JUMPI PUSH4 0x4E487B71 PUSH1 0xE0 SHL PUSH1 0x0 MSTORE PUSH1 0x22 PUSH1 0x4 MSTORE PUSH1 0x24 PUSH1 0x0 REVERT JUMPDEST POP SWAP2 SWAP1 POP JUMP JUMPDEST PUSH1 0x1F DUP3 GT ISZERO PUSH2 0x88E JUMPI PUSH1 0x0 DUP2 DUP2 MSTORE PUSH1 0x20 DUP2 KECCAK256 PUSH1 0x1F DUP6 ADD PUSH1 0x5 SHR DUP2 ADD PUSH1 0x20 DUP7 LT ISZERO PUSH2 0x2353 JUMPI POP DUP1 JUMPDEST PUSH1 0x1F DUP6 ADD PUSH1 0x5 SHR DUP3 ADD SWAP2 POP JUMPDEST DUP2 DUP2 LT ISZERO PUSH2 0x2372 JUMPI DUP3 DUP2 SSTORE PUSH1 0x1 ADD PUSH2 0x235F JUMP JUMPDEST POP POP POP POP POP POP JUMP JUMPDEST DUP2 MLOAD PUSH8 0xFFFFFFFFFFFFFFFF DUP2 GT ISZERO PUSH2 0x2394 JUMPI PUSH2 0x2394 PUSH2 0x1EA7 JUMP JUMPDEST PUSH2 0x23A8 DUP2 PUSH2 0x23A2 DUP5 SLOAD PUSH2 0x22F2 JUMP JUMPDEST DUP5 PUSH2 0x232C JUMP JUMPDEST PUSH1 0x20 DUP1 PUSH1 0x1F DUP4 GT PUSH1 0x1 DUP2 EQ PUSH2 0x23DD JUMPI PUSH1 0x0 DUP5 ISZERO PUSH2 0x23C5 JUMPI POP DUP6 DUP4 ADD MLOAD JUMPDEST PUSH1 0x0 NOT PUSH1 0x3 DUP7 SWAP1 SHL SHR NOT AND PUSH1 0x1 DUP6 SWAP1 SHL OR DUP6 SSTORE PUSH2 0x2372 JUMP JUMPDEST PUSH1 0x0 DUP6 DUP2 MSTORE PUSH1 0x20 DUP2 KECCAK256 PUSH1 0x1F NOT DUP7 AND SWAP2 JUMPDEST DUP3 DUP2 LT ISZERO PUSH2 0x240C JUMPI DUP9 DUP7 ADD MLOAD DUP3 SSTORE SWAP5 DUP5 ADD SWAP5 PUSH1 0x1 SWAP1 SWAP2 ADD SWAP1 DUP5 ADD PUSH2 0x23ED JUMP JUMPDEST POP DUP6 DUP3 LT ISZERO PUSH2 0x242A JUMPI DUP8 DUP6 ADD MLOAD PUSH1 0x0 NOT PUSH1 0x3 DUP9 SWAP1 SHL PUSH1 0xF8 AND SHR NOT AND DUP2 SSTORE JUMPDEST POP POP POP POP POP PUSH1 0x1 SWAP1 DUP2 SHL ADD SWAP1 SSTORE POP JUMP JUMPDEST PUSH4 0x4E487B71 PUSH1 0xE0 SHL PUSH1 0x0 MSTORE PUSH1 0x32 PUSH1 0x4 MSTORE PUSH1 0x24 PUSH1 0x0 REVERT JUMPDEST PUSH1 0x0 PUSH1 0x1 DUP3 ADD PUSH2 0x2462 JUMPI PUSH2 0x2462 PUSH2 0x22C9 JUMP JUMPDEST POP PUSH1 0x1 ADD SWAP1 JUMP JUMPDEST PUSH1 0x0 DUP3 MLOAD PUSH2 0x247B DUP2 DUP5 PUSH1 0x20 DUP8 ADD PUSH2 0x2031 JUMP JUMPDEST SWAP2 SWAP1 SWAP2 ADD SWAP3 SWAP2 POP POP JUMP JUMPDEST PUSH1 0x0 DUP1 DUP4 SLOAD PUSH2 0x2493 DUP2 PUSH2 0x22F2 JUMP JUMPDEST PUSH1 0x1 DUP3 DUP2 AND DUP1 ISZERO PUSH2 0x24AB JUMPI PUSH1 0x1 DUP2 EQ PUSH2 0x24C0 JUMPI PUSH2 0x24EF JUMP JUMPDEST PUSH1 0xFF NOT DUP5 AND DUP8 MSTORE DUP3 ISZERO ISZERO DUP4 MUL DUP8 ADD SWAP5 POP PUSH2 0x24EF JUMP JUMPDEST DUP8 PUSH1 0x0 MSTORE PUSH1 0x20 DUP1 PUSH1 0x0 KECCAK256 PUSH1 0x0 JUMPDEST DUP6 DUP2 LT ISZERO PUSH2 0x24E6 JUMPI DUP2 SLOAD DUP11 DUP3 ADD MSTORE SWAP1 DUP5 ADD SWAP1 DUP3 ADD PUSH2 0x24CD JUMP JUMPDEST POP POP POP DUP3 DUP8 ADD SWAP5 POP JUMPDEST POP SWAP3 SWAP7 SWAP6 POP POP POP POP POP POP JUMP JUMPDEST DUP2 DUP2 SUB PUSH2 0x2506 JUMPI POP POP JUMP JUMPDEST PUSH2 0x2510 DUP3 SLOAD PUSH2 0x22F2 JUMP JUMPDEST PUSH8 0xFFFFFFFFFFFFFFFF DUP2 GT ISZERO PUSH2 0x2528 JUMPI PUSH2 0x2528 PUSH2 0x1EA7 JUMP JUMPDEST PUSH2 0x2536 DUP2 PUSH2 0x23A2 DUP5 SLOAD PUSH2 0x22F2 JUMP JUMPDEST PUSH1 0x0 PUSH1 0x1F DUP3 GT PUSH1 0x1 DUP2 EQ PUSH2 0x256A JUMPI PUSH1 0x0 DUP4 ISZERO PUSH2 0x2552 JUMPI POP DUP5 DUP3 ADD SLOAD JUMPDEST PUSH1 0x0 NOT PUSH1 0x3 DUP6 SWAP1 SHL SHR NOT AND PUSH1 0x1 DUP5 SWAP1 SHL OR DUP5 SSTORE PUSH2 0x25CF JUMP JUMPDEST PUSH1 0x0 DUP6 DUP2 MSTORE PUSH1 0x20 SWAP1 KECCAK256 PUSH1 0x1F NOT DUP5 AND SWAP1 PUSH1 0x0 DUP7 DUP2 MSTORE PUSH1 0x20 SWAP1 KECCAK256 DUP5 JUMPDEST DUP4 DUP2 LT ISZERO PUSH2 0x25A4 JUMPI DUP3 DUP7 ADD SLOAD DUP3 SSTORE PUSH1 0x1 SWAP6 DUP7 ADD SWAP6 SWAP1 SWAP2 ADD SWAP1 PUSH1 0x20 ADD PUSH2 0x2584 JUMP JUMPDEST POP DUP6 DUP4 LT ISZERO PUSH2 0x25C2 JUMPI DUP2 DUP6 ADD SLOAD PUSH1 0x0 NOT PUSH1 0x3 DUP9 SWAP1 SHL PUSH1 0xF8 AND SHR NOT AND DUP2 SSTORE JUMPDEST POP POP POP PUSH1 0x1 DUP4 PUSH1 0x1 SHL ADD DUP5 SSTORE JUMPDEST POP POP POP POP POP JUMP JUMPDEST PUSH4 0x4E487B71 PUSH1 0xE0 SHL PUSH1 0x0 MSTORE PUSH1 0x31 PUSH1 0x4 MSTORE PUSH1 0x24 PUSH1 0x0 REVERT INVALID LOG2 PUSH5 0x6970667358 0x22 SLT KECCAK256 DUP8 0xD7 0xD9 PUSH12 0x985AC369823CCFD5A25DEDB1 0xC 0xC3 PUSH13 0x4E5CFAA9D01AD0B5FAAD7B1EF9 PUSH5 0x736F6C6343 STOP ADDMOD GT STOP CALLER "
    },
    "gasEstimates": {
      "creation": {
        "codeDepositCost": "1952400",
        "executionCost": "2069",
        "totalCost": "1954469"
      },
      "external": {
        "addBenefactorPublicKey(address,string)": "infinite",
        "addBeneficiaries(address[])": "infinite",
        "addBeneficiaryPublicKey(address,address,string)": "infinite",
        "addIpfsCIDs(address,string[])": "infinite",
        "checkAliveStatus(address)": "infinite",
        "enableSwitch(address)": "55227",
        "getBenefactorData(address)": "infinite",
        "getBenefactorPublicKey(address)": "infinite",
        "getBeneficiaryData(address,address)": "infinite",
        "getBeneficiaryPublicKey(address,address)": "infinite",
        "getCIDs(address,address)": "infinite",
        "getRemainingCountdownTime(address)": "infinite",
        "getSwitchStatus(address)": "4856",
        "isBeneficiary(address,address)": "infinite",
        "removeBenefactor(address)": "infinite",
        "removeBeneficiary(address)": "infinite",
        "removeIpfsCID(address,string)": "infinite",
        "respondToSwitch()": "infinite",
        "setBenefactor()": "infinite"
      },
      "internal": {
        "disableSwitch()": "infinite",
        "getBeneficiariesCount(address)": "infinite"
      }
    },
    "methodIdentifiers": {
      "addBenefactorPublicKey(address,string)": "b944559d",
      "addBeneficiaries(address[])": "590411da",
      "addBeneficiaryPublicKey(address,address,string)": "3dea2f84",
      "addIpfsCIDs(address,string[])": "d0e2892c",
      "checkAliveStatus(address)": "072039a2",
      "enableSwitch(address)": "8d5492e4",
      "getBenefactorData(address)": "e9e6630a",
      "getBenefactorPublicKey(address)": "6d769717",
      "getBeneficiaryData(address,address)": "b83f4805",
      "getBeneficiaryPublicKey(address,address)": "f892cb36",
      "getCIDs(address,address)": "df78bc54",
      "getRemainingCountdownTime(address)": "01e2b33f",
      "getSwitchStatus(address)": "07a8b767",
      "isBeneficiary(address,address)": "096e27d9",
      "removeBenefactor(address)": "a98d22bc",
      "removeBeneficiary(address)": "59633a1c",
      "removeIpfsCID(address,string)": "87c63714",
      "respondToSwitch()": "cd9c9362",
      "setBenefactor()": "196ba7ef"
    }
  },
  "storageLayout": {
    "storage": [
      {
        "astId": 33,
        "contract": "DeadMansSwitch.sol:BenefactorsDeadManSwitch",
        "label": "benefactors",
        "offset": 0,
        "slot": "0",
        "type": "t_mapping(t_address,t_struct(BenefactorInfo)28_storage)"
      },
      {
        "astId": 38,
        "contract": "DeadMansSwitch.sol:BenefactorsDeadManSwitch",
        "label": "beneficiaryKeys",
        "offset": 0,
        "slot": "1",
        "type": "t_mapping(t_address,t_array(t_address)dyn_storage)"
      }
    ],
    "types": {
      "t_address": {
        "encoding": "inplace",
        "label": "address",
        "numberOfBytes": "20"
      },
      "t_array(t_address)dyn_storage": {
        "base": "t_address",
        "encoding": "dynamic_array",
        "label": "address[]",
        "numberOfBytes": "32"
      },
      "t_array(t_string_storage)dyn_storage": {
        "base": "t_string_storage",
        "encoding": "dynamic_array",
        "label": "string[]",
        "numberOfBytes": "32"
      },
      "t_bool": {
        "encoding": "inplace",
        "label": "bool",
        "numberOfBytes": "1"
      },
      "t_mapping(t_address,t_array(t_address)dyn_storage)": {
        "encoding": "mapping",
        "key": "t_address",
        "label": "mapping(address => address[])",
        "numberOfBytes": "32",
        "value": "t_array(t_address)dyn_storage"
      },
      "t_mapping(t_address,t_struct(BenefactorInfo)28_storage)": {
        "encoding": "mapping",
        "key": "t_address",
        "label": "mapping(address => struct BenefactorsDeadManSwitch.BenefactorInfo)",
        "numberOfBytes": "32",
        "value": "t_struct(BenefactorInfo)28_storage"
      },
      "t_mapping(t_address,t_struct(Beneficiary)10_storage)": {
        "encoding": "mapping",
        "key": "t_address",
        "label": "mapping(address => struct BenefactorsDeadManSwitch.Beneficiary)",
        "numberOfBytes": "32",
        "value": "t_struct(Beneficiary)10_storage"
      },
      "t_string_storage": {
        "encoding": "bytes",
        "label": "string",
        "numberOfBytes": "32"
      },
      "t_struct(BenefactorInfo)28_storage": {
        "encoding": "inplace",
        "label": "struct BenefactorsDeadManSwitch.BenefactorInfo",
        "members": [
          {
            "astId": 12,
            "contract": "DeadMansSwitch.sol:BenefactorsDeadManSwitch",
            "label": "exists",
            "offset": 0,
            "slot": "0",
            "type": "t_bool"
          },
          {
            "astId": 17,
            "contract": "DeadMansSwitch.sol:BenefactorsDeadManSwitch",
            "label": "beneficiaries",
            "offset": 0,
            "slot": "1",
            "type": "t_mapping(t_address,t_struct(Beneficiary)10_storage)"
          },
          {
            "astId": 19,
            "contract": "DeadMansSwitch.sol:BenefactorsDeadManSwitch",
            "label": "countdownDuration",
            "offset": 0,
            "slot": "2",
            "type": "t_uint256"
          },
          {
            "astId": 21,
            "contract": "DeadMansSwitch.sol:BenefactorsDeadManSwitch",
            "label": "lastBenefactorResponseTime",
            "offset": 0,
            "slot": "3",
            "type": "t_uint256"
          },
          {
            "astId": 23,
            "contract": "DeadMansSwitch.sol:BenefactorsDeadManSwitch",
            "label": "isSwitchedOff",
            "offset": 0,
            "slot": "4",
            "type": "t_bool"
          },
          {
            "astId": 25,
            "contract": "DeadMansSwitch.sol:BenefactorsDeadManSwitch",
            "label": "isAlive",
            "offset": 1,
            "slot": "4",
            "type": "t_bool"
          },
          {
            "astId": 27,
            "contract": "DeadMansSwitch.sol:BenefactorsDeadManSwitch",
            "label": "benefactorPublicKey",
            "offset": 0,
            "slot": "5",
            "type": "t_string_storage"
          }
        ],
        "numberOfBytes": "192"
      },
      "t_struct(Beneficiary)10_storage": {
        "encoding": "inplace",
        "label": "struct BenefactorsDeadManSwitch.Beneficiary",
        "members": [
          {
            "astId": 4,
            "contract": "DeadMansSwitch.sol:BenefactorsDeadManSwitch",
            "label": "exists",
            "offset": 0,
            "slot": "0",
            "type": "t_bool"
          },
          {
            "astId": 7,
            "contract": "DeadMansSwitch.sol:BenefactorsDeadManSwitch",
            "label": "ipfsCIDs",
            "offset": 0,
            "slot": "1",
            "type": "t_array(t_string_storage)dyn_storage"
          },
          {
            "astId": 9,
            "contract": "DeadMansSwitch.sol:BenefactorsDeadManSwitch",
            "label": "beneficiaryPublicKey",
            "offset": 0,
            "slot": "2",
            "type": "t_string_storage"
          }
        ],
        "numberOfBytes": "96"
      },
      "t_uint256": {
        "encoding": "inplace",
        "label": "uint256",
        "numberOfBytes": "32"
      }
    }
  },
  "userdoc": {
    "kind": "user",
    "methods": {},
    "version": 1
  }
}