{
  "abi": [
    {
      "inputs": [],
      "stateMutability": "nonpayable",
      "type": "constructor"
    },
    {
      "anonymous": false,
      "inputs": [
        {
          "indexed": true,
          "internalType": "address",
          "name": "benefactor",
          "type": "address"
        },
        {
          "indexed": false,
          "internalType": "string",
          "name": "aliveStatus",
          "type": "string"
        }
      ],
      "name": "BenefactorIsAlive",
      "type": "event"
    },
    {
      "anonymous": false,
      "inputs": [
        {
          "indexed": true,
          "internalType": "address",
          "name": "benefactor",
          "type": "address"
        },
        {
          "indexed": false,
          "internalType": "string",
          "name": "deadStatus",
          "type": "string"
        }
      ],
      "name": "BenefactorIsDead",
      "type": "event"
    },
    {
      "anonymous": false,
      "inputs": [
        {
          "indexed": true,
          "internalType": "address",
          "name": "benefactor",
          "type": "address"
        },
        {
          "indexed": true,
          "internalType": "address",
          "name": "beneficiary",
          "type": "address"
        },
        {
          "indexed": false,
          "internalType": "string",
          "name": "key",
          "type": "string"
        }
      ],
      "name": "BenefactorKeyAdded",
      "type": "event"
    },
    {
      "anonymous": false,
      "inputs": [
        {
          "indexed": true,
          "internalType": "address",
          "name": "benefactor",
          "type": "address"
        },
        {
          "indexed": true,
          "internalType": "address",
          "name": "beneficiary",
          "type": "address"
        }
      ],
      "name": "BeneficiaryAdded",
      "type": "event"
    },
    {
      "anonymous": false,
      "inputs": [
        {
          "indexed": true,
          "internalType": "address",
          "name": "benefactor",
          "type": "address"
        },
        {
          "indexed": true,
          "internalType": "address",
          "name": "beneficiary",
          "type": "address"
        },
        {
          "indexed": false,
          "internalType": "string",
          "name": "key",
          "type": "string"
        }
      ],
      "name": "BeneficiaryKeyAdded",
      "type": "event"
    },
    {
      "anonymous": false,
      "inputs": [
        {
          "indexed": true,
          "internalType": "address",
          "name": "benefactor",
          "type": "address"
        },
        {
          "indexed": true,
          "internalType": "address",
          "name": "beneficiary",
          "type": "address"
        }
      ],
      "name": "BeneficiaryRemoved",
      "type": "event"
    },
    {
      "anonymous": false,
      "inputs": [
        {
          "indexed": true,
          "internalType": "address",
          "name": "benefactor",
          "type": "address"
        },
        {
          "indexed": true,
          "internalType": "address",
          "name": "caller",
          "type": "address"
        },
        {
          "indexed": false,
          "internalType": "uint256",
          "name": "responseTime",
          "type": "uint256"
        }
      ],
      "name": "DeadMansSwitchDisabled",
      "type": "event"
    },
    {
      "anonymous": false,
      "inputs": [
        {
          "indexed": true,
          "internalType": "address",
          "name": "benefactor",
          "type": "address"
        },
        {
          "indexed": true,
          "internalType": "address",
          "name": "beneficiary",
          "type": "address"
        },
        {
          "indexed": false,
          "internalType": "uint256",
          "name": "countdownDuration",
          "type": "uint256"
        }
      ],
      "name": "DeadMansSwitchEnabled",
      "type": "event"
    },
    {
      "anonymous": false,
      "inputs": [
        {
          "indexed": true,
          "internalType": "address",
          "name": "benefactor",
          "type": "address"
        },
        {
          "indexed": true,
          "internalType": "address",
          "name": "beneficiary",
          "type": "address"
        },
        {
          "indexed": false,
          "internalType": "string",
          "name": "ipfsCID",
          "type": "string"
        }
      ],
      "name": "IpfsCIDAdded",
      "type": "event"
    },
    {
      "anonymous": false,
      "inputs": [
        {
          "indexed": true,
          "internalType": "address",
          "name": "benefactor",
          "type": "address"
        },
        {
          "indexed": true,
          "internalType": "address",
          "name": "beneficiary",
          "type": "address"
        },
        {
          "indexed": false,
          "internalType": "string",
          "name": "ipfsCID",
          "type": "string"
        }
      ],
      "name": "IpfsCIDRemoved",
      "type": "event"
    },
    {
      "anonymous": false,
      "inputs": [
        {
          "indexed": true,
          "internalType": "address",
          "name": "benefactor",
          "type": "address"
        },
        {
          "indexed": false,
          "internalType": "uint256",
          "name": "countdownDuration",
          "type": "uint256"
        },
        {
          "indexed": false,
          "internalType": "uint256",
          "name": "responseTime",
          "type": "uint256"
        },
        {
          "indexed": false,
          "internalType": "uint256",
          "name": "currentTime",
          "type": "uint256"
        },
        {
          "indexed": false,
          "internalType": "uint256",
          "name": "lastBenefactorResponseTime",
          "type": "uint256"
        }
      ],
      "name": "RemainingCountdownInfo",
      "type": "event"
    },
    {
      "anonymous": false,
      "inputs": [
        {
          "indexed": true,
          "internalType": "address",
          "name": "benefactor",
          "type": "address"
        },
        {
          "indexed": true,
          "internalType": "address",
          "name": "caller",
          "type": "address"
        }
      ],
      "name": "SwitchAlreadyOff",
      "type": "event"
    },
    {
      "anonymous": false,
      "inputs": [
        {
          "indexed": true,
          "internalType": "address",
          "name": "benefactor",
          "type": "address"
        },
        {
          "indexed": true,
          "internalType": "address",
          "name": "caller",
          "type": "address"
        }
      ],
      "name": "SwitchAlreadyOn",
      "type": "event"
    },
    {
      "inputs": [
        {
          "internalType": "address",
          "name": "_benefactor",
          "type": "address"
        },
        {
          "internalType": "address",
          "name": "_beneficiary",
          "type": "address"
        },
        {
          "internalType": "string",
          "name": "_key",
          "type": "string"
        }
      ],
      "name": "addBenefactorPublicKey",
      "outputs": [],
      "stateMutability": "nonpayable",
      "type": "function"
    },
    {
      "inputs": [
        {
          "internalType": "address",
          "name": "_beneficiary",
          "type": "address"
        }
      ],
      "name": "addBeneficiary",
      "outputs": [],
      "stateMutability": "nonpayable",
      "type": "function"
    },
    {
      "inputs": [
        {
          "internalType": "address",
          "name": "_benefactor",
          "type": "address"
        },
        {
          "internalType": "address",
          "name": "_beneficiary",
          "type": "address"
        },
        {
          "internalType": "string",
          "name": "_key",
          "type": "string"
        }
      ],
      "name": "addBeneficiaryPublicKey",
      "outputs": [],
      "stateMutability": "nonpayable",
      "type": "function"
    },
    {
      "inputs": [
        {
          "internalType": "address",
          "name": "_beneficiary",
          "type": "address"
        },
        {
          "internalType": "string",
          "name": "_ipfsCID",
          "type": "string"
        }
      ],
      "name": "addIpfsCID",
      "outputs": [],
      "stateMutability": "nonpayable",
      "type": "function"
    },
    {
      "inputs": [
        {
          "internalType": "address",
          "name": "_benefactor",
          "type": "address"
        }
      ],
      "name": "checkAliveStatus",
      "outputs": [
        {
          "internalType": "bool",
          "name": "",
          "type": "bool"
        }
      ],
      "stateMutability": "nonpayable",
      "type": "function"
    },
    {
      "inputs": [
        {
          "internalType": "address",
          "name": "_benefactor",
          "type": "address"
        }
      ],
      "name": "enableSwitch",
      "outputs": [],
      "stateMutability": "nonpayable",
      "type": "function"
    },
    {
      "inputs": [
        {
          "internalType": "address",
          "name": "_benefactor",
          "type": "address"
        },
        {
          "internalType": "address",
          "name": "_beneficiary",
          "type": "address"
        }
      ],
      "name": "getBenefactorPublicKey",
      "outputs": [
        {
          "internalType": "string",
          "name": "",
          "type": "string"
        }
      ],
      "stateMutability": "view",
      "type": "function"
    },
    {
      "inputs": [
        {
          "internalType": "address",
          "name": "_benefactor",
          "type": "address"
        },
        {
          "internalType": "address",
          "name": "_beneficiary",
          "type": "address"
        }
      ],
      "name": "getBeneficiaryPublicKey",
      "outputs": [
        {
          "internalType": "string",
          "name": "",
          "type": "string"
        }
      ],
      "stateMutability": "view",
      "type": "function"
    },
    {
      "inputs": [
        {
          "internalType": "address",
          "name": "_benefactor",
          "type": "address"
        },
        {
          "internalType": "address",
          "name": "_beneficiary",
          "type": "address"
        }
      ],
      "name": "getCIDs",
      "outputs": [
        {
          "internalType": "string[]",
          "name": "",
          "type": "string[]"
        }
      ],
      "stateMutability": "nonpayable",
      "type": "function"
    },
    {
      "inputs": [
        {
          "internalType": "address",
          "name": "_benefactor",
          "type": "address"
        }
      ],
      "name": "getData",
      "outputs": [
        {
          "internalType": "bool",
          "name": "switchStatus",
          "type": "bool"
        },
        {
          "internalType": "address[]",
          "name": "beneficiaries",
          "type": "address[]"
        },
        {
          "internalType": "uint256",
          "name": "remainingTime",
          "type": "uint256"
        }
      ],
      "stateMutability": "view",
      "type": "function"
    },
    {
      "inputs": [],
      "name": "getDisplayCIDs",
      "outputs": [
        {
          "internalType": "address[]",
          "name": "",
          "type": "address[]"
        },
        {
          "internalType": "string[][]",
          "name": "",
          "type": "string[][]"
        }
      ],
      "stateMutability": "view",
      "type": "function"
    },
    {
      "inputs": [
        {
          "internalType": "address",
          "name": "_benefactor",
          "type": "address"
        }
      ],
      "name": "getRemainingCountdownTime",
      "outputs": [
        {
          "internalType": "uint256",
          "name": "",
          "type": "uint256"
        }
      ],
      "stateMutability": "view",
      "type": "function"
    },
    {
      "inputs": [
        {
          "internalType": "address",
          "name": "_benefactor",
          "type": "address"
        }
      ],
      "name": "getSwitchStatus",
      "outputs": [
        {
          "internalType": "bool",
          "name": "",
          "type": "bool"
        }
      ],
      "stateMutability": "view",
      "type": "function"
    },
    {
      "inputs": [
        {
          "internalType": "address",
          "name": "_benefactor",
          "type": "address"
        },
        {
          "internalType": "address",
          "name": "_address",
          "type": "address"
        }
      ],
      "name": "isBeneficiary",
      "outputs": [
        {
          "internalType": "bool",
          "name": "",
          "type": "bool"
        }
      ],
      "stateMutability": "view",
      "type": "function"
    },
    {
      "inputs": [
        {
          "internalType": "address",
          "name": "_benefactor",
          "type": "address"
        }
      ],
      "name": "removeBenefactor",
      "outputs": [],
      "stateMutability": "nonpayable",
      "type": "function"
    },
    {
      "inputs": [
        {
          "internalType": "address",
          "name": "_beneficiary",
          "type": "address"
        }
      ],
      "name": "removeBeneficiary",
      "outputs": [],
      "stateMutability": "nonpayable",
      "type": "function"
    },
    {
      "inputs": [
        {
          "internalType": "address",
          "name": "_beneficiary",
          "type": "address"
        },
        {
          "internalType": "string",
          "name": "_ipfsCID",
          "type": "string"
        }
      ],
      "name": "removeIpfsCID",
      "outputs": [],
      "stateMutability": "nonpayable",
      "type": "function"
    },
    {
      "inputs": [],
      "name": "respondToSwitch",
      "outputs": [],
      "stateMutability": "nonpayable",
      "type": "function"
    },
    {
      "inputs": [],
      "name": "setBenefactor",
      "outputs": [],
      "stateMutability": "nonpayable",
      "type": "function"
    }
  ],
  "devdoc": {
    "kind": "dev",
    "methods": {},
    "version": 1
  },
  "evm": {
    "assembly": "    /* \"DeadMansSwitch.sol\":88:11093  contract BenefactorsDeadManSwitch {... */\n  mstore(0x40, 0x80)\n    /* \"DeadMansSwitch.sol\":2097:2113  constructor() {} */\n  callvalue\n  dup1\n  iszero\n  tag_1\n  jumpi\n  0x00\n  dup1\n  revert\ntag_1:\n  pop\n    /* \"DeadMansSwitch.sol\":88:11093  contract BenefactorsDeadManSwitch {... */\n  dataSize(sub_0)\n  dup1\n  dataOffset(sub_0)\n  0x00\n  codecopy\n  0x00\n  return\nstop\n\nsub_0: assembly {\n        /* \"DeadMansSwitch.sol\":88:11093  contract BenefactorsDeadManSwitch {... */\n      mstore(0x40, 0x80)\n      callvalue\n      dup1\n      iszero\n      tag_1\n      jumpi\n      0x00\n      dup1\n      revert\n    tag_1:\n      pop\n      jumpi(tag_2, lt(calldatasize, 0x04))\n      shr(0xe0, calldataload(0x00))\n      dup1\n      0x5926651d\n      gt\n      tag_22\n      jumpi\n      dup1\n      0xa98d22bc\n      gt\n      tag_23\n      jumpi\n      dup1\n      0xd51c3199\n      gt\n      tag_24\n      jumpi\n      dup1\n      0xd51c3199\n      eq\n      tag_19\n      jumpi\n      dup1\n      0xdf78bc54\n      eq\n      tag_20\n      jumpi\n      dup1\n      0xf892cb36\n      eq\n      tag_21\n      jumpi\n      0x00\n      dup1\n      revert\n    tag_24:\n      dup1\n      0xa98d22bc\n      eq\n      tag_17\n      jumpi\n      dup1\n      0xcd9c9362\n      eq\n      tag_18\n      jumpi\n      0x00\n      dup1\n      revert\n    tag_23:\n      dup1\n      0x87c63714\n      gt\n      tag_25\n      jumpi\n      dup1\n      0x87c63714\n      eq\n      tag_14\n      jumpi\n      dup1\n      0x87ce1ca8\n      eq\n      tag_15\n      jumpi\n      dup1\n      0x8d5492e4\n      eq\n      tag_16\n      jumpi\n      0x00\n      dup1\n      revert\n    tag_25:\n      dup1\n      0x5926651d\n      eq\n      tag_12\n      jumpi\n      dup1\n      0x59633a1c\n      eq\n      tag_13\n      jumpi\n      0x00\n      dup1\n      revert\n    tag_22:\n      dup1\n      0x196ba7ef\n      gt\n      tag_26\n      jumpi\n      dup1\n      0x3dea2f84\n      gt\n      tag_27\n      jumpi\n      dup1\n      0x3dea2f84\n      eq\n      tag_9\n      jumpi\n      dup1\n      0x4fe0d081\n      eq\n      tag_10\n      jumpi\n      dup1\n      0x5211287e\n      eq\n      tag_11\n      jumpi\n      0x00\n      dup1\n      revert\n    tag_27:\n      dup1\n      0x196ba7ef\n      eq\n      tag_7\n      jumpi\n      dup1\n      0x38266b22\n      eq\n      tag_8\n      jumpi\n      0x00\n      dup1\n      revert\n    tag_26:\n      dup1\n      0x01e2b33f\n      eq\n      tag_3\n      jumpi\n      dup1\n      0x072039a2\n      eq\n      tag_4\n      jumpi\n      dup1\n      0x07a8b767\n      eq\n      tag_5\n      jumpi\n      dup1\n      0x096e27d9\n      eq\n      tag_6\n      jumpi\n    tag_2:\n      0x00\n      dup1\n      revert\n        /* \"DeadMansSwitch.sol\":7951:8289  function getRemainingCountdownTime(address _benefactor) public view returns (uint256) {... */\n    tag_3:\n      tag_28\n      tag_29\n      calldatasize\n      0x04\n      tag_30\n      jump\t// in\n    tag_29:\n      tag_31\n      jump\t// in\n    tag_28:\n      mload(0x40)\n        /* \"#utility.yul\":552:577   */\n      swap1\n      dup2\n      mstore\n        /* \"#utility.yul\":540:542   */\n      0x20\n        /* \"#utility.yul\":525:543   */\n      add\n        /* \"DeadMansSwitch.sol\":7951:8289  function getRemainingCountdownTime(address _benefactor) public view returns (uint256) {... */\n    tag_32:\n      mload(0x40)\n      dup1\n      swap2\n      sub\n      swap1\n      return\n        /* \"DeadMansSwitch.sol\":8297:8791  function checkAliveStatus(address _benefactor) public returns (bool) {... */\n    tag_4:\n      tag_34\n      tag_35\n      calldatasize\n      0x04\n      tag_30\n      jump\t// in\n    tag_35:\n      tag_36\n      jump\t// in\n    tag_34:\n      mload(0x40)\n        /* \"#utility.yul\":753:767   */\n      swap1\n      iszero\n        /* \"#utility.yul\":746:768   */\n      iszero\n        /* \"#utility.yul\":728:769   */\n      dup2\n      mstore\n        /* \"#utility.yul\":716:718   */\n      0x20\n        /* \"#utility.yul\":701:719   */\n      add\n        /* \"DeadMansSwitch.sol\":8297:8791  function checkAliveStatus(address _benefactor) public returns (bool) {... */\n      tag_32\n        /* \"#utility.yul\":588:775   */\n      jump\n        /* \"DeadMansSwitch.sol\":3396:3613  function getSwitchStatus(address _benefactor) public view returns (bool) {... */\n    tag_5:\n      tag_34\n      tag_40\n      calldatasize\n      0x04\n      tag_30\n      jump\t// in\n    tag_40:\n      tag_41\n      jump\t// in\n        /* \"DeadMansSwitch.sol\":3621:3791  function isBeneficiary(address _benefactor, address _address) public view returns (bool) {... */\n    tag_6:\n      tag_34\n      tag_44\n      calldatasize\n      0x04\n      tag_45\n      jump\t// in\n    tag_44:\n      tag_46\n      jump\t// in\n        /* \"DeadMansSwitch.sol\":2121:2552  function setBenefactor() public {... */\n    tag_7:\n      tag_48\n      tag_49\n      jump\t// in\n    tag_48:\n      stop\n        /* \"DeadMansSwitch.sol\":2560:3165  function getData(address _benefactor) public view returns (bool switchStatus, address[] memory beneficiaries, uint256 remainingTime) {... */\n    tag_8:\n      tag_50\n      tag_51\n      calldatasize\n      0x04\n      tag_30\n      jump\t// in\n    tag_51:\n      tag_52\n      jump\t// in\n    tag_50:\n      mload(0x40)\n      tag_32\n      swap4\n      swap3\n      swap2\n      swap1\n      tag_54\n      jump\t// in\n        /* \"DeadMansSwitch.sol\":6354:6718  function addBeneficiaryPublicKey(address _benefactor, address _beneficiary, string memory _key) public {... */\n    tag_9:\n      tag_48\n      tag_56\n      calldatasize\n      0x04\n      tag_57\n      jump\t// in\n    tag_56:\n      tag_58\n      jump\t// in\n        /* \"DeadMansSwitch.sol\":10249:11090  function getDisplayCIDs() public view returns (address[] memory, string[][] memory) {... */\n    tag_10:\n      tag_59\n      tag_60\n      jump\t// in\n    tag_59:\n      mload(0x40)\n      tag_32\n      swap3\n      swap2\n      swap1\n      tag_62\n      jump\t// in\n        /* \"DeadMansSwitch.sol\":4591:5237  function addIpfsCID(address _beneficiary, string memory _ipfsCID) external onlyBenefactor {... */\n    tag_11:\n      tag_48\n      tag_64\n      calldatasize\n      0x04\n      tag_65\n      jump\t// in\n    tag_64:\n      tag_66\n      jump\t// in\n        /* \"DeadMansSwitch.sol\":4099:4583  function addBeneficiary(address _beneficiary) external onlyBenefactor {... */\n    tag_12:\n      tag_48\n      tag_68\n      calldatasize\n      0x04\n      tag_30\n      jump\t// in\n    tag_68:\n      tag_69\n      jump\t// in\n        /* \"DeadMansSwitch.sol\":3799:4091  function removeBeneficiary(address _beneficiary) external onlyBenefactor {... */\n    tag_13:\n      tag_48\n      tag_71\n      calldatasize\n      0x04\n      tag_30\n      jump\t// in\n    tag_71:\n      tag_72\n      jump\t// in\n        /* \"DeadMansSwitch.sol\":5245:5977  function removeIpfsCID(address _beneficiary, string memory _ipfsCID) external onlyBenefactor {... */\n    tag_14:\n      tag_48\n      tag_74\n      calldatasize\n      0x04\n      tag_65\n      jump\t// in\n    tag_74:\n      tag_75\n      jump\t// in\n        /* \"DeadMansSwitch.sol\":6726:7048  function getBenefactorPublicKey(address _benefactor, address _beneficiary) public view returns(string memory) {... */\n    tag_15:\n      tag_76\n      tag_77\n      calldatasize\n      0x04\n      tag_45\n      jump\t// in\n    tag_77:\n      tag_78\n      jump\t// in\n    tag_76:\n      mload(0x40)\n      tag_32\n      swap2\n      swap1\n      tag_80\n      jump\t// in\n        /* \"DeadMansSwitch.sol\":7390:7943  function enableSwitch(address _benefactor) external {... */\n    tag_16:\n      tag_48\n      tag_82\n      calldatasize\n      0x04\n      tag_30\n      jump\t// in\n    tag_82:\n      tag_83\n      jump\t// in\n        /* \"DeadMansSwitch.sol\":3173:3388  function removeBenefactor(address _benefactor) public {... */\n    tag_17:\n      tag_48\n      tag_85\n      calldatasize\n      0x04\n      tag_30\n      jump\t// in\n    tag_85:\n      sub(shl(0xa0, 0x01), 0x01)\n        /* \"DeadMansSwitch.sol\":3277:3301  benefactors[_benefactor] */\n      and\n        /* \"DeadMansSwitch.sol\":3238:3274  BenefactorInfo storage newBenefactor */\n      0x00\n        /* \"DeadMansSwitch.sol\":3277:3301  benefactors[_benefactor] */\n      swap1\n      dup2\n      mstore\n      0x20\n      dup2\n      swap1\n      mstore\n      0x40\n      swap1\n      keccak256\n        /* \"DeadMansSwitch.sol\":3312:3340  newBenefactor.exists = false */\n      dup1\n      sload\n      not(0xff)\n      and\n      dup2\n      sstore\n        /* \"DeadMansSwitch.sol\":3351:3372  newBenefactor.isAlive */\n      0x05\n      add\n        /* \"DeadMansSwitch.sol\":3351:3380  newBenefactor.isAlive = false */\n      dup1\n      sload\n      not(0xff00)\n      and\n      swap1\n      sstore\n        /* \"DeadMansSwitch.sol\":3173:3388  function removeBenefactor(address _benefactor) public {... */\n      jump\n        /* \"DeadMansSwitch.sol\":9142:9888  function respondToSwitch() external onlyBenefactor {... */\n    tag_18:\n      tag_48\n      tag_88\n      jump\t// in\n        /* \"DeadMansSwitch.sol\":5985:6346  function addBenefactorPublicKey(address _benefactor, address _beneficiary, string memory _key) public {... */\n    tag_19:\n      tag_48\n      tag_90\n      calldatasize\n      0x04\n      tag_57\n      jump\t// in\n    tag_90:\n      tag_91\n      jump\t// in\n        /* \"DeadMansSwitch.sol\":9900:10233  function getCIDs(address _benefactor, address _beneficiary) public returns (string[] memory){... */\n    tag_20:\n      tag_92\n      tag_93\n      calldatasize\n      0x04\n      tag_45\n      jump\t// in\n    tag_93:\n      tag_94\n      jump\t// in\n    tag_92:\n      mload(0x40)\n      tag_32\n      swap2\n      swap1\n      tag_96\n      jump\t// in\n        /* \"DeadMansSwitch.sol\":7056:7380  function getBeneficiaryPublicKey(address _benefactor, address _beneficiary) public view returns(string memory) {... */\n    tag_21:\n      tag_76\n      tag_98\n      calldatasize\n      0x04\n      tag_45\n      jump\t// in\n    tag_98:\n      tag_99\n      jump\t// in\n        /* \"DeadMansSwitch.sol\":7951:8289  function getRemainingCountdownTime(address _benefactor) public view returns (uint256) {... */\n    tag_31:\n      sub(shl(0xa0, 0x01), 0x01)\n        /* \"DeadMansSwitch.sol\":8089:8113  benefactors[_benefactor] */\n      dup2\n      and\n        /* \"DeadMansSwitch.sol\":8028:8035  uint256 */\n      0x00\n        /* \"DeadMansSwitch.sol\":8089:8113  benefactors[_benefactor] */\n      swap1\n      dup2\n      mstore\n      0x20\n      dup2\n      swap1\n      mstore\n      0x40\n      dup2\n      keccak256\n        /* \"DeadMansSwitch.sol\":8089:8140  benefactors[_benefactor].lastBenefactorResponseTime */\n      0x04\n      add\n      sload\n        /* \"DeadMansSwitch.sol\":8028:8035  uint256 */\n      dup2\n      swap1\n        /* \"DeadMansSwitch.sol\":8071:8140  block.timestamp - benefactors[_benefactor].lastBenefactorResponseTime */\n      tag_102\n      swap1\n        /* \"DeadMansSwitch.sol\":8071:8086  block.timestamp */\n      timestamp\n        /* \"DeadMansSwitch.sol\":8071:8140  block.timestamp - benefactors[_benefactor].lastBenefactorResponseTime */\n      tag_103\n      jump\t// in\n    tag_102:\n      sub(shl(0xa0, 0x01), 0x01)\n        /* \"DeadMansSwitch.sol\":8174:8198  benefactors[_benefactor] */\n      dup5\n      and\n        /* \"DeadMansSwitch.sol\":8174:8185  benefactors */\n      0x00\n        /* \"DeadMansSwitch.sol\":8174:8198  benefactors[_benefactor] */\n      swap1\n      dup2\n      mstore\n      0x20\n      dup2\n      swap1\n      mstore\n      0x40\n      swap1\n      keccak256\n        /* \"DeadMansSwitch.sol\":8174:8216  benefactors[_benefactor].countdownDuration */\n      0x03\n      add\n      sload\n        /* \"DeadMansSwitch.sol\":8048:8140  uint256 responseTime = block.timestamp - benefactors[_benefactor].lastBenefactorResponseTime */\n      swap1\n      swap2\n      pop\n        /* \"DeadMansSwitch.sol\":8159:8216  responseTime > benefactors[_benefactor].countdownDuration */\n      dup2\n      gt\n        /* \"DeadMansSwitch.sol\":8158:8281  (responseTime > benefactors[_benefactor].countdownDuration) ? 0 : benefactors[_benefactor].countdownDuration - responseTime */\n      tag_104\n      jumpi\n      sub(shl(0xa0, 0x01), 0x01)\n        /* \"DeadMansSwitch.sol\":8224:8248  benefactors[_benefactor] */\n      dup4\n      and\n        /* \"DeadMansSwitch.sol\":8224:8235  benefactors */\n      0x00\n        /* \"DeadMansSwitch.sol\":8224:8248  benefactors[_benefactor] */\n      swap1\n      dup2\n      mstore\n      0x20\n      dup2\n      swap1\n      mstore\n      0x40\n      swap1\n      keccak256\n        /* \"DeadMansSwitch.sol\":8224:8266  benefactors[_benefactor].countdownDuration */\n      0x03\n      add\n      sload\n        /* \"DeadMansSwitch.sol\":8224:8281  benefactors[_benefactor].countdownDuration - responseTime */\n      tag_105\n      swap1\n        /* \"DeadMansSwitch.sol\":8269:8281  responseTime */\n      dup3\n      swap1\n        /* \"DeadMansSwitch.sol\":8224:8281  benefactors[_benefactor].countdownDuration - responseTime */\n      tag_103\n      jump\t// in\n    tag_105:\n        /* \"DeadMansSwitch.sol\":8158:8281  (responseTime > benefactors[_benefactor].countdownDuration) ? 0 : benefactors[_benefactor].countdownDuration - responseTime */\n      jump(tag_106)\n    tag_104:\n        /* \"DeadMansSwitch.sol\":8220:8221  0 */\n      0x00\n        /* \"DeadMansSwitch.sol\":8158:8281  (responseTime > benefactors[_benefactor].countdownDuration) ? 0 : benefactors[_benefactor].countdownDuration - responseTime */\n    tag_106:\n        /* \"DeadMansSwitch.sol\":8151:8281  return (responseTime > benefactors[_benefactor].countdownDuration) ? 0 : benefactors[_benefactor].countdownDuration - responseTime */\n      swap4\n        /* \"DeadMansSwitch.sol\":7951:8289  function getRemainingCountdownTime(address _benefactor) public view returns (uint256) {... */\n      swap3\n      pop\n      pop\n      pop\n      jump\t// out\n        /* \"DeadMansSwitch.sol\":8297:8791  function checkAliveStatus(address _benefactor) public returns (bool) {... */\n    tag_36:\n        /* \"DeadMansSwitch.sol\":8360:8364  bool */\n      0x00\n        /* \"DeadMansSwitch.sol\":8381:8409  getSwitchStatus(_benefactor) */\n      tag_108\n        /* \"DeadMansSwitch.sol\":8397:8408  _benefactor */\n      dup3\n        /* \"DeadMansSwitch.sol\":8381:8396  getSwitchStatus */\n      tag_41\n        /* \"DeadMansSwitch.sol\":8381:8409  getSwitchStatus(_benefactor) */\n      jump\t// in\n    tag_108:\n        /* \"DeadMansSwitch.sol\":8377:8734  if (getSwitchStatus(_benefactor)){... */\n      iszero\n      tag_110\n      jumpi\n      sub(shl(0xa0, 0x01), 0x01)\n        /* \"DeadMansSwitch.sol\":8429:8453  benefactors[_benefactor] */\n      dup3\n      and\n        /* \"DeadMansSwitch.sol\":8429:8440  benefactors */\n      0x00\n        /* \"DeadMansSwitch.sol\":8429:8453  benefactors[_benefactor] */\n      swap1\n      dup2\n      mstore\n      0x20\n      dup2\n      swap1\n      mstore\n      0x40\n      swap1\n      keccak256\n        /* \"DeadMansSwitch.sol\":8429:8480  benefactors[_benefactor].lastBenefactorResponseTime */\n      0x04\n      add\n      sload\n        /* \"DeadMansSwitch.sol\":8429:8485  benefactors[_benefactor].lastBenefactorResponseTime != 0 */\n      iszero\n        /* \"DeadMansSwitch.sol\":8425:8720  if (benefactors[_benefactor].lastBenefactorResponseTime != 0) {... */\n      tag_110\n      jumpi\n        /* \"DeadMansSwitch.sol\":8506:8532  uint256 remainingCountdown */\n      0x00\n        /* \"DeadMansSwitch.sol\":8535:8573  getRemainingCountdownTime(_benefactor) */\n      tag_111\n        /* \"DeadMansSwitch.sol\":8561:8572  _benefactor */\n      dup4\n        /* \"DeadMansSwitch.sol\":8535:8560  getRemainingCountdownTime */\n      tag_31\n        /* \"DeadMansSwitch.sol\":8535:8573  getRemainingCountdownTime(_benefactor) */\n      jump\t// in\n    tag_111:\n        /* \"DeadMansSwitch.sol\":8506:8573  uint256 remainingCountdown = getRemainingCountdownTime(_benefactor) */\n      swap1\n      pop\n        /* \"DeadMansSwitch.sol\":8618:8619  0 */\n      0x00\n        /* \"DeadMansSwitch.sol\":8596:8614  remainingCountdown */\n      dup2\n        /* \"DeadMansSwitch.sol\":8596:8619  remainingCountdown <= 0 */\n      gt\n        /* \"DeadMansSwitch.sol\":8592:8704  if (remainingCountdown <= 0) {... */\n      tag_112\n      jumpi\n      sub(shl(0xa0, 0x01), 0x01)\n        /* \"DeadMansSwitch.sol\":8644:8668  benefactors[_benefactor] */\n      dup4\n      and\n        /* \"DeadMansSwitch.sol\":8679:8684  false */\n      0x00\n        /* \"DeadMansSwitch.sol\":8644:8668  benefactors[_benefactor] */\n      swap1\n      dup2\n      mstore\n      0x20\n      dup2\n      swap1\n      mstore\n      0x40\n      swap1\n      keccak256\n        /* \"DeadMansSwitch.sol\":8644:8676  benefactors[_benefactor].isAlive */\n      0x05\n      add\n        /* \"DeadMansSwitch.sol\":8644:8684  benefactors[_benefactor].isAlive = false */\n      dup1\n      sload\n      not(0xff00)\n      and\n      swap1\n      sstore\n        /* \"DeadMansSwitch.sol\":8592:8704  if (remainingCountdown <= 0) {... */\n    tag_112:\n        /* \"DeadMansSwitch.sol\":8487:8720  {... */\n      pop\n        /* \"DeadMansSwitch.sol\":8425:8720  if (benefactors[_benefactor].lastBenefactorResponseTime != 0) {... */\n    tag_110:\n      pop\n      sub(shl(0xa0, 0x01), 0x01)\n        /* \"DeadMansSwitch.sol\":8751:8775  benefactors[_benefactor] */\n      and\n        /* \"DeadMansSwitch.sol\":8751:8762  benefactors */\n      0x00\n        /* \"DeadMansSwitch.sol\":8751:8775  benefactors[_benefactor] */\n      swap1\n      dup2\n      mstore\n      0x20\n      dup2\n      swap1\n      mstore\n      0x40\n      swap1\n      keccak256\n        /* \"DeadMansSwitch.sol\":8751:8783  benefactors[_benefactor].isAlive */\n      0x05\n      add\n      sload\n      0x0100\n      swap1\n      div\n      0xff\n      and\n      swap1\n        /* \"DeadMansSwitch.sol\":8297:8791  function checkAliveStatus(address _benefactor) public returns (bool) {... */\n      jump\t// out\n        /* \"DeadMansSwitch.sol\":3396:3613  function getSwitchStatus(address _benefactor) public view returns (bool) {... */\n    tag_41:\n      sub(shl(0xa0, 0x01), 0x01)\n        /* \"DeadMansSwitch.sol\":3488:3512  benefactors[_benefactor] */\n      dup2\n      and\n        /* \"DeadMansSwitch.sol\":3463:3467  bool */\n      0x00\n        /* \"DeadMansSwitch.sol\":3488:3512  benefactors[_benefactor] */\n      swap1\n      dup2\n      mstore\n      0x20\n      dup2\n      swap1\n      mstore\n      0x40\n      dup2\n      keccak256\n        /* \"DeadMansSwitch.sol\":3488:3519  benefactors[_benefactor].exists */\n      sload\n      0xff\n      and\n        /* \"DeadMansSwitch.sol\":3480:3548  require(benefactors[_benefactor].exists,\"Benefactor does not exist\") */\n      tag_114\n      jumpi\n      mload(0x40)\n      shl(0xe5, 0x461bcd)\n      dup2\n      mstore\n        /* \"#utility.yul\":7393:7395   */\n      0x20\n        /* \"DeadMansSwitch.sol\":3480:3548  require(benefactors[_benefactor].exists,\"Benefactor does not exist\") */\n      0x04\n      dup3\n      add\n        /* \"#utility.yul\":7375:7396   */\n      mstore\n        /* \"#utility.yul\":7432:7434   */\n      0x19\n        /* \"#utility.yul\":7412:7430   */\n      0x24\n      dup3\n      add\n        /* \"#utility.yul\":7405:7435   */\n      mstore\n        /* \"#utility.yul\":7471:7498   */\n      0x42656e65666163746f7220646f6573206e6f7420657869737400000000000000\n        /* \"#utility.yul\":7451:7469   */\n      0x44\n      dup3\n      add\n        /* \"#utility.yul\":7444:7499   */\n      mstore\n        /* \"#utility.yul\":7516:7534   */\n      0x64\n      add\n        /* \"DeadMansSwitch.sol\":3480:3548  require(benefactors[_benefactor].exists,\"Benefactor does not exist\") */\n    tag_115:\n      mload(0x40)\n      dup1\n      swap2\n      sub\n      swap1\n      revert\n    tag_114:\n      pop\n      sub(shl(0xa0, 0x01), 0x01)\n        /* \"DeadMansSwitch.sol\":3567:3591  benefactors[_benefactor] */\n      and\n        /* \"DeadMansSwitch.sol\":3567:3578  benefactors */\n      0x00\n        /* \"DeadMansSwitch.sol\":3567:3591  benefactors[_benefactor] */\n      swap1\n      dup2\n      mstore\n      0x20\n      dup2\n      swap1\n      mstore\n      0x40\n      swap1\n      keccak256\n        /* \"DeadMansSwitch.sol\":3567:3605  benefactors[_benefactor].isSwitchedOff */\n      0x05\n      add\n      sload\n      0xff\n      and\n        /* \"DeadMansSwitch.sol\":3566:3605  !benefactors[_benefactor].isSwitchedOff */\n      iszero\n      swap1\n        /* \"DeadMansSwitch.sol\":3396:3613  function getSwitchStatus(address _benefactor) public view returns (bool) {... */\n      jump\t// out\n        /* \"DeadMansSwitch.sol\":3621:3791  function isBeneficiary(address _benefactor, address _address) public view returns (bool) {... */\n    tag_46:\n      sub(shl(0xa0, 0x01), 0x01)\n        /* \"DeadMansSwitch.sol\":3728:3752  benefactors[_benefactor] */\n      dup1\n      dup4\n      and\n        /* \"DeadMansSwitch.sol\":3704:3708  bool */\n      0x00\n        /* \"DeadMansSwitch.sol\":3728:3752  benefactors[_benefactor] */\n      swap1\n      dup2\n      mstore\n      0x20\n      dup2\n      dup2\n      mstore\n      0x40\n      dup1\n      dup4\n      keccak256\n        /* \"DeadMansSwitch.sol\":3728:3776  benefactors[_benefactor].beneficiaries[_address] */\n      swap4\n      dup6\n      and\n      dup4\n      mstore\n        /* \"DeadMansSwitch.sol\":3728:3766  benefactors[_benefactor].beneficiaries */\n      0x01\n      swap1\n      swap4\n      add\n        /* \"DeadMansSwitch.sol\":3728:3776  benefactors[_benefactor].beneficiaries[_address] */\n      swap1\n      mstore\n      keccak256\n        /* \"DeadMansSwitch.sol\":3728:3783  benefactors[_benefactor].beneficiaries[_address].exists */\n      sload\n      0xff\n      and\n        /* \"DeadMansSwitch.sol\":3621:3791  function isBeneficiary(address _benefactor, address _address) public view returns (bool) {... */\n    tag_117:\n      swap3\n      swap2\n      pop\n      pop\n      jump\t// out\n        /* \"DeadMansSwitch.sol\":2121:2552  function setBenefactor() public {... */\n    tag_49:\n        /* \"DeadMansSwitch.sol\":2185:2195  msg.sender */\n      caller\n        /* \"DeadMansSwitch.sol\":2173:2184  benefactors */\n      0x00\n        /* \"DeadMansSwitch.sol\":2173:2196  benefactors[msg.sender] */\n      swap1\n      dup2\n      mstore\n      0x20\n      dup2\n      swap1\n      mstore\n      0x40\n      swap1\n      keccak256\n        /* \"DeadMansSwitch.sol\":2173:2203  benefactors[msg.sender].exists */\n      sload\n      0xff\n      and\n        /* \"DeadMansSwitch.sol\":2172:2203  !benefactors[msg.sender].exists */\n      iszero\n        /* \"DeadMansSwitch.sol\":2164:2232  require(!benefactors[msg.sender].exists,\"benefactor already exists\") */\n      tag_119\n      jumpi\n      mload(0x40)\n      shl(0xe5, 0x461bcd)\n      dup2\n      mstore\n        /* \"#utility.yul\":7747:7749   */\n      0x20\n        /* \"DeadMansSwitch.sol\":2164:2232  require(!benefactors[msg.sender].exists,\"benefactor already exists\") */\n      0x04\n      dup3\n      add\n        /* \"#utility.yul\":7729:7750   */\n      mstore\n        /* \"#utility.yul\":7786:7788   */\n      0x19\n        /* \"#utility.yul\":7766:7784   */\n      0x24\n      dup3\n      add\n        /* \"#utility.yul\":7759:7789   */\n      mstore\n        /* \"#utility.yul\":7825:7852   */\n      0x62656e65666163746f7220616c72656164792065786973747300000000000000\n        /* \"#utility.yul\":7805:7823   */\n      0x44\n      dup3\n      add\n        /* \"#utility.yul\":7798:7853   */\n      mstore\n        /* \"#utility.yul\":7870:7888   */\n      0x64\n      add\n        /* \"DeadMansSwitch.sol\":2164:2232  require(!benefactors[msg.sender].exists,\"benefactor already exists\") */\n      tag_115\n        /* \"#utility.yul\":7545:7894   */\n      jump\n        /* \"DeadMansSwitch.sol\":2164:2232  require(!benefactors[msg.sender].exists,\"benefactor already exists\") */\n    tag_119:\n        /* \"DeadMansSwitch.sol\":2294:2304  msg.sender */\n      caller\n        /* \"DeadMansSwitch.sol\":2243:2279  BenefactorInfo storage newBenefactor */\n      0x00\n        /* \"DeadMansSwitch.sol\":2282:2305  benefactors[msg.sender] */\n      swap1\n      dup2\n      mstore\n      0x20\n      dup2\n      swap1\n      mstore\n      0x40\n      dup2\n      keccak256\n        /* \"DeadMansSwitch.sol\":2316:2343  newBenefactor.exists = true */\n      dup1\n      sload\n      not(0xff)\n      and\n        /* \"DeadMansSwitch.sol\":2339:2343  true */\n      0x01\n        /* \"DeadMansSwitch.sol\":2316:2343  newBenefactor.exists = true */\n      or\n      dup2\n      sstore\n        /* \"DeadMansSwitch.sol\":2388:2405  7*24*3600 seconds */\n      0x093a80\n        /* \"DeadMansSwitch.sol\":2354:2385  newBenefactor.countdownDuration */\n      0x03\n      dup3\n      add\n        /* \"DeadMansSwitch.sol\":2354:2405  newBenefactor.countdownDuration = 7*24*3600 seconds */\n      sstore\n        /* \"DeadMansSwitch.sol\":2416:2443  newBenefactor.isSwitchedOff */\n      0x05\n      dup2\n      add\n        /* \"DeadMansSwitch.sol\":2416:2450  newBenefactor.isSwitchedOff = true */\n      dup1\n      sload\n        /* \"DeadMansSwitch.sol\":2461:2489  newBenefactor.isAlive = true */\n      0x0101\n      not(0xffff)\n      swap1\n      swap2\n      and\n      or\n      swap1\n      sstore\n        /* \"DeadMansSwitch.sol\":2500:2540  newBenefactor.lastBenefactorResponseTime */\n      0x04\n      add\n        /* \"DeadMansSwitch.sol\":2500:2544  newBenefactor.lastBenefactorResponseTime = 0 */\n      sstore\n        /* \"DeadMansSwitch.sol\":2121:2552  function setBenefactor() public {... */\n      jump\t// out\n        /* \"DeadMansSwitch.sol\":2560:3165  function getData(address _benefactor) public view returns (bool switchStatus, address[] memory beneficiaries, uint256 remainingTime) {... */\n    tag_52:\n      sub(shl(0xa0, 0x01), 0x01)\n        /* \"DeadMansSwitch.sol\":2712:2736  benefactors[_benefactor] */\n      dup2\n      and\n        /* \"DeadMansSwitch.sol\":2619:2636  bool switchStatus */\n      0x00\n        /* \"DeadMansSwitch.sol\":2712:2736  benefactors[_benefactor] */\n      swap1\n      dup2\n      mstore\n      0x20\n      dup2\n      swap1\n      mstore\n      0x40\n      dup2\n      keccak256\n        /* \"DeadMansSwitch.sol\":2712:2743  benefactors[_benefactor].exists */\n      sload\n        /* \"DeadMansSwitch.sol\":2638:2668  address[] memory beneficiaries */\n      0x60\n      swap1\n        /* \"DeadMansSwitch.sol\":2619:2636  bool switchStatus */\n      dup3\n      swap1\n        /* \"DeadMansSwitch.sol\":2712:2743  benefactors[_benefactor].exists */\n      0xff\n      and\n        /* \"DeadMansSwitch.sol\":2704:2773  require(benefactors[_benefactor].exists, \"Benefactor does not exist\") */\n      tag_123\n      jumpi\n      mload(0x40)\n      shl(0xe5, 0x461bcd)\n      dup2\n      mstore\n        /* \"#utility.yul\":7393:7395   */\n      0x20\n        /* \"DeadMansSwitch.sol\":2704:2773  require(benefactors[_benefactor].exists, \"Benefactor does not exist\") */\n      0x04\n      dup3\n      add\n        /* \"#utility.yul\":7375:7396   */\n      mstore\n        /* \"#utility.yul\":7432:7434   */\n      0x19\n        /* \"#utility.yul\":7412:7430   */\n      0x24\n      dup3\n      add\n        /* \"#utility.yul\":7405:7435   */\n      mstore\n        /* \"#utility.yul\":7471:7498   */\n      0x42656e65666163746f7220646f6573206e6f7420657869737400000000000000\n        /* \"#utility.yul\":7451:7469   */\n      0x44\n      dup3\n      add\n        /* \"#utility.yul\":7444:7499   */\n      mstore\n        /* \"#utility.yul\":7516:7534   */\n      0x64\n      add\n        /* \"DeadMansSwitch.sol\":2704:2773  require(benefactors[_benefactor].exists, \"Benefactor does not exist\") */\n      tag_115\n        /* \"#utility.yul\":7191:7540   */\n      jump\n        /* \"DeadMansSwitch.sol\":2704:2773  require(benefactors[_benefactor].exists, \"Benefactor does not exist\") */\n    tag_123:\n      sub(shl(0xa0, 0x01), 0x01)\n        /* \"DeadMansSwitch.sol\":2800:2824  benefactors[_benefactor] */\n      dup5\n      and\n        /* \"DeadMansSwitch.sol\":2800:2811  benefactors */\n      0x00\n        /* \"DeadMansSwitch.sol\":2800:2824  benefactors[_benefactor] */\n      swap1\n      dup2\n      mstore\n      0x20\n      dup2\n      dup2\n      mstore\n      0x40\n      swap2\n      dup3\n      swap1\n      keccak256\n        /* \"DeadMansSwitch.sol\":2800:2838  benefactors[_benefactor].isSwitchedOff */\n      0x05\n      dup2\n      add\n      sload\n        /* \"DeadMansSwitch.sol\":2865:2910  benefactors[_benefactor].beneficiaryAddresses */\n      0x02\n      swap1\n      swap2\n      add\n        /* \"DeadMansSwitch.sol\":2849:2910  beneficiaries = benefactors[_benefactor].beneficiaryAddresses */\n      dup1\n      sload\n      dup5\n      mload\n      dup2\n      dup6\n      mul\n      dup2\n      add\n      dup6\n      add\n      swap1\n      swap6\n      mstore\n      dup1\n      dup6\n      mstore\n        /* \"DeadMansSwitch.sol\":2800:2838  benefactors[_benefactor].isSwitchedOff */\n      0xff\n      swap1\n      swap3\n      and\n        /* \"DeadMansSwitch.sol\":2799:2838  !benefactors[_benefactor].isSwitchedOff */\n      iszero\n      swap7\n      pop\n        /* \"DeadMansSwitch.sol\":2865:2910  benefactors[_benefactor].beneficiaryAddresses */\n      swap2\n        /* \"DeadMansSwitch.sol\":2849:2910  beneficiaries = benefactors[_benefactor].beneficiaryAddresses */\n      dup4\n      add\n        /* \"DeadMansSwitch.sol\":2865:2910  benefactors[_benefactor].beneficiaryAddresses */\n      dup3\n        /* \"DeadMansSwitch.sol\":2849:2910  beneficiaries = benefactors[_benefactor].beneficiaryAddresses */\n      dup3\n      dup1\n      iszero\n      tag_125\n      jumpi\n      0x20\n      mul\n      dup3\n      add\n      swap2\n      swap1\n      0x00\n      mstore\n      keccak256(0x00, 0x20)\n      swap1\n    tag_126:\n      dup2\n      sload\n      sub(shl(0xa0, 0x01), 0x01)\n      and\n      dup2\n      mstore\n      0x01\n      swap1\n      swap2\n      add\n      swap1\n      0x20\n      add\n      dup1\n      dup4\n      gt\n      tag_126\n      jumpi\n    tag_125:\n      pop\n      pop\n      pop\n      sub(shl(0xa0, 0x01), 0x01)\n        /* \"DeadMansSwitch.sol\":2925:2949  benefactors[_benefactor] */\n      dup8\n      and\n        /* \"DeadMansSwitch.sol\":2925:2936  benefactors */\n      0x00\n        /* \"DeadMansSwitch.sol\":2925:2949  benefactors[_benefactor] */\n      swap1\n      dup2\n      mstore\n      0x20\n      dup2\n      swap1\n      mstore\n      0x40\n      swap1\n      keccak256\n        /* \"DeadMansSwitch.sol\":2925:2963  benefactors[_benefactor].isSwitchedOff */\n      0x05\n      add\n      sload\n        /* \"DeadMansSwitch.sol\":2849:2910  beneficiaries = benefactors[_benefactor].beneficiaryAddresses */\n      swap3\n      swap5\n      pop\n      pop\n      pop\n        /* \"DeadMansSwitch.sol\":2925:2963  benefactors[_benefactor].isSwitchedOff */\n      0xff\n      and\n        /* \"DeadMansSwitch.sol\":2921:3096  if (benefactors[_benefactor].isSwitchedOff) {... */\n      iszero\n      tag_127\n      jumpi\n      pop\n        /* \"DeadMansSwitch.sol\":2996:2997  0 */\n      0x00\n        /* \"DeadMansSwitch.sol\":2921:3096  if (benefactors[_benefactor].isSwitchedOff) {... */\n      jump(tag_128)\n    tag_127:\n        /* \"DeadMansSwitch.sol\":3046:3084  getRemainingCountdownTime(_benefactor) */\n      tag_129\n        /* \"DeadMansSwitch.sol\":3072:3083  _benefactor */\n      dup5\n        /* \"DeadMansSwitch.sol\":3046:3071  getRemainingCountdownTime */\n      tag_31\n        /* \"DeadMansSwitch.sol\":3046:3084  getRemainingCountdownTime(_benefactor) */\n      jump\t// in\n    tag_129:\n        /* \"DeadMansSwitch.sol\":3030:3084  remainingTime = getRemainingCountdownTime(_benefactor) */\n      swap1\n      pop\n        /* \"DeadMansSwitch.sol\":2921:3096  if (benefactors[_benefactor].isSwitchedOff) {... */\n    tag_128:\n        /* \"DeadMansSwitch.sol\":2560:3165  function getData(address _benefactor) public view returns (bool switchStatus, address[] memory beneficiaries, uint256 remainingTime) {... */\n      swap2\n      swap4\n      swap1\n      swap3\n      pop\n      jump\t// out\n        /* \"DeadMansSwitch.sol\":6354:6718  function addBeneficiaryPublicKey(address _benefactor, address _beneficiary, string memory _key) public {... */\n    tag_58:\n        /* \"DeadMansSwitch.sol\":6476:6515  isBeneficiary(_benefactor,_beneficiary) */\n      tag_131\n        /* \"DeadMansSwitch.sol\":6490:6501  _benefactor */\n      dup4\n        /* \"DeadMansSwitch.sol\":6502:6514  _beneficiary */\n      dup4\n        /* \"DeadMansSwitch.sol\":6476:6489  isBeneficiary */\n      tag_46\n        /* \"DeadMansSwitch.sol\":6476:6515  isBeneficiary(_benefactor,_beneficiary) */\n      jump\t// in\n    tag_131:\n        /* \"DeadMansSwitch.sol\":6468:6552  require(isBeneficiary(_benefactor,_beneficiary), \"Beneficiary/Benefactor not found\") */\n      tag_132\n      jumpi\n      mload(0x40)\n      shl(0xe5, 0x461bcd)\n      dup2\n      mstore\n        /* \"#utility.yul\":8101:8103   */\n      0x20\n        /* \"DeadMansSwitch.sol\":6468:6552  require(isBeneficiary(_benefactor,_beneficiary), \"Beneficiary/Benefactor not found\") */\n      0x04\n      dup3\n      add\n        /* \"#utility.yul\":8083:8104   */\n      dup2\n      swap1\n      mstore\n        /* \"#utility.yul\":8120:8138   */\n      0x24\n      dup3\n      add\n        /* \"#utility.yul\":8113:8143   */\n      mstore\n        /* \"#utility.yul\":8179:8213   */\n      0x42656e65666963696172792f42656e65666163746f72206e6f7420666f756e64\n        /* \"#utility.yul\":8159:8177   */\n      0x44\n      dup3\n      add\n        /* \"#utility.yul\":8152:8214   */\n      mstore\n        /* \"#utility.yul\":8231:8249   */\n      0x64\n      add\n        /* \"DeadMansSwitch.sol\":6468:6552  require(isBeneficiary(_benefactor,_beneficiary), \"Beneficiary/Benefactor not found\") */\n      tag_115\n        /* \"#utility.yul\":7899:8255   */\n      jump\n        /* \"DeadMansSwitch.sol\":6468:6552  require(isBeneficiary(_benefactor,_beneficiary), \"Beneficiary/Benefactor not found\") */\n    tag_132:\n      sub(shl(0xa0, 0x01), 0x01)\n        /* \"DeadMansSwitch.sol\":6563:6587  benefactors[_benefactor] */\n      dup1\n      dup5\n      and\n        /* \"DeadMansSwitch.sol\":6563:6574  benefactors */\n      0x00\n        /* \"DeadMansSwitch.sol\":6563:6587  benefactors[_benefactor] */\n      swap1\n      dup2\n      mstore\n      0x20\n      dup2\n      dup2\n      mstore\n      0x40\n      dup1\n      dup4\n      keccak256\n        /* \"DeadMansSwitch.sol\":6563:6615  benefactors[_benefactor].beneficiaries[_beneficiary] */\n      swap4\n      dup7\n      and\n      dup4\n      mstore\n        /* \"DeadMansSwitch.sol\":6563:6601  benefactors[_benefactor].beneficiaries */\n      0x01\n      swap1\n      swap4\n      add\n        /* \"DeadMansSwitch.sol\":6563:6615  benefactors[_benefactor].beneficiaries[_beneficiary] */\n      swap1\n      mstore\n      keccak256\n        /* \"DeadMansSwitch.sol\":6563:6636  benefactors[_benefactor].beneficiaries[_beneficiary].beneficiaryPublicKey */\n      0x03\n      add\n        /* \"DeadMansSwitch.sol\":6563:6643  benefactors[_benefactor].beneficiaries[_beneficiary].beneficiaryPublicKey = _key */\n      tag_135\n        /* \"DeadMansSwitch.sol\":6639:6643  _key */\n      dup3\n        /* \"DeadMansSwitch.sol\":6563:6636  benefactors[_benefactor].beneficiaries[_beneficiary].beneficiaryPublicKey */\n      dup3\n        /* \"DeadMansSwitch.sol\":6563:6643  benefactors[_benefactor].beneficiaries[_beneficiary].beneficiaryPublicKey = _key */\n      tag_136\n      jump\t// in\n    tag_135:\n      pop\n        /* \"DeadMansSwitch.sol\":6691:6703  _beneficiary */\n      dup2\n      sub(shl(0xa0, 0x01), 0x01)\n        /* \"DeadMansSwitch.sol\":6659:6710  BeneficiaryKeyAdded(_benefactor,_beneficiary, _key) */\n      and\n        /* \"DeadMansSwitch.sol\":6679:6690  _benefactor */\n      dup4\n      sub(shl(0xa0, 0x01), 0x01)\n        /* \"DeadMansSwitch.sol\":6659:6710  BeneficiaryKeyAdded(_benefactor,_beneficiary, _key) */\n      and\n      0x69ccea10852ac51b01745414774b5af302217e774786d2068296650b57ba03f2\n        /* \"DeadMansSwitch.sol\":6705:6709  _key */\n      dup4\n        /* \"DeadMansSwitch.sol\":6659:6710  BeneficiaryKeyAdded(_benefactor,_beneficiary, _key) */\n      mload(0x40)\n      tag_137\n      swap2\n      swap1\n      tag_80\n      jump\t// in\n    tag_137:\n      mload(0x40)\n      dup1\n      swap2\n      sub\n      swap1\n      log3\n        /* \"DeadMansSwitch.sol\":6354:6718  function addBeneficiaryPublicKey(address _benefactor, address _beneficiary, string memory _key) public {... */\n      pop\n      pop\n      pop\n      jump\t// out\n        /* \"DeadMansSwitch.sol\":10249:11090  function getDisplayCIDs() public view returns (address[] memory, string[][] memory) {... */\n    tag_60:\n        /* \"DeadMansSwitch.sol\":10364:10374  msg.sender */\n      caller\n        /* \"DeadMansSwitch.sol\":10352:10363  benefactors */\n      0x00\n        /* \"DeadMansSwitch.sol\":10352:10375  benefactors[msg.sender] */\n      swap1\n      dup2\n      mstore\n      0x20\n      dup2\n      swap1\n      mstore\n      0x40\n      swap1\n      keccak256\n        /* \"DeadMansSwitch.sol\":10352:10382  benefactors[msg.sender].exists */\n      sload\n        /* \"DeadMansSwitch.sol\":10296:10312  address[] memory */\n      0x60\n      swap1\n      dup2\n      swap1\n        /* \"DeadMansSwitch.sol\":10352:10382  benefactors[msg.sender].exists */\n      0xff\n      and\n        /* \"DeadMansSwitch.sol\":10344:10404  require(benefactors[msg.sender].exists, \"No access to CIDs\") */\n      tag_139\n      jumpi\n      mload(0x40)\n      shl(0xe5, 0x461bcd)\n      dup2\n      mstore\n        /* \"#utility.yul\":11051:11053   */\n      0x20\n        /* \"DeadMansSwitch.sol\":10344:10404  require(benefactors[msg.sender].exists, \"No access to CIDs\") */\n      0x04\n      dup3\n      add\n        /* \"#utility.yul\":11033:11054   */\n      mstore\n        /* \"#utility.yul\":11090:11092   */\n      0x11\n        /* \"#utility.yul\":11070:11088   */\n      0x24\n      dup3\n      add\n        /* \"#utility.yul\":11063:11093   */\n      mstore\n        /* \"#utility.yul\":11129:11148   */\n      0x4e6f2061636365737320746f2043494473000000000000000000000000000000\n        /* \"#utility.yul\":11109:11127   */\n      0x44\n      dup3\n      add\n        /* \"#utility.yul\":11102:11149   */\n      mstore\n        /* \"#utility.yul\":11166:11184   */\n      0x64\n      add\n        /* \"DeadMansSwitch.sol\":10344:10404  require(benefactors[msg.sender].exists, \"No access to CIDs\") */\n      tag_115\n        /* \"#utility.yul\":10849:11190   */\n      jump\n        /* \"DeadMansSwitch.sol\":10344:10404  require(benefactors[msg.sender].exists, \"No access to CIDs\") */\n    tag_139:\n        /* \"DeadMansSwitch.sol\":10456:10466  msg.sender */\n      caller\n        /* \"DeadMansSwitch.sol\":10415:10441  uint256 totalBeneficiaries */\n      0x00\n        /* \"DeadMansSwitch.sol\":10444:10467  benefactors[msg.sender] */\n      swap1\n      dup2\n      mstore\n      0x20\n      dup2\n      swap1\n      mstore\n      0x40\n      dup2\n      keccak256\n        /* \"DeadMansSwitch.sol\":10444:10488  benefactors[msg.sender].beneficiaryAddresses */\n      0x02\n      add\n        /* \"DeadMansSwitch.sol\":10444:10495  benefactors[msg.sender].beneficiaryAddresses.length */\n      sload\n      swap1\n      dup2\n        /* \"DeadMansSwitch.sol\":10546:10579  new address[](totalBeneficiaries) */\n      0xffffffffffffffff\n      dup2\n      gt\n      iszero\n      tag_143\n      jumpi\n      tag_143\n      tag_144\n      jump\t// in\n    tag_143:\n      mload(0x40)\n      swap1\n      dup1\n      dup3\n      mstore\n      dup1\n      0x20\n      mul\n      0x20\n      add\n      dup3\n      add\n      0x40\n      mstore\n      dup1\n      iszero\n      tag_145\n      jumpi\n      dup2\n      0x20\n      add\n      0x20\n      dup3\n      mul\n      dup1\n      calldatasize\n      dup4\n      calldatacopy\n      add\n      swap1\n      pop\n    tag_145:\n      pop\n        /* \"DeadMansSwitch.sol\":10506:10579  address[] memory beneficiaryAddresses = new address[](totalBeneficiaries) */\n      swap1\n      pop\n        /* \"DeadMansSwitch.sol\":10590:10623  string[][] memory beneficiaryCIDs */\n      0x00\n        /* \"DeadMansSwitch.sol\":10641:10659  totalBeneficiaries */\n      dup3\n        /* \"DeadMansSwitch.sol\":10626:10660  new string[][](totalBeneficiaries) */\n      0xffffffffffffffff\n      dup2\n      gt\n      iszero\n      tag_147\n      jumpi\n      tag_147\n      tag_144\n      jump\t// in\n    tag_147:\n      mload(0x40)\n      swap1\n      dup1\n      dup3\n      mstore\n      dup1\n      0x20\n      mul\n      0x20\n      add\n      dup3\n      add\n      0x40\n      mstore\n      dup1\n      iszero\n      tag_148\n      jumpi\n      dup2\n      0x20\n      add\n    tag_149:\n      0x60\n      dup2\n      mstore\n      0x20\n      add\n      swap1\n      0x01\n      swap1\n      sub\n      swap1\n      dup2\n      tag_149\n      jumpi\n      swap1\n      pop\n    tag_148:\n      pop\n        /* \"DeadMansSwitch.sol\":10590:10660  string[][] memory beneficiaryCIDs = new string[][](totalBeneficiaries) */\n      swap1\n      pop\n        /* \"DeadMansSwitch.sol\":10676:10685  uint256 i */\n      0x00\n        /* \"DeadMansSwitch.sol\":10671:11026  for (uint256 i = 0; i < totalBeneficiaries; i++) {... */\n    tag_150:\n        /* \"DeadMansSwitch.sol\":10695:10713  totalBeneficiaries */\n      dup4\n        /* \"DeadMansSwitch.sol\":10691:10692  i */\n      dup2\n        /* \"DeadMansSwitch.sol\":10691:10713  i < totalBeneficiaries */\n      lt\n        /* \"DeadMansSwitch.sol\":10671:11026  for (uint256 i = 0; i < totalBeneficiaries; i++) {... */\n      iszero\n      tag_151\n      jumpi\n        /* \"DeadMansSwitch.sol\":10776:10786  msg.sender */\n      caller\n        /* \"DeadMansSwitch.sol\":10735:10761  address beneficiaryAddress */\n      0x00\n        /* \"DeadMansSwitch.sol\":10764:10787  benefactors[msg.sender] */\n      swap1\n      dup2\n      mstore\n      0x20\n      dup2\n      swap1\n      mstore\n      0x40\n      dup2\n      keccak256\n        /* \"DeadMansSwitch.sol\":10764:10808  benefactors[msg.sender].beneficiaryAddresses */\n      0x02\n      add\n        /* \"DeadMansSwitch.sol\":10764:10811  benefactors[msg.sender].beneficiaryAddresses[i] */\n      dup1\n      sload\n        /* \"DeadMansSwitch.sol\":10809:10810  i */\n      dup4\n      swap1\n        /* \"DeadMansSwitch.sol\":10764:10811  benefactors[msg.sender].beneficiaryAddresses[i] */\n      dup2\n      lt\n      tag_154\n      jumpi\n      tag_154\n      tag_155\n      jump\t// in\n    tag_154:\n      0x00\n      swap2\n      dup3\n      mstore\n      0x20\n      dup1\n      dup4\n      keccak256\n      swap1\n      swap2\n      add\n      sload\n        /* \"DeadMansSwitch.sol\":10861:10871  msg.sender */\n      caller\n        /* \"DeadMansSwitch.sol\":10849:10872  benefactors[msg.sender] */\n      dup4\n      mstore\n      dup3\n      dup3\n      mstore\n      0x40\n      dup1\n      dup5\n      keccak256\n      sub(shl(0xa0, 0x01), 0x01)\n        /* \"DeadMansSwitch.sol\":10764:10811  benefactors[msg.sender].beneficiaryAddresses[i] */\n      swap1\n      swap3\n      and\n        /* \"DeadMansSwitch.sol\":10849:10906  benefactors[msg.sender].beneficiaries[beneficiaryAddress] */\n      dup1\n      dup6\n      mstore\n        /* \"DeadMansSwitch.sol\":10764:10811  benefactors[msg.sender].beneficiaryAddresses[i] */\n      0x01\n        /* \"DeadMansSwitch.sol\":10849:10886  benefactors[msg.sender].beneficiaries */\n      swap3\n      dup4\n      add\n        /* \"DeadMansSwitch.sol\":10849:10906  benefactors[msg.sender].beneficiaries[beneficiaryAddress] */\n      dup5\n      mstore\n      dup2\n      dup6\n      keccak256\n        /* \"DeadMansSwitch.sol\":10849:10915  benefactors[msg.sender].beneficiaries[beneficiaryAddress].ipfsCIDs */\n      swap1\n      swap3\n      add\n        /* \"DeadMansSwitch.sol\":10826:10915  string[] memory cids = benefactors[msg.sender].beneficiaries[beneficiaryAddress].ipfsCIDs */\n      dup1\n      sload\n      dup3\n      mload\n      dup2\n      dup7\n      mul\n      dup2\n      add\n      dup7\n      add\n      swap1\n      swap4\n      mstore\n      dup1\n      dup4\n      mstore\n        /* \"DeadMansSwitch.sol\":10764:10811  benefactors[msg.sender].beneficiaryAddresses[i] */\n      swap3\n      swap6\n      pop\n        /* \"DeadMansSwitch.sol\":10826:10915  string[] memory cids = benefactors[msg.sender].beneficiaries[beneficiaryAddress].ipfsCIDs */\n      swap1\n      swap3\n        /* \"DeadMansSwitch.sol\":10849:10915  benefactors[msg.sender].beneficiaries[beneficiaryAddress].ipfsCIDs */\n      swap1\n      swap2\n        /* \"DeadMansSwitch.sol\":10826:10915  string[] memory cids = benefactors[msg.sender].beneficiaries[beneficiaryAddress].ipfsCIDs */\n      swap1\n        /* \"DeadMansSwitch.sol\":10764:10811  benefactors[msg.sender].beneficiaryAddresses[i] */\n      dup5\n      swap1\n        /* \"DeadMansSwitch.sol\":10826:10915  string[] memory cids = benefactors[msg.sender].beneficiaries[beneficiaryAddress].ipfsCIDs */\n      dup5\n      add\n    tag_157:\n      dup3\n      dup3\n      lt\n      iszero\n      tag_158\n      jumpi\n      dup4\n      dup3\n      swap1\n      0x00\n      mstore\n      keccak256(0x00, 0x20)\n      add\n      dup1\n      sload\n      tag_160\n      swap1\n      tag_161\n      jump\t// in\n    tag_160:\n      dup1\n      0x1f\n      add\n      0x20\n      dup1\n      swap2\n      div\n      mul\n      0x20\n      add\n      mload(0x40)\n      swap1\n      dup2\n      add\n      0x40\n      mstore\n      dup1\n      swap3\n      swap2\n      swap1\n      dup2\n      dup2\n      mstore\n      0x20\n      add\n      dup3\n      dup1\n      sload\n      tag_162\n      swap1\n      tag_161\n      jump\t// in\n    tag_162:\n      dup1\n      iszero\n      tag_163\n      jumpi\n      dup1\n      0x1f\n      lt\n      tag_164\n      jumpi\n      0x0100\n      dup1\n      dup4\n      sload\n      div\n      mul\n      dup4\n      mstore\n      swap2\n      0x20\n      add\n      swap2\n      jump(tag_163)\n    tag_164:\n      dup3\n      add\n      swap2\n      swap1\n      0x00\n      mstore\n      keccak256(0x00, 0x20)\n      swap1\n    tag_165:\n      dup2\n      sload\n      dup2\n      mstore\n      swap1\n      0x01\n      add\n      swap1\n      0x20\n      add\n      dup1\n      dup4\n      gt\n      tag_165\n      jumpi\n      dup3\n      swap1\n      sub\n      0x1f\n      and\n      dup3\n      add\n      swap2\n    tag_163:\n      pop\n      pop\n      pop\n      pop\n      pop\n      dup2\n      mstore\n      0x20\n      add\n      swap1\n      0x01\n      add\n      swap1\n      jump(tag_157)\n    tag_158:\n      pop\n      pop\n      pop\n      pop\n      swap1\n      pop\n        /* \"DeadMansSwitch.sol\":10956:10974  beneficiaryAddress */\n      dup2\n        /* \"DeadMansSwitch.sol\":10930:10950  beneficiaryAddresses */\n      dup6\n        /* \"DeadMansSwitch.sol\":10951:10952  i */\n      dup5\n        /* \"DeadMansSwitch.sol\":10930:10953  beneficiaryAddresses[i] */\n      dup2\n      mload\n      dup2\n      lt\n      tag_167\n      jumpi\n      tag_167\n      tag_155\n      jump\t// in\n    tag_167:\n      0x20\n      mul\n      0x20\n      add\n      add\n        /* \"DeadMansSwitch.sol\":10930:10974  beneficiaryAddresses[i] = beneficiaryAddress */\n      swap1\n      sub(shl(0xa0, 0x01), 0x01)\n      and\n      swap1\n      dup2\n      sub(shl(0xa0, 0x01), 0x01)\n      and\n      dup2\n      mstore\n      pop\n      pop\n        /* \"DeadMansSwitch.sol\":11010:11014  cids */\n      dup1\n        /* \"DeadMansSwitch.sol\":10989:11004  beneficiaryCIDs */\n      dup5\n        /* \"DeadMansSwitch.sol\":11005:11006  i */\n      dup5\n        /* \"DeadMansSwitch.sol\":10989:11007  beneficiaryCIDs[i] */\n      dup2\n      mload\n      dup2\n      lt\n      tag_169\n      jumpi\n      tag_169\n      tag_155\n      jump\t// in\n    tag_169:\n      0x20\n      mul\n      0x20\n      add\n      add\n        /* \"DeadMansSwitch.sol\":10989:11014  beneficiaryCIDs[i] = cids */\n      dup2\n      swap1\n      mstore\n      pop\n        /* \"DeadMansSwitch.sol\":10720:11026  {... */\n      pop\n      pop\n        /* \"DeadMansSwitch.sol\":10715:10718  i++ */\n      dup1\n      dup1\n      tag_170\n      swap1\n      tag_171\n      jump\t// in\n    tag_170:\n      swap2\n      pop\n      pop\n        /* \"DeadMansSwitch.sol\":10671:11026  for (uint256 i = 0; i < totalBeneficiaries; i++) {... */\n      jump(tag_150)\n    tag_151:\n      pop\n        /* \"DeadMansSwitch.sol\":11044:11064  beneficiaryAddresses */\n      swap1\n      swap5\n        /* \"DeadMansSwitch.sol\":11066:11081  beneficiaryCIDs */\n      swap1\n      swap4\n      pop\n        /* \"DeadMansSwitch.sol\":10249:11090  function getDisplayCIDs() public view returns (address[] memory, string[][] memory) {... */\n      swap2\n      pop\n      pop\n      jump\t// out\n        /* \"DeadMansSwitch.sol\":4591:5237  function addIpfsCID(address _beneficiary, string memory _ipfsCID) external onlyBenefactor {... */\n    tag_66:\n        /* \"DeadMansSwitch.sol\":1987:1997  msg.sender */\n      caller\n        /* \"DeadMansSwitch.sol\":1975:1986  benefactors */\n      0x00\n        /* \"DeadMansSwitch.sol\":1975:1998  benefactors[msg.sender] */\n      swap1\n      dup2\n      mstore\n      0x20\n      dup2\n      swap1\n      mstore\n      0x40\n      swap1\n      keccak256\n        /* \"DeadMansSwitch.sol\":1975:2005  benefactors[msg.sender].exists */\n      sload\n      0xff\n      and\n        /* \"DeadMansSwitch.sol\":1975:2040  benefactors[msg.sender].exists && benefactors[msg.sender].isAlive */\n      dup1\n      iszero\n      tag_173\n      jumpi\n      pop\n        /* \"DeadMansSwitch.sol\":2021:2031  msg.sender */\n      caller\n        /* \"DeadMansSwitch.sol\":2009:2020  benefactors */\n      0x00\n        /* \"DeadMansSwitch.sol\":2009:2032  benefactors[msg.sender] */\n      swap1\n      dup2\n      mstore\n      0x20\n      dup2\n      swap1\n      mstore\n      0x40\n      swap1\n      keccak256\n        /* \"DeadMansSwitch.sol\":2009:2040  benefactors[msg.sender].isAlive */\n      0x05\n      add\n      sload\n      0x0100\n      swap1\n      div\n      0xff\n      and\n        /* \"DeadMansSwitch.sol\":1975:2040  benefactors[msg.sender].exists && benefactors[msg.sender].isAlive */\n    tag_173:\n        /* \"DeadMansSwitch.sol\":1967:2067  require(benefactors[msg.sender].exists && benefactors[msg.sender].isAlive, \"Not a valid benefactor\") */\n      tag_174\n      jumpi\n      mload(0x40)\n      shl(0xe5, 0x461bcd)\n      dup2\n      mstore\n        /* \"#utility.yul\":11669:11671   */\n      0x20\n        /* \"DeadMansSwitch.sol\":1967:2067  require(benefactors[msg.sender].exists && benefactors[msg.sender].isAlive, \"Not a valid benefactor\") */\n      0x04\n      dup3\n      add\n        /* \"#utility.yul\":11651:11672   */\n      mstore\n        /* \"#utility.yul\":11708:11710   */\n      0x16\n        /* \"#utility.yul\":11688:11706   */\n      0x24\n      dup3\n      add\n        /* \"#utility.yul\":11681:11711   */\n      mstore\n      shl(0x51, 0x2737ba1030903b30b634b2103132b732b330b1ba37b9)\n        /* \"#utility.yul\":11727:11745   */\n      0x44\n      dup3\n      add\n        /* \"#utility.yul\":11720:11772   */\n      mstore\n        /* \"#utility.yul\":11789:11807   */\n      0x64\n      add\n        /* \"DeadMansSwitch.sol\":1967:2067  require(benefactors[msg.sender].exists && benefactors[msg.sender].isAlive, \"Not a valid benefactor\") */\n      tag_115\n        /* \"#utility.yul\":11467:11813   */\n      jump\n        /* \"DeadMansSwitch.sol\":1967:2067  require(benefactors[msg.sender].exists && benefactors[msg.sender].isAlive, \"Not a valid benefactor\") */\n    tag_174:\n        /* \"DeadMansSwitch.sol\":4700:4738  isBeneficiary(msg.sender,_beneficiary) */\n      tag_178\n        /* \"DeadMansSwitch.sol\":4714:4724  msg.sender */\n      caller\n        /* \"DeadMansSwitch.sol\":4725:4737  _beneficiary */\n      dup4\n        /* \"DeadMansSwitch.sol\":4700:4713  isBeneficiary */\n      tag_46\n        /* \"DeadMansSwitch.sol\":4700:4738  isBeneficiary(msg.sender,_beneficiary) */\n      jump\t// in\n    tag_178:\n        /* \"DeadMansSwitch.sol\":4692:4764  require(isBeneficiary(msg.sender,_beneficiary), \"Beneficiary not found\") */\n      tag_179\n      jumpi\n      mload(0x40)\n      shl(0xe5, 0x461bcd)\n      dup2\n      mstore\n        /* \"#utility.yul\":12020:12022   */\n      0x20\n        /* \"DeadMansSwitch.sol\":4692:4764  require(isBeneficiary(msg.sender,_beneficiary), \"Beneficiary not found\") */\n      0x04\n      dup3\n      add\n        /* \"#utility.yul\":12002:12023   */\n      mstore\n        /* \"#utility.yul\":12059:12061   */\n      0x15\n        /* \"#utility.yul\":12039:12057   */\n      0x24\n      dup3\n      add\n        /* \"#utility.yul\":12032:12062   */\n      mstore\n      shl(0x5a, 0x10995b99599a58da585c9e481b9bdd08199bdd5b99)\n        /* \"#utility.yul\":12078:12096   */\n      0x44\n      dup3\n      add\n        /* \"#utility.yul\":12071:12122   */\n      mstore\n        /* \"#utility.yul\":12139:12157   */\n      0x64\n      add\n        /* \"DeadMansSwitch.sol\":4692:4764  require(isBeneficiary(msg.sender,_beneficiary), \"Beneficiary not found\") */\n      tag_115\n        /* \"#utility.yul\":11818:12163   */\n      jump\n        /* \"DeadMansSwitch.sol\":4692:4764  require(isBeneficiary(msg.sender,_beneficiary), \"Beneficiary not found\") */\n    tag_179:\n        /* \"DeadMansSwitch.sol\":4815:4825  msg.sender */\n      caller\n        /* \"DeadMansSwitch.sol\":4775:4800  string[] storage ipfsCIDs */\n      0x00\n        /* \"DeadMansSwitch.sol\":4803:4826  benefactors[msg.sender] */\n      swap1\n      dup2\n      mstore\n      0x20\n      dup2\n      dup2\n      mstore\n      0x40\n      dup1\n      dup4\n      keccak256\n      sub(shl(0xa0, 0x01), 0x01)\n        /* \"DeadMansSwitch.sol\":4803:4854  benefactors[msg.sender].beneficiaries[_beneficiary] */\n      dup7\n      and\n      dup5\n      mstore\n        /* \"DeadMansSwitch.sol\":4803:4840  benefactors[msg.sender].beneficiaries */\n      0x01\n      swap1\n      dup2\n      add\n        /* \"DeadMansSwitch.sol\":4803:4854  benefactors[msg.sender].beneficiaries[_beneficiary] */\n      swap1\n      swap3\n      mstore\n      dup3\n      keccak256\n        /* \"DeadMansSwitch.sol\":4803:4863  benefactors[msg.sender].beneficiaries[_beneficiary].ipfsCIDs */\n      add\n      swap1\n        /* \"DeadMansSwitch.sol\":4874:5081  for (uint256 i = 0; i < ipfsCIDs.length; i++) {... */\n    tag_182:\n        /* \"DeadMansSwitch.sol\":4898:4913  ipfsCIDs.length */\n      dup2\n      sload\n        /* \"DeadMansSwitch.sol\":4894:4913  i < ipfsCIDs.length */\n      dup2\n      lt\n        /* \"DeadMansSwitch.sol\":4874:5081  for (uint256 i = 0; i < ipfsCIDs.length; i++) {... */\n      iszero\n      tag_183\n      jumpi\n        /* \"DeadMansSwitch.sol\":5014:5022  _ipfsCID */\n      dup3\n        /* \"DeadMansSwitch.sol\":4997:5023  abi.encodePacked(_ipfsCID) */\n      add(0x20, mload(0x40))\n      tag_185\n      swap2\n      swap1\n      tag_186\n      jump\t// in\n    tag_185:\n      mload(0x40)\n      0x20\n      dup2\n      dup4\n      sub\n      sub\n      dup2\n      mstore\n      swap1\n      0x40\n      mstore\n        /* \"DeadMansSwitch.sol\":4987:5024  keccak256(abi.encodePacked(_ipfsCID)) */\n      dup1\n      mload\n      swap1\n      0x20\n      add\n      keccak256\n        /* \"DeadMansSwitch.sol\":4970:4978  ipfsCIDs */\n      dup3\n        /* \"DeadMansSwitch.sol\":4979:4980  i */\n      dup3\n        /* \"DeadMansSwitch.sol\":4970:4981  ipfsCIDs[i] */\n      dup2\n      sload\n      dup2\n      lt\n      tag_188\n      jumpi\n      tag_188\n      tag_155\n      jump\t// in\n    tag_188:\n      swap1\n      0x00\n      mstore\n      keccak256(0x00, 0x20)\n      add\n        /* \"DeadMansSwitch.sol\":4953:4982  abi.encodePacked(ipfsCIDs[i]) */\n      add(0x20, mload(0x40))\n      tag_190\n      swap2\n      swap1\n      tag_191\n      jump\t// in\n    tag_190:\n      mload(0x40)\n      0x20\n      dup2\n      dup4\n      sub\n      sub\n      dup2\n      mstore\n      swap1\n      0x40\n      mstore\n        /* \"DeadMansSwitch.sol\":4943:4983  keccak256(abi.encodePacked(ipfsCIDs[i])) */\n      dup1\n      mload\n      swap1\n      0x20\n      add\n      keccak256\n        /* \"DeadMansSwitch.sol\":4943:5024  keccak256(abi.encodePacked(ipfsCIDs[i])) != keccak256(abi.encodePacked(_ipfsCID)) */\n      sub\n        /* \"DeadMansSwitch.sol\":4935:5069  require(keccak256(abi.encodePacked(ipfsCIDs[i])) != keccak256(abi.encodePacked(_ipfsCID)), \"CID already assigned to this beneficiary\") */\n      tag_192\n      jumpi\n      mload(0x40)\n      shl(0xe5, 0x461bcd)\n      dup2\n      mstore\n        /* \"#utility.yul\":13511:13513   */\n      0x20\n        /* \"DeadMansSwitch.sol\":4935:5069  require(keccak256(abi.encodePacked(ipfsCIDs[i])) != keccak256(abi.encodePacked(_ipfsCID)), \"CID already assigned to this beneficiary\") */\n      0x04\n      dup3\n      add\n        /* \"#utility.yul\":13493:13514   */\n      mstore\n        /* \"#utility.yul\":13550:13552   */\n      0x28\n        /* \"#utility.yul\":13530:13548   */\n      0x24\n      dup3\n      add\n        /* \"#utility.yul\":13523:13553   */\n      mstore\n        /* \"#utility.yul\":13589:13623   */\n      0x43494420616c72656164792061737369676e656420746f20746869732062656e\n        /* \"#utility.yul\":13569:13587   */\n      0x44\n      dup3\n      add\n        /* \"#utility.yul\":13562:13624   */\n      mstore\n        /* \"#utility.yul\":13660:13670   */\n      0x6566696369617279000000000000000000000000000000000000000000000000\n        /* \"#utility.yul\":13640:13658   */\n      0x64\n      dup3\n      add\n        /* \"#utility.yul\":13633:13671   */\n      mstore\n        /* \"#utility.yul\":13688:13707   */\n      0x84\n      add\n        /* \"DeadMansSwitch.sol\":4935:5069  require(keccak256(abi.encodePacked(ipfsCIDs[i])) != keccak256(abi.encodePacked(_ipfsCID)), \"CID already assigned to this beneficiary\") */\n      tag_115\n        /* \"#utility.yul\":13309:13713   */\n      jump\n        /* \"DeadMansSwitch.sol\":4935:5069  require(keccak256(abi.encodePacked(ipfsCIDs[i])) != keccak256(abi.encodePacked(_ipfsCID)), \"CID already assigned to this beneficiary\") */\n    tag_192:\n        /* \"DeadMansSwitch.sol\":4915:4918  i++ */\n      dup1\n      tag_195\n      dup2\n      tag_171\n      jump\t// in\n    tag_195:\n      swap2\n      pop\n      pop\n        /* \"DeadMansSwitch.sol\":4874:5081  for (uint256 i = 0; i < ipfsCIDs.length; i++) {... */\n      jump(tag_182)\n    tag_183:\n      pop\n        /* \"DeadMansSwitch.sol\":5103:5113  msg.sender */\n      caller\n        /* \"DeadMansSwitch.sol\":5091:5102  benefactors */\n      0x00\n        /* \"DeadMansSwitch.sol\":5091:5114  benefactors[msg.sender] */\n      swap1\n      dup2\n      mstore\n      0x20\n      dup2\n      dup2\n      mstore\n      0x40\n      dup1\n      dup4\n      keccak256\n      sub(shl(0xa0, 0x01), 0x01)\n        /* \"DeadMansSwitch.sol\":5091:5142  benefactors[msg.sender].beneficiaries[_beneficiary] */\n      dup8\n      and\n      dup5\n      mstore\n        /* \"DeadMansSwitch.sol\":5091:5128  benefactors[msg.sender].beneficiaries */\n      0x01\n      swap1\n      dup2\n      add\n        /* \"DeadMansSwitch.sol\":5091:5142  benefactors[msg.sender].beneficiaries[_beneficiary] */\n      dup4\n      mstore\n      swap1\n      dup4\n      keccak256\n        /* \"DeadMansSwitch.sol\":5091:5151  benefactors[msg.sender].beneficiaries[_beneficiary].ipfsCIDs */\n      dup2\n      add\n        /* \"DeadMansSwitch.sol\":5091:5166  benefactors[msg.sender].beneficiaries[_beneficiary].ipfsCIDs.push(_ipfsCID) */\n      dup1\n      sload\n      swap2\n      dup3\n      add\n      dup2\n      sstore\n      dup4\n      mstore\n      swap2\n      keccak256\n      add\n      tag_197\n        /* \"DeadMansSwitch.sol\":5157:5165  _ipfsCID */\n      dup4\n        /* \"DeadMansSwitch.sol\":5091:5166  benefactors[msg.sender].beneficiaries[_beneficiary].ipfsCIDs.push(_ipfsCID) */\n      dup3\n      tag_136\n      jump\t// in\n    tag_197:\n      pop\n        /* \"DeadMansSwitch.sol\":5206:5218  _beneficiary */\n      dup3\n      sub(shl(0xa0, 0x01), 0x01)\n        /* \"DeadMansSwitch.sol\":5182:5229  IpfsCIDAdded(msg.sender,_beneficiary, _ipfsCID) */\n      and\n        /* \"DeadMansSwitch.sol\":5195:5205  msg.sender */\n      caller\n      sub(shl(0xa0, 0x01), 0x01)\n        /* \"DeadMansSwitch.sol\":5182:5229  IpfsCIDAdded(msg.sender,_beneficiary, _ipfsCID) */\n      and\n      0xa1bb52b874769d5c17cde30e708e8f7180bb949f70e77caf0da68d25f9a1a510\n        /* \"DeadMansSwitch.sol\":5220:5228  _ipfsCID */\n      dup5\n        /* \"DeadMansSwitch.sol\":5182:5229  IpfsCIDAdded(msg.sender,_beneficiary, _ipfsCID) */\n      mload(0x40)\n      tag_137\n      swap2\n      swap1\n      tag_80\n      jump\t// in\n        /* \"DeadMansSwitch.sol\":4099:4583  function addBeneficiary(address _beneficiary) external onlyBenefactor {... */\n    tag_69:\n        /* \"DeadMansSwitch.sol\":1987:1997  msg.sender */\n      caller\n        /* \"DeadMansSwitch.sol\":1975:1986  benefactors */\n      0x00\n        /* \"DeadMansSwitch.sol\":1975:1998  benefactors[msg.sender] */\n      swap1\n      dup2\n      mstore\n      0x20\n      dup2\n      swap1\n      mstore\n      0x40\n      swap1\n      keccak256\n        /* \"DeadMansSwitch.sol\":1975:2005  benefactors[msg.sender].exists */\n      sload\n      0xff\n      and\n        /* \"DeadMansSwitch.sol\":1975:2040  benefactors[msg.sender].exists && benefactors[msg.sender].isAlive */\n      dup1\n      iszero\n      tag_200\n      jumpi\n      pop\n        /* \"DeadMansSwitch.sol\":2021:2031  msg.sender */\n      caller\n        /* \"DeadMansSwitch.sol\":2009:2020  benefactors */\n      0x00\n        /* \"DeadMansSwitch.sol\":2009:2032  benefactors[msg.sender] */\n      swap1\n      dup2\n      mstore\n      0x20\n      dup2\n      swap1\n      mstore\n      0x40\n      swap1\n      keccak256\n        /* \"DeadMansSwitch.sol\":2009:2040  benefactors[msg.sender].isAlive */\n      0x05\n      add\n      sload\n      0x0100\n      swap1\n      div\n      0xff\n      and\n        /* \"DeadMansSwitch.sol\":1975:2040  benefactors[msg.sender].exists && benefactors[msg.sender].isAlive */\n    tag_200:\n        /* \"DeadMansSwitch.sol\":1967:2067  require(benefactors[msg.sender].exists && benefactors[msg.sender].isAlive, \"Not a valid benefactor\") */\n      tag_201\n      jumpi\n      mload(0x40)\n      shl(0xe5, 0x461bcd)\n      dup2\n      mstore\n        /* \"#utility.yul\":11669:11671   */\n      0x20\n        /* \"DeadMansSwitch.sol\":1967:2067  require(benefactors[msg.sender].exists && benefactors[msg.sender].isAlive, \"Not a valid benefactor\") */\n      0x04\n      dup3\n      add\n        /* \"#utility.yul\":11651:11672   */\n      mstore\n        /* \"#utility.yul\":11708:11710   */\n      0x16\n        /* \"#utility.yul\":11688:11706   */\n      0x24\n      dup3\n      add\n        /* \"#utility.yul\":11681:11711   */\n      mstore\n      shl(0x51, 0x2737ba1030903b30b634b2103132b732b330b1ba37b9)\n        /* \"#utility.yul\":11727:11745   */\n      0x44\n      dup3\n      add\n        /* \"#utility.yul\":11720:11772   */\n      mstore\n        /* \"#utility.yul\":11789:11807   */\n      0x64\n      add\n        /* \"DeadMansSwitch.sol\":1967:2067  require(benefactors[msg.sender].exists && benefactors[msg.sender].isAlive, \"Not a valid benefactor\") */\n      tag_115\n        /* \"#utility.yul\":11467:11813   */\n      jump\n        /* \"DeadMansSwitch.sol\":1967:2067  require(benefactors[msg.sender].exists && benefactors[msg.sender].isAlive, \"Not a valid benefactor\") */\n    tag_201:\n        /* \"DeadMansSwitch.sol\":4184:4223  isBeneficiary(msg.sender, _beneficiary) */\n      tag_204\n        /* \"DeadMansSwitch.sol\":4198:4208  msg.sender */\n      caller\n        /* \"DeadMansSwitch.sol\":4210:4222  _beneficiary */\n      dup3\n        /* \"DeadMansSwitch.sol\":4184:4197  isBeneficiary */\n      tag_46\n        /* \"DeadMansSwitch.sol\":4184:4223  isBeneficiary(msg.sender, _beneficiary) */\n      jump\t// in\n    tag_204:\n        /* \"DeadMansSwitch.sol\":4180:4484  if (isBeneficiary(msg.sender, _beneficiary)){... */\n      iszero\n      tag_205\n      jumpi\n        /* \"DeadMansSwitch.sol\":4293:4333  Beneficiary(true, new string[](0),\"\",\"\") */\n      0x40\n      dup1\n      mload\n      0x80\n      dup2\n      add\n      dup3\n      mstore\n        /* \"DeadMansSwitch.sol\":4305:4309  true */\n      0x01\n        /* \"DeadMansSwitch.sol\":4293:4333  Beneficiary(true, new string[](0),\"\",\"\") */\n      dup2\n      mstore\n        /* \"DeadMansSwitch.sol\":4311:4326  new string[](0) */\n      dup2\n      mload\n      0x00\n      dup1\n      dup3\n      mstore\n        /* \"DeadMansSwitch.sol\":4293:4333  Beneficiary(true, new string[](0),\"\",\"\") */\n      0x20\n        /* \"DeadMansSwitch.sol\":4311:4326  new string[](0) */\n      dup3\n      dup2\n      add\n      swap1\n      swap5\n      mstore\n        /* \"DeadMansSwitch.sol\":4293:4333  Beneficiary(true, new string[](0),\"\",\"\") */\n      swap2\n      swap3\n      dup4\n      add\n      swap2\n        /* \"DeadMansSwitch.sol\":4311:4326  new string[](0) */\n      jump(tag_208)\n    tag_209:\n      0x60\n      dup2\n      mstore\n      0x20\n      add\n      swap1\n      0x01\n      swap1\n      sub\n      swap1\n      dup2\n      tag_209\n      jumpi\n      swap1\n      pop\n    tag_208:\n      pop\n        /* \"DeadMansSwitch.sol\":4293:4333  Beneficiary(true, new string[](0),\"\",\"\") */\n      dup2\n      mstore\n      0x40\n      dup1\n      mload\n      0x20\n      dup1\n      dup3\n      add\n      dup4\n      mstore\n      0x00\n      dup1\n      dup4\n      mstore\n      dup2\n      dup6\n      add\n      swap3\n      swap1\n      swap3\n      mstore\n      dup3\n      mload\n      dup1\n      dup3\n      add\n      dup5\n      mstore\n      dup3\n      dup2\n      mstore\n      swap4\n      dup4\n      add\n      swap4\n      swap1\n      swap4\n      mstore\n        /* \"DeadMansSwitch.sol\":4251:4261  msg.sender */\n      caller\n        /* \"DeadMansSwitch.sol\":4239:4262  benefactors[msg.sender] */\n      dup2\n      mstore\n      dup1\n      dup4\n      mstore\n      dup2\n      dup2\n      keccak256\n      sub(shl(0xa0, 0x01), 0x01)\n        /* \"DeadMansSwitch.sol\":4239:4290  benefactors[msg.sender].beneficiaries[_beneficiary] */\n      dup7\n      and\n      dup3\n      mstore\n        /* \"DeadMansSwitch.sol\":4239:4276  benefactors[msg.sender].beneficiaries */\n      0x01\n      swap1\n      dup2\n      add\n        /* \"DeadMansSwitch.sol\":4239:4290  benefactors[msg.sender].beneficiaries[_beneficiary] */\n      dup5\n      mstore\n      swap2\n      swap1\n      keccak256\n        /* \"DeadMansSwitch.sol\":4239:4333  benefactors[msg.sender].beneficiaries[_beneficiary] = Beneficiary(true, new string[](0),\"\",\"\") */\n      dup4\n      mload\n      dup2\n      sload\n      not(0xff)\n      and\n      swap1\n      iszero\n      iszero\n      or\n      dup2\n      sstore\n      dup4\n      dup4\n      add\n      mload\n      dup1\n      mload\n        /* \"DeadMansSwitch.sol\":4239:4290  benefactors[msg.sender].beneficiaries[_beneficiary] */\n      swap2\n      swap4\n        /* \"DeadMansSwitch.sol\":4239:4333  benefactors[msg.sender].beneficiaries[_beneficiary] = Beneficiary(true, new string[](0),\"\",\"\") */\n      tag_210\n      swap4\n      dup6\n      add\n      swap3\n      swap2\n      add\n      swap1\n      tag_211\n      jump\t// in\n    tag_210:\n      pop\n      0x40\n      dup3\n      add\n      mload\n      0x02\n      dup3\n      add\n      swap1\n      tag_212\n      swap1\n      dup3\n      tag_136\n      jump\t// in\n    tag_212:\n      pop\n      0x60\n      dup3\n      add\n      mload\n      0x03\n      dup3\n      add\n      swap1\n      tag_213\n      swap1\n      dup3\n      tag_136\n      jump\t// in\n    tag_213:\n      pop\n      pop\n        /* \"DeadMansSwitch.sol\":4360:4370  msg.sender */\n      caller\n        /* \"DeadMansSwitch.sol\":4348:4359  benefactors */\n      0x00\n        /* \"DeadMansSwitch.sol\":4348:4371  benefactors[msg.sender] */\n      dup2\n      dup2\n      mstore\n      0x20\n      dup2\n      dup2\n      mstore\n      0x40\n      dup1\n      dup4\n      keccak256\n        /* \"DeadMansSwitch.sol\":4348:4392  benefactors[msg.sender].beneficiaryAddresses */\n      0x02\n      add\n        /* \"DeadMansSwitch.sol\":4348:4411  benefactors[msg.sender].beneficiaryAddresses.push(_beneficiary) */\n      dup1\n      sload\n      0x01\n      dup2\n      add\n      dup3\n      sstore\n      swap1\n      dup5\n      mstore\n      swap2\n      dup4\n      keccak256\n      swap1\n      swap2\n      add\n      dup1\n      sload\n      0xffffffffffffffffffffffff0000000000000000000000000000000000000000\n      and\n      sub(shl(0xa0, 0x01), 0x01)\n      dup8\n      and\n      swap1\n      dup2\n      or\n      swap1\n      swap2\n      sstore\n        /* \"DeadMansSwitch.sol\":4431:4472  BeneficiaryAdded(msg.sender,_beneficiary) */\n      swap1\n      mload\n        /* \"DeadMansSwitch.sol\":4348:4411  benefactors[msg.sender].beneficiaryAddresses.push(_beneficiary) */\n      swap1\n      swap4\n      pop\n        /* \"DeadMansSwitch.sol\":4431:4472  BeneficiaryAdded(msg.sender,_beneficiary) */\n      0xbb39c36a7502b7256e1a687254146a9a2ea7b146c77cb9e40eb0e2b8793781e1\n      swap2\n        /* \"DeadMansSwitch.sol\":4348:4359  benefactors */\n      swap1\n        /* \"DeadMansSwitch.sol\":4431:4472  BeneficiaryAdded(msg.sender,_beneficiary) */\n      log3\n        /* \"DeadMansSwitch.sol\":4180:4484  if (isBeneficiary(msg.sender, _beneficiary)){... */\n    tag_205:\n        /* \"DeadMansSwitch.sol\":4099:4583  function addBeneficiary(address _beneficiary) external onlyBenefactor {... */\n      pop\n      jump\t// out\n        /* \"DeadMansSwitch.sol\":3799:4091  function removeBeneficiary(address _beneficiary) external onlyBenefactor {... */\n    tag_72:\n        /* \"DeadMansSwitch.sol\":1987:1997  msg.sender */\n      caller\n        /* \"DeadMansSwitch.sol\":1975:1986  benefactors */\n      0x00\n        /* \"DeadMansSwitch.sol\":1975:1998  benefactors[msg.sender] */\n      swap1\n      dup2\n      mstore\n      0x20\n      dup2\n      swap1\n      mstore\n      0x40\n      swap1\n      keccak256\n        /* \"DeadMansSwitch.sol\":1975:2005  benefactors[msg.sender].exists */\n      sload\n      0xff\n      and\n        /* \"DeadMansSwitch.sol\":1975:2040  benefactors[msg.sender].exists && benefactors[msg.sender].isAlive */\n      dup1\n      iszero\n      tag_216\n      jumpi\n      pop\n        /* \"DeadMansSwitch.sol\":2021:2031  msg.sender */\n      caller\n        /* \"DeadMansSwitch.sol\":2009:2020  benefactors */\n      0x00\n        /* \"DeadMansSwitch.sol\":2009:2032  benefactors[msg.sender] */\n      swap1\n      dup2\n      mstore\n      0x20\n      dup2\n      swap1\n      mstore\n      0x40\n      swap1\n      keccak256\n        /* \"DeadMansSwitch.sol\":2009:2040  benefactors[msg.sender].isAlive */\n      0x05\n      add\n      sload\n      0x0100\n      swap1\n      div\n      0xff\n      and\n        /* \"DeadMansSwitch.sol\":1975:2040  benefactors[msg.sender].exists && benefactors[msg.sender].isAlive */\n    tag_216:\n        /* \"DeadMansSwitch.sol\":1967:2067  require(benefactors[msg.sender].exists && benefactors[msg.sender].isAlive, \"Not a valid benefactor\") */\n      tag_217\n      jumpi\n      mload(0x40)\n      shl(0xe5, 0x461bcd)\n      dup2\n      mstore\n        /* \"#utility.yul\":11669:11671   */\n      0x20\n        /* \"DeadMansSwitch.sol\":1967:2067  require(benefactors[msg.sender].exists && benefactors[msg.sender].isAlive, \"Not a valid benefactor\") */\n      0x04\n      dup3\n      add\n        /* \"#utility.yul\":11651:11672   */\n      mstore\n        /* \"#utility.yul\":11708:11710   */\n      0x16\n        /* \"#utility.yul\":11688:11706   */\n      0x24\n      dup3\n      add\n        /* \"#utility.yul\":11681:11711   */\n      mstore\n      shl(0x51, 0x2737ba1030903b30b634b2103132b732b330b1ba37b9)\n        /* \"#utility.yul\":11727:11745   */\n      0x44\n      dup3\n      add\n        /* \"#utility.yul\":11720:11772   */\n      mstore\n        /* \"#utility.yul\":11789:11807   */\n      0x64\n      add\n        /* \"DeadMansSwitch.sol\":1967:2067  require(benefactors[msg.sender].exists && benefactors[msg.sender].isAlive, \"Not a valid benefactor\") */\n      tag_115\n        /* \"#utility.yul\":11467:11813   */\n      jump\n        /* \"DeadMansSwitch.sol\":1967:2067  require(benefactors[msg.sender].exists && benefactors[msg.sender].isAlive, \"Not a valid benefactor\") */\n    tag_217:\n        /* \"DeadMansSwitch.sol\":3891:3929  isBeneficiary(msg.sender,_beneficiary) */\n      tag_220\n        /* \"DeadMansSwitch.sol\":3905:3915  msg.sender */\n      caller\n        /* \"DeadMansSwitch.sol\":3916:3928  _beneficiary */\n      dup3\n        /* \"DeadMansSwitch.sol\":3891:3904  isBeneficiary */\n      tag_46\n        /* \"DeadMansSwitch.sol\":3891:3929  isBeneficiary(msg.sender,_beneficiary) */\n      jump\t// in\n    tag_220:\n        /* \"DeadMansSwitch.sol\":3883:3955  require(isBeneficiary(msg.sender,_beneficiary), \"Beneficiary not found\") */\n      tag_221\n      jumpi\n      mload(0x40)\n      shl(0xe5, 0x461bcd)\n      dup2\n      mstore\n        /* \"#utility.yul\":12020:12022   */\n      0x20\n        /* \"DeadMansSwitch.sol\":3883:3955  require(isBeneficiary(msg.sender,_beneficiary), \"Beneficiary not found\") */\n      0x04\n      dup3\n      add\n        /* \"#utility.yul\":12002:12023   */\n      mstore\n        /* \"#utility.yul\":12059:12061   */\n      0x15\n        /* \"#utility.yul\":12039:12057   */\n      0x24\n      dup3\n      add\n        /* \"#utility.yul\":12032:12062   */\n      mstore\n      shl(0x5a, 0x10995b99599a58da585c9e481b9bdd08199bdd5b99)\n        /* \"#utility.yul\":12078:12096   */\n      0x44\n      dup3\n      add\n        /* \"#utility.yul\":12071:12122   */\n      mstore\n        /* \"#utility.yul\":12139:12157   */\n      0x64\n      add\n        /* \"DeadMansSwitch.sol\":3883:3955  require(isBeneficiary(msg.sender,_beneficiary), \"Beneficiary not found\") */\n      tag_115\n        /* \"#utility.yul\":11818:12163   */\n      jump\n        /* \"DeadMansSwitch.sol\":3883:3955  require(isBeneficiary(msg.sender,_beneficiary), \"Beneficiary not found\") */\n    tag_221:\n        /* \"DeadMansSwitch.sol\":3985:3995  msg.sender */\n      caller\n        /* \"DeadMansSwitch.sol\":3973:3984  benefactors */\n      0x00\n        /* \"DeadMansSwitch.sol\":3973:3996  benefactors[msg.sender] */\n      swap1\n      dup2\n      mstore\n      0x20\n      dup2\n      dup2\n      mstore\n      0x40\n      dup1\n      dup4\n      keccak256\n      sub(shl(0xa0, 0x01), 0x01)\n        /* \"DeadMansSwitch.sol\":3973:4024  benefactors[msg.sender].beneficiaries[_beneficiary] */\n      dup6\n      and\n      dup5\n      mstore\n        /* \"DeadMansSwitch.sol\":3973:4010  benefactors[msg.sender].beneficiaries */\n      0x01\n      swap1\n      dup2\n      add\n        /* \"DeadMansSwitch.sol\":3973:4024  benefactors[msg.sender].beneficiaries[_beneficiary] */\n      swap1\n      swap3\n      mstore\n      dup3\n      keccak256\n        /* \"DeadMansSwitch.sol\":3966:4024  delete benefactors[msg.sender].beneficiaries[_beneficiary] */\n      dup1\n      sload\n      not(0xff)\n      and\n      dup2\n      sstore\n        /* \"DeadMansSwitch.sol\":3973:4024  benefactors[msg.sender].beneficiaries[_beneficiary] */\n      swap2\n        /* \"DeadMansSwitch.sol\":3973:3984  benefactors */\n      swap1\n        /* \"DeadMansSwitch.sol\":3966:4024  delete benefactors[msg.sender].beneficiaries[_beneficiary] */\n      tag_223\n      swap1\n      dup4\n      add\n        /* \"DeadMansSwitch.sol\":3973:3984  benefactors */\n      dup3\n        /* \"DeadMansSwitch.sol\":3966:4024  delete benefactors[msg.sender].beneficiaries[_beneficiary] */\n      tag_224\n      jump\t// in\n    tag_223:\n      tag_225\n      0x02\n      dup4\n      add\n      0x00\n      tag_226\n      jump\t// in\n    tag_225:\n      tag_227\n      0x03\n      dup4\n      add\n      0x00\n      tag_226\n      jump\t// in\n    tag_227:\n      pop\n      pop\n        /* \"DeadMansSwitch.sol\":4040:4083  BeneficiaryRemoved(msg.sender,_beneficiary) */\n      mload(0x40)\n      sub(shl(0xa0, 0x01), 0x01)\n      dup3\n      and\n      swap1\n        /* \"DeadMansSwitch.sol\":4059:4069  msg.sender */\n      caller\n      swap1\n        /* \"DeadMansSwitch.sol\":4040:4083  BeneficiaryRemoved(msg.sender,_beneficiary) */\n      0x1a6590bd0cabbfcc7c86bef99e1034054e179905cfcc294598fcd426c0922442\n      swap1\n      0x00\n      swap1\n      log3\n        /* \"DeadMansSwitch.sol\":3799:4091  function removeBeneficiary(address _beneficiary) external onlyBenefactor {... */\n      pop\n      jump\t// out\n        /* \"DeadMansSwitch.sol\":5245:5977  function removeIpfsCID(address _beneficiary, string memory _ipfsCID) external onlyBenefactor {... */\n    tag_75:\n        /* \"DeadMansSwitch.sol\":1987:1997  msg.sender */\n      caller\n        /* \"DeadMansSwitch.sol\":1975:1986  benefactors */\n      0x00\n        /* \"DeadMansSwitch.sol\":1975:1998  benefactors[msg.sender] */\n      swap1\n      dup2\n      mstore\n      0x20\n      dup2\n      swap1\n      mstore\n      0x40\n      swap1\n      keccak256\n        /* \"DeadMansSwitch.sol\":1975:2005  benefactors[msg.sender].exists */\n      sload\n      0xff\n      and\n        /* \"DeadMansSwitch.sol\":1975:2040  benefactors[msg.sender].exists && benefactors[msg.sender].isAlive */\n      dup1\n      iszero\n      tag_229\n      jumpi\n      pop\n        /* \"DeadMansSwitch.sol\":2021:2031  msg.sender */\n      caller\n        /* \"DeadMansSwitch.sol\":2009:2020  benefactors */\n      0x00\n        /* \"DeadMansSwitch.sol\":2009:2032  benefactors[msg.sender] */\n      swap1\n      dup2\n      mstore\n      0x20\n      dup2\n      swap1\n      mstore\n      0x40\n      swap1\n      keccak256\n        /* \"DeadMansSwitch.sol\":2009:2040  benefactors[msg.sender].isAlive */\n      0x05\n      add\n      sload\n      0x0100\n      swap1\n      div\n      0xff\n      and\n        /* \"DeadMansSwitch.sol\":1975:2040  benefactors[msg.sender].exists && benefactors[msg.sender].isAlive */\n    tag_229:\n        /* \"DeadMansSwitch.sol\":1967:2067  require(benefactors[msg.sender].exists && benefactors[msg.sender].isAlive, \"Not a valid benefactor\") */\n      tag_230\n      jumpi\n      mload(0x40)\n      shl(0xe5, 0x461bcd)\n      dup2\n      mstore\n        /* \"#utility.yul\":11669:11671   */\n      0x20\n        /* \"DeadMansSwitch.sol\":1967:2067  require(benefactors[msg.sender].exists && benefactors[msg.sender].isAlive, \"Not a valid benefactor\") */\n      0x04\n      dup3\n      add\n        /* \"#utility.yul\":11651:11672   */\n      mstore\n        /* \"#utility.yul\":11708:11710   */\n      0x16\n        /* \"#utility.yul\":11688:11706   */\n      0x24\n      dup3\n      add\n        /* \"#utility.yul\":11681:11711   */\n      mstore\n      shl(0x51, 0x2737ba1030903b30b634b2103132b732b330b1ba37b9)\n        /* \"#utility.yul\":11727:11745   */\n      0x44\n      dup3\n      add\n        /* \"#utility.yul\":11720:11772   */\n      mstore\n        /* \"#utility.yul\":11789:11807   */\n      0x64\n      add\n        /* \"DeadMansSwitch.sol\":1967:2067  require(benefactors[msg.sender].exists && benefactors[msg.sender].isAlive, \"Not a valid benefactor\") */\n      tag_115\n        /* \"#utility.yul\":11467:11813   */\n      jump\n        /* \"DeadMansSwitch.sol\":1967:2067  require(benefactors[msg.sender].exists && benefactors[msg.sender].isAlive, \"Not a valid benefactor\") */\n    tag_230:\n        /* \"DeadMansSwitch.sol\":5357:5396  isBeneficiary(msg.sender, _beneficiary) */\n      tag_233\n        /* \"DeadMansSwitch.sol\":5371:5381  msg.sender */\n      caller\n        /* \"DeadMansSwitch.sol\":5383:5395  _beneficiary */\n      dup4\n        /* \"DeadMansSwitch.sol\":5357:5370  isBeneficiary */\n      tag_46\n        /* \"DeadMansSwitch.sol\":5357:5396  isBeneficiary(msg.sender, _beneficiary) */\n      jump\t// in\n    tag_233:\n        /* \"DeadMansSwitch.sol\":5349:5422  require(isBeneficiary(msg.sender, _beneficiary), \"Beneficiary not found\") */\n      tag_234\n      jumpi\n      mload(0x40)\n      shl(0xe5, 0x461bcd)\n      dup2\n      mstore\n        /* \"#utility.yul\":12020:12022   */\n      0x20\n        /* \"DeadMansSwitch.sol\":5349:5422  require(isBeneficiary(msg.sender, _beneficiary), \"Beneficiary not found\") */\n      0x04\n      dup3\n      add\n        /* \"#utility.yul\":12002:12023   */\n      mstore\n        /* \"#utility.yul\":12059:12061   */\n      0x15\n        /* \"#utility.yul\":12039:12057   */\n      0x24\n      dup3\n      add\n        /* \"#utility.yul\":12032:12062   */\n      mstore\n      shl(0x5a, 0x10995b99599a58da585c9e481b9bdd08199bdd5b99)\n        /* \"#utility.yul\":12078:12096   */\n      0x44\n      dup3\n      add\n        /* \"#utility.yul\":12071:12122   */\n      mstore\n        /* \"#utility.yul\":12139:12157   */\n      0x64\n      add\n        /* \"DeadMansSwitch.sol\":5349:5422  require(isBeneficiary(msg.sender, _beneficiary), \"Beneficiary not found\") */\n      tag_115\n        /* \"#utility.yul\":11818:12163   */\n      jump\n        /* \"DeadMansSwitch.sol\":5349:5422  require(isBeneficiary(msg.sender, _beneficiary), \"Beneficiary not found\") */\n    tag_234:\n        /* \"DeadMansSwitch.sol\":5475:5485  msg.sender */\n      caller\n        /* \"DeadMansSwitch.sol\":5435:5460  string[] storage ipfsCIDs */\n      0x00\n        /* \"DeadMansSwitch.sol\":5463:5486  benefactors[msg.sender] */\n      swap1\n      dup2\n      mstore\n      0x20\n      dup2\n      dup2\n      mstore\n      0x40\n      dup1\n      dup4\n      keccak256\n      sub(shl(0xa0, 0x01), 0x01)\n        /* \"DeadMansSwitch.sol\":5463:5514  benefactors[msg.sender].beneficiaries[_beneficiary] */\n      dup7\n      and\n      dup5\n      mstore\n        /* \"DeadMansSwitch.sol\":5463:5500  benefactors[msg.sender].beneficiaries */\n      0x01\n      swap1\n      dup2\n      add\n        /* \"DeadMansSwitch.sol\":5463:5514  benefactors[msg.sender].beneficiaries[_beneficiary] */\n      swap1\n      swap3\n      mstore\n      dup3\n      keccak256\n        /* \"DeadMansSwitch.sol\":5463:5523  benefactors[msg.sender].beneficiaries[_beneficiary].ipfsCIDs */\n      add\n      swap1\n        /* \"DeadMansSwitch.sol\":5544:5913  for (uint256 i = 0; i < ipfsCIDs.length; i++) {... */\n    tag_236:\n        /* \"DeadMansSwitch.sol\":5568:5583  ipfsCIDs.length */\n      dup2\n      sload\n        /* \"DeadMansSwitch.sol\":5564:5583  i < ipfsCIDs.length */\n      dup2\n      lt\n        /* \"DeadMansSwitch.sol\":5544:5913  for (uint256 i = 0; i < ipfsCIDs.length; i++) {... */\n      iszero\n      tag_237\n      jumpi\n        /* \"DeadMansSwitch.sol\":5680:5688  _ipfsCID */\n      dup3\n        /* \"DeadMansSwitch.sol\":5663:5689  abi.encodePacked(_ipfsCID) */\n      add(0x20, mload(0x40))\n      tag_239\n      swap2\n      swap1\n      tag_186\n      jump\t// in\n    tag_239:\n      mload(0x40)\n      0x20\n      dup2\n      dup4\n      sub\n      sub\n      dup2\n      mstore\n      swap1\n      0x40\n      mstore\n        /* \"DeadMansSwitch.sol\":5653:5690  keccak256(abi.encodePacked(_ipfsCID)) */\n      dup1\n      mload\n      swap1\n      0x20\n      add\n      keccak256\n        /* \"DeadMansSwitch.sol\":5636:5644  ipfsCIDs */\n      dup3\n        /* \"DeadMansSwitch.sol\":5645:5646  i */\n      dup3\n        /* \"DeadMansSwitch.sol\":5636:5647  ipfsCIDs[i] */\n      dup2\n      sload\n      dup2\n      lt\n      tag_241\n      jumpi\n      tag_241\n      tag_155\n      jump\t// in\n    tag_241:\n      swap1\n      0x00\n      mstore\n      keccak256(0x00, 0x20)\n      add\n        /* \"DeadMansSwitch.sol\":5619:5648  abi.encodePacked(ipfsCIDs[i]) */\n      add(0x20, mload(0x40))\n      tag_243\n      swap2\n      swap1\n      tag_191\n      jump\t// in\n    tag_243:\n      mload(0x40)\n      0x20\n      dup2\n      dup4\n      sub\n      sub\n      dup2\n      mstore\n      swap1\n      0x40\n      mstore\n        /* \"DeadMansSwitch.sol\":5609:5649  keccak256(abi.encodePacked(ipfsCIDs[i])) */\n      dup1\n      mload\n      swap1\n      0x20\n      add\n      keccak256\n        /* \"DeadMansSwitch.sol\":5609:5690  keccak256(abi.encodePacked(ipfsCIDs[i])) == keccak256(abi.encodePacked(_ipfsCID)) */\n      sub\n        /* \"DeadMansSwitch.sol\":5605:5902  if (keccak256(abi.encodePacked(ipfsCIDs[i])) == keccak256(abi.encodePacked(_ipfsCID))) {... */\n      tag_244\n      jumpi\n        /* \"DeadMansSwitch.sol\":5734:5749  ipfsCIDs.length */\n      dup2\n      sload\n        /* \"DeadMansSwitch.sol\":5725:5733  ipfsCIDs */\n      dup3\n      swap1\n        /* \"DeadMansSwitch.sol\":5734:5753  ipfsCIDs.length - 1 */\n      tag_245\n      swap1\n        /* \"DeadMansSwitch.sol\":5752:5753  1 */\n      0x01\n      swap1\n        /* \"DeadMansSwitch.sol\":5734:5753  ipfsCIDs.length - 1 */\n      tag_103\n      jump\t// in\n    tag_245:\n        /* \"DeadMansSwitch.sol\":5725:5754  ipfsCIDs[ipfsCIDs.length - 1] */\n      dup2\n      sload\n      dup2\n      lt\n      tag_247\n      jumpi\n      tag_247\n      tag_155\n      jump\t// in\n    tag_247:\n      swap1\n      0x00\n      mstore\n      keccak256(0x00, 0x20)\n      add\n        /* \"DeadMansSwitch.sol\":5711:5719  ipfsCIDs */\n      dup3\n        /* \"DeadMansSwitch.sol\":5720:5721  i */\n      dup3\n        /* \"DeadMansSwitch.sol\":5711:5722  ipfsCIDs[i] */\n      dup2\n      sload\n      dup2\n      lt\n      tag_250\n      jumpi\n      tag_250\n      tag_155\n      jump\t// in\n    tag_250:\n      swap1\n      0x00\n      mstore\n      keccak256(0x00, 0x20)\n      add\n        /* \"DeadMansSwitch.sol\":5711:5754  ipfsCIDs[i] = ipfsCIDs[ipfsCIDs.length - 1] */\n      swap1\n      dup2\n      tag_252\n      swap2\n      swap1\n      tag_253\n      jump\t// in\n    tag_252:\n      pop\n        /* \"DeadMansSwitch.sol\":5773:5781  ipfsCIDs */\n      dup2\n        /* \"DeadMansSwitch.sol\":5773:5787  ipfsCIDs.pop() */\n      dup1\n      sload\n      dup1\n      tag_255\n      jumpi\n      tag_255\n      tag_256\n      jump\t// in\n    tag_255:\n      0x01\n      swap1\n      sub\n      dup2\n      dup2\n      swap1\n      0x00\n      mstore\n      keccak256(0x00, 0x20)\n      add\n      0x00\n      tag_258\n      swap2\n      swap1\n      tag_226\n      jump\t// in\n    tag_258:\n      swap1\n      sstore\n        /* \"DeadMansSwitch.sol\":5838:5850  _beneficiary */\n      dup4\n      sub(shl(0xa0, 0x01), 0x01)\n        /* \"DeadMansSwitch.sol\":5811:5861  IpfsCIDRemoved(msg.sender, _beneficiary, _ipfsCID) */\n      and\n        /* \"DeadMansSwitch.sol\":5826:5836  msg.sender */\n      caller\n      sub(shl(0xa0, 0x01), 0x01)\n        /* \"DeadMansSwitch.sol\":5811:5861  IpfsCIDRemoved(msg.sender, _beneficiary, _ipfsCID) */\n      and\n      0x4c13211ce3b2d0cb3e02a662cc071d6be555042ca58d4d812b7b90e80d3250ac\n        /* \"DeadMansSwitch.sol\":5852:5860  _ipfsCID */\n      dup6\n        /* \"DeadMansSwitch.sol\":5811:5861  IpfsCIDRemoved(msg.sender, _beneficiary, _ipfsCID) */\n      mload(0x40)\n      tag_259\n      swap2\n      swap1\n      tag_80\n      jump\t// in\n    tag_259:\n      mload(0x40)\n      dup1\n      swap2\n      sub\n      swap1\n      log3\n        /* \"DeadMansSwitch.sol\":5880:5887  return; */\n      pop\n      pop\n        /* \"DeadMansSwitch.sol\":5245:5977  function removeIpfsCID(address _beneficiary, string memory _ipfsCID) external onlyBenefactor {... */\n      pop\n      pop\n      jump\t// out\n        /* \"DeadMansSwitch.sol\":5605:5902  if (keccak256(abi.encodePacked(ipfsCIDs[i])) == keccak256(abi.encodePacked(_ipfsCID))) {... */\n    tag_244:\n        /* \"DeadMansSwitch.sol\":5585:5588  i++ */\n      dup1\n      tag_260\n      dup2\n      tag_171\n      jump\t// in\n    tag_260:\n      swap2\n      pop\n      pop\n        /* \"DeadMansSwitch.sol\":5544:5913  for (uint256 i = 0; i < ipfsCIDs.length; i++) {... */\n      jump(tag_236)\n    tag_237:\n      pop\n        /* \"DeadMansSwitch.sol\":5923:5969  revert(\"CID not assigned to this beneficiary\") */\n      mload(0x40)\n      shl(0xe5, 0x461bcd)\n      dup2\n      mstore\n        /* \"#utility.yul\":15492:15494   */\n      0x20\n        /* \"DeadMansSwitch.sol\":5923:5969  revert(\"CID not assigned to this beneficiary\") */\n      0x04\n      dup3\n      add\n        /* \"#utility.yul\":15474:15495   */\n      mstore\n        /* \"#utility.yul\":15531:15533   */\n      0x24\n        /* \"#utility.yul\":15511:15529   */\n      dup1\n      dup3\n      add\n        /* \"#utility.yul\":15504:15534   */\n      mstore\n        /* \"#utility.yul\":15570:15604   */\n      0x434944206e6f742061737369676e656420746f20746869732062656e65666963\n        /* \"#utility.yul\":15550:15568   */\n      0x44\n      dup3\n      add\n        /* \"#utility.yul\":15543:15605   */\n      mstore\n      shl(0xe0, 0x69617279)\n        /* \"#utility.yul\":15621:15639   */\n      0x64\n      dup3\n      add\n        /* \"#utility.yul\":15614:15648   */\n      mstore\n        /* \"#utility.yul\":15665:15684   */\n      0x84\n      add\n        /* \"DeadMansSwitch.sol\":5923:5969  revert(\"CID not assigned to this beneficiary\") */\n      tag_115\n        /* \"#utility.yul\":15290:15690   */\n      jump\n        /* \"DeadMansSwitch.sol\":6726:7048  function getBenefactorPublicKey(address _benefactor, address _beneficiary) public view returns(string memory) {... */\n    tag_78:\n        /* \"DeadMansSwitch.sol\":6821:6834  string memory */\n      0x60\n        /* \"DeadMansSwitch.sol\":6851:6891  isBeneficiary(_benefactor, _beneficiary) */\n      tag_264\n        /* \"DeadMansSwitch.sol\":6865:6876  _benefactor */\n      dup4\n        /* \"DeadMansSwitch.sol\":6878:6890  _beneficiary */\n      dup4\n        /* \"DeadMansSwitch.sol\":6851:6864  isBeneficiary */\n      tag_46\n        /* \"DeadMansSwitch.sol\":6851:6891  isBeneficiary(_benefactor, _beneficiary) */\n      jump\t// in\n    tag_264:\n        /* \"DeadMansSwitch.sol\":6847:7041  if (isBeneficiary(_benefactor, _beneficiary)) {... */\n      iszero\n      tag_265\n      jumpi\n      sub(shl(0xa0, 0x01), 0x01)\n        /* \"DeadMansSwitch.sol\":6915:6939  benefactors[_benefactor] */\n      dup1\n      dup5\n      and\n        /* \"DeadMansSwitch.sol\":6915:6926  benefactors */\n      0x00\n        /* \"DeadMansSwitch.sol\":6915:6939  benefactors[_benefactor] */\n      swap1\n      dup2\n      mstore\n      0x20\n      dup2\n      dup2\n      mstore\n      0x40\n      dup1\n      dup4\n      keccak256\n        /* \"DeadMansSwitch.sol\":6915:6967  benefactors[_benefactor].beneficiaries[_beneficiary] */\n      swap4\n      dup7\n      and\n      dup4\n      mstore\n        /* \"DeadMansSwitch.sol\":6915:6953  benefactors[_benefactor].beneficiaries */\n      0x01\n      swap1\n      swap4\n      add\n        /* \"DeadMansSwitch.sol\":6915:6967  benefactors[_benefactor].beneficiaries[_beneficiary] */\n      swap1\n      mstore\n      keccak256\n        /* \"DeadMansSwitch.sol\":6915:6987  benefactors[_benefactor].beneficiaries[_beneficiary].benefactorPublicKey */\n      0x02\n      add\n        /* \"DeadMansSwitch.sol\":6908:6987  return benefactors[_benefactor].beneficiaries[_beneficiary].benefactorPublicKey */\n      dup1\n      sload\n      tag_266\n      swap1\n      tag_161\n      jump\t// in\n    tag_266:\n      dup1\n      0x1f\n      add\n      0x20\n      dup1\n      swap2\n      div\n      mul\n      0x20\n      add\n      mload(0x40)\n      swap1\n      dup2\n      add\n      0x40\n      mstore\n      dup1\n      swap3\n      swap2\n      swap1\n      dup2\n      dup2\n      mstore\n      0x20\n      add\n      dup3\n      dup1\n      sload\n      tag_267\n      swap1\n      tag_161\n      jump\t// in\n    tag_267:\n      dup1\n      iszero\n      tag_268\n      jumpi\n      dup1\n      0x1f\n      lt\n      tag_269\n      jumpi\n      0x0100\n      dup1\n      dup4\n      sload\n      div\n      mul\n      dup4\n      mstore\n      swap2\n      0x20\n      add\n      swap2\n      jump(tag_268)\n    tag_269:\n      dup3\n      add\n      swap2\n      swap1\n      0x00\n      mstore\n      keccak256(0x00, 0x20)\n      swap1\n    tag_270:\n      dup2\n      sload\n      dup2\n      mstore\n      swap1\n      0x01\n      add\n      swap1\n      0x20\n      add\n      dup1\n      dup4\n      gt\n      tag_270\n      jumpi\n      dup3\n      swap1\n      sub\n      0x1f\n      and\n      dup3\n      add\n      swap2\n    tag_268:\n      pop\n      pop\n      pop\n      pop\n      pop\n      swap1\n      pop\n      jump(tag_117)\n        /* \"DeadMansSwitch.sol\":6847:7041  if (isBeneficiary(_benefactor, _beneficiary)) {... */\n    tag_265:\n      pop\n        /* \"DeadMansSwitch.sol\":7020:7029  return \"\" */\n      0x40\n      dup1\n      mload\n      0x20\n      dup2\n      add\n      swap1\n      swap2\n      mstore\n      0x00\n      dup2\n      mstore\n      jump(tag_117)\n        /* \"DeadMansSwitch.sol\":7390:7943  function enableSwitch(address _benefactor) external {... */\n    tag_83:\n      sub(shl(0xa0, 0x01), 0x01)\n        /* \"DeadMansSwitch.sol\":7461:7485  benefactors[_benefactor] */\n      dup2\n      and\n        /* \"DeadMansSwitch.sol\":7461:7472  benefactors */\n      0x00\n        /* \"DeadMansSwitch.sol\":7461:7485  benefactors[_benefactor] */\n      swap1\n      dup2\n      mstore\n      0x20\n      dup2\n      dup2\n      mstore\n      0x40\n      dup1\n      dup4\n      keccak256\n        /* \"DeadMansSwitch.sol\":7500:7510  msg.sender */\n      caller\n        /* \"DeadMansSwitch.sol\":7461:7511  benefactors[_benefactor].beneficiaries[msg.sender] */\n      dup5\n      mstore\n        /* \"DeadMansSwitch.sol\":7461:7499  benefactors[_benefactor].beneficiaries */\n      0x01\n      add\n        /* \"DeadMansSwitch.sol\":7461:7511  benefactors[_benefactor].beneficiaries[msg.sender] */\n      swap1\n      swap2\n      mstore\n      swap1\n      keccak256\n        /* \"DeadMansSwitch.sol\":7461:7518  benefactors[_benefactor].beneficiaries[msg.sender].exists */\n      sload\n      0xff\n      and\n        /* \"DeadMansSwitch.sol\":7453:7546  require(benefactors[_benefactor].beneficiaries[msg.sender].exists, \"Not a valid beneficiary\") */\n      tag_273\n      jumpi\n      mload(0x40)\n      shl(0xe5, 0x461bcd)\n      dup2\n      mstore\n        /* \"#utility.yul\":15897:15899   */\n      0x20\n        /* \"DeadMansSwitch.sol\":7453:7546  require(benefactors[_benefactor].beneficiaries[msg.sender].exists, \"Not a valid beneficiary\") */\n      0x04\n      dup3\n      add\n        /* \"#utility.yul\":15879:15900   */\n      mstore\n        /* \"#utility.yul\":15936:15938   */\n      0x17\n        /* \"#utility.yul\":15916:15934   */\n      0x24\n      dup3\n      add\n        /* \"#utility.yul\":15909:15939   */\n      mstore\n        /* \"#utility.yul\":15975:16000   */\n      0x4e6f7420612076616c69642062656e6566696369617279000000000000000000\n        /* \"#utility.yul\":15955:15973   */\n      0x44\n      dup3\n      add\n        /* \"#utility.yul\":15948:16001   */\n      mstore\n        /* \"#utility.yul\":16018:16036   */\n      0x64\n      add\n        /* \"DeadMansSwitch.sol\":7453:7546  require(benefactors[_benefactor].beneficiaries[msg.sender].exists, \"Not a valid beneficiary\") */\n      tag_115\n        /* \"#utility.yul\":15695:16042   */\n      jump\n        /* \"DeadMansSwitch.sol\":7453:7546  require(benefactors[_benefactor].beneficiaries[msg.sender].exists, \"Not a valid beneficiary\") */\n    tag_273:\n      sub(shl(0xa0, 0x01), 0x01)\n        /* \"DeadMansSwitch.sol\":7562:7586  benefactors[_benefactor] */\n      dup2\n      and\n        /* \"DeadMansSwitch.sol\":7562:7573  benefactors */\n      0x00\n        /* \"DeadMansSwitch.sol\":7562:7586  benefactors[_benefactor] */\n      swap1\n      dup2\n      mstore\n      0x20\n      dup2\n      swap1\n      mstore\n      0x40\n      swap1\n      keccak256\n        /* \"DeadMansSwitch.sol\":7562:7600  benefactors[_benefactor].isSwitchedOff */\n      0x05\n      add\n      sload\n      0xff\n      and\n        /* \"DeadMansSwitch.sol\":7557:7694  if (!benefactors[_benefactor].isSwitchedOff) {... */\n      tag_276\n      jumpi\n        /* \"DeadMansSwitch.sol\":7622:7661  SwitchAlreadyOn(_benefactor,msg.sender) */\n      mload(0x40)\n        /* \"DeadMansSwitch.sol\":7650:7660  msg.sender */\n      caller\n      swap1\n      sub(shl(0xa0, 0x01), 0x01)\n        /* \"DeadMansSwitch.sol\":7622:7661  SwitchAlreadyOn(_benefactor,msg.sender) */\n      dup4\n      and\n      swap1\n      0x67c4731bdc193862f421e091d18f46df876bfe1b8b9aa97504f1d50d425b239d\n      swap1\n      0x00\n      swap1\n      log3\n        /* \"DeadMansSwitch.sol\":7390:7943  function enableSwitch(address _benefactor) external {... */\n      pop\n      jump\t// out\n        /* \"DeadMansSwitch.sol\":7557:7694  if (!benefactors[_benefactor].isSwitchedOff) {... */\n    tag_276:\n      sub(shl(0xa0, 0x01), 0x01)\n        /* \"DeadMansSwitch.sol\":7704:7728  benefactors[_benefactor] */\n      dup2\n      and\n        /* \"DeadMansSwitch.sol\":7745:7750  false */\n      0x00\n        /* \"DeadMansSwitch.sol\":7704:7728  benefactors[_benefactor] */\n      dup2\n      dup2\n      mstore\n      0x20\n      dup2\n      dup2\n      mstore\n      0x40\n      swap2\n      dup3\n      swap1\n      keccak256\n        /* \"DeadMansSwitch.sol\":7704:7742  benefactors[_benefactor].isSwitchedOff */\n      0x05\n      dup2\n      add\n        /* \"DeadMansSwitch.sol\":7704:7750  benefactors[_benefactor].isSwitchedOff = false */\n      dup1\n      sload\n      not(0xff)\n      and\n      swap1\n      sstore\n        /* \"DeadMansSwitch.sol\":7815:7830  block.timestamp */\n      timestamp\n        /* \"DeadMansSwitch.sol\":7761:7812  benefactors[_benefactor].lastBenefactorResponseTime */\n      0x04\n      dup3\n      add\n        /* \"DeadMansSwitch.sol\":7761:7830  benefactors[_benefactor].lastBenefactorResponseTime = block.timestamp */\n      sstore\n        /* \"DeadMansSwitch.sol\":7892:7934  benefactors[_benefactor].countdownDuration */\n      0x03\n      add\n      sload\n        /* \"DeadMansSwitch.sol\":7846:7935  DeadMansSwitchEnabled(_benefactor,msg.sender, benefactors[_benefactor].countdownDuration) */\n      swap2\n      mload\n        /* \"#utility.yul\":552:577   */\n      swap2\n      dup3\n      mstore\n        /* \"DeadMansSwitch.sol\":7880:7890  msg.sender */\n      caller\n      swap3\n        /* \"DeadMansSwitch.sol\":7704:7728  benefactors[_benefactor] */\n      swap2\n        /* \"DeadMansSwitch.sol\":7846:7935  DeadMansSwitchEnabled(_benefactor,msg.sender, benefactors[_benefactor].countdownDuration) */\n      0x82595752291d0261dfb9b4b0c2307021c29c34e22fe0697b4840b529dc351bc3\n      swap2\n        /* \"#utility.yul\":525:543   */\n      add\n        /* \"DeadMansSwitch.sol\":7846:7935  DeadMansSwitchEnabled(_benefactor,msg.sender, benefactors[_benefactor].countdownDuration) */\n      mload(0x40)\n      dup1\n      swap2\n      sub\n      swap1\n      log3\n        /* \"DeadMansSwitch.sol\":7390:7943  function enableSwitch(address _benefactor) external {... */\n      pop\n      jump\t// out\n        /* \"DeadMansSwitch.sol\":9142:9888  function respondToSwitch() external onlyBenefactor {... */\n    tag_88:\n        /* \"DeadMansSwitch.sol\":1987:1997  msg.sender */\n      caller\n        /* \"DeadMansSwitch.sol\":1975:1986  benefactors */\n      0x00\n        /* \"DeadMansSwitch.sol\":1975:1998  benefactors[msg.sender] */\n      swap1\n      dup2\n      mstore\n      0x20\n      dup2\n      swap1\n      mstore\n      0x40\n      swap1\n      keccak256\n        /* \"DeadMansSwitch.sol\":1975:2005  benefactors[msg.sender].exists */\n      sload\n      0xff\n      and\n        /* \"DeadMansSwitch.sol\":1975:2040  benefactors[msg.sender].exists && benefactors[msg.sender].isAlive */\n      dup1\n      iszero\n      tag_280\n      jumpi\n      pop\n        /* \"DeadMansSwitch.sol\":2021:2031  msg.sender */\n      caller\n        /* \"DeadMansSwitch.sol\":2009:2020  benefactors */\n      0x00\n        /* \"DeadMansSwitch.sol\":2009:2032  benefactors[msg.sender] */\n      swap1\n      dup2\n      mstore\n      0x20\n      dup2\n      swap1\n      mstore\n      0x40\n      swap1\n      keccak256\n        /* \"DeadMansSwitch.sol\":2009:2040  benefactors[msg.sender].isAlive */\n      0x05\n      add\n      sload\n      0x0100\n      swap1\n      div\n      0xff\n      and\n        /* \"DeadMansSwitch.sol\":1975:2040  benefactors[msg.sender].exists && benefactors[msg.sender].isAlive */\n    tag_280:\n        /* \"DeadMansSwitch.sol\":1967:2067  require(benefactors[msg.sender].exists && benefactors[msg.sender].isAlive, \"Not a valid benefactor\") */\n      tag_281\n      jumpi\n      mload(0x40)\n      shl(0xe5, 0x461bcd)\n      dup2\n      mstore\n        /* \"#utility.yul\":11669:11671   */\n      0x20\n        /* \"DeadMansSwitch.sol\":1967:2067  require(benefactors[msg.sender].exists && benefactors[msg.sender].isAlive, \"Not a valid benefactor\") */\n      0x04\n      dup3\n      add\n        /* \"#utility.yul\":11651:11672   */\n      mstore\n        /* \"#utility.yul\":11708:11710   */\n      0x16\n        /* \"#utility.yul\":11688:11706   */\n      0x24\n      dup3\n      add\n        /* \"#utility.yul\":11681:11711   */\n      mstore\n      shl(0x51, 0x2737ba1030903b30b634b2103132b732b330b1ba37b9)\n        /* \"#utility.yul\":11727:11745   */\n      0x44\n      dup3\n      add\n        /* \"#utility.yul\":11720:11772   */\n      mstore\n        /* \"#utility.yul\":11789:11807   */\n      0x64\n      add\n        /* \"DeadMansSwitch.sol\":1967:2067  require(benefactors[msg.sender].exists && benefactors[msg.sender].isAlive, \"Not a valid benefactor\") */\n      tag_115\n        /* \"#utility.yul\":11467:11813   */\n      jump\n        /* \"DeadMansSwitch.sol\":1967:2067  require(benefactors[msg.sender].exists && benefactors[msg.sender].isAlive, \"Not a valid benefactor\") */\n    tag_281:\n        /* \"DeadMansSwitch.sol\":9220:9230  msg.sender */\n      caller\n        /* \"DeadMansSwitch.sol\":9208:9219  benefactors */\n      0x00\n        /* \"DeadMansSwitch.sol\":9208:9231  benefactors[msg.sender] */\n      swap1\n      dup2\n      mstore\n      0x20\n      dup2\n      swap1\n      mstore\n      0x40\n      swap1\n      keccak256\n        /* \"DeadMansSwitch.sol\":9208:9258  benefactors[msg.sender].lastBenefactorResponseTime */\n      0x04\n      add\n      sload\n        /* \"DeadMansSwitch.sol\":9208:9263  benefactors[msg.sender].lastBenefactorResponseTime != 0 */\n      iszero\n        /* \"DeadMansSwitch.sol\":9204:9881  if (benefactors[msg.sender].lastBenefactorResponseTime != 0) {... */\n      tag_284\n      jumpi\n        /* \"DeadMansSwitch.sol\":9284:9312  checkAliveStatus(msg.sender) */\n      tag_285\n        /* \"DeadMansSwitch.sol\":9301:9311  msg.sender */\n      caller\n        /* \"DeadMansSwitch.sol\":9284:9300  checkAliveStatus */\n      tag_36\n        /* \"DeadMansSwitch.sol\":9284:9312  checkAliveStatus(msg.sender) */\n      jump\t// in\n    tag_285:\n        /* \"DeadMansSwitch.sol\":9280:9668  if (checkAliveStatus(msg.sender)) {... */\n      iszero\n      tag_286\n      jumpi\n        /* \"DeadMansSwitch.sol\":9356:9366  msg.sender */\n      caller\n      sub(shl(0xa0, 0x01), 0x01)\n        /* \"DeadMansSwitch.sol\":9338:9389  BenefactorIsAlive(msg.sender,\"Benefactor is alive\") */\n      and\n      0x793324a6f079e577f4a4646c7ec753efd3beddc2f4ce07bfae5f105c449ac356\n      mload(0x40)\n      tag_287\n      swap1\n        /* \"#utility.yul\":16249:16251   */\n      0x20\n        /* \"#utility.yul\":16231:16252   */\n      dup1\n      dup3\n      mstore\n        /* \"#utility.yul\":16288:16290   */\n      0x13\n        /* \"#utility.yul\":16268:16286   */\n      swap1\n      dup3\n      add\n        /* \"#utility.yul\":16261:16291   */\n      mstore\n        /* \"#utility.yul\":16327:16348   */\n      0x42656e65666163746f7220697320616c69766500000000000000000000000000\n        /* \"#utility.yul\":16322:16324   */\n      0x40\n        /* \"#utility.yul\":16307:16325   */\n      dup3\n      add\n        /* \"#utility.yul\":16300:16349   */\n      mstore\n        /* \"#utility.yul\":16381:16383   */\n      0x60\n        /* \"#utility.yul\":16366:16384   */\n      add\n      swap1\n        /* \"#utility.yul\":16047:16390   */\n      jump\n        /* \"DeadMansSwitch.sol\":9338:9389  BenefactorIsAlive(msg.sender,\"Benefactor is alive\") */\n    tag_287:\n      mload(0x40)\n      dup1\n      swap2\n      sub\n      swap1\n      log2\n        /* \"DeadMansSwitch.sol\":9408:9423  disableSwitch() */\n      tag_289\n        /* \"DeadMansSwitch.sol\":9408:9421  disableSwitch */\n      tag_290\n        /* \"DeadMansSwitch.sol\":9408:9423  disableSwitch() */\n      jump\t// in\n    tag_289:\n        /* \"DeadMansSwitch.sol\":9454:9464  msg.sender */\n      caller\n        /* \"DeadMansSwitch.sol\":9442:9453  benefactors */\n      0x00\n        /* \"DeadMansSwitch.sol\":9442:9465  benefactors[msg.sender] */\n      swap1\n      dup2\n      mstore\n      0x20\n      dup2\n      swap1\n      mstore\n      0x40\n      swap1\n      keccak256\n        /* \"DeadMansSwitch.sol\":9495:9510  block.timestamp */\n      timestamp\n        /* \"DeadMansSwitch.sol\":9442:9492  benefactors[msg.sender].lastBenefactorResponseTime */\n      0x04\n      swap1\n      swap2\n      add\n        /* \"DeadMansSwitch.sol\":9442:9510  benefactors[msg.sender].lastBenefactorResponseTime = block.timestamp */\n      sstore\n        /* \"DeadMansSwitch.sol\":9142:9888  function respondToSwitch() external onlyBenefactor {... */\n      jump\t// out\n        /* \"DeadMansSwitch.sol\":9280:9668  if (checkAliveStatus(msg.sender)) {... */\n    tag_286:\n        /* \"DeadMansSwitch.sol\":9568:9578  msg.sender */\n      caller\n        /* \"DeadMansSwitch.sol\":3238:3274  BenefactorInfo storage newBenefactor */\n      0x00\n        /* \"DeadMansSwitch.sol\":3277:3301  benefactors[_benefactor] */\n      swap1\n      dup2\n      mstore\n      0x20\n      dup2\n      swap1\n      mstore\n      0x40\n      swap1\n      keccak256\n        /* \"DeadMansSwitch.sol\":3312:3340  newBenefactor.exists = false */\n      dup1\n      sload\n      not(0xff)\n      and\n      dup2\n      sstore\n        /* \"DeadMansSwitch.sol\":3351:3372  newBenefactor.isAlive */\n      0x05\n      add\n        /* \"DeadMansSwitch.sol\":3351:3380  newBenefactor.isAlive = false */\n      dup1\n      sload\n      not(0xff00)\n      and\n      swap1\n      sstore\n        /* \"DeadMansSwitch.sol\":9620:9630  msg.sender */\n      caller\n      sub(shl(0xa0, 0x01), 0x01)\n        /* \"DeadMansSwitch.sol\":9603:9652  BenefactorIsDead(msg.sender,\"Benefactor is dead\") */\n      and\n      0x5a68fa7d6b655a3e592d5d99ac82863424750e9d262c902f30f9e56655e7a856\n      mload(0x40)\n      tag_293\n      swap1\n        /* \"#utility.yul\":16597:16599   */\n      0x20\n        /* \"#utility.yul\":16579:16600   */\n      dup1\n      dup3\n      mstore\n        /* \"#utility.yul\":16636:16638   */\n      0x12\n        /* \"#utility.yul\":16616:16634   */\n      swap1\n      dup3\n      add\n        /* \"#utility.yul\":16609:16639   */\n      mstore\n        /* \"#utility.yul\":16675:16695   */\n      0x42656e65666163746f7220697320646561640000000000000000000000000000\n        /* \"#utility.yul\":16670:16672   */\n      0x40\n        /* \"#utility.yul\":16655:16673   */\n      dup3\n      add\n        /* \"#utility.yul\":16648:16696   */\n      mstore\n        /* \"#utility.yul\":16728:16730   */\n      0x60\n        /* \"#utility.yul\":16713:16731   */\n      add\n      swap1\n        /* \"#utility.yul\":16395:16737   */\n      jump\n        /* \"DeadMansSwitch.sol\":9603:9652  BenefactorIsDead(msg.sender,\"Benefactor is dead\") */\n    tag_293:\n      mload(0x40)\n      dup1\n      swap2\n      sub\n      swap1\n      log2\n        /* \"DeadMansSwitch.sol\":9142:9888  function respondToSwitch() external onlyBenefactor {... */\n      jump\t// out\n        /* \"DeadMansSwitch.sol\":9204:9881  if (benefactors[msg.sender].lastBenefactorResponseTime != 0) {... */\n    tag_284:\n        /* \"DeadMansSwitch.sol\":9723:9733  msg.sender */\n      caller\n      sub(shl(0xa0, 0x01), 0x01)\n        /* \"DeadMansSwitch.sol\":9705:9756  BenefactorIsAlive(msg.sender,\"Benefactor is alive\") */\n      and\n      0x793324a6f079e577f4a4646c7ec753efd3beddc2f4ce07bfae5f105c449ac356\n      mload(0x40)\n      tag_287\n      swap1\n        /* \"#utility.yul\":16249:16251   */\n      0x20\n        /* \"#utility.yul\":16231:16252   */\n      dup1\n      dup3\n      mstore\n        /* \"#utility.yul\":16288:16290   */\n      0x13\n        /* \"#utility.yul\":16268:16286   */\n      swap1\n      dup3\n      add\n        /* \"#utility.yul\":16261:16291   */\n      mstore\n        /* \"#utility.yul\":16327:16348   */\n      0x42656e65666163746f7220697320616c69766500000000000000000000000000\n        /* \"#utility.yul\":16322:16324   */\n      0x40\n        /* \"#utility.yul\":16307:16325   */\n      dup3\n      add\n        /* \"#utility.yul\":16300:16349   */\n      mstore\n        /* \"#utility.yul\":16381:16383   */\n      0x60\n        /* \"#utility.yul\":16366:16384   */\n      add\n      swap1\n        /* \"#utility.yul\":16047:16390   */\n      jump\n        /* \"DeadMansSwitch.sol\":5985:6346  function addBenefactorPublicKey(address _benefactor, address _beneficiary, string memory _key) public {... */\n    tag_91:\n        /* \"DeadMansSwitch.sol\":6106:6145  isBeneficiary(_benefactor,_beneficiary) */\n      tag_299\n        /* \"DeadMansSwitch.sol\":6120:6131  _benefactor */\n      dup4\n        /* \"DeadMansSwitch.sol\":6132:6144  _beneficiary */\n      dup4\n        /* \"DeadMansSwitch.sol\":6106:6119  isBeneficiary */\n      tag_46\n        /* \"DeadMansSwitch.sol\":6106:6145  isBeneficiary(_benefactor,_beneficiary) */\n      jump\t// in\n    tag_299:\n        /* \"DeadMansSwitch.sol\":6098:6182  require(isBeneficiary(_benefactor,_beneficiary), \"Beneficiary/Benefactor not found\") */\n      tag_300\n      jumpi\n      mload(0x40)\n      shl(0xe5, 0x461bcd)\n      dup2\n      mstore\n        /* \"#utility.yul\":8101:8103   */\n      0x20\n        /* \"DeadMansSwitch.sol\":6098:6182  require(isBeneficiary(_benefactor,_beneficiary), \"Beneficiary/Benefactor not found\") */\n      0x04\n      dup3\n      add\n        /* \"#utility.yul\":8083:8104   */\n      dup2\n      swap1\n      mstore\n        /* \"#utility.yul\":8120:8138   */\n      0x24\n      dup3\n      add\n        /* \"#utility.yul\":8113:8143   */\n      mstore\n        /* \"#utility.yul\":8179:8213   */\n      0x42656e65666963696172792f42656e65666163746f72206e6f7420666f756e64\n        /* \"#utility.yul\":8159:8177   */\n      0x44\n      dup3\n      add\n        /* \"#utility.yul\":8152:8214   */\n      mstore\n        /* \"#utility.yul\":8231:8249   */\n      0x64\n      add\n        /* \"DeadMansSwitch.sol\":6098:6182  require(isBeneficiary(_benefactor,_beneficiary), \"Beneficiary/Benefactor not found\") */\n      tag_115\n        /* \"#utility.yul\":7899:8255   */\n      jump\n        /* \"DeadMansSwitch.sol\":6098:6182  require(isBeneficiary(_benefactor,_beneficiary), \"Beneficiary/Benefactor not found\") */\n    tag_300:\n      sub(shl(0xa0, 0x01), 0x01)\n        /* \"DeadMansSwitch.sol\":6193:6217  benefactors[_benefactor] */\n      dup1\n      dup5\n      and\n        /* \"DeadMansSwitch.sol\":6193:6204  benefactors */\n      0x00\n        /* \"DeadMansSwitch.sol\":6193:6217  benefactors[_benefactor] */\n      swap1\n      dup2\n      mstore\n      0x20\n      dup2\n      dup2\n      mstore\n      0x40\n      dup1\n      dup4\n      keccak256\n        /* \"DeadMansSwitch.sol\":6193:6245  benefactors[_benefactor].beneficiaries[_beneficiary] */\n      swap4\n      dup7\n      and\n      dup4\n      mstore\n        /* \"DeadMansSwitch.sol\":6193:6231  benefactors[_benefactor].beneficiaries */\n      0x01\n      swap1\n      swap4\n      add\n        /* \"DeadMansSwitch.sol\":6193:6245  benefactors[_benefactor].beneficiaries[_beneficiary] */\n      swap1\n      mstore\n      keccak256\n        /* \"DeadMansSwitch.sol\":6193:6265  benefactors[_benefactor].beneficiaries[_beneficiary].benefactorPublicKey */\n      0x02\n      add\n        /* \"DeadMansSwitch.sol\":6193:6272  benefactors[_benefactor].beneficiaries[_beneficiary].benefactorPublicKey = _key */\n      tag_302\n        /* \"DeadMansSwitch.sol\":6268:6272  _key */\n      dup3\n        /* \"DeadMansSwitch.sol\":6193:6265  benefactors[_benefactor].beneficiaries[_beneficiary].benefactorPublicKey */\n      dup3\n        /* \"DeadMansSwitch.sol\":6193:6272  benefactors[_benefactor].beneficiaries[_beneficiary].benefactorPublicKey = _key */\n      tag_136\n      jump\t// in\n    tag_302:\n      pop\n        /* \"DeadMansSwitch.sol\":6319:6331  _beneficiary */\n      dup2\n      sub(shl(0xa0, 0x01), 0x01)\n        /* \"DeadMansSwitch.sol\":6288:6338  BenefactorKeyAdded(_benefactor,_beneficiary, _key) */\n      and\n        /* \"DeadMansSwitch.sol\":6307:6318  _benefactor */\n      dup4\n      sub(shl(0xa0, 0x01), 0x01)\n        /* \"DeadMansSwitch.sol\":6288:6338  BenefactorKeyAdded(_benefactor,_beneficiary, _key) */\n      and\n      0x812e93bad7e76e8b51ecdb31c9c69773dba6b47c2ae9fc763877665448b150d9\n        /* \"DeadMansSwitch.sol\":6333:6337  _key */\n      dup4\n        /* \"DeadMansSwitch.sol\":6288:6338  BenefactorKeyAdded(_benefactor,_beneficiary, _key) */\n      mload(0x40)\n      tag_137\n      swap2\n      swap1\n      tag_80\n      jump\t// in\n        /* \"DeadMansSwitch.sol\":9900:10233  function getCIDs(address _benefactor, address _beneficiary) public returns (string[] memory){... */\n    tag_94:\n        /* \"DeadMansSwitch.sol\":9976:9991  string[] memory */\n      0x60\n        /* \"DeadMansSwitch.sol\":10011:10050  isBeneficiary(_benefactor,_beneficiary) */\n      tag_305\n        /* \"DeadMansSwitch.sol\":10025:10036  _benefactor */\n      dup4\n        /* \"DeadMansSwitch.sol\":10037:10049  _beneficiary */\n      dup4\n        /* \"DeadMansSwitch.sol\":10011:10024  isBeneficiary */\n      tag_46\n        /* \"DeadMansSwitch.sol\":10011:10050  isBeneficiary(_benefactor,_beneficiary) */\n      jump\t// in\n    tag_305:\n        /* \"DeadMansSwitch.sol\":10003:10075  require(isBeneficiary(_benefactor,_beneficiary),\"Beneficiary not found\") */\n      tag_306\n      jumpi\n      mload(0x40)\n      shl(0xe5, 0x461bcd)\n      dup2\n      mstore\n        /* \"#utility.yul\":12020:12022   */\n      0x20\n        /* \"DeadMansSwitch.sol\":10003:10075  require(isBeneficiary(_benefactor,_beneficiary),\"Beneficiary not found\") */\n      0x04\n      dup3\n      add\n        /* \"#utility.yul\":12002:12023   */\n      mstore\n        /* \"#utility.yul\":12059:12061   */\n      0x15\n        /* \"#utility.yul\":12039:12057   */\n      0x24\n      dup3\n      add\n        /* \"#utility.yul\":12032:12062   */\n      mstore\n      shl(0x5a, 0x10995b99599a58da585c9e481b9bdd08199bdd5b99)\n        /* \"#utility.yul\":12078:12096   */\n      0x44\n      dup3\n      add\n        /* \"#utility.yul\":12071:12122   */\n      mstore\n        /* \"#utility.yul\":12139:12157   */\n      0x64\n      add\n        /* \"DeadMansSwitch.sol\":10003:10075  require(isBeneficiary(_benefactor,_beneficiary),\"Beneficiary not found\") */\n      tag_115\n        /* \"#utility.yul\":11818:12163   */\n      jump\n        /* \"DeadMansSwitch.sol\":10003:10075  require(isBeneficiary(_benefactor,_beneficiary),\"Beneficiary not found\") */\n    tag_306:\n        /* \"DeadMansSwitch.sol\":10095:10124  checkAliveStatus(_benefactor) */\n      tag_308\n        /* \"DeadMansSwitch.sol\":10112:10123  _benefactor */\n      dup4\n        /* \"DeadMansSwitch.sol\":10095:10111  checkAliveStatus */\n      tag_36\n        /* \"DeadMansSwitch.sol\":10095:10124  checkAliveStatus(_benefactor) */\n      jump\t// in\n    tag_308:\n        /* \"DeadMansSwitch.sol\":10094:10124  !checkAliveStatus(_benefactor) */\n      iszero\n        /* \"DeadMansSwitch.sol\":10086:10146  require(!checkAliveStatus(_benefactor), \"No access to CIDs\") */\n      tag_309\n      jumpi\n      mload(0x40)\n      shl(0xe5, 0x461bcd)\n      dup2\n      mstore\n        /* \"#utility.yul\":11051:11053   */\n      0x20\n        /* \"DeadMansSwitch.sol\":10086:10146  require(!checkAliveStatus(_benefactor), \"No access to CIDs\") */\n      0x04\n      dup3\n      add\n        /* \"#utility.yul\":11033:11054   */\n      mstore\n        /* \"#utility.yul\":11090:11092   */\n      0x11\n        /* \"#utility.yul\":11070:11088   */\n      0x24\n      dup3\n      add\n        /* \"#utility.yul\":11063:11093   */\n      mstore\n        /* \"#utility.yul\":11129:11148   */\n      0x4e6f2061636365737320746f2043494473000000000000000000000000000000\n        /* \"#utility.yul\":11109:11127   */\n      0x44\n      dup3\n      add\n        /* \"#utility.yul\":11102:11149   */\n      mstore\n        /* \"#utility.yul\":11166:11184   */\n      0x64\n      add\n        /* \"DeadMansSwitch.sol\":10086:10146  require(!checkAliveStatus(_benefactor), \"No access to CIDs\") */\n      tag_115\n        /* \"#utility.yul\":10849:11190   */\n      jump\n        /* \"DeadMansSwitch.sol\":10086:10146  require(!checkAliveStatus(_benefactor), \"No access to CIDs\") */\n    tag_309:\n      sub(shl(0xa0, 0x01), 0x01)\n        /* \"DeadMansSwitch.sol\":10164:10188  benefactors[_benefactor] */\n      dup1\n      dup5\n      and\n        /* \"DeadMansSwitch.sol\":10164:10175  benefactors */\n      0x00\n        /* \"DeadMansSwitch.sol\":10164:10188  benefactors[_benefactor] */\n      swap1\n      dup2\n      mstore\n      0x20\n      dup2\n      dup2\n      mstore\n      0x40\n      dup1\n      dup4\n      keccak256\n        /* \"DeadMansSwitch.sol\":10164:10216  benefactors[_benefactor].beneficiaries[_beneficiary] */\n      swap4\n      dup7\n      and\n      dup4\n      mstore\n        /* \"DeadMansSwitch.sol\":10164:10202  benefactors[_benefactor].beneficiaries */\n      0x01\n      swap4\n      dup5\n      add\n        /* \"DeadMansSwitch.sol\":10164:10216  benefactors[_benefactor].beneficiaries[_beneficiary] */\n      dup3\n      mstore\n      dup1\n      dup4\n      keccak256\n        /* \"DeadMansSwitch.sol\":10164:10225  benefactors[_benefactor].beneficiaries[_beneficiary].ipfsCIDs */\n      swap1\n      swap4\n      add\n        /* \"DeadMansSwitch.sol\":10157:10225  return benefactors[_benefactor].beneficiaries[_beneficiary].ipfsCIDs */\n      dup1\n      sload\n      dup5\n      mload\n      dup2\n      dup5\n      mul\n      dup2\n      add\n      dup5\n      add\n      swap1\n      swap6\n      mstore\n      dup1\n      dup6\n      mstore\n        /* \"DeadMansSwitch.sol\":10164:10225  benefactors[_benefactor].beneficiaries[_beneficiary].ipfsCIDs */\n      swap1\n      swap3\n        /* \"DeadMansSwitch.sol\":10157:10225  return benefactors[_benefactor].beneficiaries[_beneficiary].ipfsCIDs */\n      swap1\n      swap2\n      dup5\n      add\n    tag_311:\n      dup3\n      dup3\n      lt\n      iszero\n      tag_312\n      jumpi\n      dup4\n      dup3\n      swap1\n      0x00\n      mstore\n      keccak256(0x00, 0x20)\n      add\n      dup1\n      sload\n      tag_314\n      swap1\n      tag_161\n      jump\t// in\n    tag_314:\n      dup1\n      0x1f\n      add\n      0x20\n      dup1\n      swap2\n      div\n      mul\n      0x20\n      add\n      mload(0x40)\n      swap1\n      dup2\n      add\n      0x40\n      mstore\n      dup1\n      swap3\n      swap2\n      swap1\n      dup2\n      dup2\n      mstore\n      0x20\n      add\n      dup3\n      dup1\n      sload\n      tag_315\n      swap1\n      tag_161\n      jump\t// in\n    tag_315:\n      dup1\n      iszero\n      tag_316\n      jumpi\n      dup1\n      0x1f\n      lt\n      tag_317\n      jumpi\n      0x0100\n      dup1\n      dup4\n      sload\n      div\n      mul\n      dup4\n      mstore\n      swap2\n      0x20\n      add\n      swap2\n      jump(tag_316)\n    tag_317:\n      dup3\n      add\n      swap2\n      swap1\n      0x00\n      mstore\n      keccak256(0x00, 0x20)\n      swap1\n    tag_318:\n      dup2\n      sload\n      dup2\n      mstore\n      swap1\n      0x01\n      add\n      swap1\n      0x20\n      add\n      dup1\n      dup4\n      gt\n      tag_318\n      jumpi\n      dup3\n      swap1\n      sub\n      0x1f\n      and\n      dup3\n      add\n      swap2\n    tag_316:\n      pop\n      pop\n      pop\n      pop\n      pop\n      dup2\n      mstore\n      0x20\n      add\n      swap1\n      0x01\n      add\n      swap1\n      jump(tag_311)\n    tag_312:\n      pop\n      pop\n      pop\n      pop\n      swap1\n      pop\n        /* \"DeadMansSwitch.sol\":9900:10233  function getCIDs(address _benefactor, address _beneficiary) public returns (string[] memory){... */\n      swap3\n      swap2\n      pop\n      pop\n      jump\t// out\n        /* \"DeadMansSwitch.sol\":7056:7380  function getBeneficiaryPublicKey(address _benefactor, address _beneficiary) public view returns(string memory) {... */\n    tag_99:\n        /* \"DeadMansSwitch.sol\":7152:7165  string memory */\n      0x60\n        /* \"DeadMansSwitch.sol\":7182:7222  isBeneficiary(_benefactor, _beneficiary) */\n      tag_320\n        /* \"DeadMansSwitch.sol\":7196:7207  _benefactor */\n      dup4\n        /* \"DeadMansSwitch.sol\":7209:7221  _beneficiary */\n      dup4\n        /* \"DeadMansSwitch.sol\":7182:7195  isBeneficiary */\n      tag_46\n        /* \"DeadMansSwitch.sol\":7182:7222  isBeneficiary(_benefactor, _beneficiary) */\n      jump\t// in\n    tag_320:\n        /* \"DeadMansSwitch.sol\":7178:7373  if (isBeneficiary(_benefactor, _beneficiary)) {... */\n      iszero\n      tag_265\n      jumpi\n      sub(shl(0xa0, 0x01), 0x01)\n        /* \"DeadMansSwitch.sol\":7246:7270  benefactors[_benefactor] */\n      dup1\n      dup5\n      and\n        /* \"DeadMansSwitch.sol\":7246:7257  benefactors */\n      0x00\n        /* \"DeadMansSwitch.sol\":7246:7270  benefactors[_benefactor] */\n      swap1\n      dup2\n      mstore\n      0x20\n      dup2\n      dup2\n      mstore\n      0x40\n      dup1\n      dup4\n      keccak256\n        /* \"DeadMansSwitch.sol\":7246:7298  benefactors[_benefactor].beneficiaries[_beneficiary] */\n      swap4\n      dup7\n      and\n      dup4\n      mstore\n        /* \"DeadMansSwitch.sol\":7246:7284  benefactors[_benefactor].beneficiaries */\n      0x01\n      swap1\n      swap4\n      add\n        /* \"DeadMansSwitch.sol\":7246:7298  benefactors[_benefactor].beneficiaries[_beneficiary] */\n      swap1\n      mstore\n      keccak256\n        /* \"DeadMansSwitch.sol\":7246:7319  benefactors[_benefactor].beneficiaries[_beneficiary].beneficiaryPublicKey */\n      0x03\n      add\n        /* \"DeadMansSwitch.sol\":7239:7319  return benefactors[_benefactor].beneficiaries[_beneficiary].beneficiaryPublicKey */\n      dup1\n      sload\n      tag_266\n      swap1\n      tag_161\n      jump\t// in\n        /* \"DeadMansSwitch.sol\":8799:9134  function disableSwitch() internal onlyBenefactor {... */\n    tag_290:\n        /* \"DeadMansSwitch.sol\":1987:1997  msg.sender */\n      caller\n        /* \"DeadMansSwitch.sol\":1975:1986  benefactors */\n      0x00\n        /* \"DeadMansSwitch.sol\":1975:1998  benefactors[msg.sender] */\n      swap1\n      dup2\n      mstore\n      0x20\n      dup2\n      swap1\n      mstore\n      0x40\n      swap1\n      keccak256\n        /* \"DeadMansSwitch.sol\":1975:2005  benefactors[msg.sender].exists */\n      sload\n      0xff\n      and\n        /* \"DeadMansSwitch.sol\":1975:2040  benefactors[msg.sender].exists && benefactors[msg.sender].isAlive */\n      dup1\n      iszero\n      tag_329\n      jumpi\n      pop\n        /* \"DeadMansSwitch.sol\":2021:2031  msg.sender */\n      caller\n        /* \"DeadMansSwitch.sol\":2009:2020  benefactors */\n      0x00\n        /* \"DeadMansSwitch.sol\":2009:2032  benefactors[msg.sender] */\n      swap1\n      dup2\n      mstore\n      0x20\n      dup2\n      swap1\n      mstore\n      0x40\n      swap1\n      keccak256\n        /* \"DeadMansSwitch.sol\":2009:2040  benefactors[msg.sender].isAlive */\n      0x05\n      add\n      sload\n      0x0100\n      swap1\n      div\n      0xff\n      and\n        /* \"DeadMansSwitch.sol\":1975:2040  benefactors[msg.sender].exists && benefactors[msg.sender].isAlive */\n    tag_329:\n        /* \"DeadMansSwitch.sol\":1967:2067  require(benefactors[msg.sender].exists && benefactors[msg.sender].isAlive, \"Not a valid benefactor\") */\n      tag_330\n      jumpi\n      mload(0x40)\n      shl(0xe5, 0x461bcd)\n      dup2\n      mstore\n        /* \"#utility.yul\":11669:11671   */\n      0x20\n        /* \"DeadMansSwitch.sol\":1967:2067  require(benefactors[msg.sender].exists && benefactors[msg.sender].isAlive, \"Not a valid benefactor\") */\n      0x04\n      dup3\n      add\n        /* \"#utility.yul\":11651:11672   */\n      mstore\n        /* \"#utility.yul\":11708:11710   */\n      0x16\n        /* \"#utility.yul\":11688:11706   */\n      0x24\n      dup3\n      add\n        /* \"#utility.yul\":11681:11711   */\n      mstore\n      shl(0x51, 0x2737ba1030903b30b634b2103132b732b330b1ba37b9)\n        /* \"#utility.yul\":11727:11745   */\n      0x44\n      dup3\n      add\n        /* \"#utility.yul\":11720:11772   */\n      mstore\n        /* \"#utility.yul\":11789:11807   */\n      0x64\n      add\n        /* \"DeadMansSwitch.sol\":1967:2067  require(benefactors[msg.sender].exists && benefactors[msg.sender].isAlive, \"Not a valid benefactor\") */\n      tag_115\n        /* \"#utility.yul\":11467:11813   */\n      jump\n        /* \"DeadMansSwitch.sol\":1967:2067  require(benefactors[msg.sender].exists && benefactors[msg.sender].isAlive, \"Not a valid benefactor\") */\n    tag_330:\n        /* \"DeadMansSwitch.sol\":8875:8885  msg.sender */\n      caller\n        /* \"DeadMansSwitch.sol\":8863:8874  benefactors */\n      0x00\n        /* \"DeadMansSwitch.sol\":8863:8886  benefactors[msg.sender] */\n      swap1\n      dup2\n      mstore\n      0x20\n      dup2\n      swap1\n      mstore\n      0x40\n      swap1\n      keccak256\n        /* \"DeadMansSwitch.sol\":8863:8900  benefactors[msg.sender].isSwitchedOff */\n      0x05\n      add\n      sload\n      0xff\n      and\n        /* \"DeadMansSwitch.sol\":8859:8994  if (benefactors[msg.sender].isSwitchedOff) {... */\n      iszero\n      tag_333\n      jumpi\n        /* \"DeadMansSwitch.sol\":8922:8961  SwitchAlreadyOff(msg.sender,msg.sender) */\n      mload(0x40)\n        /* \"DeadMansSwitch.sol\":8950:8960  msg.sender */\n      caller\n      swap1\n      dup2\n      swap1\n        /* \"DeadMansSwitch.sol\":8922:8961  SwitchAlreadyOff(msg.sender,msg.sender) */\n      0x439c5aaf7691cb4808dbd2a240323ce9ec0d04d66ddf65ffd5f88ebd60fa745b\n      swap1\n      0x00\n      swap1\n      log3\n        /* \"DeadMansSwitch.sol\":9142:9888  function respondToSwitch() external onlyBenefactor {... */\n      jump\t// out\n        /* \"DeadMansSwitch.sol\":8859:8994  if (benefactors[msg.sender].isSwitchedOff) {... */\n    tag_333:\n        /* \"DeadMansSwitch.sol\":9016:9026  msg.sender */\n      caller\n        /* \"DeadMansSwitch.sol\":9004:9015  benefactors */\n      0x00\n        /* \"DeadMansSwitch.sol\":9004:9027  benefactors[msg.sender] */\n      dup2\n      dup2\n      mstore\n      0x20\n      dup2\n      swap1\n      mstore\n      0x40\n      swap1\n      dup2\n      swap1\n      keccak256\n        /* \"DeadMansSwitch.sol\":9004:9041  benefactors[msg.sender].isSwitchedOff */\n      0x05\n      add\n        /* \"DeadMansSwitch.sol\":9004:9048  benefactors[msg.sender].isSwitchedOff = true */\n      dup1\n      sload\n      not(0xff)\n      and\n        /* \"DeadMansSwitch.sol\":9044:9048  true */\n      0x01\n        /* \"DeadMansSwitch.sol\":9004:9048  benefactors[msg.sender].isSwitchedOff = true */\n      or\n      swap1\n      sstore\n        /* \"DeadMansSwitch.sol\":9064:9126  DeadMansSwitchDisabled(msg.sender,msg.sender, block.timestamp) */\n      mload\n        /* \"DeadMansSwitch.sol\":9016:9026  msg.sender */\n      dup2\n      swap1\n        /* \"DeadMansSwitch.sol\":9064:9126  DeadMansSwitchDisabled(msg.sender,msg.sender, block.timestamp) */\n      0x9baa855d20de9b1a4db454f55b09d1db5f42f0871bbea3b0c699146ade171625\n      swap1\n      tag_334\n      swap1\n        /* \"DeadMansSwitch.sol\":9110:9125  block.timestamp */\n      timestamp\n        /* \"#utility.yul\":552:577   */\n      dup2\n      mstore\n        /* \"#utility.yul\":540:542   */\n      0x20\n        /* \"#utility.yul\":525:543   */\n      add\n      swap1\n        /* \"#utility.yul\":406:583   */\n      jump\n        /* \"DeadMansSwitch.sol\":9064:9126  DeadMansSwitchDisabled(msg.sender,msg.sender, block.timestamp) */\n    tag_334:\n      mload(0x40)\n      dup1\n      swap2\n      sub\n      swap1\n      log3\n        /* \"DeadMansSwitch.sol\":8799:9134  function disableSwitch() internal onlyBenefactor {... */\n      jump\t// out\n    tag_211:\n      dup3\n      dup1\n      sload\n      dup3\n      dup3\n      sstore\n      swap1\n      0x00\n      mstore\n      keccak256(0x00, 0x20)\n      swap1\n      dup2\n      add\n      swap3\n      dup3\n      iszero\n      tag_337\n      jumpi\n      swap2\n      0x20\n      mul\n      dup3\n      add\n    tag_336:\n      dup3\n      dup2\n      gt\n      iszero\n      tag_337\n      jumpi\n      dup3\n      mload\n      dup3\n      swap1\n      tag_338\n      swap1\n      dup3\n      tag_136\n      jump\t// in\n    tag_338:\n      pop\n      swap2\n      0x20\n      add\n      swap2\n      swap1\n      0x01\n      add\n      swap1\n      jump(tag_336)\n    tag_337:\n      pop\n      tag_339\n      swap3\n      swap2\n      pop\n      tag_340\n      jump\t// in\n    tag_339:\n      pop\n      swap1\n      jump\t// out\n    tag_224:\n      pop\n      dup1\n      sload\n      0x00\n      dup3\n      sstore\n      swap1\n      0x00\n      mstore\n      keccak256(0x00, 0x20)\n      swap1\n      dup2\n      add\n      swap1\n      tag_205\n      swap2\n      swap1\n      tag_340\n      jump\t// in\n    tag_226:\n      pop\n      dup1\n      sload\n      tag_343\n      swap1\n      tag_161\n      jump\t// in\n    tag_343:\n      0x00\n      dup3\n      sstore\n      dup1\n      0x1f\n      lt\n      tag_345\n      jumpi\n      pop\n      pop\n      jump\t// out\n    tag_345:\n      0x1f\n      add\n      0x20\n      swap1\n      div\n      swap1\n      0x00\n      mstore\n      keccak256(0x00, 0x20)\n      swap1\n      dup2\n      add\n      swap1\n      tag_205\n      swap2\n      swap1\n      tag_347\n      jump\t// in\n    tag_340:\n      dup1\n      dup3\n      gt\n      iszero\n      tag_339\n      jumpi\n      0x00\n      tag_350\n      dup3\n      dup3\n      tag_226\n      jump\t// in\n    tag_350:\n      pop\n      0x01\n      add\n      jump(tag_340)\n    tag_347:\n    tag_351:\n      dup1\n      dup3\n      gt\n      iszero\n      tag_339\n      jumpi\n      0x00\n      dup2\n      sstore\n      0x01\n      add\n      jump(tag_351)\n        /* \"#utility.yul\":14:210   */\n    tag_353:\n        /* \"#utility.yul\":82:102   */\n      dup1\n      calldataload\n      sub(shl(0xa0, 0x01), 0x01)\n        /* \"#utility.yul\":131:185   */\n      dup2\n      and\n        /* \"#utility.yul\":121:186   */\n      dup2\n      eq\n        /* \"#utility.yul\":111:204   */\n      tag_364\n      jumpi\n        /* \"#utility.yul\":200:201   */\n      0x00\n        /* \"#utility.yul\":197:198   */\n      dup1\n        /* \"#utility.yul\":190:202   */\n      revert\n        /* \"#utility.yul\":111:204   */\n    tag_364:\n        /* \"#utility.yul\":14:210   */\n      swap2\n      swap1\n      pop\n      jump\t// out\n        /* \"#utility.yul\":215:401   */\n    tag_30:\n        /* \"#utility.yul\":274:280   */\n      0x00\n        /* \"#utility.yul\":327:329   */\n      0x20\n        /* \"#utility.yul\":315:324   */\n      dup3\n        /* \"#utility.yul\":306:313   */\n      dup5\n        /* \"#utility.yul\":302:325   */\n      sub\n        /* \"#utility.yul\":298:330   */\n      slt\n        /* \"#utility.yul\":295:347   */\n      iszero\n      tag_366\n      jumpi\n        /* \"#utility.yul\":343:344   */\n      0x00\n        /* \"#utility.yul\":340:341   */\n      dup1\n        /* \"#utility.yul\":333:345   */\n      revert\n        /* \"#utility.yul\":295:347   */\n    tag_366:\n        /* \"#utility.yul\":366:395   */\n      tag_106\n        /* \"#utility.yul\":385:394   */\n      dup3\n        /* \"#utility.yul\":366:395   */\n      tag_353\n      jump\t// in\n        /* \"#utility.yul\":780:1040   */\n    tag_45:\n        /* \"#utility.yul\":848:854   */\n      0x00\n        /* \"#utility.yul\":856:862   */\n      dup1\n        /* \"#utility.yul\":909:911   */\n      0x40\n        /* \"#utility.yul\":897:906   */\n      dup4\n        /* \"#utility.yul\":888:895   */\n      dup6\n        /* \"#utility.yul\":884:907   */\n      sub\n        /* \"#utility.yul\":880:912   */\n      slt\n        /* \"#utility.yul\":877:929   */\n      iszero\n      tag_371\n      jumpi\n        /* \"#utility.yul\":925:926   */\n      0x00\n        /* \"#utility.yul\":922:923   */\n      dup1\n        /* \"#utility.yul\":915:927   */\n      revert\n        /* \"#utility.yul\":877:929   */\n    tag_371:\n        /* \"#utility.yul\":948:977   */\n      tag_372\n        /* \"#utility.yul\":967:976   */\n      dup4\n        /* \"#utility.yul\":948:977   */\n      tag_353\n      jump\t// in\n    tag_372:\n        /* \"#utility.yul\":938:977   */\n      swap2\n      pop\n        /* \"#utility.yul\":996:1034   */\n      tag_373\n        /* \"#utility.yul\":1030:1032   */\n      0x20\n        /* \"#utility.yul\":1019:1028   */\n      dup5\n        /* \"#utility.yul\":1015:1033   */\n      add\n        /* \"#utility.yul\":996:1034   */\n      tag_353\n      jump\t// in\n    tag_373:\n        /* \"#utility.yul\":986:1034   */\n      swap1\n      pop\n        /* \"#utility.yul\":780:1040   */\n      swap3\n      pop\n      swap3\n      swap1\n      pop\n      jump\t// out\n        /* \"#utility.yul\":1045:1529   */\n    tag_354:\n        /* \"#utility.yul\":1098:1101   */\n      0x00\n        /* \"#utility.yul\":1136:1141   */\n      dup2\n        /* \"#utility.yul\":1130:1142   */\n      mload\n        /* \"#utility.yul\":1163:1169   */\n      dup1\n        /* \"#utility.yul\":1158:1161   */\n      dup5\n        /* \"#utility.yul\":1151:1170   */\n      mstore\n        /* \"#utility.yul\":1189:1193   */\n      0x20\n        /* \"#utility.yul\":1218:1220   */\n      dup1\n        /* \"#utility.yul\":1213:1216   */\n      dup6\n        /* \"#utility.yul\":1209:1221   */\n      add\n        /* \"#utility.yul\":1202:1221   */\n      swap5\n      pop\n        /* \"#utility.yul\":1255:1257   */\n      dup1\n        /* \"#utility.yul\":1248:1253   */\n      dup5\n        /* \"#utility.yul\":1244:1258   */\n      add\n        /* \"#utility.yul\":1276:1277   */\n      0x00\n        /* \"#utility.yul\":1286:1504   */\n    tag_375:\n        /* \"#utility.yul\":1300:1306   */\n      dup4\n        /* \"#utility.yul\":1297:1298   */\n      dup2\n        /* \"#utility.yul\":1294:1307   */\n      lt\n        /* \"#utility.yul\":1286:1504   */\n      iszero\n      tag_377\n      jumpi\n        /* \"#utility.yul\":1365:1378   */\n      dup2\n      mload\n      sub(shl(0xa0, 0x01), 0x01)\n        /* \"#utility.yul\":1361:1423   */\n      and\n        /* \"#utility.yul\":1349:1424   */\n      dup8\n      mstore\n        /* \"#utility.yul\":1444:1456   */\n      swap6\n      dup3\n      add\n      swap6\n        /* \"#utility.yul\":1479:1494   */\n      swap1\n      dup3\n      add\n      swap1\n        /* \"#utility.yul\":1322:1323   */\n      0x01\n        /* \"#utility.yul\":1315:1324   */\n      add\n        /* \"#utility.yul\":1286:1504   */\n      jump(tag_375)\n    tag_377:\n      pop\n        /* \"#utility.yul\":1520:1523   */\n      swap5\n      swap6\n        /* \"#utility.yul\":1045:1529   */\n      swap5\n      pop\n      pop\n      pop\n      pop\n      pop\n      jump\t// out\n        /* \"#utility.yul\":1534:1947   */\n    tag_54:\n        /* \"#utility.yul\":1777:1783   */\n      dup4\n        /* \"#utility.yul\":1770:1784   */\n      iszero\n        /* \"#utility.yul\":1763:1785   */\n      iszero\n        /* \"#utility.yul\":1752:1761   */\n      dup2\n        /* \"#utility.yul\":1745:1786   */\n      mstore\n        /* \"#utility.yul\":1822:1824   */\n      0x60\n        /* \"#utility.yul\":1817:1819   */\n      0x20\n        /* \"#utility.yul\":1806:1815   */\n      dup3\n        /* \"#utility.yul\":1802:1820   */\n      add\n        /* \"#utility.yul\":1795:1825   */\n      mstore\n        /* \"#utility.yul\":1726:1730   */\n      0x00\n        /* \"#utility.yul\":1842:1898   */\n      tag_379\n        /* \"#utility.yul\":1894:1896   */\n      0x60\n        /* \"#utility.yul\":1883:1892   */\n      dup4\n        /* \"#utility.yul\":1879:1897   */\n      add\n        /* \"#utility.yul\":1871:1877   */\n      dup6\n        /* \"#utility.yul\":1842:1898   */\n      tag_354\n      jump\t// in\n    tag_379:\n        /* \"#utility.yul\":1834:1898   */\n      swap1\n      pop\n        /* \"#utility.yul\":1934:1940   */\n      dup3\n        /* \"#utility.yul\":1929:1931   */\n      0x40\n        /* \"#utility.yul\":1918:1927   */\n      dup4\n        /* \"#utility.yul\":1914:1932   */\n      add\n        /* \"#utility.yul\":1907:1941   */\n      mstore\n        /* \"#utility.yul\":1534:1947   */\n      swap5\n      swap4\n      pop\n      pop\n      pop\n      pop\n      jump\t// out\n        /* \"#utility.yul\":1952:2079   */\n    tag_144:\n        /* \"#utility.yul\":2013:2023   */\n      0x4e487b71\n        /* \"#utility.yul\":2008:2011   */\n      0xe0\n        /* \"#utility.yul\":2004:2024   */\n      shl\n        /* \"#utility.yul\":2001:2002   */\n      0x00\n        /* \"#utility.yul\":1994:2025   */\n      mstore\n        /* \"#utility.yul\":2044:2048   */\n      0x41\n        /* \"#utility.yul\":2041:2042   */\n      0x04\n        /* \"#utility.yul\":2034:2049   */\n      mstore\n        /* \"#utility.yul\":2068:2072   */\n      0x24\n        /* \"#utility.yul\":2065:2066   */\n      0x00\n        /* \"#utility.yul\":2058:2073   */\n      revert\n        /* \"#utility.yul\":2084:2803   */\n    tag_355:\n        /* \"#utility.yul\":2127:2132   */\n      0x00\n        /* \"#utility.yul\":2180:2183   */\n      dup3\n        /* \"#utility.yul\":2173:2177   */\n      0x1f\n        /* \"#utility.yul\":2165:2171   */\n      dup4\n        /* \"#utility.yul\":2161:2178   */\n      add\n        /* \"#utility.yul\":2157:2184   */\n      slt\n        /* \"#utility.yul\":2147:2202   */\n      tag_382\n      jumpi\n        /* \"#utility.yul\":2198:2199   */\n      0x00\n        /* \"#utility.yul\":2195:2196   */\n      dup1\n        /* \"#utility.yul\":2188:2200   */\n      revert\n        /* \"#utility.yul\":2147:2202   */\n    tag_382:\n        /* \"#utility.yul\":2234:2240   */\n      dup2\n        /* \"#utility.yul\":2221:2241   */\n      calldataload\n        /* \"#utility.yul\":2260:2278   */\n      0xffffffffffffffff\n        /* \"#utility.yul\":2297:2299   */\n      dup1\n        /* \"#utility.yul\":2293:2295   */\n      dup3\n        /* \"#utility.yul\":2290:2300   */\n      gt\n        /* \"#utility.yul\":2287:2323   */\n      iszero\n      tag_384\n      jumpi\n        /* \"#utility.yul\":2303:2321   */\n      tag_384\n      tag_144\n      jump\t// in\n    tag_384:\n        /* \"#utility.yul\":2378:2380   */\n      0x40\n        /* \"#utility.yul\":2372:2381   */\n      mload\n        /* \"#utility.yul\":2346:2348   */\n      0x1f\n        /* \"#utility.yul\":2432:2445   */\n      dup4\n      add\n      not(0x1f)\n        /* \"#utility.yul\":2428:2450   */\n      swap1\n      dup2\n      and\n        /* \"#utility.yul\":2452:2454   */\n      0x3f\n        /* \"#utility.yul\":2424:2455   */\n      add\n        /* \"#utility.yul\":2420:2460   */\n      and\n        /* \"#utility.yul\":2408:2461   */\n      dup2\n      add\n      swap1\n        /* \"#utility.yul\":2476:2494   */\n      dup3\n      dup3\n      gt\n        /* \"#utility.yul\":2496:2518   */\n      dup2\n      dup4\n      lt\n        /* \"#utility.yul\":2473:2519   */\n      or\n        /* \"#utility.yul\":2470:2542   */\n      iszero\n      tag_386\n      jumpi\n        /* \"#utility.yul\":2522:2540   */\n      tag_386\n      tag_144\n      jump\t// in\n    tag_386:\n        /* \"#utility.yul\":2562:2572   */\n      dup2\n        /* \"#utility.yul\":2558:2560   */\n      0x40\n        /* \"#utility.yul\":2551:2573   */\n      mstore\n        /* \"#utility.yul\":2597:2599   */\n      dup4\n        /* \"#utility.yul\":2589:2595   */\n      dup2\n        /* \"#utility.yul\":2582:2600   */\n      mstore\n        /* \"#utility.yul\":2643:2646   */\n      dup7\n        /* \"#utility.yul\":2636:2640   */\n      0x20\n        /* \"#utility.yul\":2631:2633   */\n      dup6\n        /* \"#utility.yul\":2623:2629   */\n      dup9\n        /* \"#utility.yul\":2619:2634   */\n      add\n        /* \"#utility.yul\":2615:2641   */\n      add\n        /* \"#utility.yul\":2612:2647   */\n      gt\n        /* \"#utility.yul\":2609:2664   */\n      iszero\n      tag_387\n      jumpi\n        /* \"#utility.yul\":2660:2661   */\n      0x00\n        /* \"#utility.yul\":2657:2658   */\n      dup1\n        /* \"#utility.yul\":2650:2662   */\n      revert\n        /* \"#utility.yul\":2609:2664   */\n    tag_387:\n        /* \"#utility.yul\":2724:2726   */\n      dup4\n        /* \"#utility.yul\":2717:2721   */\n      0x20\n        /* \"#utility.yul\":2709:2715   */\n      dup8\n        /* \"#utility.yul\":2705:2722   */\n      add\n        /* \"#utility.yul\":2698:2702   */\n      0x20\n        /* \"#utility.yul\":2690:2696   */\n      dup4\n        /* \"#utility.yul\":2686:2703   */\n      add\n        /* \"#utility.yul\":2673:2727   */\n      calldatacopy\n        /* \"#utility.yul\":2771:2772   */\n      0x00\n        /* \"#utility.yul\":2764:2768   */\n      0x20\n        /* \"#utility.yul\":2759:2761   */\n      dup6\n        /* \"#utility.yul\":2751:2757   */\n      dup4\n        /* \"#utility.yul\":2747:2762   */\n      add\n        /* \"#utility.yul\":2743:2769   */\n      add\n        /* \"#utility.yul\":2736:2773   */\n      mstore\n        /* \"#utility.yul\":2791:2797   */\n      dup1\n        /* \"#utility.yul\":2782:2797   */\n      swap5\n      pop\n      pop\n      pop\n      pop\n      pop\n        /* \"#utility.yul\":2084:2803   */\n      swap3\n      swap2\n      pop\n      pop\n      jump\t// out\n        /* \"#utility.yul\":2808:3278   */\n    tag_57:\n        /* \"#utility.yul\":2895:2901   */\n      0x00\n        /* \"#utility.yul\":2903:2909   */\n      dup1\n        /* \"#utility.yul\":2911:2917   */\n      0x00\n        /* \"#utility.yul\":2964:2966   */\n      0x60\n        /* \"#utility.yul\":2952:2961   */\n      dup5\n        /* \"#utility.yul\":2943:2950   */\n      dup7\n        /* \"#utility.yul\":2939:2962   */\n      sub\n        /* \"#utility.yul\":2935:2967   */\n      slt\n        /* \"#utility.yul\":2932:2984   */\n      iszero\n      tag_389\n      jumpi\n        /* \"#utility.yul\":2980:2981   */\n      0x00\n        /* \"#utility.yul\":2977:2978   */\n      dup1\n        /* \"#utility.yul\":2970:2982   */\n      revert\n        /* \"#utility.yul\":2932:2984   */\n    tag_389:\n        /* \"#utility.yul\":3003:3032   */\n      tag_390\n        /* \"#utility.yul\":3022:3031   */\n      dup5\n        /* \"#utility.yul\":3003:3032   */\n      tag_353\n      jump\t// in\n    tag_390:\n        /* \"#utility.yul\":2993:3032   */\n      swap3\n      pop\n        /* \"#utility.yul\":3051:3089   */\n      tag_391\n        /* \"#utility.yul\":3085:3087   */\n      0x20\n        /* \"#utility.yul\":3074:3083   */\n      dup6\n        /* \"#utility.yul\":3070:3088   */\n      add\n        /* \"#utility.yul\":3051:3089   */\n      tag_353\n      jump\t// in\n    tag_391:\n        /* \"#utility.yul\":3041:3089   */\n      swap2\n      pop\n        /* \"#utility.yul\":3140:3142   */\n      0x40\n        /* \"#utility.yul\":3129:3138   */\n      dup5\n        /* \"#utility.yul\":3125:3143   */\n      add\n        /* \"#utility.yul\":3112:3144   */\n      calldataload\n        /* \"#utility.yul\":3167:3185   */\n      0xffffffffffffffff\n        /* \"#utility.yul\":3159:3165   */\n      dup2\n        /* \"#utility.yul\":3156:3186   */\n      gt\n        /* \"#utility.yul\":3153:3203   */\n      iszero\n      tag_392\n      jumpi\n        /* \"#utility.yul\":3199:3200   */\n      0x00\n        /* \"#utility.yul\":3196:3197   */\n      dup1\n        /* \"#utility.yul\":3189:3201   */\n      revert\n        /* \"#utility.yul\":3153:3203   */\n    tag_392:\n        /* \"#utility.yul\":3222:3272   */\n      tag_393\n        /* \"#utility.yul\":3264:3271   */\n      dup7\n        /* \"#utility.yul\":3255:3261   */\n      dup3\n        /* \"#utility.yul\":3244:3253   */\n      dup8\n        /* \"#utility.yul\":3240:3262   */\n      add\n        /* \"#utility.yul\":3222:3272   */\n      tag_355\n      jump\t// in\n    tag_393:\n        /* \"#utility.yul\":3212:3272   */\n      swap2\n      pop\n      pop\n        /* \"#utility.yul\":2808:3278   */\n      swap3\n      pop\n      swap3\n      pop\n      swap3\n      jump\t// out\n        /* \"#utility.yul\":3283:3533   */\n    tag_356:\n        /* \"#utility.yul\":3368:3369   */\n      0x00\n        /* \"#utility.yul\":3378:3491   */\n    tag_395:\n        /* \"#utility.yul\":3392:3398   */\n      dup4\n        /* \"#utility.yul\":3389:3390   */\n      dup2\n        /* \"#utility.yul\":3386:3399   */\n      lt\n        /* \"#utility.yul\":3378:3491   */\n      iszero\n      tag_397\n      jumpi\n        /* \"#utility.yul\":3468:3479   */\n      dup2\n      dup2\n      add\n        /* \"#utility.yul\":3462:3480   */\n      mload\n        /* \"#utility.yul\":3449:3460   */\n      dup4\n      dup3\n      add\n        /* \"#utility.yul\":3442:3481   */\n      mstore\n        /* \"#utility.yul\":3414:3416   */\n      0x20\n        /* \"#utility.yul\":3407:3417   */\n      add\n        /* \"#utility.yul\":3378:3491   */\n      jump(tag_395)\n    tag_397:\n      pop\n      pop\n        /* \"#utility.yul\":3525:3526   */\n      0x00\n        /* \"#utility.yul\":3507:3523   */\n      swap2\n      add\n        /* \"#utility.yul\":3500:3527   */\n      mstore\n        /* \"#utility.yul\":3283:3533   */\n      jump\t// out\n        /* \"#utility.yul\":3538:3809   */\n    tag_357:\n        /* \"#utility.yul\":3580:3583   */\n      0x00\n        /* \"#utility.yul\":3618:3623   */\n      dup2\n        /* \"#utility.yul\":3612:3624   */\n      mload\n        /* \"#utility.yul\":3645:3651   */\n      dup1\n        /* \"#utility.yul\":3640:3643   */\n      dup5\n        /* \"#utility.yul\":3633:3652   */\n      mstore\n        /* \"#utility.yul\":3661:3737   */\n      tag_399\n        /* \"#utility.yul\":3730:3736   */\n      dup2\n        /* \"#utility.yul\":3723:3727   */\n      0x20\n        /* \"#utility.yul\":3718:3721   */\n      dup7\n        /* \"#utility.yul\":3714:3728   */\n      add\n        /* \"#utility.yul\":3707:3711   */\n      0x20\n        /* \"#utility.yul\":3700:3705   */\n      dup7\n        /* \"#utility.yul\":3696:3712   */\n      add\n        /* \"#utility.yul\":3661:3737   */\n      tag_356\n      jump\t// in\n    tag_399:\n        /* \"#utility.yul\":3791:3793   */\n      0x1f\n        /* \"#utility.yul\":3770:3785   */\n      add\n      not(0x1f)\n        /* \"#utility.yul\":3766:3795   */\n      and\n        /* \"#utility.yul\":3757:3796   */\n      swap3\n      swap1\n      swap3\n      add\n        /* \"#utility.yul\":3798:3802   */\n      0x20\n        /* \"#utility.yul\":3753:3803   */\n      add\n      swap3\n        /* \"#utility.yul\":3538:3809   */\n      swap2\n      pop\n      pop\n      jump\t// out\n        /* \"#utility.yul\":3814:5487   */\n    tag_62:\n        /* \"#utility.yul\":4141:4143   */\n      0x40\n        /* \"#utility.yul\":4130:4139   */\n      dup2\n        /* \"#utility.yul\":4123:4144   */\n      mstore\n        /* \"#utility.yul\":4104:4108   */\n      0x00\n        /* \"#utility.yul\":4167:4223   */\n      tag_401\n        /* \"#utility.yul\":4219:4221   */\n      0x40\n        /* \"#utility.yul\":4208:4217   */\n      dup4\n        /* \"#utility.yul\":4204:4222   */\n      add\n        /* \"#utility.yul\":4196:4202   */\n      dup6\n        /* \"#utility.yul\":4167:4223   */\n      tag_354\n      jump\t// in\n    tag_401:\n        /* \"#utility.yul\":4242:4244   */\n      0x20\n        /* \"#utility.yul\":4292:4301   */\n      dup4\n        /* \"#utility.yul\":4284:4290   */\n      dup3\n        /* \"#utility.yul\":4280:4302   */\n      sub\n        /* \"#utility.yul\":4275:4277   */\n      dup2\n        /* \"#utility.yul\":4264:4273   */\n      dup6\n        /* \"#utility.yul\":4260:4278   */\n      add\n        /* \"#utility.yul\":4253:4303   */\n      mstore\n        /* \"#utility.yul\":4323:4329   */\n      dup2\n        /* \"#utility.yul\":4358:4364   */\n      dup6\n        /* \"#utility.yul\":4352:4365   */\n      mload\n        /* \"#utility.yul\":4389:4395   */\n      dup1\n        /* \"#utility.yul\":4381:4387   */\n      dup5\n        /* \"#utility.yul\":4374:4396   */\n      mstore\n        /* \"#utility.yul\":4424:4426   */\n      dup3\n        /* \"#utility.yul\":4416:4422   */\n      dup5\n        /* \"#utility.yul\":4412:4427   */\n      add\n        /* \"#utility.yul\":4405:4427   */\n      swap2\n      pop\n        /* \"#utility.yul\":4446:4447   */\n      0x05\n        /* \"#utility.yul\":4504:4506   */\n      dup4\n        /* \"#utility.yul\":4494:4500   */\n      dup3\n        /* \"#utility.yul\":4490:4492   */\n      dup3\n        /* \"#utility.yul\":4486:4501   */\n      shl\n        /* \"#utility.yul\":4478:4484   */\n      dup7\n        /* \"#utility.yul\":4474:4502   */\n      add\n        /* \"#utility.yul\":4470:4507   */\n      add\n        /* \"#utility.yul\":4542:4544   */\n      dup5\n        /* \"#utility.yul\":4534:4540   */\n      dup10\n        /* \"#utility.yul\":4530:4545   */\n      add\n        /* \"#utility.yul\":4563:4564   */\n      0x00\n        /* \"#utility.yul\":4584:4585   */\n      dup1\n        /* \"#utility.yul\":4594:5458   */\n    tag_402:\n        /* \"#utility.yul\":4610:4616   */\n      dup6\n        /* \"#utility.yul\":4605:4608   */\n      dup2\n        /* \"#utility.yul\":4602:4617   */\n      lt\n        /* \"#utility.yul\":4594:5458   */\n      iszero\n      tag_404\n      jumpi\n      not(0x1f)\n        /* \"#utility.yul\":4709:4728   */\n      dup10\n      dup6\n      sub\n        /* \"#utility.yul\":4705:4733   */\n      dup2\n      add\n        /* \"#utility.yul\":4693:4734   */\n      dup9\n      mstore\n        /* \"#utility.yul\":4757:4770   */\n      dup4\n      mload\n        /* \"#utility.yul\":4831:4840   */\n      dup1\n      mload\n        /* \"#utility.yul\":4853:4877   */\n      dup1\n      dup8\n      mstore\n        /* \"#utility.yul\":5009:5020   */\n      swap1\n      dup11\n      add\n      swap1\n        /* \"#utility.yul\":4899:4914   */\n      dup11\n      dup8\n      add\n      swap1\n        /* \"#utility.yul\":4957:4974   */\n      dup1\n      dup10\n      shl\n        /* \"#utility.yul\":4945:4975   */\n      dup9\n      add\n        /* \"#utility.yul\":4941:4980   */\n      dup13\n      add\n        /* \"#utility.yul\":5044:5045   */\n      dup7\n        /* \"#utility.yul\":5058:5349   */\n    tag_405:\n        /* \"#utility.yul\":5074:5082   */\n      dup3\n        /* \"#utility.yul\":5069:5072   */\n      dup2\n        /* \"#utility.yul\":5066:5083   */\n      lt\n        /* \"#utility.yul\":5058:5349   */\n      iszero\n      tag_407\n      jumpi\n        /* \"#utility.yul\":5176:5178   */\n      dup6\n        /* \"#utility.yul\":5167:5173   */\n      dup11\n        /* \"#utility.yul\":5159:5165   */\n      dup4\n        /* \"#utility.yul\":5155:5174   */\n      sub\n        /* \"#utility.yul\":5151:5179   */\n      add\n        /* \"#utility.yul\":5144:5149   */\n      dup5\n        /* \"#utility.yul\":5137:5180   */\n      mstore\n        /* \"#utility.yul\":5207:5249   */\n      tag_408\n        /* \"#utility.yul\":5242:5248   */\n      dup3\n        /* \"#utility.yul\":5231:5239   */\n      dup7\n        /* \"#utility.yul\":5225:5240   */\n      mload\n        /* \"#utility.yul\":5207:5249   */\n      tag_357\n      jump\t// in\n    tag_408:\n        /* \"#utility.yul\":5278:5295   */\n      swap5\n      dup15\n      add\n      swap5\n        /* \"#utility.yul\":5321:5335   */\n      swap4\n      dup15\n      add\n      swap4\n        /* \"#utility.yul\":5197:5249   */\n      swap2\n      pop\n        /* \"#utility.yul\":5102:5103   */\n      0x01\n        /* \"#utility.yul\":5093:5104   */\n      add\n        /* \"#utility.yul\":5058:5349   */\n      jump(tag_405)\n    tag_407:\n      pop\n        /* \"#utility.yul\":5436:5448   */\n      swap11\n      dup13\n      add\n      swap11\n        /* \"#utility.yul\":5372:5378   */\n      swap8\n      pop\n      pop\n      pop\n        /* \"#utility.yul\":5401:5416   */\n      swap4\n      dup10\n      add\n      swap4\n      pop\n      pop\n        /* \"#utility.yul\":4636:4637   */\n      0x01\n        /* \"#utility.yul\":4627:4638   */\n      add\n        /* \"#utility.yul\":4594:5458   */\n      jump(tag_402)\n    tag_404:\n      pop\n        /* \"#utility.yul\":5475:5481   */\n      swap2\n      swap12\n        /* \"#utility.yul\":3814:5487   */\n      swap11\n      pop\n      pop\n      pop\n      pop\n      pop\n      pop\n      pop\n      pop\n      pop\n      pop\n      pop\n      jump\t// out\n        /* \"#utility.yul\":5492:5888   */\n    tag_65:\n        /* \"#utility.yul\":5570:5576   */\n      0x00\n        /* \"#utility.yul\":5578:5584   */\n      dup1\n        /* \"#utility.yul\":5631:5633   */\n      0x40\n        /* \"#utility.yul\":5619:5628   */\n      dup4\n        /* \"#utility.yul\":5610:5617   */\n      dup6\n        /* \"#utility.yul\":5606:5629   */\n      sub\n        /* \"#utility.yul\":5602:5634   */\n      slt\n        /* \"#utility.yul\":5599:5651   */\n      iszero\n      tag_410\n      jumpi\n        /* \"#utility.yul\":5647:5648   */\n      0x00\n        /* \"#utility.yul\":5644:5645   */\n      dup1\n        /* \"#utility.yul\":5637:5649   */\n      revert\n        /* \"#utility.yul\":5599:5651   */\n    tag_410:\n        /* \"#utility.yul\":5670:5699   */\n      tag_411\n        /* \"#utility.yul\":5689:5698   */\n      dup4\n        /* \"#utility.yul\":5670:5699   */\n      tag_353\n      jump\t// in\n    tag_411:\n        /* \"#utility.yul\":5660:5699   */\n      swap2\n      pop\n        /* \"#utility.yul\":5750:5752   */\n      0x20\n        /* \"#utility.yul\":5739:5748   */\n      dup4\n        /* \"#utility.yul\":5735:5753   */\n      add\n        /* \"#utility.yul\":5722:5754   */\n      calldataload\n        /* \"#utility.yul\":5777:5795   */\n      0xffffffffffffffff\n        /* \"#utility.yul\":5769:5775   */\n      dup2\n        /* \"#utility.yul\":5766:5796   */\n      gt\n        /* \"#utility.yul\":5763:5813   */\n      iszero\n      tag_412\n      jumpi\n        /* \"#utility.yul\":5809:5810   */\n      0x00\n        /* \"#utility.yul\":5806:5807   */\n      dup1\n        /* \"#utility.yul\":5799:5811   */\n      revert\n        /* \"#utility.yul\":5763:5813   */\n    tag_412:\n        /* \"#utility.yul\":5832:5882   */\n      tag_413\n        /* \"#utility.yul\":5874:5881   */\n      dup6\n        /* \"#utility.yul\":5865:5871   */\n      dup3\n        /* \"#utility.yul\":5854:5863   */\n      dup7\n        /* \"#utility.yul\":5850:5872   */\n      add\n        /* \"#utility.yul\":5832:5882   */\n      tag_355\n      jump\t// in\n    tag_413:\n        /* \"#utility.yul\":5822:5882   */\n      swap2\n      pop\n      pop\n        /* \"#utility.yul\":5492:5888   */\n      swap3\n      pop\n      swap3\n      swap1\n      pop\n      jump\t// out\n        /* \"#utility.yul\":5893:6113   */\n    tag_80:\n        /* \"#utility.yul\":6042:6044   */\n      0x20\n        /* \"#utility.yul\":6031:6040   */\n      dup2\n        /* \"#utility.yul\":6024:6045   */\n      mstore\n        /* \"#utility.yul\":6005:6009   */\n      0x00\n        /* \"#utility.yul\":6062:6107   */\n      tag_106\n        /* \"#utility.yul\":6103:6105   */\n      0x20\n        /* \"#utility.yul\":6092:6101   */\n      dup4\n        /* \"#utility.yul\":6088:6106   */\n      add\n        /* \"#utility.yul\":6080:6086   */\n      dup5\n        /* \"#utility.yul\":6062:6107   */\n      tag_357\n      jump\t// in\n        /* \"#utility.yul\":6118:6921   */\n    tag_96:\n        /* \"#utility.yul\":6280:6284   */\n      0x00\n        /* \"#utility.yul\":6309:6311   */\n      0x20\n        /* \"#utility.yul\":6349:6351   */\n      dup1\n        /* \"#utility.yul\":6338:6347   */\n      dup4\n        /* \"#utility.yul\":6334:6352   */\n      add\n        /* \"#utility.yul\":6379:6381   */\n      dup2\n        /* \"#utility.yul\":6368:6377   */\n      dup5\n        /* \"#utility.yul\":6361:6382   */\n      mstore\n        /* \"#utility.yul\":6402:6408   */\n      dup1\n        /* \"#utility.yul\":6437:6443   */\n      dup6\n        /* \"#utility.yul\":6431:6444   */\n      mload\n        /* \"#utility.yul\":6468:6474   */\n      dup1\n        /* \"#utility.yul\":6460:6466   */\n      dup4\n        /* \"#utility.yul\":6453:6475   */\n      mstore\n        /* \"#utility.yul\":6506:6508   */\n      0x40\n        /* \"#utility.yul\":6495:6504   */\n      dup7\n        /* \"#utility.yul\":6491:6509   */\n      add\n        /* \"#utility.yul\":6484:6509   */\n      swap2\n      pop\n        /* \"#utility.yul\":6568:6570   */\n      0x40\n        /* \"#utility.yul\":6558:6564   */\n      dup2\n        /* \"#utility.yul\":6555:6556   */\n      0x05\n        /* \"#utility.yul\":6551:6565   */\n      shl\n        /* \"#utility.yul\":6540:6549   */\n      dup8\n        /* \"#utility.yul\":6536:6566   */\n      add\n        /* \"#utility.yul\":6532:6571   */\n      add\n        /* \"#utility.yul\":6518:6571   */\n      swap3\n      pop\n        /* \"#utility.yul\":6606:6608   */\n      dup4\n        /* \"#utility.yul\":6598:6604   */\n      dup8\n        /* \"#utility.yul\":6594:6609   */\n      add\n        /* \"#utility.yul\":6627:6628   */\n      0x00\n        /* \"#utility.yul\":6637:6892   */\n    tag_417:\n        /* \"#utility.yul\":6651:6657   */\n      dup3\n        /* \"#utility.yul\":6648:6649   */\n      dup2\n        /* \"#utility.yul\":6645:6658   */\n      lt\n        /* \"#utility.yul\":6637:6892   */\n      iszero\n      tag_419\n      jumpi\n        /* \"#utility.yul\":6744:6746   */\n      0x3f\n        /* \"#utility.yul\":6740:6747   */\n      not\n        /* \"#utility.yul\":6728:6737   */\n      dup9\n        /* \"#utility.yul\":6720:6726   */\n      dup7\n        /* \"#utility.yul\":6716:6738   */\n      sub\n        /* \"#utility.yul\":6712:6748   */\n      add\n        /* \"#utility.yul\":6707:6710   */\n      dup5\n        /* \"#utility.yul\":6700:6749   */\n      mstore\n        /* \"#utility.yul\":6772:6812   */\n      tag_420\n        /* \"#utility.yul\":6805:6811   */\n      dup6\n        /* \"#utility.yul\":6796:6802   */\n      dup4\n        /* \"#utility.yul\":6790:6803   */\n      mload\n        /* \"#utility.yul\":6772:6812   */\n      tag_357\n      jump\t// in\n    tag_420:\n        /* \"#utility.yul\":6762:6812   */\n      swap5\n      pop\n        /* \"#utility.yul\":6870:6882   */\n      swap3\n      dup6\n      add\n      swap3\n        /* \"#utility.yul\":6835:6850   */\n      swap1\n      dup6\n      add\n      swap1\n        /* \"#utility.yul\":6673:6674   */\n      0x01\n        /* \"#utility.yul\":6666:6675   */\n      add\n        /* \"#utility.yul\":6637:6892   */\n      jump(tag_417)\n    tag_419:\n      pop\n        /* \"#utility.yul\":6909:6915   */\n      swap3\n      swap8\n        /* \"#utility.yul\":6118:6921   */\n      swap7\n      pop\n      pop\n      pop\n      pop\n      pop\n      pop\n      pop\n      jump\t// out\n        /* \"#utility.yul\":6926:7053   */\n    tag_358:\n        /* \"#utility.yul\":6987:6997   */\n      0x4e487b71\n        /* \"#utility.yul\":6982:6985   */\n      0xe0\n        /* \"#utility.yul\":6978:6998   */\n      shl\n        /* \"#utility.yul\":6975:6976   */\n      0x00\n        /* \"#utility.yul\":6968:6999   */\n      mstore\n        /* \"#utility.yul\":7018:7022   */\n      0x11\n        /* \"#utility.yul\":7015:7016   */\n      0x04\n        /* \"#utility.yul\":7008:7023   */\n      mstore\n        /* \"#utility.yul\":7042:7046   */\n      0x24\n        /* \"#utility.yul\":7039:7040   */\n      0x00\n        /* \"#utility.yul\":7032:7047   */\n      revert\n        /* \"#utility.yul\":7058:7186   */\n    tag_103:\n        /* \"#utility.yul\":7125:7134   */\n      dup2\n      dup2\n      sub\n        /* \"#utility.yul\":7146:7157   */\n      dup2\n      dup2\n      gt\n        /* \"#utility.yul\":7143:7180   */\n      iszero\n      tag_117\n      jumpi\n        /* \"#utility.yul\":7160:7178   */\n      tag_117\n      tag_358\n      jump\t// in\n        /* \"#utility.yul\":8260:8640   */\n    tag_161:\n        /* \"#utility.yul\":8339:8340   */\n      0x01\n        /* \"#utility.yul\":8335:8347   */\n      dup2\n      dup2\n      shr\n      swap1\n        /* \"#utility.yul\":8382:8394   */\n      dup3\n      and\n      dup1\n        /* \"#utility.yul\":8403:8464   */\n      tag_429\n      jumpi\n        /* \"#utility.yul\":8457:8461   */\n      0x7f\n        /* \"#utility.yul\":8449:8455   */\n      dup3\n        /* \"#utility.yul\":8445:8462   */\n      and\n        /* \"#utility.yul\":8435:8462   */\n      swap2\n      pop\n        /* \"#utility.yul\":8403:8464   */\n    tag_429:\n        /* \"#utility.yul\":8510:8512   */\n      0x20\n        /* \"#utility.yul\":8502:8508   */\n      dup3\n        /* \"#utility.yul\":8499:8513   */\n      lt\n        /* \"#utility.yul\":8479:8497   */\n      dup2\n        /* \"#utility.yul\":8476:8514   */\n      sub\n        /* \"#utility.yul\":8473:8634   */\n      tag_430\n      jumpi\n        /* \"#utility.yul\":8556:8566   */\n      0x4e487b71\n        /* \"#utility.yul\":8551:8554   */\n      0xe0\n        /* \"#utility.yul\":8547:8567   */\n      shl\n        /* \"#utility.yul\":8544:8545   */\n      0x00\n        /* \"#utility.yul\":8537:8568   */\n      mstore\n        /* \"#utility.yul\":8591:8595   */\n      0x22\n        /* \"#utility.yul\":8588:8589   */\n      0x04\n        /* \"#utility.yul\":8581:8596   */\n      mstore\n        /* \"#utility.yul\":8619:8623   */\n      0x24\n        /* \"#utility.yul\":8616:8617   */\n      0x00\n        /* \"#utility.yul\":8609:8624   */\n      revert\n        /* \"#utility.yul\":8473:8634   */\n    tag_430:\n      pop\n        /* \"#utility.yul\":8260:8640   */\n      swap2\n      swap1\n      pop\n      jump\t// out\n        /* \"#utility.yul\":8771:9316   */\n    tag_360:\n        /* \"#utility.yul\":8873:8875   */\n      0x1f\n        /* \"#utility.yul\":8868:8871   */\n      dup3\n        /* \"#utility.yul\":8865:8876   */\n      gt\n        /* \"#utility.yul\":8862:9310   */\n      iszero\n      tag_433\n      jumpi\n        /* \"#utility.yul\":8909:8910   */\n      0x00\n        /* \"#utility.yul\":8934:8939   */\n      dup2\n        /* \"#utility.yul\":8930:8932   */\n      dup2\n        /* \"#utility.yul\":8923:8940   */\n      mstore\n        /* \"#utility.yul\":8979:8983   */\n      0x20\n        /* \"#utility.yul\":8975:8977   */\n      dup2\n        /* \"#utility.yul\":8965:8984   */\n      keccak256\n        /* \"#utility.yul\":9049:9051   */\n      0x1f\n        /* \"#utility.yul\":9037:9047   */\n      dup6\n        /* \"#utility.yul\":9033:9052   */\n      add\n        /* \"#utility.yul\":9030:9031   */\n      0x05\n        /* \"#utility.yul\":9026:9053   */\n      shr\n        /* \"#utility.yul\":9020:9024   */\n      dup2\n        /* \"#utility.yul\":9016:9054   */\n      add\n        /* \"#utility.yul\":9085:9089   */\n      0x20\n        /* \"#utility.yul\":9073:9083   */\n      dup7\n        /* \"#utility.yul\":9070:9090   */\n      lt\n        /* \"#utility.yul\":9067:9114   */\n      iszero\n      tag_434\n      jumpi\n      pop\n        /* \"#utility.yul\":9108:9112   */\n      dup1\n        /* \"#utility.yul\":9067:9114   */\n    tag_434:\n        /* \"#utility.yul\":9163:9165   */\n      0x1f\n        /* \"#utility.yul\":9158:9161   */\n      dup6\n        /* \"#utility.yul\":9154:9166   */\n      add\n        /* \"#utility.yul\":9151:9152   */\n      0x05\n        /* \"#utility.yul\":9147:9167   */\n      shr\n        /* \"#utility.yul\":9141:9145   */\n      dup3\n        /* \"#utility.yul\":9137:9168   */\n      add\n        /* \"#utility.yul\":9127:9168   */\n      swap2\n      pop\n        /* \"#utility.yul\":9218:9300   */\n    tag_435:\n        /* \"#utility.yul\":9236:9238   */\n      dup2\n        /* \"#utility.yul\":9229:9234   */\n      dup2\n        /* \"#utility.yul\":9226:9239   */\n      lt\n        /* \"#utility.yul\":9218:9300   */\n      iszero\n      tag_437\n      jumpi\n        /* \"#utility.yul\":9281:9298   */\n      dup3\n      dup2\n      sstore\n        /* \"#utility.yul\":9262:9263   */\n      0x01\n        /* \"#utility.yul\":9251:9264   */\n      add\n        /* \"#utility.yul\":9218:9300   */\n      jump(tag_435)\n    tag_437:\n        /* \"#utility.yul\":9222:9225   */\n      pop\n      pop\n      pop\n        /* \"#utility.yul\":8862:9310   */\n    tag_433:\n        /* \"#utility.yul\":8771:9316   */\n      pop\n      pop\n      pop\n      jump\t// out\n        /* \"#utility.yul\":9492:10844   */\n    tag_136:\n        /* \"#utility.yul\":9618:9621   */\n      dup2\n        /* \"#utility.yul\":9612:9622   */\n      mload\n        /* \"#utility.yul\":9645:9663   */\n      0xffffffffffffffff\n        /* \"#utility.yul\":9637:9643   */\n      dup2\n        /* \"#utility.yul\":9634:9664   */\n      gt\n        /* \"#utility.yul\":9631:9687   */\n      iszero\n      tag_441\n      jumpi\n        /* \"#utility.yul\":9667:9685   */\n      tag_441\n      tag_144\n      jump\t// in\n    tag_441:\n        /* \"#utility.yul\":9696:9793   */\n      tag_442\n        /* \"#utility.yul\":9786:9792   */\n      dup2\n        /* \"#utility.yul\":9746:9784   */\n      tag_443\n        /* \"#utility.yul\":9778:9782   */\n      dup5\n        /* \"#utility.yul\":9772:9783   */\n      sload\n        /* \"#utility.yul\":9746:9784   */\n      tag_161\n      jump\t// in\n    tag_443:\n        /* \"#utility.yul\":9740:9744   */\n      dup5\n        /* \"#utility.yul\":9696:9793   */\n      tag_360\n      jump\t// in\n    tag_442:\n        /* \"#utility.yul\":9848:9852   */\n      0x20\n      dup1\n        /* \"#utility.yul\":9912:9914   */\n      0x1f\n        /* \"#utility.yul\":9901:9915   */\n      dup4\n      gt\n        /* \"#utility.yul\":9929:9930   */\n      0x01\n        /* \"#utility.yul\":9924:10587   */\n      dup2\n      eq\n      tag_445\n      jumpi\n        /* \"#utility.yul\":10631:10632   */\n      0x00\n        /* \"#utility.yul\":10648:10654   */\n      dup5\n        /* \"#utility.yul\":10645:10734   */\n      iszero\n      tag_446\n      jumpi\n      pop\n        /* \"#utility.yul\":10700:10719   */\n      dup6\n      dup4\n      add\n        /* \"#utility.yul\":10694:10720   */\n      mload\n        /* \"#utility.yul\":10645:10734   */\n    tag_446:\n      not(0x00)\n        /* \"#utility.yul\":9449:9450   */\n      0x03\n        /* \"#utility.yul\":9445:9456   */\n      dup7\n      swap1\n      shl\n        /* \"#utility.yul\":9441:9465   */\n      shr\n        /* \"#utility.yul\":9437:9466   */\n      not\n        /* \"#utility.yul\":9427:9467   */\n      and\n        /* \"#utility.yul\":9473:9474   */\n      0x01\n        /* \"#utility.yul\":9469:9480   */\n      dup6\n      swap1\n      shl\n        /* \"#utility.yul\":9424:9481   */\n      or\n        /* \"#utility.yul\":10747:10828   */\n      dup6\n      sstore\n        /* \"#utility.yul\":9894:10838   */\n      jump(tag_437)\n        /* \"#utility.yul\":9924:10587   */\n    tag_445:\n        /* \"#utility.yul\":8718:8719   */\n      0x00\n        /* \"#utility.yul\":8711:8725   */\n      dup6\n      dup2\n      mstore\n        /* \"#utility.yul\":8755:8759   */\n      0x20\n        /* \"#utility.yul\":8742:8760   */\n      dup2\n      keccak256\n      not(0x1f)\n        /* \"#utility.yul\":9960:9980   */\n      dup7\n      and\n      swap2\n        /* \"#utility.yul\":10078:10314   */\n    tag_449:\n        /* \"#utility.yul\":10092:10099   */\n      dup3\n        /* \"#utility.yul\":10089:10090   */\n      dup2\n        /* \"#utility.yul\":10086:10100   */\n      lt\n        /* \"#utility.yul\":10078:10314   */\n      iszero\n      tag_451\n      jumpi\n        /* \"#utility.yul\":10181:10200   */\n      dup9\n      dup7\n      add\n        /* \"#utility.yul\":10175:10201   */\n      mload\n        /* \"#utility.yul\":10160:10202   */\n      dup3\n      sstore\n        /* \"#utility.yul\":10273:10300   */\n      swap5\n      dup5\n      add\n      swap5\n        /* \"#utility.yul\":10241:10242   */\n      0x01\n        /* \"#utility.yul\":10229:10243   */\n      swap1\n      swap2\n      add\n      swap1\n        /* \"#utility.yul\":10108:10127   */\n      dup5\n      add\n        /* \"#utility.yul\":10078:10314   */\n      jump(tag_449)\n    tag_451:\n        /* \"#utility.yul\":10082:10085   */\n      pop\n        /* \"#utility.yul\":10342:10348   */\n      dup6\n        /* \"#utility.yul\":10333:10340   */\n      dup3\n        /* \"#utility.yul\":10330:10349   */\n      lt\n        /* \"#utility.yul\":10327:10528   */\n      iszero\n      tag_452\n      jumpi\n        /* \"#utility.yul\":10403:10422   */\n      dup8\n      dup6\n      add\n        /* \"#utility.yul\":10397:10423   */\n      mload\n      not(0x00)\n        /* \"#utility.yul\":10486:10487   */\n      0x03\n        /* \"#utility.yul\":10482:10496   */\n      dup9\n      swap1\n      shl\n        /* \"#utility.yul\":10498:10501   */\n      0xf8\n        /* \"#utility.yul\":10478:10502   */\n      and\n        /* \"#utility.yul\":10474:10511   */\n      shr\n        /* \"#utility.yul\":10470:10512   */\n      not\n        /* \"#utility.yul\":10455:10513   */\n      and\n        /* \"#utility.yul\":10440:10514   */\n      dup2\n      sstore\n        /* \"#utility.yul\":10327:10528   */\n    tag_452:\n      pop\n      pop\n      pop\n      pop\n      pop\n        /* \"#utility.yul\":10574:10575   */\n      0x01\n        /* \"#utility.yul\":10558:10572   */\n      swap1\n      dup2\n      shl\n        /* \"#utility.yul\":10554:10576   */\n      add\n        /* \"#utility.yul\":10541:10577   */\n      swap1\n      sstore\n      pop\n        /* \"#utility.yul\":9492:10844   */\n      jump\t// out\n        /* \"#utility.yul\":11195:11322   */\n    tag_155:\n        /* \"#utility.yul\":11256:11266   */\n      0x4e487b71\n        /* \"#utility.yul\":11251:11254   */\n      0xe0\n        /* \"#utility.yul\":11247:11267   */\n      shl\n        /* \"#utility.yul\":11244:11245   */\n      0x00\n        /* \"#utility.yul\":11237:11268   */\n      mstore\n        /* \"#utility.yul\":11287:11291   */\n      0x32\n        /* \"#utility.yul\":11284:11285   */\n      0x04\n        /* \"#utility.yul\":11277:11292   */\n      mstore\n        /* \"#utility.yul\":11311:11315   */\n      0x24\n        /* \"#utility.yul\":11308:11309   */\n      0x00\n        /* \"#utility.yul\":11301:11316   */\n      revert\n        /* \"#utility.yul\":11327:11462   */\n    tag_171:\n        /* \"#utility.yul\":11366:11369   */\n      0x00\n        /* \"#utility.yul\":11387:11404   */\n      0x01\n      dup3\n      add\n        /* \"#utility.yul\":11384:11427   */\n      tag_457\n      jumpi\n        /* \"#utility.yul\":11407:11425   */\n      tag_457\n      tag_358\n      jump\t// in\n    tag_457:\n      pop\n        /* \"#utility.yul\":11454:11455   */\n      0x01\n        /* \"#utility.yul\":11443:11456   */\n      add\n      swap1\n        /* \"#utility.yul\":11327:11462   */\n      jump\t// out\n        /* \"#utility.yul\":12168:12457   */\n    tag_186:\n        /* \"#utility.yul\":12299:12302   */\n      0x00\n        /* \"#utility.yul\":12337:12343   */\n      dup3\n        /* \"#utility.yul\":12331:12344   */\n      mload\n        /* \"#utility.yul\":12353:12419   */\n      tag_461\n        /* \"#utility.yul\":12412:12418   */\n      dup2\n        /* \"#utility.yul\":12407:12410   */\n      dup5\n        /* \"#utility.yul\":12400:12404   */\n      0x20\n        /* \"#utility.yul\":12392:12398   */\n      dup8\n        /* \"#utility.yul\":12388:12405   */\n      add\n        /* \"#utility.yul\":12353:12419   */\n      tag_356\n      jump\t// in\n    tag_461:\n        /* \"#utility.yul\":12435:12451   */\n      swap2\n      swap1\n      swap2\n      add\n      swap3\n        /* \"#utility.yul\":12168:12457   */\n      swap2\n      pop\n      pop\n      jump\t// out\n        /* \"#utility.yul\":12462:13304   */\n    tag_191:\n        /* \"#utility.yul\":12590:12593   */\n      0x00\n        /* \"#utility.yul\":12619:12620   */\n      dup1\n        /* \"#utility.yul\":12652:12658   */\n      dup4\n        /* \"#utility.yul\":12646:12659   */\n      sload\n        /* \"#utility.yul\":12682:12718   */\n      tag_463\n        /* \"#utility.yul\":12708:12717   */\n      dup2\n        /* \"#utility.yul\":12682:12718   */\n      tag_161\n      jump\t// in\n    tag_463:\n        /* \"#utility.yul\":12737:12738   */\n      0x01\n        /* \"#utility.yul\":12754:12772   */\n      dup3\n      dup2\n      and\n        /* \"#utility.yul\":12781:12914   */\n      dup1\n      iszero\n      tag_465\n      jumpi\n        /* \"#utility.yul\":12928:12929   */\n      0x01\n        /* \"#utility.yul\":12923:13279   */\n      dup2\n      eq\n      tag_466\n      jumpi\n        /* \"#utility.yul\":12747:13279   */\n      jump(tag_464)\n        /* \"#utility.yul\":12781:12914   */\n    tag_465:\n      not(0xff)\n        /* \"#utility.yul\":12814:12838   */\n      dup5\n      and\n        /* \"#utility.yul\":12802:12839   */\n      dup8\n      mstore\n        /* \"#utility.yul\":12887:12901   */\n      dup3\n      iszero\n        /* \"#utility.yul\":12880:12902   */\n      iszero\n        /* \"#utility.yul\":12868:12903   */\n      dup4\n      mul\n        /* \"#utility.yul\":12859:12904   */\n      dup8\n      add\n      swap5\n      pop\n        /* \"#utility.yul\":12781:12914   */\n      jump(tag_464)\n        /* \"#utility.yul\":12923:13279   */\n    tag_466:\n        /* \"#utility.yul\":12954:12960   */\n      dup8\n        /* \"#utility.yul\":12951:12952   */\n      0x00\n        /* \"#utility.yul\":12944:12961   */\n      mstore\n        /* \"#utility.yul\":12984:12988   */\n      0x20\n        /* \"#utility.yul\":13029:13031   */\n      dup1\n        /* \"#utility.yul\":13026:13027   */\n      0x00\n        /* \"#utility.yul\":13016:13032   */\n      keccak256\n        /* \"#utility.yul\":13054:13055   */\n      0x00\n        /* \"#utility.yul\":13068:13233   */\n    tag_467:\n        /* \"#utility.yul\":13082:13088   */\n      dup6\n        /* \"#utility.yul\":13079:13080   */\n      dup2\n        /* \"#utility.yul\":13076:13089   */\n      lt\n        /* \"#utility.yul\":13068:13233   */\n      iszero\n      tag_469\n      jumpi\n        /* \"#utility.yul\":13160:13174   */\n      dup2\n      sload\n        /* \"#utility.yul\":13147:13158   */\n      dup11\n      dup3\n      add\n        /* \"#utility.yul\":13140:13175   */\n      mstore\n        /* \"#utility.yul\":13203:13219   */\n      swap1\n      dup5\n      add\n      swap1\n        /* \"#utility.yul\":13097:13107   */\n      dup3\n      add\n        /* \"#utility.yul\":13068:13233   */\n      jump(tag_467)\n    tag_469:\n        /* \"#utility.yul\":13072:13075   */\n      pop\n      pop\n      pop\n        /* \"#utility.yul\":13262:13268   */\n      dup3\n        /* \"#utility.yul\":13257:13260   */\n      dup8\n        /* \"#utility.yul\":13253:13269   */\n      add\n        /* \"#utility.yul\":13246:13269   */\n      swap5\n      pop\n        /* \"#utility.yul\":12747:13279   */\n    tag_464:\n      pop\n        /* \"#utility.yul\":13295:13298   */\n      swap3\n      swap7\n        /* \"#utility.yul\":12462:13304   */\n      swap6\n      pop\n      pop\n      pop\n      pop\n      pop\n      pop\n      jump\t// out\n        /* \"#utility.yul\":13718:15153   */\n    tag_253:\n        /* \"#utility.yul\":13837:13840   */\n      dup2\n        /* \"#utility.yul\":13831:13835   */\n      dup2\n        /* \"#utility.yul\":13828:13841   */\n      sub\n        /* \"#utility.yul\":13825:13851   */\n      tag_472\n      jumpi\n        /* \"#utility.yul\":13844:13849   */\n      pop\n      pop\n        /* \"#utility.yul\":13718:15153   */\n      jump\t// out\n        /* \"#utility.yul\":13825:13851   */\n    tag_472:\n        /* \"#utility.yul\":13874:13911   */\n      tag_473\n        /* \"#utility.yul\":13906:13909   */\n      dup3\n        /* \"#utility.yul\":13900:13910   */\n      sload\n        /* \"#utility.yul\":13874:13911   */\n      tag_161\n      jump\t// in\n    tag_473:\n        /* \"#utility.yul\":13934:13952   */\n      0xffffffffffffffff\n        /* \"#utility.yul\":13926:13932   */\n      dup2\n        /* \"#utility.yul\":13923:13953   */\n      gt\n        /* \"#utility.yul\":13920:13976   */\n      iszero\n      tag_475\n      jumpi\n        /* \"#utility.yul\":13956:13974   */\n      tag_475\n      tag_144\n      jump\t// in\n    tag_475:\n        /* \"#utility.yul\":13985:14082   */\n      tag_476\n        /* \"#utility.yul\":14075:14081   */\n      dup2\n        /* \"#utility.yul\":14035:14073   */\n      tag_443\n        /* \"#utility.yul\":14067:14071   */\n      dup5\n        /* \"#utility.yul\":14061:14072   */\n      sload\n        /* \"#utility.yul\":14035:14073   */\n      tag_161\n      jump\t// in\n        /* \"#utility.yul\":13985:14082   */\n    tag_476:\n        /* \"#utility.yul\":14108:14109   */\n      0x00\n        /* \"#utility.yul\":14136:14138   */\n      0x1f\n        /* \"#utility.yul\":14128:14134   */\n      dup3\n        /* \"#utility.yul\":14125:14139   */\n      gt\n        /* \"#utility.yul\":14153:14154   */\n      0x01\n        /* \"#utility.yul\":14148:14896   */\n      dup2\n      eq\n      tag_479\n      jumpi\n        /* \"#utility.yul\":14940:14941   */\n      0x00\n        /* \"#utility.yul\":14957:14963   */\n      dup4\n        /* \"#utility.yul\":14954:15043   */\n      iszero\n      tag_480\n      jumpi\n      pop\n        /* \"#utility.yul\":15009:15028   */\n      dup5\n      dup3\n      add\n        /* \"#utility.yul\":15003:15029   */\n      sload\n        /* \"#utility.yul\":14954:15043   */\n    tag_480:\n      not(0x00)\n        /* \"#utility.yul\":9449:9450   */\n      0x03\n        /* \"#utility.yul\":9445:9456   */\n      dup6\n      swap1\n      shl\n        /* \"#utility.yul\":9441:9465   */\n      shr\n        /* \"#utility.yul\":9437:9466   */\n      not\n        /* \"#utility.yul\":9427:9467   */\n      and\n        /* \"#utility.yul\":9473:9474   */\n      0x01\n        /* \"#utility.yul\":9469:9480   */\n      dup5\n      swap1\n      shl\n        /* \"#utility.yul\":9424:9481   */\n      or\n        /* \"#utility.yul\":15056:15137   */\n      dup5\n      sstore\n        /* \"#utility.yul\":14118:15147   */\n      jump(tag_478)\n        /* \"#utility.yul\":14148:14896   */\n    tag_479:\n        /* \"#utility.yul\":8718:8719   */\n      0x00\n        /* \"#utility.yul\":8711:8725   */\n      dup6\n      dup2\n      mstore\n        /* \"#utility.yul\":8755:8759   */\n      0x20\n        /* \"#utility.yul\":8742:8760   */\n      swap1\n      keccak256\n      not(0x1f)\n        /* \"#utility.yul\":14184:14204   */\n      dup5\n      and\n      swap1\n        /* \"#utility.yul\":8718:8719   */\n      0x00\n        /* \"#utility.yul\":8711:8725   */\n      dup7\n      dup2\n      mstore\n        /* \"#utility.yul\":8755:8759   */\n      0x20\n        /* \"#utility.yul\":8742:8760   */\n      swap1\n      keccak256\n        /* \"#utility.yul\":14348:14357   */\n      dup5\n        /* \"#utility.yul\":14370:14621   */\n    tag_484:\n        /* \"#utility.yul\":14384:14391   */\n      dup4\n        /* \"#utility.yul\":14381:14382   */\n      dup2\n        /* \"#utility.yul\":14378:14392   */\n      lt\n        /* \"#utility.yul\":14370:14621   */\n      iszero\n      tag_486\n      jumpi\n        /* \"#utility.yul\":14466:14487   */\n      dup3\n      dup7\n      add\n        /* \"#utility.yul\":14460:14488   */\n      sload\n        /* \"#utility.yul\":14445:14489   */\n      dup3\n      sstore\n        /* \"#utility.yul\":14516:14517   */\n      0x01\n        /* \"#utility.yul\":14589:14607   */\n      swap6\n      dup7\n      add\n      swap6\n        /* \"#utility.yul\":14544:14559   */\n      swap1\n      swap2\n      add\n      swap1\n        /* \"#utility.yul\":14407:14411   */\n      0x20\n        /* \"#utility.yul\":14400:14412   */\n      add\n        /* \"#utility.yul\":14370:14621   */\n      jump(tag_484)\n    tag_486:\n        /* \"#utility.yul\":14374:14377   */\n      pop\n        /* \"#utility.yul\":14649:14655   */\n      dup6\n        /* \"#utility.yul\":14640:14647   */\n      dup4\n        /* \"#utility.yul\":14637:14656   */\n      lt\n        /* \"#utility.yul\":14634:14837   */\n      iszero\n      tag_487\n      jumpi\n        /* \"#utility.yul\":14710:14731   */\n      dup2\n      dup6\n      add\n        /* \"#utility.yul\":14704:14732   */\n      sload\n      not(0x00)\n        /* \"#utility.yul\":14795:14796   */\n      0x03\n        /* \"#utility.yul\":14791:14805   */\n      dup9\n      swap1\n      shl\n        /* \"#utility.yul\":14807:14810   */\n      0xf8\n        /* \"#utility.yul\":14787:14811   */\n      and\n        /* \"#utility.yul\":14783:14820   */\n      shr\n        /* \"#utility.yul\":14779:14821   */\n      not\n        /* \"#utility.yul\":14764:14822   */\n      and\n        /* \"#utility.yul\":14749:14823   */\n      dup2\n      sstore\n        /* \"#utility.yul\":14634:14837   */\n    tag_487:\n      pop\n      pop\n      pop\n        /* \"#utility.yul\":14883:14884   */\n      0x01\n        /* \"#utility.yul\":14874:14880   */\n      dup4\n        /* \"#utility.yul\":14871:14872   */\n      0x01\n        /* \"#utility.yul\":14867:14881   */\n      shl\n        /* \"#utility.yul\":14863:14885   */\n      add\n        /* \"#utility.yul\":14857:14861   */\n      dup5\n        /* \"#utility.yul\":14850:14886   */\n      sstore\n        /* \"#utility.yul\":14118:15147   */\n    tag_478:\n      pop\n      pop\n      pop\n        /* \"#utility.yul\":13718:15153   */\n      pop\n      pop\n      jump\t// out\n        /* \"#utility.yul\":15158:15285   */\n    tag_256:\n        /* \"#utility.yul\":15219:15229   */\n      0x4e487b71\n        /* \"#utility.yul\":15214:15217   */\n      0xe0\n        /* \"#utility.yul\":15210:15230   */\n      shl\n        /* \"#utility.yul\":15207:15208   */\n      0x00\n        /* \"#utility.yul\":15200:15231   */\n      mstore\n        /* \"#utility.yul\":15250:15254   */\n      0x31\n        /* \"#utility.yul\":15247:15248   */\n      0x04\n        /* \"#utility.yul\":15240:15255   */\n      mstore\n        /* \"#utility.yul\":15274:15278   */\n      0x24\n        /* \"#utility.yul\":15271:15272   */\n      0x00\n        /* \"#utility.yul\":15264:15279   */\n      revert\n\n    auxdata: 0xa26469706673582212207ac5b69def1c033704db4fc84b7731c2bf653bfe90f85e6d36b53e522e2432ee64736f6c63430008110033\n}\n",
    "bytecode": {
      "linkReferences": {},
      "object": "608060405234801561001057600080fd5b50612298806100206000396000f3fe608060405234801561001057600080fd5b50600436106101515760003560e01c80635926651d116100cd578063a98d22bc11610081578063d51c319911610066578063d51c3199146102dc578063df78bc54146102ef578063f892cb361461030f57600080fd5b8063a98d22bc14610299578063cd9c9362146102d457600080fd5b806387c63714116100b257806387c637141461025357806387ce1ca8146102665780638d5492e41461028657600080fd5b80635926651d1461022d57806359633a1c1461024057600080fd5b8063196ba7ef116101245780633dea2f84116101095780633dea2f84146101f15780634fe0d081146102045780635211287e1461021a57600080fd5b8063196ba7ef146101c557806338266b22146101cf57600080fd5b806301e2b33f14610156578063072039a21461017c57806307a8b7671461019f578063096e27d9146101b2575b600080fd5b610169610164366004611bb8565b610322565b6040519081526020015b60405180910390f35b61018f61018a366004611bb8565b6103a5565b6040519015158152602001610173565b61018f6101ad366004611bb8565b610439565b61018f6101c0366004611bd3565b6104c9565b6101cd6104fb565b005b6101e26101dd366004611bb8565b610597565b60405161017393929190611c4a565b6101cd6101ff366004611d18565b6106c2565b61020c61079d565b604051610173929190611dc6565b6101cd610228366004611e7b565b610a4f565b6101cd61023b366004611bb8565b610cbb565b6101cd61024e366004611bb8565b610ea1565b6101cd610261366004611e7b565b610ffd565b610279610274366004611bd3565b61129f565b6040516101739190611ec9565b6101cd610294366004611bb8565b61137f565b6101cd6102a7366004611bb8565b6001600160a01b03166000908152602081905260409020805460ff19168155600501805461ff0019169055565b6101cd6114b5565b6101cd6102ea366004611d18565b6116e6565b6103026102fd366004611bd3565b6117b4565b6040516101739190611edc565b61027961031d366004611bd3565b611956565b6001600160a01b038116600090815260208190526040812060040154819061034a9042611f54565b6001600160a01b038416600090815260208190526040902060030154909150811161039b576001600160a01b038316600090815260208190526040902060030154610396908290611f54565b61039e565b60005b9392505050565b60006103b082610439565b15610412576001600160a01b038216600090815260208190526040902060040154156104125760006103e183610322565b905060008111610410576001600160a01b0383166000908152602081905260409020600501805461ff00191690555b505b506001600160a01b0316600090815260208190526040902060050154610100900460ff1690565b6001600160a01b03811660009081526020819052604081205460ff166104a65760405162461bcd60e51b815260206004820152601960248201527f42656e65666163746f7220646f6573206e6f742065786973740000000000000060448201526064015b60405180910390fd5b506001600160a01b031660009081526020819052604090206005015460ff161590565b6001600160a01b03808316600090815260208181526040808320938516835260019093019052205460ff165b92915050565b3360009081526020819052604090205460ff161561055b5760405162461bcd60e51b815260206004820152601960248201527f62656e65666163746f7220616c72656164792065786973747300000000000000604482015260640161049d565b336000908152602081905260408120805460ff1916600117815562093a80600382015560058101805461010161ffff1990911617905560040155565b6001600160a01b038116600090815260208190526040812054606090829060ff166106045760405162461bcd60e51b815260206004820152601960248201527f42656e65666163746f7220646f6573206e6f7420657869737400000000000000604482015260640161049d565b6001600160a01b0384166000908152602081815260409182902060058101546002909101805484518185028101850190955280855260ff9092161596509183018282801561067b57602002820191906000526020600020905b81546001600160a01b0316815260019091019060200180831161065d575b5050506001600160a01b038716600090815260208190526040902060050154929450505060ff16156106af575060006106bb565b6106b884610322565b90505b9193909250565b6106cc83836104c9565b6107185760405162461bcd60e51b815260206004820181905260248201527f42656e65666963696172792f42656e65666163746f72206e6f7420666f756e64604482015260640161049d565b6001600160a01b038084166000908152602081815260408083209386168352600190930190522060030161074c8282611ff0565b50816001600160a01b0316836001600160a01b03167f69ccea10852ac51b01745414774b5af302217e774786d2068296650b57ba03f2836040516107909190611ec9565b60405180910390a3505050565b33600090815260208190526040902054606090819060ff166108015760405162461bcd60e51b815260206004820152601160248201527f4e6f2061636365737320746f2043494473000000000000000000000000000000604482015260640161049d565b33600090815260208190526040812060020154908167ffffffffffffffff81111561082e5761082e611c75565b604051908082528060200260200182016040528015610857578160200160208202803683370190505b50905060008267ffffffffffffffff81111561087557610875611c75565b6040519080825280602002602001820160405280156108a857816020015b60608152602001906001900390816108935790505b50905060005b83811015610a44573360009081526020819052604081206002018054839081106108da576108da6120b0565b600091825260208083209091015433835282825260408084206001600160a01b039092168085526001928301845281852090920180548251818602810186019093528083529295509092909190849084015b828210156109d857838290600052602060002001805461094b90611f67565b80601f016020809104026020016040519081016040528092919081815260200182805461097790611f67565b80156109c45780601f10610999576101008083540402835291602001916109c4565b820191906000526020600020905b8154815290600101906020018083116109a757829003601f168201915b50505050508152602001906001019061092c565b505050509050818584815181106109f1576109f16120b0565b60200260200101906001600160a01b031690816001600160a01b03168152505080848481518110610a2457610a246120b0565b602002602001018190525050508080610a3c906120c6565b9150506108ae565b509094909350915050565b3360009081526020819052604090205460ff168015610a85575033600090815260208190526040902060050154610100900460ff165b610aca5760405162461bcd60e51b81526020600482015260166024820152752737ba1030903b30b634b2103132b732b330b1ba37b960511b604482015260640161049d565b610ad433836104c9565b610b185760405162461bcd60e51b815260206004820152601560248201527410995b99599a58da585c9e481b9bdd08199bdd5b99605a1b604482015260640161049d565b336000908152602081815260408083206001600160a01b03861684526001908101909252822001905b8154811015610c385782604051602001610b5b91906120df565b60405160208183030381529060405280519060200120828281548110610b8357610b836120b0565b90600052602060002001604051602001610b9d91906120fb565b6040516020818303038152906040528051906020012003610c265760405162461bcd60e51b815260206004820152602860248201527f43494420616c72656164792061737369676e656420746f20746869732062656e60448201527f6566696369617279000000000000000000000000000000000000000000000000606482015260840161049d565b80610c30816120c6565b915050610b41565b50336000908152602081815260408083206001600160a01b0387168452600190810183529083208101805491820181558352912001610c778382611ff0565b50826001600160a01b0316336001600160a01b03167fa1bb52b874769d5c17cde30e708e8f7180bb949f70e77caf0da68d25f9a1a510846040516107909190611ec9565b3360009081526020819052604090205460ff168015610cf1575033600090815260208190526040902060050154610100900460ff165b610d365760405162461bcd60e51b81526020600482015260166024820152752737ba1030903b30b634b2103132b732b330b1ba37b960511b604482015260640161049d565b610d4033826104c9565b15610e9e5760408051608081018252600181528151600080825260208281019094529192830191610d81565b6060815260200190600190039081610d6c5790505b508152604080516020808201835260008083528185019290925282518082018452828152938301939093523381528083528181206001600160a01b0386168252600190810184529190208351815460ff19169015151781558383015180519193610df093850192910190611abc565b5060408201516002820190610e059082611ff0565b5060608201516003820190610e1a9082611ff0565b505033600081815260208181526040808320600201805460018101825590845291832090910180547fffffffffffffffffffffffff0000000000000000000000000000000000000000166001600160a01b03871690811790915590519093507fbb39c36a7502b7256e1a687254146a9a2ea7b146c77cb9e40eb0e2b8793781e19190a35b50565b3360009081526020819052604090205460ff168015610ed7575033600090815260208190526040902060050154610100900460ff165b610f1c5760405162461bcd60e51b81526020600482015260166024820152752737ba1030903b30b634b2103132b732b330b1ba37b960511b604482015260640161049d565b610f2633826104c9565b610f6a5760405162461bcd60e51b815260206004820152601560248201527410995b99599a58da585c9e481b9bdd08199bdd5b99605a1b604482015260640161049d565b336000908152602081815260408083206001600160a01b038516845260019081019092528220805460ff191681559190610fa690830182611b12565b610fb4600283016000611b30565b610fc2600383016000611b30565b50506040516001600160a01b0382169033907f1a6590bd0cabbfcc7c86bef99e1034054e179905cfcc294598fcd426c092244290600090a350565b3360009081526020819052604090205460ff168015611033575033600090815260208190526040902060050154610100900460ff165b6110785760405162461bcd60e51b81526020600482015260166024820152752737ba1030903b30b634b2103132b732b330b1ba37b960511b604482015260640161049d565b61108233836104c9565b6110c65760405162461bcd60e51b815260206004820152601560248201527410995b99599a58da585c9e481b9bdd08199bdd5b99605a1b604482015260640161049d565b336000908152602081815260408083206001600160a01b03861684526001908101909252822001905b815481101561124a578260405160200161110991906120df565b60405160208183030381529060405280519060200120828281548110611131576111316120b0565b9060005260206000200160405160200161114b91906120fb565b6040516020818303038152906040528051906020012003611238578154829061117690600190611f54565b81548110611186576111866120b0565b906000526020600020018282815481106111a2576111a26120b0565b9060005260206000200190816111b89190612171565b50818054806111c9576111c961224c565b6001900381819060005260206000200160006111e59190611b30565b9055836001600160a01b0316336001600160a01b03167f4c13211ce3b2d0cb3e02a662cc071d6be555042ca58d4d812b7b90e80d3250ac8560405161122a9190611ec9565b60405180910390a350505050565b80611242816120c6565b9150506110ef565b5060405162461bcd60e51b8152602060048201526024808201527f434944206e6f742061737369676e656420746f20746869732062656e656669636044820152636961727960e01b606482015260840161049d565b60606112ab83836104c9565b1561136a576001600160a01b038084166000908152602081815260408083209386168352600190930190522060020180546112e590611f67565b80601f016020809104026020016040519081016040528092919081815260200182805461131190611f67565b801561135e5780601f106113335761010080835404028352916020019161135e565b820191906000526020600020905b81548152906001019060200180831161134157829003601f168201915b505050505090506104f5565b506040805160208101909152600081526104f5565b6001600160a01b03811660009081526020818152604080832033845260010190915290205460ff166113f35760405162461bcd60e51b815260206004820152601760248201527f4e6f7420612076616c69642062656e6566696369617279000000000000000000604482015260640161049d565b6001600160a01b03811660009081526020819052604090206005015460ff1661144f5760405133906001600160a01b038316907f67c4731bdc193862f421e091d18f46df876bfe1b8b9aa97504f1d50d425b239d90600090a350565b6001600160a01b0381166000818152602081815260409182902060058101805460ff191690554260048201556003015491519182523392917f82595752291d0261dfb9b4b0c2307021c29c34e22fe0697b4840b529dc351bc3910160405180910390a350565b3360009081526020819052604090205460ff1680156114eb575033600090815260208190526040902060050154610100900460ff165b6115305760405162461bcd60e51b81526020600482015260166024820152752737ba1030903b30b634b2103132b732b330b1ba37b960511b604482015260640161049d565b336000908152602081905260409020600401541561167d57611551336103a5565b156115e757336001600160a01b03167f793324a6f079e577f4a4646c7ec753efd3beddc2f4ce07bfae5f105c449ac3566040516115bf9060208082526013908201527f42656e65666163746f7220697320616c69766500000000000000000000000000604082015260600190565b60405180910390a26115cf61199c565b33600090815260208190526040902042600490910155565b336000908152602081905260409020805460ff19168155600501805461ff0019169055336001600160a01b03167f5a68fa7d6b655a3e592d5d99ac82863424750e9d262c902f30f9e56655e7a8566040516116739060208082526012908201527f42656e65666163746f7220697320646561640000000000000000000000000000604082015260600190565b60405180910390a2565b336001600160a01b03167f793324a6f079e577f4a4646c7ec753efd3beddc2f4ce07bfae5f105c449ac3566040516115bf9060208082526013908201527f42656e65666163746f7220697320616c69766500000000000000000000000000604082015260600190565b6116f083836104c9565b61173c5760405162461bcd60e51b815260206004820181905260248201527f42656e65666963696172792f42656e65666163746f72206e6f7420666f756e64604482015260640161049d565b6001600160a01b03808416600090815260208181526040808320938616835260019093019052206002016117708282611ff0565b50816001600160a01b0316836001600160a01b03167f812e93bad7e76e8b51ecdb31c9c69773dba6b47c2ae9fc763877665448b150d9836040516107909190611ec9565b60606117c083836104c9565b6118045760405162461bcd60e51b815260206004820152601560248201527410995b99599a58da585c9e481b9bdd08199bdd5b99605a1b604482015260640161049d565b61180d836103a5565b1561185a5760405162461bcd60e51b815260206004820152601160248201527f4e6f2061636365737320746f2043494473000000000000000000000000000000604482015260640161049d565b6001600160a01b0380841660009081526020818152604080832093861683526001938401825280832090930180548451818402810184019095528085529092909184015b8282101561194a5783829060005260206000200180546118bd90611f67565b80601f01602080910402602001604051908101604052809291908181526020018280546118e990611f67565b80156119365780601f1061190b57610100808354040283529160200191611936565b820191906000526020600020905b81548152906001019060200180831161191957829003601f168201915b50505050508152602001906001019061189e565b50505050905092915050565b606061196283836104c9565b1561136a576001600160a01b038084166000908152602081815260408083209386168352600190930190522060030180546112e590611f67565b3360009081526020819052604090205460ff1680156119d2575033600090815260208190526040902060050154610100900460ff165b611a175760405162461bcd60e51b81526020600482015260166024820152752737ba1030903b30b634b2103132b732b330b1ba37b960511b604482015260640161049d565b3360009081526020819052604090206005015460ff1615611a6157604051339081907f439c5aaf7691cb4808dbd2a240323ce9ec0d04d66ddf65ffd5f88ebd60fa745b90600090a3565b3360008181526020819052604090819020600501805460ff191660011790555181907f9baa855d20de9b1a4db454f55b09d1db5f42f0871bbea3b0c699146ade17162590611ab29042815260200190565b60405180910390a3565b828054828255906000526020600020908101928215611b02579160200282015b82811115611b025782518290611af29082611ff0565b5091602001919060010190611adc565b50611b0e929150611b6a565b5090565b5080546000825590600052602060002090810190610e9e9190611b6a565b508054611b3c90611f67565b6000825580601f10611b4c575050565b601f016020900490600052602060002090810190610e9e9190611b87565b80821115611b0e576000611b7e8282611b30565b50600101611b6a565b5b80821115611b0e5760008155600101611b88565b80356001600160a01b0381168114611bb357600080fd5b919050565b600060208284031215611bca57600080fd5b61039e82611b9c565b60008060408385031215611be657600080fd5b611bef83611b9c565b9150611bfd60208401611b9c565b90509250929050565b600081518084526020808501945080840160005b83811015611c3f5781516001600160a01b031687529582019590820190600101611c1a565b509495945050505050565b8315158152606060208201526000611c656060830185611c06565b9050826040830152949350505050565b634e487b7160e01b600052604160045260246000fd5b600082601f830112611c9c57600080fd5b813567ffffffffffffffff80821115611cb757611cb7611c75565b604051601f8301601f19908116603f01168101908282118183101715611cdf57611cdf611c75565b81604052838152866020858801011115611cf857600080fd5b836020870160208301376000602085830101528094505050505092915050565b600080600060608486031215611d2d57600080fd5b611d3684611b9c565b9250611d4460208501611b9c565b9150604084013567ffffffffffffffff811115611d6057600080fd5b611d6c86828701611c8b565b9150509250925092565b60005b83811015611d91578181015183820152602001611d79565b50506000910152565b60008151808452611db2816020860160208601611d76565b601f01601f19169290920160200192915050565b604081526000611dd96040830185611c06565b602083820381850152818551808452828401915060058382821b8601018489016000805b85811015611e6a57601f198985038101885283518051808752908a01908a87019080891b88018c01865b82811015611e5357858a8303018452611e41828651611d9a565b948e0194938e01939150600101611e27565b509a8c019a97505050938901935050600101611dfd565b50919b9a5050505050505050505050565b60008060408385031215611e8e57600080fd5b611e9783611b9c565b9150602083013567ffffffffffffffff811115611eb357600080fd5b611ebf85828601611c8b565b9150509250929050565b60208152600061039e6020830184611d9a565b6000602080830181845280855180835260408601915060408160051b870101925083870160005b82811015611f3157603f19888603018452611f1f858351611d9a565b94509285019290850190600101611f03565b5092979650505050505050565b634e487b7160e01b600052601160045260246000fd5b818103818111156104f5576104f5611f3e565b600181811c90821680611f7b57607f821691505b602082108103611f9b57634e487b7160e01b600052602260045260246000fd5b50919050565b601f821115611feb57600081815260208120601f850160051c81016020861015611fc85750805b601f850160051c820191505b81811015611fe757828155600101611fd4565b5050505b505050565b815167ffffffffffffffff81111561200a5761200a611c75565b61201e816120188454611f67565b84611fa1565b602080601f831160018114612053576000841561203b5750858301515b600019600386901b1c1916600185901b178555611fe7565b600085815260208120601f198616915b8281101561208257888601518255948401946001909101908401612063565b50858210156120a05787850151600019600388901b60f8161c191681555b5050505050600190811b01905550565b634e487b7160e01b600052603260045260246000fd5b6000600182016120d8576120d8611f3e565b5060010190565b600082516120f1818460208701611d76565b9190910192915050565b600080835461210981611f67565b60018281168015612121576001811461213657612165565b60ff1984168752821515830287019450612165565b8760005260208060002060005b8581101561215c5781548a820152908401908201612143565b50505082870194505b50929695505050505050565b81810361217c575050565b6121868254611f67565b67ffffffffffffffff81111561219e5761219e611c75565b6121ac816120188454611f67565b6000601f8211600181146121e057600083156121c85750848201545b600019600385901b1c1916600184901b178455612245565b600085815260209020601f19841690600086815260209020845b8381101561221a57828601548255600195860195909101906020016121fa565b50858310156122385781850154600019600388901b60f8161c191681555b50505060018360011b0184555b5050505050565b634e487b7160e01b600052603160045260246000fdfea26469706673582212207ac5b69def1c033704db4fc84b7731c2bf653bfe90f85e6d36b53e522e2432ee64736f6c63430008110033",
      "opcodes": "PUSH1 0x80 PUSH1 0x40 MSTORE CALLVALUE DUP1 ISZERO PUSH2 0x10 JUMPI PUSH1 0x0 DUP1 REVERT JUMPDEST POP PUSH2 0x2298 DUP1 PUSH2 0x20 PUSH1 0x0 CODECOPY PUSH1 0x0 RETURN INVALID PUSH1 0x80 PUSH1 0x40 MSTORE CALLVALUE DUP1 ISZERO PUSH2 0x10 JUMPI PUSH1 0x0 DUP1 REVERT JUMPDEST POP PUSH1 0x4 CALLDATASIZE LT PUSH2 0x151 JUMPI PUSH1 0x0 CALLDATALOAD PUSH1 0xE0 SHR DUP1 PUSH4 0x5926651D GT PUSH2 0xCD JUMPI DUP1 PUSH4 0xA98D22BC GT PUSH2 0x81 JUMPI DUP1 PUSH4 0xD51C3199 GT PUSH2 0x66 JUMPI DUP1 PUSH4 0xD51C3199 EQ PUSH2 0x2DC JUMPI DUP1 PUSH4 0xDF78BC54 EQ PUSH2 0x2EF JUMPI DUP1 PUSH4 0xF892CB36 EQ PUSH2 0x30F JUMPI PUSH1 0x0 DUP1 REVERT JUMPDEST DUP1 PUSH4 0xA98D22BC EQ PUSH2 0x299 JUMPI DUP1 PUSH4 0xCD9C9362 EQ PUSH2 0x2D4 JUMPI PUSH1 0x0 DUP1 REVERT JUMPDEST DUP1 PUSH4 0x87C63714 GT PUSH2 0xB2 JUMPI DUP1 PUSH4 0x87C63714 EQ PUSH2 0x253 JUMPI DUP1 PUSH4 0x87CE1CA8 EQ PUSH2 0x266 JUMPI DUP1 PUSH4 0x8D5492E4 EQ PUSH2 0x286 JUMPI PUSH1 0x0 DUP1 REVERT JUMPDEST DUP1 PUSH4 0x5926651D EQ PUSH2 0x22D JUMPI DUP1 PUSH4 0x59633A1C EQ PUSH2 0x240 JUMPI PUSH1 0x0 DUP1 REVERT JUMPDEST DUP1 PUSH4 0x196BA7EF GT PUSH2 0x124 JUMPI DUP1 PUSH4 0x3DEA2F84 GT PUSH2 0x109 JUMPI DUP1 PUSH4 0x3DEA2F84 EQ PUSH2 0x1F1 JUMPI DUP1 PUSH4 0x4FE0D081 EQ PUSH2 0x204 JUMPI DUP1 PUSH4 0x5211287E EQ PUSH2 0x21A JUMPI PUSH1 0x0 DUP1 REVERT JUMPDEST DUP1 PUSH4 0x196BA7EF EQ PUSH2 0x1C5 JUMPI DUP1 PUSH4 0x38266B22 EQ PUSH2 0x1CF JUMPI PUSH1 0x0 DUP1 REVERT JUMPDEST DUP1 PUSH4 0x1E2B33F EQ PUSH2 0x156 JUMPI DUP1 PUSH4 0x72039A2 EQ PUSH2 0x17C JUMPI DUP1 PUSH4 0x7A8B767 EQ PUSH2 0x19F JUMPI DUP1 PUSH4 0x96E27D9 EQ PUSH2 0x1B2 JUMPI JUMPDEST PUSH1 0x0 DUP1 REVERT JUMPDEST PUSH2 0x169 PUSH2 0x164 CALLDATASIZE PUSH1 0x4 PUSH2 0x1BB8 JUMP JUMPDEST PUSH2 0x322 JUMP JUMPDEST PUSH1 0x40 MLOAD SWAP1 DUP2 MSTORE PUSH1 0x20 ADD JUMPDEST PUSH1 0x40 MLOAD DUP1 SWAP2 SUB SWAP1 RETURN JUMPDEST PUSH2 0x18F PUSH2 0x18A CALLDATASIZE PUSH1 0x4 PUSH2 0x1BB8 JUMP JUMPDEST PUSH2 0x3A5 JUMP JUMPDEST PUSH1 0x40 MLOAD SWAP1 ISZERO ISZERO DUP2 MSTORE PUSH1 0x20 ADD PUSH2 0x173 JUMP JUMPDEST PUSH2 0x18F PUSH2 0x1AD CALLDATASIZE PUSH1 0x4 PUSH2 0x1BB8 JUMP JUMPDEST PUSH2 0x439 JUMP JUMPDEST PUSH2 0x18F PUSH2 0x1C0 CALLDATASIZE PUSH1 0x4 PUSH2 0x1BD3 JUMP JUMPDEST PUSH2 0x4C9 JUMP JUMPDEST PUSH2 0x1CD PUSH2 0x4FB JUMP JUMPDEST STOP JUMPDEST PUSH2 0x1E2 PUSH2 0x1DD CALLDATASIZE PUSH1 0x4 PUSH2 0x1BB8 JUMP JUMPDEST PUSH2 0x597 JUMP JUMPDEST PUSH1 0x40 MLOAD PUSH2 0x173 SWAP4 SWAP3 SWAP2 SWAP1 PUSH2 0x1C4A JUMP JUMPDEST PUSH2 0x1CD PUSH2 0x1FF CALLDATASIZE PUSH1 0x4 PUSH2 0x1D18 JUMP JUMPDEST PUSH2 0x6C2 JUMP JUMPDEST PUSH2 0x20C PUSH2 0x79D JUMP JUMPDEST PUSH1 0x40 MLOAD PUSH2 0x173 SWAP3 SWAP2 SWAP1 PUSH2 0x1DC6 JUMP JUMPDEST PUSH2 0x1CD PUSH2 0x228 CALLDATASIZE PUSH1 0x4 PUSH2 0x1E7B JUMP JUMPDEST PUSH2 0xA4F JUMP JUMPDEST PUSH2 0x1CD PUSH2 0x23B CALLDATASIZE PUSH1 0x4 PUSH2 0x1BB8 JUMP JUMPDEST PUSH2 0xCBB JUMP JUMPDEST PUSH2 0x1CD PUSH2 0x24E CALLDATASIZE PUSH1 0x4 PUSH2 0x1BB8 JUMP JUMPDEST PUSH2 0xEA1 JUMP JUMPDEST PUSH2 0x1CD PUSH2 0x261 CALLDATASIZE PUSH1 0x4 PUSH2 0x1E7B JUMP JUMPDEST PUSH2 0xFFD JUMP JUMPDEST PUSH2 0x279 PUSH2 0x274 CALLDATASIZE PUSH1 0x4 PUSH2 0x1BD3 JUMP JUMPDEST PUSH2 0x129F JUMP JUMPDEST PUSH1 0x40 MLOAD PUSH2 0x173 SWAP2 SWAP1 PUSH2 0x1EC9 JUMP JUMPDEST PUSH2 0x1CD PUSH2 0x294 CALLDATASIZE PUSH1 0x4 PUSH2 0x1BB8 JUMP JUMPDEST PUSH2 0x137F JUMP JUMPDEST PUSH2 0x1CD PUSH2 0x2A7 CALLDATASIZE PUSH1 0x4 PUSH2 0x1BB8 JUMP JUMPDEST PUSH1 0x1 PUSH1 0x1 PUSH1 0xA0 SHL SUB AND PUSH1 0x0 SWAP1 DUP2 MSTORE PUSH1 0x20 DUP2 SWAP1 MSTORE PUSH1 0x40 SWAP1 KECCAK256 DUP1 SLOAD PUSH1 0xFF NOT AND DUP2 SSTORE PUSH1 0x5 ADD DUP1 SLOAD PUSH2 0xFF00 NOT AND SWAP1 SSTORE JUMP JUMPDEST PUSH2 0x1CD PUSH2 0x14B5 JUMP JUMPDEST PUSH2 0x1CD PUSH2 0x2EA CALLDATASIZE PUSH1 0x4 PUSH2 0x1D18 JUMP JUMPDEST PUSH2 0x16E6 JUMP JUMPDEST PUSH2 0x302 PUSH2 0x2FD CALLDATASIZE PUSH1 0x4 PUSH2 0x1BD3 JUMP JUMPDEST PUSH2 0x17B4 JUMP JUMPDEST PUSH1 0x40 MLOAD PUSH2 0x173 SWAP2 SWAP1 PUSH2 0x1EDC JUMP JUMPDEST PUSH2 0x279 PUSH2 0x31D CALLDATASIZE PUSH1 0x4 PUSH2 0x1BD3 JUMP JUMPDEST PUSH2 0x1956 JUMP JUMPDEST PUSH1 0x1 PUSH1 0x1 PUSH1 0xA0 SHL SUB DUP2 AND PUSH1 0x0 SWAP1 DUP2 MSTORE PUSH1 0x20 DUP2 SWAP1 MSTORE PUSH1 0x40 DUP2 KECCAK256 PUSH1 0x4 ADD SLOAD DUP2 SWAP1 PUSH2 0x34A SWAP1 TIMESTAMP PUSH2 0x1F54 JUMP JUMPDEST PUSH1 0x1 PUSH1 0x1 PUSH1 0xA0 SHL SUB DUP5 AND PUSH1 0x0 SWAP1 DUP2 MSTORE PUSH1 0x20 DUP2 SWAP1 MSTORE PUSH1 0x40 SWAP1 KECCAK256 PUSH1 0x3 ADD SLOAD SWAP1 SWAP2 POP DUP2 GT PUSH2 0x39B JUMPI PUSH1 0x1 PUSH1 0x1 PUSH1 0xA0 SHL SUB DUP4 AND PUSH1 0x0 SWAP1 DUP2 MSTORE PUSH1 0x20 DUP2 SWAP1 MSTORE PUSH1 0x40 SWAP1 KECCAK256 PUSH1 0x3 ADD SLOAD PUSH2 0x396 SWAP1 DUP3 SWAP1 PUSH2 0x1F54 JUMP JUMPDEST PUSH2 0x39E JUMP JUMPDEST PUSH1 0x0 JUMPDEST SWAP4 SWAP3 POP POP POP JUMP JUMPDEST PUSH1 0x0 PUSH2 0x3B0 DUP3 PUSH2 0x439 JUMP JUMPDEST ISZERO PUSH2 0x412 JUMPI PUSH1 0x1 PUSH1 0x1 PUSH1 0xA0 SHL SUB DUP3 AND PUSH1 0x0 SWAP1 DUP2 MSTORE PUSH1 0x20 DUP2 SWAP1 MSTORE PUSH1 0x40 SWAP1 KECCAK256 PUSH1 0x4 ADD SLOAD ISZERO PUSH2 0x412 JUMPI PUSH1 0x0 PUSH2 0x3E1 DUP4 PUSH2 0x322 JUMP JUMPDEST SWAP1 POP PUSH1 0x0 DUP2 GT PUSH2 0x410 JUMPI PUSH1 0x1 PUSH1 0x1 PUSH1 0xA0 SHL SUB DUP4 AND PUSH1 0x0 SWAP1 DUP2 MSTORE PUSH1 0x20 DUP2 SWAP1 MSTORE PUSH1 0x40 SWAP1 KECCAK256 PUSH1 0x5 ADD DUP1 SLOAD PUSH2 0xFF00 NOT AND SWAP1 SSTORE JUMPDEST POP JUMPDEST POP PUSH1 0x1 PUSH1 0x1 PUSH1 0xA0 SHL SUB AND PUSH1 0x0 SWAP1 DUP2 MSTORE PUSH1 0x20 DUP2 SWAP1 MSTORE PUSH1 0x40 SWAP1 KECCAK256 PUSH1 0x5 ADD SLOAD PUSH2 0x100 SWAP1 DIV PUSH1 0xFF AND SWAP1 JUMP JUMPDEST PUSH1 0x1 PUSH1 0x1 PUSH1 0xA0 SHL SUB DUP2 AND PUSH1 0x0 SWAP1 DUP2 MSTORE PUSH1 0x20 DUP2 SWAP1 MSTORE PUSH1 0x40 DUP2 KECCAK256 SLOAD PUSH1 0xFF AND PUSH2 0x4A6 JUMPI PUSH1 0x40 MLOAD PUSH3 0x461BCD PUSH1 0xE5 SHL DUP2 MSTORE PUSH1 0x20 PUSH1 0x4 DUP3 ADD MSTORE PUSH1 0x19 PUSH1 0x24 DUP3 ADD MSTORE PUSH32 0x42656E65666163746F7220646F6573206E6F7420657869737400000000000000 PUSH1 0x44 DUP3 ADD MSTORE PUSH1 0x64 ADD JUMPDEST PUSH1 0x40 MLOAD DUP1 SWAP2 SUB SWAP1 REVERT JUMPDEST POP PUSH1 0x1 PUSH1 0x1 PUSH1 0xA0 SHL SUB AND PUSH1 0x0 SWAP1 DUP2 MSTORE PUSH1 0x20 DUP2 SWAP1 MSTORE PUSH1 0x40 SWAP1 KECCAK256 PUSH1 0x5 ADD SLOAD PUSH1 0xFF AND ISZERO SWAP1 JUMP JUMPDEST PUSH1 0x1 PUSH1 0x1 PUSH1 0xA0 SHL SUB DUP1 DUP4 AND PUSH1 0x0 SWAP1 DUP2 MSTORE PUSH1 0x20 DUP2 DUP2 MSTORE PUSH1 0x40 DUP1 DUP4 KECCAK256 SWAP4 DUP6 AND DUP4 MSTORE PUSH1 0x1 SWAP1 SWAP4 ADD SWAP1 MSTORE KECCAK256 SLOAD PUSH1 0xFF AND JUMPDEST SWAP3 SWAP2 POP POP JUMP JUMPDEST CALLER PUSH1 0x0 SWAP1 DUP2 MSTORE PUSH1 0x20 DUP2 SWAP1 MSTORE PUSH1 0x40 SWAP1 KECCAK256 SLOAD PUSH1 0xFF AND ISZERO PUSH2 0x55B JUMPI PUSH1 0x40 MLOAD PUSH3 0x461BCD PUSH1 0xE5 SHL DUP2 MSTORE PUSH1 0x20 PUSH1 0x4 DUP3 ADD MSTORE PUSH1 0x19 PUSH1 0x24 DUP3 ADD MSTORE PUSH32 0x62656E65666163746F7220616C72656164792065786973747300000000000000 PUSH1 0x44 DUP3 ADD MSTORE PUSH1 0x64 ADD PUSH2 0x49D JUMP JUMPDEST CALLER PUSH1 0x0 SWAP1 DUP2 MSTORE PUSH1 0x20 DUP2 SWAP1 MSTORE PUSH1 0x40 DUP2 KECCAK256 DUP1 SLOAD PUSH1 0xFF NOT AND PUSH1 0x1 OR DUP2 SSTORE PUSH3 0x93A80 PUSH1 0x3 DUP3 ADD SSTORE PUSH1 0x5 DUP2 ADD DUP1 SLOAD PUSH2 0x101 PUSH2 0xFFFF NOT SWAP1 SWAP2 AND OR SWAP1 SSTORE PUSH1 0x4 ADD SSTORE JUMP JUMPDEST PUSH1 0x1 PUSH1 0x1 PUSH1 0xA0 SHL SUB DUP2 AND PUSH1 0x0 SWAP1 DUP2 MSTORE PUSH1 0x20 DUP2 SWAP1 MSTORE PUSH1 0x40 DUP2 KECCAK256 SLOAD PUSH1 0x60 SWAP1 DUP3 SWAP1 PUSH1 0xFF AND PUSH2 0x604 JUMPI PUSH1 0x40 MLOAD PUSH3 0x461BCD PUSH1 0xE5 SHL DUP2 MSTORE PUSH1 0x20 PUSH1 0x4 DUP3 ADD MSTORE PUSH1 0x19 PUSH1 0x24 DUP3 ADD MSTORE PUSH32 0x42656E65666163746F7220646F6573206E6F7420657869737400000000000000 PUSH1 0x44 DUP3 ADD MSTORE PUSH1 0x64 ADD PUSH2 0x49D JUMP JUMPDEST PUSH1 0x1 PUSH1 0x1 PUSH1 0xA0 SHL SUB DUP5 AND PUSH1 0x0 SWAP1 DUP2 MSTORE PUSH1 0x20 DUP2 DUP2 MSTORE PUSH1 0x40 SWAP2 DUP3 SWAP1 KECCAK256 PUSH1 0x5 DUP2 ADD SLOAD PUSH1 0x2 SWAP1 SWAP2 ADD DUP1 SLOAD DUP5 MLOAD DUP2 DUP6 MUL DUP2 ADD DUP6 ADD SWAP1 SWAP6 MSTORE DUP1 DUP6 MSTORE PUSH1 0xFF SWAP1 SWAP3 AND ISZERO SWAP7 POP SWAP2 DUP4 ADD DUP3 DUP3 DUP1 ISZERO PUSH2 0x67B JUMPI PUSH1 0x20 MUL DUP3 ADD SWAP2 SWAP1 PUSH1 0x0 MSTORE PUSH1 0x20 PUSH1 0x0 KECCAK256 SWAP1 JUMPDEST DUP2 SLOAD PUSH1 0x1 PUSH1 0x1 PUSH1 0xA0 SHL SUB AND DUP2 MSTORE PUSH1 0x1 SWAP1 SWAP2 ADD SWAP1 PUSH1 0x20 ADD DUP1 DUP4 GT PUSH2 0x65D JUMPI JUMPDEST POP POP POP PUSH1 0x1 PUSH1 0x1 PUSH1 0xA0 SHL SUB DUP8 AND PUSH1 0x0 SWAP1 DUP2 MSTORE PUSH1 0x20 DUP2 SWAP1 MSTORE PUSH1 0x40 SWAP1 KECCAK256 PUSH1 0x5 ADD SLOAD SWAP3 SWAP5 POP POP POP PUSH1 0xFF AND ISZERO PUSH2 0x6AF JUMPI POP PUSH1 0x0 PUSH2 0x6BB JUMP JUMPDEST PUSH2 0x6B8 DUP5 PUSH2 0x322 JUMP JUMPDEST SWAP1 POP JUMPDEST SWAP2 SWAP4 SWAP1 SWAP3 POP JUMP JUMPDEST PUSH2 0x6CC DUP4 DUP4 PUSH2 0x4C9 JUMP JUMPDEST PUSH2 0x718 JUMPI PUSH1 0x40 MLOAD PUSH3 0x461BCD PUSH1 0xE5 SHL DUP2 MSTORE PUSH1 0x20 PUSH1 0x4 DUP3 ADD DUP2 SWAP1 MSTORE PUSH1 0x24 DUP3 ADD MSTORE PUSH32 0x42656E65666963696172792F42656E65666163746F72206E6F7420666F756E64 PUSH1 0x44 DUP3 ADD MSTORE PUSH1 0x64 ADD PUSH2 0x49D JUMP JUMPDEST PUSH1 0x1 PUSH1 0x1 PUSH1 0xA0 SHL SUB DUP1 DUP5 AND PUSH1 0x0 SWAP1 DUP2 MSTORE PUSH1 0x20 DUP2 DUP2 MSTORE PUSH1 0x40 DUP1 DUP4 KECCAK256 SWAP4 DUP7 AND DUP4 MSTORE PUSH1 0x1 SWAP1 SWAP4 ADD SWAP1 MSTORE KECCAK256 PUSH1 0x3 ADD PUSH2 0x74C DUP3 DUP3 PUSH2 0x1FF0 JUMP JUMPDEST POP DUP2 PUSH1 0x1 PUSH1 0x1 PUSH1 0xA0 SHL SUB AND DUP4 PUSH1 0x1 PUSH1 0x1 PUSH1 0xA0 SHL SUB AND PUSH32 0x69CCEA10852AC51B01745414774B5AF302217E774786D2068296650B57BA03F2 DUP4 PUSH1 0x40 MLOAD PUSH2 0x790 SWAP2 SWAP1 PUSH2 0x1EC9 JUMP JUMPDEST PUSH1 0x40 MLOAD DUP1 SWAP2 SUB SWAP1 LOG3 POP POP POP JUMP JUMPDEST CALLER PUSH1 0x0 SWAP1 DUP2 MSTORE PUSH1 0x20 DUP2 SWAP1 MSTORE PUSH1 0x40 SWAP1 KECCAK256 SLOAD PUSH1 0x60 SWAP1 DUP2 SWAP1 PUSH1 0xFF AND PUSH2 0x801 JUMPI PUSH1 0x40 MLOAD PUSH3 0x461BCD PUSH1 0xE5 SHL DUP2 MSTORE PUSH1 0x20 PUSH1 0x4 DUP3 ADD MSTORE PUSH1 0x11 PUSH1 0x24 DUP3 ADD MSTORE PUSH32 0x4E6F2061636365737320746F2043494473000000000000000000000000000000 PUSH1 0x44 DUP3 ADD MSTORE PUSH1 0x64 ADD PUSH2 0x49D JUMP JUMPDEST CALLER PUSH1 0x0 SWAP1 DUP2 MSTORE PUSH1 0x20 DUP2 SWAP1 MSTORE PUSH1 0x40 DUP2 KECCAK256 PUSH1 0x2 ADD SLOAD SWAP1 DUP2 PUSH8 0xFFFFFFFFFFFFFFFF DUP2 GT ISZERO PUSH2 0x82E JUMPI PUSH2 0x82E PUSH2 0x1C75 JUMP JUMPDEST PUSH1 0x40 MLOAD SWAP1 DUP1 DUP3 MSTORE DUP1 PUSH1 0x20 MUL PUSH1 0x20 ADD DUP3 ADD PUSH1 0x40 MSTORE DUP1 ISZERO PUSH2 0x857 JUMPI DUP2 PUSH1 0x20 ADD PUSH1 0x20 DUP3 MUL DUP1 CALLDATASIZE DUP4 CALLDATACOPY ADD SWAP1 POP JUMPDEST POP SWAP1 POP PUSH1 0x0 DUP3 PUSH8 0xFFFFFFFFFFFFFFFF DUP2 GT ISZERO PUSH2 0x875 JUMPI PUSH2 0x875 PUSH2 0x1C75 JUMP JUMPDEST PUSH1 0x40 MLOAD SWAP1 DUP1 DUP3 MSTORE DUP1 PUSH1 0x20 MUL PUSH1 0x20 ADD DUP3 ADD PUSH1 0x40 MSTORE DUP1 ISZERO PUSH2 0x8A8 JUMPI DUP2 PUSH1 0x20 ADD JUMPDEST PUSH1 0x60 DUP2 MSTORE PUSH1 0x20 ADD SWAP1 PUSH1 0x1 SWAP1 SUB SWAP1 DUP2 PUSH2 0x893 JUMPI SWAP1 POP JUMPDEST POP SWAP1 POP PUSH1 0x0 JUMPDEST DUP4 DUP2 LT ISZERO PUSH2 0xA44 JUMPI CALLER PUSH1 0x0 SWAP1 DUP2 MSTORE PUSH1 0x20 DUP2 SWAP1 MSTORE PUSH1 0x40 DUP2 KECCAK256 PUSH1 0x2 ADD DUP1 SLOAD DUP4 SWAP1 DUP2 LT PUSH2 0x8DA JUMPI PUSH2 0x8DA PUSH2 0x20B0 JUMP JUMPDEST PUSH1 0x0 SWAP2 DUP3 MSTORE PUSH1 0x20 DUP1 DUP4 KECCAK256 SWAP1 SWAP2 ADD SLOAD CALLER DUP4 MSTORE DUP3 DUP3 MSTORE PUSH1 0x40 DUP1 DUP5 KECCAK256 PUSH1 0x1 PUSH1 0x1 PUSH1 0xA0 SHL SUB SWAP1 SWAP3 AND DUP1 DUP6 MSTORE PUSH1 0x1 SWAP3 DUP4 ADD DUP5 MSTORE DUP2 DUP6 KECCAK256 SWAP1 SWAP3 ADD DUP1 SLOAD DUP3 MLOAD DUP2 DUP7 MUL DUP2 ADD DUP7 ADD SWAP1 SWAP4 MSTORE DUP1 DUP4 MSTORE SWAP3 SWAP6 POP SWAP1 SWAP3 SWAP1 SWAP2 SWAP1 DUP5 SWAP1 DUP5 ADD JUMPDEST DUP3 DUP3 LT ISZERO PUSH2 0x9D8 JUMPI DUP4 DUP3 SWAP1 PUSH1 0x0 MSTORE PUSH1 0x20 PUSH1 0x0 KECCAK256 ADD DUP1 SLOAD PUSH2 0x94B SWAP1 PUSH2 0x1F67 JUMP JUMPDEST DUP1 PUSH1 0x1F ADD PUSH1 0x20 DUP1 SWAP2 DIV MUL PUSH1 0x20 ADD PUSH1 0x40 MLOAD SWAP1 DUP2 ADD PUSH1 0x40 MSTORE DUP1 SWAP3 SWAP2 SWAP1 DUP2 DUP2 MSTORE PUSH1 0x20 ADD DUP3 DUP1 SLOAD PUSH2 0x977 SWAP1 PUSH2 0x1F67 JUMP JUMPDEST DUP1 ISZERO PUSH2 0x9C4 JUMPI DUP1 PUSH1 0x1F LT PUSH2 0x999 JUMPI PUSH2 0x100 DUP1 DUP4 SLOAD DIV MUL DUP4 MSTORE SWAP2 PUSH1 0x20 ADD SWAP2 PUSH2 0x9C4 JUMP JUMPDEST DUP3 ADD SWAP2 SWAP1 PUSH1 0x0 MSTORE PUSH1 0x20 PUSH1 0x0 KECCAK256 SWAP1 JUMPDEST DUP2 SLOAD DUP2 MSTORE SWAP1 PUSH1 0x1 ADD SWAP1 PUSH1 0x20 ADD DUP1 DUP4 GT PUSH2 0x9A7 JUMPI DUP3 SWAP1 SUB PUSH1 0x1F AND DUP3 ADD SWAP2 JUMPDEST POP POP POP POP POP DUP2 MSTORE PUSH1 0x20 ADD SWAP1 PUSH1 0x1 ADD SWAP1 PUSH2 0x92C JUMP JUMPDEST POP POP POP POP SWAP1 POP DUP2 DUP6 DUP5 DUP2 MLOAD DUP2 LT PUSH2 0x9F1 JUMPI PUSH2 0x9F1 PUSH2 0x20B0 JUMP JUMPDEST PUSH1 0x20 MUL PUSH1 0x20 ADD ADD SWAP1 PUSH1 0x1 PUSH1 0x1 PUSH1 0xA0 SHL SUB AND SWAP1 DUP2 PUSH1 0x1 PUSH1 0x1 PUSH1 0xA0 SHL SUB AND DUP2 MSTORE POP POP DUP1 DUP5 DUP5 DUP2 MLOAD DUP2 LT PUSH2 0xA24 JUMPI PUSH2 0xA24 PUSH2 0x20B0 JUMP JUMPDEST PUSH1 0x20 MUL PUSH1 0x20 ADD ADD DUP2 SWAP1 MSTORE POP POP POP DUP1 DUP1 PUSH2 0xA3C SWAP1 PUSH2 0x20C6 JUMP JUMPDEST SWAP2 POP POP PUSH2 0x8AE JUMP JUMPDEST POP SWAP1 SWAP5 SWAP1 SWAP4 POP SWAP2 POP POP JUMP JUMPDEST CALLER PUSH1 0x0 SWAP1 DUP2 MSTORE PUSH1 0x20 DUP2 SWAP1 MSTORE PUSH1 0x40 SWAP1 KECCAK256 SLOAD PUSH1 0xFF AND DUP1 ISZERO PUSH2 0xA85 JUMPI POP CALLER PUSH1 0x0 SWAP1 DUP2 MSTORE PUSH1 0x20 DUP2 SWAP1 MSTORE PUSH1 0x40 SWAP1 KECCAK256 PUSH1 0x5 ADD SLOAD PUSH2 0x100 SWAP1 DIV PUSH1 0xFF AND JUMPDEST PUSH2 0xACA JUMPI PUSH1 0x40 MLOAD PUSH3 0x461BCD PUSH1 0xE5 SHL DUP2 MSTORE PUSH1 0x20 PUSH1 0x4 DUP3 ADD MSTORE PUSH1 0x16 PUSH1 0x24 DUP3 ADD MSTORE PUSH22 0x2737BA1030903B30B634B2103132B732B330B1BA37B9 PUSH1 0x51 SHL PUSH1 0x44 DUP3 ADD MSTORE PUSH1 0x64 ADD PUSH2 0x49D JUMP JUMPDEST PUSH2 0xAD4 CALLER DUP4 PUSH2 0x4C9 JUMP JUMPDEST PUSH2 0xB18 JUMPI PUSH1 0x40 MLOAD PUSH3 0x461BCD PUSH1 0xE5 SHL DUP2 MSTORE PUSH1 0x20 PUSH1 0x4 DUP3 ADD MSTORE PUSH1 0x15 PUSH1 0x24 DUP3 ADD MSTORE PUSH21 0x10995B99599A58DA585C9E481B9BDD08199BDD5B99 PUSH1 0x5A SHL PUSH1 0x44 DUP3 ADD MSTORE PUSH1 0x64 ADD PUSH2 0x49D JUMP JUMPDEST CALLER PUSH1 0x0 SWAP1 DUP2 MSTORE PUSH1 0x20 DUP2 DUP2 MSTORE PUSH1 0x40 DUP1 DUP4 KECCAK256 PUSH1 0x1 PUSH1 0x1 PUSH1 0xA0 SHL SUB DUP7 AND DUP5 MSTORE PUSH1 0x1 SWAP1 DUP2 ADD SWAP1 SWAP3 MSTORE DUP3 KECCAK256 ADD SWAP1 JUMPDEST DUP2 SLOAD DUP2 LT ISZERO PUSH2 0xC38 JUMPI DUP3 PUSH1 0x40 MLOAD PUSH1 0x20 ADD PUSH2 0xB5B SWAP2 SWAP1 PUSH2 0x20DF JUMP JUMPDEST PUSH1 0x40 MLOAD PUSH1 0x20 DUP2 DUP4 SUB SUB DUP2 MSTORE SWAP1 PUSH1 0x40 MSTORE DUP1 MLOAD SWAP1 PUSH1 0x20 ADD KECCAK256 DUP3 DUP3 DUP2 SLOAD DUP2 LT PUSH2 0xB83 JUMPI PUSH2 0xB83 PUSH2 0x20B0 JUMP JUMPDEST SWAP1 PUSH1 0x0 MSTORE PUSH1 0x20 PUSH1 0x0 KECCAK256 ADD PUSH1 0x40 MLOAD PUSH1 0x20 ADD PUSH2 0xB9D SWAP2 SWAP1 PUSH2 0x20FB JUMP JUMPDEST PUSH1 0x40 MLOAD PUSH1 0x20 DUP2 DUP4 SUB SUB DUP2 MSTORE SWAP1 PUSH1 0x40 MSTORE DUP1 MLOAD SWAP1 PUSH1 0x20 ADD KECCAK256 SUB PUSH2 0xC26 JUMPI PUSH1 0x40 MLOAD PUSH3 0x461BCD PUSH1 0xE5 SHL DUP2 MSTORE PUSH1 0x20 PUSH1 0x4 DUP3 ADD MSTORE PUSH1 0x28 PUSH1 0x24 DUP3 ADD MSTORE PUSH32 0x43494420616C72656164792061737369676E656420746F20746869732062656E PUSH1 0x44 DUP3 ADD MSTORE PUSH32 0x6566696369617279000000000000000000000000000000000000000000000000 PUSH1 0x64 DUP3 ADD MSTORE PUSH1 0x84 ADD PUSH2 0x49D JUMP JUMPDEST DUP1 PUSH2 0xC30 DUP2 PUSH2 0x20C6 JUMP JUMPDEST SWAP2 POP POP PUSH2 0xB41 JUMP JUMPDEST POP CALLER PUSH1 0x0 SWAP1 DUP2 MSTORE PUSH1 0x20 DUP2 DUP2 MSTORE PUSH1 0x40 DUP1 DUP4 KECCAK256 PUSH1 0x1 PUSH1 0x1 PUSH1 0xA0 SHL SUB DUP8 AND DUP5 MSTORE PUSH1 0x1 SWAP1 DUP2 ADD DUP4 MSTORE SWAP1 DUP4 KECCAK256 DUP2 ADD DUP1 SLOAD SWAP2 DUP3 ADD DUP2 SSTORE DUP4 MSTORE SWAP2 KECCAK256 ADD PUSH2 0xC77 DUP4 DUP3 PUSH2 0x1FF0 JUMP JUMPDEST POP DUP3 PUSH1 0x1 PUSH1 0x1 PUSH1 0xA0 SHL SUB AND CALLER PUSH1 0x1 PUSH1 0x1 PUSH1 0xA0 SHL SUB AND PUSH32 0xA1BB52B874769D5C17CDE30E708E8F7180BB949F70E77CAF0DA68D25F9A1A510 DUP5 PUSH1 0x40 MLOAD PUSH2 0x790 SWAP2 SWAP1 PUSH2 0x1EC9 JUMP JUMPDEST CALLER PUSH1 0x0 SWAP1 DUP2 MSTORE PUSH1 0x20 DUP2 SWAP1 MSTORE PUSH1 0x40 SWAP1 KECCAK256 SLOAD PUSH1 0xFF AND DUP1 ISZERO PUSH2 0xCF1 JUMPI POP CALLER PUSH1 0x0 SWAP1 DUP2 MSTORE PUSH1 0x20 DUP2 SWAP1 MSTORE PUSH1 0x40 SWAP1 KECCAK256 PUSH1 0x5 ADD SLOAD PUSH2 0x100 SWAP1 DIV PUSH1 0xFF AND JUMPDEST PUSH2 0xD36 JUMPI PUSH1 0x40 MLOAD PUSH3 0x461BCD PUSH1 0xE5 SHL DUP2 MSTORE PUSH1 0x20 PUSH1 0x4 DUP3 ADD MSTORE PUSH1 0x16 PUSH1 0x24 DUP3 ADD MSTORE PUSH22 0x2737BA1030903B30B634B2103132B732B330B1BA37B9 PUSH1 0x51 SHL PUSH1 0x44 DUP3 ADD MSTORE PUSH1 0x64 ADD PUSH2 0x49D JUMP JUMPDEST PUSH2 0xD40 CALLER DUP3 PUSH2 0x4C9 JUMP JUMPDEST ISZERO PUSH2 0xE9E JUMPI PUSH1 0x40 DUP1 MLOAD PUSH1 0x80 DUP2 ADD DUP3 MSTORE PUSH1 0x1 DUP2 MSTORE DUP2 MLOAD PUSH1 0x0 DUP1 DUP3 MSTORE PUSH1 0x20 DUP3 DUP2 ADD SWAP1 SWAP5 MSTORE SWAP2 SWAP3 DUP4 ADD SWAP2 PUSH2 0xD81 JUMP JUMPDEST PUSH1 0x60 DUP2 MSTORE PUSH1 0x20 ADD SWAP1 PUSH1 0x1 SWAP1 SUB SWAP1 DUP2 PUSH2 0xD6C JUMPI SWAP1 POP JUMPDEST POP DUP2 MSTORE PUSH1 0x40 DUP1 MLOAD PUSH1 0x20 DUP1 DUP3 ADD DUP4 MSTORE PUSH1 0x0 DUP1 DUP4 MSTORE DUP2 DUP6 ADD SWAP3 SWAP1 SWAP3 MSTORE DUP3 MLOAD DUP1 DUP3 ADD DUP5 MSTORE DUP3 DUP2 MSTORE SWAP4 DUP4 ADD SWAP4 SWAP1 SWAP4 MSTORE CALLER DUP2 MSTORE DUP1 DUP4 MSTORE DUP2 DUP2 KECCAK256 PUSH1 0x1 PUSH1 0x1 PUSH1 0xA0 SHL SUB DUP7 AND DUP3 MSTORE PUSH1 0x1 SWAP1 DUP2 ADD DUP5 MSTORE SWAP2 SWAP1 KECCAK256 DUP4 MLOAD DUP2 SLOAD PUSH1 0xFF NOT AND SWAP1 ISZERO ISZERO OR DUP2 SSTORE DUP4 DUP4 ADD MLOAD DUP1 MLOAD SWAP2 SWAP4 PUSH2 0xDF0 SWAP4 DUP6 ADD SWAP3 SWAP2 ADD SWAP1 PUSH2 0x1ABC JUMP JUMPDEST POP PUSH1 0x40 DUP3 ADD MLOAD PUSH1 0x2 DUP3 ADD SWAP1 PUSH2 0xE05 SWAP1 DUP3 PUSH2 0x1FF0 JUMP JUMPDEST POP PUSH1 0x60 DUP3 ADD MLOAD PUSH1 0x3 DUP3 ADD SWAP1 PUSH2 0xE1A SWAP1 DUP3 PUSH2 0x1FF0 JUMP JUMPDEST POP POP CALLER PUSH1 0x0 DUP2 DUP2 MSTORE PUSH1 0x20 DUP2 DUP2 MSTORE PUSH1 0x40 DUP1 DUP4 KECCAK256 PUSH1 0x2 ADD DUP1 SLOAD PUSH1 0x1 DUP2 ADD DUP3 SSTORE SWAP1 DUP5 MSTORE SWAP2 DUP4 KECCAK256 SWAP1 SWAP2 ADD DUP1 SLOAD PUSH32 0xFFFFFFFFFFFFFFFFFFFFFFFF0000000000000000000000000000000000000000 AND PUSH1 0x1 PUSH1 0x1 PUSH1 0xA0 SHL SUB DUP8 AND SWAP1 DUP2 OR SWAP1 SWAP2 SSTORE SWAP1 MLOAD SWAP1 SWAP4 POP PUSH32 0xBB39C36A7502B7256E1A687254146A9A2EA7B146C77CB9E40EB0E2B8793781E1 SWAP2 SWAP1 LOG3 JUMPDEST POP JUMP JUMPDEST CALLER PUSH1 0x0 SWAP1 DUP2 MSTORE PUSH1 0x20 DUP2 SWAP1 MSTORE PUSH1 0x40 SWAP1 KECCAK256 SLOAD PUSH1 0xFF AND DUP1 ISZERO PUSH2 0xED7 JUMPI POP CALLER PUSH1 0x0 SWAP1 DUP2 MSTORE PUSH1 0x20 DUP2 SWAP1 MSTORE PUSH1 0x40 SWAP1 KECCAK256 PUSH1 0x5 ADD SLOAD PUSH2 0x100 SWAP1 DIV PUSH1 0xFF AND JUMPDEST PUSH2 0xF1C JUMPI PUSH1 0x40 MLOAD PUSH3 0x461BCD PUSH1 0xE5 SHL DUP2 MSTORE PUSH1 0x20 PUSH1 0x4 DUP3 ADD MSTORE PUSH1 0x16 PUSH1 0x24 DUP3 ADD MSTORE PUSH22 0x2737BA1030903B30B634B2103132B732B330B1BA37B9 PUSH1 0x51 SHL PUSH1 0x44 DUP3 ADD MSTORE PUSH1 0x64 ADD PUSH2 0x49D JUMP JUMPDEST PUSH2 0xF26 CALLER DUP3 PUSH2 0x4C9 JUMP JUMPDEST PUSH2 0xF6A JUMPI PUSH1 0x40 MLOAD PUSH3 0x461BCD PUSH1 0xE5 SHL DUP2 MSTORE PUSH1 0x20 PUSH1 0x4 DUP3 ADD MSTORE PUSH1 0x15 PUSH1 0x24 DUP3 ADD MSTORE PUSH21 0x10995B99599A58DA585C9E481B9BDD08199BDD5B99 PUSH1 0x5A SHL PUSH1 0x44 DUP3 ADD MSTORE PUSH1 0x64 ADD PUSH2 0x49D JUMP JUMPDEST CALLER PUSH1 0x0 SWAP1 DUP2 MSTORE PUSH1 0x20 DUP2 DUP2 MSTORE PUSH1 0x40 DUP1 DUP4 KECCAK256 PUSH1 0x1 PUSH1 0x1 PUSH1 0xA0 SHL SUB DUP6 AND DUP5 MSTORE PUSH1 0x1 SWAP1 DUP2 ADD SWAP1 SWAP3 MSTORE DUP3 KECCAK256 DUP1 SLOAD PUSH1 0xFF NOT AND DUP2 SSTORE SWAP2 SWAP1 PUSH2 0xFA6 SWAP1 DUP4 ADD DUP3 PUSH2 0x1B12 JUMP JUMPDEST PUSH2 0xFB4 PUSH1 0x2 DUP4 ADD PUSH1 0x0 PUSH2 0x1B30 JUMP JUMPDEST PUSH2 0xFC2 PUSH1 0x3 DUP4 ADD PUSH1 0x0 PUSH2 0x1B30 JUMP JUMPDEST POP POP PUSH1 0x40 MLOAD PUSH1 0x1 PUSH1 0x1 PUSH1 0xA0 SHL SUB DUP3 AND SWAP1 CALLER SWAP1 PUSH32 0x1A6590BD0CABBFCC7C86BEF99E1034054E179905CFCC294598FCD426C0922442 SWAP1 PUSH1 0x0 SWAP1 LOG3 POP JUMP JUMPDEST CALLER PUSH1 0x0 SWAP1 DUP2 MSTORE PUSH1 0x20 DUP2 SWAP1 MSTORE PUSH1 0x40 SWAP1 KECCAK256 SLOAD PUSH1 0xFF AND DUP1 ISZERO PUSH2 0x1033 JUMPI POP CALLER PUSH1 0x0 SWAP1 DUP2 MSTORE PUSH1 0x20 DUP2 SWAP1 MSTORE PUSH1 0x40 SWAP1 KECCAK256 PUSH1 0x5 ADD SLOAD PUSH2 0x100 SWAP1 DIV PUSH1 0xFF AND JUMPDEST PUSH2 0x1078 JUMPI PUSH1 0x40 MLOAD PUSH3 0x461BCD PUSH1 0xE5 SHL DUP2 MSTORE PUSH1 0x20 PUSH1 0x4 DUP3 ADD MSTORE PUSH1 0x16 PUSH1 0x24 DUP3 ADD MSTORE PUSH22 0x2737BA1030903B30B634B2103132B732B330B1BA37B9 PUSH1 0x51 SHL PUSH1 0x44 DUP3 ADD MSTORE PUSH1 0x64 ADD PUSH2 0x49D JUMP JUMPDEST PUSH2 0x1082 CALLER DUP4 PUSH2 0x4C9 JUMP JUMPDEST PUSH2 0x10C6 JUMPI PUSH1 0x40 MLOAD PUSH3 0x461BCD PUSH1 0xE5 SHL DUP2 MSTORE PUSH1 0x20 PUSH1 0x4 DUP3 ADD MSTORE PUSH1 0x15 PUSH1 0x24 DUP3 ADD MSTORE PUSH21 0x10995B99599A58DA585C9E481B9BDD08199BDD5B99 PUSH1 0x5A SHL PUSH1 0x44 DUP3 ADD MSTORE PUSH1 0x64 ADD PUSH2 0x49D JUMP JUMPDEST CALLER PUSH1 0x0 SWAP1 DUP2 MSTORE PUSH1 0x20 DUP2 DUP2 MSTORE PUSH1 0x40 DUP1 DUP4 KECCAK256 PUSH1 0x1 PUSH1 0x1 PUSH1 0xA0 SHL SUB DUP7 AND DUP5 MSTORE PUSH1 0x1 SWAP1 DUP2 ADD SWAP1 SWAP3 MSTORE DUP3 KECCAK256 ADD SWAP1 JUMPDEST DUP2 SLOAD DUP2 LT ISZERO PUSH2 0x124A JUMPI DUP3 PUSH1 0x40 MLOAD PUSH1 0x20 ADD PUSH2 0x1109 SWAP2 SWAP1 PUSH2 0x20DF JUMP JUMPDEST PUSH1 0x40 MLOAD PUSH1 0x20 DUP2 DUP4 SUB SUB DUP2 MSTORE SWAP1 PUSH1 0x40 MSTORE DUP1 MLOAD SWAP1 PUSH1 0x20 ADD KECCAK256 DUP3 DUP3 DUP2 SLOAD DUP2 LT PUSH2 0x1131 JUMPI PUSH2 0x1131 PUSH2 0x20B0 JUMP JUMPDEST SWAP1 PUSH1 0x0 MSTORE PUSH1 0x20 PUSH1 0x0 KECCAK256 ADD PUSH1 0x40 MLOAD PUSH1 0x20 ADD PUSH2 0x114B SWAP2 SWAP1 PUSH2 0x20FB JUMP JUMPDEST PUSH1 0x40 MLOAD PUSH1 0x20 DUP2 DUP4 SUB SUB DUP2 MSTORE SWAP1 PUSH1 0x40 MSTORE DUP1 MLOAD SWAP1 PUSH1 0x20 ADD KECCAK256 SUB PUSH2 0x1238 JUMPI DUP2 SLOAD DUP3 SWAP1 PUSH2 0x1176 SWAP1 PUSH1 0x1 SWAP1 PUSH2 0x1F54 JUMP JUMPDEST DUP2 SLOAD DUP2 LT PUSH2 0x1186 JUMPI PUSH2 0x1186 PUSH2 0x20B0 JUMP JUMPDEST SWAP1 PUSH1 0x0 MSTORE PUSH1 0x20 PUSH1 0x0 KECCAK256 ADD DUP3 DUP3 DUP2 SLOAD DUP2 LT PUSH2 0x11A2 JUMPI PUSH2 0x11A2 PUSH2 0x20B0 JUMP JUMPDEST SWAP1 PUSH1 0x0 MSTORE PUSH1 0x20 PUSH1 0x0 KECCAK256 ADD SWAP1 DUP2 PUSH2 0x11B8 SWAP2 SWAP1 PUSH2 0x2171 JUMP JUMPDEST POP DUP2 DUP1 SLOAD DUP1 PUSH2 0x11C9 JUMPI PUSH2 0x11C9 PUSH2 0x224C JUMP JUMPDEST PUSH1 0x1 SWAP1 SUB DUP2 DUP2 SWAP1 PUSH1 0x0 MSTORE PUSH1 0x20 PUSH1 0x0 KECCAK256 ADD PUSH1 0x0 PUSH2 0x11E5 SWAP2 SWAP1 PUSH2 0x1B30 JUMP JUMPDEST SWAP1 SSTORE DUP4 PUSH1 0x1 PUSH1 0x1 PUSH1 0xA0 SHL SUB AND CALLER PUSH1 0x1 PUSH1 0x1 PUSH1 0xA0 SHL SUB AND PUSH32 0x4C13211CE3B2D0CB3E02A662CC071D6BE555042CA58D4D812B7B90E80D3250AC DUP6 PUSH1 0x40 MLOAD PUSH2 0x122A SWAP2 SWAP1 PUSH2 0x1EC9 JUMP JUMPDEST PUSH1 0x40 MLOAD DUP1 SWAP2 SUB SWAP1 LOG3 POP POP POP POP JUMP JUMPDEST DUP1 PUSH2 0x1242 DUP2 PUSH2 0x20C6 JUMP JUMPDEST SWAP2 POP POP PUSH2 0x10EF JUMP JUMPDEST POP PUSH1 0x40 MLOAD PUSH3 0x461BCD PUSH1 0xE5 SHL DUP2 MSTORE PUSH1 0x20 PUSH1 0x4 DUP3 ADD MSTORE PUSH1 0x24 DUP1 DUP3 ADD MSTORE PUSH32 0x434944206E6F742061737369676E656420746F20746869732062656E65666963 PUSH1 0x44 DUP3 ADD MSTORE PUSH4 0x69617279 PUSH1 0xE0 SHL PUSH1 0x64 DUP3 ADD MSTORE PUSH1 0x84 ADD PUSH2 0x49D JUMP JUMPDEST PUSH1 0x60 PUSH2 0x12AB DUP4 DUP4 PUSH2 0x4C9 JUMP JUMPDEST ISZERO PUSH2 0x136A JUMPI PUSH1 0x1 PUSH1 0x1 PUSH1 0xA0 SHL SUB DUP1 DUP5 AND PUSH1 0x0 SWAP1 DUP2 MSTORE PUSH1 0x20 DUP2 DUP2 MSTORE PUSH1 0x40 DUP1 DUP4 KECCAK256 SWAP4 DUP7 AND DUP4 MSTORE PUSH1 0x1 SWAP1 SWAP4 ADD SWAP1 MSTORE KECCAK256 PUSH1 0x2 ADD DUP1 SLOAD PUSH2 0x12E5 SWAP1 PUSH2 0x1F67 JUMP JUMPDEST DUP1 PUSH1 0x1F ADD PUSH1 0x20 DUP1 SWAP2 DIV MUL PUSH1 0x20 ADD PUSH1 0x40 MLOAD SWAP1 DUP2 ADD PUSH1 0x40 MSTORE DUP1 SWAP3 SWAP2 SWAP1 DUP2 DUP2 MSTORE PUSH1 0x20 ADD DUP3 DUP1 SLOAD PUSH2 0x1311 SWAP1 PUSH2 0x1F67 JUMP JUMPDEST DUP1 ISZERO PUSH2 0x135E JUMPI DUP1 PUSH1 0x1F LT PUSH2 0x1333 JUMPI PUSH2 0x100 DUP1 DUP4 SLOAD DIV MUL DUP4 MSTORE SWAP2 PUSH1 0x20 ADD SWAP2 PUSH2 0x135E JUMP JUMPDEST DUP3 ADD SWAP2 SWAP1 PUSH1 0x0 MSTORE PUSH1 0x20 PUSH1 0x0 KECCAK256 SWAP1 JUMPDEST DUP2 SLOAD DUP2 MSTORE SWAP1 PUSH1 0x1 ADD SWAP1 PUSH1 0x20 ADD DUP1 DUP4 GT PUSH2 0x1341 JUMPI DUP3 SWAP1 SUB PUSH1 0x1F AND DUP3 ADD SWAP2 JUMPDEST POP POP POP POP POP SWAP1 POP PUSH2 0x4F5 JUMP JUMPDEST POP PUSH1 0x40 DUP1 MLOAD PUSH1 0x20 DUP2 ADD SWAP1 SWAP2 MSTORE PUSH1 0x0 DUP2 MSTORE PUSH2 0x4F5 JUMP JUMPDEST PUSH1 0x1 PUSH1 0x1 PUSH1 0xA0 SHL SUB DUP2 AND PUSH1 0x0 SWAP1 DUP2 MSTORE PUSH1 0x20 DUP2 DUP2 MSTORE PUSH1 0x40 DUP1 DUP4 KECCAK256 CALLER DUP5 MSTORE PUSH1 0x1 ADD SWAP1 SWAP2 MSTORE SWAP1 KECCAK256 SLOAD PUSH1 0xFF AND PUSH2 0x13F3 JUMPI PUSH1 0x40 MLOAD PUSH3 0x461BCD PUSH1 0xE5 SHL DUP2 MSTORE PUSH1 0x20 PUSH1 0x4 DUP3 ADD MSTORE PUSH1 0x17 PUSH1 0x24 DUP3 ADD MSTORE PUSH32 0x4E6F7420612076616C69642062656E6566696369617279000000000000000000 PUSH1 0x44 DUP3 ADD MSTORE PUSH1 0x64 ADD PUSH2 0x49D JUMP JUMPDEST PUSH1 0x1 PUSH1 0x1 PUSH1 0xA0 SHL SUB DUP2 AND PUSH1 0x0 SWAP1 DUP2 MSTORE PUSH1 0x20 DUP2 SWAP1 MSTORE PUSH1 0x40 SWAP1 KECCAK256 PUSH1 0x5 ADD SLOAD PUSH1 0xFF AND PUSH2 0x144F JUMPI PUSH1 0x40 MLOAD CALLER SWAP1 PUSH1 0x1 PUSH1 0x1 PUSH1 0xA0 SHL SUB DUP4 AND SWAP1 PUSH32 0x67C4731BDC193862F421E091D18F46DF876BFE1B8B9AA97504F1D50D425B239D SWAP1 PUSH1 0x0 SWAP1 LOG3 POP JUMP JUMPDEST PUSH1 0x1 PUSH1 0x1 PUSH1 0xA0 SHL SUB DUP2 AND PUSH1 0x0 DUP2 DUP2 MSTORE PUSH1 0x20 DUP2 DUP2 MSTORE PUSH1 0x40 SWAP2 DUP3 SWAP1 KECCAK256 PUSH1 0x5 DUP2 ADD DUP1 SLOAD PUSH1 0xFF NOT AND SWAP1 SSTORE TIMESTAMP PUSH1 0x4 DUP3 ADD SSTORE PUSH1 0x3 ADD SLOAD SWAP2 MLOAD SWAP2 DUP3 MSTORE CALLER SWAP3 SWAP2 PUSH32 0x82595752291D0261DFB9B4B0C2307021C29C34E22FE0697B4840B529DC351BC3 SWAP2 ADD PUSH1 0x40 MLOAD DUP1 SWAP2 SUB SWAP1 LOG3 POP JUMP JUMPDEST CALLER PUSH1 0x0 SWAP1 DUP2 MSTORE PUSH1 0x20 DUP2 SWAP1 MSTORE PUSH1 0x40 SWAP1 KECCAK256 SLOAD PUSH1 0xFF AND DUP1 ISZERO PUSH2 0x14EB JUMPI POP CALLER PUSH1 0x0 SWAP1 DUP2 MSTORE PUSH1 0x20 DUP2 SWAP1 MSTORE PUSH1 0x40 SWAP1 KECCAK256 PUSH1 0x5 ADD SLOAD PUSH2 0x100 SWAP1 DIV PUSH1 0xFF AND JUMPDEST PUSH2 0x1530 JUMPI PUSH1 0x40 MLOAD PUSH3 0x461BCD PUSH1 0xE5 SHL DUP2 MSTORE PUSH1 0x20 PUSH1 0x4 DUP3 ADD MSTORE PUSH1 0x16 PUSH1 0x24 DUP3 ADD MSTORE PUSH22 0x2737BA1030903B30B634B2103132B732B330B1BA37B9 PUSH1 0x51 SHL PUSH1 0x44 DUP3 ADD MSTORE PUSH1 0x64 ADD PUSH2 0x49D JUMP JUMPDEST CALLER PUSH1 0x0 SWAP1 DUP2 MSTORE PUSH1 0x20 DUP2 SWAP1 MSTORE PUSH1 0x40 SWAP1 KECCAK256 PUSH1 0x4 ADD SLOAD ISZERO PUSH2 0x167D JUMPI PUSH2 0x1551 CALLER PUSH2 0x3A5 JUMP JUMPDEST ISZERO PUSH2 0x15E7 JUMPI CALLER PUSH1 0x1 PUSH1 0x1 PUSH1 0xA0 SHL SUB AND PUSH32 0x793324A6F079E577F4A4646C7EC753EFD3BEDDC2F4CE07BFAE5F105C449AC356 PUSH1 0x40 MLOAD PUSH2 0x15BF SWAP1 PUSH1 0x20 DUP1 DUP3 MSTORE PUSH1 0x13 SWAP1 DUP3 ADD MSTORE PUSH32 0x42656E65666163746F7220697320616C69766500000000000000000000000000 PUSH1 0x40 DUP3 ADD MSTORE PUSH1 0x60 ADD SWAP1 JUMP JUMPDEST PUSH1 0x40 MLOAD DUP1 SWAP2 SUB SWAP1 LOG2 PUSH2 0x15CF PUSH2 0x199C JUMP JUMPDEST CALLER PUSH1 0x0 SWAP1 DUP2 MSTORE PUSH1 0x20 DUP2 SWAP1 MSTORE PUSH1 0x40 SWAP1 KECCAK256 TIMESTAMP PUSH1 0x4 SWAP1 SWAP2 ADD SSTORE JUMP JUMPDEST CALLER PUSH1 0x0 SWAP1 DUP2 MSTORE PUSH1 0x20 DUP2 SWAP1 MSTORE PUSH1 0x40 SWAP1 KECCAK256 DUP1 SLOAD PUSH1 0xFF NOT AND DUP2 SSTORE PUSH1 0x5 ADD DUP1 SLOAD PUSH2 0xFF00 NOT AND SWAP1 SSTORE CALLER PUSH1 0x1 PUSH1 0x1 PUSH1 0xA0 SHL SUB AND PUSH32 0x5A68FA7D6B655A3E592D5D99AC82863424750E9D262C902F30F9E56655E7A856 PUSH1 0x40 MLOAD PUSH2 0x1673 SWAP1 PUSH1 0x20 DUP1 DUP3 MSTORE PUSH1 0x12 SWAP1 DUP3 ADD MSTORE PUSH32 0x42656E65666163746F7220697320646561640000000000000000000000000000 PUSH1 0x40 DUP3 ADD MSTORE PUSH1 0x60 ADD SWAP1 JUMP JUMPDEST PUSH1 0x40 MLOAD DUP1 SWAP2 SUB SWAP1 LOG2 JUMP JUMPDEST CALLER PUSH1 0x1 PUSH1 0x1 PUSH1 0xA0 SHL SUB AND PUSH32 0x793324A6F079E577F4A4646C7EC753EFD3BEDDC2F4CE07BFAE5F105C449AC356 PUSH1 0x40 MLOAD PUSH2 0x15BF SWAP1 PUSH1 0x20 DUP1 DUP3 MSTORE PUSH1 0x13 SWAP1 DUP3 ADD MSTORE PUSH32 0x42656E65666163746F7220697320616C69766500000000000000000000000000 PUSH1 0x40 DUP3 ADD MSTORE PUSH1 0x60 ADD SWAP1 JUMP JUMPDEST PUSH2 0x16F0 DUP4 DUP4 PUSH2 0x4C9 JUMP JUMPDEST PUSH2 0x173C JUMPI PUSH1 0x40 MLOAD PUSH3 0x461BCD PUSH1 0xE5 SHL DUP2 MSTORE PUSH1 0x20 PUSH1 0x4 DUP3 ADD DUP2 SWAP1 MSTORE PUSH1 0x24 DUP3 ADD MSTORE PUSH32 0x42656E65666963696172792F42656E65666163746F72206E6F7420666F756E64 PUSH1 0x44 DUP3 ADD MSTORE PUSH1 0x64 ADD PUSH2 0x49D JUMP JUMPDEST PUSH1 0x1 PUSH1 0x1 PUSH1 0xA0 SHL SUB DUP1 DUP5 AND PUSH1 0x0 SWAP1 DUP2 MSTORE PUSH1 0x20 DUP2 DUP2 MSTORE PUSH1 0x40 DUP1 DUP4 KECCAK256 SWAP4 DUP7 AND DUP4 MSTORE PUSH1 0x1 SWAP1 SWAP4 ADD SWAP1 MSTORE KECCAK256 PUSH1 0x2 ADD PUSH2 0x1770 DUP3 DUP3 PUSH2 0x1FF0 JUMP JUMPDEST POP DUP2 PUSH1 0x1 PUSH1 0x1 PUSH1 0xA0 SHL SUB AND DUP4 PUSH1 0x1 PUSH1 0x1 PUSH1 0xA0 SHL SUB AND PUSH32 0x812E93BAD7E76E8B51ECDB31C9C69773DBA6B47C2AE9FC763877665448B150D9 DUP4 PUSH1 0x40 MLOAD PUSH2 0x790 SWAP2 SWAP1 PUSH2 0x1EC9 JUMP JUMPDEST PUSH1 0x60 PUSH2 0x17C0 DUP4 DUP4 PUSH2 0x4C9 JUMP JUMPDEST PUSH2 0x1804 JUMPI PUSH1 0x40 MLOAD PUSH3 0x461BCD PUSH1 0xE5 SHL DUP2 MSTORE PUSH1 0x20 PUSH1 0x4 DUP3 ADD MSTORE PUSH1 0x15 PUSH1 0x24 DUP3 ADD MSTORE PUSH21 0x10995B99599A58DA585C9E481B9BDD08199BDD5B99 PUSH1 0x5A SHL PUSH1 0x44 DUP3 ADD MSTORE PUSH1 0x64 ADD PUSH2 0x49D JUMP JUMPDEST PUSH2 0x180D DUP4 PUSH2 0x3A5 JUMP JUMPDEST ISZERO PUSH2 0x185A JUMPI PUSH1 0x40 MLOAD PUSH3 0x461BCD PUSH1 0xE5 SHL DUP2 MSTORE PUSH1 0x20 PUSH1 0x4 DUP3 ADD MSTORE PUSH1 0x11 PUSH1 0x24 DUP3 ADD MSTORE PUSH32 0x4E6F2061636365737320746F2043494473000000000000000000000000000000 PUSH1 0x44 DUP3 ADD MSTORE PUSH1 0x64 ADD PUSH2 0x49D JUMP JUMPDEST PUSH1 0x1 PUSH1 0x1 PUSH1 0xA0 SHL SUB DUP1 DUP5 AND PUSH1 0x0 SWAP1 DUP2 MSTORE PUSH1 0x20 DUP2 DUP2 MSTORE PUSH1 0x40 DUP1 DUP4 KECCAK256 SWAP4 DUP7 AND DUP4 MSTORE PUSH1 0x1 SWAP4 DUP5 ADD DUP3 MSTORE DUP1 DUP4 KECCAK256 SWAP1 SWAP4 ADD DUP1 SLOAD DUP5 MLOAD DUP2 DUP5 MUL DUP2 ADD DUP5 ADD SWAP1 SWAP6 MSTORE DUP1 DUP6 MSTORE SWAP1 SWAP3 SWAP1 SWAP2 DUP5 ADD JUMPDEST DUP3 DUP3 LT ISZERO PUSH2 0x194A JUMPI DUP4 DUP3 SWAP1 PUSH1 0x0 MSTORE PUSH1 0x20 PUSH1 0x0 KECCAK256 ADD DUP1 SLOAD PUSH2 0x18BD SWAP1 PUSH2 0x1F67 JUMP JUMPDEST DUP1 PUSH1 0x1F ADD PUSH1 0x20 DUP1 SWAP2 DIV MUL PUSH1 0x20 ADD PUSH1 0x40 MLOAD SWAP1 DUP2 ADD PUSH1 0x40 MSTORE DUP1 SWAP3 SWAP2 SWAP1 DUP2 DUP2 MSTORE PUSH1 0x20 ADD DUP3 DUP1 SLOAD PUSH2 0x18E9 SWAP1 PUSH2 0x1F67 JUMP JUMPDEST DUP1 ISZERO PUSH2 0x1936 JUMPI DUP1 PUSH1 0x1F LT PUSH2 0x190B JUMPI PUSH2 0x100 DUP1 DUP4 SLOAD DIV MUL DUP4 MSTORE SWAP2 PUSH1 0x20 ADD SWAP2 PUSH2 0x1936 JUMP JUMPDEST DUP3 ADD SWAP2 SWAP1 PUSH1 0x0 MSTORE PUSH1 0x20 PUSH1 0x0 KECCAK256 SWAP1 JUMPDEST DUP2 SLOAD DUP2 MSTORE SWAP1 PUSH1 0x1 ADD SWAP1 PUSH1 0x20 ADD DUP1 DUP4 GT PUSH2 0x1919 JUMPI DUP3 SWAP1 SUB PUSH1 0x1F AND DUP3 ADD SWAP2 JUMPDEST POP POP POP POP POP DUP2 MSTORE PUSH1 0x20 ADD SWAP1 PUSH1 0x1 ADD SWAP1 PUSH2 0x189E JUMP JUMPDEST POP POP POP POP SWAP1 POP SWAP3 SWAP2 POP POP JUMP JUMPDEST PUSH1 0x60 PUSH2 0x1962 DUP4 DUP4 PUSH2 0x4C9 JUMP JUMPDEST ISZERO PUSH2 0x136A JUMPI PUSH1 0x1 PUSH1 0x1 PUSH1 0xA0 SHL SUB DUP1 DUP5 AND PUSH1 0x0 SWAP1 DUP2 MSTORE PUSH1 0x20 DUP2 DUP2 MSTORE PUSH1 0x40 DUP1 DUP4 KECCAK256 SWAP4 DUP7 AND DUP4 MSTORE PUSH1 0x1 SWAP1 SWAP4 ADD SWAP1 MSTORE KECCAK256 PUSH1 0x3 ADD DUP1 SLOAD PUSH2 0x12E5 SWAP1 PUSH2 0x1F67 JUMP JUMPDEST CALLER PUSH1 0x0 SWAP1 DUP2 MSTORE PUSH1 0x20 DUP2 SWAP1 MSTORE PUSH1 0x40 SWAP1 KECCAK256 SLOAD PUSH1 0xFF AND DUP1 ISZERO PUSH2 0x19D2 JUMPI POP CALLER PUSH1 0x0 SWAP1 DUP2 MSTORE PUSH1 0x20 DUP2 SWAP1 MSTORE PUSH1 0x40 SWAP1 KECCAK256 PUSH1 0x5 ADD SLOAD PUSH2 0x100 SWAP1 DIV PUSH1 0xFF AND JUMPDEST PUSH2 0x1A17 JUMPI PUSH1 0x40 MLOAD PUSH3 0x461BCD PUSH1 0xE5 SHL DUP2 MSTORE PUSH1 0x20 PUSH1 0x4 DUP3 ADD MSTORE PUSH1 0x16 PUSH1 0x24 DUP3 ADD MSTORE PUSH22 0x2737BA1030903B30B634B2103132B732B330B1BA37B9 PUSH1 0x51 SHL PUSH1 0x44 DUP3 ADD MSTORE PUSH1 0x64 ADD PUSH2 0x49D JUMP JUMPDEST CALLER PUSH1 0x0 SWAP1 DUP2 MSTORE PUSH1 0x20 DUP2 SWAP1 MSTORE PUSH1 0x40 SWAP1 KECCAK256 PUSH1 0x5 ADD SLOAD PUSH1 0xFF AND ISZERO PUSH2 0x1A61 JUMPI PUSH1 0x40 MLOAD CALLER SWAP1 DUP2 SWAP1 PUSH32 0x439C5AAF7691CB4808DBD2A240323CE9EC0D04D66DDF65FFD5F88EBD60FA745B SWAP1 PUSH1 0x0 SWAP1 LOG3 JUMP JUMPDEST CALLER PUSH1 0x0 DUP2 DUP2 MSTORE PUSH1 0x20 DUP2 SWAP1 MSTORE PUSH1 0x40 SWAP1 DUP2 SWAP1 KECCAK256 PUSH1 0x5 ADD DUP1 SLOAD PUSH1 0xFF NOT AND PUSH1 0x1 OR SWAP1 SSTORE MLOAD DUP2 SWAP1 PUSH32 0x9BAA855D20DE9B1A4DB454F55B09D1DB5F42F0871BBEA3B0C699146ADE171625 SWAP1 PUSH2 0x1AB2 SWAP1 TIMESTAMP DUP2 MSTORE PUSH1 0x20 ADD SWAP1 JUMP JUMPDEST PUSH1 0x40 MLOAD DUP1 SWAP2 SUB SWAP1 LOG3 JUMP JUMPDEST DUP3 DUP1 SLOAD DUP3 DUP3 SSTORE SWAP1 PUSH1 0x0 MSTORE PUSH1 0x20 PUSH1 0x0 KECCAK256 SWAP1 DUP2 ADD SWAP3 DUP3 ISZERO PUSH2 0x1B02 JUMPI SWAP2 PUSH1 0x20 MUL DUP3 ADD JUMPDEST DUP3 DUP2 GT ISZERO PUSH2 0x1B02 JUMPI DUP3 MLOAD DUP3 SWAP1 PUSH2 0x1AF2 SWAP1 DUP3 PUSH2 0x1FF0 JUMP JUMPDEST POP SWAP2 PUSH1 0x20 ADD SWAP2 SWAP1 PUSH1 0x1 ADD SWAP1 PUSH2 0x1ADC JUMP JUMPDEST POP PUSH2 0x1B0E SWAP3 SWAP2 POP PUSH2 0x1B6A JUMP JUMPDEST POP SWAP1 JUMP JUMPDEST POP DUP1 SLOAD PUSH1 0x0 DUP3 SSTORE SWAP1 PUSH1 0x0 MSTORE PUSH1 0x20 PUSH1 0x0 KECCAK256 SWAP1 DUP2 ADD SWAP1 PUSH2 0xE9E SWAP2 SWAP1 PUSH2 0x1B6A JUMP JUMPDEST POP DUP1 SLOAD PUSH2 0x1B3C SWAP1 PUSH2 0x1F67 JUMP JUMPDEST PUSH1 0x0 DUP3 SSTORE DUP1 PUSH1 0x1F LT PUSH2 0x1B4C JUMPI POP POP JUMP JUMPDEST PUSH1 0x1F ADD PUSH1 0x20 SWAP1 DIV SWAP1 PUSH1 0x0 MSTORE PUSH1 0x20 PUSH1 0x0 KECCAK256 SWAP1 DUP2 ADD SWAP1 PUSH2 0xE9E SWAP2 SWAP1 PUSH2 0x1B87 JUMP JUMPDEST DUP1 DUP3 GT ISZERO PUSH2 0x1B0E JUMPI PUSH1 0x0 PUSH2 0x1B7E DUP3 DUP3 PUSH2 0x1B30 JUMP JUMPDEST POP PUSH1 0x1 ADD PUSH2 0x1B6A JUMP JUMPDEST JUMPDEST DUP1 DUP3 GT ISZERO PUSH2 0x1B0E JUMPI PUSH1 0x0 DUP2 SSTORE PUSH1 0x1 ADD PUSH2 0x1B88 JUMP JUMPDEST DUP1 CALLDATALOAD PUSH1 0x1 PUSH1 0x1 PUSH1 0xA0 SHL SUB DUP2 AND DUP2 EQ PUSH2 0x1BB3 JUMPI PUSH1 0x0 DUP1 REVERT JUMPDEST SWAP2 SWAP1 POP JUMP JUMPDEST PUSH1 0x0 PUSH1 0x20 DUP3 DUP5 SUB SLT ISZERO PUSH2 0x1BCA JUMPI PUSH1 0x0 DUP1 REVERT JUMPDEST PUSH2 0x39E DUP3 PUSH2 0x1B9C JUMP JUMPDEST PUSH1 0x0 DUP1 PUSH1 0x40 DUP4 DUP6 SUB SLT ISZERO PUSH2 0x1BE6 JUMPI PUSH1 0x0 DUP1 REVERT JUMPDEST PUSH2 0x1BEF DUP4 PUSH2 0x1B9C JUMP JUMPDEST SWAP2 POP PUSH2 0x1BFD PUSH1 0x20 DUP5 ADD PUSH2 0x1B9C JUMP JUMPDEST SWAP1 POP SWAP3 POP SWAP3 SWAP1 POP JUMP JUMPDEST PUSH1 0x0 DUP2 MLOAD DUP1 DUP5 MSTORE PUSH1 0x20 DUP1 DUP6 ADD SWAP5 POP DUP1 DUP5 ADD PUSH1 0x0 JUMPDEST DUP4 DUP2 LT ISZERO PUSH2 0x1C3F JUMPI DUP2 MLOAD PUSH1 0x1 PUSH1 0x1 PUSH1 0xA0 SHL SUB AND DUP8 MSTORE SWAP6 DUP3 ADD SWAP6 SWAP1 DUP3 ADD SWAP1 PUSH1 0x1 ADD PUSH2 0x1C1A JUMP JUMPDEST POP SWAP5 SWAP6 SWAP5 POP POP POP POP POP JUMP JUMPDEST DUP4 ISZERO ISZERO DUP2 MSTORE PUSH1 0x60 PUSH1 0x20 DUP3 ADD MSTORE PUSH1 0x0 PUSH2 0x1C65 PUSH1 0x60 DUP4 ADD DUP6 PUSH2 0x1C06 JUMP JUMPDEST SWAP1 POP DUP3 PUSH1 0x40 DUP4 ADD MSTORE SWAP5 SWAP4 POP POP POP POP JUMP JUMPDEST PUSH4 0x4E487B71 PUSH1 0xE0 SHL PUSH1 0x0 MSTORE PUSH1 0x41 PUSH1 0x4 MSTORE PUSH1 0x24 PUSH1 0x0 REVERT JUMPDEST PUSH1 0x0 DUP3 PUSH1 0x1F DUP4 ADD SLT PUSH2 0x1C9C JUMPI PUSH1 0x0 DUP1 REVERT JUMPDEST DUP2 CALLDATALOAD PUSH8 0xFFFFFFFFFFFFFFFF DUP1 DUP3 GT ISZERO PUSH2 0x1CB7 JUMPI PUSH2 0x1CB7 PUSH2 0x1C75 JUMP JUMPDEST PUSH1 0x40 MLOAD PUSH1 0x1F DUP4 ADD PUSH1 0x1F NOT SWAP1 DUP2 AND PUSH1 0x3F ADD AND DUP2 ADD SWAP1 DUP3 DUP3 GT DUP2 DUP4 LT OR ISZERO PUSH2 0x1CDF JUMPI PUSH2 0x1CDF PUSH2 0x1C75 JUMP JUMPDEST DUP2 PUSH1 0x40 MSTORE DUP4 DUP2 MSTORE DUP7 PUSH1 0x20 DUP6 DUP9 ADD ADD GT ISZERO PUSH2 0x1CF8 JUMPI PUSH1 0x0 DUP1 REVERT JUMPDEST DUP4 PUSH1 0x20 DUP8 ADD PUSH1 0x20 DUP4 ADD CALLDATACOPY PUSH1 0x0 PUSH1 0x20 DUP6 DUP4 ADD ADD MSTORE DUP1 SWAP5 POP POP POP POP POP SWAP3 SWAP2 POP POP JUMP JUMPDEST PUSH1 0x0 DUP1 PUSH1 0x0 PUSH1 0x60 DUP5 DUP7 SUB SLT ISZERO PUSH2 0x1D2D JUMPI PUSH1 0x0 DUP1 REVERT JUMPDEST PUSH2 0x1D36 DUP5 PUSH2 0x1B9C JUMP JUMPDEST SWAP3 POP PUSH2 0x1D44 PUSH1 0x20 DUP6 ADD PUSH2 0x1B9C JUMP JUMPDEST SWAP2 POP PUSH1 0x40 DUP5 ADD CALLDATALOAD PUSH8 0xFFFFFFFFFFFFFFFF DUP2 GT ISZERO PUSH2 0x1D60 JUMPI PUSH1 0x0 DUP1 REVERT JUMPDEST PUSH2 0x1D6C DUP7 DUP3 DUP8 ADD PUSH2 0x1C8B JUMP JUMPDEST SWAP2 POP POP SWAP3 POP SWAP3 POP SWAP3 JUMP JUMPDEST PUSH1 0x0 JUMPDEST DUP4 DUP2 LT ISZERO PUSH2 0x1D91 JUMPI DUP2 DUP2 ADD MLOAD DUP4 DUP3 ADD MSTORE PUSH1 0x20 ADD PUSH2 0x1D79 JUMP JUMPDEST POP POP PUSH1 0x0 SWAP2 ADD MSTORE JUMP JUMPDEST PUSH1 0x0 DUP2 MLOAD DUP1 DUP5 MSTORE PUSH2 0x1DB2 DUP2 PUSH1 0x20 DUP7 ADD PUSH1 0x20 DUP7 ADD PUSH2 0x1D76 JUMP JUMPDEST PUSH1 0x1F ADD PUSH1 0x1F NOT AND SWAP3 SWAP1 SWAP3 ADD PUSH1 0x20 ADD SWAP3 SWAP2 POP POP JUMP JUMPDEST PUSH1 0x40 DUP2 MSTORE PUSH1 0x0 PUSH2 0x1DD9 PUSH1 0x40 DUP4 ADD DUP6 PUSH2 0x1C06 JUMP JUMPDEST PUSH1 0x20 DUP4 DUP3 SUB DUP2 DUP6 ADD MSTORE DUP2 DUP6 MLOAD DUP1 DUP5 MSTORE DUP3 DUP5 ADD SWAP2 POP PUSH1 0x5 DUP4 DUP3 DUP3 SHL DUP7 ADD ADD DUP5 DUP10 ADD PUSH1 0x0 DUP1 JUMPDEST DUP6 DUP2 LT ISZERO PUSH2 0x1E6A JUMPI PUSH1 0x1F NOT DUP10 DUP6 SUB DUP2 ADD DUP9 MSTORE DUP4 MLOAD DUP1 MLOAD DUP1 DUP8 MSTORE SWAP1 DUP11 ADD SWAP1 DUP11 DUP8 ADD SWAP1 DUP1 DUP10 SHL DUP9 ADD DUP13 ADD DUP7 JUMPDEST DUP3 DUP2 LT ISZERO PUSH2 0x1E53 JUMPI DUP6 DUP11 DUP4 SUB ADD DUP5 MSTORE PUSH2 0x1E41 DUP3 DUP7 MLOAD PUSH2 0x1D9A JUMP JUMPDEST SWAP5 DUP15 ADD SWAP5 SWAP4 DUP15 ADD SWAP4 SWAP2 POP PUSH1 0x1 ADD PUSH2 0x1E27 JUMP JUMPDEST POP SWAP11 DUP13 ADD SWAP11 SWAP8 POP POP POP SWAP4 DUP10 ADD SWAP4 POP POP PUSH1 0x1 ADD PUSH2 0x1DFD JUMP JUMPDEST POP SWAP2 SWAP12 SWAP11 POP POP POP POP POP POP POP POP POP POP POP JUMP JUMPDEST PUSH1 0x0 DUP1 PUSH1 0x40 DUP4 DUP6 SUB SLT ISZERO PUSH2 0x1E8E JUMPI PUSH1 0x0 DUP1 REVERT JUMPDEST PUSH2 0x1E97 DUP4 PUSH2 0x1B9C JUMP JUMPDEST SWAP2 POP PUSH1 0x20 DUP4 ADD CALLDATALOAD PUSH8 0xFFFFFFFFFFFFFFFF DUP2 GT ISZERO PUSH2 0x1EB3 JUMPI PUSH1 0x0 DUP1 REVERT JUMPDEST PUSH2 0x1EBF DUP6 DUP3 DUP7 ADD PUSH2 0x1C8B JUMP JUMPDEST SWAP2 POP POP SWAP3 POP SWAP3 SWAP1 POP JUMP JUMPDEST PUSH1 0x20 DUP2 MSTORE PUSH1 0x0 PUSH2 0x39E PUSH1 0x20 DUP4 ADD DUP5 PUSH2 0x1D9A JUMP JUMPDEST PUSH1 0x0 PUSH1 0x20 DUP1 DUP4 ADD DUP2 DUP5 MSTORE DUP1 DUP6 MLOAD DUP1 DUP4 MSTORE PUSH1 0x40 DUP7 ADD SWAP2 POP PUSH1 0x40 DUP2 PUSH1 0x5 SHL DUP8 ADD ADD SWAP3 POP DUP4 DUP8 ADD PUSH1 0x0 JUMPDEST DUP3 DUP2 LT ISZERO PUSH2 0x1F31 JUMPI PUSH1 0x3F NOT DUP9 DUP7 SUB ADD DUP5 MSTORE PUSH2 0x1F1F DUP6 DUP4 MLOAD PUSH2 0x1D9A JUMP JUMPDEST SWAP5 POP SWAP3 DUP6 ADD SWAP3 SWAP1 DUP6 ADD SWAP1 PUSH1 0x1 ADD PUSH2 0x1F03 JUMP JUMPDEST POP SWAP3 SWAP8 SWAP7 POP POP POP POP POP POP POP JUMP JUMPDEST PUSH4 0x4E487B71 PUSH1 0xE0 SHL PUSH1 0x0 MSTORE PUSH1 0x11 PUSH1 0x4 MSTORE PUSH1 0x24 PUSH1 0x0 REVERT JUMPDEST DUP2 DUP2 SUB DUP2 DUP2 GT ISZERO PUSH2 0x4F5 JUMPI PUSH2 0x4F5 PUSH2 0x1F3E JUMP JUMPDEST PUSH1 0x1 DUP2 DUP2 SHR SWAP1 DUP3 AND DUP1 PUSH2 0x1F7B JUMPI PUSH1 0x7F DUP3 AND SWAP2 POP JUMPDEST PUSH1 0x20 DUP3 LT DUP2 SUB PUSH2 0x1F9B JUMPI PUSH4 0x4E487B71 PUSH1 0xE0 SHL PUSH1 0x0 MSTORE PUSH1 0x22 PUSH1 0x4 MSTORE PUSH1 0x24 PUSH1 0x0 REVERT JUMPDEST POP SWAP2 SWAP1 POP JUMP JUMPDEST PUSH1 0x1F DUP3 GT ISZERO PUSH2 0x1FEB JUMPI PUSH1 0x0 DUP2 DUP2 MSTORE PUSH1 0x20 DUP2 KECCAK256 PUSH1 0x1F DUP6 ADD PUSH1 0x5 SHR DUP2 ADD PUSH1 0x20 DUP7 LT ISZERO PUSH2 0x1FC8 JUMPI POP DUP1 JUMPDEST PUSH1 0x1F DUP6 ADD PUSH1 0x5 SHR DUP3 ADD SWAP2 POP JUMPDEST DUP2 DUP2 LT ISZERO PUSH2 0x1FE7 JUMPI DUP3 DUP2 SSTORE PUSH1 0x1 ADD PUSH2 0x1FD4 JUMP JUMPDEST POP POP POP JUMPDEST POP POP POP JUMP JUMPDEST DUP2 MLOAD PUSH8 0xFFFFFFFFFFFFFFFF DUP2 GT ISZERO PUSH2 0x200A JUMPI PUSH2 0x200A PUSH2 0x1C75 JUMP JUMPDEST PUSH2 0x201E DUP2 PUSH2 0x2018 DUP5 SLOAD PUSH2 0x1F67 JUMP JUMPDEST DUP5 PUSH2 0x1FA1 JUMP JUMPDEST PUSH1 0x20 DUP1 PUSH1 0x1F DUP4 GT PUSH1 0x1 DUP2 EQ PUSH2 0x2053 JUMPI PUSH1 0x0 DUP5 ISZERO PUSH2 0x203B JUMPI POP DUP6 DUP4 ADD MLOAD JUMPDEST PUSH1 0x0 NOT PUSH1 0x3 DUP7 SWAP1 SHL SHR NOT AND PUSH1 0x1 DUP6 SWAP1 SHL OR DUP6 SSTORE PUSH2 0x1FE7 JUMP JUMPDEST PUSH1 0x0 DUP6 DUP2 MSTORE PUSH1 0x20 DUP2 KECCAK256 PUSH1 0x1F NOT DUP7 AND SWAP2 JUMPDEST DUP3 DUP2 LT ISZERO PUSH2 0x2082 JUMPI DUP9 DUP7 ADD MLOAD DUP3 SSTORE SWAP5 DUP5 ADD SWAP5 PUSH1 0x1 SWAP1 SWAP2 ADD SWAP1 DUP5 ADD PUSH2 0x2063 JUMP JUMPDEST POP DUP6 DUP3 LT ISZERO PUSH2 0x20A0 JUMPI DUP8 DUP6 ADD MLOAD PUSH1 0x0 NOT PUSH1 0x3 DUP9 SWAP1 SHL PUSH1 0xF8 AND SHR NOT AND DUP2 SSTORE JUMPDEST POP POP POP POP POP PUSH1 0x1 SWAP1 DUP2 SHL ADD SWAP1 SSTORE POP JUMP JUMPDEST PUSH4 0x4E487B71 PUSH1 0xE0 SHL PUSH1 0x0 MSTORE PUSH1 0x32 PUSH1 0x4 MSTORE PUSH1 0x24 PUSH1 0x0 REVERT JUMPDEST PUSH1 0x0 PUSH1 0x1 DUP3 ADD PUSH2 0x20D8 JUMPI PUSH2 0x20D8 PUSH2 0x1F3E JUMP JUMPDEST POP PUSH1 0x1 ADD SWAP1 JUMP JUMPDEST PUSH1 0x0 DUP3 MLOAD PUSH2 0x20F1 DUP2 DUP5 PUSH1 0x20 DUP8 ADD PUSH2 0x1D76 JUMP JUMPDEST SWAP2 SWAP1 SWAP2 ADD SWAP3 SWAP2 POP POP JUMP JUMPDEST PUSH1 0x0 DUP1 DUP4 SLOAD PUSH2 0x2109 DUP2 PUSH2 0x1F67 JUMP JUMPDEST PUSH1 0x1 DUP3 DUP2 AND DUP1 ISZERO PUSH2 0x2121 JUMPI PUSH1 0x1 DUP2 EQ PUSH2 0x2136 JUMPI PUSH2 0x2165 JUMP JUMPDEST PUSH1 0xFF NOT DUP5 AND DUP8 MSTORE DUP3 ISZERO ISZERO DUP4 MUL DUP8 ADD SWAP5 POP PUSH2 0x2165 JUMP JUMPDEST DUP8 PUSH1 0x0 MSTORE PUSH1 0x20 DUP1 PUSH1 0x0 KECCAK256 PUSH1 0x0 JUMPDEST DUP6 DUP2 LT ISZERO PUSH2 0x215C JUMPI DUP2 SLOAD DUP11 DUP3 ADD MSTORE SWAP1 DUP5 ADD SWAP1 DUP3 ADD PUSH2 0x2143 JUMP JUMPDEST POP POP POP DUP3 DUP8 ADD SWAP5 POP JUMPDEST POP SWAP3 SWAP7 SWAP6 POP POP POP POP POP POP JUMP JUMPDEST DUP2 DUP2 SUB PUSH2 0x217C JUMPI POP POP JUMP JUMPDEST PUSH2 0x2186 DUP3 SLOAD PUSH2 0x1F67 JUMP JUMPDEST PUSH8 0xFFFFFFFFFFFFFFFF DUP2 GT ISZERO PUSH2 0x219E JUMPI PUSH2 0x219E PUSH2 0x1C75 JUMP JUMPDEST PUSH2 0x21AC DUP2 PUSH2 0x2018 DUP5 SLOAD PUSH2 0x1F67 JUMP JUMPDEST PUSH1 0x0 PUSH1 0x1F DUP3 GT PUSH1 0x1 DUP2 EQ PUSH2 0x21E0 JUMPI PUSH1 0x0 DUP4 ISZERO PUSH2 0x21C8 JUMPI POP DUP5 DUP3 ADD SLOAD JUMPDEST PUSH1 0x0 NOT PUSH1 0x3 DUP6 SWAP1 SHL SHR NOT AND PUSH1 0x1 DUP5 SWAP1 SHL OR DUP5 SSTORE PUSH2 0x2245 JUMP JUMPDEST PUSH1 0x0 DUP6 DUP2 MSTORE PUSH1 0x20 SWAP1 KECCAK256 PUSH1 0x1F NOT DUP5 AND SWAP1 PUSH1 0x0 DUP7 DUP2 MSTORE PUSH1 0x20 SWAP1 KECCAK256 DUP5 JUMPDEST DUP4 DUP2 LT ISZERO PUSH2 0x221A JUMPI DUP3 DUP7 ADD SLOAD DUP3 SSTORE PUSH1 0x1 SWAP6 DUP7 ADD SWAP6 SWAP1 SWAP2 ADD SWAP1 PUSH1 0x20 ADD PUSH2 0x21FA JUMP JUMPDEST POP DUP6 DUP4 LT ISZERO PUSH2 0x2238 JUMPI DUP2 DUP6 ADD SLOAD PUSH1 0x0 NOT PUSH1 0x3 DUP9 SWAP1 SHL PUSH1 0xF8 AND SHR NOT AND DUP2 SSTORE JUMPDEST POP POP POP PUSH1 0x1 DUP4 PUSH1 0x1 SHL ADD DUP5 SSTORE JUMPDEST POP POP POP POP POP JUMP JUMPDEST PUSH4 0x4E487B71 PUSH1 0xE0 SHL PUSH1 0x0 MSTORE PUSH1 0x31 PUSH1 0x4 MSTORE PUSH1 0x24 PUSH1 0x0 REVERT INVALID LOG2 PUSH5 0x6970667358 0x22 SLT KECCAK256 PUSH27 0xC5B69DEF1C033704DB4FC84B7731C2BF653BFE90F85E6D36B53E52 0x2E 0x24 ORIGIN 0xEE PUSH5 0x736F6C6343 STOP ADDMOD GT STOP CALLER "
    },
    "gasEstimates": {
      "creation": {
        "codeDepositCost": "1771200",
        "executionCost": "1862",
        "totalCost": "1773062"
      },
      "external": {
        "addBenefactorPublicKey(address,address,string)": "infinite",
        "addBeneficiary(address)": "infinite",
        "addBeneficiaryPublicKey(address,address,string)": "infinite",
        "addIpfsCID(address,string)": "infinite",
        "checkAliveStatus(address)": "infinite",
        "enableSwitch(address)": "55248",
        "getBenefactorPublicKey(address,address)": "infinite",
        "getBeneficiaryPublicKey(address,address)": "infinite",
        "getCIDs(address,address)": "infinite",
        "getData(address)": "infinite",
        "getDisplayCIDs()": "infinite",
        "getRemainingCountdownTime(address)": "infinite",
        "getSwitchStatus(address)": "4856",
        "isBeneficiary(address,address)": "infinite",
        "removeBenefactor(address)": "48861",
        "removeBeneficiary(address)": "infinite",
        "removeIpfsCID(address,string)": "infinite",
        "respondToSwitch()": "infinite",
        "setBenefactor()": "78036"
      },
      "internal": {
        "disableSwitch()": "infinite"
      }
    },
    "methodIdentifiers": {
      "addBenefactorPublicKey(address,address,string)": "d51c3199",
      "addBeneficiary(address)": "5926651d",
      "addBeneficiaryPublicKey(address,address,string)": "3dea2f84",
      "addIpfsCID(address,string)": "5211287e",
      "checkAliveStatus(address)": "072039a2",
      "enableSwitch(address)": "8d5492e4",
      "getBenefactorPublicKey(address,address)": "87ce1ca8",
      "getBeneficiaryPublicKey(address,address)": "f892cb36",
      "getCIDs(address,address)": "df78bc54",
      "getData(address)": "38266b22",
      "getDisplayCIDs()": "4fe0d081",
      "getRemainingCountdownTime(address)": "01e2b33f",
      "getSwitchStatus(address)": "07a8b767",
      "isBeneficiary(address,address)": "096e27d9",
      "removeBenefactor(address)": "a98d22bc",
      "removeBeneficiary(address)": "59633a1c",
      "removeIpfsCID(address,string)": "87c63714",
      "respondToSwitch()": "cd9c9362",
      "setBenefactor()": "196ba7ef"
    }
  },
  "storageLayout": {
    "storage": [
      {
        "astId": 323,
        "contract": "DeadMansSwitch.sol:BenefactorsDeadManSwitch",
        "label": "benefactors",
        "offset": 0,
        "slot": "0",
        "type": "t_mapping(t_address,t_struct(BenefactorInfo)318_storage)"
      }
    ],
    "types": {
      "t_address": {
        "encoding": "inplace",
        "label": "address",
        "numberOfBytes": "20"
      },
      "t_array(t_address)dyn_storage": {
        "base": "t_address",
        "encoding": "dynamic_array",
        "label": "address[]",
        "numberOfBytes": "32"
      },
      "t_array(t_string_storage)dyn_storage": {
        "base": "t_string_storage",
        "encoding": "dynamic_array",
        "label": "string[]",
        "numberOfBytes": "32"
      },
      "t_bool": {
        "encoding": "inplace",
        "label": "bool",
        "numberOfBytes": "1"
      },
      "t_mapping(t_address,t_struct(BenefactorInfo)318_storage)": {
        "encoding": "mapping",
        "key": "t_address",
        "label": "mapping(address => struct BenefactorsDeadManSwitch.BenefactorInfo)",
        "numberOfBytes": "32",
        "value": "t_struct(BenefactorInfo)318_storage"
      },
      "t_mapping(t_address,t_struct(Beneficiary)299_storage)": {
        "encoding": "mapping",
        "key": "t_address",
        "label": "mapping(address => struct BenefactorsDeadManSwitch.Beneficiary)",
        "numberOfBytes": "32",
        "value": "t_struct(Beneficiary)299_storage"
      },
      "t_string_storage": {
        "encoding": "bytes",
        "label": "string",
        "numberOfBytes": "32"
      },
      "t_struct(BenefactorInfo)318_storage": {
        "encoding": "inplace",
        "label": "struct BenefactorsDeadManSwitch.BenefactorInfo",
        "members": [
          {
            "astId": 301,
            "contract": "DeadMansSwitch.sol:BenefactorsDeadManSwitch",
            "label": "exists",
            "offset": 0,
            "slot": "0",
            "type": "t_bool"
          },
          {
            "astId": 306,
            "contract": "DeadMansSwitch.sol:BenefactorsDeadManSwitch",
            "label": "beneficiaries",
            "offset": 0,
            "slot": "1",
            "type": "t_mapping(t_address,t_struct(Beneficiary)299_storage)"
          },
          {
            "astId": 309,
            "contract": "DeadMansSwitch.sol:BenefactorsDeadManSwitch",
            "label": "beneficiaryAddresses",
            "offset": 0,
            "slot": "2",
            "type": "t_array(t_address)dyn_storage"
          },
          {
            "astId": 311,
            "contract": "DeadMansSwitch.sol:BenefactorsDeadManSwitch",
            "label": "countdownDuration",
            "offset": 0,
            "slot": "3",
            "type": "t_uint256"
          },
          {
            "astId": 313,
            "contract": "DeadMansSwitch.sol:BenefactorsDeadManSwitch",
            "label": "lastBenefactorResponseTime",
            "offset": 0,
            "slot": "4",
            "type": "t_uint256"
          },
          {
            "astId": 315,
            "contract": "DeadMansSwitch.sol:BenefactorsDeadManSwitch",
            "label": "isSwitchedOff",
            "offset": 0,
            "slot": "5",
            "type": "t_bool"
          },
          {
            "astId": 317,
            "contract": "DeadMansSwitch.sol:BenefactorsDeadManSwitch",
            "label": "isAlive",
            "offset": 1,
            "slot": "5",
            "type": "t_bool"
          }
        ],
        "numberOfBytes": "192"
      },
      "t_struct(Beneficiary)299_storage": {
        "encoding": "inplace",
        "label": "struct BenefactorsDeadManSwitch.Beneficiary",
        "members": [
          {
            "astId": 291,
            "contract": "DeadMansSwitch.sol:BenefactorsDeadManSwitch",
            "label": "exists",
            "offset": 0,
            "slot": "0",
            "type": "t_bool"
          },
          {
            "astId": 294,
            "contract": "DeadMansSwitch.sol:BenefactorsDeadManSwitch",
            "label": "ipfsCIDs",
            "offset": 0,
            "slot": "1",
            "type": "t_array(t_string_storage)dyn_storage"
          },
          {
            "astId": 296,
            "contract": "DeadMansSwitch.sol:BenefactorsDeadManSwitch",
            "label": "benefactorPublicKey",
            "offset": 0,
            "slot": "2",
            "type": "t_string_storage"
          },
          {
            "astId": 298,
            "contract": "DeadMansSwitch.sol:BenefactorsDeadManSwitch",
            "label": "beneficiaryPublicKey",
            "offset": 0,
            "slot": "3",
            "type": "t_string_storage"
          }
        ],
        "numberOfBytes": "128"
      },
      "t_uint256": {
        "encoding": "inplace",
        "label": "uint256",
        "numberOfBytes": "32"
      }
    }
  },
  "userdoc": {
    "kind": "user",
    "methods": {},
    "version": 1
  }
}