{
  "abi": [
    {
      "inputs": [],
      "stateMutability": "nonpayable",
      "type": "constructor"
    },
    {
      "anonymous": false,
      "inputs": [
        {
          "indexed": true,
          "internalType": "address",
          "name": "benefactor",
          "type": "address"
        },
        {
          "indexed": false,
          "internalType": "string",
          "name": "aliveStatus",
          "type": "string"
        }
      ],
      "name": "BenefactorIsAlive",
      "type": "event"
    },
    {
      "anonymous": false,
      "inputs": [
        {
          "indexed": true,
          "internalType": "address",
          "name": "benefactor",
          "type": "address"
        },
        {
          "indexed": false,
          "internalType": "string",
          "name": "deadStatus",
          "type": "string"
        }
      ],
      "name": "BenefactorIsDead",
      "type": "event"
    },
    {
      "anonymous": false,
      "inputs": [
        {
          "indexed": true,
          "internalType": "address",
          "name": "benefactor",
          "type": "address"
        },
        {
          "indexed": false,
          "internalType": "string",
          "name": "key",
          "type": "string"
        }
      ],
      "name": "BenefactorKeyAdded",
      "type": "event"
    },
    {
      "anonymous": false,
      "inputs": [
        {
          "indexed": false,
          "internalType": "bool",
          "name": "switchStatus",
          "type": "bool"
        },
        {
          "indexed": false,
          "internalType": "address[]",
          "name": "beneficiaries",
          "type": "address[]"
        },
        {
          "indexed": false,
          "internalType": "uint256",
          "name": "remainingTime",
          "type": "uint256"
        },
        {
          "indexed": false,
          "internalType": "bool",
          "name": "isAlive",
          "type": "bool"
        },
        {
          "indexed": false,
          "internalType": "string",
          "name": "publicKey",
          "type": "string"
        },
        {
          "indexed": false,
          "internalType": "string[]",
          "name": "allIpfsCIDs",
          "type": "string[]"
        }
      ],
      "name": "BenefactorsData",
      "type": "event"
    },
    {
      "anonymous": false,
      "inputs": [
        {
          "indexed": false,
          "internalType": "bool",
          "name": "switchStatus",
          "type": "bool"
        },
        {
          "indexed": false,
          "internalType": "uint256",
          "name": "remainingTime",
          "type": "uint256"
        },
        {
          "indexed": false,
          "internalType": "bool",
          "name": "isAlive",
          "type": "bool"
        },
        {
          "indexed": false,
          "internalType": "string",
          "name": "publicKey",
          "type": "string"
        }
      ],
      "name": "BeneficiariesData",
      "type": "event"
    },
    {
      "anonymous": false,
      "inputs": [
        {
          "indexed": true,
          "internalType": "address",
          "name": "benefactor",
          "type": "address"
        },
        {
          "indexed": true,
          "internalType": "address",
          "name": "beneficiary",
          "type": "address"
        }
      ],
      "name": "BeneficiaryAdded",
      "type": "event"
    },
    {
      "anonymous": false,
      "inputs": [
        {
          "indexed": true,
          "internalType": "address",
          "name": "benefactor",
          "type": "address"
        },
        {
          "indexed": true,
          "internalType": "address",
          "name": "beneficiary",
          "type": "address"
        },
        {
          "indexed": false,
          "internalType": "string",
          "name": "key",
          "type": "string"
        }
      ],
      "name": "BeneficiaryKeyAdded",
      "type": "event"
    },
    {
      "anonymous": false,
      "inputs": [
        {
          "indexed": true,
          "internalType": "address",
          "name": "benefactor",
          "type": "address"
        },
        {
          "indexed": true,
          "internalType": "address",
          "name": "beneficiary",
          "type": "address"
        }
      ],
      "name": "BeneficiaryRemoved",
      "type": "event"
    },
    {
      "anonymous": false,
      "inputs": [
        {
          "indexed": true,
          "internalType": "address",
          "name": "benefactor",
          "type": "address"
        },
        {
          "indexed": true,
          "internalType": "address",
          "name": "caller",
          "type": "address"
        },
        {
          "indexed": false,
          "internalType": "uint256",
          "name": "responseTime",
          "type": "uint256"
        }
      ],
      "name": "DeadMansSwitchDisabled",
      "type": "event"
    },
    {
      "anonymous": false,
      "inputs": [
        {
          "indexed": true,
          "internalType": "address",
          "name": "benefactor",
          "type": "address"
        },
        {
          "indexed": true,
          "internalType": "address",
          "name": "beneficiary",
          "type": "address"
        },
        {
          "indexed": false,
          "internalType": "uint256",
          "name": "countdownDuration",
          "type": "uint256"
        }
      ],
      "name": "DeadMansSwitchEnabled",
      "type": "event"
    },
    {
      "anonymous": false,
      "inputs": [
        {
          "indexed": true,
          "internalType": "address",
          "name": "benefactor",
          "type": "address"
        },
        {
          "indexed": true,
          "internalType": "address",
          "name": "beneficiary",
          "type": "address"
        },
        {
          "indexed": false,
          "internalType": "string",
          "name": "ipfsCID",
          "type": "string"
        }
      ],
      "name": "IpfsCIDAdded",
      "type": "event"
    },
    {
      "anonymous": false,
      "inputs": [
        {
          "indexed": true,
          "internalType": "address",
          "name": "benefactor",
          "type": "address"
        },
        {
          "indexed": true,
          "internalType": "address",
          "name": "beneficiary",
          "type": "address"
        },
        {
          "indexed": false,
          "internalType": "string",
          "name": "ipfsCID",
          "type": "string"
        }
      ],
      "name": "IpfsCIDRemoved",
      "type": "event"
    },
    {
      "anonymous": false,
      "inputs": [
        {
          "indexed": true,
          "internalType": "address",
          "name": "benefactor",
          "type": "address"
        },
        {
          "indexed": false,
          "internalType": "uint256",
          "name": "countdownDuration",
          "type": "uint256"
        },
        {
          "indexed": false,
          "internalType": "uint256",
          "name": "responseTime",
          "type": "uint256"
        },
        {
          "indexed": false,
          "internalType": "uint256",
          "name": "currentTime",
          "type": "uint256"
        },
        {
          "indexed": false,
          "internalType": "uint256",
          "name": "lastBenefactorResponseTime",
          "type": "uint256"
        }
      ],
      "name": "RemainingCountdownInfo",
      "type": "event"
    },
    {
      "anonymous": false,
      "inputs": [
        {
          "indexed": true,
          "internalType": "address",
          "name": "benefactor",
          "type": "address"
        },
        {
          "indexed": true,
          "internalType": "address",
          "name": "caller",
          "type": "address"
        }
      ],
      "name": "SwitchAlreadyOff",
      "type": "event"
    },
    {
      "anonymous": false,
      "inputs": [
        {
          "indexed": true,
          "internalType": "address",
          "name": "benefactor",
          "type": "address"
        },
        {
          "indexed": true,
          "internalType": "address",
          "name": "caller",
          "type": "address"
        }
      ],
      "name": "SwitchAlreadyOn",
      "type": "event"
    },
    {
      "inputs": [
        {
          "internalType": "address",
          "name": "_benefactor",
          "type": "address"
        },
        {
          "internalType": "string",
          "name": "_key",
          "type": "string"
        }
      ],
      "name": "addBenefactorPublicKey",
      "outputs": [],
      "stateMutability": "nonpayable",
      "type": "function"
    },
    {
      "inputs": [
        {
          "internalType": "address[]",
          "name": "_beneficiaries",
          "type": "address[]"
        }
      ],
      "name": "addBeneficiaries",
      "outputs": [],
      "stateMutability": "nonpayable",
      "type": "function"
    },
    {
      "inputs": [
        {
          "internalType": "address",
          "name": "_benefactor",
          "type": "address"
        },
        {
          "internalType": "address",
          "name": "_beneficiary",
          "type": "address"
        },
        {
          "internalType": "string",
          "name": "_key",
          "type": "string"
        }
      ],
      "name": "addBeneficiaryPublicKey",
      "outputs": [],
      "stateMutability": "nonpayable",
      "type": "function"
    },
    {
      "inputs": [
        {
          "internalType": "address",
          "name": "_beneficiary",
          "type": "address"
        },
        {
          "internalType": "string[]",
          "name": "_ipfsCIDs",
          "type": "string[]"
        }
      ],
      "name": "addIpfsCIDs",
      "outputs": [],
      "stateMutability": "nonpayable",
      "type": "function"
    },
    {
      "inputs": [
        {
          "internalType": "address",
          "name": "_benefactor",
          "type": "address"
        }
      ],
      "name": "checkAliveStatus",
      "outputs": [
        {
          "internalType": "bool",
          "name": "",
          "type": "bool"
        }
      ],
      "stateMutability": "nonpayable",
      "type": "function"
    },
    {
      "inputs": [
        {
          "internalType": "address",
          "name": "_benefactor",
          "type": "address"
        }
      ],
      "name": "enableSwitch",
      "outputs": [],
      "stateMutability": "nonpayable",
      "type": "function"
    },
    {
      "inputs": [
        {
          "internalType": "address",
          "name": "_benefactor",
          "type": "address"
        }
      ],
      "name": "getBenefactorData",
      "outputs": [
        {
          "internalType": "bool",
          "name": "switchStatus",
          "type": "bool"
        },
        {
          "internalType": "address[]",
          "name": "beneficiaries",
          "type": "address[]"
        },
        {
          "internalType": "uint256",
          "name": "remainingTime",
          "type": "uint256"
        },
        {
          "internalType": "bool",
          "name": "isAlive",
          "type": "bool"
        },
        {
          "internalType": "string",
          "name": "publicKey",
          "type": "string"
        },
        {
          "internalType": "string[]",
          "name": "allIpfsCIDs",
          "type": "string[]"
        }
      ],
      "stateMutability": "nonpayable",
      "type": "function"
    },
    {
      "inputs": [
        {
          "internalType": "address",
          "name": "_benefactor",
          "type": "address"
        }
      ],
      "name": "getBenefactorPublicKey",
      "outputs": [
        {
          "internalType": "string",
          "name": "",
          "type": "string"
        }
      ],
      "stateMutability": "view",
      "type": "function"
    },
    {
      "inputs": [
        {
          "internalType": "address",
          "name": "_benefactor",
          "type": "address"
        },
        {
          "internalType": "address",
          "name": "_beneficiary",
          "type": "address"
        }
      ],
      "name": "getBeneficiaryData",
      "outputs": [
        {
          "internalType": "bool",
          "name": "switchStatus",
          "type": "bool"
        },
        {
          "internalType": "uint256",
          "name": "remainingTime",
          "type": "uint256"
        },
        {
          "internalType": "bool",
          "name": "isAlive",
          "type": "bool"
        },
        {
          "internalType": "string",
          "name": "publicKey",
          "type": "string"
        }
      ],
      "stateMutability": "nonpayable",
      "type": "function"
    },
    {
      "inputs": [
        {
          "internalType": "address",
          "name": "_benefactor",
          "type": "address"
        },
        {
          "internalType": "address",
          "name": "_beneficiary",
          "type": "address"
        }
      ],
      "name": "getBeneficiaryPublicKey",
      "outputs": [
        {
          "internalType": "string",
          "name": "",
          "type": "string"
        }
      ],
      "stateMutability": "view",
      "type": "function"
    },
    {
      "inputs": [
        {
          "internalType": "address",
          "name": "_benefactor",
          "type": "address"
        },
        {
          "internalType": "address",
          "name": "_beneficiary",
          "type": "address"
        }
      ],
      "name": "getCIDs",
      "outputs": [
        {
          "internalType": "string[]",
          "name": "",
          "type": "string[]"
        }
      ],
      "stateMutability": "view",
      "type": "function"
    },
    {
      "inputs": [
        {
          "internalType": "address",
          "name": "_benefactor",
          "type": "address"
        }
      ],
      "name": "getRemainingCountdownTime",
      "outputs": [
        {
          "internalType": "uint256",
          "name": "",
          "type": "uint256"
        }
      ],
      "stateMutability": "nonpayable",
      "type": "function"
    },
    {
      "inputs": [
        {
          "internalType": "address",
          "name": "_benefactor",
          "type": "address"
        }
      ],
      "name": "getSwitchStatus",
      "outputs": [
        {
          "internalType": "bool",
          "name": "",
          "type": "bool"
        }
      ],
      "stateMutability": "view",
      "type": "function"
    },
    {
      "inputs": [
        {
          "internalType": "address",
          "name": "_benefactor",
          "type": "address"
        },
        {
          "internalType": "address",
          "name": "_address",
          "type": "address"
        }
      ],
      "name": "isBeneficiary",
      "outputs": [
        {
          "internalType": "bool",
          "name": "",
          "type": "bool"
        }
      ],
      "stateMutability": "view",
      "type": "function"
    },
    {
      "inputs": [
        {
          "internalType": "address",
          "name": "_benefactor",
          "type": "address"
        }
      ],
      "name": "removeBenefactor",
      "outputs": [],
      "stateMutability": "nonpayable",
      "type": "function"
    },
    {
      "inputs": [
        {
          "internalType": "address",
          "name": "_beneficiary",
          "type": "address"
        }
      ],
      "name": "removeBeneficiary",
      "outputs": [],
      "stateMutability": "nonpayable",
      "type": "function"
    },
    {
      "inputs": [
        {
          "internalType": "address",
          "name": "_beneficiary",
          "type": "address"
        },
        {
          "internalType": "string",
          "name": "_ipfsCID",
          "type": "string"
        }
      ],
      "name": "removeIpfsCID",
      "outputs": [],
      "stateMutability": "nonpayable",
      "type": "function"
    },
    {
      "inputs": [],
      "name": "respondToSwitch",
      "outputs": [],
      "stateMutability": "nonpayable",
      "type": "function"
    },
    {
      "inputs": [],
      "name": "setBenefactor",
      "outputs": [],
      "stateMutability": "nonpayable",
      "type": "function"
    }
  ],
  "devdoc": {
    "details": "Smart contract for managing a benefactor's dead man's switch with assigned beneficiaries.",
    "kind": "dev",
    "methods": {
      "addBenefactorPublicKey(address,string)": {
        "details": "adds the benefactor public key to the specified benefactor-beneficiary pair"
      },
      "addBeneficiaries(address[])": {
        "details": "Adds new beneficiaries to the list. Only callable by the benefactor.",
        "params": {
          "_beneficiaries": "The addresses of the new beneficiaries."
        }
      },
      "addBeneficiaryPublicKey(address,address,string)": {
        "details": "adds the beneficiary public key to the specified benefactor-beneficiary pair"
      },
      "checkAliveStatus(address)": {
        "details": "Checks the alive status of the benefactor.",
        "params": {
          "_benefactor": "The address of the benefactor."
        },
        "returns": {
          "_0": "A boolean indicating whether the benefactor is alive."
        }
      },
      "enableSwitch(address)": {
        "details": "Enables the dead man's switch. Only callable by beneficiaries.",
        "params": {
          "_benefactor": "The address of the benefactor."
        }
      },
      "getBenefactorData(address)": {
        "details": "Returns current data of benefactor."
      },
      "getBenefactorPublicKey(address)": {
        "details": "returns the benefactor public key from the specified benefactor-beneficiary pair"
      },
      "getBeneficiaryData(address,address)": {
        "details": "Returns current status of benefactor to beneficiary."
      },
      "getBeneficiaryPublicKey(address,address)": {
        "details": "returns the beneficiary public key from the specified benefactor-beneficiary pair"
      },
      "getCIDs(address,address)": {
        "details": "Release CIDs to beneficiary.",
        "params": {
          "_benefactor": "The address of the benefactor.",
          "_beneficiary": "The address of the beneficiary."
        }
      },
      "getRemainingCountdownTime(address)": {
        "details": "Returns the remaining countdown time.",
        "params": {
          "_benefactor": "The address of the benefactor."
        },
        "returns": {
          "_0": "The remaining countdown time in seconds."
        }
      },
      "isBeneficiary(address,address)": {
        "details": "Checks if the given address is a beneficiary. Only benefactor",
        "params": {
          "_address": "The address to check."
        },
        "returns": {
          "_0": "A boolean indicating whether the address is a beneficiary."
        }
      },
      "removeBenefactor(address)": {
        "details": "Removes a benefactor. Only callable by benefactor."
      },
      "removeBeneficiary(address)": {
        "details": "Removes a beneficiary from the list. Only callable by the benefactor.",
        "params": {
          "_beneficiary": "The address of the beneficiary to be removed."
        }
      },
      "removeIpfsCID(address,string)": {
        "details": "Removes an IPFS CID from the specified beneficiary. Only callable by benefactor.",
        "params": {
          "_beneficiary": "The address of the beneficiary.",
          "_ipfsCID": "The IPFS CID to remove."
        }
      },
      "respondToSwitch()": {
        "details": "Performs actions based on benefactor's activity when responding to an enabled switch. Only callable by the benefactor."
      },
      "setBenefactor()": {
        "details": "Sets up a benefactor. Only callable by benefactor."
      }
    },
    "title": "BenefactorsDeadManSwitch",
    "version": 1
  },
  "evm": {
    "assembly": "    /* \"DeadMansSwitch.sol\":235:18339  contract BenefactorsDeadManSwitch {... */\n  mstore(0x40, 0x80)\n    /* \"DeadMansSwitch.sol\":2729:2745  constructor() {} */\n  callvalue\n  dup1\n  iszero\n  tag_1\n  jumpi\n  0x00\n  dup1\n  revert\ntag_1:\n  pop\n    /* \"DeadMansSwitch.sol\":235:18339  contract BenefactorsDeadManSwitch {... */\n  dataSize(sub_0)\n  dup1\n  dataOffset(sub_0)\n  0x00\n  codecopy\n  0x00\n  return\nstop\n\nsub_0: assembly {\n        /* \"DeadMansSwitch.sol\":235:18339  contract BenefactorsDeadManSwitch {... */\n      mstore(0x40, 0x80)\n      callvalue\n      dup1\n      iszero\n      tag_1\n      jumpi\n      0x00\n      dup1\n      revert\n    tag_1:\n      pop\n      jumpi(tag_2, lt(calldatasize, 0x04))\n      shr(0xe0, calldataload(0x00))\n      dup1\n      0x87c63714\n      gt\n      tag_22\n      jumpi\n      dup1\n      0xcd9c9362\n      gt\n      tag_23\n      jumpi\n      dup1\n      0xdf78bc54\n      gt\n      tag_24\n      jumpi\n      dup1\n      0xdf78bc54\n      eq\n      tag_19\n      jumpi\n      dup1\n      0xe9e6630a\n      eq\n      tag_20\n      jumpi\n      dup1\n      0xf892cb36\n      eq\n      tag_21\n      jumpi\n      0x00\n      dup1\n      revert\n    tag_24:\n      dup1\n      0xcd9c9362\n      eq\n      tag_17\n      jumpi\n      dup1\n      0xd0e2892c\n      eq\n      tag_18\n      jumpi\n      0x00\n      dup1\n      revert\n    tag_23:\n      dup1\n      0xa98d22bc\n      gt\n      tag_25\n      jumpi\n      dup1\n      0xa98d22bc\n      eq\n      tag_14\n      jumpi\n      dup1\n      0xb83f4805\n      eq\n      tag_15\n      jumpi\n      dup1\n      0xb944559d\n      eq\n      tag_16\n      jumpi\n      0x00\n      dup1\n      revert\n    tag_25:\n      dup1\n      0x87c63714\n      eq\n      tag_12\n      jumpi\n      dup1\n      0x8d5492e4\n      eq\n      tag_13\n      jumpi\n      0x00\n      dup1\n      revert\n    tag_22:\n      dup1\n      0x196ba7ef\n      gt\n      tag_26\n      jumpi\n      dup1\n      0x590411da\n      gt\n      tag_27\n      jumpi\n      dup1\n      0x590411da\n      eq\n      tag_9\n      jumpi\n      dup1\n      0x59633a1c\n      eq\n      tag_10\n      jumpi\n      dup1\n      0x6d769717\n      eq\n      tag_11\n      jumpi\n      0x00\n      dup1\n      revert\n    tag_27:\n      dup1\n      0x196ba7ef\n      eq\n      tag_7\n      jumpi\n      dup1\n      0x3dea2f84\n      eq\n      tag_8\n      jumpi\n      0x00\n      dup1\n      revert\n    tag_26:\n      dup1\n      0x01e2b33f\n      eq\n      tag_3\n      jumpi\n      dup1\n      0x072039a2\n      eq\n      tag_4\n      jumpi\n      dup1\n      0x07a8b767\n      eq\n      tag_5\n      jumpi\n      dup1\n      0x096e27d9\n      eq\n      tag_6\n      jumpi\n    tag_2:\n      0x00\n      dup1\n      revert\n        /* \"DeadMansSwitch.sol\":10516:11027  function getRemainingCountdownTime(address _benefactor) public returns (uint256) {... */\n    tag_3:\n      tag_28\n      tag_29\n      calldatasize\n      0x04\n      tag_30\n      jump\t// in\n    tag_29:\n      tag_31\n      jump\t// in\n    tag_28:\n      mload(0x40)\n        /* \"#utility.yul\":552:577   */\n      swap1\n      dup2\n      mstore\n        /* \"#utility.yul\":540:542   */\n      0x20\n        /* \"#utility.yul\":525:543   */\n      add\n        /* \"DeadMansSwitch.sol\":10516:11027  function getRemainingCountdownTime(address _benefactor) public returns (uint256) {... */\n    tag_32:\n      mload(0x40)\n      dup1\n      swap2\n      sub\n      swap1\n      return\n        /* \"DeadMansSwitch.sol\":11237:11821  function checkAliveStatus(address _benefactor) public returns (bool) {... */\n    tag_4:\n      tag_34\n      tag_35\n      calldatasize\n      0x04\n      tag_30\n      jump\t// in\n    tag_35:\n      tag_36\n      jump\t// in\n    tag_34:\n      mload(0x40)\n        /* \"#utility.yul\":849:863   */\n      swap1\n      iszero\n        /* \"#utility.yul\":842:864   */\n      iszero\n        /* \"#utility.yul\":824:865   */\n      dup2\n      mstore\n        /* \"#utility.yul\":812:814   */\n      0x20\n        /* \"#utility.yul\":797:815   */\n      add\n        /* \"DeadMansSwitch.sol\":11237:11821  function checkAliveStatus(address _benefactor) public returns (bool) {... */\n      tag_32\n        /* \"#utility.yul\":684:871   */\n      jump\n        /* \"DeadMansSwitch.sol\":5920:6137  function getSwitchStatus(address _benefactor) public view returns (bool) {... */\n    tag_5:\n      tag_34\n      tag_40\n      calldatasize\n      0x04\n      tag_30\n      jump\t// in\n    tag_40:\n      tag_41\n      jump\t// in\n        /* \"DeadMansSwitch.sol\":3541:3711  function isBeneficiary(address _benefactor, address _address) public view returns (bool) {... */\n    tag_6:\n      tag_34\n      tag_44\n      calldatasize\n      0x04\n      tag_45\n      jump\t// in\n    tag_44:\n      tag_46\n      jump\t// in\n        /* \"DeadMansSwitch.sol\":2835:3317  function setBenefactor() public{... */\n    tag_7:\n      tag_48\n      tag_49\n      jump\t// in\n    tag_48:\n      stop\n        /* \"DeadMansSwitch.sol\":4395:4759  function addBeneficiaryPublicKey(address _benefactor, address _beneficiary, string memory _key) public {... */\n    tag_8:\n      tag_48\n      tag_51\n      calldatasize\n      0x04\n      tag_52\n      jump\t// in\n    tag_51:\n      tag_53\n      jump\t// in\n        /* \"DeadMansSwitch.sol\":6787:7268  function addBeneficiaries(address[] calldata _beneficiaries) external onlyBenefactor {... */\n    tag_9:\n      tag_48\n      tag_55\n      calldatasize\n      0x04\n      tag_56\n      jump\t// in\n    tag_55:\n      tag_57\n      jump\t// in\n        /* \"DeadMansSwitch.sol\":6320:6612  function removeBeneficiary(address _beneficiary) external onlyBenefactor {... */\n    tag_10:\n      tag_48\n      tag_59\n      calldatasize\n      0x04\n      tag_30\n      jump\t// in\n    tag_59:\n      tag_60\n      jump\t// in\n        /* \"DeadMansSwitch.sol\":4877:5147  function getBenefactorPublicKey(address _benefactor) public view returns(string memory) {... */\n    tag_11:\n      tag_61\n      tag_62\n      calldatasize\n      0x04\n      tag_30\n      jump\t// in\n    tag_62:\n      tag_63\n      jump\t// in\n    tag_61:\n      mload(0x40)\n      tag_32\n      swap2\n      swap1\n      tag_65\n      jump\t// in\n        /* \"DeadMansSwitch.sol\":8461:9376  function removeIpfsCID(address _beneficiary, string memory _ipfsCID) external onlyBenefactor {... */\n    tag_12:\n      tag_48\n      tag_67\n      calldatasize\n      0x04\n      tag_68\n      jump\t// in\n    tag_67:\n      tag_69\n      jump\t// in\n        /* \"DeadMansSwitch.sol\":9538:10324  function enableSwitch(address _benefactor) external {... */\n    tag_13:\n      tag_48\n      tag_71\n      calldatasize\n      0x04\n      tag_30\n      jump\t// in\n    tag_71:\n      tag_72\n      jump\t// in\n        /* \"DeadMansSwitch.sol\":5680:5912  function removeBenefactor(address _benefactor) public {... */\n    tag_14:\n      tag_48\n      tag_74\n      calldatasize\n      0x04\n      tag_30\n      jump\t// in\n    tag_74:\n      tag_75\n      jump\t// in\n        /* \"DeadMansSwitch.sol\":17530:18336  function getBeneficiaryData(address _benefactor, address _beneficiary) public returns (bool switchStatus, uint256 remainingTime, bool isAlive, string memory publicKey) {... */\n    tag_15:\n      tag_76\n      tag_77\n      calldatasize\n      0x04\n      tag_45\n      jump\t// in\n    tag_77:\n      tag_78\n      jump\t// in\n    tag_76:\n      mload(0x40)\n      tag_32\n      swap5\n      swap4\n      swap3\n      swap2\n      swap1\n      tag_80\n      jump\t// in\n        /* \"DeadMansSwitch.sol\":4080:4283  function addBenefactorPublicKey(address _benefactor, string memory _key) public {... */\n    tag_16:\n      tag_48\n      tag_82\n      calldatasize\n      0x04\n      tag_68\n      jump\t// in\n    tag_82:\n      tag_83\n      jump\t// in\n        /* \"DeadMansSwitch.sol\":12418:13117  function respondToSwitch() external onlyBenefactor {... */\n    tag_17:\n      tag_48\n      tag_85\n      jump\t// in\n        /* \"DeadMansSwitch.sol\":7276:8233  function addIpfsCIDs(address _beneficiary, string[] memory _ipfsCIDs) external onlyBenefactor {... */\n    tag_18:\n      tag_48\n      tag_87\n      calldatasize\n      0x04\n      tag_88\n      jump\t// in\n    tag_87:\n      tag_89\n      jump\t// in\n        /* \"DeadMansSwitch.sol\":13307:13716  function getCIDs(address _benefactor, address _beneficiary) public view returns (string[] memory){... */\n    tag_19:\n      tag_90\n      tag_91\n      calldatasize\n      0x04\n      tag_45\n      jump\t// in\n    tag_91:\n      tag_92\n      jump\t// in\n    tag_90:\n      mload(0x40)\n      tag_32\n      swap2\n      swap1\n      tag_94\n      jump\t// in\n        /* \"DeadMansSwitch.sol\":15754:17436  function getBenefactorData(address _benefactor) public returns (bool switchStatus, address[] memory beneficiaries, uint256 remainingTime, bool isAlive, string memory publicKey, string[] memory allIpfsCIDs) {... */\n    tag_20:\n      tag_95\n      tag_96\n      calldatasize\n      0x04\n      tag_30\n      jump\t// in\n    tag_96:\n      tag_97\n      jump\t// in\n    tag_95:\n      mload(0x40)\n      tag_32\n      swap7\n      swap6\n      swap5\n      swap4\n      swap3\n      swap2\n      swap1\n      tag_99\n      jump\t// in\n        /* \"DeadMansSwitch.sol\":5266:5590  function getBeneficiaryPublicKey(address _benefactor, address _beneficiary) public view returns(string memory) {... */\n    tag_21:\n      tag_61\n      tag_101\n      calldatasize\n      0x04\n      tag_45\n      jump\t// in\n    tag_101:\n      tag_102\n      jump\t// in\n        /* \"DeadMansSwitch.sol\":10516:11027  function getRemainingCountdownTime(address _benefactor) public returns (uint256) {... */\n    tag_31:\n      sub(shl(0xa0, 0x01), 0x01)\n        /* \"DeadMansSwitch.sol\":10649:10673  benefactors[_benefactor] */\n      dup2\n      and\n        /* \"DeadMansSwitch.sol\":10588:10595  uint256 */\n      0x00\n        /* \"DeadMansSwitch.sol\":10649:10673  benefactors[_benefactor] */\n      swap1\n      dup2\n      mstore\n      0x20\n      dup2\n      swap1\n      mstore\n      0x40\n      dup2\n      keccak256\n        /* \"DeadMansSwitch.sol\":10649:10700  benefactors[_benefactor].lastBenefactorResponseTime */\n      0x03\n      add\n      sload\n        /* \"DeadMansSwitch.sol\":10588:10595  uint256 */\n      dup2\n      swap1\n        /* \"DeadMansSwitch.sol\":10631:10700  block.timestamp - benefactors[_benefactor].lastBenefactorResponseTime */\n      tag_105\n      swap1\n        /* \"DeadMansSwitch.sol\":10631:10646  block.timestamp */\n      timestamp\n        /* \"DeadMansSwitch.sol\":10631:10700  block.timestamp - benefactors[_benefactor].lastBenefactorResponseTime */\n      tag_106\n      jump\t// in\n    tag_105:\n      sub(shl(0xa0, 0x01), 0x01)\n        /* \"DeadMansSwitch.sol\":10716:10878  RemainingCountdownInfo(_benefactor,benefactors[_benefactor].countdownDuration, responseTime, block.timestamp, benefactors[_benefactor].lastBenefactorResponseTime) */\n      dup5\n      and\n        /* \"DeadMansSwitch.sol\":10751:10762  benefactors */\n      0x00\n        /* \"DeadMansSwitch.sol\":10751:10775  benefactors[_benefactor] */\n      dup2\n      dup2\n      mstore\n      0x20\n      dup2\n      dup2\n      mstore\n      0x40\n      swap2\n      dup3\n      swap1\n      keccak256\n        /* \"DeadMansSwitch.sol\":10751:10793  benefactors[_benefactor].countdownDuration */\n      0x02\n      dup2\n      add\n      sload\n        /* \"DeadMansSwitch.sol\":10826:10877  benefactors[_benefactor].lastBenefactorResponseTime */\n      0x03\n      swap1\n      swap2\n      add\n      sload\n        /* \"DeadMansSwitch.sol\":10716:10878  RemainingCountdownInfo(_benefactor,benefactors[_benefactor].countdownDuration, responseTime, block.timestamp, benefactors[_benefactor].lastBenefactorResponseTime) */\n      dup4\n      mload\n        /* \"#utility.yul\":8720:8745   */\n      swap2\n      dup3\n      mstore\n        /* \"#utility.yul\":8761:8779   */\n      swap2\n      dup2\n      add\n        /* \"#utility.yul\":8754:8788   */\n      dup6\n      swap1\n      mstore\n        /* \"DeadMansSwitch.sol\":10809:10824  block.timestamp */\n      timestamp\n        /* \"#utility.yul\":8804:8822   */\n      swap3\n      dup2\n      add\n        /* \"#utility.yul\":8797:8831   */\n      swap3\n      swap1\n      swap3\n      mstore\n        /* \"#utility.yul\":8862:8864   */\n      0x60\n        /* \"#utility.yul\":8847:8865   */\n      dup3\n      add\n        /* \"#utility.yul\":8840:8874   */\n      mstore\n        /* \"DeadMansSwitch.sol\":10608:10700  uint256 responseTime = block.timestamp - benefactors[_benefactor].lastBenefactorResponseTime */\n      swap2\n      swap3\n      pop\n        /* \"DeadMansSwitch.sol\":10716:10878  RemainingCountdownInfo(_benefactor,benefactors[_benefactor].countdownDuration, responseTime, block.timestamp, benefactors[_benefactor].lastBenefactorResponseTime) */\n      swap1\n      0x74a7c0c2e8065fcdbfca5ae9f6cf0233e47e9e75b6fcf75674dd4b7e3f9b8183\n      swap1\n        /* \"#utility.yul\":8707:8710   */\n      0x80\n        /* \"#utility.yul\":8692:8711   */\n      add\n        /* \"DeadMansSwitch.sol\":10716:10878  RemainingCountdownInfo(_benefactor,benefactors[_benefactor].countdownDuration, responseTime, block.timestamp, benefactors[_benefactor].lastBenefactorResponseTime) */\n      mload(0x40)\n      dup1\n      swap2\n      sub\n      swap1\n      log2\n      sub(shl(0xa0, 0x01), 0x01)\n        /* \"DeadMansSwitch.sol\":10912:10936  benefactors[_benefactor] */\n      dup4\n      and\n        /* \"DeadMansSwitch.sol\":10912:10923  benefactors */\n      0x00\n        /* \"DeadMansSwitch.sol\":10912:10936  benefactors[_benefactor] */\n      swap1\n      dup2\n      mstore\n      0x20\n      dup2\n      swap1\n      mstore\n      0x40\n      swap1\n      keccak256\n        /* \"DeadMansSwitch.sol\":10912:10954  benefactors[_benefactor].countdownDuration */\n      0x02\n      add\n      sload\n        /* \"DeadMansSwitch.sol\":10897:10954  responseTime > benefactors[_benefactor].countdownDuration */\n      dup2\n      gt\n        /* \"DeadMansSwitch.sol\":10896:11019  (responseTime > benefactors[_benefactor].countdownDuration) ? 0 : benefactors[_benefactor].countdownDuration - responseTime */\n      tag_109\n      jumpi\n      sub(shl(0xa0, 0x01), 0x01)\n        /* \"DeadMansSwitch.sol\":10962:10986  benefactors[_benefactor] */\n      dup4\n      and\n        /* \"DeadMansSwitch.sol\":10962:10973  benefactors */\n      0x00\n        /* \"DeadMansSwitch.sol\":10962:10986  benefactors[_benefactor] */\n      swap1\n      dup2\n      mstore\n      0x20\n      dup2\n      swap1\n      mstore\n      0x40\n      swap1\n      keccak256\n        /* \"DeadMansSwitch.sol\":10962:11004  benefactors[_benefactor].countdownDuration */\n      0x02\n      add\n      sload\n        /* \"DeadMansSwitch.sol\":10962:11019  benefactors[_benefactor].countdownDuration - responseTime */\n      tag_110\n      swap1\n        /* \"DeadMansSwitch.sol\":11007:11019  responseTime */\n      dup3\n      swap1\n        /* \"DeadMansSwitch.sol\":10962:11019  benefactors[_benefactor].countdownDuration - responseTime */\n      tag_106\n      jump\t// in\n    tag_110:\n        /* \"DeadMansSwitch.sol\":10896:11019  (responseTime > benefactors[_benefactor].countdownDuration) ? 0 : benefactors[_benefactor].countdownDuration - responseTime */\n      jump(tag_111)\n    tag_109:\n        /* \"DeadMansSwitch.sol\":10958:10959  0 */\n      0x00\n        /* \"DeadMansSwitch.sol\":10896:11019  (responseTime > benefactors[_benefactor].countdownDuration) ? 0 : benefactors[_benefactor].countdownDuration - responseTime */\n    tag_111:\n        /* \"DeadMansSwitch.sol\":10889:11019  return (responseTime > benefactors[_benefactor].countdownDuration) ? 0 : benefactors[_benefactor].countdownDuration - responseTime */\n      swap4\n        /* \"DeadMansSwitch.sol\":10516:11027  function getRemainingCountdownTime(address _benefactor) public returns (uint256) {... */\n      swap3\n      pop\n      pop\n      pop\n      jump\t// out\n        /* \"DeadMansSwitch.sol\":11237:11821  function checkAliveStatus(address _benefactor) public returns (bool) {... */\n    tag_36:\n        /* \"DeadMansSwitch.sol\":11300:11304  bool */\n      0x00\n        /* \"DeadMansSwitch.sol\":11321:11349  getSwitchStatus(_benefactor) */\n      tag_113\n        /* \"DeadMansSwitch.sol\":11337:11348  _benefactor */\n      dup3\n        /* \"DeadMansSwitch.sol\":11321:11336  getSwitchStatus */\n      tag_41\n        /* \"DeadMansSwitch.sol\":11321:11349  getSwitchStatus(_benefactor) */\n      jump\t// in\n    tag_113:\n        /* \"DeadMansSwitch.sol\":11317:11674  if (getSwitchStatus(_benefactor)){... */\n      iszero\n      tag_115\n      jumpi\n      sub(shl(0xa0, 0x01), 0x01)\n        /* \"DeadMansSwitch.sol\":11369:11393  benefactors[_benefactor] */\n      dup3\n      and\n        /* \"DeadMansSwitch.sol\":11369:11380  benefactors */\n      0x00\n        /* \"DeadMansSwitch.sol\":11369:11393  benefactors[_benefactor] */\n      swap1\n      dup2\n      mstore\n      0x20\n      dup2\n      swap1\n      mstore\n      0x40\n      swap1\n      keccak256\n        /* \"DeadMansSwitch.sol\":11369:11420  benefactors[_benefactor].lastBenefactorResponseTime */\n      0x03\n      add\n      sload\n        /* \"DeadMansSwitch.sol\":11369:11425  benefactors[_benefactor].lastBenefactorResponseTime != 0 */\n      iszero\n        /* \"DeadMansSwitch.sol\":11365:11660  if (benefactors[_benefactor].lastBenefactorResponseTime != 0) {... */\n      tag_115\n      jumpi\n        /* \"DeadMansSwitch.sol\":11446:11472  uint256 remainingCountdown */\n      0x00\n        /* \"DeadMansSwitch.sol\":11475:11513  getRemainingCountdownTime(_benefactor) */\n      tag_116\n        /* \"DeadMansSwitch.sol\":11501:11512  _benefactor */\n      dup4\n        /* \"DeadMansSwitch.sol\":11475:11500  getRemainingCountdownTime */\n      tag_31\n        /* \"DeadMansSwitch.sol\":11475:11513  getRemainingCountdownTime(_benefactor) */\n      jump\t// in\n    tag_116:\n        /* \"DeadMansSwitch.sol\":11446:11513  uint256 remainingCountdown = getRemainingCountdownTime(_benefactor) */\n      swap1\n      pop\n        /* \"DeadMansSwitch.sol\":11558:11559  0 */\n      0x00\n        /* \"DeadMansSwitch.sol\":11536:11554  remainingCountdown */\n      dup2\n        /* \"DeadMansSwitch.sol\":11536:11559  remainingCountdown <= 0 */\n      gt\n        /* \"DeadMansSwitch.sol\":11532:11644  if (remainingCountdown <= 0) {... */\n      tag_117\n      jumpi\n      sub(shl(0xa0, 0x01), 0x01)\n        /* \"DeadMansSwitch.sol\":11584:11608  benefactors[_benefactor] */\n      dup4\n      and\n        /* \"DeadMansSwitch.sol\":11619:11624  false */\n      0x00\n        /* \"DeadMansSwitch.sol\":11584:11608  benefactors[_benefactor] */\n      swap1\n      dup2\n      mstore\n      0x20\n      dup2\n      swap1\n      mstore\n      0x40\n      swap1\n      keccak256\n        /* \"DeadMansSwitch.sol\":11584:11616  benefactors[_benefactor].isAlive */\n      0x04\n      add\n        /* \"DeadMansSwitch.sol\":11584:11624  benefactors[_benefactor].isAlive = false */\n      dup1\n      sload\n      not(0xff00)\n      and\n      swap1\n      sstore\n        /* \"DeadMansSwitch.sol\":11532:11644  if (remainingCountdown <= 0) {... */\n    tag_117:\n        /* \"DeadMansSwitch.sol\":11427:11660  {... */\n      pop\n        /* \"DeadMansSwitch.sol\":11365:11660  if (benefactors[_benefactor].lastBenefactorResponseTime != 0) {... */\n    tag_115:\n      pop\n      sub(shl(0xa0, 0x01), 0x01)\n        /* \"DeadMansSwitch.sol\":11781:11805  benefactors[_benefactor] */\n      and\n        /* \"DeadMansSwitch.sol\":11781:11792  benefactors */\n      0x00\n        /* \"DeadMansSwitch.sol\":11781:11805  benefactors[_benefactor] */\n      swap1\n      dup2\n      mstore\n      0x20\n      dup2\n      swap1\n      mstore\n      0x40\n      swap1\n      keccak256\n        /* \"DeadMansSwitch.sol\":11781:11813  benefactors[_benefactor].isAlive */\n      0x04\n      add\n      sload\n      0x0100\n      swap1\n      div\n      0xff\n      and\n      swap1\n        /* \"DeadMansSwitch.sol\":11237:11821  function checkAliveStatus(address _benefactor) public returns (bool) {... */\n      jump\t// out\n        /* \"DeadMansSwitch.sol\":5920:6137  function getSwitchStatus(address _benefactor) public view returns (bool) {... */\n    tag_41:\n      sub(shl(0xa0, 0x01), 0x01)\n        /* \"DeadMansSwitch.sol\":6012:6036  benefactors[_benefactor] */\n      dup2\n      and\n        /* \"DeadMansSwitch.sol\":5987:5991  bool */\n      0x00\n        /* \"DeadMansSwitch.sol\":6012:6036  benefactors[_benefactor] */\n      swap1\n      dup2\n      mstore\n      0x20\n      dup2\n      swap1\n      mstore\n      0x40\n      dup2\n      keccak256\n        /* \"DeadMansSwitch.sol\":6012:6043  benefactors[_benefactor].exists */\n      sload\n      0xff\n      and\n        /* \"DeadMansSwitch.sol\":6004:6072  require(benefactors[_benefactor].exists,\"Benefactor does not exist\") */\n      tag_119\n      jumpi\n      mload(0x40)\n      shl(0xe5, 0x461bcd)\n      dup2\n      mstore\n        /* \"#utility.yul\":9087:9089   */\n      0x20\n        /* \"DeadMansSwitch.sol\":6004:6072  require(benefactors[_benefactor].exists,\"Benefactor does not exist\") */\n      0x04\n      dup3\n      add\n        /* \"#utility.yul\":9069:9090   */\n      mstore\n        /* \"#utility.yul\":9126:9128   */\n      0x19\n        /* \"#utility.yul\":9106:9124   */\n      0x24\n      dup3\n      add\n        /* \"#utility.yul\":9099:9129   */\n      mstore\n        /* \"#utility.yul\":9165:9192   */\n      0x42656e65666163746f7220646f6573206e6f7420657869737400000000000000\n        /* \"#utility.yul\":9145:9163   */\n      0x44\n      dup3\n      add\n        /* \"#utility.yul\":9138:9193   */\n      mstore\n        /* \"#utility.yul\":9210:9228   */\n      0x64\n      add\n        /* \"DeadMansSwitch.sol\":6004:6072  require(benefactors[_benefactor].exists,\"Benefactor does not exist\") */\n    tag_120:\n      mload(0x40)\n      dup1\n      swap2\n      sub\n      swap1\n      revert\n    tag_119:\n      pop\n      sub(shl(0xa0, 0x01), 0x01)\n        /* \"DeadMansSwitch.sol\":6091:6115  benefactors[_benefactor] */\n      and\n        /* \"DeadMansSwitch.sol\":6091:6102  benefactors */\n      0x00\n        /* \"DeadMansSwitch.sol\":6091:6115  benefactors[_benefactor] */\n      swap1\n      dup2\n      mstore\n      0x20\n      dup2\n      swap1\n      mstore\n      0x40\n      swap1\n      keccak256\n        /* \"DeadMansSwitch.sol\":6091:6129  benefactors[_benefactor].isSwitchedOff */\n      0x04\n      add\n      sload\n      0xff\n      and\n        /* \"DeadMansSwitch.sol\":6090:6129  !benefactors[_benefactor].isSwitchedOff */\n      iszero\n      swap1\n        /* \"DeadMansSwitch.sol\":5920:6137  function getSwitchStatus(address _benefactor) public view returns (bool) {... */\n      jump\t// out\n        /* \"DeadMansSwitch.sol\":3541:3711  function isBeneficiary(address _benefactor, address _address) public view returns (bool) {... */\n    tag_46:\n      sub(shl(0xa0, 0x01), 0x01)\n        /* \"DeadMansSwitch.sol\":3648:3672  benefactors[_benefactor] */\n      dup1\n      dup4\n      and\n        /* \"DeadMansSwitch.sol\":3624:3628  bool */\n      0x00\n        /* \"DeadMansSwitch.sol\":3648:3672  benefactors[_benefactor] */\n      swap1\n      dup2\n      mstore\n      0x20\n      dup2\n      dup2\n      mstore\n      0x40\n      dup1\n      dup4\n      keccak256\n        /* \"DeadMansSwitch.sol\":3648:3696  benefactors[_benefactor].beneficiaries[_address] */\n      swap4\n      dup6\n      and\n      dup4\n      mstore\n        /* \"DeadMansSwitch.sol\":3648:3686  benefactors[_benefactor].beneficiaries */\n      0x01\n      swap1\n      swap4\n      add\n        /* \"DeadMansSwitch.sol\":3648:3696  benefactors[_benefactor].beneficiaries[_address] */\n      swap1\n      mstore\n      keccak256\n        /* \"DeadMansSwitch.sol\":3648:3703  benefactors[_benefactor].beneficiaries[_address].exists */\n      sload\n      0xff\n      and\n        /* \"DeadMansSwitch.sol\":3541:3711  function isBeneficiary(address _benefactor, address _address) public view returns (bool) {... */\n    tag_122:\n      swap3\n      swap2\n      pop\n      pop\n      jump\t// out\n        /* \"DeadMansSwitch.sol\":2835:3317  function setBenefactor() public{... */\n    tag_49:\n        /* \"DeadMansSwitch.sol\":2889:2899  msg.sender */\n      caller\n        /* \"DeadMansSwitch.sol\":2877:2888  benefactors */\n      0x00\n        /* \"DeadMansSwitch.sol\":2877:2900  benefactors[msg.sender] */\n      dup2\n      dup2\n      mstore\n      0x20\n      dup2\n      dup2\n      mstore\n      0x40\n      dup1\n      dup4\n      keccak256\n        /* \"DeadMansSwitch.sol\":2877:2912  benefactors[msg.sender].exists=true */\n      dup1\n      sload\n      not(0xff)\n      and\n        /* \"DeadMansSwitch.sol\":2908:2912  true */\n      0x01\n        /* \"DeadMansSwitch.sol\":2877:2912  benefactors[msg.sender].exists=true */\n      or\n      dup2\n      sstore\n        /* \"DeadMansSwitch.sol\":2967:2984  7*24*3600 seconds */\n      0x093a80\n        /* \"DeadMansSwitch.sol\":2923:2964  benefactors[msg.sender].countdownDuration */\n      0x02\n      dup3\n      add\n        /* \"DeadMansSwitch.sol\":2923:2984  benefactors[msg.sender].countdownDuration = 7*24*3600 seconds */\n      sstore\n        /* \"DeadMansSwitch.sol\":3092:3129  benefactors[msg.sender].isSwitchedOff */\n      0x04\n      dup2\n      add\n        /* \"DeadMansSwitch.sol\":3092:3136  benefactors[msg.sender].isSwitchedOff = true */\n      dup1\n      sload\n        /* \"DeadMansSwitch.sol\":3147:3185  benefactors[msg.sender].isAlive = true */\n      0x0101\n      not(0xffff)\n      swap1\n      swap2\n      and\n      or\n      swap1\n      sstore\n        /* \"DeadMansSwitch.sol\":3196:3246  benefactors[msg.sender].lastBenefactorResponseTime */\n      0x03\n      dup2\n      add\n        /* \"DeadMansSwitch.sol\":3196:3250  benefactors[msg.sender].lastBenefactorResponseTime = 0 */\n      dup5\n      swap1\n      sstore\n        /* \"DeadMansSwitch.sol\":3261:3309  benefactors[msg.sender].benefactorPublicKey = \"\" */\n      dup2\n      mload\n      dup1\n      dup5\n      add\n      swap1\n      swap3\n      mstore\n      dup4\n      dup3\n      mstore\n        /* \"DeadMansSwitch.sol\":3261:3284  benefactors[msg.sender] */\n      swap4\n      dup4\n      mstore\n      swap2\n      swap1\n      mstore\n        /* \"DeadMansSwitch.sol\":3261:3304  benefactors[msg.sender].benefactorPublicKey */\n      0x05\n      swap1\n      swap2\n      add\n      swap1\n        /* \"DeadMansSwitch.sol\":3261:3309  benefactors[msg.sender].benefactorPublicKey = \"\" */\n      tag_124\n      swap1\n        /* \"DeadMansSwitch.sol\":3261:3304  benefactors[msg.sender].benefactorPublicKey */\n      dup3\n        /* \"DeadMansSwitch.sol\":3261:3309  benefactors[msg.sender].benefactorPublicKey = \"\" */\n      tag_125\n      jump\t// in\n    tag_124:\n      pop\n        /* \"DeadMansSwitch.sol\":2835:3317  function setBenefactor() public{... */\n      jump\t// out\n        /* \"DeadMansSwitch.sol\":4395:4759  function addBeneficiaryPublicKey(address _benefactor, address _beneficiary, string memory _key) public {... */\n    tag_53:\n        /* \"DeadMansSwitch.sol\":4517:4556  isBeneficiary(_benefactor,_beneficiary) */\n      tag_127\n        /* \"DeadMansSwitch.sol\":4531:4542  _benefactor */\n      dup4\n        /* \"DeadMansSwitch.sol\":4543:4555  _beneficiary */\n      dup4\n        /* \"DeadMansSwitch.sol\":4517:4530  isBeneficiary */\n      tag_46\n        /* \"DeadMansSwitch.sol\":4517:4556  isBeneficiary(_benefactor,_beneficiary) */\n      jump\t// in\n    tag_127:\n        /* \"DeadMansSwitch.sol\":4509:4593  require(isBeneficiary(_benefactor,_beneficiary), \"Beneficiary/Benefactor not found\") */\n      tag_128\n      jumpi\n      mload(0x40)\n      shl(0xe5, 0x461bcd)\n      dup2\n      mstore\n        /* \"#utility.yul\":12030:12032   */\n      0x20\n        /* \"DeadMansSwitch.sol\":4509:4593  require(isBeneficiary(_benefactor,_beneficiary), \"Beneficiary/Benefactor not found\") */\n      0x04\n      dup3\n      add\n        /* \"#utility.yul\":12012:12033   */\n      dup2\n      swap1\n      mstore\n        /* \"#utility.yul\":12049:12067   */\n      0x24\n      dup3\n      add\n        /* \"#utility.yul\":12042:12072   */\n      mstore\n        /* \"#utility.yul\":12108:12142   */\n      0x42656e65666963696172792f42656e65666163746f72206e6f7420666f756e64\n        /* \"#utility.yul\":12088:12106   */\n      0x44\n      dup3\n      add\n        /* \"#utility.yul\":12081:12143   */\n      mstore\n        /* \"#utility.yul\":12160:12178   */\n      0x64\n      add\n        /* \"DeadMansSwitch.sol\":4509:4593  require(isBeneficiary(_benefactor,_beneficiary), \"Beneficiary/Benefactor not found\") */\n      tag_120\n        /* \"#utility.yul\":11828:12184   */\n      jump\n        /* \"DeadMansSwitch.sol\":4509:4593  require(isBeneficiary(_benefactor,_beneficiary), \"Beneficiary/Benefactor not found\") */\n    tag_128:\n      sub(shl(0xa0, 0x01), 0x01)\n        /* \"DeadMansSwitch.sol\":4604:4628  benefactors[_benefactor] */\n      dup1\n      dup5\n      and\n        /* \"DeadMansSwitch.sol\":4604:4615  benefactors */\n      0x00\n        /* \"DeadMansSwitch.sol\":4604:4628  benefactors[_benefactor] */\n      swap1\n      dup2\n      mstore\n      0x20\n      dup2\n      dup2\n      mstore\n      0x40\n      dup1\n      dup4\n      keccak256\n        /* \"DeadMansSwitch.sol\":4604:4656  benefactors[_benefactor].beneficiaries[_beneficiary] */\n      swap4\n      dup7\n      and\n      dup4\n      mstore\n        /* \"DeadMansSwitch.sol\":4604:4642  benefactors[_benefactor].beneficiaries */\n      0x01\n      swap1\n      swap4\n      add\n        /* \"DeadMansSwitch.sol\":4604:4656  benefactors[_benefactor].beneficiaries[_beneficiary] */\n      swap1\n      mstore\n      keccak256\n        /* \"DeadMansSwitch.sol\":4604:4677  benefactors[_benefactor].beneficiaries[_beneficiary].beneficiaryPublicKey */\n      0x02\n      add\n        /* \"DeadMansSwitch.sol\":4604:4684  benefactors[_benefactor].beneficiaries[_beneficiary].beneficiaryPublicKey = _key */\n      tag_131\n        /* \"DeadMansSwitch.sol\":4680:4684  _key */\n      dup3\n        /* \"DeadMansSwitch.sol\":4604:4677  benefactors[_benefactor].beneficiaries[_beneficiary].beneficiaryPublicKey */\n      dup3\n        /* \"DeadMansSwitch.sol\":4604:4684  benefactors[_benefactor].beneficiaries[_beneficiary].beneficiaryPublicKey = _key */\n      tag_125\n      jump\t// in\n    tag_131:\n      pop\n        /* \"DeadMansSwitch.sol\":4732:4744  _beneficiary */\n      dup2\n      sub(shl(0xa0, 0x01), 0x01)\n        /* \"DeadMansSwitch.sol\":4700:4751  BeneficiaryKeyAdded(_benefactor,_beneficiary, _key) */\n      and\n        /* \"DeadMansSwitch.sol\":4720:4731  _benefactor */\n      dup4\n      sub(shl(0xa0, 0x01), 0x01)\n        /* \"DeadMansSwitch.sol\":4700:4751  BeneficiaryKeyAdded(_benefactor,_beneficiary, _key) */\n      and\n      0x69ccea10852ac51b01745414774b5af302217e774786d2068296650b57ba03f2\n        /* \"DeadMansSwitch.sol\":4746:4750  _key */\n      dup4\n        /* \"DeadMansSwitch.sol\":4700:4751  BeneficiaryKeyAdded(_benefactor,_beneficiary, _key) */\n      mload(0x40)\n      tag_132\n      swap2\n      swap1\n      tag_65\n      jump\t// in\n    tag_132:\n      mload(0x40)\n      dup1\n      swap2\n      sub\n      swap1\n      log3\n        /* \"DeadMansSwitch.sol\":4395:4759  function addBeneficiaryPublicKey(address _benefactor, address _beneficiary, string memory _key) public {... */\n      pop\n      pop\n      pop\n      jump\t// out\n        /* \"DeadMansSwitch.sol\":6787:7268  function addBeneficiaries(address[] calldata _beneficiaries) external onlyBenefactor {... */\n    tag_57:\n        /* \"DeadMansSwitch.sol\":2621:2631  msg.sender */\n      caller\n        /* \"DeadMansSwitch.sol\":2609:2620  benefactors */\n      0x00\n        /* \"DeadMansSwitch.sol\":2609:2632  benefactors[msg.sender] */\n      swap1\n      dup2\n      mstore\n      0x20\n      dup2\n      swap1\n      mstore\n      0x40\n      swap1\n      keccak256\n        /* \"DeadMansSwitch.sol\":2609:2639  benefactors[msg.sender].exists */\n      sload\n      0xff\n      and\n        /* \"DeadMansSwitch.sol\":2609:2674  benefactors[msg.sender].exists && benefactors[msg.sender].isAlive */\n      dup1\n      iszero\n      tag_134\n      jumpi\n      pop\n        /* \"DeadMansSwitch.sol\":2655:2665  msg.sender */\n      caller\n        /* \"DeadMansSwitch.sol\":2643:2654  benefactors */\n      0x00\n        /* \"DeadMansSwitch.sol\":2643:2666  benefactors[msg.sender] */\n      swap1\n      dup2\n      mstore\n      0x20\n      dup2\n      swap1\n      mstore\n      0x40\n      swap1\n      keccak256\n        /* \"DeadMansSwitch.sol\":2643:2674  benefactors[msg.sender].isAlive */\n      0x04\n      add\n      sload\n      0x0100\n      swap1\n      div\n      0xff\n      and\n        /* \"DeadMansSwitch.sol\":2609:2674  benefactors[msg.sender].exists && benefactors[msg.sender].isAlive */\n    tag_134:\n        /* \"DeadMansSwitch.sol\":2601:2701  require(benefactors[msg.sender].exists && benefactors[msg.sender].isAlive, \"Not a valid benefactor\") */\n      tag_135\n      jumpi\n      mload(0x40)\n      shl(0xe5, 0x461bcd)\n      dup2\n      mstore\n        /* \"#utility.yul\":12391:12393   */\n      0x20\n        /* \"DeadMansSwitch.sol\":2601:2701  require(benefactors[msg.sender].exists && benefactors[msg.sender].isAlive, \"Not a valid benefactor\") */\n      0x04\n      dup3\n      add\n        /* \"#utility.yul\":12373:12394   */\n      mstore\n        /* \"#utility.yul\":12430:12432   */\n      0x16\n        /* \"#utility.yul\":12410:12428   */\n      0x24\n      dup3\n      add\n        /* \"#utility.yul\":12403:12433   */\n      mstore\n      shl(0x51, 0x2737ba1030903b30b634b2103132b732b330b1ba37b9)\n        /* \"#utility.yul\":12449:12467   */\n      0x44\n      dup3\n      add\n        /* \"#utility.yul\":12442:12494   */\n      mstore\n        /* \"#utility.yul\":12511:12529   */\n      0x64\n      add\n        /* \"DeadMansSwitch.sol\":2601:2701  require(benefactors[msg.sender].exists && benefactors[msg.sender].isAlive, \"Not a valid benefactor\") */\n      tag_120\n        /* \"#utility.yul\":12189:12535   */\n      jump\n        /* \"DeadMansSwitch.sol\":2601:2701  require(benefactors[msg.sender].exists && benefactors[msg.sender].isAlive, \"Not a valid benefactor\") */\n    tag_135:\n        /* \"DeadMansSwitch.sol\":6888:6897  uint256 i */\n      0x00\n        /* \"DeadMansSwitch.sol\":6883:7261  for (uint256 i = 0; i < _beneficiaries.length; i++) {... */\n    tag_139:\n        /* \"DeadMansSwitch.sol\":6903:6928  i < _beneficiaries.length */\n      dup2\n      dup2\n      lt\n        /* \"DeadMansSwitch.sol\":6883:7261  for (uint256 i = 0; i < _beneficiaries.length; i++) {... */\n      iszero\n      tag_140\n      jumpi\n        /* \"DeadMansSwitch.sol\":6950:6969  address beneficiary */\n      0x00\n        /* \"DeadMansSwitch.sol\":6972:6986  _beneficiaries */\n      dup4\n      dup4\n        /* \"DeadMansSwitch.sol\":6987:6988  i */\n      dup4\n        /* \"DeadMansSwitch.sol\":6972:6989  _beneficiaries[i] */\n      dup2\n      dup2\n      lt\n      tag_143\n      jumpi\n      tag_143\n      tag_144\n      jump\t// in\n    tag_143:\n      swap1\n      pop\n      0x20\n      mul\n      add\n      0x20\n      dup2\n      add\n      swap1\n      tag_145\n      swap2\n      swap1\n      tag_30\n      jump\t// in\n    tag_145:\n        /* \"DeadMansSwitch.sol\":6950:6989  address beneficiary = _beneficiaries[i] */\n      swap1\n      pop\n        /* \"DeadMansSwitch.sol\":7013:7051  isBeneficiary(msg.sender, beneficiary) */\n      tag_146\n        /* \"DeadMansSwitch.sol\":7027:7037  msg.sender */\n      caller\n        /* \"DeadMansSwitch.sol\":7039:7050  beneficiary */\n      dup3\n        /* \"DeadMansSwitch.sol\":7013:7026  isBeneficiary */\n      tag_46\n        /* \"DeadMansSwitch.sol\":7013:7051  isBeneficiary(msg.sender, beneficiary) */\n      jump\t// in\n    tag_146:\n        /* \"DeadMansSwitch.sol\":7012:7051  !isBeneficiary(msg.sender, beneficiary) */\n      iszero\n        /* \"DeadMansSwitch.sol\":7004:7082  require(!isBeneficiary(msg.sender, beneficiary), \"Beneficiary already exists\") */\n      tag_147\n      jumpi\n      mload(0x40)\n      shl(0xe5, 0x461bcd)\n      dup2\n      mstore\n        /* \"#utility.yul\":12874:12876   */\n      0x20\n        /* \"DeadMansSwitch.sol\":7004:7082  require(!isBeneficiary(msg.sender, beneficiary), \"Beneficiary already exists\") */\n      0x04\n      dup3\n      add\n        /* \"#utility.yul\":12856:12877   */\n      mstore\n        /* \"#utility.yul\":12913:12915   */\n      0x1a\n        /* \"#utility.yul\":12893:12911   */\n      0x24\n      dup3\n      add\n        /* \"#utility.yul\":12886:12916   */\n      mstore\n        /* \"#utility.yul\":12952:12980   */\n      0x42656e656669636961727920616c726561647920657869737473000000000000\n        /* \"#utility.yul\":12932:12950   */\n      0x44\n      dup3\n      add\n        /* \"#utility.yul\":12925:12981   */\n      mstore\n        /* \"#utility.yul\":12998:13016   */\n      0x64\n      add\n        /* \"DeadMansSwitch.sol\":7004:7082  require(!isBeneficiary(msg.sender, beneficiary), \"Beneficiary already exists\") */\n      tag_120\n        /* \"#utility.yul\":12672:13022   */\n      jump\n        /* \"DeadMansSwitch.sol\":7004:7082  require(!isBeneficiary(msg.sender, beneficiary), \"Beneficiary already exists\") */\n    tag_147:\n        /* \"DeadMansSwitch.sol\":7150:7188  Beneficiary(true, new string[](0), \"\") */\n      0x40\n      dup1\n      mload\n      0x60\n      dup2\n      add\n      dup3\n      mstore\n        /* \"DeadMansSwitch.sol\":7162:7166  true */\n      0x01\n        /* \"DeadMansSwitch.sol\":7150:7188  Beneficiary(true, new string[](0), \"\") */\n      dup2\n      mstore\n        /* \"DeadMansSwitch.sol\":7168:7183  new string[](0) */\n      dup2\n      mload\n      0x00\n      dup1\n      dup3\n      mstore\n        /* \"DeadMansSwitch.sol\":7150:7188  Beneficiary(true, new string[](0), \"\") */\n      0x20\n        /* \"DeadMansSwitch.sol\":7168:7183  new string[](0) */\n      dup3\n      dup2\n      add\n      swap1\n      swap5\n      mstore\n        /* \"DeadMansSwitch.sol\":7150:7188  Beneficiary(true, new string[](0), \"\") */\n      swap2\n      swap3\n      dup4\n      add\n      swap2\n        /* \"DeadMansSwitch.sol\":7168:7183  new string[](0) */\n      jump(tag_153)\n    tag_154:\n      0x60\n      dup2\n      mstore\n      0x20\n      add\n      swap1\n      0x01\n      swap1\n      sub\n      swap1\n      dup2\n      tag_154\n      jumpi\n      swap1\n      pop\n    tag_153:\n      pop\n        /* \"DeadMansSwitch.sol\":7150:7188  Beneficiary(true, new string[](0), \"\") */\n      dup2\n      mstore\n      0x40\n      dup1\n      mload\n      0x20\n      dup1\n      dup3\n      add\n      dup4\n      mstore\n      0x00\n      dup1\n      dup4\n      mstore\n      swap4\n      dup2\n      add\n      swap2\n      swap1\n      swap2\n      mstore\n        /* \"DeadMansSwitch.sol\":7109:7119  msg.sender */\n      caller\n        /* \"DeadMansSwitch.sol\":7097:7120  benefactors[msg.sender] */\n      dup4\n      mstore\n      dup3\n      dup2\n      mstore\n      dup2\n      dup4\n      keccak256\n      sub(shl(0xa0, 0x01), 0x01)\n        /* \"DeadMansSwitch.sol\":7097:7147  benefactors[msg.sender].beneficiaries[beneficiary] */\n      dup7\n      and\n      dup5\n      mstore\n        /* \"DeadMansSwitch.sol\":7097:7134  benefactors[msg.sender].beneficiaries */\n      0x01\n      swap1\n      dup2\n      add\n        /* \"DeadMansSwitch.sol\":7097:7147  benefactors[msg.sender].beneficiaries[beneficiary] */\n      dup3\n      mstore\n      swap2\n      swap1\n      swap3\n      keccak256\n        /* \"DeadMansSwitch.sol\":7097:7188  benefactors[msg.sender].beneficiaries[beneficiary] = Beneficiary(true, new string[](0), \"\") */\n      dup4\n      mload\n      dup2\n      sload\n      not(0xff)\n      and\n      swap1\n      iszero\n      iszero\n      or\n      dup2\n      sstore\n      dup4\n      dup4\n      add\n      mload\n      dup1\n      mload\n        /* \"DeadMansSwitch.sol\":7097:7147  benefactors[msg.sender].beneficiaries[beneficiary] */\n      swap2\n      swap4\n        /* \"DeadMansSwitch.sol\":7097:7188  benefactors[msg.sender].beneficiaries[beneficiary] = Beneficiary(true, new string[](0), \"\") */\n      tag_155\n      swap4\n      dup6\n      add\n      swap3\n      swap2\n      add\n      swap1\n      tag_156\n      jump\t// in\n    tag_155:\n      pop\n      0x40\n      dup3\n      add\n      mload\n      0x02\n      dup3\n      add\n      swap1\n      tag_157\n      swap1\n      dup3\n      tag_125\n      jump\t// in\n    tag_157:\n      pop\n      pop\n        /* \"DeadMansSwitch.sol\":7208:7249  BeneficiaryAdded(msg.sender, beneficiary) */\n      mload(0x40)\n      sub(shl(0xa0, 0x01), 0x01)\n      dup4\n      and\n      swap2\n      pop\n        /* \"DeadMansSwitch.sol\":7225:7235  msg.sender */\n      caller\n      swap1\n        /* \"DeadMansSwitch.sol\":7208:7249  BeneficiaryAdded(msg.sender, beneficiary) */\n      0xbb39c36a7502b7256e1a687254146a9a2ea7b146c77cb9e40eb0e2b8793781e1\n      swap1\n      0x00\n      swap1\n      log3\n      pop\n        /* \"DeadMansSwitch.sol\":6930:6933  i++ */\n      dup1\n      tag_158\n      dup2\n      tag_159\n      jump\t// in\n    tag_158:\n      swap2\n      pop\n      pop\n        /* \"DeadMansSwitch.sol\":6883:7261  for (uint256 i = 0; i < _beneficiaries.length; i++) {... */\n      jump(tag_139)\n    tag_140:\n      pop\n        /* \"DeadMansSwitch.sol\":6787:7268  function addBeneficiaries(address[] calldata _beneficiaries) external onlyBenefactor {... */\n      pop\n      pop\n      jump\t// out\n        /* \"DeadMansSwitch.sol\":6320:6612  function removeBeneficiary(address _beneficiary) external onlyBenefactor {... */\n    tag_60:\n        /* \"DeadMansSwitch.sol\":2621:2631  msg.sender */\n      caller\n        /* \"DeadMansSwitch.sol\":2609:2620  benefactors */\n      0x00\n        /* \"DeadMansSwitch.sol\":2609:2632  benefactors[msg.sender] */\n      swap1\n      dup2\n      mstore\n      0x20\n      dup2\n      swap1\n      mstore\n      0x40\n      swap1\n      keccak256\n        /* \"DeadMansSwitch.sol\":2609:2639  benefactors[msg.sender].exists */\n      sload\n      0xff\n      and\n        /* \"DeadMansSwitch.sol\":2609:2674  benefactors[msg.sender].exists && benefactors[msg.sender].isAlive */\n      dup1\n      iszero\n      tag_161\n      jumpi\n      pop\n        /* \"DeadMansSwitch.sol\":2655:2665  msg.sender */\n      caller\n        /* \"DeadMansSwitch.sol\":2643:2654  benefactors */\n      0x00\n        /* \"DeadMansSwitch.sol\":2643:2666  benefactors[msg.sender] */\n      swap1\n      dup2\n      mstore\n      0x20\n      dup2\n      swap1\n      mstore\n      0x40\n      swap1\n      keccak256\n        /* \"DeadMansSwitch.sol\":2643:2674  benefactors[msg.sender].isAlive */\n      0x04\n      add\n      sload\n      0x0100\n      swap1\n      div\n      0xff\n      and\n        /* \"DeadMansSwitch.sol\":2609:2674  benefactors[msg.sender].exists && benefactors[msg.sender].isAlive */\n    tag_161:\n        /* \"DeadMansSwitch.sol\":2601:2701  require(benefactors[msg.sender].exists && benefactors[msg.sender].isAlive, \"Not a valid benefactor\") */\n      tag_162\n      jumpi\n      mload(0x40)\n      shl(0xe5, 0x461bcd)\n      dup2\n      mstore\n        /* \"#utility.yul\":12391:12393   */\n      0x20\n        /* \"DeadMansSwitch.sol\":2601:2701  require(benefactors[msg.sender].exists && benefactors[msg.sender].isAlive, \"Not a valid benefactor\") */\n      0x04\n      dup3\n      add\n        /* \"#utility.yul\":12373:12394   */\n      mstore\n        /* \"#utility.yul\":12430:12432   */\n      0x16\n        /* \"#utility.yul\":12410:12428   */\n      0x24\n      dup3\n      add\n        /* \"#utility.yul\":12403:12433   */\n      mstore\n      shl(0x51, 0x2737ba1030903b30b634b2103132b732b330b1ba37b9)\n        /* \"#utility.yul\":12449:12467   */\n      0x44\n      dup3\n      add\n        /* \"#utility.yul\":12442:12494   */\n      mstore\n        /* \"#utility.yul\":12511:12529   */\n      0x64\n      add\n        /* \"DeadMansSwitch.sol\":2601:2701  require(benefactors[msg.sender].exists && benefactors[msg.sender].isAlive, \"Not a valid benefactor\") */\n      tag_120\n        /* \"#utility.yul\":12189:12535   */\n      jump\n        /* \"DeadMansSwitch.sol\":2601:2701  require(benefactors[msg.sender].exists && benefactors[msg.sender].isAlive, \"Not a valid benefactor\") */\n    tag_162:\n        /* \"DeadMansSwitch.sol\":6412:6450  isBeneficiary(msg.sender,_beneficiary) */\n      tag_165\n        /* \"DeadMansSwitch.sol\":6426:6436  msg.sender */\n      caller\n        /* \"DeadMansSwitch.sol\":6437:6449  _beneficiary */\n      dup3\n        /* \"DeadMansSwitch.sol\":6412:6425  isBeneficiary */\n      tag_46\n        /* \"DeadMansSwitch.sol\":6412:6450  isBeneficiary(msg.sender,_beneficiary) */\n      jump\t// in\n    tag_165:\n        /* \"DeadMansSwitch.sol\":6404:6476  require(isBeneficiary(msg.sender,_beneficiary), \"Beneficiary not found\") */\n      tag_166\n      jumpi\n      mload(0x40)\n      shl(0xe5, 0x461bcd)\n      dup2\n      mstore\n        /* \"#utility.yul\":13369:13371   */\n      0x20\n        /* \"DeadMansSwitch.sol\":6404:6476  require(isBeneficiary(msg.sender,_beneficiary), \"Beneficiary not found\") */\n      0x04\n      dup3\n      add\n        /* \"#utility.yul\":13351:13372   */\n      mstore\n        /* \"#utility.yul\":13408:13410   */\n      0x15\n        /* \"#utility.yul\":13388:13406   */\n      0x24\n      dup3\n      add\n        /* \"#utility.yul\":13381:13411   */\n      mstore\n      shl(0x5a, 0x10995b99599a58da585c9e481b9bdd08199bdd5b99)\n        /* \"#utility.yul\":13427:13445   */\n      0x44\n      dup3\n      add\n        /* \"#utility.yul\":13420:13471   */\n      mstore\n        /* \"#utility.yul\":13488:13506   */\n      0x64\n      add\n        /* \"DeadMansSwitch.sol\":6404:6476  require(isBeneficiary(msg.sender,_beneficiary), \"Beneficiary not found\") */\n      tag_120\n        /* \"#utility.yul\":13167:13512   */\n      jump\n        /* \"DeadMansSwitch.sol\":6404:6476  require(isBeneficiary(msg.sender,_beneficiary), \"Beneficiary not found\") */\n    tag_166:\n        /* \"DeadMansSwitch.sol\":6506:6516  msg.sender */\n      caller\n        /* \"DeadMansSwitch.sol\":6494:6505  benefactors */\n      0x00\n        /* \"DeadMansSwitch.sol\":6494:6517  benefactors[msg.sender] */\n      swap1\n      dup2\n      mstore\n      0x20\n      dup2\n      dup2\n      mstore\n      0x40\n      dup1\n      dup4\n      keccak256\n      sub(shl(0xa0, 0x01), 0x01)\n        /* \"DeadMansSwitch.sol\":6494:6545  benefactors[msg.sender].beneficiaries[_beneficiary] */\n      dup6\n      and\n      dup5\n      mstore\n        /* \"DeadMansSwitch.sol\":6494:6531  benefactors[msg.sender].beneficiaries */\n      0x01\n      swap1\n      dup2\n      add\n        /* \"DeadMansSwitch.sol\":6494:6545  benefactors[msg.sender].beneficiaries[_beneficiary] */\n      swap1\n      swap3\n      mstore\n      dup3\n      keccak256\n        /* \"DeadMansSwitch.sol\":6487:6545  delete benefactors[msg.sender].beneficiaries[_beneficiary] */\n      dup1\n      sload\n      not(0xff)\n      and\n      dup2\n      sstore\n        /* \"DeadMansSwitch.sol\":6494:6545  benefactors[msg.sender].beneficiaries[_beneficiary] */\n      swap2\n        /* \"DeadMansSwitch.sol\":6494:6505  benefactors */\n      swap1\n        /* \"DeadMansSwitch.sol\":6487:6545  delete benefactors[msg.sender].beneficiaries[_beneficiary] */\n      tag_169\n      swap1\n      dup4\n      add\n        /* \"DeadMansSwitch.sol\":6494:6505  benefactors */\n      dup3\n        /* \"DeadMansSwitch.sol\":6487:6545  delete benefactors[msg.sender].beneficiaries[_beneficiary] */\n      tag_170\n      jump\t// in\n    tag_169:\n      tag_171\n      0x02\n      dup4\n      add\n      0x00\n      tag_172\n      jump\t// in\n    tag_171:\n      pop\n      pop\n        /* \"DeadMansSwitch.sol\":6561:6604  BeneficiaryRemoved(msg.sender,_beneficiary) */\n      mload(0x40)\n      sub(shl(0xa0, 0x01), 0x01)\n      dup3\n      and\n      swap1\n        /* \"DeadMansSwitch.sol\":6580:6590  msg.sender */\n      caller\n      swap1\n        /* \"DeadMansSwitch.sol\":6561:6604  BeneficiaryRemoved(msg.sender,_beneficiary) */\n      0x1a6590bd0cabbfcc7c86bef99e1034054e179905cfcc294598fcd426c0922442\n      swap1\n      0x00\n      swap1\n      log3\n        /* \"DeadMansSwitch.sol\":6320:6612  function removeBeneficiary(address _beneficiary) external onlyBenefactor {... */\n      pop\n      jump\t// out\n        /* \"DeadMansSwitch.sol\":4877:5147  function getBenefactorPublicKey(address _benefactor) public view returns(string memory) {... */\n    tag_63:\n        /* \"DeadMansSwitch.sol\":4950:4963  string memory */\n      0x60\n        /* \"DeadMansSwitch.sol\":4980:5018  isBeneficiary(_benefactor, msg.sender) */\n      tag_174\n        /* \"DeadMansSwitch.sol\":4994:5005  _benefactor */\n      dup3\n        /* \"DeadMansSwitch.sol\":5007:5017  msg.sender */\n      caller\n        /* \"DeadMansSwitch.sol\":4980:4993  isBeneficiary */\n      tag_46\n        /* \"DeadMansSwitch.sol\":4980:5018  isBeneficiary(_benefactor, msg.sender) */\n      jump\t// in\n    tag_174:\n        /* \"DeadMansSwitch.sol\":4976:5140  if (isBeneficiary(_benefactor, msg.sender)) {... */\n      iszero\n      tag_175\n      jumpi\n      sub(shl(0xa0, 0x01), 0x01)\n        /* \"DeadMansSwitch.sol\":5042:5066  benefactors[_benefactor] */\n      dup3\n      and\n        /* \"DeadMansSwitch.sol\":5042:5053  benefactors */\n      0x00\n        /* \"DeadMansSwitch.sol\":5042:5066  benefactors[_benefactor] */\n      swap1\n      dup2\n      mstore\n      0x20\n      dup2\n      swap1\n      mstore\n      0x40\n      swap1\n      keccak256\n        /* \"DeadMansSwitch.sol\":5042:5086  benefactors[_benefactor].benefactorPublicKey */\n      0x05\n      add\n        /* \"DeadMansSwitch.sol\":5035:5086  return benefactors[_benefactor].benefactorPublicKey */\n      dup1\n      sload\n      tag_176\n      swap1\n      tag_177\n      jump\t// in\n    tag_176:\n      dup1\n      0x1f\n      add\n      0x20\n      dup1\n      swap2\n      div\n      mul\n      0x20\n      add\n      mload(0x40)\n      swap1\n      dup2\n      add\n      0x40\n      mstore\n      dup1\n      swap3\n      swap2\n      swap1\n      dup2\n      dup2\n      mstore\n      0x20\n      add\n      dup3\n      dup1\n      sload\n      tag_178\n      swap1\n      tag_177\n      jump\t// in\n    tag_178:\n      dup1\n      iszero\n      tag_179\n      jumpi\n      dup1\n      0x1f\n      lt\n      tag_180\n      jumpi\n      0x0100\n      dup1\n      dup4\n      sload\n      div\n      mul\n      dup4\n      mstore\n      swap2\n      0x20\n      add\n      swap2\n      jump(tag_179)\n    tag_180:\n      dup3\n      add\n      swap2\n      swap1\n      0x00\n      mstore\n      keccak256(0x00, 0x20)\n      swap1\n    tag_181:\n      dup2\n      sload\n      dup2\n      mstore\n      swap1\n      0x01\n      add\n      swap1\n      0x20\n      add\n      dup1\n      dup4\n      gt\n      tag_181\n      jumpi\n      dup3\n      swap1\n      sub\n      0x1f\n      and\n      dup3\n      add\n      swap2\n    tag_179:\n      pop\n      pop\n      pop\n      pop\n      pop\n      swap1\n      pop\n        /* \"DeadMansSwitch.sol\":4877:5147  function getBenefactorPublicKey(address _benefactor) public view returns(string memory) {... */\n      swap2\n      swap1\n      pop\n      jump\t// out\n        /* \"DeadMansSwitch.sol\":4976:5140  if (isBeneficiary(_benefactor, msg.sender)) {... */\n    tag_175:\n      pop\n      pop\n        /* \"DeadMansSwitch.sol\":5119:5128  return \"\" */\n      0x40\n      dup1\n      mload\n      0x20\n      dup2\n      add\n      swap1\n      swap2\n      mstore\n      0x00\n      dup2\n      mstore\n      swap1\n        /* \"DeadMansSwitch.sol\":4877:5147  function getBenefactorPublicKey(address _benefactor) public view returns(string memory) {... */\n      jump\t// out\n        /* \"DeadMansSwitch.sol\":4976:5140  if (isBeneficiary(_benefactor, msg.sender)) {... */\n    tag_182:\n        /* \"DeadMansSwitch.sol\":4877:5147  function getBenefactorPublicKey(address _benefactor) public view returns(string memory) {... */\n      swap2\n      swap1\n      pop\n      jump\t// out\n        /* \"DeadMansSwitch.sol\":8461:9376  function removeIpfsCID(address _beneficiary, string memory _ipfsCID) external onlyBenefactor {... */\n    tag_69:\n        /* \"DeadMansSwitch.sol\":2621:2631  msg.sender */\n      caller\n        /* \"DeadMansSwitch.sol\":2609:2620  benefactors */\n      0x00\n        /* \"DeadMansSwitch.sol\":2609:2632  benefactors[msg.sender] */\n      swap1\n      dup2\n      mstore\n      0x20\n      dup2\n      swap1\n      mstore\n      0x40\n      swap1\n      keccak256\n        /* \"DeadMansSwitch.sol\":2609:2639  benefactors[msg.sender].exists */\n      sload\n      0xff\n      and\n        /* \"DeadMansSwitch.sol\":2609:2674  benefactors[msg.sender].exists && benefactors[msg.sender].isAlive */\n      dup1\n      iszero\n      tag_184\n      jumpi\n      pop\n        /* \"DeadMansSwitch.sol\":2655:2665  msg.sender */\n      caller\n        /* \"DeadMansSwitch.sol\":2643:2654  benefactors */\n      0x00\n        /* \"DeadMansSwitch.sol\":2643:2666  benefactors[msg.sender] */\n      swap1\n      dup2\n      mstore\n      0x20\n      dup2\n      swap1\n      mstore\n      0x40\n      swap1\n      keccak256\n        /* \"DeadMansSwitch.sol\":2643:2674  benefactors[msg.sender].isAlive */\n      0x04\n      add\n      sload\n      0x0100\n      swap1\n      div\n      0xff\n      and\n        /* \"DeadMansSwitch.sol\":2609:2674  benefactors[msg.sender].exists && benefactors[msg.sender].isAlive */\n    tag_184:\n        /* \"DeadMansSwitch.sol\":2601:2701  require(benefactors[msg.sender].exists && benefactors[msg.sender].isAlive, \"Not a valid benefactor\") */\n      tag_185\n      jumpi\n      mload(0x40)\n      shl(0xe5, 0x461bcd)\n      dup2\n      mstore\n        /* \"#utility.yul\":12391:12393   */\n      0x20\n        /* \"DeadMansSwitch.sol\":2601:2701  require(benefactors[msg.sender].exists && benefactors[msg.sender].isAlive, \"Not a valid benefactor\") */\n      0x04\n      dup3\n      add\n        /* \"#utility.yul\":12373:12394   */\n      mstore\n        /* \"#utility.yul\":12430:12432   */\n      0x16\n        /* \"#utility.yul\":12410:12428   */\n      0x24\n      dup3\n      add\n        /* \"#utility.yul\":12403:12433   */\n      mstore\n      shl(0x51, 0x2737ba1030903b30b634b2103132b732b330b1ba37b9)\n        /* \"#utility.yul\":12449:12467   */\n      0x44\n      dup3\n      add\n        /* \"#utility.yul\":12442:12494   */\n      mstore\n        /* \"#utility.yul\":12511:12529   */\n      0x64\n      add\n        /* \"DeadMansSwitch.sol\":2601:2701  require(benefactors[msg.sender].exists && benefactors[msg.sender].isAlive, \"Not a valid benefactor\") */\n      tag_120\n        /* \"#utility.yul\":12189:12535   */\n      jump\n        /* \"DeadMansSwitch.sol\":2601:2701  require(benefactors[msg.sender].exists && benefactors[msg.sender].isAlive, \"Not a valid benefactor\") */\n    tag_185:\n        /* \"DeadMansSwitch.sol\":8573:8612  isBeneficiary(msg.sender, _beneficiary) */\n      tag_188\n        /* \"DeadMansSwitch.sol\":8587:8597  msg.sender */\n      caller\n        /* \"DeadMansSwitch.sol\":8599:8611  _beneficiary */\n      dup4\n        /* \"DeadMansSwitch.sol\":8573:8586  isBeneficiary */\n      tag_46\n        /* \"DeadMansSwitch.sol\":8573:8612  isBeneficiary(msg.sender, _beneficiary) */\n      jump\t// in\n    tag_188:\n        /* \"DeadMansSwitch.sol\":8565:8638  require(isBeneficiary(msg.sender, _beneficiary), \"Beneficiary not found\") */\n      tag_189\n      jumpi\n      mload(0x40)\n      shl(0xe5, 0x461bcd)\n      dup2\n      mstore\n        /* \"#utility.yul\":13369:13371   */\n      0x20\n        /* \"DeadMansSwitch.sol\":8565:8638  require(isBeneficiary(msg.sender, _beneficiary), \"Beneficiary not found\") */\n      0x04\n      dup3\n      add\n        /* \"#utility.yul\":13351:13372   */\n      mstore\n        /* \"#utility.yul\":13408:13410   */\n      0x15\n        /* \"#utility.yul\":13388:13406   */\n      0x24\n      dup3\n      add\n        /* \"#utility.yul\":13381:13411   */\n      mstore\n      shl(0x5a, 0x10995b99599a58da585c9e481b9bdd08199bdd5b99)\n        /* \"#utility.yul\":13427:13445   */\n      0x44\n      dup3\n      add\n        /* \"#utility.yul\":13420:13471   */\n      mstore\n        /* \"#utility.yul\":13488:13506   */\n      0x64\n      add\n        /* \"DeadMansSwitch.sol\":8565:8638  require(isBeneficiary(msg.sender, _beneficiary), \"Beneficiary not found\") */\n      tag_120\n        /* \"#utility.yul\":13167:13512   */\n      jump\n        /* \"DeadMansSwitch.sol\":8565:8638  require(isBeneficiary(msg.sender, _beneficiary), \"Beneficiary not found\") */\n    tag_189:\n        /* \"DeadMansSwitch.sol\":8691:8701  msg.sender */\n      caller\n        /* \"DeadMansSwitch.sol\":8651:8676  string[] storage ipfsCIDs */\n      0x00\n        /* \"DeadMansSwitch.sol\":8679:8702  benefactors[msg.sender] */\n      swap1\n      dup2\n      mstore\n      0x20\n      dup2\n      dup2\n      mstore\n      0x40\n      dup1\n      dup4\n      keccak256\n      sub(shl(0xa0, 0x01), 0x01)\n        /* \"DeadMansSwitch.sol\":8679:8730  benefactors[msg.sender].beneficiaries[_beneficiary] */\n      dup7\n      and\n      dup5\n      mstore\n        /* \"DeadMansSwitch.sol\":8679:8716  benefactors[msg.sender].beneficiaries */\n      0x01\n      swap1\n      dup2\n      add\n        /* \"DeadMansSwitch.sol\":8679:8730  benefactors[msg.sender].beneficiaries[_beneficiary] */\n      swap1\n      swap3\n      mstore\n      dup3\n      keccak256\n        /* \"DeadMansSwitch.sol\":8679:8739  benefactors[msg.sender].beneficiaries[_beneficiary].ipfsCIDs */\n      add\n      swap1\n        /* \"DeadMansSwitch.sol\":8796:9286  for (uint256 i = 0; i < ipfsCIDs.length; i++) {... */\n    tag_191:\n        /* \"DeadMansSwitch.sol\":8820:8835  ipfsCIDs.length */\n      dup2\n      sload\n        /* \"DeadMansSwitch.sol\":8816:8835  i < ipfsCIDs.length */\n      dup2\n      lt\n        /* \"DeadMansSwitch.sol\":8796:9286  for (uint256 i = 0; i < ipfsCIDs.length; i++) {... */\n      iszero\n      tag_192\n      jumpi\n        /* \"DeadMansSwitch.sol\":8932:8940  _ipfsCID */\n      dup3\n        /* \"DeadMansSwitch.sol\":8915:8941  abi.encodePacked(_ipfsCID) */\n      add(0x20, mload(0x40))\n      tag_194\n      swap2\n      swap1\n      tag_195\n      jump\t// in\n    tag_194:\n      mload(0x40)\n      0x20\n      dup2\n      dup4\n      sub\n      sub\n      dup2\n      mstore\n      swap1\n      0x40\n      mstore\n        /* \"DeadMansSwitch.sol\":8905:8942  keccak256(abi.encodePacked(_ipfsCID)) */\n      dup1\n      mload\n      swap1\n      0x20\n      add\n      keccak256\n        /* \"DeadMansSwitch.sol\":8888:8896  ipfsCIDs */\n      dup3\n        /* \"DeadMansSwitch.sol\":8897:8898  i */\n      dup3\n        /* \"DeadMansSwitch.sol\":8888:8899  ipfsCIDs[i] */\n      dup2\n      sload\n      dup2\n      lt\n      tag_197\n      jumpi\n      tag_197\n      tag_144\n      jump\t// in\n    tag_197:\n      swap1\n      0x00\n      mstore\n      keccak256(0x00, 0x20)\n      add\n        /* \"DeadMansSwitch.sol\":8871:8900  abi.encodePacked(ipfsCIDs[i]) */\n      add(0x20, mload(0x40))\n      tag_199\n      swap2\n      swap1\n      tag_200\n      jump\t// in\n    tag_199:\n      mload(0x40)\n      0x20\n      dup2\n      dup4\n      sub\n      sub\n      dup2\n      mstore\n      swap1\n      0x40\n      mstore\n        /* \"DeadMansSwitch.sol\":8861:8901  keccak256(abi.encodePacked(ipfsCIDs[i])) */\n      dup1\n      mload\n      swap1\n      0x20\n      add\n      keccak256\n        /* \"DeadMansSwitch.sol\":8861:8942  keccak256(abi.encodePacked(ipfsCIDs[i])) == keccak256(abi.encodePacked(_ipfsCID)) */\n      sub\n        /* \"DeadMansSwitch.sol\":8857:9275  if (keccak256(abi.encodePacked(ipfsCIDs[i])) == keccak256(abi.encodePacked(_ipfsCID))) {... */\n      tag_201\n      jumpi\n        /* \"DeadMansSwitch.sol\":9054:9069  ipfsCIDs.length */\n      dup2\n      sload\n        /* \"DeadMansSwitch.sol\":9045:9053  ipfsCIDs */\n      dup3\n      swap1\n        /* \"DeadMansSwitch.sol\":9054:9073  ipfsCIDs.length - 1 */\n      tag_202\n      swap1\n        /* \"DeadMansSwitch.sol\":9072:9073  1 */\n      0x01\n      swap1\n        /* \"DeadMansSwitch.sol\":9054:9073  ipfsCIDs.length - 1 */\n      tag_106\n      jump\t// in\n    tag_202:\n        /* \"DeadMansSwitch.sol\":9045:9074  ipfsCIDs[ipfsCIDs.length - 1] */\n      dup2\n      sload\n      dup2\n      lt\n      tag_204\n      jumpi\n      tag_204\n      tag_144\n      jump\t// in\n    tag_204:\n      swap1\n      0x00\n      mstore\n      keccak256(0x00, 0x20)\n      add\n        /* \"DeadMansSwitch.sol\":9031:9039  ipfsCIDs */\n      dup3\n        /* \"DeadMansSwitch.sol\":9040:9041  i */\n      dup3\n        /* \"DeadMansSwitch.sol\":9031:9042  ipfsCIDs[i] */\n      dup2\n      sload\n      dup2\n      lt\n      tag_207\n      jumpi\n      tag_207\n      tag_144\n      jump\t// in\n    tag_207:\n      swap1\n      0x00\n      mstore\n      keccak256(0x00, 0x20)\n      add\n        /* \"DeadMansSwitch.sol\":9031:9074  ipfsCIDs[i] = ipfsCIDs[ipfsCIDs.length - 1] */\n      swap1\n      dup2\n      tag_209\n      swap2\n      swap1\n      tag_210\n      jump\t// in\n    tag_209:\n      pop\n        /* \"DeadMansSwitch.sol\":9146:9154  ipfsCIDs */\n      dup2\n        /* \"DeadMansSwitch.sol\":9146:9160  ipfsCIDs.pop() */\n      dup1\n      sload\n      dup1\n      tag_212\n      jumpi\n      tag_212\n      tag_213\n      jump\t// in\n    tag_212:\n      0x01\n      swap1\n      sub\n      dup2\n      dup2\n      swap1\n      0x00\n      mstore\n      keccak256(0x00, 0x20)\n      add\n      0x00\n      tag_215\n      swap2\n      swap1\n      tag_172\n      jump\t// in\n    tag_215:\n      swap1\n      sstore\n        /* \"DeadMansSwitch.sol\":9211:9223  _beneficiary */\n      dup4\n      sub(shl(0xa0, 0x01), 0x01)\n        /* \"DeadMansSwitch.sol\":9184:9234  IpfsCIDRemoved(msg.sender, _beneficiary, _ipfsCID) */\n      and\n        /* \"DeadMansSwitch.sol\":9199:9209  msg.sender */\n      caller\n      sub(shl(0xa0, 0x01), 0x01)\n        /* \"DeadMansSwitch.sol\":9184:9234  IpfsCIDRemoved(msg.sender, _beneficiary, _ipfsCID) */\n      and\n      0x4c13211ce3b2d0cb3e02a662cc071d6be555042ca58d4d812b7b90e80d3250ac\n        /* \"DeadMansSwitch.sol\":9225:9233  _ipfsCID */\n      dup6\n        /* \"DeadMansSwitch.sol\":9184:9234  IpfsCIDRemoved(msg.sender, _beneficiary, _ipfsCID) */\n      mload(0x40)\n      tag_216\n      swap2\n      swap1\n      tag_65\n      jump\t// in\n    tag_216:\n      mload(0x40)\n      dup1\n      swap2\n      sub\n      swap1\n      log3\n        /* \"DeadMansSwitch.sol\":9253:9260  return; */\n      pop\n      pop\n        /* \"DeadMansSwitch.sol\":8461:9376  function removeIpfsCID(address _beneficiary, string memory _ipfsCID) external onlyBenefactor {... */\n      pop\n      pop\n      jump\t// out\n        /* \"DeadMansSwitch.sol\":8857:9275  if (keccak256(abi.encodePacked(ipfsCIDs[i])) == keccak256(abi.encodePacked(_ipfsCID))) {... */\n    tag_201:\n        /* \"DeadMansSwitch.sol\":8837:8840  i++ */\n      dup1\n      tag_217\n      dup2\n      tag_159\n      jump\t// in\n    tag_217:\n      swap2\n      pop\n      pop\n        /* \"DeadMansSwitch.sol\":8796:9286  for (uint256 i = 0; i < ipfsCIDs.length; i++) {... */\n      jump(tag_191)\n    tag_192:\n      pop\n        /* \"DeadMansSwitch.sol\":9322:9368  revert(\"CID not assigned to this beneficiary\") */\n      mload(0x40)\n      shl(0xe5, 0x461bcd)\n      dup2\n      mstore\n        /* \"#utility.yul\":16432:16434   */\n      0x20\n        /* \"DeadMansSwitch.sol\":9322:9368  revert(\"CID not assigned to this beneficiary\") */\n      0x04\n      dup3\n      add\n        /* \"#utility.yul\":16414:16435   */\n      mstore\n        /* \"#utility.yul\":16471:16473   */\n      0x24\n        /* \"#utility.yul\":16451:16469   */\n      dup1\n      dup3\n      add\n        /* \"#utility.yul\":16444:16474   */\n      mstore\n        /* \"#utility.yul\":16510:16544   */\n      0x434944206e6f742061737369676e656420746f20746869732062656e65666963\n        /* \"#utility.yul\":16490:16508   */\n      0x44\n      dup3\n      add\n        /* \"#utility.yul\":16483:16545   */\n      mstore\n      shl(0xe0, 0x69617279)\n        /* \"#utility.yul\":16561:16579   */\n      0x64\n      dup3\n      add\n        /* \"#utility.yul\":16554:16588   */\n      mstore\n        /* \"#utility.yul\":16605:16624   */\n      0x84\n      add\n        /* \"DeadMansSwitch.sol\":9322:9368  revert(\"CID not assigned to this beneficiary\") */\n      tag_120\n        /* \"#utility.yul\":16230:16630   */\n      jump\n        /* \"DeadMansSwitch.sol\":9538:10324  function enableSwitch(address _benefactor) external {... */\n    tag_72:\n      sub(shl(0xa0, 0x01), 0x01)\n        /* \"DeadMansSwitch.sol\":9676:9700  benefactors[_benefactor] */\n      dup2\n      and\n        /* \"DeadMansSwitch.sol\":9676:9687  benefactors */\n      0x00\n        /* \"DeadMansSwitch.sol\":9676:9700  benefactors[_benefactor] */\n      swap1\n      dup2\n      mstore\n      0x20\n      dup2\n      dup2\n      mstore\n      0x40\n      dup1\n      dup4\n      keccak256\n        /* \"DeadMansSwitch.sol\":9715:9725  msg.sender */\n      caller\n        /* \"DeadMansSwitch.sol\":9676:9726  benefactors[_benefactor].beneficiaries[msg.sender] */\n      dup5\n      mstore\n        /* \"DeadMansSwitch.sol\":9676:9714  benefactors[_benefactor].beneficiaries */\n      0x01\n      add\n        /* \"DeadMansSwitch.sol\":9676:9726  benefactors[_benefactor].beneficiaries[msg.sender] */\n      swap1\n      swap2\n      mstore\n      swap1\n      keccak256\n        /* \"DeadMansSwitch.sol\":9676:9733  benefactors[_benefactor].beneficiaries[msg.sender].exists */\n      sload\n      0xff\n      and\n        /* \"DeadMansSwitch.sol\":9668:9761  require(benefactors[_benefactor].beneficiaries[msg.sender].exists, \"Not a valid beneficiary\") */\n      tag_221\n      jumpi\n      mload(0x40)\n      shl(0xe5, 0x461bcd)\n      dup2\n      mstore\n        /* \"#utility.yul\":16837:16839   */\n      0x20\n        /* \"DeadMansSwitch.sol\":9668:9761  require(benefactors[_benefactor].beneficiaries[msg.sender].exists, \"Not a valid beneficiary\") */\n      0x04\n      dup3\n      add\n        /* \"#utility.yul\":16819:16840   */\n      mstore\n        /* \"#utility.yul\":16876:16878   */\n      0x17\n        /* \"#utility.yul\":16856:16874   */\n      0x24\n      dup3\n      add\n        /* \"#utility.yul\":16849:16879   */\n      mstore\n        /* \"#utility.yul\":16915:16940   */\n      0x4e6f7420612076616c69642062656e6566696369617279000000000000000000\n        /* \"#utility.yul\":16895:16913   */\n      0x44\n      dup3\n      add\n        /* \"#utility.yul\":16888:16941   */\n      mstore\n        /* \"#utility.yul\":16958:16976   */\n      0x64\n      add\n        /* \"DeadMansSwitch.sol\":9668:9761  require(benefactors[_benefactor].beneficiaries[msg.sender].exists, \"Not a valid beneficiary\") */\n      tag_120\n        /* \"#utility.yul\":16635:16982   */\n      jump\n        /* \"DeadMansSwitch.sol\":9668:9761  require(benefactors[_benefactor].beneficiaries[msg.sender].exists, \"Not a valid beneficiary\") */\n    tag_221:\n      sub(shl(0xa0, 0x01), 0x01)\n        /* \"DeadMansSwitch.sol\":9777:9801  benefactors[_benefactor] */\n      dup2\n      and\n        /* \"DeadMansSwitch.sol\":9777:9788  benefactors */\n      0x00\n        /* \"DeadMansSwitch.sol\":9777:9801  benefactors[_benefactor] */\n      swap1\n      dup2\n      mstore\n      0x20\n      dup2\n      swap1\n      mstore\n      0x40\n      swap1\n      keccak256\n        /* \"DeadMansSwitch.sol\":9777:9815  benefactors[_benefactor].isSwitchedOff */\n      0x04\n      add\n      sload\n      0xff\n      and\n        /* \"DeadMansSwitch.sol\":9772:9909  if (!benefactors[_benefactor].isSwitchedOff) {... */\n      tag_224\n      jumpi\n        /* \"DeadMansSwitch.sol\":9837:9876  SwitchAlreadyOn(_benefactor,msg.sender) */\n      mload(0x40)\n        /* \"DeadMansSwitch.sol\":9865:9875  msg.sender */\n      caller\n      swap1\n      sub(shl(0xa0, 0x01), 0x01)\n        /* \"DeadMansSwitch.sol\":9837:9876  SwitchAlreadyOn(_benefactor,msg.sender) */\n      dup4\n      and\n      swap1\n      0x67c4731bdc193862f421e091d18f46df876bfe1b8b9aa97504f1d50d425b239d\n      swap1\n      0x00\n      swap1\n      log3\n        /* \"DeadMansSwitch.sol\":9538:10324  function enableSwitch(address _benefactor) external {... */\n      pop\n      jump\t// out\n        /* \"DeadMansSwitch.sol\":9772:9909  if (!benefactors[_benefactor].isSwitchedOff) {... */\n    tag_224:\n      sub(shl(0xa0, 0x01), 0x01)\n        /* \"DeadMansSwitch.sol\":9919:9943  benefactors[_benefactor] */\n      dup2\n      and\n        /* \"DeadMansSwitch.sol\":9960:9965  false */\n      0x00\n        /* \"DeadMansSwitch.sol\":9919:9943  benefactors[_benefactor] */\n      dup2\n      dup2\n      mstore\n      0x20\n      dup2\n      dup2\n      mstore\n      0x40\n      swap2\n      dup3\n      swap1\n      keccak256\n        /* \"DeadMansSwitch.sol\":9919:9957  benefactors[_benefactor].isSwitchedOff */\n      0x04\n      dup2\n      add\n        /* \"DeadMansSwitch.sol\":9919:9965  benefactors[_benefactor].isSwitchedOff = false */\n      dup1\n      sload\n      not(0xff)\n      and\n      swap1\n      sstore\n        /* \"DeadMansSwitch.sol\":10075:10090  block.timestamp */\n      timestamp\n        /* \"DeadMansSwitch.sol\":10021:10072  benefactors[_benefactor].lastBenefactorResponseTime */\n      0x03\n      dup3\n      add\n        /* \"DeadMansSwitch.sol\":10021:10090  benefactors[_benefactor].lastBenefactorResponseTime = block.timestamp */\n      sstore\n        /* \"DeadMansSwitch.sol\":10273:10315  benefactors[_benefactor].countdownDuration */\n      0x02\n      add\n      sload\n        /* \"DeadMansSwitch.sol\":10227:10316  DeadMansSwitchEnabled(_benefactor,msg.sender, benefactors[_benefactor].countdownDuration) */\n      swap2\n      mload\n        /* \"#utility.yul\":552:577   */\n      swap2\n      dup3\n      mstore\n        /* \"DeadMansSwitch.sol\":10261:10271  msg.sender */\n      caller\n      swap3\n        /* \"DeadMansSwitch.sol\":9919:9943  benefactors[_benefactor] */\n      swap2\n        /* \"DeadMansSwitch.sol\":10227:10316  DeadMansSwitchEnabled(_benefactor,msg.sender, benefactors[_benefactor].countdownDuration) */\n      0x82595752291d0261dfb9b4b0c2307021c29c34e22fe0697b4840b529dc351bc3\n      swap2\n        /* \"#utility.yul\":525:543   */\n      add\n        /* \"DeadMansSwitch.sol\":10227:10316  DeadMansSwitchEnabled(_benefactor,msg.sender, benefactors[_benefactor].countdownDuration) */\n      mload(0x40)\n      dup1\n      swap2\n      sub\n      swap1\n      log3\n        /* \"DeadMansSwitch.sol\":9538:10324  function enableSwitch(address _benefactor) external {... */\n      pop\n      jump\t// out\n        /* \"DeadMansSwitch.sol\":5680:5912  function removeBenefactor(address _benefactor) public {... */\n    tag_75:\n        /* \"DeadMansSwitch.sol\":5765:5775  msg.sender */\n      caller\n        /* \"DeadMansSwitch.sol\":5753:5764  benefactors */\n      0x00\n        /* \"DeadMansSwitch.sol\":5753:5776  benefactors[msg.sender] */\n      swap1\n      dup2\n      mstore\n      0x20\n      dup2\n      swap1\n      mstore\n      0x40\n      swap1\n      keccak256\n        /* \"DeadMansSwitch.sol\":5753:5783  benefactors[msg.sender].exists */\n      sload\n      0xff\n      and\n        /* \"DeadMansSwitch.sol\":5745:5813  require(benefactors[msg.sender].exists, \"Benefactor not registered\") */\n      tag_227\n      jumpi\n      mload(0x40)\n      shl(0xe5, 0x461bcd)\n      dup2\n      mstore\n        /* \"#utility.yul\":17189:17191   */\n      0x20\n        /* \"DeadMansSwitch.sol\":5745:5813  require(benefactors[msg.sender].exists, \"Benefactor not registered\") */\n      0x04\n      dup3\n      add\n        /* \"#utility.yul\":17171:17192   */\n      mstore\n        /* \"#utility.yul\":17228:17230   */\n      0x19\n        /* \"#utility.yul\":17208:17226   */\n      0x24\n      dup3\n      add\n        /* \"#utility.yul\":17201:17231   */\n      mstore\n        /* \"#utility.yul\":17267:17294   */\n      0x42656e65666163746f72206e6f74207265676973746572656400000000000000\n        /* \"#utility.yul\":17247:17265   */\n      0x44\n      dup3\n      add\n        /* \"#utility.yul\":17240:17295   */\n      mstore\n        /* \"#utility.yul\":17312:17330   */\n      0x64\n      add\n        /* \"DeadMansSwitch.sol\":5745:5813  require(benefactors[msg.sender].exists, \"Benefactor not registered\") */\n      tag_120\n        /* \"#utility.yul\":16987:17336   */\n      jump\n        /* \"DeadMansSwitch.sol\":5745:5813  require(benefactors[msg.sender].exists, \"Benefactor not registered\") */\n    tag_227:\n        /* \"DeadMansSwitch.sol\":5836:5846  msg.sender */\n      caller\n        /* \"DeadMansSwitch.sol\":5857:5862  false */\n      0x00\n        /* \"DeadMansSwitch.sol\":5824:5847  benefactors[msg.sender] */\n      swap1\n      dup2\n      mstore\n      0x20\n      dup2\n      swap1\n      mstore\n      0x40\n      dup1\n      dup3\n      keccak256\n        /* \"DeadMansSwitch.sol\":5824:5862  benefactors[msg.sender].exists = false */\n      dup1\n      sload\n      not(0xff)\n      swap1\n      dup2\n      and\n      swap1\n      swap2\n      sstore\n      sub(shl(0xa0, 0x01), 0x01)\n        /* \"DeadMansSwitch.sol\":5880:5904  benefactors[_benefactor] */\n      dup5\n      and\n      dup4\n      mstore\n      swap1\n      dup3\n      keccak256\n        /* \"DeadMansSwitch.sol\":5873:5904  delete benefactors[_benefactor] */\n      dup1\n      sload\n      swap1\n      swap2\n      and\n      dup2\n      sstore\n      0x02\n      dup2\n      add\n      dup3\n      swap1\n      sstore\n      0x03\n      dup2\n      add\n      dup3\n      swap1\n      sstore\n      0x04\n      dup2\n      add\n      dup1\n      sload\n      not(0xffff)\n      and\n      swap1\n      sstore\n        /* \"DeadMansSwitch.sol\":5880:5904  benefactors[_benefactor] */\n      swap1\n        /* \"DeadMansSwitch.sol\":5873:5904  delete benefactors[_benefactor] */\n      tag_140\n      0x05\n      dup4\n      add\n        /* \"DeadMansSwitch.sol\":5857:5862  false */\n      dup3\n        /* \"DeadMansSwitch.sol\":5873:5904  delete benefactors[_benefactor] */\n      tag_172\n      jump\t// in\n        /* \"DeadMansSwitch.sol\":17530:18336  function getBeneficiaryData(address _benefactor, address _beneficiary) public returns (bool switchStatus, uint256 remainingTime, bool isAlive, string memory publicKey) {... */\n    tag_78:\n      sub(shl(0xa0, 0x01), 0x01)\n        /* \"DeadMansSwitch.sol\":17717:17741  benefactors[_benefactor] */\n      dup3\n      and\n        /* \"DeadMansSwitch.sol\":17617:17634  bool switchStatus */\n      0x00\n        /* \"DeadMansSwitch.sol\":17717:17741  benefactors[_benefactor] */\n      swap1\n      dup2\n      mstore\n      0x20\n      dup2\n      swap1\n      mstore\n      0x40\n      dup2\n      keccak256\n        /* \"DeadMansSwitch.sol\":17717:17748  benefactors[_benefactor].exists */\n      sload\n        /* \"DeadMansSwitch.sol\":17617:17634  bool switchStatus */\n      dup2\n      swap1\n      dup2\n      swap1\n        /* \"DeadMansSwitch.sol\":17673:17696  string memory publicKey */\n      0x60\n      swap1\n        /* \"DeadMansSwitch.sol\":17717:17748  benefactors[_benefactor].exists */\n      0xff\n      and\n        /* \"DeadMansSwitch.sol\":17709:17778  require(benefactors[_benefactor].exists, \"Benefactor does not exist\") */\n      tag_232\n      jumpi\n      mload(0x40)\n      shl(0xe5, 0x461bcd)\n      dup2\n      mstore\n        /* \"#utility.yul\":9087:9089   */\n      0x20\n        /* \"DeadMansSwitch.sol\":17709:17778  require(benefactors[_benefactor].exists, \"Benefactor does not exist\") */\n      0x04\n      dup3\n      add\n        /* \"#utility.yul\":9069:9090   */\n      mstore\n        /* \"#utility.yul\":9126:9128   */\n      0x19\n        /* \"#utility.yul\":9106:9124   */\n      0x24\n      dup3\n      add\n        /* \"#utility.yul\":9099:9129   */\n      mstore\n        /* \"#utility.yul\":9165:9192   */\n      0x42656e65666163746f7220646f6573206e6f7420657869737400000000000000\n        /* \"#utility.yul\":9145:9163   */\n      0x44\n      dup3\n      add\n        /* \"#utility.yul\":9138:9193   */\n      mstore\n        /* \"#utility.yul\":9210:9228   */\n      0x64\n      add\n        /* \"DeadMansSwitch.sol\":17709:17778  require(benefactors[_benefactor].exists, \"Benefactor does not exist\") */\n      tag_120\n        /* \"#utility.yul\":8885:9234   */\n      jump\n        /* \"DeadMansSwitch.sol\":17709:17778  require(benefactors[_benefactor].exists, \"Benefactor does not exist\") */\n    tag_232:\n      sub(shl(0xa0, 0x01), 0x01)\n        /* \"DeadMansSwitch.sol\":17805:17829  benefactors[_benefactor] */\n      dup7\n      and\n        /* \"DeadMansSwitch.sol\":17805:17816  benefactors */\n      0x00\n        /* \"DeadMansSwitch.sol\":17805:17829  benefactors[_benefactor] */\n      swap1\n      dup2\n      mstore\n      0x20\n      dup2\n      swap1\n      mstore\n      0x40\n      swap1\n      keccak256\n        /* \"DeadMansSwitch.sol\":17805:17843  benefactors[_benefactor].isSwitchedOff */\n      0x04\n      add\n      sload\n      0xff\n      and\n        /* \"DeadMansSwitch.sol\":17804:17843  !benefactors[_benefactor].isSwitchedOff */\n      iszero\n      swap4\n      pop\n      dup4\n        /* \"DeadMansSwitch.sol\":17854:18029  if (benefactors[_benefactor].isSwitchedOff) {... */\n      tag_234\n      jumpi\n        /* \"DeadMansSwitch.sol\":17929:17930  0 */\n      0x00\n        /* \"DeadMansSwitch.sol\":17913:17930  remainingTime = 0 */\n      swap3\n      pop\n        /* \"DeadMansSwitch.sol\":17854:18029  if (benefactors[_benefactor].isSwitchedOff) {... */\n      jump(tag_235)\n    tag_234:\n        /* \"DeadMansSwitch.sol\":17979:18017  getRemainingCountdownTime(_benefactor) */\n      tag_236\n        /* \"DeadMansSwitch.sol\":18005:18016  _benefactor */\n      dup7\n        /* \"DeadMansSwitch.sol\":17979:18004  getRemainingCountdownTime */\n      tag_31\n        /* \"DeadMansSwitch.sol\":17979:18017  getRemainingCountdownTime(_benefactor) */\n      jump\t// in\n    tag_236:\n        /* \"DeadMansSwitch.sol\":17963:18017  remainingTime = getRemainingCountdownTime(_benefactor) */\n      swap3\n      pop\n        /* \"DeadMansSwitch.sol\":17854:18029  if (benefactors[_benefactor].isSwitchedOff) {... */\n    tag_235:\n      sub(shl(0xa0, 0x01), 0x01)\n        /* \"DeadMansSwitch.sol\":18049:18073  benefactors[_benefactor] */\n      dup7\n      dup2\n      and\n        /* \"DeadMansSwitch.sol\":18049:18060  benefactors */\n      0x00\n        /* \"DeadMansSwitch.sol\":18049:18073  benefactors[_benefactor] */\n      swap1\n      dup2\n      mstore\n      0x20\n      dup2\n      dup2\n      mstore\n      0x40\n      dup1\n      dup4\n      keccak256\n        /* \"DeadMansSwitch.sol\":18049:18081  benefactors[_benefactor].isAlive */\n      0x04\n      dup2\n      add\n      sload\n        /* \"DeadMansSwitch.sol\":18104:18156  benefactors[_benefactor].beneficiaries[_beneficiary] */\n      swap5\n      dup11\n      and\n      dup5\n      mstore\n        /* \"DeadMansSwitch.sol\":18049:18081  benefactors[_benefactor].isAlive */\n      0x01\n        /* \"DeadMansSwitch.sol\":18104:18142  benefactors[_benefactor].beneficiaries */\n      add\n        /* \"DeadMansSwitch.sol\":18104:18156  benefactors[_benefactor].beneficiaries[_beneficiary] */\n      swap1\n      swap2\n      mstore\n      swap1\n      keccak256\n        /* \"DeadMansSwitch.sol\":18104:18177  benefactors[_benefactor].beneficiaries[_beneficiary].beneficiaryPublicKey */\n      0x02\n      add\n        /* \"DeadMansSwitch.sol\":18092:18177  publicKey = benefactors[_benefactor].beneficiaries[_beneficiary].beneficiaryPublicKey */\n      dup1\n      sload\n        /* \"DeadMansSwitch.sol\":18049:18081  benefactors[_benefactor].isAlive */\n      0x0100\n      swap1\n      swap3\n      div\n      0xff\n      and\n      swap4\n      pop\n        /* \"DeadMansSwitch.sol\":18104:18177  benefactors[_benefactor].beneficiaries[_beneficiary].beneficiaryPublicKey */\n      swap1\n        /* \"DeadMansSwitch.sol\":18092:18177  publicKey = benefactors[_benefactor].beneficiaries[_beneficiary].beneficiaryPublicKey */\n      tag_237\n      swap1\n      tag_177\n      jump\t// in\n    tag_237:\n      dup1\n      0x1f\n      add\n      0x20\n      dup1\n      swap2\n      div\n      mul\n      0x20\n      add\n      mload(0x40)\n      swap1\n      dup2\n      add\n      0x40\n      mstore\n      dup1\n      swap3\n      swap2\n      swap1\n      dup2\n      dup2\n      mstore\n      0x20\n      add\n      dup3\n      dup1\n      sload\n      tag_238\n      swap1\n      tag_177\n      jump\t// in\n    tag_238:\n      dup1\n      iszero\n      tag_239\n      jumpi\n      dup1\n      0x1f\n      lt\n      tag_240\n      jumpi\n      0x0100\n      dup1\n      dup4\n      sload\n      div\n      mul\n      dup4\n      mstore\n      swap2\n      0x20\n      add\n      swap2\n      jump(tag_239)\n    tag_240:\n      dup3\n      add\n      swap2\n      swap1\n      0x00\n      mstore\n      keccak256(0x00, 0x20)\n      swap1\n    tag_241:\n      dup2\n      sload\n      dup2\n      mstore\n      swap1\n      0x01\n      add\n      swap1\n      0x20\n      add\n      dup1\n      dup4\n      gt\n      tag_241\n      jumpi\n      dup3\n      swap1\n      sub\n      0x1f\n      and\n      dup3\n      add\n      swap2\n    tag_239:\n      pop\n      pop\n      pop\n      pop\n      pop\n      swap1\n      pop\n        /* \"DeadMansSwitch.sol\":18195:18261  BeneficiariesData(switchStatus, remainingTime, isAlive, publicKey) */\n      0x0e092c8eab045fa06eb05fe062c2d0a1721905a7ad6acb7eed9c804d956ea9fd\n        /* \"DeadMansSwitch.sol\":18213:18225  switchStatus */\n      dup5\n        /* \"DeadMansSwitch.sol\":18227:18240  remainingTime */\n      dup5\n        /* \"DeadMansSwitch.sol\":18242:18249  isAlive */\n      dup5\n        /* \"DeadMansSwitch.sol\":18251:18260  publicKey */\n      dup5\n        /* \"DeadMansSwitch.sol\":18195:18261  BeneficiariesData(switchStatus, remainingTime, isAlive, publicKey) */\n      mload(0x40)\n      tag_242\n      swap5\n      swap4\n      swap3\n      swap2\n      swap1\n      tag_80\n      jump\t// in\n    tag_242:\n      mload(0x40)\n      dup1\n      swap2\n      sub\n      swap1\n      log1\n        /* \"DeadMansSwitch.sol\":17530:18336  function getBeneficiaryData(address _benefactor, address _beneficiary) public returns (bool switchStatus, uint256 remainingTime, bool isAlive, string memory publicKey) {... */\n      swap3\n      swap6\n      swap2\n      swap5\n      pop\n      swap3\n      pop\n      jump\t// out\n        /* \"DeadMansSwitch.sol\":4080:4283  function addBenefactorPublicKey(address _benefactor, string memory _key) public {... */\n    tag_83:\n      sub(shl(0xa0, 0x01), 0x01)\n        /* \"DeadMansSwitch.sol\":4171:4195  benefactors[_benefactor] */\n      dup3\n      and\n        /* \"DeadMansSwitch.sol\":4171:4182  benefactors */\n      0x00\n        /* \"DeadMansSwitch.sol\":4171:4195  benefactors[_benefactor] */\n      swap1\n      dup2\n      mstore\n      0x20\n      dup2\n      swap1\n      mstore\n      0x40\n      swap1\n      keccak256\n        /* \"DeadMansSwitch.sol\":4171:4215  benefactors[_benefactor].benefactorPublicKey */\n      0x05\n      add\n        /* \"DeadMansSwitch.sol\":4171:4222  benefactors[_benefactor].benefactorPublicKey = _key */\n      tag_244\n        /* \"DeadMansSwitch.sol\":4218:4222  _key */\n      dup3\n        /* \"DeadMansSwitch.sol\":4171:4215  benefactors[_benefactor].benefactorPublicKey */\n      dup3\n        /* \"DeadMansSwitch.sol\":4171:4222  benefactors[_benefactor].benefactorPublicKey = _key */\n      tag_125\n      jump\t// in\n    tag_244:\n      pop\n        /* \"DeadMansSwitch.sol\":4257:4268  _benefactor */\n      dup2\n      sub(shl(0xa0, 0x01), 0x01)\n        /* \"DeadMansSwitch.sol\":4238:4275  BenefactorKeyAdded(_benefactor, _key) */\n      and\n      0xf20d3ea0a54b197ec507921ed526707368e27ad44b86bf2d4b11888b7009de6b\n        /* \"DeadMansSwitch.sol\":4270:4274  _key */\n      dup3\n        /* \"DeadMansSwitch.sol\":4238:4275  BenefactorKeyAdded(_benefactor, _key) */\n      mload(0x40)\n      tag_245\n      swap2\n      swap1\n      tag_65\n      jump\t// in\n    tag_245:\n      mload(0x40)\n      dup1\n      swap2\n      sub\n      swap1\n      log2\n        /* \"DeadMansSwitch.sol\":4080:4283  function addBenefactorPublicKey(address _benefactor, string memory _key) public {... */\n      pop\n      pop\n      jump\t// out\n        /* \"DeadMansSwitch.sol\":12418:13117  function respondToSwitch() external onlyBenefactor {... */\n    tag_85:\n        /* \"DeadMansSwitch.sol\":2621:2631  msg.sender */\n      caller\n        /* \"DeadMansSwitch.sol\":2609:2620  benefactors */\n      0x00\n        /* \"DeadMansSwitch.sol\":2609:2632  benefactors[msg.sender] */\n      swap1\n      dup2\n      mstore\n      0x20\n      dup2\n      swap1\n      mstore\n      0x40\n      swap1\n      keccak256\n        /* \"DeadMansSwitch.sol\":2609:2639  benefactors[msg.sender].exists */\n      sload\n      0xff\n      and\n        /* \"DeadMansSwitch.sol\":2609:2674  benefactors[msg.sender].exists && benefactors[msg.sender].isAlive */\n      dup1\n      iszero\n      tag_247\n      jumpi\n      pop\n        /* \"DeadMansSwitch.sol\":2655:2665  msg.sender */\n      caller\n        /* \"DeadMansSwitch.sol\":2643:2654  benefactors */\n      0x00\n        /* \"DeadMansSwitch.sol\":2643:2666  benefactors[msg.sender] */\n      swap1\n      dup2\n      mstore\n      0x20\n      dup2\n      swap1\n      mstore\n      0x40\n      swap1\n      keccak256\n        /* \"DeadMansSwitch.sol\":2643:2674  benefactors[msg.sender].isAlive */\n      0x04\n      add\n      sload\n      0x0100\n      swap1\n      div\n      0xff\n      and\n        /* \"DeadMansSwitch.sol\":2609:2674  benefactors[msg.sender].exists && benefactors[msg.sender].isAlive */\n    tag_247:\n        /* \"DeadMansSwitch.sol\":2601:2701  require(benefactors[msg.sender].exists && benefactors[msg.sender].isAlive, \"Not a valid benefactor\") */\n      tag_248\n      jumpi\n      mload(0x40)\n      shl(0xe5, 0x461bcd)\n      dup2\n      mstore\n        /* \"#utility.yul\":12391:12393   */\n      0x20\n        /* \"DeadMansSwitch.sol\":2601:2701  require(benefactors[msg.sender].exists && benefactors[msg.sender].isAlive, \"Not a valid benefactor\") */\n      0x04\n      dup3\n      add\n        /* \"#utility.yul\":12373:12394   */\n      mstore\n        /* \"#utility.yul\":12430:12432   */\n      0x16\n        /* \"#utility.yul\":12410:12428   */\n      0x24\n      dup3\n      add\n        /* \"#utility.yul\":12403:12433   */\n      mstore\n      shl(0x51, 0x2737ba1030903b30b634b2103132b732b330b1ba37b9)\n        /* \"#utility.yul\":12449:12467   */\n      0x44\n      dup3\n      add\n        /* \"#utility.yul\":12442:12494   */\n      mstore\n        /* \"#utility.yul\":12511:12529   */\n      0x64\n      add\n        /* \"DeadMansSwitch.sol\":2601:2701  require(benefactors[msg.sender].exists && benefactors[msg.sender].isAlive, \"Not a valid benefactor\") */\n      tag_120\n        /* \"#utility.yul\":12189:12535   */\n      jump\n        /* \"DeadMansSwitch.sol\":2601:2701  require(benefactors[msg.sender].exists && benefactors[msg.sender].isAlive, \"Not a valid benefactor\") */\n    tag_248:\n        /* \"DeadMansSwitch.sol\":12496:12506  msg.sender */\n      caller\n        /* \"DeadMansSwitch.sol\":12484:12495  benefactors */\n      0x00\n        /* \"DeadMansSwitch.sol\":12484:12507  benefactors[msg.sender] */\n      swap1\n      dup2\n      mstore\n      0x20\n      dup2\n      swap1\n      mstore\n      0x40\n      swap1\n      keccak256\n        /* \"DeadMansSwitch.sol\":12484:12534  benefactors[msg.sender].lastBenefactorResponseTime */\n      0x03\n      add\n      sload\n        /* \"DeadMansSwitch.sol\":12484:12539  benefactors[msg.sender].lastBenefactorResponseTime != 0 */\n      iszero\n        /* \"DeadMansSwitch.sol\":12480:13110  if (benefactors[msg.sender].lastBenefactorResponseTime != 0) {... */\n      tag_251\n      jumpi\n        /* \"DeadMansSwitch.sol\":12560:12588  checkAliveStatus(msg.sender) */\n      tag_252\n        /* \"DeadMansSwitch.sol\":12577:12587  msg.sender */\n      caller\n        /* \"DeadMansSwitch.sol\":12560:12576  checkAliveStatus */\n      tag_36\n        /* \"DeadMansSwitch.sol\":12560:12588  checkAliveStatus(msg.sender) */\n      jump\t// in\n    tag_252:\n        /* \"DeadMansSwitch.sol\":12556:12897  if (checkAliveStatus(msg.sender)) {... */\n      iszero\n      tag_253\n      jumpi\n        /* \"DeadMansSwitch.sol\":12632:12642  msg.sender */\n      caller\n      sub(shl(0xa0, 0x01), 0x01)\n        /* \"DeadMansSwitch.sol\":12614:12665  BenefactorIsAlive(msg.sender,\"Benefactor is alive\") */\n      and\n      0x793324a6f079e577f4a4646c7ec753efd3beddc2f4ce07bfae5f105c449ac356\n      mload(0x40)\n      tag_254\n      swap1\n        /* \"#utility.yul\":17543:17545   */\n      0x20\n        /* \"#utility.yul\":17525:17546   */\n      dup1\n      dup3\n      mstore\n        /* \"#utility.yul\":17582:17584   */\n      0x13\n        /* \"#utility.yul\":17562:17580   */\n      swap1\n      dup3\n      add\n        /* \"#utility.yul\":17555:17585   */\n      mstore\n        /* \"#utility.yul\":17621:17642   */\n      0x42656e65666163746f7220697320616c69766500000000000000000000000000\n        /* \"#utility.yul\":17616:17618   */\n      0x40\n        /* \"#utility.yul\":17601:17619   */\n      dup3\n      add\n        /* \"#utility.yul\":17594:17643   */\n      mstore\n        /* \"#utility.yul\":17675:17677   */\n      0x60\n        /* \"#utility.yul\":17660:17678   */\n      add\n      swap1\n        /* \"#utility.yul\":17341:17684   */\n      jump\n        /* \"DeadMansSwitch.sol\":12614:12665  BenefactorIsAlive(msg.sender,\"Benefactor is alive\") */\n    tag_254:\n      mload(0x40)\n      dup1\n      swap2\n      sub\n      swap1\n      log2\n        /* \"DeadMansSwitch.sol\":12684:12699  disableSwitch() */\n      tag_256\n        /* \"DeadMansSwitch.sol\":12684:12697  disableSwitch */\n      tag_257\n        /* \"DeadMansSwitch.sol\":12684:12699  disableSwitch() */\n      jump\t// in\n    tag_256:\n        /* \"DeadMansSwitch.sol\":12730:12740  msg.sender */\n      caller\n        /* \"DeadMansSwitch.sol\":12718:12729  benefactors */\n      0x00\n        /* \"DeadMansSwitch.sol\":12718:12741  benefactors[msg.sender] */\n      swap1\n      dup2\n      mstore\n      0x20\n      dup2\n      swap1\n      mstore\n      0x40\n      swap1\n      keccak256\n        /* \"DeadMansSwitch.sol\":12771:12786  block.timestamp */\n      timestamp\n        /* \"DeadMansSwitch.sol\":12718:12768  benefactors[msg.sender].lastBenefactorResponseTime */\n      0x03\n      swap1\n      swap2\n      add\n        /* \"DeadMansSwitch.sol\":12718:12786  benefactors[msg.sender].lastBenefactorResponseTime = block.timestamp */\n      sstore\n        /* \"DeadMansSwitch.sol\":12418:13117  function respondToSwitch() external onlyBenefactor {... */\n      jump\t// out\n        /* \"DeadMansSwitch.sol\":12556:12897  if (checkAliveStatus(msg.sender)) {... */\n    tag_253:\n        /* \"DeadMansSwitch.sol\":12849:12859  msg.sender */\n      caller\n      sub(shl(0xa0, 0x01), 0x01)\n        /* \"DeadMansSwitch.sol\":12832:12881  BenefactorIsDead(msg.sender,\"Benefactor is dead\") */\n      and\n      0x5a68fa7d6b655a3e592d5d99ac82863424750e9d262c902f30f9e56655e7a856\n      mload(0x40)\n      tag_259\n      swap1\n        /* \"#utility.yul\":17891:17893   */\n      0x20\n        /* \"#utility.yul\":17873:17894   */\n      dup1\n      dup3\n      mstore\n        /* \"#utility.yul\":17930:17932   */\n      0x12\n        /* \"#utility.yul\":17910:17928   */\n      swap1\n      dup3\n      add\n        /* \"#utility.yul\":17903:17933   */\n      mstore\n        /* \"#utility.yul\":17969:17989   */\n      0x42656e65666163746f7220697320646561640000000000000000000000000000\n        /* \"#utility.yul\":17964:17966   */\n      0x40\n        /* \"#utility.yul\":17949:17967   */\n      dup3\n      add\n        /* \"#utility.yul\":17942:17990   */\n      mstore\n        /* \"#utility.yul\":18022:18024   */\n      0x60\n        /* \"#utility.yul\":18007:18025   */\n      add\n      swap1\n        /* \"#utility.yul\":17689:18031   */\n      jump\n        /* \"DeadMansSwitch.sol\":12832:12881  BenefactorIsDead(msg.sender,\"Benefactor is dead\") */\n    tag_259:\n      mload(0x40)\n      dup1\n      swap2\n      sub\n      swap1\n      log2\n        /* \"DeadMansSwitch.sol\":12418:13117  function respondToSwitch() external onlyBenefactor {... */\n      jump\t// out\n        /* \"DeadMansSwitch.sol\":12480:13110  if (benefactors[msg.sender].lastBenefactorResponseTime != 0) {... */\n    tag_251:\n        /* \"DeadMansSwitch.sol\":12952:12962  msg.sender */\n      caller\n      sub(shl(0xa0, 0x01), 0x01)\n        /* \"DeadMansSwitch.sol\":12934:12985  BenefactorIsAlive(msg.sender,\"Benefactor is alive\") */\n      and\n      0x793324a6f079e577f4a4646c7ec753efd3beddc2f4ce07bfae5f105c449ac356\n      mload(0x40)\n      tag_254\n      swap1\n        /* \"#utility.yul\":17543:17545   */\n      0x20\n        /* \"#utility.yul\":17525:17546   */\n      dup1\n      dup3\n      mstore\n        /* \"#utility.yul\":17582:17584   */\n      0x13\n        /* \"#utility.yul\":17562:17580   */\n      swap1\n      dup3\n      add\n        /* \"#utility.yul\":17555:17585   */\n      mstore\n        /* \"#utility.yul\":17621:17642   */\n      0x42656e65666163746f7220697320616c69766500000000000000000000000000\n        /* \"#utility.yul\":17616:17618   */\n      0x40\n        /* \"#utility.yul\":17601:17619   */\n      dup3\n      add\n        /* \"#utility.yul\":17594:17643   */\n      mstore\n        /* \"#utility.yul\":17675:17677   */\n      0x60\n        /* \"#utility.yul\":17660:17678   */\n      add\n      swap1\n        /* \"#utility.yul\":17341:17684   */\n      jump\n        /* \"DeadMansSwitch.sol\":7276:8233  function addIpfsCIDs(address _beneficiary, string[] memory _ipfsCIDs) external onlyBenefactor {... */\n    tag_89:\n        /* \"DeadMansSwitch.sol\":2621:2631  msg.sender */\n      caller\n        /* \"DeadMansSwitch.sol\":2609:2620  benefactors */\n      0x00\n        /* \"DeadMansSwitch.sol\":2609:2632  benefactors[msg.sender] */\n      swap1\n      dup2\n      mstore\n      0x20\n      dup2\n      swap1\n      mstore\n      0x40\n      swap1\n      keccak256\n        /* \"DeadMansSwitch.sol\":2609:2639  benefactors[msg.sender].exists */\n      sload\n      0xff\n      and\n        /* \"DeadMansSwitch.sol\":2609:2674  benefactors[msg.sender].exists && benefactors[msg.sender].isAlive */\n      dup1\n      iszero\n      tag_265\n      jumpi\n      pop\n        /* \"DeadMansSwitch.sol\":2655:2665  msg.sender */\n      caller\n        /* \"DeadMansSwitch.sol\":2643:2654  benefactors */\n      0x00\n        /* \"DeadMansSwitch.sol\":2643:2666  benefactors[msg.sender] */\n      swap1\n      dup2\n      mstore\n      0x20\n      dup2\n      swap1\n      mstore\n      0x40\n      swap1\n      keccak256\n        /* \"DeadMansSwitch.sol\":2643:2674  benefactors[msg.sender].isAlive */\n      0x04\n      add\n      sload\n      0x0100\n      swap1\n      div\n      0xff\n      and\n        /* \"DeadMansSwitch.sol\":2609:2674  benefactors[msg.sender].exists && benefactors[msg.sender].isAlive */\n    tag_265:\n        /* \"DeadMansSwitch.sol\":2601:2701  require(benefactors[msg.sender].exists && benefactors[msg.sender].isAlive, \"Not a valid benefactor\") */\n      tag_266\n      jumpi\n      mload(0x40)\n      shl(0xe5, 0x461bcd)\n      dup2\n      mstore\n        /* \"#utility.yul\":12391:12393   */\n      0x20\n        /* \"DeadMansSwitch.sol\":2601:2701  require(benefactors[msg.sender].exists && benefactors[msg.sender].isAlive, \"Not a valid benefactor\") */\n      0x04\n      dup3\n      add\n        /* \"#utility.yul\":12373:12394   */\n      mstore\n        /* \"#utility.yul\":12430:12432   */\n      0x16\n        /* \"#utility.yul\":12410:12428   */\n      0x24\n      dup3\n      add\n        /* \"#utility.yul\":12403:12433   */\n      mstore\n      shl(0x51, 0x2737ba1030903b30b634b2103132b732b330b1ba37b9)\n        /* \"#utility.yul\":12449:12467   */\n      0x44\n      dup3\n      add\n        /* \"#utility.yul\":12442:12494   */\n      mstore\n        /* \"#utility.yul\":12511:12529   */\n      0x64\n      add\n        /* \"DeadMansSwitch.sol\":2601:2701  require(benefactors[msg.sender].exists && benefactors[msg.sender].isAlive, \"Not a valid benefactor\") */\n      tag_120\n        /* \"#utility.yul\":12189:12535   */\n      jump\n        /* \"DeadMansSwitch.sol\":2601:2701  require(benefactors[msg.sender].exists && benefactors[msg.sender].isAlive, \"Not a valid benefactor\") */\n    tag_266:\n        /* \"DeadMansSwitch.sol\":7389:7427  isBeneficiary(msg.sender,_beneficiary) */\n      tag_269\n        /* \"DeadMansSwitch.sol\":7403:7413  msg.sender */\n      caller\n        /* \"DeadMansSwitch.sol\":7414:7426  _beneficiary */\n      dup4\n        /* \"DeadMansSwitch.sol\":7389:7402  isBeneficiary */\n      tag_46\n        /* \"DeadMansSwitch.sol\":7389:7427  isBeneficiary(msg.sender,_beneficiary) */\n      jump\t// in\n    tag_269:\n        /* \"DeadMansSwitch.sol\":7381:7453  require(isBeneficiary(msg.sender,_beneficiary), \"Beneficiary not found\") */\n      tag_270\n      jumpi\n      mload(0x40)\n      shl(0xe5, 0x461bcd)\n      dup2\n      mstore\n        /* \"#utility.yul\":13369:13371   */\n      0x20\n        /* \"DeadMansSwitch.sol\":7381:7453  require(isBeneficiary(msg.sender,_beneficiary), \"Beneficiary not found\") */\n      0x04\n      dup3\n      add\n        /* \"#utility.yul\":13351:13372   */\n      mstore\n        /* \"#utility.yul\":13408:13410   */\n      0x15\n        /* \"#utility.yul\":13388:13406   */\n      0x24\n      dup3\n      add\n        /* \"#utility.yul\":13381:13411   */\n      mstore\n      shl(0x5a, 0x10995b99599a58da585c9e481b9bdd08199bdd5b99)\n        /* \"#utility.yul\":13427:13445   */\n      0x44\n      dup3\n      add\n        /* \"#utility.yul\":13420:13471   */\n      mstore\n        /* \"#utility.yul\":13488:13506   */\n      0x64\n      add\n        /* \"DeadMansSwitch.sol\":7381:7453  require(isBeneficiary(msg.sender,_beneficiary), \"Beneficiary not found\") */\n      tag_120\n        /* \"#utility.yul\":13167:13512   */\n      jump\n        /* \"DeadMansSwitch.sol\":7381:7453  require(isBeneficiary(msg.sender,_beneficiary), \"Beneficiary not found\") */\n    tag_270:\n        /* \"DeadMansSwitch.sol\":7504:7514  msg.sender */\n      caller\n        /* \"DeadMansSwitch.sol\":7464:7489  string[] storage ipfsCIDs */\n      0x00\n        /* \"DeadMansSwitch.sol\":7492:7515  benefactors[msg.sender] */\n      swap1\n      dup2\n      mstore\n      0x20\n      dup2\n      dup2\n      mstore\n      0x40\n      dup1\n      dup4\n      keccak256\n      sub(shl(0xa0, 0x01), 0x01)\n        /* \"DeadMansSwitch.sol\":7492:7543  benefactors[msg.sender].beneficiaries[_beneficiary] */\n      dup7\n      and\n      dup5\n      mstore\n        /* \"DeadMansSwitch.sol\":7492:7529  benefactors[msg.sender].beneficiaries */\n      0x01\n      swap1\n      dup2\n      add\n        /* \"DeadMansSwitch.sol\":7492:7543  benefactors[msg.sender].beneficiaries[_beneficiary] */\n      swap1\n      swap3\n      mstore\n      dup3\n      keccak256\n        /* \"DeadMansSwitch.sol\":7492:7552  benefactors[msg.sender].beneficiaries[_beneficiary].ipfsCIDs */\n      add\n      swap1\n        /* \"DeadMansSwitch.sol\":7563:8226  for (uint256 i = 0; i < _ipfsCIDs.length; i++) {... */\n    tag_272:\n        /* \"DeadMansSwitch.sol\":7587:7596  _ipfsCIDs */\n      dup3\n        /* \"DeadMansSwitch.sol\":7587:7603  _ipfsCIDs.length */\n      mload\n        /* \"DeadMansSwitch.sol\":7583:7584  i */\n      dup2\n        /* \"DeadMansSwitch.sol\":7583:7603  i < _ipfsCIDs.length */\n      lt\n        /* \"DeadMansSwitch.sol\":7563:8226  for (uint256 i = 0; i < _ipfsCIDs.length; i++) {... */\n      iszero\n      tag_273\n      jumpi\n        /* \"DeadMansSwitch.sol\":7669:7683  bool cidExists */\n      0x00\n        /* \"DeadMansSwitch.sol\":7711:7720  uint256 j */\n      dup1\n        /* \"DeadMansSwitch.sol\":7706:7964  for (uint256 j = 0; j < ipfsCIDs.length; j++) {... */\n    tag_275:\n        /* \"DeadMansSwitch.sol\":7730:7745  ipfsCIDs.length */\n      dup4\n      sload\n        /* \"DeadMansSwitch.sol\":7726:7745  j < ipfsCIDs.length */\n      dup2\n      lt\n        /* \"DeadMansSwitch.sol\":7706:7964  for (uint256 j = 0; j < ipfsCIDs.length; j++) {... */\n      iszero\n      tag_276\n      jumpi\n        /* \"DeadMansSwitch.sol\":7846:7855  _ipfsCIDs */\n      dup5\n        /* \"DeadMansSwitch.sol\":7856:7857  i */\n      dup4\n        /* \"DeadMansSwitch.sol\":7846:7858  _ipfsCIDs[i] */\n      dup2\n      mload\n      dup2\n      lt\n      tag_279\n      jumpi\n      tag_279\n      tag_144\n      jump\t// in\n    tag_279:\n      0x20\n      mul\n      0x20\n      add\n      add\n      mload\n        /* \"DeadMansSwitch.sol\":7829:7859  abi.encodePacked(_ipfsCIDs[i]) */\n      add(0x20, mload(0x40))\n      tag_280\n      swap2\n      swap1\n      tag_195\n      jump\t// in\n    tag_280:\n      mload(0x40)\n      0x20\n      dup2\n      dup4\n      sub\n      sub\n      dup2\n      mstore\n      swap1\n      0x40\n      mstore\n        /* \"DeadMansSwitch.sol\":7819:7860  keccak256(abi.encodePacked(_ipfsCIDs[i])) */\n      dup1\n      mload\n      swap1\n      0x20\n      add\n      keccak256\n        /* \"DeadMansSwitch.sol\":7802:7810  ipfsCIDs */\n      dup5\n        /* \"DeadMansSwitch.sol\":7811:7812  j */\n      dup3\n        /* \"DeadMansSwitch.sol\":7802:7813  ipfsCIDs[j] */\n      dup2\n      sload\n      dup2\n      lt\n      tag_282\n      jumpi\n      tag_282\n      tag_144\n      jump\t// in\n    tag_282:\n      swap1\n      0x00\n      mstore\n      keccak256(0x00, 0x20)\n      add\n        /* \"DeadMansSwitch.sol\":7785:7814  abi.encodePacked(ipfsCIDs[j]) */\n      add(0x20, mload(0x40))\n      tag_284\n      swap2\n      swap1\n      tag_200\n      jump\t// in\n    tag_284:\n      mload(0x40)\n      0x20\n      dup2\n      dup4\n      sub\n      sub\n      dup2\n      mstore\n      swap1\n      0x40\n      mstore\n        /* \"DeadMansSwitch.sol\":7775:7815  keccak256(abi.encodePacked(ipfsCIDs[j])) */\n      dup1\n      mload\n      swap1\n      0x20\n      add\n      keccak256\n        /* \"DeadMansSwitch.sol\":7775:7860  keccak256(abi.encodePacked(ipfsCIDs[j])) == keccak256(abi.encodePacked(_ipfsCIDs[i])) */\n      sub\n        /* \"DeadMansSwitch.sol\":7771:7949  if (keccak256(abi.encodePacked(ipfsCIDs[j])) == keccak256(abi.encodePacked(_ipfsCIDs[i]))) {... */\n      tag_285\n      jumpi\n        /* \"DeadMansSwitch.sol\":7897:7901  true */\n      0x01\n        /* \"DeadMansSwitch.sol\":7885:7901  cidExists = true */\n      swap2\n      pop\n        /* \"DeadMansSwitch.sol\":7924:7929  break */\n      jump(tag_276)\n        /* \"DeadMansSwitch.sol\":7771:7949  if (keccak256(abi.encodePacked(ipfsCIDs[j])) == keccak256(abi.encodePacked(_ipfsCIDs[i]))) {... */\n    tag_285:\n        /* \"DeadMansSwitch.sol\":7747:7750  j++ */\n      dup1\n      tag_286\n      dup2\n      tag_159\n      jump\t// in\n    tag_286:\n      swap2\n      pop\n      pop\n        /* \"DeadMansSwitch.sol\":7706:7964  for (uint256 j = 0; j < ipfsCIDs.length; j++) {... */\n      jump(tag_275)\n    tag_276:\n      pop\n        /* \"DeadMansSwitch.sol\":7987:7996  cidExists */\n      dup1\n        /* \"DeadMansSwitch.sol\":7986:7996  !cidExists */\n      iszero\n        /* \"DeadMansSwitch.sol\":7978:8041  require(!cidExists, \"CID already assigned to this beneficiary\") */\n      tag_287\n      jumpi\n      mload(0x40)\n      shl(0xe5, 0x461bcd)\n      dup2\n      mstore\n        /* \"#utility.yul\":18238:18240   */\n      0x20\n        /* \"DeadMansSwitch.sol\":7978:8041  require(!cidExists, \"CID already assigned to this beneficiary\") */\n      0x04\n      dup3\n      add\n        /* \"#utility.yul\":18220:18241   */\n      mstore\n        /* \"#utility.yul\":18277:18279   */\n      0x28\n        /* \"#utility.yul\":18257:18275   */\n      0x24\n      dup3\n      add\n        /* \"#utility.yul\":18250:18280   */\n      mstore\n        /* \"#utility.yul\":18316:18350   */\n      0x43494420616c72656164792061737369676e656420746f20746869732062656e\n        /* \"#utility.yul\":18296:18314   */\n      0x44\n      dup3\n      add\n        /* \"#utility.yul\":18289:18351   */\n      mstore\n        /* \"#utility.yul\":18387:18397   */\n      0x6566696369617279000000000000000000000000000000000000000000000000\n        /* \"#utility.yul\":18367:18385   */\n      0x64\n      dup3\n      add\n        /* \"#utility.yul\":18360:18398   */\n      mstore\n        /* \"#utility.yul\":18415:18434   */\n      0x84\n      add\n        /* \"DeadMansSwitch.sol\":7978:8041  require(!cidExists, \"CID already assigned to this beneficiary\") */\n      tag_120\n        /* \"#utility.yul\":18036:18440   */\n      jump\n        /* \"DeadMansSwitch.sol\":7978:8041  require(!cidExists, \"CID already assigned to this beneficiary\") */\n    tag_287:\n        /* \"DeadMansSwitch.sol\":8116:8124  ipfsCIDs */\n      dup3\n        /* \"DeadMansSwitch.sol\":8130:8139  _ipfsCIDs */\n      dup5\n        /* \"DeadMansSwitch.sol\":8140:8141  i */\n      dup4\n        /* \"DeadMansSwitch.sol\":8130:8142  _ipfsCIDs[i] */\n      dup2\n      mload\n      dup2\n      lt\n      tag_291\n      jumpi\n      tag_291\n      tag_144\n      jump\t// in\n    tag_291:\n      0x20\n      swap1\n      dup2\n      mul\n      swap2\n      swap1\n      swap2\n      add\n      dup2\n      add\n      mload\n        /* \"DeadMansSwitch.sol\":8116:8143  ipfsCIDs.push(_ipfsCIDs[i]) */\n      dup3\n      sload\n      0x01\n      dup2\n      add\n      dup5\n      sstore\n      0x00\n      swap4\n      dup5\n      mstore\n      swap2\n      swap1\n      swap3\n      keccak256\n      add\n      swap1\n      tag_293\n      swap1\n      dup3\n      tag_125\n      jump\t// in\n    tag_293:\n      pop\n        /* \"DeadMansSwitch.sol\":8187:8199  _beneficiary */\n      dup5\n      sub(shl(0xa0, 0x01), 0x01)\n        /* \"DeadMansSwitch.sol\":8163:8214  IpfsCIDAdded(msg.sender,_beneficiary, _ipfsCIDs[i]) */\n      and\n        /* \"DeadMansSwitch.sol\":8176:8186  msg.sender */\n      caller\n      sub(shl(0xa0, 0x01), 0x01)\n        /* \"DeadMansSwitch.sol\":8163:8214  IpfsCIDAdded(msg.sender,_beneficiary, _ipfsCIDs[i]) */\n      and\n      0xa1bb52b874769d5c17cde30e708e8f7180bb949f70e77caf0da68d25f9a1a510\n        /* \"DeadMansSwitch.sol\":8201:8210  _ipfsCIDs */\n      dup7\n        /* \"DeadMansSwitch.sol\":8211:8212  i */\n      dup6\n        /* \"DeadMansSwitch.sol\":8201:8213  _ipfsCIDs[i] */\n      dup2\n      mload\n      dup2\n      lt\n      tag_295\n      jumpi\n      tag_295\n      tag_144\n      jump\t// in\n    tag_295:\n      0x20\n      mul\n      0x20\n      add\n      add\n      mload\n        /* \"DeadMansSwitch.sol\":8163:8214  IpfsCIDAdded(msg.sender,_beneficiary, _ipfsCIDs[i]) */\n      mload(0x40)\n      tag_296\n      swap2\n      swap1\n      tag_65\n      jump\t// in\n    tag_296:\n      mload(0x40)\n      dup1\n      swap2\n      sub\n      swap1\n      log3\n      pop\n        /* \"DeadMansSwitch.sol\":7605:7608  i++ */\n      dup1\n      tag_297\n      dup2\n      tag_159\n      jump\t// in\n    tag_297:\n      swap2\n      pop\n      pop\n        /* \"DeadMansSwitch.sol\":7563:8226  for (uint256 i = 0; i < _ipfsCIDs.length; i++) {... */\n      jump(tag_272)\n    tag_273:\n      pop\n        /* \"DeadMansSwitch.sol\":7370:8233  {... */\n      pop\n        /* \"DeadMansSwitch.sol\":7276:8233  function addIpfsCIDs(address _beneficiary, string[] memory _ipfsCIDs) external onlyBenefactor {... */\n      pop\n      pop\n      jump\t// out\n        /* \"DeadMansSwitch.sol\":13307:13716  function getCIDs(address _benefactor, address _beneficiary) public view returns (string[] memory){... */\n    tag_92:\n        /* \"DeadMansSwitch.sol\":13388:13403  string[] memory */\n      0x60\n        /* \"DeadMansSwitch.sol\":13423:13462  isBeneficiary(_benefactor,_beneficiary) */\n      tag_299\n        /* \"DeadMansSwitch.sol\":13437:13448  _benefactor */\n      dup4\n        /* \"DeadMansSwitch.sol\":13449:13461  _beneficiary */\n      dup4\n        /* \"DeadMansSwitch.sol\":13423:13436  isBeneficiary */\n      tag_46\n        /* \"DeadMansSwitch.sol\":13423:13462  isBeneficiary(_benefactor,_beneficiary) */\n      jump\t// in\n    tag_299:\n        /* \"DeadMansSwitch.sol\":13415:13487  require(isBeneficiary(_benefactor,_beneficiary),\"Beneficiary not found\") */\n      tag_300\n      jumpi\n      mload(0x40)\n      shl(0xe5, 0x461bcd)\n      dup2\n      mstore\n        /* \"#utility.yul\":13369:13371   */\n      0x20\n        /* \"DeadMansSwitch.sol\":13415:13487  require(isBeneficiary(_benefactor,_beneficiary),\"Beneficiary not found\") */\n      0x04\n      dup3\n      add\n        /* \"#utility.yul\":13351:13372   */\n      mstore\n        /* \"#utility.yul\":13408:13410   */\n      0x15\n        /* \"#utility.yul\":13388:13406   */\n      0x24\n      dup3\n      add\n        /* \"#utility.yul\":13381:13411   */\n      mstore\n      shl(0x5a, 0x10995b99599a58da585c9e481b9bdd08199bdd5b99)\n        /* \"#utility.yul\":13427:13445   */\n      0x44\n      dup3\n      add\n        /* \"#utility.yul\":13420:13471   */\n      mstore\n        /* \"#utility.yul\":13488:13506   */\n      0x64\n      add\n        /* \"DeadMansSwitch.sol\":13415:13487  require(isBeneficiary(_benefactor,_beneficiary),\"Beneficiary not found\") */\n      tag_120\n        /* \"#utility.yul\":13167:13512   */\n      jump\n        /* \"DeadMansSwitch.sol\":13415:13487  require(isBeneficiary(_benefactor,_beneficiary),\"Beneficiary not found\") */\n    tag_300:\n      sub(shl(0xa0, 0x01), 0x01)\n        /* \"DeadMansSwitch.sol\":13506:13530  benefactors[_benefactor] */\n      dup4\n      and\n        /* \"DeadMansSwitch.sol\":13506:13517  benefactors */\n      0x00\n        /* \"DeadMansSwitch.sol\":13506:13530  benefactors[_benefactor] */\n      swap1\n      dup2\n      mstore\n      0x20\n      dup2\n      dup2\n      mstore\n      0x40\n      dup1\n      dup4\n      keccak256\n        /* \"DeadMansSwitch.sol\":13545:13555  msg.sender */\n      caller\n        /* \"DeadMansSwitch.sol\":13506:13556  benefactors[_benefactor].beneficiaries[msg.sender] */\n      dup5\n      mstore\n        /* \"DeadMansSwitch.sol\":13506:13544  benefactors[_benefactor].beneficiaries */\n      0x01\n      add\n        /* \"DeadMansSwitch.sol\":13506:13556  benefactors[_benefactor].beneficiaries[msg.sender] */\n      swap1\n      swap2\n      mstore\n      swap1\n      keccak256\n        /* \"DeadMansSwitch.sol\":13506:13563  benefactors[_benefactor].beneficiaries[msg.sender].exists */\n      sload\n      0xff\n      and\n        /* \"DeadMansSwitch.sol\":13506:13608  benefactors[_benefactor].beneficiaries[msg.sender].exists && benefactors[_benefactor].isAlive == false */\n      dup1\n      iszero\n      tag_302\n      jumpi\n      pop\n      sub(shl(0xa0, 0x01), 0x01)\n        /* \"DeadMansSwitch.sol\":13567:13591  benefactors[_benefactor] */\n      dup4\n      and\n        /* \"DeadMansSwitch.sol\":13567:13578  benefactors */\n      0x00\n        /* \"DeadMansSwitch.sol\":13567:13591  benefactors[_benefactor] */\n      swap1\n      dup2\n      mstore\n      0x20\n      dup2\n      swap1\n      mstore\n      0x40\n      swap1\n      keccak256\n        /* \"DeadMansSwitch.sol\":13567:13599  benefactors[_benefactor].isAlive */\n      0x04\n      add\n      sload\n      0x0100\n      swap1\n      div\n      0xff\n      and\n        /* \"DeadMansSwitch.sol\":13567:13608  benefactors[_benefactor].isAlive == false */\n      iszero\n        /* \"DeadMansSwitch.sol\":13506:13608  benefactors[_benefactor].beneficiaries[msg.sender].exists && benefactors[_benefactor].isAlive == false */\n    tag_302:\n        /* \"DeadMansSwitch.sol\":13498:13629  require(benefactors[_benefactor].beneficiaries[msg.sender].exists && benefactors[_benefactor].isAlive == false,\"No access to CIDs\") */\n      tag_303\n      jumpi\n      mload(0x40)\n      shl(0xe5, 0x461bcd)\n      dup2\n      mstore\n        /* \"#utility.yul\":18647:18649   */\n      0x20\n        /* \"DeadMansSwitch.sol\":13498:13629  require(benefactors[_benefactor].beneficiaries[msg.sender].exists && benefactors[_benefactor].isAlive == false,\"No access to CIDs\") */\n      0x04\n      dup3\n      add\n        /* \"#utility.yul\":18629:18650   */\n      mstore\n        /* \"#utility.yul\":18686:18688   */\n      0x11\n        /* \"#utility.yul\":18666:18684   */\n      0x24\n      dup3\n      add\n        /* \"#utility.yul\":18659:18689   */\n      mstore\n        /* \"#utility.yul\":18725:18744   */\n      0x4e6f2061636365737320746f2043494473000000000000000000000000000000\n        /* \"#utility.yul\":18705:18723   */\n      0x44\n      dup3\n      add\n        /* \"#utility.yul\":18698:18745   */\n      mstore\n        /* \"#utility.yul\":18762:18780   */\n      0x64\n      add\n        /* \"DeadMansSwitch.sol\":13498:13629  require(benefactors[_benefactor].beneficiaries[msg.sender].exists && benefactors[_benefactor].isAlive == false,\"No access to CIDs\") */\n      tag_120\n        /* \"#utility.yul\":18445:18786   */\n      jump\n        /* \"DeadMansSwitch.sol\":13498:13629  require(benefactors[_benefactor].beneficiaries[msg.sender].exists && benefactors[_benefactor].isAlive == false,\"No access to CIDs\") */\n    tag_303:\n      sub(shl(0xa0, 0x01), 0x01)\n        /* \"DeadMansSwitch.sol\":13647:13671  benefactors[_benefactor] */\n      dup1\n      dup5\n      and\n        /* \"DeadMansSwitch.sol\":13647:13658  benefactors */\n      0x00\n        /* \"DeadMansSwitch.sol\":13647:13671  benefactors[_benefactor] */\n      swap1\n      dup2\n      mstore\n      0x20\n      dup2\n      dup2\n      mstore\n      0x40\n      dup1\n      dup4\n      keccak256\n        /* \"DeadMansSwitch.sol\":13647:13699  benefactors[_benefactor].beneficiaries[_beneficiary] */\n      swap4\n      dup7\n      and\n      dup4\n      mstore\n        /* \"DeadMansSwitch.sol\":13647:13685  benefactors[_benefactor].beneficiaries */\n      0x01\n      swap4\n      dup5\n      add\n        /* \"DeadMansSwitch.sol\":13647:13699  benefactors[_benefactor].beneficiaries[_beneficiary] */\n      dup3\n      mstore\n      dup1\n      dup4\n      keccak256\n        /* \"DeadMansSwitch.sol\":13647:13708  benefactors[_benefactor].beneficiaries[_beneficiary].ipfsCIDs */\n      swap1\n      swap4\n      add\n        /* \"DeadMansSwitch.sol\":13640:13708  return benefactors[_benefactor].beneficiaries[_beneficiary].ipfsCIDs */\n      dup1\n      sload\n      dup5\n      mload\n      dup2\n      dup5\n      mul\n      dup2\n      add\n      dup5\n      add\n      swap1\n      swap6\n      mstore\n      dup1\n      dup6\n      mstore\n        /* \"DeadMansSwitch.sol\":13647:13708  benefactors[_benefactor].beneficiaries[_beneficiary].ipfsCIDs */\n      swap1\n      swap3\n        /* \"DeadMansSwitch.sol\":13640:13708  return benefactors[_benefactor].beneficiaries[_beneficiary].ipfsCIDs */\n      swap1\n      swap2\n      dup5\n      add\n    tag_306:\n      dup3\n      dup3\n      lt\n      iszero\n      tag_307\n      jumpi\n      dup4\n      dup3\n      swap1\n      0x00\n      mstore\n      keccak256(0x00, 0x20)\n      add\n      dup1\n      sload\n      tag_309\n      swap1\n      tag_177\n      jump\t// in\n    tag_309:\n      dup1\n      0x1f\n      add\n      0x20\n      dup1\n      swap2\n      div\n      mul\n      0x20\n      add\n      mload(0x40)\n      swap1\n      dup2\n      add\n      0x40\n      mstore\n      dup1\n      swap3\n      swap2\n      swap1\n      dup2\n      dup2\n      mstore\n      0x20\n      add\n      dup3\n      dup1\n      sload\n      tag_310\n      swap1\n      tag_177\n      jump\t// in\n    tag_310:\n      dup1\n      iszero\n      tag_311\n      jumpi\n      dup1\n      0x1f\n      lt\n      tag_312\n      jumpi\n      0x0100\n      dup1\n      dup4\n      sload\n      div\n      mul\n      dup4\n      mstore\n      swap2\n      0x20\n      add\n      swap2\n      jump(tag_311)\n    tag_312:\n      dup3\n      add\n      swap2\n      swap1\n      0x00\n      mstore\n      keccak256(0x00, 0x20)\n      swap1\n    tag_313:\n      dup2\n      sload\n      dup2\n      mstore\n      swap1\n      0x01\n      add\n      swap1\n      0x20\n      add\n      dup1\n      dup4\n      gt\n      tag_313\n      jumpi\n      dup3\n      swap1\n      sub\n      0x1f\n      and\n      dup3\n      add\n      swap2\n    tag_311:\n      pop\n      pop\n      pop\n      pop\n      pop\n      dup2\n      mstore\n      0x20\n      add\n      swap1\n      0x01\n      add\n      swap1\n      jump(tag_306)\n    tag_307:\n      pop\n      pop\n      pop\n      pop\n      swap1\n      pop\n        /* \"DeadMansSwitch.sol\":13307:13716  function getCIDs(address _benefactor, address _beneficiary) public view returns (string[] memory){... */\n      swap3\n      swap2\n      pop\n      pop\n      jump\t// out\n        /* \"DeadMansSwitch.sol\":15754:17436  function getBenefactorData(address _benefactor) public returns (bool switchStatus, address[] memory beneficiaries, uint256 remainingTime, bool isAlive, string memory publicKey, string[] memory allIpfsCIDs) {... */\n    tag_97:\n      sub(shl(0xa0, 0x01), 0x01)\n        /* \"DeadMansSwitch.sol\":15979:16003  benefactors[_benefactor] */\n      dup2\n      and\n        /* \"DeadMansSwitch.sol\":15818:15835  bool switchStatus */\n      0x00\n        /* \"DeadMansSwitch.sol\":15979:16003  benefactors[_benefactor] */\n      swap1\n      dup2\n      mstore\n      0x20\n      dup2\n      swap1\n      mstore\n      0x40\n      dup2\n      keccak256\n        /* \"DeadMansSwitch.sol\":15979:16010  benefactors[_benefactor].exists */\n      sload\n        /* \"DeadMansSwitch.sol\":15837:15867  address[] memory beneficiaries */\n      0x60\n      swap1\n        /* \"DeadMansSwitch.sol\":15818:15835  bool switchStatus */\n      dup3\n      swap1\n      dup2\n      swap1\n        /* \"DeadMansSwitch.sol\":15837:15867  address[] memory beneficiaries */\n      dup4\n      swap1\n      dup2\n      swap1\n        /* \"DeadMansSwitch.sol\":15979:16010  benefactors[_benefactor].exists */\n      0xff\n      and\n        /* \"DeadMansSwitch.sol\":15971:16040  require(benefactors[_benefactor].exists, \"Benefactor does not exist\") */\n      tag_315\n      jumpi\n      mload(0x40)\n      shl(0xe5, 0x461bcd)\n      dup2\n      mstore\n        /* \"#utility.yul\":9087:9089   */\n      0x20\n        /* \"DeadMansSwitch.sol\":15971:16040  require(benefactors[_benefactor].exists, \"Benefactor does not exist\") */\n      0x04\n      dup3\n      add\n        /* \"#utility.yul\":9069:9090   */\n      mstore\n        /* \"#utility.yul\":9126:9128   */\n      0x19\n        /* \"#utility.yul\":9106:9124   */\n      0x24\n      dup3\n      add\n        /* \"#utility.yul\":9099:9129   */\n      mstore\n        /* \"#utility.yul\":9165:9192   */\n      0x42656e65666163746f7220646f6573206e6f7420657869737400000000000000\n        /* \"#utility.yul\":9145:9163   */\n      0x44\n      dup3\n      add\n        /* \"#utility.yul\":9138:9193   */\n      mstore\n        /* \"#utility.yul\":9210:9228   */\n      0x64\n      add\n        /* \"DeadMansSwitch.sol\":15971:16040  require(benefactors[_benefactor].exists, \"Benefactor does not exist\") */\n      tag_120\n        /* \"#utility.yul\":8885:9234   */\n      jump\n        /* \"DeadMansSwitch.sol\":15971:16040  require(benefactors[_benefactor].exists, \"Benefactor does not exist\") */\n    tag_315:\n      sub(shl(0xa0, 0x01), 0x01)\n        /* \"DeadMansSwitch.sol\":16067:16091  benefactors[_benefactor] */\n      dup8\n      and\n        /* \"DeadMansSwitch.sol\":16067:16078  benefactors */\n      0x00\n        /* \"DeadMansSwitch.sol\":16067:16091  benefactors[_benefactor] */\n      swap1\n      dup2\n      mstore\n      0x20\n      dup2\n      dup2\n      mstore\n      0x40\n      dup1\n      dup4\n      keccak256\n        /* \"DeadMansSwitch.sol\":16067:16105  benefactors[_benefactor].isSwitchedOff */\n      0x04\n      add\n      sload\n        /* \"DeadMansSwitch.sol\":3926:3941  beneficiaryKeys */\n      0x01\n        /* \"DeadMansSwitch.sol\":3926:3954  beneficiaryKeys[_benefactor] */\n      swap1\n      swap3\n      mstore\n      swap1\n      swap2\n      keccak256\n        /* \"DeadMansSwitch.sol\":3926:3961  beneficiaryKeys[_benefactor].length */\n      sload\n        /* \"DeadMansSwitch.sol\":16067:16105  benefactors[_benefactor].isSwitchedOff */\n      0xff\n      swap1\n      swap2\n      and\n        /* \"DeadMansSwitch.sol\":16066:16105  !benefactors[_benefactor].isSwitchedOff */\n      iszero\n      swap7\n      pop\n        /* \"DeadMansSwitch.sol\":16132:16181  new address[](getBeneficiariesCount(_benefactor)) */\n      0xffffffffffffffff\n      dup2\n      gt\n      iszero\n      tag_320\n      jumpi\n      tag_320\n      tag_152\n      jump\t// in\n    tag_320:\n      mload(0x40)\n      swap1\n      dup1\n      dup3\n      mstore\n      dup1\n      0x20\n      mul\n      0x20\n      add\n      dup3\n      add\n      0x40\n      mstore\n      dup1\n      iszero\n      tag_321\n      jumpi\n      dup2\n      0x20\n      add\n      0x20\n      dup3\n      mul\n      dup1\n      calldatasize\n      dup4\n      calldatacopy\n      add\n      swap1\n      pop\n    tag_321:\n      pop\n        /* \"DeadMansSwitch.sol\":16116:16181  beneficiaries = new address[](getBeneficiariesCount(_benefactor)) */\n      swap5\n      pop\n        /* \"DeadMansSwitch.sol\":16192:16214  uint256 totalCIDsCount */\n      0x00\n        /* \"DeadMansSwitch.sol\":16217:16258  getTotalBeneficiaryCIDsCount(_benefactor) */\n      tag_322\n        /* \"DeadMansSwitch.sol\":16246:16257  _benefactor */\n      dup9\n        /* \"DeadMansSwitch.sol\":16217:16245  getTotalBeneficiaryCIDsCount */\n      tag_323\n        /* \"DeadMansSwitch.sol\":16217:16258  getTotalBeneficiaryCIDsCount(_benefactor) */\n      jump\t// in\n    tag_322:\n        /* \"DeadMansSwitch.sol\":16192:16258  uint256 totalCIDsCount = getTotalBeneficiaryCIDsCount(_benefactor) */\n      swap1\n      pop\n        /* \"DeadMansSwitch.sol\":16296:16310  totalCIDsCount */\n      dup1\n        /* \"DeadMansSwitch.sol\":16283:16311  new string[](totalCIDsCount) */\n      0xffffffffffffffff\n      dup2\n      gt\n      iszero\n      tag_325\n      jumpi\n      tag_325\n      tag_152\n      jump\t// in\n    tag_325:\n      mload(0x40)\n      swap1\n      dup1\n      dup3\n      mstore\n      dup1\n      0x20\n      mul\n      0x20\n      add\n      dup3\n      add\n      0x40\n      mstore\n      dup1\n      iszero\n      tag_326\n      jumpi\n      dup2\n      0x20\n      add\n    tag_327:\n      0x60\n      dup2\n      mstore\n      0x20\n      add\n      swap1\n      0x01\n      swap1\n      sub\n      swap1\n      dup2\n      tag_327\n      jumpi\n      swap1\n      pop\n    tag_326:\n      pop\n        /* \"DeadMansSwitch.sol\":16269:16311  allIpfsCIDs = new string[](totalCIDsCount) */\n      swap2\n      pop\n        /* \"DeadMansSwitch.sol\":16322:16335  uint256 index */\n      0x00\n        /* \"DeadMansSwitch.sol\":16352:16365  uint256 count */\n      dup1\n        /* \"DeadMansSwitch.sol\":16368:16402  getBeneficiariesCount(_benefactor) */\n      tag_328\n        /* \"DeadMansSwitch.sol\":16390:16401  _benefactor */\n      dup11\n      sub(shl(0xa0, 0x01), 0x01)\n        /* \"DeadMansSwitch.sol\":3926:3954  beneficiaryKeys[_benefactor] */\n      and\n        /* \"DeadMansSwitch.sol\":3899:3906  uint256 */\n      0x00\n        /* \"DeadMansSwitch.sol\":3926:3954  beneficiaryKeys[_benefactor] */\n      swap1\n      dup2\n      mstore\n        /* \"DeadMansSwitch.sol\":3926:3941  beneficiaryKeys */\n      0x01\n        /* \"DeadMansSwitch.sol\":3926:3954  beneficiaryKeys[_benefactor] */\n      0x20\n      mstore\n      0x40\n      swap1\n      keccak256\n        /* \"DeadMansSwitch.sol\":3926:3961  beneficiaryKeys[_benefactor].length */\n      sload\n      swap1\n        /* \"DeadMansSwitch.sol\":3825:3969  function getBeneficiariesCount(address _benefactor) private view returns (uint256) {... */\n      jump\n        /* \"DeadMansSwitch.sol\":16368:16402  getBeneficiariesCount(_benefactor) */\n    tag_328:\n        /* \"DeadMansSwitch.sol\":16352:16402  uint256 count = getBeneficiariesCount(_benefactor) */\n      swap1\n      pop\n        /* \"DeadMansSwitch.sol\":16418:16427  uint256 i */\n      0x00\n        /* \"DeadMansSwitch.sol\":16413:16919  for (uint256 i = 0; i < count; i++) {... */\n    tag_329:\n        /* \"DeadMansSwitch.sol\":16437:16442  count */\n      dup2\n        /* \"DeadMansSwitch.sol\":16433:16434  i */\n      dup2\n        /* \"DeadMansSwitch.sol\":16433:16442  i < count */\n      lt\n        /* \"DeadMansSwitch.sol\":16413:16919  for (uint256 i = 0; i < count; i++) {... */\n      iszero\n      tag_330\n      jumpi\n      sub(shl(0xa0, 0x01), 0x01)\n        /* \"DeadMansSwitch.sol\":16486:16514  beneficiaryKeys[_benefactor] */\n      dup12\n      and\n        /* \"DeadMansSwitch.sol\":16464:16483  address beneficiary */\n      0x00\n        /* \"DeadMansSwitch.sol\":16486:16514  beneficiaryKeys[_benefactor] */\n      swap1\n      dup2\n      mstore\n        /* \"DeadMansSwitch.sol\":16486:16501  beneficiaryKeys */\n      0x01\n        /* \"DeadMansSwitch.sol\":16486:16514  beneficiaryKeys[_benefactor] */\n      0x20\n      mstore\n      0x40\n      dup2\n      keccak256\n        /* \"DeadMansSwitch.sol\":16486:16517  beneficiaryKeys[_benefactor][i] */\n      dup1\n      sload\n        /* \"DeadMansSwitch.sol\":16515:16516  i */\n      dup4\n      swap1\n        /* \"DeadMansSwitch.sol\":16486:16517  beneficiaryKeys[_benefactor][i] */\n      dup2\n      lt\n      tag_333\n      jumpi\n      tag_333\n      tag_144\n      jump\t// in\n    tag_333:\n      0x00\n      swap2\n      dup3\n      mstore\n      0x20\n      dup1\n      dup4\n      keccak256\n      swap1\n      swap2\n      add\n      sload\n      sub(shl(0xa0, 0x01), 0x01)\n        /* \"DeadMansSwitch.sol\":16536:16560  benefactors[_benefactor] */\n      dup16\n      dup2\n      and\n      dup5\n      mstore\n      dup4\n      dup4\n      mstore\n      0x40\n      dup1\n      dup6\n      keccak256\n        /* \"DeadMansSwitch.sol\":16486:16517  beneficiaryKeys[_benefactor][i] */\n      swap2\n      swap1\n      swap3\n      and\n        /* \"DeadMansSwitch.sol\":16536:16587  benefactors[_benefactor].beneficiaries[beneficiary] */\n      dup1\n      dup6\n      mstore\n        /* \"DeadMansSwitch.sol\":16486:16517  beneficiaryKeys[_benefactor][i] */\n      0x01\n        /* \"DeadMansSwitch.sol\":16536:16574  benefactors[_benefactor].beneficiaries */\n      swap2\n      swap1\n      swap2\n      add\n        /* \"DeadMansSwitch.sol\":16536:16587  benefactors[_benefactor].beneficiaries[beneficiary] */\n      swap1\n      swap3\n      mstore\n      swap1\n      swap2\n      keccak256\n        /* \"DeadMansSwitch.sol\":16536:16594  benefactors[_benefactor].beneficiaries[beneficiary].exists */\n      sload\n        /* \"DeadMansSwitch.sol\":16486:16517  beneficiaryKeys[_benefactor][i] */\n      swap1\n      swap2\n      pop\n        /* \"DeadMansSwitch.sol\":16536:16594  benefactors[_benefactor].beneficiaries[beneficiary].exists */\n      0xff\n      and\n        /* \"DeadMansSwitch.sol\":16532:16908  if (benefactors[_benefactor].beneficiaries[beneficiary].exists) {... */\n      iszero\n      tag_335\n      jumpi\n      sub(shl(0xa0, 0x01), 0x01)\n        /* \"DeadMansSwitch.sol\":16649:16673  benefactors[_benefactor] */\n      dup1\n      dup14\n      and\n        /* \"DeadMansSwitch.sol\":16615:16646  string[] memory beneficiaryCIDs */\n      0x00\n        /* \"DeadMansSwitch.sol\":16649:16673  benefactors[_benefactor] */\n      swap1\n      dup2\n      mstore\n      0x20\n      dup2\n      dup2\n      mstore\n      0x40\n      dup1\n      dup4\n      keccak256\n        /* \"DeadMansSwitch.sol\":16649:16700  benefactors[_benefactor].beneficiaries[beneficiary] */\n      swap4\n      dup6\n      and\n      dup4\n      mstore\n        /* \"DeadMansSwitch.sol\":16649:16687  benefactors[_benefactor].beneficiaries */\n      0x01\n      swap4\n      dup5\n      add\n        /* \"DeadMansSwitch.sol\":16649:16700  benefactors[_benefactor].beneficiaries[beneficiary] */\n      dup3\n      mstore\n      dup1\n      dup4\n      keccak256\n        /* \"DeadMansSwitch.sol\":16649:16709  benefactors[_benefactor].beneficiaries[beneficiary].ipfsCIDs */\n      swap1\n      swap4\n      add\n        /* \"DeadMansSwitch.sol\":16615:16709  string[] memory beneficiaryCIDs = benefactors[_benefactor].beneficiaries[beneficiary].ipfsCIDs */\n      dup1\n      sload\n      dup5\n      mload\n      dup2\n      dup5\n      mul\n      dup2\n      add\n      dup5\n      add\n      swap1\n      swap6\n      mstore\n      dup1\n      dup6\n      mstore\n        /* \"DeadMansSwitch.sol\":16615:16646  string[] memory beneficiaryCIDs */\n      swap3\n      swap4\n        /* \"DeadMansSwitch.sol\":16615:16709  string[] memory beneficiaryCIDs = benefactors[_benefactor].beneficiaries[beneficiary].ipfsCIDs */\n      swap3\n        /* \"DeadMansSwitch.sol\":16649:16709  benefactors[_benefactor].beneficiaries[beneficiary].ipfsCIDs */\n      swap1\n      swap2\n        /* \"DeadMansSwitch.sol\":16615:16646  string[] memory beneficiaryCIDs */\n      dup5\n      swap1\n        /* \"DeadMansSwitch.sol\":16615:16709  string[] memory beneficiaryCIDs = benefactors[_benefactor].beneficiaries[beneficiary].ipfsCIDs */\n      dup5\n      add\n    tag_336:\n      dup3\n      dup3\n      lt\n      iszero\n      tag_337\n      jumpi\n      dup4\n      dup3\n      swap1\n      0x00\n      mstore\n      keccak256(0x00, 0x20)\n      add\n      dup1\n      sload\n      tag_339\n      swap1\n      tag_177\n      jump\t// in\n    tag_339:\n      dup1\n      0x1f\n      add\n      0x20\n      dup1\n      swap2\n      div\n      mul\n      0x20\n      add\n      mload(0x40)\n      swap1\n      dup2\n      add\n      0x40\n      mstore\n      dup1\n      swap3\n      swap2\n      swap1\n      dup2\n      dup2\n      mstore\n      0x20\n      add\n      dup3\n      dup1\n      sload\n      tag_340\n      swap1\n      tag_177\n      jump\t// in\n    tag_340:\n      dup1\n      iszero\n      tag_341\n      jumpi\n      dup1\n      0x1f\n      lt\n      tag_342\n      jumpi\n      0x0100\n      dup1\n      dup4\n      sload\n      div\n      mul\n      dup4\n      mstore\n      swap2\n      0x20\n      add\n      swap2\n      jump(tag_341)\n    tag_342:\n      dup3\n      add\n      swap2\n      swap1\n      0x00\n      mstore\n      keccak256(0x00, 0x20)\n      swap1\n    tag_343:\n      dup2\n      sload\n      dup2\n      mstore\n      swap1\n      0x01\n      add\n      swap1\n      0x20\n      add\n      dup1\n      dup4\n      gt\n      tag_343\n      jumpi\n      dup3\n      swap1\n      sub\n      0x1f\n      and\n      dup3\n      add\n      swap2\n    tag_341:\n      pop\n      pop\n      pop\n      pop\n      pop\n      dup2\n      mstore\n      0x20\n      add\n      swap1\n      0x01\n      add\n      swap1\n      jump(tag_336)\n    tag_337:\n      pop\n      pop\n      pop\n      pop\n      swap1\n      pop\n        /* \"DeadMansSwitch.sol\":16733:16742  uint256 j */\n      0x00\n        /* \"DeadMansSwitch.sol\":16728:16893  for (uint256 j = 0; j < beneficiaryCIDs.length; j++) {... */\n    tag_344:\n        /* \"DeadMansSwitch.sol\":16752:16767  beneficiaryCIDs */\n      dup2\n        /* \"DeadMansSwitch.sol\":16752:16774  beneficiaryCIDs.length */\n      mload\n        /* \"DeadMansSwitch.sol\":16748:16749  j */\n      dup2\n        /* \"DeadMansSwitch.sol\":16748:16774  j < beneficiaryCIDs.length */\n      lt\n        /* \"DeadMansSwitch.sol\":16728:16893  for (uint256 j = 0; j < beneficiaryCIDs.length; j++) {... */\n      iszero\n      tag_345\n      jumpi\n        /* \"DeadMansSwitch.sol\":16825:16840  beneficiaryCIDs */\n      dup2\n        /* \"DeadMansSwitch.sol\":16841:16842  j */\n      dup2\n        /* \"DeadMansSwitch.sol\":16825:16843  beneficiaryCIDs[j] */\n      dup2\n      mload\n      dup2\n      lt\n      tag_348\n      jumpi\n      tag_348\n      tag_144\n      jump\t// in\n    tag_348:\n      0x20\n      mul\n      0x20\n      add\n      add\n      mload\n        /* \"DeadMansSwitch.sol\":16804:16815  allIpfsCIDs */\n      dup9\n        /* \"DeadMansSwitch.sol\":16816:16821  index */\n      dup8\n        /* \"DeadMansSwitch.sol\":16804:16822  allIpfsCIDs[index] */\n      dup2\n      mload\n      dup2\n      lt\n      tag_350\n      jumpi\n      tag_350\n      tag_144\n      jump\t// in\n    tag_350:\n      0x20\n      mul\n      0x20\n      add\n      add\n        /* \"DeadMansSwitch.sol\":16804:16843  allIpfsCIDs[index] = beneficiaryCIDs[j] */\n      dup2\n      swap1\n      mstore\n      pop\n        /* \"DeadMansSwitch.sol\":16866:16873  index++ */\n      dup6\n      dup1\n      tag_351\n      swap1\n      tag_159\n      jump\t// in\n    tag_351:\n      swap7\n      pop\n      pop\n        /* \"DeadMansSwitch.sol\":16776:16779  j++ */\n      dup1\n      dup1\n      tag_352\n      swap1\n      tag_159\n      jump\t// in\n    tag_352:\n      swap2\n      pop\n      pop\n        /* \"DeadMansSwitch.sol\":16728:16893  for (uint256 j = 0; j < beneficiaryCIDs.length; j++) {... */\n      jump(tag_344)\n    tag_345:\n      pop\n        /* \"DeadMansSwitch.sol\":16596:16908  {... */\n      pop\n        /* \"DeadMansSwitch.sol\":16532:16908  if (benefactors[_benefactor].beneficiaries[beneficiary].exists) {... */\n    tag_335:\n      pop\n        /* \"DeadMansSwitch.sol\":16444:16447  i++ */\n      dup1\n      tag_353\n      dup2\n      tag_159\n      jump\t// in\n    tag_353:\n      swap2\n      pop\n      pop\n        /* \"DeadMansSwitch.sol\":16413:16919  for (uint256 i = 0; i < count; i++) {... */\n      jump(tag_329)\n    tag_330:\n      pop\n      sub(shl(0xa0, 0x01), 0x01)\n        /* \"DeadMansSwitch.sol\":16933:16957  benefactors[_benefactor] */\n      dup11\n      and\n        /* \"DeadMansSwitch.sol\":16933:16944  benefactors */\n      0x00\n        /* \"DeadMansSwitch.sol\":16933:16957  benefactors[_benefactor] */\n      swap1\n      dup2\n      mstore\n      0x20\n      dup2\n      swap1\n      mstore\n      0x40\n      swap1\n      keccak256\n        /* \"DeadMansSwitch.sol\":16933:16971  benefactors[_benefactor].isSwitchedOff */\n      0x04\n      add\n      sload\n      0xff\n      and\n        /* \"DeadMansSwitch.sol\":16929:17104  if (benefactors[_benefactor].isSwitchedOff) {... */\n      iszero\n      tag_354\n      jumpi\n        /* \"DeadMansSwitch.sol\":17004:17005  0 */\n      0x00\n        /* \"DeadMansSwitch.sol\":16988:17005  remainingTime = 0 */\n      swap7\n      pop\n        /* \"DeadMansSwitch.sol\":16929:17104  if (benefactors[_benefactor].isSwitchedOff) {... */\n      jump(tag_355)\n    tag_354:\n        /* \"DeadMansSwitch.sol\":17054:17092  getRemainingCountdownTime(_benefactor) */\n      tag_356\n        /* \"DeadMansSwitch.sol\":17080:17091  _benefactor */\n      dup11\n        /* \"DeadMansSwitch.sol\":17054:17079  getRemainingCountdownTime */\n      tag_31\n        /* \"DeadMansSwitch.sol\":17054:17092  getRemainingCountdownTime(_benefactor) */\n      jump\t// in\n    tag_356:\n        /* \"DeadMansSwitch.sol\":17038:17092  remainingTime = getRemainingCountdownTime(_benefactor) */\n      swap7\n      pop\n        /* \"DeadMansSwitch.sol\":16929:17104  if (benefactors[_benefactor].isSwitchedOff) {... */\n    tag_355:\n      sub(shl(0xa0, 0x01), 0x01)\n        /* \"DeadMansSwitch.sol\":17124:17148  benefactors[_benefactor] */\n      dup11\n      and\n        /* \"DeadMansSwitch.sol\":17124:17135  benefactors */\n      0x00\n        /* \"DeadMansSwitch.sol\":17124:17148  benefactors[_benefactor] */\n      swap1\n      dup2\n      mstore\n      0x20\n      dup2\n      swap1\n      mstore\n      0x40\n      swap1\n      keccak256\n        /* \"DeadMansSwitch.sol\":17124:17156  benefactors[_benefactor].isAlive */\n      0x04\n      dup2\n      add\n      sload\n        /* \"DeadMansSwitch.sol\":17179:17223  benefactors[_benefactor].benefactorPublicKey */\n      0x05\n      swap1\n      swap2\n      add\n        /* \"DeadMansSwitch.sol\":17167:17223  publicKey = benefactors[_benefactor].benefactorPublicKey */\n      dup1\n      sload\n        /* \"DeadMansSwitch.sol\":17124:17156  benefactors[_benefactor].isAlive */\n      0x0100\n      swap1\n      swap3\n      div\n      0xff\n      and\n      swap8\n      pop\n        /* \"DeadMansSwitch.sol\":17179:17223  benefactors[_benefactor].benefactorPublicKey */\n      swap1\n        /* \"DeadMansSwitch.sol\":17167:17223  publicKey = benefactors[_benefactor].benefactorPublicKey */\n      tag_357\n      swap1\n      tag_177\n      jump\t// in\n    tag_357:\n      dup1\n      0x1f\n      add\n      0x20\n      dup1\n      swap2\n      div\n      mul\n      0x20\n      add\n      mload(0x40)\n      swap1\n      dup2\n      add\n      0x40\n      mstore\n      dup1\n      swap3\n      swap2\n      swap1\n      dup2\n      dup2\n      mstore\n      0x20\n      add\n      dup3\n      dup1\n      sload\n      tag_358\n      swap1\n      tag_177\n      jump\t// in\n    tag_358:\n      dup1\n      iszero\n      tag_359\n      jumpi\n      dup1\n      0x1f\n      lt\n      tag_360\n      jumpi\n      0x0100\n      dup1\n      dup4\n      sload\n      div\n      mul\n      dup4\n      mstore\n      swap2\n      0x20\n      add\n      swap2\n      jump(tag_359)\n    tag_360:\n      dup3\n      add\n      swap2\n      swap1\n      0x00\n      mstore\n      keccak256(0x00, 0x20)\n      swap1\n    tag_361:\n      dup2\n      sload\n      dup2\n      mstore\n      swap1\n      0x01\n      add\n      swap1\n      0x20\n      add\n      dup1\n      dup4\n      gt\n      tag_361\n      jumpi\n      dup3\n      swap1\n      sub\n      0x1f\n      and\n      dup3\n      add\n      swap2\n    tag_359:\n      pop\n      pop\n      pop\n      pop\n      pop\n      swap5\n      pop\n        /* \"DeadMansSwitch.sol\":17241:17333  BenefactorsData(switchStatus, beneficiaries, remainingTime, isAlive, publicKey, allIpfsCIDs) */\n      0x4bc4f0d667f981d69e9500f47d56b517891311c1b6816bb75e9f46b3f680692c\n        /* \"DeadMansSwitch.sol\":17257:17269  switchStatus */\n      dup10\n        /* \"DeadMansSwitch.sol\":17271:17284  beneficiaries */\n      dup10\n        /* \"DeadMansSwitch.sol\":17286:17299  remainingTime */\n      dup10\n        /* \"DeadMansSwitch.sol\":17301:17308  isAlive */\n      dup10\n        /* \"DeadMansSwitch.sol\":17310:17319  publicKey */\n      dup10\n        /* \"DeadMansSwitch.sol\":17321:17332  allIpfsCIDs */\n      dup10\n        /* \"DeadMansSwitch.sol\":17241:17333  BenefactorsData(switchStatus, beneficiaries, remainingTime, isAlive, publicKey, allIpfsCIDs) */\n      mload(0x40)\n      tag_362\n      swap7\n      swap6\n      swap5\n      swap4\n      swap3\n      swap2\n      swap1\n      tag_99\n      jump\t// in\n    tag_362:\n      mload(0x40)\n      dup1\n      swap2\n      sub\n      swap1\n      log1\n        /* \"DeadMansSwitch.sol\":17344:17428  return (switchStatus, beneficiaries, remainingTime, isAlive, publicKey, allIpfsCIDs) */\n      pop\n      pop\n      pop\n        /* \"DeadMansSwitch.sol\":15754:17436  function getBenefactorData(address _benefactor) public returns (bool switchStatus, address[] memory beneficiaries, uint256 remainingTime, bool isAlive, string memory publicKey, string[] memory allIpfsCIDs) {... */\n      swap2\n      swap4\n      swap6\n      pop\n      swap2\n      swap4\n      swap6\n      jump\t// out\n        /* \"DeadMansSwitch.sol\":5266:5590  function getBeneficiaryPublicKey(address _benefactor, address _beneficiary) public view returns(string memory) {... */\n    tag_102:\n        /* \"DeadMansSwitch.sol\":5362:5375  string memory */\n      0x60\n        /* \"DeadMansSwitch.sol\":5392:5432  isBeneficiary(_benefactor, _beneficiary) */\n      tag_364\n        /* \"DeadMansSwitch.sol\":5406:5417  _benefactor */\n      dup4\n        /* \"DeadMansSwitch.sol\":5419:5431  _beneficiary */\n      dup4\n        /* \"DeadMansSwitch.sol\":5392:5405  isBeneficiary */\n      tag_46\n        /* \"DeadMansSwitch.sol\":5392:5432  isBeneficiary(_benefactor, _beneficiary) */\n      jump\t// in\n    tag_364:\n        /* \"DeadMansSwitch.sol\":5388:5583  if (isBeneficiary(_benefactor, _beneficiary)) {... */\n      iszero\n      tag_365\n      jumpi\n      sub(shl(0xa0, 0x01), 0x01)\n        /* \"DeadMansSwitch.sol\":5456:5480  benefactors[_benefactor] */\n      dup1\n      dup5\n      and\n        /* \"DeadMansSwitch.sol\":5456:5467  benefactors */\n      0x00\n        /* \"DeadMansSwitch.sol\":5456:5480  benefactors[_benefactor] */\n      swap1\n      dup2\n      mstore\n      0x20\n      dup2\n      dup2\n      mstore\n      0x40\n      dup1\n      dup4\n      keccak256\n        /* \"DeadMansSwitch.sol\":5456:5508  benefactors[_benefactor].beneficiaries[_beneficiary] */\n      swap4\n      dup7\n      and\n      dup4\n      mstore\n        /* \"DeadMansSwitch.sol\":5456:5494  benefactors[_benefactor].beneficiaries */\n      0x01\n      swap1\n      swap4\n      add\n        /* \"DeadMansSwitch.sol\":5456:5508  benefactors[_benefactor].beneficiaries[_beneficiary] */\n      swap1\n      mstore\n      keccak256\n        /* \"DeadMansSwitch.sol\":5456:5529  benefactors[_benefactor].beneficiaries[_beneficiary].beneficiaryPublicKey */\n      0x02\n      add\n        /* \"DeadMansSwitch.sol\":5449:5529  return benefactors[_benefactor].beneficiaries[_beneficiary].beneficiaryPublicKey */\n      dup1\n      sload\n      tag_366\n      swap1\n      tag_177\n      jump\t// in\n    tag_366:\n      dup1\n      0x1f\n      add\n      0x20\n      dup1\n      swap2\n      div\n      mul\n      0x20\n      add\n      mload(0x40)\n      swap1\n      dup2\n      add\n      0x40\n      mstore\n      dup1\n      swap3\n      swap2\n      swap1\n      dup2\n      dup2\n      mstore\n      0x20\n      add\n      dup3\n      dup1\n      sload\n      tag_367\n      swap1\n      tag_177\n      jump\t// in\n    tag_367:\n      dup1\n      iszero\n      tag_368\n      jumpi\n      dup1\n      0x1f\n      lt\n      tag_369\n      jumpi\n      0x0100\n      dup1\n      dup4\n      sload\n      div\n      mul\n      dup4\n      mstore\n      swap2\n      0x20\n      add\n      swap2\n      jump(tag_368)\n    tag_369:\n      dup3\n      add\n      swap2\n      swap1\n      0x00\n      mstore\n      keccak256(0x00, 0x20)\n      swap1\n    tag_370:\n      dup2\n      sload\n      dup2\n      mstore\n      swap1\n      0x01\n      add\n      swap1\n      0x20\n      add\n      dup1\n      dup4\n      gt\n      tag_370\n      jumpi\n      dup3\n      swap1\n      sub\n      0x1f\n      and\n      dup3\n      add\n      swap2\n    tag_368:\n      pop\n      pop\n      pop\n      pop\n      pop\n      swap1\n      pop\n      jump(tag_122)\n        /* \"DeadMansSwitch.sol\":5388:5583  if (isBeneficiary(_benefactor, _beneficiary)) {... */\n    tag_365:\n      pop\n        /* \"DeadMansSwitch.sol\":5562:5571  return \"\" */\n      0x40\n      dup1\n      mload\n      0x20\n      dup2\n      add\n      swap1\n      swap2\n      mstore\n      0x00\n      dup2\n      mstore\n      jump(tag_122)\n        /* \"DeadMansSwitch.sol\":11925:12260  function disableSwitch() internal onlyBenefactor {... */\n    tag_257:\n        /* \"DeadMansSwitch.sol\":2621:2631  msg.sender */\n      caller\n        /* \"DeadMansSwitch.sol\":2609:2620  benefactors */\n      0x00\n        /* \"DeadMansSwitch.sol\":2609:2632  benefactors[msg.sender] */\n      swap1\n      dup2\n      mstore\n      0x20\n      dup2\n      swap1\n      mstore\n      0x40\n      swap1\n      keccak256\n        /* \"DeadMansSwitch.sol\":2609:2639  benefactors[msg.sender].exists */\n      sload\n      0xff\n      and\n        /* \"DeadMansSwitch.sol\":2609:2674  benefactors[msg.sender].exists && benefactors[msg.sender].isAlive */\n      dup1\n      iszero\n      tag_373\n      jumpi\n      pop\n        /* \"DeadMansSwitch.sol\":2655:2665  msg.sender */\n      caller\n        /* \"DeadMansSwitch.sol\":2643:2654  benefactors */\n      0x00\n        /* \"DeadMansSwitch.sol\":2643:2666  benefactors[msg.sender] */\n      swap1\n      dup2\n      mstore\n      0x20\n      dup2\n      swap1\n      mstore\n      0x40\n      swap1\n      keccak256\n        /* \"DeadMansSwitch.sol\":2643:2674  benefactors[msg.sender].isAlive */\n      0x04\n      add\n      sload\n      0x0100\n      swap1\n      div\n      0xff\n      and\n        /* \"DeadMansSwitch.sol\":2609:2674  benefactors[msg.sender].exists && benefactors[msg.sender].isAlive */\n    tag_373:\n        /* \"DeadMansSwitch.sol\":2601:2701  require(benefactors[msg.sender].exists && benefactors[msg.sender].isAlive, \"Not a valid benefactor\") */\n      tag_374\n      jumpi\n      mload(0x40)\n      shl(0xe5, 0x461bcd)\n      dup2\n      mstore\n        /* \"#utility.yul\":12391:12393   */\n      0x20\n        /* \"DeadMansSwitch.sol\":2601:2701  require(benefactors[msg.sender].exists && benefactors[msg.sender].isAlive, \"Not a valid benefactor\") */\n      0x04\n      dup3\n      add\n        /* \"#utility.yul\":12373:12394   */\n      mstore\n        /* \"#utility.yul\":12430:12432   */\n      0x16\n        /* \"#utility.yul\":12410:12428   */\n      0x24\n      dup3\n      add\n        /* \"#utility.yul\":12403:12433   */\n      mstore\n      shl(0x51, 0x2737ba1030903b30b634b2103132b732b330b1ba37b9)\n        /* \"#utility.yul\":12449:12467   */\n      0x44\n      dup3\n      add\n        /* \"#utility.yul\":12442:12494   */\n      mstore\n        /* \"#utility.yul\":12511:12529   */\n      0x64\n      add\n        /* \"DeadMansSwitch.sol\":2601:2701  require(benefactors[msg.sender].exists && benefactors[msg.sender].isAlive, \"Not a valid benefactor\") */\n      tag_120\n        /* \"#utility.yul\":12189:12535   */\n      jump\n        /* \"DeadMansSwitch.sol\":2601:2701  require(benefactors[msg.sender].exists && benefactors[msg.sender].isAlive, \"Not a valid benefactor\") */\n    tag_374:\n        /* \"DeadMansSwitch.sol\":12001:12011  msg.sender */\n      caller\n        /* \"DeadMansSwitch.sol\":11989:12000  benefactors */\n      0x00\n        /* \"DeadMansSwitch.sol\":11989:12012  benefactors[msg.sender] */\n      swap1\n      dup2\n      mstore\n      0x20\n      dup2\n      swap1\n      mstore\n      0x40\n      swap1\n      keccak256\n        /* \"DeadMansSwitch.sol\":11989:12026  benefactors[msg.sender].isSwitchedOff */\n      0x04\n      add\n      sload\n      0xff\n      and\n        /* \"DeadMansSwitch.sol\":11985:12120  if (benefactors[msg.sender].isSwitchedOff) {... */\n      iszero\n      tag_377\n      jumpi\n        /* \"DeadMansSwitch.sol\":12048:12087  SwitchAlreadyOff(msg.sender,msg.sender) */\n      mload(0x40)\n        /* \"DeadMansSwitch.sol\":12076:12086  msg.sender */\n      caller\n      swap1\n      dup2\n      swap1\n        /* \"DeadMansSwitch.sol\":12048:12087  SwitchAlreadyOff(msg.sender,msg.sender) */\n      0x439c5aaf7691cb4808dbd2a240323ce9ec0d04d66ddf65ffd5f88ebd60fa745b\n      swap1\n      0x00\n      swap1\n      log3\n        /* \"DeadMansSwitch.sol\":12418:13117  function respondToSwitch() external onlyBenefactor {... */\n      jump\t// out\n        /* \"DeadMansSwitch.sol\":11985:12120  if (benefactors[msg.sender].isSwitchedOff) {... */\n    tag_377:\n        /* \"DeadMansSwitch.sol\":12142:12152  msg.sender */\n      caller\n        /* \"DeadMansSwitch.sol\":12130:12141  benefactors */\n      0x00\n        /* \"DeadMansSwitch.sol\":12130:12153  benefactors[msg.sender] */\n      dup2\n      dup2\n      mstore\n      0x20\n      dup2\n      swap1\n      mstore\n      0x40\n      swap1\n      dup2\n      swap1\n      keccak256\n        /* \"DeadMansSwitch.sol\":12130:12167  benefactors[msg.sender].isSwitchedOff */\n      0x04\n      add\n        /* \"DeadMansSwitch.sol\":12130:12174  benefactors[msg.sender].isSwitchedOff = true */\n      dup1\n      sload\n      not(0xff)\n      and\n        /* \"DeadMansSwitch.sol\":12170:12174  true */\n      0x01\n        /* \"DeadMansSwitch.sol\":12130:12174  benefactors[msg.sender].isSwitchedOff = true */\n      or\n      swap1\n      sstore\n        /* \"DeadMansSwitch.sol\":12190:12252  DeadMansSwitchDisabled(msg.sender,msg.sender, block.timestamp) */\n      mload\n        /* \"DeadMansSwitch.sol\":12142:12152  msg.sender */\n      dup2\n      swap1\n        /* \"DeadMansSwitch.sol\":12190:12252  DeadMansSwitchDisabled(msg.sender,msg.sender, block.timestamp) */\n      0x9baa855d20de9b1a4db454f55b09d1db5f42f0871bbea3b0c699146ade171625\n      swap1\n      tag_378\n      swap1\n        /* \"DeadMansSwitch.sol\":12236:12251  block.timestamp */\n      timestamp\n        /* \"#utility.yul\":552:577   */\n      dup2\n      mstore\n        /* \"#utility.yul\":540:542   */\n      0x20\n        /* \"#utility.yul\":525:543   */\n      add\n      swap1\n        /* \"#utility.yul\":406:583   */\n      jump\n        /* \"DeadMansSwitch.sol\":12190:12252  DeadMansSwitchDisabled(msg.sender,msg.sender, block.timestamp) */\n    tag_378:\n      mload(0x40)\n      dup1\n      swap2\n      sub\n      swap1\n      log3\n        /* \"DeadMansSwitch.sol\":11925:12260  function disableSwitch() internal onlyBenefactor {... */\n      jump\t// out\n        /* \"DeadMansSwitch.sol\":15133:15673  function getTotalBeneficiaryCIDsCount(address _benefactor) private view returns (uint256) {... */\n    tag_323:\n        /* \"DeadMansSwitch.sol\":15214:15221  uint256 */\n      0x00\n      dup1\n      dup1\n        /* \"DeadMansSwitch.sol\":15283:15317  getBeneficiariesCount(_benefactor) */\n      tag_381\n        /* \"DeadMansSwitch.sol\":15305:15316  _benefactor */\n      dup5\n      sub(shl(0xa0, 0x01), 0x01)\n        /* \"DeadMansSwitch.sol\":3926:3954  beneficiaryKeys[_benefactor] */\n      and\n        /* \"DeadMansSwitch.sol\":3899:3906  uint256 */\n      0x00\n        /* \"DeadMansSwitch.sol\":3926:3954  beneficiaryKeys[_benefactor] */\n      swap1\n      dup2\n      mstore\n        /* \"DeadMansSwitch.sol\":3926:3941  beneficiaryKeys */\n      0x01\n        /* \"DeadMansSwitch.sol\":3926:3954  beneficiaryKeys[_benefactor] */\n      0x20\n      mstore\n      0x40\n      swap1\n      keccak256\n        /* \"DeadMansSwitch.sol\":3926:3961  beneficiaryKeys[_benefactor].length */\n      sload\n      swap1\n        /* \"DeadMansSwitch.sol\":3825:3969  function getBeneficiariesCount(address _benefactor) private view returns (uint256) {... */\n      jump\n        /* \"DeadMansSwitch.sol\":15283:15317  getBeneficiariesCount(_benefactor) */\n    tag_381:\n        /* \"DeadMansSwitch.sol\":15267:15317  uint256 count = getBeneficiariesCount(_benefactor) */\n      swap1\n      pop\n        /* \"DeadMansSwitch.sol\":15333:15342  uint256 i */\n      0x00\n        /* \"DeadMansSwitch.sol\":15328:15638  for (uint256 i = 0; i < count; i++) {... */\n    tag_382:\n        /* \"DeadMansSwitch.sol\":15352:15357  count */\n      dup2\n        /* \"DeadMansSwitch.sol\":15348:15349  i */\n      dup2\n        /* \"DeadMansSwitch.sol\":15348:15357  i < count */\n      lt\n        /* \"DeadMansSwitch.sol\":15328:15638  for (uint256 i = 0; i < count; i++) {... */\n      iszero\n      tag_383\n      jumpi\n      sub(shl(0xa0, 0x01), 0x01)\n        /* \"DeadMansSwitch.sol\":15401:15429  beneficiaryKeys[_benefactor] */\n      dup6\n      and\n        /* \"DeadMansSwitch.sol\":15379:15398  address beneficiary */\n      0x00\n        /* \"DeadMansSwitch.sol\":15401:15429  beneficiaryKeys[_benefactor] */\n      swap1\n      dup2\n      mstore\n        /* \"DeadMansSwitch.sol\":15401:15416  beneficiaryKeys */\n      0x01\n        /* \"DeadMansSwitch.sol\":15401:15429  beneficiaryKeys[_benefactor] */\n      0x20\n      mstore\n      0x40\n      dup2\n      keccak256\n        /* \"DeadMansSwitch.sol\":15401:15432  beneficiaryKeys[_benefactor][i] */\n      dup1\n      sload\n        /* \"DeadMansSwitch.sol\":15430:15431  i */\n      dup4\n      swap1\n        /* \"DeadMansSwitch.sol\":15401:15432  beneficiaryKeys[_benefactor][i] */\n      dup2\n      lt\n      tag_386\n      jumpi\n      tag_386\n      tag_144\n      jump\t// in\n    tag_386:\n      0x00\n      swap2\n      dup3\n      mstore\n      0x20\n      dup1\n      dup4\n      keccak256\n      swap1\n      swap2\n      add\n      sload\n      sub(shl(0xa0, 0x01), 0x01)\n        /* \"DeadMansSwitch.sol\":15451:15475  benefactors[_benefactor] */\n      dup10\n      dup2\n      and\n      dup5\n      mstore\n      dup4\n      dup4\n      mstore\n      0x40\n      dup1\n      dup6\n      keccak256\n        /* \"DeadMansSwitch.sol\":15401:15432  beneficiaryKeys[_benefactor][i] */\n      swap2\n      swap1\n      swap3\n      and\n        /* \"DeadMansSwitch.sol\":15451:15502  benefactors[_benefactor].beneficiaries[beneficiary] */\n      dup1\n      dup6\n      mstore\n        /* \"DeadMansSwitch.sol\":15401:15432  beneficiaryKeys[_benefactor][i] */\n      0x01\n        /* \"DeadMansSwitch.sol\":15451:15489  benefactors[_benefactor].beneficiaries */\n      swap2\n      swap1\n      swap2\n      add\n        /* \"DeadMansSwitch.sol\":15451:15502  benefactors[_benefactor].beneficiaries[beneficiary] */\n      swap1\n      swap3\n      mstore\n      swap1\n      swap2\n      keccak256\n        /* \"DeadMansSwitch.sol\":15451:15509  benefactors[_benefactor].beneficiaries[beneficiary].exists */\n      sload\n        /* \"DeadMansSwitch.sol\":15401:15432  beneficiaryKeys[_benefactor][i] */\n      swap1\n      swap2\n      pop\n        /* \"DeadMansSwitch.sol\":15451:15509  benefactors[_benefactor].beneficiaries[beneficiary].exists */\n      0xff\n      and\n        /* \"DeadMansSwitch.sol\":15447:15627  if (benefactors[_benefactor].beneficiaries[beneficiary].exists) {... */\n      iszero\n      tag_388\n      jumpi\n      sub(shl(0xa0, 0x01), 0x01)\n        /* \"DeadMansSwitch.sol\":15544:15568  benefactors[_benefactor] */\n      dup1\n      dup8\n      and\n        /* \"DeadMansSwitch.sol\":15544:15555  benefactors */\n      0x00\n        /* \"DeadMansSwitch.sol\":15544:15568  benefactors[_benefactor] */\n      swap1\n      dup2\n      mstore\n      0x20\n      dup2\n      dup2\n      mstore\n      0x40\n      dup1\n      dup4\n      keccak256\n        /* \"DeadMansSwitch.sol\":15544:15595  benefactors[_benefactor].beneficiaries[beneficiary] */\n      swap4\n      dup6\n      and\n      dup4\n      mstore\n        /* \"DeadMansSwitch.sol\":15544:15582  benefactors[_benefactor].beneficiaries */\n      0x01\n      swap4\n      dup5\n      add\n        /* \"DeadMansSwitch.sol\":15544:15595  benefactors[_benefactor].beneficiaries[beneficiary] */\n      swap1\n      swap2\n      mstore\n      swap1\n      keccak256\n        /* \"DeadMansSwitch.sol\":15544:15604  benefactors[_benefactor].beneficiaries[beneficiary].ipfsCIDs */\n      add\n        /* \"DeadMansSwitch.sol\":15544:15611  benefactors[_benefactor].beneficiaries[beneficiary].ipfsCIDs.length */\n      sload\n        /* \"DeadMansSwitch.sol\":15530:15611  totalCount += benefactors[_benefactor].beneficiaries[beneficiary].ipfsCIDs.length */\n      tag_389\n      swap1\n      dup6\n      tag_390\n      jump\t// in\n    tag_389:\n      swap4\n      pop\n        /* \"DeadMansSwitch.sol\":15447:15627  if (benefactors[_benefactor].beneficiaries[beneficiary].exists) {... */\n    tag_388:\n      pop\n        /* \"DeadMansSwitch.sol\":15359:15362  i++ */\n      dup1\n      tag_391\n      dup2\n      tag_159\n      jump\t// in\n    tag_391:\n      swap2\n      pop\n      pop\n        /* \"DeadMansSwitch.sol\":15328:15638  for (uint256 i = 0; i < count; i++) {... */\n      jump(tag_382)\n    tag_383:\n      pop\n        /* \"DeadMansSwitch.sol\":15655:15665  totalCount */\n      swap1\n      swap4\n        /* \"DeadMansSwitch.sol\":15133:15673  function getTotalBeneficiaryCIDsCount(address _benefactor) private view returns (uint256) {... */\n      swap3\n      pop\n      pop\n      pop\n      jump\t// out\n    tag_156:\n      dup3\n      dup1\n      sload\n      dup3\n      dup3\n      sstore\n      swap1\n      0x00\n      mstore\n      keccak256(0x00, 0x20)\n      swap1\n      dup2\n      add\n      swap3\n      dup3\n      iszero\n      tag_394\n      jumpi\n      swap2\n      0x20\n      mul\n      dup3\n      add\n    tag_393:\n      dup3\n      dup2\n      gt\n      iszero\n      tag_394\n      jumpi\n      dup3\n      mload\n      dup3\n      swap1\n      tag_395\n      swap1\n      dup3\n      tag_125\n      jump\t// in\n    tag_395:\n      pop\n      swap2\n      0x20\n      add\n      swap2\n      swap1\n      0x01\n      add\n      swap1\n      jump(tag_393)\n    tag_394:\n      pop\n      tag_396\n      swap3\n      swap2\n      pop\n      tag_397\n      jump\t// in\n    tag_396:\n      pop\n      swap1\n      jump\t// out\n    tag_170:\n      pop\n      dup1\n      sload\n      0x00\n      dup3\n      sstore\n      swap1\n      0x00\n      mstore\n      keccak256(0x00, 0x20)\n      swap1\n      dup2\n      add\n      swap1\n      tag_124\n      swap2\n      swap1\n      tag_397\n      jump\t// in\n    tag_172:\n      pop\n      dup1\n      sload\n      tag_400\n      swap1\n      tag_177\n      jump\t// in\n    tag_400:\n      0x00\n      dup3\n      sstore\n      dup1\n      0x1f\n      lt\n      tag_402\n      jumpi\n      pop\n      pop\n      jump\t// out\n    tag_402:\n      0x1f\n      add\n      0x20\n      swap1\n      div\n      swap1\n      0x00\n      mstore\n      keccak256(0x00, 0x20)\n      swap1\n      dup2\n      add\n      swap1\n      tag_124\n      swap2\n      swap1\n      tag_404\n      jump\t// in\n    tag_397:\n      dup1\n      dup3\n      gt\n      iszero\n      tag_396\n      jumpi\n      0x00\n      tag_407\n      dup3\n      dup3\n      tag_172\n      jump\t// in\n    tag_407:\n      pop\n      0x01\n      add\n      jump(tag_397)\n    tag_404:\n    tag_408:\n      dup1\n      dup3\n      gt\n      iszero\n      tag_396\n      jumpi\n      0x00\n      dup2\n      sstore\n      0x01\n      add\n      jump(tag_408)\n        /* \"#utility.yul\":14:210   */\n    tag_410:\n        /* \"#utility.yul\":82:102   */\n      dup1\n      calldataload\n      sub(shl(0xa0, 0x01), 0x01)\n        /* \"#utility.yul\":131:185   */\n      dup2\n      and\n        /* \"#utility.yul\":121:186   */\n      dup2\n      eq\n        /* \"#utility.yul\":111:204   */\n      tag_182\n      jumpi\n        /* \"#utility.yul\":200:201   */\n      0x00\n        /* \"#utility.yul\":197:198   */\n      dup1\n        /* \"#utility.yul\":190:202   */\n      revert\n        /* \"#utility.yul\":215:401   */\n    tag_30:\n        /* \"#utility.yul\":274:280   */\n      0x00\n        /* \"#utility.yul\":327:329   */\n      0x20\n        /* \"#utility.yul\":315:324   */\n      dup3\n        /* \"#utility.yul\":306:313   */\n      dup5\n        /* \"#utility.yul\":302:325   */\n      sub\n        /* \"#utility.yul\":298:330   */\n      slt\n        /* \"#utility.yul\":295:347   */\n      iszero\n      tag_425\n      jumpi\n        /* \"#utility.yul\":343:344   */\n      0x00\n        /* \"#utility.yul\":340:341   */\n      dup1\n        /* \"#utility.yul\":333:345   */\n      revert\n        /* \"#utility.yul\":295:347   */\n    tag_425:\n        /* \"#utility.yul\":366:395   */\n      tag_111\n        /* \"#utility.yul\":385:394   */\n      dup3\n        /* \"#utility.yul\":366:395   */\n      tag_410\n      jump\t// in\n        /* \"#utility.yul\":876:1136   */\n    tag_45:\n        /* \"#utility.yul\":944:950   */\n      0x00\n        /* \"#utility.yul\":952:958   */\n      dup1\n        /* \"#utility.yul\":1005:1007   */\n      0x40\n        /* \"#utility.yul\":993:1002   */\n      dup4\n        /* \"#utility.yul\":984:991   */\n      dup6\n        /* \"#utility.yul\":980:1003   */\n      sub\n        /* \"#utility.yul\":976:1008   */\n      slt\n        /* \"#utility.yul\":973:1025   */\n      iszero\n      tag_431\n      jumpi\n        /* \"#utility.yul\":1021:1022   */\n      0x00\n        /* \"#utility.yul\":1018:1019   */\n      dup1\n        /* \"#utility.yul\":1011:1023   */\n      revert\n        /* \"#utility.yul\":973:1025   */\n    tag_431:\n        /* \"#utility.yul\":1044:1073   */\n      tag_432\n        /* \"#utility.yul\":1063:1072   */\n      dup4\n        /* \"#utility.yul\":1044:1073   */\n      tag_410\n      jump\t// in\n    tag_432:\n        /* \"#utility.yul\":1034:1073   */\n      swap2\n      pop\n        /* \"#utility.yul\":1092:1130   */\n      tag_433\n        /* \"#utility.yul\":1126:1128   */\n      0x20\n        /* \"#utility.yul\":1115:1124   */\n      dup5\n        /* \"#utility.yul\":1111:1129   */\n      add\n        /* \"#utility.yul\":1092:1130   */\n      tag_410\n      jump\t// in\n    tag_433:\n        /* \"#utility.yul\":1082:1130   */\n      swap1\n      pop\n        /* \"#utility.yul\":876:1136   */\n      swap3\n      pop\n      swap3\n      swap1\n      pop\n      jump\t// out\n        /* \"#utility.yul\":1141:1268   */\n    tag_152:\n        /* \"#utility.yul\":1202:1212   */\n      0x4e487b71\n        /* \"#utility.yul\":1197:1200   */\n      0xe0\n        /* \"#utility.yul\":1193:1213   */\n      shl\n        /* \"#utility.yul\":1190:1191   */\n      0x00\n        /* \"#utility.yul\":1183:1214   */\n      mstore\n        /* \"#utility.yul\":1233:1237   */\n      0x41\n        /* \"#utility.yul\":1230:1231   */\n      0x04\n        /* \"#utility.yul\":1223:1238   */\n      mstore\n        /* \"#utility.yul\":1257:1261   */\n      0x24\n        /* \"#utility.yul\":1254:1255   */\n      0x00\n        /* \"#utility.yul\":1247:1262   */\n      revert\n        /* \"#utility.yul\":1273:1548   */\n    tag_412:\n        /* \"#utility.yul\":1344:1346   */\n      0x40\n        /* \"#utility.yul\":1338:1347   */\n      mload\n        /* \"#utility.yul\":1409:1411   */\n      0x1f\n        /* \"#utility.yul\":1390:1403   */\n      dup3\n      add\n      not(0x1f)\n        /* \"#utility.yul\":1386:1413   */\n      and\n        /* \"#utility.yul\":1374:1414   */\n      dup2\n      add\n        /* \"#utility.yul\":1444:1462   */\n      0xffffffffffffffff\n        /* \"#utility.yul\":1429:1463   */\n      dup2\n      gt\n        /* \"#utility.yul\":1465:1487   */\n      dup3\n      dup3\n      lt\n        /* \"#utility.yul\":1426:1488   */\n      or\n        /* \"#utility.yul\":1423:1511   */\n      iszero\n      tag_437\n      jumpi\n        /* \"#utility.yul\":1491:1509   */\n      tag_437\n      tag_152\n      jump\t// in\n    tag_437:\n        /* \"#utility.yul\":1527:1529   */\n      0x40\n        /* \"#utility.yul\":1520:1542   */\n      mstore\n        /* \"#utility.yul\":1273:1548   */\n      swap2\n      swap1\n      pop\n      jump\t// out\n        /* \"#utility.yul\":1553:2084   */\n    tag_413:\n        /* \"#utility.yul\":1596:1601   */\n      0x00\n        /* \"#utility.yul\":1649:1652   */\n      dup3\n        /* \"#utility.yul\":1642:1646   */\n      0x1f\n        /* \"#utility.yul\":1634:1640   */\n      dup4\n        /* \"#utility.yul\":1630:1647   */\n      add\n        /* \"#utility.yul\":1626:1653   */\n      slt\n        /* \"#utility.yul\":1616:1671   */\n      tag_439\n      jumpi\n        /* \"#utility.yul\":1667:1668   */\n      0x00\n        /* \"#utility.yul\":1664:1665   */\n      dup1\n        /* \"#utility.yul\":1657:1669   */\n      revert\n        /* \"#utility.yul\":1616:1671   */\n    tag_439:\n        /* \"#utility.yul\":1703:1709   */\n      dup2\n        /* \"#utility.yul\":1690:1710   */\n      calldataload\n        /* \"#utility.yul\":1729:1747   */\n      0xffffffffffffffff\n        /* \"#utility.yul\":1725:1727   */\n      dup2\n        /* \"#utility.yul\":1722:1748   */\n      gt\n        /* \"#utility.yul\":1719:1771   */\n      iszero\n      tag_441\n      jumpi\n        /* \"#utility.yul\":1751:1769   */\n      tag_441\n      tag_152\n      jump\t// in\n    tag_441:\n        /* \"#utility.yul\":1795:1850   */\n      tag_442\n        /* \"#utility.yul\":1838:1840   */\n      0x1f\n        /* \"#utility.yul\":1819:1832   */\n      dup3\n      add\n      not(0x1f)\n        /* \"#utility.yul\":1815:1842   */\n      and\n        /* \"#utility.yul\":1844:1848   */\n      0x20\n        /* \"#utility.yul\":1811:1849   */\n      add\n        /* \"#utility.yul\":1795:1850   */\n      tag_412\n      jump\t// in\n    tag_442:\n        /* \"#utility.yul\":1875:1877   */\n      dup2\n        /* \"#utility.yul\":1866:1873   */\n      dup2\n        /* \"#utility.yul\":1859:1878   */\n      mstore\n        /* \"#utility.yul\":1921:1924   */\n      dup5\n        /* \"#utility.yul\":1914:1918   */\n      0x20\n        /* \"#utility.yul\":1909:1911   */\n      dup4\n        /* \"#utility.yul\":1901:1907   */\n      dup7\n        /* \"#utility.yul\":1897:1912   */\n      add\n        /* \"#utility.yul\":1893:1919   */\n      add\n        /* \"#utility.yul\":1890:1925   */\n      gt\n        /* \"#utility.yul\":1887:1942   */\n      iszero\n      tag_443\n      jumpi\n        /* \"#utility.yul\":1938:1939   */\n      0x00\n        /* \"#utility.yul\":1935:1936   */\n      dup1\n        /* \"#utility.yul\":1928:1940   */\n      revert\n        /* \"#utility.yul\":1887:1942   */\n    tag_443:\n        /* \"#utility.yul\":2003:2005   */\n      dup2\n        /* \"#utility.yul\":1996:2000   */\n      0x20\n        /* \"#utility.yul\":1988:1994   */\n      dup6\n        /* \"#utility.yul\":1984:2001   */\n      add\n        /* \"#utility.yul\":1977:1981   */\n      0x20\n        /* \"#utility.yul\":1968:1975   */\n      dup4\n        /* \"#utility.yul\":1964:1982   */\n      add\n        /* \"#utility.yul\":1951:2006   */\n      calldatacopy\n        /* \"#utility.yul\":2051:2052   */\n      0x00\n        /* \"#utility.yul\":2026:2042   */\n      swap2\n      dup2\n      add\n        /* \"#utility.yul\":2044:2048   */\n      0x20\n        /* \"#utility.yul\":2022:2049   */\n      add\n        /* \"#utility.yul\":2015:2053   */\n      swap2\n      swap1\n      swap2\n      mstore\n        /* \"#utility.yul\":2030:2037   */\n      swap4\n        /* \"#utility.yul\":1553:2084   */\n      swap3\n      pop\n      pop\n      pop\n      jump\t// out\n        /* \"#utility.yul\":2089:2559   */\n    tag_52:\n        /* \"#utility.yul\":2176:2182   */\n      0x00\n        /* \"#utility.yul\":2184:2190   */\n      dup1\n        /* \"#utility.yul\":2192:2198   */\n      0x00\n        /* \"#utility.yul\":2245:2247   */\n      0x60\n        /* \"#utility.yul\":2233:2242   */\n      dup5\n        /* \"#utility.yul\":2224:2231   */\n      dup7\n        /* \"#utility.yul\":2220:2243   */\n      sub\n        /* \"#utility.yul\":2216:2248   */\n      slt\n        /* \"#utility.yul\":2213:2265   */\n      iszero\n      tag_445\n      jumpi\n        /* \"#utility.yul\":2261:2262   */\n      0x00\n        /* \"#utility.yul\":2258:2259   */\n      dup1\n        /* \"#utility.yul\":2251:2263   */\n      revert\n        /* \"#utility.yul\":2213:2265   */\n    tag_445:\n        /* \"#utility.yul\":2284:2313   */\n      tag_446\n        /* \"#utility.yul\":2303:2312   */\n      dup5\n        /* \"#utility.yul\":2284:2313   */\n      tag_410\n      jump\t// in\n    tag_446:\n        /* \"#utility.yul\":2274:2313   */\n      swap3\n      pop\n        /* \"#utility.yul\":2332:2370   */\n      tag_447\n        /* \"#utility.yul\":2366:2368   */\n      0x20\n        /* \"#utility.yul\":2355:2364   */\n      dup6\n        /* \"#utility.yul\":2351:2369   */\n      add\n        /* \"#utility.yul\":2332:2370   */\n      tag_410\n      jump\t// in\n    tag_447:\n        /* \"#utility.yul\":2322:2370   */\n      swap2\n      pop\n        /* \"#utility.yul\":2421:2423   */\n      0x40\n        /* \"#utility.yul\":2410:2419   */\n      dup5\n        /* \"#utility.yul\":2406:2424   */\n      add\n        /* \"#utility.yul\":2393:2425   */\n      calldataload\n        /* \"#utility.yul\":2448:2466   */\n      0xffffffffffffffff\n        /* \"#utility.yul\":2440:2446   */\n      dup2\n        /* \"#utility.yul\":2437:2467   */\n      gt\n        /* \"#utility.yul\":2434:2484   */\n      iszero\n      tag_448\n      jumpi\n        /* \"#utility.yul\":2480:2481   */\n      0x00\n        /* \"#utility.yul\":2477:2478   */\n      dup1\n        /* \"#utility.yul\":2470:2482   */\n      revert\n        /* \"#utility.yul\":2434:2484   */\n    tag_448:\n        /* \"#utility.yul\":2503:2553   */\n      tag_449\n        /* \"#utility.yul\":2545:2552   */\n      dup7\n        /* \"#utility.yul\":2536:2542   */\n      dup3\n        /* \"#utility.yul\":2525:2534   */\n      dup8\n        /* \"#utility.yul\":2521:2543   */\n      add\n        /* \"#utility.yul\":2503:2553   */\n      tag_413\n      jump\t// in\n    tag_449:\n        /* \"#utility.yul\":2493:2553   */\n      swap2\n      pop\n      pop\n        /* \"#utility.yul\":2089:2559   */\n      swap3\n      pop\n      swap3\n      pop\n      swap3\n      jump\t// out\n        /* \"#utility.yul\":2564:3179   */\n    tag_56:\n        /* \"#utility.yul\":2650:2656   */\n      0x00\n        /* \"#utility.yul\":2658:2664   */\n      dup1\n        /* \"#utility.yul\":2711:2713   */\n      0x20\n        /* \"#utility.yul\":2699:2708   */\n      dup4\n        /* \"#utility.yul\":2690:2697   */\n      dup6\n        /* \"#utility.yul\":2686:2709   */\n      sub\n        /* \"#utility.yul\":2682:2714   */\n      slt\n        /* \"#utility.yul\":2679:2731   */\n      iszero\n      tag_451\n      jumpi\n        /* \"#utility.yul\":2727:2728   */\n      0x00\n        /* \"#utility.yul\":2724:2725   */\n      dup1\n        /* \"#utility.yul\":2717:2729   */\n      revert\n        /* \"#utility.yul\":2679:2731   */\n    tag_451:\n        /* \"#utility.yul\":2767:2776   */\n      dup3\n        /* \"#utility.yul\":2754:2777   */\n      calldataload\n        /* \"#utility.yul\":2796:2814   */\n      0xffffffffffffffff\n        /* \"#utility.yul\":2837:2839   */\n      dup1\n        /* \"#utility.yul\":2829:2835   */\n      dup3\n        /* \"#utility.yul\":2826:2840   */\n      gt\n        /* \"#utility.yul\":2823:2857   */\n      iszero\n      tag_452\n      jumpi\n        /* \"#utility.yul\":2853:2854   */\n      0x00\n        /* \"#utility.yul\":2850:2851   */\n      dup1\n        /* \"#utility.yul\":2843:2855   */\n      revert\n        /* \"#utility.yul\":2823:2857   */\n    tag_452:\n        /* \"#utility.yul\":2891:2897   */\n      dup2\n        /* \"#utility.yul\":2880:2889   */\n      dup6\n        /* \"#utility.yul\":2876:2898   */\n      add\n        /* \"#utility.yul\":2866:2898   */\n      swap2\n      pop\n        /* \"#utility.yul\":2936:2943   */\n      dup6\n        /* \"#utility.yul\":2929:2933   */\n      0x1f\n        /* \"#utility.yul\":2925:2927   */\n      dup4\n        /* \"#utility.yul\":2921:2934   */\n      add\n        /* \"#utility.yul\":2917:2944   */\n      slt\n        /* \"#utility.yul\":2907:2962   */\n      tag_453\n      jumpi\n        /* \"#utility.yul\":2958:2959   */\n      0x00\n        /* \"#utility.yul\":2955:2956   */\n      dup1\n        /* \"#utility.yul\":2948:2960   */\n      revert\n        /* \"#utility.yul\":2907:2962   */\n    tag_453:\n        /* \"#utility.yul\":2998:3000   */\n      dup2\n        /* \"#utility.yul\":2985:3001   */\n      calldataload\n        /* \"#utility.yul\":3024:3026   */\n      dup2\n        /* \"#utility.yul\":3016:3022   */\n      dup2\n        /* \"#utility.yul\":3013:3027   */\n      gt\n        /* \"#utility.yul\":3010:3044   */\n      iszero\n      tag_454\n      jumpi\n        /* \"#utility.yul\":3040:3041   */\n      0x00\n        /* \"#utility.yul\":3037:3038   */\n      dup1\n        /* \"#utility.yul\":3030:3042   */\n      revert\n        /* \"#utility.yul\":3010:3044   */\n    tag_454:\n        /* \"#utility.yul\":3093:3100   */\n      dup7\n        /* \"#utility.yul\":3088:3090   */\n      0x20\n        /* \"#utility.yul\":3078:3084   */\n      dup3\n        /* \"#utility.yul\":3075:3076   */\n      0x05\n        /* \"#utility.yul\":3071:3085   */\n      shl\n        /* \"#utility.yul\":3067:3069   */\n      dup6\n        /* \"#utility.yul\":3063:3086   */\n      add\n        /* \"#utility.yul\":3059:3091   */\n      add\n        /* \"#utility.yul\":3056:3101   */\n      gt\n        /* \"#utility.yul\":3053:3118   */\n      iszero\n      tag_455\n      jumpi\n        /* \"#utility.yul\":3114:3115   */\n      0x00\n        /* \"#utility.yul\":3111:3112   */\n      dup1\n        /* \"#utility.yul\":3104:3116   */\n      revert\n        /* \"#utility.yul\":3053:3118   */\n    tag_455:\n        /* \"#utility.yul\":3145:3147   */\n      0x20\n        /* \"#utility.yul\":3137:3148   */\n      swap3\n      swap1\n      swap3\n      add\n      swap7\n        /* \"#utility.yul\":3167:3173   */\n      swap2\n      swap6\n      pop\n        /* \"#utility.yul\":2564:3179   */\n      swap1\n      swap4\n      pop\n      pop\n      pop\n      pop\n      jump\t// out\n        /* \"#utility.yul\":3184:3434   */\n    tag_414:\n        /* \"#utility.yul\":3269:3270   */\n      0x00\n        /* \"#utility.yul\":3279:3392   */\n    tag_457:\n        /* \"#utility.yul\":3293:3299   */\n      dup4\n        /* \"#utility.yul\":3290:3291   */\n      dup2\n        /* \"#utility.yul\":3287:3300   */\n      lt\n        /* \"#utility.yul\":3279:3392   */\n      iszero\n      tag_459\n      jumpi\n        /* \"#utility.yul\":3369:3380   */\n      dup2\n      dup2\n      add\n        /* \"#utility.yul\":3363:3381   */\n      mload\n        /* \"#utility.yul\":3350:3361   */\n      dup4\n      dup3\n      add\n        /* \"#utility.yul\":3343:3382   */\n      mstore\n        /* \"#utility.yul\":3315:3317   */\n      0x20\n        /* \"#utility.yul\":3308:3318   */\n      add\n        /* \"#utility.yul\":3279:3392   */\n      jump(tag_457)\n    tag_459:\n      pop\n      pop\n        /* \"#utility.yul\":3426:3427   */\n      0x00\n        /* \"#utility.yul\":3408:3424   */\n      swap2\n      add\n        /* \"#utility.yul\":3401:3428   */\n      mstore\n        /* \"#utility.yul\":3184:3434   */\n      jump\t// out\n        /* \"#utility.yul\":3439:3710   */\n    tag_415:\n        /* \"#utility.yul\":3481:3484   */\n      0x00\n        /* \"#utility.yul\":3519:3524   */\n      dup2\n        /* \"#utility.yul\":3513:3525   */\n      mload\n        /* \"#utility.yul\":3546:3552   */\n      dup1\n        /* \"#utility.yul\":3541:3544   */\n      dup5\n        /* \"#utility.yul\":3534:3553   */\n      mstore\n        /* \"#utility.yul\":3562:3638   */\n      tag_461\n        /* \"#utility.yul\":3631:3637   */\n      dup2\n        /* \"#utility.yul\":3624:3628   */\n      0x20\n        /* \"#utility.yul\":3619:3622   */\n      dup7\n        /* \"#utility.yul\":3615:3629   */\n      add\n        /* \"#utility.yul\":3608:3612   */\n      0x20\n        /* \"#utility.yul\":3601:3606   */\n      dup7\n        /* \"#utility.yul\":3597:3613   */\n      add\n        /* \"#utility.yul\":3562:3638   */\n      tag_414\n      jump\t// in\n    tag_461:\n        /* \"#utility.yul\":3692:3694   */\n      0x1f\n        /* \"#utility.yul\":3671:3686   */\n      add\n      not(0x1f)\n        /* \"#utility.yul\":3667:3696   */\n      and\n        /* \"#utility.yul\":3658:3697   */\n      swap3\n      swap1\n      swap3\n      add\n        /* \"#utility.yul\":3699:3703   */\n      0x20\n        /* \"#utility.yul\":3654:3704   */\n      add\n      swap3\n        /* \"#utility.yul\":3439:3710   */\n      swap2\n      pop\n      pop\n      jump\t// out\n        /* \"#utility.yul\":3715:3935   */\n    tag_65:\n        /* \"#utility.yul\":3864:3866   */\n      0x20\n        /* \"#utility.yul\":3853:3862   */\n      dup2\n        /* \"#utility.yul\":3846:3867   */\n      mstore\n        /* \"#utility.yul\":3827:3831   */\n      0x00\n        /* \"#utility.yul\":3884:3929   */\n      tag_111\n        /* \"#utility.yul\":3925:3927   */\n      0x20\n        /* \"#utility.yul\":3914:3923   */\n      dup4\n        /* \"#utility.yul\":3910:3928   */\n      add\n        /* \"#utility.yul\":3902:3908   */\n      dup5\n        /* \"#utility.yul\":3884:3929   */\n      tag_415\n      jump\t// in\n        /* \"#utility.yul\":3940:4336   */\n    tag_68:\n        /* \"#utility.yul\":4018:4024   */\n      0x00\n        /* \"#utility.yul\":4026:4032   */\n      dup1\n        /* \"#utility.yul\":4079:4081   */\n      0x40\n        /* \"#utility.yul\":4067:4076   */\n      dup4\n        /* \"#utility.yul\":4058:4065   */\n      dup6\n        /* \"#utility.yul\":4054:4077   */\n      sub\n        /* \"#utility.yul\":4050:4082   */\n      slt\n        /* \"#utility.yul\":4047:4099   */\n      iszero\n      tag_465\n      jumpi\n        /* \"#utility.yul\":4095:4096   */\n      0x00\n        /* \"#utility.yul\":4092:4093   */\n      dup1\n        /* \"#utility.yul\":4085:4097   */\n      revert\n        /* \"#utility.yul\":4047:4099   */\n    tag_465:\n        /* \"#utility.yul\":4118:4147   */\n      tag_466\n        /* \"#utility.yul\":4137:4146   */\n      dup4\n        /* \"#utility.yul\":4118:4147   */\n      tag_410\n      jump\t// in\n    tag_466:\n        /* \"#utility.yul\":4108:4147   */\n      swap2\n      pop\n        /* \"#utility.yul\":4198:4200   */\n      0x20\n        /* \"#utility.yul\":4187:4196   */\n      dup4\n        /* \"#utility.yul\":4183:4201   */\n      add\n        /* \"#utility.yul\":4170:4202   */\n      calldataload\n        /* \"#utility.yul\":4225:4243   */\n      0xffffffffffffffff\n        /* \"#utility.yul\":4217:4223   */\n      dup2\n        /* \"#utility.yul\":4214:4244   */\n      gt\n        /* \"#utility.yul\":4211:4261   */\n      iszero\n      tag_467\n      jumpi\n        /* \"#utility.yul\":4257:4258   */\n      0x00\n        /* \"#utility.yul\":4254:4255   */\n      dup1\n        /* \"#utility.yul\":4247:4259   */\n      revert\n        /* \"#utility.yul\":4211:4261   */\n    tag_467:\n        /* \"#utility.yul\":4280:4330   */\n      tag_468\n        /* \"#utility.yul\":4322:4329   */\n      dup6\n        /* \"#utility.yul\":4313:4319   */\n      dup3\n        /* \"#utility.yul\":4302:4311   */\n      dup7\n        /* \"#utility.yul\":4298:4320   */\n      add\n        /* \"#utility.yul\":4280:4330   */\n      tag_413\n      jump\t// in\n    tag_468:\n        /* \"#utility.yul\":4270:4330   */\n      swap2\n      pop\n      pop\n        /* \"#utility.yul\":3940:4336   */\n      swap3\n      pop\n      swap3\n      swap1\n      pop\n      jump\t// out\n        /* \"#utility.yul\":4341:4796   */\n    tag_80:\n        /* \"#utility.yul\":4576:4582   */\n      dup5\n        /* \"#utility.yul\":4569:4583   */\n      iszero\n        /* \"#utility.yul\":4562:4584   */\n      iszero\n        /* \"#utility.yul\":4551:4560   */\n      dup2\n        /* \"#utility.yul\":4544:4585   */\n      mstore\n        /* \"#utility.yul\":4621:4627   */\n      dup4\n        /* \"#utility.yul\":4616:4618   */\n      0x20\n        /* \"#utility.yul\":4605:4614   */\n      dup3\n        /* \"#utility.yul\":4601:4619   */\n      add\n        /* \"#utility.yul\":4594:4628   */\n      mstore\n        /* \"#utility.yul\":4678:4684   */\n      dup3\n        /* \"#utility.yul\":4671:4685   */\n      iszero\n        /* \"#utility.yul\":4664:4686   */\n      iszero\n        /* \"#utility.yul\":4659:4661   */\n      0x40\n        /* \"#utility.yul\":4648:4657   */\n      dup3\n        /* \"#utility.yul\":4644:4662   */\n      add\n        /* \"#utility.yul\":4637:4687   */\n      mstore\n        /* \"#utility.yul\":4723:4726   */\n      0x80\n        /* \"#utility.yul\":4718:4720   */\n      0x60\n        /* \"#utility.yul\":4707:4716   */\n      dup3\n        /* \"#utility.yul\":4703:4721   */\n      add\n        /* \"#utility.yul\":4696:4727   */\n      mstore\n        /* \"#utility.yul\":4525:4529   */\n      0x00\n        /* \"#utility.yul\":4744:4790   */\n      tag_470\n        /* \"#utility.yul\":4785:4788   */\n      0x80\n        /* \"#utility.yul\":4774:4783   */\n      dup4\n        /* \"#utility.yul\":4770:4789   */\n      add\n        /* \"#utility.yul\":4762:4768   */\n      dup5\n        /* \"#utility.yul\":4744:4790   */\n      tag_415\n      jump\t// in\n    tag_470:\n        /* \"#utility.yul\":4736:4790   */\n      swap7\n        /* \"#utility.yul\":4341:4796   */\n      swap6\n      pop\n      pop\n      pop\n      pop\n      pop\n      pop\n      jump\t// out\n        /* \"#utility.yul\":4801:6042   */\n    tag_88:\n        /* \"#utility.yul\":4904:4910   */\n      0x00\n        /* \"#utility.yul\":4912:4918   */\n      dup1\n        /* \"#utility.yul\":4965:4967   */\n      0x40\n        /* \"#utility.yul\":4953:4962   */\n      dup4\n        /* \"#utility.yul\":4944:4951   */\n      dup6\n        /* \"#utility.yul\":4940:4963   */\n      sub\n        /* \"#utility.yul\":4936:4968   */\n      slt\n        /* \"#utility.yul\":4933:4985   */\n      iszero\n      tag_472\n      jumpi\n        /* \"#utility.yul\":4981:4982   */\n      0x00\n        /* \"#utility.yul\":4978:4979   */\n      dup1\n        /* \"#utility.yul\":4971:4983   */\n      revert\n        /* \"#utility.yul\":4933:4985   */\n    tag_472:\n        /* \"#utility.yul\":5004:5033   */\n      tag_473\n        /* \"#utility.yul\":5023:5032   */\n      dup4\n        /* \"#utility.yul\":5004:5033   */\n      tag_410\n      jump\t// in\n    tag_473:\n        /* \"#utility.yul\":4994:5033   */\n      swap2\n      pop\n        /* \"#utility.yul\":5052:5054   */\n      0x20\n        /* \"#utility.yul\":5105:5107   */\n      dup1\n        /* \"#utility.yul\":5094:5103   */\n      dup5\n        /* \"#utility.yul\":5090:5108   */\n      add\n        /* \"#utility.yul\":5077:5109   */\n      calldataload\n        /* \"#utility.yul\":5128:5146   */\n      0xffffffffffffffff\n        /* \"#utility.yul\":5169:5171   */\n      dup1\n        /* \"#utility.yul\":5161:5167   */\n      dup3\n        /* \"#utility.yul\":5158:5172   */\n      gt\n        /* \"#utility.yul\":5155:5189   */\n      iszero\n      tag_474\n      jumpi\n        /* \"#utility.yul\":5185:5186   */\n      0x00\n        /* \"#utility.yul\":5182:5183   */\n      dup1\n        /* \"#utility.yul\":5175:5187   */\n      revert\n        /* \"#utility.yul\":5155:5189   */\n    tag_474:\n        /* \"#utility.yul\":5223:5229   */\n      dup2\n        /* \"#utility.yul\":5212:5221   */\n      dup7\n        /* \"#utility.yul\":5208:5230   */\n      add\n        /* \"#utility.yul\":5198:5230   */\n      swap2\n      pop\n        /* \"#utility.yul\":5268:5275   */\n      dup7\n        /* \"#utility.yul\":5261:5265   */\n      0x1f\n        /* \"#utility.yul\":5257:5259   */\n      dup4\n        /* \"#utility.yul\":5253:5266   */\n      add\n        /* \"#utility.yul\":5249:5276   */\n      slt\n        /* \"#utility.yul\":5239:5294   */\n      tag_475\n      jumpi\n        /* \"#utility.yul\":5290:5291   */\n      0x00\n        /* \"#utility.yul\":5287:5288   */\n      dup1\n        /* \"#utility.yul\":5280:5292   */\n      revert\n        /* \"#utility.yul\":5239:5294   */\n    tag_475:\n        /* \"#utility.yul\":5326:5328   */\n      dup2\n        /* \"#utility.yul\":5313:5329   */\n      calldataload\n        /* \"#utility.yul\":5348:5350   */\n      dup2\n        /* \"#utility.yul\":5344:5346   */\n      dup2\n        /* \"#utility.yul\":5341:5351   */\n      gt\n        /* \"#utility.yul\":5338:5374   */\n      iszero\n      tag_477\n      jumpi\n        /* \"#utility.yul\":5354:5372   */\n      tag_477\n      tag_152\n      jump\t// in\n    tag_477:\n        /* \"#utility.yul\":5400:5402   */\n      dup1\n        /* \"#utility.yul\":5397:5398   */\n      0x05\n        /* \"#utility.yul\":5393:5403   */\n      shl\n        /* \"#utility.yul\":5423:5451   */\n      tag_478\n        /* \"#utility.yul\":5447:5449   */\n      dup6\n        /* \"#utility.yul\":5443:5445   */\n      dup3\n        /* \"#utility.yul\":5439:5450   */\n      add\n        /* \"#utility.yul\":5423:5451   */\n      tag_412\n      jump\t// in\n    tag_478:\n        /* \"#utility.yul\":5485:5500   */\n      swap2\n      dup3\n      mstore\n        /* \"#utility.yul\":5555:5566   */\n      dup4\n      dup2\n      add\n        /* \"#utility.yul\":5551:5571   */\n      dup6\n      add\n      swap2\n        /* \"#utility.yul\":5516:5528   */\n      dup6\n      dup2\n      add\n      swap1\n        /* \"#utility.yul\":5583:5602   */\n      dup11\n      dup5\n      gt\n        /* \"#utility.yul\":5580:5619   */\n      iszero\n      tag_479\n      jumpi\n        /* \"#utility.yul\":5615:5616   */\n      0x00\n        /* \"#utility.yul\":5612:5613   */\n      dup1\n        /* \"#utility.yul\":5605:5617   */\n      revert\n        /* \"#utility.yul\":5580:5619   */\n    tag_479:\n        /* \"#utility.yul\":5647:5649   */\n      dup7\n        /* \"#utility.yul\":5643:5645   */\n      dup7\n        /* \"#utility.yul\":5639:5650   */\n      add\n        /* \"#utility.yul\":5628:5650   */\n      swap3\n      pop\n        /* \"#utility.yul\":5659:6012   */\n    tag_480:\n        /* \"#utility.yul\":5675:5681   */\n      dup4\n        /* \"#utility.yul\":5670:5673   */\n      dup4\n        /* \"#utility.yul\":5667:5682   */\n      lt\n        /* \"#utility.yul\":5659:6012   */\n      iszero\n      tag_482\n      jumpi\n        /* \"#utility.yul\":5761:5764   */\n      dup3\n        /* \"#utility.yul\":5748:5765   */\n      calldataload\n        /* \"#utility.yul\":5797:5799   */\n      dup6\n        /* \"#utility.yul\":5784:5795   */\n      dup2\n        /* \"#utility.yul\":5781:5800   */\n      gt\n        /* \"#utility.yul\":5778:5887   */\n      iszero\n      tag_483\n      jumpi\n        /* \"#utility.yul\":5841:5842   */\n      0x00\n        /* \"#utility.yul\":5870:5872   */\n      dup1\n        /* \"#utility.yul\":5866:5868   */\n      dup2\n        /* \"#utility.yul\":5859:5873   */\n      revert\n        /* \"#utility.yul\":5778:5887   */\n    tag_483:\n        /* \"#utility.yul\":5912:5969   */\n      tag_484\n        /* \"#utility.yul\":5961:5968   */\n      dup13\n        /* \"#utility.yul\":5956:5958   */\n      dup10\n        /* \"#utility.yul\":5942:5953   */\n      dup4\n        /* \"#utility.yul\":5938:5940   */\n      dup11\n        /* \"#utility.yul\":5934:5954   */\n      add\n        /* \"#utility.yul\":5930:5959   */\n      add\n        /* \"#utility.yul\":5912:5969   */\n      tag_413\n      jump\t// in\n    tag_484:\n        /* \"#utility.yul\":5900:5970   */\n      dup4\n      mstore\n      pop\n        /* \"#utility.yul\":5692:5704   */\n      swap2\n      dup7\n      add\n      swap2\n        /* \"#utility.yul\":5990:6002   */\n      swap1\n      dup7\n      add\n      swap1\n        /* \"#utility.yul\":5659:6012   */\n      jump(tag_480)\n    tag_482:\n        /* \"#utility.yul\":6031:6036   */\n      dup1\n        /* \"#utility.yul\":6021:6036   */\n      swap8\n      pop\n      pop\n      pop\n      pop\n      pop\n      pop\n      pop\n      pop\n        /* \"#utility.yul\":4801:6042   */\n      swap3\n      pop\n      swap3\n      swap1\n      pop\n      jump\t// out\n        /* \"#utility.yul\":6047:6663   */\n    tag_416:\n        /* \"#utility.yul\":6099:6102   */\n      0x00\n        /* \"#utility.yul\":6137:6142   */\n      dup2\n        /* \"#utility.yul\":6131:6143   */\n      mload\n        /* \"#utility.yul\":6164:6170   */\n      dup1\n        /* \"#utility.yul\":6159:6162   */\n      dup5\n        /* \"#utility.yul\":6152:6171   */\n      mstore\n        /* \"#utility.yul\":6190:6194   */\n      0x20\n        /* \"#utility.yul\":6231:6233   */\n      dup1\n        /* \"#utility.yul\":6226:6229   */\n      dup6\n        /* \"#utility.yul\":6222:6234   */\n      add\n        /* \"#utility.yul\":6256:6267   */\n      dup1\n        /* \"#utility.yul\":6283:6294   */\n      dup2\n        /* \"#utility.yul\":6276:6294   */\n      swap7\n      pop\n        /* \"#utility.yul\":6333:6339   */\n      dup4\n        /* \"#utility.yul\":6330:6331   */\n      0x05\n        /* \"#utility.yul\":6326:6340   */\n      shl\n        /* \"#utility.yul\":6319:6324   */\n      dup2\n        /* \"#utility.yul\":6315:6341   */\n      add\n        /* \"#utility.yul\":6303:6341   */\n      swap2\n      pop\n        /* \"#utility.yul\":6375:6377   */\n      dup3\n        /* \"#utility.yul\":6368:6373   */\n      dup7\n        /* \"#utility.yul\":6364:6378   */\n      add\n        /* \"#utility.yul\":6396:6397   */\n      0x00\n        /* \"#utility.yul\":6406:6637   */\n    tag_486:\n        /* \"#utility.yul\":6420:6426   */\n      dup6\n        /* \"#utility.yul\":6417:6418   */\n      dup2\n        /* \"#utility.yul\":6414:6427   */\n      lt\n        /* \"#utility.yul\":6406:6637   */\n      iszero\n      tag_488\n      jumpi\n        /* \"#utility.yul\":6491:6496   */\n      dup3\n        /* \"#utility.yul\":6485:6489   */\n      dup5\n        /* \"#utility.yul\":6481:6497   */\n      sub\n        /* \"#utility.yul\":6476:6479   */\n      dup10\n        /* \"#utility.yul\":6469:6498   */\n      mstore\n        /* \"#utility.yul\":6519:6557   */\n      tag_489\n        /* \"#utility.yul\":6552:6556   */\n      dup5\n        /* \"#utility.yul\":6543:6549   */\n      dup4\n        /* \"#utility.yul\":6537:6550   */\n      mload\n        /* \"#utility.yul\":6519:6557   */\n      tag_415\n      jump\t// in\n    tag_489:\n        /* \"#utility.yul\":6615:6627   */\n      swap9\n      dup6\n      add\n      swap9\n        /* \"#utility.yul\":6511:6557   */\n      swap4\n      pop\n        /* \"#utility.yul\":6580:6595   */\n      swap1\n      dup5\n      add\n      swap1\n        /* \"#utility.yul\":6442:6443   */\n      0x01\n        /* \"#utility.yul\":6435:6444   */\n      add\n        /* \"#utility.yul\":6406:6637   */\n      jump(tag_486)\n    tag_488:\n      pop\n        /* \"#utility.yul\":6653:6657   */\n      swap2\n      swap8\n        /* \"#utility.yul\":6047:6663   */\n      swap7\n      pop\n      pop\n      pop\n      pop\n      pop\n      pop\n      pop\n      jump\t// out\n        /* \"#utility.yul\":6668:6948   */\n    tag_94:\n        /* \"#utility.yul\":6867:6869   */\n      0x20\n        /* \"#utility.yul\":6856:6865   */\n      dup2\n        /* \"#utility.yul\":6849:6870   */\n      mstore\n        /* \"#utility.yul\":6830:6834   */\n      0x00\n        /* \"#utility.yul\":6887:6942   */\n      tag_111\n        /* \"#utility.yul\":6938:6940   */\n      0x20\n        /* \"#utility.yul\":6927:6936   */\n      dup4\n        /* \"#utility.yul\":6923:6941   */\n      add\n        /* \"#utility.yul\":6915:6921   */\n      dup5\n        /* \"#utility.yul\":6887:6942   */\n      tag_416\n      jump\t// in\n        /* \"#utility.yul\":6953:8219   */\n    tag_99:\n        /* \"#utility.yul\":7313:7317   */\n      0x00\n        /* \"#utility.yul\":7361:7364   */\n      0xc0\n        /* \"#utility.yul\":7350:7359   */\n      dup3\n        /* \"#utility.yul\":7346:7365   */\n      add\n        /* \"#utility.yul\":7406:7412   */\n      dup9\n        /* \"#utility.yul\":7399:7413   */\n      iszero\n        /* \"#utility.yul\":7392:7414   */\n      iszero\n        /* \"#utility.yul\":7381:7390   */\n      dup4\n        /* \"#utility.yul\":7374:7415   */\n      mstore\n        /* \"#utility.yul\":7434:7436   */\n      0x20\n        /* \"#utility.yul\":7472:7475   */\n      0xc0\n        /* \"#utility.yul\":7467:7469   */\n      dup2\n        /* \"#utility.yul\":7456:7465   */\n      dup6\n        /* \"#utility.yul\":7452:7470   */\n      add\n        /* \"#utility.yul\":7445:7476   */\n      mstore\n        /* \"#utility.yul\":7496:7502   */\n      dup2\n        /* \"#utility.yul\":7531:7537   */\n      dup10\n        /* \"#utility.yul\":7525:7538   */\n      mload\n        /* \"#utility.yul\":7562:7568   */\n      dup1\n        /* \"#utility.yul\":7554:7560   */\n      dup5\n        /* \"#utility.yul\":7547:7569   */\n      mstore\n        /* \"#utility.yul\":7600:7603   */\n      0xe0\n        /* \"#utility.yul\":7589:7598   */\n      dup7\n        /* \"#utility.yul\":7585:7604   */\n      add\n        /* \"#utility.yul\":7578:7604   */\n      swap2\n      pop\n        /* \"#utility.yul\":7639:7641   */\n      dup3\n        /* \"#utility.yul\":7631:7637   */\n      dup12\n        /* \"#utility.yul\":7627:7642   */\n      add\n        /* \"#utility.yul\":7613:7642   */\n      swap4\n      pop\n        /* \"#utility.yul\":7660:7661   */\n      0x00\n        /* \"#utility.yul\":7670:7888   */\n    tag_493:\n        /* \"#utility.yul\":7684:7690   */\n      dup2\n        /* \"#utility.yul\":7681:7682   */\n      dup2\n        /* \"#utility.yul\":7678:7691   */\n      lt\n        /* \"#utility.yul\":7670:7888   */\n      iszero\n      tag_495\n      jumpi\n        /* \"#utility.yul\":7749:7762   */\n      dup5\n      mload\n      sub(shl(0xa0, 0x01), 0x01)\n        /* \"#utility.yul\":7745:7807   */\n      and\n        /* \"#utility.yul\":7733:7808   */\n      dup4\n      mstore\n        /* \"#utility.yul\":7863:7878   */\n      swap4\n      dup4\n      add\n      swap4\n        /* \"#utility.yul\":7828:7840   */\n      swap2\n      dup4\n      add\n      swap2\n        /* \"#utility.yul\":7706:7707   */\n      0x01\n        /* \"#utility.yul\":7699:7708   */\n      add\n        /* \"#utility.yul\":7670:7888   */\n      jump(tag_493)\n    tag_495:\n        /* \"#utility.yul\":7674:7677   */\n      pop\n      pop\n        /* \"#utility.yul\":7924:7930   */\n      dup9\n        /* \"#utility.yul\":7919:7921   */\n      0x40\n        /* \"#utility.yul\":7908:7917   */\n      dup7\n        /* \"#utility.yul\":7904:7922   */\n      add\n        /* \"#utility.yul\":7897:7931   */\n      mstore\n        /* \"#utility.yul\":7940:7983   */\n      tag_496\n        /* \"#utility.yul\":7979:7981   */\n      0x60\n        /* \"#utility.yul\":7968:7977   */\n      dup7\n        /* \"#utility.yul\":7964:7982   */\n      add\n        /* \"#utility.yul\":7956:7962   */\n      dup10\n        /* \"#utility.yul\":658:671   */\n      iszero\n        /* \"#utility.yul\":651:672   */\n      iszero\n        /* \"#utility.yul\":639:673   */\n      swap1\n      mstore\n        /* \"#utility.yul\":588:679   */\n      jump\n        /* \"#utility.yul\":7940:7983   */\n    tag_496:\n        /* \"#utility.yul\":8029:8038   */\n      dup5\n        /* \"#utility.yul\":8024:8027   */\n      dup2\n        /* \"#utility.yul\":8020:8039   */\n      sub\n        /* \"#utility.yul\":8014:8017   */\n      0x80\n        /* \"#utility.yul\":8003:8012   */\n      dup7\n        /* \"#utility.yul\":7999:8018   */\n      add\n        /* \"#utility.yul\":7992:8040   */\n      mstore\n        /* \"#utility.yul\":8063:8093   */\n      tag_497\n        /* \"#utility.yul\":8089:8092   */\n      dup2\n        /* \"#utility.yul\":8081:8087   */\n      dup9\n        /* \"#utility.yul\":8063:8093   */\n      tag_415\n      jump\t// in\n    tag_497:\n        /* \"#utility.yul\":8049:8093   */\n      swap3\n      pop\n      pop\n      pop\n        /* \"#utility.yul\":8142:8151   */\n      dup3\n        /* \"#utility.yul\":8134:8140   */\n      dup2\n        /* \"#utility.yul\":8130:8152   */\n      sub\n        /* \"#utility.yul\":8124:8127   */\n      0xa0\n        /* \"#utility.yul\":8113:8122   */\n      dup5\n        /* \"#utility.yul\":8109:8128   */\n      add\n        /* \"#utility.yul\":8102:8153   */\n      mstore\n        /* \"#utility.yul\":8170:8213   */\n      tag_498\n        /* \"#utility.yul\":8206:8212   */\n      dup2\n        /* \"#utility.yul\":8198:8204   */\n      dup6\n        /* \"#utility.yul\":8170:8213   */\n      tag_416\n      jump\t// in\n    tag_498:\n        /* \"#utility.yul\":8162:8213   */\n      swap10\n        /* \"#utility.yul\":6953:8219   */\n      swap9\n      pop\n      pop\n      pop\n      pop\n      pop\n      pop\n      pop\n      pop\n      pop\n      jump\t// out\n        /* \"#utility.yul\":8224:8351   */\n    tag_417:\n        /* \"#utility.yul\":8285:8295   */\n      0x4e487b71\n        /* \"#utility.yul\":8280:8283   */\n      0xe0\n        /* \"#utility.yul\":8276:8296   */\n      shl\n        /* \"#utility.yul\":8273:8274   */\n      0x00\n        /* \"#utility.yul\":8266:8297   */\n      mstore\n        /* \"#utility.yul\":8316:8320   */\n      0x11\n        /* \"#utility.yul\":8313:8314   */\n      0x04\n        /* \"#utility.yul\":8306:8321   */\n      mstore\n        /* \"#utility.yul\":8340:8344   */\n      0x24\n        /* \"#utility.yul\":8337:8338   */\n      0x00\n        /* \"#utility.yul\":8330:8345   */\n      revert\n        /* \"#utility.yul\":8356:8484   */\n    tag_106:\n        /* \"#utility.yul\":8423:8432   */\n      dup2\n      dup2\n      sub\n        /* \"#utility.yul\":8444:8455   */\n      dup2\n      dup2\n      gt\n        /* \"#utility.yul\":8441:8478   */\n      iszero\n      tag_122\n      jumpi\n        /* \"#utility.yul\":8458:8476   */\n      tag_122\n      tag_417\n      jump\t// in\n        /* \"#utility.yul\":9239:9619   */\n    tag_177:\n        /* \"#utility.yul\":9318:9319   */\n      0x01\n        /* \"#utility.yul\":9314:9326   */\n      dup2\n      dup2\n      shr\n      swap1\n        /* \"#utility.yul\":9361:9373   */\n      dup3\n      and\n      dup1\n        /* \"#utility.yul\":9382:9443   */\n      tag_506\n      jumpi\n        /* \"#utility.yul\":9436:9440   */\n      0x7f\n        /* \"#utility.yul\":9428:9434   */\n      dup3\n        /* \"#utility.yul\":9424:9441   */\n      and\n        /* \"#utility.yul\":9414:9441   */\n      swap2\n      pop\n        /* \"#utility.yul\":9382:9443   */\n    tag_506:\n        /* \"#utility.yul\":9489:9491   */\n      0x20\n        /* \"#utility.yul\":9481:9487   */\n      dup3\n        /* \"#utility.yul\":9478:9492   */\n      lt\n        /* \"#utility.yul\":9458:9476   */\n      dup2\n        /* \"#utility.yul\":9455:9493   */\n      sub\n        /* \"#utility.yul\":9452:9613   */\n      tag_507\n      jumpi\n        /* \"#utility.yul\":9535:9545   */\n      0x4e487b71\n        /* \"#utility.yul\":9530:9533   */\n      0xe0\n        /* \"#utility.yul\":9526:9546   */\n      shl\n        /* \"#utility.yul\":9523:9524   */\n      0x00\n        /* \"#utility.yul\":9516:9547   */\n      mstore\n        /* \"#utility.yul\":9570:9574   */\n      0x22\n        /* \"#utility.yul\":9567:9568   */\n      0x04\n        /* \"#utility.yul\":9560:9575   */\n      mstore\n        /* \"#utility.yul\":9598:9602   */\n      0x24\n        /* \"#utility.yul\":9595:9596   */\n      0x00\n        /* \"#utility.yul\":9588:9603   */\n      revert\n        /* \"#utility.yul\":9452:9613   */\n    tag_507:\n      pop\n        /* \"#utility.yul\":9239:9619   */\n      swap2\n      swap1\n      pop\n      jump\t// out\n        /* \"#utility.yul\":9750:10295   */\n    tag_419:\n        /* \"#utility.yul\":9852:9854   */\n      0x1f\n        /* \"#utility.yul\":9847:9850   */\n      dup3\n        /* \"#utility.yul\":9844:9855   */\n      gt\n        /* \"#utility.yul\":9841:10289   */\n      iszero\n      tag_140\n      jumpi\n        /* \"#utility.yul\":9888:9889   */\n      0x00\n        /* \"#utility.yul\":9913:9918   */\n      dup2\n        /* \"#utility.yul\":9909:9911   */\n      dup2\n        /* \"#utility.yul\":9902:9919   */\n      mstore\n        /* \"#utility.yul\":9958:9962   */\n      0x20\n        /* \"#utility.yul\":9954:9956   */\n      dup2\n        /* \"#utility.yul\":9944:9963   */\n      keccak256\n        /* \"#utility.yul\":10028:10030   */\n      0x1f\n        /* \"#utility.yul\":10016:10026   */\n      dup6\n        /* \"#utility.yul\":10012:10031   */\n      add\n        /* \"#utility.yul\":10009:10010   */\n      0x05\n        /* \"#utility.yul\":10005:10032   */\n      shr\n        /* \"#utility.yul\":9999:10003   */\n      dup2\n        /* \"#utility.yul\":9995:10033   */\n      add\n        /* \"#utility.yul\":10064:10068   */\n      0x20\n        /* \"#utility.yul\":10052:10062   */\n      dup7\n        /* \"#utility.yul\":10049:10069   */\n      lt\n        /* \"#utility.yul\":10046:10093   */\n      iszero\n      tag_511\n      jumpi\n      pop\n        /* \"#utility.yul\":10087:10091   */\n      dup1\n        /* \"#utility.yul\":10046:10093   */\n    tag_511:\n        /* \"#utility.yul\":10142:10144   */\n      0x1f\n        /* \"#utility.yul\":10137:10140   */\n      dup6\n        /* \"#utility.yul\":10133:10145   */\n      add\n        /* \"#utility.yul\":10130:10131   */\n      0x05\n        /* \"#utility.yul\":10126:10146   */\n      shr\n        /* \"#utility.yul\":10120:10124   */\n      dup3\n        /* \"#utility.yul\":10116:10147   */\n      add\n        /* \"#utility.yul\":10106:10147   */\n      swap2\n      pop\n        /* \"#utility.yul\":10197:10279   */\n    tag_512:\n        /* \"#utility.yul\":10215:10217   */\n      dup2\n        /* \"#utility.yul\":10208:10213   */\n      dup2\n        /* \"#utility.yul\":10205:10218   */\n      lt\n        /* \"#utility.yul\":10197:10279   */\n      iszero\n      tag_514\n      jumpi\n        /* \"#utility.yul\":10260:10277   */\n      dup3\n      dup2\n      sstore\n        /* \"#utility.yul\":10241:10242   */\n      0x01\n        /* \"#utility.yul\":10230:10243   */\n      add\n        /* \"#utility.yul\":10197:10279   */\n      jump(tag_512)\n    tag_514:\n        /* \"#utility.yul\":10201:10204   */\n      pop\n      pop\n      pop\n        /* \"#utility.yul\":9750:10295   */\n      pop\n      pop\n      pop\n      jump\t// out\n        /* \"#utility.yul\":10471:11823   */\n    tag_125:\n        /* \"#utility.yul\":10597:10600   */\n      dup2\n        /* \"#utility.yul\":10591:10601   */\n      mload\n        /* \"#utility.yul\":10624:10642   */\n      0xffffffffffffffff\n        /* \"#utility.yul\":10616:10622   */\n      dup2\n        /* \"#utility.yul\":10613:10643   */\n      gt\n        /* \"#utility.yul\":10610:10666   */\n      iszero\n      tag_518\n      jumpi\n        /* \"#utility.yul\":10646:10664   */\n      tag_518\n      tag_152\n      jump\t// in\n    tag_518:\n        /* \"#utility.yul\":10675:10772   */\n      tag_519\n        /* \"#utility.yul\":10765:10771   */\n      dup2\n        /* \"#utility.yul\":10725:10763   */\n      tag_520\n        /* \"#utility.yul\":10757:10761   */\n      dup5\n        /* \"#utility.yul\":10751:10762   */\n      sload\n        /* \"#utility.yul\":10725:10763   */\n      tag_177\n      jump\t// in\n    tag_520:\n        /* \"#utility.yul\":10719:10723   */\n      dup5\n        /* \"#utility.yul\":10675:10772   */\n      tag_419\n      jump\t// in\n    tag_519:\n        /* \"#utility.yul\":10827:10831   */\n      0x20\n      dup1\n        /* \"#utility.yul\":10891:10893   */\n      0x1f\n        /* \"#utility.yul\":10880:10894   */\n      dup4\n      gt\n        /* \"#utility.yul\":10908:10909   */\n      0x01\n        /* \"#utility.yul\":10903:11566   */\n      dup2\n      eq\n      tag_522\n      jumpi\n        /* \"#utility.yul\":11610:11611   */\n      0x00\n        /* \"#utility.yul\":11627:11633   */\n      dup5\n        /* \"#utility.yul\":11624:11713   */\n      iszero\n      tag_523\n      jumpi\n      pop\n        /* \"#utility.yul\":11679:11698   */\n      dup6\n      dup4\n      add\n        /* \"#utility.yul\":11673:11699   */\n      mload\n        /* \"#utility.yul\":11624:11713   */\n    tag_523:\n      not(0x00)\n        /* \"#utility.yul\":10428:10429   */\n      0x03\n        /* \"#utility.yul\":10424:10435   */\n      dup7\n      swap1\n      shl\n        /* \"#utility.yul\":10420:10444   */\n      shr\n        /* \"#utility.yul\":10416:10445   */\n      not\n        /* \"#utility.yul\":10406:10446   */\n      and\n        /* \"#utility.yul\":10452:10453   */\n      0x01\n        /* \"#utility.yul\":10448:10459   */\n      dup6\n      swap1\n      shl\n        /* \"#utility.yul\":10403:10460   */\n      or\n        /* \"#utility.yul\":11726:11807   */\n      dup6\n      sstore\n        /* \"#utility.yul\":10873:11817   */\n      jump(tag_514)\n        /* \"#utility.yul\":10903:11566   */\n    tag_522:\n        /* \"#utility.yul\":9697:9698   */\n      0x00\n        /* \"#utility.yul\":9690:9704   */\n      dup6\n      dup2\n      mstore\n        /* \"#utility.yul\":9734:9738   */\n      0x20\n        /* \"#utility.yul\":9721:9739   */\n      dup2\n      keccak256\n      not(0x1f)\n        /* \"#utility.yul\":10939:10959   */\n      dup7\n      and\n      swap2\n        /* \"#utility.yul\":11057:11293   */\n    tag_526:\n        /* \"#utility.yul\":11071:11078   */\n      dup3\n        /* \"#utility.yul\":11068:11069   */\n      dup2\n        /* \"#utility.yul\":11065:11079   */\n      lt\n        /* \"#utility.yul\":11057:11293   */\n      iszero\n      tag_528\n      jumpi\n        /* \"#utility.yul\":11160:11179   */\n      dup9\n      dup7\n      add\n        /* \"#utility.yul\":11154:11180   */\n      mload\n        /* \"#utility.yul\":11139:11181   */\n      dup3\n      sstore\n        /* \"#utility.yul\":11252:11279   */\n      swap5\n      dup5\n      add\n      swap5\n        /* \"#utility.yul\":11220:11221   */\n      0x01\n        /* \"#utility.yul\":11208:11222   */\n      swap1\n      swap2\n      add\n      swap1\n        /* \"#utility.yul\":11087:11106   */\n      dup5\n      add\n        /* \"#utility.yul\":11057:11293   */\n      jump(tag_526)\n    tag_528:\n        /* \"#utility.yul\":11061:11064   */\n      pop\n        /* \"#utility.yul\":11321:11327   */\n      dup6\n        /* \"#utility.yul\":11312:11319   */\n      dup3\n        /* \"#utility.yul\":11309:11328   */\n      lt\n        /* \"#utility.yul\":11306:11507   */\n      iszero\n      tag_529\n      jumpi\n        /* \"#utility.yul\":11382:11401   */\n      dup8\n      dup6\n      add\n        /* \"#utility.yul\":11376:11402   */\n      mload\n      not(0x00)\n        /* \"#utility.yul\":11465:11466   */\n      0x03\n        /* \"#utility.yul\":11461:11475   */\n      dup9\n      swap1\n      shl\n        /* \"#utility.yul\":11477:11480   */\n      0xf8\n        /* \"#utility.yul\":11457:11481   */\n      and\n        /* \"#utility.yul\":11453:11490   */\n      shr\n        /* \"#utility.yul\":11449:11491   */\n      not\n        /* \"#utility.yul\":11434:11492   */\n      and\n        /* \"#utility.yul\":11419:11493   */\n      dup2\n      sstore\n        /* \"#utility.yul\":11306:11507   */\n    tag_529:\n      pop\n      pop\n      pop\n      pop\n      pop\n        /* \"#utility.yul\":11553:11554   */\n      0x01\n        /* \"#utility.yul\":11537:11551   */\n      swap1\n      dup2\n      shl\n        /* \"#utility.yul\":11533:11555   */\n      add\n        /* \"#utility.yul\":11520:11556   */\n      swap1\n      sstore\n      pop\n        /* \"#utility.yul\":10471:11823   */\n      jump\t// out\n        /* \"#utility.yul\":12540:12667   */\n    tag_144:\n        /* \"#utility.yul\":12601:12611   */\n      0x4e487b71\n        /* \"#utility.yul\":12596:12599   */\n      0xe0\n        /* \"#utility.yul\":12592:12612   */\n      shl\n        /* \"#utility.yul\":12589:12590   */\n      0x00\n        /* \"#utility.yul\":12582:12613   */\n      mstore\n        /* \"#utility.yul\":12632:12636   */\n      0x32\n        /* \"#utility.yul\":12629:12630   */\n      0x04\n        /* \"#utility.yul\":12622:12637   */\n      mstore\n        /* \"#utility.yul\":12656:12660   */\n      0x24\n        /* \"#utility.yul\":12653:12654   */\n      0x00\n        /* \"#utility.yul\":12646:12661   */\n      revert\n        /* \"#utility.yul\":13027:13162   */\n    tag_159:\n        /* \"#utility.yul\":13066:13069   */\n      0x00\n        /* \"#utility.yul\":13087:13104   */\n      0x01\n      dup3\n      add\n        /* \"#utility.yul\":13084:13127   */\n      tag_536\n      jumpi\n        /* \"#utility.yul\":13107:13125   */\n      tag_536\n      tag_417\n      jump\t// in\n    tag_536:\n      pop\n        /* \"#utility.yul\":13154:13155   */\n      0x01\n        /* \"#utility.yul\":13143:13156   */\n      add\n      swap1\n        /* \"#utility.yul\":13027:13162   */\n      jump\t// out\n        /* \"#utility.yul\":13517:13806   */\n    tag_195:\n        /* \"#utility.yul\":13648:13651   */\n      0x00\n        /* \"#utility.yul\":13686:13692   */\n      dup3\n        /* \"#utility.yul\":13680:13693   */\n      mload\n        /* \"#utility.yul\":13702:13768   */\n      tag_539\n        /* \"#utility.yul\":13761:13767   */\n      dup2\n        /* \"#utility.yul\":13756:13759   */\n      dup5\n        /* \"#utility.yul\":13749:13753   */\n      0x20\n        /* \"#utility.yul\":13741:13747   */\n      dup8\n        /* \"#utility.yul\":13737:13754   */\n      add\n        /* \"#utility.yul\":13702:13768   */\n      tag_414\n      jump\t// in\n    tag_539:\n        /* \"#utility.yul\":13784:13800   */\n      swap2\n      swap1\n      swap2\n      add\n      swap3\n        /* \"#utility.yul\":13517:13806   */\n      swap2\n      pop\n      pop\n      jump\t// out\n        /* \"#utility.yul\":13811:14653   */\n    tag_200:\n        /* \"#utility.yul\":13939:13942   */\n      0x00\n        /* \"#utility.yul\":13968:13969   */\n      dup1\n        /* \"#utility.yul\":14001:14007   */\n      dup4\n        /* \"#utility.yul\":13995:14008   */\n      sload\n        /* \"#utility.yul\":14031:14067   */\n      tag_541\n        /* \"#utility.yul\":14057:14066   */\n      dup2\n        /* \"#utility.yul\":14031:14067   */\n      tag_177\n      jump\t// in\n    tag_541:\n        /* \"#utility.yul\":14086:14087   */\n      0x01\n        /* \"#utility.yul\":14103:14121   */\n      dup3\n      dup2\n      and\n        /* \"#utility.yul\":14130:14263   */\n      dup1\n      iszero\n      tag_543\n      jumpi\n        /* \"#utility.yul\":14277:14278   */\n      0x01\n        /* \"#utility.yul\":14272:14628   */\n      dup2\n      eq\n      tag_544\n      jumpi\n        /* \"#utility.yul\":14096:14628   */\n      jump(tag_542)\n        /* \"#utility.yul\":14130:14263   */\n    tag_543:\n      not(0xff)\n        /* \"#utility.yul\":14163:14187   */\n      dup5\n      and\n        /* \"#utility.yul\":14151:14188   */\n      dup8\n      mstore\n        /* \"#utility.yul\":14236:14250   */\n      dup3\n      iszero\n        /* \"#utility.yul\":14229:14251   */\n      iszero\n        /* \"#utility.yul\":14217:14252   */\n      dup4\n      mul\n        /* \"#utility.yul\":14208:14253   */\n      dup8\n      add\n      swap5\n      pop\n        /* \"#utility.yul\":14130:14263   */\n      jump(tag_542)\n        /* \"#utility.yul\":14272:14628   */\n    tag_544:\n        /* \"#utility.yul\":14303:14309   */\n      dup8\n        /* \"#utility.yul\":14300:14301   */\n      0x00\n        /* \"#utility.yul\":14293:14310   */\n      mstore\n        /* \"#utility.yul\":14333:14337   */\n      0x20\n        /* \"#utility.yul\":14378:14380   */\n      dup1\n        /* \"#utility.yul\":14375:14376   */\n      0x00\n        /* \"#utility.yul\":14365:14381   */\n      keccak256\n        /* \"#utility.yul\":14403:14404   */\n      0x00\n        /* \"#utility.yul\":14417:14582   */\n    tag_545:\n        /* \"#utility.yul\":14431:14437   */\n      dup6\n        /* \"#utility.yul\":14428:14429   */\n      dup2\n        /* \"#utility.yul\":14425:14438   */\n      lt\n        /* \"#utility.yul\":14417:14582   */\n      iszero\n      tag_547\n      jumpi\n        /* \"#utility.yul\":14509:14523   */\n      dup2\n      sload\n        /* \"#utility.yul\":14496:14507   */\n      dup11\n      dup3\n      add\n        /* \"#utility.yul\":14489:14524   */\n      mstore\n        /* \"#utility.yul\":14552:14568   */\n      swap1\n      dup5\n      add\n      swap1\n        /* \"#utility.yul\":14446:14456   */\n      dup3\n      add\n        /* \"#utility.yul\":14417:14582   */\n      jump(tag_545)\n    tag_547:\n        /* \"#utility.yul\":14421:14424   */\n      pop\n      pop\n      pop\n        /* \"#utility.yul\":14611:14617   */\n      dup3\n        /* \"#utility.yul\":14606:14609   */\n      dup8\n        /* \"#utility.yul\":14602:14618   */\n      add\n        /* \"#utility.yul\":14595:14618   */\n      swap5\n      pop\n        /* \"#utility.yul\":14096:14628   */\n    tag_542:\n      pop\n        /* \"#utility.yul\":14644:14647   */\n      swap3\n      swap7\n        /* \"#utility.yul\":13811:14653   */\n      swap6\n      pop\n      pop\n      pop\n      pop\n      pop\n      pop\n      jump\t// out\n        /* \"#utility.yul\":14658:16093   */\n    tag_210:\n        /* \"#utility.yul\":14777:14780   */\n      dup2\n        /* \"#utility.yul\":14771:14775   */\n      dup2\n        /* \"#utility.yul\":14768:14781   */\n      sub\n        /* \"#utility.yul\":14765:14791   */\n      tag_549\n      jumpi\n        /* \"#utility.yul\":14784:14789   */\n      pop\n      pop\n        /* \"#utility.yul\":14658:16093   */\n      jump\t// out\n        /* \"#utility.yul\":14765:14791   */\n    tag_549:\n        /* \"#utility.yul\":14814:14851   */\n      tag_550\n        /* \"#utility.yul\":14846:14849   */\n      dup3\n        /* \"#utility.yul\":14840:14850   */\n      sload\n        /* \"#utility.yul\":14814:14851   */\n      tag_177\n      jump\t// in\n    tag_550:\n        /* \"#utility.yul\":14874:14892   */\n      0xffffffffffffffff\n        /* \"#utility.yul\":14866:14872   */\n      dup2\n        /* \"#utility.yul\":14863:14893   */\n      gt\n        /* \"#utility.yul\":14860:14916   */\n      iszero\n      tag_552\n      jumpi\n        /* \"#utility.yul\":14896:14914   */\n      tag_552\n      tag_152\n      jump\t// in\n    tag_552:\n        /* \"#utility.yul\":14925:15022   */\n      tag_553\n        /* \"#utility.yul\":15015:15021   */\n      dup2\n        /* \"#utility.yul\":14975:15013   */\n      tag_520\n        /* \"#utility.yul\":15007:15011   */\n      dup5\n        /* \"#utility.yul\":15001:15012   */\n      sload\n        /* \"#utility.yul\":14975:15013   */\n      tag_177\n      jump\t// in\n        /* \"#utility.yul\":14925:15022   */\n    tag_553:\n        /* \"#utility.yul\":15048:15049   */\n      0x00\n        /* \"#utility.yul\":15076:15078   */\n      0x1f\n        /* \"#utility.yul\":15068:15074   */\n      dup3\n        /* \"#utility.yul\":15065:15079   */\n      gt\n        /* \"#utility.yul\":15093:15094   */\n      0x01\n        /* \"#utility.yul\":15088:15836   */\n      dup2\n      eq\n      tag_556\n      jumpi\n        /* \"#utility.yul\":15880:15881   */\n      0x00\n        /* \"#utility.yul\":15897:15903   */\n      dup4\n        /* \"#utility.yul\":15894:15983   */\n      iszero\n      tag_557\n      jumpi\n      pop\n        /* \"#utility.yul\":15949:15968   */\n      dup5\n      dup3\n      add\n        /* \"#utility.yul\":15943:15969   */\n      sload\n        /* \"#utility.yul\":15894:15983   */\n    tag_557:\n      not(0x00)\n        /* \"#utility.yul\":10428:10429   */\n      0x03\n        /* \"#utility.yul\":10424:10435   */\n      dup6\n      swap1\n      shl\n        /* \"#utility.yul\":10420:10444   */\n      shr\n        /* \"#utility.yul\":10416:10445   */\n      not\n        /* \"#utility.yul\":10406:10446   */\n      and\n        /* \"#utility.yul\":10452:10453   */\n      0x01\n        /* \"#utility.yul\":10448:10459   */\n      dup5\n      swap1\n      shl\n        /* \"#utility.yul\":10403:10460   */\n      or\n        /* \"#utility.yul\":15996:16077   */\n      dup5\n      sstore\n        /* \"#utility.yul\":15058:16087   */\n      jump(tag_555)\n        /* \"#utility.yul\":15088:15836   */\n    tag_556:\n        /* \"#utility.yul\":9697:9698   */\n      0x00\n        /* \"#utility.yul\":9690:9704   */\n      dup6\n      dup2\n      mstore\n        /* \"#utility.yul\":9734:9738   */\n      0x20\n        /* \"#utility.yul\":9721:9739   */\n      swap1\n      keccak256\n      not(0x1f)\n        /* \"#utility.yul\":15124:15144   */\n      dup5\n      and\n      swap1\n        /* \"#utility.yul\":9697:9698   */\n      0x00\n        /* \"#utility.yul\":9690:9704   */\n      dup7\n      dup2\n      mstore\n        /* \"#utility.yul\":9734:9738   */\n      0x20\n        /* \"#utility.yul\":9721:9739   */\n      swap1\n      keccak256\n        /* \"#utility.yul\":15288:15297   */\n      dup5\n        /* \"#utility.yul\":15310:15561   */\n    tag_561:\n        /* \"#utility.yul\":15324:15331   */\n      dup4\n        /* \"#utility.yul\":15321:15322   */\n      dup2\n        /* \"#utility.yul\":15318:15332   */\n      lt\n        /* \"#utility.yul\":15310:15561   */\n      iszero\n      tag_563\n      jumpi\n        /* \"#utility.yul\":15406:15427   */\n      dup3\n      dup7\n      add\n        /* \"#utility.yul\":15400:15428   */\n      sload\n        /* \"#utility.yul\":15385:15429   */\n      dup3\n      sstore\n        /* \"#utility.yul\":15456:15457   */\n      0x01\n        /* \"#utility.yul\":15529:15547   */\n      swap6\n      dup7\n      add\n      swap6\n        /* \"#utility.yul\":15484:15499   */\n      swap1\n      swap2\n      add\n      swap1\n        /* \"#utility.yul\":15347:15351   */\n      0x20\n        /* \"#utility.yul\":15340:15352   */\n      add\n        /* \"#utility.yul\":15310:15561   */\n      jump(tag_561)\n    tag_563:\n        /* \"#utility.yul\":15314:15317   */\n      pop\n        /* \"#utility.yul\":15589:15595   */\n      dup6\n        /* \"#utility.yul\":15580:15587   */\n      dup4\n        /* \"#utility.yul\":15577:15596   */\n      lt\n        /* \"#utility.yul\":15574:15777   */\n      iszero\n      tag_564\n      jumpi\n        /* \"#utility.yul\":15650:15671   */\n      dup2\n      dup6\n      add\n        /* \"#utility.yul\":15644:15672   */\n      sload\n      not(0x00)\n        /* \"#utility.yul\":15735:15736   */\n      0x03\n        /* \"#utility.yul\":15731:15745   */\n      dup9\n      swap1\n      shl\n        /* \"#utility.yul\":15747:15750   */\n      0xf8\n        /* \"#utility.yul\":15727:15751   */\n      and\n        /* \"#utility.yul\":15723:15760   */\n      shr\n        /* \"#utility.yul\":15719:15761   */\n      not\n        /* \"#utility.yul\":15704:15762   */\n      and\n        /* \"#utility.yul\":15689:15763   */\n      dup2\n      sstore\n        /* \"#utility.yul\":15574:15777   */\n    tag_564:\n      pop\n      pop\n      pop\n        /* \"#utility.yul\":15823:15824   */\n      0x01\n        /* \"#utility.yul\":15814:15820   */\n      dup4\n        /* \"#utility.yul\":15811:15812   */\n      0x01\n        /* \"#utility.yul\":15807:15821   */\n      shl\n        /* \"#utility.yul\":15803:15825   */\n      add\n        /* \"#utility.yul\":15797:15801   */\n      dup5\n        /* \"#utility.yul\":15790:15826   */\n      sstore\n        /* \"#utility.yul\":15058:16087   */\n    tag_555:\n      pop\n      pop\n      pop\n        /* \"#utility.yul\":14658:16093   */\n      pop\n      pop\n      jump\t// out\n        /* \"#utility.yul\":16098:16225   */\n    tag_213:\n        /* \"#utility.yul\":16159:16169   */\n      0x4e487b71\n        /* \"#utility.yul\":16154:16157   */\n      0xe0\n        /* \"#utility.yul\":16150:16170   */\n      shl\n        /* \"#utility.yul\":16147:16148   */\n      0x00\n        /* \"#utility.yul\":16140:16171   */\n      mstore\n        /* \"#utility.yul\":16190:16194   */\n      0x31\n        /* \"#utility.yul\":16187:16188   */\n      0x04\n        /* \"#utility.yul\":16180:16195   */\n      mstore\n        /* \"#utility.yul\":16214:16218   */\n      0x24\n        /* \"#utility.yul\":16211:16212   */\n      0x00\n        /* \"#utility.yul\":16204:16219   */\n      revert\n        /* \"#utility.yul\":18791:18916   */\n    tag_390:\n        /* \"#utility.yul\":18856:18865   */\n      dup1\n      dup3\n      add\n        /* \"#utility.yul\":18877:18887   */\n      dup1\n      dup3\n      gt\n        /* \"#utility.yul\":18874:18910   */\n      iszero\n      tag_122\n      jumpi\n        /* \"#utility.yul\":18890:18908   */\n      tag_122\n      tag_417\n      jump\t// in\n\n    auxdata: 0xa26469706673582212207aaebe6ab8f4288eb2900bf8b5fabe06209f33fbf9019bff1108b8ec458551e264736f6c63430008110033\n}\n",
    "bytecode": {
      "linkReferences": {},
      "object": "608060405234801561001057600080fd5b506128b1806100206000396000f3fe608060405234801561001057600080fd5b50600436106101515760003560e01c806387c63714116100cd578063cd9c936211610081578063df78bc5411610066578063df78bc54146102b2578063e9e6630a146102d2578063f892cb36146102f757600080fd5b8063cd9c936214610297578063d0e2892c1461029f57600080fd5b8063a98d22bc116100b2578063a98d22bc1461024e578063b83f480514610261578063b944559d1461028457600080fd5b806387c63714146102285780638d5492e41461023b57600080fd5b8063196ba7ef11610124578063590411da11610109578063590411da146101e257806359633a1c146101f55780636d7697171461020857600080fd5b8063196ba7ef146101c55780633dea2f84146101cf57600080fd5b806301e2b33f14610156578063072039a21461017c57806307a8b7671461019f578063096e27d9146101b2575b600080fd5b6101696101643660046120b4565b61030a565b6040519081526020015b60405180910390f35b61018f61018a3660046120b4565b6103f8565b6040519015158152602001610173565b61018f6101ad3660046120b4565b61048c565b61018f6101c03660046120cf565b61051c565b6101cd61054e565b005b6101cd6101dd3660046121b9565b6105b0565b6101cd6101f0366004612217565b61068b565b6101cd6102033660046120b4565b610894565b61021b6102163660046120b4565b6109e2565b60405161017391906122dc565b6101cd6102363660046122ef565b610ab7565b6101cd6102493660046120b4565b610d59565b6101cd61025c3660046120b4565b610e8f565b61027461026f3660046120cf565b610f48565b604051610173949392919061233d565b6101cd6102923660046122ef565b6110ff565b6101cd61116a565b6101cd6102ad366004612370565b611378565b6102c56102c03660046120cf565b611651565b604051610173919061249b565b6102e56102e03660046120b4565b61183e565b604051610173969594939291906124ae565b61021b6103053660046120cf565b611ccd565b6001600160a01b0381166000908152602081905260408120600301548190610332904261255b565b6001600160a01b038416600081815260208181526040918290206002810154600390910154835191825291810185905242928101929092526060820152919250907f74a7c0c2e8065fcdbfca5ae9f6cf0233e47e9e75b6fcf75674dd4b7e3f9b81839060800160405180910390a26001600160a01b03831660009081526020819052604090206002015481116103ee576001600160a01b0383166000908152602081905260409020600201546103e990829061255b565b6103f1565b60005b9392505050565b60006104038261048c565b15610465576001600160a01b038216600090815260208190526040902060030154156104655760006104348361030a565b905060008111610463576001600160a01b0383166000908152602081905260409020600401805461ff00191690555b505b506001600160a01b0316600090815260208190526040902060040154610100900460ff1690565b6001600160a01b03811660009081526020819052604081205460ff166104f95760405162461bcd60e51b815260206004820152601960248201527f42656e65666163746f7220646f6573206e6f742065786973740000000000000060448201526064015b60405180910390fd5b506001600160a01b031660009081526020819052604090206004015460ff161590565b6001600160a01b03808316600090815260208181526040808320938516835260019093019052205460ff165b92915050565b33600081815260208181526040808320805460ff1916600117815562093a80600282015560048101805461010161ffff199091161790556003810184905581518084019092528382529383529190526005909101906105ad90826125f6565b50565b6105ba838361051c565b6106065760405162461bcd60e51b815260206004820181905260248201527f42656e65666963696172792f42656e65666163746f72206e6f7420666f756e6460448201526064016104f0565b6001600160a01b038084166000908152602081815260408083209386168352600190930190522060020161063a82826125f6565b50816001600160a01b0316836001600160a01b03167f69ccea10852ac51b01745414774b5af302217e774786d2068296650b57ba03f28360405161067e91906122dc565b60405180910390a3505050565b3360009081526020819052604090205460ff1680156106c1575033600090815260208190526040902060040154610100900460ff165b6107065760405162461bcd60e51b81526020600482015260166024820152752737ba1030903b30b634b2103132b732b330b1ba37b960511b60448201526064016104f0565b60005b8181101561088f576000838383818110610725576107256126b6565b905060200201602081019061073a91906120b4565b9050610746338261051c565b156107935760405162461bcd60e51b815260206004820152601a60248201527f42656e656669636961727920616c72656164792065786973747300000000000060448201526064016104f0565b604080516060810182526001815281516000808252602082810190945291928301916107cf565b60608152602001906001900390816107ba5790505b50815260408051602080820183526000808352938101919091523383528281528183206001600160a01b038616845260019081018252919092208351815460ff1916901515178155838301518051919361082e93850192910190611fbd565b506040820151600282019061084390826125f6565b50506040516001600160a01b038316915033907fbb39c36a7502b7256e1a687254146a9a2ea7b146c77cb9e40eb0e2b8793781e190600090a35080610887816126cc565b915050610709565b505050565b3360009081526020819052604090205460ff1680156108ca575033600090815260208190526040902060040154610100900460ff165b61090f5760405162461bcd60e51b81526020600482015260166024820152752737ba1030903b30b634b2103132b732b330b1ba37b960511b60448201526064016104f0565b610919338261051c565b61095d5760405162461bcd60e51b815260206004820152601560248201527410995b99599a58da585c9e481b9bdd08199bdd5b99605a1b60448201526064016104f0565b336000908152602081815260408083206001600160a01b038516845260019081019092528220805460ff19168155919061099990830182612013565b6109a7600283016000612031565b50506040516001600160a01b0382169033907f1a6590bd0cabbfcc7c86bef99e1034054e179905cfcc294598fcd426c092244290600090a350565b60606109ee823361051c565b15610a9e576001600160a01b03821660009081526020819052604090206005018054610a199061256e565b80601f0160208091040260200160405190810160405280929190818152602001828054610a459061256e565b8015610a925780601f10610a6757610100808354040283529160200191610a92565b820191906000526020600020905b815481529060010190602001808311610a7557829003601f168201915b50505050509050919050565b505060408051602081019091526000815290565b919050565b3360009081526020819052604090205460ff168015610aed575033600090815260208190526040902060040154610100900460ff165b610b325760405162461bcd60e51b81526020600482015260166024820152752737ba1030903b30b634b2103132b732b330b1ba37b960511b60448201526064016104f0565b610b3c338361051c565b610b805760405162461bcd60e51b815260206004820152601560248201527410995b99599a58da585c9e481b9bdd08199bdd5b99605a1b60448201526064016104f0565b336000908152602081815260408083206001600160a01b03861684526001908101909252822001905b8154811015610d045782604051602001610bc391906126e5565b60405160208183030381529060405280519060200120828281548110610beb57610beb6126b6565b90600052602060002001604051602001610c059190612701565b6040516020818303038152906040528051906020012003610cf25781548290610c309060019061255b565b81548110610c4057610c406126b6565b90600052602060002001828281548110610c5c57610c5c6126b6565b906000526020600020019081610c729190612777565b5081805480610c8357610c83612852565b600190038181906000526020600020016000610c9f9190612031565b9055836001600160a01b0316336001600160a01b03167f4c13211ce3b2d0cb3e02a662cc071d6be555042ca58d4d812b7b90e80d3250ac85604051610ce491906122dc565b60405180910390a350505050565b80610cfc816126cc565b915050610ba9565b5060405162461bcd60e51b8152602060048201526024808201527f434944206e6f742061737369676e656420746f20746869732062656e656669636044820152636961727960e01b60648201526084016104f0565b6001600160a01b03811660009081526020818152604080832033845260010190915290205460ff16610dcd5760405162461bcd60e51b815260206004820152601760248201527f4e6f7420612076616c69642062656e656669636961727900000000000000000060448201526064016104f0565b6001600160a01b03811660009081526020819052604090206004015460ff16610e295760405133906001600160a01b038316907f67c4731bdc193862f421e091d18f46df876bfe1b8b9aa97504f1d50d425b239d90600090a350565b6001600160a01b0381166000818152602081815260409182902060048101805460ff191690554260038201556002015491519182523392917f82595752291d0261dfb9b4b0c2307021c29c34e22fe0697b4840b529dc351bc3910160405180910390a350565b3360009081526020819052604090205460ff16610eee5760405162461bcd60e51b815260206004820152601960248201527f42656e65666163746f72206e6f7420726567697374657265640000000000000060448201526064016104f0565b33600090815260208190526040808220805460ff199081169091556001600160a01b038416835290822080549091168155600281018290556003810182905560048101805461ffff191690559061088f6005830182612031565b6001600160a01b0382166000908152602081905260408120548190819060609060ff16610fb75760405162461bcd60e51b815260206004820152601960248201527f42656e65666163746f7220646f6573206e6f742065786973740000000000000060448201526064016104f0565b6001600160a01b03861660009081526020819052604090206004015460ff1615935083610fe75760009250610ff3565b610ff08661030a565b92505b6001600160a01b038681166000908152602081815260408083206004810154948a1684526001019091529020600201805461010090920460ff169350906110399061256e565b80601f01602080910402602001604051908101604052809291908181526020018280546110659061256e565b80156110b25780601f10611087576101008083540402835291602001916110b2565b820191906000526020600020905b81548152906001019060200180831161109557829003601f168201915b505050505090507f0e092c8eab045fa06eb05fe062c2d0a1721905a7ad6acb7eed9c804d956ea9fd848484846040516110ee949392919061233d565b60405180910390a192959194509250565b6001600160a01b038216600090815260208190526040902060050161112482826125f6565b50816001600160a01b03167ff20d3ea0a54b197ec507921ed526707368e27ad44b86bf2d4b11888b7009de6b8260405161115e91906122dc565b60405180910390a25050565b3360009081526020819052604090205460ff1680156111a0575033600090815260208190526040902060040154610100900460ff165b6111e55760405162461bcd60e51b81526020600482015260166024820152752737ba1030903b30b634b2103132b732b330b1ba37b960511b60448201526064016104f0565b336000908152602081905260409020600301541561130f57611206336103f8565b1561129c57336001600160a01b03167f793324a6f079e577f4a4646c7ec753efd3beddc2f4ce07bfae5f105c449ac3566040516112749060208082526013908201527f42656e65666163746f7220697320616c69766500000000000000000000000000604082015260600190565b60405180910390a2611284611dad565b33600090815260208190526040902042600390910155565b336001600160a01b03167f5a68fa7d6b655a3e592d5d99ac82863424750e9d262c902f30f9e56655e7a8566040516113059060208082526012908201527f42656e65666163746f7220697320646561640000000000000000000000000000604082015260600190565b60405180910390a2565b336001600160a01b03167f793324a6f079e577f4a4646c7ec753efd3beddc2f4ce07bfae5f105c449ac3566040516112749060208082526013908201527f42656e65666163746f7220697320616c69766500000000000000000000000000604082015260600190565b3360009081526020819052604090205460ff1680156113ae575033600090815260208190526040902060040154610100900460ff165b6113f35760405162461bcd60e51b81526020600482015260166024820152752737ba1030903b30b634b2103132b732b330b1ba37b960511b60448201526064016104f0565b6113fd338361051c565b6114415760405162461bcd60e51b815260206004820152601560248201527410995b99599a58da585c9e481b9bdd08199bdd5b99605a1b60448201526064016104f0565b336000908152602081815260408083206001600160a01b03861684526001908101909252822001905b825181101561164b576000805b835481101561152257848381518110611492576114926126b6565b60200260200101516040516020016114aa91906126e5565b604051602081830303815290604052805190602001208482815481106114d2576114d26126b6565b906000526020600020016040516020016114ec9190612701565b60405160208183030381529060405280519060200120036115105760019150611522565b8061151a816126cc565b915050611477565b5080156115975760405162461bcd60e51b815260206004820152602860248201527f43494420616c72656164792061737369676e656420746f20746869732062656e60448201527f656669636961727900000000000000000000000000000000000000000000000060648201526084016104f0565b828483815181106115aa576115aa6126b6565b602090810291909101810151825460018101845560009384529190922001906115d390826125f6565b50846001600160a01b0316336001600160a01b03167fa1bb52b874769d5c17cde30e708e8f7180bb949f70e77caf0da68d25f9a1a51086858151811061161b5761161b6126b6565b602002602001015160405161163091906122dc565b60405180910390a35080611643816126cc565b91505061146a565b50505050565b606061165d838361051c565b6116a15760405162461bcd60e51b815260206004820152601560248201527410995b99599a58da585c9e481b9bdd08199bdd5b99605a1b60448201526064016104f0565b6001600160a01b03831660009081526020818152604080832033845260010190915290205460ff1680156116f657506001600160a01b038316600090815260208190526040902060040154610100900460ff16155b6117425760405162461bcd60e51b815260206004820152601160248201527f4e6f2061636365737320746f204349447300000000000000000000000000000060448201526064016104f0565b6001600160a01b0380841660009081526020818152604080832093861683526001938401825280832090930180548451818402810184019095528085529092909184015b828210156118325783829060005260206000200180546117a59061256e565b80601f01602080910402602001604051908101604052809291908181526020018280546117d19061256e565b801561181e5780601f106117f35761010080835404028352916020019161181e565b820191906000526020600020905b81548152906001019060200180831161180157829003601f168201915b505050505081526020019060010190611786565b50505050905092915050565b6001600160a01b038116600090815260208190526040812054606090829081908390819060ff166118b15760405162461bcd60e51b815260206004820152601960248201527f42656e65666163746f7220646f6573206e6f742065786973740000000000000060448201526064016104f0565b6001600160a01b0387166000908152602081815260408083206004015460019092529091205460ff90911615965067ffffffffffffffff8111156118f7576118f7612102565b604051908082528060200260200182016040528015611920578160200160208202803683370190505b509450600061192e88611ecd565b90508067ffffffffffffffff81111561194957611949612102565b60405190808252806020026020018201604052801561197c57816020015b60608152602001906001900390816119675790505b5091506000806119a18a6001600160a01b031660009081526001602052604090205490565b905060005b81811015611b8d576001600160a01b038b1660009081526001602052604081208054839081106119d8576119d86126b6565b60009182526020808320909101546001600160a01b038f811684528383526040808520919092168085526001919091019092529091205490915060ff1615611b7a576001600160a01b03808d1660009081526020818152604080832093851683526001938401825280832090930180548451818402810184019095528085529293929091849084015b82821015611b0d578382906000526020600020018054611a809061256e565b80601f0160208091040260200160405190810160405280929190818152602001828054611aac9061256e565b8015611af95780601f10611ace57610100808354040283529160200191611af9565b820191906000526020600020905b815481529060010190602001808311611adc57829003601f168201915b505050505081526020019060010190611a61565b50505050905060005b8151811015611b7757818181518110611b3157611b316126b6565b6020026020010151888781518110611b4b57611b4b6126b6565b60200260200101819052508580611b61906126cc565b9650508080611b6f906126cc565b915050611b16565b50505b5080611b85816126cc565b9150506119a6565b506001600160a01b038a1660009081526020819052604090206004015460ff1615611bbb5760009650611bc7565b611bc48a61030a565b96505b6001600160a01b038a16600090815260208190526040902060048101546005909101805461010090920460ff16975090611c009061256e565b80601f0160208091040260200160405190810160405280929190818152602001828054611c2c9061256e565b8015611c795780601f10611c4e57610100808354040283529160200191611c79565b820191906000526020600020905b815481529060010190602001808311611c5c57829003601f168201915b505050505094507f4bc4f0d667f981d69e9500f47d56b517891311c1b6816bb75e9f46b3f680692c898989898989604051611cb9969594939291906124ae565b60405180910390a150505091939550919395565b6060611cd9838361051c565b15611d98576001600160a01b03808416600090815260208181526040808320938616835260019093019052206002018054611d139061256e565b80601f0160208091040260200160405190810160405280929190818152602001828054611d3f9061256e565b8015611d8c5780601f10611d6157610100808354040283529160200191611d8c565b820191906000526020600020905b815481529060010190602001808311611d6f57829003601f168201915b50505050509050610548565b50604080516020810190915260008152610548565b3360009081526020819052604090205460ff168015611de3575033600090815260208190526040902060040154610100900460ff165b611e285760405162461bcd60e51b81526020600482015260166024820152752737ba1030903b30b634b2103132b732b330b1ba37b960511b60448201526064016104f0565b3360009081526020819052604090206004015460ff1615611e7257604051339081907f439c5aaf7691cb4808dbd2a240323ce9ec0d04d66ddf65ffd5f88ebd60fa745b90600090a3565b3360008181526020819052604090819020600401805460ff191660011790555181907f9baa855d20de9b1a4db454f55b09d1db5f42f0871bbea3b0c699146ade17162590611ec39042815260200190565b60405180910390a3565b60008080611ef0846001600160a01b031660009081526001602052604090205490565b905060005b81811015611fb4576001600160a01b0385166000908152600160205260408120805483908110611f2757611f276126b6565b60009182526020808320909101546001600160a01b0389811684528383526040808520919092168085526001919091019092529091205490915060ff1615611fa1576001600160a01b038087166000908152602081815260408083209385168352600193840190915290200154611f9e9085612868565b93505b5080611fac816126cc565b915050611ef5565b50909392505050565b828054828255906000526020600020908101928215612003579160200282015b828111156120035782518290611ff390826125f6565b5091602001919060010190611fdd565b5061200f92915061206b565b5090565b50805460008255906000526020600020908101906105ad919061206b565b50805461203d9061256e565b6000825580601f1061204d575050565b601f0160209004906000526020600020908101906105ad9190612088565b8082111561200f57600061207f8282612031565b5060010161206b565b5b8082111561200f5760008155600101612089565b80356001600160a01b0381168114610ab257600080fd5b6000602082840312156120c657600080fd5b6103f18261209d565b600080604083850312156120e257600080fd5b6120eb8361209d565b91506120f96020840161209d565b90509250929050565b634e487b7160e01b600052604160045260246000fd5b604051601f8201601f1916810167ffffffffffffffff8111828210171561214157612141612102565b604052919050565b600082601f83011261215a57600080fd5b813567ffffffffffffffff81111561217457612174612102565b612187601f8201601f1916602001612118565b81815284602083860101111561219c57600080fd5b816020850160208301376000918101602001919091529392505050565b6000806000606084860312156121ce57600080fd5b6121d78461209d565b92506121e56020850161209d565b9150604084013567ffffffffffffffff81111561220157600080fd5b61220d86828701612149565b9150509250925092565b6000806020838503121561222a57600080fd5b823567ffffffffffffffff8082111561224257600080fd5b818501915085601f83011261225657600080fd5b81358181111561226557600080fd5b8660208260051b850101111561227a57600080fd5b60209290920196919550909350505050565b60005b838110156122a757818101518382015260200161228f565b50506000910152565b600081518084526122c881602086016020860161228c565b601f01601f19169290920160200192915050565b6020815260006103f160208301846122b0565b6000806040838503121561230257600080fd5b61230b8361209d565b9150602083013567ffffffffffffffff81111561232757600080fd5b61233385828601612149565b9150509250929050565b8415158152836020820152821515604082015260806060820152600061236660808301846122b0565b9695505050505050565b6000806040838503121561238357600080fd5b61238c8361209d565b915060208084013567ffffffffffffffff808211156123aa57600080fd5b818601915086601f8301126123be57600080fd5b8135818111156123d0576123d0612102565b8060051b6123df858201612118565b918252838101850191858101908a8411156123f957600080fd5b86860192505b83831015612435578235858111156124175760008081fd5b6124258c89838a0101612149565b83525091860191908601906123ff565b809750505050505050509250929050565b600081518084526020808501808196508360051b8101915082860160005b8581101561248e57828403895261247c8483516122b0565b98850198935090840190600101612464565b5091979650505050505050565b6020815260006103f16020830184612446565b600060c082018815158352602060c08185015281895180845260e086019150828b01935060005b818110156124fa5784516001600160a01b0316835293830193918301916001016124d5565b5050886040860152612510606086018915159052565b848103608086015261252281886122b0565b9250505082810360a08401526125388185612446565b9998505050505050505050565b634e487b7160e01b600052601160045260246000fd5b8181038181111561054857610548612545565b600181811c9082168061258257607f821691505b6020821081036125a257634e487b7160e01b600052602260045260246000fd5b50919050565b601f82111561088f57600081815260208120601f850160051c810160208610156125cf5750805b601f850160051c820191505b818110156125ee578281556001016125db565b505050505050565b815167ffffffffffffffff81111561261057612610612102565b6126248161261e845461256e565b846125a8565b602080601f83116001811461265957600084156126415750858301515b600019600386901b1c1916600185901b1785556125ee565b600085815260208120601f198616915b8281101561268857888601518255948401946001909101908401612669565b50858210156126a65787850151600019600388901b60f8161c191681555b5050505050600190811b01905550565b634e487b7160e01b600052603260045260246000fd5b6000600182016126de576126de612545565b5060010190565b600082516126f781846020870161228c565b9190910192915050565b600080835461270f8161256e565b60018281168015612727576001811461273c5761276b565b60ff198416875282151583028701945061276b565b8760005260208060002060005b858110156127625781548a820152908401908201612749565b50505082870194505b50929695505050505050565b818103612782575050565b61278c825461256e565b67ffffffffffffffff8111156127a4576127a4612102565b6127b28161261e845461256e565b6000601f8211600181146127e657600083156127ce5750848201545b600019600385901b1c1916600184901b17845561284b565b600085815260209020601f19841690600086815260209020845b838110156128205782860154825560019586019590910190602001612800565b508583101561283e5781850154600019600388901b60f8161c191681555b50505060018360011b0184555b5050505050565b634e487b7160e01b600052603160045260246000fd5b808201808211156105485761054861254556fea26469706673582212207aaebe6ab8f4288eb2900bf8b5fabe06209f33fbf9019bff1108b8ec458551e264736f6c63430008110033",
      "opcodes": "PUSH1 0x80 PUSH1 0x40 MSTORE CALLVALUE DUP1 ISZERO PUSH2 0x10 JUMPI PUSH1 0x0 DUP1 REVERT JUMPDEST POP PUSH2 0x28B1 DUP1 PUSH2 0x20 PUSH1 0x0 CODECOPY PUSH1 0x0 RETURN INVALID PUSH1 0x80 PUSH1 0x40 MSTORE CALLVALUE DUP1 ISZERO PUSH2 0x10 JUMPI PUSH1 0x0 DUP1 REVERT JUMPDEST POP PUSH1 0x4 CALLDATASIZE LT PUSH2 0x151 JUMPI PUSH1 0x0 CALLDATALOAD PUSH1 0xE0 SHR DUP1 PUSH4 0x87C63714 GT PUSH2 0xCD JUMPI DUP1 PUSH4 0xCD9C9362 GT PUSH2 0x81 JUMPI DUP1 PUSH4 0xDF78BC54 GT PUSH2 0x66 JUMPI DUP1 PUSH4 0xDF78BC54 EQ PUSH2 0x2B2 JUMPI DUP1 PUSH4 0xE9E6630A EQ PUSH2 0x2D2 JUMPI DUP1 PUSH4 0xF892CB36 EQ PUSH2 0x2F7 JUMPI PUSH1 0x0 DUP1 REVERT JUMPDEST DUP1 PUSH4 0xCD9C9362 EQ PUSH2 0x297 JUMPI DUP1 PUSH4 0xD0E2892C EQ PUSH2 0x29F JUMPI PUSH1 0x0 DUP1 REVERT JUMPDEST DUP1 PUSH4 0xA98D22BC GT PUSH2 0xB2 JUMPI DUP1 PUSH4 0xA98D22BC EQ PUSH2 0x24E JUMPI DUP1 PUSH4 0xB83F4805 EQ PUSH2 0x261 JUMPI DUP1 PUSH4 0xB944559D EQ PUSH2 0x284 JUMPI PUSH1 0x0 DUP1 REVERT JUMPDEST DUP1 PUSH4 0x87C63714 EQ PUSH2 0x228 JUMPI DUP1 PUSH4 0x8D5492E4 EQ PUSH2 0x23B JUMPI PUSH1 0x0 DUP1 REVERT JUMPDEST DUP1 PUSH4 0x196BA7EF GT PUSH2 0x124 JUMPI DUP1 PUSH4 0x590411DA GT PUSH2 0x109 JUMPI DUP1 PUSH4 0x590411DA EQ PUSH2 0x1E2 JUMPI DUP1 PUSH4 0x59633A1C EQ PUSH2 0x1F5 JUMPI DUP1 PUSH4 0x6D769717 EQ PUSH2 0x208 JUMPI PUSH1 0x0 DUP1 REVERT JUMPDEST DUP1 PUSH4 0x196BA7EF EQ PUSH2 0x1C5 JUMPI DUP1 PUSH4 0x3DEA2F84 EQ PUSH2 0x1CF JUMPI PUSH1 0x0 DUP1 REVERT JUMPDEST DUP1 PUSH4 0x1E2B33F EQ PUSH2 0x156 JUMPI DUP1 PUSH4 0x72039A2 EQ PUSH2 0x17C JUMPI DUP1 PUSH4 0x7A8B767 EQ PUSH2 0x19F JUMPI DUP1 PUSH4 0x96E27D9 EQ PUSH2 0x1B2 JUMPI JUMPDEST PUSH1 0x0 DUP1 REVERT JUMPDEST PUSH2 0x169 PUSH2 0x164 CALLDATASIZE PUSH1 0x4 PUSH2 0x20B4 JUMP JUMPDEST PUSH2 0x30A JUMP JUMPDEST PUSH1 0x40 MLOAD SWAP1 DUP2 MSTORE PUSH1 0x20 ADD JUMPDEST PUSH1 0x40 MLOAD DUP1 SWAP2 SUB SWAP1 RETURN JUMPDEST PUSH2 0x18F PUSH2 0x18A CALLDATASIZE PUSH1 0x4 PUSH2 0x20B4 JUMP JUMPDEST PUSH2 0x3F8 JUMP JUMPDEST PUSH1 0x40 MLOAD SWAP1 ISZERO ISZERO DUP2 MSTORE PUSH1 0x20 ADD PUSH2 0x173 JUMP JUMPDEST PUSH2 0x18F PUSH2 0x1AD CALLDATASIZE PUSH1 0x4 PUSH2 0x20B4 JUMP JUMPDEST PUSH2 0x48C JUMP JUMPDEST PUSH2 0x18F PUSH2 0x1C0 CALLDATASIZE PUSH1 0x4 PUSH2 0x20CF JUMP JUMPDEST PUSH2 0x51C JUMP JUMPDEST PUSH2 0x1CD PUSH2 0x54E JUMP JUMPDEST STOP JUMPDEST PUSH2 0x1CD PUSH2 0x1DD CALLDATASIZE PUSH1 0x4 PUSH2 0x21B9 JUMP JUMPDEST PUSH2 0x5B0 JUMP JUMPDEST PUSH2 0x1CD PUSH2 0x1F0 CALLDATASIZE PUSH1 0x4 PUSH2 0x2217 JUMP JUMPDEST PUSH2 0x68B JUMP JUMPDEST PUSH2 0x1CD PUSH2 0x203 CALLDATASIZE PUSH1 0x4 PUSH2 0x20B4 JUMP JUMPDEST PUSH2 0x894 JUMP JUMPDEST PUSH2 0x21B PUSH2 0x216 CALLDATASIZE PUSH1 0x4 PUSH2 0x20B4 JUMP JUMPDEST PUSH2 0x9E2 JUMP JUMPDEST PUSH1 0x40 MLOAD PUSH2 0x173 SWAP2 SWAP1 PUSH2 0x22DC JUMP JUMPDEST PUSH2 0x1CD PUSH2 0x236 CALLDATASIZE PUSH1 0x4 PUSH2 0x22EF JUMP JUMPDEST PUSH2 0xAB7 JUMP JUMPDEST PUSH2 0x1CD PUSH2 0x249 CALLDATASIZE PUSH1 0x4 PUSH2 0x20B4 JUMP JUMPDEST PUSH2 0xD59 JUMP JUMPDEST PUSH2 0x1CD PUSH2 0x25C CALLDATASIZE PUSH1 0x4 PUSH2 0x20B4 JUMP JUMPDEST PUSH2 0xE8F JUMP JUMPDEST PUSH2 0x274 PUSH2 0x26F CALLDATASIZE PUSH1 0x4 PUSH2 0x20CF JUMP JUMPDEST PUSH2 0xF48 JUMP JUMPDEST PUSH1 0x40 MLOAD PUSH2 0x173 SWAP5 SWAP4 SWAP3 SWAP2 SWAP1 PUSH2 0x233D JUMP JUMPDEST PUSH2 0x1CD PUSH2 0x292 CALLDATASIZE PUSH1 0x4 PUSH2 0x22EF JUMP JUMPDEST PUSH2 0x10FF JUMP JUMPDEST PUSH2 0x1CD PUSH2 0x116A JUMP JUMPDEST PUSH2 0x1CD PUSH2 0x2AD CALLDATASIZE PUSH1 0x4 PUSH2 0x2370 JUMP JUMPDEST PUSH2 0x1378 JUMP JUMPDEST PUSH2 0x2C5 PUSH2 0x2C0 CALLDATASIZE PUSH1 0x4 PUSH2 0x20CF JUMP JUMPDEST PUSH2 0x1651 JUMP JUMPDEST PUSH1 0x40 MLOAD PUSH2 0x173 SWAP2 SWAP1 PUSH2 0x249B JUMP JUMPDEST PUSH2 0x2E5 PUSH2 0x2E0 CALLDATASIZE PUSH1 0x4 PUSH2 0x20B4 JUMP JUMPDEST PUSH2 0x183E JUMP JUMPDEST PUSH1 0x40 MLOAD PUSH2 0x173 SWAP7 SWAP6 SWAP5 SWAP4 SWAP3 SWAP2 SWAP1 PUSH2 0x24AE JUMP JUMPDEST PUSH2 0x21B PUSH2 0x305 CALLDATASIZE PUSH1 0x4 PUSH2 0x20CF JUMP JUMPDEST PUSH2 0x1CCD JUMP JUMPDEST PUSH1 0x1 PUSH1 0x1 PUSH1 0xA0 SHL SUB DUP2 AND PUSH1 0x0 SWAP1 DUP2 MSTORE PUSH1 0x20 DUP2 SWAP1 MSTORE PUSH1 0x40 DUP2 KECCAK256 PUSH1 0x3 ADD SLOAD DUP2 SWAP1 PUSH2 0x332 SWAP1 TIMESTAMP PUSH2 0x255B JUMP JUMPDEST PUSH1 0x1 PUSH1 0x1 PUSH1 0xA0 SHL SUB DUP5 AND PUSH1 0x0 DUP2 DUP2 MSTORE PUSH1 0x20 DUP2 DUP2 MSTORE PUSH1 0x40 SWAP2 DUP3 SWAP1 KECCAK256 PUSH1 0x2 DUP2 ADD SLOAD PUSH1 0x3 SWAP1 SWAP2 ADD SLOAD DUP4 MLOAD SWAP2 DUP3 MSTORE SWAP2 DUP2 ADD DUP6 SWAP1 MSTORE TIMESTAMP SWAP3 DUP2 ADD SWAP3 SWAP1 SWAP3 MSTORE PUSH1 0x60 DUP3 ADD MSTORE SWAP2 SWAP3 POP SWAP1 PUSH32 0x74A7C0C2E8065FCDBFCA5AE9F6CF0233E47E9E75B6FCF75674DD4B7E3F9B8183 SWAP1 PUSH1 0x80 ADD PUSH1 0x40 MLOAD DUP1 SWAP2 SUB SWAP1 LOG2 PUSH1 0x1 PUSH1 0x1 PUSH1 0xA0 SHL SUB DUP4 AND PUSH1 0x0 SWAP1 DUP2 MSTORE PUSH1 0x20 DUP2 SWAP1 MSTORE PUSH1 0x40 SWAP1 KECCAK256 PUSH1 0x2 ADD SLOAD DUP2 GT PUSH2 0x3EE JUMPI PUSH1 0x1 PUSH1 0x1 PUSH1 0xA0 SHL SUB DUP4 AND PUSH1 0x0 SWAP1 DUP2 MSTORE PUSH1 0x20 DUP2 SWAP1 MSTORE PUSH1 0x40 SWAP1 KECCAK256 PUSH1 0x2 ADD SLOAD PUSH2 0x3E9 SWAP1 DUP3 SWAP1 PUSH2 0x255B JUMP JUMPDEST PUSH2 0x3F1 JUMP JUMPDEST PUSH1 0x0 JUMPDEST SWAP4 SWAP3 POP POP POP JUMP JUMPDEST PUSH1 0x0 PUSH2 0x403 DUP3 PUSH2 0x48C JUMP JUMPDEST ISZERO PUSH2 0x465 JUMPI PUSH1 0x1 PUSH1 0x1 PUSH1 0xA0 SHL SUB DUP3 AND PUSH1 0x0 SWAP1 DUP2 MSTORE PUSH1 0x20 DUP2 SWAP1 MSTORE PUSH1 0x40 SWAP1 KECCAK256 PUSH1 0x3 ADD SLOAD ISZERO PUSH2 0x465 JUMPI PUSH1 0x0 PUSH2 0x434 DUP4 PUSH2 0x30A JUMP JUMPDEST SWAP1 POP PUSH1 0x0 DUP2 GT PUSH2 0x463 JUMPI PUSH1 0x1 PUSH1 0x1 PUSH1 0xA0 SHL SUB DUP4 AND PUSH1 0x0 SWAP1 DUP2 MSTORE PUSH1 0x20 DUP2 SWAP1 MSTORE PUSH1 0x40 SWAP1 KECCAK256 PUSH1 0x4 ADD DUP1 SLOAD PUSH2 0xFF00 NOT AND SWAP1 SSTORE JUMPDEST POP JUMPDEST POP PUSH1 0x1 PUSH1 0x1 PUSH1 0xA0 SHL SUB AND PUSH1 0x0 SWAP1 DUP2 MSTORE PUSH1 0x20 DUP2 SWAP1 MSTORE PUSH1 0x40 SWAP1 KECCAK256 PUSH1 0x4 ADD SLOAD PUSH2 0x100 SWAP1 DIV PUSH1 0xFF AND SWAP1 JUMP JUMPDEST PUSH1 0x1 PUSH1 0x1 PUSH1 0xA0 SHL SUB DUP2 AND PUSH1 0x0 SWAP1 DUP2 MSTORE PUSH1 0x20 DUP2 SWAP1 MSTORE PUSH1 0x40 DUP2 KECCAK256 SLOAD PUSH1 0xFF AND PUSH2 0x4F9 JUMPI PUSH1 0x40 MLOAD PUSH3 0x461BCD PUSH1 0xE5 SHL DUP2 MSTORE PUSH1 0x20 PUSH1 0x4 DUP3 ADD MSTORE PUSH1 0x19 PUSH1 0x24 DUP3 ADD MSTORE PUSH32 0x42656E65666163746F7220646F6573206E6F7420657869737400000000000000 PUSH1 0x44 DUP3 ADD MSTORE PUSH1 0x64 ADD JUMPDEST PUSH1 0x40 MLOAD DUP1 SWAP2 SUB SWAP1 REVERT JUMPDEST POP PUSH1 0x1 PUSH1 0x1 PUSH1 0xA0 SHL SUB AND PUSH1 0x0 SWAP1 DUP2 MSTORE PUSH1 0x20 DUP2 SWAP1 MSTORE PUSH1 0x40 SWAP1 KECCAK256 PUSH1 0x4 ADD SLOAD PUSH1 0xFF AND ISZERO SWAP1 JUMP JUMPDEST PUSH1 0x1 PUSH1 0x1 PUSH1 0xA0 SHL SUB DUP1 DUP4 AND PUSH1 0x0 SWAP1 DUP2 MSTORE PUSH1 0x20 DUP2 DUP2 MSTORE PUSH1 0x40 DUP1 DUP4 KECCAK256 SWAP4 DUP6 AND DUP4 MSTORE PUSH1 0x1 SWAP1 SWAP4 ADD SWAP1 MSTORE KECCAK256 SLOAD PUSH1 0xFF AND JUMPDEST SWAP3 SWAP2 POP POP JUMP JUMPDEST CALLER PUSH1 0x0 DUP2 DUP2 MSTORE PUSH1 0x20 DUP2 DUP2 MSTORE PUSH1 0x40 DUP1 DUP4 KECCAK256 DUP1 SLOAD PUSH1 0xFF NOT AND PUSH1 0x1 OR DUP2 SSTORE PUSH3 0x93A80 PUSH1 0x2 DUP3 ADD SSTORE PUSH1 0x4 DUP2 ADD DUP1 SLOAD PUSH2 0x101 PUSH2 0xFFFF NOT SWAP1 SWAP2 AND OR SWAP1 SSTORE PUSH1 0x3 DUP2 ADD DUP5 SWAP1 SSTORE DUP2 MLOAD DUP1 DUP5 ADD SWAP1 SWAP3 MSTORE DUP4 DUP3 MSTORE SWAP4 DUP4 MSTORE SWAP2 SWAP1 MSTORE PUSH1 0x5 SWAP1 SWAP2 ADD SWAP1 PUSH2 0x5AD SWAP1 DUP3 PUSH2 0x25F6 JUMP JUMPDEST POP JUMP JUMPDEST PUSH2 0x5BA DUP4 DUP4 PUSH2 0x51C JUMP JUMPDEST PUSH2 0x606 JUMPI PUSH1 0x40 MLOAD PUSH3 0x461BCD PUSH1 0xE5 SHL DUP2 MSTORE PUSH1 0x20 PUSH1 0x4 DUP3 ADD DUP2 SWAP1 MSTORE PUSH1 0x24 DUP3 ADD MSTORE PUSH32 0x42656E65666963696172792F42656E65666163746F72206E6F7420666F756E64 PUSH1 0x44 DUP3 ADD MSTORE PUSH1 0x64 ADD PUSH2 0x4F0 JUMP JUMPDEST PUSH1 0x1 PUSH1 0x1 PUSH1 0xA0 SHL SUB DUP1 DUP5 AND PUSH1 0x0 SWAP1 DUP2 MSTORE PUSH1 0x20 DUP2 DUP2 MSTORE PUSH1 0x40 DUP1 DUP4 KECCAK256 SWAP4 DUP7 AND DUP4 MSTORE PUSH1 0x1 SWAP1 SWAP4 ADD SWAP1 MSTORE KECCAK256 PUSH1 0x2 ADD PUSH2 0x63A DUP3 DUP3 PUSH2 0x25F6 JUMP JUMPDEST POP DUP2 PUSH1 0x1 PUSH1 0x1 PUSH1 0xA0 SHL SUB AND DUP4 PUSH1 0x1 PUSH1 0x1 PUSH1 0xA0 SHL SUB AND PUSH32 0x69CCEA10852AC51B01745414774B5AF302217E774786D2068296650B57BA03F2 DUP4 PUSH1 0x40 MLOAD PUSH2 0x67E SWAP2 SWAP1 PUSH2 0x22DC JUMP JUMPDEST PUSH1 0x40 MLOAD DUP1 SWAP2 SUB SWAP1 LOG3 POP POP POP JUMP JUMPDEST CALLER PUSH1 0x0 SWAP1 DUP2 MSTORE PUSH1 0x20 DUP2 SWAP1 MSTORE PUSH1 0x40 SWAP1 KECCAK256 SLOAD PUSH1 0xFF AND DUP1 ISZERO PUSH2 0x6C1 JUMPI POP CALLER PUSH1 0x0 SWAP1 DUP2 MSTORE PUSH1 0x20 DUP2 SWAP1 MSTORE PUSH1 0x40 SWAP1 KECCAK256 PUSH1 0x4 ADD SLOAD PUSH2 0x100 SWAP1 DIV PUSH1 0xFF AND JUMPDEST PUSH2 0x706 JUMPI PUSH1 0x40 MLOAD PUSH3 0x461BCD PUSH1 0xE5 SHL DUP2 MSTORE PUSH1 0x20 PUSH1 0x4 DUP3 ADD MSTORE PUSH1 0x16 PUSH1 0x24 DUP3 ADD MSTORE PUSH22 0x2737BA1030903B30B634B2103132B732B330B1BA37B9 PUSH1 0x51 SHL PUSH1 0x44 DUP3 ADD MSTORE PUSH1 0x64 ADD PUSH2 0x4F0 JUMP JUMPDEST PUSH1 0x0 JUMPDEST DUP2 DUP2 LT ISZERO PUSH2 0x88F JUMPI PUSH1 0x0 DUP4 DUP4 DUP4 DUP2 DUP2 LT PUSH2 0x725 JUMPI PUSH2 0x725 PUSH2 0x26B6 JUMP JUMPDEST SWAP1 POP PUSH1 0x20 MUL ADD PUSH1 0x20 DUP2 ADD SWAP1 PUSH2 0x73A SWAP2 SWAP1 PUSH2 0x20B4 JUMP JUMPDEST SWAP1 POP PUSH2 0x746 CALLER DUP3 PUSH2 0x51C JUMP JUMPDEST ISZERO PUSH2 0x793 JUMPI PUSH1 0x40 MLOAD PUSH3 0x461BCD PUSH1 0xE5 SHL DUP2 MSTORE PUSH1 0x20 PUSH1 0x4 DUP3 ADD MSTORE PUSH1 0x1A PUSH1 0x24 DUP3 ADD MSTORE PUSH32 0x42656E656669636961727920616C726561647920657869737473000000000000 PUSH1 0x44 DUP3 ADD MSTORE PUSH1 0x64 ADD PUSH2 0x4F0 JUMP JUMPDEST PUSH1 0x40 DUP1 MLOAD PUSH1 0x60 DUP2 ADD DUP3 MSTORE PUSH1 0x1 DUP2 MSTORE DUP2 MLOAD PUSH1 0x0 DUP1 DUP3 MSTORE PUSH1 0x20 DUP3 DUP2 ADD SWAP1 SWAP5 MSTORE SWAP2 SWAP3 DUP4 ADD SWAP2 PUSH2 0x7CF JUMP JUMPDEST PUSH1 0x60 DUP2 MSTORE PUSH1 0x20 ADD SWAP1 PUSH1 0x1 SWAP1 SUB SWAP1 DUP2 PUSH2 0x7BA JUMPI SWAP1 POP JUMPDEST POP DUP2 MSTORE PUSH1 0x40 DUP1 MLOAD PUSH1 0x20 DUP1 DUP3 ADD DUP4 MSTORE PUSH1 0x0 DUP1 DUP4 MSTORE SWAP4 DUP2 ADD SWAP2 SWAP1 SWAP2 MSTORE CALLER DUP4 MSTORE DUP3 DUP2 MSTORE DUP2 DUP4 KECCAK256 PUSH1 0x1 PUSH1 0x1 PUSH1 0xA0 SHL SUB DUP7 AND DUP5 MSTORE PUSH1 0x1 SWAP1 DUP2 ADD DUP3 MSTORE SWAP2 SWAP1 SWAP3 KECCAK256 DUP4 MLOAD DUP2 SLOAD PUSH1 0xFF NOT AND SWAP1 ISZERO ISZERO OR DUP2 SSTORE DUP4 DUP4 ADD MLOAD DUP1 MLOAD SWAP2 SWAP4 PUSH2 0x82E SWAP4 DUP6 ADD SWAP3 SWAP2 ADD SWAP1 PUSH2 0x1FBD JUMP JUMPDEST POP PUSH1 0x40 DUP3 ADD MLOAD PUSH1 0x2 DUP3 ADD SWAP1 PUSH2 0x843 SWAP1 DUP3 PUSH2 0x25F6 JUMP JUMPDEST POP POP PUSH1 0x40 MLOAD PUSH1 0x1 PUSH1 0x1 PUSH1 0xA0 SHL SUB DUP4 AND SWAP2 POP CALLER SWAP1 PUSH32 0xBB39C36A7502B7256E1A687254146A9A2EA7B146C77CB9E40EB0E2B8793781E1 SWAP1 PUSH1 0x0 SWAP1 LOG3 POP DUP1 PUSH2 0x887 DUP2 PUSH2 0x26CC JUMP JUMPDEST SWAP2 POP POP PUSH2 0x709 JUMP JUMPDEST POP POP POP JUMP JUMPDEST CALLER PUSH1 0x0 SWAP1 DUP2 MSTORE PUSH1 0x20 DUP2 SWAP1 MSTORE PUSH1 0x40 SWAP1 KECCAK256 SLOAD PUSH1 0xFF AND DUP1 ISZERO PUSH2 0x8CA JUMPI POP CALLER PUSH1 0x0 SWAP1 DUP2 MSTORE PUSH1 0x20 DUP2 SWAP1 MSTORE PUSH1 0x40 SWAP1 KECCAK256 PUSH1 0x4 ADD SLOAD PUSH2 0x100 SWAP1 DIV PUSH1 0xFF AND JUMPDEST PUSH2 0x90F JUMPI PUSH1 0x40 MLOAD PUSH3 0x461BCD PUSH1 0xE5 SHL DUP2 MSTORE PUSH1 0x20 PUSH1 0x4 DUP3 ADD MSTORE PUSH1 0x16 PUSH1 0x24 DUP3 ADD MSTORE PUSH22 0x2737BA1030903B30B634B2103132B732B330B1BA37B9 PUSH1 0x51 SHL PUSH1 0x44 DUP3 ADD MSTORE PUSH1 0x64 ADD PUSH2 0x4F0 JUMP JUMPDEST PUSH2 0x919 CALLER DUP3 PUSH2 0x51C JUMP JUMPDEST PUSH2 0x95D JUMPI PUSH1 0x40 MLOAD PUSH3 0x461BCD PUSH1 0xE5 SHL DUP2 MSTORE PUSH1 0x20 PUSH1 0x4 DUP3 ADD MSTORE PUSH1 0x15 PUSH1 0x24 DUP3 ADD MSTORE PUSH21 0x10995B99599A58DA585C9E481B9BDD08199BDD5B99 PUSH1 0x5A SHL PUSH1 0x44 DUP3 ADD MSTORE PUSH1 0x64 ADD PUSH2 0x4F0 JUMP JUMPDEST CALLER PUSH1 0x0 SWAP1 DUP2 MSTORE PUSH1 0x20 DUP2 DUP2 MSTORE PUSH1 0x40 DUP1 DUP4 KECCAK256 PUSH1 0x1 PUSH1 0x1 PUSH1 0xA0 SHL SUB DUP6 AND DUP5 MSTORE PUSH1 0x1 SWAP1 DUP2 ADD SWAP1 SWAP3 MSTORE DUP3 KECCAK256 DUP1 SLOAD PUSH1 0xFF NOT AND DUP2 SSTORE SWAP2 SWAP1 PUSH2 0x999 SWAP1 DUP4 ADD DUP3 PUSH2 0x2013 JUMP JUMPDEST PUSH2 0x9A7 PUSH1 0x2 DUP4 ADD PUSH1 0x0 PUSH2 0x2031 JUMP JUMPDEST POP POP PUSH1 0x40 MLOAD PUSH1 0x1 PUSH1 0x1 PUSH1 0xA0 SHL SUB DUP3 AND SWAP1 CALLER SWAP1 PUSH32 0x1A6590BD0CABBFCC7C86BEF99E1034054E179905CFCC294598FCD426C0922442 SWAP1 PUSH1 0x0 SWAP1 LOG3 POP JUMP JUMPDEST PUSH1 0x60 PUSH2 0x9EE DUP3 CALLER PUSH2 0x51C JUMP JUMPDEST ISZERO PUSH2 0xA9E JUMPI PUSH1 0x1 PUSH1 0x1 PUSH1 0xA0 SHL SUB DUP3 AND PUSH1 0x0 SWAP1 DUP2 MSTORE PUSH1 0x20 DUP2 SWAP1 MSTORE PUSH1 0x40 SWAP1 KECCAK256 PUSH1 0x5 ADD DUP1 SLOAD PUSH2 0xA19 SWAP1 PUSH2 0x256E JUMP JUMPDEST DUP1 PUSH1 0x1F ADD PUSH1 0x20 DUP1 SWAP2 DIV MUL PUSH1 0x20 ADD PUSH1 0x40 MLOAD SWAP1 DUP2 ADD PUSH1 0x40 MSTORE DUP1 SWAP3 SWAP2 SWAP1 DUP2 DUP2 MSTORE PUSH1 0x20 ADD DUP3 DUP1 SLOAD PUSH2 0xA45 SWAP1 PUSH2 0x256E JUMP JUMPDEST DUP1 ISZERO PUSH2 0xA92 JUMPI DUP1 PUSH1 0x1F LT PUSH2 0xA67 JUMPI PUSH2 0x100 DUP1 DUP4 SLOAD DIV MUL DUP4 MSTORE SWAP2 PUSH1 0x20 ADD SWAP2 PUSH2 0xA92 JUMP JUMPDEST DUP3 ADD SWAP2 SWAP1 PUSH1 0x0 MSTORE PUSH1 0x20 PUSH1 0x0 KECCAK256 SWAP1 JUMPDEST DUP2 SLOAD DUP2 MSTORE SWAP1 PUSH1 0x1 ADD SWAP1 PUSH1 0x20 ADD DUP1 DUP4 GT PUSH2 0xA75 JUMPI DUP3 SWAP1 SUB PUSH1 0x1F AND DUP3 ADD SWAP2 JUMPDEST POP POP POP POP POP SWAP1 POP SWAP2 SWAP1 POP JUMP JUMPDEST POP POP PUSH1 0x40 DUP1 MLOAD PUSH1 0x20 DUP2 ADD SWAP1 SWAP2 MSTORE PUSH1 0x0 DUP2 MSTORE SWAP1 JUMP JUMPDEST SWAP2 SWAP1 POP JUMP JUMPDEST CALLER PUSH1 0x0 SWAP1 DUP2 MSTORE PUSH1 0x20 DUP2 SWAP1 MSTORE PUSH1 0x40 SWAP1 KECCAK256 SLOAD PUSH1 0xFF AND DUP1 ISZERO PUSH2 0xAED JUMPI POP CALLER PUSH1 0x0 SWAP1 DUP2 MSTORE PUSH1 0x20 DUP2 SWAP1 MSTORE PUSH1 0x40 SWAP1 KECCAK256 PUSH1 0x4 ADD SLOAD PUSH2 0x100 SWAP1 DIV PUSH1 0xFF AND JUMPDEST PUSH2 0xB32 JUMPI PUSH1 0x40 MLOAD PUSH3 0x461BCD PUSH1 0xE5 SHL DUP2 MSTORE PUSH1 0x20 PUSH1 0x4 DUP3 ADD MSTORE PUSH1 0x16 PUSH1 0x24 DUP3 ADD MSTORE PUSH22 0x2737BA1030903B30B634B2103132B732B330B1BA37B9 PUSH1 0x51 SHL PUSH1 0x44 DUP3 ADD MSTORE PUSH1 0x64 ADD PUSH2 0x4F0 JUMP JUMPDEST PUSH2 0xB3C CALLER DUP4 PUSH2 0x51C JUMP JUMPDEST PUSH2 0xB80 JUMPI PUSH1 0x40 MLOAD PUSH3 0x461BCD PUSH1 0xE5 SHL DUP2 MSTORE PUSH1 0x20 PUSH1 0x4 DUP3 ADD MSTORE PUSH1 0x15 PUSH1 0x24 DUP3 ADD MSTORE PUSH21 0x10995B99599A58DA585C9E481B9BDD08199BDD5B99 PUSH1 0x5A SHL PUSH1 0x44 DUP3 ADD MSTORE PUSH1 0x64 ADD PUSH2 0x4F0 JUMP JUMPDEST CALLER PUSH1 0x0 SWAP1 DUP2 MSTORE PUSH1 0x20 DUP2 DUP2 MSTORE PUSH1 0x40 DUP1 DUP4 KECCAK256 PUSH1 0x1 PUSH1 0x1 PUSH1 0xA0 SHL SUB DUP7 AND DUP5 MSTORE PUSH1 0x1 SWAP1 DUP2 ADD SWAP1 SWAP3 MSTORE DUP3 KECCAK256 ADD SWAP1 JUMPDEST DUP2 SLOAD DUP2 LT ISZERO PUSH2 0xD04 JUMPI DUP3 PUSH1 0x40 MLOAD PUSH1 0x20 ADD PUSH2 0xBC3 SWAP2 SWAP1 PUSH2 0x26E5 JUMP JUMPDEST PUSH1 0x40 MLOAD PUSH1 0x20 DUP2 DUP4 SUB SUB DUP2 MSTORE SWAP1 PUSH1 0x40 MSTORE DUP1 MLOAD SWAP1 PUSH1 0x20 ADD KECCAK256 DUP3 DUP3 DUP2 SLOAD DUP2 LT PUSH2 0xBEB JUMPI PUSH2 0xBEB PUSH2 0x26B6 JUMP JUMPDEST SWAP1 PUSH1 0x0 MSTORE PUSH1 0x20 PUSH1 0x0 KECCAK256 ADD PUSH1 0x40 MLOAD PUSH1 0x20 ADD PUSH2 0xC05 SWAP2 SWAP1 PUSH2 0x2701 JUMP JUMPDEST PUSH1 0x40 MLOAD PUSH1 0x20 DUP2 DUP4 SUB SUB DUP2 MSTORE SWAP1 PUSH1 0x40 MSTORE DUP1 MLOAD SWAP1 PUSH1 0x20 ADD KECCAK256 SUB PUSH2 0xCF2 JUMPI DUP2 SLOAD DUP3 SWAP1 PUSH2 0xC30 SWAP1 PUSH1 0x1 SWAP1 PUSH2 0x255B JUMP JUMPDEST DUP2 SLOAD DUP2 LT PUSH2 0xC40 JUMPI PUSH2 0xC40 PUSH2 0x26B6 JUMP JUMPDEST SWAP1 PUSH1 0x0 MSTORE PUSH1 0x20 PUSH1 0x0 KECCAK256 ADD DUP3 DUP3 DUP2 SLOAD DUP2 LT PUSH2 0xC5C JUMPI PUSH2 0xC5C PUSH2 0x26B6 JUMP JUMPDEST SWAP1 PUSH1 0x0 MSTORE PUSH1 0x20 PUSH1 0x0 KECCAK256 ADD SWAP1 DUP2 PUSH2 0xC72 SWAP2 SWAP1 PUSH2 0x2777 JUMP JUMPDEST POP DUP2 DUP1 SLOAD DUP1 PUSH2 0xC83 JUMPI PUSH2 0xC83 PUSH2 0x2852 JUMP JUMPDEST PUSH1 0x1 SWAP1 SUB DUP2 DUP2 SWAP1 PUSH1 0x0 MSTORE PUSH1 0x20 PUSH1 0x0 KECCAK256 ADD PUSH1 0x0 PUSH2 0xC9F SWAP2 SWAP1 PUSH2 0x2031 JUMP JUMPDEST SWAP1 SSTORE DUP4 PUSH1 0x1 PUSH1 0x1 PUSH1 0xA0 SHL SUB AND CALLER PUSH1 0x1 PUSH1 0x1 PUSH1 0xA0 SHL SUB AND PUSH32 0x4C13211CE3B2D0CB3E02A662CC071D6BE555042CA58D4D812B7B90E80D3250AC DUP6 PUSH1 0x40 MLOAD PUSH2 0xCE4 SWAP2 SWAP1 PUSH2 0x22DC JUMP JUMPDEST PUSH1 0x40 MLOAD DUP1 SWAP2 SUB SWAP1 LOG3 POP POP POP POP JUMP JUMPDEST DUP1 PUSH2 0xCFC DUP2 PUSH2 0x26CC JUMP JUMPDEST SWAP2 POP POP PUSH2 0xBA9 JUMP JUMPDEST POP PUSH1 0x40 MLOAD PUSH3 0x461BCD PUSH1 0xE5 SHL DUP2 MSTORE PUSH1 0x20 PUSH1 0x4 DUP3 ADD MSTORE PUSH1 0x24 DUP1 DUP3 ADD MSTORE PUSH32 0x434944206E6F742061737369676E656420746F20746869732062656E65666963 PUSH1 0x44 DUP3 ADD MSTORE PUSH4 0x69617279 PUSH1 0xE0 SHL PUSH1 0x64 DUP3 ADD MSTORE PUSH1 0x84 ADD PUSH2 0x4F0 JUMP JUMPDEST PUSH1 0x1 PUSH1 0x1 PUSH1 0xA0 SHL SUB DUP2 AND PUSH1 0x0 SWAP1 DUP2 MSTORE PUSH1 0x20 DUP2 DUP2 MSTORE PUSH1 0x40 DUP1 DUP4 KECCAK256 CALLER DUP5 MSTORE PUSH1 0x1 ADD SWAP1 SWAP2 MSTORE SWAP1 KECCAK256 SLOAD PUSH1 0xFF AND PUSH2 0xDCD JUMPI PUSH1 0x40 MLOAD PUSH3 0x461BCD PUSH1 0xE5 SHL DUP2 MSTORE PUSH1 0x20 PUSH1 0x4 DUP3 ADD MSTORE PUSH1 0x17 PUSH1 0x24 DUP3 ADD MSTORE PUSH32 0x4E6F7420612076616C69642062656E6566696369617279000000000000000000 PUSH1 0x44 DUP3 ADD MSTORE PUSH1 0x64 ADD PUSH2 0x4F0 JUMP JUMPDEST PUSH1 0x1 PUSH1 0x1 PUSH1 0xA0 SHL SUB DUP2 AND PUSH1 0x0 SWAP1 DUP2 MSTORE PUSH1 0x20 DUP2 SWAP1 MSTORE PUSH1 0x40 SWAP1 KECCAK256 PUSH1 0x4 ADD SLOAD PUSH1 0xFF AND PUSH2 0xE29 JUMPI PUSH1 0x40 MLOAD CALLER SWAP1 PUSH1 0x1 PUSH1 0x1 PUSH1 0xA0 SHL SUB DUP4 AND SWAP1 PUSH32 0x67C4731BDC193862F421E091D18F46DF876BFE1B8B9AA97504F1D50D425B239D SWAP1 PUSH1 0x0 SWAP1 LOG3 POP JUMP JUMPDEST PUSH1 0x1 PUSH1 0x1 PUSH1 0xA0 SHL SUB DUP2 AND PUSH1 0x0 DUP2 DUP2 MSTORE PUSH1 0x20 DUP2 DUP2 MSTORE PUSH1 0x40 SWAP2 DUP3 SWAP1 KECCAK256 PUSH1 0x4 DUP2 ADD DUP1 SLOAD PUSH1 0xFF NOT AND SWAP1 SSTORE TIMESTAMP PUSH1 0x3 DUP3 ADD SSTORE PUSH1 0x2 ADD SLOAD SWAP2 MLOAD SWAP2 DUP3 MSTORE CALLER SWAP3 SWAP2 PUSH32 0x82595752291D0261DFB9B4B0C2307021C29C34E22FE0697B4840B529DC351BC3 SWAP2 ADD PUSH1 0x40 MLOAD DUP1 SWAP2 SUB SWAP1 LOG3 POP JUMP JUMPDEST CALLER PUSH1 0x0 SWAP1 DUP2 MSTORE PUSH1 0x20 DUP2 SWAP1 MSTORE PUSH1 0x40 SWAP1 KECCAK256 SLOAD PUSH1 0xFF AND PUSH2 0xEEE JUMPI PUSH1 0x40 MLOAD PUSH3 0x461BCD PUSH1 0xE5 SHL DUP2 MSTORE PUSH1 0x20 PUSH1 0x4 DUP3 ADD MSTORE PUSH1 0x19 PUSH1 0x24 DUP3 ADD MSTORE PUSH32 0x42656E65666163746F72206E6F74207265676973746572656400000000000000 PUSH1 0x44 DUP3 ADD MSTORE PUSH1 0x64 ADD PUSH2 0x4F0 JUMP JUMPDEST CALLER PUSH1 0x0 SWAP1 DUP2 MSTORE PUSH1 0x20 DUP2 SWAP1 MSTORE PUSH1 0x40 DUP1 DUP3 KECCAK256 DUP1 SLOAD PUSH1 0xFF NOT SWAP1 DUP2 AND SWAP1 SWAP2 SSTORE PUSH1 0x1 PUSH1 0x1 PUSH1 0xA0 SHL SUB DUP5 AND DUP4 MSTORE SWAP1 DUP3 KECCAK256 DUP1 SLOAD SWAP1 SWAP2 AND DUP2 SSTORE PUSH1 0x2 DUP2 ADD DUP3 SWAP1 SSTORE PUSH1 0x3 DUP2 ADD DUP3 SWAP1 SSTORE PUSH1 0x4 DUP2 ADD DUP1 SLOAD PUSH2 0xFFFF NOT AND SWAP1 SSTORE SWAP1 PUSH2 0x88F PUSH1 0x5 DUP4 ADD DUP3 PUSH2 0x2031 JUMP JUMPDEST PUSH1 0x1 PUSH1 0x1 PUSH1 0xA0 SHL SUB DUP3 AND PUSH1 0x0 SWAP1 DUP2 MSTORE PUSH1 0x20 DUP2 SWAP1 MSTORE PUSH1 0x40 DUP2 KECCAK256 SLOAD DUP2 SWAP1 DUP2 SWAP1 PUSH1 0x60 SWAP1 PUSH1 0xFF AND PUSH2 0xFB7 JUMPI PUSH1 0x40 MLOAD PUSH3 0x461BCD PUSH1 0xE5 SHL DUP2 MSTORE PUSH1 0x20 PUSH1 0x4 DUP3 ADD MSTORE PUSH1 0x19 PUSH1 0x24 DUP3 ADD MSTORE PUSH32 0x42656E65666163746F7220646F6573206E6F7420657869737400000000000000 PUSH1 0x44 DUP3 ADD MSTORE PUSH1 0x64 ADD PUSH2 0x4F0 JUMP JUMPDEST PUSH1 0x1 PUSH1 0x1 PUSH1 0xA0 SHL SUB DUP7 AND PUSH1 0x0 SWAP1 DUP2 MSTORE PUSH1 0x20 DUP2 SWAP1 MSTORE PUSH1 0x40 SWAP1 KECCAK256 PUSH1 0x4 ADD SLOAD PUSH1 0xFF AND ISZERO SWAP4 POP DUP4 PUSH2 0xFE7 JUMPI PUSH1 0x0 SWAP3 POP PUSH2 0xFF3 JUMP JUMPDEST PUSH2 0xFF0 DUP7 PUSH2 0x30A JUMP JUMPDEST SWAP3 POP JUMPDEST PUSH1 0x1 PUSH1 0x1 PUSH1 0xA0 SHL SUB DUP7 DUP2 AND PUSH1 0x0 SWAP1 DUP2 MSTORE PUSH1 0x20 DUP2 DUP2 MSTORE PUSH1 0x40 DUP1 DUP4 KECCAK256 PUSH1 0x4 DUP2 ADD SLOAD SWAP5 DUP11 AND DUP5 MSTORE PUSH1 0x1 ADD SWAP1 SWAP2 MSTORE SWAP1 KECCAK256 PUSH1 0x2 ADD DUP1 SLOAD PUSH2 0x100 SWAP1 SWAP3 DIV PUSH1 0xFF AND SWAP4 POP SWAP1 PUSH2 0x1039 SWAP1 PUSH2 0x256E JUMP JUMPDEST DUP1 PUSH1 0x1F ADD PUSH1 0x20 DUP1 SWAP2 DIV MUL PUSH1 0x20 ADD PUSH1 0x40 MLOAD SWAP1 DUP2 ADD PUSH1 0x40 MSTORE DUP1 SWAP3 SWAP2 SWAP1 DUP2 DUP2 MSTORE PUSH1 0x20 ADD DUP3 DUP1 SLOAD PUSH2 0x1065 SWAP1 PUSH2 0x256E JUMP JUMPDEST DUP1 ISZERO PUSH2 0x10B2 JUMPI DUP1 PUSH1 0x1F LT PUSH2 0x1087 JUMPI PUSH2 0x100 DUP1 DUP4 SLOAD DIV MUL DUP4 MSTORE SWAP2 PUSH1 0x20 ADD SWAP2 PUSH2 0x10B2 JUMP JUMPDEST DUP3 ADD SWAP2 SWAP1 PUSH1 0x0 MSTORE PUSH1 0x20 PUSH1 0x0 KECCAK256 SWAP1 JUMPDEST DUP2 SLOAD DUP2 MSTORE SWAP1 PUSH1 0x1 ADD SWAP1 PUSH1 0x20 ADD DUP1 DUP4 GT PUSH2 0x1095 JUMPI DUP3 SWAP1 SUB PUSH1 0x1F AND DUP3 ADD SWAP2 JUMPDEST POP POP POP POP POP SWAP1 POP PUSH32 0xE092C8EAB045FA06EB05FE062C2D0A1721905A7AD6ACB7EED9C804D956EA9FD DUP5 DUP5 DUP5 DUP5 PUSH1 0x40 MLOAD PUSH2 0x10EE SWAP5 SWAP4 SWAP3 SWAP2 SWAP1 PUSH2 0x233D JUMP JUMPDEST PUSH1 0x40 MLOAD DUP1 SWAP2 SUB SWAP1 LOG1 SWAP3 SWAP6 SWAP2 SWAP5 POP SWAP3 POP JUMP JUMPDEST PUSH1 0x1 PUSH1 0x1 PUSH1 0xA0 SHL SUB DUP3 AND PUSH1 0x0 SWAP1 DUP2 MSTORE PUSH1 0x20 DUP2 SWAP1 MSTORE PUSH1 0x40 SWAP1 KECCAK256 PUSH1 0x5 ADD PUSH2 0x1124 DUP3 DUP3 PUSH2 0x25F6 JUMP JUMPDEST POP DUP2 PUSH1 0x1 PUSH1 0x1 PUSH1 0xA0 SHL SUB AND PUSH32 0xF20D3EA0A54B197EC507921ED526707368E27AD44B86BF2D4B11888B7009DE6B DUP3 PUSH1 0x40 MLOAD PUSH2 0x115E SWAP2 SWAP1 PUSH2 0x22DC JUMP JUMPDEST PUSH1 0x40 MLOAD DUP1 SWAP2 SUB SWAP1 LOG2 POP POP JUMP JUMPDEST CALLER PUSH1 0x0 SWAP1 DUP2 MSTORE PUSH1 0x20 DUP2 SWAP1 MSTORE PUSH1 0x40 SWAP1 KECCAK256 SLOAD PUSH1 0xFF AND DUP1 ISZERO PUSH2 0x11A0 JUMPI POP CALLER PUSH1 0x0 SWAP1 DUP2 MSTORE PUSH1 0x20 DUP2 SWAP1 MSTORE PUSH1 0x40 SWAP1 KECCAK256 PUSH1 0x4 ADD SLOAD PUSH2 0x100 SWAP1 DIV PUSH1 0xFF AND JUMPDEST PUSH2 0x11E5 JUMPI PUSH1 0x40 MLOAD PUSH3 0x461BCD PUSH1 0xE5 SHL DUP2 MSTORE PUSH1 0x20 PUSH1 0x4 DUP3 ADD MSTORE PUSH1 0x16 PUSH1 0x24 DUP3 ADD MSTORE PUSH22 0x2737BA1030903B30B634B2103132B732B330B1BA37B9 PUSH1 0x51 SHL PUSH1 0x44 DUP3 ADD MSTORE PUSH1 0x64 ADD PUSH2 0x4F0 JUMP JUMPDEST CALLER PUSH1 0x0 SWAP1 DUP2 MSTORE PUSH1 0x20 DUP2 SWAP1 MSTORE PUSH1 0x40 SWAP1 KECCAK256 PUSH1 0x3 ADD SLOAD ISZERO PUSH2 0x130F JUMPI PUSH2 0x1206 CALLER PUSH2 0x3F8 JUMP JUMPDEST ISZERO PUSH2 0x129C JUMPI CALLER PUSH1 0x1 PUSH1 0x1 PUSH1 0xA0 SHL SUB AND PUSH32 0x793324A6F079E577F4A4646C7EC753EFD3BEDDC2F4CE07BFAE5F105C449AC356 PUSH1 0x40 MLOAD PUSH2 0x1274 SWAP1 PUSH1 0x20 DUP1 DUP3 MSTORE PUSH1 0x13 SWAP1 DUP3 ADD MSTORE PUSH32 0x42656E65666163746F7220697320616C69766500000000000000000000000000 PUSH1 0x40 DUP3 ADD MSTORE PUSH1 0x60 ADD SWAP1 JUMP JUMPDEST PUSH1 0x40 MLOAD DUP1 SWAP2 SUB SWAP1 LOG2 PUSH2 0x1284 PUSH2 0x1DAD JUMP JUMPDEST CALLER PUSH1 0x0 SWAP1 DUP2 MSTORE PUSH1 0x20 DUP2 SWAP1 MSTORE PUSH1 0x40 SWAP1 KECCAK256 TIMESTAMP PUSH1 0x3 SWAP1 SWAP2 ADD SSTORE JUMP JUMPDEST CALLER PUSH1 0x1 PUSH1 0x1 PUSH1 0xA0 SHL SUB AND PUSH32 0x5A68FA7D6B655A3E592D5D99AC82863424750E9D262C902F30F9E56655E7A856 PUSH1 0x40 MLOAD PUSH2 0x1305 SWAP1 PUSH1 0x20 DUP1 DUP3 MSTORE PUSH1 0x12 SWAP1 DUP3 ADD MSTORE PUSH32 0x42656E65666163746F7220697320646561640000000000000000000000000000 PUSH1 0x40 DUP3 ADD MSTORE PUSH1 0x60 ADD SWAP1 JUMP JUMPDEST PUSH1 0x40 MLOAD DUP1 SWAP2 SUB SWAP1 LOG2 JUMP JUMPDEST CALLER PUSH1 0x1 PUSH1 0x1 PUSH1 0xA0 SHL SUB AND PUSH32 0x793324A6F079E577F4A4646C7EC753EFD3BEDDC2F4CE07BFAE5F105C449AC356 PUSH1 0x40 MLOAD PUSH2 0x1274 SWAP1 PUSH1 0x20 DUP1 DUP3 MSTORE PUSH1 0x13 SWAP1 DUP3 ADD MSTORE PUSH32 0x42656E65666163746F7220697320616C69766500000000000000000000000000 PUSH1 0x40 DUP3 ADD MSTORE PUSH1 0x60 ADD SWAP1 JUMP JUMPDEST CALLER PUSH1 0x0 SWAP1 DUP2 MSTORE PUSH1 0x20 DUP2 SWAP1 MSTORE PUSH1 0x40 SWAP1 KECCAK256 SLOAD PUSH1 0xFF AND DUP1 ISZERO PUSH2 0x13AE JUMPI POP CALLER PUSH1 0x0 SWAP1 DUP2 MSTORE PUSH1 0x20 DUP2 SWAP1 MSTORE PUSH1 0x40 SWAP1 KECCAK256 PUSH1 0x4 ADD SLOAD PUSH2 0x100 SWAP1 DIV PUSH1 0xFF AND JUMPDEST PUSH2 0x13F3 JUMPI PUSH1 0x40 MLOAD PUSH3 0x461BCD PUSH1 0xE5 SHL DUP2 MSTORE PUSH1 0x20 PUSH1 0x4 DUP3 ADD MSTORE PUSH1 0x16 PUSH1 0x24 DUP3 ADD MSTORE PUSH22 0x2737BA1030903B30B634B2103132B732B330B1BA37B9 PUSH1 0x51 SHL PUSH1 0x44 DUP3 ADD MSTORE PUSH1 0x64 ADD PUSH2 0x4F0 JUMP JUMPDEST PUSH2 0x13FD CALLER DUP4 PUSH2 0x51C JUMP JUMPDEST PUSH2 0x1441 JUMPI PUSH1 0x40 MLOAD PUSH3 0x461BCD PUSH1 0xE5 SHL DUP2 MSTORE PUSH1 0x20 PUSH1 0x4 DUP3 ADD MSTORE PUSH1 0x15 PUSH1 0x24 DUP3 ADD MSTORE PUSH21 0x10995B99599A58DA585C9E481B9BDD08199BDD5B99 PUSH1 0x5A SHL PUSH1 0x44 DUP3 ADD MSTORE PUSH1 0x64 ADD PUSH2 0x4F0 JUMP JUMPDEST CALLER PUSH1 0x0 SWAP1 DUP2 MSTORE PUSH1 0x20 DUP2 DUP2 MSTORE PUSH1 0x40 DUP1 DUP4 KECCAK256 PUSH1 0x1 PUSH1 0x1 PUSH1 0xA0 SHL SUB DUP7 AND DUP5 MSTORE PUSH1 0x1 SWAP1 DUP2 ADD SWAP1 SWAP3 MSTORE DUP3 KECCAK256 ADD SWAP1 JUMPDEST DUP3 MLOAD DUP2 LT ISZERO PUSH2 0x164B JUMPI PUSH1 0x0 DUP1 JUMPDEST DUP4 SLOAD DUP2 LT ISZERO PUSH2 0x1522 JUMPI DUP5 DUP4 DUP2 MLOAD DUP2 LT PUSH2 0x1492 JUMPI PUSH2 0x1492 PUSH2 0x26B6 JUMP JUMPDEST PUSH1 0x20 MUL PUSH1 0x20 ADD ADD MLOAD PUSH1 0x40 MLOAD PUSH1 0x20 ADD PUSH2 0x14AA SWAP2 SWAP1 PUSH2 0x26E5 JUMP JUMPDEST PUSH1 0x40 MLOAD PUSH1 0x20 DUP2 DUP4 SUB SUB DUP2 MSTORE SWAP1 PUSH1 0x40 MSTORE DUP1 MLOAD SWAP1 PUSH1 0x20 ADD KECCAK256 DUP5 DUP3 DUP2 SLOAD DUP2 LT PUSH2 0x14D2 JUMPI PUSH2 0x14D2 PUSH2 0x26B6 JUMP JUMPDEST SWAP1 PUSH1 0x0 MSTORE PUSH1 0x20 PUSH1 0x0 KECCAK256 ADD PUSH1 0x40 MLOAD PUSH1 0x20 ADD PUSH2 0x14EC SWAP2 SWAP1 PUSH2 0x2701 JUMP JUMPDEST PUSH1 0x40 MLOAD PUSH1 0x20 DUP2 DUP4 SUB SUB DUP2 MSTORE SWAP1 PUSH1 0x40 MSTORE DUP1 MLOAD SWAP1 PUSH1 0x20 ADD KECCAK256 SUB PUSH2 0x1510 JUMPI PUSH1 0x1 SWAP2 POP PUSH2 0x1522 JUMP JUMPDEST DUP1 PUSH2 0x151A DUP2 PUSH2 0x26CC JUMP JUMPDEST SWAP2 POP POP PUSH2 0x1477 JUMP JUMPDEST POP DUP1 ISZERO PUSH2 0x1597 JUMPI PUSH1 0x40 MLOAD PUSH3 0x461BCD PUSH1 0xE5 SHL DUP2 MSTORE PUSH1 0x20 PUSH1 0x4 DUP3 ADD MSTORE PUSH1 0x28 PUSH1 0x24 DUP3 ADD MSTORE PUSH32 0x43494420616C72656164792061737369676E656420746F20746869732062656E PUSH1 0x44 DUP3 ADD MSTORE PUSH32 0x6566696369617279000000000000000000000000000000000000000000000000 PUSH1 0x64 DUP3 ADD MSTORE PUSH1 0x84 ADD PUSH2 0x4F0 JUMP JUMPDEST DUP3 DUP5 DUP4 DUP2 MLOAD DUP2 LT PUSH2 0x15AA JUMPI PUSH2 0x15AA PUSH2 0x26B6 JUMP JUMPDEST PUSH1 0x20 SWAP1 DUP2 MUL SWAP2 SWAP1 SWAP2 ADD DUP2 ADD MLOAD DUP3 SLOAD PUSH1 0x1 DUP2 ADD DUP5 SSTORE PUSH1 0x0 SWAP4 DUP5 MSTORE SWAP2 SWAP1 SWAP3 KECCAK256 ADD SWAP1 PUSH2 0x15D3 SWAP1 DUP3 PUSH2 0x25F6 JUMP JUMPDEST POP DUP5 PUSH1 0x1 PUSH1 0x1 PUSH1 0xA0 SHL SUB AND CALLER PUSH1 0x1 PUSH1 0x1 PUSH1 0xA0 SHL SUB AND PUSH32 0xA1BB52B874769D5C17CDE30E708E8F7180BB949F70E77CAF0DA68D25F9A1A510 DUP7 DUP6 DUP2 MLOAD DUP2 LT PUSH2 0x161B JUMPI PUSH2 0x161B PUSH2 0x26B6 JUMP JUMPDEST PUSH1 0x20 MUL PUSH1 0x20 ADD ADD MLOAD PUSH1 0x40 MLOAD PUSH2 0x1630 SWAP2 SWAP1 PUSH2 0x22DC JUMP JUMPDEST PUSH1 0x40 MLOAD DUP1 SWAP2 SUB SWAP1 LOG3 POP DUP1 PUSH2 0x1643 DUP2 PUSH2 0x26CC JUMP JUMPDEST SWAP2 POP POP PUSH2 0x146A JUMP JUMPDEST POP POP POP POP JUMP JUMPDEST PUSH1 0x60 PUSH2 0x165D DUP4 DUP4 PUSH2 0x51C JUMP JUMPDEST PUSH2 0x16A1 JUMPI PUSH1 0x40 MLOAD PUSH3 0x461BCD PUSH1 0xE5 SHL DUP2 MSTORE PUSH1 0x20 PUSH1 0x4 DUP3 ADD MSTORE PUSH1 0x15 PUSH1 0x24 DUP3 ADD MSTORE PUSH21 0x10995B99599A58DA585C9E481B9BDD08199BDD5B99 PUSH1 0x5A SHL PUSH1 0x44 DUP3 ADD MSTORE PUSH1 0x64 ADD PUSH2 0x4F0 JUMP JUMPDEST PUSH1 0x1 PUSH1 0x1 PUSH1 0xA0 SHL SUB DUP4 AND PUSH1 0x0 SWAP1 DUP2 MSTORE PUSH1 0x20 DUP2 DUP2 MSTORE PUSH1 0x40 DUP1 DUP4 KECCAK256 CALLER DUP5 MSTORE PUSH1 0x1 ADD SWAP1 SWAP2 MSTORE SWAP1 KECCAK256 SLOAD PUSH1 0xFF AND DUP1 ISZERO PUSH2 0x16F6 JUMPI POP PUSH1 0x1 PUSH1 0x1 PUSH1 0xA0 SHL SUB DUP4 AND PUSH1 0x0 SWAP1 DUP2 MSTORE PUSH1 0x20 DUP2 SWAP1 MSTORE PUSH1 0x40 SWAP1 KECCAK256 PUSH1 0x4 ADD SLOAD PUSH2 0x100 SWAP1 DIV PUSH1 0xFF AND ISZERO JUMPDEST PUSH2 0x1742 JUMPI PUSH1 0x40 MLOAD PUSH3 0x461BCD PUSH1 0xE5 SHL DUP2 MSTORE PUSH1 0x20 PUSH1 0x4 DUP3 ADD MSTORE PUSH1 0x11 PUSH1 0x24 DUP3 ADD MSTORE PUSH32 0x4E6F2061636365737320746F2043494473000000000000000000000000000000 PUSH1 0x44 DUP3 ADD MSTORE PUSH1 0x64 ADD PUSH2 0x4F0 JUMP JUMPDEST PUSH1 0x1 PUSH1 0x1 PUSH1 0xA0 SHL SUB DUP1 DUP5 AND PUSH1 0x0 SWAP1 DUP2 MSTORE PUSH1 0x20 DUP2 DUP2 MSTORE PUSH1 0x40 DUP1 DUP4 KECCAK256 SWAP4 DUP7 AND DUP4 MSTORE PUSH1 0x1 SWAP4 DUP5 ADD DUP3 MSTORE DUP1 DUP4 KECCAK256 SWAP1 SWAP4 ADD DUP1 SLOAD DUP5 MLOAD DUP2 DUP5 MUL DUP2 ADD DUP5 ADD SWAP1 SWAP6 MSTORE DUP1 DUP6 MSTORE SWAP1 SWAP3 SWAP1 SWAP2 DUP5 ADD JUMPDEST DUP3 DUP3 LT ISZERO PUSH2 0x1832 JUMPI DUP4 DUP3 SWAP1 PUSH1 0x0 MSTORE PUSH1 0x20 PUSH1 0x0 KECCAK256 ADD DUP1 SLOAD PUSH2 0x17A5 SWAP1 PUSH2 0x256E JUMP JUMPDEST DUP1 PUSH1 0x1F ADD PUSH1 0x20 DUP1 SWAP2 DIV MUL PUSH1 0x20 ADD PUSH1 0x40 MLOAD SWAP1 DUP2 ADD PUSH1 0x40 MSTORE DUP1 SWAP3 SWAP2 SWAP1 DUP2 DUP2 MSTORE PUSH1 0x20 ADD DUP3 DUP1 SLOAD PUSH2 0x17D1 SWAP1 PUSH2 0x256E JUMP JUMPDEST DUP1 ISZERO PUSH2 0x181E JUMPI DUP1 PUSH1 0x1F LT PUSH2 0x17F3 JUMPI PUSH2 0x100 DUP1 DUP4 SLOAD DIV MUL DUP4 MSTORE SWAP2 PUSH1 0x20 ADD SWAP2 PUSH2 0x181E JUMP JUMPDEST DUP3 ADD SWAP2 SWAP1 PUSH1 0x0 MSTORE PUSH1 0x20 PUSH1 0x0 KECCAK256 SWAP1 JUMPDEST DUP2 SLOAD DUP2 MSTORE SWAP1 PUSH1 0x1 ADD SWAP1 PUSH1 0x20 ADD DUP1 DUP4 GT PUSH2 0x1801 JUMPI DUP3 SWAP1 SUB PUSH1 0x1F AND DUP3 ADD SWAP2 JUMPDEST POP POP POP POP POP DUP2 MSTORE PUSH1 0x20 ADD SWAP1 PUSH1 0x1 ADD SWAP1 PUSH2 0x1786 JUMP JUMPDEST POP POP POP POP SWAP1 POP SWAP3 SWAP2 POP POP JUMP JUMPDEST PUSH1 0x1 PUSH1 0x1 PUSH1 0xA0 SHL SUB DUP2 AND PUSH1 0x0 SWAP1 DUP2 MSTORE PUSH1 0x20 DUP2 SWAP1 MSTORE PUSH1 0x40 DUP2 KECCAK256 SLOAD PUSH1 0x60 SWAP1 DUP3 SWAP1 DUP2 SWAP1 DUP4 SWAP1 DUP2 SWAP1 PUSH1 0xFF AND PUSH2 0x18B1 JUMPI PUSH1 0x40 MLOAD PUSH3 0x461BCD PUSH1 0xE5 SHL DUP2 MSTORE PUSH1 0x20 PUSH1 0x4 DUP3 ADD MSTORE PUSH1 0x19 PUSH1 0x24 DUP3 ADD MSTORE PUSH32 0x42656E65666163746F7220646F6573206E6F7420657869737400000000000000 PUSH1 0x44 DUP3 ADD MSTORE PUSH1 0x64 ADD PUSH2 0x4F0 JUMP JUMPDEST PUSH1 0x1 PUSH1 0x1 PUSH1 0xA0 SHL SUB DUP8 AND PUSH1 0x0 SWAP1 DUP2 MSTORE PUSH1 0x20 DUP2 DUP2 MSTORE PUSH1 0x40 DUP1 DUP4 KECCAK256 PUSH1 0x4 ADD SLOAD PUSH1 0x1 SWAP1 SWAP3 MSTORE SWAP1 SWAP2 KECCAK256 SLOAD PUSH1 0xFF SWAP1 SWAP2 AND ISZERO SWAP7 POP PUSH8 0xFFFFFFFFFFFFFFFF DUP2 GT ISZERO PUSH2 0x18F7 JUMPI PUSH2 0x18F7 PUSH2 0x2102 JUMP JUMPDEST PUSH1 0x40 MLOAD SWAP1 DUP1 DUP3 MSTORE DUP1 PUSH1 0x20 MUL PUSH1 0x20 ADD DUP3 ADD PUSH1 0x40 MSTORE DUP1 ISZERO PUSH2 0x1920 JUMPI DUP2 PUSH1 0x20 ADD PUSH1 0x20 DUP3 MUL DUP1 CALLDATASIZE DUP4 CALLDATACOPY ADD SWAP1 POP JUMPDEST POP SWAP5 POP PUSH1 0x0 PUSH2 0x192E DUP9 PUSH2 0x1ECD JUMP JUMPDEST SWAP1 POP DUP1 PUSH8 0xFFFFFFFFFFFFFFFF DUP2 GT ISZERO PUSH2 0x1949 JUMPI PUSH2 0x1949 PUSH2 0x2102 JUMP JUMPDEST PUSH1 0x40 MLOAD SWAP1 DUP1 DUP3 MSTORE DUP1 PUSH1 0x20 MUL PUSH1 0x20 ADD DUP3 ADD PUSH1 0x40 MSTORE DUP1 ISZERO PUSH2 0x197C JUMPI DUP2 PUSH1 0x20 ADD JUMPDEST PUSH1 0x60 DUP2 MSTORE PUSH1 0x20 ADD SWAP1 PUSH1 0x1 SWAP1 SUB SWAP1 DUP2 PUSH2 0x1967 JUMPI SWAP1 POP JUMPDEST POP SWAP2 POP PUSH1 0x0 DUP1 PUSH2 0x19A1 DUP11 PUSH1 0x1 PUSH1 0x1 PUSH1 0xA0 SHL SUB AND PUSH1 0x0 SWAP1 DUP2 MSTORE PUSH1 0x1 PUSH1 0x20 MSTORE PUSH1 0x40 SWAP1 KECCAK256 SLOAD SWAP1 JUMP JUMPDEST SWAP1 POP PUSH1 0x0 JUMPDEST DUP2 DUP2 LT ISZERO PUSH2 0x1B8D JUMPI PUSH1 0x1 PUSH1 0x1 PUSH1 0xA0 SHL SUB DUP12 AND PUSH1 0x0 SWAP1 DUP2 MSTORE PUSH1 0x1 PUSH1 0x20 MSTORE PUSH1 0x40 DUP2 KECCAK256 DUP1 SLOAD DUP4 SWAP1 DUP2 LT PUSH2 0x19D8 JUMPI PUSH2 0x19D8 PUSH2 0x26B6 JUMP JUMPDEST PUSH1 0x0 SWAP2 DUP3 MSTORE PUSH1 0x20 DUP1 DUP4 KECCAK256 SWAP1 SWAP2 ADD SLOAD PUSH1 0x1 PUSH1 0x1 PUSH1 0xA0 SHL SUB DUP16 DUP2 AND DUP5 MSTORE DUP4 DUP4 MSTORE PUSH1 0x40 DUP1 DUP6 KECCAK256 SWAP2 SWAP1 SWAP3 AND DUP1 DUP6 MSTORE PUSH1 0x1 SWAP2 SWAP1 SWAP2 ADD SWAP1 SWAP3 MSTORE SWAP1 SWAP2 KECCAK256 SLOAD SWAP1 SWAP2 POP PUSH1 0xFF AND ISZERO PUSH2 0x1B7A JUMPI PUSH1 0x1 PUSH1 0x1 PUSH1 0xA0 SHL SUB DUP1 DUP14 AND PUSH1 0x0 SWAP1 DUP2 MSTORE PUSH1 0x20 DUP2 DUP2 MSTORE PUSH1 0x40 DUP1 DUP4 KECCAK256 SWAP4 DUP6 AND DUP4 MSTORE PUSH1 0x1 SWAP4 DUP5 ADD DUP3 MSTORE DUP1 DUP4 KECCAK256 SWAP1 SWAP4 ADD DUP1 SLOAD DUP5 MLOAD DUP2 DUP5 MUL DUP2 ADD DUP5 ADD SWAP1 SWAP6 MSTORE DUP1 DUP6 MSTORE SWAP3 SWAP4 SWAP3 SWAP1 SWAP2 DUP5 SWAP1 DUP5 ADD JUMPDEST DUP3 DUP3 LT ISZERO PUSH2 0x1B0D JUMPI DUP4 DUP3 SWAP1 PUSH1 0x0 MSTORE PUSH1 0x20 PUSH1 0x0 KECCAK256 ADD DUP1 SLOAD PUSH2 0x1A80 SWAP1 PUSH2 0x256E JUMP JUMPDEST DUP1 PUSH1 0x1F ADD PUSH1 0x20 DUP1 SWAP2 DIV MUL PUSH1 0x20 ADD PUSH1 0x40 MLOAD SWAP1 DUP2 ADD PUSH1 0x40 MSTORE DUP1 SWAP3 SWAP2 SWAP1 DUP2 DUP2 MSTORE PUSH1 0x20 ADD DUP3 DUP1 SLOAD PUSH2 0x1AAC SWAP1 PUSH2 0x256E JUMP JUMPDEST DUP1 ISZERO PUSH2 0x1AF9 JUMPI DUP1 PUSH1 0x1F LT PUSH2 0x1ACE JUMPI PUSH2 0x100 DUP1 DUP4 SLOAD DIV MUL DUP4 MSTORE SWAP2 PUSH1 0x20 ADD SWAP2 PUSH2 0x1AF9 JUMP JUMPDEST DUP3 ADD SWAP2 SWAP1 PUSH1 0x0 MSTORE PUSH1 0x20 PUSH1 0x0 KECCAK256 SWAP1 JUMPDEST DUP2 SLOAD DUP2 MSTORE SWAP1 PUSH1 0x1 ADD SWAP1 PUSH1 0x20 ADD DUP1 DUP4 GT PUSH2 0x1ADC JUMPI DUP3 SWAP1 SUB PUSH1 0x1F AND DUP3 ADD SWAP2 JUMPDEST POP POP POP POP POP DUP2 MSTORE PUSH1 0x20 ADD SWAP1 PUSH1 0x1 ADD SWAP1 PUSH2 0x1A61 JUMP JUMPDEST POP POP POP POP SWAP1 POP PUSH1 0x0 JUMPDEST DUP2 MLOAD DUP2 LT ISZERO PUSH2 0x1B77 JUMPI DUP2 DUP2 DUP2 MLOAD DUP2 LT PUSH2 0x1B31 JUMPI PUSH2 0x1B31 PUSH2 0x26B6 JUMP JUMPDEST PUSH1 0x20 MUL PUSH1 0x20 ADD ADD MLOAD DUP9 DUP8 DUP2 MLOAD DUP2 LT PUSH2 0x1B4B JUMPI PUSH2 0x1B4B PUSH2 0x26B6 JUMP JUMPDEST PUSH1 0x20 MUL PUSH1 0x20 ADD ADD DUP2 SWAP1 MSTORE POP DUP6 DUP1 PUSH2 0x1B61 SWAP1 PUSH2 0x26CC JUMP JUMPDEST SWAP7 POP POP DUP1 DUP1 PUSH2 0x1B6F SWAP1 PUSH2 0x26CC JUMP JUMPDEST SWAP2 POP POP PUSH2 0x1B16 JUMP JUMPDEST POP POP JUMPDEST POP DUP1 PUSH2 0x1B85 DUP2 PUSH2 0x26CC JUMP JUMPDEST SWAP2 POP POP PUSH2 0x19A6 JUMP JUMPDEST POP PUSH1 0x1 PUSH1 0x1 PUSH1 0xA0 SHL SUB DUP11 AND PUSH1 0x0 SWAP1 DUP2 MSTORE PUSH1 0x20 DUP2 SWAP1 MSTORE PUSH1 0x40 SWAP1 KECCAK256 PUSH1 0x4 ADD SLOAD PUSH1 0xFF AND ISZERO PUSH2 0x1BBB JUMPI PUSH1 0x0 SWAP7 POP PUSH2 0x1BC7 JUMP JUMPDEST PUSH2 0x1BC4 DUP11 PUSH2 0x30A JUMP JUMPDEST SWAP7 POP JUMPDEST PUSH1 0x1 PUSH1 0x1 PUSH1 0xA0 SHL SUB DUP11 AND PUSH1 0x0 SWAP1 DUP2 MSTORE PUSH1 0x20 DUP2 SWAP1 MSTORE PUSH1 0x40 SWAP1 KECCAK256 PUSH1 0x4 DUP2 ADD SLOAD PUSH1 0x5 SWAP1 SWAP2 ADD DUP1 SLOAD PUSH2 0x100 SWAP1 SWAP3 DIV PUSH1 0xFF AND SWAP8 POP SWAP1 PUSH2 0x1C00 SWAP1 PUSH2 0x256E JUMP JUMPDEST DUP1 PUSH1 0x1F ADD PUSH1 0x20 DUP1 SWAP2 DIV MUL PUSH1 0x20 ADD PUSH1 0x40 MLOAD SWAP1 DUP2 ADD PUSH1 0x40 MSTORE DUP1 SWAP3 SWAP2 SWAP1 DUP2 DUP2 MSTORE PUSH1 0x20 ADD DUP3 DUP1 SLOAD PUSH2 0x1C2C SWAP1 PUSH2 0x256E JUMP JUMPDEST DUP1 ISZERO PUSH2 0x1C79 JUMPI DUP1 PUSH1 0x1F LT PUSH2 0x1C4E JUMPI PUSH2 0x100 DUP1 DUP4 SLOAD DIV MUL DUP4 MSTORE SWAP2 PUSH1 0x20 ADD SWAP2 PUSH2 0x1C79 JUMP JUMPDEST DUP3 ADD SWAP2 SWAP1 PUSH1 0x0 MSTORE PUSH1 0x20 PUSH1 0x0 KECCAK256 SWAP1 JUMPDEST DUP2 SLOAD DUP2 MSTORE SWAP1 PUSH1 0x1 ADD SWAP1 PUSH1 0x20 ADD DUP1 DUP4 GT PUSH2 0x1C5C JUMPI DUP3 SWAP1 SUB PUSH1 0x1F AND DUP3 ADD SWAP2 JUMPDEST POP POP POP POP POP SWAP5 POP PUSH32 0x4BC4F0D667F981D69E9500F47D56B517891311C1B6816BB75E9F46B3F680692C DUP10 DUP10 DUP10 DUP10 DUP10 DUP10 PUSH1 0x40 MLOAD PUSH2 0x1CB9 SWAP7 SWAP6 SWAP5 SWAP4 SWAP3 SWAP2 SWAP1 PUSH2 0x24AE JUMP JUMPDEST PUSH1 0x40 MLOAD DUP1 SWAP2 SUB SWAP1 LOG1 POP POP POP SWAP2 SWAP4 SWAP6 POP SWAP2 SWAP4 SWAP6 JUMP JUMPDEST PUSH1 0x60 PUSH2 0x1CD9 DUP4 DUP4 PUSH2 0x51C JUMP JUMPDEST ISZERO PUSH2 0x1D98 JUMPI PUSH1 0x1 PUSH1 0x1 PUSH1 0xA0 SHL SUB DUP1 DUP5 AND PUSH1 0x0 SWAP1 DUP2 MSTORE PUSH1 0x20 DUP2 DUP2 MSTORE PUSH1 0x40 DUP1 DUP4 KECCAK256 SWAP4 DUP7 AND DUP4 MSTORE PUSH1 0x1 SWAP1 SWAP4 ADD SWAP1 MSTORE KECCAK256 PUSH1 0x2 ADD DUP1 SLOAD PUSH2 0x1D13 SWAP1 PUSH2 0x256E JUMP JUMPDEST DUP1 PUSH1 0x1F ADD PUSH1 0x20 DUP1 SWAP2 DIV MUL PUSH1 0x20 ADD PUSH1 0x40 MLOAD SWAP1 DUP2 ADD PUSH1 0x40 MSTORE DUP1 SWAP3 SWAP2 SWAP1 DUP2 DUP2 MSTORE PUSH1 0x20 ADD DUP3 DUP1 SLOAD PUSH2 0x1D3F SWAP1 PUSH2 0x256E JUMP JUMPDEST DUP1 ISZERO PUSH2 0x1D8C JUMPI DUP1 PUSH1 0x1F LT PUSH2 0x1D61 JUMPI PUSH2 0x100 DUP1 DUP4 SLOAD DIV MUL DUP4 MSTORE SWAP2 PUSH1 0x20 ADD SWAP2 PUSH2 0x1D8C JUMP JUMPDEST DUP3 ADD SWAP2 SWAP1 PUSH1 0x0 MSTORE PUSH1 0x20 PUSH1 0x0 KECCAK256 SWAP1 JUMPDEST DUP2 SLOAD DUP2 MSTORE SWAP1 PUSH1 0x1 ADD SWAP1 PUSH1 0x20 ADD DUP1 DUP4 GT PUSH2 0x1D6F JUMPI DUP3 SWAP1 SUB PUSH1 0x1F AND DUP3 ADD SWAP2 JUMPDEST POP POP POP POP POP SWAP1 POP PUSH2 0x548 JUMP JUMPDEST POP PUSH1 0x40 DUP1 MLOAD PUSH1 0x20 DUP2 ADD SWAP1 SWAP2 MSTORE PUSH1 0x0 DUP2 MSTORE PUSH2 0x548 JUMP JUMPDEST CALLER PUSH1 0x0 SWAP1 DUP2 MSTORE PUSH1 0x20 DUP2 SWAP1 MSTORE PUSH1 0x40 SWAP1 KECCAK256 SLOAD PUSH1 0xFF AND DUP1 ISZERO PUSH2 0x1DE3 JUMPI POP CALLER PUSH1 0x0 SWAP1 DUP2 MSTORE PUSH1 0x20 DUP2 SWAP1 MSTORE PUSH1 0x40 SWAP1 KECCAK256 PUSH1 0x4 ADD SLOAD PUSH2 0x100 SWAP1 DIV PUSH1 0xFF AND JUMPDEST PUSH2 0x1E28 JUMPI PUSH1 0x40 MLOAD PUSH3 0x461BCD PUSH1 0xE5 SHL DUP2 MSTORE PUSH1 0x20 PUSH1 0x4 DUP3 ADD MSTORE PUSH1 0x16 PUSH1 0x24 DUP3 ADD MSTORE PUSH22 0x2737BA1030903B30B634B2103132B732B330B1BA37B9 PUSH1 0x51 SHL PUSH1 0x44 DUP3 ADD MSTORE PUSH1 0x64 ADD PUSH2 0x4F0 JUMP JUMPDEST CALLER PUSH1 0x0 SWAP1 DUP2 MSTORE PUSH1 0x20 DUP2 SWAP1 MSTORE PUSH1 0x40 SWAP1 KECCAK256 PUSH1 0x4 ADD SLOAD PUSH1 0xFF AND ISZERO PUSH2 0x1E72 JUMPI PUSH1 0x40 MLOAD CALLER SWAP1 DUP2 SWAP1 PUSH32 0x439C5AAF7691CB4808DBD2A240323CE9EC0D04D66DDF65FFD5F88EBD60FA745B SWAP1 PUSH1 0x0 SWAP1 LOG3 JUMP JUMPDEST CALLER PUSH1 0x0 DUP2 DUP2 MSTORE PUSH1 0x20 DUP2 SWAP1 MSTORE PUSH1 0x40 SWAP1 DUP2 SWAP1 KECCAK256 PUSH1 0x4 ADD DUP1 SLOAD PUSH1 0xFF NOT AND PUSH1 0x1 OR SWAP1 SSTORE MLOAD DUP2 SWAP1 PUSH32 0x9BAA855D20DE9B1A4DB454F55B09D1DB5F42F0871BBEA3B0C699146ADE171625 SWAP1 PUSH2 0x1EC3 SWAP1 TIMESTAMP DUP2 MSTORE PUSH1 0x20 ADD SWAP1 JUMP JUMPDEST PUSH1 0x40 MLOAD DUP1 SWAP2 SUB SWAP1 LOG3 JUMP JUMPDEST PUSH1 0x0 DUP1 DUP1 PUSH2 0x1EF0 DUP5 PUSH1 0x1 PUSH1 0x1 PUSH1 0xA0 SHL SUB AND PUSH1 0x0 SWAP1 DUP2 MSTORE PUSH1 0x1 PUSH1 0x20 MSTORE PUSH1 0x40 SWAP1 KECCAK256 SLOAD SWAP1 JUMP JUMPDEST SWAP1 POP PUSH1 0x0 JUMPDEST DUP2 DUP2 LT ISZERO PUSH2 0x1FB4 JUMPI PUSH1 0x1 PUSH1 0x1 PUSH1 0xA0 SHL SUB DUP6 AND PUSH1 0x0 SWAP1 DUP2 MSTORE PUSH1 0x1 PUSH1 0x20 MSTORE PUSH1 0x40 DUP2 KECCAK256 DUP1 SLOAD DUP4 SWAP1 DUP2 LT PUSH2 0x1F27 JUMPI PUSH2 0x1F27 PUSH2 0x26B6 JUMP JUMPDEST PUSH1 0x0 SWAP2 DUP3 MSTORE PUSH1 0x20 DUP1 DUP4 KECCAK256 SWAP1 SWAP2 ADD SLOAD PUSH1 0x1 PUSH1 0x1 PUSH1 0xA0 SHL SUB DUP10 DUP2 AND DUP5 MSTORE DUP4 DUP4 MSTORE PUSH1 0x40 DUP1 DUP6 KECCAK256 SWAP2 SWAP1 SWAP3 AND DUP1 DUP6 MSTORE PUSH1 0x1 SWAP2 SWAP1 SWAP2 ADD SWAP1 SWAP3 MSTORE SWAP1 SWAP2 KECCAK256 SLOAD SWAP1 SWAP2 POP PUSH1 0xFF AND ISZERO PUSH2 0x1FA1 JUMPI PUSH1 0x1 PUSH1 0x1 PUSH1 0xA0 SHL SUB DUP1 DUP8 AND PUSH1 0x0 SWAP1 DUP2 MSTORE PUSH1 0x20 DUP2 DUP2 MSTORE PUSH1 0x40 DUP1 DUP4 KECCAK256 SWAP4 DUP6 AND DUP4 MSTORE PUSH1 0x1 SWAP4 DUP5 ADD SWAP1 SWAP2 MSTORE SWAP1 KECCAK256 ADD SLOAD PUSH2 0x1F9E SWAP1 DUP6 PUSH2 0x2868 JUMP JUMPDEST SWAP4 POP JUMPDEST POP DUP1 PUSH2 0x1FAC DUP2 PUSH2 0x26CC JUMP JUMPDEST SWAP2 POP POP PUSH2 0x1EF5 JUMP JUMPDEST POP SWAP1 SWAP4 SWAP3 POP POP POP JUMP JUMPDEST DUP3 DUP1 SLOAD DUP3 DUP3 SSTORE SWAP1 PUSH1 0x0 MSTORE PUSH1 0x20 PUSH1 0x0 KECCAK256 SWAP1 DUP2 ADD SWAP3 DUP3 ISZERO PUSH2 0x2003 JUMPI SWAP2 PUSH1 0x20 MUL DUP3 ADD JUMPDEST DUP3 DUP2 GT ISZERO PUSH2 0x2003 JUMPI DUP3 MLOAD DUP3 SWAP1 PUSH2 0x1FF3 SWAP1 DUP3 PUSH2 0x25F6 JUMP JUMPDEST POP SWAP2 PUSH1 0x20 ADD SWAP2 SWAP1 PUSH1 0x1 ADD SWAP1 PUSH2 0x1FDD JUMP JUMPDEST POP PUSH2 0x200F SWAP3 SWAP2 POP PUSH2 0x206B JUMP JUMPDEST POP SWAP1 JUMP JUMPDEST POP DUP1 SLOAD PUSH1 0x0 DUP3 SSTORE SWAP1 PUSH1 0x0 MSTORE PUSH1 0x20 PUSH1 0x0 KECCAK256 SWAP1 DUP2 ADD SWAP1 PUSH2 0x5AD SWAP2 SWAP1 PUSH2 0x206B JUMP JUMPDEST POP DUP1 SLOAD PUSH2 0x203D SWAP1 PUSH2 0x256E JUMP JUMPDEST PUSH1 0x0 DUP3 SSTORE DUP1 PUSH1 0x1F LT PUSH2 0x204D JUMPI POP POP JUMP JUMPDEST PUSH1 0x1F ADD PUSH1 0x20 SWAP1 DIV SWAP1 PUSH1 0x0 MSTORE PUSH1 0x20 PUSH1 0x0 KECCAK256 SWAP1 DUP2 ADD SWAP1 PUSH2 0x5AD SWAP2 SWAP1 PUSH2 0x2088 JUMP JUMPDEST DUP1 DUP3 GT ISZERO PUSH2 0x200F JUMPI PUSH1 0x0 PUSH2 0x207F DUP3 DUP3 PUSH2 0x2031 JUMP JUMPDEST POP PUSH1 0x1 ADD PUSH2 0x206B JUMP JUMPDEST JUMPDEST DUP1 DUP3 GT ISZERO PUSH2 0x200F JUMPI PUSH1 0x0 DUP2 SSTORE PUSH1 0x1 ADD PUSH2 0x2089 JUMP JUMPDEST DUP1 CALLDATALOAD PUSH1 0x1 PUSH1 0x1 PUSH1 0xA0 SHL SUB DUP2 AND DUP2 EQ PUSH2 0xAB2 JUMPI PUSH1 0x0 DUP1 REVERT JUMPDEST PUSH1 0x0 PUSH1 0x20 DUP3 DUP5 SUB SLT ISZERO PUSH2 0x20C6 JUMPI PUSH1 0x0 DUP1 REVERT JUMPDEST PUSH2 0x3F1 DUP3 PUSH2 0x209D JUMP JUMPDEST PUSH1 0x0 DUP1 PUSH1 0x40 DUP4 DUP6 SUB SLT ISZERO PUSH2 0x20E2 JUMPI PUSH1 0x0 DUP1 REVERT JUMPDEST PUSH2 0x20EB DUP4 PUSH2 0x209D JUMP JUMPDEST SWAP2 POP PUSH2 0x20F9 PUSH1 0x20 DUP5 ADD PUSH2 0x209D JUMP JUMPDEST SWAP1 POP SWAP3 POP SWAP3 SWAP1 POP JUMP JUMPDEST PUSH4 0x4E487B71 PUSH1 0xE0 SHL PUSH1 0x0 MSTORE PUSH1 0x41 PUSH1 0x4 MSTORE PUSH1 0x24 PUSH1 0x0 REVERT JUMPDEST PUSH1 0x40 MLOAD PUSH1 0x1F DUP3 ADD PUSH1 0x1F NOT AND DUP2 ADD PUSH8 0xFFFFFFFFFFFFFFFF DUP2 GT DUP3 DUP3 LT OR ISZERO PUSH2 0x2141 JUMPI PUSH2 0x2141 PUSH2 0x2102 JUMP JUMPDEST PUSH1 0x40 MSTORE SWAP2 SWAP1 POP JUMP JUMPDEST PUSH1 0x0 DUP3 PUSH1 0x1F DUP4 ADD SLT PUSH2 0x215A JUMPI PUSH1 0x0 DUP1 REVERT JUMPDEST DUP2 CALLDATALOAD PUSH8 0xFFFFFFFFFFFFFFFF DUP2 GT ISZERO PUSH2 0x2174 JUMPI PUSH2 0x2174 PUSH2 0x2102 JUMP JUMPDEST PUSH2 0x2187 PUSH1 0x1F DUP3 ADD PUSH1 0x1F NOT AND PUSH1 0x20 ADD PUSH2 0x2118 JUMP JUMPDEST DUP2 DUP2 MSTORE DUP5 PUSH1 0x20 DUP4 DUP7 ADD ADD GT ISZERO PUSH2 0x219C JUMPI PUSH1 0x0 DUP1 REVERT JUMPDEST DUP2 PUSH1 0x20 DUP6 ADD PUSH1 0x20 DUP4 ADD CALLDATACOPY PUSH1 0x0 SWAP2 DUP2 ADD PUSH1 0x20 ADD SWAP2 SWAP1 SWAP2 MSTORE SWAP4 SWAP3 POP POP POP JUMP JUMPDEST PUSH1 0x0 DUP1 PUSH1 0x0 PUSH1 0x60 DUP5 DUP7 SUB SLT ISZERO PUSH2 0x21CE JUMPI PUSH1 0x0 DUP1 REVERT JUMPDEST PUSH2 0x21D7 DUP5 PUSH2 0x209D JUMP JUMPDEST SWAP3 POP PUSH2 0x21E5 PUSH1 0x20 DUP6 ADD PUSH2 0x209D JUMP JUMPDEST SWAP2 POP PUSH1 0x40 DUP5 ADD CALLDATALOAD PUSH8 0xFFFFFFFFFFFFFFFF DUP2 GT ISZERO PUSH2 0x2201 JUMPI PUSH1 0x0 DUP1 REVERT JUMPDEST PUSH2 0x220D DUP7 DUP3 DUP8 ADD PUSH2 0x2149 JUMP JUMPDEST SWAP2 POP POP SWAP3 POP SWAP3 POP SWAP3 JUMP JUMPDEST PUSH1 0x0 DUP1 PUSH1 0x20 DUP4 DUP6 SUB SLT ISZERO PUSH2 0x222A JUMPI PUSH1 0x0 DUP1 REVERT JUMPDEST DUP3 CALLDATALOAD PUSH8 0xFFFFFFFFFFFFFFFF DUP1 DUP3 GT ISZERO PUSH2 0x2242 JUMPI PUSH1 0x0 DUP1 REVERT JUMPDEST DUP2 DUP6 ADD SWAP2 POP DUP6 PUSH1 0x1F DUP4 ADD SLT PUSH2 0x2256 JUMPI PUSH1 0x0 DUP1 REVERT JUMPDEST DUP2 CALLDATALOAD DUP2 DUP2 GT ISZERO PUSH2 0x2265 JUMPI PUSH1 0x0 DUP1 REVERT JUMPDEST DUP7 PUSH1 0x20 DUP3 PUSH1 0x5 SHL DUP6 ADD ADD GT ISZERO PUSH2 0x227A JUMPI PUSH1 0x0 DUP1 REVERT JUMPDEST PUSH1 0x20 SWAP3 SWAP1 SWAP3 ADD SWAP7 SWAP2 SWAP6 POP SWAP1 SWAP4 POP POP POP POP JUMP JUMPDEST PUSH1 0x0 JUMPDEST DUP4 DUP2 LT ISZERO PUSH2 0x22A7 JUMPI DUP2 DUP2 ADD MLOAD DUP4 DUP3 ADD MSTORE PUSH1 0x20 ADD PUSH2 0x228F JUMP JUMPDEST POP POP PUSH1 0x0 SWAP2 ADD MSTORE JUMP JUMPDEST PUSH1 0x0 DUP2 MLOAD DUP1 DUP5 MSTORE PUSH2 0x22C8 DUP2 PUSH1 0x20 DUP7 ADD PUSH1 0x20 DUP7 ADD PUSH2 0x228C JUMP JUMPDEST PUSH1 0x1F ADD PUSH1 0x1F NOT AND SWAP3 SWAP1 SWAP3 ADD PUSH1 0x20 ADD SWAP3 SWAP2 POP POP JUMP JUMPDEST PUSH1 0x20 DUP2 MSTORE PUSH1 0x0 PUSH2 0x3F1 PUSH1 0x20 DUP4 ADD DUP5 PUSH2 0x22B0 JUMP JUMPDEST PUSH1 0x0 DUP1 PUSH1 0x40 DUP4 DUP6 SUB SLT ISZERO PUSH2 0x2302 JUMPI PUSH1 0x0 DUP1 REVERT JUMPDEST PUSH2 0x230B DUP4 PUSH2 0x209D JUMP JUMPDEST SWAP2 POP PUSH1 0x20 DUP4 ADD CALLDATALOAD PUSH8 0xFFFFFFFFFFFFFFFF DUP2 GT ISZERO PUSH2 0x2327 JUMPI PUSH1 0x0 DUP1 REVERT JUMPDEST PUSH2 0x2333 DUP6 DUP3 DUP7 ADD PUSH2 0x2149 JUMP JUMPDEST SWAP2 POP POP SWAP3 POP SWAP3 SWAP1 POP JUMP JUMPDEST DUP5 ISZERO ISZERO DUP2 MSTORE DUP4 PUSH1 0x20 DUP3 ADD MSTORE DUP3 ISZERO ISZERO PUSH1 0x40 DUP3 ADD MSTORE PUSH1 0x80 PUSH1 0x60 DUP3 ADD MSTORE PUSH1 0x0 PUSH2 0x2366 PUSH1 0x80 DUP4 ADD DUP5 PUSH2 0x22B0 JUMP JUMPDEST SWAP7 SWAP6 POP POP POP POP POP POP JUMP JUMPDEST PUSH1 0x0 DUP1 PUSH1 0x40 DUP4 DUP6 SUB SLT ISZERO PUSH2 0x2383 JUMPI PUSH1 0x0 DUP1 REVERT JUMPDEST PUSH2 0x238C DUP4 PUSH2 0x209D JUMP JUMPDEST SWAP2 POP PUSH1 0x20 DUP1 DUP5 ADD CALLDATALOAD PUSH8 0xFFFFFFFFFFFFFFFF DUP1 DUP3 GT ISZERO PUSH2 0x23AA JUMPI PUSH1 0x0 DUP1 REVERT JUMPDEST DUP2 DUP7 ADD SWAP2 POP DUP7 PUSH1 0x1F DUP4 ADD SLT PUSH2 0x23BE JUMPI PUSH1 0x0 DUP1 REVERT JUMPDEST DUP2 CALLDATALOAD DUP2 DUP2 GT ISZERO PUSH2 0x23D0 JUMPI PUSH2 0x23D0 PUSH2 0x2102 JUMP JUMPDEST DUP1 PUSH1 0x5 SHL PUSH2 0x23DF DUP6 DUP3 ADD PUSH2 0x2118 JUMP JUMPDEST SWAP2 DUP3 MSTORE DUP4 DUP2 ADD DUP6 ADD SWAP2 DUP6 DUP2 ADD SWAP1 DUP11 DUP5 GT ISZERO PUSH2 0x23F9 JUMPI PUSH1 0x0 DUP1 REVERT JUMPDEST DUP7 DUP7 ADD SWAP3 POP JUMPDEST DUP4 DUP4 LT ISZERO PUSH2 0x2435 JUMPI DUP3 CALLDATALOAD DUP6 DUP2 GT ISZERO PUSH2 0x2417 JUMPI PUSH1 0x0 DUP1 DUP2 REVERT JUMPDEST PUSH2 0x2425 DUP13 DUP10 DUP4 DUP11 ADD ADD PUSH2 0x2149 JUMP JUMPDEST DUP4 MSTORE POP SWAP2 DUP7 ADD SWAP2 SWAP1 DUP7 ADD SWAP1 PUSH2 0x23FF JUMP JUMPDEST DUP1 SWAP8 POP POP POP POP POP POP POP POP SWAP3 POP SWAP3 SWAP1 POP JUMP JUMPDEST PUSH1 0x0 DUP2 MLOAD DUP1 DUP5 MSTORE PUSH1 0x20 DUP1 DUP6 ADD DUP1 DUP2 SWAP7 POP DUP4 PUSH1 0x5 SHL DUP2 ADD SWAP2 POP DUP3 DUP7 ADD PUSH1 0x0 JUMPDEST DUP6 DUP2 LT ISZERO PUSH2 0x248E JUMPI DUP3 DUP5 SUB DUP10 MSTORE PUSH2 0x247C DUP5 DUP4 MLOAD PUSH2 0x22B0 JUMP JUMPDEST SWAP9 DUP6 ADD SWAP9 SWAP4 POP SWAP1 DUP5 ADD SWAP1 PUSH1 0x1 ADD PUSH2 0x2464 JUMP JUMPDEST POP SWAP2 SWAP8 SWAP7 POP POP POP POP POP POP POP JUMP JUMPDEST PUSH1 0x20 DUP2 MSTORE PUSH1 0x0 PUSH2 0x3F1 PUSH1 0x20 DUP4 ADD DUP5 PUSH2 0x2446 JUMP JUMPDEST PUSH1 0x0 PUSH1 0xC0 DUP3 ADD DUP9 ISZERO ISZERO DUP4 MSTORE PUSH1 0x20 PUSH1 0xC0 DUP2 DUP6 ADD MSTORE DUP2 DUP10 MLOAD DUP1 DUP5 MSTORE PUSH1 0xE0 DUP7 ADD SWAP2 POP DUP3 DUP12 ADD SWAP4 POP PUSH1 0x0 JUMPDEST DUP2 DUP2 LT ISZERO PUSH2 0x24FA JUMPI DUP5 MLOAD PUSH1 0x1 PUSH1 0x1 PUSH1 0xA0 SHL SUB AND DUP4 MSTORE SWAP4 DUP4 ADD SWAP4 SWAP2 DUP4 ADD SWAP2 PUSH1 0x1 ADD PUSH2 0x24D5 JUMP JUMPDEST POP POP DUP9 PUSH1 0x40 DUP7 ADD MSTORE PUSH2 0x2510 PUSH1 0x60 DUP7 ADD DUP10 ISZERO ISZERO SWAP1 MSTORE JUMP JUMPDEST DUP5 DUP2 SUB PUSH1 0x80 DUP7 ADD MSTORE PUSH2 0x2522 DUP2 DUP9 PUSH2 0x22B0 JUMP JUMPDEST SWAP3 POP POP POP DUP3 DUP2 SUB PUSH1 0xA0 DUP5 ADD MSTORE PUSH2 0x2538 DUP2 DUP6 PUSH2 0x2446 JUMP JUMPDEST SWAP10 SWAP9 POP POP POP POP POP POP POP POP POP JUMP JUMPDEST PUSH4 0x4E487B71 PUSH1 0xE0 SHL PUSH1 0x0 MSTORE PUSH1 0x11 PUSH1 0x4 MSTORE PUSH1 0x24 PUSH1 0x0 REVERT JUMPDEST DUP2 DUP2 SUB DUP2 DUP2 GT ISZERO PUSH2 0x548 JUMPI PUSH2 0x548 PUSH2 0x2545 JUMP JUMPDEST PUSH1 0x1 DUP2 DUP2 SHR SWAP1 DUP3 AND DUP1 PUSH2 0x2582 JUMPI PUSH1 0x7F DUP3 AND SWAP2 POP JUMPDEST PUSH1 0x20 DUP3 LT DUP2 SUB PUSH2 0x25A2 JUMPI PUSH4 0x4E487B71 PUSH1 0xE0 SHL PUSH1 0x0 MSTORE PUSH1 0x22 PUSH1 0x4 MSTORE PUSH1 0x24 PUSH1 0x0 REVERT JUMPDEST POP SWAP2 SWAP1 POP JUMP JUMPDEST PUSH1 0x1F DUP3 GT ISZERO PUSH2 0x88F JUMPI PUSH1 0x0 DUP2 DUP2 MSTORE PUSH1 0x20 DUP2 KECCAK256 PUSH1 0x1F DUP6 ADD PUSH1 0x5 SHR DUP2 ADD PUSH1 0x20 DUP7 LT ISZERO PUSH2 0x25CF JUMPI POP DUP1 JUMPDEST PUSH1 0x1F DUP6 ADD PUSH1 0x5 SHR DUP3 ADD SWAP2 POP JUMPDEST DUP2 DUP2 LT ISZERO PUSH2 0x25EE JUMPI DUP3 DUP2 SSTORE PUSH1 0x1 ADD PUSH2 0x25DB JUMP JUMPDEST POP POP POP POP POP POP JUMP JUMPDEST DUP2 MLOAD PUSH8 0xFFFFFFFFFFFFFFFF DUP2 GT ISZERO PUSH2 0x2610 JUMPI PUSH2 0x2610 PUSH2 0x2102 JUMP JUMPDEST PUSH2 0x2624 DUP2 PUSH2 0x261E DUP5 SLOAD PUSH2 0x256E JUMP JUMPDEST DUP5 PUSH2 0x25A8 JUMP JUMPDEST PUSH1 0x20 DUP1 PUSH1 0x1F DUP4 GT PUSH1 0x1 DUP2 EQ PUSH2 0x2659 JUMPI PUSH1 0x0 DUP5 ISZERO PUSH2 0x2641 JUMPI POP DUP6 DUP4 ADD MLOAD JUMPDEST PUSH1 0x0 NOT PUSH1 0x3 DUP7 SWAP1 SHL SHR NOT AND PUSH1 0x1 DUP6 SWAP1 SHL OR DUP6 SSTORE PUSH2 0x25EE JUMP JUMPDEST PUSH1 0x0 DUP6 DUP2 MSTORE PUSH1 0x20 DUP2 KECCAK256 PUSH1 0x1F NOT DUP7 AND SWAP2 JUMPDEST DUP3 DUP2 LT ISZERO PUSH2 0x2688 JUMPI DUP9 DUP7 ADD MLOAD DUP3 SSTORE SWAP5 DUP5 ADD SWAP5 PUSH1 0x1 SWAP1 SWAP2 ADD SWAP1 DUP5 ADD PUSH2 0x2669 JUMP JUMPDEST POP DUP6 DUP3 LT ISZERO PUSH2 0x26A6 JUMPI DUP8 DUP6 ADD MLOAD PUSH1 0x0 NOT PUSH1 0x3 DUP9 SWAP1 SHL PUSH1 0xF8 AND SHR NOT AND DUP2 SSTORE JUMPDEST POP POP POP POP POP PUSH1 0x1 SWAP1 DUP2 SHL ADD SWAP1 SSTORE POP JUMP JUMPDEST PUSH4 0x4E487B71 PUSH1 0xE0 SHL PUSH1 0x0 MSTORE PUSH1 0x32 PUSH1 0x4 MSTORE PUSH1 0x24 PUSH1 0x0 REVERT JUMPDEST PUSH1 0x0 PUSH1 0x1 DUP3 ADD PUSH2 0x26DE JUMPI PUSH2 0x26DE PUSH2 0x2545 JUMP JUMPDEST POP PUSH1 0x1 ADD SWAP1 JUMP JUMPDEST PUSH1 0x0 DUP3 MLOAD PUSH2 0x26F7 DUP2 DUP5 PUSH1 0x20 DUP8 ADD PUSH2 0x228C JUMP JUMPDEST SWAP2 SWAP1 SWAP2 ADD SWAP3 SWAP2 POP POP JUMP JUMPDEST PUSH1 0x0 DUP1 DUP4 SLOAD PUSH2 0x270F DUP2 PUSH2 0x256E JUMP JUMPDEST PUSH1 0x1 DUP3 DUP2 AND DUP1 ISZERO PUSH2 0x2727 JUMPI PUSH1 0x1 DUP2 EQ PUSH2 0x273C JUMPI PUSH2 0x276B JUMP JUMPDEST PUSH1 0xFF NOT DUP5 AND DUP8 MSTORE DUP3 ISZERO ISZERO DUP4 MUL DUP8 ADD SWAP5 POP PUSH2 0x276B JUMP JUMPDEST DUP8 PUSH1 0x0 MSTORE PUSH1 0x20 DUP1 PUSH1 0x0 KECCAK256 PUSH1 0x0 JUMPDEST DUP6 DUP2 LT ISZERO PUSH2 0x2762 JUMPI DUP2 SLOAD DUP11 DUP3 ADD MSTORE SWAP1 DUP5 ADD SWAP1 DUP3 ADD PUSH2 0x2749 JUMP JUMPDEST POP POP POP DUP3 DUP8 ADD SWAP5 POP JUMPDEST POP SWAP3 SWAP7 SWAP6 POP POP POP POP POP POP JUMP JUMPDEST DUP2 DUP2 SUB PUSH2 0x2782 JUMPI POP POP JUMP JUMPDEST PUSH2 0x278C DUP3 SLOAD PUSH2 0x256E JUMP JUMPDEST PUSH8 0xFFFFFFFFFFFFFFFF DUP2 GT ISZERO PUSH2 0x27A4 JUMPI PUSH2 0x27A4 PUSH2 0x2102 JUMP JUMPDEST PUSH2 0x27B2 DUP2 PUSH2 0x261E DUP5 SLOAD PUSH2 0x256E JUMP JUMPDEST PUSH1 0x0 PUSH1 0x1F DUP3 GT PUSH1 0x1 DUP2 EQ PUSH2 0x27E6 JUMPI PUSH1 0x0 DUP4 ISZERO PUSH2 0x27CE JUMPI POP DUP5 DUP3 ADD SLOAD JUMPDEST PUSH1 0x0 NOT PUSH1 0x3 DUP6 SWAP1 SHL SHR NOT AND PUSH1 0x1 DUP5 SWAP1 SHL OR DUP5 SSTORE PUSH2 0x284B JUMP JUMPDEST PUSH1 0x0 DUP6 DUP2 MSTORE PUSH1 0x20 SWAP1 KECCAK256 PUSH1 0x1F NOT DUP5 AND SWAP1 PUSH1 0x0 DUP7 DUP2 MSTORE PUSH1 0x20 SWAP1 KECCAK256 DUP5 JUMPDEST DUP4 DUP2 LT ISZERO PUSH2 0x2820 JUMPI DUP3 DUP7 ADD SLOAD DUP3 SSTORE PUSH1 0x1 SWAP6 DUP7 ADD SWAP6 SWAP1 SWAP2 ADD SWAP1 PUSH1 0x20 ADD PUSH2 0x2800 JUMP JUMPDEST POP DUP6 DUP4 LT ISZERO PUSH2 0x283E JUMPI DUP2 DUP6 ADD SLOAD PUSH1 0x0 NOT PUSH1 0x3 DUP9 SWAP1 SHL PUSH1 0xF8 AND SHR NOT AND DUP2 SSTORE JUMPDEST POP POP POP PUSH1 0x1 DUP4 PUSH1 0x1 SHL ADD DUP5 SSTORE JUMPDEST POP POP POP POP POP JUMP JUMPDEST PUSH4 0x4E487B71 PUSH1 0xE0 SHL PUSH1 0x0 MSTORE PUSH1 0x31 PUSH1 0x4 MSTORE PUSH1 0x24 PUSH1 0x0 REVERT JUMPDEST DUP1 DUP3 ADD DUP1 DUP3 GT ISZERO PUSH2 0x548 JUMPI PUSH2 0x548 PUSH2 0x2545 JUMP INVALID LOG2 PUSH5 0x6970667358 0x22 SLT KECCAK256 PUSH27 0xAEBE6AB8F4288EB2900BF8B5FABE06209F33FBF9019BFF1108B8EC GASLIMIT DUP6 MLOAD 0xE2 PUSH5 0x736F6C6343 STOP ADDMOD GT STOP CALLER "
    },
    "gasEstimates": {
      "creation": {
        "codeDepositCost": "2083400",
        "executionCost": "2214",
        "totalCost": "2085614"
      },
      "external": {
        "addBenefactorPublicKey(address,string)": "infinite",
        "addBeneficiaries(address[])": "infinite",
        "addBeneficiaryPublicKey(address,address,string)": "infinite",
        "addIpfsCIDs(address,string[])": "infinite",
        "checkAliveStatus(address)": "infinite",
        "enableSwitch(address)": "55227",
        "getBenefactorData(address)": "infinite",
        "getBenefactorPublicKey(address)": "infinite",
        "getBeneficiaryData(address,address)": "infinite",
        "getBeneficiaryPublicKey(address,address)": "infinite",
        "getCIDs(address,address)": "infinite",
        "getRemainingCountdownTime(address)": "infinite",
        "getSwitchStatus(address)": "4856",
        "isBeneficiary(address,address)": "infinite",
        "removeBenefactor(address)": "infinite",
        "removeBeneficiary(address)": "infinite",
        "removeIpfsCID(address,string)": "infinite",
        "respondToSwitch()": "infinite",
        "setBenefactor()": "infinite"
      },
      "internal": {
        "disableSwitch()": "infinite",
        "getBeneficiariesCount(address)": "infinite",
        "getTotalBeneficiaryCIDsCount(address)": "infinite"
      }
    },
    "methodIdentifiers": {
      "addBenefactorPublicKey(address,string)": "b944559d",
      "addBeneficiaries(address[])": "590411da",
      "addBeneficiaryPublicKey(address,address,string)": "3dea2f84",
      "addIpfsCIDs(address,string[])": "d0e2892c",
      "checkAliveStatus(address)": "072039a2",
      "enableSwitch(address)": "8d5492e4",
      "getBenefactorData(address)": "e9e6630a",
      "getBenefactorPublicKey(address)": "6d769717",
      "getBeneficiaryData(address,address)": "b83f4805",
      "getBeneficiaryPublicKey(address,address)": "f892cb36",
      "getCIDs(address,address)": "df78bc54",
      "getRemainingCountdownTime(address)": "01e2b33f",
      "getSwitchStatus(address)": "07a8b767",
      "isBeneficiary(address,address)": "096e27d9",
      "removeBenefactor(address)": "a98d22bc",
      "removeBeneficiary(address)": "59633a1c",
      "removeIpfsCID(address,string)": "87c63714",
      "respondToSwitch()": "cd9c9362",
      "setBenefactor()": "196ba7ef"
    }
  },
  "storageLayout": {
    "storage": [
      {
        "astId": 33,
        "contract": "DeadMansSwitch.sol:BenefactorsDeadManSwitch",
        "label": "benefactors",
        "offset": 0,
        "slot": "0",
        "type": "t_mapping(t_address,t_struct(BenefactorInfo)28_storage)"
      },
      {
        "astId": 38,
        "contract": "DeadMansSwitch.sol:BenefactorsDeadManSwitch",
        "label": "beneficiaryKeys",
        "offset": 0,
        "slot": "1",
        "type": "t_mapping(t_address,t_array(t_address)dyn_storage)"
      }
    ],
    "types": {
      "t_address": {
        "encoding": "inplace",
        "label": "address",
        "numberOfBytes": "20"
      },
      "t_array(t_address)dyn_storage": {
        "base": "t_address",
        "encoding": "dynamic_array",
        "label": "address[]",
        "numberOfBytes": "32"
      },
      "t_array(t_string_storage)dyn_storage": {
        "base": "t_string_storage",
        "encoding": "dynamic_array",
        "label": "string[]",
        "numberOfBytes": "32"
      },
      "t_bool": {
        "encoding": "inplace",
        "label": "bool",
        "numberOfBytes": "1"
      },
      "t_mapping(t_address,t_array(t_address)dyn_storage)": {
        "encoding": "mapping",
        "key": "t_address",
        "label": "mapping(address => address[])",
        "numberOfBytes": "32",
        "value": "t_array(t_address)dyn_storage"
      },
      "t_mapping(t_address,t_struct(BenefactorInfo)28_storage)": {
        "encoding": "mapping",
        "key": "t_address",
        "label": "mapping(address => struct BenefactorsDeadManSwitch.BenefactorInfo)",
        "numberOfBytes": "32",
        "value": "t_struct(BenefactorInfo)28_storage"
      },
      "t_mapping(t_address,t_struct(Beneficiary)10_storage)": {
        "encoding": "mapping",
        "key": "t_address",
        "label": "mapping(address => struct BenefactorsDeadManSwitch.Beneficiary)",
        "numberOfBytes": "32",
        "value": "t_struct(Beneficiary)10_storage"
      },
      "t_string_storage": {
        "encoding": "bytes",
        "label": "string",
        "numberOfBytes": "32"
      },
      "t_struct(BenefactorInfo)28_storage": {
        "encoding": "inplace",
        "label": "struct BenefactorsDeadManSwitch.BenefactorInfo",
        "members": [
          {
            "astId": 12,
            "contract": "DeadMansSwitch.sol:BenefactorsDeadManSwitch",
            "label": "exists",
            "offset": 0,
            "slot": "0",
            "type": "t_bool"
          },
          {
            "astId": 17,
            "contract": "DeadMansSwitch.sol:BenefactorsDeadManSwitch",
            "label": "beneficiaries",
            "offset": 0,
            "slot": "1",
            "type": "t_mapping(t_address,t_struct(Beneficiary)10_storage)"
          },
          {
            "astId": 19,
            "contract": "DeadMansSwitch.sol:BenefactorsDeadManSwitch",
            "label": "countdownDuration",
            "offset": 0,
            "slot": "2",
            "type": "t_uint256"
          },
          {
            "astId": 21,
            "contract": "DeadMansSwitch.sol:BenefactorsDeadManSwitch",
            "label": "lastBenefactorResponseTime",
            "offset": 0,
            "slot": "3",
            "type": "t_uint256"
          },
          {
            "astId": 23,
            "contract": "DeadMansSwitch.sol:BenefactorsDeadManSwitch",
            "label": "isSwitchedOff",
            "offset": 0,
            "slot": "4",
            "type": "t_bool"
          },
          {
            "astId": 25,
            "contract": "DeadMansSwitch.sol:BenefactorsDeadManSwitch",
            "label": "isAlive",
            "offset": 1,
            "slot": "4",
            "type": "t_bool"
          },
          {
            "astId": 27,
            "contract": "DeadMansSwitch.sol:BenefactorsDeadManSwitch",
            "label": "benefactorPublicKey",
            "offset": 0,
            "slot": "5",
            "type": "t_string_storage"
          }
        ],
        "numberOfBytes": "192"
      },
      "t_struct(Beneficiary)10_storage": {
        "encoding": "inplace",
        "label": "struct BenefactorsDeadManSwitch.Beneficiary",
        "members": [
          {
            "astId": 4,
            "contract": "DeadMansSwitch.sol:BenefactorsDeadManSwitch",
            "label": "exists",
            "offset": 0,
            "slot": "0",
            "type": "t_bool"
          },
          {
            "astId": 7,
            "contract": "DeadMansSwitch.sol:BenefactorsDeadManSwitch",
            "label": "ipfsCIDs",
            "offset": 0,
            "slot": "1",
            "type": "t_array(t_string_storage)dyn_storage"
          },
          {
            "astId": 9,
            "contract": "DeadMansSwitch.sol:BenefactorsDeadManSwitch",
            "label": "beneficiaryPublicKey",
            "offset": 0,
            "slot": "2",
            "type": "t_string_storage"
          }
        ],
        "numberOfBytes": "96"
      },
      "t_uint256": {
        "encoding": "inplace",
        "label": "uint256",
        "numberOfBytes": "32"
      }
    }
  },
  "userdoc": {
    "kind": "user",
    "methods": {},
    "version": 1
  }
}