{
  "abi": [
    {
      "inputs": [],
      "stateMutability": "nonpayable",
      "type": "constructor"
    },
    {
      "anonymous": false,
      "inputs": [
        {
          "indexed": true,
          "internalType": "address",
          "name": "benefactor",
          "type": "address"
        },
        {
          "indexed": false,
          "internalType": "string",
          "name": "aliveStatus",
          "type": "string"
        }
      ],
      "name": "BenefactorIsAlive",
      "type": "event"
    },
    {
      "anonymous": false,
      "inputs": [
        {
          "indexed": true,
          "internalType": "address",
          "name": "benefactor",
          "type": "address"
        },
        {
          "indexed": false,
          "internalType": "string",
          "name": "deadStatus",
          "type": "string"
        }
      ],
      "name": "BenefactorIsDead",
      "type": "event"
    },
    {
      "anonymous": false,
      "inputs": [
        {
          "indexed": true,
          "internalType": "address",
          "name": "benefactor",
          "type": "address"
        },
        {
          "indexed": false,
          "internalType": "uint256",
          "name": "responseTime",
          "type": "uint256"
        }
      ],
      "name": "DeadMansSwitchDisabled",
      "type": "event"
    },
    {
      "anonymous": false,
      "inputs": [
        {
          "indexed": true,
          "internalType": "address",
          "name": "beneficiary",
          "type": "address"
        },
        {
          "indexed": false,
          "internalType": "uint256",
          "name": "countdownDuration",
          "type": "uint256"
        }
      ],
      "name": "DeadMansSwitchEnabled",
      "type": "event"
    },
    {
      "anonymous": false,
      "inputs": [
        {
          "indexed": true,
          "internalType": "address",
          "name": "caller",
          "type": "address"
        }
      ],
      "name": "SwitchAlreadyOff",
      "type": "event"
    },
    {
      "anonymous": false,
      "inputs": [
        {
          "indexed": true,
          "internalType": "address",
          "name": "caller",
          "type": "address"
        }
      ],
      "name": "SwitchAlreadyOn",
      "type": "event"
    },
    {
      "anonymous": false,
      "inputs": [
        {
          "indexed": false,
          "internalType": "uint256",
          "name": "countdownDuration",
          "type": "uint256"
        },
        {
          "indexed": false,
          "internalType": "uint256",
          "name": "responseTime",
          "type": "uint256"
        },
        {
          "indexed": false,
          "internalType": "uint256",
          "name": "currentTime",
          "type": "uint256"
        },
        {
          "indexed": false,
          "internalType": "uint256",
          "name": "lastBenefactorResponseTime",
          "type": "uint256"
        }
      ],
      "name": "remainingCountdownInfo",
      "type": "event"
    },
    {
      "inputs": [],
      "name": "benefactor",
      "outputs": [
        {
          "internalType": "address",
          "name": "",
          "type": "address"
        }
      ],
      "stateMutability": "view",
      "type": "function"
    },
    {
      "inputs": [],
      "name": "checkAliveStatus",
      "outputs": [
        {
          "internalType": "bool",
          "name": "",
          "type": "bool"
        }
      ],
      "stateMutability": "nonpayable",
      "type": "function"
    },
    {
      "inputs": [],
      "name": "countdownDuration",
      "outputs": [
        {
          "internalType": "uint256",
          "name": "",
          "type": "uint256"
        }
      ],
      "stateMutability": "view",
      "type": "function"
    },
    {
      "inputs": [],
      "name": "enableSwitch",
      "outputs": [],
      "stateMutability": "nonpayable",
      "type": "function"
    },
    {
      "inputs": [],
      "name": "getRemainingCountdownTime",
      "outputs": [
        {
          "internalType": "uint256",
          "name": "",
          "type": "uint256"
        }
      ],
      "stateMutability": "nonpayable",
      "type": "function"
    },
    {
      "inputs": [],
      "name": "isAlive",
      "outputs": [
        {
          "internalType": "bool",
          "name": "",
          "type": "bool"
        }
      ],
      "stateMutability": "view",
      "type": "function"
    },
    {
      "inputs": [],
      "name": "isSwitchedOff",
      "outputs": [
        {
          "internalType": "bool",
          "name": "",
          "type": "bool"
        }
      ],
      "stateMutability": "view",
      "type": "function"
    },
    {
      "inputs": [],
      "name": "lastBenefactorResponseTime",
      "outputs": [
        {
          "internalType": "uint256",
          "name": "",
          "type": "uint256"
        }
      ],
      "stateMutability": "view",
      "type": "function"
    },
    {
      "inputs": [],
      "name": "respondToSwitch",
      "outputs": [],
      "stateMutability": "nonpayable",
      "type": "function"
    },
    {
      "inputs": [
        {
          "internalType": "uint256",
          "name": "_countdownDuration",
          "type": "uint256"
        }
      ],
      "name": "setCountdownDuration",
      "outputs": [],
      "stateMutability": "nonpayable",
      "type": "function"
    }
  ],
  "devdoc": {
    "details": "Contract for managing a benefactor's dead man's switch with assigned beneficiaries.",
    "kind": "dev",
    "methods": {
      "checkAliveStatus()": {
        "details": "Checks the alive status of the benefactor.",
        "returns": {
          "_0": "A boolean indicating whether the benefactor is alive."
        }
      },
      "constructor": {
        "details": "Constructor to initialize the DeadMansSwitch contract."
      },
      "enableSwitch()": {
        "details": "Enables the dead man's switch. Only callable by beneficiaries."
      },
      "getRemainingCountdownTime()": {
        "details": "Returns the remaining countdown time.",
        "returns": {
          "_0": "The remaining countdown time in seconds."
        }
      },
      "respondToSwitch()": {
        "details": "Performs actions based on benefactor's activity when responding to an enabled switch. Only callable by the benefactor."
      },
      "setCountdownDuration(uint256)": {
        "details": "sets the countdown duration",
        "params": {
          "_countdownDuration": "The duration of the countdown in seconds."
        }
      }
    },
    "title": "DeadMansSwitch",
    "version": 1
  },
  "evm": {
    "assembly": "    /* \"DeadMansSwitch.sol\":191:4515  contract DeadMansSwitch {... */\n  mstore(0x40, 0x80)\n    /* \"DeadMansSwitch.sol\":1563:1716  constructor() {... */\n  callvalue\n  dup1\n  iszero\n  tag_1\n  jumpi\n  0x00\n  dup1\n  revert\ntag_1:\n  pop\n    /* \"DeadMansSwitch.sol\":1588:1598  benefactor */\n  0x00\n    /* \"DeadMansSwitch.sol\":1588:1611  benefactor = msg.sender */\n  dup1\n  sload\n  not(sub(shl(0xa0, 0x01), 0x01))\n  and\n    /* \"DeadMansSwitch.sol\":1601:1611  msg.sender */\n  caller\n    /* \"DeadMansSwitch.sol\":1588:1611  benefactor = msg.sender */\n  or\n  dup2\n  sstore\n    /* \"DeadMansSwitch.sol\":1622:1635  isSwitchedOff */\n  0x03\n    /* \"DeadMansSwitch.sol\":1622:1642  isSwitchedOff = true */\n  dup1\n  sload\n    /* \"DeadMansSwitch.sol\":1653:1667  isAlive = true */\n  0x0101\n  not(0xffff)\n  swap1\n  swap2\n  and\n  or\n  swap1\n  sstore\n    /* \"DeadMansSwitch.sol\":1678:1704  lastBenefactorResponseTime */\n  0x02\n    /* \"DeadMansSwitch.sol\":1678:1708  lastBenefactorResponseTime = 0 */\n  sstore\n    /* \"DeadMansSwitch.sol\":191:4515  contract DeadMansSwitch {... */\n  dataSize(sub_0)\n  dup1\n  dataOffset(sub_0)\n  0x00\n  codecopy\n  0x00\n  return\nstop\n\nsub_0: assembly {\n        /* \"DeadMansSwitch.sol\":191:4515  contract DeadMansSwitch {... */\n      mstore(0x40, 0x80)\n      callvalue\n      dup1\n      iszero\n      tag_1\n      jumpi\n      0x00\n      dup1\n      revert\n    tag_1:\n      pop\n      jumpi(tag_2, lt(calldatasize, 0x04))\n      shr(0xe0, calldataload(0x00))\n      dup1\n      0x8a81694c\n      gt\n      tag_13\n      jumpi\n      dup1\n      0x9f8f2f7d\n      gt\n      tag_14\n      jumpi\n      dup1\n      0x9f8f2f7d\n      eq\n      tag_10\n      jumpi\n      dup1\n      0xcd9c9362\n      eq\n      tag_11\n      jumpi\n      dup1\n      0xd2d8ddf0\n      eq\n      tag_12\n      jumpi\n      0x00\n      dup1\n      revert\n    tag_14:\n      dup1\n      0x8a81694c\n      eq\n      tag_8\n      jumpi\n      dup1\n      0x98e68f59\n      eq\n      tag_9\n      jumpi\n      0x00\n      dup1\n      revert\n    tag_13:\n      dup1\n      0x4f68343a\n      gt\n      tag_15\n      jumpi\n      dup1\n      0x4f68343a\n      eq\n      tag_5\n      jumpi\n      dup1\n      0x6a96ac2e\n      eq\n      tag_6\n      jumpi\n      dup1\n      0x6cd6617e\n      eq\n      tag_7\n      jumpi\n      0x00\n      dup1\n      revert\n    tag_15:\n      dup1\n      0x17eba161\n      eq\n      tag_3\n      jumpi\n      dup1\n      0x4136aa35\n      eq\n      tag_4\n      jumpi\n    tag_2:\n      0x00\n      dup1\n      revert\n        /* \"DeadMansSwitch.sol\":254:286  uint256 public countdownDuration */\n    tag_3:\n      tag_16\n      sload(0x01)\n      dup2\n      jump\n    tag_16:\n      mload(0x40)\n        /* \"#utility.yul\":160:185   */\n      swap1\n      dup2\n      mstore\n        /* \"#utility.yul\":148:150   */\n      0x20\n        /* \"#utility.yul\":133:151   */\n      add\n        /* \"DeadMansSwitch.sol\":254:286  uint256 public countdownDuration */\n    tag_18:\n      mload(0x40)\n      dup1\n      swap2\n      sub\n      swap1\n      return\n        /* \"DeadMansSwitch.sol\":373:392  bool public isAlive */\n    tag_4:\n      sload(0x03)\n      tag_20\n      swap1\n      0x0100\n      swap1\n      div\n      0xff\n      and\n      dup2\n      jump\n    tag_20:\n      mload(0x40)\n        /* \"#utility.yul\":361:375   */\n      swap1\n      iszero\n        /* \"#utility.yul\":354:376   */\n      iszero\n        /* \"#utility.yul\":336:377   */\n      dup2\n      mstore\n        /* \"#utility.yul\":324:326   */\n      0x20\n        /* \"#utility.yul\":309:327   */\n      add\n        /* \"DeadMansSwitch.sol\":373:392  bool public isAlive */\n      tag_18\n        /* \"#utility.yul\":196:383   */\n      jump\n        /* \"DeadMansSwitch.sol\":2555:2910  function getRemainingCountdownTime() public returns (uint256) {... */\n    tag_5:\n      tag_16\n      tag_25\n      jump\t// in\n        /* \"DeadMansSwitch.sol\":293:334  uint256 public lastBenefactorResponseTime */\n    tag_6:\n      tag_16\n      sload(0x02)\n      dup2\n      jump\n        /* \"DeadMansSwitch.sol\":341:366  bool public isSwitchedOff */\n    tag_7:\n      sload(0x03)\n      tag_20\n      swap1\n      0xff\n      and\n      dup2\n      jump\n        /* \"DeadMansSwitch.sol\":222:247  address public benefactor */\n    tag_8:\n      sload(0x00)\n      tag_33\n      swap1\n      sub(shl(0xa0, 0x01), 0x01)\n      and\n      dup2\n      jump\n    tag_33:\n      mload(0x40)\n      sub(shl(0xa0, 0x01), 0x01)\n        /* \"#utility.yul\":552:607   */\n      swap1\n      swap2\n      and\n        /* \"#utility.yul\":534:608   */\n      dup2\n      mstore\n        /* \"#utility.yul\":522:524   */\n      0x20\n        /* \"#utility.yul\":507:525   */\n      add\n        /* \"DeadMansSwitch.sol\":222:247  address public benefactor */\n      tag_18\n        /* \"#utility.yul\":388:614   */\n      jump\n        /* \"DeadMansSwitch.sol\":3062:3368  function checkAliveStatus() public returns (bool) {... */\n    tag_9:\n      tag_20\n      tag_38\n      jump\t// in\n        /* \"DeadMansSwitch.sol\":2099:2421  function enableSwitch() external onlyBeneficiary {... */\n    tag_10:\n      tag_40\n      tag_41\n      jump\t// in\n    tag_40:\n      stop\n        /* \"DeadMansSwitch.sol\":3526:4143  function respondToSwitch() external onlyBenefactor {... */\n    tag_11:\n      tag_40\n      tag_43\n      jump\t// in\n        /* \"DeadMansSwitch.sol\":1857:1997  function setCountdownDuration(uint256 _countdownDuration) external onlyBenefactor(){... */\n    tag_12:\n      tag_40\n      tag_45\n      calldatasize\n      0x04\n      tag_46\n      jump\t// in\n    tag_45:\n      tag_47\n      jump\t// in\n        /* \"DeadMansSwitch.sol\":2555:2910  function getRemainingCountdownTime() public returns (uint256) {... */\n    tag_25:\n        /* \"DeadMansSwitch.sol\":2608:2615  uint256 */\n      0x00\n        /* \"DeadMansSwitch.sol\":2628:2648  uint256 responseTime */\n      dup1\n        /* \"DeadMansSwitch.sol\":2669:2695  lastBenefactorResponseTime */\n      sload(0x02)\n        /* \"DeadMansSwitch.sol\":2651:2666  block.timestamp */\n      timestamp\n        /* \"DeadMansSwitch.sol\":2651:2695  block.timestamp - lastBenefactorResponseTime */\n      tag_49\n      swap2\n      swap1\n      tag_50\n      jump\t// in\n    tag_49:\n        /* \"DeadMansSwitch.sol\":2734:2751  countdownDuration */\n      sload(0x01)\n        /* \"DeadMansSwitch.sol\":2784:2810  lastBenefactorResponseTime */\n      sload(0x02)\n        /* \"DeadMansSwitch.sol\":2711:2811  remainingCountdownInfo(countdownDuration, responseTime, block.timestamp, lastBenefactorResponseTime) */\n      0x40\n      dup1\n      mload\n        /* \"#utility.yul\":1265:1290   */\n      swap3\n      dup4\n      mstore\n        /* \"#utility.yul\":1321:1323   */\n      0x20\n        /* \"#utility.yul\":1306:1324   */\n      dup4\n      add\n        /* \"#utility.yul\":1299:1333   */\n      dup5\n      swap1\n      mstore\n        /* \"DeadMansSwitch.sol\":2767:2782  block.timestamp */\n      timestamp\n        /* \"#utility.yul\":1349:1367   */\n      swap1\n      dup4\n      add\n        /* \"#utility.yul\":1342:1376   */\n      mstore\n        /* \"#utility.yul\":1407:1409   */\n      0x60\n        /* \"#utility.yul\":1392:1410   */\n      dup3\n      add\n        /* \"#utility.yul\":1385:1419   */\n      mstore\n        /* \"DeadMansSwitch.sol\":2628:2695  uint256 responseTime = block.timestamp - lastBenefactorResponseTime */\n      swap1\n      swap2\n      pop\n        /* \"DeadMansSwitch.sol\":2711:2811  remainingCountdownInfo(countdownDuration, responseTime, block.timestamp, lastBenefactorResponseTime) */\n      0x06a38dc89ea5bc5d656aa6177f609f90b9bac89f75d639808331134e0e60c6ba\n      swap1\n        /* \"#utility.yul\":1252:1255   */\n      0x80\n        /* \"#utility.yul\":1237:1256   */\n      add\n        /* \"DeadMansSwitch.sol\":2711:2811  remainingCountdownInfo(countdownDuration, responseTime, block.timestamp, lastBenefactorResponseTime) */\n      mload(0x40)\n      dup1\n      swap2\n      sub\n      swap1\n      log1\n        /* \"DeadMansSwitch.sol\":2845:2862  countdownDuration */\n      sload(0x01)\n        /* \"DeadMansSwitch.sol\":2830:2842  responseTime */\n      dup2\n        /* \"DeadMansSwitch.sol\":2830:2862  responseTime > countdownDuration */\n      gt\n        /* \"DeadMansSwitch.sol\":2829:2902  (responseTime > countdownDuration) ? 0 : countdownDuration - responseTime */\n      tag_53\n      jumpi\n        /* \"DeadMansSwitch.sol\":2890:2902  responseTime */\n      dup1\n        /* \"DeadMansSwitch.sol\":2870:2887  countdownDuration */\n      sload(0x01)\n        /* \"DeadMansSwitch.sol\":2870:2902  countdownDuration - responseTime */\n      tag_54\n      swap2\n      swap1\n      tag_50\n      jump\t// in\n    tag_54:\n        /* \"DeadMansSwitch.sol\":2829:2902  (responseTime > countdownDuration) ? 0 : countdownDuration - responseTime */\n      jump(tag_55)\n    tag_53:\n        /* \"DeadMansSwitch.sol\":2866:2867  0 */\n      0x00\n        /* \"DeadMansSwitch.sol\":2829:2902  (responseTime > countdownDuration) ? 0 : countdownDuration - responseTime */\n    tag_55:\n        /* \"DeadMansSwitch.sol\":2822:2902  return (responseTime > countdownDuration) ? 0 : countdownDuration - responseTime */\n      swap2\n      pop\n      pop\n        /* \"DeadMansSwitch.sol\":2555:2910  function getRemainingCountdownTime() public returns (uint256) {... */\n      swap1\n      jump\t// out\n        /* \"DeadMansSwitch.sol\":3062:3368  function checkAliveStatus() public returns (bool) {... */\n    tag_38:\n        /* \"DeadMansSwitch.sol\":3106:3110  bool */\n      0x00\n        /* \"DeadMansSwitch.sol\":3127:3153  lastBenefactorResponseTime */\n      sload(0x02)\n        /* \"DeadMansSwitch.sol\":3157:3158  0 */\n      0x00\n        /* \"DeadMansSwitch.sol\":3127:3158  lastBenefactorResponseTime != 0 */\n      eq\n        /* \"DeadMansSwitch.sol\":3123:3336  if (lastBenefactorResponseTime != 0) {... */\n      tag_57\n      jumpi\n        /* \"DeadMansSwitch.sol\":3175:3201  uint256 remainingCountdown */\n      0x00\n        /* \"DeadMansSwitch.sol\":3204:3231  getRemainingCountdownTime() */\n      tag_58\n        /* \"DeadMansSwitch.sol\":3204:3229  getRemainingCountdownTime */\n      tag_25\n        /* \"DeadMansSwitch.sol\":3204:3231  getRemainingCountdownTime() */\n      jump\t// in\n    tag_58:\n        /* \"DeadMansSwitch.sol\":3175:3231  uint256 remainingCountdown = getRemainingCountdownTime() */\n      swap1\n      pop\n        /* \"DeadMansSwitch.sol\":3250:3268  remainingCountdown */\n      dup1\n        /* \"DeadMansSwitch.sol\":3272:3273  0 */\n      0x00\n        /* \"DeadMansSwitch.sol\":3250:3273  remainingCountdown == 0 */\n      sub\n        /* \"DeadMansSwitch.sol\":3246:3325  if (remainingCountdown == 0) {... */\n      tag_59\n      jumpi\n        /* \"DeadMansSwitch.sol\":3294:3301  isAlive */\n      0x03\n        /* \"DeadMansSwitch.sol\":3294:3309  isAlive = false */\n      dup1\n      sload\n      not(0xff00)\n      and\n      swap1\n      sstore\n        /* \"DeadMansSwitch.sol\":3246:3325  if (remainingCountdown == 0) {... */\n    tag_59:\n        /* \"DeadMansSwitch.sol\":3160:3336  {... */\n      pop\n        /* \"DeadMansSwitch.sol\":3123:3336  if (lastBenefactorResponseTime != 0) {... */\n    tag_57:\n      pop\n        /* \"DeadMansSwitch.sol\":3353:3360  isAlive */\n      sload(0x03)\n      0x0100\n      swap1\n      div\n      0xff\n      and\n      swap1\n        /* \"DeadMansSwitch.sol\":3062:3368  function checkAliveStatus() public returns (bool) {... */\n      jump\t// out\n        /* \"DeadMansSwitch.sol\":2099:2421  function enableSwitch() external onlyBeneficiary {... */\n    tag_41:\n        /* \"DeadMansSwitch.sol\":1396:1406  benefactor */\n      and(sub(shl(0xa0, 0x01), 0x01), sload(0x00))\n        /* \"DeadMansSwitch.sol\":1382:1392  msg.sender */\n      caller\n        /* \"DeadMansSwitch.sol\":1382:1406  msg.sender == benefactor */\n      eq\n        /* \"DeadMansSwitch.sol\":1382:1426  msg.sender == benefactor && isAlive == false */\n      dup1\n      iszero\n      tag_61\n      jumpi\n      pop\n        /* \"DeadMansSwitch.sol\":1410:1417  isAlive */\n      sload(0x03)\n      0x0100\n      swap1\n      div\n      0xff\n      and\n        /* \"DeadMansSwitch.sol\":1410:1426  isAlive == false */\n      iszero\n        /* \"DeadMansSwitch.sol\":1382:1426  msg.sender == benefactor && isAlive == false */\n    tag_61:\n        /* \"DeadMansSwitch.sol\":1374:1449  require(msg.sender == benefactor && isAlive == false, \"Not the benefactor\") */\n      tag_62\n      jumpi\n      mload(0x40)\n      shl(0xe5, 0x461bcd)\n      dup2\n      mstore\n        /* \"#utility.yul\":1632:1634   */\n      0x20\n        /* \"DeadMansSwitch.sol\":1374:1449  require(msg.sender == benefactor && isAlive == false, \"Not the benefactor\") */\n      0x04\n      dup3\n      add\n        /* \"#utility.yul\":1614:1635   */\n      mstore\n        /* \"#utility.yul\":1671:1673   */\n      0x12\n        /* \"#utility.yul\":1651:1669   */\n      0x24\n      dup3\n      add\n        /* \"#utility.yul\":1644:1674   */\n      mstore\n      shl(0x71, 0x2737ba103a3432903132b732b330b1ba37b9)\n        /* \"#utility.yul\":1690:1708   */\n      0x44\n      dup3\n      add\n        /* \"#utility.yul\":1683:1731   */\n      mstore\n        /* \"#utility.yul\":1748:1766   */\n      0x64\n      add\n        /* \"DeadMansSwitch.sol\":1374:1449  require(msg.sender == benefactor && isAlive == false, \"Not the benefactor\") */\n    tag_63:\n      mload(0x40)\n      dup1\n      swap2\n      sub\n      swap1\n      revert\n    tag_62:\n        /* \"DeadMansSwitch.sol\":2164:2177  isSwitchedOff */\n      and(0xff, sload(0x03))\n        /* \"DeadMansSwitch.sol\":2159:2259  if (!isSwitchedOff) {... */\n      tag_66\n      jumpi\n        /* \"DeadMansSwitch.sol\":2199:2226  SwitchAlreadyOn(msg.sender) */\n      mload(0x40)\n        /* \"DeadMansSwitch.sol\":2215:2225  msg.sender */\n      caller\n      swap1\n        /* \"DeadMansSwitch.sol\":2199:2226  SwitchAlreadyOn(msg.sender) */\n      0xead4f7f220244e6b588c135f1b3288c4f816e0f5f626cbcc61890a729949a4ff\n      swap1\n      0x00\n      swap1\n      log2\n        /* \"DeadMansSwitch.sol\":2099:2421  function enableSwitch() external onlyBeneficiary {... */\n      jump\t// out\n        /* \"DeadMansSwitch.sol\":2159:2259  if (!isSwitchedOff) {... */\n    tag_66:\n        /* \"DeadMansSwitch.sol\":2269:2282  isSwitchedOff */\n      0x03\n        /* \"DeadMansSwitch.sol\":2269:2290  isSwitchedOff = false */\n      dup1\n      sload\n      not(0xff)\n      and\n      swap1\n      sstore\n        /* \"DeadMansSwitch.sol\":2330:2345  block.timestamp */\n      timestamp\n        /* \"DeadMansSwitch.sol\":2301:2327  lastBenefactorResponseTime */\n      0x02\n        /* \"DeadMansSwitch.sol\":2301:2345  lastBenefactorResponseTime = block.timestamp */\n      sstore\n      0x01\n        /* \"DeadMansSwitch.sol\":2395:2412  countdownDuration */\n      sload\n        /* \"DeadMansSwitch.sol\":2361:2413  DeadMansSwitchEnabled(msg.sender, countdownDuration) */\n      mload(0x40)\n        /* \"#utility.yul\":160:185   */\n      swap1\n      dup2\n      mstore\n        /* \"DeadMansSwitch.sol\":2383:2393  msg.sender */\n      caller\n      swap1\n        /* \"DeadMansSwitch.sol\":2361:2413  DeadMansSwitchEnabled(msg.sender, countdownDuration) */\n      0xcc272f3c4321d64a0bccc7cb23d6dc8d452b85dd320aa24eacc2464eebb68514\n      swap1\n        /* \"#utility.yul\":148:150   */\n      0x20\n        /* \"#utility.yul\":133:151   */\n      add\n        /* \"DeadMansSwitch.sol\":2361:2413  DeadMansSwitchEnabled(msg.sender, countdownDuration) */\n    tag_67:\n      mload(0x40)\n      dup1\n      swap2\n      sub\n      swap1\n      log2\n        /* \"DeadMansSwitch.sol\":2099:2421  function enableSwitch() external onlyBeneficiary {... */\n      jump\t// out\n        /* \"DeadMansSwitch.sol\":3526:4143  function respondToSwitch() external onlyBenefactor {... */\n    tag_43:\n        /* \"DeadMansSwitch.sol\":1147:1157  benefactor */\n      and(sub(shl(0xa0, 0x01), 0x01), sload(0x00))\n        /* \"DeadMansSwitch.sol\":1133:1143  msg.sender */\n      caller\n        /* \"DeadMansSwitch.sol\":1133:1157  msg.sender == benefactor */\n      eq\n        /* \"DeadMansSwitch.sol\":1133:1176  msg.sender == benefactor && isAlive == true */\n      dup1\n      iszero\n      tag_69\n      jumpi\n      pop\n        /* \"DeadMansSwitch.sol\":1161:1168  isAlive */\n      sload(0x03)\n      0xff\n      0x0100\n      swap1\n      swap2\n      div\n      and\n        /* \"DeadMansSwitch.sol\":1161:1176  isAlive == true */\n      iszero\n      iszero\n        /* \"DeadMansSwitch.sol\":1161:1168  isAlive */\n      0x01\n        /* \"DeadMansSwitch.sol\":1161:1176  isAlive == true */\n      eq\n        /* \"DeadMansSwitch.sol\":1133:1176  msg.sender == benefactor && isAlive == true */\n    tag_69:\n        /* \"DeadMansSwitch.sol\":1125:1199  require(msg.sender == benefactor && isAlive == true, \"Not the benefactor\") */\n      tag_70\n      jumpi\n      mload(0x40)\n      shl(0xe5, 0x461bcd)\n      dup2\n      mstore\n        /* \"#utility.yul\":1632:1634   */\n      0x20\n        /* \"DeadMansSwitch.sol\":1125:1199  require(msg.sender == benefactor && isAlive == true, \"Not the benefactor\") */\n      0x04\n      dup3\n      add\n        /* \"#utility.yul\":1614:1635   */\n      mstore\n        /* \"#utility.yul\":1671:1673   */\n      0x12\n        /* \"#utility.yul\":1651:1669   */\n      0x24\n      dup3\n      add\n        /* \"#utility.yul\":1644:1674   */\n      mstore\n      shl(0x71, 0x2737ba103a3432903132b732b330b1ba37b9)\n        /* \"#utility.yul\":1690:1708   */\n      0x44\n      dup3\n      add\n        /* \"#utility.yul\":1683:1731   */\n      mstore\n        /* \"#utility.yul\":1748:1766   */\n      0x64\n      add\n        /* \"DeadMansSwitch.sol\":1125:1199  require(msg.sender == benefactor && isAlive == true, \"Not the benefactor\") */\n      tag_63\n        /* \"#utility.yul\":1430:1772   */\n      jump\n        /* \"DeadMansSwitch.sol\":1125:1199  require(msg.sender == benefactor && isAlive == true, \"Not the benefactor\") */\n    tag_70:\n        /* \"DeadMansSwitch.sol\":3592:3618  lastBenefactorResponseTime */\n      sload(0x02)\n        /* \"DeadMansSwitch.sol\":3592:3623  lastBenefactorResponseTime != 0 */\n      iszero\n        /* \"DeadMansSwitch.sol\":3588:4136  if (lastBenefactorResponseTime != 0) {... */\n      tag_73\n      jumpi\n        /* \"DeadMansSwitch.sol\":3644:3662  checkAliveStatus() */\n      tag_74\n        /* \"DeadMansSwitch.sol\":3644:3660  checkAliveStatus */\n      tag_38\n        /* \"DeadMansSwitch.sol\":3644:3662  checkAliveStatus() */\n      jump\t// in\n    tag_74:\n        /* \"DeadMansSwitch.sol\":3640:3947  if (checkAliveStatus()) {... */\n      iszero\n      tag_75\n      jumpi\n        /* \"DeadMansSwitch.sol\":3706:3716  benefactor */\n      sload(0x00)\n        /* \"DeadMansSwitch.sol\":3688:3739  BenefactorIsAlive(benefactor,\"Benefactor is alive\") */\n      mload(0x40)\n      sub(shl(0xa0, 0x01), 0x01)\n        /* \"DeadMansSwitch.sol\":3706:3716  benefactor */\n      swap1\n      swap2\n      and\n      swap1\n        /* \"DeadMansSwitch.sol\":3688:3739  BenefactorIsAlive(benefactor,\"Benefactor is alive\") */\n      0x793324a6f079e577f4a4646c7ec753efd3beddc2f4ce07bfae5f105c449ac356\n      swap1\n      tag_76\n      swap1\n        /* \"#utility.yul\":1979:1981   */\n      0x20\n        /* \"#utility.yul\":1961:1982   */\n      dup1\n      dup3\n      mstore\n        /* \"#utility.yul\":2018:2020   */\n      0x13\n        /* \"#utility.yul\":1998:2016   */\n      swap1\n      dup3\n      add\n        /* \"#utility.yul\":1991:2021   */\n      mstore\n        /* \"#utility.yul\":2057:2078   */\n      0x42656e65666163746f7220697320616c69766500000000000000000000000000\n        /* \"#utility.yul\":2052:2054   */\n      0x40\n        /* \"#utility.yul\":2037:2055   */\n      dup3\n      add\n        /* \"#utility.yul\":2030:2079   */\n      mstore\n        /* \"#utility.yul\":2111:2113   */\n      0x60\n        /* \"#utility.yul\":2096:2114   */\n      add\n      swap1\n        /* \"#utility.yul\":1777:2120   */\n      jump\n        /* \"DeadMansSwitch.sol\":3688:3739  BenefactorIsAlive(benefactor,\"Benefactor is alive\") */\n    tag_76:\n      mload(0x40)\n      dup1\n      swap2\n      sub\n      swap1\n      log2\n        /* \"DeadMansSwitch.sol\":3758:3773  disableSwitch() */\n      tag_78\n        /* \"DeadMansSwitch.sol\":3758:3771  disableSwitch */\n      tag_79\n        /* \"DeadMansSwitch.sol\":3758:3773  disableSwitch() */\n      jump\t// in\n    tag_78:\n        /* \"DeadMansSwitch.sol\":3821:3836  block.timestamp */\n      timestamp\n        /* \"DeadMansSwitch.sol\":3792:3818  lastBenefactorResponseTime */\n      0x02\n        /* \"DeadMansSwitch.sol\":3792:3836  lastBenefactorResponseTime = block.timestamp */\n      sstore\n        /* \"DeadMansSwitch.sol\":2099:2421  function enableSwitch() external onlyBeneficiary {... */\n      jump\t// out\n        /* \"DeadMansSwitch.sol\":3640:3947  if (checkAliveStatus()) {... */\n    tag_75:\n        /* \"DeadMansSwitch.sol\":3899:3909  benefactor */\n      sload(0x00)\n        /* \"DeadMansSwitch.sol\":3882:3931  BenefactorIsDead(benefactor,\"Benefactor is dead\") */\n      mload(0x40)\n      sub(shl(0xa0, 0x01), 0x01)\n        /* \"DeadMansSwitch.sol\":3899:3909  benefactor */\n      swap1\n      swap2\n      and\n      swap1\n        /* \"DeadMansSwitch.sol\":3882:3931  BenefactorIsDead(benefactor,\"Benefactor is dead\") */\n      0x5a68fa7d6b655a3e592d5d99ac82863424750e9d262c902f30f9e56655e7a856\n      swap1\n      tag_67\n      swap1\n        /* \"#utility.yul\":2327:2329   */\n      0x20\n        /* \"#utility.yul\":2309:2330   */\n      dup1\n      dup3\n      mstore\n        /* \"#utility.yul\":2366:2368   */\n      0x12\n        /* \"#utility.yul\":2346:2364   */\n      swap1\n      dup3\n      add\n        /* \"#utility.yul\":2339:2369   */\n      mstore\n        /* \"#utility.yul\":2405:2425   */\n      0x42656e65666163746f7220697320646561640000000000000000000000000000\n        /* \"#utility.yul\":2400:2402   */\n      0x40\n        /* \"#utility.yul\":2385:2403   */\n      dup3\n      add\n        /* \"#utility.yul\":2378:2426   */\n      mstore\n        /* \"#utility.yul\":2458:2460   */\n      0x60\n        /* \"#utility.yul\":2443:2461   */\n      add\n      swap1\n        /* \"#utility.yul\":2125:2467   */\n      jump\n        /* \"DeadMansSwitch.sol\":3588:4136  if (lastBenefactorResponseTime != 0) {... */\n    tag_73:\n        /* \"DeadMansSwitch.sol\":4002:4012  benefactor */\n      sload(0x00)\n        /* \"DeadMansSwitch.sol\":3984:4035  BenefactorIsAlive(benefactor,\"Benefactor is alive\") */\n      mload(0x40)\n      sub(shl(0xa0, 0x01), 0x01)\n        /* \"DeadMansSwitch.sol\":4002:4012  benefactor */\n      swap1\n      swap2\n      and\n      swap1\n        /* \"DeadMansSwitch.sol\":3984:4035  BenefactorIsAlive(benefactor,\"Benefactor is alive\") */\n      0x793324a6f079e577f4a4646c7ec753efd3beddc2f4ce07bfae5f105c449ac356\n      swap1\n      tag_76\n      swap1\n        /* \"#utility.yul\":1979:1981   */\n      0x20\n        /* \"#utility.yul\":1961:1982   */\n      dup1\n      dup3\n      mstore\n        /* \"#utility.yul\":2018:2020   */\n      0x13\n        /* \"#utility.yul\":1998:2016   */\n      swap1\n      dup3\n      add\n        /* \"#utility.yul\":1991:2021   */\n      mstore\n        /* \"#utility.yul\":2057:2078   */\n      0x42656e65666163746f7220697320616c69766500000000000000000000000000\n        /* \"#utility.yul\":2052:2054   */\n      0x40\n        /* \"#utility.yul\":2037:2055   */\n      dup3\n      add\n        /* \"#utility.yul\":2030:2079   */\n      mstore\n        /* \"#utility.yul\":2111:2113   */\n      0x60\n        /* \"#utility.yul\":2096:2114   */\n      add\n      swap1\n        /* \"#utility.yul\":1777:2120   */\n      jump\n        /* \"DeadMansSwitch.sol\":1857:1997  function setCountdownDuration(uint256 _countdownDuration) external onlyBenefactor(){... */\n    tag_47:\n        /* \"DeadMansSwitch.sol\":1147:1157  benefactor */\n      and(sub(shl(0xa0, 0x01), 0x01), sload(0x00))\n        /* \"DeadMansSwitch.sol\":1133:1143  msg.sender */\n      caller\n        /* \"DeadMansSwitch.sol\":1133:1157  msg.sender == benefactor */\n      eq\n        /* \"DeadMansSwitch.sol\":1133:1176  msg.sender == benefactor && isAlive == true */\n      dup1\n      iszero\n      tag_87\n      jumpi\n      pop\n        /* \"DeadMansSwitch.sol\":1161:1168  isAlive */\n      sload(0x03)\n      0xff\n      0x0100\n      swap1\n      swap2\n      div\n      and\n        /* \"DeadMansSwitch.sol\":1161:1176  isAlive == true */\n      iszero\n      iszero\n        /* \"DeadMansSwitch.sol\":1161:1168  isAlive */\n      0x01\n        /* \"DeadMansSwitch.sol\":1161:1176  isAlive == true */\n      eq\n        /* \"DeadMansSwitch.sol\":1133:1176  msg.sender == benefactor && isAlive == true */\n    tag_87:\n        /* \"DeadMansSwitch.sol\":1125:1199  require(msg.sender == benefactor && isAlive == true, \"Not the benefactor\") */\n      tag_88\n      jumpi\n      mload(0x40)\n      shl(0xe5, 0x461bcd)\n      dup2\n      mstore\n        /* \"#utility.yul\":1632:1634   */\n      0x20\n        /* \"DeadMansSwitch.sol\":1125:1199  require(msg.sender == benefactor && isAlive == true, \"Not the benefactor\") */\n      0x04\n      dup3\n      add\n        /* \"#utility.yul\":1614:1635   */\n      mstore\n        /* \"#utility.yul\":1671:1673   */\n      0x12\n        /* \"#utility.yul\":1651:1669   */\n      0x24\n      dup3\n      add\n        /* \"#utility.yul\":1644:1674   */\n      mstore\n      shl(0x71, 0x2737ba103a3432903132b732b330b1ba37b9)\n        /* \"#utility.yul\":1690:1708   */\n      0x44\n      dup3\n      add\n        /* \"#utility.yul\":1683:1731   */\n      mstore\n        /* \"#utility.yul\":1748:1766   */\n      0x64\n      add\n        /* \"DeadMansSwitch.sol\":1125:1199  require(msg.sender == benefactor && isAlive == true, \"Not the benefactor\") */\n      tag_63\n        /* \"#utility.yul\":1430:1772   */\n      jump\n        /* \"DeadMansSwitch.sol\":1125:1199  require(msg.sender == benefactor && isAlive == true, \"Not the benefactor\") */\n    tag_88:\n        /* \"DeadMansSwitch.sol\":1951:1968  countdownDuration */\n      0x01\n        /* \"DeadMansSwitch.sol\":1951:1989  countdownDuration = _countdownDuration */\n      sstore\n        /* \"DeadMansSwitch.sol\":1857:1997  function setCountdownDuration(uint256 _countdownDuration) external onlyBenefactor(){... */\n      jump\t// out\n        /* \"DeadMansSwitch.sol\":4247:4512  function disableSwitch() internal onlyBenefactor {... */\n    tag_79:\n        /* \"DeadMansSwitch.sol\":1147:1157  benefactor */\n      and(sub(shl(0xa0, 0x01), 0x01), sload(0x00))\n        /* \"DeadMansSwitch.sol\":1133:1143  msg.sender */\n      caller\n        /* \"DeadMansSwitch.sol\":1133:1157  msg.sender == benefactor */\n      eq\n        /* \"DeadMansSwitch.sol\":1133:1176  msg.sender == benefactor && isAlive == true */\n      dup1\n      iszero\n      tag_92\n      jumpi\n      pop\n        /* \"DeadMansSwitch.sol\":1161:1168  isAlive */\n      sload(0x03)\n      0xff\n      0x0100\n      swap1\n      swap2\n      div\n      and\n        /* \"DeadMansSwitch.sol\":1161:1176  isAlive == true */\n      iszero\n      iszero\n        /* \"DeadMansSwitch.sol\":1161:1168  isAlive */\n      0x01\n        /* \"DeadMansSwitch.sol\":1161:1176  isAlive == true */\n      eq\n        /* \"DeadMansSwitch.sol\":1133:1176  msg.sender == benefactor && isAlive == true */\n    tag_92:\n        /* \"DeadMansSwitch.sol\":1125:1199  require(msg.sender == benefactor && isAlive == true, \"Not the benefactor\") */\n      tag_93\n      jumpi\n      mload(0x40)\n      shl(0xe5, 0x461bcd)\n      dup2\n      mstore\n        /* \"#utility.yul\":1632:1634   */\n      0x20\n        /* \"DeadMansSwitch.sol\":1125:1199  require(msg.sender == benefactor && isAlive == true, \"Not the benefactor\") */\n      0x04\n      dup3\n      add\n        /* \"#utility.yul\":1614:1635   */\n      mstore\n        /* \"#utility.yul\":1671:1673   */\n      0x12\n        /* \"#utility.yul\":1651:1669   */\n      0x24\n      dup3\n      add\n        /* \"#utility.yul\":1644:1674   */\n      mstore\n      shl(0x71, 0x2737ba103a3432903132b732b330b1ba37b9)\n        /* \"#utility.yul\":1690:1708   */\n      0x44\n      dup3\n      add\n        /* \"#utility.yul\":1683:1731   */\n      mstore\n        /* \"#utility.yul\":1748:1766   */\n      0x64\n      add\n        /* \"DeadMansSwitch.sol\":1125:1199  require(msg.sender == benefactor && isAlive == true, \"Not the benefactor\") */\n      tag_63\n        /* \"#utility.yul\":1430:1772   */\n      jump\n        /* \"DeadMansSwitch.sol\":1125:1199  require(msg.sender == benefactor && isAlive == true, \"Not the benefactor\") */\n    tag_93:\n        /* \"DeadMansSwitch.sol\":4311:4324  isSwitchedOff */\n      and(0xff, sload(0x03))\n        /* \"DeadMansSwitch.sol\":4307:4407  if (isSwitchedOff) {... */\n      iszero\n      tag_96\n      jumpi\n        /* \"DeadMansSwitch.sol\":4346:4374  SwitchAlreadyOff(msg.sender) */\n      mload(0x40)\n        /* \"DeadMansSwitch.sol\":4363:4373  msg.sender */\n      caller\n      swap1\n        /* \"DeadMansSwitch.sol\":4346:4374  SwitchAlreadyOff(msg.sender) */\n      0x2d44f8a9f38299bd7ddd20e336bdc35969c0188bc56e9fb39d6fd770ae4d6e94\n      swap1\n      0x00\n      swap1\n      log2\n        /* \"DeadMansSwitch.sol\":2099:2421  function enableSwitch() external onlyBeneficiary {... */\n      jump\t// out\n        /* \"DeadMansSwitch.sol\":4307:4407  if (isSwitchedOff) {... */\n    tag_96:\n        /* \"DeadMansSwitch.sol\":4417:4430  isSwitchedOff */\n      0x03\n        /* \"DeadMansSwitch.sol\":4417:4437  isSwitchedOff = true */\n      dup1\n      sload\n      not(0xff)\n      and\n        /* \"DeadMansSwitch.sol\":4433:4437  true */\n      0x01\n        /* \"DeadMansSwitch.sol\":4417:4437  isSwitchedOff = true */\n      or\n      swap1\n      sstore\n        /* \"DeadMansSwitch.sol\":4453:4504  DeadMansSwitchDisabled(msg.sender, block.timestamp) */\n      mload(0x40)\n        /* \"DeadMansSwitch.sol\":4476:4486  msg.sender */\n      caller\n      swap1\n        /* \"DeadMansSwitch.sol\":4453:4504  DeadMansSwitchDisabled(msg.sender, block.timestamp) */\n      0x2f4ddd9d3083ada98da611a8706b4a485cbe108962a3d8d2e7b7583fdf6c9a69\n      swap1\n      tag_67\n      swap1\n        /* \"DeadMansSwitch.sol\":4488:4503  block.timestamp */\n      timestamp\n        /* \"#utility.yul\":160:185   */\n      dup2\n      mstore\n        /* \"#utility.yul\":148:150   */\n      0x20\n        /* \"#utility.yul\":133:151   */\n      add\n      swap1\n        /* \"#utility.yul\":14:191   */\n      jump\n        /* \"#utility.yul\":619:799   */\n    tag_46:\n        /* \"#utility.yul\":678:684   */\n      0x00\n        /* \"#utility.yul\":731:733   */\n      0x20\n        /* \"#utility.yul\":719:728   */\n      dup3\n        /* \"#utility.yul\":710:717   */\n      dup5\n        /* \"#utility.yul\":706:729   */\n      sub\n        /* \"#utility.yul\":702:734   */\n      slt\n        /* \"#utility.yul\":699:751   */\n      iszero\n      tag_103\n      jumpi\n        /* \"#utility.yul\":747:748   */\n      0x00\n        /* \"#utility.yul\":744:745   */\n      dup1\n        /* \"#utility.yul\":737:749   */\n      revert\n        /* \"#utility.yul\":699:751   */\n    tag_103:\n      pop\n        /* \"#utility.yul\":770:793   */\n      calldataload\n      swap2\n        /* \"#utility.yul\":619:799   */\n      swap1\n      pop\n      jump\t// out\n        /* \"#utility.yul\":804:1029   */\n    tag_50:\n        /* \"#utility.yul\":871:880   */\n      dup2\n      dup2\n      sub\n        /* \"#utility.yul\":892:903   */\n      dup2\n      dup2\n      gt\n        /* \"#utility.yul\":889:1023   */\n      iszero\n      tag_105\n      jumpi\n        /* \"#utility.yul\":945:955   */\n      0x4e487b71\n        /* \"#utility.yul\":940:943   */\n      0xe0\n        /* \"#utility.yul\":936:956   */\n      shl\n        /* \"#utility.yul\":933:934   */\n      0x00\n        /* \"#utility.yul\":926:957   */\n      mstore\n        /* \"#utility.yul\":980:984   */\n      0x11\n        /* \"#utility.yul\":977:978   */\n      0x04\n        /* \"#utility.yul\":970:985   */\n      mstore\n        /* \"#utility.yul\":1008:1012   */\n      0x24\n        /* \"#utility.yul\":1005:1006   */\n      0x00\n        /* \"#utility.yul\":998:1013   */\n      revert\n        /* \"#utility.yul\":889:1023   */\n    tag_105:\n        /* \"#utility.yul\":804:1029   */\n      swap3\n      swap2\n      pop\n      pop\n      jump\t// out\n\n    auxdata: 0xa2646970667358221220ea8c49e72cd66e0d5ae80d98c79ae62ca895dbf0a2c648bbe0ce8ff40bf2278e64736f6c63430008110033\n}\n",
    "bytecode": {
      "linkReferences": {},
      "object": "608060405234801561001057600080fd5b50600080546001600160a01b031916331781556003805461010161ffff199091161790556002556106c4806100466000396000f3fe608060405234801561001057600080fd5b50600436106100be5760003560e01c80638a81694c116100765780639f8f2f7d1161005b5780639f8f2f7d14610152578063cd9c93621461015c578063d2d8ddf01461016457600080fd5b80638a81694c1461011f57806398e68f591461014a57600080fd5b80634f68343a116100a75780634f68343a146101015780636a96ac2e146101095780636cd6617e1461011257600080fd5b806317eba161146100c35780634136aa35146100df575b600080fd5b6100cc60015481565b6040519081526020015b60405180910390f35b6003546100f190610100900460ff1681565b60405190151581526020016100d6565b6100cc610177565b6100cc60025481565b6003546100f19060ff1681565b600054610132906001600160a01b031681565b6040516001600160a01b0390911681526020016100d6565b6100f16101fb565b61015a610238565b005b61015a610320565b61015a61017236600461064e565b610500565b600080600254426101889190610667565b6001546002546040805192835260208301849052429083015260608201529091507f06a38dc89ea5bc5d656aa6177f609f90b9bac89f75d639808331134e0e60c6ba9060800160405180910390a160015481116101f257806001546101ed9190610667565b6101f5565b60005b91505090565b6000600254600014610229576000610211610177565b905080600003610227576003805461ff00191690555b505b50600354610100900460ff1690565b6000546001600160a01b03163314801561025a5750600354610100900460ff16155b6102a05760405162461bcd60e51b81526020600482015260126024820152712737ba103a3432903132b732b330b1ba37b960711b60448201526064015b60405180910390fd5b60035460ff166102d75760405133907fead4f7f220244e6b588c135f1b3288c4f816e0f5f626cbcc61890a729949a4ff90600090a2565b6003805460ff191690554260025560015460405190815233907fcc272f3c4321d64a0bccc7cb23d6dc8d452b85dd320aa24eacc2464eebb68514906020015b60405180910390a2565b6000546001600160a01b031633148015610347575060035460ff6101009091041615156001145b6103885760405162461bcd60e51b81526020600482015260126024820152712737ba103a3432903132b732b330b1ba37b960711b6044820152606401610297565b60025415610491576103986101fb565b15610422576000546040516001600160a01b03909116907f793324a6f079e577f4a4646c7ec753efd3beddc2f4ce07bfae5f105c449ac3569061040c9060208082526013908201527f42656e65666163746f7220697320616c69766500000000000000000000000000604082015260600190565b60405180910390a261041c61056d565b42600255565b6000546040516001600160a01b03909116907f5a68fa7d6b655a3e592d5d99ac82863424750e9d262c902f30f9e56655e7a856906103169060208082526012908201527f42656e65666163746f7220697320646561640000000000000000000000000000604082015260600190565b6000546040516001600160a01b03909116907f793324a6f079e577f4a4646c7ec753efd3beddc2f4ce07bfae5f105c449ac3569061040c9060208082526013908201527f42656e65666163746f7220697320616c69766500000000000000000000000000604082015260600190565b6000546001600160a01b031633148015610527575060035460ff6101009091041615156001145b6105685760405162461bcd60e51b81526020600482015260126024820152712737ba103a3432903132b732b330b1ba37b960711b6044820152606401610297565b600155565b6000546001600160a01b031633148015610594575060035460ff6101009091041615156001145b6105d55760405162461bcd60e51b81526020600482015260126024820152712737ba103a3432903132b732b330b1ba37b960711b6044820152606401610297565b60035460ff161561060d5760405133907f2d44f8a9f38299bd7ddd20e336bdc35969c0188bc56e9fb39d6fd770ae4d6e9490600090a2565b6003805460ff1916600117905560405133907f2f4ddd9d3083ada98da611a8706b4a485cbe108962a3d8d2e7b7583fdf6c9a69906103169042815260200190565b60006020828403121561066057600080fd5b5035919050565b8181038181111561068857634e487b7160e01b600052601160045260246000fd5b9291505056fea2646970667358221220ea8c49e72cd66e0d5ae80d98c79ae62ca895dbf0a2c648bbe0ce8ff40bf2278e64736f6c63430008110033",
      "opcodes": "PUSH1 0x80 PUSH1 0x40 MSTORE CALLVALUE DUP1 ISZERO PUSH2 0x10 JUMPI PUSH1 0x0 DUP1 REVERT JUMPDEST POP PUSH1 0x0 DUP1 SLOAD PUSH1 0x1 PUSH1 0x1 PUSH1 0xA0 SHL SUB NOT AND CALLER OR DUP2 SSTORE PUSH1 0x3 DUP1 SLOAD PUSH2 0x101 PUSH2 0xFFFF NOT SWAP1 SWAP2 AND OR SWAP1 SSTORE PUSH1 0x2 SSTORE PUSH2 0x6C4 DUP1 PUSH2 0x46 PUSH1 0x0 CODECOPY PUSH1 0x0 RETURN INVALID PUSH1 0x80 PUSH1 0x40 MSTORE CALLVALUE DUP1 ISZERO PUSH2 0x10 JUMPI PUSH1 0x0 DUP1 REVERT JUMPDEST POP PUSH1 0x4 CALLDATASIZE LT PUSH2 0xBE JUMPI PUSH1 0x0 CALLDATALOAD PUSH1 0xE0 SHR DUP1 PUSH4 0x8A81694C GT PUSH2 0x76 JUMPI DUP1 PUSH4 0x9F8F2F7D GT PUSH2 0x5B JUMPI DUP1 PUSH4 0x9F8F2F7D EQ PUSH2 0x152 JUMPI DUP1 PUSH4 0xCD9C9362 EQ PUSH2 0x15C JUMPI DUP1 PUSH4 0xD2D8DDF0 EQ PUSH2 0x164 JUMPI PUSH1 0x0 DUP1 REVERT JUMPDEST DUP1 PUSH4 0x8A81694C EQ PUSH2 0x11F JUMPI DUP1 PUSH4 0x98E68F59 EQ PUSH2 0x14A JUMPI PUSH1 0x0 DUP1 REVERT JUMPDEST DUP1 PUSH4 0x4F68343A GT PUSH2 0xA7 JUMPI DUP1 PUSH4 0x4F68343A EQ PUSH2 0x101 JUMPI DUP1 PUSH4 0x6A96AC2E EQ PUSH2 0x109 JUMPI DUP1 PUSH4 0x6CD6617E EQ PUSH2 0x112 JUMPI PUSH1 0x0 DUP1 REVERT JUMPDEST DUP1 PUSH4 0x17EBA161 EQ PUSH2 0xC3 JUMPI DUP1 PUSH4 0x4136AA35 EQ PUSH2 0xDF JUMPI JUMPDEST PUSH1 0x0 DUP1 REVERT JUMPDEST PUSH2 0xCC PUSH1 0x1 SLOAD DUP2 JUMP JUMPDEST PUSH1 0x40 MLOAD SWAP1 DUP2 MSTORE PUSH1 0x20 ADD JUMPDEST PUSH1 0x40 MLOAD DUP1 SWAP2 SUB SWAP1 RETURN JUMPDEST PUSH1 0x3 SLOAD PUSH2 0xF1 SWAP1 PUSH2 0x100 SWAP1 DIV PUSH1 0xFF AND DUP2 JUMP JUMPDEST PUSH1 0x40 MLOAD SWAP1 ISZERO ISZERO DUP2 MSTORE PUSH1 0x20 ADD PUSH2 0xD6 JUMP JUMPDEST PUSH2 0xCC PUSH2 0x177 JUMP JUMPDEST PUSH2 0xCC PUSH1 0x2 SLOAD DUP2 JUMP JUMPDEST PUSH1 0x3 SLOAD PUSH2 0xF1 SWAP1 PUSH1 0xFF AND DUP2 JUMP JUMPDEST PUSH1 0x0 SLOAD PUSH2 0x132 SWAP1 PUSH1 0x1 PUSH1 0x1 PUSH1 0xA0 SHL SUB AND DUP2 JUMP JUMPDEST PUSH1 0x40 MLOAD PUSH1 0x1 PUSH1 0x1 PUSH1 0xA0 SHL SUB SWAP1 SWAP2 AND DUP2 MSTORE PUSH1 0x20 ADD PUSH2 0xD6 JUMP JUMPDEST PUSH2 0xF1 PUSH2 0x1FB JUMP JUMPDEST PUSH2 0x15A PUSH2 0x238 JUMP JUMPDEST STOP JUMPDEST PUSH2 0x15A PUSH2 0x320 JUMP JUMPDEST PUSH2 0x15A PUSH2 0x172 CALLDATASIZE PUSH1 0x4 PUSH2 0x64E JUMP JUMPDEST PUSH2 0x500 JUMP JUMPDEST PUSH1 0x0 DUP1 PUSH1 0x2 SLOAD TIMESTAMP PUSH2 0x188 SWAP2 SWAP1 PUSH2 0x667 JUMP JUMPDEST PUSH1 0x1 SLOAD PUSH1 0x2 SLOAD PUSH1 0x40 DUP1 MLOAD SWAP3 DUP4 MSTORE PUSH1 0x20 DUP4 ADD DUP5 SWAP1 MSTORE TIMESTAMP SWAP1 DUP4 ADD MSTORE PUSH1 0x60 DUP3 ADD MSTORE SWAP1 SWAP2 POP PUSH32 0x6A38DC89EA5BC5D656AA6177F609F90B9BAC89F75D639808331134E0E60C6BA SWAP1 PUSH1 0x80 ADD PUSH1 0x40 MLOAD DUP1 SWAP2 SUB SWAP1 LOG1 PUSH1 0x1 SLOAD DUP2 GT PUSH2 0x1F2 JUMPI DUP1 PUSH1 0x1 SLOAD PUSH2 0x1ED SWAP2 SWAP1 PUSH2 0x667 JUMP JUMPDEST PUSH2 0x1F5 JUMP JUMPDEST PUSH1 0x0 JUMPDEST SWAP2 POP POP SWAP1 JUMP JUMPDEST PUSH1 0x0 PUSH1 0x2 SLOAD PUSH1 0x0 EQ PUSH2 0x229 JUMPI PUSH1 0x0 PUSH2 0x211 PUSH2 0x177 JUMP JUMPDEST SWAP1 POP DUP1 PUSH1 0x0 SUB PUSH2 0x227 JUMPI PUSH1 0x3 DUP1 SLOAD PUSH2 0xFF00 NOT AND SWAP1 SSTORE JUMPDEST POP JUMPDEST POP PUSH1 0x3 SLOAD PUSH2 0x100 SWAP1 DIV PUSH1 0xFF AND SWAP1 JUMP JUMPDEST PUSH1 0x0 SLOAD PUSH1 0x1 PUSH1 0x1 PUSH1 0xA0 SHL SUB AND CALLER EQ DUP1 ISZERO PUSH2 0x25A JUMPI POP PUSH1 0x3 SLOAD PUSH2 0x100 SWAP1 DIV PUSH1 0xFF AND ISZERO JUMPDEST PUSH2 0x2A0 JUMPI PUSH1 0x40 MLOAD PUSH3 0x461BCD PUSH1 0xE5 SHL DUP2 MSTORE PUSH1 0x20 PUSH1 0x4 DUP3 ADD MSTORE PUSH1 0x12 PUSH1 0x24 DUP3 ADD MSTORE PUSH18 0x2737BA103A3432903132B732B330B1BA37B9 PUSH1 0x71 SHL PUSH1 0x44 DUP3 ADD MSTORE PUSH1 0x64 ADD JUMPDEST PUSH1 0x40 MLOAD DUP1 SWAP2 SUB SWAP1 REVERT JUMPDEST PUSH1 0x3 SLOAD PUSH1 0xFF AND PUSH2 0x2D7 JUMPI PUSH1 0x40 MLOAD CALLER SWAP1 PUSH32 0xEAD4F7F220244E6B588C135F1B3288C4F816E0F5F626CBCC61890A729949A4FF SWAP1 PUSH1 0x0 SWAP1 LOG2 JUMP JUMPDEST PUSH1 0x3 DUP1 SLOAD PUSH1 0xFF NOT AND SWAP1 SSTORE TIMESTAMP PUSH1 0x2 SSTORE PUSH1 0x1 SLOAD PUSH1 0x40 MLOAD SWAP1 DUP2 MSTORE CALLER SWAP1 PUSH32 0xCC272F3C4321D64A0BCCC7CB23D6DC8D452B85DD320AA24EACC2464EEBB68514 SWAP1 PUSH1 0x20 ADD JUMPDEST PUSH1 0x40 MLOAD DUP1 SWAP2 SUB SWAP1 LOG2 JUMP JUMPDEST PUSH1 0x0 SLOAD PUSH1 0x1 PUSH1 0x1 PUSH1 0xA0 SHL SUB AND CALLER EQ DUP1 ISZERO PUSH2 0x347 JUMPI POP PUSH1 0x3 SLOAD PUSH1 0xFF PUSH2 0x100 SWAP1 SWAP2 DIV AND ISZERO ISZERO PUSH1 0x1 EQ JUMPDEST PUSH2 0x388 JUMPI PUSH1 0x40 MLOAD PUSH3 0x461BCD PUSH1 0xE5 SHL DUP2 MSTORE PUSH1 0x20 PUSH1 0x4 DUP3 ADD MSTORE PUSH1 0x12 PUSH1 0x24 DUP3 ADD MSTORE PUSH18 0x2737BA103A3432903132B732B330B1BA37B9 PUSH1 0x71 SHL PUSH1 0x44 DUP3 ADD MSTORE PUSH1 0x64 ADD PUSH2 0x297 JUMP JUMPDEST PUSH1 0x2 SLOAD ISZERO PUSH2 0x491 JUMPI PUSH2 0x398 PUSH2 0x1FB JUMP JUMPDEST ISZERO PUSH2 0x422 JUMPI PUSH1 0x0 SLOAD PUSH1 0x40 MLOAD PUSH1 0x1 PUSH1 0x1 PUSH1 0xA0 SHL SUB SWAP1 SWAP2 AND SWAP1 PUSH32 0x793324A6F079E577F4A4646C7EC753EFD3BEDDC2F4CE07BFAE5F105C449AC356 SWAP1 PUSH2 0x40C SWAP1 PUSH1 0x20 DUP1 DUP3 MSTORE PUSH1 0x13 SWAP1 DUP3 ADD MSTORE PUSH32 0x42656E65666163746F7220697320616C69766500000000000000000000000000 PUSH1 0x40 DUP3 ADD MSTORE PUSH1 0x60 ADD SWAP1 JUMP JUMPDEST PUSH1 0x40 MLOAD DUP1 SWAP2 SUB SWAP1 LOG2 PUSH2 0x41C PUSH2 0x56D JUMP JUMPDEST TIMESTAMP PUSH1 0x2 SSTORE JUMP JUMPDEST PUSH1 0x0 SLOAD PUSH1 0x40 MLOAD PUSH1 0x1 PUSH1 0x1 PUSH1 0xA0 SHL SUB SWAP1 SWAP2 AND SWAP1 PUSH32 0x5A68FA7D6B655A3E592D5D99AC82863424750E9D262C902F30F9E56655E7A856 SWAP1 PUSH2 0x316 SWAP1 PUSH1 0x20 DUP1 DUP3 MSTORE PUSH1 0x12 SWAP1 DUP3 ADD MSTORE PUSH32 0x42656E65666163746F7220697320646561640000000000000000000000000000 PUSH1 0x40 DUP3 ADD MSTORE PUSH1 0x60 ADD SWAP1 JUMP JUMPDEST PUSH1 0x0 SLOAD PUSH1 0x40 MLOAD PUSH1 0x1 PUSH1 0x1 PUSH1 0xA0 SHL SUB SWAP1 SWAP2 AND SWAP1 PUSH32 0x793324A6F079E577F4A4646C7EC753EFD3BEDDC2F4CE07BFAE5F105C449AC356 SWAP1 PUSH2 0x40C SWAP1 PUSH1 0x20 DUP1 DUP3 MSTORE PUSH1 0x13 SWAP1 DUP3 ADD MSTORE PUSH32 0x42656E65666163746F7220697320616C69766500000000000000000000000000 PUSH1 0x40 DUP3 ADD MSTORE PUSH1 0x60 ADD SWAP1 JUMP JUMPDEST PUSH1 0x0 SLOAD PUSH1 0x1 PUSH1 0x1 PUSH1 0xA0 SHL SUB AND CALLER EQ DUP1 ISZERO PUSH2 0x527 JUMPI POP PUSH1 0x3 SLOAD PUSH1 0xFF PUSH2 0x100 SWAP1 SWAP2 DIV AND ISZERO ISZERO PUSH1 0x1 EQ JUMPDEST PUSH2 0x568 JUMPI PUSH1 0x40 MLOAD PUSH3 0x461BCD PUSH1 0xE5 SHL DUP2 MSTORE PUSH1 0x20 PUSH1 0x4 DUP3 ADD MSTORE PUSH1 0x12 PUSH1 0x24 DUP3 ADD MSTORE PUSH18 0x2737BA103A3432903132B732B330B1BA37B9 PUSH1 0x71 SHL PUSH1 0x44 DUP3 ADD MSTORE PUSH1 0x64 ADD PUSH2 0x297 JUMP JUMPDEST PUSH1 0x1 SSTORE JUMP JUMPDEST PUSH1 0x0 SLOAD PUSH1 0x1 PUSH1 0x1 PUSH1 0xA0 SHL SUB AND CALLER EQ DUP1 ISZERO PUSH2 0x594 JUMPI POP PUSH1 0x3 SLOAD PUSH1 0xFF PUSH2 0x100 SWAP1 SWAP2 DIV AND ISZERO ISZERO PUSH1 0x1 EQ JUMPDEST PUSH2 0x5D5 JUMPI PUSH1 0x40 MLOAD PUSH3 0x461BCD PUSH1 0xE5 SHL DUP2 MSTORE PUSH1 0x20 PUSH1 0x4 DUP3 ADD MSTORE PUSH1 0x12 PUSH1 0x24 DUP3 ADD MSTORE PUSH18 0x2737BA103A3432903132B732B330B1BA37B9 PUSH1 0x71 SHL PUSH1 0x44 DUP3 ADD MSTORE PUSH1 0x64 ADD PUSH2 0x297 JUMP JUMPDEST PUSH1 0x3 SLOAD PUSH1 0xFF AND ISZERO PUSH2 0x60D JUMPI PUSH1 0x40 MLOAD CALLER SWAP1 PUSH32 0x2D44F8A9F38299BD7DDD20E336BDC35969C0188BC56E9FB39D6FD770AE4D6E94 SWAP1 PUSH1 0x0 SWAP1 LOG2 JUMP JUMPDEST PUSH1 0x3 DUP1 SLOAD PUSH1 0xFF NOT AND PUSH1 0x1 OR SWAP1 SSTORE PUSH1 0x40 MLOAD CALLER SWAP1 PUSH32 0x2F4DDD9D3083ADA98DA611A8706B4A485CBE108962A3D8D2E7B7583FDF6C9A69 SWAP1 PUSH2 0x316 SWAP1 TIMESTAMP DUP2 MSTORE PUSH1 0x20 ADD SWAP1 JUMP JUMPDEST PUSH1 0x0 PUSH1 0x20 DUP3 DUP5 SUB SLT ISZERO PUSH2 0x660 JUMPI PUSH1 0x0 DUP1 REVERT JUMPDEST POP CALLDATALOAD SWAP2 SWAP1 POP JUMP JUMPDEST DUP2 DUP2 SUB DUP2 DUP2 GT ISZERO PUSH2 0x688 JUMPI PUSH4 0x4E487B71 PUSH1 0xE0 SHL PUSH1 0x0 MSTORE PUSH1 0x11 PUSH1 0x4 MSTORE PUSH1 0x24 PUSH1 0x0 REVERT JUMPDEST SWAP3 SWAP2 POP POP JUMP INVALID LOG2 PUSH5 0x6970667358 0x22 SLT KECCAK256 0xEA DUP13 0x49 0xE7 0x2C 0xD6 PUSH15 0xD5AE80D98C79AE62CA895DBF0A2C6 BASEFEE 0xBB 0xE0 0xCE DUP16 DELEGATECALL SIGNEXTEND CALLCODE 0x27 DUP15 PUSH5 0x736F6C6343 STOP ADDMOD GT STOP CALLER "
    },
    "gasEstimates": {
      "creation": {
        "codeDepositCost": "346400",
        "executionCost": "53854",
        "totalCost": "400254"
      },
      "external": {
        "benefactor()": "2360",
        "checkAliveStatus()": "infinite",
        "countdownDuration()": "2308",
        "enableSwitch()": "56438",
        "getRemainingCountdownTime()": "infinite",
        "isAlive()": "2367",
        "isSwitchedOff()": "2377",
        "lastBenefactorResponseTime()": "2329",
        "respondToSwitch()": "infinite",
        "setCountdownDuration(uint256)": "26687"
      },
      "internal": {
        "disableSwitch()": "infinite"
      }
    },
    "methodIdentifiers": {
      "benefactor()": "8a81694c",
      "checkAliveStatus()": "98e68f59",
      "countdownDuration()": "17eba161",
      "enableSwitch()": "9f8f2f7d",
      "getRemainingCountdownTime()": "4f68343a",
      "isAlive()": "4136aa35",
      "isSwitchedOff()": "6cd6617e",
      "lastBenefactorResponseTime()": "6a96ac2e",
      "respondToSwitch()": "cd9c9362",
      "setCountdownDuration(uint256)": "d2d8ddf0"
    }
  },
  "storageLayout": {
    "storage": [
      {
        "astId": 815,
        "contract": "DeadMansSwitch.sol:DeadMansSwitch",
        "label": "benefactor",
        "offset": 0,
        "slot": "0",
        "type": "t_address"
      },
      {
        "astId": 817,
        "contract": "DeadMansSwitch.sol:DeadMansSwitch",
        "label": "countdownDuration",
        "offset": 0,
        "slot": "1",
        "type": "t_uint256"
      },
      {
        "astId": 819,
        "contract": "DeadMansSwitch.sol:DeadMansSwitch",
        "label": "lastBenefactorResponseTime",
        "offset": 0,
        "slot": "2",
        "type": "t_uint256"
      },
      {
        "astId": 821,
        "contract": "DeadMansSwitch.sol:DeadMansSwitch",
        "label": "isSwitchedOff",
        "offset": 0,
        "slot": "3",
        "type": "t_bool"
      },
      {
        "astId": 823,
        "contract": "DeadMansSwitch.sol:DeadMansSwitch",
        "label": "isAlive",
        "offset": 1,
        "slot": "3",
        "type": "t_bool"
      }
    ],
    "types": {
      "t_address": {
        "encoding": "inplace",
        "label": "address",
        "numberOfBytes": "20"
      },
      "t_bool": {
        "encoding": "inplace",
        "label": "bool",
        "numberOfBytes": "1"
      },
      "t_uint256": {
        "encoding": "inplace",
        "label": "uint256",
        "numberOfBytes": "32"
      }
    }
  },
  "userdoc": {
    "kind": "user",
    "methods": {},
    "version": 1
  }
}